{
	"data": {
		"bytecode": {
			"linkReferences": {},
			"object": "611478610053600b82828239805160001a607314610046577f4e487b7100000000000000000000000000000000000000000000000000000000600052600060045260246000fd5b30600052607381538281f3fe73000000000000000000000000000000000000000030146080604052600436106100ff5760003560e01c80639054bdec116100a1578063b199993711610070578063b199993714610314578063b238ad0e14610344578063d773485514610374578063fa93f883146103a4576100ff565b80639054bdec1461025457806392d6631314610284578063a324ad24146102b4578063a6f0e577146102e4576100ff565b806365c72840116100dd57806365c72840146101945780637f791833146101c45780638aa001fc146101f45780638c8d98a014610224576100ff565b80633e239e1a146101045780634ac1ad781461013457806362ba968714610164575b600080fd5b61011e60048036038101906101199190610df7565b6103d4565b60405161012b9190610e40565b60405180910390f35b61014e60048036038101906101499190610df7565b610401565b60405161015b9190610e40565b60405180910390f35b61017e60048036038101906101799190610ec1565b610431565b60405161018b9190610f4b565b60405180910390f35b6101ae60048036038101906101a99190610df7565b61044d565b6040516101bb9190610e40565b60405180910390f35b6101de60048036038101906101d99190610f66565b610463565b6040516101eb9190610f4b565b60405180910390f35b61020e60048036038101906102099190610df7565b61047e565b60405161021b9190610e40565b60405180910390f35b61023e60048036038101906102399190610fcd565b610494565b60405161024b9190610f4b565b60405180910390f35b61026e60048036038101906102699190611020565b6104af565b60405161027b9190610f4b565b60405180910390f35b61029e60048036038101906102999190610df7565b61081a565b6040516102ab91906110bc565b60405180910390f35b6102ce60048036038101906102c99190610df7565b610931565b6040516102db9190610e40565b60405180910390f35b6102fe60048036038101906102f991906110d7565b610947565b60405161030b919061111f565b60405180910390f35b61032e60048036038101906103299190610df7565b6109b6565b60405161033b9190610f4b565b60405180910390f35b61035e6004803603810190610359919061113a565b610a0a565b60405161036b9190610e40565b60405180910390f35b61038e6004803603810190610389919061117a565b610ad6565b60405161039b9190610f4b565b60405180910390f35b6103be60048036038101906103b99190610df7565b610b14565b6040516103cb9190610e40565b60405180910390f35b60006018603c80846103e69190611218565b6103f09190611218565b6103fa9190611249565b9050919050565b60006007600462015180846104169190611218565b610420919061127a565b61042a9190611249565b9050919050565b6000610442868686868660006104af565b905095945050505050565b600061045882610b35565b604001519050919050565b6000610474858585856000806104af565b9050949350505050565b6000603c8261048d9190611249565b9050919050565b60006104a684848460008060006104af565b90509392505050565b6000806107b290505b8761ffff168161ffff161015610513576104d181610947565b156104ed576301e28500826104e6919061127a565b9150610500565b6301e13380826104fd919061127a565b91505b808061050b906112ae565b9150506104b8565b61051b610d46565b601f816000600c8110610531576105306112d8565b5b602002019060ff16908160ff168152505061054b89610947565b1561057c57601d816001600c8110610566576105656112d8565b5b602002019060ff16908160ff16815250506105a4565b601c816001600c8110610592576105916112d8565b5b602002019060ff16908160ff16815250505b601f816002600c81106105ba576105b96112d8565b5b602002019060ff16908160ff1681525050601e816003600c81106105e1576105e06112d8565b5b602002019060ff16908160ff1681525050601f816004600c8110610608576106076112d8565b5b602002019060ff16908160ff1681525050601e816005600c811061062f5761062e6112d8565b5b602002019060ff16908160ff1681525050601f816006600c8110610656576106556112d8565b5b602002019060ff16908160ff1681525050601f816007600c811061067d5761067c6112d8565b5b602002019060ff16908160ff1681525050601e816008600c81106106a4576106a36112d8565b5b602002019060ff16908160ff1681525050601f816009600c81106106cb576106ca6112d8565b5b602002019060ff16908160ff1681525050601e81600a600c81106106f2576106f16112d8565b5b602002019060ff16908160ff1681525050601f81600b600c8110610719576107186112d8565b5b602002019060ff16908160ff1681525050600191505b8760ff168261ffff161015610797578060018361074c9190611307565b61ffff16600c8110610761576107606112d8565b5b602002015160ff1662015180610777919061133d565b83610782919061127a565b9250818061078f906112ae565b92505061072f565b6001876107a4919061137f565b60ff16620151806107b5919061133d565b836107c0919061127a565b92508560ff16610e106107d3919061133d565b836107de919061127a565b92508460ff16603c6107f0919061133d565b836107fb919061127a565b92508360ff168361080c919061127a565b925050509695505050505050565b600080600090506000806301e13380856108349190611218565b6107b261ffff16610845919061127a565b91506108566107b261ffff166109b6565b6108638361ffff166109b6565b61086d91906113b4565b9050806301e2850061087f919061133d565b8361088a919061127a565b9250806107b28361089b9190611307565b61ffff166108a991906113b4565b6301e133806108b8919061133d565b836108c3919061127a565b92505b84831115610926576108e36001836108de9190611307565b610947565b156108ff576301e28500836108f891906113b4565b9250610912565b6301e133808361090f91906113b4565b92505b60018261091f9190611307565b91506108c6565b819350505050919050565b600061093c82610b35565b602001519050919050565b60008060048361095791906113e8565b61ffff161461096957600090506109b1565b600060648361097891906113e8565b61ffff161461098a57600190506109b1565b60006101908361099a91906113e8565b61ffff16146109ac57600090506109b1565b600190505b919050565b60006001826109c591906113b4565b9150610190826109d59190611218565b6064836109e29190611218565b6004846109ef9190611218565b6109f991906113b4565b610a03919061127a565b9050919050565b600060018360ff161480610a21575060038360ff16145b80610a2f575060058360ff16145b80610a3d575060078360ff16145b80610a4b575060088360ff16145b80610a595750600a8360ff16145b80610a675750600c8360ff16145b15610a7557601f9050610ad0565b60048360ff161480610a8a575060068360ff16145b80610a98575060098360ff16145b80610aa65750600b8360ff16145b15610ab457601e9050610ad0565b610abd82610947565b15610acb57601d9050610ad0565b601c90505b92915050565b6000806018603c808686610aea91906113b4565b610af49190611218565b610afe9190611218565b610b089190611218565b90508091505092915050565b6000603c8083610b249190611218565b610b2e9190611249565b9050919050565b610b3d610d69565b60008080610b4a8561081a565b846000019061ffff16908161ffff1681525050610b6c6107b261ffff166109b6565b610b7d856000015161ffff166109b6565b610b8791906113b4565b9150816301e28500610b99919061133d565b83610ba4919061127a565b9250816107b28560000151610bb99190611307565b61ffff16610bc791906113b4565b6301e13380610bd6919061133d565b83610be1919061127a565b92506000600191505b600c8260ff1611610c6157610c03828660000151610a0a565b60ff1662015180610c14919061133d565b9050858482610c23919061127a565b1115610c405781856020019060ff16908160ff1681525050610c61565b8084610c4c919061127a565b93508180610c5990611419565b925050610bea565b600191505b610c7885602001518660000151610a0a565b60ff168260ff1611610cd557858462015180610c94919061127a565b1115610cb15781856040019060ff16908160ff1681525050610cd5565b6201518084610cc0919061127a565b93508180610ccd90611419565b925050610c66565b610cde866103d4565b856060019060ff16908160ff1681525050610cf886610b14565b856080019060ff16908160ff1681525050610d128661047e565b8560a0019060ff16908160ff1681525050610d2c86610401565b8560c0019060ff16908160ff168152505050505050919050565b604051806101800160405280600c90602082028036833780820191505090505090565b6040518060e00160405280600061ffff168152602001600060ff168152602001600060ff168152602001600060ff168152602001600060ff168152602001600060ff168152602001600060ff1681525090565b600080fd5b6000819050919050565b610dd481610dc1565b8114610ddf57600080fd5b50565b600081359050610df181610dcb565b92915050565b600060208284031215610e0d57610e0c610dbc565b5b6000610e1b84828501610de2565b91505092915050565b600060ff82169050919050565b610e3a81610e24565b82525050565b6000602082019050610e556000830184610e31565b92915050565b600061ffff82169050919050565b610e7281610e5b565b8114610e7d57600080fd5b50565b600081359050610e8f81610e69565b92915050565b610e9e81610e24565b8114610ea957600080fd5b50565b600081359050610ebb81610e95565b92915050565b600080600080600060a08688031215610edd57610edc610dbc565b5b6000610eeb88828901610e80565b9550506020610efc88828901610eac565b9450506040610f0d88828901610eac565b9350506060610f1e88828901610eac565b9250506080610f2f88828901610eac565b9150509295509295909350565b610f4581610dc1565b82525050565b6000602082019050610f606000830184610f3c565b92915050565b60008060008060808587031215610f8057610f7f610dbc565b5b6000610f8e87828801610e80565b9450506020610f9f87828801610eac565b9350506040610fb087828801610eac565b9250506060610fc187828801610eac565b91505092959194509250565b600080600060608486031215610fe657610fe5610dbc565b5b6000610ff486828701610e80565b935050602061100586828701610eac565b925050604061101686828701610eac565b9150509250925092565b60008060008060008060c0878903121561103d5761103c610dbc565b5b600061104b89828a01610e80565b965050602061105c89828a01610eac565b955050604061106d89828a01610eac565b945050606061107e89828a01610eac565b935050608061108f89828a01610eac565b92505060a06110a089828a01610eac565b9150509295509295509295565b6110b681610e5b565b82525050565b60006020820190506110d160008301846110ad565b92915050565b6000602082840312156110ed576110ec610dbc565b5b60006110fb84828501610e80565b91505092915050565b60008115159050919050565b61111981611104565b82525050565b60006020820190506111346000830184611110565b92915050565b6000806040838503121561115157611150610dbc565b5b600061115f85828601610eac565b925050602061117085828601610e80565b9150509250929050565b6000806040838503121561119157611190610dbc565b5b600061119f85828601610de2565b92505060206111b085828601610de2565b9150509250929050565b7f4e487b7100000000000000000000000000000000000000000000000000000000600052601260045260246000fd5b7f4e487b7100000000000000000000000000000000000000000000000000000000600052601160045260246000fd5b600061122382610dc1565b915061122e83610dc1565b92508261123e5761123d6111ba565b5b828204905092915050565b600061125482610dc1565b915061125f83610dc1565b92508261126f5761126e6111ba565b5b828206905092915050565b600061128582610dc1565b915061129083610dc1565b92508282019050808211156112a8576112a76111e9565b5b92915050565b60006112b982610e5b565b915061ffff82036112cd576112cc6111e9565b5b600182019050919050565b7f4e487b7100000000000000000000000000000000000000000000000000000000600052603260045260246000fd5b600061131282610e5b565b915061131d83610e5b565b9250828203905061ffff811115611337576113366111e9565b5b92915050565b600061134882610dc1565b915061135383610dc1565b925082820261136181610dc1565b91508282048414831517611378576113776111e9565b5b5092915050565b600061138a82610e24565b915061139583610e24565b9250828203905060ff8111156113ae576113ad6111e9565b5b92915050565b60006113bf82610dc1565b91506113ca83610dc1565b92508282039050818111156113e2576113e16111e9565b5b92915050565b60006113f382610e5b565b91506113fe83610e5b565b92508261140e5761140d6111ba565b5b828206905092915050565b600061142482610e24565b915060ff8203611437576114366111e9565b5b60018201905091905056fea2646970667358221220190a6dbf0e94790dc982ce252acc62432040d290fd6f6c2f170393f1aee58a0064736f6c63430008120033",
			"opcodes": "PUSH2 0x1478 PUSH2 0x53 PUSH1 0xB DUP3 DUP3 DUP3 CODECOPY DUP1 MLOAD PUSH1 0x0 BYTE PUSH1 0x73 EQ PUSH2 0x46 JUMPI PUSH32 0x4E487B7100000000000000000000000000000000000000000000000000000000 PUSH1 0x0 MSTORE PUSH1 0x0 PUSH1 0x4 MSTORE PUSH1 0x24 PUSH1 0x0 REVERT JUMPDEST ADDRESS PUSH1 0x0 MSTORE PUSH1 0x73 DUP2 MSTORE8 DUP3 DUP2 RETURN INVALID PUSH20 0x0 ADDRESS EQ PUSH1 0x80 PUSH1 0x40 MSTORE PUSH1 0x4 CALLDATASIZE LT PUSH2 0xFF JUMPI PUSH1 0x0 CALLDATALOAD PUSH1 0xE0 SHR DUP1 PUSH4 0x9054BDEC GT PUSH2 0xA1 JUMPI DUP1 PUSH4 0xB1999937 GT PUSH2 0x70 JUMPI DUP1 PUSH4 0xB1999937 EQ PUSH2 0x314 JUMPI DUP1 PUSH4 0xB238AD0E EQ PUSH2 0x344 JUMPI DUP1 PUSH4 0xD7734855 EQ PUSH2 0x374 JUMPI DUP1 PUSH4 0xFA93F883 EQ PUSH2 0x3A4 JUMPI PUSH2 0xFF JUMP JUMPDEST DUP1 PUSH4 0x9054BDEC EQ PUSH2 0x254 JUMPI DUP1 PUSH4 0x92D66313 EQ PUSH2 0x284 JUMPI DUP1 PUSH4 0xA324AD24 EQ PUSH2 0x2B4 JUMPI DUP1 PUSH4 0xA6F0E577 EQ PUSH2 0x2E4 JUMPI PUSH2 0xFF JUMP JUMPDEST DUP1 PUSH4 0x65C72840 GT PUSH2 0xDD JUMPI DUP1 PUSH4 0x65C72840 EQ PUSH2 0x194 JUMPI DUP1 PUSH4 0x7F791833 EQ PUSH2 0x1C4 JUMPI DUP1 PUSH4 0x8AA001FC EQ PUSH2 0x1F4 JUMPI DUP1 PUSH4 0x8C8D98A0 EQ PUSH2 0x224 JUMPI PUSH2 0xFF JUMP JUMPDEST DUP1 PUSH4 0x3E239E1A EQ PUSH2 0x104 JUMPI DUP1 PUSH4 0x4AC1AD78 EQ PUSH2 0x134 JUMPI DUP1 PUSH4 0x62BA9687 EQ PUSH2 0x164 JUMPI JUMPDEST PUSH1 0x0 DUP1 REVERT JUMPDEST PUSH2 0x11E PUSH1 0x4 DUP1 CALLDATASIZE SUB DUP2 ADD SWAP1 PUSH2 0x119 SWAP2 SWAP1 PUSH2 0xDF7 JUMP JUMPDEST PUSH2 0x3D4 JUMP JUMPDEST PUSH1 0x40 MLOAD PUSH2 0x12B SWAP2 SWAP1 PUSH2 0xE40 JUMP JUMPDEST PUSH1 0x40 MLOAD DUP1 SWAP2 SUB SWAP1 RETURN JUMPDEST PUSH2 0x14E PUSH1 0x4 DUP1 CALLDATASIZE SUB DUP2 ADD SWAP1 PUSH2 0x149 SWAP2 SWAP1 PUSH2 0xDF7 JUMP JUMPDEST PUSH2 0x401 JUMP JUMPDEST PUSH1 0x40 MLOAD PUSH2 0x15B SWAP2 SWAP1 PUSH2 0xE40 JUMP JUMPDEST PUSH1 0x40 MLOAD DUP1 SWAP2 SUB SWAP1 RETURN JUMPDEST PUSH2 0x17E PUSH1 0x4 DUP1 CALLDATASIZE SUB DUP2 ADD SWAP1 PUSH2 0x179 SWAP2 SWAP1 PUSH2 0xEC1 JUMP JUMPDEST PUSH2 0x431 JUMP JUMPDEST PUSH1 0x40 MLOAD PUSH2 0x18B SWAP2 SWAP1 PUSH2 0xF4B JUMP JUMPDEST PUSH1 0x40 MLOAD DUP1 SWAP2 SUB SWAP1 RETURN JUMPDEST PUSH2 0x1AE PUSH1 0x4 DUP1 CALLDATASIZE SUB DUP2 ADD SWAP1 PUSH2 0x1A9 SWAP2 SWAP1 PUSH2 0xDF7 JUMP JUMPDEST PUSH2 0x44D JUMP JUMPDEST PUSH1 0x40 MLOAD PUSH2 0x1BB SWAP2 SWAP1 PUSH2 0xE40 JUMP JUMPDEST PUSH1 0x40 MLOAD DUP1 SWAP2 SUB SWAP1 RETURN JUMPDEST PUSH2 0x1DE PUSH1 0x4 DUP1 CALLDATASIZE SUB DUP2 ADD SWAP1 PUSH2 0x1D9 SWAP2 SWAP1 PUSH2 0xF66 JUMP JUMPDEST PUSH2 0x463 JUMP JUMPDEST PUSH1 0x40 MLOAD PUSH2 0x1EB SWAP2 SWAP1 PUSH2 0xF4B JUMP JUMPDEST PUSH1 0x40 MLOAD DUP1 SWAP2 SUB SWAP1 RETURN JUMPDEST PUSH2 0x20E PUSH1 0x4 DUP1 CALLDATASIZE SUB DUP2 ADD SWAP1 PUSH2 0x209 SWAP2 SWAP1 PUSH2 0xDF7 JUMP JUMPDEST PUSH2 0x47E JUMP JUMPDEST PUSH1 0x40 MLOAD PUSH2 0x21B SWAP2 SWAP1 PUSH2 0xE40 JUMP JUMPDEST PUSH1 0x40 MLOAD DUP1 SWAP2 SUB SWAP1 RETURN JUMPDEST PUSH2 0x23E PUSH1 0x4 DUP1 CALLDATASIZE SUB DUP2 ADD SWAP1 PUSH2 0x239 SWAP2 SWAP1 PUSH2 0xFCD JUMP JUMPDEST PUSH2 0x494 JUMP JUMPDEST PUSH1 0x40 MLOAD PUSH2 0x24B SWAP2 SWAP1 PUSH2 0xF4B JUMP JUMPDEST PUSH1 0x40 MLOAD DUP1 SWAP2 SUB SWAP1 RETURN JUMPDEST PUSH2 0x26E PUSH1 0x4 DUP1 CALLDATASIZE SUB DUP2 ADD SWAP1 PUSH2 0x269 SWAP2 SWAP1 PUSH2 0x1020 JUMP JUMPDEST PUSH2 0x4AF JUMP JUMPDEST PUSH1 0x40 MLOAD PUSH2 0x27B SWAP2 SWAP1 PUSH2 0xF4B JUMP JUMPDEST PUSH1 0x40 MLOAD DUP1 SWAP2 SUB SWAP1 RETURN JUMPDEST PUSH2 0x29E PUSH1 0x4 DUP1 CALLDATASIZE SUB DUP2 ADD SWAP1 PUSH2 0x299 SWAP2 SWAP1 PUSH2 0xDF7 JUMP JUMPDEST PUSH2 0x81A JUMP JUMPDEST PUSH1 0x40 MLOAD PUSH2 0x2AB SWAP2 SWAP1 PUSH2 0x10BC JUMP JUMPDEST PUSH1 0x40 MLOAD DUP1 SWAP2 SUB SWAP1 RETURN JUMPDEST PUSH2 0x2CE PUSH1 0x4 DUP1 CALLDATASIZE SUB DUP2 ADD SWAP1 PUSH2 0x2C9 SWAP2 SWAP1 PUSH2 0xDF7 JUMP JUMPDEST PUSH2 0x931 JUMP JUMPDEST PUSH1 0x40 MLOAD PUSH2 0x2DB SWAP2 SWAP1 PUSH2 0xE40 JUMP JUMPDEST PUSH1 0x40 MLOAD DUP1 SWAP2 SUB SWAP1 RETURN JUMPDEST PUSH2 0x2FE PUSH1 0x4 DUP1 CALLDATASIZE SUB DUP2 ADD SWAP1 PUSH2 0x2F9 SWAP2 SWAP1 PUSH2 0x10D7 JUMP JUMPDEST PUSH2 0x947 JUMP JUMPDEST PUSH1 0x40 MLOAD PUSH2 0x30B SWAP2 SWAP1 PUSH2 0x111F JUMP JUMPDEST PUSH1 0x40 MLOAD DUP1 SWAP2 SUB SWAP1 RETURN JUMPDEST PUSH2 0x32E PUSH1 0x4 DUP1 CALLDATASIZE SUB DUP2 ADD SWAP1 PUSH2 0x329 SWAP2 SWAP1 PUSH2 0xDF7 JUMP JUMPDEST PUSH2 0x9B6 JUMP JUMPDEST PUSH1 0x40 MLOAD PUSH2 0x33B SWAP2 SWAP1 PUSH2 0xF4B JUMP JUMPDEST PUSH1 0x40 MLOAD DUP1 SWAP2 SUB SWAP1 RETURN JUMPDEST PUSH2 0x35E PUSH1 0x4 DUP1 CALLDATASIZE SUB DUP2 ADD SWAP1 PUSH2 0x359 SWAP2 SWAP1 PUSH2 0x113A JUMP JUMPDEST PUSH2 0xA0A JUMP JUMPDEST PUSH1 0x40 MLOAD PUSH2 0x36B SWAP2 SWAP1 PUSH2 0xE40 JUMP JUMPDEST PUSH1 0x40 MLOAD DUP1 SWAP2 SUB SWAP1 RETURN JUMPDEST PUSH2 0x38E PUSH1 0x4 DUP1 CALLDATASIZE SUB DUP2 ADD SWAP1 PUSH2 0x389 SWAP2 SWAP1 PUSH2 0x117A JUMP JUMPDEST PUSH2 0xAD6 JUMP JUMPDEST PUSH1 0x40 MLOAD PUSH2 0x39B SWAP2 SWAP1 PUSH2 0xF4B JUMP JUMPDEST PUSH1 0x40 MLOAD DUP1 SWAP2 SUB SWAP1 RETURN JUMPDEST PUSH2 0x3BE PUSH1 0x4 DUP1 CALLDATASIZE SUB DUP2 ADD SWAP1 PUSH2 0x3B9 SWAP2 SWAP1 PUSH2 0xDF7 JUMP JUMPDEST PUSH2 0xB14 JUMP JUMPDEST PUSH1 0x40 MLOAD PUSH2 0x3CB SWAP2 SWAP1 PUSH2 0xE40 JUMP JUMPDEST PUSH1 0x40 MLOAD DUP1 SWAP2 SUB SWAP1 RETURN JUMPDEST PUSH1 0x0 PUSH1 0x18 PUSH1 0x3C DUP1 DUP5 PUSH2 0x3E6 SWAP2 SWAP1 PUSH2 0x1218 JUMP JUMPDEST PUSH2 0x3F0 SWAP2 SWAP1 PUSH2 0x1218 JUMP JUMPDEST PUSH2 0x3FA SWAP2 SWAP1 PUSH2 0x1249 JUMP JUMPDEST SWAP1 POP SWAP2 SWAP1 POP JUMP JUMPDEST PUSH1 0x0 PUSH1 0x7 PUSH1 0x4 PUSH3 0x15180 DUP5 PUSH2 0x416 SWAP2 SWAP1 PUSH2 0x1218 JUMP JUMPDEST PUSH2 0x420 SWAP2 SWAP1 PUSH2 0x127A JUMP JUMPDEST PUSH2 0x42A SWAP2 SWAP1 PUSH2 0x1249 JUMP JUMPDEST SWAP1 POP SWAP2 SWAP1 POP JUMP JUMPDEST PUSH1 0x0 PUSH2 0x442 DUP7 DUP7 DUP7 DUP7 DUP7 PUSH1 0x0 PUSH2 0x4AF JUMP JUMPDEST SWAP1 POP SWAP6 SWAP5 POP POP POP POP POP JUMP JUMPDEST PUSH1 0x0 PUSH2 0x458 DUP3 PUSH2 0xB35 JUMP JUMPDEST PUSH1 0x40 ADD MLOAD SWAP1 POP SWAP2 SWAP1 POP JUMP JUMPDEST PUSH1 0x0 PUSH2 0x474 DUP6 DUP6 DUP6 DUP6 PUSH1 0x0 DUP1 PUSH2 0x4AF JUMP JUMPDEST SWAP1 POP SWAP5 SWAP4 POP POP POP POP JUMP JUMPDEST PUSH1 0x0 PUSH1 0x3C DUP3 PUSH2 0x48D SWAP2 SWAP1 PUSH2 0x1249 JUMP JUMPDEST SWAP1 POP SWAP2 SWAP1 POP JUMP JUMPDEST PUSH1 0x0 PUSH2 0x4A6 DUP5 DUP5 DUP5 PUSH1 0x0 DUP1 PUSH1 0x0 PUSH2 0x4AF JUMP JUMPDEST SWAP1 POP SWAP4 SWAP3 POP POP POP JUMP JUMPDEST PUSH1 0x0 DUP1 PUSH2 0x7B2 SWAP1 POP JUMPDEST DUP8 PUSH2 0xFFFF AND DUP2 PUSH2 0xFFFF AND LT ISZERO PUSH2 0x513 JUMPI PUSH2 0x4D1 DUP2 PUSH2 0x947 JUMP JUMPDEST ISZERO PUSH2 0x4ED JUMPI PUSH4 0x1E28500 DUP3 PUSH2 0x4E6 SWAP2 SWAP1 PUSH2 0x127A JUMP JUMPDEST SWAP2 POP PUSH2 0x500 JUMP JUMPDEST PUSH4 0x1E13380 DUP3 PUSH2 0x4FD SWAP2 SWAP1 PUSH2 0x127A JUMP JUMPDEST SWAP2 POP JUMPDEST DUP1 DUP1 PUSH2 0x50B SWAP1 PUSH2 0x12AE JUMP JUMPDEST SWAP2 POP POP PUSH2 0x4B8 JUMP JUMPDEST PUSH2 0x51B PUSH2 0xD46 JUMP JUMPDEST PUSH1 0x1F DUP2 PUSH1 0x0 PUSH1 0xC DUP2 LT PUSH2 0x531 JUMPI PUSH2 0x530 PUSH2 0x12D8 JUMP JUMPDEST JUMPDEST PUSH1 0x20 MUL ADD SWAP1 PUSH1 0xFF AND SWAP1 DUP2 PUSH1 0xFF AND DUP2 MSTORE POP POP PUSH2 0x54B DUP10 PUSH2 0x947 JUMP JUMPDEST ISZERO PUSH2 0x57C JUMPI PUSH1 0x1D DUP2 PUSH1 0x1 PUSH1 0xC DUP2 LT PUSH2 0x566 JUMPI PUSH2 0x565 PUSH2 0x12D8 JUMP JUMPDEST JUMPDEST PUSH1 0x20 MUL ADD SWAP1 PUSH1 0xFF AND SWAP1 DUP2 PUSH1 0xFF AND DUP2 MSTORE POP POP PUSH2 0x5A4 JUMP JUMPDEST PUSH1 0x1C DUP2 PUSH1 0x1 PUSH1 0xC DUP2 LT PUSH2 0x592 JUMPI PUSH2 0x591 PUSH2 0x12D8 JUMP JUMPDEST JUMPDEST PUSH1 0x20 MUL ADD SWAP1 PUSH1 0xFF AND SWAP1 DUP2 PUSH1 0xFF AND DUP2 MSTORE POP POP JUMPDEST PUSH1 0x1F DUP2 PUSH1 0x2 PUSH1 0xC DUP2 LT PUSH2 0x5BA JUMPI PUSH2 0x5B9 PUSH2 0x12D8 JUMP JUMPDEST JUMPDEST PUSH1 0x20 MUL ADD SWAP1 PUSH1 0xFF AND SWAP1 DUP2 PUSH1 0xFF AND DUP2 MSTORE POP POP PUSH1 0x1E DUP2 PUSH1 0x3 PUSH1 0xC DUP2 LT PUSH2 0x5E1 JUMPI PUSH2 0x5E0 PUSH2 0x12D8 JUMP JUMPDEST JUMPDEST PUSH1 0x20 MUL ADD SWAP1 PUSH1 0xFF AND SWAP1 DUP2 PUSH1 0xFF AND DUP2 MSTORE POP POP PUSH1 0x1F DUP2 PUSH1 0x4 PUSH1 0xC DUP2 LT PUSH2 0x608 JUMPI PUSH2 0x607 PUSH2 0x12D8 JUMP JUMPDEST JUMPDEST PUSH1 0x20 MUL ADD SWAP1 PUSH1 0xFF AND SWAP1 DUP2 PUSH1 0xFF AND DUP2 MSTORE POP POP PUSH1 0x1E DUP2 PUSH1 0x5 PUSH1 0xC DUP2 LT PUSH2 0x62F JUMPI PUSH2 0x62E PUSH2 0x12D8 JUMP JUMPDEST JUMPDEST PUSH1 0x20 MUL ADD SWAP1 PUSH1 0xFF AND SWAP1 DUP2 PUSH1 0xFF AND DUP2 MSTORE POP POP PUSH1 0x1F DUP2 PUSH1 0x6 PUSH1 0xC DUP2 LT PUSH2 0x656 JUMPI PUSH2 0x655 PUSH2 0x12D8 JUMP JUMPDEST JUMPDEST PUSH1 0x20 MUL ADD SWAP1 PUSH1 0xFF AND SWAP1 DUP2 PUSH1 0xFF AND DUP2 MSTORE POP POP PUSH1 0x1F DUP2 PUSH1 0x7 PUSH1 0xC DUP2 LT PUSH2 0x67D JUMPI PUSH2 0x67C PUSH2 0x12D8 JUMP JUMPDEST JUMPDEST PUSH1 0x20 MUL ADD SWAP1 PUSH1 0xFF AND SWAP1 DUP2 PUSH1 0xFF AND DUP2 MSTORE POP POP PUSH1 0x1E DUP2 PUSH1 0x8 PUSH1 0xC DUP2 LT PUSH2 0x6A4 JUMPI PUSH2 0x6A3 PUSH2 0x12D8 JUMP JUMPDEST JUMPDEST PUSH1 0x20 MUL ADD SWAP1 PUSH1 0xFF AND SWAP1 DUP2 PUSH1 0xFF AND DUP2 MSTORE POP POP PUSH1 0x1F DUP2 PUSH1 0x9 PUSH1 0xC DUP2 LT PUSH2 0x6CB JUMPI PUSH2 0x6CA PUSH2 0x12D8 JUMP JUMPDEST JUMPDEST PUSH1 0x20 MUL ADD SWAP1 PUSH1 0xFF AND SWAP1 DUP2 PUSH1 0xFF AND DUP2 MSTORE POP POP PUSH1 0x1E DUP2 PUSH1 0xA PUSH1 0xC DUP2 LT PUSH2 0x6F2 JUMPI PUSH2 0x6F1 PUSH2 0x12D8 JUMP JUMPDEST JUMPDEST PUSH1 0x20 MUL ADD SWAP1 PUSH1 0xFF AND SWAP1 DUP2 PUSH1 0xFF AND DUP2 MSTORE POP POP PUSH1 0x1F DUP2 PUSH1 0xB PUSH1 0xC DUP2 LT PUSH2 0x719 JUMPI PUSH2 0x718 PUSH2 0x12D8 JUMP JUMPDEST JUMPDEST PUSH1 0x20 MUL ADD SWAP1 PUSH1 0xFF AND SWAP1 DUP2 PUSH1 0xFF AND DUP2 MSTORE POP POP PUSH1 0x1 SWAP2 POP JUMPDEST DUP8 PUSH1 0xFF AND DUP3 PUSH2 0xFFFF AND LT ISZERO PUSH2 0x797 JUMPI DUP1 PUSH1 0x1 DUP4 PUSH2 0x74C SWAP2 SWAP1 PUSH2 0x1307 JUMP JUMPDEST PUSH2 0xFFFF AND PUSH1 0xC DUP2 LT PUSH2 0x761 JUMPI PUSH2 0x760 PUSH2 0x12D8 JUMP JUMPDEST JUMPDEST PUSH1 0x20 MUL ADD MLOAD PUSH1 0xFF AND PUSH3 0x15180 PUSH2 0x777 SWAP2 SWAP1 PUSH2 0x133D JUMP JUMPDEST DUP4 PUSH2 0x782 SWAP2 SWAP1 PUSH2 0x127A JUMP JUMPDEST SWAP3 POP DUP2 DUP1 PUSH2 0x78F SWAP1 PUSH2 0x12AE JUMP JUMPDEST SWAP3 POP POP PUSH2 0x72F JUMP JUMPDEST PUSH1 0x1 DUP8 PUSH2 0x7A4 SWAP2 SWAP1 PUSH2 0x137F JUMP JUMPDEST PUSH1 0xFF AND PUSH3 0x15180 PUSH2 0x7B5 SWAP2 SWAP1 PUSH2 0x133D JUMP JUMPDEST DUP4 PUSH2 0x7C0 SWAP2 SWAP1 PUSH2 0x127A JUMP JUMPDEST SWAP3 POP DUP6 PUSH1 0xFF AND PUSH2 0xE10 PUSH2 0x7D3 SWAP2 SWAP1 PUSH2 0x133D JUMP JUMPDEST DUP4 PUSH2 0x7DE SWAP2 SWAP1 PUSH2 0x127A JUMP JUMPDEST SWAP3 POP DUP5 PUSH1 0xFF AND PUSH1 0x3C PUSH2 0x7F0 SWAP2 SWAP1 PUSH2 0x133D JUMP JUMPDEST DUP4 PUSH2 0x7FB SWAP2 SWAP1 PUSH2 0x127A JUMP JUMPDEST SWAP3 POP DUP4 PUSH1 0xFF AND DUP4 PUSH2 0x80C SWAP2 SWAP1 PUSH2 0x127A JUMP JUMPDEST SWAP3 POP POP POP SWAP7 SWAP6 POP POP POP POP POP POP JUMP JUMPDEST PUSH1 0x0 DUP1 PUSH1 0x0 SWAP1 POP PUSH1 0x0 DUP1 PUSH4 0x1E13380 DUP6 PUSH2 0x834 SWAP2 SWAP1 PUSH2 0x1218 JUMP JUMPDEST PUSH2 0x7B2 PUSH2 0xFFFF AND PUSH2 0x845 SWAP2 SWAP1 PUSH2 0x127A JUMP JUMPDEST SWAP2 POP PUSH2 0x856 PUSH2 0x7B2 PUSH2 0xFFFF AND PUSH2 0x9B6 JUMP JUMPDEST PUSH2 0x863 DUP4 PUSH2 0xFFFF AND PUSH2 0x9B6 JUMP JUMPDEST PUSH2 0x86D SWAP2 SWAP1 PUSH2 0x13B4 JUMP JUMPDEST SWAP1 POP DUP1 PUSH4 0x1E28500 PUSH2 0x87F SWAP2 SWAP1 PUSH2 0x133D JUMP JUMPDEST DUP4 PUSH2 0x88A SWAP2 SWAP1 PUSH2 0x127A JUMP JUMPDEST SWAP3 POP DUP1 PUSH2 0x7B2 DUP4 PUSH2 0x89B SWAP2 SWAP1 PUSH2 0x1307 JUMP JUMPDEST PUSH2 0xFFFF AND PUSH2 0x8A9 SWAP2 SWAP1 PUSH2 0x13B4 JUMP JUMPDEST PUSH4 0x1E13380 PUSH2 0x8B8 SWAP2 SWAP1 PUSH2 0x133D JUMP JUMPDEST DUP4 PUSH2 0x8C3 SWAP2 SWAP1 PUSH2 0x127A JUMP JUMPDEST SWAP3 POP JUMPDEST DUP5 DUP4 GT ISZERO PUSH2 0x926 JUMPI PUSH2 0x8E3 PUSH1 0x1 DUP4 PUSH2 0x8DE SWAP2 SWAP1 PUSH2 0x1307 JUMP JUMPDEST PUSH2 0x947 JUMP JUMPDEST ISZERO PUSH2 0x8FF JUMPI PUSH4 0x1E28500 DUP4 PUSH2 0x8F8 SWAP2 SWAP1 PUSH2 0x13B4 JUMP JUMPDEST SWAP3 POP PUSH2 0x912 JUMP JUMPDEST PUSH4 0x1E13380 DUP4 PUSH2 0x90F SWAP2 SWAP1 PUSH2 0x13B4 JUMP JUMPDEST SWAP3 POP JUMPDEST PUSH1 0x1 DUP3 PUSH2 0x91F SWAP2 SWAP1 PUSH2 0x1307 JUMP JUMPDEST SWAP2 POP PUSH2 0x8C6 JUMP JUMPDEST DUP2 SWAP4 POP POP POP POP SWAP2 SWAP1 POP JUMP JUMPDEST PUSH1 0x0 PUSH2 0x93C DUP3 PUSH2 0xB35 JUMP JUMPDEST PUSH1 0x20 ADD MLOAD SWAP1 POP SWAP2 SWAP1 POP JUMP JUMPDEST PUSH1 0x0 DUP1 PUSH1 0x4 DUP4 PUSH2 0x957 SWAP2 SWAP1 PUSH2 0x13E8 JUMP JUMPDEST PUSH2 0xFFFF AND EQ PUSH2 0x969 JUMPI PUSH1 0x0 SWAP1 POP PUSH2 0x9B1 JUMP JUMPDEST PUSH1 0x0 PUSH1 0x64 DUP4 PUSH2 0x978 SWAP2 SWAP1 PUSH2 0x13E8 JUMP JUMPDEST PUSH2 0xFFFF AND EQ PUSH2 0x98A JUMPI PUSH1 0x1 SWAP1 POP PUSH2 0x9B1 JUMP JUMPDEST PUSH1 0x0 PUSH2 0x190 DUP4 PUSH2 0x99A SWAP2 SWAP1 PUSH2 0x13E8 JUMP JUMPDEST PUSH2 0xFFFF AND EQ PUSH2 0x9AC JUMPI PUSH1 0x0 SWAP1 POP PUSH2 0x9B1 JUMP JUMPDEST PUSH1 0x1 SWAP1 POP JUMPDEST SWAP2 SWAP1 POP JUMP JUMPDEST PUSH1 0x0 PUSH1 0x1 DUP3 PUSH2 0x9C5 SWAP2 SWAP1 PUSH2 0x13B4 JUMP JUMPDEST SWAP2 POP PUSH2 0x190 DUP3 PUSH2 0x9D5 SWAP2 SWAP1 PUSH2 0x1218 JUMP JUMPDEST PUSH1 0x64 DUP4 PUSH2 0x9E2 SWAP2 SWAP1 PUSH2 0x1218 JUMP JUMPDEST PUSH1 0x4 DUP5 PUSH2 0x9EF SWAP2 SWAP1 PUSH2 0x1218 JUMP JUMPDEST PUSH2 0x9F9 SWAP2 SWAP1 PUSH2 0x13B4 JUMP JUMPDEST PUSH2 0xA03 SWAP2 SWAP1 PUSH2 0x127A JUMP JUMPDEST SWAP1 POP SWAP2 SWAP1 POP JUMP JUMPDEST PUSH1 0x0 PUSH1 0x1 DUP4 PUSH1 0xFF AND EQ DUP1 PUSH2 0xA21 JUMPI POP PUSH1 0x3 DUP4 PUSH1 0xFF AND EQ JUMPDEST DUP1 PUSH2 0xA2F JUMPI POP PUSH1 0x5 DUP4 PUSH1 0xFF AND EQ JUMPDEST DUP1 PUSH2 0xA3D JUMPI POP PUSH1 0x7 DUP4 PUSH1 0xFF AND EQ JUMPDEST DUP1 PUSH2 0xA4B JUMPI POP PUSH1 0x8 DUP4 PUSH1 0xFF AND EQ JUMPDEST DUP1 PUSH2 0xA59 JUMPI POP PUSH1 0xA DUP4 PUSH1 0xFF AND EQ JUMPDEST DUP1 PUSH2 0xA67 JUMPI POP PUSH1 0xC DUP4 PUSH1 0xFF AND EQ JUMPDEST ISZERO PUSH2 0xA75 JUMPI PUSH1 0x1F SWAP1 POP PUSH2 0xAD0 JUMP JUMPDEST PUSH1 0x4 DUP4 PUSH1 0xFF AND EQ DUP1 PUSH2 0xA8A JUMPI POP PUSH1 0x6 DUP4 PUSH1 0xFF AND EQ JUMPDEST DUP1 PUSH2 0xA98 JUMPI POP PUSH1 0x9 DUP4 PUSH1 0xFF AND EQ JUMPDEST DUP1 PUSH2 0xAA6 JUMPI POP PUSH1 0xB DUP4 PUSH1 0xFF AND EQ JUMPDEST ISZERO PUSH2 0xAB4 JUMPI PUSH1 0x1E SWAP1 POP PUSH2 0xAD0 JUMP JUMPDEST PUSH2 0xABD DUP3 PUSH2 0x947 JUMP JUMPDEST ISZERO PUSH2 0xACB JUMPI PUSH1 0x1D SWAP1 POP PUSH2 0xAD0 JUMP JUMPDEST PUSH1 0x1C SWAP1 POP JUMPDEST SWAP3 SWAP2 POP POP JUMP JUMPDEST PUSH1 0x0 DUP1 PUSH1 0x18 PUSH1 0x3C DUP1 DUP7 DUP7 PUSH2 0xAEA SWAP2 SWAP1 PUSH2 0x13B4 JUMP JUMPDEST PUSH2 0xAF4 SWAP2 SWAP1 PUSH2 0x1218 JUMP JUMPDEST PUSH2 0xAFE SWAP2 SWAP1 PUSH2 0x1218 JUMP JUMPDEST PUSH2 0xB08 SWAP2 SWAP1 PUSH2 0x1218 JUMP JUMPDEST SWAP1 POP DUP1 SWAP2 POP POP SWAP3 SWAP2 POP POP JUMP JUMPDEST PUSH1 0x0 PUSH1 0x3C DUP1 DUP4 PUSH2 0xB24 SWAP2 SWAP1 PUSH2 0x1218 JUMP JUMPDEST PUSH2 0xB2E SWAP2 SWAP1 PUSH2 0x1249 JUMP JUMPDEST SWAP1 POP SWAP2 SWAP1 POP JUMP JUMPDEST PUSH2 0xB3D PUSH2 0xD69 JUMP JUMPDEST PUSH1 0x0 DUP1 DUP1 PUSH2 0xB4A DUP6 PUSH2 0x81A JUMP JUMPDEST DUP5 PUSH1 0x0 ADD SWAP1 PUSH2 0xFFFF AND SWAP1 DUP2 PUSH2 0xFFFF AND DUP2 MSTORE POP POP PUSH2 0xB6C PUSH2 0x7B2 PUSH2 0xFFFF AND PUSH2 0x9B6 JUMP JUMPDEST PUSH2 0xB7D DUP6 PUSH1 0x0 ADD MLOAD PUSH2 0xFFFF AND PUSH2 0x9B6 JUMP JUMPDEST PUSH2 0xB87 SWAP2 SWAP1 PUSH2 0x13B4 JUMP JUMPDEST SWAP2 POP DUP2 PUSH4 0x1E28500 PUSH2 0xB99 SWAP2 SWAP1 PUSH2 0x133D JUMP JUMPDEST DUP4 PUSH2 0xBA4 SWAP2 SWAP1 PUSH2 0x127A JUMP JUMPDEST SWAP3 POP DUP2 PUSH2 0x7B2 DUP6 PUSH1 0x0 ADD MLOAD PUSH2 0xBB9 SWAP2 SWAP1 PUSH2 0x1307 JUMP JUMPDEST PUSH2 0xFFFF AND PUSH2 0xBC7 SWAP2 SWAP1 PUSH2 0x13B4 JUMP JUMPDEST PUSH4 0x1E13380 PUSH2 0xBD6 SWAP2 SWAP1 PUSH2 0x133D JUMP JUMPDEST DUP4 PUSH2 0xBE1 SWAP2 SWAP1 PUSH2 0x127A JUMP JUMPDEST SWAP3 POP PUSH1 0x0 PUSH1 0x1 SWAP2 POP JUMPDEST PUSH1 0xC DUP3 PUSH1 0xFF AND GT PUSH2 0xC61 JUMPI PUSH2 0xC03 DUP3 DUP7 PUSH1 0x0 ADD MLOAD PUSH2 0xA0A JUMP JUMPDEST PUSH1 0xFF AND PUSH3 0x15180 PUSH2 0xC14 SWAP2 SWAP1 PUSH2 0x133D JUMP JUMPDEST SWAP1 POP DUP6 DUP5 DUP3 PUSH2 0xC23 SWAP2 SWAP1 PUSH2 0x127A JUMP JUMPDEST GT ISZERO PUSH2 0xC40 JUMPI DUP2 DUP6 PUSH1 0x20 ADD SWAP1 PUSH1 0xFF AND SWAP1 DUP2 PUSH1 0xFF AND DUP2 MSTORE POP POP PUSH2 0xC61 JUMP JUMPDEST DUP1 DUP5 PUSH2 0xC4C SWAP2 SWAP1 PUSH2 0x127A JUMP JUMPDEST SWAP4 POP DUP2 DUP1 PUSH2 0xC59 SWAP1 PUSH2 0x1419 JUMP JUMPDEST SWAP3 POP POP PUSH2 0xBEA JUMP JUMPDEST PUSH1 0x1 SWAP2 POP JUMPDEST PUSH2 0xC78 DUP6 PUSH1 0x20 ADD MLOAD DUP7 PUSH1 0x0 ADD MLOAD PUSH2 0xA0A JUMP JUMPDEST PUSH1 0xFF AND DUP3 PUSH1 0xFF AND GT PUSH2 0xCD5 JUMPI DUP6 DUP5 PUSH3 0x15180 PUSH2 0xC94 SWAP2 SWAP1 PUSH2 0x127A JUMP JUMPDEST GT ISZERO PUSH2 0xCB1 JUMPI DUP2 DUP6 PUSH1 0x40 ADD SWAP1 PUSH1 0xFF AND SWAP1 DUP2 PUSH1 0xFF AND DUP2 MSTORE POP POP PUSH2 0xCD5 JUMP JUMPDEST PUSH3 0x15180 DUP5 PUSH2 0xCC0 SWAP2 SWAP1 PUSH2 0x127A JUMP JUMPDEST SWAP4 POP DUP2 DUP1 PUSH2 0xCCD SWAP1 PUSH2 0x1419 JUMP JUMPDEST SWAP3 POP POP PUSH2 0xC66 JUMP JUMPDEST PUSH2 0xCDE DUP7 PUSH2 0x3D4 JUMP JUMPDEST DUP6 PUSH1 0x60 ADD SWAP1 PUSH1 0xFF AND SWAP1 DUP2 PUSH1 0xFF AND DUP2 MSTORE POP POP PUSH2 0xCF8 DUP7 PUSH2 0xB14 JUMP JUMPDEST DUP6 PUSH1 0x80 ADD SWAP1 PUSH1 0xFF AND SWAP1 DUP2 PUSH1 0xFF AND DUP2 MSTORE POP POP PUSH2 0xD12 DUP7 PUSH2 0x47E JUMP JUMPDEST DUP6 PUSH1 0xA0 ADD SWAP1 PUSH1 0xFF AND SWAP1 DUP2 PUSH1 0xFF AND DUP2 MSTORE POP POP PUSH2 0xD2C DUP7 PUSH2 0x401 JUMP JUMPDEST DUP6 PUSH1 0xC0 ADD SWAP1 PUSH1 0xFF AND SWAP1 DUP2 PUSH1 0xFF AND DUP2 MSTORE POP POP POP POP POP POP SWAP2 SWAP1 POP JUMP JUMPDEST PUSH1 0x40 MLOAD DUP1 PUSH2 0x180 ADD PUSH1 0x40 MSTORE DUP1 PUSH1 0xC SWAP1 PUSH1 0x20 DUP3 MUL DUP1 CALLDATASIZE DUP4 CALLDATACOPY DUP1 DUP3 ADD SWAP2 POP POP SWAP1 POP POP SWAP1 JUMP JUMPDEST PUSH1 0x40 MLOAD DUP1 PUSH1 0xE0 ADD PUSH1 0x40 MSTORE DUP1 PUSH1 0x0 PUSH2 0xFFFF AND DUP2 MSTORE PUSH1 0x20 ADD PUSH1 0x0 PUSH1 0xFF AND DUP2 MSTORE PUSH1 0x20 ADD PUSH1 0x0 PUSH1 0xFF AND DUP2 MSTORE PUSH1 0x20 ADD PUSH1 0x0 PUSH1 0xFF AND DUP2 MSTORE PUSH1 0x20 ADD PUSH1 0x0 PUSH1 0xFF AND DUP2 MSTORE PUSH1 0x20 ADD PUSH1 0x0 PUSH1 0xFF AND DUP2 MSTORE PUSH1 0x20 ADD PUSH1 0x0 PUSH1 0xFF AND DUP2 MSTORE POP SWAP1 JUMP JUMPDEST PUSH1 0x0 DUP1 REVERT JUMPDEST PUSH1 0x0 DUP2 SWAP1 POP SWAP2 SWAP1 POP JUMP JUMPDEST PUSH2 0xDD4 DUP2 PUSH2 0xDC1 JUMP JUMPDEST DUP2 EQ PUSH2 0xDDF JUMPI PUSH1 0x0 DUP1 REVERT JUMPDEST POP JUMP JUMPDEST PUSH1 0x0 DUP2 CALLDATALOAD SWAP1 POP PUSH2 0xDF1 DUP2 PUSH2 0xDCB JUMP JUMPDEST SWAP3 SWAP2 POP POP JUMP JUMPDEST PUSH1 0x0 PUSH1 0x20 DUP3 DUP5 SUB SLT ISZERO PUSH2 0xE0D JUMPI PUSH2 0xE0C PUSH2 0xDBC JUMP JUMPDEST JUMPDEST PUSH1 0x0 PUSH2 0xE1B DUP5 DUP3 DUP6 ADD PUSH2 0xDE2 JUMP JUMPDEST SWAP2 POP POP SWAP3 SWAP2 POP POP JUMP JUMPDEST PUSH1 0x0 PUSH1 0xFF DUP3 AND SWAP1 POP SWAP2 SWAP1 POP JUMP JUMPDEST PUSH2 0xE3A DUP2 PUSH2 0xE24 JUMP JUMPDEST DUP3 MSTORE POP POP JUMP JUMPDEST PUSH1 0x0 PUSH1 0x20 DUP3 ADD SWAP1 POP PUSH2 0xE55 PUSH1 0x0 DUP4 ADD DUP5 PUSH2 0xE31 JUMP JUMPDEST SWAP3 SWAP2 POP POP JUMP JUMPDEST PUSH1 0x0 PUSH2 0xFFFF DUP3 AND SWAP1 POP SWAP2 SWAP1 POP JUMP JUMPDEST PUSH2 0xE72 DUP2 PUSH2 0xE5B JUMP JUMPDEST DUP2 EQ PUSH2 0xE7D JUMPI PUSH1 0x0 DUP1 REVERT JUMPDEST POP JUMP JUMPDEST PUSH1 0x0 DUP2 CALLDATALOAD SWAP1 POP PUSH2 0xE8F DUP2 PUSH2 0xE69 JUMP JUMPDEST SWAP3 SWAP2 POP POP JUMP JUMPDEST PUSH2 0xE9E DUP2 PUSH2 0xE24 JUMP JUMPDEST DUP2 EQ PUSH2 0xEA9 JUMPI PUSH1 0x0 DUP1 REVERT JUMPDEST POP JUMP JUMPDEST PUSH1 0x0 DUP2 CALLDATALOAD SWAP1 POP PUSH2 0xEBB DUP2 PUSH2 0xE95 JUMP JUMPDEST SWAP3 SWAP2 POP POP JUMP JUMPDEST PUSH1 0x0 DUP1 PUSH1 0x0 DUP1 PUSH1 0x0 PUSH1 0xA0 DUP7 DUP9 SUB SLT ISZERO PUSH2 0xEDD JUMPI PUSH2 0xEDC PUSH2 0xDBC JUMP JUMPDEST JUMPDEST PUSH1 0x0 PUSH2 0xEEB DUP9 DUP3 DUP10 ADD PUSH2 0xE80 JUMP JUMPDEST SWAP6 POP POP PUSH1 0x20 PUSH2 0xEFC DUP9 DUP3 DUP10 ADD PUSH2 0xEAC JUMP JUMPDEST SWAP5 POP POP PUSH1 0x40 PUSH2 0xF0D DUP9 DUP3 DUP10 ADD PUSH2 0xEAC JUMP JUMPDEST SWAP4 POP POP PUSH1 0x60 PUSH2 0xF1E DUP9 DUP3 DUP10 ADD PUSH2 0xEAC JUMP JUMPDEST SWAP3 POP POP PUSH1 0x80 PUSH2 0xF2F DUP9 DUP3 DUP10 ADD PUSH2 0xEAC JUMP JUMPDEST SWAP2 POP POP SWAP3 SWAP6 POP SWAP3 SWAP6 SWAP1 SWAP4 POP JUMP JUMPDEST PUSH2 0xF45 DUP2 PUSH2 0xDC1 JUMP JUMPDEST DUP3 MSTORE POP POP JUMP JUMPDEST PUSH1 0x0 PUSH1 0x20 DUP3 ADD SWAP1 POP PUSH2 0xF60 PUSH1 0x0 DUP4 ADD DUP5 PUSH2 0xF3C JUMP JUMPDEST SWAP3 SWAP2 POP POP JUMP JUMPDEST PUSH1 0x0 DUP1 PUSH1 0x0 DUP1 PUSH1 0x80 DUP6 DUP8 SUB SLT ISZERO PUSH2 0xF80 JUMPI PUSH2 0xF7F PUSH2 0xDBC JUMP JUMPDEST JUMPDEST PUSH1 0x0 PUSH2 0xF8E DUP8 DUP3 DUP9 ADD PUSH2 0xE80 JUMP JUMPDEST SWAP5 POP POP PUSH1 0x20 PUSH2 0xF9F DUP8 DUP3 DUP9 ADD PUSH2 0xEAC JUMP JUMPDEST SWAP4 POP POP PUSH1 0x40 PUSH2 0xFB0 DUP8 DUP3 DUP9 ADD PUSH2 0xEAC JUMP JUMPDEST SWAP3 POP POP PUSH1 0x60 PUSH2 0xFC1 DUP8 DUP3 DUP9 ADD PUSH2 0xEAC JUMP JUMPDEST SWAP2 POP POP SWAP3 SWAP6 SWAP2 SWAP5 POP SWAP3 POP JUMP JUMPDEST PUSH1 0x0 DUP1 PUSH1 0x0 PUSH1 0x60 DUP5 DUP7 SUB SLT ISZERO PUSH2 0xFE6 JUMPI PUSH2 0xFE5 PUSH2 0xDBC JUMP JUMPDEST JUMPDEST PUSH1 0x0 PUSH2 0xFF4 DUP7 DUP3 DUP8 ADD PUSH2 0xE80 JUMP JUMPDEST SWAP4 POP POP PUSH1 0x20 PUSH2 0x1005 DUP7 DUP3 DUP8 ADD PUSH2 0xEAC JUMP JUMPDEST SWAP3 POP POP PUSH1 0x40 PUSH2 0x1016 DUP7 DUP3 DUP8 ADD PUSH2 0xEAC JUMP JUMPDEST SWAP2 POP POP SWAP3 POP SWAP3 POP SWAP3 JUMP JUMPDEST PUSH1 0x0 DUP1 PUSH1 0x0 DUP1 PUSH1 0x0 DUP1 PUSH1 0xC0 DUP8 DUP10 SUB SLT ISZERO PUSH2 0x103D JUMPI PUSH2 0x103C PUSH2 0xDBC JUMP JUMPDEST JUMPDEST PUSH1 0x0 PUSH2 0x104B DUP10 DUP3 DUP11 ADD PUSH2 0xE80 JUMP JUMPDEST SWAP7 POP POP PUSH1 0x20 PUSH2 0x105C DUP10 DUP3 DUP11 ADD PUSH2 0xEAC JUMP JUMPDEST SWAP6 POP POP PUSH1 0x40 PUSH2 0x106D DUP10 DUP3 DUP11 ADD PUSH2 0xEAC JUMP JUMPDEST SWAP5 POP POP PUSH1 0x60 PUSH2 0x107E DUP10 DUP3 DUP11 ADD PUSH2 0xEAC JUMP JUMPDEST SWAP4 POP POP PUSH1 0x80 PUSH2 0x108F DUP10 DUP3 DUP11 ADD PUSH2 0xEAC JUMP JUMPDEST SWAP3 POP POP PUSH1 0xA0 PUSH2 0x10A0 DUP10 DUP3 DUP11 ADD PUSH2 0xEAC JUMP JUMPDEST SWAP2 POP POP SWAP3 SWAP6 POP SWAP3 SWAP6 POP SWAP3 SWAP6 JUMP JUMPDEST PUSH2 0x10B6 DUP2 PUSH2 0xE5B JUMP JUMPDEST DUP3 MSTORE POP POP JUMP JUMPDEST PUSH1 0x0 PUSH1 0x20 DUP3 ADD SWAP1 POP PUSH2 0x10D1 PUSH1 0x0 DUP4 ADD DUP5 PUSH2 0x10AD JUMP JUMPDEST SWAP3 SWAP2 POP POP JUMP JUMPDEST PUSH1 0x0 PUSH1 0x20 DUP3 DUP5 SUB SLT ISZERO PUSH2 0x10ED JUMPI PUSH2 0x10EC PUSH2 0xDBC JUMP JUMPDEST JUMPDEST PUSH1 0x0 PUSH2 0x10FB DUP5 DUP3 DUP6 ADD PUSH2 0xE80 JUMP JUMPDEST SWAP2 POP POP SWAP3 SWAP2 POP POP JUMP JUMPDEST PUSH1 0x0 DUP2 ISZERO ISZERO SWAP1 POP SWAP2 SWAP1 POP JUMP JUMPDEST PUSH2 0x1119 DUP2 PUSH2 0x1104 JUMP JUMPDEST DUP3 MSTORE POP POP JUMP JUMPDEST PUSH1 0x0 PUSH1 0x20 DUP3 ADD SWAP1 POP PUSH2 0x1134 PUSH1 0x0 DUP4 ADD DUP5 PUSH2 0x1110 JUMP JUMPDEST SWAP3 SWAP2 POP POP JUMP JUMPDEST PUSH1 0x0 DUP1 PUSH1 0x40 DUP4 DUP6 SUB SLT ISZERO PUSH2 0x1151 JUMPI PUSH2 0x1150 PUSH2 0xDBC JUMP JUMPDEST JUMPDEST PUSH1 0x0 PUSH2 0x115F DUP6 DUP3 DUP7 ADD PUSH2 0xEAC JUMP JUMPDEST SWAP3 POP POP PUSH1 0x20 PUSH2 0x1170 DUP6 DUP3 DUP7 ADD PUSH2 0xE80 JUMP JUMPDEST SWAP2 POP POP SWAP3 POP SWAP3 SWAP1 POP JUMP JUMPDEST PUSH1 0x0 DUP1 PUSH1 0x40 DUP4 DUP6 SUB SLT ISZERO PUSH2 0x1191 JUMPI PUSH2 0x1190 PUSH2 0xDBC JUMP JUMPDEST JUMPDEST PUSH1 0x0 PUSH2 0x119F DUP6 DUP3 DUP7 ADD PUSH2 0xDE2 JUMP JUMPDEST SWAP3 POP POP PUSH1 0x20 PUSH2 0x11B0 DUP6 DUP3 DUP7 ADD PUSH2 0xDE2 JUMP JUMPDEST SWAP2 POP POP SWAP3 POP SWAP3 SWAP1 POP JUMP JUMPDEST PUSH32 0x4E487B7100000000000000000000000000000000000000000000000000000000 PUSH1 0x0 MSTORE PUSH1 0x12 PUSH1 0x4 MSTORE PUSH1 0x24 PUSH1 0x0 REVERT JUMPDEST PUSH32 0x4E487B7100000000000000000000000000000000000000000000000000000000 PUSH1 0x0 MSTORE PUSH1 0x11 PUSH1 0x4 MSTORE PUSH1 0x24 PUSH1 0x0 REVERT JUMPDEST PUSH1 0x0 PUSH2 0x1223 DUP3 PUSH2 0xDC1 JUMP JUMPDEST SWAP2 POP PUSH2 0x122E DUP4 PUSH2 0xDC1 JUMP JUMPDEST SWAP3 POP DUP3 PUSH2 0x123E JUMPI PUSH2 0x123D PUSH2 0x11BA JUMP JUMPDEST JUMPDEST DUP3 DUP3 DIV SWAP1 POP SWAP3 SWAP2 POP POP JUMP JUMPDEST PUSH1 0x0 PUSH2 0x1254 DUP3 PUSH2 0xDC1 JUMP JUMPDEST SWAP2 POP PUSH2 0x125F DUP4 PUSH2 0xDC1 JUMP JUMPDEST SWAP3 POP DUP3 PUSH2 0x126F JUMPI PUSH2 0x126E PUSH2 0x11BA JUMP JUMPDEST JUMPDEST DUP3 DUP3 MOD SWAP1 POP SWAP3 SWAP2 POP POP JUMP JUMPDEST PUSH1 0x0 PUSH2 0x1285 DUP3 PUSH2 0xDC1 JUMP JUMPDEST SWAP2 POP PUSH2 0x1290 DUP4 PUSH2 0xDC1 JUMP JUMPDEST SWAP3 POP DUP3 DUP3 ADD SWAP1 POP DUP1 DUP3 GT ISZERO PUSH2 0x12A8 JUMPI PUSH2 0x12A7 PUSH2 0x11E9 JUMP JUMPDEST JUMPDEST SWAP3 SWAP2 POP POP JUMP JUMPDEST PUSH1 0x0 PUSH2 0x12B9 DUP3 PUSH2 0xE5B JUMP JUMPDEST SWAP2 POP PUSH2 0xFFFF DUP3 SUB PUSH2 0x12CD JUMPI PUSH2 0x12CC PUSH2 0x11E9 JUMP JUMPDEST JUMPDEST PUSH1 0x1 DUP3 ADD SWAP1 POP SWAP2 SWAP1 POP JUMP JUMPDEST PUSH32 0x4E487B7100000000000000000000000000000000000000000000000000000000 PUSH1 0x0 MSTORE PUSH1 0x32 PUSH1 0x4 MSTORE PUSH1 0x24 PUSH1 0x0 REVERT JUMPDEST PUSH1 0x0 PUSH2 0x1312 DUP3 PUSH2 0xE5B JUMP JUMPDEST SWAP2 POP PUSH2 0x131D DUP4 PUSH2 0xE5B JUMP JUMPDEST SWAP3 POP DUP3 DUP3 SUB SWAP1 POP PUSH2 0xFFFF DUP2 GT ISZERO PUSH2 0x1337 JUMPI PUSH2 0x1336 PUSH2 0x11E9 JUMP JUMPDEST JUMPDEST SWAP3 SWAP2 POP POP JUMP JUMPDEST PUSH1 0x0 PUSH2 0x1348 DUP3 PUSH2 0xDC1 JUMP JUMPDEST SWAP2 POP PUSH2 0x1353 DUP4 PUSH2 0xDC1 JUMP JUMPDEST SWAP3 POP DUP3 DUP3 MUL PUSH2 0x1361 DUP2 PUSH2 0xDC1 JUMP JUMPDEST SWAP2 POP DUP3 DUP3 DIV DUP5 EQ DUP4 ISZERO OR PUSH2 0x1378 JUMPI PUSH2 0x1377 PUSH2 0x11E9 JUMP JUMPDEST JUMPDEST POP SWAP3 SWAP2 POP POP JUMP JUMPDEST PUSH1 0x0 PUSH2 0x138A DUP3 PUSH2 0xE24 JUMP JUMPDEST SWAP2 POP PUSH2 0x1395 DUP4 PUSH2 0xE24 JUMP JUMPDEST SWAP3 POP DUP3 DUP3 SUB SWAP1 POP PUSH1 0xFF DUP2 GT ISZERO PUSH2 0x13AE JUMPI PUSH2 0x13AD PUSH2 0x11E9 JUMP JUMPDEST JUMPDEST SWAP3 SWAP2 POP POP JUMP JUMPDEST PUSH1 0x0 PUSH2 0x13BF DUP3 PUSH2 0xDC1 JUMP JUMPDEST SWAP2 POP PUSH2 0x13CA DUP4 PUSH2 0xDC1 JUMP JUMPDEST SWAP3 POP DUP3 DUP3 SUB SWAP1 POP DUP2 DUP2 GT ISZERO PUSH2 0x13E2 JUMPI PUSH2 0x13E1 PUSH2 0x11E9 JUMP JUMPDEST JUMPDEST SWAP3 SWAP2 POP POP JUMP JUMPDEST PUSH1 0x0 PUSH2 0x13F3 DUP3 PUSH2 0xE5B JUMP JUMPDEST SWAP2 POP PUSH2 0x13FE DUP4 PUSH2 0xE5B JUMP JUMPDEST SWAP3 POP DUP3 PUSH2 0x140E JUMPI PUSH2 0x140D PUSH2 0x11BA JUMP JUMPDEST JUMPDEST DUP3 DUP3 MOD SWAP1 POP SWAP3 SWAP2 POP POP JUMP JUMPDEST PUSH1 0x0 PUSH2 0x1424 DUP3 PUSH2 0xE24 JUMP JUMPDEST SWAP2 POP PUSH1 0xFF DUP3 SUB PUSH2 0x1437 JUMPI PUSH2 0x1436 PUSH2 0x11E9 JUMP JUMPDEST JUMPDEST PUSH1 0x1 DUP3 ADD SWAP1 POP SWAP2 SWAP1 POP JUMP INVALID LOG2 PUSH5 0x6970667358 0x22 SLT KECCAK256 NOT EXP PUSH14 0xBF0E94790DC982CE252ACC624320 BLOCKHASH 0xD2 SWAP1 REVERT PUSH16 0x6C2F170393F1AEE58A0064736F6C6343 STOP ADDMOD SLT STOP CALLER "
		},
		"gasEstimates": {
			"creation": {
				"codeDepositCost": "1048000",
				"executionCost": "1116",
				"totalCost": "1049116"
			},
			"external": {
				"getDay(uint256)": "infinite",
				"getDaysInMonth(uint8,uint16)": "infinite",
				"getDiff(uint256,uint256)": "infinite",
				"getHour(uint256)": "infinite",
				"getMinute(uint256)": "infinite",
				"getMonth(uint256)": "infinite",
				"getSecond(uint256)": "infinite",
				"getWeekday(uint256)": "infinite",
				"getYear(uint256)": "infinite",
				"isLeapYear(uint16)": "infinite",
				"leapYearsBefore(uint256)": "infinite",
				"toTimestamp(uint16,uint8,uint8)": "infinite",
				"toTimestamp(uint16,uint8,uint8,uint8)": "infinite",
				"toTimestamp(uint16,uint8,uint8,uint8,uint8)": "infinite",
				"toTimestamp(uint16,uint8,uint8,uint8,uint8,uint8)": "infinite"
			},
			"internal": {
				"parseTimestamp(uint256)": "infinite"
			}
		},
		"methodIdentifiers": {
			"getDay(uint256)": "65c72840",
			"getDaysInMonth(uint8,uint16)": "b238ad0e",
			"getDiff(uint256,uint256)": "d7734855",
			"getHour(uint256)": "3e239e1a",
			"getMinute(uint256)": "fa93f883",
			"getMonth(uint256)": "a324ad24",
			"getSecond(uint256)": "8aa001fc",
			"getWeekday(uint256)": "4ac1ad78",
			"getYear(uint256)": "92d66313",
			"isLeapYear(uint16)": "a6f0e577",
			"leapYearsBefore(uint256)": "b1999937",
			"toTimestamp(uint16,uint8,uint8)": "8c8d98a0",
			"toTimestamp(uint16,uint8,uint8,uint8)": "7f791833",
			"toTimestamp(uint16,uint8,uint8,uint8,uint8)": "62ba9687",
			"toTimestamp(uint16,uint8,uint8,uint8,uint8,uint8)": "9054bdec"
		}
	},
	"abi": [
		{
			"inputs": [
				{
					"internalType": "uint256",
					"name": "timestamp",
					"type": "uint256"
				}
			],
			"name": "getDay",
			"outputs": [
				{
					"internalType": "uint8",
					"name": "",
					"type": "uint8"
				}
			],
			"stateMutability": "pure",
			"type": "function"
		},
		{
			"inputs": [
				{
					"internalType": "uint8",
					"name": "month",
					"type": "uint8"
				},
				{
					"internalType": "uint16",
					"name": "year",
					"type": "uint16"
				}
			],
			"name": "getDaysInMonth",
			"outputs": [
				{
					"internalType": "uint8",
					"name": "",
					"type": "uint8"
				}
			],
			"stateMutability": "pure",
			"type": "function"
		},
		{
			"inputs": [
				{
					"internalType": "uint256",
					"name": "start",
					"type": "uint256"
				},
				{
					"internalType": "uint256",
					"name": "end",
					"type": "uint256"
				}
			],
			"name": "getDiff",
			"outputs": [
				{
					"internalType": "uint256",
					"name": "",
					"type": "uint256"
				}
			],
			"stateMutability": "pure",
			"type": "function"
		},
		{
			"inputs": [
				{
					"internalType": "uint256",
					"name": "timestamp",
					"type": "uint256"
				}
			],
			"name": "getHour",
			"outputs": [
				{
					"internalType": "uint8",
					"name": "",
					"type": "uint8"
				}
			],
			"stateMutability": "pure",
			"type": "function"
		},
		{
			"inputs": [
				{
					"internalType": "uint256",
					"name": "timestamp",
					"type": "uint256"
				}
			],
			"name": "getMinute",
			"outputs": [
				{
					"internalType": "uint8",
					"name": "",
					"type": "uint8"
				}
			],
			"stateMutability": "pure",
			"type": "function"
		},
		{
			"inputs": [
				{
					"internalType": "uint256",
					"name": "timestamp",
					"type": "uint256"
				}
			],
			"name": "getMonth",
			"outputs": [
				{
					"internalType": "uint8",
					"name": "",
					"type": "uint8"
				}
			],
			"stateMutability": "pure",
			"type": "function"
		},
		{
			"inputs": [
				{
					"internalType": "uint256",
					"name": "timestamp",
					"type": "uint256"
				}
			],
			"name": "getSecond",
			"outputs": [
				{
					"internalType": "uint8",
					"name": "",
					"type": "uint8"
				}
			],
			"stateMutability": "pure",
			"type": "function"
		},
		{
			"inputs": [
				{
					"internalType": "uint256",
					"name": "timestamp",
					"type": "uint256"
				}
			],
			"name": "getWeekday",
			"outputs": [
				{
					"internalType": "uint8",
					"name": "",
					"type": "uint8"
				}
			],
			"stateMutability": "pure",
			"type": "function"
		},
		{
			"inputs": [
				{
					"internalType": "uint256",
					"name": "timestamp",
					"type": "uint256"
				}
			],
			"name": "getYear",
			"outputs": [
				{
					"internalType": "uint16",
					"name": "",
					"type": "uint16"
				}
			],
			"stateMutability": "pure",
			"type": "function"
		},
		{
			"inputs": [
				{
					"internalType": "uint16",
					"name": "year",
					"type": "uint16"
				}
			],
			"name": "isLeapYear",
			"outputs": [
				{
					"internalType": "bool",
					"name": "",
					"type": "bool"
				}
			],
			"stateMutability": "pure",
			"type": "function"
		},
		{
			"inputs": [
				{
					"internalType": "uint256",
					"name": "year",
					"type": "uint256"
				}
			],
			"name": "leapYearsBefore",
			"outputs": [
				{
					"internalType": "uint256",
					"name": "",
					"type": "uint256"
				}
			],
			"stateMutability": "pure",
			"type": "function"
		},
		{
			"inputs": [
				{
					"internalType": "uint16",
					"name": "year",
					"type": "uint16"
				},
				{
					"internalType": "uint8",
					"name": "month",
					"type": "uint8"
				},
				{
					"internalType": "uint8",
					"name": "day",
					"type": "uint8"
				},
				{
					"internalType": "uint8",
					"name": "hour",
					"type": "uint8"
				},
				{
					"internalType": "uint8",
					"name": "minute",
					"type": "uint8"
				}
			],
			"name": "toTimestamp",
			"outputs": [
				{
					"internalType": "uint256",
					"name": "timestamp",
					"type": "uint256"
				}
			],
			"stateMutability": "pure",
			"type": "function"
		},
		{
			"inputs": [
				{
					"internalType": "uint16",
					"name": "year",
					"type": "uint16"
				},
				{
					"internalType": "uint8",
					"name": "month",
					"type": "uint8"
				},
				{
					"internalType": "uint8",
					"name": "day",
					"type": "uint8"
				},
				{
					"internalType": "uint8",
					"name": "hour",
					"type": "uint8"
				}
			],
			"name": "toTimestamp",
			"outputs": [
				{
					"internalType": "uint256",
					"name": "timestamp",
					"type": "uint256"
				}
			],
			"stateMutability": "pure",
			"type": "function"
		},
		{
			"inputs": [
				{
					"internalType": "uint16",
					"name": "year",
					"type": "uint16"
				},
				{
					"internalType": "uint8",
					"name": "month",
					"type": "uint8"
				},
				{
					"internalType": "uint8",
					"name": "day",
					"type": "uint8"
				}
			],
			"name": "toTimestamp",
			"outputs": [
				{
					"internalType": "uint256",
					"name": "timestamp",
					"type": "uint256"
				}
			],
			"stateMutability": "pure",
			"type": "function"
		},
		{
			"inputs": [
				{
					"internalType": "uint16",
					"name": "year",
					"type": "uint16"
				},
				{
					"internalType": "uint8",
					"name": "month",
					"type": "uint8"
				},
				{
					"internalType": "uint8",
					"name": "day",
					"type": "uint8"
				},
				{
					"internalType": "uint8",
					"name": "hour",
					"type": "uint8"
				},
				{
					"internalType": "uint8",
					"name": "minute",
					"type": "uint8"
				},
				{
					"internalType": "uint8",
					"name": "second",
					"type": "uint8"
				}
			],
			"name": "toTimestamp",
			"outputs": [
				{
					"internalType": "uint256",
					"name": "timestamp",
					"type": "uint256"
				}
			],
			"stateMutability": "pure",
			"type": "function"
		}
	]
}