{
	"contracts/facets/DrawFundsFacet.sol": {
		"DrawFundsFacet": {
			"abi": [
				{
					"inputs": [
						{
							"internalType": "address payable",
							"name": "recipient",
							"type": "address"
						}
					],
					"name": "takeBase",
					"outputs": [],
					"stateMutability": "payable",
					"type": "function"
				},
				{
					"inputs": [
						{
							"internalType": "address",
							"name": "tokenAddress",
							"type": "address"
						},
						{
							"internalType": "address",
							"name": "recipient",
							"type": "address"
						},
						{
							"internalType": "uint256",
							"name": "amount",
							"type": "uint256"
						}
					],
					"name": "takeFund",
					"outputs": [],
					"stateMutability": "nonpayable",
					"type": "function"
				}
			],
			"devdoc": {
				"kind": "dev",
				"methods": {},
				"version": 1
			},
			"evm": {
				"assembly": "    /* \"contracts/facets/DrawFundsFacet.sol\":234:1015  contract DrawFundsFacet {... */\n  mstore(0x40, 0x80)\n  callvalue\n  dup1\n  iszero\n  tag_1\n  jumpi\n  0x00\n  dup1\n  revert\ntag_1:\n  pop\n  dataSize(sub_0)\n  dup1\n  dataOffset(sub_0)\n  0x00\n  codecopy\n  0x00\n  return\nstop\n\nsub_0: assembly {\n        /* \"contracts/facets/DrawFundsFacet.sol\":234:1015  contract DrawFundsFacet {... */\n      mstore(0x40, 0x80)\n      jumpi(tag_1, lt(calldatasize, 0x04))\n      shr(0xe0, calldataload(0x00))\n      dup1\n      0x25fdafa8\n      eq\n      tag_2\n      jumpi\n      dup1\n      0x4a22d073\n      eq\n      tag_3\n      jumpi\n    tag_1:\n      0x00\n      dup1\n      revert\n        /* \"contracts/facets/DrawFundsFacet.sol\":547:802  function takeFund(... */\n    tag_2:\n      callvalue\n      dup1\n      iszero\n      tag_4\n      jumpi\n      0x00\n      dup1\n      revert\n    tag_4:\n      pop\n      tag_5\n      0x04\n      dup1\n      calldatasize\n      sub\n      dup2\n      add\n      swap1\n      tag_6\n      swap2\n      swap1\n      tag_7\n      jump\t// in\n    tag_6:\n      tag_8\n      jump\t// in\n    tag_5:\n      stop\n        /* \"contracts/facets/DrawFundsFacet.sol\":808:1013  function takeBase(address payable recipient) external payable onlyOwner {... */\n    tag_3:\n      tag_9\n      0x04\n      dup1\n      calldatasize\n      sub\n      dup2\n      add\n      swap1\n      tag_10\n      swap2\n      swap1\n      tag_11\n      jump\t// in\n    tag_10:\n      tag_12\n      jump\t// in\n    tag_9:\n      stop\n        /* \"contracts/facets/DrawFundsFacet.sol\":547:802  function takeFund(... */\n    tag_8:\n        /* \"contracts/facets/DrawFundsFacet.sol\":332:358  LibDiamond.contractOwner() */\n      tag_14\n        /* \"contracts/facets/DrawFundsFacet.sol\":332:356  LibDiamond.contractOwner */\n      tag_15\n        /* \"contracts/facets/DrawFundsFacet.sol\":332:358  LibDiamond.contractOwner() */\n      jump\t// in\n    tag_14:\n        /* \"contracts/facets/DrawFundsFacet.sol\":316:358  _msgSender() == LibDiamond.contractOwner() */\n      0xffffffffffffffffffffffffffffffffffffffff\n      and\n        /* \"contracts/facets/DrawFundsFacet.sol\":316:328  _msgSender() */\n      tag_16\n        /* \"contracts/facets/DrawFundsFacet.sol\":316:326  _msgSender */\n      tag_17\n        /* \"contracts/facets/DrawFundsFacet.sol\":316:328  _msgSender() */\n      jump\t// in\n    tag_16:\n        /* \"contracts/facets/DrawFundsFacet.sol\":316:358  _msgSender() == LibDiamond.contractOwner() */\n      0xffffffffffffffffffffffffffffffffffffffff\n      and\n      eq\n        /* \"contracts/facets/DrawFundsFacet.sol\":295:421  require(... */\n      tag_18\n      jumpi\n      mload(0x40)\n      0x08c379a000000000000000000000000000000000000000000000000000000000\n      dup2\n      mstore\n      0x04\n      add\n      tag_19\n      swap1\n      tag_20\n      jump\t// in\n    tag_19:\n      mload(0x40)\n      dup1\n      swap2\n      sub\n      swap1\n      revert\n    tag_18:\n        /* \"contracts/facets/DrawFundsFacet.sol\":681:698  IERC20DRAW ierc20 */\n      0x00\n        /* \"contracts/facets/DrawFundsFacet.sol\":712:724  tokenAddress */\n      dup4\n        /* \"contracts/facets/DrawFundsFacet.sol\":681:725  IERC20DRAW ierc20 = IERC20DRAW(tokenAddress) */\n      swap1\n      pop\n        /* \"contracts/facets/DrawFundsFacet.sol\":743:749  ierc20 */\n      dup1\n        /* \"contracts/facets/DrawFundsFacet.sol\":743:758  ierc20.transfer */\n      0xffffffffffffffffffffffffffffffffffffffff\n      and\n      0xa9059cbb\n        /* \"contracts/facets/DrawFundsFacet.sol\":759:768  recipient */\n      dup5\n        /* \"contracts/facets/DrawFundsFacet.sol\":770:776  amount */\n      dup5\n        /* \"contracts/facets/DrawFundsFacet.sol\":743:777  ierc20.transfer(recipient, amount) */\n      mload(0x40)\n      dup4\n      0xffffffff\n      and\n      0xe0\n      shl\n      dup2\n      mstore\n      0x04\n      add\n      tag_22\n      swap3\n      swap2\n      swap1\n      tag_23\n      jump\t// in\n    tag_22:\n      0x20\n      mload(0x40)\n      dup1\n      dup4\n      sub\n      dup2\n      0x00\n      dup8\n      gas\n      call\n      iszero\n      dup1\n      iszero\n      tag_25\n      jumpi\n      returndatasize\n      0x00\n      dup1\n      returndatacopy\n      revert(0x00, returndatasize)\n    tag_25:\n      pop\n      pop\n      pop\n      pop\n      mload(0x40)\n      returndatasize\n      not(0x1f)\n      0x1f\n      dup3\n      add\n      and\n      dup3\n      add\n      dup1\n      0x40\n      mstore\n      pop\n      dup2\n      add\n      swap1\n      tag_26\n      swap2\n      swap1\n      tag_27\n      jump\t// in\n    tag_26:\n        /* \"contracts/facets/DrawFundsFacet.sol\":735:795  require(ierc20.transfer(recipient, amount), \"Sending faild\") */\n      tag_28\n      jumpi\n      mload(0x40)\n      0x08c379a000000000000000000000000000000000000000000000000000000000\n      dup2\n      mstore\n      0x04\n      add\n      tag_29\n      swap1\n      tag_30\n      jump\t// in\n    tag_29:\n      mload(0x40)\n      dup1\n      swap2\n      sub\n      swap1\n      revert\n    tag_28:\n        /* \"contracts/facets/DrawFundsFacet.sol\":671:802  {... */\n      pop\n        /* \"contracts/facets/DrawFundsFacet.sol\":547:802  function takeFund(... */\n      pop\n      pop\n      pop\n      jump\t// out\n        /* \"contracts/facets/DrawFundsFacet.sol\":808:1013  function takeBase(address payable recipient) external payable onlyOwner {... */\n    tag_12:\n        /* \"contracts/facets/DrawFundsFacet.sol\":332:358  LibDiamond.contractOwner() */\n      tag_32\n        /* \"contracts/facets/DrawFundsFacet.sol\":332:356  LibDiamond.contractOwner */\n      tag_15\n        /* \"contracts/facets/DrawFundsFacet.sol\":332:358  LibDiamond.contractOwner() */\n      jump\t// in\n    tag_32:\n        /* \"contracts/facets/DrawFundsFacet.sol\":316:358  _msgSender() == LibDiamond.contractOwner() */\n      0xffffffffffffffffffffffffffffffffffffffff\n      and\n        /* \"contracts/facets/DrawFundsFacet.sol\":316:328  _msgSender() */\n      tag_33\n        /* \"contracts/facets/DrawFundsFacet.sol\":316:326  _msgSender */\n      tag_17\n        /* \"contracts/facets/DrawFundsFacet.sol\":316:328  _msgSender() */\n      jump\t// in\n    tag_33:\n        /* \"contracts/facets/DrawFundsFacet.sol\":316:358  _msgSender() == LibDiamond.contractOwner() */\n      0xffffffffffffffffffffffffffffffffffffffff\n      and\n      eq\n        /* \"contracts/facets/DrawFundsFacet.sol\":295:421  require(... */\n      tag_34\n      jumpi\n      mload(0x40)\n      0x08c379a000000000000000000000000000000000000000000000000000000000\n      dup2\n      mstore\n      0x04\n      add\n      tag_35\n      swap1\n      tag_20\n      jump\t// in\n    tag_35:\n      mload(0x40)\n      dup1\n      swap2\n      sub\n      swap1\n      revert\n    tag_34:\n        /* \"contracts/facets/DrawFundsFacet.sol\":891:900  bool sent */\n      0x00\n        /* \"contracts/facets/DrawFundsFacet.sol\":902:919  bytes memory data */\n      dup1\n        /* \"contracts/facets/DrawFundsFacet.sol\":923:932  recipient */\n      dup3\n        /* \"contracts/facets/DrawFundsFacet.sol\":923:937  recipient.call */\n      0xffffffffffffffffffffffffffffffffffffffff\n      and\n        /* \"contracts/facets/DrawFundsFacet.sol\":945:954  msg.value */\n      callvalue\n        /* \"contracts/facets/DrawFundsFacet.sol\":923:959  recipient.call{value: msg.value}(\"\") */\n      mload(0x40)\n      tag_37\n      swap1\n      tag_38\n      jump\t// in\n    tag_37:\n      0x00\n      mload(0x40)\n      dup1\n      dup4\n      sub\n      dup2\n      dup6\n      dup8\n      gas\n      call\n      swap3\n      pop\n      pop\n      pop\n      returndatasize\n      dup1\n      0x00\n      dup2\n      eq\n      tag_41\n      jumpi\n      mload(0x40)\n      swap2\n      pop\n      and(add(returndatasize, 0x3f), not(0x1f))\n      dup3\n      add\n      0x40\n      mstore\n      returndatasize\n      dup3\n      mstore\n      returndatasize\n      0x00\n      0x20\n      dup5\n      add\n      returndatacopy\n      jump(tag_40)\n    tag_41:\n      0x60\n      swap2\n      pop\n    tag_40:\n      pop\n        /* \"contracts/facets/DrawFundsFacet.sol\":890:959  (bool sent, bytes memory data) = recipient.call{value: msg.value}(\"\") */\n      swap2\n      pop\n      swap2\n      pop\n        /* \"contracts/facets/DrawFundsFacet.sol\":977:981  sent */\n      dup2\n        /* \"contracts/facets/DrawFundsFacet.sol\":969:1006  require(sent, \"Failed to send Ether\") */\n      tag_42\n      jumpi\n      mload(0x40)\n      0x08c379a000000000000000000000000000000000000000000000000000000000\n      dup2\n      mstore\n      0x04\n      add\n      tag_43\n      swap1\n      tag_44\n      jump\t// in\n    tag_43:\n      mload(0x40)\n      dup1\n      swap2\n      sub\n      swap1\n      revert\n    tag_42:\n        /* \"contracts/facets/DrawFundsFacet.sol\":880:1013  {... */\n      pop\n      pop\n        /* \"contracts/facets/DrawFundsFacet.sol\":808:1013  function takeBase(address payable recipient) external payable onlyOwner {... */\n      pop\n      jump\t// out\n        /* \"contracts/libraries/LibDiamond.sol\":1669:1805  function contractOwner() internal view returns (address contractOwner_) {... */\n    tag_15:\n        /* \"contracts/libraries/LibDiamond.sol\":1717:1739  address contractOwner_ */\n      0x00\n        /* \"contracts/libraries/LibDiamond.sol\":1768:1784  diamondStorage() */\n      tag_46\n        /* \"contracts/libraries/LibDiamond.sol\":1768:1782  diamondStorage */\n      tag_47\n        /* \"contracts/libraries/LibDiamond.sol\":1768:1784  diamondStorage() */\n      jump\t// in\n    tag_46:\n        /* \"contracts/libraries/LibDiamond.sol\":1768:1798  diamondStorage().contractOwner */\n      0x03\n      add\n      0x00\n      swap1\n      sload\n      swap1\n      0x0100\n      exp\n      swap1\n      div\n      0xffffffffffffffffffffffffffffffffffffffff\n      and\n        /* \"contracts/libraries/LibDiamond.sol\":1751:1798  contractOwner_ = diamondStorage().contractOwner */\n      swap1\n      pop\n        /* \"contracts/libraries/LibDiamond.sol\":1669:1805  function contractOwner() internal view returns (address contractOwner_) {... */\n      swap1\n      jump\t// out\n        /* \"contracts/facets/DrawFundsFacet.sol\":445:541  function _msgSender() internal view virtual returns (address) {... */\n    tag_17:\n        /* \"contracts/facets/DrawFundsFacet.sol\":498:505  address */\n      0x00\n        /* \"contracts/facets/DrawFundsFacet.sol\":524:534  msg.sender */\n      caller\n        /* \"contracts/facets/DrawFundsFacet.sol\":517:534  return msg.sender */\n      swap1\n      pop\n        /* \"contracts/facets/DrawFundsFacet.sol\":445:541  function _msgSender() internal view virtual returns (address) {... */\n      swap1\n      jump\t// out\n        /* \"contracts/libraries/LibDiamond.sol\":1056:1281  function diamondStorage()... */\n    tag_47:\n        /* \"contracts/libraries/LibDiamond.sol\":1129:1154  DiamondStorage storage ds */\n      0x00\n        /* \"contracts/libraries/LibDiamond.sol\":1170:1186  bytes32 position */\n      dup1\n        /* \"contracts/libraries/LibDiamond.sol\":530:575  keccak256(\"diamond.standard.diamond.storage\") */\n      0xc8fcad8db84d3cc18b4c41d551ea0ee66dd599cde068d998e57d5e09332c131c\n        /* \"contracts/libraries/LibDiamond.sol\":1170:1213  bytes32 position = DIAMOND_STORAGE_POSITION */\n      swap1\n      pop\n        /* \"contracts/libraries/LibDiamond.sol\":1257:1265  position */\n      dup1\n        /* \"contracts/libraries/LibDiamond.sol\":1246:1265  ds.slot := position */\n      swap2\n      pop\n        /* \"contracts/libraries/LibDiamond.sol\":1232:1275  {... */\n      pop\n        /* \"contracts/libraries/LibDiamond.sol\":1056:1281  function diamondStorage()... */\n      swap1\n      jump\t// out\n        /* \"#utility.yul\":88:205   */\n    tag_51:\n        /* \"#utility.yul\":197:198   */\n      0x00\n        /* \"#utility.yul\":194:195   */\n      dup1\n        /* \"#utility.yul\":187:199   */\n      revert\n        /* \"#utility.yul\":334:460   */\n    tag_53:\n        /* \"#utility.yul\":371:378   */\n      0x00\n        /* \"#utility.yul\":411:453   */\n      0xffffffffffffffffffffffffffffffffffffffff\n        /* \"#utility.yul\":404:409   */\n      dup3\n        /* \"#utility.yul\":400:454   */\n      and\n        /* \"#utility.yul\":389:454   */\n      swap1\n      pop\n        /* \"#utility.yul\":334:460   */\n      swap2\n      swap1\n      pop\n      jump\t// out\n        /* \"#utility.yul\":466:562   */\n    tag_54:\n        /* \"#utility.yul\":503:510   */\n      0x00\n        /* \"#utility.yul\":532:556   */\n      tag_84\n        /* \"#utility.yul\":550:555   */\n      dup3\n        /* \"#utility.yul\":532:556   */\n      tag_53\n      jump\t// in\n    tag_84:\n        /* \"#utility.yul\":521:556   */\n      swap1\n      pop\n        /* \"#utility.yul\":466:562   */\n      swap2\n      swap1\n      pop\n      jump\t// out\n        /* \"#utility.yul\":568:690   */\n    tag_55:\n        /* \"#utility.yul\":641:665   */\n      tag_86\n        /* \"#utility.yul\":659:664   */\n      dup2\n        /* \"#utility.yul\":641:665   */\n      tag_54\n      jump\t// in\n    tag_86:\n        /* \"#utility.yul\":634:639   */\n      dup2\n        /* \"#utility.yul\":631:666   */\n      eq\n        /* \"#utility.yul\":621:684   */\n      tag_87\n      jumpi\n        /* \"#utility.yul\":680:681   */\n      0x00\n        /* \"#utility.yul\":677:678   */\n      dup1\n        /* \"#utility.yul\":670:682   */\n      revert\n        /* \"#utility.yul\":621:684   */\n    tag_87:\n        /* \"#utility.yul\":568:690   */\n      pop\n      jump\t// out\n        /* \"#utility.yul\":696:835   */\n    tag_56:\n        /* \"#utility.yul\":742:747   */\n      0x00\n        /* \"#utility.yul\":780:786   */\n      dup2\n        /* \"#utility.yul\":767:787   */\n      calldataload\n        /* \"#utility.yul\":758:787   */\n      swap1\n      pop\n        /* \"#utility.yul\":796:829   */\n      tag_89\n        /* \"#utility.yul\":823:828   */\n      dup2\n        /* \"#utility.yul\":796:829   */\n      tag_55\n      jump\t// in\n    tag_89:\n        /* \"#utility.yul\":696:835   */\n      swap3\n      swap2\n      pop\n      pop\n      jump\t// out\n        /* \"#utility.yul\":841:918   */\n    tag_57:\n        /* \"#utility.yul\":878:885   */\n      0x00\n        /* \"#utility.yul\":907:912   */\n      dup2\n        /* \"#utility.yul\":896:912   */\n      swap1\n      pop\n        /* \"#utility.yul\":841:918   */\n      swap2\n      swap1\n      pop\n      jump\t// out\n        /* \"#utility.yul\":924:1046   */\n    tag_58:\n        /* \"#utility.yul\":997:1021   */\n      tag_92\n        /* \"#utility.yul\":1015:1020   */\n      dup2\n        /* \"#utility.yul\":997:1021   */\n      tag_57\n      jump\t// in\n    tag_92:\n        /* \"#utility.yul\":990:995   */\n      dup2\n        /* \"#utility.yul\":987:1022   */\n      eq\n        /* \"#utility.yul\":977:1040   */\n      tag_93\n      jumpi\n        /* \"#utility.yul\":1036:1037   */\n      0x00\n        /* \"#utility.yul\":1033:1034   */\n      dup1\n        /* \"#utility.yul\":1026:1038   */\n      revert\n        /* \"#utility.yul\":977:1040   */\n    tag_93:\n        /* \"#utility.yul\":924:1046   */\n      pop\n      jump\t// out\n        /* \"#utility.yul\":1052:1191   */\n    tag_59:\n        /* \"#utility.yul\":1098:1103   */\n      0x00\n        /* \"#utility.yul\":1136:1142   */\n      dup2\n        /* \"#utility.yul\":1123:1143   */\n      calldataload\n        /* \"#utility.yul\":1114:1143   */\n      swap1\n      pop\n        /* \"#utility.yul\":1152:1185   */\n      tag_95\n        /* \"#utility.yul\":1179:1184   */\n      dup2\n        /* \"#utility.yul\":1152:1185   */\n      tag_58\n      jump\t// in\n    tag_95:\n        /* \"#utility.yul\":1052:1191   */\n      swap3\n      swap2\n      pop\n      pop\n      jump\t// out\n        /* \"#utility.yul\":1197:1816   */\n    tag_7:\n        /* \"#utility.yul\":1274:1280   */\n      0x00\n        /* \"#utility.yul\":1282:1288   */\n      dup1\n        /* \"#utility.yul\":1290:1296   */\n      0x00\n        /* \"#utility.yul\":1339:1341   */\n      0x60\n        /* \"#utility.yul\":1327:1336   */\n      dup5\n        /* \"#utility.yul\":1318:1325   */\n      dup7\n        /* \"#utility.yul\":1314:1337   */\n      sub\n        /* \"#utility.yul\":1310:1342   */\n      slt\n        /* \"#utility.yul\":1307:1426   */\n      iszero\n      tag_97\n      jumpi\n        /* \"#utility.yul\":1345:1424   */\n      tag_98\n      tag_51\n      jump\t// in\n    tag_98:\n        /* \"#utility.yul\":1307:1426   */\n    tag_97:\n        /* \"#utility.yul\":1465:1466   */\n      0x00\n        /* \"#utility.yul\":1490:1543   */\n      tag_99\n        /* \"#utility.yul\":1535:1542   */\n      dup7\n        /* \"#utility.yul\":1526:1532   */\n      dup3\n        /* \"#utility.yul\":1515:1524   */\n      dup8\n        /* \"#utility.yul\":1511:1533   */\n      add\n        /* \"#utility.yul\":1490:1543   */\n      tag_56\n      jump\t// in\n    tag_99:\n        /* \"#utility.yul\":1480:1543   */\n      swap4\n      pop\n        /* \"#utility.yul\":1436:1553   */\n      pop\n        /* \"#utility.yul\":1592:1594   */\n      0x20\n        /* \"#utility.yul\":1618:1671   */\n      tag_100\n        /* \"#utility.yul\":1663:1670   */\n      dup7\n        /* \"#utility.yul\":1654:1660   */\n      dup3\n        /* \"#utility.yul\":1643:1652   */\n      dup8\n        /* \"#utility.yul\":1639:1661   */\n      add\n        /* \"#utility.yul\":1618:1671   */\n      tag_56\n      jump\t// in\n    tag_100:\n        /* \"#utility.yul\":1608:1671   */\n      swap3\n      pop\n        /* \"#utility.yul\":1563:1681   */\n      pop\n        /* \"#utility.yul\":1720:1722   */\n      0x40\n        /* \"#utility.yul\":1746:1799   */\n      tag_101\n        /* \"#utility.yul\":1791:1798   */\n      dup7\n        /* \"#utility.yul\":1782:1788   */\n      dup3\n        /* \"#utility.yul\":1771:1780   */\n      dup8\n        /* \"#utility.yul\":1767:1789   */\n      add\n        /* \"#utility.yul\":1746:1799   */\n      tag_59\n      jump\t// in\n    tag_101:\n        /* \"#utility.yul\":1736:1799   */\n      swap2\n      pop\n        /* \"#utility.yul\":1691:1809   */\n      pop\n        /* \"#utility.yul\":1197:1816   */\n      swap3\n      pop\n      swap3\n      pop\n      swap3\n      jump\t// out\n        /* \"#utility.yul\":1822:1926   */\n    tag_60:\n        /* \"#utility.yul\":1867:1874   */\n      0x00\n        /* \"#utility.yul\":1896:1920   */\n      tag_103\n        /* \"#utility.yul\":1914:1919   */\n      dup3\n        /* \"#utility.yul\":1896:1920   */\n      tag_53\n      jump\t// in\n    tag_103:\n        /* \"#utility.yul\":1885:1920   */\n      swap1\n      pop\n        /* \"#utility.yul\":1822:1926   */\n      swap2\n      swap1\n      pop\n      jump\t// out\n        /* \"#utility.yul\":1932:2070   */\n    tag_61:\n        /* \"#utility.yul\":2013:2045   */\n      tag_105\n        /* \"#utility.yul\":2039:2044   */\n      dup2\n        /* \"#utility.yul\":2013:2045   */\n      tag_60\n      jump\t// in\n    tag_105:\n        /* \"#utility.yul\":2006:2011   */\n      dup2\n        /* \"#utility.yul\":2003:2046   */\n      eq\n        /* \"#utility.yul\":1993:2064   */\n      tag_106\n      jumpi\n        /* \"#utility.yul\":2060:2061   */\n      0x00\n        /* \"#utility.yul\":2057:2058   */\n      dup1\n        /* \"#utility.yul\":2050:2062   */\n      revert\n        /* \"#utility.yul\":1993:2064   */\n    tag_106:\n        /* \"#utility.yul\":1932:2070   */\n      pop\n      jump\t// out\n        /* \"#utility.yul\":2076:2231   */\n    tag_62:\n        /* \"#utility.yul\":2130:2135   */\n      0x00\n        /* \"#utility.yul\":2168:2174   */\n      dup2\n        /* \"#utility.yul\":2155:2175   */\n      calldataload\n        /* \"#utility.yul\":2146:2175   */\n      swap1\n      pop\n        /* \"#utility.yul\":2184:2225   */\n      tag_108\n        /* \"#utility.yul\":2219:2224   */\n      dup2\n        /* \"#utility.yul\":2184:2225   */\n      tag_61\n      jump\t// in\n    tag_108:\n        /* \"#utility.yul\":2076:2231   */\n      swap3\n      swap2\n      pop\n      pop\n      jump\t// out\n        /* \"#utility.yul\":2237:2582   */\n    tag_11:\n        /* \"#utility.yul\":2304:2310   */\n      0x00\n        /* \"#utility.yul\":2353:2355   */\n      0x20\n        /* \"#utility.yul\":2341:2350   */\n      dup3\n        /* \"#utility.yul\":2332:2339   */\n      dup5\n        /* \"#utility.yul\":2328:2351   */\n      sub\n        /* \"#utility.yul\":2324:2356   */\n      slt\n        /* \"#utility.yul\":2321:2440   */\n      iszero\n      tag_110\n      jumpi\n        /* \"#utility.yul\":2359:2438   */\n      tag_111\n      tag_51\n      jump\t// in\n    tag_111:\n        /* \"#utility.yul\":2321:2440   */\n    tag_110:\n        /* \"#utility.yul\":2479:2480   */\n      0x00\n        /* \"#utility.yul\":2504:2565   */\n      tag_112\n        /* \"#utility.yul\":2557:2564   */\n      dup5\n        /* \"#utility.yul\":2548:2554   */\n      dup3\n        /* \"#utility.yul\":2537:2546   */\n      dup6\n        /* \"#utility.yul\":2533:2555   */\n      add\n        /* \"#utility.yul\":2504:2565   */\n      tag_62\n      jump\t// in\n    tag_112:\n        /* \"#utility.yul\":2494:2565   */\n      swap2\n      pop\n        /* \"#utility.yul\":2450:2575   */\n      pop\n        /* \"#utility.yul\":2237:2582   */\n      swap3\n      swap2\n      pop\n      pop\n      jump\t// out\n        /* \"#utility.yul\":2588:2757   */\n    tag_63:\n        /* \"#utility.yul\":2672:2683   */\n      0x00\n        /* \"#utility.yul\":2706:2712   */\n      dup3\n        /* \"#utility.yul\":2701:2704   */\n      dup3\n        /* \"#utility.yul\":2694:2713   */\n      mstore\n        /* \"#utility.yul\":2746:2750   */\n      0x20\n        /* \"#utility.yul\":2741:2744   */\n      dup3\n        /* \"#utility.yul\":2737:2751   */\n      add\n        /* \"#utility.yul\":2722:2751   */\n      swap1\n      pop\n        /* \"#utility.yul\":2588:2757   */\n      swap3\n      swap2\n      pop\n      pop\n      jump\t// out\n        /* \"#utility.yul\":2763:2987   */\n    tag_64:\n        /* \"#utility.yul\":2903:2937   */\n      0x4163636573732064656e6965642c204f6e6c79206f776e657220697320616c6c\n        /* \"#utility.yul\":2899:2900   */\n      0x00\n        /* \"#utility.yul\":2891:2897   */\n      dup3\n        /* \"#utility.yul\":2887:2901   */\n      add\n        /* \"#utility.yul\":2880:2938   */\n      mstore\n        /* \"#utility.yul\":2972:2979   */\n      0x6f77656421000000000000000000000000000000000000000000000000000000\n        /* \"#utility.yul\":2967:2969   */\n      0x20\n        /* \"#utility.yul\":2959:2965   */\n      dup3\n        /* \"#utility.yul\":2955:2970   */\n      add\n        /* \"#utility.yul\":2948:2980   */\n      mstore\n        /* \"#utility.yul\":2763:2987   */\n      pop\n      jump\t// out\n        /* \"#utility.yul\":2993:3359   */\n    tag_65:\n        /* \"#utility.yul\":3135:3138   */\n      0x00\n        /* \"#utility.yul\":3156:3223   */\n      tag_116\n        /* \"#utility.yul\":3220:3222   */\n      0x25\n        /* \"#utility.yul\":3215:3218   */\n      dup4\n        /* \"#utility.yul\":3156:3223   */\n      tag_63\n      jump\t// in\n    tag_116:\n        /* \"#utility.yul\":3149:3223   */\n      swap2\n      pop\n        /* \"#utility.yul\":3232:3325   */\n      tag_117\n        /* \"#utility.yul\":3321:3324   */\n      dup3\n        /* \"#utility.yul\":3232:3325   */\n      tag_64\n      jump\t// in\n    tag_117:\n        /* \"#utility.yul\":3350:3352   */\n      0x40\n        /* \"#utility.yul\":3345:3348   */\n      dup3\n        /* \"#utility.yul\":3341:3353   */\n      add\n        /* \"#utility.yul\":3334:3353   */\n      swap1\n      pop\n        /* \"#utility.yul\":2993:3359   */\n      swap2\n      swap1\n      pop\n      jump\t// out\n        /* \"#utility.yul\":3365:3784   */\n    tag_20:\n        /* \"#utility.yul\":3531:3535   */\n      0x00\n        /* \"#utility.yul\":3569:3571   */\n      0x20\n        /* \"#utility.yul\":3558:3567   */\n      dup3\n        /* \"#utility.yul\":3554:3572   */\n      add\n        /* \"#utility.yul\":3546:3572   */\n      swap1\n      pop\n        /* \"#utility.yul\":3618:3627   */\n      dup2\n        /* \"#utility.yul\":3612:3616   */\n      dup2\n        /* \"#utility.yul\":3608:3628   */\n      sub\n        /* \"#utility.yul\":3604:3605   */\n      0x00\n        /* \"#utility.yul\":3593:3602   */\n      dup4\n        /* \"#utility.yul\":3589:3606   */\n      add\n        /* \"#utility.yul\":3582:3629   */\n      mstore\n        /* \"#utility.yul\":3646:3777   */\n      tag_119\n        /* \"#utility.yul\":3772:3776   */\n      dup2\n        /* \"#utility.yul\":3646:3777   */\n      tag_65\n      jump\t// in\n    tag_119:\n        /* \"#utility.yul\":3638:3777   */\n      swap1\n      pop\n        /* \"#utility.yul\":3365:3784   */\n      swap2\n      swap1\n      pop\n      jump\t// out\n        /* \"#utility.yul\":3790:3908   */\n    tag_66:\n        /* \"#utility.yul\":3877:3901   */\n      tag_121\n        /* \"#utility.yul\":3895:3900   */\n      dup2\n        /* \"#utility.yul\":3877:3901   */\n      tag_54\n      jump\t// in\n    tag_121:\n        /* \"#utility.yul\":3872:3875   */\n      dup3\n        /* \"#utility.yul\":3865:3902   */\n      mstore\n        /* \"#utility.yul\":3790:3908   */\n      pop\n      pop\n      jump\t// out\n        /* \"#utility.yul\":3914:4032   */\n    tag_67:\n        /* \"#utility.yul\":4001:4025   */\n      tag_123\n        /* \"#utility.yul\":4019:4024   */\n      dup2\n        /* \"#utility.yul\":4001:4025   */\n      tag_57\n      jump\t// in\n    tag_123:\n        /* \"#utility.yul\":3996:3999   */\n      dup3\n        /* \"#utility.yul\":3989:4026   */\n      mstore\n        /* \"#utility.yul\":3914:4032   */\n      pop\n      pop\n      jump\t// out\n        /* \"#utility.yul\":4038:4370   */\n    tag_23:\n        /* \"#utility.yul\":4159:4163   */\n      0x00\n        /* \"#utility.yul\":4197:4199   */\n      0x40\n        /* \"#utility.yul\":4186:4195   */\n      dup3\n        /* \"#utility.yul\":4182:4200   */\n      add\n        /* \"#utility.yul\":4174:4200   */\n      swap1\n      pop\n        /* \"#utility.yul\":4210:4281   */\n      tag_125\n        /* \"#utility.yul\":4278:4279   */\n      0x00\n        /* \"#utility.yul\":4267:4276   */\n      dup4\n        /* \"#utility.yul\":4263:4280   */\n      add\n        /* \"#utility.yul\":4254:4260   */\n      dup6\n        /* \"#utility.yul\":4210:4281   */\n      tag_66\n      jump\t// in\n    tag_125:\n        /* \"#utility.yul\":4291:4363   */\n      tag_126\n        /* \"#utility.yul\":4359:4361   */\n      0x20\n        /* \"#utility.yul\":4348:4357   */\n      dup4\n        /* \"#utility.yul\":4344:4362   */\n      add\n        /* \"#utility.yul\":4335:4341   */\n      dup5\n        /* \"#utility.yul\":4291:4363   */\n      tag_67\n      jump\t// in\n    tag_126:\n        /* \"#utility.yul\":4038:4370   */\n      swap4\n      swap3\n      pop\n      pop\n      pop\n      jump\t// out\n        /* \"#utility.yul\":4376:4466   */\n    tag_68:\n        /* \"#utility.yul\":4410:4417   */\n      0x00\n        /* \"#utility.yul\":4453:4458   */\n      dup2\n        /* \"#utility.yul\":4446:4459   */\n      iszero\n        /* \"#utility.yul\":4439:4460   */\n      iszero\n        /* \"#utility.yul\":4428:4460   */\n      swap1\n      pop\n        /* \"#utility.yul\":4376:4466   */\n      swap2\n      swap1\n      pop\n      jump\t// out\n        /* \"#utility.yul\":4472:4588   */\n    tag_69:\n        /* \"#utility.yul\":4542:4563   */\n      tag_129\n        /* \"#utility.yul\":4557:4562   */\n      dup2\n        /* \"#utility.yul\":4542:4563   */\n      tag_68\n      jump\t// in\n    tag_129:\n        /* \"#utility.yul\":4535:4540   */\n      dup2\n        /* \"#utility.yul\":4532:4564   */\n      eq\n        /* \"#utility.yul\":4522:4582   */\n      tag_130\n      jumpi\n        /* \"#utility.yul\":4578:4579   */\n      0x00\n        /* \"#utility.yul\":4575:4576   */\n      dup1\n        /* \"#utility.yul\":4568:4580   */\n      revert\n        /* \"#utility.yul\":4522:4582   */\n    tag_130:\n        /* \"#utility.yul\":4472:4588   */\n      pop\n      jump\t// out\n        /* \"#utility.yul\":4594:4731   */\n    tag_70:\n        /* \"#utility.yul\":4648:4653   */\n      0x00\n        /* \"#utility.yul\":4679:4685   */\n      dup2\n        /* \"#utility.yul\":4673:4686   */\n      mload\n        /* \"#utility.yul\":4664:4686   */\n      swap1\n      pop\n        /* \"#utility.yul\":4695:4725   */\n      tag_132\n        /* \"#utility.yul\":4719:4724   */\n      dup2\n        /* \"#utility.yul\":4695:4725   */\n      tag_69\n      jump\t// in\n    tag_132:\n        /* \"#utility.yul\":4594:4731   */\n      swap3\n      swap2\n      pop\n      pop\n      jump\t// out\n        /* \"#utility.yul\":4737:5082   */\n    tag_27:\n        /* \"#utility.yul\":4804:4810   */\n      0x00\n        /* \"#utility.yul\":4853:4855   */\n      0x20\n        /* \"#utility.yul\":4841:4850   */\n      dup3\n        /* \"#utility.yul\":4832:4839   */\n      dup5\n        /* \"#utility.yul\":4828:4851   */\n      sub\n        /* \"#utility.yul\":4824:4856   */\n      slt\n        /* \"#utility.yul\":4821:4940   */\n      iszero\n      tag_134\n      jumpi\n        /* \"#utility.yul\":4859:4938   */\n      tag_135\n      tag_51\n      jump\t// in\n    tag_135:\n        /* \"#utility.yul\":4821:4940   */\n    tag_134:\n        /* \"#utility.yul\":4979:4980   */\n      0x00\n        /* \"#utility.yul\":5004:5065   */\n      tag_136\n        /* \"#utility.yul\":5057:5064   */\n      dup5\n        /* \"#utility.yul\":5048:5054   */\n      dup3\n        /* \"#utility.yul\":5037:5046   */\n      dup6\n        /* \"#utility.yul\":5033:5055   */\n      add\n        /* \"#utility.yul\":5004:5065   */\n      tag_70\n      jump\t// in\n    tag_136:\n        /* \"#utility.yul\":4994:5065   */\n      swap2\n      pop\n        /* \"#utility.yul\":4950:5075   */\n      pop\n        /* \"#utility.yul\":4737:5082   */\n      swap3\n      swap2\n      pop\n      pop\n      jump\t// out\n        /* \"#utility.yul\":5088:5251   */\n    tag_71:\n        /* \"#utility.yul\":5228:5243   */\n      0x53656e64696e67206661696c6400000000000000000000000000000000000000\n        /* \"#utility.yul\":5224:5225   */\n      0x00\n        /* \"#utility.yul\":5216:5222   */\n      dup3\n        /* \"#utility.yul\":5212:5226   */\n      add\n        /* \"#utility.yul\":5205:5244   */\n      mstore\n        /* \"#utility.yul\":5088:5251   */\n      pop\n      jump\t// out\n        /* \"#utility.yul\":5257:5623   */\n    tag_72:\n        /* \"#utility.yul\":5399:5402   */\n      0x00\n        /* \"#utility.yul\":5420:5487   */\n      tag_139\n        /* \"#utility.yul\":5484:5486   */\n      0x0d\n        /* \"#utility.yul\":5479:5482   */\n      dup4\n        /* \"#utility.yul\":5420:5487   */\n      tag_63\n      jump\t// in\n    tag_139:\n        /* \"#utility.yul\":5413:5487   */\n      swap2\n      pop\n        /* \"#utility.yul\":5496:5589   */\n      tag_140\n        /* \"#utility.yul\":5585:5588   */\n      dup3\n        /* \"#utility.yul\":5496:5589   */\n      tag_71\n      jump\t// in\n    tag_140:\n        /* \"#utility.yul\":5614:5616   */\n      0x20\n        /* \"#utility.yul\":5609:5612   */\n      dup3\n        /* \"#utility.yul\":5605:5617   */\n      add\n        /* \"#utility.yul\":5598:5617   */\n      swap1\n      pop\n        /* \"#utility.yul\":5257:5623   */\n      swap2\n      swap1\n      pop\n      jump\t// out\n        /* \"#utility.yul\":5629:6048   */\n    tag_30:\n        /* \"#utility.yul\":5795:5799   */\n      0x00\n        /* \"#utility.yul\":5833:5835   */\n      0x20\n        /* \"#utility.yul\":5822:5831   */\n      dup3\n        /* \"#utility.yul\":5818:5836   */\n      add\n        /* \"#utility.yul\":5810:5836   */\n      swap1\n      pop\n        /* \"#utility.yul\":5882:5891   */\n      dup2\n        /* \"#utility.yul\":5876:5880   */\n      dup2\n        /* \"#utility.yul\":5872:5892   */\n      sub\n        /* \"#utility.yul\":5868:5869   */\n      0x00\n        /* \"#utility.yul\":5857:5866   */\n      dup4\n        /* \"#utility.yul\":5853:5870   */\n      add\n        /* \"#utility.yul\":5846:5893   */\n      mstore\n        /* \"#utility.yul\":5910:6041   */\n      tag_142\n        /* \"#utility.yul\":6036:6040   */\n      dup2\n        /* \"#utility.yul\":5910:6041   */\n      tag_72\n      jump\t// in\n    tag_142:\n        /* \"#utility.yul\":5902:6041   */\n      swap1\n      pop\n        /* \"#utility.yul\":5629:6048   */\n      swap2\n      swap1\n      pop\n      jump\t// out\n        /* \"#utility.yul\":6054:6201   */\n    tag_73:\n        /* \"#utility.yul\":6155:6166   */\n      0x00\n        /* \"#utility.yul\":6192:6195   */\n      dup2\n        /* \"#utility.yul\":6177:6195   */\n      swap1\n      pop\n        /* \"#utility.yul\":6054:6201   */\n      swap3\n      swap2\n      pop\n      pop\n      jump\t// out\n        /* \"#utility.yul\":6207:6321   */\n    tag_74:\n      pop\n      jump\t// out\n        /* \"#utility.yul\":6327:6725   */\n    tag_75:\n        /* \"#utility.yul\":6486:6489   */\n      0x00\n        /* \"#utility.yul\":6507:6590   */\n      tag_146\n        /* \"#utility.yul\":6588:6589   */\n      0x00\n        /* \"#utility.yul\":6583:6586   */\n      dup4\n        /* \"#utility.yul\":6507:6590   */\n      tag_73\n      jump\t// in\n    tag_146:\n        /* \"#utility.yul\":6500:6590   */\n      swap2\n      pop\n        /* \"#utility.yul\":6599:6692   */\n      tag_147\n        /* \"#utility.yul\":6688:6691   */\n      dup3\n        /* \"#utility.yul\":6599:6692   */\n      tag_74\n      jump\t// in\n    tag_147:\n        /* \"#utility.yul\":6717:6718   */\n      0x00\n        /* \"#utility.yul\":6712:6715   */\n      dup3\n        /* \"#utility.yul\":6708:6719   */\n      add\n        /* \"#utility.yul\":6701:6719   */\n      swap1\n      pop\n        /* \"#utility.yul\":6327:6725   */\n      swap2\n      swap1\n      pop\n      jump\t// out\n        /* \"#utility.yul\":6731:7110   */\n    tag_38:\n        /* \"#utility.yul\":6915:6918   */\n      0x00\n        /* \"#utility.yul\":6937:7084   */\n      tag_149\n        /* \"#utility.yul\":7080:7083   */\n      dup3\n        /* \"#utility.yul\":6937:7084   */\n      tag_75\n      jump\t// in\n    tag_149:\n        /* \"#utility.yul\":6930:7084   */\n      swap2\n      pop\n        /* \"#utility.yul\":7101:7104   */\n      dup2\n        /* \"#utility.yul\":7094:7104   */\n      swap1\n      pop\n        /* \"#utility.yul\":6731:7110   */\n      swap2\n      swap1\n      pop\n      jump\t// out\n        /* \"#utility.yul\":7116:7286   */\n    tag_76:\n        /* \"#utility.yul\":7256:7278   */\n      0x4661696c656420746f2073656e64204574686572000000000000000000000000\n        /* \"#utility.yul\":7252:7253   */\n      0x00\n        /* \"#utility.yul\":7244:7250   */\n      dup3\n        /* \"#utility.yul\":7240:7254   */\n      add\n        /* \"#utility.yul\":7233:7279   */\n      mstore\n        /* \"#utility.yul\":7116:7286   */\n      pop\n      jump\t// out\n        /* \"#utility.yul\":7292:7658   */\n    tag_77:\n        /* \"#utility.yul\":7434:7437   */\n      0x00\n        /* \"#utility.yul\":7455:7522   */\n      tag_152\n        /* \"#utility.yul\":7519:7521   */\n      0x14\n        /* \"#utility.yul\":7514:7517   */\n      dup4\n        /* \"#utility.yul\":7455:7522   */\n      tag_63\n      jump\t// in\n    tag_152:\n        /* \"#utility.yul\":7448:7522   */\n      swap2\n      pop\n        /* \"#utility.yul\":7531:7624   */\n      tag_153\n        /* \"#utility.yul\":7620:7623   */\n      dup3\n        /* \"#utility.yul\":7531:7624   */\n      tag_76\n      jump\t// in\n    tag_153:\n        /* \"#utility.yul\":7649:7651   */\n      0x20\n        /* \"#utility.yul\":7644:7647   */\n      dup3\n        /* \"#utility.yul\":7640:7652   */\n      add\n        /* \"#utility.yul\":7633:7652   */\n      swap1\n      pop\n        /* \"#utility.yul\":7292:7658   */\n      swap2\n      swap1\n      pop\n      jump\t// out\n        /* \"#utility.yul\":7664:8083   */\n    tag_44:\n        /* \"#utility.yul\":7830:7834   */\n      0x00\n        /* \"#utility.yul\":7868:7870   */\n      0x20\n        /* \"#utility.yul\":7857:7866   */\n      dup3\n        /* \"#utility.yul\":7853:7871   */\n      add\n        /* \"#utility.yul\":7845:7871   */\n      swap1\n      pop\n        /* \"#utility.yul\":7917:7926   */\n      dup2\n        /* \"#utility.yul\":7911:7915   */\n      dup2\n        /* \"#utility.yul\":7907:7927   */\n      sub\n        /* \"#utility.yul\":7903:7904   */\n      0x00\n        /* \"#utility.yul\":7892:7901   */\n      dup4\n        /* \"#utility.yul\":7888:7905   */\n      add\n        /* \"#utility.yul\":7881:7928   */\n      mstore\n        /* \"#utility.yul\":7945:8076   */\n      tag_155\n        /* \"#utility.yul\":8071:8075   */\n      dup2\n        /* \"#utility.yul\":7945:8076   */\n      tag_77\n      jump\t// in\n    tag_155:\n        /* \"#utility.yul\":7937:8076   */\n      swap1\n      pop\n        /* \"#utility.yul\":7664:8083   */\n      swap2\n      swap1\n      pop\n      jump\t// out\n\n    auxdata: 0xa264697066735822122083d761db68d44229acdea2f185a18585baaf65b11cda00e6d05ef6664a61f05664736f6c63430008160033\n}\n",
				"bytecode": {
					"linkReferences": {},
					"object": "608060405234801561001057600080fd5b50610748806100206000396000f3fe6080604052600436106100295760003560e01c806325fdafa81461002e5780634a22d07314610057575b600080fd5b34801561003a57600080fd5b50610055600480360381019061005091906103e7565b610073565b005b610071600480360381019061006c9190610478565b6101b7565b005b61007b6102e6565b73ffffffffffffffffffffffffffffffffffffffff16610099610319565b73ffffffffffffffffffffffffffffffffffffffff16146100ef576040517f08c379a00000000000000000000000000000000000000000000000000000000081526004016100e690610528565b60405180910390fd5b60008390508073ffffffffffffffffffffffffffffffffffffffff1663a9059cbb84846040518363ffffffff1660e01b815260040161012f929190610566565b6020604051808303816000875af115801561014e573d6000803e3d6000fd5b505050506040513d601f19601f8201168201806040525081019061017291906105c7565b6101b1576040517f08c379a00000000000000000000000000000000000000000000000000000000081526004016101a890610640565b60405180910390fd5b50505050565b6101bf6102e6565b73ffffffffffffffffffffffffffffffffffffffff166101dd610319565b73ffffffffffffffffffffffffffffffffffffffff1614610233576040517f08c379a000000000000000000000000000000000000000000000000000000000815260040161022a90610528565b60405180910390fd5b6000808273ffffffffffffffffffffffffffffffffffffffff163460405161025a90610691565b60006040518083038185875af1925050503d8060008114610297576040519150601f19603f3d011682016040523d82523d6000602084013e61029c565b606091505b5091509150816102e1576040517f08c379a00000000000000000000000000000000000000000000000000000000081526004016102d8906106f2565b60405180910390fd5b505050565b60006102f0610321565b60030160009054906101000a900473ffffffffffffffffffffffffffffffffffffffff16905090565b600033905090565b6000807fc8fcad8db84d3cc18b4c41d551ea0ee66dd599cde068d998e57d5e09332c131c90508091505090565b600080fd5b600073ffffffffffffffffffffffffffffffffffffffff82169050919050565b600061037e82610353565b9050919050565b61038e81610373565b811461039957600080fd5b50565b6000813590506103ab81610385565b92915050565b6000819050919050565b6103c4816103b1565b81146103cf57600080fd5b50565b6000813590506103e1816103bb565b92915050565b600080600060608486031215610400576103ff61034e565b5b600061040e8682870161039c565b935050602061041f8682870161039c565b9250506040610430868287016103d2565b9150509250925092565b600061044582610353565b9050919050565b6104558161043a565b811461046057600080fd5b50565b6000813590506104728161044c565b92915050565b60006020828403121561048e5761048d61034e565b5b600061049c84828501610463565b91505092915050565b600082825260208201905092915050565b7f4163636573732064656e6965642c204f6e6c79206f776e657220697320616c6c60008201527f6f77656421000000000000000000000000000000000000000000000000000000602082015250565b60006105126025836104a5565b915061051d826104b6565b604082019050919050565b6000602082019050818103600083015261054181610505565b9050919050565b61055181610373565b82525050565b610560816103b1565b82525050565b600060408201905061057b6000830185610548565b6105886020830184610557565b9392505050565b60008115159050919050565b6105a48161058f565b81146105af57600080fd5b50565b6000815190506105c18161059b565b92915050565b6000602082840312156105dd576105dc61034e565b5b60006105eb848285016105b2565b91505092915050565b7f53656e64696e67206661696c6400000000000000000000000000000000000000600082015250565b600061062a600d836104a5565b9150610635826105f4565b602082019050919050565b600060208201905081810360008301526106598161061d565b9050919050565b600081905092915050565b50565b600061067b600083610660565b91506106868261066b565b600082019050919050565b600061069c8261066e565b9150819050919050565b7f4661696c656420746f2073656e64204574686572000000000000000000000000600082015250565b60006106dc6014836104a5565b91506106e7826106a6565b602082019050919050565b6000602082019050818103600083015261070b816106cf565b905091905056fea264697066735822122083d761db68d44229acdea2f185a18585baaf65b11cda00e6d05ef6664a61f05664736f6c63430008160033",
					"opcodes": "PUSH1 0x80 PUSH1 0x40 MSTORE CALLVALUE DUP1 ISZERO PUSH2 0x10 JUMPI PUSH1 0x0 DUP1 REVERT JUMPDEST POP PUSH2 0x748 DUP1 PUSH2 0x20 PUSH1 0x0 CODECOPY PUSH1 0x0 RETURN INVALID PUSH1 0x80 PUSH1 0x40 MSTORE PUSH1 0x4 CALLDATASIZE LT PUSH2 0x29 JUMPI PUSH1 0x0 CALLDATALOAD PUSH1 0xE0 SHR DUP1 PUSH4 0x25FDAFA8 EQ PUSH2 0x2E JUMPI DUP1 PUSH4 0x4A22D073 EQ PUSH2 0x57 JUMPI JUMPDEST PUSH1 0x0 DUP1 REVERT JUMPDEST CALLVALUE DUP1 ISZERO PUSH2 0x3A JUMPI PUSH1 0x0 DUP1 REVERT JUMPDEST POP PUSH2 0x55 PUSH1 0x4 DUP1 CALLDATASIZE SUB DUP2 ADD SWAP1 PUSH2 0x50 SWAP2 SWAP1 PUSH2 0x3E7 JUMP JUMPDEST PUSH2 0x73 JUMP JUMPDEST STOP JUMPDEST PUSH2 0x71 PUSH1 0x4 DUP1 CALLDATASIZE SUB DUP2 ADD SWAP1 PUSH2 0x6C SWAP2 SWAP1 PUSH2 0x478 JUMP JUMPDEST PUSH2 0x1B7 JUMP JUMPDEST STOP JUMPDEST PUSH2 0x7B PUSH2 0x2E6 JUMP JUMPDEST PUSH20 0xFFFFFFFFFFFFFFFFFFFFFFFFFFFFFFFFFFFFFFFF AND PUSH2 0x99 PUSH2 0x319 JUMP JUMPDEST PUSH20 0xFFFFFFFFFFFFFFFFFFFFFFFFFFFFFFFFFFFFFFFF AND EQ PUSH2 0xEF JUMPI PUSH1 0x40 MLOAD PUSH32 0x8C379A000000000000000000000000000000000000000000000000000000000 DUP2 MSTORE PUSH1 0x4 ADD PUSH2 0xE6 SWAP1 PUSH2 0x528 JUMP JUMPDEST PUSH1 0x40 MLOAD DUP1 SWAP2 SUB SWAP1 REVERT JUMPDEST PUSH1 0x0 DUP4 SWAP1 POP DUP1 PUSH20 0xFFFFFFFFFFFFFFFFFFFFFFFFFFFFFFFFFFFFFFFF AND PUSH4 0xA9059CBB DUP5 DUP5 PUSH1 0x40 MLOAD DUP4 PUSH4 0xFFFFFFFF AND PUSH1 0xE0 SHL DUP2 MSTORE PUSH1 0x4 ADD PUSH2 0x12F SWAP3 SWAP2 SWAP1 PUSH2 0x566 JUMP JUMPDEST PUSH1 0x20 PUSH1 0x40 MLOAD DUP1 DUP4 SUB DUP2 PUSH1 0x0 DUP8 GAS CALL ISZERO DUP1 ISZERO PUSH2 0x14E JUMPI RETURNDATASIZE PUSH1 0x0 DUP1 RETURNDATACOPY RETURNDATASIZE PUSH1 0x0 REVERT JUMPDEST POP POP POP POP PUSH1 0x40 MLOAD RETURNDATASIZE PUSH1 0x1F NOT PUSH1 0x1F DUP3 ADD AND DUP3 ADD DUP1 PUSH1 0x40 MSTORE POP DUP2 ADD SWAP1 PUSH2 0x172 SWAP2 SWAP1 PUSH2 0x5C7 JUMP JUMPDEST PUSH2 0x1B1 JUMPI PUSH1 0x40 MLOAD PUSH32 0x8C379A000000000000000000000000000000000000000000000000000000000 DUP2 MSTORE PUSH1 0x4 ADD PUSH2 0x1A8 SWAP1 PUSH2 0x640 JUMP JUMPDEST PUSH1 0x40 MLOAD DUP1 SWAP2 SUB SWAP1 REVERT JUMPDEST POP POP POP POP JUMP JUMPDEST PUSH2 0x1BF PUSH2 0x2E6 JUMP JUMPDEST PUSH20 0xFFFFFFFFFFFFFFFFFFFFFFFFFFFFFFFFFFFFFFFF AND PUSH2 0x1DD PUSH2 0x319 JUMP JUMPDEST PUSH20 0xFFFFFFFFFFFFFFFFFFFFFFFFFFFFFFFFFFFFFFFF AND EQ PUSH2 0x233 JUMPI PUSH1 0x40 MLOAD PUSH32 0x8C379A000000000000000000000000000000000000000000000000000000000 DUP2 MSTORE PUSH1 0x4 ADD PUSH2 0x22A SWAP1 PUSH2 0x528 JUMP JUMPDEST PUSH1 0x40 MLOAD DUP1 SWAP2 SUB SWAP1 REVERT JUMPDEST PUSH1 0x0 DUP1 DUP3 PUSH20 0xFFFFFFFFFFFFFFFFFFFFFFFFFFFFFFFFFFFFFFFF AND CALLVALUE PUSH1 0x40 MLOAD PUSH2 0x25A SWAP1 PUSH2 0x691 JUMP JUMPDEST PUSH1 0x0 PUSH1 0x40 MLOAD DUP1 DUP4 SUB DUP2 DUP6 DUP8 GAS CALL SWAP3 POP POP POP RETURNDATASIZE DUP1 PUSH1 0x0 DUP2 EQ PUSH2 0x297 JUMPI PUSH1 0x40 MLOAD SWAP2 POP PUSH1 0x1F NOT PUSH1 0x3F RETURNDATASIZE ADD AND DUP3 ADD PUSH1 0x40 MSTORE RETURNDATASIZE DUP3 MSTORE RETURNDATASIZE PUSH1 0x0 PUSH1 0x20 DUP5 ADD RETURNDATACOPY PUSH2 0x29C JUMP JUMPDEST PUSH1 0x60 SWAP2 POP JUMPDEST POP SWAP2 POP SWAP2 POP DUP2 PUSH2 0x2E1 JUMPI PUSH1 0x40 MLOAD PUSH32 0x8C379A000000000000000000000000000000000000000000000000000000000 DUP2 MSTORE PUSH1 0x4 ADD PUSH2 0x2D8 SWAP1 PUSH2 0x6F2 JUMP JUMPDEST PUSH1 0x40 MLOAD DUP1 SWAP2 SUB SWAP1 REVERT JUMPDEST POP POP POP JUMP JUMPDEST PUSH1 0x0 PUSH2 0x2F0 PUSH2 0x321 JUMP JUMPDEST PUSH1 0x3 ADD PUSH1 0x0 SWAP1 SLOAD SWAP1 PUSH2 0x100 EXP SWAP1 DIV PUSH20 0xFFFFFFFFFFFFFFFFFFFFFFFFFFFFFFFFFFFFFFFF AND SWAP1 POP SWAP1 JUMP JUMPDEST PUSH1 0x0 CALLER SWAP1 POP SWAP1 JUMP JUMPDEST PUSH1 0x0 DUP1 PUSH32 0xC8FCAD8DB84D3CC18B4C41D551EA0EE66DD599CDE068D998E57D5E09332C131C SWAP1 POP DUP1 SWAP2 POP POP SWAP1 JUMP JUMPDEST PUSH1 0x0 DUP1 REVERT JUMPDEST PUSH1 0x0 PUSH20 0xFFFFFFFFFFFFFFFFFFFFFFFFFFFFFFFFFFFFFFFF DUP3 AND SWAP1 POP SWAP2 SWAP1 POP JUMP JUMPDEST PUSH1 0x0 PUSH2 0x37E DUP3 PUSH2 0x353 JUMP JUMPDEST SWAP1 POP SWAP2 SWAP1 POP JUMP JUMPDEST PUSH2 0x38E DUP2 PUSH2 0x373 JUMP JUMPDEST DUP2 EQ PUSH2 0x399 JUMPI PUSH1 0x0 DUP1 REVERT JUMPDEST POP JUMP JUMPDEST PUSH1 0x0 DUP2 CALLDATALOAD SWAP1 POP PUSH2 0x3AB DUP2 PUSH2 0x385 JUMP JUMPDEST SWAP3 SWAP2 POP POP JUMP JUMPDEST PUSH1 0x0 DUP2 SWAP1 POP SWAP2 SWAP1 POP JUMP JUMPDEST PUSH2 0x3C4 DUP2 PUSH2 0x3B1 JUMP JUMPDEST DUP2 EQ PUSH2 0x3CF JUMPI PUSH1 0x0 DUP1 REVERT JUMPDEST POP JUMP JUMPDEST PUSH1 0x0 DUP2 CALLDATALOAD SWAP1 POP PUSH2 0x3E1 DUP2 PUSH2 0x3BB JUMP JUMPDEST SWAP3 SWAP2 POP POP JUMP JUMPDEST PUSH1 0x0 DUP1 PUSH1 0x0 PUSH1 0x60 DUP5 DUP7 SUB SLT ISZERO PUSH2 0x400 JUMPI PUSH2 0x3FF PUSH2 0x34E JUMP JUMPDEST JUMPDEST PUSH1 0x0 PUSH2 0x40E DUP7 DUP3 DUP8 ADD PUSH2 0x39C JUMP JUMPDEST SWAP4 POP POP PUSH1 0x20 PUSH2 0x41F DUP7 DUP3 DUP8 ADD PUSH2 0x39C JUMP JUMPDEST SWAP3 POP POP PUSH1 0x40 PUSH2 0x430 DUP7 DUP3 DUP8 ADD PUSH2 0x3D2 JUMP JUMPDEST SWAP2 POP POP SWAP3 POP SWAP3 POP SWAP3 JUMP JUMPDEST PUSH1 0x0 PUSH2 0x445 DUP3 PUSH2 0x353 JUMP JUMPDEST SWAP1 POP SWAP2 SWAP1 POP JUMP JUMPDEST PUSH2 0x455 DUP2 PUSH2 0x43A JUMP JUMPDEST DUP2 EQ PUSH2 0x460 JUMPI PUSH1 0x0 DUP1 REVERT JUMPDEST POP JUMP JUMPDEST PUSH1 0x0 DUP2 CALLDATALOAD SWAP1 POP PUSH2 0x472 DUP2 PUSH2 0x44C JUMP JUMPDEST SWAP3 SWAP2 POP POP JUMP JUMPDEST PUSH1 0x0 PUSH1 0x20 DUP3 DUP5 SUB SLT ISZERO PUSH2 0x48E JUMPI PUSH2 0x48D PUSH2 0x34E JUMP JUMPDEST JUMPDEST PUSH1 0x0 PUSH2 0x49C DUP5 DUP3 DUP6 ADD PUSH2 0x463 JUMP JUMPDEST SWAP2 POP POP SWAP3 SWAP2 POP POP JUMP JUMPDEST PUSH1 0x0 DUP3 DUP3 MSTORE PUSH1 0x20 DUP3 ADD SWAP1 POP SWAP3 SWAP2 POP POP JUMP JUMPDEST PUSH32 0x4163636573732064656E6965642C204F6E6C79206F776E657220697320616C6C PUSH1 0x0 DUP3 ADD MSTORE PUSH32 0x6F77656421000000000000000000000000000000000000000000000000000000 PUSH1 0x20 DUP3 ADD MSTORE POP JUMP JUMPDEST PUSH1 0x0 PUSH2 0x512 PUSH1 0x25 DUP4 PUSH2 0x4A5 JUMP JUMPDEST SWAP2 POP PUSH2 0x51D DUP3 PUSH2 0x4B6 JUMP JUMPDEST PUSH1 0x40 DUP3 ADD SWAP1 POP SWAP2 SWAP1 POP JUMP JUMPDEST PUSH1 0x0 PUSH1 0x20 DUP3 ADD SWAP1 POP DUP2 DUP2 SUB PUSH1 0x0 DUP4 ADD MSTORE PUSH2 0x541 DUP2 PUSH2 0x505 JUMP JUMPDEST SWAP1 POP SWAP2 SWAP1 POP JUMP JUMPDEST PUSH2 0x551 DUP2 PUSH2 0x373 JUMP JUMPDEST DUP3 MSTORE POP POP JUMP JUMPDEST PUSH2 0x560 DUP2 PUSH2 0x3B1 JUMP JUMPDEST DUP3 MSTORE POP POP JUMP JUMPDEST PUSH1 0x0 PUSH1 0x40 DUP3 ADD SWAP1 POP PUSH2 0x57B PUSH1 0x0 DUP4 ADD DUP6 PUSH2 0x548 JUMP JUMPDEST PUSH2 0x588 PUSH1 0x20 DUP4 ADD DUP5 PUSH2 0x557 JUMP JUMPDEST SWAP4 SWAP3 POP POP POP JUMP JUMPDEST PUSH1 0x0 DUP2 ISZERO ISZERO SWAP1 POP SWAP2 SWAP1 POP JUMP JUMPDEST PUSH2 0x5A4 DUP2 PUSH2 0x58F JUMP JUMPDEST DUP2 EQ PUSH2 0x5AF JUMPI PUSH1 0x0 DUP1 REVERT JUMPDEST POP JUMP JUMPDEST PUSH1 0x0 DUP2 MLOAD SWAP1 POP PUSH2 0x5C1 DUP2 PUSH2 0x59B JUMP JUMPDEST SWAP3 SWAP2 POP POP JUMP JUMPDEST PUSH1 0x0 PUSH1 0x20 DUP3 DUP5 SUB SLT ISZERO PUSH2 0x5DD JUMPI PUSH2 0x5DC PUSH2 0x34E JUMP JUMPDEST JUMPDEST PUSH1 0x0 PUSH2 0x5EB DUP5 DUP3 DUP6 ADD PUSH2 0x5B2 JUMP JUMPDEST SWAP2 POP POP SWAP3 SWAP2 POP POP JUMP JUMPDEST PUSH32 0x53656E64696E67206661696C6400000000000000000000000000000000000000 PUSH1 0x0 DUP3 ADD MSTORE POP JUMP JUMPDEST PUSH1 0x0 PUSH2 0x62A PUSH1 0xD DUP4 PUSH2 0x4A5 JUMP JUMPDEST SWAP2 POP PUSH2 0x635 DUP3 PUSH2 0x5F4 JUMP JUMPDEST PUSH1 0x20 DUP3 ADD SWAP1 POP SWAP2 SWAP1 POP JUMP JUMPDEST PUSH1 0x0 PUSH1 0x20 DUP3 ADD SWAP1 POP DUP2 DUP2 SUB PUSH1 0x0 DUP4 ADD MSTORE PUSH2 0x659 DUP2 PUSH2 0x61D JUMP JUMPDEST SWAP1 POP SWAP2 SWAP1 POP JUMP JUMPDEST PUSH1 0x0 DUP2 SWAP1 POP SWAP3 SWAP2 POP POP JUMP JUMPDEST POP JUMP JUMPDEST PUSH1 0x0 PUSH2 0x67B PUSH1 0x0 DUP4 PUSH2 0x660 JUMP JUMPDEST SWAP2 POP PUSH2 0x686 DUP3 PUSH2 0x66B JUMP JUMPDEST PUSH1 0x0 DUP3 ADD SWAP1 POP SWAP2 SWAP1 POP JUMP JUMPDEST PUSH1 0x0 PUSH2 0x69C DUP3 PUSH2 0x66E JUMP JUMPDEST SWAP2 POP DUP2 SWAP1 POP SWAP2 SWAP1 POP JUMP JUMPDEST PUSH32 0x4661696C656420746F2073656E64204574686572000000000000000000000000 PUSH1 0x0 DUP3 ADD MSTORE POP JUMP JUMPDEST PUSH1 0x0 PUSH2 0x6DC PUSH1 0x14 DUP4 PUSH2 0x4A5 JUMP JUMPDEST SWAP2 POP PUSH2 0x6E7 DUP3 PUSH2 0x6A6 JUMP JUMPDEST PUSH1 0x20 DUP3 ADD SWAP1 POP SWAP2 SWAP1 POP JUMP JUMPDEST PUSH1 0x0 PUSH1 0x20 DUP3 ADD SWAP1 POP DUP2 DUP2 SUB PUSH1 0x0 DUP4 ADD MSTORE PUSH2 0x70B DUP2 PUSH2 0x6CF JUMP JUMPDEST SWAP1 POP SWAP2 SWAP1 POP JUMP INVALID LOG2 PUSH5 0x6970667358 0x22 SLT KECCAK256 DUP4 0xD7 PUSH2 0xDB68 0xD4 TIMESTAMP 0x29 0xAC 0xDE LOG2 CALL DUP6 LOG1 DUP6 DUP6 0xBA 0xAF PUSH6 0xB11CDA00E6D0 0x5E 0xF6 PUSH7 0x4A61F05664736F PUSH13 0x63430008160033000000000000 "
				},
				"gasEstimates": {
					"creation": {
						"codeDepositCost": "372800",
						"executionCost": "411",
						"totalCost": "373211"
					},
					"external": {
						"takeBase(address)": "infinite",
						"takeFund(address,address,uint256)": "infinite"
					},
					"internal": {
						"_msgSender()": "22"
					}
				},
				"methodIdentifiers": {
					"takeBase(address)": "4a22d073",
					"takeFund(address,address,uint256)": "25fdafa8"
				}
			},
			"storageLayout": {
				"storage": [],
				"types": null
			},
			"userdoc": {
				"kind": "user",
				"methods": {},
				"version": 1
			}
		}
	}
}