{
	"contracts/facets/DiamondLoupeFacet.sol": {
		"DiamondLoupeFacet": {
			"abi": [
				{
					"inputs": [
						{
							"internalType": "bytes4",
							"name": "_functionSelector",
							"type": "bytes4"
						}
					],
					"name": "facetAddress",
					"outputs": [
						{
							"internalType": "address",
							"name": "facetAddress_",
							"type": "address"
						}
					],
					"stateMutability": "view",
					"type": "function"
				},
				{
					"inputs": [],
					"name": "facetAddresses",
					"outputs": [
						{
							"internalType": "address[]",
							"name": "facetAddresses_",
							"type": "address[]"
						}
					],
					"stateMutability": "view",
					"type": "function"
				},
				{
					"inputs": [
						{
							"internalType": "address",
							"name": "_facet",
							"type": "address"
						}
					],
					"name": "facetFunctionSelectors",
					"outputs": [
						{
							"internalType": "bytes4[]",
							"name": "_facetFunctionSelectors",
							"type": "bytes4[]"
						}
					],
					"stateMutability": "view",
					"type": "function"
				},
				{
					"inputs": [],
					"name": "facets",
					"outputs": [
						{
							"components": [
								{
									"internalType": "address",
									"name": "facetAddress",
									"type": "address"
								},
								{
									"internalType": "bytes4[]",
									"name": "functionSelectors",
									"type": "bytes4[]"
								}
							],
							"internalType": "struct IDiamondLoupe.Facet[]",
							"name": "facets_",
							"type": "tuple[]"
						}
					],
					"stateMutability": "view",
					"type": "function"
				},
				{
					"inputs": [
						{
							"internalType": "bytes4",
							"name": "_interfaceId",
							"type": "bytes4"
						}
					],
					"name": "safeSupportsInterface",
					"outputs": [
						{
							"internalType": "bool",
							"name": "",
							"type": "bool"
						}
					],
					"stateMutability": "view",
					"type": "function"
				}
			],
			"devdoc": {
				"kind": "dev",
				"methods": {
					"facetAddress(bytes4)": {
						"details": "If facet is not found return address(0).",
						"params": {
							"_functionSelector": "The function selector."
						},
						"returns": {
							"facetAddress_": "The facet address."
						}
					},
					"facetAddresses()": {
						"returns": {
							"facetAddresses_": "facetAddresses_"
						}
					},
					"facetFunctionSelectors(address)": {
						"params": {
							"_facet": "The facet address."
						},
						"returns": {
							"_facetFunctionSelectors": "The selectors associated with a facet address."
						}
					},
					"facets()": {
						"returns": {
							"facets_": "Facet"
						}
					}
				},
				"version": 1
			},
			"evm": {
				"assembly": "    /* \"contracts/facets/DiamondLoupeFacet.sol\":530:7346  contract DiamondLoupeFacet is IDiamondLoupe, IERC165 {... */\n  mstore(0x40, 0x80)\n  callvalue\n  dup1\n  iszero\n  tag_1\n  jumpi\n  0x00\n  dup1\n  revert\ntag_1:\n  pop\n  dataSize(sub_0)\n  dup1\n  dataOffset(sub_0)\n  0x00\n  codecopy\n  0x00\n  return\nstop\n\nsub_0: assembly {\n        /* \"contracts/facets/DiamondLoupeFacet.sol\":530:7346  contract DiamondLoupeFacet is IDiamondLoupe, IERC165 {... */\n      mstore(0x40, 0x80)\n      callvalue\n      dup1\n      iszero\n      tag_1\n      jumpi\n      0x00\n      dup1\n      revert\n    tag_1:\n      pop\n      jumpi(tag_2, lt(calldatasize, 0x04))\n      shr(0xe0, calldataload(0x00))\n      dup1\n      0x52ef6b2c\n      eq\n      tag_3\n      jumpi\n      dup1\n      0x7a0ed627\n      eq\n      tag_4\n      jumpi\n      dup1\n      0xadfca15e\n      eq\n      tag_5\n      jumpi\n      dup1\n      0xaf8a2625\n      eq\n      tag_6\n      jumpi\n      dup1\n      0xcdffacc6\n      eq\n      tag_7\n      jumpi\n    tag_2:\n      0x00\n      dup1\n      revert\n        /* \"contracts/facets/DiamondLoupeFacet.sol\":4937:6510  function facetAddresses()... */\n    tag_3:\n      tag_8\n      tag_9\n      jump\t// in\n    tag_8:\n      mload(0x40)\n      tag_10\n      swap2\n      swap1\n      tag_11\n      jump\t// in\n    tag_10:\n      mload(0x40)\n      dup1\n      swap2\n      sub\n      swap1\n      return\n        /* \"contracts/facets/DiamondLoupeFacet.sol\":957:3592  function facets() external view override returns (Facet[] memory facets_) {... */\n    tag_4:\n      tag_12\n      tag_13\n      jump\t// in\n    tag_12:\n      mload(0x40)\n      tag_14\n      swap2\n      swap1\n      tag_15\n      jump\t// in\n    tag_14:\n      mload(0x40)\n      dup1\n      swap2\n      sub\n      swap1\n      return\n        /* \"contracts/facets/DiamondLoupeFacet.sol\":3805:4836  function facetFunctionSelectors(... */\n    tag_5:\n      tag_16\n      0x04\n      dup1\n      calldatasize\n      sub\n      dup2\n      add\n      swap1\n      tag_17\n      swap2\n      swap1\n      tag_18\n      jump\t// in\n    tag_17:\n      tag_19\n      jump\t// in\n    tag_16:\n      mload(0x40)\n      tag_20\n      swap2\n      swap1\n      tag_21\n      jump\t// in\n    tag_20:\n      mload(0x40)\n      dup1\n      swap2\n      sub\n      swap1\n      return\n        /* \"contracts/facets/DiamondLoupeFacet.sol\":7104:7344  function safeSupportsInterface(... */\n    tag_6:\n      tag_22\n      0x04\n      dup1\n      calldatasize\n      sub\n      dup2\n      add\n      swap1\n      tag_23\n      swap2\n      swap1\n      tag_24\n      jump\t// in\n    tag_23:\n      tag_25\n      jump\t// in\n    tag_22:\n      mload(0x40)\n      tag_26\n      swap2\n      swap1\n      tag_27\n      jump\t// in\n    tag_26:\n      mload(0x40)\n      dup1\n      swap2\n      sub\n      swap1\n      return\n        /* \"contracts/facets/DiamondLoupeFacet.sol\":6748:7066  function facetAddress(... */\n    tag_7:\n      tag_28\n      0x04\n      dup1\n      calldatasize\n      sub\n      dup2\n      add\n      swap1\n      tag_29\n      swap2\n      swap1\n      tag_24\n      jump\t// in\n    tag_29:\n      tag_30\n      jump\t// in\n    tag_28:\n      mload(0x40)\n      tag_31\n      swap2\n      swap1\n      tag_32\n      jump\t// in\n    tag_31:\n      mload(0x40)\n      dup1\n      swap2\n      sub\n      swap1\n      return\n        /* \"contracts/facets/DiamondLoupeFacet.sol\":4937:6510  function facetAddresses()... */\n    tag_9:\n        /* \"contracts/facets/DiamondLoupeFacet.sol\":5027:5059  address[] memory facetAddresses_ */\n      0x60\n        /* \"contracts/facets/DiamondLoupeFacet.sol\":5075:5111  LibDiamond.DiamondStorage storage ds */\n      0x00\n        /* \"contracts/facets/DiamondLoupeFacet.sol\":5114:5141  LibDiamond.diamondStorage() */\n      tag_34\n        /* \"contracts/facets/DiamondLoupeFacet.sol\":5114:5139  LibDiamond.diamondStorage */\n      tag_35\n        /* \"contracts/facets/DiamondLoupeFacet.sol\":5114:5141  LibDiamond.diamondStorage() */\n      jump\t// in\n    tag_34:\n        /* \"contracts/facets/DiamondLoupeFacet.sol\":5075:5141  LibDiamond.DiamondStorage storage ds = LibDiamond.diamondStorage() */\n      swap1\n      pop\n        /* \"contracts/facets/DiamondLoupeFacet.sol\":5151:5172  uint256 selectorCount */\n      0x00\n        /* \"contracts/facets/DiamondLoupeFacet.sol\":5175:5177  ds */\n      dup2\n        /* \"contracts/facets/DiamondLoupeFacet.sol\":5175:5187  ds.selectors */\n      0x01\n      add\n        /* \"contracts/facets/DiamondLoupeFacet.sol\":5175:5194  ds.selectors.length */\n      dup1\n      sload\n      swap1\n      pop\n        /* \"contracts/facets/DiamondLoupeFacet.sol\":5151:5194  uint256 selectorCount = ds.selectors.length */\n      swap1\n      pop\n        /* \"contracts/facets/DiamondLoupeFacet.sol\":5296:5309  selectorCount */\n      dup1\n        /* \"contracts/facets/DiamondLoupeFacet.sol\":5282:5310  new address[](selectorCount) */\n      0xffffffffffffffff\n      dup2\n      gt\n      iszero\n      tag_36\n      jumpi\n      tag_37\n      tag_38\n      jump\t// in\n    tag_37:\n    tag_36:\n      mload(0x40)\n      swap1\n      dup1\n      dup3\n      mstore\n      dup1\n      0x20\n      mul\n      0x20\n      add\n      dup3\n      add\n      0x40\n      mstore\n      dup1\n      iszero\n      tag_39\n      jumpi\n      dup2\n      0x20\n      add\n      0x20\n      dup3\n      mul\n      dup1\n      calldatasize\n      dup4\n      calldatacopy\n      dup1\n      dup3\n      add\n      swap2\n      pop\n      pop\n      swap1\n      pop\n    tag_39:\n      pop\n        /* \"contracts/facets/DiamondLoupeFacet.sol\":5264:5310  facetAddresses_ = new address[](selectorCount) */\n      swap3\n      pop\n        /* \"contracts/facets/DiamondLoupeFacet.sol\":5320:5337  uint256 numFacets */\n      0x00\n        /* \"contracts/facets/DiamondLoupeFacet.sol\":5408:5429  uint256 selectorIndex */\n      dup1\n        /* \"contracts/facets/DiamondLoupeFacet.sol\":5390:6370  for (... */\n    tag_40:\n        /* \"contracts/facets/DiamondLoupeFacet.sol\":5459:5472  selectorCount */\n      dup3\n        /* \"contracts/facets/DiamondLoupeFacet.sol\":5443:5456  selectorIndex */\n      dup2\n        /* \"contracts/facets/DiamondLoupeFacet.sol\":5443:5472  selectorIndex < selectorCount */\n      lt\n        /* \"contracts/facets/DiamondLoupeFacet.sol\":5390:6370  for (... */\n      iszero\n      tag_41\n      jumpi\n        /* \"contracts/facets/DiamondLoupeFacet.sol\":5526:5541  bytes4 selector */\n      0x00\n        /* \"contracts/facets/DiamondLoupeFacet.sol\":5544:5546  ds */\n      dup5\n        /* \"contracts/facets/DiamondLoupeFacet.sol\":5544:5556  ds.selectors */\n      0x01\n      add\n        /* \"contracts/facets/DiamondLoupeFacet.sol\":5557:5570  selectorIndex */\n      dup3\n        /* \"contracts/facets/DiamondLoupeFacet.sol\":5544:5571  ds.selectors[selectorIndex] */\n      dup2\n      sload\n      dup2\n      lt\n      tag_43\n      jumpi\n      tag_44\n      tag_45\n      jump\t// in\n    tag_44:\n    tag_43:\n      swap1\n      0x00\n      mstore\n      keccak256(0x00, 0x20)\n      swap1\n      0x08\n      swap2\n      dup3\n      dup3\n      div\n      add\n      swap2\n      swap1\n      mod\n      0x04\n      mul\n      swap1\n      sload\n      swap1\n      0x0100\n      exp\n      swap1\n      div\n      0xe0\n      shl\n        /* \"contracts/facets/DiamondLoupeFacet.sol\":5526:5571  bytes4 selector = ds.selectors[selectorIndex] */\n      swap1\n      pop\n        /* \"contracts/facets/DiamondLoupeFacet.sol\":5585:5606  address facetAddress_ */\n      0x00\n        /* \"contracts/facets/DiamondLoupeFacet.sol\":5609:5611  ds */\n      dup6\n        /* \"contracts/facets/DiamondLoupeFacet.sol\":5609:5660  ds... */\n      0x00\n      add\n        /* \"contracts/facets/DiamondLoupeFacet.sol\":5609:5670  ds... */\n      0x00\n        /* \"contracts/facets/DiamondLoupeFacet.sol\":5661:5669  selector */\n      dup4\n        /* \"contracts/facets/DiamondLoupeFacet.sol\":5609:5670  ds... */\n      not(0xffffffffffffffffffffffffffffffffffffffffffffffffffffffff)\n      and\n      not(0xffffffffffffffffffffffffffffffffffffffffffffffffffffffff)\n      and\n      dup2\n      mstore\n      0x20\n      add\n      swap1\n      dup2\n      mstore\n      0x20\n      add\n      0x00\n      keccak256\n        /* \"contracts/facets/DiamondLoupeFacet.sol\":5609:5700  ds... */\n      0x00\n      add\n      0x00\n      swap1\n      sload\n      swap1\n      0x0100\n      exp\n      swap1\n      div\n      0xffffffffffffffffffffffffffffffffffffffff\n      and\n        /* \"contracts/facets/DiamondLoupeFacet.sol\":5585:5700  address facetAddress_ = ds... */\n      swap1\n      pop\n        /* \"contracts/facets/DiamondLoupeFacet.sol\":5714:5731  bool continueLoop */\n      0x00\n        /* \"contracts/facets/DiamondLoupeFacet.sol\":5851:5869  uint256 facetIndex */\n      dup1\n        /* \"contracts/facets/DiamondLoupeFacet.sol\":5846:6078  for (uint256 facetIndex; facetIndex < numFacets; facetIndex++) {... */\n    tag_47:\n        /* \"contracts/facets/DiamondLoupeFacet.sol\":5884:5893  numFacets */\n      dup6\n        /* \"contracts/facets/DiamondLoupeFacet.sol\":5871:5881  facetIndex */\n      dup2\n        /* \"contracts/facets/DiamondLoupeFacet.sol\":5871:5893  facetIndex < numFacets */\n      lt\n        /* \"contracts/facets/DiamondLoupeFacet.sol\":5846:6078  for (uint256 facetIndex; facetIndex < numFacets; facetIndex++) {... */\n      iszero\n      tag_48\n      jumpi\n        /* \"contracts/facets/DiamondLoupeFacet.sol\":5948:5963  facetAddresses_ */\n      dup9\n        /* \"contracts/facets/DiamondLoupeFacet.sol\":5964:5974  facetIndex */\n      dup2\n        /* \"contracts/facets/DiamondLoupeFacet.sol\":5948:5975  facetAddresses_[facetIndex] */\n      dup2\n      mload\n      dup2\n      lt\n      tag_50\n      jumpi\n      tag_51\n      tag_45\n      jump\t// in\n    tag_51:\n    tag_50:\n      0x20\n      mul\n      0x20\n      add\n      add\n      mload\n        /* \"contracts/facets/DiamondLoupeFacet.sol\":5931:5975  facetAddress_ == facetAddresses_[facetIndex] */\n      0xffffffffffffffffffffffffffffffffffffffff\n      and\n        /* \"contracts/facets/DiamondLoupeFacet.sol\":5931:5944  facetAddress_ */\n      dup4\n        /* \"contracts/facets/DiamondLoupeFacet.sol\":5931:5975  facetAddress_ == facetAddresses_[facetIndex] */\n      0xffffffffffffffffffffffffffffffffffffffff\n      and\n      sub\n        /* \"contracts/facets/DiamondLoupeFacet.sol\":5927:6064  if (facetAddress_ == facetAddresses_[facetIndex]) {... */\n      tag_52\n      jumpi\n        /* \"contracts/facets/DiamondLoupeFacet.sol\":6014:6018  true */\n      0x01\n        /* \"contracts/facets/DiamondLoupeFacet.sol\":5999:6018  continueLoop = true */\n      swap2\n      pop\n        /* \"contracts/facets/DiamondLoupeFacet.sol\":6040:6045  break */\n      jump(tag_48)\n        /* \"contracts/facets/DiamondLoupeFacet.sol\":5927:6064  if (facetAddress_ == facetAddresses_[facetIndex]) {... */\n    tag_52:\n        /* \"contracts/facets/DiamondLoupeFacet.sol\":5895:5907  facetIndex++ */\n      dup1\n      dup1\n      0x01\n      add\n      swap2\n      pop\n      pop\n        /* \"contracts/facets/DiamondLoupeFacet.sol\":5846:6078  for (uint256 facetIndex; facetIndex < numFacets; facetIndex++) {... */\n      jump(tag_47)\n    tag_48:\n      pop\n        /* \"contracts/facets/DiamondLoupeFacet.sol\":6155:6167  continueLoop */\n      dup1\n        /* \"contracts/facets/DiamondLoupeFacet.sol\":6151:6248  if (continueLoop) {... */\n      iszero\n      tag_53\n      jumpi\n        /* \"contracts/facets/DiamondLoupeFacet.sol\":6202:6207  false */\n      0x00\n        /* \"contracts/facets/DiamondLoupeFacet.sol\":6187:6207  continueLoop = false */\n      swap1\n      pop\n        /* \"contracts/facets/DiamondLoupeFacet.sol\":6225:6233  continue */\n      pop\n      pop\n      pop\n      jump(tag_42)\n        /* \"contracts/facets/DiamondLoupeFacet.sol\":6151:6248  if (continueLoop) {... */\n    tag_53:\n        /* \"contracts/facets/DiamondLoupeFacet.sol\":6321:6334  facetAddress_ */\n      dup2\n        /* \"contracts/facets/DiamondLoupeFacet.sol\":6292:6307  facetAddresses_ */\n      dup9\n        /* \"contracts/facets/DiamondLoupeFacet.sol\":6308:6317  numFacets */\n      dup7\n        /* \"contracts/facets/DiamondLoupeFacet.sol\":6292:6318  facetAddresses_[numFacets] */\n      dup2\n      mload\n      dup2\n      lt\n      tag_54\n      jumpi\n      tag_55\n      tag_45\n      jump\t// in\n    tag_55:\n    tag_54:\n      0x20\n      mul\n      0x20\n      add\n      add\n        /* \"contracts/facets/DiamondLoupeFacet.sol\":6292:6334  facetAddresses_[numFacets] = facetAddress_ */\n      swap1\n      0xffffffffffffffffffffffffffffffffffffffff\n      and\n      swap1\n      dup2\n      0xffffffffffffffffffffffffffffffffffffffff\n      and\n      dup2\n      mstore\n      pop\n      pop\n        /* \"contracts/facets/DiamondLoupeFacet.sol\":6348:6359  numFacets++ */\n      dup5\n      dup1\n      tag_56\n      swap1\n      tag_57\n      jump\t// in\n    tag_56:\n      swap6\n      pop\n      pop\n        /* \"contracts/facets/DiamondLoupeFacet.sol\":5512:6370  {... */\n      pop\n      pop\n      pop\n        /* \"contracts/facets/DiamondLoupeFacet.sol\":5390:6370  for (... */\n    tag_42:\n        /* \"contracts/facets/DiamondLoupeFacet.sol\":5486:5501  selectorIndex++ */\n      dup1\n      dup1\n      0x01\n      add\n      swap2\n      pop\n      pop\n        /* \"contracts/facets/DiamondLoupeFacet.sol\":5390:6370  for (... */\n      jump(tag_40)\n    tag_41:\n      pop\n        /* \"contracts/facets/DiamondLoupeFacet.sol\":6484:6493  numFacets */\n      dup1\n        /* \"contracts/facets/DiamondLoupeFacet.sol\":6467:6482  facetAddresses_ */\n      dup5\n        /* \"contracts/facets/DiamondLoupeFacet.sol\":6460:6494  mstore(facetAddresses_, numFacets) */\n      mstore\n        /* \"contracts/facets/DiamondLoupeFacet.sol\":6446:6504  {... */\n      pop\n      pop\n      pop\n        /* \"contracts/facets/DiamondLoupeFacet.sol\":4937:6510  function facetAddresses()... */\n      swap1\n      jump\t// out\n        /* \"contracts/facets/DiamondLoupeFacet.sol\":957:3592  function facets() external view override returns (Facet[] memory facets_) {... */\n    tag_13:\n        /* \"contracts/facets/DiamondLoupeFacet.sol\":1007:1029  Facet[] memory facets_ */\n      0x60\n        /* \"contracts/facets/DiamondLoupeFacet.sol\":1041:1077  LibDiamond.DiamondStorage storage ds */\n      0x00\n        /* \"contracts/facets/DiamondLoupeFacet.sol\":1080:1107  LibDiamond.diamondStorage() */\n      tag_59\n        /* \"contracts/facets/DiamondLoupeFacet.sol\":1080:1105  LibDiamond.diamondStorage */\n      tag_35\n        /* \"contracts/facets/DiamondLoupeFacet.sol\":1080:1107  LibDiamond.diamondStorage() */\n      jump\t// in\n    tag_59:\n        /* \"contracts/facets/DiamondLoupeFacet.sol\":1041:1107  LibDiamond.DiamondStorage storage ds = LibDiamond.diamondStorage() */\n      swap1\n      pop\n        /* \"contracts/facets/DiamondLoupeFacet.sol\":1117:1138  uint256 selectorCount */\n      0x00\n        /* \"contracts/facets/DiamondLoupeFacet.sol\":1141:1143  ds */\n      dup2\n        /* \"contracts/facets/DiamondLoupeFacet.sol\":1141:1153  ds.selectors */\n      0x01\n      add\n        /* \"contracts/facets/DiamondLoupeFacet.sol\":1141:1160  ds.selectors.length */\n      dup1\n      sload\n      swap1\n      pop\n        /* \"contracts/facets/DiamondLoupeFacet.sol\":1117:1160  uint256 selectorCount = ds.selectors.length */\n      swap1\n      pop\n        /* \"contracts/facets/DiamondLoupeFacet.sol\":1252:1265  selectorCount */\n      dup1\n        /* \"contracts/facets/DiamondLoupeFacet.sol\":1240:1266  new Facet[](selectorCount) */\n      0xffffffffffffffff\n      dup2\n      gt\n      iszero\n      tag_60\n      jumpi\n      tag_61\n      tag_38\n      jump\t// in\n    tag_61:\n    tag_60:\n      mload(0x40)\n      swap1\n      dup1\n      dup3\n      mstore\n      dup1\n      0x20\n      mul\n      0x20\n      add\n      dup3\n      add\n      0x40\n      mstore\n      dup1\n      iszero\n      tag_62\n      jumpi\n      dup2\n      0x20\n      add\n    tag_63:\n      tag_64\n      tag_65\n      jump\t// in\n    tag_64:\n      dup2\n      mstore\n      0x20\n      add\n      swap1\n      0x01\n      swap1\n      sub\n      swap1\n      dup2\n      tag_63\n      jumpi\n      swap1\n      pop\n    tag_62:\n      pop\n        /* \"contracts/facets/DiamondLoupeFacet.sol\":1230:1266  facets_ = new Facet[](selectorCount) */\n      swap3\n      pop\n        /* \"contracts/facets/DiamondLoupeFacet.sol\":1355:1387  uint8[] memory numFacetSelectors */\n      0x00\n        /* \"contracts/facets/DiamondLoupeFacet.sol\":1402:1415  selectorCount */\n      dup2\n        /* \"contracts/facets/DiamondLoupeFacet.sol\":1390:1416  new uint8[](selectorCount) */\n      0xffffffffffffffff\n      dup2\n      gt\n      iszero\n      tag_66\n      jumpi\n      tag_67\n      tag_38\n      jump\t// in\n    tag_67:\n    tag_66:\n      mload(0x40)\n      swap1\n      dup1\n      dup3\n      mstore\n      dup1\n      0x20\n      mul\n      0x20\n      add\n      dup3\n      add\n      0x40\n      mstore\n      dup1\n      iszero\n      tag_68\n      jumpi\n      dup2\n      0x20\n      add\n      0x20\n      dup3\n      mul\n      dup1\n      calldatasize\n      dup4\n      calldatacopy\n      dup1\n      dup3\n      add\n      swap2\n      pop\n      pop\n      swap1\n      pop\n    tag_68:\n      pop\n        /* \"contracts/facets/DiamondLoupeFacet.sol\":1355:1416  uint8[] memory numFacetSelectors = new uint8[](selectorCount) */\n      swap1\n      pop\n        /* \"contracts/facets/DiamondLoupeFacet.sol\":1460:1477  uint256 numFacets */\n      0x00\n        /* \"contracts/facets/DiamondLoupeFacet.sol\":1548:1569  uint256 selectorIndex */\n      dup1\n        /* \"contracts/facets/DiamondLoupeFacet.sol\":1530:3118  for (... */\n    tag_69:\n        /* \"contracts/facets/DiamondLoupeFacet.sol\":1599:1612  selectorCount */\n      dup4\n        /* \"contracts/facets/DiamondLoupeFacet.sol\":1583:1596  selectorIndex */\n      dup2\n        /* \"contracts/facets/DiamondLoupeFacet.sol\":1583:1612  selectorIndex < selectorCount */\n      lt\n        /* \"contracts/facets/DiamondLoupeFacet.sol\":1530:3118  for (... */\n      iszero\n      tag_70\n      jumpi\n        /* \"contracts/facets/DiamondLoupeFacet.sol\":1666:1681  bytes4 selector */\n      0x00\n        /* \"contracts/facets/DiamondLoupeFacet.sol\":1684:1686  ds */\n      dup6\n        /* \"contracts/facets/DiamondLoupeFacet.sol\":1684:1696  ds.selectors */\n      0x01\n      add\n        /* \"contracts/facets/DiamondLoupeFacet.sol\":1697:1710  selectorIndex */\n      dup3\n        /* \"contracts/facets/DiamondLoupeFacet.sol\":1684:1711  ds.selectors[selectorIndex] */\n      dup2\n      sload\n      dup2\n      lt\n      tag_72\n      jumpi\n      tag_73\n      tag_45\n      jump\t// in\n    tag_73:\n    tag_72:\n      swap1\n      0x00\n      mstore\n      keccak256(0x00, 0x20)\n      swap1\n      0x08\n      swap2\n      dup3\n      dup3\n      div\n      add\n      swap2\n      swap1\n      mod\n      0x04\n      mul\n      swap1\n      sload\n      swap1\n      0x0100\n      exp\n      swap1\n      div\n      0xe0\n      shl\n        /* \"contracts/facets/DiamondLoupeFacet.sol\":1666:1711  bytes4 selector = ds.selectors[selectorIndex] */\n      swap1\n      pop\n        /* \"contracts/facets/DiamondLoupeFacet.sol\":1725:1746  address facetAddress_ */\n      0x00\n        /* \"contracts/facets/DiamondLoupeFacet.sol\":1749:1751  ds */\n      dup7\n        /* \"contracts/facets/DiamondLoupeFacet.sol\":1749:1800  ds... */\n      0x00\n      add\n        /* \"contracts/facets/DiamondLoupeFacet.sol\":1749:1810  ds... */\n      0x00\n        /* \"contracts/facets/DiamondLoupeFacet.sol\":1801:1809  selector */\n      dup4\n        /* \"contracts/facets/DiamondLoupeFacet.sol\":1749:1810  ds... */\n      not(0xffffffffffffffffffffffffffffffffffffffffffffffffffffffff)\n      and\n      not(0xffffffffffffffffffffffffffffffffffffffffffffffffffffffff)\n      and\n      dup2\n      mstore\n      0x20\n      add\n      swap1\n      dup2\n      mstore\n      0x20\n      add\n      0x00\n      keccak256\n        /* \"contracts/facets/DiamondLoupeFacet.sol\":1749:1840  ds... */\n      0x00\n      add\n      0x00\n      swap1\n      sload\n      swap1\n      0x0100\n      exp\n      swap1\n      div\n      0xffffffffffffffffffffffffffffffffffffffff\n      and\n        /* \"contracts/facets/DiamondLoupeFacet.sol\":1725:1840  address facetAddress_ = ds... */\n      swap1\n      pop\n        /* \"contracts/facets/DiamondLoupeFacet.sol\":1854:1871  bool continueLoop */\n      0x00\n        /* \"contracts/facets/DiamondLoupeFacet.sol\":1982:2000  uint256 facetIndex */\n      dup1\n        /* \"contracts/facets/DiamondLoupeFacet.sol\":1977:2576  for (uint256 facetIndex; facetIndex < numFacets; facetIndex++) {... */\n    tag_75:\n        /* \"contracts/facets/DiamondLoupeFacet.sol\":2015:2024  numFacets */\n      dup6\n        /* \"contracts/facets/DiamondLoupeFacet.sol\":2002:2012  facetIndex */\n      dup2\n        /* \"contracts/facets/DiamondLoupeFacet.sol\":2002:2024  facetIndex < numFacets */\n      lt\n        /* \"contracts/facets/DiamondLoupeFacet.sol\":1977:2576  for (uint256 facetIndex; facetIndex < numFacets; facetIndex++) {... */\n      iszero\n      tag_76\n      jumpi\n        /* \"contracts/facets/DiamondLoupeFacet.sol\":2098:2111  facetAddress_ */\n      dup3\n        /* \"contracts/facets/DiamondLoupeFacet.sol\":2062:2111  facets_[facetIndex].facetAddress == facetAddress_ */\n      0xffffffffffffffffffffffffffffffffffffffff\n      and\n        /* \"contracts/facets/DiamondLoupeFacet.sol\":2062:2069  facets_ */\n      dup11\n        /* \"contracts/facets/DiamondLoupeFacet.sol\":2070:2080  facetIndex */\n      dup3\n        /* \"contracts/facets/DiamondLoupeFacet.sol\":2062:2081  facets_[facetIndex] */\n      dup2\n      mload\n      dup2\n      lt\n      tag_78\n      jumpi\n      tag_79\n      tag_45\n      jump\t// in\n    tag_79:\n    tag_78:\n      0x20\n      mul\n      0x20\n      add\n      add\n      mload\n        /* \"contracts/facets/DiamondLoupeFacet.sol\":2062:2094  facets_[facetIndex].facetAddress */\n      0x00\n      add\n      mload\n        /* \"contracts/facets/DiamondLoupeFacet.sol\":2062:2111  facets_[facetIndex].facetAddress == facetAddress_ */\n      0xffffffffffffffffffffffffffffffffffffffff\n      and\n      sub\n        /* \"contracts/facets/DiamondLoupeFacet.sol\":2058:2562  if (facets_[facetIndex].facetAddress == facetAddress_) {... */\n      tag_80\n      jumpi\n        /* \"contracts/facets/DiamondLoupeFacet.sol\":2252:2260  selector */\n      dup4\n        /* \"contracts/facets/DiamondLoupeFacet.sol\":2135:2142  facets_ */\n      dup11\n        /* \"contracts/facets/DiamondLoupeFacet.sol\":2143:2153  facetIndex */\n      dup3\n        /* \"contracts/facets/DiamondLoupeFacet.sol\":2135:2154  facets_[facetIndex] */\n      dup2\n      mload\n      dup2\n      lt\n      tag_81\n      jumpi\n      tag_82\n      tag_45\n      jump\t// in\n    tag_82:\n    tag_81:\n      0x20\n      mul\n      0x20\n      add\n      add\n      mload\n        /* \"contracts/facets/DiamondLoupeFacet.sol\":2135:2172  facets_[facetIndex].functionSelectors */\n      0x20\n      add\n      mload\n        /* \"contracts/facets/DiamondLoupeFacet.sol\":2198:2215  numFacetSelectors */\n      dup9\n        /* \"contracts/facets/DiamondLoupeFacet.sol\":2216:2226  facetIndex */\n      dup4\n        /* \"contracts/facets/DiamondLoupeFacet.sol\":2198:2227  numFacetSelectors[facetIndex] */\n      dup2\n      mload\n      dup2\n      lt\n      tag_83\n      jumpi\n      tag_84\n      tag_45\n      jump\t// in\n    tag_84:\n    tag_83:\n      0x20\n      mul\n      0x20\n      add\n      add\n      mload\n        /* \"contracts/facets/DiamondLoupeFacet.sol\":2135:2249  facets_[facetIndex].functionSelectors[... */\n      0xff\n      and\n      dup2\n      mload\n      dup2\n      lt\n      tag_85\n      jumpi\n      tag_86\n      tag_45\n      jump\t// in\n    tag_86:\n    tag_85:\n      0x20\n      mul\n      0x20\n      add\n      add\n        /* \"contracts/facets/DiamondLoupeFacet.sol\":2135:2260  facets_[facetIndex].functionSelectors[... */\n      swap1\n      not(0xffffffffffffffffffffffffffffffffffffffffffffffffffffffff)\n      and\n      swap1\n      dup2\n      not(0xffffffffffffffffffffffffffffffffffffffffffffffffffffffff)\n      and\n      dup2\n      mstore\n      pop\n      pop\n        /* \"contracts/facets/DiamondLoupeFacet.sol\":2418:2421  255 */\n      0xff\n        /* \"contracts/facets/DiamondLoupeFacet.sol\":2386:2403  numFacetSelectors */\n      dup8\n        /* \"contracts/facets/DiamondLoupeFacet.sol\":2404:2414  facetIndex */\n      dup3\n        /* \"contracts/facets/DiamondLoupeFacet.sol\":2386:2415  numFacetSelectors[facetIndex] */\n      dup2\n      mload\n      dup2\n      lt\n      tag_87\n      jumpi\n      tag_88\n      tag_45\n      jump\t// in\n    tag_88:\n    tag_87:\n      0x20\n      mul\n      0x20\n      add\n      add\n      mload\n        /* \"contracts/facets/DiamondLoupeFacet.sol\":2386:2421  numFacetSelectors[facetIndex] < 255 */\n      0xff\n      and\n      lt\n        /* \"contracts/facets/DiamondLoupeFacet.sol\":2378:2422  require(numFacetSelectors[facetIndex] < 255) */\n      tag_89\n      jumpi\n      0x00\n      dup1\n      revert\n    tag_89:\n        /* \"contracts/facets/DiamondLoupeFacet.sol\":2444:2461  numFacetSelectors */\n      dup7\n        /* \"contracts/facets/DiamondLoupeFacet.sol\":2462:2472  facetIndex */\n      dup2\n        /* \"contracts/facets/DiamondLoupeFacet.sol\":2444:2473  numFacetSelectors[facetIndex] */\n      dup2\n      mload\n      dup2\n      lt\n      tag_90\n      jumpi\n      tag_91\n      tag_45\n      jump\t// in\n    tag_91:\n    tag_90:\n      0x20\n      mul\n      0x20\n      add\n      add\n        /* \"contracts/facets/DiamondLoupeFacet.sol\":2444:2475  numFacetSelectors[facetIndex]++ */\n      dup1\n      mload\n      dup1\n      swap2\n      swap1\n      tag_92\n      swap1\n      tag_93\n      jump\t// in\n    tag_92:\n      0xff\n      and\n      0xff\n      and\n      dup2\n      mstore\n      pop\n      pop\n        /* \"contracts/facets/DiamondLoupeFacet.sol\":2512:2516  true */\n      0x01\n        /* \"contracts/facets/DiamondLoupeFacet.sol\":2497:2516  continueLoop = true */\n      swap2\n      pop\n        /* \"contracts/facets/DiamondLoupeFacet.sol\":2538:2543  break */\n      jump(tag_76)\n        /* \"contracts/facets/DiamondLoupeFacet.sol\":2058:2562  if (facets_[facetIndex].facetAddress == facetAddress_) {... */\n    tag_80:\n        /* \"contracts/facets/DiamondLoupeFacet.sol\":2026:2038  facetIndex++ */\n      dup1\n      dup1\n      0x01\n      add\n      swap2\n      pop\n      pop\n        /* \"contracts/facets/DiamondLoupeFacet.sol\":1977:2576  for (uint256 facetIndex; facetIndex < numFacets; facetIndex++) {... */\n      jump(tag_75)\n    tag_76:\n      pop\n        /* \"contracts/facets/DiamondLoupeFacet.sol\":2674:2686  continueLoop */\n      dup1\n        /* \"contracts/facets/DiamondLoupeFacet.sol\":2670:2767  if (continueLoop) {... */\n      iszero\n      tag_94\n      jumpi\n        /* \"contracts/facets/DiamondLoupeFacet.sol\":2721:2726  false */\n      0x00\n        /* \"contracts/facets/DiamondLoupeFacet.sol\":2706:2726  continueLoop = false */\n      swap1\n      pop\n        /* \"contracts/facets/DiamondLoupeFacet.sol\":2744:2752  continue */\n      pop\n      pop\n      pop\n      jump(tag_71)\n        /* \"contracts/facets/DiamondLoupeFacet.sol\":2670:2767  if (continueLoop) {... */\n    tag_94:\n        /* \"contracts/facets/DiamondLoupeFacet.sol\":2879:2892  facetAddress_ */\n      dup2\n        /* \"contracts/facets/DiamondLoupeFacet.sol\":2845:2852  facets_ */\n      dup10\n        /* \"contracts/facets/DiamondLoupeFacet.sol\":2853:2862  numFacets */\n      dup7\n        /* \"contracts/facets/DiamondLoupeFacet.sol\":2845:2863  facets_[numFacets] */\n      dup2\n      mload\n      dup2\n      lt\n      tag_95\n      jumpi\n      tag_96\n      tag_45\n      jump\t// in\n    tag_96:\n    tag_95:\n      0x20\n      mul\n      0x20\n      add\n      add\n      mload\n        /* \"contracts/facets/DiamondLoupeFacet.sol\":2845:2876  facets_[numFacets].facetAddress */\n      0x00\n      add\n        /* \"contracts/facets/DiamondLoupeFacet.sol\":2845:2892  facets_[numFacets].facetAddress = facetAddress_ */\n      swap1\n      0xffffffffffffffffffffffffffffffffffffffff\n      and\n      swap1\n      dup2\n      0xffffffffffffffffffffffffffffffffffffffff\n      and\n      dup2\n      mstore\n      pop\n      pop\n        /* \"contracts/facets/DiamondLoupeFacet.sol\":2958:2971  selectorCount */\n      dup7\n        /* \"contracts/facets/DiamondLoupeFacet.sol\":2945:2972  new bytes4[](selectorCount) */\n      0xffffffffffffffff\n      dup2\n      gt\n      iszero\n      tag_97\n      jumpi\n      tag_98\n      tag_38\n      jump\t// in\n    tag_98:\n    tag_97:\n      mload(0x40)\n      swap1\n      dup1\n      dup3\n      mstore\n      dup1\n      0x20\n      mul\n      0x20\n      add\n      dup3\n      add\n      0x40\n      mstore\n      dup1\n      iszero\n      tag_99\n      jumpi\n      dup2\n      0x20\n      add\n      0x20\n      dup3\n      mul\n      dup1\n      calldatasize\n      dup4\n      calldatacopy\n      dup1\n      dup3\n      add\n      swap2\n      pop\n      pop\n      swap1\n      pop\n    tag_99:\n      pop\n        /* \"contracts/facets/DiamondLoupeFacet.sol\":2906:2913  facets_ */\n      dup10\n        /* \"contracts/facets/DiamondLoupeFacet.sol\":2914:2923  numFacets */\n      dup7\n        /* \"contracts/facets/DiamondLoupeFacet.sol\":2906:2924  facets_[numFacets] */\n      dup2\n      mload\n      dup2\n      lt\n      tag_100\n      jumpi\n      tag_101\n      tag_45\n      jump\t// in\n    tag_101:\n    tag_100:\n      0x20\n      mul\n      0x20\n      add\n      add\n      mload\n        /* \"contracts/facets/DiamondLoupeFacet.sol\":2906:2942  facets_[numFacets].functionSelectors */\n      0x20\n      add\n        /* \"contracts/facets/DiamondLoupeFacet.sol\":2906:2972  facets_[numFacets].functionSelectors = new bytes4[](selectorCount) */\n      dup2\n      swap1\n      mstore\n      pop\n        /* \"contracts/facets/DiamondLoupeFacet.sol\":3028:3036  selector */\n      dup3\n        /* \"contracts/facets/DiamondLoupeFacet.sol\":2986:2993  facets_ */\n      dup10\n        /* \"contracts/facets/DiamondLoupeFacet.sol\":2994:3003  numFacets */\n      dup7\n        /* \"contracts/facets/DiamondLoupeFacet.sol\":2986:3004  facets_[numFacets] */\n      dup2\n      mload\n      dup2\n      lt\n      tag_102\n      jumpi\n      tag_103\n      tag_45\n      jump\t// in\n    tag_103:\n    tag_102:\n      0x20\n      mul\n      0x20\n      add\n      add\n      mload\n        /* \"contracts/facets/DiamondLoupeFacet.sol\":2986:3022  facets_[numFacets].functionSelectors */\n      0x20\n      add\n      mload\n        /* \"contracts/facets/DiamondLoupeFacet.sol\":3023:3024  0 */\n      0x00\n        /* \"contracts/facets/DiamondLoupeFacet.sol\":2986:3025  facets_[numFacets].functionSelectors[0] */\n      dup2\n      mload\n      dup2\n      lt\n      tag_104\n      jumpi\n      tag_105\n      tag_45\n      jump\t// in\n    tag_105:\n    tag_104:\n      0x20\n      mul\n      0x20\n      add\n      add\n        /* \"contracts/facets/DiamondLoupeFacet.sol\":2986:3036  facets_[numFacets].functionSelectors[0] = selector */\n      swap1\n      not(0xffffffffffffffffffffffffffffffffffffffffffffffffffffffff)\n      and\n      swap1\n      dup2\n      not(0xffffffffffffffffffffffffffffffffffffffffffffffffffffffff)\n      and\n      dup2\n      mstore\n      pop\n      pop\n        /* \"contracts/facets/DiamondLoupeFacet.sol\":3081:3082  1 */\n      0x01\n        /* \"contracts/facets/DiamondLoupeFacet.sol\":3050:3067  numFacetSelectors */\n      dup7\n        /* \"contracts/facets/DiamondLoupeFacet.sol\":3068:3077  numFacets */\n      dup7\n        /* \"contracts/facets/DiamondLoupeFacet.sol\":3050:3078  numFacetSelectors[numFacets] */\n      dup2\n      mload\n      dup2\n      lt\n      tag_106\n      jumpi\n      tag_107\n      tag_45\n      jump\t// in\n    tag_107:\n    tag_106:\n      0x20\n      mul\n      0x20\n      add\n      add\n        /* \"contracts/facets/DiamondLoupeFacet.sol\":3050:3082  numFacetSelectors[numFacets] = 1 */\n      swap1\n      0xff\n      and\n      swap1\n      dup2\n      0xff\n      and\n      dup2\n      mstore\n      pop\n      pop\n        /* \"contracts/facets/DiamondLoupeFacet.sol\":3096:3107  numFacets++ */\n      dup5\n      dup1\n      tag_108\n      swap1\n      tag_57\n      jump\t// in\n    tag_108:\n      swap6\n      pop\n      pop\n        /* \"contracts/facets/DiamondLoupeFacet.sol\":1652:3118  {... */\n      pop\n      pop\n      pop\n        /* \"contracts/facets/DiamondLoupeFacet.sol\":1530:3118  for (... */\n    tag_71:\n        /* \"contracts/facets/DiamondLoupeFacet.sol\":1626:1641  selectorIndex++ */\n      dup1\n      dup1\n      0x01\n      add\n      swap2\n      pop\n      pop\n        /* \"contracts/facets/DiamondLoupeFacet.sol\":1530:3118  for (... */\n      jump(tag_69)\n    tag_70:\n      pop\n        /* \"contracts/facets/DiamondLoupeFacet.sol\":3132:3150  uint256 facetIndex */\n      0x00\n        /* \"contracts/facets/DiamondLoupeFacet.sol\":3127:3478  for (uint256 facetIndex; facetIndex < numFacets; facetIndex++) {... */\n    tag_109:\n        /* \"contracts/facets/DiamondLoupeFacet.sol\":3165:3174  numFacets */\n      dup2\n        /* \"contracts/facets/DiamondLoupeFacet.sol\":3152:3162  facetIndex */\n      dup2\n        /* \"contracts/facets/DiamondLoupeFacet.sol\":3152:3174  facetIndex < numFacets */\n      lt\n        /* \"contracts/facets/DiamondLoupeFacet.sol\":3127:3478  for (uint256 facetIndex; facetIndex < numFacets; facetIndex++) {... */\n      iszero\n      tag_110\n      jumpi\n        /* \"contracts/facets/DiamondLoupeFacet.sol\":3204:3224  uint256 numSelectors */\n      0x00\n        /* \"contracts/facets/DiamondLoupeFacet.sol\":3227:3244  numFacetSelectors */\n      dup4\n        /* \"contracts/facets/DiamondLoupeFacet.sol\":3245:3255  facetIndex */\n      dup3\n        /* \"contracts/facets/DiamondLoupeFacet.sol\":3227:3256  numFacetSelectors[facetIndex] */\n      dup2\n      mload\n      dup2\n      lt\n      tag_112\n      jumpi\n      tag_113\n      tag_45\n      jump\t// in\n    tag_113:\n    tag_112:\n      0x20\n      mul\n      0x20\n      add\n      add\n      mload\n        /* \"contracts/facets/DiamondLoupeFacet.sol\":3204:3256  uint256 numSelectors = numFacetSelectors[facetIndex] */\n      0xff\n      and\n      swap1\n      pop\n        /* \"contracts/facets/DiamondLoupeFacet.sol\":3270:3295  bytes4[] memory selectors */\n      0x00\n        /* \"contracts/facets/DiamondLoupeFacet.sol\":3298:3305  facets_ */\n      dup8\n        /* \"contracts/facets/DiamondLoupeFacet.sol\":3306:3316  facetIndex */\n      dup4\n        /* \"contracts/facets/DiamondLoupeFacet.sol\":3298:3317  facets_[facetIndex] */\n      dup2\n      mload\n      dup2\n      lt\n      tag_114\n      jumpi\n      tag_115\n      tag_45\n      jump\t// in\n    tag_115:\n    tag_114:\n      0x20\n      mul\n      0x20\n      add\n      add\n      mload\n        /* \"contracts/facets/DiamondLoupeFacet.sol\":3298:3335  facets_[facetIndex].functionSelectors */\n      0x20\n      add\n      mload\n        /* \"contracts/facets/DiamondLoupeFacet.sol\":3270:3335  bytes4[] memory selectors = facets_[facetIndex].functionSelectors */\n      swap1\n      pop\n        /* \"contracts/facets/DiamondLoupeFacet.sol\":3441:3453  numSelectors */\n      dup2\n        /* \"contracts/facets/DiamondLoupeFacet.sol\":3430:3439  selectors */\n      dup2\n        /* \"contracts/facets/DiamondLoupeFacet.sol\":3423:3454  mstore(selectors, numSelectors) */\n      mstore\n        /* \"contracts/facets/DiamondLoupeFacet.sol\":3405:3468  {... */\n      pop\n      pop\n        /* \"contracts/facets/DiamondLoupeFacet.sol\":3176:3188  facetIndex++ */\n      dup1\n      dup1\n      0x01\n      add\n      swap2\n      pop\n      pop\n        /* \"contracts/facets/DiamondLoupeFacet.sol\":3127:3478  for (uint256 facetIndex; facetIndex < numFacets; facetIndex++) {... */\n      jump(tag_109)\n    tag_110:\n      pop\n        /* \"contracts/facets/DiamondLoupeFacet.sol\":3566:3575  numFacets */\n      dup1\n        /* \"contracts/facets/DiamondLoupeFacet.sol\":3557:3564  facets_ */\n      dup6\n        /* \"contracts/facets/DiamondLoupeFacet.sol\":3550:3576  mstore(facets_, numFacets) */\n      mstore\n        /* \"contracts/facets/DiamondLoupeFacet.sol\":3536:3586  {... */\n      pop\n      pop\n      pop\n      pop\n        /* \"contracts/facets/DiamondLoupeFacet.sol\":957:3592  function facets() external view override returns (Facet[] memory facets_) {... */\n      swap1\n      jump\t// out\n        /* \"contracts/facets/DiamondLoupeFacet.sol\":3805:4836  function facetFunctionSelectors(... */\n    tag_19:\n        /* \"contracts/facets/DiamondLoupeFacet.sol\":3899:3938  bytes4[] memory _facetFunctionSelectors */\n      0x60\n        /* \"contracts/facets/DiamondLoupeFacet.sol\":3950:3986  LibDiamond.DiamondStorage storage ds */\n      0x00\n        /* \"contracts/facets/DiamondLoupeFacet.sol\":3989:4016  LibDiamond.diamondStorage() */\n      tag_117\n        /* \"contracts/facets/DiamondLoupeFacet.sol\":3989:4014  LibDiamond.diamondStorage */\n      tag_35\n        /* \"contracts/facets/DiamondLoupeFacet.sol\":3989:4016  LibDiamond.diamondStorage() */\n      jump\t// in\n    tag_117:\n        /* \"contracts/facets/DiamondLoupeFacet.sol\":3950:4016  LibDiamond.DiamondStorage storage ds = LibDiamond.diamondStorage() */\n      swap1\n      pop\n        /* \"contracts/facets/DiamondLoupeFacet.sol\":4026:4047  uint256 selectorCount */\n      0x00\n        /* \"contracts/facets/DiamondLoupeFacet.sol\":4050:4052  ds */\n      dup2\n        /* \"contracts/facets/DiamondLoupeFacet.sol\":4050:4062  ds.selectors */\n      0x01\n      add\n        /* \"contracts/facets/DiamondLoupeFacet.sol\":4050:4069  ds.selectors.length */\n      dup1\n      sload\n      swap1\n      pop\n        /* \"contracts/facets/DiamondLoupeFacet.sol\":4026:4069  uint256 selectorCount = ds.selectors.length */\n      swap1\n      pop\n        /* \"contracts/facets/DiamondLoupeFacet.sol\":4079:4099  uint256 numSelectors */\n      0x00\n        /* \"contracts/facets/DiamondLoupeFacet.sol\":4148:4161  selectorCount */\n      dup2\n        /* \"contracts/facets/DiamondLoupeFacet.sol\":4135:4162  new bytes4[](selectorCount) */\n      0xffffffffffffffff\n      dup2\n      gt\n      iszero\n      tag_118\n      jumpi\n      tag_119\n      tag_38\n      jump\t// in\n    tag_119:\n    tag_118:\n      mload(0x40)\n      swap1\n      dup1\n      dup3\n      mstore\n      dup1\n      0x20\n      mul\n      0x20\n      add\n      dup3\n      add\n      0x40\n      mstore\n      dup1\n      iszero\n      tag_120\n      jumpi\n      dup2\n      0x20\n      add\n      0x20\n      dup3\n      mul\n      dup1\n      calldatasize\n      dup4\n      calldatacopy\n      dup1\n      dup3\n      add\n      swap2\n      pop\n      pop\n      swap1\n      pop\n    tag_120:\n      pop\n        /* \"contracts/facets/DiamondLoupeFacet.sol\":4109:4162  _facetFunctionSelectors = new bytes4[](selectorCount) */\n      swap4\n      pop\n        /* \"contracts/facets/DiamondLoupeFacet.sol\":4233:4254  uint256 selectorIndex */\n      0x00\n        /* \"contracts/facets/DiamondLoupeFacet.sol\":4215:4691  for (... */\n    tag_121:\n        /* \"contracts/facets/DiamondLoupeFacet.sol\":4284:4297  selectorCount */\n      dup3\n        /* \"contracts/facets/DiamondLoupeFacet.sol\":4268:4281  selectorIndex */\n      dup2\n        /* \"contracts/facets/DiamondLoupeFacet.sol\":4268:4297  selectorIndex < selectorCount */\n      lt\n        /* \"contracts/facets/DiamondLoupeFacet.sol\":4215:4691  for (... */\n      iszero\n      tag_122\n      jumpi\n        /* \"contracts/facets/DiamondLoupeFacet.sol\":4351:4366  bytes4 selector */\n      0x00\n        /* \"contracts/facets/DiamondLoupeFacet.sol\":4369:4371  ds */\n      dup5\n        /* \"contracts/facets/DiamondLoupeFacet.sol\":4369:4381  ds.selectors */\n      0x01\n      add\n        /* \"contracts/facets/DiamondLoupeFacet.sol\":4382:4395  selectorIndex */\n      dup3\n        /* \"contracts/facets/DiamondLoupeFacet.sol\":4369:4396  ds.selectors[selectorIndex] */\n      dup2\n      sload\n      dup2\n      lt\n      tag_124\n      jumpi\n      tag_125\n      tag_45\n      jump\t// in\n    tag_125:\n    tag_124:\n      swap1\n      0x00\n      mstore\n      keccak256(0x00, 0x20)\n      swap1\n      0x08\n      swap2\n      dup3\n      dup3\n      div\n      add\n      swap2\n      swap1\n      mod\n      0x04\n      mul\n      swap1\n      sload\n      swap1\n      0x0100\n      exp\n      swap1\n      div\n      0xe0\n      shl\n        /* \"contracts/facets/DiamondLoupeFacet.sol\":4351:4396  bytes4 selector = ds.selectors[selectorIndex] */\n      swap1\n      pop\n        /* \"contracts/facets/DiamondLoupeFacet.sol\":4410:4431  address facetAddress_ */\n      0x00\n        /* \"contracts/facets/DiamondLoupeFacet.sol\":4434:4436  ds */\n      dup6\n        /* \"contracts/facets/DiamondLoupeFacet.sol\":4434:4485  ds... */\n      0x00\n      add\n        /* \"contracts/facets/DiamondLoupeFacet.sol\":4434:4495  ds... */\n      0x00\n        /* \"contracts/facets/DiamondLoupeFacet.sol\":4486:4494  selector */\n      dup4\n        /* \"contracts/facets/DiamondLoupeFacet.sol\":4434:4495  ds... */\n      not(0xffffffffffffffffffffffffffffffffffffffffffffffffffffffff)\n      and\n      not(0xffffffffffffffffffffffffffffffffffffffffffffffffffffffff)\n      and\n      dup2\n      mstore\n      0x20\n      add\n      swap1\n      dup2\n      mstore\n      0x20\n      add\n      0x00\n      keccak256\n        /* \"contracts/facets/DiamondLoupeFacet.sol\":4434:4525  ds... */\n      0x00\n      add\n      0x00\n      swap1\n      sload\n      swap1\n      0x0100\n      exp\n      swap1\n      div\n      0xffffffffffffffffffffffffffffffffffffffff\n      and\n        /* \"contracts/facets/DiamondLoupeFacet.sol\":4410:4525  address facetAddress_ = ds... */\n      swap1\n      pop\n        /* \"contracts/facets/DiamondLoupeFacet.sol\":4553:4566  facetAddress_ */\n      dup1\n        /* \"contracts/facets/DiamondLoupeFacet.sol\":4543:4566  _facet == facetAddress_ */\n      0xffffffffffffffffffffffffffffffffffffffff\n      and\n        /* \"contracts/facets/DiamondLoupeFacet.sol\":4543:4549  _facet */\n      dup9\n        /* \"contracts/facets/DiamondLoupeFacet.sol\":4543:4566  _facet == facetAddress_ */\n      0xffffffffffffffffffffffffffffffffffffffff\n      and\n      sub\n        /* \"contracts/facets/DiamondLoupeFacet.sol\":4539:4681  if (_facet == facetAddress_) {... */\n      tag_127\n      jumpi\n        /* \"contracts/facets/DiamondLoupeFacet.sol\":4626:4634  selector */\n      dup2\n        /* \"contracts/facets/DiamondLoupeFacet.sol\":4586:4609  _facetFunctionSelectors */\n      dup8\n        /* \"contracts/facets/DiamondLoupeFacet.sol\":4610:4622  numSelectors */\n      dup6\n        /* \"contracts/facets/DiamondLoupeFacet.sol\":4586:4623  _facetFunctionSelectors[numSelectors] */\n      dup2\n      mload\n      dup2\n      lt\n      tag_128\n      jumpi\n      tag_129\n      tag_45\n      jump\t// in\n    tag_129:\n    tag_128:\n      0x20\n      mul\n      0x20\n      add\n      add\n        /* \"contracts/facets/DiamondLoupeFacet.sol\":4586:4634  _facetFunctionSelectors[numSelectors] = selector */\n      swap1\n      not(0xffffffffffffffffffffffffffffffffffffffffffffffffffffffff)\n      and\n      swap1\n      dup2\n      not(0xffffffffffffffffffffffffffffffffffffffffffffffffffffffff)\n      and\n      dup2\n      mstore\n      pop\n      pop\n        /* \"contracts/facets/DiamondLoupeFacet.sol\":4652:4666  numSelectors++ */\n      dup4\n      dup1\n      tag_130\n      swap1\n      tag_57\n      jump\t// in\n    tag_130:\n      swap5\n      pop\n      pop\n        /* \"contracts/facets/DiamondLoupeFacet.sol\":4539:4681  if (_facet == facetAddress_) {... */\n    tag_127:\n        /* \"contracts/facets/DiamondLoupeFacet.sol\":4337:4691  {... */\n      pop\n      pop\n        /* \"contracts/facets/DiamondLoupeFacet.sol\":4311:4326  selectorIndex++ */\n      dup1\n      dup1\n      0x01\n      add\n      swap2\n      pop\n      pop\n        /* \"contracts/facets/DiamondLoupeFacet.sol\":4215:4691  for (... */\n      jump(tag_121)\n    tag_122:\n      pop\n        /* \"contracts/facets/DiamondLoupeFacet.sol\":4807:4819  numSelectors */\n      dup1\n        /* \"contracts/facets/DiamondLoupeFacet.sol\":4782:4805  _facetFunctionSelectors */\n      dup5\n        /* \"contracts/facets/DiamondLoupeFacet.sol\":4775:4820  mstore(_facetFunctionSelectors, numSelectors) */\n      mstore\n        /* \"contracts/facets/DiamondLoupeFacet.sol\":4761:4830  {... */\n      pop\n      pop\n      pop\n        /* \"contracts/facets/DiamondLoupeFacet.sol\":3805:4836  function facetFunctionSelectors(... */\n      swap2\n      swap1\n      pop\n      jump\t// out\n        /* \"contracts/facets/DiamondLoupeFacet.sol\":7104:7344  function safeSupportsInterface(... */\n    tag_25:\n        /* \"contracts/facets/DiamondLoupeFacet.sol\":7202:7206  bool */\n      0x00\n        /* \"contracts/facets/DiamondLoupeFacet.sol\":7218:7254  LibDiamond.DiamondStorage storage ds */\n      dup1\n        /* \"contracts/facets/DiamondLoupeFacet.sol\":7257:7284  LibDiamond.diamondStorage() */\n      tag_132\n        /* \"contracts/facets/DiamondLoupeFacet.sol\":7257:7282  LibDiamond.diamondStorage */\n      tag_35\n        /* \"contracts/facets/DiamondLoupeFacet.sol\":7257:7284  LibDiamond.diamondStorage() */\n      jump\t// in\n    tag_132:\n        /* \"contracts/facets/DiamondLoupeFacet.sol\":7218:7284  LibDiamond.DiamondStorage storage ds = LibDiamond.diamondStorage() */\n      swap1\n      pop\n        /* \"contracts/facets/DiamondLoupeFacet.sol\":7301:7303  ds */\n      dup1\n        /* \"contracts/facets/DiamondLoupeFacet.sol\":7301:7323  ds.supportedInterfaces */\n      0x02\n      add\n        /* \"contracts/facets/DiamondLoupeFacet.sol\":7301:7337  ds.supportedInterfaces[_interfaceId] */\n      0x00\n        /* \"contracts/facets/DiamondLoupeFacet.sol\":7324:7336  _interfaceId */\n      dup5\n        /* \"contracts/facets/DiamondLoupeFacet.sol\":7301:7337  ds.supportedInterfaces[_interfaceId] */\n      not(0xffffffffffffffffffffffffffffffffffffffffffffffffffffffff)\n      and\n      not(0xffffffffffffffffffffffffffffffffffffffffffffffffffffffff)\n      and\n      dup2\n      mstore\n      0x20\n      add\n      swap1\n      dup2\n      mstore\n      0x20\n      add\n      0x00\n      keccak256\n      0x00\n      swap1\n      sload\n      swap1\n      0x0100\n      exp\n      swap1\n      div\n      0xff\n      and\n        /* \"contracts/facets/DiamondLoupeFacet.sol\":7294:7337  return ds.supportedInterfaces[_interfaceId] */\n      swap2\n      pop\n      pop\n        /* \"contracts/facets/DiamondLoupeFacet.sol\":7104:7344  function safeSupportsInterface(... */\n      swap2\n      swap1\n      pop\n      jump\t// out\n        /* \"contracts/facets/DiamondLoupeFacet.sol\":6748:7066  function facetAddress(... */\n    tag_30:\n        /* \"contracts/facets/DiamondLoupeFacet.sol\":6842:6863  address facetAddress_ */\n      0x00\n        /* \"contracts/facets/DiamondLoupeFacet.sol\":6875:6911  LibDiamond.DiamondStorage storage ds */\n      dup1\n        /* \"contracts/facets/DiamondLoupeFacet.sol\":6914:6941  LibDiamond.diamondStorage() */\n      tag_134\n        /* \"contracts/facets/DiamondLoupeFacet.sol\":6914:6939  LibDiamond.diamondStorage */\n      tag_35\n        /* \"contracts/facets/DiamondLoupeFacet.sol\":6914:6941  LibDiamond.diamondStorage() */\n      jump\t// in\n    tag_134:\n        /* \"contracts/facets/DiamondLoupeFacet.sol\":6875:6941  LibDiamond.DiamondStorage storage ds = LibDiamond.diamondStorage() */\n      swap1\n      pop\n        /* \"contracts/facets/DiamondLoupeFacet.sol\":6967:6969  ds */\n      dup1\n        /* \"contracts/facets/DiamondLoupeFacet.sol\":6967:7014  ds... */\n      0x00\n      add\n        /* \"contracts/facets/DiamondLoupeFacet.sol\":6967:7033  ds... */\n      0x00\n        /* \"contracts/facets/DiamondLoupeFacet.sol\":7015:7032  _functionSelector */\n      dup5\n        /* \"contracts/facets/DiamondLoupeFacet.sol\":6967:7033  ds... */\n      not(0xffffffffffffffffffffffffffffffffffffffffffffffffffffffff)\n      and\n      not(0xffffffffffffffffffffffffffffffffffffffffffffffffffffffff)\n      and\n      dup2\n      mstore\n      0x20\n      add\n      swap1\n      dup2\n      mstore\n      0x20\n      add\n      0x00\n      keccak256\n        /* \"contracts/facets/DiamondLoupeFacet.sol\":6967:7059  ds... */\n      0x00\n      add\n      0x00\n      swap1\n      sload\n      swap1\n      0x0100\n      exp\n      swap1\n      div\n      0xffffffffffffffffffffffffffffffffffffffff\n      and\n        /* \"contracts/facets/DiamondLoupeFacet.sol\":6951:7059  facetAddress_ = ds... */\n      swap2\n      pop\n        /* \"contracts/facets/DiamondLoupeFacet.sol\":6865:7066  {... */\n      pop\n        /* \"contracts/facets/DiamondLoupeFacet.sol\":6748:7066  function facetAddress(... */\n      swap2\n      swap1\n      pop\n      jump\t// out\n        /* \"contracts/libraries/LibDiamond.sol\":1056:1281  function diamondStorage()... */\n    tag_35:\n        /* \"contracts/libraries/LibDiamond.sol\":1129:1154  DiamondStorage storage ds */\n      0x00\n        /* \"contracts/libraries/LibDiamond.sol\":1170:1186  bytes32 position */\n      dup1\n        /* \"contracts/libraries/LibDiamond.sol\":530:575  keccak256(\"diamond.standard.diamond.storage\") */\n      0xc8fcad8db84d3cc18b4c41d551ea0ee66dd599cde068d998e57d5e09332c131c\n        /* \"contracts/libraries/LibDiamond.sol\":1170:1213  bytes32 position = DIAMOND_STORAGE_POSITION */\n      swap1\n      pop\n        /* \"contracts/libraries/LibDiamond.sol\":1257:1265  position */\n      dup1\n        /* \"contracts/libraries/LibDiamond.sol\":1246:1265  ds.slot := position */\n      swap2\n      pop\n        /* \"contracts/libraries/LibDiamond.sol\":1232:1275  {... */\n      pop\n        /* \"contracts/libraries/LibDiamond.sol\":1056:1281  function diamondStorage()... */\n      swap1\n      jump\t// out\n    tag_65:\n      mload(0x40)\n      dup1\n      0x40\n      add\n      0x40\n      mstore\n      dup1\n      and(0xffffffffffffffffffffffffffffffffffffffff, 0x00)\n      dup2\n      mstore\n      0x20\n      add\n      0x60\n      dup2\n      mstore\n      pop\n      swap1\n      jump\t// out\n        /* \"#utility.yul\":7:121   */\n    tag_136:\n        /* \"#utility.yul\":74:80   */\n      0x00\n        /* \"#utility.yul\":108:113   */\n      dup2\n        /* \"#utility.yul\":102:114   */\n      mload\n        /* \"#utility.yul\":92:114   */\n      swap1\n      pop\n        /* \"#utility.yul\":7:121   */\n      swap2\n      swap1\n      pop\n      jump\t// out\n        /* \"#utility.yul\":127:311   */\n    tag_137:\n        /* \"#utility.yul\":226:237   */\n      0x00\n        /* \"#utility.yul\":260:266   */\n      dup3\n        /* \"#utility.yul\":255:258   */\n      dup3\n        /* \"#utility.yul\":248:267   */\n      mstore\n        /* \"#utility.yul\":300:304   */\n      0x20\n        /* \"#utility.yul\":295:298   */\n      dup3\n        /* \"#utility.yul\":291:305   */\n      add\n        /* \"#utility.yul\":276:305   */\n      swap1\n      pop\n        /* \"#utility.yul\":127:311   */\n      swap3\n      swap2\n      pop\n      pop\n      jump\t// out\n        /* \"#utility.yul\":317:449   */\n    tag_138:\n        /* \"#utility.yul\":384:388   */\n      0x00\n        /* \"#utility.yul\":407:410   */\n      dup2\n        /* \"#utility.yul\":399:410   */\n      swap1\n      pop\n        /* \"#utility.yul\":437:441   */\n      0x20\n        /* \"#utility.yul\":432:435   */\n      dup3\n        /* \"#utility.yul\":428:442   */\n      add\n        /* \"#utility.yul\":420:442   */\n      swap1\n      pop\n        /* \"#utility.yul\":317:449   */\n      swap2\n      swap1\n      pop\n      jump\t// out\n        /* \"#utility.yul\":455:581   */\n    tag_139:\n        /* \"#utility.yul\":492:499   */\n      0x00\n        /* \"#utility.yul\":532:574   */\n      0xffffffffffffffffffffffffffffffffffffffff\n        /* \"#utility.yul\":525:530   */\n      dup3\n        /* \"#utility.yul\":521:575   */\n      and\n        /* \"#utility.yul\":510:575   */\n      swap1\n      pop\n        /* \"#utility.yul\":455:581   */\n      swap2\n      swap1\n      pop\n      jump\t// out\n        /* \"#utility.yul\":587:683   */\n    tag_140:\n        /* \"#utility.yul\":624:631   */\n      0x00\n        /* \"#utility.yul\":653:677   */\n      tag_181\n        /* \"#utility.yul\":671:676   */\n      dup3\n        /* \"#utility.yul\":653:677   */\n      tag_139\n      jump\t// in\n    tag_181:\n        /* \"#utility.yul\":642:677   */\n      swap1\n      pop\n        /* \"#utility.yul\":587:683   */\n      swap2\n      swap1\n      pop\n      jump\t// out\n        /* \"#utility.yul\":689:797   */\n    tag_141:\n        /* \"#utility.yul\":766:790   */\n      tag_183\n        /* \"#utility.yul\":784:789   */\n      dup2\n        /* \"#utility.yul\":766:790   */\n      tag_140\n      jump\t// in\n    tag_183:\n        /* \"#utility.yul\":761:764   */\n      dup3\n        /* \"#utility.yul\":754:791   */\n      mstore\n        /* \"#utility.yul\":689:797   */\n      pop\n      pop\n      jump\t// out\n        /* \"#utility.yul\":803:982   */\n    tag_142:\n        /* \"#utility.yul\":872:882   */\n      0x00\n        /* \"#utility.yul\":893:939   */\n      tag_185\n        /* \"#utility.yul\":935:938   */\n      dup4\n        /* \"#utility.yul\":927:933   */\n      dup4\n        /* \"#utility.yul\":893:939   */\n      tag_141\n      jump\t// in\n    tag_185:\n        /* \"#utility.yul\":971:975   */\n      0x20\n        /* \"#utility.yul\":966:969   */\n      dup4\n        /* \"#utility.yul\":962:976   */\n      add\n        /* \"#utility.yul\":948:976   */\n      swap1\n      pop\n        /* \"#utility.yul\":803:982   */\n      swap3\n      swap2\n      pop\n      pop\n      jump\t// out\n        /* \"#utility.yul\":988:1101   */\n    tag_143:\n        /* \"#utility.yul\":1058:1062   */\n      0x00\n        /* \"#utility.yul\":1090:1094   */\n      0x20\n        /* \"#utility.yul\":1085:1088   */\n      dup3\n        /* \"#utility.yul\":1081:1095   */\n      add\n        /* \"#utility.yul\":1073:1095   */\n      swap1\n      pop\n        /* \"#utility.yul\":988:1101   */\n      swap2\n      swap1\n      pop\n      jump\t// out\n        /* \"#utility.yul\":1137:1869   */\n    tag_144:\n        /* \"#utility.yul\":1256:1259   */\n      0x00\n        /* \"#utility.yul\":1285:1339   */\n      tag_188\n        /* \"#utility.yul\":1333:1338   */\n      dup3\n        /* \"#utility.yul\":1285:1339   */\n      tag_136\n      jump\t// in\n    tag_188:\n        /* \"#utility.yul\":1355:1441   */\n      tag_189\n        /* \"#utility.yul\":1434:1440   */\n      dup2\n        /* \"#utility.yul\":1429:1432   */\n      dup6\n        /* \"#utility.yul\":1355:1441   */\n      tag_137\n      jump\t// in\n    tag_189:\n        /* \"#utility.yul\":1348:1441   */\n      swap4\n      pop\n        /* \"#utility.yul\":1465:1521   */\n      tag_190\n        /* \"#utility.yul\":1515:1520   */\n      dup4\n        /* \"#utility.yul\":1465:1521   */\n      tag_138\n      jump\t// in\n    tag_190:\n        /* \"#utility.yul\":1544:1551   */\n      dup1\n        /* \"#utility.yul\":1575:1576   */\n      0x00\n        /* \"#utility.yul\":1560:1844   */\n    tag_191:\n        /* \"#utility.yul\":1585:1591   */\n      dup4\n        /* \"#utility.yul\":1582:1583   */\n      dup2\n        /* \"#utility.yul\":1579:1592   */\n      lt\n        /* \"#utility.yul\":1560:1844   */\n      iszero\n      tag_193\n      jumpi\n        /* \"#utility.yul\":1661:1667   */\n      dup2\n        /* \"#utility.yul\":1655:1668   */\n      mload\n        /* \"#utility.yul\":1688:1751   */\n      tag_194\n        /* \"#utility.yul\":1747:1750   */\n      dup9\n        /* \"#utility.yul\":1732:1745   */\n      dup3\n        /* \"#utility.yul\":1688:1751   */\n      tag_142\n      jump\t// in\n    tag_194:\n        /* \"#utility.yul\":1681:1751   */\n      swap8\n      pop\n        /* \"#utility.yul\":1774:1834   */\n      tag_195\n        /* \"#utility.yul\":1827:1833   */\n      dup4\n        /* \"#utility.yul\":1774:1834   */\n      tag_143\n      jump\t// in\n    tag_195:\n        /* \"#utility.yul\":1764:1834   */\n      swap3\n      pop\n        /* \"#utility.yul\":1620:1844   */\n      pop\n        /* \"#utility.yul\":1607:1608   */\n      0x01\n        /* \"#utility.yul\":1604:1605   */\n      dup2\n        /* \"#utility.yul\":1600:1609   */\n      add\n        /* \"#utility.yul\":1595:1609   */\n      swap1\n      pop\n        /* \"#utility.yul\":1560:1844   */\n      jump(tag_191)\n    tag_193:\n        /* \"#utility.yul\":1564:1578   */\n      pop\n        /* \"#utility.yul\":1860:1863   */\n      dup6\n        /* \"#utility.yul\":1853:1863   */\n      swap4\n      pop\n        /* \"#utility.yul\":1261:1869   */\n      pop\n      pop\n      pop\n        /* \"#utility.yul\":1137:1869   */\n      swap3\n      swap2\n      pop\n      pop\n      jump\t// out\n        /* \"#utility.yul\":1875:2248   */\n    tag_11:\n        /* \"#utility.yul\":2018:2022   */\n      0x00\n        /* \"#utility.yul\":2056:2058   */\n      0x20\n        /* \"#utility.yul\":2045:2054   */\n      dup3\n        /* \"#utility.yul\":2041:2059   */\n      add\n        /* \"#utility.yul\":2033:2059   */\n      swap1\n      pop\n        /* \"#utility.yul\":2105:2114   */\n      dup2\n        /* \"#utility.yul\":2099:2103   */\n      dup2\n        /* \"#utility.yul\":2095:2115   */\n      sub\n        /* \"#utility.yul\":2091:2092   */\n      0x00\n        /* \"#utility.yul\":2080:2089   */\n      dup4\n        /* \"#utility.yul\":2076:2093   */\n      add\n        /* \"#utility.yul\":2069:2116   */\n      mstore\n        /* \"#utility.yul\":2133:2241   */\n      tag_197\n        /* \"#utility.yul\":2236:2240   */\n      dup2\n        /* \"#utility.yul\":2227:2233   */\n      dup5\n        /* \"#utility.yul\":2133:2241   */\n      tag_144\n      jump\t// in\n    tag_197:\n        /* \"#utility.yul\":2125:2241   */\n      swap1\n      pop\n        /* \"#utility.yul\":1875:2248   */\n      swap3\n      swap2\n      pop\n      pop\n      jump\t// out\n        /* \"#utility.yul\":2254:2390   */\n    tag_145:\n        /* \"#utility.yul\":2343:2349   */\n      0x00\n        /* \"#utility.yul\":2377:2382   */\n      dup2\n        /* \"#utility.yul\":2371:2383   */\n      mload\n        /* \"#utility.yul\":2361:2383   */\n      swap1\n      pop\n        /* \"#utility.yul\":2254:2390   */\n      swap2\n      swap1\n      pop\n      jump\t// out\n        /* \"#utility.yul\":2396:2602   */\n    tag_146:\n        /* \"#utility.yul\":2517:2528   */\n      0x00\n        /* \"#utility.yul\":2551:2557   */\n      dup3\n        /* \"#utility.yul\":2546:2549   */\n      dup3\n        /* \"#utility.yul\":2539:2558   */\n      mstore\n        /* \"#utility.yul\":2591:2595   */\n      0x20\n        /* \"#utility.yul\":2586:2589   */\n      dup3\n        /* \"#utility.yul\":2582:2596   */\n      add\n        /* \"#utility.yul\":2567:2596   */\n      swap1\n      pop\n        /* \"#utility.yul\":2396:2602   */\n      swap3\n      swap2\n      pop\n      pop\n      jump\t// out\n        /* \"#utility.yul\":2608:2762   */\n    tag_147:\n        /* \"#utility.yul\":2697:2701   */\n      0x00\n        /* \"#utility.yul\":2720:2723   */\n      dup2\n        /* \"#utility.yul\":2712:2723   */\n      swap1\n      pop\n        /* \"#utility.yul\":2750:2754   */\n      0x20\n        /* \"#utility.yul\":2745:2748   */\n      dup3\n        /* \"#utility.yul\":2741:2755   */\n      add\n        /* \"#utility.yul\":2733:2755   */\n      swap1\n      pop\n        /* \"#utility.yul\":2608:2762   */\n      swap2\n      swap1\n      pop\n      jump\t// out\n        /* \"#utility.yul\":2768:2881   */\n    tag_148:\n        /* \"#utility.yul\":2834:2840   */\n      0x00\n        /* \"#utility.yul\":2868:2873   */\n      dup2\n        /* \"#utility.yul\":2862:2874   */\n      mload\n        /* \"#utility.yul\":2852:2874   */\n      swap1\n      pop\n        /* \"#utility.yul\":2768:2881   */\n      swap2\n      swap1\n      pop\n      jump\t// out\n        /* \"#utility.yul\":2887:3060   */\n    tag_149:\n        /* \"#utility.yul\":2975:2986   */\n      0x00\n        /* \"#utility.yul\":3009:3015   */\n      dup3\n        /* \"#utility.yul\":3004:3007   */\n      dup3\n        /* \"#utility.yul\":2997:3016   */\n      mstore\n        /* \"#utility.yul\":3049:3053   */\n      0x20\n        /* \"#utility.yul\":3044:3047   */\n      dup3\n        /* \"#utility.yul\":3040:3054   */\n      add\n        /* \"#utility.yul\":3025:3054   */\n      swap1\n      pop\n        /* \"#utility.yul\":2887:3060   */\n      swap3\n      swap2\n      pop\n      pop\n      jump\t// out\n        /* \"#utility.yul\":3066:3197   */\n    tag_150:\n        /* \"#utility.yul\":3132:3136   */\n      0x00\n        /* \"#utility.yul\":3155:3158   */\n      dup2\n        /* \"#utility.yul\":3147:3158   */\n      swap1\n      pop\n        /* \"#utility.yul\":3185:3189   */\n      0x20\n        /* \"#utility.yul\":3180:3183   */\n      dup3\n        /* \"#utility.yul\":3176:3190   */\n      add\n        /* \"#utility.yul\":3168:3190   */\n      swap1\n      pop\n        /* \"#utility.yul\":3066:3197   */\n      swap2\n      swap1\n      pop\n      jump\t// out\n        /* \"#utility.yul\":3203:3352   */\n    tag_151:\n        /* \"#utility.yul\":3239:3246   */\n      0x00\n        /* \"#utility.yul\":3279:3345   */\n      0xffffffff00000000000000000000000000000000000000000000000000000000\n        /* \"#utility.yul\":3272:3277   */\n      dup3\n        /* \"#utility.yul\":3268:3346   */\n      and\n        /* \"#utility.yul\":3257:3346   */\n      swap1\n      pop\n        /* \"#utility.yul\":3203:3352   */\n      swap2\n      swap1\n      pop\n      jump\t// out\n        /* \"#utility.yul\":3358:3463   */\n    tag_152:\n        /* \"#utility.yul\":3433:3456   */\n      tag_206\n        /* \"#utility.yul\":3450:3455   */\n      dup2\n        /* \"#utility.yul\":3433:3456   */\n      tag_151\n      jump\t// in\n    tag_206:\n        /* \"#utility.yul\":3428:3431   */\n      dup3\n        /* \"#utility.yul\":3421:3457   */\n      mstore\n        /* \"#utility.yul\":3358:3463   */\n      pop\n      pop\n      jump\t// out\n        /* \"#utility.yul\":3469:3644   */\n    tag_153:\n        /* \"#utility.yul\":3536:3546   */\n      0x00\n        /* \"#utility.yul\":3557:3601   */\n      tag_208\n        /* \"#utility.yul\":3597:3600   */\n      dup4\n        /* \"#utility.yul\":3589:3595   */\n      dup4\n        /* \"#utility.yul\":3557:3601   */\n      tag_152\n      jump\t// in\n    tag_208:\n        /* \"#utility.yul\":3633:3637   */\n      0x20\n        /* \"#utility.yul\":3628:3631   */\n      dup4\n        /* \"#utility.yul\":3624:3638   */\n      add\n        /* \"#utility.yul\":3610:3638   */\n      swap1\n      pop\n        /* \"#utility.yul\":3469:3644   */\n      swap3\n      swap2\n      pop\n      pop\n      jump\t// out\n        /* \"#utility.yul\":3650:3762   */\n    tag_154:\n        /* \"#utility.yul\":3719:3723   */\n      0x00\n        /* \"#utility.yul\":3751:3755   */\n      0x20\n        /* \"#utility.yul\":3746:3749   */\n      dup3\n        /* \"#utility.yul\":3742:3756   */\n      add\n        /* \"#utility.yul\":3734:3756   */\n      swap1\n      pop\n        /* \"#utility.yul\":3650:3762   */\n      swap2\n      swap1\n      pop\n      jump\t// out\n        /* \"#utility.yul\":3796:4500   */\n    tag_155:\n        /* \"#utility.yul\":3903:3906   */\n      0x00\n        /* \"#utility.yul\":3932:3985   */\n      tag_211\n        /* \"#utility.yul\":3979:3984   */\n      dup3\n        /* \"#utility.yul\":3932:3985   */\n      tag_148\n      jump\t// in\n    tag_211:\n        /* \"#utility.yul\":4001:4076   */\n      tag_212\n        /* \"#utility.yul\":4069:4075   */\n      dup2\n        /* \"#utility.yul\":4064:4067   */\n      dup6\n        /* \"#utility.yul\":4001:4076   */\n      tag_149\n      jump\t// in\n    tag_212:\n        /* \"#utility.yul\":3994:4076   */\n      swap4\n      pop\n        /* \"#utility.yul\":4100:4155   */\n      tag_213\n        /* \"#utility.yul\":4149:4154   */\n      dup4\n        /* \"#utility.yul\":4100:4155   */\n      tag_150\n      jump\t// in\n    tag_213:\n        /* \"#utility.yul\":4178:4185   */\n      dup1\n        /* \"#utility.yul\":4209:4210   */\n      0x00\n        /* \"#utility.yul\":4194:4475   */\n    tag_214:\n        /* \"#utility.yul\":4219:4225   */\n      dup4\n        /* \"#utility.yul\":4216:4217   */\n      dup2\n        /* \"#utility.yul\":4213:4226   */\n      lt\n        /* \"#utility.yul\":4194:4475   */\n      iszero\n      tag_216\n      jumpi\n        /* \"#utility.yul\":4295:4301   */\n      dup2\n        /* \"#utility.yul\":4289:4302   */\n      mload\n        /* \"#utility.yul\":4322:4383   */\n      tag_217\n        /* \"#utility.yul\":4379:4382   */\n      dup9\n        /* \"#utility.yul\":4364:4377   */\n      dup3\n        /* \"#utility.yul\":4322:4383   */\n      tag_153\n      jump\t// in\n    tag_217:\n        /* \"#utility.yul\":4315:4383   */\n      swap8\n      pop\n        /* \"#utility.yul\":4406:4465   */\n      tag_218\n        /* \"#utility.yul\":4458:4464   */\n      dup4\n        /* \"#utility.yul\":4406:4465   */\n      tag_154\n      jump\t// in\n    tag_218:\n        /* \"#utility.yul\":4396:4465   */\n      swap3\n      pop\n        /* \"#utility.yul\":4254:4475   */\n      pop\n        /* \"#utility.yul\":4241:4242   */\n      0x01\n        /* \"#utility.yul\":4238:4239   */\n      dup2\n        /* \"#utility.yul\":4234:4243   */\n      add\n        /* \"#utility.yul\":4229:4243   */\n      swap1\n      pop\n        /* \"#utility.yul\":4194:4475   */\n      jump(tag_214)\n    tag_216:\n        /* \"#utility.yul\":4198:4212   */\n      pop\n        /* \"#utility.yul\":4491:4494   */\n      dup6\n        /* \"#utility.yul\":4484:4494   */\n      swap4\n      pop\n        /* \"#utility.yul\":3908:4500   */\n      pop\n      pop\n      pop\n        /* \"#utility.yul\":3796:4500   */\n      swap3\n      swap2\n      pop\n      pop\n      jump\t// out\n        /* \"#utility.yul\":4570:5209   */\n    tag_156:\n        /* \"#utility.yul\":4673:4676   */\n      0x00\n        /* \"#utility.yul\":4709:4713   */\n      0x40\n        /* \"#utility.yul\":4704:4707   */\n      dup4\n        /* \"#utility.yul\":4700:4714   */\n      add\n        /* \"#utility.yul\":4804:4808   */\n      0x00\n        /* \"#utility.yul\":4797:4802   */\n      dup4\n        /* \"#utility.yul\":4793:4809   */\n      add\n        /* \"#utility.yul\":4787:4810   */\n      mload\n        /* \"#utility.yul\":4823:4886   */\n      tag_220\n        /* \"#utility.yul\":4880:4884   */\n      0x00\n        /* \"#utility.yul\":4875:4878   */\n      dup7\n        /* \"#utility.yul\":4871:4885   */\n      add\n        /* \"#utility.yul\":4857:4869   */\n      dup3\n        /* \"#utility.yul\":4823:4886   */\n      tag_141\n      jump\t// in\n    tag_220:\n        /* \"#utility.yul\":4724:4896   */\n      pop\n        /* \"#utility.yul\":4991:4995   */\n      0x20\n        /* \"#utility.yul\":4984:4989   */\n      dup4\n        /* \"#utility.yul\":4980:4996   */\n      add\n        /* \"#utility.yul\":4974:4997   */\n      mload\n        /* \"#utility.yul\":5044:5047   */\n      dup5\n        /* \"#utility.yul\":5038:5042   */\n      dup3\n        /* \"#utility.yul\":5034:5048   */\n      sub\n        /* \"#utility.yul\":5027:5031   */\n      0x20\n        /* \"#utility.yul\":5022:5025   */\n      dup7\n        /* \"#utility.yul\":5018:5032   */\n      add\n        /* \"#utility.yul\":5011:5049   */\n      mstore\n        /* \"#utility.yul\":5070:5171   */\n      tag_221\n        /* \"#utility.yul\":5166:5170   */\n      dup3\n        /* \"#utility.yul\":5152:5164   */\n      dup3\n        /* \"#utility.yul\":5070:5171   */\n      tag_155\n      jump\t// in\n    tag_221:\n        /* \"#utility.yul\":5062:5171   */\n      swap2\n      pop\n        /* \"#utility.yul\":4906:5182   */\n      pop\n        /* \"#utility.yul\":5199:5203   */\n      dup1\n        /* \"#utility.yul\":5192:5203   */\n      swap2\n      pop\n        /* \"#utility.yul\":4678:5209   */\n      pop\n        /* \"#utility.yul\":4570:5209   */\n      swap3\n      swap2\n      pop\n      pop\n      jump\t// out\n        /* \"#utility.yul\":5215:5459   */\n    tag_157:\n        /* \"#utility.yul\":5328:5338   */\n      0x00\n        /* \"#utility.yul\":5363:5453   */\n      tag_223\n        /* \"#utility.yul\":5449:5452   */\n      dup4\n        /* \"#utility.yul\":5441:5447   */\n      dup4\n        /* \"#utility.yul\":5363:5453   */\n      tag_156\n      jump\t// in\n    tag_223:\n        /* \"#utility.yul\":5349:5453   */\n      swap1\n      pop\n        /* \"#utility.yul\":5215:5459   */\n      swap3\n      swap2\n      pop\n      pop\n      jump\t// out\n        /* \"#utility.yul\":5465:5600   */\n    tag_158:\n        /* \"#utility.yul\":5557:5561   */\n      0x00\n        /* \"#utility.yul\":5589:5593   */\n      0x20\n        /* \"#utility.yul\":5584:5587   */\n      dup3\n        /* \"#utility.yul\":5580:5594   */\n      add\n        /* \"#utility.yul\":5572:5594   */\n      swap1\n      pop\n        /* \"#utility.yul\":5465:5600   */\n      swap2\n      swap1\n      pop\n      jump\t// out\n        /* \"#utility.yul\":5674:6761   */\n    tag_159:\n        /* \"#utility.yul\":5837:5840   */\n      0x00\n        /* \"#utility.yul\":5866:5942   */\n      tag_226\n        /* \"#utility.yul\":5936:5941   */\n      dup3\n        /* \"#utility.yul\":5866:5942   */\n      tag_145\n      jump\t// in\n    tag_226:\n        /* \"#utility.yul\":5958:6066   */\n      tag_227\n        /* \"#utility.yul\":6059:6065   */\n      dup2\n        /* \"#utility.yul\":6054:6057   */\n      dup6\n        /* \"#utility.yul\":5958:6066   */\n      tag_146\n      jump\t// in\n    tag_227:\n        /* \"#utility.yul\":5951:6066   */\n      swap4\n      pop\n        /* \"#utility.yul\":6092:6095   */\n      dup4\n        /* \"#utility.yul\":6137:6141   */\n      0x20\n        /* \"#utility.yul\":6129:6135   */\n      dup3\n        /* \"#utility.yul\":6125:6142   */\n      mul\n        /* \"#utility.yul\":6120:6123   */\n      dup6\n        /* \"#utility.yul\":6116:6143   */\n      add\n        /* \"#utility.yul\":6167:6245   */\n      tag_228\n        /* \"#utility.yul\":6239:6244   */\n      dup6\n        /* \"#utility.yul\":6167:6245   */\n      tag_147\n      jump\t// in\n    tag_228:\n        /* \"#utility.yul\":6268:6275   */\n      dup1\n        /* \"#utility.yul\":6299:6300   */\n      0x00\n        /* \"#utility.yul\":6284:6716   */\n    tag_229:\n        /* \"#utility.yul\":6309:6315   */\n      dup6\n        /* \"#utility.yul\":6306:6307   */\n      dup2\n        /* \"#utility.yul\":6303:6316   */\n      lt\n        /* \"#utility.yul\":6284:6716   */\n      iszero\n      tag_231\n      jumpi\n        /* \"#utility.yul\":6380:6389   */\n      dup5\n        /* \"#utility.yul\":6374:6378   */\n      dup5\n        /* \"#utility.yul\":6370:6390   */\n      sub\n        /* \"#utility.yul\":6365:6368   */\n      dup10\n        /* \"#utility.yul\":6358:6391   */\n      mstore\n        /* \"#utility.yul\":6431:6437   */\n      dup2\n        /* \"#utility.yul\":6425:6438   */\n      mload\n        /* \"#utility.yul\":6459:6567   */\n      tag_232\n        /* \"#utility.yul\":6562:6566   */\n      dup6\n        /* \"#utility.yul\":6547:6560   */\n      dup3\n        /* \"#utility.yul\":6459:6567   */\n      tag_157\n      jump\t// in\n    tag_232:\n        /* \"#utility.yul\":6451:6567   */\n      swap5\n      pop\n        /* \"#utility.yul\":6590:6672   */\n      tag_233\n        /* \"#utility.yul\":6665:6671   */\n      dup4\n        /* \"#utility.yul\":6590:6672   */\n      tag_158\n      jump\t// in\n    tag_233:\n        /* \"#utility.yul\":6580:6672   */\n      swap3\n      pop\n        /* \"#utility.yul\":6701:6705   */\n      0x20\n        /* \"#utility.yul\":6696:6699   */\n      dup11\n        /* \"#utility.yul\":6692:6706   */\n      add\n        /* \"#utility.yul\":6685:6706   */\n      swap10\n      pop\n        /* \"#utility.yul\":6344:6716   */\n      pop\n        /* \"#utility.yul\":6331:6332   */\n      0x01\n        /* \"#utility.yul\":6328:6329   */\n      dup2\n        /* \"#utility.yul\":6324:6333   */\n      add\n        /* \"#utility.yul\":6319:6333   */\n      swap1\n      pop\n        /* \"#utility.yul\":6284:6716   */\n      jump(tag_229)\n    tag_231:\n        /* \"#utility.yul\":6288:6302   */\n      pop\n        /* \"#utility.yul\":6732:6736   */\n      dup3\n        /* \"#utility.yul\":6725:6736   */\n      swap8\n      pop\n        /* \"#utility.yul\":6752:6755   */\n      dup8\n        /* \"#utility.yul\":6745:6755   */\n      swap6\n      pop\n        /* \"#utility.yul\":5842:6761   */\n      pop\n      pop\n      pop\n      pop\n      pop\n        /* \"#utility.yul\":5674:6761   */\n      swap3\n      swap2\n      pop\n      pop\n      jump\t// out\n        /* \"#utility.yul\":6767:7228   */\n    tag_15:\n        /* \"#utility.yul\":6954:6958   */\n      0x00\n        /* \"#utility.yul\":6992:6994   */\n      0x20\n        /* \"#utility.yul\":6981:6990   */\n      dup3\n        /* \"#utility.yul\":6977:6995   */\n      add\n        /* \"#utility.yul\":6969:6995   */\n      swap1\n      pop\n        /* \"#utility.yul\":7041:7050   */\n      dup2\n        /* \"#utility.yul\":7035:7039   */\n      dup2\n        /* \"#utility.yul\":7031:7051   */\n      sub\n        /* \"#utility.yul\":7027:7028   */\n      0x00\n        /* \"#utility.yul\":7016:7025   */\n      dup4\n        /* \"#utility.yul\":7012:7029   */\n      add\n        /* \"#utility.yul\":7005:7052   */\n      mstore\n        /* \"#utility.yul\":7069:7221   */\n      tag_235\n        /* \"#utility.yul\":7216:7220   */\n      dup2\n        /* \"#utility.yul\":7207:7213   */\n      dup5\n        /* \"#utility.yul\":7069:7221   */\n      tag_159\n      jump\t// in\n    tag_235:\n        /* \"#utility.yul\":7061:7221   */\n      swap1\n      pop\n        /* \"#utility.yul\":6767:7228   */\n      swap3\n      swap2\n      pop\n      pop\n      jump\t// out\n        /* \"#utility.yul\":7315:7432   */\n    tag_161:\n        /* \"#utility.yul\":7424:7425   */\n      0x00\n        /* \"#utility.yul\":7421:7422   */\n      dup1\n        /* \"#utility.yul\":7414:7426   */\n      revert\n        /* \"#utility.yul\":7561:7683   */\n    tag_163:\n        /* \"#utility.yul\":7634:7658   */\n      tag_240\n        /* \"#utility.yul\":7652:7657   */\n      dup2\n        /* \"#utility.yul\":7634:7658   */\n      tag_140\n      jump\t// in\n    tag_240:\n        /* \"#utility.yul\":7627:7632   */\n      dup2\n        /* \"#utility.yul\":7624:7659   */\n      eq\n        /* \"#utility.yul\":7614:7677   */\n      tag_241\n      jumpi\n        /* \"#utility.yul\":7673:7674   */\n      0x00\n        /* \"#utility.yul\":7670:7671   */\n      dup1\n        /* \"#utility.yul\":7663:7675   */\n      revert\n        /* \"#utility.yul\":7614:7677   */\n    tag_241:\n        /* \"#utility.yul\":7561:7683   */\n      pop\n      jump\t// out\n        /* \"#utility.yul\":7689:7828   */\n    tag_164:\n        /* \"#utility.yul\":7735:7740   */\n      0x00\n        /* \"#utility.yul\":7773:7779   */\n      dup2\n        /* \"#utility.yul\":7760:7780   */\n      calldataload\n        /* \"#utility.yul\":7751:7780   */\n      swap1\n      pop\n        /* \"#utility.yul\":7789:7822   */\n      tag_243\n        /* \"#utility.yul\":7816:7821   */\n      dup2\n        /* \"#utility.yul\":7789:7822   */\n      tag_163\n      jump\t// in\n    tag_243:\n        /* \"#utility.yul\":7689:7828   */\n      swap3\n      swap2\n      pop\n      pop\n      jump\t// out\n        /* \"#utility.yul\":7834:8163   */\n    tag_18:\n        /* \"#utility.yul\":7893:7899   */\n      0x00\n        /* \"#utility.yul\":7942:7944   */\n      0x20\n        /* \"#utility.yul\":7930:7939   */\n      dup3\n        /* \"#utility.yul\":7921:7928   */\n      dup5\n        /* \"#utility.yul\":7917:7940   */\n      sub\n        /* \"#utility.yul\":7913:7945   */\n      slt\n        /* \"#utility.yul\":7910:8029   */\n      iszero\n      tag_245\n      jumpi\n        /* \"#utility.yul\":7948:8027   */\n      tag_246\n      tag_161\n      jump\t// in\n    tag_246:\n        /* \"#utility.yul\":7910:8029   */\n    tag_245:\n        /* \"#utility.yul\":8068:8069   */\n      0x00\n        /* \"#utility.yul\":8093:8146   */\n      tag_247\n        /* \"#utility.yul\":8138:8145   */\n      dup5\n        /* \"#utility.yul\":8129:8135   */\n      dup3\n        /* \"#utility.yul\":8118:8127   */\n      dup6\n        /* \"#utility.yul\":8114:8136   */\n      add\n        /* \"#utility.yul\":8093:8146   */\n      tag_164\n      jump\t// in\n    tag_247:\n        /* \"#utility.yul\":8083:8146   */\n      swap2\n      pop\n        /* \"#utility.yul\":8039:8156   */\n      pop\n        /* \"#utility.yul\":7834:8163   */\n      swap3\n      swap2\n      pop\n      pop\n      jump\t// out\n        /* \"#utility.yul\":8169:8352   */\n    tag_165:\n        /* \"#utility.yul\":8267:8278   */\n      0x00\n        /* \"#utility.yul\":8301:8307   */\n      dup3\n        /* \"#utility.yul\":8296:8299   */\n      dup3\n        /* \"#utility.yul\":8289:8308   */\n      mstore\n        /* \"#utility.yul\":8341:8345   */\n      0x20\n        /* \"#utility.yul\":8336:8339   */\n      dup3\n        /* \"#utility.yul\":8332:8346   */\n      add\n        /* \"#utility.yul\":8317:8346   */\n      swap1\n      pop\n        /* \"#utility.yul\":8169:8352   */\n      swap3\n      swap2\n      pop\n      pop\n      jump\t// out\n        /* \"#utility.yul\":8386:9110   */\n    tag_166:\n        /* \"#utility.yul\":8503:8506   */\n      0x00\n        /* \"#utility.yul\":8532:8585   */\n      tag_250\n        /* \"#utility.yul\":8579:8584   */\n      dup3\n        /* \"#utility.yul\":8532:8585   */\n      tag_148\n      jump\t// in\n    tag_250:\n        /* \"#utility.yul\":8601:8686   */\n      tag_251\n        /* \"#utility.yul\":8679:8685   */\n      dup2\n        /* \"#utility.yul\":8674:8677   */\n      dup6\n        /* \"#utility.yul\":8601:8686   */\n      tag_165\n      jump\t// in\n    tag_251:\n        /* \"#utility.yul\":8594:8686   */\n      swap4\n      pop\n        /* \"#utility.yul\":8710:8765   */\n      tag_252\n        /* \"#utility.yul\":8759:8764   */\n      dup4\n        /* \"#utility.yul\":8710:8765   */\n      tag_150\n      jump\t// in\n    tag_252:\n        /* \"#utility.yul\":8788:8795   */\n      dup1\n        /* \"#utility.yul\":8819:8820   */\n      0x00\n        /* \"#utility.yul\":8804:9085   */\n    tag_253:\n        /* \"#utility.yul\":8829:8835   */\n      dup4\n        /* \"#utility.yul\":8826:8827   */\n      dup2\n        /* \"#utility.yul\":8823:8836   */\n      lt\n        /* \"#utility.yul\":8804:9085   */\n      iszero\n      tag_255\n      jumpi\n        /* \"#utility.yul\":8905:8911   */\n      dup2\n        /* \"#utility.yul\":8899:8912   */\n      mload\n        /* \"#utility.yul\":8932:8993   */\n      tag_256\n        /* \"#utility.yul\":8989:8992   */\n      dup9\n        /* \"#utility.yul\":8974:8987   */\n      dup3\n        /* \"#utility.yul\":8932:8993   */\n      tag_153\n      jump\t// in\n    tag_256:\n        /* \"#utility.yul\":8925:8993   */\n      swap8\n      pop\n        /* \"#utility.yul\":9016:9075   */\n      tag_257\n        /* \"#utility.yul\":9068:9074   */\n      dup4\n        /* \"#utility.yul\":9016:9075   */\n      tag_154\n      jump\t// in\n    tag_257:\n        /* \"#utility.yul\":9006:9075   */\n      swap3\n      pop\n        /* \"#utility.yul\":8864:9085   */\n      pop\n        /* \"#utility.yul\":8851:8852   */\n      0x01\n        /* \"#utility.yul\":8848:8849   */\n      dup2\n        /* \"#utility.yul\":8844:8853   */\n      add\n        /* \"#utility.yul\":8839:8853   */\n      swap1\n      pop\n        /* \"#utility.yul\":8804:9085   */\n      jump(tag_253)\n    tag_255:\n        /* \"#utility.yul\":8808:8822   */\n      pop\n        /* \"#utility.yul\":9101:9104   */\n      dup6\n        /* \"#utility.yul\":9094:9104   */\n      swap4\n      pop\n        /* \"#utility.yul\":8508:9110   */\n      pop\n      pop\n      pop\n        /* \"#utility.yul\":8386:9110   */\n      swap3\n      swap2\n      pop\n      pop\n      jump\t// out\n        /* \"#utility.yul\":9116:9485   */\n    tag_21:\n        /* \"#utility.yul\":9257:9261   */\n      0x00\n        /* \"#utility.yul\":9295:9297   */\n      0x20\n        /* \"#utility.yul\":9284:9293   */\n      dup3\n        /* \"#utility.yul\":9280:9298   */\n      add\n        /* \"#utility.yul\":9272:9298   */\n      swap1\n      pop\n        /* \"#utility.yul\":9344:9353   */\n      dup2\n        /* \"#utility.yul\":9338:9342   */\n      dup2\n        /* \"#utility.yul\":9334:9354   */\n      sub\n        /* \"#utility.yul\":9330:9331   */\n      0x00\n        /* \"#utility.yul\":9319:9328   */\n      dup4\n        /* \"#utility.yul\":9315:9332   */\n      add\n        /* \"#utility.yul\":9308:9355   */\n      mstore\n        /* \"#utility.yul\":9372:9478   */\n      tag_259\n        /* \"#utility.yul\":9473:9477   */\n      dup2\n        /* \"#utility.yul\":9464:9470   */\n      dup5\n        /* \"#utility.yul\":9372:9478   */\n      tag_166\n      jump\t// in\n    tag_259:\n        /* \"#utility.yul\":9364:9478   */\n      swap1\n      pop\n        /* \"#utility.yul\":9116:9485   */\n      swap3\n      swap2\n      pop\n      pop\n      jump\t// out\n        /* \"#utility.yul\":9491:9611   */\n    tag_167:\n        /* \"#utility.yul\":9563:9586   */\n      tag_261\n        /* \"#utility.yul\":9580:9585   */\n      dup2\n        /* \"#utility.yul\":9563:9586   */\n      tag_151\n      jump\t// in\n    tag_261:\n        /* \"#utility.yul\":9556:9561   */\n      dup2\n        /* \"#utility.yul\":9553:9587   */\n      eq\n        /* \"#utility.yul\":9543:9605   */\n      tag_262\n      jumpi\n        /* \"#utility.yul\":9601:9602   */\n      0x00\n        /* \"#utility.yul\":9598:9599   */\n      dup1\n        /* \"#utility.yul\":9591:9603   */\n      revert\n        /* \"#utility.yul\":9543:9605   */\n    tag_262:\n        /* \"#utility.yul\":9491:9611   */\n      pop\n      jump\t// out\n        /* \"#utility.yul\":9617:9754   */\n    tag_168:\n        /* \"#utility.yul\":9662:9667   */\n      0x00\n        /* \"#utility.yul\":9700:9706   */\n      dup2\n        /* \"#utility.yul\":9687:9707   */\n      calldataload\n        /* \"#utility.yul\":9678:9707   */\n      swap1\n      pop\n        /* \"#utility.yul\":9716:9748   */\n      tag_264\n        /* \"#utility.yul\":9742:9747   */\n      dup2\n        /* \"#utility.yul\":9716:9748   */\n      tag_167\n      jump\t// in\n    tag_264:\n        /* \"#utility.yul\":9617:9754   */\n      swap3\n      swap2\n      pop\n      pop\n      jump\t// out\n        /* \"#utility.yul\":9760:10087   */\n    tag_24:\n        /* \"#utility.yul\":9818:9824   */\n      0x00\n        /* \"#utility.yul\":9867:9869   */\n      0x20\n        /* \"#utility.yul\":9855:9864   */\n      dup3\n        /* \"#utility.yul\":9846:9853   */\n      dup5\n        /* \"#utility.yul\":9842:9865   */\n      sub\n        /* \"#utility.yul\":9838:9870   */\n      slt\n        /* \"#utility.yul\":9835:9954   */\n      iszero\n      tag_266\n      jumpi\n        /* \"#utility.yul\":9873:9952   */\n      tag_267\n      tag_161\n      jump\t// in\n    tag_267:\n        /* \"#utility.yul\":9835:9954   */\n    tag_266:\n        /* \"#utility.yul\":9993:9994   */\n      0x00\n        /* \"#utility.yul\":10018:10070   */\n      tag_268\n        /* \"#utility.yul\":10062:10069   */\n      dup5\n        /* \"#utility.yul\":10053:10059   */\n      dup3\n        /* \"#utility.yul\":10042:10051   */\n      dup6\n        /* \"#utility.yul\":10038:10060   */\n      add\n        /* \"#utility.yul\":10018:10070   */\n      tag_168\n      jump\t// in\n    tag_268:\n        /* \"#utility.yul\":10008:10070   */\n      swap2\n      pop\n        /* \"#utility.yul\":9964:10080   */\n      pop\n        /* \"#utility.yul\":9760:10087   */\n      swap3\n      swap2\n      pop\n      pop\n      jump\t// out\n        /* \"#utility.yul\":10093:10183   */\n    tag_169:\n        /* \"#utility.yul\":10127:10134   */\n      0x00\n        /* \"#utility.yul\":10170:10175   */\n      dup2\n        /* \"#utility.yul\":10163:10176   */\n      iszero\n        /* \"#utility.yul\":10156:10177   */\n      iszero\n        /* \"#utility.yul\":10145:10177   */\n      swap1\n      pop\n        /* \"#utility.yul\":10093:10183   */\n      swap2\n      swap1\n      pop\n      jump\t// out\n        /* \"#utility.yul\":10189:10298   */\n    tag_170:\n        /* \"#utility.yul\":10270:10291   */\n      tag_271\n        /* \"#utility.yul\":10285:10290   */\n      dup2\n        /* \"#utility.yul\":10270:10291   */\n      tag_169\n      jump\t// in\n    tag_271:\n        /* \"#utility.yul\":10265:10268   */\n      dup3\n        /* \"#utility.yul\":10258:10292   */\n      mstore\n        /* \"#utility.yul\":10189:10298   */\n      pop\n      pop\n      jump\t// out\n        /* \"#utility.yul\":10304:10514   */\n    tag_27:\n        /* \"#utility.yul\":10391:10395   */\n      0x00\n        /* \"#utility.yul\":10429:10431   */\n      0x20\n        /* \"#utility.yul\":10418:10427   */\n      dup3\n        /* \"#utility.yul\":10414:10432   */\n      add\n        /* \"#utility.yul\":10406:10432   */\n      swap1\n      pop\n        /* \"#utility.yul\":10442:10507   */\n      tag_273\n        /* \"#utility.yul\":10504:10505   */\n      0x00\n        /* \"#utility.yul\":10493:10502   */\n      dup4\n        /* \"#utility.yul\":10489:10506   */\n      add\n        /* \"#utility.yul\":10480:10486   */\n      dup5\n        /* \"#utility.yul\":10442:10507   */\n      tag_170\n      jump\t// in\n    tag_273:\n        /* \"#utility.yul\":10304:10514   */\n      swap3\n      swap2\n      pop\n      pop\n      jump\t// out\n        /* \"#utility.yul\":10520:10638   */\n    tag_171:\n        /* \"#utility.yul\":10607:10631   */\n      tag_275\n        /* \"#utility.yul\":10625:10630   */\n      dup2\n        /* \"#utility.yul\":10607:10631   */\n      tag_140\n      jump\t// in\n    tag_275:\n        /* \"#utility.yul\":10602:10605   */\n      dup3\n        /* \"#utility.yul\":10595:10632   */\n      mstore\n        /* \"#utility.yul\":10520:10638   */\n      pop\n      pop\n      jump\t// out\n        /* \"#utility.yul\":10644:10866   */\n    tag_32:\n        /* \"#utility.yul\":10737:10741   */\n      0x00\n        /* \"#utility.yul\":10775:10777   */\n      0x20\n        /* \"#utility.yul\":10764:10773   */\n      dup3\n        /* \"#utility.yul\":10760:10778   */\n      add\n        /* \"#utility.yul\":10752:10778   */\n      swap1\n      pop\n        /* \"#utility.yul\":10788:10859   */\n      tag_277\n        /* \"#utility.yul\":10856:10857   */\n      0x00\n        /* \"#utility.yul\":10845:10854   */\n      dup4\n        /* \"#utility.yul\":10841:10858   */\n      add\n        /* \"#utility.yul\":10832:10838   */\n      dup5\n        /* \"#utility.yul\":10788:10859   */\n      tag_171\n      jump\t// in\n    tag_277:\n        /* \"#utility.yul\":10644:10866   */\n      swap3\n      swap2\n      pop\n      pop\n      jump\t// out\n        /* \"#utility.yul\":10872:11052   */\n    tag_38:\n        /* \"#utility.yul\":10920:10997   */\n      0x4e487b7100000000000000000000000000000000000000000000000000000000\n        /* \"#utility.yul\":10917:10918   */\n      0x00\n        /* \"#utility.yul\":10910:10998   */\n      mstore\n        /* \"#utility.yul\":11017:11021   */\n      0x41\n        /* \"#utility.yul\":11014:11015   */\n      0x04\n        /* \"#utility.yul\":11007:11022   */\n      mstore\n        /* \"#utility.yul\":11041:11045   */\n      0x24\n        /* \"#utility.yul\":11038:11039   */\n      0x00\n        /* \"#utility.yul\":11031:11046   */\n      revert\n        /* \"#utility.yul\":11058:11238   */\n    tag_45:\n        /* \"#utility.yul\":11106:11183   */\n      0x4e487b7100000000000000000000000000000000000000000000000000000000\n        /* \"#utility.yul\":11103:11104   */\n      0x00\n        /* \"#utility.yul\":11096:11184   */\n      mstore\n        /* \"#utility.yul\":11203:11207   */\n      0x32\n        /* \"#utility.yul\":11200:11201   */\n      0x04\n        /* \"#utility.yul\":11193:11208   */\n      mstore\n        /* \"#utility.yul\":11227:11231   */\n      0x24\n        /* \"#utility.yul\":11224:11225   */\n      0x00\n        /* \"#utility.yul\":11217:11232   */\n      revert\n        /* \"#utility.yul\":11244:11424   */\n    tag_172:\n        /* \"#utility.yul\":11292:11369   */\n      0x4e487b7100000000000000000000000000000000000000000000000000000000\n        /* \"#utility.yul\":11289:11290   */\n      0x00\n        /* \"#utility.yul\":11282:11370   */\n      mstore\n        /* \"#utility.yul\":11389:11393   */\n      0x11\n        /* \"#utility.yul\":11386:11387   */\n      0x04\n        /* \"#utility.yul\":11379:11394   */\n      mstore\n        /* \"#utility.yul\":11413:11417   */\n      0x24\n        /* \"#utility.yul\":11410:11411   */\n      0x00\n        /* \"#utility.yul\":11403:11418   */\n      revert\n        /* \"#utility.yul\":11430:11507   */\n    tag_173:\n        /* \"#utility.yul\":11467:11474   */\n      0x00\n        /* \"#utility.yul\":11496:11501   */\n      dup2\n        /* \"#utility.yul\":11485:11501   */\n      swap1\n      pop\n        /* \"#utility.yul\":11430:11507   */\n      swap2\n      swap1\n      pop\n      jump\t// out\n        /* \"#utility.yul\":11513:11746   */\n    tag_57:\n        /* \"#utility.yul\":11552:11555   */\n      0x00\n        /* \"#utility.yul\":11575:11599   */\n      tag_283\n        /* \"#utility.yul\":11593:11598   */\n      dup3\n        /* \"#utility.yul\":11575:11599   */\n      tag_173\n      jump\t// in\n    tag_283:\n        /* \"#utility.yul\":11566:11599   */\n      swap2\n      pop\n        /* \"#utility.yul\":11621:11687   */\n      0xffffffffffffffffffffffffffffffffffffffffffffffffffffffffffffffff\n        /* \"#utility.yul\":11614:11619   */\n      dup3\n        /* \"#utility.yul\":11611:11688   */\n      sub\n        /* \"#utility.yul\":11608:11711   */\n      tag_284\n      jumpi\n        /* \"#utility.yul\":11691:11709   */\n      tag_285\n      tag_172\n      jump\t// in\n    tag_285:\n        /* \"#utility.yul\":11608:11711   */\n    tag_284:\n        /* \"#utility.yul\":11738:11739   */\n      0x01\n        /* \"#utility.yul\":11731:11736   */\n      dup3\n        /* \"#utility.yul\":11727:11740   */\n      add\n        /* \"#utility.yul\":11720:11740   */\n      swap1\n      pop\n        /* \"#utility.yul\":11513:11746   */\n      swap2\n      swap1\n      pop\n      jump\t// out\n        /* \"#utility.yul\":11752:11838   */\n    tag_174:\n        /* \"#utility.yul\":11787:11794   */\n      0x00\n        /* \"#utility.yul\":11827:11831   */\n      0xff\n        /* \"#utility.yul\":11820:11825   */\n      dup3\n        /* \"#utility.yul\":11816:11832   */\n      and\n        /* \"#utility.yul\":11805:11832   */\n      swap1\n      pop\n        /* \"#utility.yul\":11752:11838   */\n      swap2\n      swap1\n      pop\n      jump\t// out\n        /* \"#utility.yul\":11844:12011   */\n    tag_93:\n        /* \"#utility.yul\":11881:11884   */\n      0x00\n        /* \"#utility.yul\":11904:11926   */\n      tag_288\n        /* \"#utility.yul\":11920:11925   */\n      dup3\n        /* \"#utility.yul\":11904:11926   */\n      tag_174\n      jump\t// in\n    tag_288:\n        /* \"#utility.yul\":11895:11926   */\n      swap2\n      pop\n        /* \"#utility.yul\":11948:11952   */\n      0xff\n        /* \"#utility.yul\":11941:11946   */\n      dup3\n        /* \"#utility.yul\":11938:11953   */\n      sub\n        /* \"#utility.yul\":11935:11976   */\n      tag_289\n      jumpi\n        /* \"#utility.yul\":11956:11974   */\n      tag_290\n      tag_172\n      jump\t// in\n    tag_290:\n        /* \"#utility.yul\":11935:11976   */\n    tag_289:\n        /* \"#utility.yul\":12003:12004   */\n      0x01\n        /* \"#utility.yul\":11996:12001   */\n      dup3\n        /* \"#utility.yul\":11992:12005   */\n      add\n        /* \"#utility.yul\":11985:12005   */\n      swap1\n      pop\n        /* \"#utility.yul\":11844:12011   */\n      swap2\n      swap1\n      pop\n      jump\t// out\n\n    auxdata: 0xa2646970667358221220ab421880ae967665594b46904e00063e4deaef757ccee305429f5cb72ebc9a4464736f6c63430008160033\n}\n",
				"bytecode": {
					"linkReferences": {},
					"object": "608060405234801561001057600080fd5b50611190806100206000396000f3fe608060405234801561001057600080fd5b50600436106100575760003560e01c806352ef6b2c1461005c5780637a0ed6271461007a578063adfca15e14610098578063af8a2625146100c8578063cdffacc6146100f8575b600080fd5b610064610128565b6040516100719190610c70565b60405180910390f35b61008261034a565b60405161008f9190610e7b565b60405180910390f35b6100b260048036038101906100ad9190610ece565b61083a565b6040516100bf9190610f6a565b60405180910390f35b6100e260048036038101906100dd9190610fb8565b610a21565b6040516100ef9190611000565b60405180910390f35b610112600480360381019061010d9190610fb8565b610a97565b60405161011f919061102a565b60405180910390f35b60606000610134610b23565b90506000816001018054905090508067ffffffffffffffff81111561015c5761015b611045565b5b60405190808252806020026020018201604052801561018a5781602001602082028036833780820191505090505b5092506000805b828110156103405760008460010182815481106101b1576101b0611074565b5b90600052602060002090600891828204019190066004029054906101000a900460e01b90506000856000016000837bffffffffffffffffffffffffffffffffffffffffffffffffffffffff19167bffffffffffffffffffffffffffffffffffffffffffffffffffffffff1916815260200190815260200160002060000160009054906101000a900473ffffffffffffffffffffffffffffffffffffffff1690506000805b858110156102c0578881815181106102705761026f611074565b5b602002602001015173ffffffffffffffffffffffffffffffffffffffff168373ffffffffffffffffffffffffffffffffffffffff16036102b357600191506102c0565b8080600101915050610255565b5080156102d35760009050505050610333565b818886815181106102e7576102e6611074565b5b602002602001019073ffffffffffffffffffffffffffffffffffffffff16908173ffffffffffffffffffffffffffffffffffffffff1681525050848061032c906110dc565b9550505050505b8080600101915050610191565b5080845250505090565b60606000610356610b23565b90506000816001018054905090508067ffffffffffffffff81111561037e5761037d611045565b5b6040519080825280602002602001820160405280156103b757816020015b6103a4610b50565b81526020019060019003908161039c5790505b50925060008167ffffffffffffffff8111156103d6576103d5611045565b5b6040519080825280602002602001820160405280156104045781602001602082028036833780820191505090505b5090506000805b838110156107cc57600085600101828154811061042b5761042a611074565b5b90600052602060002090600891828204019190066004029054906101000a900460e01b90506000866000016000837bffffffffffffffffffffffffffffffffffffffffffffffffffffffff19167bffffffffffffffffffffffffffffffffffffffffffffffffffffffff1916815260200190815260200160002060000160009054906101000a900473ffffffffffffffffffffffffffffffffffffffff1690506000805b85811015610635578273ffffffffffffffffffffffffffffffffffffffff168a828151811061050157610500611074565b5b60200260200101516000015173ffffffffffffffffffffffffffffffffffffffff160361062857838a828151811061053c5761053b611074565b5b60200260200101516020015188838151811061055b5761055a611074565b5b602002602001015160ff168151811061057757610576611074565b5b60200260200101907bffffffffffffffffffffffffffffffffffffffffffffffffffffffff191690817bffffffffffffffffffffffffffffffffffffffffffffffffffffffff19168152505060ff8782815181106105d8576105d7611074565b5b602002602001015160ff16106105ed57600080fd5b868181518110610600576105ff611074565b5b60200260200101805180919061061590611131565b60ff1660ff168152505060019150610635565b80806001019150506104cf565b50801561064857600090505050506107bf565b8189868151811061065c5761065b611074565b5b60200260200101516000019073ffffffffffffffffffffffffffffffffffffffff16908173ffffffffffffffffffffffffffffffffffffffff16815250508667ffffffffffffffff8111156106b4576106b3611045565b5b6040519080825280602002602001820160405280156106e25781602001602082028036833780820191505090505b508986815181106106f6576106f5611074565b5b6020026020010151602001819052508289868151811061071957610718611074565b5b60200260200101516020015160008151811061073857610737611074565b5b60200260200101907bffffffffffffffffffffffffffffffffffffffffffffffffffffffff191690817bffffffffffffffffffffffffffffffffffffffffffffffffffffffff191681525050600186868151811061079957610798611074565b5b602002602001019060ff16908160ff168152505084806107b8906110dc565b9550505050505b808060010191505061040b565b5060005b8181101561082f5760008382815181106107ed576107ec611074565b5b602002602001015160ff169050600087838151811061080f5761080e611074565b5b6020026020010151602001519050818152505080806001019150506107d0565b508085525050505090565b60606000610846610b23565b905060008160010180549050905060008167ffffffffffffffff8111156108705761086f611045565b5b60405190808252806020026020018201604052801561089e5781602001602082028036833780820191505090505b50935060005b82811015610a155760008460010182815481106108c4576108c3611074565b5b90600052602060002090600891828204019190066004029054906101000a900460e01b90506000856000016000837bffffffffffffffffffffffffffffffffffffffffffffffffffffffff19167bffffffffffffffffffffffffffffffffffffffffffffffffffffffff1916815260200190815260200160002060000160009054906101000a900473ffffffffffffffffffffffffffffffffffffffff1690508073ffffffffffffffffffffffffffffffffffffffff168873ffffffffffffffffffffffffffffffffffffffff1603610a0657818785815181106109ab576109aa611074565b5b60200260200101907bffffffffffffffffffffffffffffffffffffffffffffffffffffffff191690817bffffffffffffffffffffffffffffffffffffffffffffffffffffffff1916815250508380610a02906110dc565b9450505b505080806001019150506108a4565b50808452505050919050565b600080610a2c610b23565b9050806002016000847bffffffffffffffffffffffffffffffffffffffffffffffffffffffff19167bffffffffffffffffffffffffffffffffffffffffffffffffffffffff1916815260200190815260200160002060009054906101000a900460ff16915050919050565b600080610aa2610b23565b9050806000016000847bffffffffffffffffffffffffffffffffffffffffffffffffffffffff19167bffffffffffffffffffffffffffffffffffffffffffffffffffffffff1916815260200190815260200160002060000160009054906101000a900473ffffffffffffffffffffffffffffffffffffffff16915050919050565b6000807fc8fcad8db84d3cc18b4c41d551ea0ee66dd599cde068d998e57d5e09332c131c90508091505090565b6040518060400160405280600073ffffffffffffffffffffffffffffffffffffffff168152602001606081525090565b600081519050919050565b600082825260208201905092915050565b6000819050602082019050919050565b600073ffffffffffffffffffffffffffffffffffffffff82169050919050565b6000610bd782610bac565b9050919050565b610be781610bcc565b82525050565b6000610bf98383610bde565b60208301905092915050565b6000602082019050919050565b6000610c1d82610b80565b610c278185610b8b565b9350610c3283610b9c565b8060005b83811015610c63578151610c4a8882610bed565b9750610c5583610c05565b925050600181019050610c36565b5085935050505092915050565b60006020820190508181036000830152610c8a8184610c12565b905092915050565b600081519050919050565b600082825260208201905092915050565b6000819050602082019050919050565b600081519050919050565b600082825260208201905092915050565b6000819050602082019050919050565b60007fffffffff0000000000000000000000000000000000000000000000000000000082169050919050565b610d1f81610cea565b82525050565b6000610d318383610d16565b60208301905092915050565b6000602082019050919050565b6000610d5582610cbe565b610d5f8185610cc9565b9350610d6a83610cda565b8060005b83811015610d9b578151610d828882610d25565b9750610d8d83610d3d565b925050600181019050610d6e565b5085935050505092915050565b6000604083016000830151610dc06000860182610bde565b5060208301518482036020860152610dd88282610d4a565b9150508091505092915050565b6000610df18383610da8565b905092915050565b6000602082019050919050565b6000610e1182610c92565b610e1b8185610c9d565b935083602082028501610e2d85610cae565b8060005b85811015610e695784840389528151610e4a8582610de5565b9450610e5583610df9565b925060208a01995050600181019050610e31565b50829750879550505050505092915050565b60006020820190508181036000830152610e958184610e06565b905092915050565b600080fd5b610eab81610bcc565b8114610eb657600080fd5b50565b600081359050610ec881610ea2565b92915050565b600060208284031215610ee457610ee3610e9d565b5b6000610ef284828501610eb9565b91505092915050565b600082825260208201905092915050565b6000610f1782610cbe565b610f218185610efb565b9350610f2c83610cda565b8060005b83811015610f5d578151610f448882610d25565b9750610f4f83610d3d565b925050600181019050610f30565b5085935050505092915050565b60006020820190508181036000830152610f848184610f0c565b905092915050565b610f9581610cea565b8114610fa057600080fd5b50565b600081359050610fb281610f8c565b92915050565b600060208284031215610fce57610fcd610e9d565b5b6000610fdc84828501610fa3565b91505092915050565b60008115159050919050565b610ffa81610fe5565b82525050565b60006020820190506110156000830184610ff1565b92915050565b61102481610bcc565b82525050565b600060208201905061103f600083018461101b565b92915050565b7f4e487b7100000000000000000000000000000000000000000000000000000000600052604160045260246000fd5b7f4e487b7100000000000000000000000000000000000000000000000000000000600052603260045260246000fd5b7f4e487b7100000000000000000000000000000000000000000000000000000000600052601160045260246000fd5b6000819050919050565b60006110e7826110d2565b91507fffffffffffffffffffffffffffffffffffffffffffffffffffffffffffffffff8203611119576111186110a3565b5b600182019050919050565b600060ff82169050919050565b600061113c82611124565b915060ff820361114f5761114e6110a3565b5b60018201905091905056fea2646970667358221220ab421880ae967665594b46904e00063e4deaef757ccee305429f5cb72ebc9a4464736f6c63430008160033",
					"opcodes": "PUSH1 0x80 PUSH1 0x40 MSTORE CALLVALUE DUP1 ISZERO PUSH2 0x10 JUMPI PUSH1 0x0 DUP1 REVERT JUMPDEST POP PUSH2 0x1190 DUP1 PUSH2 0x20 PUSH1 0x0 CODECOPY PUSH1 0x0 RETURN INVALID PUSH1 0x80 PUSH1 0x40 MSTORE CALLVALUE DUP1 ISZERO PUSH2 0x10 JUMPI PUSH1 0x0 DUP1 REVERT JUMPDEST POP PUSH1 0x4 CALLDATASIZE LT PUSH2 0x57 JUMPI PUSH1 0x0 CALLDATALOAD PUSH1 0xE0 SHR DUP1 PUSH4 0x52EF6B2C EQ PUSH2 0x5C JUMPI DUP1 PUSH4 0x7A0ED627 EQ PUSH2 0x7A JUMPI DUP1 PUSH4 0xADFCA15E EQ PUSH2 0x98 JUMPI DUP1 PUSH4 0xAF8A2625 EQ PUSH2 0xC8 JUMPI DUP1 PUSH4 0xCDFFACC6 EQ PUSH2 0xF8 JUMPI JUMPDEST PUSH1 0x0 DUP1 REVERT JUMPDEST PUSH2 0x64 PUSH2 0x128 JUMP JUMPDEST PUSH1 0x40 MLOAD PUSH2 0x71 SWAP2 SWAP1 PUSH2 0xC70 JUMP JUMPDEST PUSH1 0x40 MLOAD DUP1 SWAP2 SUB SWAP1 RETURN JUMPDEST PUSH2 0x82 PUSH2 0x34A JUMP JUMPDEST PUSH1 0x40 MLOAD PUSH2 0x8F SWAP2 SWAP1 PUSH2 0xE7B JUMP JUMPDEST PUSH1 0x40 MLOAD DUP1 SWAP2 SUB SWAP1 RETURN JUMPDEST PUSH2 0xB2 PUSH1 0x4 DUP1 CALLDATASIZE SUB DUP2 ADD SWAP1 PUSH2 0xAD SWAP2 SWAP1 PUSH2 0xECE JUMP JUMPDEST PUSH2 0x83A JUMP JUMPDEST PUSH1 0x40 MLOAD PUSH2 0xBF SWAP2 SWAP1 PUSH2 0xF6A JUMP JUMPDEST PUSH1 0x40 MLOAD DUP1 SWAP2 SUB SWAP1 RETURN JUMPDEST PUSH2 0xE2 PUSH1 0x4 DUP1 CALLDATASIZE SUB DUP2 ADD SWAP1 PUSH2 0xDD SWAP2 SWAP1 PUSH2 0xFB8 JUMP JUMPDEST PUSH2 0xA21 JUMP JUMPDEST PUSH1 0x40 MLOAD PUSH2 0xEF SWAP2 SWAP1 PUSH2 0x1000 JUMP JUMPDEST PUSH1 0x40 MLOAD DUP1 SWAP2 SUB SWAP1 RETURN JUMPDEST PUSH2 0x112 PUSH1 0x4 DUP1 CALLDATASIZE SUB DUP2 ADD SWAP1 PUSH2 0x10D SWAP2 SWAP1 PUSH2 0xFB8 JUMP JUMPDEST PUSH2 0xA97 JUMP JUMPDEST PUSH1 0x40 MLOAD PUSH2 0x11F SWAP2 SWAP1 PUSH2 0x102A JUMP JUMPDEST PUSH1 0x40 MLOAD DUP1 SWAP2 SUB SWAP1 RETURN JUMPDEST PUSH1 0x60 PUSH1 0x0 PUSH2 0x134 PUSH2 0xB23 JUMP JUMPDEST SWAP1 POP PUSH1 0x0 DUP2 PUSH1 0x1 ADD DUP1 SLOAD SWAP1 POP SWAP1 POP DUP1 PUSH8 0xFFFFFFFFFFFFFFFF DUP2 GT ISZERO PUSH2 0x15C JUMPI PUSH2 0x15B PUSH2 0x1045 JUMP JUMPDEST JUMPDEST PUSH1 0x40 MLOAD SWAP1 DUP1 DUP3 MSTORE DUP1 PUSH1 0x20 MUL PUSH1 0x20 ADD DUP3 ADD PUSH1 0x40 MSTORE DUP1 ISZERO PUSH2 0x18A JUMPI DUP2 PUSH1 0x20 ADD PUSH1 0x20 DUP3 MUL DUP1 CALLDATASIZE DUP4 CALLDATACOPY DUP1 DUP3 ADD SWAP2 POP POP SWAP1 POP JUMPDEST POP SWAP3 POP PUSH1 0x0 DUP1 JUMPDEST DUP3 DUP2 LT ISZERO PUSH2 0x340 JUMPI PUSH1 0x0 DUP5 PUSH1 0x1 ADD DUP3 DUP2 SLOAD DUP2 LT PUSH2 0x1B1 JUMPI PUSH2 0x1B0 PUSH2 0x1074 JUMP JUMPDEST JUMPDEST SWAP1 PUSH1 0x0 MSTORE PUSH1 0x20 PUSH1 0x0 KECCAK256 SWAP1 PUSH1 0x8 SWAP2 DUP3 DUP3 DIV ADD SWAP2 SWAP1 MOD PUSH1 0x4 MUL SWAP1 SLOAD SWAP1 PUSH2 0x100 EXP SWAP1 DIV PUSH1 0xE0 SHL SWAP1 POP PUSH1 0x0 DUP6 PUSH1 0x0 ADD PUSH1 0x0 DUP4 PUSH28 0xFFFFFFFFFFFFFFFFFFFFFFFFFFFFFFFFFFFFFFFFFFFFFFFFFFFFFFFF NOT AND PUSH28 0xFFFFFFFFFFFFFFFFFFFFFFFFFFFFFFFFFFFFFFFFFFFFFFFFFFFFFFFF NOT AND DUP2 MSTORE PUSH1 0x20 ADD SWAP1 DUP2 MSTORE PUSH1 0x20 ADD PUSH1 0x0 KECCAK256 PUSH1 0x0 ADD PUSH1 0x0 SWAP1 SLOAD SWAP1 PUSH2 0x100 EXP SWAP1 DIV PUSH20 0xFFFFFFFFFFFFFFFFFFFFFFFFFFFFFFFFFFFFFFFF AND SWAP1 POP PUSH1 0x0 DUP1 JUMPDEST DUP6 DUP2 LT ISZERO PUSH2 0x2C0 JUMPI DUP9 DUP2 DUP2 MLOAD DUP2 LT PUSH2 0x270 JUMPI PUSH2 0x26F PUSH2 0x1074 JUMP JUMPDEST JUMPDEST PUSH1 0x20 MUL PUSH1 0x20 ADD ADD MLOAD PUSH20 0xFFFFFFFFFFFFFFFFFFFFFFFFFFFFFFFFFFFFFFFF AND DUP4 PUSH20 0xFFFFFFFFFFFFFFFFFFFFFFFFFFFFFFFFFFFFFFFF AND SUB PUSH2 0x2B3 JUMPI PUSH1 0x1 SWAP2 POP PUSH2 0x2C0 JUMP JUMPDEST DUP1 DUP1 PUSH1 0x1 ADD SWAP2 POP POP PUSH2 0x255 JUMP JUMPDEST POP DUP1 ISZERO PUSH2 0x2D3 JUMPI PUSH1 0x0 SWAP1 POP POP POP POP PUSH2 0x333 JUMP JUMPDEST DUP2 DUP9 DUP7 DUP2 MLOAD DUP2 LT PUSH2 0x2E7 JUMPI PUSH2 0x2E6 PUSH2 0x1074 JUMP JUMPDEST JUMPDEST PUSH1 0x20 MUL PUSH1 0x20 ADD ADD SWAP1 PUSH20 0xFFFFFFFFFFFFFFFFFFFFFFFFFFFFFFFFFFFFFFFF AND SWAP1 DUP2 PUSH20 0xFFFFFFFFFFFFFFFFFFFFFFFFFFFFFFFFFFFFFFFF AND DUP2 MSTORE POP POP DUP5 DUP1 PUSH2 0x32C SWAP1 PUSH2 0x10DC JUMP JUMPDEST SWAP6 POP POP POP POP POP JUMPDEST DUP1 DUP1 PUSH1 0x1 ADD SWAP2 POP POP PUSH2 0x191 JUMP JUMPDEST POP DUP1 DUP5 MSTORE POP POP POP SWAP1 JUMP JUMPDEST PUSH1 0x60 PUSH1 0x0 PUSH2 0x356 PUSH2 0xB23 JUMP JUMPDEST SWAP1 POP PUSH1 0x0 DUP2 PUSH1 0x1 ADD DUP1 SLOAD SWAP1 POP SWAP1 POP DUP1 PUSH8 0xFFFFFFFFFFFFFFFF DUP2 GT ISZERO PUSH2 0x37E JUMPI PUSH2 0x37D PUSH2 0x1045 JUMP JUMPDEST JUMPDEST PUSH1 0x40 MLOAD SWAP1 DUP1 DUP3 MSTORE DUP1 PUSH1 0x20 MUL PUSH1 0x20 ADD DUP3 ADD PUSH1 0x40 MSTORE DUP1 ISZERO PUSH2 0x3B7 JUMPI DUP2 PUSH1 0x20 ADD JUMPDEST PUSH2 0x3A4 PUSH2 0xB50 JUMP JUMPDEST DUP2 MSTORE PUSH1 0x20 ADD SWAP1 PUSH1 0x1 SWAP1 SUB SWAP1 DUP2 PUSH2 0x39C JUMPI SWAP1 POP JUMPDEST POP SWAP3 POP PUSH1 0x0 DUP2 PUSH8 0xFFFFFFFFFFFFFFFF DUP2 GT ISZERO PUSH2 0x3D6 JUMPI PUSH2 0x3D5 PUSH2 0x1045 JUMP JUMPDEST JUMPDEST PUSH1 0x40 MLOAD SWAP1 DUP1 DUP3 MSTORE DUP1 PUSH1 0x20 MUL PUSH1 0x20 ADD DUP3 ADD PUSH1 0x40 MSTORE DUP1 ISZERO PUSH2 0x404 JUMPI DUP2 PUSH1 0x20 ADD PUSH1 0x20 DUP3 MUL DUP1 CALLDATASIZE DUP4 CALLDATACOPY DUP1 DUP3 ADD SWAP2 POP POP SWAP1 POP JUMPDEST POP SWAP1 POP PUSH1 0x0 DUP1 JUMPDEST DUP4 DUP2 LT ISZERO PUSH2 0x7CC JUMPI PUSH1 0x0 DUP6 PUSH1 0x1 ADD DUP3 DUP2 SLOAD DUP2 LT PUSH2 0x42B JUMPI PUSH2 0x42A PUSH2 0x1074 JUMP JUMPDEST JUMPDEST SWAP1 PUSH1 0x0 MSTORE PUSH1 0x20 PUSH1 0x0 KECCAK256 SWAP1 PUSH1 0x8 SWAP2 DUP3 DUP3 DIV ADD SWAP2 SWAP1 MOD PUSH1 0x4 MUL SWAP1 SLOAD SWAP1 PUSH2 0x100 EXP SWAP1 DIV PUSH1 0xE0 SHL SWAP1 POP PUSH1 0x0 DUP7 PUSH1 0x0 ADD PUSH1 0x0 DUP4 PUSH28 0xFFFFFFFFFFFFFFFFFFFFFFFFFFFFFFFFFFFFFFFFFFFFFFFFFFFFFFFF NOT AND PUSH28 0xFFFFFFFFFFFFFFFFFFFFFFFFFFFFFFFFFFFFFFFFFFFFFFFFFFFFFFFF NOT AND DUP2 MSTORE PUSH1 0x20 ADD SWAP1 DUP2 MSTORE PUSH1 0x20 ADD PUSH1 0x0 KECCAK256 PUSH1 0x0 ADD PUSH1 0x0 SWAP1 SLOAD SWAP1 PUSH2 0x100 EXP SWAP1 DIV PUSH20 0xFFFFFFFFFFFFFFFFFFFFFFFFFFFFFFFFFFFFFFFF AND SWAP1 POP PUSH1 0x0 DUP1 JUMPDEST DUP6 DUP2 LT ISZERO PUSH2 0x635 JUMPI DUP3 PUSH20 0xFFFFFFFFFFFFFFFFFFFFFFFFFFFFFFFFFFFFFFFF AND DUP11 DUP3 DUP2 MLOAD DUP2 LT PUSH2 0x501 JUMPI PUSH2 0x500 PUSH2 0x1074 JUMP JUMPDEST JUMPDEST PUSH1 0x20 MUL PUSH1 0x20 ADD ADD MLOAD PUSH1 0x0 ADD MLOAD PUSH20 0xFFFFFFFFFFFFFFFFFFFFFFFFFFFFFFFFFFFFFFFF AND SUB PUSH2 0x628 JUMPI DUP4 DUP11 DUP3 DUP2 MLOAD DUP2 LT PUSH2 0x53C JUMPI PUSH2 0x53B PUSH2 0x1074 JUMP JUMPDEST JUMPDEST PUSH1 0x20 MUL PUSH1 0x20 ADD ADD MLOAD PUSH1 0x20 ADD MLOAD DUP9 DUP4 DUP2 MLOAD DUP2 LT PUSH2 0x55B JUMPI PUSH2 0x55A PUSH2 0x1074 JUMP JUMPDEST JUMPDEST PUSH1 0x20 MUL PUSH1 0x20 ADD ADD MLOAD PUSH1 0xFF AND DUP2 MLOAD DUP2 LT PUSH2 0x577 JUMPI PUSH2 0x576 PUSH2 0x1074 JUMP JUMPDEST JUMPDEST PUSH1 0x20 MUL PUSH1 0x20 ADD ADD SWAP1 PUSH28 0xFFFFFFFFFFFFFFFFFFFFFFFFFFFFFFFFFFFFFFFFFFFFFFFFFFFFFFFF NOT AND SWAP1 DUP2 PUSH28 0xFFFFFFFFFFFFFFFFFFFFFFFFFFFFFFFFFFFFFFFFFFFFFFFFFFFFFFFF NOT AND DUP2 MSTORE POP POP PUSH1 0xFF DUP8 DUP3 DUP2 MLOAD DUP2 LT PUSH2 0x5D8 JUMPI PUSH2 0x5D7 PUSH2 0x1074 JUMP JUMPDEST JUMPDEST PUSH1 0x20 MUL PUSH1 0x20 ADD ADD MLOAD PUSH1 0xFF AND LT PUSH2 0x5ED JUMPI PUSH1 0x0 DUP1 REVERT JUMPDEST DUP7 DUP2 DUP2 MLOAD DUP2 LT PUSH2 0x600 JUMPI PUSH2 0x5FF PUSH2 0x1074 JUMP JUMPDEST JUMPDEST PUSH1 0x20 MUL PUSH1 0x20 ADD ADD DUP1 MLOAD DUP1 SWAP2 SWAP1 PUSH2 0x615 SWAP1 PUSH2 0x1131 JUMP JUMPDEST PUSH1 0xFF AND PUSH1 0xFF AND DUP2 MSTORE POP POP PUSH1 0x1 SWAP2 POP PUSH2 0x635 JUMP JUMPDEST DUP1 DUP1 PUSH1 0x1 ADD SWAP2 POP POP PUSH2 0x4CF JUMP JUMPDEST POP DUP1 ISZERO PUSH2 0x648 JUMPI PUSH1 0x0 SWAP1 POP POP POP POP PUSH2 0x7BF JUMP JUMPDEST DUP2 DUP10 DUP7 DUP2 MLOAD DUP2 LT PUSH2 0x65C JUMPI PUSH2 0x65B PUSH2 0x1074 JUMP JUMPDEST JUMPDEST PUSH1 0x20 MUL PUSH1 0x20 ADD ADD MLOAD PUSH1 0x0 ADD SWAP1 PUSH20 0xFFFFFFFFFFFFFFFFFFFFFFFFFFFFFFFFFFFFFFFF AND SWAP1 DUP2 PUSH20 0xFFFFFFFFFFFFFFFFFFFFFFFFFFFFFFFFFFFFFFFF AND DUP2 MSTORE POP POP DUP7 PUSH8 0xFFFFFFFFFFFFFFFF DUP2 GT ISZERO PUSH2 0x6B4 JUMPI PUSH2 0x6B3 PUSH2 0x1045 JUMP JUMPDEST JUMPDEST PUSH1 0x40 MLOAD SWAP1 DUP1 DUP3 MSTORE DUP1 PUSH1 0x20 MUL PUSH1 0x20 ADD DUP3 ADD PUSH1 0x40 MSTORE DUP1 ISZERO PUSH2 0x6E2 JUMPI DUP2 PUSH1 0x20 ADD PUSH1 0x20 DUP3 MUL DUP1 CALLDATASIZE DUP4 CALLDATACOPY DUP1 DUP3 ADD SWAP2 POP POP SWAP1 POP JUMPDEST POP DUP10 DUP7 DUP2 MLOAD DUP2 LT PUSH2 0x6F6 JUMPI PUSH2 0x6F5 PUSH2 0x1074 JUMP JUMPDEST JUMPDEST PUSH1 0x20 MUL PUSH1 0x20 ADD ADD MLOAD PUSH1 0x20 ADD DUP2 SWAP1 MSTORE POP DUP3 DUP10 DUP7 DUP2 MLOAD DUP2 LT PUSH2 0x719 JUMPI PUSH2 0x718 PUSH2 0x1074 JUMP JUMPDEST JUMPDEST PUSH1 0x20 MUL PUSH1 0x20 ADD ADD MLOAD PUSH1 0x20 ADD MLOAD PUSH1 0x0 DUP2 MLOAD DUP2 LT PUSH2 0x738 JUMPI PUSH2 0x737 PUSH2 0x1074 JUMP JUMPDEST JUMPDEST PUSH1 0x20 MUL PUSH1 0x20 ADD ADD SWAP1 PUSH28 0xFFFFFFFFFFFFFFFFFFFFFFFFFFFFFFFFFFFFFFFFFFFFFFFFFFFFFFFF NOT AND SWAP1 DUP2 PUSH28 0xFFFFFFFFFFFFFFFFFFFFFFFFFFFFFFFFFFFFFFFFFFFFFFFFFFFFFFFF NOT AND DUP2 MSTORE POP POP PUSH1 0x1 DUP7 DUP7 DUP2 MLOAD DUP2 LT PUSH2 0x799 JUMPI PUSH2 0x798 PUSH2 0x1074 JUMP JUMPDEST JUMPDEST PUSH1 0x20 MUL PUSH1 0x20 ADD ADD SWAP1 PUSH1 0xFF AND SWAP1 DUP2 PUSH1 0xFF AND DUP2 MSTORE POP POP DUP5 DUP1 PUSH2 0x7B8 SWAP1 PUSH2 0x10DC JUMP JUMPDEST SWAP6 POP POP POP POP POP JUMPDEST DUP1 DUP1 PUSH1 0x1 ADD SWAP2 POP POP PUSH2 0x40B JUMP JUMPDEST POP PUSH1 0x0 JUMPDEST DUP2 DUP2 LT ISZERO PUSH2 0x82F JUMPI PUSH1 0x0 DUP4 DUP3 DUP2 MLOAD DUP2 LT PUSH2 0x7ED JUMPI PUSH2 0x7EC PUSH2 0x1074 JUMP JUMPDEST JUMPDEST PUSH1 0x20 MUL PUSH1 0x20 ADD ADD MLOAD PUSH1 0xFF AND SWAP1 POP PUSH1 0x0 DUP8 DUP4 DUP2 MLOAD DUP2 LT PUSH2 0x80F JUMPI PUSH2 0x80E PUSH2 0x1074 JUMP JUMPDEST JUMPDEST PUSH1 0x20 MUL PUSH1 0x20 ADD ADD MLOAD PUSH1 0x20 ADD MLOAD SWAP1 POP DUP2 DUP2 MSTORE POP POP DUP1 DUP1 PUSH1 0x1 ADD SWAP2 POP POP PUSH2 0x7D0 JUMP JUMPDEST POP DUP1 DUP6 MSTORE POP POP POP POP SWAP1 JUMP JUMPDEST PUSH1 0x60 PUSH1 0x0 PUSH2 0x846 PUSH2 0xB23 JUMP JUMPDEST SWAP1 POP PUSH1 0x0 DUP2 PUSH1 0x1 ADD DUP1 SLOAD SWAP1 POP SWAP1 POP PUSH1 0x0 DUP2 PUSH8 0xFFFFFFFFFFFFFFFF DUP2 GT ISZERO PUSH2 0x870 JUMPI PUSH2 0x86F PUSH2 0x1045 JUMP JUMPDEST JUMPDEST PUSH1 0x40 MLOAD SWAP1 DUP1 DUP3 MSTORE DUP1 PUSH1 0x20 MUL PUSH1 0x20 ADD DUP3 ADD PUSH1 0x40 MSTORE DUP1 ISZERO PUSH2 0x89E JUMPI DUP2 PUSH1 0x20 ADD PUSH1 0x20 DUP3 MUL DUP1 CALLDATASIZE DUP4 CALLDATACOPY DUP1 DUP3 ADD SWAP2 POP POP SWAP1 POP JUMPDEST POP SWAP4 POP PUSH1 0x0 JUMPDEST DUP3 DUP2 LT ISZERO PUSH2 0xA15 JUMPI PUSH1 0x0 DUP5 PUSH1 0x1 ADD DUP3 DUP2 SLOAD DUP2 LT PUSH2 0x8C4 JUMPI PUSH2 0x8C3 PUSH2 0x1074 JUMP JUMPDEST JUMPDEST SWAP1 PUSH1 0x0 MSTORE PUSH1 0x20 PUSH1 0x0 KECCAK256 SWAP1 PUSH1 0x8 SWAP2 DUP3 DUP3 DIV ADD SWAP2 SWAP1 MOD PUSH1 0x4 MUL SWAP1 SLOAD SWAP1 PUSH2 0x100 EXP SWAP1 DIV PUSH1 0xE0 SHL SWAP1 POP PUSH1 0x0 DUP6 PUSH1 0x0 ADD PUSH1 0x0 DUP4 PUSH28 0xFFFFFFFFFFFFFFFFFFFFFFFFFFFFFFFFFFFFFFFFFFFFFFFFFFFFFFFF NOT AND PUSH28 0xFFFFFFFFFFFFFFFFFFFFFFFFFFFFFFFFFFFFFFFFFFFFFFFFFFFFFFFF NOT AND DUP2 MSTORE PUSH1 0x20 ADD SWAP1 DUP2 MSTORE PUSH1 0x20 ADD PUSH1 0x0 KECCAK256 PUSH1 0x0 ADD PUSH1 0x0 SWAP1 SLOAD SWAP1 PUSH2 0x100 EXP SWAP1 DIV PUSH20 0xFFFFFFFFFFFFFFFFFFFFFFFFFFFFFFFFFFFFFFFF AND SWAP1 POP DUP1 PUSH20 0xFFFFFFFFFFFFFFFFFFFFFFFFFFFFFFFFFFFFFFFF AND DUP9 PUSH20 0xFFFFFFFFFFFFFFFFFFFFFFFFFFFFFFFFFFFFFFFF AND SUB PUSH2 0xA06 JUMPI DUP2 DUP8 DUP6 DUP2 MLOAD DUP2 LT PUSH2 0x9AB JUMPI PUSH2 0x9AA PUSH2 0x1074 JUMP JUMPDEST JUMPDEST PUSH1 0x20 MUL PUSH1 0x20 ADD ADD SWAP1 PUSH28 0xFFFFFFFFFFFFFFFFFFFFFFFFFFFFFFFFFFFFFFFFFFFFFFFFFFFFFFFF NOT AND SWAP1 DUP2 PUSH28 0xFFFFFFFFFFFFFFFFFFFFFFFFFFFFFFFFFFFFFFFFFFFFFFFFFFFFFFFF NOT AND DUP2 MSTORE POP POP DUP4 DUP1 PUSH2 0xA02 SWAP1 PUSH2 0x10DC JUMP JUMPDEST SWAP5 POP POP JUMPDEST POP POP DUP1 DUP1 PUSH1 0x1 ADD SWAP2 POP POP PUSH2 0x8A4 JUMP JUMPDEST POP DUP1 DUP5 MSTORE POP POP POP SWAP2 SWAP1 POP JUMP JUMPDEST PUSH1 0x0 DUP1 PUSH2 0xA2C PUSH2 0xB23 JUMP JUMPDEST SWAP1 POP DUP1 PUSH1 0x2 ADD PUSH1 0x0 DUP5 PUSH28 0xFFFFFFFFFFFFFFFFFFFFFFFFFFFFFFFFFFFFFFFFFFFFFFFFFFFFFFFF NOT AND PUSH28 0xFFFFFFFFFFFFFFFFFFFFFFFFFFFFFFFFFFFFFFFFFFFFFFFFFFFFFFFF NOT AND DUP2 MSTORE PUSH1 0x20 ADD SWAP1 DUP2 MSTORE PUSH1 0x20 ADD PUSH1 0x0 KECCAK256 PUSH1 0x0 SWAP1 SLOAD SWAP1 PUSH2 0x100 EXP SWAP1 DIV PUSH1 0xFF AND SWAP2 POP POP SWAP2 SWAP1 POP JUMP JUMPDEST PUSH1 0x0 DUP1 PUSH2 0xAA2 PUSH2 0xB23 JUMP JUMPDEST SWAP1 POP DUP1 PUSH1 0x0 ADD PUSH1 0x0 DUP5 PUSH28 0xFFFFFFFFFFFFFFFFFFFFFFFFFFFFFFFFFFFFFFFFFFFFFFFFFFFFFFFF NOT AND PUSH28 0xFFFFFFFFFFFFFFFFFFFFFFFFFFFFFFFFFFFFFFFFFFFFFFFFFFFFFFFF NOT AND DUP2 MSTORE PUSH1 0x20 ADD SWAP1 DUP2 MSTORE PUSH1 0x20 ADD PUSH1 0x0 KECCAK256 PUSH1 0x0 ADD PUSH1 0x0 SWAP1 SLOAD SWAP1 PUSH2 0x100 EXP SWAP1 DIV PUSH20 0xFFFFFFFFFFFFFFFFFFFFFFFFFFFFFFFFFFFFFFFF AND SWAP2 POP POP SWAP2 SWAP1 POP JUMP JUMPDEST PUSH1 0x0 DUP1 PUSH32 0xC8FCAD8DB84D3CC18B4C41D551EA0EE66DD599CDE068D998E57D5E09332C131C SWAP1 POP DUP1 SWAP2 POP POP SWAP1 JUMP JUMPDEST PUSH1 0x40 MLOAD DUP1 PUSH1 0x40 ADD PUSH1 0x40 MSTORE DUP1 PUSH1 0x0 PUSH20 0xFFFFFFFFFFFFFFFFFFFFFFFFFFFFFFFFFFFFFFFF AND DUP2 MSTORE PUSH1 0x20 ADD PUSH1 0x60 DUP2 MSTORE POP SWAP1 JUMP JUMPDEST PUSH1 0x0 DUP2 MLOAD SWAP1 POP SWAP2 SWAP1 POP JUMP JUMPDEST PUSH1 0x0 DUP3 DUP3 MSTORE PUSH1 0x20 DUP3 ADD SWAP1 POP SWAP3 SWAP2 POP POP JUMP JUMPDEST PUSH1 0x0 DUP2 SWAP1 POP PUSH1 0x20 DUP3 ADD SWAP1 POP SWAP2 SWAP1 POP JUMP JUMPDEST PUSH1 0x0 PUSH20 0xFFFFFFFFFFFFFFFFFFFFFFFFFFFFFFFFFFFFFFFF DUP3 AND SWAP1 POP SWAP2 SWAP1 POP JUMP JUMPDEST PUSH1 0x0 PUSH2 0xBD7 DUP3 PUSH2 0xBAC JUMP JUMPDEST SWAP1 POP SWAP2 SWAP1 POP JUMP JUMPDEST PUSH2 0xBE7 DUP2 PUSH2 0xBCC JUMP JUMPDEST DUP3 MSTORE POP POP JUMP JUMPDEST PUSH1 0x0 PUSH2 0xBF9 DUP4 DUP4 PUSH2 0xBDE JUMP JUMPDEST PUSH1 0x20 DUP4 ADD SWAP1 POP SWAP3 SWAP2 POP POP JUMP JUMPDEST PUSH1 0x0 PUSH1 0x20 DUP3 ADD SWAP1 POP SWAP2 SWAP1 POP JUMP JUMPDEST PUSH1 0x0 PUSH2 0xC1D DUP3 PUSH2 0xB80 JUMP JUMPDEST PUSH2 0xC27 DUP2 DUP6 PUSH2 0xB8B JUMP JUMPDEST SWAP4 POP PUSH2 0xC32 DUP4 PUSH2 0xB9C JUMP JUMPDEST DUP1 PUSH1 0x0 JUMPDEST DUP4 DUP2 LT ISZERO PUSH2 0xC63 JUMPI DUP2 MLOAD PUSH2 0xC4A DUP9 DUP3 PUSH2 0xBED JUMP JUMPDEST SWAP8 POP PUSH2 0xC55 DUP4 PUSH2 0xC05 JUMP JUMPDEST SWAP3 POP POP PUSH1 0x1 DUP2 ADD SWAP1 POP PUSH2 0xC36 JUMP JUMPDEST POP DUP6 SWAP4 POP POP POP POP SWAP3 SWAP2 POP POP JUMP JUMPDEST PUSH1 0x0 PUSH1 0x20 DUP3 ADD SWAP1 POP DUP2 DUP2 SUB PUSH1 0x0 DUP4 ADD MSTORE PUSH2 0xC8A DUP2 DUP5 PUSH2 0xC12 JUMP JUMPDEST SWAP1 POP SWAP3 SWAP2 POP POP JUMP JUMPDEST PUSH1 0x0 DUP2 MLOAD SWAP1 POP SWAP2 SWAP1 POP JUMP JUMPDEST PUSH1 0x0 DUP3 DUP3 MSTORE PUSH1 0x20 DUP3 ADD SWAP1 POP SWAP3 SWAP2 POP POP JUMP JUMPDEST PUSH1 0x0 DUP2 SWAP1 POP PUSH1 0x20 DUP3 ADD SWAP1 POP SWAP2 SWAP1 POP JUMP JUMPDEST PUSH1 0x0 DUP2 MLOAD SWAP1 POP SWAP2 SWAP1 POP JUMP JUMPDEST PUSH1 0x0 DUP3 DUP3 MSTORE PUSH1 0x20 DUP3 ADD SWAP1 POP SWAP3 SWAP2 POP POP JUMP JUMPDEST PUSH1 0x0 DUP2 SWAP1 POP PUSH1 0x20 DUP3 ADD SWAP1 POP SWAP2 SWAP1 POP JUMP JUMPDEST PUSH1 0x0 PUSH32 0xFFFFFFFF00000000000000000000000000000000000000000000000000000000 DUP3 AND SWAP1 POP SWAP2 SWAP1 POP JUMP JUMPDEST PUSH2 0xD1F DUP2 PUSH2 0xCEA JUMP JUMPDEST DUP3 MSTORE POP POP JUMP JUMPDEST PUSH1 0x0 PUSH2 0xD31 DUP4 DUP4 PUSH2 0xD16 JUMP JUMPDEST PUSH1 0x20 DUP4 ADD SWAP1 POP SWAP3 SWAP2 POP POP JUMP JUMPDEST PUSH1 0x0 PUSH1 0x20 DUP3 ADD SWAP1 POP SWAP2 SWAP1 POP JUMP JUMPDEST PUSH1 0x0 PUSH2 0xD55 DUP3 PUSH2 0xCBE JUMP JUMPDEST PUSH2 0xD5F DUP2 DUP6 PUSH2 0xCC9 JUMP JUMPDEST SWAP4 POP PUSH2 0xD6A DUP4 PUSH2 0xCDA JUMP JUMPDEST DUP1 PUSH1 0x0 JUMPDEST DUP4 DUP2 LT ISZERO PUSH2 0xD9B JUMPI DUP2 MLOAD PUSH2 0xD82 DUP9 DUP3 PUSH2 0xD25 JUMP JUMPDEST SWAP8 POP PUSH2 0xD8D DUP4 PUSH2 0xD3D JUMP JUMPDEST SWAP3 POP POP PUSH1 0x1 DUP2 ADD SWAP1 POP PUSH2 0xD6E JUMP JUMPDEST POP DUP6 SWAP4 POP POP POP POP SWAP3 SWAP2 POP POP JUMP JUMPDEST PUSH1 0x0 PUSH1 0x40 DUP4 ADD PUSH1 0x0 DUP4 ADD MLOAD PUSH2 0xDC0 PUSH1 0x0 DUP7 ADD DUP3 PUSH2 0xBDE JUMP JUMPDEST POP PUSH1 0x20 DUP4 ADD MLOAD DUP5 DUP3 SUB PUSH1 0x20 DUP7 ADD MSTORE PUSH2 0xDD8 DUP3 DUP3 PUSH2 0xD4A JUMP JUMPDEST SWAP2 POP POP DUP1 SWAP2 POP POP SWAP3 SWAP2 POP POP JUMP JUMPDEST PUSH1 0x0 PUSH2 0xDF1 DUP4 DUP4 PUSH2 0xDA8 JUMP JUMPDEST SWAP1 POP SWAP3 SWAP2 POP POP JUMP JUMPDEST PUSH1 0x0 PUSH1 0x20 DUP3 ADD SWAP1 POP SWAP2 SWAP1 POP JUMP JUMPDEST PUSH1 0x0 PUSH2 0xE11 DUP3 PUSH2 0xC92 JUMP JUMPDEST PUSH2 0xE1B DUP2 DUP6 PUSH2 0xC9D JUMP JUMPDEST SWAP4 POP DUP4 PUSH1 0x20 DUP3 MUL DUP6 ADD PUSH2 0xE2D DUP6 PUSH2 0xCAE JUMP JUMPDEST DUP1 PUSH1 0x0 JUMPDEST DUP6 DUP2 LT ISZERO PUSH2 0xE69 JUMPI DUP5 DUP5 SUB DUP10 MSTORE DUP2 MLOAD PUSH2 0xE4A DUP6 DUP3 PUSH2 0xDE5 JUMP JUMPDEST SWAP5 POP PUSH2 0xE55 DUP4 PUSH2 0xDF9 JUMP JUMPDEST SWAP3 POP PUSH1 0x20 DUP11 ADD SWAP10 POP POP PUSH1 0x1 DUP2 ADD SWAP1 POP PUSH2 0xE31 JUMP JUMPDEST POP DUP3 SWAP8 POP DUP8 SWAP6 POP POP POP POP POP POP SWAP3 SWAP2 POP POP JUMP JUMPDEST PUSH1 0x0 PUSH1 0x20 DUP3 ADD SWAP1 POP DUP2 DUP2 SUB PUSH1 0x0 DUP4 ADD MSTORE PUSH2 0xE95 DUP2 DUP5 PUSH2 0xE06 JUMP JUMPDEST SWAP1 POP SWAP3 SWAP2 POP POP JUMP JUMPDEST PUSH1 0x0 DUP1 REVERT JUMPDEST PUSH2 0xEAB DUP2 PUSH2 0xBCC JUMP JUMPDEST DUP2 EQ PUSH2 0xEB6 JUMPI PUSH1 0x0 DUP1 REVERT JUMPDEST POP JUMP JUMPDEST PUSH1 0x0 DUP2 CALLDATALOAD SWAP1 POP PUSH2 0xEC8 DUP2 PUSH2 0xEA2 JUMP JUMPDEST SWAP3 SWAP2 POP POP JUMP JUMPDEST PUSH1 0x0 PUSH1 0x20 DUP3 DUP5 SUB SLT ISZERO PUSH2 0xEE4 JUMPI PUSH2 0xEE3 PUSH2 0xE9D JUMP JUMPDEST JUMPDEST PUSH1 0x0 PUSH2 0xEF2 DUP5 DUP3 DUP6 ADD PUSH2 0xEB9 JUMP JUMPDEST SWAP2 POP POP SWAP3 SWAP2 POP POP JUMP JUMPDEST PUSH1 0x0 DUP3 DUP3 MSTORE PUSH1 0x20 DUP3 ADD SWAP1 POP SWAP3 SWAP2 POP POP JUMP JUMPDEST PUSH1 0x0 PUSH2 0xF17 DUP3 PUSH2 0xCBE JUMP JUMPDEST PUSH2 0xF21 DUP2 DUP6 PUSH2 0xEFB JUMP JUMPDEST SWAP4 POP PUSH2 0xF2C DUP4 PUSH2 0xCDA JUMP JUMPDEST DUP1 PUSH1 0x0 JUMPDEST DUP4 DUP2 LT ISZERO PUSH2 0xF5D JUMPI DUP2 MLOAD PUSH2 0xF44 DUP9 DUP3 PUSH2 0xD25 JUMP JUMPDEST SWAP8 POP PUSH2 0xF4F DUP4 PUSH2 0xD3D JUMP JUMPDEST SWAP3 POP POP PUSH1 0x1 DUP2 ADD SWAP1 POP PUSH2 0xF30 JUMP JUMPDEST POP DUP6 SWAP4 POP POP POP POP SWAP3 SWAP2 POP POP JUMP JUMPDEST PUSH1 0x0 PUSH1 0x20 DUP3 ADD SWAP1 POP DUP2 DUP2 SUB PUSH1 0x0 DUP4 ADD MSTORE PUSH2 0xF84 DUP2 DUP5 PUSH2 0xF0C JUMP JUMPDEST SWAP1 POP SWAP3 SWAP2 POP POP JUMP JUMPDEST PUSH2 0xF95 DUP2 PUSH2 0xCEA JUMP JUMPDEST DUP2 EQ PUSH2 0xFA0 JUMPI PUSH1 0x0 DUP1 REVERT JUMPDEST POP JUMP JUMPDEST PUSH1 0x0 DUP2 CALLDATALOAD SWAP1 POP PUSH2 0xFB2 DUP2 PUSH2 0xF8C JUMP JUMPDEST SWAP3 SWAP2 POP POP JUMP JUMPDEST PUSH1 0x0 PUSH1 0x20 DUP3 DUP5 SUB SLT ISZERO PUSH2 0xFCE JUMPI PUSH2 0xFCD PUSH2 0xE9D JUMP JUMPDEST JUMPDEST PUSH1 0x0 PUSH2 0xFDC DUP5 DUP3 DUP6 ADD PUSH2 0xFA3 JUMP JUMPDEST SWAP2 POP POP SWAP3 SWAP2 POP POP JUMP JUMPDEST PUSH1 0x0 DUP2 ISZERO ISZERO SWAP1 POP SWAP2 SWAP1 POP JUMP JUMPDEST PUSH2 0xFFA DUP2 PUSH2 0xFE5 JUMP JUMPDEST DUP3 MSTORE POP POP JUMP JUMPDEST PUSH1 0x0 PUSH1 0x20 DUP3 ADD SWAP1 POP PUSH2 0x1015 PUSH1 0x0 DUP4 ADD DUP5 PUSH2 0xFF1 JUMP JUMPDEST SWAP3 SWAP2 POP POP JUMP JUMPDEST PUSH2 0x1024 DUP2 PUSH2 0xBCC JUMP JUMPDEST DUP3 MSTORE POP POP JUMP JUMPDEST PUSH1 0x0 PUSH1 0x20 DUP3 ADD SWAP1 POP PUSH2 0x103F PUSH1 0x0 DUP4 ADD DUP5 PUSH2 0x101B JUMP JUMPDEST SWAP3 SWAP2 POP POP JUMP JUMPDEST PUSH32 0x4E487B7100000000000000000000000000000000000000000000000000000000 PUSH1 0x0 MSTORE PUSH1 0x41 PUSH1 0x4 MSTORE PUSH1 0x24 PUSH1 0x0 REVERT JUMPDEST PUSH32 0x4E487B7100000000000000000000000000000000000000000000000000000000 PUSH1 0x0 MSTORE PUSH1 0x32 PUSH1 0x4 MSTORE PUSH1 0x24 PUSH1 0x0 REVERT JUMPDEST PUSH32 0x4E487B7100000000000000000000000000000000000000000000000000000000 PUSH1 0x0 MSTORE PUSH1 0x11 PUSH1 0x4 MSTORE PUSH1 0x24 PUSH1 0x0 REVERT JUMPDEST PUSH1 0x0 DUP2 SWAP1 POP SWAP2 SWAP1 POP JUMP JUMPDEST PUSH1 0x0 PUSH2 0x10E7 DUP3 PUSH2 0x10D2 JUMP JUMPDEST SWAP2 POP PUSH32 0xFFFFFFFFFFFFFFFFFFFFFFFFFFFFFFFFFFFFFFFFFFFFFFFFFFFFFFFFFFFFFFFF DUP3 SUB PUSH2 0x1119 JUMPI PUSH2 0x1118 PUSH2 0x10A3 JUMP JUMPDEST JUMPDEST PUSH1 0x1 DUP3 ADD SWAP1 POP SWAP2 SWAP1 POP JUMP JUMPDEST PUSH1 0x0 PUSH1 0xFF DUP3 AND SWAP1 POP SWAP2 SWAP1 POP JUMP JUMPDEST PUSH1 0x0 PUSH2 0x113C DUP3 PUSH2 0x1124 JUMP JUMPDEST SWAP2 POP PUSH1 0xFF DUP3 SUB PUSH2 0x114F JUMPI PUSH2 0x114E PUSH2 0x10A3 JUMP JUMPDEST JUMPDEST PUSH1 0x1 DUP3 ADD SWAP1 POP SWAP2 SWAP1 POP JUMP INVALID LOG2 PUSH5 0x6970667358 0x22 SLT KECCAK256 0xAB TIMESTAMP XOR DUP1 0xAE SWAP7 PUSH23 0x65594B46904E00063E4DEAEF757CCEE305429F5CB72EBC SWAP11 DIFFICULTY PUSH5 0x736F6C6343 STOP ADDMOD AND STOP CALLER "
				},
				"gasEstimates": {
					"creation": {
						"codeDepositCost": "899200",
						"executionCost": "935",
						"totalCost": "900135"
					},
					"external": {
						"facetAddress(bytes4)": "3028",
						"facetAddresses()": "infinite",
						"facetFunctionSelectors(address)": "infinite",
						"facets()": "infinite",
						"safeSupportsInterface(bytes4)": "2957"
					}
				},
				"methodIdentifiers": {
					"facetAddress(bytes4)": "cdffacc6",
					"facetAddresses()": "52ef6b2c",
					"facetFunctionSelectors(address)": "adfca15e",
					"facets()": "7a0ed627",
					"safeSupportsInterface(bytes4)": "af8a2625"
				}
			},
			"storageLayout": {
				"storage": [],
				"types": null
			},
			"userdoc": {
				"kind": "user",
				"methods": {
					"facetAddress(bytes4)": {
						"notice": "Gets the facet address that supports the given selector."
					},
					"facetAddresses()": {
						"notice": "Get all the facet addresses used by a diamond."
					},
					"facetFunctionSelectors(address)": {
						"notice": "Gets all the function selectors supported by a specific facet."
					},
					"facets()": {
						"notice": "Gets all facets and their selectors."
					}
				},
				"version": 1
			}
		}
	}
}