{
	"smart contract/SwapCryptoLoanUpdate/contracts/facets/StakingFacet.sol": {
		"StakingFacet": {
			"abi": [
				{
					"anonymous": false,
					"inputs": [
						{
							"indexed": false,
							"internalType": "address",
							"name": "user",
							"type": "address"
						},
						{
							"indexed": false,
							"internalType": "uint256",
							"name": "amount",
							"type": "uint256"
						},
						{
							"indexed": false,
							"internalType": "uint256",
							"name": "time",
							"type": "uint256"
						}
					],
					"name": "Royalty",
					"type": "event"
				},
				{
					"anonymous": false,
					"inputs": [
						{
							"indexed": false,
							"internalType": "address",
							"name": "user",
							"type": "address"
						},
						{
							"indexed": false,
							"internalType": "uint256",
							"name": "amount",
							"type": "uint256"
						},
						{
							"indexed": false,
							"internalType": "uint256",
							"name": "plan",
							"type": "uint256"
						},
						{
							"indexed": false,
							"internalType": "uint256",
							"name": "dailyRoyalty",
							"type": "uint256"
						},
						{
							"indexed": false,
							"internalType": "uint256",
							"name": "totalRoyalty",
							"type": "uint256"
						},
						{
							"indexed": false,
							"internalType": "uint256",
							"name": "time",
							"type": "uint256"
						}
					],
					"name": "Stake",
					"type": "event"
				},
				{
					"anonymous": false,
					"inputs": [
						{
							"indexed": false,
							"internalType": "uint256",
							"name": "dueStake",
							"type": "uint256"
						},
						{
							"indexed": false,
							"internalType": "address",
							"name": "user",
							"type": "address"
						},
						{
							"indexed": false,
							"internalType": "uint256",
							"name": "time",
							"type": "uint256"
						}
					],
					"name": "Unstaked",
					"type": "event"
				},
				{
					"inputs": [],
					"name": "totalStake",
					"outputs": [
						{
							"internalType": "uint256",
							"name": "",
							"type": "uint256"
						}
					],
					"stateMutability": "view",
					"type": "function"
				}
			],
			"devdoc": {
				"kind": "dev",
				"methods": {},
				"version": 1
			},
			"evm": {
				"assembly": "    /* \"smart contract/SwapCryptoLoanUpdate/contracts/facets/StakingFacet.sol\":1010:10742  contract StakingFacet {... */\n  mstore(0x40, 0x80)\n  callvalue\n  dup1\n  iszero\n  tag_1\n  jumpi\n  0x00\n  dup1\n  revert\ntag_1:\n  pop\n  dataSize(sub_0)\n  dup1\n  dataOffset(sub_0)\n  0x00\n  codecopy\n  0x00\n  return\nstop\n\nsub_0: assembly {\n        /* \"smart contract/SwapCryptoLoanUpdate/contracts/facets/StakingFacet.sol\":1010:10742  contract StakingFacet {... */\n      mstore(0x40, 0x80)\n      callvalue\n      dup1\n      iszero\n      tag_1\n      jumpi\n      0x00\n      dup1\n      revert\n    tag_1:\n      pop\n      jumpi(tag_2, lt(calldatasize, 0x04))\n      shr(0xe0, calldataload(0x00))\n      dup1\n      0x8b0e9f3f\n      eq\n      tag_3\n      jumpi\n    tag_2:\n      0x00\n      dup1\n      revert\n        /* \"smart contract/SwapCryptoLoanUpdate/contracts/facets/StakingFacet.sol\":8337:8449  function totalStake() external view returns (uint256) {... */\n    tag_3:\n      tag_4\n      tag_5\n      jump\t// in\n    tag_4:\n      mload(0x40)\n      tag_6\n      swap2\n      swap1\n      tag_7\n      jump\t// in\n    tag_6:\n      mload(0x40)\n      dup1\n      swap2\n      sub\n      swap1\n      return\n    tag_5:\n        /* \"smart contract/SwapCryptoLoanUpdate/contracts/facets/StakingFacet.sol\":8382:8389  uint256 */\n      0x00\n        /* \"smart contract/SwapCryptoLoanUpdate/contracts/facets/StakingFacet.sol\":8409:8441  s.totalStake.sub(s.totalUnStake) */\n      tag_9\n        /* \"smart contract/SwapCryptoLoanUpdate/contracts/facets/StakingFacet.sol\":8426:8427  s */\n      0x00\n        /* \"smart contract/SwapCryptoLoanUpdate/contracts/facets/StakingFacet.sol\":8426:8440  s.totalUnStake */\n      0x25\n      add\n      sload\n        /* \"smart contract/SwapCryptoLoanUpdate/contracts/facets/StakingFacet.sol\":8409:8410  s */\n      0x00\n        /* \"smart contract/SwapCryptoLoanUpdate/contracts/facets/StakingFacet.sol\":8409:8421  s.totalStake */\n      0x23\n      add\n      sload\n        /* \"smart contract/SwapCryptoLoanUpdate/contracts/facets/StakingFacet.sol\":8409:8425  s.totalStake.sub */\n      tag_10\n      swap1\n        /* \"smart contract/SwapCryptoLoanUpdate/contracts/facets/StakingFacet.sol\":8409:8441  s.totalStake.sub(s.totalUnStake) */\n      swap2\n      swap1\n      0xffffffff\n      and\n      jump\t// in\n    tag_9:\n        /* \"smart contract/SwapCryptoLoanUpdate/contracts/facets/StakingFacet.sol\":8401:8442  return (s.totalStake.sub(s.totalUnStake)) */\n      swap1\n      pop\n        /* \"smart contract/SwapCryptoLoanUpdate/contracts/facets/StakingFacet.sol\":8337:8449  function totalStake() external view returns (uint256) {... */\n      swap1\n      jump\t// out\n        /* \"smart contract/SwapCryptoLoanUpdate/contracts/libraries/SafeMath.sol\":3116:3212  function sub(uint256 a, uint256 b) internal pure returns (uint256) {... */\n    tag_10:\n        /* \"smart contract/SwapCryptoLoanUpdate/contracts/libraries/SafeMath.sol\":3174:3181  uint256 */\n      0x00\n        /* \"smart contract/SwapCryptoLoanUpdate/contracts/libraries/SafeMath.sol\":3204:3205  b */\n      dup2\n        /* \"smart contract/SwapCryptoLoanUpdate/contracts/libraries/SafeMath.sol\":3200:3201  a */\n      dup4\n        /* \"smart contract/SwapCryptoLoanUpdate/contracts/libraries/SafeMath.sol\":3200:3205  a - b */\n      tag_12\n      swap2\n      swap1\n      tag_13\n      jump\t// in\n    tag_12:\n        /* \"smart contract/SwapCryptoLoanUpdate/contracts/libraries/SafeMath.sol\":3193:3205  return a - b */\n      swap1\n      pop\n        /* \"smart contract/SwapCryptoLoanUpdate/contracts/libraries/SafeMath.sol\":3116:3212  function sub(uint256 a, uint256 b) internal pure returns (uint256) {... */\n      swap3\n      swap2\n      pop\n      pop\n      jump\t// out\n        /* \"#utility.yul\":7:84   */\n    tag_14:\n        /* \"#utility.yul\":44:51   */\n      0x00\n        /* \"#utility.yul\":73:78   */\n      dup2\n        /* \"#utility.yul\":62:78   */\n      swap1\n      pop\n        /* \"#utility.yul\":7:84   */\n      swap2\n      swap1\n      pop\n      jump\t// out\n        /* \"#utility.yul\":90:208   */\n    tag_15:\n        /* \"#utility.yul\":177:201   */\n      tag_20\n        /* \"#utility.yul\":195:200   */\n      dup2\n        /* \"#utility.yul\":177:201   */\n      tag_14\n      jump\t// in\n    tag_20:\n        /* \"#utility.yul\":172:175   */\n      dup3\n        /* \"#utility.yul\":165:202   */\n      mstore\n        /* \"#utility.yul\":90:208   */\n      pop\n      pop\n      jump\t// out\n        /* \"#utility.yul\":214:436   */\n    tag_7:\n        /* \"#utility.yul\":307:311   */\n      0x00\n        /* \"#utility.yul\":345:347   */\n      0x20\n        /* \"#utility.yul\":334:343   */\n      dup3\n        /* \"#utility.yul\":330:348   */\n      add\n        /* \"#utility.yul\":322:348   */\n      swap1\n      pop\n        /* \"#utility.yul\":358:429   */\n      tag_22\n        /* \"#utility.yul\":426:427   */\n      0x00\n        /* \"#utility.yul\":415:424   */\n      dup4\n        /* \"#utility.yul\":411:428   */\n      add\n        /* \"#utility.yul\":402:408   */\n      dup5\n        /* \"#utility.yul\":358:429   */\n      tag_15\n      jump\t// in\n    tag_22:\n        /* \"#utility.yul\":214:436   */\n      swap3\n      swap2\n      pop\n      pop\n      jump\t// out\n        /* \"#utility.yul\":442:622   */\n    tag_16:\n        /* \"#utility.yul\":490:567   */\n      0x4e487b7100000000000000000000000000000000000000000000000000000000\n        /* \"#utility.yul\":487:488   */\n      0x00\n        /* \"#utility.yul\":480:568   */\n      mstore\n        /* \"#utility.yul\":587:591   */\n      0x11\n        /* \"#utility.yul\":584:585   */\n      0x04\n        /* \"#utility.yul\":577:592   */\n      mstore\n        /* \"#utility.yul\":611:615   */\n      0x24\n        /* \"#utility.yul\":608:609   */\n      0x00\n        /* \"#utility.yul\":601:616   */\n      revert\n        /* \"#utility.yul\":628:822   */\n    tag_13:\n        /* \"#utility.yul\":668:672   */\n      0x00\n        /* \"#utility.yul\":688:708   */\n      tag_25\n        /* \"#utility.yul\":706:707   */\n      dup3\n        /* \"#utility.yul\":688:708   */\n      tag_14\n      jump\t// in\n    tag_25:\n        /* \"#utility.yul\":683:708   */\n      swap2\n      pop\n        /* \"#utility.yul\":722:742   */\n      tag_26\n        /* \"#utility.yul\":740:741   */\n      dup4\n        /* \"#utility.yul\":722:742   */\n      tag_14\n      jump\t// in\n    tag_26:\n        /* \"#utility.yul\":717:742   */\n      swap3\n      pop\n        /* \"#utility.yul\":766:767   */\n      dup3\n        /* \"#utility.yul\":763:764   */\n      dup3\n        /* \"#utility.yul\":759:768   */\n      sub\n        /* \"#utility.yul\":751:768   */\n      swap1\n      pop\n        /* \"#utility.yul\":790:791   */\n      dup2\n        /* \"#utility.yul\":784:788   */\n      dup2\n        /* \"#utility.yul\":781:792   */\n      gt\n        /* \"#utility.yul\":778:815   */\n      iszero\n      tag_27\n      jumpi\n        /* \"#utility.yul\":795:813   */\n      tag_28\n      tag_16\n      jump\t// in\n    tag_28:\n        /* \"#utility.yul\":778:815   */\n    tag_27:\n        /* \"#utility.yul\":628:822   */\n      swap3\n      swap2\n      pop\n      pop\n      jump\t// out\n\n    auxdata: 0xa2646970667358221220477912b516e75568017ff22a3bbdb97087e5cdc61e2dd1c9c34b78d4c4a752d964736f6c63430008120033\n}\n",
				"bytecode": {
					"linkReferences": {},
					"object": "608060405234801561001057600080fd5b50610155806100206000396000f3fe608060405234801561001057600080fd5b506004361061002b5760003560e01c80638b0e9f3f14610030575b600080fd5b61003861004e565b60405161004591906100a1565b60405180910390f35b600061006d60006025015460006023015461007290919063ffffffff16565b905090565b6000818361008091906100eb565b905092915050565b6000819050919050565b61009b81610088565b82525050565b60006020820190506100b66000830184610092565b92915050565b7f4e487b7100000000000000000000000000000000000000000000000000000000600052601160045260246000fd5b60006100f682610088565b915061010183610088565b9250828203905081811115610119576101186100bc565b5b9291505056fea2646970667358221220477912b516e75568017ff22a3bbdb97087e5cdc61e2dd1c9c34b78d4c4a752d964736f6c63430008120033",
					"opcodes": "PUSH1 0x80 PUSH1 0x40 MSTORE CALLVALUE DUP1 ISZERO PUSH2 0x10 JUMPI PUSH1 0x0 DUP1 REVERT JUMPDEST POP PUSH2 0x155 DUP1 PUSH2 0x20 PUSH1 0x0 CODECOPY PUSH1 0x0 RETURN INVALID PUSH1 0x80 PUSH1 0x40 MSTORE CALLVALUE DUP1 ISZERO PUSH2 0x10 JUMPI PUSH1 0x0 DUP1 REVERT JUMPDEST POP PUSH1 0x4 CALLDATASIZE LT PUSH2 0x2B JUMPI PUSH1 0x0 CALLDATALOAD PUSH1 0xE0 SHR DUP1 PUSH4 0x8B0E9F3F EQ PUSH2 0x30 JUMPI JUMPDEST PUSH1 0x0 DUP1 REVERT JUMPDEST PUSH2 0x38 PUSH2 0x4E JUMP JUMPDEST PUSH1 0x40 MLOAD PUSH2 0x45 SWAP2 SWAP1 PUSH2 0xA1 JUMP JUMPDEST PUSH1 0x40 MLOAD DUP1 SWAP2 SUB SWAP1 RETURN JUMPDEST PUSH1 0x0 PUSH2 0x6D PUSH1 0x0 PUSH1 0x25 ADD SLOAD PUSH1 0x0 PUSH1 0x23 ADD SLOAD PUSH2 0x72 SWAP1 SWAP2 SWAP1 PUSH4 0xFFFFFFFF AND JUMP JUMPDEST SWAP1 POP SWAP1 JUMP JUMPDEST PUSH1 0x0 DUP2 DUP4 PUSH2 0x80 SWAP2 SWAP1 PUSH2 0xEB JUMP JUMPDEST SWAP1 POP SWAP3 SWAP2 POP POP JUMP JUMPDEST PUSH1 0x0 DUP2 SWAP1 POP SWAP2 SWAP1 POP JUMP JUMPDEST PUSH2 0x9B DUP2 PUSH2 0x88 JUMP JUMPDEST DUP3 MSTORE POP POP JUMP JUMPDEST PUSH1 0x0 PUSH1 0x20 DUP3 ADD SWAP1 POP PUSH2 0xB6 PUSH1 0x0 DUP4 ADD DUP5 PUSH2 0x92 JUMP JUMPDEST SWAP3 SWAP2 POP POP JUMP JUMPDEST PUSH32 0x4E487B7100000000000000000000000000000000000000000000000000000000 PUSH1 0x0 MSTORE PUSH1 0x11 PUSH1 0x4 MSTORE PUSH1 0x24 PUSH1 0x0 REVERT JUMPDEST PUSH1 0x0 PUSH2 0xF6 DUP3 PUSH2 0x88 JUMP JUMPDEST SWAP2 POP PUSH2 0x101 DUP4 PUSH2 0x88 JUMP JUMPDEST SWAP3 POP DUP3 DUP3 SUB SWAP1 POP DUP2 DUP2 GT ISZERO PUSH2 0x119 JUMPI PUSH2 0x118 PUSH2 0xBC JUMP JUMPDEST JUMPDEST SWAP3 SWAP2 POP POP JUMP INVALID LOG2 PUSH5 0x6970667358 0x22 SLT KECCAK256 SELFBALANCE PUSH26 0x12B516E75568017FF22A3BBDB97087E5CDC61E2DD1C9C34B78D4 0xC4 0xA7 MSTORE 0xD9 PUSH5 0x736F6C6343 STOP ADDMOD SLT STOP CALLER "
				},
				"gasEstimates": {
					"creation": {
						"codeDepositCost": "68200",
						"executionCost": "117",
						"totalCost": "68317"
					},
					"external": {
						"totalStake()": "infinite"
					},
					"internal": {
						"_msgSender()": "infinite"
					}
				},
				"methodIdentifiers": {
					"totalStake()": "8b0e9f3f"
				}
			},
			"storageLayout": {
				"storage": [
					{
						"astId": 301,
						"contract": "smart contract/SwapCryptoLoanUpdate/contracts/facets/StakingFacet.sol:StakingFacet",
						"label": "s",
						"offset": 0,
						"slot": "0",
						"type": "t_struct(AppStorage)223_storage"
					}
				],
				"types": {
					"t_address": {
						"encoding": "inplace",
						"label": "address",
						"numberOfBytes": "20"
					},
					"t_array(t_address)dyn_storage": {
						"base": "t_address",
						"encoding": "dynamic_array",
						"label": "address[]",
						"numberOfBytes": "32"
					},
					"t_bool": {
						"encoding": "inplace",
						"label": "bool",
						"numberOfBytes": "1"
					},
					"t_bytes_memory_ptr": {
						"encoding": "bytes",
						"label": "bytes",
						"numberOfBytes": "32"
					},
					"t_bytes_storage": {
						"encoding": "bytes",
						"label": "bytes",
						"numberOfBytes": "32"
					},
					"t_mapping(t_address,t_address)": {
						"encoding": "mapping",
						"key": "t_address",
						"label": "mapping(address => address)",
						"numberOfBytes": "32",
						"value": "t_address"
					},
					"t_mapping(t_address,t_array(t_address)dyn_storage)": {
						"encoding": "mapping",
						"key": "t_address",
						"label": "mapping(address => address[])",
						"numberOfBytes": "32",
						"value": "t_array(t_address)dyn_storage"
					},
					"t_mapping(t_address,t_bool)": {
						"encoding": "mapping",
						"key": "t_address",
						"label": "mapping(address => bool)",
						"numberOfBytes": "32",
						"value": "t_bool"
					},
					"t_mapping(t_address,t_bytes_storage)": {
						"encoding": "mapping",
						"key": "t_address",
						"label": "mapping(address => bytes)",
						"numberOfBytes": "32",
						"value": "t_bytes_storage"
					},
					"t_mapping(t_address,t_mapping(t_bool,t_uint256))": {
						"encoding": "mapping",
						"key": "t_address",
						"label": "mapping(address => mapping(bool => uint256))",
						"numberOfBytes": "32",
						"value": "t_mapping(t_bool,t_uint256)"
					},
					"t_mapping(t_address,t_uint256)": {
						"encoding": "mapping",
						"key": "t_address",
						"label": "mapping(address => uint256)",
						"numberOfBytes": "32",
						"value": "t_uint256"
					},
					"t_mapping(t_bool,t_uint256)": {
						"encoding": "mapping",
						"key": "t_bool",
						"label": "mapping(bool => uint256)",
						"numberOfBytes": "32",
						"value": "t_uint256"
					},
					"t_mapping(t_bytes_memory_ptr,t_address)": {
						"encoding": "mapping",
						"key": "t_bytes_memory_ptr",
						"label": "mapping(bytes => address)",
						"numberOfBytes": "32",
						"value": "t_address"
					},
					"t_mapping(t_bytes_memory_ptr,t_bool)": {
						"encoding": "mapping",
						"key": "t_bytes_memory_ptr",
						"label": "mapping(bytes => bool)",
						"numberOfBytes": "32",
						"value": "t_bool"
					},
					"t_mapping(t_bytes_memory_ptr,t_mapping(t_address,t_uint256))": {
						"encoding": "mapping",
						"key": "t_bytes_memory_ptr",
						"label": "mapping(bytes => mapping(address => uint256))",
						"numberOfBytes": "32",
						"value": "t_mapping(t_address,t_uint256)"
					},
					"t_mapping(t_bytes_memory_ptr,t_uint256)": {
						"encoding": "mapping",
						"key": "t_bytes_memory_ptr",
						"label": "mapping(bytes => uint256)",
						"numberOfBytes": "32",
						"value": "t_uint256"
					},
					"t_mapping(t_uint256,t_address)": {
						"encoding": "mapping",
						"key": "t_uint256",
						"label": "mapping(uint256 => address)",
						"numberOfBytes": "32",
						"value": "t_address"
					},
					"t_mapping(t_uint256,t_mapping(t_address,t_bool))": {
						"encoding": "mapping",
						"key": "t_uint256",
						"label": "mapping(uint256 => mapping(address => bool))",
						"numberOfBytes": "32",
						"value": "t_mapping(t_address,t_bool)"
					},
					"t_mapping(t_uint256,t_mapping(t_address,t_uint256))": {
						"encoding": "mapping",
						"key": "t_uint256",
						"label": "mapping(uint256 => mapping(address => uint256))",
						"numberOfBytes": "32",
						"value": "t_mapping(t_address,t_uint256)"
					},
					"t_mapping(t_uint256,t_mapping(t_uint256,t_address))": {
						"encoding": "mapping",
						"key": "t_uint256",
						"label": "mapping(uint256 => mapping(uint256 => address))",
						"numberOfBytes": "32",
						"value": "t_mapping(t_uint256,t_address)"
					},
					"t_mapping(t_uint256,t_mapping(t_uint256,t_uint256))": {
						"encoding": "mapping",
						"key": "t_uint256",
						"label": "mapping(uint256 => mapping(uint256 => uint256))",
						"numberOfBytes": "32",
						"value": "t_mapping(t_uint256,t_uint256)"
					},
					"t_mapping(t_uint256,t_uint256)": {
						"encoding": "mapping",
						"key": "t_uint256",
						"label": "mapping(uint256 => uint256)",
						"numberOfBytes": "32",
						"value": "t_uint256"
					},
					"t_struct(AppStorage)223_storage": {
						"encoding": "inplace",
						"label": "struct AppStorage",
						"members": [
							{
								"astId": 5,
								"contract": "smart contract/SwapCryptoLoanUpdate/contracts/facets/StakingFacet.sol:StakingFacet",
								"label": "ticker",
								"offset": 0,
								"slot": "0",
								"type": "t_mapping(t_bytes_memory_ptr,t_uint256)"
							},
							{
								"astId": 9,
								"contract": "smart contract/SwapCryptoLoanUpdate/contracts/facets/StakingFacet.sol:StakingFacet",
								"label": "pythia",
								"offset": 0,
								"slot": "1",
								"type": "t_mapping(t_address,t_bool)"
							},
							{
								"astId": 14,
								"contract": "smart contract/SwapCryptoLoanUpdate/contracts/facets/StakingFacet.sol:StakingFacet",
								"label": "myReferrals",
								"offset": 0,
								"slot": "2",
								"type": "t_mapping(t_address,t_array(t_address)dyn_storage)"
							},
							{
								"astId": 18,
								"contract": "smart contract/SwapCryptoLoanUpdate/contracts/facets/StakingFacet.sol:StakingFacet",
								"label": "staffId",
								"offset": 0,
								"slot": "3",
								"type": "t_mapping(t_address,t_uint256)"
							},
							{
								"astId": 20,
								"contract": "smart contract/SwapCryptoLoanUpdate/contracts/facets/StakingFacet.sol:StakingFacet",
								"label": "eusdAddr",
								"offset": 0,
								"slot": "4",
								"type": "t_address"
							},
							{
								"astId": 22,
								"contract": "smart contract/SwapCryptoLoanUpdate/contracts/facets/StakingFacet.sol:StakingFacet",
								"label": "egcAddr",
								"offset": 0,
								"slot": "5",
								"type": "t_address"
							},
							{
								"astId": 24,
								"contract": "smart contract/SwapCryptoLoanUpdate/contracts/facets/StakingFacet.sol:StakingFacet",
								"label": "egcusd",
								"offset": 0,
								"slot": "6",
								"type": "t_bytes_storage"
							},
							{
								"astId": 28,
								"contract": "smart contract/SwapCryptoLoanUpdate/contracts/facets/StakingFacet.sol:StakingFacet",
								"label": "member",
								"offset": 0,
								"slot": "7",
								"type": "t_mapping(t_address,t_bool)"
							},
							{
								"astId": 32,
								"contract": "smart contract/SwapCryptoLoanUpdate/contracts/facets/StakingFacet.sol:StakingFacet",
								"label": "plan",
								"offset": 0,
								"slot": "8",
								"type": "t_mapping(t_uint256,t_uint256)"
							},
							{
								"astId": 36,
								"contract": "smart contract/SwapCryptoLoanUpdate/contracts/facets/StakingFacet.sol:StakingFacet",
								"label": "stakingPlan",
								"offset": 0,
								"slot": "9",
								"type": "t_mapping(t_uint256,t_uint256)"
							},
							{
								"astId": 40,
								"contract": "smart contract/SwapCryptoLoanUpdate/contracts/facets/StakingFacet.sol:StakingFacet",
								"label": "expiryDate",
								"offset": 0,
								"slot": "10",
								"type": "t_mapping(t_address,t_uint256)"
							},
							{
								"astId": 44,
								"contract": "smart contract/SwapCryptoLoanUpdate/contracts/facets/StakingFacet.sol:StakingFacet",
								"label": "userTotalStake",
								"offset": 0,
								"slot": "11",
								"type": "t_mapping(t_address,t_uint256)"
							},
							{
								"astId": 48,
								"contract": "smart contract/SwapCryptoLoanUpdate/contracts/facets/StakingFacet.sol:StakingFacet",
								"label": "userTotalStakeUsd",
								"offset": 0,
								"slot": "12",
								"type": "t_mapping(t_address,t_uint256)"
							},
							{
								"astId": 52,
								"contract": "smart contract/SwapCryptoLoanUpdate/contracts/facets/StakingFacet.sol:StakingFacet",
								"label": "dailyRoyalty",
								"offset": 0,
								"slot": "13",
								"type": "t_mapping(t_address,t_uint256)"
							},
							{
								"astId": 56,
								"contract": "smart contract/SwapCryptoLoanUpdate/contracts/facets/StakingFacet.sol:StakingFacet",
								"label": "lockPeriod",
								"offset": 0,
								"slot": "14",
								"type": "t_mapping(t_address,t_uint256)"
							},
							{
								"astId": 60,
								"contract": "smart contract/SwapCryptoLoanUpdate/contracts/facets/StakingFacet.sol:StakingFacet",
								"label": "nextRoyaltyTakePeriod",
								"offset": 0,
								"slot": "15",
								"type": "t_mapping(t_address,t_uint256)"
							},
							{
								"astId": 64,
								"contract": "smart contract/SwapCryptoLoanUpdate/contracts/facets/StakingFacet.sol:StakingFacet",
								"label": "totalRoyaltyTaken",
								"offset": 0,
								"slot": "16",
								"type": "t_mapping(t_address,t_uint256)"
							},
							{
								"astId": 70,
								"contract": "smart contract/SwapCryptoLoanUpdate/contracts/facets/StakingFacet.sol:StakingFacet",
								"label": "userTotalSwap",
								"offset": 0,
								"slot": "17",
								"type": "t_mapping(t_address,t_mapping(t_bool,t_uint256))"
							},
							{
								"astId": 74,
								"contract": "smart contract/SwapCryptoLoanUpdate/contracts/facets/StakingFacet.sol:StakingFacet",
								"label": "totalSwap",
								"offset": 0,
								"slot": "18",
								"type": "t_mapping(t_bool,t_uint256)"
							},
							{
								"astId": 76,
								"contract": "smart contract/SwapCryptoLoanUpdate/contracts/facets/StakingFacet.sol:StakingFacet",
								"label": "_priceOracle",
								"offset": 0,
								"slot": "19",
								"type": "t_address"
							},
							{
								"astId": 78,
								"contract": "smart contract/SwapCryptoLoanUpdate/contracts/facets/StakingFacet.sol:StakingFacet",
								"label": "_price",
								"offset": 0,
								"slot": "20",
								"type": "t_bytes_storage"
							},
							{
								"astId": 80,
								"contract": "smart contract/SwapCryptoLoanUpdate/contracts/facets/StakingFacet.sol:StakingFacet",
								"label": "nextSpillIndex",
								"offset": 0,
								"slot": "21",
								"type": "t_uint256"
							},
							{
								"astId": 84,
								"contract": "smart contract/SwapCryptoLoanUpdate/contracts/facets/StakingFacet.sol:StakingFacet",
								"label": "referredBy",
								"offset": 0,
								"slot": "22",
								"type": "t_mapping(t_address,t_address)"
							},
							{
								"astId": 88,
								"contract": "smart contract/SwapCryptoLoanUpdate/contracts/facets/StakingFacet.sol:StakingFacet",
								"label": "referralRewardBalance",
								"offset": 0,
								"slot": "23",
								"type": "t_mapping(t_address,t_uint256)"
							},
							{
								"astId": 92,
								"contract": "smart contract/SwapCryptoLoanUpdate/contracts/facets/StakingFacet.sol:StakingFacet",
								"label": "referralCount",
								"offset": 0,
								"slot": "24",
								"type": "t_mapping(t_address,t_uint256)"
							},
							{
								"astId": 96,
								"contract": "smart contract/SwapCryptoLoanUpdate/contracts/facets/StakingFacet.sol:StakingFacet",
								"label": "alreadyMember",
								"offset": 0,
								"slot": "25",
								"type": "t_mapping(t_address,t_bool)"
							},
							{
								"astId": 98,
								"contract": "smart contract/SwapCryptoLoanUpdate/contracts/facets/StakingFacet.sol:StakingFacet",
								"label": "referralBurnBalance",
								"offset": 0,
								"slot": "26",
								"type": "t_uint256"
							},
							{
								"astId": 102,
								"contract": "smart contract/SwapCryptoLoanUpdate/contracts/facets/StakingFacet.sol:StakingFacet",
								"label": "referralLink",
								"offset": 0,
								"slot": "27",
								"type": "t_mapping(t_address,t_bytes_storage)"
							},
							{
								"astId": 106,
								"contract": "smart contract/SwapCryptoLoanUpdate/contracts/facets/StakingFacet.sol:StakingFacet",
								"label": "referralAddress",
								"offset": 0,
								"slot": "28",
								"type": "t_mapping(t_bytes_memory_ptr,t_address)"
							},
							{
								"astId": 110,
								"contract": "smart contract/SwapCryptoLoanUpdate/contracts/facets/StakingFacet.sol:StakingFacet",
								"label": "token_address",
								"offset": 0,
								"slot": "29",
								"type": "t_mapping(t_bytes_memory_ptr,t_address)"
							},
							{
								"astId": 114,
								"contract": "smart contract/SwapCryptoLoanUpdate/contracts/facets/StakingFacet.sol:StakingFacet",
								"label": "fee",
								"offset": 0,
								"slot": "30",
								"type": "t_mapping(t_bytes_memory_ptr,t_uint256)"
							},
							{
								"astId": 118,
								"contract": "smart contract/SwapCryptoLoanUpdate/contracts/facets/StakingFacet.sol:StakingFacet",
								"label": "isListed",
								"offset": 0,
								"slot": "31",
								"type": "t_mapping(t_bytes_memory_ptr,t_bool)"
							},
							{
								"astId": 124,
								"contract": "smart contract/SwapCryptoLoanUpdate/contracts/facets/StakingFacet.sol:StakingFacet",
								"label": "liquidity",
								"offset": 0,
								"slot": "32",
								"type": "t_mapping(t_bytes_memory_ptr,t_mapping(t_address,t_uint256))"
							},
							{
								"astId": 130,
								"contract": "smart contract/SwapCryptoLoanUpdate/contracts/facets/StakingFacet.sol:StakingFacet",
								"label": "soldProductAmount",
								"offset": 0,
								"slot": "33",
								"type": "t_mapping(t_uint256,t_mapping(t_uint256,t_uint256))"
							},
							{
								"astId": 136,
								"contract": "smart contract/SwapCryptoLoanUpdate/contracts/facets/StakingFacet.sol:StakingFacet",
								"label": "soldProductBuyer",
								"offset": 0,
								"slot": "34",
								"type": "t_mapping(t_uint256,t_mapping(t_uint256,t_address))"
							},
							{
								"astId": 138,
								"contract": "smart contract/SwapCryptoLoanUpdate/contracts/facets/StakingFacet.sol:StakingFacet",
								"label": "totalStake",
								"offset": 0,
								"slot": "35",
								"type": "t_uint256"
							},
							{
								"astId": 140,
								"contract": "smart contract/SwapCryptoLoanUpdate/contracts/facets/StakingFacet.sol:StakingFacet",
								"label": "totalPenaltyStake",
								"offset": 0,
								"slot": "36",
								"type": "t_uint256"
							},
							{
								"astId": 142,
								"contract": "smart contract/SwapCryptoLoanUpdate/contracts/facets/StakingFacet.sol:StakingFacet",
								"label": "totalUnStake",
								"offset": 0,
								"slot": "37",
								"type": "t_uint256"
							},
							{
								"astId": 144,
								"contract": "smart contract/SwapCryptoLoanUpdate/contracts/facets/StakingFacet.sol:StakingFacet",
								"label": "initProductCount",
								"offset": 0,
								"slot": "38",
								"type": "t_uint256"
							},
							{
								"astId": 150,
								"contract": "smart contract/SwapCryptoLoanUpdate/contracts/facets/StakingFacet.sol:StakingFacet",
								"label": "userActivity",
								"offset": 0,
								"slot": "39",
								"type": "t_mapping(t_uint256,t_mapping(t_address,t_uint256))"
							},
							{
								"astId": 154,
								"contract": "smart contract/SwapCryptoLoanUpdate/contracts/facets/StakingFacet.sol:StakingFacet",
								"label": "allUserActivity",
								"offset": 0,
								"slot": "40",
								"type": "t_mapping(t_address,t_uint256)"
							},
							{
								"astId": 158,
								"contract": "smart contract/SwapCryptoLoanUpdate/contracts/facets/StakingFacet.sol:StakingFacet",
								"label": "currentAllActivity",
								"offset": 0,
								"slot": "41",
								"type": "t_mapping(t_uint256,t_uint256)"
							},
							{
								"astId": 160,
								"contract": "smart contract/SwapCryptoLoanUpdate/contracts/facets/StakingFacet.sol:StakingFacet",
								"label": "allActivity",
								"offset": 0,
								"slot": "42",
								"type": "t_uint256"
							},
							{
								"astId": 162,
								"contract": "smart contract/SwapCryptoLoanUpdate/contracts/facets/StakingFacet.sol:StakingFacet",
								"label": "rewardPeriod",
								"offset": 0,
								"slot": "43",
								"type": "t_uint256"
							},
							{
								"astId": 164,
								"contract": "smart contract/SwapCryptoLoanUpdate/contracts/facets/StakingFacet.sol:StakingFacet",
								"label": "nextRewardPeriod",
								"offset": 0,
								"slot": "44",
								"type": "t_uint256"
							},
							{
								"astId": 170,
								"contract": "smart contract/SwapCryptoLoanUpdate/contracts/facets/StakingFacet.sol:StakingFacet",
								"label": "currentPerfomers",
								"offset": 0,
								"slot": "45",
								"type": "t_mapping(t_uint256,t_mapping(t_address,t_bool))"
							},
							{
								"astId": 172,
								"contract": "smart contract/SwapCryptoLoanUpdate/contracts/facets/StakingFacet.sol:StakingFacet",
								"label": "totalRewardTokenRemaining",
								"offset": 0,
								"slot": "46",
								"type": "t_uint256"
							},
							{
								"astId": 174,
								"contract": "smart contract/SwapCryptoLoanUpdate/contracts/facets/StakingFacet.sol:StakingFacet",
								"label": "totalRewardDistributed",
								"offset": 0,
								"slot": "47",
								"type": "t_uint256"
							},
							{
								"astId": 178,
								"contract": "smart contract/SwapCryptoLoanUpdate/contracts/facets/StakingFacet.sol:StakingFacet",
								"label": "userTotalRewardRecieved",
								"offset": 0,
								"slot": "48",
								"type": "t_mapping(t_address,t_uint256)"
							},
							{
								"astId": 182,
								"contract": "smart contract/SwapCryptoLoanUpdate/contracts/facets/StakingFacet.sol:StakingFacet",
								"label": "lockedRewardForStaking",
								"offset": 0,
								"slot": "49",
								"type": "t_mapping(t_address,t_uint256)"
							},
							{
								"astId": 184,
								"contract": "smart contract/SwapCryptoLoanUpdate/contracts/facets/StakingFacet.sol:StakingFacet",
								"label": "stakingPlanForSixMonths",
								"offset": 0,
								"slot": "50",
								"type": "t_uint256"
							},
							{
								"astId": 188,
								"contract": "smart contract/SwapCryptoLoanUpdate/contracts/facets/StakingFacet.sol:StakingFacet",
								"label": "dealersPlan",
								"offset": 0,
								"slot": "51",
								"type": "t_mapping(t_uint256,t_uint256)"
							},
							{
								"astId": 190,
								"contract": "smart contract/SwapCryptoLoanUpdate/contracts/facets/StakingFacet.sol:StakingFacet",
								"label": "_token_addres",
								"offset": 0,
								"slot": "52",
								"type": "t_address"
							},
							{
								"astId": 194,
								"contract": "smart contract/SwapCryptoLoanUpdate/contracts/facets/StakingFacet.sol:StakingFacet",
								"label": "dealerExpiryDate",
								"offset": 0,
								"slot": "53",
								"type": "t_mapping(t_address,t_uint256)"
							},
							{
								"astId": 198,
								"contract": "smart contract/SwapCryptoLoanUpdate/contracts/facets/StakingFacet.sol:StakingFacet",
								"label": "isADealer",
								"offset": 0,
								"slot": "54",
								"type": "t_mapping(t_address,t_bool)"
							},
							{
								"astId": 202,
								"contract": "smart contract/SwapCryptoLoanUpdate/contracts/facets/StakingFacet.sol:StakingFacet",
								"label": "dealerPlan",
								"offset": 0,
								"slot": "55",
								"type": "t_mapping(t_address,t_uint256)"
							},
							{
								"astId": 204,
								"contract": "smart contract/SwapCryptoLoanUpdate/contracts/facets/StakingFacet.sol:StakingFacet",
								"label": "dealerSubcriptionCollector",
								"offset": 0,
								"slot": "56",
								"type": "t_address"
							},
							{
								"astId": 208,
								"contract": "smart contract/SwapCryptoLoanUpdate/contracts/facets/StakingFacet.sol:StakingFacet",
								"label": "referralDealerRewardBalance",
								"offset": 0,
								"slot": "57",
								"type": "t_mapping(t_address,t_uint256)"
							},
							{
								"astId": 210,
								"contract": "smart contract/SwapCryptoLoanUpdate/contracts/facets/StakingFacet.sol:StakingFacet",
								"label": "dealerSubcriptionCollectorBalance",
								"offset": 0,
								"slot": "58",
								"type": "t_uint256"
							},
							{
								"astId": 214,
								"contract": "smart contract/SwapCryptoLoanUpdate/contracts/facets/StakingFacet.sol:StakingFacet",
								"label": "deallerReferredBy",
								"offset": 0,
								"slot": "59",
								"type": "t_mapping(t_address,t_address)"
							},
							{
								"astId": 218,
								"contract": "smart contract/SwapCryptoLoanUpdate/contracts/facets/StakingFacet.sol:StakingFacet",
								"label": "deallerReferralCount",
								"offset": 0,
								"slot": "60",
								"type": "t_mapping(t_address,t_uint256)"
							},
							{
								"astId": 220,
								"contract": "smart contract/SwapCryptoLoanUpdate/contracts/facets/StakingFacet.sol:StakingFacet",
								"label": "naira",
								"offset": 0,
								"slot": "61",
								"type": "t_bytes_storage"
							},
							{
								"astId": 222,
								"contract": "smart contract/SwapCryptoLoanUpdate/contracts/facets/StakingFacet.sol:StakingFacet",
								"label": "totalProcurementAmount",
								"offset": 0,
								"slot": "62",
								"type": "t_uint256"
							}
						],
						"numberOfBytes": "2016"
					},
					"t_uint256": {
						"encoding": "inplace",
						"label": "uint256",
						"numberOfBytes": "32"
					}
				}
			},
			"userdoc": {
				"kind": "user",
				"methods": {},
				"version": 1
			}
		}
	}
}