{
	"smart contract/SwapCryptoLoanUpdate/contracts/facets/DiamondCutFacet.sol": {
		"DiamondCutFacet": {
			"abi": [
				{
					"anonymous": false,
					"inputs": [
						{
							"components": [
								{
									"internalType": "address",
									"name": "facetAddress",
									"type": "address"
								},
								{
									"internalType": "enum IDiamondCut.FacetCutAction",
									"name": "action",
									"type": "uint8"
								},
								{
									"internalType": "bytes4[]",
									"name": "functionSelectors",
									"type": "bytes4[]"
								}
							],
							"indexed": false,
							"internalType": "struct IDiamondCut.FacetCut[]",
							"name": "_diamondCut",
							"type": "tuple[]"
						},
						{
							"indexed": false,
							"internalType": "address",
							"name": "_init",
							"type": "address"
						},
						{
							"indexed": false,
							"internalType": "bytes",
							"name": "_calldata",
							"type": "bytes"
						}
					],
					"name": "DiamondCut",
					"type": "event"
				},
				{
					"inputs": [
						{
							"components": [
								{
									"internalType": "address",
									"name": "facetAddress",
									"type": "address"
								},
								{
									"internalType": "enum IDiamondCut.FacetCutAction",
									"name": "action",
									"type": "uint8"
								},
								{
									"internalType": "bytes4[]",
									"name": "functionSelectors",
									"type": "bytes4[]"
								}
							],
							"internalType": "struct IDiamondCut.FacetCut[]",
							"name": "_diamondCut",
							"type": "tuple[]"
						},
						{
							"internalType": "address",
							"name": "_init",
							"type": "address"
						},
						{
							"internalType": "bytes",
							"name": "_calldata",
							"type": "bytes"
						}
					],
					"name": "diamondCut",
					"outputs": [],
					"stateMutability": "nonpayable",
					"type": "function"
				}
			],
			"devdoc": {
				"kind": "dev",
				"methods": {
					"diamondCut((address,uint8,bytes4[])[],address,bytes)": {
						"params": {
							"_calldata": "A function call, including function selector and arguments                  _calldata is executed with delegatecall on _init",
							"_diamondCut": "Contains the facet addresses and function selectors",
							"_init": "The address of the contract or facet to execute _calldata"
						}
					}
				},
				"version": 1
			},
			"evm": {
				"assembly": "    /* \"smart contract/SwapCryptoLoanUpdate/contracts/facets/DiamondCutFacet.sol\":492:1239  contract DiamondCutFacet is IDiamondCut {... */\n  mstore(0x40, 0x80)\n  callvalue\n  dup1\n  iszero\n  tag_1\n  jumpi\n  0x00\n  dup1\n  revert\ntag_1:\n  pop\n  dataSize(sub_0)\n  dup1\n  dataOffset(sub_0)\n  0x00\n  codecopy\n  0x00\n  return\nstop\n\nsub_0: assembly {\n        /* \"smart contract/SwapCryptoLoanUpdate/contracts/facets/DiamondCutFacet.sol\":492:1239  contract DiamondCutFacet is IDiamondCut {... */\n      mstore(0x40, 0x80)\n      callvalue\n      dup1\n      iszero\n      tag_1\n      jumpi\n      0x00\n      dup1\n      revert\n    tag_1:\n      pop\n      jumpi(tag_2, lt(calldatasize, 0x04))\n      shr(0xe0, calldataload(0x00))\n      dup1\n      0x1f931c1c\n      eq\n      tag_3\n      jumpi\n    tag_2:\n      0x00\n      dup1\n      revert\n        /* \"smart contract/SwapCryptoLoanUpdate/contracts/facets/DiamondCutFacet.sol\":981:1237  function diamondCut(... */\n    tag_3:\n      tag_4\n      0x04\n      dup1\n      calldatasize\n      sub\n      dup2\n      add\n      swap1\n      tag_5\n      swap2\n      swap1\n      tag_6\n      jump\t// in\n    tag_5:\n      tag_7\n      jump\t// in\n    tag_4:\n      stop\n    tag_7:\n        /* \"smart contract/SwapCryptoLoanUpdate/contracts/facets/DiamondCutFacet.sol\":1133:1168  LibDiamond.enforceIsContractOwner() */\n      tag_9\n        /* \"smart contract/SwapCryptoLoanUpdate/contracts/facets/DiamondCutFacet.sol\":1133:1166  LibDiamond.enforceIsContractOwner */\n      tag_10\n        /* \"smart contract/SwapCryptoLoanUpdate/contracts/facets/DiamondCutFacet.sol\":1133:1168  LibDiamond.enforceIsContractOwner() */\n      jump\t// in\n    tag_9:\n        /* \"smart contract/SwapCryptoLoanUpdate/contracts/facets/DiamondCutFacet.sol\":1178:1230  LibDiamond.diamondCut(_diamondCut, _init, _calldata) */\n      tag_11\n        /* \"smart contract/SwapCryptoLoanUpdate/contracts/facets/DiamondCutFacet.sol\":1200:1211  _diamondCut */\n      dup6\n      dup6\n        /* \"smart contract/SwapCryptoLoanUpdate/contracts/facets/DiamondCutFacet.sol\":1178:1230  LibDiamond.diamondCut(_diamondCut, _init, _calldata) */\n      swap1\n      tag_12\n      swap2\n      swap1\n      tag_13\n      jump\t// in\n    tag_12:\n        /* \"smart contract/SwapCryptoLoanUpdate/contracts/facets/DiamondCutFacet.sol\":1213:1218  _init */\n      dup5\n        /* \"smart contract/SwapCryptoLoanUpdate/contracts/facets/DiamondCutFacet.sol\":1220:1229  _calldata */\n      dup5\n      dup5\n        /* \"smart contract/SwapCryptoLoanUpdate/contracts/facets/DiamondCutFacet.sol\":1178:1230  LibDiamond.diamondCut(_diamondCut, _init, _calldata) */\n      dup1\n      dup1\n      0x1f\n      add\n      0x20\n      dup1\n      swap2\n      div\n      mul\n      0x20\n      add\n      mload(0x40)\n      swap1\n      dup2\n      add\n      0x40\n      mstore\n      dup1\n      swap4\n      swap3\n      swap2\n      swap1\n      dup2\n      dup2\n      mstore\n      0x20\n      add\n      dup4\n      dup4\n      dup1\n      dup3\n      dup5\n      calldatacopy\n      0x00\n      dup2\n      dup5\n      add\n      mstore\n      not(0x1f)\n      0x1f\n      dup3\n      add\n      and\n      swap1\n      pop\n      dup1\n      dup4\n      add\n      swap3\n      pop\n      pop\n      pop\n      pop\n      pop\n      pop\n      pop\n        /* \"smart contract/SwapCryptoLoanUpdate/contracts/facets/DiamondCutFacet.sol\":1178:1199  LibDiamond.diamondCut */\n      tag_14\n        /* \"smart contract/SwapCryptoLoanUpdate/contracts/facets/DiamondCutFacet.sol\":1178:1230  LibDiamond.diamondCut(_diamondCut, _init, _calldata) */\n      jump\t// in\n    tag_11:\n        /* \"smart contract/SwapCryptoLoanUpdate/contracts/facets/DiamondCutFacet.sol\":981:1237  function diamondCut(... */\n      pop\n      pop\n      pop\n      pop\n      pop\n      jump\t// out\n        /* \"smart contract/SwapCryptoLoanUpdate/contracts/libraries/LibDiamond.sol\":1811:2001  function enforceIsContractOwner() internal view {... */\n    tag_10:\n        /* \"smart contract/SwapCryptoLoanUpdate/contracts/libraries/LibDiamond.sol\":1904:1920  diamondStorage() */\n      tag_16\n        /* \"smart contract/SwapCryptoLoanUpdate/contracts/libraries/LibDiamond.sol\":1904:1918  diamondStorage */\n      tag_17\n        /* \"smart contract/SwapCryptoLoanUpdate/contracts/libraries/LibDiamond.sol\":1904:1920  diamondStorage() */\n      jump\t// in\n    tag_16:\n        /* \"smart contract/SwapCryptoLoanUpdate/contracts/libraries/LibDiamond.sol\":1904:1934  diamondStorage().contractOwner */\n      0x03\n      add\n      0x00\n      swap1\n      sload\n      swap1\n      0x0100\n      exp\n      swap1\n      div\n      0xffffffffffffffffffffffffffffffffffffffff\n      and\n        /* \"smart contract/SwapCryptoLoanUpdate/contracts/libraries/LibDiamond.sol\":1890:1934  msg.sender == diamondStorage().contractOwner */\n      0xffffffffffffffffffffffffffffffffffffffff\n      and\n        /* \"smart contract/SwapCryptoLoanUpdate/contracts/libraries/LibDiamond.sol\":1890:1900  msg.sender */\n      caller\n        /* \"smart contract/SwapCryptoLoanUpdate/contracts/libraries/LibDiamond.sol\":1890:1934  msg.sender == diamondStorage().contractOwner */\n      0xffffffffffffffffffffffffffffffffffffffff\n      and\n      eq\n        /* \"smart contract/SwapCryptoLoanUpdate/contracts/libraries/LibDiamond.sol\":1869:1994  require(... */\n      tag_18\n      jumpi\n      mload(0x40)\n      0x08c379a000000000000000000000000000000000000000000000000000000000\n      dup2\n      mstore\n      0x04\n      add\n      tag_19\n      swap1\n      tag_20\n      jump\t// in\n    tag_19:\n      mload(0x40)\n      dup1\n      swap2\n      sub\n      swap1\n      revert\n    tag_18:\n        /* \"smart contract/SwapCryptoLoanUpdate/contracts/libraries/LibDiamond.sol\":1811:2001  function enforceIsContractOwner() internal view {... */\n      jump\t// out\n        /* \"smart contract/SwapCryptoLoanUpdate/contracts/libraries/LibDiamond.sol\":2175:3462  function diamondCut(... */\n    tag_14:\n        /* \"smart contract/SwapCryptoLoanUpdate/contracts/libraries/LibDiamond.sol\":2344:2362  uint256 facetIndex */\n      0x00\n        /* \"smart contract/SwapCryptoLoanUpdate/contracts/libraries/LibDiamond.sol\":2326:3352  for (... */\n    tag_22:\n        /* \"smart contract/SwapCryptoLoanUpdate/contracts/libraries/LibDiamond.sol\":2389:2400  _diamondCut */\n      dup4\n        /* \"smart contract/SwapCryptoLoanUpdate/contracts/libraries/LibDiamond.sol\":2389:2407  _diamondCut.length */\n      mload\n        /* \"smart contract/SwapCryptoLoanUpdate/contracts/libraries/LibDiamond.sol\":2376:2386  facetIndex */\n      dup2\n        /* \"smart contract/SwapCryptoLoanUpdate/contracts/libraries/LibDiamond.sol\":2376:2407  facetIndex < _diamondCut.length */\n      lt\n        /* \"smart contract/SwapCryptoLoanUpdate/contracts/libraries/LibDiamond.sol\":2326:3352  for (... */\n      iszero\n      tag_23\n      jumpi\n        /* \"smart contract/SwapCryptoLoanUpdate/contracts/libraries/LibDiamond.sol\":2458:2491  IDiamondCut.FacetCutAction action */\n      0x00\n        /* \"smart contract/SwapCryptoLoanUpdate/contracts/libraries/LibDiamond.sol\":2494:2505  _diamondCut */\n      dup5\n        /* \"smart contract/SwapCryptoLoanUpdate/contracts/libraries/LibDiamond.sol\":2506:2516  facetIndex */\n      dup3\n        /* \"smart contract/SwapCryptoLoanUpdate/contracts/libraries/LibDiamond.sol\":2494:2517  _diamondCut[facetIndex] */\n      dup2\n      mload\n      dup2\n      lt\n      tag_25\n      jumpi\n      tag_26\n      tag_27\n      jump\t// in\n    tag_26:\n    tag_25:\n      0x20\n      mul\n      0x20\n      add\n      add\n      mload\n        /* \"smart contract/SwapCryptoLoanUpdate/contracts/libraries/LibDiamond.sol\":2494:2524  _diamondCut[facetIndex].action */\n      0x20\n      add\n      mload\n        /* \"smart contract/SwapCryptoLoanUpdate/contracts/libraries/LibDiamond.sol\":2458:2524  IDiamondCut.FacetCutAction action = _diamondCut[facetIndex].action */\n      swap1\n      pop\n        /* \"smart contract/SwapCryptoLoanUpdate/contracts/libraries/LibDiamond.sol\":2552:2582  IDiamondCut.FacetCutAction.Add */\n      0x00\n        /* \"smart contract/SwapCryptoLoanUpdate/contracts/libraries/LibDiamond.sol\":2542:2582  action == IDiamondCut.FacetCutAction.Add */\n      0x02\n      dup2\n      gt\n      iszero\n      tag_28\n      jumpi\n      tag_29\n      tag_30\n      jump\t// in\n    tag_29:\n    tag_28:\n        /* \"smart contract/SwapCryptoLoanUpdate/contracts/libraries/LibDiamond.sol\":2542:2548  action */\n      dup2\n        /* \"smart contract/SwapCryptoLoanUpdate/contracts/libraries/LibDiamond.sol\":2542:2582  action == IDiamondCut.FacetCutAction.Add */\n      0x02\n      dup2\n      gt\n      iszero\n      tag_31\n      jumpi\n      tag_32\n      tag_30\n      jump\t// in\n    tag_32:\n    tag_31:\n      sub\n        /* \"smart contract/SwapCryptoLoanUpdate/contracts/libraries/LibDiamond.sol\":2538:3342  if (action == IDiamondCut.FacetCutAction.Add) {... */\n      tag_33\n      jumpi\n        /* \"smart contract/SwapCryptoLoanUpdate/contracts/libraries/LibDiamond.sol\":2602:2753  addFunctions(... */\n      tag_34\n        /* \"smart contract/SwapCryptoLoanUpdate/contracts/libraries/LibDiamond.sol\":2636:2647  _diamondCut */\n      dup6\n        /* \"smart contract/SwapCryptoLoanUpdate/contracts/libraries/LibDiamond.sol\":2648:2658  facetIndex */\n      dup4\n        /* \"smart contract/SwapCryptoLoanUpdate/contracts/libraries/LibDiamond.sol\":2636:2659  _diamondCut[facetIndex] */\n      dup2\n      mload\n      dup2\n      lt\n      tag_35\n      jumpi\n      tag_36\n      tag_27\n      jump\t// in\n    tag_36:\n    tag_35:\n      0x20\n      mul\n      0x20\n      add\n      add\n      mload\n        /* \"smart contract/SwapCryptoLoanUpdate/contracts/libraries/LibDiamond.sol\":2636:2672  _diamondCut[facetIndex].facetAddress */\n      0x00\n      add\n      mload\n        /* \"smart contract/SwapCryptoLoanUpdate/contracts/libraries/LibDiamond.sol\":2694:2705  _diamondCut */\n      dup7\n        /* \"smart contract/SwapCryptoLoanUpdate/contracts/libraries/LibDiamond.sol\":2706:2716  facetIndex */\n      dup5\n        /* \"smart contract/SwapCryptoLoanUpdate/contracts/libraries/LibDiamond.sol\":2694:2717  _diamondCut[facetIndex] */\n      dup2\n      mload\n      dup2\n      lt\n      tag_37\n      jumpi\n      tag_38\n      tag_27\n      jump\t// in\n    tag_38:\n    tag_37:\n      0x20\n      mul\n      0x20\n      add\n      add\n      mload\n        /* \"smart contract/SwapCryptoLoanUpdate/contracts/libraries/LibDiamond.sol\":2694:2735  _diamondCut[facetIndex].functionSelectors */\n      0x40\n      add\n      mload\n        /* \"smart contract/SwapCryptoLoanUpdate/contracts/libraries/LibDiamond.sol\":2602:2614  addFunctions */\n      tag_39\n        /* \"smart contract/SwapCryptoLoanUpdate/contracts/libraries/LibDiamond.sol\":2602:2753  addFunctions(... */\n      jump\t// in\n    tag_34:\n        /* \"smart contract/SwapCryptoLoanUpdate/contracts/libraries/LibDiamond.sol\":2538:3342  if (action == IDiamondCut.FacetCutAction.Add) {... */\n      jump(tag_40)\n    tag_33:\n        /* \"smart contract/SwapCryptoLoanUpdate/contracts/libraries/LibDiamond.sol\":2788:2822  IDiamondCut.FacetCutAction.Replace */\n      0x01\n        /* \"smart contract/SwapCryptoLoanUpdate/contracts/libraries/LibDiamond.sol\":2778:2822  action == IDiamondCut.FacetCutAction.Replace */\n      0x02\n      dup2\n      gt\n      iszero\n      tag_41\n      jumpi\n      tag_42\n      tag_30\n      jump\t// in\n    tag_42:\n    tag_41:\n        /* \"smart contract/SwapCryptoLoanUpdate/contracts/libraries/LibDiamond.sol\":2778:2784  action */\n      dup2\n        /* \"smart contract/SwapCryptoLoanUpdate/contracts/libraries/LibDiamond.sol\":2778:2822  action == IDiamondCut.FacetCutAction.Replace */\n      0x02\n      dup2\n      gt\n      iszero\n      tag_43\n      jumpi\n      tag_44\n      tag_30\n      jump\t// in\n    tag_44:\n    tag_43:\n      sub\n        /* \"smart contract/SwapCryptoLoanUpdate/contracts/libraries/LibDiamond.sol\":2774:3342  if (action == IDiamondCut.FacetCutAction.Replace) {... */\n      tag_45\n      jumpi\n        /* \"smart contract/SwapCryptoLoanUpdate/contracts/libraries/LibDiamond.sol\":2842:2997  replaceFunctions(... */\n      tag_46\n        /* \"smart contract/SwapCryptoLoanUpdate/contracts/libraries/LibDiamond.sol\":2880:2891  _diamondCut */\n      dup6\n        /* \"smart contract/SwapCryptoLoanUpdate/contracts/libraries/LibDiamond.sol\":2892:2902  facetIndex */\n      dup4\n        /* \"smart contract/SwapCryptoLoanUpdate/contracts/libraries/LibDiamond.sol\":2880:2903  _diamondCut[facetIndex] */\n      dup2\n      mload\n      dup2\n      lt\n      tag_47\n      jumpi\n      tag_48\n      tag_27\n      jump\t// in\n    tag_48:\n    tag_47:\n      0x20\n      mul\n      0x20\n      add\n      add\n      mload\n        /* \"smart contract/SwapCryptoLoanUpdate/contracts/libraries/LibDiamond.sol\":2880:2916  _diamondCut[facetIndex].facetAddress */\n      0x00\n      add\n      mload\n        /* \"smart contract/SwapCryptoLoanUpdate/contracts/libraries/LibDiamond.sol\":2938:2949  _diamondCut */\n      dup7\n        /* \"smart contract/SwapCryptoLoanUpdate/contracts/libraries/LibDiamond.sol\":2950:2960  facetIndex */\n      dup5\n        /* \"smart contract/SwapCryptoLoanUpdate/contracts/libraries/LibDiamond.sol\":2938:2961  _diamondCut[facetIndex] */\n      dup2\n      mload\n      dup2\n      lt\n      tag_49\n      jumpi\n      tag_50\n      tag_27\n      jump\t// in\n    tag_50:\n    tag_49:\n      0x20\n      mul\n      0x20\n      add\n      add\n      mload\n        /* \"smart contract/SwapCryptoLoanUpdate/contracts/libraries/LibDiamond.sol\":2938:2979  _diamondCut[facetIndex].functionSelectors */\n      0x40\n      add\n      mload\n        /* \"smart contract/SwapCryptoLoanUpdate/contracts/libraries/LibDiamond.sol\":2842:2858  replaceFunctions */\n      tag_51\n        /* \"smart contract/SwapCryptoLoanUpdate/contracts/libraries/LibDiamond.sol\":2842:2997  replaceFunctions(... */\n      jump\t// in\n    tag_46:\n        /* \"smart contract/SwapCryptoLoanUpdate/contracts/libraries/LibDiamond.sol\":2774:3342  if (action == IDiamondCut.FacetCutAction.Replace) {... */\n      jump(tag_52)\n    tag_45:\n        /* \"smart contract/SwapCryptoLoanUpdate/contracts/libraries/LibDiamond.sol\":3032:3065  IDiamondCut.FacetCutAction.Remove */\n      0x02\n        /* \"smart contract/SwapCryptoLoanUpdate/contracts/libraries/LibDiamond.sol\":3022:3065  action == IDiamondCut.FacetCutAction.Remove */\n      dup1\n      dup2\n      gt\n      iszero\n      tag_53\n      jumpi\n      tag_54\n      tag_30\n      jump\t// in\n    tag_54:\n    tag_53:\n        /* \"smart contract/SwapCryptoLoanUpdate/contracts/libraries/LibDiamond.sol\":3022:3028  action */\n      dup2\n        /* \"smart contract/SwapCryptoLoanUpdate/contracts/libraries/LibDiamond.sol\":3022:3065  action == IDiamondCut.FacetCutAction.Remove */\n      0x02\n      dup2\n      gt\n      iszero\n      tag_55\n      jumpi\n      tag_56\n      tag_30\n      jump\t// in\n    tag_56:\n    tag_55:\n      sub\n        /* \"smart contract/SwapCryptoLoanUpdate/contracts/libraries/LibDiamond.sol\":3018:3342  if (action == IDiamondCut.FacetCutAction.Remove) {... */\n      tag_57\n      jumpi\n        /* \"smart contract/SwapCryptoLoanUpdate/contracts/libraries/LibDiamond.sol\":3085:3239  removeFunctions(... */\n      tag_58\n        /* \"smart contract/SwapCryptoLoanUpdate/contracts/libraries/LibDiamond.sol\":3122:3133  _diamondCut */\n      dup6\n        /* \"smart contract/SwapCryptoLoanUpdate/contracts/libraries/LibDiamond.sol\":3134:3144  facetIndex */\n      dup4\n        /* \"smart contract/SwapCryptoLoanUpdate/contracts/libraries/LibDiamond.sol\":3122:3145  _diamondCut[facetIndex] */\n      dup2\n      mload\n      dup2\n      lt\n      tag_59\n      jumpi\n      tag_60\n      tag_27\n      jump\t// in\n    tag_60:\n    tag_59:\n      0x20\n      mul\n      0x20\n      add\n      add\n      mload\n        /* \"smart contract/SwapCryptoLoanUpdate/contracts/libraries/LibDiamond.sol\":3122:3158  _diamondCut[facetIndex].facetAddress */\n      0x00\n      add\n      mload\n        /* \"smart contract/SwapCryptoLoanUpdate/contracts/libraries/LibDiamond.sol\":3180:3191  _diamondCut */\n      dup7\n        /* \"smart contract/SwapCryptoLoanUpdate/contracts/libraries/LibDiamond.sol\":3192:3202  facetIndex */\n      dup5\n        /* \"smart contract/SwapCryptoLoanUpdate/contracts/libraries/LibDiamond.sol\":3180:3203  _diamondCut[facetIndex] */\n      dup2\n      mload\n      dup2\n      lt\n      tag_61\n      jumpi\n      tag_62\n      tag_27\n      jump\t// in\n    tag_62:\n    tag_61:\n      0x20\n      mul\n      0x20\n      add\n      add\n      mload\n        /* \"smart contract/SwapCryptoLoanUpdate/contracts/libraries/LibDiamond.sol\":3180:3221  _diamondCut[facetIndex].functionSelectors */\n      0x40\n      add\n      mload\n        /* \"smart contract/SwapCryptoLoanUpdate/contracts/libraries/LibDiamond.sol\":3085:3100  removeFunctions */\n      tag_63\n        /* \"smart contract/SwapCryptoLoanUpdate/contracts/libraries/LibDiamond.sol\":3085:3239  removeFunctions(... */\n      jump\t// in\n    tag_58:\n        /* \"smart contract/SwapCryptoLoanUpdate/contracts/libraries/LibDiamond.sol\":3018:3342  if (action == IDiamondCut.FacetCutAction.Remove) {... */\n      jump(tag_64)\n    tag_57:\n        /* \"smart contract/SwapCryptoLoanUpdate/contracts/libraries/LibDiamond.sol\":3278:3327  revert(\"LibDiamondCut: Incorrect FacetCutAction\") */\n      mload(0x40)\n      0x08c379a000000000000000000000000000000000000000000000000000000000\n      dup2\n      mstore\n      0x04\n      add\n      tag_65\n      swap1\n      tag_66\n      jump\t// in\n    tag_65:\n      mload(0x40)\n      dup1\n      swap2\n      sub\n      swap1\n      revert\n        /* \"smart contract/SwapCryptoLoanUpdate/contracts/libraries/LibDiamond.sol\":3018:3342  if (action == IDiamondCut.FacetCutAction.Remove) {... */\n    tag_64:\n        /* \"smart contract/SwapCryptoLoanUpdate/contracts/libraries/LibDiamond.sol\":2774:3342  if (action == IDiamondCut.FacetCutAction.Replace) {... */\n    tag_52:\n        /* \"smart contract/SwapCryptoLoanUpdate/contracts/libraries/LibDiamond.sol\":2538:3342  if (action == IDiamondCut.FacetCutAction.Add) {... */\n    tag_40:\n        /* \"smart contract/SwapCryptoLoanUpdate/contracts/libraries/LibDiamond.sol\":2444:3352  {... */\n      pop\n        /* \"smart contract/SwapCryptoLoanUpdate/contracts/libraries/LibDiamond.sol\":2421:2433  facetIndex++ */\n      dup1\n      dup1\n      tag_67\n      swap1\n      tag_68\n      jump\t// in\n    tag_67:\n      swap2\n      pop\n      pop\n        /* \"smart contract/SwapCryptoLoanUpdate/contracts/libraries/LibDiamond.sol\":2326:3352  for (... */\n      jump(tag_22)\n    tag_23:\n      pop\n        /* \"smart contract/SwapCryptoLoanUpdate/contracts/libraries/LibDiamond.sol\":3366:3407  DiamondCut(_diamondCut, _init, _calldata) */\n      0x8faa70878671ccd212d20771b795c50af8fd3ff6cf27f4bde57e5d4de0aeb673\n        /* \"smart contract/SwapCryptoLoanUpdate/contracts/libraries/LibDiamond.sol\":3377:3388  _diamondCut */\n      dup4\n        /* \"smart contract/SwapCryptoLoanUpdate/contracts/libraries/LibDiamond.sol\":3390:3395  _init */\n      dup4\n        /* \"smart contract/SwapCryptoLoanUpdate/contracts/libraries/LibDiamond.sol\":3397:3406  _calldata */\n      dup4\n        /* \"smart contract/SwapCryptoLoanUpdate/contracts/libraries/LibDiamond.sol\":3366:3407  DiamondCut(_diamondCut, _init, _calldata) */\n      mload(0x40)\n      tag_69\n      swap4\n      swap3\n      swap2\n      swap1\n      tag_70\n      jump\t// in\n    tag_69:\n      mload(0x40)\n      dup1\n      swap2\n      sub\n      swap1\n      log1\n        /* \"smart contract/SwapCryptoLoanUpdate/contracts/libraries/LibDiamond.sol\":3417:3455  initializeDiamondCut(_init, _calldata) */\n      tag_71\n        /* \"smart contract/SwapCryptoLoanUpdate/contracts/libraries/LibDiamond.sol\":3438:3443  _init */\n      dup3\n        /* \"smart contract/SwapCryptoLoanUpdate/contracts/libraries/LibDiamond.sol\":3445:3454  _calldata */\n      dup3\n        /* \"smart contract/SwapCryptoLoanUpdate/contracts/libraries/LibDiamond.sol\":3417:3437  initializeDiamondCut */\n      tag_72\n        /* \"smart contract/SwapCryptoLoanUpdate/contracts/libraries/LibDiamond.sol\":3417:3455  initializeDiamondCut(_init, _calldata) */\n      jump\t// in\n    tag_71:\n        /* \"smart contract/SwapCryptoLoanUpdate/contracts/libraries/LibDiamond.sol\":2175:3462  function diamondCut(... */\n      pop\n      pop\n      pop\n      jump\t// out\n        /* \"smart contract/SwapCryptoLoanUpdate/contracts/libraries/LibDiamond.sol\":1056:1281  function diamondStorage()... */\n    tag_17:\n        /* \"smart contract/SwapCryptoLoanUpdate/contracts/libraries/LibDiamond.sol\":1129:1154  DiamondStorage storage ds */\n      0x00\n        /* \"smart contract/SwapCryptoLoanUpdate/contracts/libraries/LibDiamond.sol\":1170:1186  bytes32 position */\n      dup1\n        /* \"smart contract/SwapCryptoLoanUpdate/contracts/libraries/LibDiamond.sol\":530:575  keccak256(\"diamond.standard.diamond.storage\") */\n      0xc8fcad8db84d3cc18b4c41d551ea0ee66dd599cde068d998e57d5e09332c131c\n        /* \"smart contract/SwapCryptoLoanUpdate/contracts/libraries/LibDiamond.sol\":1170:1213  bytes32 position = DIAMOND_STORAGE_POSITION */\n      swap1\n      pop\n        /* \"smart contract/SwapCryptoLoanUpdate/contracts/libraries/LibDiamond.sol\":1257:1265  position */\n      dup1\n        /* \"smart contract/SwapCryptoLoanUpdate/contracts/libraries/LibDiamond.sol\":1246:1265  ds.slot := position */\n      swap2\n      pop\n        /* \"smart contract/SwapCryptoLoanUpdate/contracts/libraries/LibDiamond.sol\":1232:1275  {... */\n      pop\n        /* \"smart contract/SwapCryptoLoanUpdate/contracts/libraries/LibDiamond.sol\":1056:1281  function diamondStorage()... */\n      swap1\n      jump\t// out\n        /* \"smart contract/SwapCryptoLoanUpdate/contracts/libraries/LibDiamond.sol\":3468:4860  function addFunctions(... */\n    tag_39:\n        /* \"smart contract/SwapCryptoLoanUpdate/contracts/libraries/LibDiamond.sol\":3639:3640  0 */\n      0x00\n        /* \"smart contract/SwapCryptoLoanUpdate/contracts/libraries/LibDiamond.sol\":3611:3629  _functionSelectors */\n      dup2\n        /* \"smart contract/SwapCryptoLoanUpdate/contracts/libraries/LibDiamond.sol\":3611:3636  _functionSelectors.length */\n      mload\n        /* \"smart contract/SwapCryptoLoanUpdate/contracts/libraries/LibDiamond.sol\":3611:3640  _functionSelectors.length > 0 */\n      gt\n        /* \"smart contract/SwapCryptoLoanUpdate/contracts/libraries/LibDiamond.sol\":3590:3709  require(... */\n      tag_75\n      jumpi\n      mload(0x40)\n      0x08c379a000000000000000000000000000000000000000000000000000000000\n      dup2\n      mstore\n      0x04\n      add\n      tag_76\n      swap1\n      tag_77\n      jump\t// in\n    tag_76:\n      mload(0x40)\n      dup1\n      swap2\n      sub\n      swap1\n      revert\n    tag_75:\n        /* \"smart contract/SwapCryptoLoanUpdate/contracts/libraries/LibDiamond.sol\":3719:3744  DiamondStorage storage ds */\n      0x00\n        /* \"smart contract/SwapCryptoLoanUpdate/contracts/libraries/LibDiamond.sol\":3747:3763  diamondStorage() */\n      tag_78\n        /* \"smart contract/SwapCryptoLoanUpdate/contracts/libraries/LibDiamond.sol\":3747:3761  diamondStorage */\n      tag_17\n        /* \"smart contract/SwapCryptoLoanUpdate/contracts/libraries/LibDiamond.sol\":3747:3763  diamondStorage() */\n      jump\t// in\n    tag_78:\n        /* \"smart contract/SwapCryptoLoanUpdate/contracts/libraries/LibDiamond.sol\":3719:3763  DiamondStorage storage ds = diamondStorage() */\n      swap1\n      pop\n        /* \"smart contract/SwapCryptoLoanUpdate/contracts/libraries/LibDiamond.sol\":3773:3793  uint16 selectorCount */\n      0x00\n        /* \"smart contract/SwapCryptoLoanUpdate/contracts/libraries/LibDiamond.sol\":3803:3805  ds */\n      dup2\n        /* \"smart contract/SwapCryptoLoanUpdate/contracts/libraries/LibDiamond.sol\":3803:3815  ds.selectors */\n      0x01\n      add\n        /* \"smart contract/SwapCryptoLoanUpdate/contracts/libraries/LibDiamond.sol\":3803:3822  ds.selectors.length */\n      dup1\n      sload\n      swap1\n      pop\n        /* \"smart contract/SwapCryptoLoanUpdate/contracts/libraries/LibDiamond.sol\":3773:3823  uint16 selectorCount = uint16(ds.selectors.length) */\n      swap1\n      pop\n        /* \"smart contract/SwapCryptoLoanUpdate/contracts/libraries/LibDiamond.sol\":3879:3880  0 */\n      0x00\n        /* \"smart contract/SwapCryptoLoanUpdate/contracts/libraries/LibDiamond.sol\":3854:3881  _facetAddress != address(0) */\n      0xffffffffffffffffffffffffffffffffffffffff\n      and\n        /* \"smart contract/SwapCryptoLoanUpdate/contracts/libraries/LibDiamond.sol\":3854:3867  _facetAddress */\n      dup5\n        /* \"smart contract/SwapCryptoLoanUpdate/contracts/libraries/LibDiamond.sol\":3854:3881  _facetAddress != address(0) */\n      0xffffffffffffffffffffffffffffffffffffffff\n      and\n      sub\n        /* \"smart contract/SwapCryptoLoanUpdate/contracts/libraries/LibDiamond.sol\":3833:3951  require(... */\n      tag_79\n      jumpi\n      mload(0x40)\n      0x08c379a000000000000000000000000000000000000000000000000000000000\n      dup2\n      mstore\n      0x04\n      add\n      tag_80\n      swap1\n      tag_81\n      jump\t// in\n    tag_80:\n      mload(0x40)\n      dup1\n      swap2\n      sub\n      swap1\n      revert\n    tag_79:\n        /* \"smart contract/SwapCryptoLoanUpdate/contracts/libraries/LibDiamond.sol\":3961:4072  enforceHasContractCode(... */\n      tag_82\n        /* \"smart contract/SwapCryptoLoanUpdate/contracts/libraries/LibDiamond.sol\":3997:4010  _facetAddress */\n      dup5\n        /* \"smart contract/SwapCryptoLoanUpdate/contracts/libraries/LibDiamond.sol\":3961:4072  enforceHasContractCode(... */\n      mload(0x40)\n      dup1\n      0x60\n      add\n      0x40\n      mstore\n      dup1\n      0x24\n      dup2\n      mstore\n      0x20\n      add\n      data_343e33adc9ef80d2a3b19196e3a71ee2d793419943c19ad2b2a6875f7dd42e8d\n      0x24\n      swap2\n      codecopy\n        /* \"smart contract/SwapCryptoLoanUpdate/contracts/libraries/LibDiamond.sol\":3961:3983  enforceHasContractCode */\n      tag_83\n        /* \"smart contract/SwapCryptoLoanUpdate/contracts/libraries/LibDiamond.sol\":3961:4072  enforceHasContractCode(... */\n      jump\t// in\n    tag_82:\n        /* \"smart contract/SwapCryptoLoanUpdate/contracts/libraries/LibDiamond.sol\":4100:4121  uint256 selectorIndex */\n      0x00\n        /* \"smart contract/SwapCryptoLoanUpdate/contracts/libraries/LibDiamond.sol\":4082:4854  for (... */\n    tag_84:\n        /* \"smart contract/SwapCryptoLoanUpdate/contracts/libraries/LibDiamond.sol\":4151:4169  _functionSelectors */\n      dup4\n        /* \"smart contract/SwapCryptoLoanUpdate/contracts/libraries/LibDiamond.sol\":4151:4176  _functionSelectors.length */\n      mload\n        /* \"smart contract/SwapCryptoLoanUpdate/contracts/libraries/LibDiamond.sol\":4135:4148  selectorIndex */\n      dup2\n        /* \"smart contract/SwapCryptoLoanUpdate/contracts/libraries/LibDiamond.sol\":4135:4176  selectorIndex < _functionSelectors.length */\n      lt\n        /* \"smart contract/SwapCryptoLoanUpdate/contracts/libraries/LibDiamond.sol\":4082:4854  for (... */\n      iszero\n      tag_85\n      jumpi\n        /* \"smart contract/SwapCryptoLoanUpdate/contracts/libraries/LibDiamond.sol\":4230:4245  bytes4 selector */\n      0x00\n        /* \"smart contract/SwapCryptoLoanUpdate/contracts/libraries/LibDiamond.sol\":4248:4266  _functionSelectors */\n      dup5\n        /* \"smart contract/SwapCryptoLoanUpdate/contracts/libraries/LibDiamond.sol\":4267:4280  selectorIndex */\n      dup3\n        /* \"smart contract/SwapCryptoLoanUpdate/contracts/libraries/LibDiamond.sol\":4248:4281  _functionSelectors[selectorIndex] */\n      dup2\n      mload\n      dup2\n      lt\n      tag_87\n      jumpi\n      tag_88\n      tag_27\n      jump\t// in\n    tag_88:\n    tag_87:\n      0x20\n      mul\n      0x20\n      add\n      add\n      mload\n        /* \"smart contract/SwapCryptoLoanUpdate/contracts/libraries/LibDiamond.sol\":4230:4281  bytes4 selector = _functionSelectors[selectorIndex] */\n      swap1\n      pop\n        /* \"smart contract/SwapCryptoLoanUpdate/contracts/libraries/LibDiamond.sol\":4295:4318  address oldFacetAddress */\n      0x00\n        /* \"smart contract/SwapCryptoLoanUpdate/contracts/libraries/LibDiamond.sol\":4321:4323  ds */\n      dup5\n        /* \"smart contract/SwapCryptoLoanUpdate/contracts/libraries/LibDiamond.sol\":4321:4372  ds... */\n      0x00\n      add\n        /* \"smart contract/SwapCryptoLoanUpdate/contracts/libraries/LibDiamond.sol\":4321:4382  ds... */\n      0x00\n        /* \"smart contract/SwapCryptoLoanUpdate/contracts/libraries/LibDiamond.sol\":4373:4381  selector */\n      dup4\n        /* \"smart contract/SwapCryptoLoanUpdate/contracts/libraries/LibDiamond.sol\":4321:4382  ds... */\n      not(0xffffffffffffffffffffffffffffffffffffffffffffffffffffffff)\n      and\n      not(0xffffffffffffffffffffffffffffffffffffffffffffffffffffffff)\n      and\n      dup2\n      mstore\n      0x20\n      add\n      swap1\n      dup2\n      mstore\n      0x20\n      add\n      0x00\n      keccak256\n        /* \"smart contract/SwapCryptoLoanUpdate/contracts/libraries/LibDiamond.sol\":4321:4412  ds... */\n      0x00\n      add\n      0x00\n      swap1\n      sload\n      swap1\n      0x0100\n      exp\n      swap1\n      div\n      0xffffffffffffffffffffffffffffffffffffffff\n      and\n        /* \"smart contract/SwapCryptoLoanUpdate/contracts/libraries/LibDiamond.sol\":4295:4412  address oldFacetAddress = ds... */\n      swap1\n      pop\n        /* \"smart contract/SwapCryptoLoanUpdate/contracts/libraries/LibDiamond.sol\":4478:4479  0 */\n      0x00\n        /* \"smart contract/SwapCryptoLoanUpdate/contracts/libraries/LibDiamond.sol\":4451:4480  oldFacetAddress == address(0) */\n      0xffffffffffffffffffffffffffffffffffffffff\n      and\n        /* \"smart contract/SwapCryptoLoanUpdate/contracts/libraries/LibDiamond.sol\":4451:4466  oldFacetAddress */\n      dup2\n        /* \"smart contract/SwapCryptoLoanUpdate/contracts/libraries/LibDiamond.sol\":4451:4480  oldFacetAddress == address(0) */\n      0xffffffffffffffffffffffffffffffffffffffff\n      and\n      eq\n        /* \"smart contract/SwapCryptoLoanUpdate/contracts/libraries/LibDiamond.sol\":4426:4567  require(... */\n      tag_89\n      jumpi\n      mload(0x40)\n      0x08c379a000000000000000000000000000000000000000000000000000000000\n      dup2\n      mstore\n      0x04\n      add\n      tag_90\n      swap1\n      tag_91\n      jump\t// in\n    tag_90:\n      mload(0x40)\n      dup1\n      swap2\n      sub\n      swap1\n      revert\n    tag_89:\n        /* \"smart contract/SwapCryptoLoanUpdate/contracts/libraries/LibDiamond.sol\":4666:4773  FacetAddressAndSelectorPosition(... */\n      mload(0x40)\n      dup1\n      0x40\n      add\n      0x40\n      mstore\n      dup1\n        /* \"smart contract/SwapCryptoLoanUpdate/contracts/libraries/LibDiamond.sol\":4715:4728  _facetAddress */\n      dup9\n        /* \"smart contract/SwapCryptoLoanUpdate/contracts/libraries/LibDiamond.sol\":4666:4773  FacetAddressAndSelectorPosition(... */\n      0xffffffffffffffffffffffffffffffffffffffff\n      and\n      dup2\n      mstore\n      0x20\n      add\n        /* \"smart contract/SwapCryptoLoanUpdate/contracts/libraries/LibDiamond.sol\":4746:4759  selectorCount */\n      dup6\n        /* \"smart contract/SwapCryptoLoanUpdate/contracts/libraries/LibDiamond.sol\":4666:4773  FacetAddressAndSelectorPosition(... */\n      0xffff\n      and\n      dup2\n      mstore\n      pop\n        /* \"smart contract/SwapCryptoLoanUpdate/contracts/libraries/LibDiamond.sol\":4581:4583  ds */\n      dup6\n        /* \"smart contract/SwapCryptoLoanUpdate/contracts/libraries/LibDiamond.sol\":4581:4615  ds.facetAddressAndSelectorPosition */\n      0x00\n      add\n        /* \"smart contract/SwapCryptoLoanUpdate/contracts/libraries/LibDiamond.sol\":4581:4663  ds.facetAddressAndSelectorPosition[... */\n      0x00\n        /* \"smart contract/SwapCryptoLoanUpdate/contracts/libraries/LibDiamond.sol\":4637:4645  selector */\n      dup5\n        /* \"smart contract/SwapCryptoLoanUpdate/contracts/libraries/LibDiamond.sol\":4581:4663  ds.facetAddressAndSelectorPosition[... */\n      not(0xffffffffffffffffffffffffffffffffffffffffffffffffffffffff)\n      and\n      not(0xffffffffffffffffffffffffffffffffffffffffffffffffffffffff)\n      and\n      dup2\n      mstore\n      0x20\n      add\n      swap1\n      dup2\n      mstore\n      0x20\n      add\n      0x00\n      keccak256\n        /* \"smart contract/SwapCryptoLoanUpdate/contracts/libraries/LibDiamond.sol\":4581:4773  ds.facetAddressAndSelectorPosition[... */\n      0x00\n      dup3\n      add\n      mload\n      dup2\n      0x00\n      add\n      exp(0x0100, 0x00)\n      dup2\n      sload\n      dup2\n      0xffffffffffffffffffffffffffffffffffffffff\n      mul\n      not\n      and\n      swap1\n      dup4\n      0xffffffffffffffffffffffffffffffffffffffff\n      and\n      mul\n      or\n      swap1\n      sstore\n      pop\n      0x20\n      dup3\n      add\n      mload\n      dup2\n      0x00\n      add\n      exp(0x0100, 0x14)\n      dup2\n      sload\n      dup2\n      0xffff\n      mul\n      not\n      and\n      swap1\n      dup4\n      0xffff\n      and\n      mul\n      or\n      swap1\n      sstore\n      pop\n      swap1\n      pop\n      pop\n        /* \"smart contract/SwapCryptoLoanUpdate/contracts/libraries/LibDiamond.sol\":4787:4789  ds */\n      dup5\n        /* \"smart contract/SwapCryptoLoanUpdate/contracts/libraries/LibDiamond.sol\":4787:4799  ds.selectors */\n      0x01\n      add\n        /* \"smart contract/SwapCryptoLoanUpdate/contracts/libraries/LibDiamond.sol\":4805:4813  selector */\n      dup3\n        /* \"smart contract/SwapCryptoLoanUpdate/contracts/libraries/LibDiamond.sol\":4787:4814  ds.selectors.push(selector) */\n      swap1\n      dup1\n      0x01\n      dup2\n      sload\n      add\n      dup1\n      dup3\n      sstore\n      dup1\n      swap2\n      pop\n      pop\n      0x01\n      swap1\n      sub\n      swap1\n      0x00\n      mstore\n      keccak256(0x00, 0x20)\n      swap1\n      0x08\n      swap2\n      dup3\n      dup3\n      div\n      add\n      swap2\n      swap1\n      mod\n      0x04\n      mul\n      swap1\n      swap2\n      swap1\n      swap2\n      swap1\n      swap2\n      0x0100\n      exp\n      dup2\n      sload\n      dup2\n      0xffffffff\n      mul\n      not\n      and\n      swap1\n      dup4\n      0xe0\n      shr\n      mul\n      or\n      swap1\n      sstore\n      pop\n        /* \"smart contract/SwapCryptoLoanUpdate/contracts/libraries/LibDiamond.sol\":4828:4843  selectorCount++ */\n      dup4\n      dup1\n      tag_93\n      swap1\n      tag_94\n      jump\t// in\n    tag_93:\n      swap5\n      pop\n      pop\n        /* \"smart contract/SwapCryptoLoanUpdate/contracts/libraries/LibDiamond.sol\":4216:4854  {... */\n      pop\n      pop\n        /* \"smart contract/SwapCryptoLoanUpdate/contracts/libraries/LibDiamond.sol\":4190:4205  selectorIndex++ */\n      dup1\n      dup1\n      tag_95\n      swap1\n      tag_68\n      jump\t// in\n    tag_95:\n      swap2\n      pop\n      pop\n        /* \"smart contract/SwapCryptoLoanUpdate/contracts/libraries/LibDiamond.sol\":4082:4854  for (... */\n      jump(tag_84)\n    tag_85:\n      pop\n        /* \"smart contract/SwapCryptoLoanUpdate/contracts/libraries/LibDiamond.sol\":3580:4860  {... */\n      pop\n      pop\n        /* \"smart contract/SwapCryptoLoanUpdate/contracts/libraries/LibDiamond.sol\":3468:4860  function addFunctions(... */\n      pop\n      pop\n      jump\t// out\n        /* \"smart contract/SwapCryptoLoanUpdate/contracts/libraries/LibDiamond.sol\":4866:6506  function replaceFunctions(... */\n    tag_51:\n        /* \"smart contract/SwapCryptoLoanUpdate/contracts/libraries/LibDiamond.sol\":5041:5042  0 */\n      0x00\n        /* \"smart contract/SwapCryptoLoanUpdate/contracts/libraries/LibDiamond.sol\":5013:5031  _functionSelectors */\n      dup2\n        /* \"smart contract/SwapCryptoLoanUpdate/contracts/libraries/LibDiamond.sol\":5013:5038  _functionSelectors.length */\n      mload\n        /* \"smart contract/SwapCryptoLoanUpdate/contracts/libraries/LibDiamond.sol\":5013:5042  _functionSelectors.length > 0 */\n      gt\n        /* \"smart contract/SwapCryptoLoanUpdate/contracts/libraries/LibDiamond.sol\":4992:5111  require(... */\n      tag_97\n      jumpi\n      mload(0x40)\n      0x08c379a000000000000000000000000000000000000000000000000000000000\n      dup2\n      mstore\n      0x04\n      add\n      tag_98\n      swap1\n      tag_77\n      jump\t// in\n    tag_98:\n      mload(0x40)\n      dup1\n      swap2\n      sub\n      swap1\n      revert\n    tag_97:\n        /* \"smart contract/SwapCryptoLoanUpdate/contracts/libraries/LibDiamond.sol\":5121:5146  DiamondStorage storage ds */\n      0x00\n        /* \"smart contract/SwapCryptoLoanUpdate/contracts/libraries/LibDiamond.sol\":5149:5165  diamondStorage() */\n      tag_99\n        /* \"smart contract/SwapCryptoLoanUpdate/contracts/libraries/LibDiamond.sol\":5149:5163  diamondStorage */\n      tag_17\n        /* \"smart contract/SwapCryptoLoanUpdate/contracts/libraries/LibDiamond.sol\":5149:5165  diamondStorage() */\n      jump\t// in\n    tag_99:\n        /* \"smart contract/SwapCryptoLoanUpdate/contracts/libraries/LibDiamond.sol\":5121:5165  DiamondStorage storage ds = diamondStorage() */\n      swap1\n      pop\n        /* \"smart contract/SwapCryptoLoanUpdate/contracts/libraries/LibDiamond.sol\":5221:5222  0 */\n      0x00\n        /* \"smart contract/SwapCryptoLoanUpdate/contracts/libraries/LibDiamond.sol\":5196:5223  _facetAddress != address(0) */\n      0xffffffffffffffffffffffffffffffffffffffff\n      and\n        /* \"smart contract/SwapCryptoLoanUpdate/contracts/libraries/LibDiamond.sol\":5196:5209  _facetAddress */\n      dup4\n        /* \"smart contract/SwapCryptoLoanUpdate/contracts/libraries/LibDiamond.sol\":5196:5223  _facetAddress != address(0) */\n      0xffffffffffffffffffffffffffffffffffffffff\n      and\n      sub\n        /* \"smart contract/SwapCryptoLoanUpdate/contracts/libraries/LibDiamond.sol\":5175:5297  require(... */\n      tag_100\n      jumpi\n      mload(0x40)\n      0x08c379a000000000000000000000000000000000000000000000000000000000\n      dup2\n      mstore\n      0x04\n      add\n      tag_101\n      swap1\n      tag_102\n      jump\t// in\n    tag_101:\n      mload(0x40)\n      dup1\n      swap2\n      sub\n      swap1\n      revert\n    tag_100:\n        /* \"smart contract/SwapCryptoLoanUpdate/contracts/libraries/LibDiamond.sol\":5307:5422  enforceHasContractCode(... */\n      tag_103\n        /* \"smart contract/SwapCryptoLoanUpdate/contracts/libraries/LibDiamond.sol\":5343:5356  _facetAddress */\n      dup4\n        /* \"smart contract/SwapCryptoLoanUpdate/contracts/libraries/LibDiamond.sol\":5307:5422  enforceHasContractCode(... */\n      mload(0x40)\n      dup1\n      0x60\n      add\n      0x40\n      mstore\n      dup1\n      0x28\n      dup2\n      mstore\n      0x20\n      add\n      data_de246aa8052f872d61bcd9cfb620b8012f8bc6e512400178c0e967944dadacfe\n      0x28\n      swap2\n      codecopy\n        /* \"smart contract/SwapCryptoLoanUpdate/contracts/libraries/LibDiamond.sol\":5307:5329  enforceHasContractCode */\n      tag_83\n        /* \"smart contract/SwapCryptoLoanUpdate/contracts/libraries/LibDiamond.sol\":5307:5422  enforceHasContractCode(... */\n      jump\t// in\n    tag_103:\n        /* \"smart contract/SwapCryptoLoanUpdate/contracts/libraries/LibDiamond.sol\":5450:5471  uint256 selectorIndex */\n      0x00\n        /* \"smart contract/SwapCryptoLoanUpdate/contracts/libraries/LibDiamond.sol\":5432:6500  for (... */\n    tag_104:\n        /* \"smart contract/SwapCryptoLoanUpdate/contracts/libraries/LibDiamond.sol\":5501:5519  _functionSelectors */\n      dup3\n        /* \"smart contract/SwapCryptoLoanUpdate/contracts/libraries/LibDiamond.sol\":5501:5526  _functionSelectors.length */\n      mload\n        /* \"smart contract/SwapCryptoLoanUpdate/contracts/libraries/LibDiamond.sol\":5485:5498  selectorIndex */\n      dup2\n        /* \"smart contract/SwapCryptoLoanUpdate/contracts/libraries/LibDiamond.sol\":5485:5526  selectorIndex < _functionSelectors.length */\n      lt\n        /* \"smart contract/SwapCryptoLoanUpdate/contracts/libraries/LibDiamond.sol\":5432:6500  for (... */\n      iszero\n      tag_105\n      jumpi\n        /* \"smart contract/SwapCryptoLoanUpdate/contracts/libraries/LibDiamond.sol\":5580:5595  bytes4 selector */\n      0x00\n        /* \"smart contract/SwapCryptoLoanUpdate/contracts/libraries/LibDiamond.sol\":5598:5616  _functionSelectors */\n      dup4\n        /* \"smart contract/SwapCryptoLoanUpdate/contracts/libraries/LibDiamond.sol\":5617:5630  selectorIndex */\n      dup3\n        /* \"smart contract/SwapCryptoLoanUpdate/contracts/libraries/LibDiamond.sol\":5598:5631  _functionSelectors[selectorIndex] */\n      dup2\n      mload\n      dup2\n      lt\n      tag_107\n      jumpi\n      tag_108\n      tag_27\n      jump\t// in\n    tag_108:\n    tag_107:\n      0x20\n      mul\n      0x20\n      add\n      add\n      mload\n        /* \"smart contract/SwapCryptoLoanUpdate/contracts/libraries/LibDiamond.sol\":5580:5631  bytes4 selector = _functionSelectors[selectorIndex] */\n      swap1\n      pop\n        /* \"smart contract/SwapCryptoLoanUpdate/contracts/libraries/LibDiamond.sol\":5645:5668  address oldFacetAddress */\n      0x00\n        /* \"smart contract/SwapCryptoLoanUpdate/contracts/libraries/LibDiamond.sol\":5671:5673  ds */\n      dup4\n        /* \"smart contract/SwapCryptoLoanUpdate/contracts/libraries/LibDiamond.sol\":5671:5722  ds... */\n      0x00\n      add\n        /* \"smart contract/SwapCryptoLoanUpdate/contracts/libraries/LibDiamond.sol\":5671:5732  ds... */\n      0x00\n        /* \"smart contract/SwapCryptoLoanUpdate/contracts/libraries/LibDiamond.sol\":5723:5731  selector */\n      dup4\n        /* \"smart contract/SwapCryptoLoanUpdate/contracts/libraries/LibDiamond.sol\":5671:5732  ds... */\n      not(0xffffffffffffffffffffffffffffffffffffffffffffffffffffffff)\n      and\n      not(0xffffffffffffffffffffffffffffffffffffffffffffffffffffffff)\n      and\n      dup2\n      mstore\n      0x20\n      add\n      swap1\n      dup2\n      mstore\n      0x20\n      add\n      0x00\n      keccak256\n        /* \"smart contract/SwapCryptoLoanUpdate/contracts/libraries/LibDiamond.sol\":5671:5762  ds... */\n      0x00\n      add\n      0x00\n      swap1\n      sload\n      swap1\n      0x0100\n      exp\n      swap1\n      div\n      0xffffffffffffffffffffffffffffffffffffffff\n      and\n        /* \"smart contract/SwapCryptoLoanUpdate/contracts/libraries/LibDiamond.sol\":5645:5762  address oldFacetAddress = ds... */\n      swap1\n      pop\n        /* \"smart contract/SwapCryptoLoanUpdate/contracts/libraries/LibDiamond.sol\":5922:5926  this */\n      address\n        /* \"smart contract/SwapCryptoLoanUpdate/contracts/libraries/LibDiamond.sol\":5895:5927  oldFacetAddress != address(this) */\n      0xffffffffffffffffffffffffffffffffffffffff\n      and\n        /* \"smart contract/SwapCryptoLoanUpdate/contracts/libraries/LibDiamond.sol\":5895:5910  oldFacetAddress */\n      dup2\n        /* \"smart contract/SwapCryptoLoanUpdate/contracts/libraries/LibDiamond.sol\":5895:5927  oldFacetAddress != address(this) */\n      0xffffffffffffffffffffffffffffffffffffffff\n      and\n      sub\n        /* \"smart contract/SwapCryptoLoanUpdate/contracts/libraries/LibDiamond.sol\":5870:6008  require(... */\n      tag_109\n      jumpi\n      mload(0x40)\n      0x08c379a000000000000000000000000000000000000000000000000000000000\n      dup2\n      mstore\n      0x04\n      add\n      tag_110\n      swap1\n      tag_111\n      jump\t// in\n    tag_110:\n      mload(0x40)\n      dup1\n      swap2\n      sub\n      swap1\n      revert\n    tag_109:\n        /* \"smart contract/SwapCryptoLoanUpdate/contracts/libraries/LibDiamond.sol\":6066:6079  _facetAddress */\n      dup6\n        /* \"smart contract/SwapCryptoLoanUpdate/contracts/libraries/LibDiamond.sol\":6047:6079  oldFacetAddress != _facetAddress */\n      0xffffffffffffffffffffffffffffffffffffffff\n      and\n        /* \"smart contract/SwapCryptoLoanUpdate/contracts/libraries/LibDiamond.sol\":6047:6062  oldFacetAddress */\n      dup2\n        /* \"smart contract/SwapCryptoLoanUpdate/contracts/libraries/LibDiamond.sol\":6047:6079  oldFacetAddress != _facetAddress */\n      0xffffffffffffffffffffffffffffffffffffffff\n      and\n      sub\n        /* \"smart contract/SwapCryptoLoanUpdate/contracts/libraries/LibDiamond.sol\":6022:6169  require(... */\n      tag_112\n      jumpi\n      mload(0x40)\n      0x08c379a000000000000000000000000000000000000000000000000000000000\n      dup2\n      mstore\n      0x04\n      add\n      tag_113\n      swap1\n      tag_114\n      jump\t// in\n    tag_113:\n      mload(0x40)\n      dup1\n      swap2\n      sub\n      swap1\n      revert\n    tag_112:\n        /* \"smart contract/SwapCryptoLoanUpdate/contracts/libraries/LibDiamond.sol\":6235:6236  0 */\n      0x00\n        /* \"smart contract/SwapCryptoLoanUpdate/contracts/libraries/LibDiamond.sol\":6208:6237  oldFacetAddress != address(0) */\n      0xffffffffffffffffffffffffffffffffffffffff\n      and\n        /* \"smart contract/SwapCryptoLoanUpdate/contracts/libraries/LibDiamond.sol\":6208:6223  oldFacetAddress */\n      dup2\n        /* \"smart contract/SwapCryptoLoanUpdate/contracts/libraries/LibDiamond.sol\":6208:6237  oldFacetAddress != address(0) */\n      0xffffffffffffffffffffffffffffffffffffffff\n      and\n      sub\n        /* \"smart contract/SwapCryptoLoanUpdate/contracts/libraries/LibDiamond.sol\":6183:6327  require(... */\n      tag_115\n      jumpi\n      mload(0x40)\n      0x08c379a000000000000000000000000000000000000000000000000000000000\n      dup2\n      mstore\n      0x04\n      add\n      tag_116\n      swap1\n      tag_117\n      jump\t// in\n    tag_116:\n      mload(0x40)\n      dup1\n      swap2\n      sub\n      swap1\n      revert\n    tag_115:\n        /* \"smart contract/SwapCryptoLoanUpdate/contracts/libraries/LibDiamond.sol\":6476:6489  _facetAddress */\n      dup6\n        /* \"smart contract/SwapCryptoLoanUpdate/contracts/libraries/LibDiamond.sol\":6382:6384  ds */\n      dup5\n        /* \"smart contract/SwapCryptoLoanUpdate/contracts/libraries/LibDiamond.sol\":6382:6433  ds... */\n      0x00\n      add\n        /* \"smart contract/SwapCryptoLoanUpdate/contracts/libraries/LibDiamond.sol\":6382:6443  ds... */\n      0x00\n        /* \"smart contract/SwapCryptoLoanUpdate/contracts/libraries/LibDiamond.sol\":6434:6442  selector */\n      dup5\n        /* \"smart contract/SwapCryptoLoanUpdate/contracts/libraries/LibDiamond.sol\":6382:6443  ds... */\n      not(0xffffffffffffffffffffffffffffffffffffffffffffffffffffffff)\n      and\n      not(0xffffffffffffffffffffffffffffffffffffffffffffffffffffffff)\n      and\n      dup2\n      mstore\n      0x20\n      add\n      swap1\n      dup2\n      mstore\n      0x20\n      add\n      0x00\n      keccak256\n        /* \"smart contract/SwapCryptoLoanUpdate/contracts/libraries/LibDiamond.sol\":6382:6473  ds... */\n      0x00\n      add\n      0x00\n        /* \"smart contract/SwapCryptoLoanUpdate/contracts/libraries/LibDiamond.sol\":6382:6489  ds... */\n      0x0100\n      exp\n      dup2\n      sload\n      dup2\n      0xffffffffffffffffffffffffffffffffffffffff\n      mul\n      not\n      and\n      swap1\n      dup4\n      0xffffffffffffffffffffffffffffffffffffffff\n      and\n      mul\n      or\n      swap1\n      sstore\n      pop\n        /* \"smart contract/SwapCryptoLoanUpdate/contracts/libraries/LibDiamond.sol\":5566:6500  {... */\n      pop\n      pop\n        /* \"smart contract/SwapCryptoLoanUpdate/contracts/libraries/LibDiamond.sol\":5540:5555  selectorIndex++ */\n      dup1\n      dup1\n      tag_118\n      swap1\n      tag_68\n      jump\t// in\n    tag_118:\n      swap2\n      pop\n      pop\n        /* \"smart contract/SwapCryptoLoanUpdate/contracts/libraries/LibDiamond.sol\":5432:6500  for (... */\n      jump(tag_104)\n    tag_105:\n      pop\n        /* \"smart contract/SwapCryptoLoanUpdate/contracts/libraries/LibDiamond.sol\":4982:6506  {... */\n      pop\n        /* \"smart contract/SwapCryptoLoanUpdate/contracts/libraries/LibDiamond.sol\":4866:6506  function replaceFunctions(... */\n      pop\n      pop\n      jump\t// out\n        /* \"smart contract/SwapCryptoLoanUpdate/contracts/libraries/LibDiamond.sol\":6512:8648  function removeFunctions(... */\n    tag_63:\n        /* \"smart contract/SwapCryptoLoanUpdate/contracts/libraries/LibDiamond.sol\":6686:6687  0 */\n      0x00\n        /* \"smart contract/SwapCryptoLoanUpdate/contracts/libraries/LibDiamond.sol\":6658:6676  _functionSelectors */\n      dup2\n        /* \"smart contract/SwapCryptoLoanUpdate/contracts/libraries/LibDiamond.sol\":6658:6683  _functionSelectors.length */\n      mload\n        /* \"smart contract/SwapCryptoLoanUpdate/contracts/libraries/LibDiamond.sol\":6658:6687  _functionSelectors.length > 0 */\n      gt\n        /* \"smart contract/SwapCryptoLoanUpdate/contracts/libraries/LibDiamond.sol\":6637:6756  require(... */\n      tag_120\n      jumpi\n      mload(0x40)\n      0x08c379a000000000000000000000000000000000000000000000000000000000\n      dup2\n      mstore\n      0x04\n      add\n      tag_121\n      swap1\n      tag_77\n      jump\t// in\n    tag_121:\n      mload(0x40)\n      dup1\n      swap2\n      sub\n      swap1\n      revert\n    tag_120:\n        /* \"smart contract/SwapCryptoLoanUpdate/contracts/libraries/LibDiamond.sol\":6766:6791  DiamondStorage storage ds */\n      0x00\n        /* \"smart contract/SwapCryptoLoanUpdate/contracts/libraries/LibDiamond.sol\":6794:6810  diamondStorage() */\n      tag_122\n        /* \"smart contract/SwapCryptoLoanUpdate/contracts/libraries/LibDiamond.sol\":6794:6808  diamondStorage */\n      tag_17\n        /* \"smart contract/SwapCryptoLoanUpdate/contracts/libraries/LibDiamond.sol\":6794:6810  diamondStorage() */\n      jump\t// in\n    tag_122:\n        /* \"smart contract/SwapCryptoLoanUpdate/contracts/libraries/LibDiamond.sol\":6766:6810  DiamondStorage storage ds = diamondStorage() */\n      swap1\n      pop\n        /* \"smart contract/SwapCryptoLoanUpdate/contracts/libraries/LibDiamond.sol\":6820:6841  uint256 selectorCount */\n      0x00\n        /* \"smart contract/SwapCryptoLoanUpdate/contracts/libraries/LibDiamond.sol\":6844:6846  ds */\n      dup2\n        /* \"smart contract/SwapCryptoLoanUpdate/contracts/libraries/LibDiamond.sol\":6844:6856  ds.selectors */\n      0x01\n      add\n        /* \"smart contract/SwapCryptoLoanUpdate/contracts/libraries/LibDiamond.sol\":6844:6863  ds.selectors.length */\n      dup1\n      sload\n      swap1\n      pop\n        /* \"smart contract/SwapCryptoLoanUpdate/contracts/libraries/LibDiamond.sol\":6820:6863  uint256 selectorCount = ds.selectors.length */\n      swap1\n      pop\n        /* \"smart contract/SwapCryptoLoanUpdate/contracts/libraries/LibDiamond.sol\":6919:6920  0 */\n      0x00\n        /* \"smart contract/SwapCryptoLoanUpdate/contracts/libraries/LibDiamond.sol\":6894:6921  _facetAddress == address(0) */\n      0xffffffffffffffffffffffffffffffffffffffff\n      and\n        /* \"smart contract/SwapCryptoLoanUpdate/contracts/libraries/LibDiamond.sol\":6894:6907  _facetAddress */\n      dup5\n        /* \"smart contract/SwapCryptoLoanUpdate/contracts/libraries/LibDiamond.sol\":6894:6921  _facetAddress == address(0) */\n      0xffffffffffffffffffffffffffffffffffffffff\n      and\n      eq\n        /* \"smart contract/SwapCryptoLoanUpdate/contracts/libraries/LibDiamond.sol\":6873:7001  require(... */\n      tag_123\n      jumpi\n      mload(0x40)\n      0x08c379a000000000000000000000000000000000000000000000000000000000\n      dup2\n      mstore\n      0x04\n      add\n      tag_124\n      swap1\n      tag_125\n      jump\t// in\n    tag_124:\n      mload(0x40)\n      dup1\n      swap2\n      sub\n      swap1\n      revert\n    tag_123:\n        /* \"smart contract/SwapCryptoLoanUpdate/contracts/libraries/LibDiamond.sol\":7029:7050  uint256 selectorIndex */\n      0x00\n        /* \"smart contract/SwapCryptoLoanUpdate/contracts/libraries/LibDiamond.sol\":7011:8642  for (... */\n    tag_126:\n        /* \"smart contract/SwapCryptoLoanUpdate/contracts/libraries/LibDiamond.sol\":7080:7098  _functionSelectors */\n      dup4\n        /* \"smart contract/SwapCryptoLoanUpdate/contracts/libraries/LibDiamond.sol\":7080:7105  _functionSelectors.length */\n      mload\n        /* \"smart contract/SwapCryptoLoanUpdate/contracts/libraries/LibDiamond.sol\":7064:7077  selectorIndex */\n      dup2\n        /* \"smart contract/SwapCryptoLoanUpdate/contracts/libraries/LibDiamond.sol\":7064:7105  selectorIndex < _functionSelectors.length */\n      lt\n        /* \"smart contract/SwapCryptoLoanUpdate/contracts/libraries/LibDiamond.sol\":7011:8642  for (... */\n      iszero\n      tag_127\n      jumpi\n        /* \"smart contract/SwapCryptoLoanUpdate/contracts/libraries/LibDiamond.sol\":7159:7174  bytes4 selector */\n      0x00\n        /* \"smart contract/SwapCryptoLoanUpdate/contracts/libraries/LibDiamond.sol\":7177:7195  _functionSelectors */\n      dup5\n        /* \"smart contract/SwapCryptoLoanUpdate/contracts/libraries/LibDiamond.sol\":7196:7209  selectorIndex */\n      dup3\n        /* \"smart contract/SwapCryptoLoanUpdate/contracts/libraries/LibDiamond.sol\":7177:7210  _functionSelectors[selectorIndex] */\n      dup2\n      mload\n      dup2\n      lt\n      tag_129\n      jumpi\n      tag_130\n      tag_27\n      jump\t// in\n    tag_130:\n    tag_129:\n      0x20\n      mul\n      0x20\n      add\n      add\n      mload\n        /* \"smart contract/SwapCryptoLoanUpdate/contracts/libraries/LibDiamond.sol\":7159:7210  bytes4 selector = _functionSelectors[selectorIndex] */\n      swap1\n      pop\n        /* \"smart contract/SwapCryptoLoanUpdate/contracts/libraries/LibDiamond.sol\":7224:7313  FacetAddressAndSelectorPosition... */\n      0x00\n        /* \"smart contract/SwapCryptoLoanUpdate/contracts/libraries/LibDiamond.sol\":7316:7318  ds */\n      dup5\n        /* \"smart contract/SwapCryptoLoanUpdate/contracts/libraries/LibDiamond.sol\":7316:7371  ds... */\n      0x00\n      add\n        /* \"smart contract/SwapCryptoLoanUpdate/contracts/libraries/LibDiamond.sol\":7316:7381  ds... */\n      0x00\n        /* \"smart contract/SwapCryptoLoanUpdate/contracts/libraries/LibDiamond.sol\":7372:7380  selector */\n      dup4\n        /* \"smart contract/SwapCryptoLoanUpdate/contracts/libraries/LibDiamond.sol\":7316:7381  ds... */\n      not(0xffffffffffffffffffffffffffffffffffffffffffffffffffffffff)\n      and\n      not(0xffffffffffffffffffffffffffffffffffffffffffffffffffffffff)\n      and\n      dup2\n      mstore\n      0x20\n      add\n      swap1\n      dup2\n      mstore\n      0x20\n      add\n      0x00\n      keccak256\n        /* \"smart contract/SwapCryptoLoanUpdate/contracts/libraries/LibDiamond.sol\":7224:7381  FacetAddressAndSelectorPosition... */\n      mload(0x40)\n      dup1\n      0x40\n      add\n      0x40\n      mstore\n      swap1\n      dup2\n      0x00\n      dup3\n      add\n      0x00\n      swap1\n      sload\n      swap1\n      0x0100\n      exp\n      swap1\n      div\n      0xffffffffffffffffffffffffffffffffffffffff\n      and\n      0xffffffffffffffffffffffffffffffffffffffff\n      and\n      0xffffffffffffffffffffffffffffffffffffffff\n      and\n      dup2\n      mstore\n      0x20\n      add\n      0x00\n      dup3\n      add\n      0x14\n      swap1\n      sload\n      swap1\n      0x0100\n      exp\n      swap1\n      div\n      0xffff\n      and\n      0xffff\n      and\n      0xffff\n      and\n      dup2\n      mstore\n      pop\n      pop\n      swap1\n      pop\n        /* \"smart contract/SwapCryptoLoanUpdate/contracts/libraries/LibDiamond.sol\":7479:7480  0 */\n      0x00\n        /* \"smart contract/SwapCryptoLoanUpdate/contracts/libraries/LibDiamond.sol\":7420:7481  oldFacetAddressAndSelectorPosition.facetAddress != address(0) */\n      0xffffffffffffffffffffffffffffffffffffffff\n      and\n        /* \"smart contract/SwapCryptoLoanUpdate/contracts/libraries/LibDiamond.sol\":7420:7454  oldFacetAddressAndSelectorPosition */\n      dup2\n        /* \"smart contract/SwapCryptoLoanUpdate/contracts/libraries/LibDiamond.sol\":7420:7467  oldFacetAddressAndSelectorPosition.facetAddress */\n      0x00\n      add\n      mload\n        /* \"smart contract/SwapCryptoLoanUpdate/contracts/libraries/LibDiamond.sol\":7420:7481  oldFacetAddressAndSelectorPosition.facetAddress != address(0) */\n      0xffffffffffffffffffffffffffffffffffffffff\n      and\n      sub\n        /* \"smart contract/SwapCryptoLoanUpdate/contracts/libraries/LibDiamond.sol\":7395:7570  require(... */\n      tag_131\n      jumpi\n      mload(0x40)\n      0x08c379a000000000000000000000000000000000000000000000000000000000\n      dup2\n      mstore\n      0x04\n      add\n      tag_132\n      swap1\n      tag_133\n      jump\t// in\n    tag_132:\n      mload(0x40)\n      dup1\n      swap2\n      sub\n      swap1\n      revert\n    tag_131:\n        /* \"smart contract/SwapCryptoLoanUpdate/contracts/libraries/LibDiamond.sol\":7781:7785  this */\n      address\n        /* \"smart contract/SwapCryptoLoanUpdate/contracts/libraries/LibDiamond.sol\":7702:7786  oldFacetAddressAndSelectorPosition.facetAddress !=... */\n      0xffffffffffffffffffffffffffffffffffffffff\n      and\n        /* \"smart contract/SwapCryptoLoanUpdate/contracts/libraries/LibDiamond.sol\":7702:7736  oldFacetAddressAndSelectorPosition */\n      dup2\n        /* \"smart contract/SwapCryptoLoanUpdate/contracts/libraries/LibDiamond.sol\":7702:7749  oldFacetAddressAndSelectorPosition.facetAddress */\n      0x00\n      add\n      mload\n        /* \"smart contract/SwapCryptoLoanUpdate/contracts/libraries/LibDiamond.sol\":7702:7786  oldFacetAddressAndSelectorPosition.facetAddress !=... */\n      0xffffffffffffffffffffffffffffffffffffffff\n      and\n      sub\n        /* \"smart contract/SwapCryptoLoanUpdate/contracts/libraries/LibDiamond.sol\":7677:7867  require(... */\n      tag_134\n      jumpi\n      mload(0x40)\n      0x08c379a000000000000000000000000000000000000000000000000000000000\n      dup2\n      mstore\n      0x04\n      add\n      tag_135\n      swap1\n      tag_136\n      jump\t// in\n    tag_135:\n      mload(0x40)\n      dup1\n      swap2\n      sub\n      swap1\n      revert\n    tag_134:\n        /* \"smart contract/SwapCryptoLoanUpdate/contracts/libraries/LibDiamond.sol\":7932:7947  selectorCount-- */\n      dup4\n      dup1\n      tag_137\n      swap1\n      tag_138\n      jump\t// in\n    tag_137:\n      swap5\n      pop\n      pop\n        /* \"smart contract/SwapCryptoLoanUpdate/contracts/libraries/LibDiamond.sol\":8053:8066  selectorCount */\n      dup4\n        /* \"smart contract/SwapCryptoLoanUpdate/contracts/libraries/LibDiamond.sol\":7982:8016  oldFacetAddressAndSelectorPosition */\n      dup2\n        /* \"smart contract/SwapCryptoLoanUpdate/contracts/libraries/LibDiamond.sol\":7982:8033  oldFacetAddressAndSelectorPosition.selectorPosition */\n      0x20\n      add\n      mload\n        /* \"smart contract/SwapCryptoLoanUpdate/contracts/libraries/LibDiamond.sol\":7982:8066  oldFacetAddressAndSelectorPosition.selectorPosition !=... */\n      0xffff\n      and\n      eq\n        /* \"smart contract/SwapCryptoLoanUpdate/contracts/libraries/LibDiamond.sol\":7961:8499  if (... */\n      tag_139\n      jumpi\n        /* \"smart contract/SwapCryptoLoanUpdate/contracts/libraries/LibDiamond.sol\":8099:8118  bytes4 lastSelector */\n      0x00\n        /* \"smart contract/SwapCryptoLoanUpdate/contracts/libraries/LibDiamond.sol\":8121:8123  ds */\n      dup6\n        /* \"smart contract/SwapCryptoLoanUpdate/contracts/libraries/LibDiamond.sol\":8121:8133  ds.selectors */\n      0x01\n      add\n        /* \"smart contract/SwapCryptoLoanUpdate/contracts/libraries/LibDiamond.sol\":8134:8147  selectorCount */\n      dup6\n        /* \"smart contract/SwapCryptoLoanUpdate/contracts/libraries/LibDiamond.sol\":8121:8148  ds.selectors[selectorCount] */\n      dup2\n      sload\n      dup2\n      lt\n      tag_140\n      jumpi\n      tag_141\n      tag_27\n      jump\t// in\n    tag_141:\n    tag_140:\n      swap1\n      0x00\n      mstore\n      keccak256(0x00, 0x20)\n      swap1\n      0x08\n      swap2\n      dup3\n      dup3\n      div\n      add\n      swap2\n      swap1\n      mod\n      0x04\n      mul\n      swap1\n      sload\n      swap1\n      0x0100\n      exp\n      swap1\n      div\n      0xe0\n      shl\n        /* \"smart contract/SwapCryptoLoanUpdate/contracts/libraries/LibDiamond.sol\":8099:8148  bytes4 lastSelector = ds.selectors[selectorCount] */\n      swap1\n      pop\n        /* \"smart contract/SwapCryptoLoanUpdate/contracts/libraries/LibDiamond.sol\":8272:8284  lastSelector */\n      dup1\n        /* \"smart contract/SwapCryptoLoanUpdate/contracts/libraries/LibDiamond.sol\":8166:8168  ds */\n      dup7\n        /* \"smart contract/SwapCryptoLoanUpdate/contracts/libraries/LibDiamond.sol\":8166:8178  ds.selectors */\n      0x01\n      add\n        /* \"smart contract/SwapCryptoLoanUpdate/contracts/libraries/LibDiamond.sol\":8200:8234  oldFacetAddressAndSelectorPosition */\n      dup4\n        /* \"smart contract/SwapCryptoLoanUpdate/contracts/libraries/LibDiamond.sol\":8200:8251  oldFacetAddressAndSelectorPosition.selectorPosition */\n      0x20\n      add\n      mload\n        /* \"smart contract/SwapCryptoLoanUpdate/contracts/libraries/LibDiamond.sol\":8166:8269  ds.selectors[... */\n      0xffff\n      and\n      dup2\n      sload\n      dup2\n      lt\n      tag_143\n      jumpi\n      tag_144\n      tag_27\n      jump\t// in\n    tag_144:\n    tag_143:\n      swap1\n      0x00\n      mstore\n      keccak256(0x00, 0x20)\n      swap1\n      0x08\n      swap2\n      dup3\n      dup3\n      div\n      add\n      swap2\n      swap1\n      mod\n      0x04\n      mul\n        /* \"smart contract/SwapCryptoLoanUpdate/contracts/libraries/LibDiamond.sol\":8166:8284  ds.selectors[... */\n      0x0100\n      exp\n      dup2\n      sload\n      dup2\n      0xffffffff\n      mul\n      not\n      and\n      swap1\n      dup4\n      0xe0\n      shr\n      mul\n      or\n      swap1\n      sstore\n      pop\n        /* \"smart contract/SwapCryptoLoanUpdate/contracts/libraries/LibDiamond.sol\":8412:8446  oldFacetAddressAndSelectorPosition */\n      dup2\n        /* \"smart contract/SwapCryptoLoanUpdate/contracts/libraries/LibDiamond.sol\":8412:8484  oldFacetAddressAndSelectorPosition... */\n      0x20\n      add\n      mload\n        /* \"smart contract/SwapCryptoLoanUpdate/contracts/libraries/LibDiamond.sol\":8302:8304  ds */\n      dup7\n        /* \"smart contract/SwapCryptoLoanUpdate/contracts/libraries/LibDiamond.sol\":8302:8357  ds... */\n      0x00\n      add\n        /* \"smart contract/SwapCryptoLoanUpdate/contracts/libraries/LibDiamond.sol\":8302:8371  ds... */\n      0x00\n        /* \"smart contract/SwapCryptoLoanUpdate/contracts/libraries/LibDiamond.sol\":8358:8370  lastSelector */\n      dup4\n        /* \"smart contract/SwapCryptoLoanUpdate/contracts/libraries/LibDiamond.sol\":8302:8371  ds... */\n      not(0xffffffffffffffffffffffffffffffffffffffffffffffffffffffff)\n      and\n      not(0xffffffffffffffffffffffffffffffffffffffffffffffffffffffff)\n      and\n      dup2\n      mstore\n      0x20\n      add\n      swap1\n      dup2\n      mstore\n      0x20\n      add\n      0x00\n      keccak256\n        /* \"smart contract/SwapCryptoLoanUpdate/contracts/libraries/LibDiamond.sol\":8302:8409  ds... */\n      0x00\n      add\n      0x14\n        /* \"smart contract/SwapCryptoLoanUpdate/contracts/libraries/LibDiamond.sol\":8302:8484  ds... */\n      0x0100\n      exp\n      dup2\n      sload\n      dup2\n      0xffff\n      mul\n      not\n      and\n      swap1\n      dup4\n      0xffff\n      and\n      mul\n      or\n      swap1\n      sstore\n      pop\n        /* \"smart contract/SwapCryptoLoanUpdate/contracts/libraries/LibDiamond.sol\":8081:8499  {... */\n      pop\n        /* \"smart contract/SwapCryptoLoanUpdate/contracts/libraries/LibDiamond.sol\":7961:8499  if (... */\n    tag_139:\n        /* \"smart contract/SwapCryptoLoanUpdate/contracts/libraries/LibDiamond.sol\":8548:8550  ds */\n      dup5\n        /* \"smart contract/SwapCryptoLoanUpdate/contracts/libraries/LibDiamond.sol\":8548:8560  ds.selectors */\n      0x01\n      add\n        /* \"smart contract/SwapCryptoLoanUpdate/contracts/libraries/LibDiamond.sol\":8548:8566  ds.selectors.pop() */\n      dup1\n      sload\n      dup1\n      tag_146\n      jumpi\n      tag_147\n      tag_148\n      jump\t// in\n    tag_147:\n    tag_146:\n      0x01\n      swap1\n      sub\n      dup2\n      dup2\n      swap1\n      0x00\n      mstore\n      keccak256(0x00, 0x20)\n      swap1\n      0x08\n      swap2\n      dup3\n      dup3\n      div\n      add\n      swap2\n      swap1\n      mod\n      0x04\n      mul\n      0x0100\n      exp\n      dup2\n      sload\n      swap1\n      0xffffffff\n      mul\n      not\n      and\n      swap1\n      sstore\n      swap1\n      sstore\n        /* \"smart contract/SwapCryptoLoanUpdate/contracts/libraries/LibDiamond.sol\":8587:8589  ds */\n      dup5\n        /* \"smart contract/SwapCryptoLoanUpdate/contracts/libraries/LibDiamond.sol\":8587:8621  ds.facetAddressAndSelectorPosition */\n      0x00\n      add\n        /* \"smart contract/SwapCryptoLoanUpdate/contracts/libraries/LibDiamond.sol\":8587:8631  ds.facetAddressAndSelectorPosition[selector] */\n      0x00\n        /* \"smart contract/SwapCryptoLoanUpdate/contracts/libraries/LibDiamond.sol\":8622:8630  selector */\n      dup4\n        /* \"smart contract/SwapCryptoLoanUpdate/contracts/libraries/LibDiamond.sol\":8587:8631  ds.facetAddressAndSelectorPosition[selector] */\n      not(0xffffffffffffffffffffffffffffffffffffffffffffffffffffffff)\n      and\n      not(0xffffffffffffffffffffffffffffffffffffffffffffffffffffffff)\n      and\n      dup2\n      mstore\n      0x20\n      add\n      swap1\n      dup2\n      mstore\n      0x20\n      add\n      0x00\n      keccak256\n      0x00\n        /* \"smart contract/SwapCryptoLoanUpdate/contracts/libraries/LibDiamond.sol\":8580:8631  delete ds.facetAddressAndSelectorPosition[selector] */\n      dup1\n      dup3\n      add\n      exp(0x0100, 0x00)\n      dup2\n      sload\n      swap1\n      0xffffffffffffffffffffffffffffffffffffffff\n      mul\n      not\n      and\n      swap1\n      sstore\n      0x00\n      dup3\n      add\n      exp(0x0100, 0x14)\n      dup2\n      sload\n      swap1\n      0xffff\n      mul\n      not\n      and\n      swap1\n      sstore\n      pop\n      pop\n        /* \"smart contract/SwapCryptoLoanUpdate/contracts/libraries/LibDiamond.sol\":7145:8642  {... */\n      pop\n      pop\n        /* \"smart contract/SwapCryptoLoanUpdate/contracts/libraries/LibDiamond.sol\":7119:7134  selectorIndex++ */\n      dup1\n      dup1\n      tag_150\n      swap1\n      tag_68\n      jump\t// in\n    tag_150:\n      swap2\n      pop\n      pop\n        /* \"smart contract/SwapCryptoLoanUpdate/contracts/libraries/LibDiamond.sol\":7011:8642  for (... */\n      jump(tag_126)\n    tag_127:\n      pop\n        /* \"smart contract/SwapCryptoLoanUpdate/contracts/libraries/LibDiamond.sol\":6627:8648  {... */\n      pop\n      pop\n        /* \"smart contract/SwapCryptoLoanUpdate/contracts/libraries/LibDiamond.sol\":6512:8648  function removeFunctions(... */\n      pop\n      pop\n      jump\t// out\n        /* \"smart contract/SwapCryptoLoanUpdate/contracts/libraries/LibDiamond.sol\":8654:9687  function initializeDiamondCut(address _init, bytes memory _calldata)... */\n    tag_72:\n        /* \"smart contract/SwapCryptoLoanUpdate/contracts/libraries/LibDiamond.sol\":8775:8776  0 */\n      0x00\n        /* \"smart contract/SwapCryptoLoanUpdate/contracts/libraries/LibDiamond.sol\":8758:8777  _init == address(0) */\n      0xffffffffffffffffffffffffffffffffffffffff\n      and\n        /* \"smart contract/SwapCryptoLoanUpdate/contracts/libraries/LibDiamond.sol\":8758:8763  _init */\n      dup3\n        /* \"smart contract/SwapCryptoLoanUpdate/contracts/libraries/LibDiamond.sol\":8758:8777  _init == address(0) */\n      0xffffffffffffffffffffffffffffffffffffffff\n      and\n      sub\n        /* \"smart contract/SwapCryptoLoanUpdate/contracts/libraries/LibDiamond.sol\":8754:9681  if (_init == address(0)) {... */\n      tag_152\n      jumpi\n        /* \"smart contract/SwapCryptoLoanUpdate/contracts/libraries/LibDiamond.sol\":8838:8839  0 */\n      0x00\n        /* \"smart contract/SwapCryptoLoanUpdate/contracts/libraries/LibDiamond.sol\":8818:8827  _calldata */\n      dup2\n        /* \"smart contract/SwapCryptoLoanUpdate/contracts/libraries/LibDiamond.sol\":8818:8834  _calldata.length */\n      mload\n        /* \"smart contract/SwapCryptoLoanUpdate/contracts/libraries/LibDiamond.sol\":8818:8839  _calldata.length == 0 */\n      eq\n        /* \"smart contract/SwapCryptoLoanUpdate/contracts/libraries/LibDiamond.sol\":8793:8933  require(... */\n      tag_153\n      jumpi\n      mload(0x40)\n      0x08c379a000000000000000000000000000000000000000000000000000000000\n      dup2\n      mstore\n      0x04\n      add\n      tag_154\n      swap1\n      tag_155\n      jump\t// in\n    tag_154:\n      mload(0x40)\n      dup1\n      swap2\n      sub\n      swap1\n      revert\n    tag_153:\n        /* \"smart contract/SwapCryptoLoanUpdate/contracts/libraries/LibDiamond.sol\":8754:9681  if (_init == address(0)) {... */\n      jump(tag_156)\n    tag_152:\n        /* \"smart contract/SwapCryptoLoanUpdate/contracts/libraries/LibDiamond.sol\":9008:9009  0 */\n      0x00\n        /* \"smart contract/SwapCryptoLoanUpdate/contracts/libraries/LibDiamond.sol\":8989:8998  _calldata */\n      dup2\n        /* \"smart contract/SwapCryptoLoanUpdate/contracts/libraries/LibDiamond.sol\":8989:9005  _calldata.length */\n      mload\n        /* \"smart contract/SwapCryptoLoanUpdate/contracts/libraries/LibDiamond.sol\":8989:9009  _calldata.length > 0 */\n      gt\n        /* \"smart contract/SwapCryptoLoanUpdate/contracts/libraries/LibDiamond.sol\":8964:9104  require(... */\n      tag_157\n      jumpi\n      mload(0x40)\n      0x08c379a000000000000000000000000000000000000000000000000000000000\n      dup2\n      mstore\n      0x04\n      add\n      tag_158\n      swap1\n      tag_159\n      jump\t// in\n    tag_158:\n      mload(0x40)\n      dup1\n      swap2\n      sub\n      swap1\n      revert\n    tag_157:\n        /* \"smart contract/SwapCryptoLoanUpdate/contracts/libraries/LibDiamond.sol\":9139:9143  this */\n      address\n        /* \"smart contract/SwapCryptoLoanUpdate/contracts/libraries/LibDiamond.sol\":9122:9144  _init != address(this) */\n      0xffffffffffffffffffffffffffffffffffffffff\n      and\n        /* \"smart contract/SwapCryptoLoanUpdate/contracts/libraries/LibDiamond.sol\":9122:9127  _init */\n      dup3\n        /* \"smart contract/SwapCryptoLoanUpdate/contracts/libraries/LibDiamond.sol\":9122:9144  _init != address(this) */\n      0xffffffffffffffffffffffffffffffffffffffff\n      and\n      eq\n        /* \"smart contract/SwapCryptoLoanUpdate/contracts/libraries/LibDiamond.sol\":9118:9310  if (_init != address(this)) {... */\n      tag_160\n      jumpi\n        /* \"smart contract/SwapCryptoLoanUpdate/contracts/libraries/LibDiamond.sol\":9164:9295  enforceHasContractCode(... */\n      tag_161\n        /* \"smart contract/SwapCryptoLoanUpdate/contracts/libraries/LibDiamond.sol\":9208:9213  _init */\n      dup3\n        /* \"smart contract/SwapCryptoLoanUpdate/contracts/libraries/LibDiamond.sol\":9164:9295  enforceHasContractCode(... */\n      mload(0x40)\n      dup1\n      0x60\n      add\n      0x40\n      mstore\n      dup1\n      0x28\n      dup2\n      mstore\n      0x20\n      add\n      data_460f8f0920c649146ef02741816b1cf9ce4f02ea288ceb73adf027cefe9069a0\n      0x28\n      swap2\n      codecopy\n        /* \"smart contract/SwapCryptoLoanUpdate/contracts/libraries/LibDiamond.sol\":9164:9186  enforceHasContractCode */\n      tag_83\n        /* \"smart contract/SwapCryptoLoanUpdate/contracts/libraries/LibDiamond.sol\":9164:9295  enforceHasContractCode(... */\n      jump\t// in\n    tag_161:\n        /* \"smart contract/SwapCryptoLoanUpdate/contracts/libraries/LibDiamond.sol\":9118:9310  if (_init != address(this)) {... */\n    tag_160:\n        /* \"smart contract/SwapCryptoLoanUpdate/contracts/libraries/LibDiamond.sol\":9324:9336  bool success */\n      0x00\n        /* \"smart contract/SwapCryptoLoanUpdate/contracts/libraries/LibDiamond.sol\":9338:9356  bytes memory error */\n      dup1\n        /* \"smart contract/SwapCryptoLoanUpdate/contracts/libraries/LibDiamond.sol\":9360:9365  _init */\n      dup4\n        /* \"smart contract/SwapCryptoLoanUpdate/contracts/libraries/LibDiamond.sol\":9360:9378  _init.delegatecall */\n      0xffffffffffffffffffffffffffffffffffffffff\n      and\n        /* \"smart contract/SwapCryptoLoanUpdate/contracts/libraries/LibDiamond.sol\":9379:9388  _calldata */\n      dup4\n        /* \"smart contract/SwapCryptoLoanUpdate/contracts/libraries/LibDiamond.sol\":9360:9389  _init.delegatecall(_calldata) */\n      mload(0x40)\n      tag_162\n      swap2\n      swap1\n      tag_163\n      jump\t// in\n    tag_162:\n      0x00\n      mload(0x40)\n      dup1\n      dup4\n      sub\n      dup2\n      dup6\n      gas\n      delegatecall\n      swap2\n      pop\n      pop\n      returndatasize\n      dup1\n      0x00\n      dup2\n      eq\n      tag_166\n      jumpi\n      mload(0x40)\n      swap2\n      pop\n      and(add(returndatasize, 0x3f), not(0x1f))\n      dup3\n      add\n      0x40\n      mstore\n      returndatasize\n      dup3\n      mstore\n      returndatasize\n      0x00\n      0x20\n      dup5\n      add\n      returndatacopy\n      jump(tag_165)\n    tag_166:\n      0x60\n      swap2\n      pop\n    tag_165:\n      pop\n        /* \"smart contract/SwapCryptoLoanUpdate/contracts/libraries/LibDiamond.sol\":9323:9389  (bool success, bytes memory error) = _init.delegatecall(_calldata) */\n      swap2\n      pop\n      swap2\n      pop\n        /* \"smart contract/SwapCryptoLoanUpdate/contracts/libraries/LibDiamond.sol\":9408:9415  success */\n      dup2\n        /* \"smart contract/SwapCryptoLoanUpdate/contracts/libraries/LibDiamond.sol\":9403:9671  if (!success) {... */\n      tag_167\n      jumpi\n        /* \"smart contract/SwapCryptoLoanUpdate/contracts/libraries/LibDiamond.sol\":9454:9455  0 */\n      0x00\n        /* \"smart contract/SwapCryptoLoanUpdate/contracts/libraries/LibDiamond.sol\":9439:9444  error */\n      dup2\n        /* \"smart contract/SwapCryptoLoanUpdate/contracts/libraries/LibDiamond.sol\":9439:9451  error.length */\n      mload\n        /* \"smart contract/SwapCryptoLoanUpdate/contracts/libraries/LibDiamond.sol\":9439:9455  error.length > 0 */\n      gt\n        /* \"smart contract/SwapCryptoLoanUpdate/contracts/libraries/LibDiamond.sol\":9435:9657  if (error.length > 0) {... */\n      iszero\n      tag_168\n      jumpi\n        /* \"smart contract/SwapCryptoLoanUpdate/contracts/libraries/LibDiamond.sol\":9536:9541  error */\n      dup1\n        /* \"smart contract/SwapCryptoLoanUpdate/contracts/libraries/LibDiamond.sol\":9522:9543  revert(string(error)) */\n      mload(0x40)\n      0x08c379a000000000000000000000000000000000000000000000000000000000\n      dup2\n      mstore\n      0x04\n      add\n      tag_169\n      swap2\n      swap1\n      tag_170\n      jump\t// in\n    tag_169:\n      mload(0x40)\n      dup1\n      swap2\n      sub\n      swap1\n      revert\n        /* \"smart contract/SwapCryptoLoanUpdate/contracts/libraries/LibDiamond.sol\":9435:9657  if (error.length > 0) {... */\n    tag_168:\n        /* \"smart contract/SwapCryptoLoanUpdate/contracts/libraries/LibDiamond.sol\":9590:9638  revert(\"LibDiamondCut: _init function reverted\") */\n      mload(0x40)\n      0x08c379a000000000000000000000000000000000000000000000000000000000\n      dup2\n      mstore\n      0x04\n      add\n      tag_172\n      swap1\n      tag_173\n      jump\t// in\n    tag_172:\n      mload(0x40)\n      dup1\n      swap2\n      sub\n      swap1\n      revert\n        /* \"smart contract/SwapCryptoLoanUpdate/contracts/libraries/LibDiamond.sol\":9403:9671  if (!success) {... */\n    tag_167:\n        /* \"smart contract/SwapCryptoLoanUpdate/contracts/libraries/LibDiamond.sol\":8950:9681  {... */\n      pop\n      pop\n        /* \"smart contract/SwapCryptoLoanUpdate/contracts/libraries/LibDiamond.sol\":8754:9681  if (_init == address(0)) {... */\n    tag_156:\n        /* \"smart contract/SwapCryptoLoanUpdate/contracts/libraries/LibDiamond.sol\":8654:9687  function initializeDiamondCut(address _init, bytes memory _calldata)... */\n      pop\n      pop\n      jump\t// out\n        /* \"smart contract/SwapCryptoLoanUpdate/contracts/libraries/LibDiamond.sol\":9693:9976  function enforceHasContractCode(... */\n    tag_83:\n        /* \"smart contract/SwapCryptoLoanUpdate/contracts/libraries/LibDiamond.sol\":9819:9839  uint256 contractSize */\n      0x00\n        /* \"smart contract/SwapCryptoLoanUpdate/contracts/libraries/LibDiamond.sol\":9900:9909  _contract */\n      dup3\n        /* \"smart contract/SwapCryptoLoanUpdate/contracts/libraries/LibDiamond.sol\":9888:9910  extcodesize(_contract) */\n      extcodesize\n        /* \"smart contract/SwapCryptoLoanUpdate/contracts/libraries/LibDiamond.sol\":9872:9910  contractSize := extcodesize(_contract) */\n      swap1\n      pop\n        /* \"smart contract/SwapCryptoLoanUpdate/contracts/libraries/LibDiamond.sol\":9952:9953  0 */\n      0x00\n        /* \"smart contract/SwapCryptoLoanUpdate/contracts/libraries/LibDiamond.sol\":9937:9949  contractSize */\n      dup2\n        /* \"smart contract/SwapCryptoLoanUpdate/contracts/libraries/LibDiamond.sol\":9937:9953  contractSize > 0 */\n      gt\n        /* \"smart contract/SwapCryptoLoanUpdate/contracts/libraries/LibDiamond.sol\":9955:9968  _errorMessage */\n      dup3\n        /* \"smart contract/SwapCryptoLoanUpdate/contracts/libraries/LibDiamond.sol\":9929:9969  require(contractSize > 0, _errorMessage) */\n      swap1\n      tag_175\n      jumpi\n      mload(0x40)\n      0x08c379a000000000000000000000000000000000000000000000000000000000\n      dup2\n      mstore\n      0x04\n      add\n      tag_176\n      swap2\n      swap1\n      tag_170\n      jump\t// in\n    tag_176:\n      mload(0x40)\n      dup1\n      swap2\n      sub\n      swap1\n      revert\n    tag_175:\n      pop\n        /* \"smart contract/SwapCryptoLoanUpdate/contracts/libraries/LibDiamond.sol\":9809:9976  {... */\n      pop\n        /* \"smart contract/SwapCryptoLoanUpdate/contracts/libraries/LibDiamond.sol\":9693:9976  function enforceHasContractCode(... */\n      pop\n      pop\n      jump\t// out\n        /* \"#utility.yul\":7:82   */\n    tag_177:\n        /* \"#utility.yul\":40:46   */\n      0x00\n        /* \"#utility.yul\":73:75   */\n      0x40\n        /* \"#utility.yul\":67:76   */\n      mload\n        /* \"#utility.yul\":57:76   */\n      swap1\n      pop\n        /* \"#utility.yul\":7:82   */\n      swap1\n      jump\t// out\n        /* \"#utility.yul\":88:205   */\n    tag_178:\n        /* \"#utility.yul\":197:198   */\n      0x00\n        /* \"#utility.yul\":194:195   */\n      dup1\n        /* \"#utility.yul\":187:199   */\n      revert\n        /* \"#utility.yul\":211:328   */\n    tag_179:\n        /* \"#utility.yul\":320:321   */\n      0x00\n        /* \"#utility.yul\":317:318   */\n      dup1\n        /* \"#utility.yul\":310:322   */\n      revert\n        /* \"#utility.yul\":334:451   */\n    tag_180:\n        /* \"#utility.yul\":443:444   */\n      0x00\n        /* \"#utility.yul\":440:441   */\n      dup1\n        /* \"#utility.yul\":433:445   */\n      revert\n        /* \"#utility.yul\":457:574   */\n    tag_181:\n        /* \"#utility.yul\":566:567   */\n      0x00\n        /* \"#utility.yul\":563:564   */\n      dup1\n        /* \"#utility.yul\":556:568   */\n      revert\n        /* \"#utility.yul\":580:697   */\n    tag_182:\n        /* \"#utility.yul\":689:690   */\n      0x00\n        /* \"#utility.yul\":686:687   */\n      dup1\n        /* \"#utility.yul\":679:691   */\n      revert\n        /* \"#utility.yul\":740:1334   */\n    tag_183:\n        /* \"#utility.yul\":839:847   */\n      0x00\n        /* \"#utility.yul\":849:855   */\n      dup1\n        /* \"#utility.yul\":899:902   */\n      dup4\n        /* \"#utility.yul\":892:896   */\n      0x1f\n        /* \"#utility.yul\":884:890   */\n      dup5\n        /* \"#utility.yul\":880:897   */\n      add\n        /* \"#utility.yul\":876:903   */\n      slt\n        /* \"#utility.yul\":866:988   */\n      tag_276\n      jumpi\n        /* \"#utility.yul\":907:986   */\n      tag_277\n      tag_180\n      jump\t// in\n    tag_277:\n        /* \"#utility.yul\":866:988   */\n    tag_276:\n        /* \"#utility.yul\":1020:1026   */\n      dup3\n        /* \"#utility.yul\":1007:1027   */\n      calldataload\n        /* \"#utility.yul\":997:1027   */\n      swap1\n      pop\n        /* \"#utility.yul\":1050:1068   */\n      0xffffffffffffffff\n        /* \"#utility.yul\":1042:1048   */\n      dup2\n        /* \"#utility.yul\":1039:1069   */\n      gt\n        /* \"#utility.yul\":1036:1153   */\n      iszero\n      tag_278\n      jumpi\n        /* \"#utility.yul\":1072:1151   */\n      tag_279\n      tag_181\n      jump\t// in\n    tag_279:\n        /* \"#utility.yul\":1036:1153   */\n    tag_278:\n        /* \"#utility.yul\":1186:1190   */\n      0x20\n        /* \"#utility.yul\":1178:1184   */\n      dup4\n        /* \"#utility.yul\":1174:1191   */\n      add\n        /* \"#utility.yul\":1162:1191   */\n      swap2\n      pop\n        /* \"#utility.yul\":1240:1243   */\n      dup4\n        /* \"#utility.yul\":1232:1236   */\n      0x20\n        /* \"#utility.yul\":1224:1230   */\n      dup3\n        /* \"#utility.yul\":1220:1237   */\n      mul\n        /* \"#utility.yul\":1210:1218   */\n      dup4\n        /* \"#utility.yul\":1206:1238   */\n      add\n        /* \"#utility.yul\":1203:1244   */\n      gt\n        /* \"#utility.yul\":1200:1328   */\n      iszero\n      tag_280\n      jumpi\n        /* \"#utility.yul\":1247:1326   */\n      tag_281\n      tag_182\n      jump\t// in\n    tag_281:\n        /* \"#utility.yul\":1200:1328   */\n    tag_280:\n        /* \"#utility.yul\":740:1334   */\n      swap3\n      pop\n      swap3\n      swap1\n      pop\n      jump\t// out\n        /* \"#utility.yul\":1340:1466   */\n    tag_184:\n        /* \"#utility.yul\":1377:1384   */\n      0x00\n        /* \"#utility.yul\":1417:1459   */\n      0xffffffffffffffffffffffffffffffffffffffff\n        /* \"#utility.yul\":1410:1415   */\n      dup3\n        /* \"#utility.yul\":1406:1460   */\n      and\n        /* \"#utility.yul\":1395:1460   */\n      swap1\n      pop\n        /* \"#utility.yul\":1340:1466   */\n      swap2\n      swap1\n      pop\n      jump\t// out\n        /* \"#utility.yul\":1472:1568   */\n    tag_185:\n        /* \"#utility.yul\":1509:1516   */\n      0x00\n        /* \"#utility.yul\":1538:1562   */\n      tag_284\n        /* \"#utility.yul\":1556:1561   */\n      dup3\n        /* \"#utility.yul\":1538:1562   */\n      tag_184\n      jump\t// in\n    tag_284:\n        /* \"#utility.yul\":1527:1562   */\n      swap1\n      pop\n        /* \"#utility.yul\":1472:1568   */\n      swap2\n      swap1\n      pop\n      jump\t// out\n        /* \"#utility.yul\":1574:1696   */\n    tag_186:\n        /* \"#utility.yul\":1647:1671   */\n      tag_286\n        /* \"#utility.yul\":1665:1670   */\n      dup2\n        /* \"#utility.yul\":1647:1671   */\n      tag_185\n      jump\t// in\n    tag_286:\n        /* \"#utility.yul\":1640:1645   */\n      dup2\n        /* \"#utility.yul\":1637:1672   */\n      eq\n        /* \"#utility.yul\":1627:1690   */\n      tag_287\n      jumpi\n        /* \"#utility.yul\":1686:1687   */\n      0x00\n        /* \"#utility.yul\":1683:1684   */\n      dup1\n        /* \"#utility.yul\":1676:1688   */\n      revert\n        /* \"#utility.yul\":1627:1690   */\n    tag_287:\n        /* \"#utility.yul\":1574:1696   */\n      pop\n      jump\t// out\n        /* \"#utility.yul\":1702:1841   */\n    tag_187:\n        /* \"#utility.yul\":1748:1753   */\n      0x00\n        /* \"#utility.yul\":1786:1792   */\n      dup2\n        /* \"#utility.yul\":1773:1793   */\n      calldataload\n        /* \"#utility.yul\":1764:1793   */\n      swap1\n      pop\n        /* \"#utility.yul\":1802:1835   */\n      tag_289\n        /* \"#utility.yul\":1829:1834   */\n      dup2\n        /* \"#utility.yul\":1802:1835   */\n      tag_186\n      jump\t// in\n    tag_289:\n        /* \"#utility.yul\":1702:1841   */\n      swap3\n      swap2\n      pop\n      pop\n      jump\t// out\n        /* \"#utility.yul\":1860:2412   */\n    tag_188:\n        /* \"#utility.yul\":1917:1925   */\n      0x00\n        /* \"#utility.yul\":1927:1933   */\n      dup1\n        /* \"#utility.yul\":1977:1980   */\n      dup4\n        /* \"#utility.yul\":1970:1974   */\n      0x1f\n        /* \"#utility.yul\":1962:1968   */\n      dup5\n        /* \"#utility.yul\":1958:1975   */\n      add\n        /* \"#utility.yul\":1954:1981   */\n      slt\n        /* \"#utility.yul\":1944:2066   */\n      tag_291\n      jumpi\n        /* \"#utility.yul\":1985:2064   */\n      tag_292\n      tag_180\n      jump\t// in\n    tag_292:\n        /* \"#utility.yul\":1944:2066   */\n    tag_291:\n        /* \"#utility.yul\":2098:2104   */\n      dup3\n        /* \"#utility.yul\":2085:2105   */\n      calldataload\n        /* \"#utility.yul\":2075:2105   */\n      swap1\n      pop\n        /* \"#utility.yul\":2128:2146   */\n      0xffffffffffffffff\n        /* \"#utility.yul\":2120:2126   */\n      dup2\n        /* \"#utility.yul\":2117:2147   */\n      gt\n        /* \"#utility.yul\":2114:2231   */\n      iszero\n      tag_293\n      jumpi\n        /* \"#utility.yul\":2150:2229   */\n      tag_294\n      tag_181\n      jump\t// in\n    tag_294:\n        /* \"#utility.yul\":2114:2231   */\n    tag_293:\n        /* \"#utility.yul\":2264:2268   */\n      0x20\n        /* \"#utility.yul\":2256:2262   */\n      dup4\n        /* \"#utility.yul\":2252:2269   */\n      add\n        /* \"#utility.yul\":2240:2269   */\n      swap2\n      pop\n        /* \"#utility.yul\":2318:2321   */\n      dup4\n        /* \"#utility.yul\":2310:2314   */\n      0x01\n        /* \"#utility.yul\":2302:2308   */\n      dup3\n        /* \"#utility.yul\":2298:2315   */\n      mul\n        /* \"#utility.yul\":2288:2296   */\n      dup4\n        /* \"#utility.yul\":2284:2316   */\n      add\n        /* \"#utility.yul\":2281:2322   */\n      gt\n        /* \"#utility.yul\":2278:2406   */\n      iszero\n      tag_295\n      jumpi\n        /* \"#utility.yul\":2325:2404   */\n      tag_296\n      tag_182\n      jump\t// in\n    tag_296:\n        /* \"#utility.yul\":2278:2406   */\n    tag_295:\n        /* \"#utility.yul\":1860:2412   */\n      swap3\n      pop\n      swap3\n      swap1\n      pop\n      jump\t// out\n        /* \"#utility.yul\":2418:3517   */\n    tag_6:\n        /* \"#utility.yul\":2559:2565   */\n      0x00\n        /* \"#utility.yul\":2567:2573   */\n      dup1\n        /* \"#utility.yul\":2575:2581   */\n      0x00\n        /* \"#utility.yul\":2583:2589   */\n      dup1\n        /* \"#utility.yul\":2591:2597   */\n      0x00\n        /* \"#utility.yul\":2640:2642   */\n      0x60\n        /* \"#utility.yul\":2628:2637   */\n      dup7\n        /* \"#utility.yul\":2619:2626   */\n      dup9\n        /* \"#utility.yul\":2615:2638   */\n      sub\n        /* \"#utility.yul\":2611:2643   */\n      slt\n        /* \"#utility.yul\":2608:2727   */\n      iszero\n      tag_298\n      jumpi\n        /* \"#utility.yul\":2646:2725   */\n      tag_299\n      tag_178\n      jump\t// in\n    tag_299:\n        /* \"#utility.yul\":2608:2727   */\n    tag_298:\n        /* \"#utility.yul\":2794:2795   */\n      0x00\n        /* \"#utility.yul\":2783:2792   */\n      dup7\n        /* \"#utility.yul\":2779:2796   */\n      add\n        /* \"#utility.yul\":2766:2797   */\n      calldataload\n        /* \"#utility.yul\":2824:2842   */\n      0xffffffffffffffff\n        /* \"#utility.yul\":2816:2822   */\n      dup2\n        /* \"#utility.yul\":2813:2843   */\n      gt\n        /* \"#utility.yul\":2810:2927   */\n      iszero\n      tag_300\n      jumpi\n        /* \"#utility.yul\":2846:2925   */\n      tag_301\n      tag_179\n      jump\t// in\n    tag_301:\n        /* \"#utility.yul\":2810:2927   */\n    tag_300:\n        /* \"#utility.yul\":2959:3065   */\n      tag_302\n        /* \"#utility.yul\":3057:3064   */\n      dup9\n        /* \"#utility.yul\":3048:3054   */\n      dup3\n        /* \"#utility.yul\":3037:3046   */\n      dup10\n        /* \"#utility.yul\":3033:3055   */\n      add\n        /* \"#utility.yul\":2959:3065   */\n      tag_183\n      jump\t// in\n    tag_302:\n        /* \"#utility.yul\":2941:3065   */\n      swap6\n      pop\n      swap6\n      pop\n        /* \"#utility.yul\":2737:3075   */\n      pop\n        /* \"#utility.yul\":3114:3116   */\n      0x20\n        /* \"#utility.yul\":3140:3193   */\n      tag_303\n        /* \"#utility.yul\":3185:3192   */\n      dup9\n        /* \"#utility.yul\":3176:3182   */\n      dup3\n        /* \"#utility.yul\":3165:3174   */\n      dup10\n        /* \"#utility.yul\":3161:3183   */\n      add\n        /* \"#utility.yul\":3140:3193   */\n      tag_187\n      jump\t// in\n    tag_303:\n        /* \"#utility.yul\":3130:3193   */\n      swap4\n      pop\n        /* \"#utility.yul\":3085:3203   */\n      pop\n        /* \"#utility.yul\":3270:3272   */\n      0x40\n        /* \"#utility.yul\":3259:3268   */\n      dup7\n        /* \"#utility.yul\":3255:3273   */\n      add\n        /* \"#utility.yul\":3242:3274   */\n      calldataload\n        /* \"#utility.yul\":3301:3319   */\n      0xffffffffffffffff\n        /* \"#utility.yul\":3293:3299   */\n      dup2\n        /* \"#utility.yul\":3290:3320   */\n      gt\n        /* \"#utility.yul\":3287:3404   */\n      iszero\n      tag_304\n      jumpi\n        /* \"#utility.yul\":3323:3402   */\n      tag_305\n      tag_179\n      jump\t// in\n    tag_305:\n        /* \"#utility.yul\":3287:3404   */\n    tag_304:\n        /* \"#utility.yul\":3436:3500   */\n      tag_306\n        /* \"#utility.yul\":3492:3499   */\n      dup9\n        /* \"#utility.yul\":3483:3489   */\n      dup3\n        /* \"#utility.yul\":3472:3481   */\n      dup10\n        /* \"#utility.yul\":3468:3490   */\n      add\n        /* \"#utility.yul\":3436:3500   */\n      tag_188\n      jump\t// in\n    tag_306:\n        /* \"#utility.yul\":3418:3500   */\n      swap3\n      pop\n      swap3\n      pop\n        /* \"#utility.yul\":3213:3510   */\n      pop\n        /* \"#utility.yul\":2418:3517   */\n      swap3\n      swap6\n      pop\n      swap3\n      swap6\n      swap1\n      swap4\n      pop\n      jump\t// out\n        /* \"#utility.yul\":3523:3625   */\n    tag_189:\n        /* \"#utility.yul\":3564:3570   */\n      0x00\n        /* \"#utility.yul\":3615:3617   */\n      0x1f\n        /* \"#utility.yul\":3611:3618   */\n      not\n        /* \"#utility.yul\":3606:3608   */\n      0x1f\n        /* \"#utility.yul\":3599:3604   */\n      dup4\n        /* \"#utility.yul\":3595:3609   */\n      add\n        /* \"#utility.yul\":3591:3619   */\n      and\n        /* \"#utility.yul\":3581:3619   */\n      swap1\n      pop\n        /* \"#utility.yul\":3523:3625   */\n      swap2\n      swap1\n      pop\n      jump\t// out\n        /* \"#utility.yul\":3631:3811   */\n    tag_190:\n        /* \"#utility.yul\":3679:3756   */\n      0x4e487b7100000000000000000000000000000000000000000000000000000000\n        /* \"#utility.yul\":3676:3677   */\n      0x00\n        /* \"#utility.yul\":3669:3757   */\n      mstore\n        /* \"#utility.yul\":3776:3780   */\n      0x41\n        /* \"#utility.yul\":3773:3774   */\n      0x04\n        /* \"#utility.yul\":3766:3781   */\n      mstore\n        /* \"#utility.yul\":3800:3804   */\n      0x24\n        /* \"#utility.yul\":3797:3798   */\n      0x00\n        /* \"#utility.yul\":3790:3805   */\n      revert\n        /* \"#utility.yul\":3817:4098   */\n    tag_191:\n        /* \"#utility.yul\":3900:3927   */\n      tag_310\n        /* \"#utility.yul\":3922:3926   */\n      dup3\n        /* \"#utility.yul\":3900:3927   */\n      tag_189\n      jump\t// in\n    tag_310:\n        /* \"#utility.yul\":3892:3898   */\n      dup2\n        /* \"#utility.yul\":3888:3928   */\n      add\n        /* \"#utility.yul\":4030:4036   */\n      dup2\n        /* \"#utility.yul\":4018:4028   */\n      dup2\n        /* \"#utility.yul\":4015:4037   */\n      lt\n        /* \"#utility.yul\":3994:4012   */\n      0xffffffffffffffff\n        /* \"#utility.yul\":3982:3992   */\n      dup3\n        /* \"#utility.yul\":3979:4013   */\n      gt\n        /* \"#utility.yul\":3976:4038   */\n      or\n        /* \"#utility.yul\":3973:4061   */\n      iszero\n      tag_311\n      jumpi\n        /* \"#utility.yul\":4041:4059   */\n      tag_312\n      tag_190\n      jump\t// in\n    tag_312:\n        /* \"#utility.yul\":3973:4061   */\n    tag_311:\n        /* \"#utility.yul\":4081:4091   */\n      dup1\n        /* \"#utility.yul\":4077:4079   */\n      0x40\n        /* \"#utility.yul\":4070:4092   */\n      mstore\n        /* \"#utility.yul\":3860:4098   */\n      pop\n        /* \"#utility.yul\":3817:4098   */\n      pop\n      pop\n      jump\t// out\n        /* \"#utility.yul\":4104:4233   */\n    tag_192:\n        /* \"#utility.yul\":4138:4144   */\n      0x00\n        /* \"#utility.yul\":4165:4185   */\n      tag_314\n      tag_177\n      jump\t// in\n    tag_314:\n        /* \"#utility.yul\":4155:4185   */\n      swap1\n      pop\n        /* \"#utility.yul\":4194:4227   */\n      tag_315\n        /* \"#utility.yul\":4222:4226   */\n      dup3\n        /* \"#utility.yul\":4214:4220   */\n      dup3\n        /* \"#utility.yul\":4194:4227   */\n      tag_191\n      jump\t// in\n    tag_315:\n        /* \"#utility.yul\":4104:4233   */\n      swap2\n      swap1\n      pop\n      jump\t// out\n        /* \"#utility.yul\":4239:4574   */\n    tag_193:\n        /* \"#utility.yul\":4340:4344   */\n      0x00\n        /* \"#utility.yul\":4430:4448   */\n      0xffffffffffffffff\n        /* \"#utility.yul\":4422:4428   */\n      dup3\n        /* \"#utility.yul\":4419:4449   */\n      gt\n        /* \"#utility.yul\":4416:4472   */\n      iszero\n      tag_317\n      jumpi\n        /* \"#utility.yul\":4452:4470   */\n      tag_318\n      tag_190\n      jump\t// in\n    tag_318:\n        /* \"#utility.yul\":4416:4472   */\n    tag_317:\n        /* \"#utility.yul\":4502:4506   */\n      0x20\n        /* \"#utility.yul\":4494:4500   */\n      dup3\n        /* \"#utility.yul\":4490:4507   */\n      mul\n        /* \"#utility.yul\":4482:4507   */\n      swap1\n      pop\n        /* \"#utility.yul\":4562:4566   */\n      0x20\n        /* \"#utility.yul\":4556:4560   */\n      dup2\n        /* \"#utility.yul\":4552:4567   */\n      add\n        /* \"#utility.yul\":4544:4567   */\n      swap1\n      pop\n        /* \"#utility.yul\":4239:4574   */\n      swap2\n      swap1\n      pop\n      jump\t// out\n        /* \"#utility.yul\":4580:4697   */\n    tag_194:\n        /* \"#utility.yul\":4689:4690   */\n      0x00\n        /* \"#utility.yul\":4686:4687   */\n      dup1\n        /* \"#utility.yul\":4679:4691   */\n      revert\n        /* \"#utility.yul\":4703:4820   */\n    tag_195:\n        /* \"#utility.yul\":4812:4813   */\n      0x00\n        /* \"#utility.yul\":4809:4810   */\n      dup1\n        /* \"#utility.yul\":4802:4814   */\n      revert\n        /* \"#utility.yul\":4826:4942   */\n    tag_196:\n        /* \"#utility.yul\":4916:4917   */\n      0x03\n        /* \"#utility.yul\":4909:4914   */\n      dup2\n        /* \"#utility.yul\":4906:4918   */\n      lt\n        /* \"#utility.yul\":4896:4936   */\n      tag_322\n      jumpi\n        /* \"#utility.yul\":4932:4933   */\n      0x00\n        /* \"#utility.yul\":4929:4930   */\n      dup1\n        /* \"#utility.yul\":4922:4934   */\n      revert\n        /* \"#utility.yul\":4896:4936   */\n    tag_322:\n        /* \"#utility.yul\":4826:4942   */\n      pop\n      jump\t// out\n        /* \"#utility.yul\":4948:5121   */\n    tag_197:\n        /* \"#utility.yul\":5011:5016   */\n      0x00\n        /* \"#utility.yul\":5049:5055   */\n      dup2\n        /* \"#utility.yul\":5036:5056   */\n      calldataload\n        /* \"#utility.yul\":5027:5056   */\n      swap1\n      pop\n        /* \"#utility.yul\":5065:5115   */\n      tag_324\n        /* \"#utility.yul\":5109:5114   */\n      dup2\n        /* \"#utility.yul\":5065:5115   */\n      tag_196\n      jump\t// in\n    tag_324:\n        /* \"#utility.yul\":4948:5121   */\n      swap3\n      swap2\n      pop\n      pop\n      jump\t// out\n        /* \"#utility.yul\":5127:5437   */\n    tag_198:\n        /* \"#utility.yul\":5203:5207   */\n      0x00\n        /* \"#utility.yul\":5293:5311   */\n      0xffffffffffffffff\n        /* \"#utility.yul\":5285:5291   */\n      dup3\n        /* \"#utility.yul\":5282:5312   */\n      gt\n        /* \"#utility.yul\":5279:5335   */\n      iszero\n      tag_326\n      jumpi\n        /* \"#utility.yul\":5315:5333   */\n      tag_327\n      tag_190\n      jump\t// in\n    tag_327:\n        /* \"#utility.yul\":5279:5335   */\n    tag_326:\n        /* \"#utility.yul\":5365:5369   */\n      0x20\n        /* \"#utility.yul\":5357:5363   */\n      dup3\n        /* \"#utility.yul\":5353:5370   */\n      mul\n        /* \"#utility.yul\":5345:5370   */\n      swap1\n      pop\n        /* \"#utility.yul\":5425:5429   */\n      0x20\n        /* \"#utility.yul\":5419:5423   */\n      dup2\n        /* \"#utility.yul\":5415:5430   */\n      add\n        /* \"#utility.yul\":5407:5430   */\n      swap1\n      pop\n        /* \"#utility.yul\":5127:5437   */\n      swap2\n      swap1\n      pop\n      jump\t// out\n        /* \"#utility.yul\":5443:5592   */\n    tag_199:\n        /* \"#utility.yul\":5479:5486   */\n      0x00\n        /* \"#utility.yul\":5519:5585   */\n      0xffffffff00000000000000000000000000000000000000000000000000000000\n        /* \"#utility.yul\":5512:5517   */\n      dup3\n        /* \"#utility.yul\":5508:5586   */\n      and\n        /* \"#utility.yul\":5497:5586   */\n      swap1\n      pop\n        /* \"#utility.yul\":5443:5592   */\n      swap2\n      swap1\n      pop\n      jump\t// out\n        /* \"#utility.yul\":5598:5718   */\n    tag_200:\n        /* \"#utility.yul\":5670:5693   */\n      tag_330\n        /* \"#utility.yul\":5687:5692   */\n      dup2\n        /* \"#utility.yul\":5670:5693   */\n      tag_199\n      jump\t// in\n    tag_330:\n        /* \"#utility.yul\":5663:5668   */\n      dup2\n        /* \"#utility.yul\":5660:5694   */\n      eq\n        /* \"#utility.yul\":5650:5712   */\n      tag_331\n      jumpi\n        /* \"#utility.yul\":5708:5709   */\n      0x00\n        /* \"#utility.yul\":5705:5706   */\n      dup1\n        /* \"#utility.yul\":5698:5710   */\n      revert\n        /* \"#utility.yul\":5650:5712   */\n    tag_331:\n        /* \"#utility.yul\":5598:5718   */\n      pop\n      jump\t// out\n        /* \"#utility.yul\":5724:5861   */\n    tag_201:\n        /* \"#utility.yul\":5769:5774   */\n      0x00\n        /* \"#utility.yul\":5807:5813   */\n      dup2\n        /* \"#utility.yul\":5794:5814   */\n      calldataload\n        /* \"#utility.yul\":5785:5814   */\n      swap1\n      pop\n        /* \"#utility.yul\":5823:5855   */\n      tag_333\n        /* \"#utility.yul\":5849:5854   */\n      dup2\n        /* \"#utility.yul\":5823:5855   */\n      tag_200\n      jump\t// in\n    tag_333:\n        /* \"#utility.yul\":5724:5861   */\n      swap3\n      swap2\n      pop\n      pop\n      jump\t// out\n        /* \"#utility.yul\":5883:6590   */\n    tag_202:\n        /* \"#utility.yul\":5978:5983   */\n      0x00\n        /* \"#utility.yul\":6003:6083   */\n      tag_335\n        /* \"#utility.yul\":6019:6082   */\n      tag_336\n        /* \"#utility.yul\":6075:6081   */\n      dup5\n        /* \"#utility.yul\":6019:6082   */\n      tag_198\n      jump\t// in\n    tag_336:\n        /* \"#utility.yul\":6003:6083   */\n      tag_192\n      jump\t// in\n    tag_335:\n        /* \"#utility.yul\":5994:6083   */\n      swap1\n      pop\n        /* \"#utility.yul\":6103:6108   */\n      dup1\n        /* \"#utility.yul\":6132:6138   */\n      dup4\n        /* \"#utility.yul\":6125:6130   */\n      dup3\n        /* \"#utility.yul\":6118:6139   */\n      mstore\n        /* \"#utility.yul\":6166:6170   */\n      0x20\n        /* \"#utility.yul\":6159:6164   */\n      dup3\n        /* \"#utility.yul\":6155:6171   */\n      add\n        /* \"#utility.yul\":6148:6171   */\n      swap1\n      pop\n        /* \"#utility.yul\":6219:6223   */\n      0x20\n        /* \"#utility.yul\":6211:6217   */\n      dup5\n        /* \"#utility.yul\":6207:6224   */\n      mul\n        /* \"#utility.yul\":6199:6205   */\n      dup4\n        /* \"#utility.yul\":6195:6225   */\n      add\n        /* \"#utility.yul\":6248:6251   */\n      dup6\n        /* \"#utility.yul\":6240:6246   */\n      dup2\n        /* \"#utility.yul\":6237:6252   */\n      gt\n        /* \"#utility.yul\":6234:6356   */\n      iszero\n      tag_337\n      jumpi\n        /* \"#utility.yul\":6267:6346   */\n      tag_338\n      tag_182\n      jump\t// in\n    tag_338:\n        /* \"#utility.yul\":6234:6356   */\n    tag_337:\n        /* \"#utility.yul\":6382:6388   */\n      dup4\n        /* \"#utility.yul\":6365:6584   */\n    tag_339:\n        /* \"#utility.yul\":6399:6405   */\n      dup2\n        /* \"#utility.yul\":6394:6397   */\n      dup2\n        /* \"#utility.yul\":6391:6406   */\n      lt\n        /* \"#utility.yul\":6365:6584   */\n      iszero\n      tag_341\n      jumpi\n        /* \"#utility.yul\":6474:6477   */\n      dup1\n        /* \"#utility.yul\":6503:6539   */\n      tag_342\n        /* \"#utility.yul\":6535:6538   */\n      dup9\n        /* \"#utility.yul\":6523:6533   */\n      dup3\n        /* \"#utility.yul\":6503:6539   */\n      tag_201\n      jump\t// in\n    tag_342:\n        /* \"#utility.yul\":6498:6501   */\n      dup5\n        /* \"#utility.yul\":6491:6540   */\n      mstore\n        /* \"#utility.yul\":6569:6573   */\n      0x20\n        /* \"#utility.yul\":6564:6567   */\n      dup5\n        /* \"#utility.yul\":6560:6574   */\n      add\n        /* \"#utility.yul\":6553:6574   */\n      swap4\n      pop\n        /* \"#utility.yul\":6441:6584   */\n      pop\n        /* \"#utility.yul\":6425:6429   */\n      0x20\n        /* \"#utility.yul\":6420:6423   */\n      dup2\n        /* \"#utility.yul\":6416:6430   */\n      add\n        /* \"#utility.yul\":6409:6430   */\n      swap1\n      pop\n        /* \"#utility.yul\":6365:6584   */\n      jump(tag_339)\n    tag_341:\n        /* \"#utility.yul\":6369:6390   */\n      pop\n        /* \"#utility.yul\":5984:6590   */\n      pop\n      pop\n        /* \"#utility.yul\":5883:6590   */\n      swap4\n      swap3\n      pop\n      pop\n      pop\n      jump\t// out\n        /* \"#utility.yul\":6612:6980   */\n    tag_203:\n        /* \"#utility.yul\":6682:6687   */\n      0x00\n        /* \"#utility.yul\":6731:6734   */\n      dup3\n        /* \"#utility.yul\":6724:6728   */\n      0x1f\n        /* \"#utility.yul\":6716:6722   */\n      dup4\n        /* \"#utility.yul\":6712:6729   */\n      add\n        /* \"#utility.yul\":6708:6735   */\n      slt\n        /* \"#utility.yul\":6698:6820   */\n      tag_344\n      jumpi\n        /* \"#utility.yul\":6739:6818   */\n      tag_345\n      tag_180\n      jump\t// in\n    tag_345:\n        /* \"#utility.yul\":6698:6820   */\n    tag_344:\n        /* \"#utility.yul\":6856:6862   */\n      dup2\n        /* \"#utility.yul\":6843:6863   */\n      calldataload\n        /* \"#utility.yul\":6881:6974   */\n      tag_346\n        /* \"#utility.yul\":6970:6973   */\n      dup5\n        /* \"#utility.yul\":6962:6968   */\n      dup3\n        /* \"#utility.yul\":6955:6959   */\n      0x20\n        /* \"#utility.yul\":6947:6953   */\n      dup7\n        /* \"#utility.yul\":6943:6960   */\n      add\n        /* \"#utility.yul\":6881:6974   */\n      tag_202\n      jump\t// in\n    tag_346:\n        /* \"#utility.yul\":6872:6974   */\n      swap2\n      pop\n        /* \"#utility.yul\":6688:6980   */\n      pop\n        /* \"#utility.yul\":6612:6980   */\n      swap3\n      swap2\n      pop\n      pop\n      jump\t// out\n        /* \"#utility.yul\":7021:7979   */\n    tag_204:\n        /* \"#utility.yul\":7094:7099   */\n      0x00\n        /* \"#utility.yul\":7138:7142   */\n      0x60\n        /* \"#utility.yul\":7126:7135   */\n      dup3\n        /* \"#utility.yul\":7121:7124   */\n      dup5\n        /* \"#utility.yul\":7117:7136   */\n      sub\n        /* \"#utility.yul\":7113:7143   */\n      slt\n        /* \"#utility.yul\":7110:7227   */\n      iszero\n      tag_348\n      jumpi\n        /* \"#utility.yul\":7146:7225   */\n      tag_349\n      tag_194\n      jump\t// in\n    tag_349:\n        /* \"#utility.yul\":7110:7227   */\n    tag_348:\n        /* \"#utility.yul\":7245:7266   */\n      tag_350\n        /* \"#utility.yul\":7261:7265   */\n      0x60\n        /* \"#utility.yul\":7245:7266   */\n      tag_192\n      jump\t// in\n    tag_350:\n        /* \"#utility.yul\":7236:7266   */\n      swap1\n      pop\n        /* \"#utility.yul\":7333:7334   */\n      0x00\n        /* \"#utility.yul\":7373:7422   */\n      tag_351\n        /* \"#utility.yul\":7418:7421   */\n      dup5\n        /* \"#utility.yul\":7409:7415   */\n      dup3\n        /* \"#utility.yul\":7398:7407   */\n      dup6\n        /* \"#utility.yul\":7394:7416   */\n      add\n        /* \"#utility.yul\":7373:7422   */\n      tag_187\n      jump\t// in\n    tag_351:\n        /* \"#utility.yul\":7366:7370   */\n      0x00\n        /* \"#utility.yul\":7359:7364   */\n      dup4\n        /* \"#utility.yul\":7355:7371   */\n      add\n        /* \"#utility.yul\":7348:7423   */\n      mstore\n        /* \"#utility.yul\":7276:7434   */\n      pop\n        /* \"#utility.yul\":7495:7497   */\n      0x20\n        /* \"#utility.yul\":7536:7602   */\n      tag_352\n        /* \"#utility.yul\":7598:7601   */\n      dup5\n        /* \"#utility.yul\":7589:7595   */\n      dup3\n        /* \"#utility.yul\":7578:7587   */\n      dup6\n        /* \"#utility.yul\":7574:7596   */\n      add\n        /* \"#utility.yul\":7536:7602   */\n      tag_197\n      jump\t// in\n    tag_352:\n        /* \"#utility.yul\":7529:7533   */\n      0x20\n        /* \"#utility.yul\":7522:7527   */\n      dup4\n        /* \"#utility.yul\":7518:7534   */\n      add\n        /* \"#utility.yul\":7511:7603   */\n      mstore\n        /* \"#utility.yul\":7444:7614   */\n      pop\n        /* \"#utility.yul\":7714:7716   */\n      0x40\n        /* \"#utility.yul\":7703:7712   */\n      dup3\n        /* \"#utility.yul\":7699:7717   */\n      add\n        /* \"#utility.yul\":7686:7718   */\n      calldataload\n        /* \"#utility.yul\":7745:7763   */\n      0xffffffffffffffff\n        /* \"#utility.yul\":7737:7743   */\n      dup2\n        /* \"#utility.yul\":7734:7764   */\n      gt\n        /* \"#utility.yul\":7731:7848   */\n      iszero\n      tag_353\n      jumpi\n        /* \"#utility.yul\":7767:7846   */\n      tag_354\n      tag_195\n      jump\t// in\n    tag_354:\n        /* \"#utility.yul\":7731:7848   */\n    tag_353:\n        /* \"#utility.yul\":7887:7960   */\n      tag_355\n        /* \"#utility.yul\":7956:7959   */\n      dup5\n        /* \"#utility.yul\":7947:7953   */\n      dup3\n        /* \"#utility.yul\":7936:7945   */\n      dup6\n        /* \"#utility.yul\":7932:7954   */\n      add\n        /* \"#utility.yul\":7887:7960   */\n      tag_203\n      jump\t// in\n    tag_355:\n        /* \"#utility.yul\":7880:7884   */\n      0x40\n        /* \"#utility.yul\":7873:7878   */\n      dup4\n        /* \"#utility.yul\":7869:7885   */\n      add\n        /* \"#utility.yul\":7862:7961   */\n      mstore\n        /* \"#utility.yul\":7624:7972   */\n      pop\n        /* \"#utility.yul\":7021:7979   */\n      swap3\n      swap2\n      pop\n      pop\n      jump\t// out\n        /* \"#utility.yul\":8022:9009   */\n    tag_205:\n        /* \"#utility.yul\":8142:8147   */\n      0x00\n        /* \"#utility.yul\":8167:8272   */\n      tag_357\n        /* \"#utility.yul\":8183:8271   */\n      tag_358\n        /* \"#utility.yul\":8264:8270   */\n      dup5\n        /* \"#utility.yul\":8183:8271   */\n      tag_193\n      jump\t// in\n    tag_358:\n        /* \"#utility.yul\":8167:8272   */\n      tag_192\n      jump\t// in\n    tag_357:\n        /* \"#utility.yul\":8158:8272   */\n      swap1\n      pop\n        /* \"#utility.yul\":8292:8297   */\n      dup1\n        /* \"#utility.yul\":8321:8327   */\n      dup4\n        /* \"#utility.yul\":8314:8319   */\n      dup3\n        /* \"#utility.yul\":8307:8328   */\n      mstore\n        /* \"#utility.yul\":8355:8359   */\n      0x20\n        /* \"#utility.yul\":8348:8353   */\n      dup3\n        /* \"#utility.yul\":8344:8360   */\n      add\n        /* \"#utility.yul\":8337:8360   */\n      swap1\n      pop\n        /* \"#utility.yul\":8408:8412   */\n      0x20\n        /* \"#utility.yul\":8400:8406   */\n      dup5\n        /* \"#utility.yul\":8396:8413   */\n      mul\n        /* \"#utility.yul\":8388:8394   */\n      dup4\n        /* \"#utility.yul\":8384:8414   */\n      add\n        /* \"#utility.yul\":8437:8440   */\n      dup6\n        /* \"#utility.yul\":8429:8435   */\n      dup2\n        /* \"#utility.yul\":8426:8441   */\n      gt\n        /* \"#utility.yul\":8423:8545   */\n      iszero\n      tag_359\n      jumpi\n        /* \"#utility.yul\":8456:8535   */\n      tag_360\n      tag_182\n      jump\t// in\n    tag_360:\n        /* \"#utility.yul\":8423:8545   */\n    tag_359:\n        /* \"#utility.yul\":8571:8577   */\n      dup4\n        /* \"#utility.yul\":8554:9003   */\n    tag_361:\n        /* \"#utility.yul\":8588:8594   */\n      dup2\n        /* \"#utility.yul\":8583:8586   */\n      dup2\n        /* \"#utility.yul\":8580:8595   */\n      lt\n        /* \"#utility.yul\":8554:9003   */\n      iszero\n      tag_363\n      jumpi\n        /* \"#utility.yul\":8677:8680   */\n      dup1\n        /* \"#utility.yul\":8664:8681   */\n      calldataload\n        /* \"#utility.yul\":8713:8731   */\n      0xffffffffffffffff\n        /* \"#utility.yul\":8700:8711   */\n      dup2\n        /* \"#utility.yul\":8697:8732   */\n      gt\n        /* \"#utility.yul\":8694:8816   */\n      iszero\n      tag_364\n      jumpi\n        /* \"#utility.yul\":8735:8814   */\n      tag_365\n      tag_180\n      jump\t// in\n    tag_365:\n        /* \"#utility.yul\":8694:8816   */\n    tag_364:\n        /* \"#utility.yul\":8859:8870   */\n      dup1\n        /* \"#utility.yul\":8851:8857   */\n      dup7\n        /* \"#utility.yul\":8847:8871   */\n      add\n        /* \"#utility.yul\":8897:8958   */\n      tag_366\n        /* \"#utility.yul\":8954:8957   */\n      dup10\n        /* \"#utility.yul\":8942:8952   */\n      dup3\n        /* \"#utility.yul\":8897:8958   */\n      tag_204\n      jump\t// in\n    tag_366:\n        /* \"#utility.yul\":8892:8895   */\n      dup6\n        /* \"#utility.yul\":8885:8959   */\n      mstore\n        /* \"#utility.yul\":8988:8992   */\n      0x20\n        /* \"#utility.yul\":8983:8986   */\n      dup6\n        /* \"#utility.yul\":8979:8993   */\n      add\n        /* \"#utility.yul\":8972:8993   */\n      swap5\n      pop\n        /* \"#utility.yul\":8630:9003   */\n      pop\n      pop\n        /* \"#utility.yul\":8614:8618   */\n      0x20\n        /* \"#utility.yul\":8609:8612   */\n      dup2\n        /* \"#utility.yul\":8605:8619   */\n      add\n        /* \"#utility.yul\":8598:8619   */\n      swap1\n      pop\n        /* \"#utility.yul\":8554:9003   */\n      jump(tag_361)\n    tag_363:\n        /* \"#utility.yul\":8558:8579   */\n      pop\n        /* \"#utility.yul\":8148:9009   */\n      pop\n      pop\n        /* \"#utility.yul\":8022:9009   */\n      swap4\n      swap3\n      pop\n      pop\n      pop\n      jump\t// out\n        /* \"#utility.yul\":9015:9404   */\n    tag_13:\n        /* \"#utility.yul\":9181:9190   */\n      0x00\n        /* \"#utility.yul\":9280:9397   */\n      tag_368\n        /* \"#utility.yul\":9382:9396   */\n      calldatasize\n        /* \"#utility.yul\":9374:9380   */\n      dup5\n        /* \"#utility.yul\":9367:9372   */\n      dup5\n        /* \"#utility.yul\":9280:9397   */\n      tag_205\n      jump\t// in\n    tag_368:\n        /* \"#utility.yul\":9258:9397   */\n      swap1\n      pop\n        /* \"#utility.yul\":9015:9404   */\n      swap3\n      swap2\n      pop\n      pop\n      jump\t// out\n        /* \"#utility.yul\":9410:9579   */\n    tag_206:\n        /* \"#utility.yul\":9494:9505   */\n      0x00\n        /* \"#utility.yul\":9528:9534   */\n      dup3\n        /* \"#utility.yul\":9523:9526   */\n      dup3\n        /* \"#utility.yul\":9516:9535   */\n      mstore\n        /* \"#utility.yul\":9568:9572   */\n      0x20\n        /* \"#utility.yul\":9563:9566   */\n      dup3\n        /* \"#utility.yul\":9559:9573   */\n      add\n        /* \"#utility.yul\":9544:9573   */\n      swap1\n      pop\n        /* \"#utility.yul\":9410:9579   */\n      swap3\n      swap2\n      pop\n      pop\n      jump\t// out\n        /* \"#utility.yul\":9585:9806   */\n    tag_207:\n        /* \"#utility.yul\":9725:9759   */\n      0x4c69624469616d6f6e643a204d75737420626520636f6e7472616374206f776e\n        /* \"#utility.yul\":9721:9722   */\n      0x00\n        /* \"#utility.yul\":9713:9719   */\n      dup3\n        /* \"#utility.yul\":9709:9723   */\n      add\n        /* \"#utility.yul\":9702:9760   */\n      mstore\n        /* \"#utility.yul\":9794:9798   */\n      0x6572000000000000000000000000000000000000000000000000000000000000\n        /* \"#utility.yul\":9789:9791   */\n      0x20\n        /* \"#utility.yul\":9781:9787   */\n      dup3\n        /* \"#utility.yul\":9777:9792   */\n      add\n        /* \"#utility.yul\":9770:9799   */\n      mstore\n        /* \"#utility.yul\":9585:9806   */\n      pop\n      jump\t// out\n        /* \"#utility.yul\":9812:10178   */\n    tag_208:\n        /* \"#utility.yul\":9954:9957   */\n      0x00\n        /* \"#utility.yul\":9975:10042   */\n      tag_372\n        /* \"#utility.yul\":10039:10041   */\n      0x22\n        /* \"#utility.yul\":10034:10037   */\n      dup4\n        /* \"#utility.yul\":9975:10042   */\n      tag_206\n      jump\t// in\n    tag_372:\n        /* \"#utility.yul\":9968:10042   */\n      swap2\n      pop\n        /* \"#utility.yul\":10051:10144   */\n      tag_373\n        /* \"#utility.yul\":10140:10143   */\n      dup3\n        /* \"#utility.yul\":10051:10144   */\n      tag_207\n      jump\t// in\n    tag_373:\n        /* \"#utility.yul\":10169:10171   */\n      0x40\n        /* \"#utility.yul\":10164:10167   */\n      dup3\n        /* \"#utility.yul\":10160:10172   */\n      add\n        /* \"#utility.yul\":10153:10172   */\n      swap1\n      pop\n        /* \"#utility.yul\":9812:10178   */\n      swap2\n      swap1\n      pop\n      jump\t// out\n        /* \"#utility.yul\":10184:10603   */\n    tag_20:\n        /* \"#utility.yul\":10350:10354   */\n      0x00\n        /* \"#utility.yul\":10388:10390   */\n      0x20\n        /* \"#utility.yul\":10377:10386   */\n      dup3\n        /* \"#utility.yul\":10373:10391   */\n      add\n        /* \"#utility.yul\":10365:10391   */\n      swap1\n      pop\n        /* \"#utility.yul\":10437:10446   */\n      dup2\n        /* \"#utility.yul\":10431:10435   */\n      dup2\n        /* \"#utility.yul\":10427:10447   */\n      sub\n        /* \"#utility.yul\":10423:10424   */\n      0x00\n        /* \"#utility.yul\":10412:10421   */\n      dup4\n        /* \"#utility.yul\":10408:10425   */\n      add\n        /* \"#utility.yul\":10401:10448   */\n      mstore\n        /* \"#utility.yul\":10465:10596   */\n      tag_375\n        /* \"#utility.yul\":10591:10595   */\n      dup2\n        /* \"#utility.yul\":10465:10596   */\n      tag_208\n      jump\t// in\n    tag_375:\n        /* \"#utility.yul\":10457:10596   */\n      swap1\n      pop\n        /* \"#utility.yul\":10184:10603   */\n      swap2\n      swap1\n      pop\n      jump\t// out\n        /* \"#utility.yul\":10609:10789   */\n    tag_27:\n        /* \"#utility.yul\":10657:10734   */\n      0x4e487b7100000000000000000000000000000000000000000000000000000000\n        /* \"#utility.yul\":10654:10655   */\n      0x00\n        /* \"#utility.yul\":10647:10735   */\n      mstore\n        /* \"#utility.yul\":10754:10758   */\n      0x32\n        /* \"#utility.yul\":10751:10752   */\n      0x04\n        /* \"#utility.yul\":10744:10759   */\n      mstore\n        /* \"#utility.yul\":10778:10782   */\n      0x24\n        /* \"#utility.yul\":10775:10776   */\n      0x00\n        /* \"#utility.yul\":10768:10783   */\n      revert\n        /* \"#utility.yul\":10795:10975   */\n    tag_30:\n        /* \"#utility.yul\":10843:10920   */\n      0x4e487b7100000000000000000000000000000000000000000000000000000000\n        /* \"#utility.yul\":10840:10841   */\n      0x00\n        /* \"#utility.yul\":10833:10921   */\n      mstore\n        /* \"#utility.yul\":10940:10944   */\n      0x21\n        /* \"#utility.yul\":10937:10938   */\n      0x04\n        /* \"#utility.yul\":10930:10945   */\n      mstore\n        /* \"#utility.yul\":10964:10968   */\n      0x24\n        /* \"#utility.yul\":10961:10962   */\n      0x00\n        /* \"#utility.yul\":10954:10969   */\n      revert\n        /* \"#utility.yul\":10981:11207   */\n    tag_209:\n        /* \"#utility.yul\":11121:11155   */\n      0x4c69624469616d6f6e644375743a20496e636f72726563742046616365744375\n        /* \"#utility.yul\":11117:11118   */\n      0x00\n        /* \"#utility.yul\":11109:11115   */\n      dup3\n        /* \"#utility.yul\":11105:11119   */\n      add\n        /* \"#utility.yul\":11098:11156   */\n      mstore\n        /* \"#utility.yul\":11190:11199   */\n      0x74416374696f6e00000000000000000000000000000000000000000000000000\n        /* \"#utility.yul\":11185:11187   */\n      0x20\n        /* \"#utility.yul\":11177:11183   */\n      dup3\n        /* \"#utility.yul\":11173:11188   */\n      add\n        /* \"#utility.yul\":11166:11200   */\n      mstore\n        /* \"#utility.yul\":10981:11207   */\n      pop\n      jump\t// out\n        /* \"#utility.yul\":11213:11579   */\n    tag_210:\n        /* \"#utility.yul\":11355:11358   */\n      0x00\n        /* \"#utility.yul\":11376:11443   */\n      tag_380\n        /* \"#utility.yul\":11440:11442   */\n      0x27\n        /* \"#utility.yul\":11435:11438   */\n      dup4\n        /* \"#utility.yul\":11376:11443   */\n      tag_206\n      jump\t// in\n    tag_380:\n        /* \"#utility.yul\":11369:11443   */\n      swap2\n      pop\n        /* \"#utility.yul\":11452:11545   */\n      tag_381\n        /* \"#utility.yul\":11541:11544   */\n      dup3\n        /* \"#utility.yul\":11452:11545   */\n      tag_209\n      jump\t// in\n    tag_381:\n        /* \"#utility.yul\":11570:11572   */\n      0x40\n        /* \"#utility.yul\":11565:11568   */\n      dup3\n        /* \"#utility.yul\":11561:11573   */\n      add\n        /* \"#utility.yul\":11554:11573   */\n      swap1\n      pop\n        /* \"#utility.yul\":11213:11579   */\n      swap2\n      swap1\n      pop\n      jump\t// out\n        /* \"#utility.yul\":11585:12004   */\n    tag_66:\n        /* \"#utility.yul\":11751:11755   */\n      0x00\n        /* \"#utility.yul\":11789:11791   */\n      0x20\n        /* \"#utility.yul\":11778:11787   */\n      dup3\n        /* \"#utility.yul\":11774:11792   */\n      add\n        /* \"#utility.yul\":11766:11792   */\n      swap1\n      pop\n        /* \"#utility.yul\":11838:11847   */\n      dup2\n        /* \"#utility.yul\":11832:11836   */\n      dup2\n        /* \"#utility.yul\":11828:11848   */\n      sub\n        /* \"#utility.yul\":11824:11825   */\n      0x00\n        /* \"#utility.yul\":11813:11822   */\n      dup4\n        /* \"#utility.yul\":11809:11826   */\n      add\n        /* \"#utility.yul\":11802:11849   */\n      mstore\n        /* \"#utility.yul\":11866:11997   */\n      tag_383\n        /* \"#utility.yul\":11992:11996   */\n      dup2\n        /* \"#utility.yul\":11866:11997   */\n      tag_210\n      jump\t// in\n    tag_383:\n        /* \"#utility.yul\":11858:11997   */\n      swap1\n      pop\n        /* \"#utility.yul\":11585:12004   */\n      swap2\n      swap1\n      pop\n      jump\t// out\n        /* \"#utility.yul\":12010:12190   */\n    tag_211:\n        /* \"#utility.yul\":12058:12135   */\n      0x4e487b7100000000000000000000000000000000000000000000000000000000\n        /* \"#utility.yul\":12055:12056   */\n      0x00\n        /* \"#utility.yul\":12048:12136   */\n      mstore\n        /* \"#utility.yul\":12155:12159   */\n      0x11\n        /* \"#utility.yul\":12152:12153   */\n      0x04\n        /* \"#utility.yul\":12145:12160   */\n      mstore\n        /* \"#utility.yul\":12179:12183   */\n      0x24\n        /* \"#utility.yul\":12176:12177   */\n      0x00\n        /* \"#utility.yul\":12169:12184   */\n      revert\n        /* \"#utility.yul\":12196:12273   */\n    tag_212:\n        /* \"#utility.yul\":12233:12240   */\n      0x00\n        /* \"#utility.yul\":12262:12267   */\n      dup2\n        /* \"#utility.yul\":12251:12267   */\n      swap1\n      pop\n        /* \"#utility.yul\":12196:12273   */\n      swap2\n      swap1\n      pop\n      jump\t// out\n        /* \"#utility.yul\":12279:12512   */\n    tag_68:\n        /* \"#utility.yul\":12318:12321   */\n      0x00\n        /* \"#utility.yul\":12341:12365   */\n      tag_387\n        /* \"#utility.yul\":12359:12364   */\n      dup3\n        /* \"#utility.yul\":12341:12365   */\n      tag_212\n      jump\t// in\n    tag_387:\n        /* \"#utility.yul\":12332:12365   */\n      swap2\n      pop\n        /* \"#utility.yul\":12387:12453   */\n      0xffffffffffffffffffffffffffffffffffffffffffffffffffffffffffffffff\n        /* \"#utility.yul\":12380:12385   */\n      dup3\n        /* \"#utility.yul\":12377:12454   */\n      sub\n        /* \"#utility.yul\":12374:12477   */\n      tag_388\n      jumpi\n        /* \"#utility.yul\":12457:12475   */\n      tag_389\n      tag_211\n      jump\t// in\n    tag_389:\n        /* \"#utility.yul\":12374:12477   */\n    tag_388:\n        /* \"#utility.yul\":12504:12505   */\n      0x01\n        /* \"#utility.yul\":12497:12502   */\n      dup3\n        /* \"#utility.yul\":12493:12506   */\n      add\n        /* \"#utility.yul\":12486:12506   */\n      swap1\n      pop\n        /* \"#utility.yul\":12279:12512   */\n      swap2\n      swap1\n      pop\n      jump\t// out\n        /* \"#utility.yul\":12518:12656   */\n    tag_213:\n        /* \"#utility.yul\":12609:12615   */\n      0x00\n        /* \"#utility.yul\":12643:12648   */\n      dup2\n        /* \"#utility.yul\":12637:12649   */\n      mload\n        /* \"#utility.yul\":12627:12649   */\n      swap1\n      pop\n        /* \"#utility.yul\":12518:12656   */\n      swap2\n      swap1\n      pop\n      jump\t// out\n        /* \"#utility.yul\":12662:12870   */\n    tag_214:\n        /* \"#utility.yul\":12785:12796   */\n      0x00\n        /* \"#utility.yul\":12819:12825   */\n      dup3\n        /* \"#utility.yul\":12814:12817   */\n      dup3\n        /* \"#utility.yul\":12807:12826   */\n      mstore\n        /* \"#utility.yul\":12859:12863   */\n      0x20\n        /* \"#utility.yul\":12854:12857   */\n      dup3\n        /* \"#utility.yul\":12850:12864   */\n      add\n        /* \"#utility.yul\":12835:12864   */\n      swap1\n      pop\n        /* \"#utility.yul\":12662:12870   */\n      swap3\n      swap2\n      pop\n      pop\n      jump\t// out\n        /* \"#utility.yul\":12876:13032   */\n    tag_215:\n        /* \"#utility.yul\":12967:12971   */\n      0x00\n        /* \"#utility.yul\":12990:12993   */\n      dup2\n        /* \"#utility.yul\":12982:12993   */\n      swap1\n      pop\n        /* \"#utility.yul\":13020:13024   */\n      0x20\n        /* \"#utility.yul\":13015:13018   */\n      dup3\n        /* \"#utility.yul\":13011:13025   */\n      add\n        /* \"#utility.yul\":13003:13025   */\n      swap1\n      pop\n        /* \"#utility.yul\":12876:13032   */\n      swap2\n      swap1\n      pop\n      jump\t// out\n        /* \"#utility.yul\":13038:13146   */\n    tag_216:\n        /* \"#utility.yul\":13115:13139   */\n      tag_394\n        /* \"#utility.yul\":13133:13138   */\n      dup2\n        /* \"#utility.yul\":13115:13139   */\n      tag_185\n      jump\t// in\n    tag_394:\n        /* \"#utility.yul\":13110:13113   */\n      dup3\n        /* \"#utility.yul\":13103:13140   */\n      mstore\n        /* \"#utility.yul\":13038:13146   */\n      pop\n      pop\n      jump\t// out\n        /* \"#utility.yul\":13152:13274   */\n    tag_217:\n        /* \"#utility.yul\":13242:13243   */\n      0x03\n        /* \"#utility.yul\":13235:13240   */\n      dup2\n        /* \"#utility.yul\":13232:13244   */\n      lt\n        /* \"#utility.yul\":13222:13268   */\n      tag_396\n      jumpi\n        /* \"#utility.yul\":13248:13266   */\n      tag_397\n      tag_30\n      jump\t// in\n    tag_397:\n        /* \"#utility.yul\":13222:13268   */\n    tag_396:\n        /* \"#utility.yul\":13152:13274   */\n      pop\n      jump\t// out\n        /* \"#utility.yul\":13280:13425   */\n    tag_218:\n        /* \"#utility.yul\":13334:13341   */\n      0x00\n        /* \"#utility.yul\":13363:13368   */\n      dup2\n        /* \"#utility.yul\":13352:13368   */\n      swap1\n      pop\n        /* \"#utility.yul\":13369:13419   */\n      tag_399\n        /* \"#utility.yul\":13413:13418   */\n      dup3\n        /* \"#utility.yul\":13369:13419   */\n      tag_217\n      jump\t// in\n    tag_399:\n        /* \"#utility.yul\":13280:13425   */\n      swap2\n      swap1\n      pop\n      jump\t// out\n        /* \"#utility.yul\":13431:13576   */\n    tag_219:\n        /* \"#utility.yul\":13496:13505   */\n      0x00\n        /* \"#utility.yul\":13529:13570   */\n      tag_401\n        /* \"#utility.yul\":13564:13569   */\n      dup3\n        /* \"#utility.yul\":13529:13570   */\n      tag_218\n      jump\t// in\n    tag_401:\n        /* \"#utility.yul\":13516:13570   */\n      swap1\n      pop\n        /* \"#utility.yul\":13431:13576   */\n      swap2\n      swap1\n      pop\n      jump\t// out\n        /* \"#utility.yul\":13582:13733   */\n    tag_220:\n        /* \"#utility.yul\":13674:13726   */\n      tag_403\n        /* \"#utility.yul\":13720:13725   */\n      dup2\n        /* \"#utility.yul\":13674:13726   */\n      tag_219\n      jump\t// in\n    tag_403:\n        /* \"#utility.yul\":13669:13672   */\n      dup3\n        /* \"#utility.yul\":13662:13727   */\n      mstore\n        /* \"#utility.yul\":13582:13733   */\n      pop\n      pop\n      jump\t// out\n        /* \"#utility.yul\":13739:13852   */\n    tag_221:\n        /* \"#utility.yul\":13805:13811   */\n      0x00\n        /* \"#utility.yul\":13839:13844   */\n      dup2\n        /* \"#utility.yul\":13833:13845   */\n      mload\n        /* \"#utility.yul\":13823:13845   */\n      swap1\n      pop\n        /* \"#utility.yul\":13739:13852   */\n      swap2\n      swap1\n      pop\n      jump\t// out\n        /* \"#utility.yul\":13858:14031   */\n    tag_222:\n        /* \"#utility.yul\":13946:13957   */\n      0x00\n        /* \"#utility.yul\":13980:13986   */\n      dup3\n        /* \"#utility.yul\":13975:13978   */\n      dup3\n        /* \"#utility.yul\":13968:13987   */\n      mstore\n        /* \"#utility.yul\":14020:14024   */\n      0x20\n        /* \"#utility.yul\":14015:14018   */\n      dup3\n        /* \"#utility.yul\":14011:14025   */\n      add\n        /* \"#utility.yul\":13996:14025   */\n      swap1\n      pop\n        /* \"#utility.yul\":13858:14031   */\n      swap3\n      swap2\n      pop\n      pop\n      jump\t// out\n        /* \"#utility.yul\":14037:14168   */\n    tag_223:\n        /* \"#utility.yul\":14103:14107   */\n      0x00\n        /* \"#utility.yul\":14126:14129   */\n      dup2\n        /* \"#utility.yul\":14118:14129   */\n      swap1\n      pop\n        /* \"#utility.yul\":14156:14160   */\n      0x20\n        /* \"#utility.yul\":14151:14154   */\n      dup3\n        /* \"#utility.yul\":14147:14161   */\n      add\n        /* \"#utility.yul\":14139:14161   */\n      swap1\n      pop\n        /* \"#utility.yul\":14037:14168   */\n      swap2\n      swap1\n      pop\n      jump\t// out\n        /* \"#utility.yul\":14174:14279   */\n    tag_224:\n        /* \"#utility.yul\":14249:14272   */\n      tag_408\n        /* \"#utility.yul\":14266:14271   */\n      dup2\n        /* \"#utility.yul\":14249:14272   */\n      tag_199\n      jump\t// in\n    tag_408:\n        /* \"#utility.yul\":14244:14247   */\n      dup3\n        /* \"#utility.yul\":14237:14273   */\n      mstore\n        /* \"#utility.yul\":14174:14279   */\n      pop\n      pop\n      jump\t// out\n        /* \"#utility.yul\":14285:14460   */\n    tag_225:\n        /* \"#utility.yul\":14352:14362   */\n      0x00\n        /* \"#utility.yul\":14373:14417   */\n      tag_410\n        /* \"#utility.yul\":14413:14416   */\n      dup4\n        /* \"#utility.yul\":14405:14411   */\n      dup4\n        /* \"#utility.yul\":14373:14417   */\n      tag_224\n      jump\t// in\n    tag_410:\n        /* \"#utility.yul\":14449:14453   */\n      0x20\n        /* \"#utility.yul\":14444:14447   */\n      dup4\n        /* \"#utility.yul\":14440:14454   */\n      add\n        /* \"#utility.yul\":14426:14454   */\n      swap1\n      pop\n        /* \"#utility.yul\":14285:14460   */\n      swap3\n      swap2\n      pop\n      pop\n      jump\t// out\n        /* \"#utility.yul\":14466:14578   */\n    tag_226:\n        /* \"#utility.yul\":14535:14539   */\n      0x00\n        /* \"#utility.yul\":14567:14571   */\n      0x20\n        /* \"#utility.yul\":14562:14565   */\n      dup3\n        /* \"#utility.yul\":14558:14572   */\n      add\n        /* \"#utility.yul\":14550:14572   */\n      swap1\n      pop\n        /* \"#utility.yul\":14466:14578   */\n      swap2\n      swap1\n      pop\n      jump\t// out\n        /* \"#utility.yul\":14612:15316   */\n    tag_227:\n        /* \"#utility.yul\":14719:14722   */\n      0x00\n        /* \"#utility.yul\":14748:14801   */\n      tag_413\n        /* \"#utility.yul\":14795:14800   */\n      dup3\n        /* \"#utility.yul\":14748:14801   */\n      tag_221\n      jump\t// in\n    tag_413:\n        /* \"#utility.yul\":14817:14892   */\n      tag_414\n        /* \"#utility.yul\":14885:14891   */\n      dup2\n        /* \"#utility.yul\":14880:14883   */\n      dup6\n        /* \"#utility.yul\":14817:14892   */\n      tag_222\n      jump\t// in\n    tag_414:\n        /* \"#utility.yul\":14810:14892   */\n      swap4\n      pop\n        /* \"#utility.yul\":14916:14971   */\n      tag_415\n        /* \"#utility.yul\":14965:14970   */\n      dup4\n        /* \"#utility.yul\":14916:14971   */\n      tag_223\n      jump\t// in\n    tag_415:\n        /* \"#utility.yul\":14994:15001   */\n      dup1\n        /* \"#utility.yul\":15025:15026   */\n      0x00\n        /* \"#utility.yul\":15010:15291   */\n    tag_416:\n        /* \"#utility.yul\":15035:15041   */\n      dup4\n        /* \"#utility.yul\":15032:15033   */\n      dup2\n        /* \"#utility.yul\":15029:15042   */\n      lt\n        /* \"#utility.yul\":15010:15291   */\n      iszero\n      tag_418\n      jumpi\n        /* \"#utility.yul\":15111:15117   */\n      dup2\n        /* \"#utility.yul\":15105:15118   */\n      mload\n        /* \"#utility.yul\":15138:15199   */\n      tag_419\n        /* \"#utility.yul\":15195:15198   */\n      dup9\n        /* \"#utility.yul\":15180:15193   */\n      dup3\n        /* \"#utility.yul\":15138:15199   */\n      tag_225\n      jump\t// in\n    tag_419:\n        /* \"#utility.yul\":15131:15199   */\n      swap8\n      pop\n        /* \"#utility.yul\":15222:15281   */\n      tag_420\n        /* \"#utility.yul\":15274:15280   */\n      dup4\n        /* \"#utility.yul\":15222:15281   */\n      tag_226\n      jump\t// in\n    tag_420:\n        /* \"#utility.yul\":15212:15281   */\n      swap3\n      pop\n        /* \"#utility.yul\":15070:15291   */\n      pop\n        /* \"#utility.yul\":15057:15058   */\n      0x01\n        /* \"#utility.yul\":15054:15055   */\n      dup2\n        /* \"#utility.yul\":15050:15059   */\n      add\n        /* \"#utility.yul\":15045:15059   */\n      swap1\n      pop\n        /* \"#utility.yul\":15010:15291   */\n      jump(tag_416)\n    tag_418:\n        /* \"#utility.yul\":15014:15028   */\n      pop\n        /* \"#utility.yul\":15307:15310   */\n      dup6\n        /* \"#utility.yul\":15300:15310   */\n      swap4\n      pop\n        /* \"#utility.yul\":14724:15316   */\n      pop\n      pop\n      pop\n        /* \"#utility.yul\":14612:15316   */\n      swap3\n      swap2\n      pop\n      pop\n      jump\t// out\n        /* \"#utility.yul\":15388:16222   */\n    tag_228:\n        /* \"#utility.yul\":15495:15498   */\n      0x00\n        /* \"#utility.yul\":15531:15535   */\n      0x60\n        /* \"#utility.yul\":15526:15529   */\n      dup4\n        /* \"#utility.yul\":15522:15536   */\n      add\n        /* \"#utility.yul\":15626:15630   */\n      0x00\n        /* \"#utility.yul\":15619:15624   */\n      dup4\n        /* \"#utility.yul\":15615:15631   */\n      add\n        /* \"#utility.yul\":15609:15632   */\n      mload\n        /* \"#utility.yul\":15645:15708   */\n      tag_422\n        /* \"#utility.yul\":15702:15706   */\n      0x00\n        /* \"#utility.yul\":15697:15700   */\n      dup7\n        /* \"#utility.yul\":15693:15707   */\n      add\n        /* \"#utility.yul\":15679:15691   */\n      dup3\n        /* \"#utility.yul\":15645:15708   */\n      tag_216\n      jump\t// in\n    tag_422:\n        /* \"#utility.yul\":15546:15718   */\n      pop\n        /* \"#utility.yul\":15802:15806   */\n      0x20\n        /* \"#utility.yul\":15795:15800   */\n      dup4\n        /* \"#utility.yul\":15791:15807   */\n      add\n        /* \"#utility.yul\":15785:15808   */\n      mload\n        /* \"#utility.yul\":15821:15899   */\n      tag_423\n        /* \"#utility.yul\":15893:15897   */\n      0x20\n        /* \"#utility.yul\":15888:15891   */\n      dup7\n        /* \"#utility.yul\":15884:15898   */\n      add\n        /* \"#utility.yul\":15870:15882   */\n      dup3\n        /* \"#utility.yul\":15821:15899   */\n      tag_220\n      jump\t// in\n    tag_423:\n        /* \"#utility.yul\":15728:15909   */\n      pop\n        /* \"#utility.yul\":16004:16008   */\n      0x40\n        /* \"#utility.yul\":15997:16002   */\n      dup4\n        /* \"#utility.yul\":15993:16009   */\n      add\n        /* \"#utility.yul\":15987:16010   */\n      mload\n        /* \"#utility.yul\":16057:16060   */\n      dup5\n        /* \"#utility.yul\":16051:16055   */\n      dup3\n        /* \"#utility.yul\":16047:16061   */\n      sub\n        /* \"#utility.yul\":16040:16044   */\n      0x40\n        /* \"#utility.yul\":16035:16038   */\n      dup7\n        /* \"#utility.yul\":16031:16045   */\n      add\n        /* \"#utility.yul\":16024:16062   */\n      mstore\n        /* \"#utility.yul\":16083:16184   */\n      tag_424\n        /* \"#utility.yul\":16179:16183   */\n      dup3\n        /* \"#utility.yul\":16165:16177   */\n      dup3\n        /* \"#utility.yul\":16083:16184   */\n      tag_227\n      jump\t// in\n    tag_424:\n        /* \"#utility.yul\":16075:16184   */\n      swap2\n      pop\n        /* \"#utility.yul\":15919:16195   */\n      pop\n        /* \"#utility.yul\":16212:16216   */\n      dup1\n        /* \"#utility.yul\":16205:16216   */\n      swap2\n      pop\n        /* \"#utility.yul\":15500:16222   */\n      pop\n        /* \"#utility.yul\":15388:16222   */\n      swap3\n      swap2\n      pop\n      pop\n      jump\t// out\n        /* \"#utility.yul\":16228:16480   */\n    tag_229:\n        /* \"#utility.yul\":16345:16355   */\n      0x00\n        /* \"#utility.yul\":16380:16474   */\n      tag_426\n        /* \"#utility.yul\":16470:16473   */\n      dup4\n        /* \"#utility.yul\":16462:16468   */\n      dup4\n        /* \"#utility.yul\":16380:16474   */\n      tag_228\n      jump\t// in\n    tag_426:\n        /* \"#utility.yul\":16366:16474   */\n      swap1\n      pop\n        /* \"#utility.yul\":16228:16480   */\n      swap3\n      swap2\n      pop\n      pop\n      jump\t// out\n        /* \"#utility.yul\":16486:16623   */\n    tag_230:\n        /* \"#utility.yul\":16580:16584   */\n      0x00\n        /* \"#utility.yul\":16612:16616   */\n      0x20\n        /* \"#utility.yul\":16607:16610   */\n      dup3\n        /* \"#utility.yul\":16603:16617   */\n      add\n        /* \"#utility.yul\":16595:16617   */\n      swap1\n      pop\n        /* \"#utility.yul\":16486:16623   */\n      swap2\n      swap1\n      pop\n      jump\t// out\n        /* \"#utility.yul\":16699:17802   */\n    tag_231:\n        /* \"#utility.yul\":16866:16869   */\n      0x00\n        /* \"#utility.yul\":16895:16973   */\n      tag_429\n        /* \"#utility.yul\":16967:16972   */\n      dup3\n        /* \"#utility.yul\":16895:16973   */\n      tag_213\n      jump\t// in\n    tag_429:\n        /* \"#utility.yul\":16989:17099   */\n      tag_430\n        /* \"#utility.yul\":17092:17098   */\n      dup2\n        /* \"#utility.yul\":17087:17090   */\n      dup6\n        /* \"#utility.yul\":16989:17099   */\n      tag_214\n      jump\t// in\n    tag_430:\n        /* \"#utility.yul\":16982:17099   */\n      swap4\n      pop\n        /* \"#utility.yul\":17125:17128   */\n      dup4\n        /* \"#utility.yul\":17170:17174   */\n      0x20\n        /* \"#utility.yul\":17162:17168   */\n      dup3\n        /* \"#utility.yul\":17158:17175   */\n      mul\n        /* \"#utility.yul\":17153:17156   */\n      dup6\n        /* \"#utility.yul\":17149:17176   */\n      add\n        /* \"#utility.yul\":17200:17280   */\n      tag_431\n        /* \"#utility.yul\":17274:17279   */\n      dup6\n        /* \"#utility.yul\":17200:17280   */\n      tag_215\n      jump\t// in\n    tag_431:\n        /* \"#utility.yul\":17303:17310   */\n      dup1\n        /* \"#utility.yul\":17334:17335   */\n      0x00\n        /* \"#utility.yul\":17319:17757   */\n    tag_432:\n        /* \"#utility.yul\":17344:17350   */\n      dup6\n        /* \"#utility.yul\":17341:17342   */\n      dup2\n        /* \"#utility.yul\":17338:17351   */\n      lt\n        /* \"#utility.yul\":17319:17757   */\n      iszero\n      tag_434\n      jumpi\n        /* \"#utility.yul\":17415:17424   */\n      dup5\n        /* \"#utility.yul\":17409:17413   */\n      dup5\n        /* \"#utility.yul\":17405:17425   */\n      sub\n        /* \"#utility.yul\":17400:17403   */\n      dup10\n        /* \"#utility.yul\":17393:17426   */\n      mstore\n        /* \"#utility.yul\":17466:17472   */\n      dup2\n        /* \"#utility.yul\":17460:17473   */\n      mload\n        /* \"#utility.yul\":17494:17606   */\n      tag_435\n        /* \"#utility.yul\":17601:17605   */\n      dup6\n        /* \"#utility.yul\":17586:17599   */\n      dup3\n        /* \"#utility.yul\":17494:17606   */\n      tag_229\n      jump\t// in\n    tag_435:\n        /* \"#utility.yul\":17486:17606   */\n      swap5\n      pop\n        /* \"#utility.yul\":17629:17713   */\n      tag_436\n        /* \"#utility.yul\":17706:17712   */\n      dup4\n        /* \"#utility.yul\":17629:17713   */\n      tag_230\n      jump\t// in\n    tag_436:\n        /* \"#utility.yul\":17619:17713   */\n      swap3\n      pop\n        /* \"#utility.yul\":17742:17746   */\n      0x20\n        /* \"#utility.yul\":17737:17740   */\n      dup11\n        /* \"#utility.yul\":17733:17747   */\n      add\n        /* \"#utility.yul\":17726:17747   */\n      swap10\n      pop\n        /* \"#utility.yul\":17379:17757   */\n      pop\n        /* \"#utility.yul\":17366:17367   */\n      0x01\n        /* \"#utility.yul\":17363:17364   */\n      dup2\n        /* \"#utility.yul\":17359:17368   */\n      add\n        /* \"#utility.yul\":17354:17368   */\n      swap1\n      pop\n        /* \"#utility.yul\":17319:17757   */\n      jump(tag_432)\n    tag_434:\n        /* \"#utility.yul\":17323:17337   */\n      pop\n        /* \"#utility.yul\":17773:17777   */\n      dup3\n        /* \"#utility.yul\":17766:17777   */\n      swap8\n      pop\n        /* \"#utility.yul\":17793:17796   */\n      dup8\n        /* \"#utility.yul\":17786:17796   */\n      swap6\n      pop\n        /* \"#utility.yul\":16871:17802   */\n      pop\n      pop\n      pop\n      pop\n      pop\n        /* \"#utility.yul\":16699:17802   */\n      swap3\n      swap2\n      pop\n      pop\n      jump\t// out\n        /* \"#utility.yul\":17808:17926   */\n    tag_232:\n        /* \"#utility.yul\":17895:17919   */\n      tag_438\n        /* \"#utility.yul\":17913:17918   */\n      dup2\n        /* \"#utility.yul\":17895:17919   */\n      tag_185\n      jump\t// in\n    tag_438:\n        /* \"#utility.yul\":17890:17893   */\n      dup3\n        /* \"#utility.yul\":17883:17920   */\n      mstore\n        /* \"#utility.yul\":17808:17926   */\n      pop\n      pop\n      jump\t// out\n        /* \"#utility.yul\":17932:18030   */\n    tag_233:\n        /* \"#utility.yul\":17983:17989   */\n      0x00\n        /* \"#utility.yul\":18017:18022   */\n      dup2\n        /* \"#utility.yul\":18011:18023   */\n      mload\n        /* \"#utility.yul\":18001:18023   */\n      swap1\n      pop\n        /* \"#utility.yul\":17932:18030   */\n      swap2\n      swap1\n      pop\n      jump\t// out\n        /* \"#utility.yul\":18036:18204   */\n    tag_234:\n        /* \"#utility.yul\":18119:18130   */\n      0x00\n        /* \"#utility.yul\":18153:18159   */\n      dup3\n        /* \"#utility.yul\":18148:18151   */\n      dup3\n        /* \"#utility.yul\":18141:18160   */\n      mstore\n        /* \"#utility.yul\":18193:18197   */\n      0x20\n        /* \"#utility.yul\":18188:18191   */\n      dup3\n        /* \"#utility.yul\":18184:18198   */\n      add\n        /* \"#utility.yul\":18169:18198   */\n      swap1\n      pop\n        /* \"#utility.yul\":18036:18204   */\n      swap3\n      swap2\n      pop\n      pop\n      jump\t// out\n        /* \"#utility.yul\":18210:18456   */\n    tag_235:\n        /* \"#utility.yul\":18291:18292   */\n      0x00\n        /* \"#utility.yul\":18301:18414   */\n    tag_442:\n        /* \"#utility.yul\":18315:18321   */\n      dup4\n        /* \"#utility.yul\":18312:18313   */\n      dup2\n        /* \"#utility.yul\":18309:18322   */\n      lt\n        /* \"#utility.yul\":18301:18414   */\n      iszero\n      tag_444\n      jumpi\n        /* \"#utility.yul\":18400:18401   */\n      dup1\n        /* \"#utility.yul\":18395:18398   */\n      dup3\n        /* \"#utility.yul\":18391:18402   */\n      add\n        /* \"#utility.yul\":18385:18403   */\n      mload\n        /* \"#utility.yul\":18381:18382   */\n      dup2\n        /* \"#utility.yul\":18376:18379   */\n      dup5\n        /* \"#utility.yul\":18372:18383   */\n      add\n        /* \"#utility.yul\":18365:18404   */\n      mstore\n        /* \"#utility.yul\":18337:18339   */\n      0x20\n        /* \"#utility.yul\":18334:18335   */\n      dup2\n        /* \"#utility.yul\":18330:18340   */\n      add\n        /* \"#utility.yul\":18325:18340   */\n      swap1\n      pop\n        /* \"#utility.yul\":18301:18414   */\n      jump(tag_442)\n    tag_444:\n        /* \"#utility.yul\":18448:18449   */\n      0x00\n        /* \"#utility.yul\":18439:18445   */\n      dup5\n        /* \"#utility.yul\":18434:18437   */\n      dup5\n        /* \"#utility.yul\":18430:18446   */\n      add\n        /* \"#utility.yul\":18423:18450   */\n      mstore\n        /* \"#utility.yul\":18272:18456   */\n      pop\n        /* \"#utility.yul\":18210:18456   */\n      pop\n      pop\n      pop\n      jump\t// out\n        /* \"#utility.yul\":18462:18835   */\n    tag_236:\n        /* \"#utility.yul\":18548:18551   */\n      0x00\n        /* \"#utility.yul\":18576:18614   */\n      tag_446\n        /* \"#utility.yul\":18608:18613   */\n      dup3\n        /* \"#utility.yul\":18576:18614   */\n      tag_233\n      jump\t// in\n    tag_446:\n        /* \"#utility.yul\":18630:18700   */\n      tag_447\n        /* \"#utility.yul\":18693:18699   */\n      dup2\n        /* \"#utility.yul\":18688:18691   */\n      dup6\n        /* \"#utility.yul\":18630:18700   */\n      tag_234\n      jump\t// in\n    tag_447:\n        /* \"#utility.yul\":18623:18700   */\n      swap4\n      pop\n        /* \"#utility.yul\":18709:18774   */\n      tag_448\n        /* \"#utility.yul\":18767:18773   */\n      dup2\n        /* \"#utility.yul\":18762:18765   */\n      dup6\n        /* \"#utility.yul\":18755:18759   */\n      0x20\n        /* \"#utility.yul\":18748:18753   */\n      dup7\n        /* \"#utility.yul\":18744:18760   */\n      add\n        /* \"#utility.yul\":18709:18774   */\n      tag_235\n      jump\t// in\n    tag_448:\n        /* \"#utility.yul\":18799:18828   */\n      tag_449\n        /* \"#utility.yul\":18821:18827   */\n      dup2\n        /* \"#utility.yul\":18799:18828   */\n      tag_189\n      jump\t// in\n    tag_449:\n        /* \"#utility.yul\":18794:18797   */\n      dup5\n        /* \"#utility.yul\":18790:18829   */\n      add\n        /* \"#utility.yul\":18783:18829   */\n      swap2\n      pop\n        /* \"#utility.yul\":18552:18835   */\n      pop\n        /* \"#utility.yul\":18462:18835   */\n      swap3\n      swap2\n      pop\n      pop\n      jump\t// out\n        /* \"#utility.yul\":18841:19617   */\n    tag_70:\n        /* \"#utility.yul\":19106:19110   */\n      0x00\n        /* \"#utility.yul\":19144:19146   */\n      0x60\n        /* \"#utility.yul\":19133:19142   */\n      dup3\n        /* \"#utility.yul\":19129:19147   */\n      add\n        /* \"#utility.yul\":19121:19147   */\n      swap1\n      pop\n        /* \"#utility.yul\":19193:19202   */\n      dup2\n        /* \"#utility.yul\":19187:19191   */\n      dup2\n        /* \"#utility.yul\":19183:19203   */\n      sub\n        /* \"#utility.yul\":19179:19180   */\n      0x00\n        /* \"#utility.yul\":19168:19177   */\n      dup4\n        /* \"#utility.yul\":19164:19181   */\n      add\n        /* \"#utility.yul\":19157:19204   */\n      mstore\n        /* \"#utility.yul\":19221:19377   */\n      tag_451\n        /* \"#utility.yul\":19372:19376   */\n      dup2\n        /* \"#utility.yul\":19363:19369   */\n      dup7\n        /* \"#utility.yul\":19221:19377   */\n      tag_231\n      jump\t// in\n    tag_451:\n        /* \"#utility.yul\":19213:19377   */\n      swap1\n      pop\n        /* \"#utility.yul\":19387:19459   */\n      tag_452\n        /* \"#utility.yul\":19455:19457   */\n      0x20\n        /* \"#utility.yul\":19444:19453   */\n      dup4\n        /* \"#utility.yul\":19440:19458   */\n      add\n        /* \"#utility.yul\":19431:19437   */\n      dup6\n        /* \"#utility.yul\":19387:19459   */\n      tag_232\n      jump\t// in\n    tag_452:\n        /* \"#utility.yul\":19506:19515   */\n      dup2\n        /* \"#utility.yul\":19500:19504   */\n      dup2\n        /* \"#utility.yul\":19496:19516   */\n      sub\n        /* \"#utility.yul\":19491:19493   */\n      0x40\n        /* \"#utility.yul\":19480:19489   */\n      dup4\n        /* \"#utility.yul\":19476:19494   */\n      add\n        /* \"#utility.yul\":19469:19517   */\n      mstore\n        /* \"#utility.yul\":19534:19610   */\n      tag_453\n        /* \"#utility.yul\":19605:19609   */\n      dup2\n        /* \"#utility.yul\":19596:19602   */\n      dup5\n        /* \"#utility.yul\":19534:19610   */\n      tag_236\n      jump\t// in\n    tag_453:\n        /* \"#utility.yul\":19526:19610   */\n      swap1\n      pop\n        /* \"#utility.yul\":18841:19617   */\n      swap5\n      swap4\n      pop\n      pop\n      pop\n      pop\n      jump\t// out\n        /* \"#utility.yul\":19623:19853   */\n    tag_237:\n        /* \"#utility.yul\":19763:19797   */\n      0x4c69624469616d6f6e644375743a204e6f2073656c6563746f727320696e2066\n        /* \"#utility.yul\":19759:19760   */\n      0x00\n        /* \"#utility.yul\":19751:19757   */\n      dup3\n        /* \"#utility.yul\":19747:19761   */\n      add\n        /* \"#utility.yul\":19740:19798   */\n      mstore\n        /* \"#utility.yul\":19832:19845   */\n      0x6163657420746f20637574000000000000000000000000000000000000000000\n        /* \"#utility.yul\":19827:19829   */\n      0x20\n        /* \"#utility.yul\":19819:19825   */\n      dup3\n        /* \"#utility.yul\":19815:19830   */\n      add\n        /* \"#utility.yul\":19808:19846   */\n      mstore\n        /* \"#utility.yul\":19623:19853   */\n      pop\n      jump\t// out\n        /* \"#utility.yul\":19859:20225   */\n    tag_238:\n        /* \"#utility.yul\":20001:20004   */\n      0x00\n        /* \"#utility.yul\":20022:20089   */\n      tag_456\n        /* \"#utility.yul\":20086:20088   */\n      0x2b\n        /* \"#utility.yul\":20081:20084   */\n      dup4\n        /* \"#utility.yul\":20022:20089   */\n      tag_206\n      jump\t// in\n    tag_456:\n        /* \"#utility.yul\":20015:20089   */\n      swap2\n      pop\n        /* \"#utility.yul\":20098:20191   */\n      tag_457\n        /* \"#utility.yul\":20187:20190   */\n      dup3\n        /* \"#utility.yul\":20098:20191   */\n      tag_237\n      jump\t// in\n    tag_457:\n        /* \"#utility.yul\":20216:20218   */\n      0x40\n        /* \"#utility.yul\":20211:20214   */\n      dup3\n        /* \"#utility.yul\":20207:20219   */\n      add\n        /* \"#utility.yul\":20200:20219   */\n      swap1\n      pop\n        /* \"#utility.yul\":19859:20225   */\n      swap2\n      swap1\n      pop\n      jump\t// out\n        /* \"#utility.yul\":20231:20650   */\n    tag_77:\n        /* \"#utility.yul\":20397:20401   */\n      0x00\n        /* \"#utility.yul\":20435:20437   */\n      0x20\n        /* \"#utility.yul\":20424:20433   */\n      dup3\n        /* \"#utility.yul\":20420:20438   */\n      add\n        /* \"#utility.yul\":20412:20438   */\n      swap1\n      pop\n        /* \"#utility.yul\":20484:20493   */\n      dup2\n        /* \"#utility.yul\":20478:20482   */\n      dup2\n        /* \"#utility.yul\":20474:20494   */\n      sub\n        /* \"#utility.yul\":20470:20471   */\n      0x00\n        /* \"#utility.yul\":20459:20468   */\n      dup4\n        /* \"#utility.yul\":20455:20472   */\n      add\n        /* \"#utility.yul\":20448:20495   */\n      mstore\n        /* \"#utility.yul\":20512:20643   */\n      tag_459\n        /* \"#utility.yul\":20638:20642   */\n      dup2\n        /* \"#utility.yul\":20512:20643   */\n      tag_238\n      jump\t// in\n    tag_459:\n        /* \"#utility.yul\":20504:20643   */\n      swap1\n      pop\n        /* \"#utility.yul\":20231:20650   */\n      swap2\n      swap1\n      pop\n      jump\t// out\n        /* \"#utility.yul\":20656:20887   */\n    tag_239:\n        /* \"#utility.yul\":20796:20830   */\n      0x4c69624469616d6f6e644375743a204164642066616365742063616e27742062\n        /* \"#utility.yul\":20792:20793   */\n      0x00\n        /* \"#utility.yul\":20784:20790   */\n      dup3\n        /* \"#utility.yul\":20780:20794   */\n      add\n        /* \"#utility.yul\":20773:20831   */\n      mstore\n        /* \"#utility.yul\":20865:20879   */\n      0x6520616464726573732830290000000000000000000000000000000000000000\n        /* \"#utility.yul\":20860:20862   */\n      0x20\n        /* \"#utility.yul\":20852:20858   */\n      dup3\n        /* \"#utility.yul\":20848:20863   */\n      add\n        /* \"#utility.yul\":20841:20880   */\n      mstore\n        /* \"#utility.yul\":20656:20887   */\n      pop\n      jump\t// out\n        /* \"#utility.yul\":20893:21259   */\n    tag_240:\n        /* \"#utility.yul\":21035:21038   */\n      0x00\n        /* \"#utility.yul\":21056:21123   */\n      tag_462\n        /* \"#utility.yul\":21120:21122   */\n      0x2c\n        /* \"#utility.yul\":21115:21118   */\n      dup4\n        /* \"#utility.yul\":21056:21123   */\n      tag_206\n      jump\t// in\n    tag_462:\n        /* \"#utility.yul\":21049:21123   */\n      swap2\n      pop\n        /* \"#utility.yul\":21132:21225   */\n      tag_463\n        /* \"#utility.yul\":21221:21224   */\n      dup3\n        /* \"#utility.yul\":21132:21225   */\n      tag_239\n      jump\t// in\n    tag_463:\n        /* \"#utility.yul\":21250:21252   */\n      0x40\n        /* \"#utility.yul\":21245:21248   */\n      dup3\n        /* \"#utility.yul\":21241:21253   */\n      add\n        /* \"#utility.yul\":21234:21253   */\n      swap1\n      pop\n        /* \"#utility.yul\":20893:21259   */\n      swap2\n      swap1\n      pop\n      jump\t// out\n        /* \"#utility.yul\":21265:21684   */\n    tag_81:\n        /* \"#utility.yul\":21431:21435   */\n      0x00\n        /* \"#utility.yul\":21469:21471   */\n      0x20\n        /* \"#utility.yul\":21458:21467   */\n      dup3\n        /* \"#utility.yul\":21454:21472   */\n      add\n        /* \"#utility.yul\":21446:21472   */\n      swap1\n      pop\n        /* \"#utility.yul\":21518:21527   */\n      dup2\n        /* \"#utility.yul\":21512:21516   */\n      dup2\n        /* \"#utility.yul\":21508:21528   */\n      sub\n        /* \"#utility.yul\":21504:21505   */\n      0x00\n        /* \"#utility.yul\":21493:21502   */\n      dup4\n        /* \"#utility.yul\":21489:21506   */\n      add\n        /* \"#utility.yul\":21482:21529   */\n      mstore\n        /* \"#utility.yul\":21546:21677   */\n      tag_465\n        /* \"#utility.yul\":21672:21676   */\n      dup2\n        /* \"#utility.yul\":21546:21677   */\n      tag_240\n      jump\t// in\n    tag_465:\n        /* \"#utility.yul\":21538:21677   */\n      swap1\n      pop\n        /* \"#utility.yul\":21265:21684   */\n      swap2\n      swap1\n      pop\n      jump\t// out\n        /* \"#utility.yul\":21690:21930   */\n    tag_241:\n        /* \"#utility.yul\":21830:21864   */\n      0x4c69624469616d6f6e644375743a2043616e2774206164642066756e6374696f\n        /* \"#utility.yul\":21826:21827   */\n      0x00\n        /* \"#utility.yul\":21818:21824   */\n      dup3\n        /* \"#utility.yul\":21814:21828   */\n      add\n        /* \"#utility.yul\":21807:21865   */\n      mstore\n        /* \"#utility.yul\":21899:21922   */\n      0x6e207468617420616c7265616479206578697374730000000000000000000000\n        /* \"#utility.yul\":21894:21896   */\n      0x20\n        /* \"#utility.yul\":21886:21892   */\n      dup3\n        /* \"#utility.yul\":21882:21897   */\n      add\n        /* \"#utility.yul\":21875:21923   */\n      mstore\n        /* \"#utility.yul\":21690:21930   */\n      pop\n      jump\t// out\n        /* \"#utility.yul\":21936:22302   */\n    tag_242:\n        /* \"#utility.yul\":22078:22081   */\n      0x00\n        /* \"#utility.yul\":22099:22166   */\n      tag_468\n        /* \"#utility.yul\":22163:22165   */\n      0x35\n        /* \"#utility.yul\":22158:22161   */\n      dup4\n        /* \"#utility.yul\":22099:22166   */\n      tag_206\n      jump\t// in\n    tag_468:\n        /* \"#utility.yul\":22092:22166   */\n      swap2\n      pop\n        /* \"#utility.yul\":22175:22268   */\n      tag_469\n        /* \"#utility.yul\":22264:22267   */\n      dup3\n        /* \"#utility.yul\":22175:22268   */\n      tag_241\n      jump\t// in\n    tag_469:\n        /* \"#utility.yul\":22293:22295   */\n      0x40\n        /* \"#utility.yul\":22288:22291   */\n      dup3\n        /* \"#utility.yul\":22284:22296   */\n      add\n        /* \"#utility.yul\":22277:22296   */\n      swap1\n      pop\n        /* \"#utility.yul\":21936:22302   */\n      swap2\n      swap1\n      pop\n      jump\t// out\n        /* \"#utility.yul\":22308:22727   */\n    tag_91:\n        /* \"#utility.yul\":22474:22478   */\n      0x00\n        /* \"#utility.yul\":22512:22514   */\n      0x20\n        /* \"#utility.yul\":22501:22510   */\n      dup3\n        /* \"#utility.yul\":22497:22515   */\n      add\n        /* \"#utility.yul\":22489:22515   */\n      swap1\n      pop\n        /* \"#utility.yul\":22561:22570   */\n      dup2\n        /* \"#utility.yul\":22555:22559   */\n      dup2\n        /* \"#utility.yul\":22551:22571   */\n      sub\n        /* \"#utility.yul\":22547:22548   */\n      0x00\n        /* \"#utility.yul\":22536:22545   */\n      dup4\n        /* \"#utility.yul\":22532:22549   */\n      add\n        /* \"#utility.yul\":22525:22572   */\n      mstore\n        /* \"#utility.yul\":22589:22720   */\n      tag_471\n        /* \"#utility.yul\":22715:22719   */\n      dup2\n        /* \"#utility.yul\":22589:22720   */\n      tag_242\n      jump\t// in\n    tag_471:\n        /* \"#utility.yul\":22581:22720   */\n      swap1\n      pop\n        /* \"#utility.yul\":22308:22727   */\n      swap2\n      swap1\n      pop\n      jump\t// out\n        /* \"#utility.yul\":22733:22822   */\n    tag_243:\n        /* \"#utility.yul\":22769:22776   */\n      0x00\n        /* \"#utility.yul\":22809:22815   */\n      0xffff\n        /* \"#utility.yul\":22802:22807   */\n      dup3\n        /* \"#utility.yul\":22798:22816   */\n      and\n        /* \"#utility.yul\":22787:22816   */\n      swap1\n      pop\n        /* \"#utility.yul\":22733:22822   */\n      swap2\n      swap1\n      pop\n      jump\t// out\n        /* \"#utility.yul\":22828:22999   */\n    tag_94:\n        /* \"#utility.yul\":22866:22869   */\n      0x00\n        /* \"#utility.yul\":22889:22912   */\n      tag_474\n        /* \"#utility.yul\":22906:22911   */\n      dup3\n        /* \"#utility.yul\":22889:22912   */\n      tag_243\n      jump\t// in\n    tag_474:\n        /* \"#utility.yul\":22880:22912   */\n      swap2\n      pop\n        /* \"#utility.yul\":22934:22940   */\n      0xffff\n        /* \"#utility.yul\":22927:22932   */\n      dup3\n        /* \"#utility.yul\":22924:22941   */\n      sub\n        /* \"#utility.yul\":22921:22964   */\n      tag_475\n      jumpi\n        /* \"#utility.yul\":22944:22962   */\n      tag_476\n      tag_211\n      jump\t// in\n    tag_476:\n        /* \"#utility.yul\":22921:22964   */\n    tag_475:\n        /* \"#utility.yul\":22991:22992   */\n      0x01\n        /* \"#utility.yul\":22984:22989   */\n      dup3\n        /* \"#utility.yul\":22980:22993   */\n      add\n        /* \"#utility.yul\":22973:22993   */\n      swap1\n      pop\n        /* \"#utility.yul\":22828:22999   */\n      swap2\n      swap1\n      pop\n      jump\t// out\n        /* \"#utility.yul\":23005:23240   */\n    tag_244:\n        /* \"#utility.yul\":23145:23179   */\n      0x4c69624469616d6f6e644375743a205265706c6163652066616365742063616e\n        /* \"#utility.yul\":23141:23142   */\n      0x00\n        /* \"#utility.yul\":23133:23139   */\n      dup3\n        /* \"#utility.yul\":23129:23143   */\n      add\n        /* \"#utility.yul\":23122:23180   */\n      mstore\n        /* \"#utility.yul\":23214:23232   */\n      0x2774206265206164647265737328302900000000000000000000000000000000\n        /* \"#utility.yul\":23209:23211   */\n      0x20\n        /* \"#utility.yul\":23201:23207   */\n      dup3\n        /* \"#utility.yul\":23197:23212   */\n      add\n        /* \"#utility.yul\":23190:23233   */\n      mstore\n        /* \"#utility.yul\":23005:23240   */\n      pop\n      jump\t// out\n        /* \"#utility.yul\":23246:23612   */\n    tag_245:\n        /* \"#utility.yul\":23388:23391   */\n      0x00\n        /* \"#utility.yul\":23409:23476   */\n      tag_479\n        /* \"#utility.yul\":23473:23475   */\n      0x30\n        /* \"#utility.yul\":23468:23471   */\n      dup4\n        /* \"#utility.yul\":23409:23476   */\n      tag_206\n      jump\t// in\n    tag_479:\n        /* \"#utility.yul\":23402:23476   */\n      swap2\n      pop\n        /* \"#utility.yul\":23485:23578   */\n      tag_480\n        /* \"#utility.yul\":23574:23577   */\n      dup3\n        /* \"#utility.yul\":23485:23578   */\n      tag_244\n      jump\t// in\n    tag_480:\n        /* \"#utility.yul\":23603:23605   */\n      0x40\n        /* \"#utility.yul\":23598:23601   */\n      dup3\n        /* \"#utility.yul\":23594:23606   */\n      add\n        /* \"#utility.yul\":23587:23606   */\n      swap1\n      pop\n        /* \"#utility.yul\":23246:23612   */\n      swap2\n      swap1\n      pop\n      jump\t// out\n        /* \"#utility.yul\":23618:24037   */\n    tag_102:\n        /* \"#utility.yul\":23784:23788   */\n      0x00\n        /* \"#utility.yul\":23822:23824   */\n      0x20\n        /* \"#utility.yul\":23811:23820   */\n      dup3\n        /* \"#utility.yul\":23807:23825   */\n      add\n        /* \"#utility.yul\":23799:23825   */\n      swap1\n      pop\n        /* \"#utility.yul\":23871:23880   */\n      dup2\n        /* \"#utility.yul\":23865:23869   */\n      dup2\n        /* \"#utility.yul\":23861:23881   */\n      sub\n        /* \"#utility.yul\":23857:23858   */\n      0x00\n        /* \"#utility.yul\":23846:23855   */\n      dup4\n        /* \"#utility.yul\":23842:23859   */\n      add\n        /* \"#utility.yul\":23835:23882   */\n      mstore\n        /* \"#utility.yul\":23899:24030   */\n      tag_482\n        /* \"#utility.yul\":24025:24029   */\n      dup2\n        /* \"#utility.yul\":23899:24030   */\n      tag_245\n      jump\t// in\n    tag_482:\n        /* \"#utility.yul\":23891:24030   */\n      swap1\n      pop\n        /* \"#utility.yul\":23618:24037   */\n      swap2\n      swap1\n      pop\n      jump\t// out\n        /* \"#utility.yul\":24043:24277   */\n    tag_246:\n        /* \"#utility.yul\":24183:24217   */\n      0x4c69624469616d6f6e644375743a2043616e2774207265706c61636520696d6d\n        /* \"#utility.yul\":24179:24180   */\n      0x00\n        /* \"#utility.yul\":24171:24177   */\n      dup3\n        /* \"#utility.yul\":24167:24181   */\n      add\n        /* \"#utility.yul\":24160:24218   */\n      mstore\n        /* \"#utility.yul\":24252:24269   */\n      0x757461626c652066756e6374696f6e0000000000000000000000000000000000\n        /* \"#utility.yul\":24247:24249   */\n      0x20\n        /* \"#utility.yul\":24239:24245   */\n      dup3\n        /* \"#utility.yul\":24235:24250   */\n      add\n        /* \"#utility.yul\":24228:24270   */\n      mstore\n        /* \"#utility.yul\":24043:24277   */\n      pop\n      jump\t// out\n        /* \"#utility.yul\":24283:24649   */\n    tag_247:\n        /* \"#utility.yul\":24425:24428   */\n      0x00\n        /* \"#utility.yul\":24446:24513   */\n      tag_485\n        /* \"#utility.yul\":24510:24512   */\n      0x2f\n        /* \"#utility.yul\":24505:24508   */\n      dup4\n        /* \"#utility.yul\":24446:24513   */\n      tag_206\n      jump\t// in\n    tag_485:\n        /* \"#utility.yul\":24439:24513   */\n      swap2\n      pop\n        /* \"#utility.yul\":24522:24615   */\n      tag_486\n        /* \"#utility.yul\":24611:24614   */\n      dup3\n        /* \"#utility.yul\":24522:24615   */\n      tag_246\n      jump\t// in\n    tag_486:\n        /* \"#utility.yul\":24640:24642   */\n      0x40\n        /* \"#utility.yul\":24635:24638   */\n      dup3\n        /* \"#utility.yul\":24631:24643   */\n      add\n        /* \"#utility.yul\":24624:24643   */\n      swap1\n      pop\n        /* \"#utility.yul\":24283:24649   */\n      swap2\n      swap1\n      pop\n      jump\t// out\n        /* \"#utility.yul\":24655:25074   */\n    tag_111:\n        /* \"#utility.yul\":24821:24825   */\n      0x00\n        /* \"#utility.yul\":24859:24861   */\n      0x20\n        /* \"#utility.yul\":24848:24857   */\n      dup3\n        /* \"#utility.yul\":24844:24862   */\n      add\n        /* \"#utility.yul\":24836:24862   */\n      swap1\n      pop\n        /* \"#utility.yul\":24908:24917   */\n      dup2\n        /* \"#utility.yul\":24902:24906   */\n      dup2\n        /* \"#utility.yul\":24898:24918   */\n      sub\n        /* \"#utility.yul\":24894:24895   */\n      0x00\n        /* \"#utility.yul\":24883:24892   */\n      dup4\n        /* \"#utility.yul\":24879:24896   */\n      add\n        /* \"#utility.yul\":24872:24919   */\n      mstore\n        /* \"#utility.yul\":24936:25067   */\n      tag_488\n        /* \"#utility.yul\":25062:25066   */\n      dup2\n        /* \"#utility.yul\":24936:25067   */\n      tag_247\n      jump\t// in\n    tag_488:\n        /* \"#utility.yul\":24928:25067   */\n      swap1\n      pop\n        /* \"#utility.yul\":24655:25074   */\n      swap2\n      swap1\n      pop\n      jump\t// out\n        /* \"#utility.yul\":25080:25323   */\n    tag_248:\n        /* \"#utility.yul\":25220:25254   */\n      0x4c69624469616d6f6e644375743a2043616e2774207265706c6163652066756e\n        /* \"#utility.yul\":25216:25217   */\n      0x00\n        /* \"#utility.yul\":25208:25214   */\n      dup3\n        /* \"#utility.yul\":25204:25218   */\n      add\n        /* \"#utility.yul\":25197:25255   */\n      mstore\n        /* \"#utility.yul\":25289:25315   */\n      0x6374696f6e20776974682073616d652066756e6374696f6e0000000000000000\n        /* \"#utility.yul\":25284:25286   */\n      0x20\n        /* \"#utility.yul\":25276:25282   */\n      dup3\n        /* \"#utility.yul\":25272:25287   */\n      add\n        /* \"#utility.yul\":25265:25316   */\n      mstore\n        /* \"#utility.yul\":25080:25323   */\n      pop\n      jump\t// out\n        /* \"#utility.yul\":25329:25695   */\n    tag_249:\n        /* \"#utility.yul\":25471:25474   */\n      0x00\n        /* \"#utility.yul\":25492:25559   */\n      tag_491\n        /* \"#utility.yul\":25556:25558   */\n      0x38\n        /* \"#utility.yul\":25551:25554   */\n      dup4\n        /* \"#utility.yul\":25492:25559   */\n      tag_206\n      jump\t// in\n    tag_491:\n        /* \"#utility.yul\":25485:25559   */\n      swap2\n      pop\n        /* \"#utility.yul\":25568:25661   */\n      tag_492\n        /* \"#utility.yul\":25657:25660   */\n      dup3\n        /* \"#utility.yul\":25568:25661   */\n      tag_248\n      jump\t// in\n    tag_492:\n        /* \"#utility.yul\":25686:25688   */\n      0x40\n        /* \"#utility.yul\":25681:25684   */\n      dup3\n        /* \"#utility.yul\":25677:25689   */\n      add\n        /* \"#utility.yul\":25670:25689   */\n      swap1\n      pop\n        /* \"#utility.yul\":25329:25695   */\n      swap2\n      swap1\n      pop\n      jump\t// out\n        /* \"#utility.yul\":25701:26120   */\n    tag_114:\n        /* \"#utility.yul\":25867:25871   */\n      0x00\n        /* \"#utility.yul\":25905:25907   */\n      0x20\n        /* \"#utility.yul\":25894:25903   */\n      dup3\n        /* \"#utility.yul\":25890:25908   */\n      add\n        /* \"#utility.yul\":25882:25908   */\n      swap1\n      pop\n        /* \"#utility.yul\":25954:25963   */\n      dup2\n        /* \"#utility.yul\":25948:25952   */\n      dup2\n        /* \"#utility.yul\":25944:25964   */\n      sub\n        /* \"#utility.yul\":25940:25941   */\n      0x00\n        /* \"#utility.yul\":25929:25938   */\n      dup4\n        /* \"#utility.yul\":25925:25942   */\n      add\n        /* \"#utility.yul\":25918:25965   */\n      mstore\n        /* \"#utility.yul\":25982:26113   */\n      tag_494\n        /* \"#utility.yul\":26108:26112   */\n      dup2\n        /* \"#utility.yul\":25982:26113   */\n      tag_249\n      jump\t// in\n    tag_494:\n        /* \"#utility.yul\":25974:26113   */\n      swap1\n      pop\n        /* \"#utility.yul\":25701:26120   */\n      swap2\n      swap1\n      pop\n      jump\t// out\n        /* \"#utility.yul\":26126:26369   */\n    tag_250:\n        /* \"#utility.yul\":26266:26300   */\n      0x4c69624469616d6f6e644375743a2043616e2774207265706c6163652066756e\n        /* \"#utility.yul\":26262:26263   */\n      0x00\n        /* \"#utility.yul\":26254:26260   */\n      dup3\n        /* \"#utility.yul\":26250:26264   */\n      add\n        /* \"#utility.yul\":26243:26301   */\n      mstore\n        /* \"#utility.yul\":26335:26361   */\n      0x6374696f6e207468617420646f65736e27742065786973740000000000000000\n        /* \"#utility.yul\":26330:26332   */\n      0x20\n        /* \"#utility.yul\":26322:26328   */\n      dup3\n        /* \"#utility.yul\":26318:26333   */\n      add\n        /* \"#utility.yul\":26311:26362   */\n      mstore\n        /* \"#utility.yul\":26126:26369   */\n      pop\n      jump\t// out\n        /* \"#utility.yul\":26375:26741   */\n    tag_251:\n        /* \"#utility.yul\":26517:26520   */\n      0x00\n        /* \"#utility.yul\":26538:26605   */\n      tag_497\n        /* \"#utility.yul\":26602:26604   */\n      0x38\n        /* \"#utility.yul\":26597:26600   */\n      dup4\n        /* \"#utility.yul\":26538:26605   */\n      tag_206\n      jump\t// in\n    tag_497:\n        /* \"#utility.yul\":26531:26605   */\n      swap2\n      pop\n        /* \"#utility.yul\":26614:26707   */\n      tag_498\n        /* \"#utility.yul\":26703:26706   */\n      dup3\n        /* \"#utility.yul\":26614:26707   */\n      tag_250\n      jump\t// in\n    tag_498:\n        /* \"#utility.yul\":26732:26734   */\n      0x40\n        /* \"#utility.yul\":26727:26730   */\n      dup3\n        /* \"#utility.yul\":26723:26735   */\n      add\n        /* \"#utility.yul\":26716:26735   */\n      swap1\n      pop\n        /* \"#utility.yul\":26375:26741   */\n      swap2\n      swap1\n      pop\n      jump\t// out\n        /* \"#utility.yul\":26747:27166   */\n    tag_117:\n        /* \"#utility.yul\":26913:26917   */\n      0x00\n        /* \"#utility.yul\":26951:26953   */\n      0x20\n        /* \"#utility.yul\":26940:26949   */\n      dup3\n        /* \"#utility.yul\":26936:26954   */\n      add\n        /* \"#utility.yul\":26928:26954   */\n      swap1\n      pop\n        /* \"#utility.yul\":27000:27009   */\n      dup2\n        /* \"#utility.yul\":26994:26998   */\n      dup2\n        /* \"#utility.yul\":26990:27010   */\n      sub\n        /* \"#utility.yul\":26986:26987   */\n      0x00\n        /* \"#utility.yul\":26975:26984   */\n      dup4\n        /* \"#utility.yul\":26971:26988   */\n      add\n        /* \"#utility.yul\":26964:27011   */\n      mstore\n        /* \"#utility.yul\":27028:27159   */\n      tag_500\n        /* \"#utility.yul\":27154:27158   */\n      dup2\n        /* \"#utility.yul\":27028:27159   */\n      tag_251\n      jump\t// in\n    tag_500:\n        /* \"#utility.yul\":27020:27159   */\n      swap1\n      pop\n        /* \"#utility.yul\":26747:27166   */\n      swap2\n      swap1\n      pop\n      jump\t// out\n        /* \"#utility.yul\":27172:27413   */\n    tag_252:\n        /* \"#utility.yul\":27312:27346   */\n      0x4c69624469616d6f6e644375743a2052656d6f76652066616365742061646472\n        /* \"#utility.yul\":27308:27309   */\n      0x00\n        /* \"#utility.yul\":27300:27306   */\n      dup3\n        /* \"#utility.yul\":27296:27310   */\n      add\n        /* \"#utility.yul\":27289:27347   */\n      mstore\n        /* \"#utility.yul\":27381:27405   */\n      0x657373206d757374206265206164647265737328302900000000000000000000\n        /* \"#utility.yul\":27376:27378   */\n      0x20\n        /* \"#utility.yul\":27368:27374   */\n      dup3\n        /* \"#utility.yul\":27364:27379   */\n      add\n        /* \"#utility.yul\":27357:27406   */\n      mstore\n        /* \"#utility.yul\":27172:27413   */\n      pop\n      jump\t// out\n        /* \"#utility.yul\":27419:27785   */\n    tag_253:\n        /* \"#utility.yul\":27561:27564   */\n      0x00\n        /* \"#utility.yul\":27582:27649   */\n      tag_503\n        /* \"#utility.yul\":27646:27648   */\n      0x36\n        /* \"#utility.yul\":27641:27644   */\n      dup4\n        /* \"#utility.yul\":27582:27649   */\n      tag_206\n      jump\t// in\n    tag_503:\n        /* \"#utility.yul\":27575:27649   */\n      swap2\n      pop\n        /* \"#utility.yul\":27658:27751   */\n      tag_504\n        /* \"#utility.yul\":27747:27750   */\n      dup3\n        /* \"#utility.yul\":27658:27751   */\n      tag_252\n      jump\t// in\n    tag_504:\n        /* \"#utility.yul\":27776:27778   */\n      0x40\n        /* \"#utility.yul\":27771:27774   */\n      dup3\n        /* \"#utility.yul\":27767:27779   */\n      add\n        /* \"#utility.yul\":27760:27779   */\n      swap1\n      pop\n        /* \"#utility.yul\":27419:27785   */\n      swap2\n      swap1\n      pop\n      jump\t// out\n        /* \"#utility.yul\":27791:28210   */\n    tag_125:\n        /* \"#utility.yul\":27957:27961   */\n      0x00\n        /* \"#utility.yul\":27995:27997   */\n      0x20\n        /* \"#utility.yul\":27984:27993   */\n      dup3\n        /* \"#utility.yul\":27980:27998   */\n      add\n        /* \"#utility.yul\":27972:27998   */\n      swap1\n      pop\n        /* \"#utility.yul\":28044:28053   */\n      dup2\n        /* \"#utility.yul\":28038:28042   */\n      dup2\n        /* \"#utility.yul\":28034:28054   */\n      sub\n        /* \"#utility.yul\":28030:28031   */\n      0x00\n        /* \"#utility.yul\":28019:28028   */\n      dup4\n        /* \"#utility.yul\":28015:28032   */\n      add\n        /* \"#utility.yul\":28008:28055   */\n      mstore\n        /* \"#utility.yul\":28072:28203   */\n      tag_506\n        /* \"#utility.yul\":28198:28202   */\n      dup2\n        /* \"#utility.yul\":28072:28203   */\n      tag_253\n      jump\t// in\n    tag_506:\n        /* \"#utility.yul\":28064:28203   */\n      swap1\n      pop\n        /* \"#utility.yul\":27791:28210   */\n      swap2\n      swap1\n      pop\n      jump\t// out\n        /* \"#utility.yul\":28216:28458   */\n    tag_254:\n        /* \"#utility.yul\":28356:28390   */\n      0x4c69624469616d6f6e644375743a2043616e27742072656d6f76652066756e63\n        /* \"#utility.yul\":28352:28353   */\n      0x00\n        /* \"#utility.yul\":28344:28350   */\n      dup3\n        /* \"#utility.yul\":28340:28354   */\n      add\n        /* \"#utility.yul\":28333:28391   */\n      mstore\n        /* \"#utility.yul\":28425:28450   */\n      0x74696f6e207468617420646f65736e2774206578697374000000000000000000\n        /* \"#utility.yul\":28420:28422   */\n      0x20\n        /* \"#utility.yul\":28412:28418   */\n      dup3\n        /* \"#utility.yul\":28408:28423   */\n      add\n        /* \"#utility.yul\":28401:28451   */\n      mstore\n        /* \"#utility.yul\":28216:28458   */\n      pop\n      jump\t// out\n        /* \"#utility.yul\":28464:28830   */\n    tag_255:\n        /* \"#utility.yul\":28606:28609   */\n      0x00\n        /* \"#utility.yul\":28627:28694   */\n      tag_509\n        /* \"#utility.yul\":28691:28693   */\n      0x37\n        /* \"#utility.yul\":28686:28689   */\n      dup4\n        /* \"#utility.yul\":28627:28694   */\n      tag_206\n      jump\t// in\n    tag_509:\n        /* \"#utility.yul\":28620:28694   */\n      swap2\n      pop\n        /* \"#utility.yul\":28703:28796   */\n      tag_510\n        /* \"#utility.yul\":28792:28795   */\n      dup3\n        /* \"#utility.yul\":28703:28796   */\n      tag_254\n      jump\t// in\n    tag_510:\n        /* \"#utility.yul\":28821:28823   */\n      0x40\n        /* \"#utility.yul\":28816:28819   */\n      dup3\n        /* \"#utility.yul\":28812:28824   */\n      add\n        /* \"#utility.yul\":28805:28824   */\n      swap1\n      pop\n        /* \"#utility.yul\":28464:28830   */\n      swap2\n      swap1\n      pop\n      jump\t// out\n        /* \"#utility.yul\":28836:29255   */\n    tag_133:\n        /* \"#utility.yul\":29002:29006   */\n      0x00\n        /* \"#utility.yul\":29040:29042   */\n      0x20\n        /* \"#utility.yul\":29029:29038   */\n      dup3\n        /* \"#utility.yul\":29025:29043   */\n      add\n        /* \"#utility.yul\":29017:29043   */\n      swap1\n      pop\n        /* \"#utility.yul\":29089:29098   */\n      dup2\n        /* \"#utility.yul\":29083:29087   */\n      dup2\n        /* \"#utility.yul\":29079:29099   */\n      sub\n        /* \"#utility.yul\":29075:29076   */\n      0x00\n        /* \"#utility.yul\":29064:29073   */\n      dup4\n        /* \"#utility.yul\":29060:29077   */\n      add\n        /* \"#utility.yul\":29053:29100   */\n      mstore\n        /* \"#utility.yul\":29117:29248   */\n      tag_512\n        /* \"#utility.yul\":29243:29247   */\n      dup2\n        /* \"#utility.yul\":29117:29248   */\n      tag_255\n      jump\t// in\n    tag_512:\n        /* \"#utility.yul\":29109:29248   */\n      swap1\n      pop\n        /* \"#utility.yul\":28836:29255   */\n      swap2\n      swap1\n      pop\n      jump\t// out\n        /* \"#utility.yul\":29261:29495   */\n    tag_256:\n        /* \"#utility.yul\":29401:29435   */\n      0x4c69624469616d6f6e644375743a2043616e27742072656d6f766520696d6d75\n        /* \"#utility.yul\":29397:29398   */\n      0x00\n        /* \"#utility.yul\":29389:29395   */\n      dup3\n        /* \"#utility.yul\":29385:29399   */\n      add\n        /* \"#utility.yul\":29378:29436   */\n      mstore\n        /* \"#utility.yul\":29470:29487   */\n      0x7461626c652066756e6374696f6e2e0000000000000000000000000000000000\n        /* \"#utility.yul\":29465:29467   */\n      0x20\n        /* \"#utility.yul\":29457:29463   */\n      dup3\n        /* \"#utility.yul\":29453:29468   */\n      add\n        /* \"#utility.yul\":29446:29488   */\n      mstore\n        /* \"#utility.yul\":29261:29495   */\n      pop\n      jump\t// out\n        /* \"#utility.yul\":29501:29867   */\n    tag_257:\n        /* \"#utility.yul\":29643:29646   */\n      0x00\n        /* \"#utility.yul\":29664:29731   */\n      tag_515\n        /* \"#utility.yul\":29728:29730   */\n      0x2f\n        /* \"#utility.yul\":29723:29726   */\n      dup4\n        /* \"#utility.yul\":29664:29731   */\n      tag_206\n      jump\t// in\n    tag_515:\n        /* \"#utility.yul\":29657:29731   */\n      swap2\n      pop\n        /* \"#utility.yul\":29740:29833   */\n      tag_516\n        /* \"#utility.yul\":29829:29832   */\n      dup3\n        /* \"#utility.yul\":29740:29833   */\n      tag_256\n      jump\t// in\n    tag_516:\n        /* \"#utility.yul\":29858:29860   */\n      0x40\n        /* \"#utility.yul\":29853:29856   */\n      dup3\n        /* \"#utility.yul\":29849:29861   */\n      add\n        /* \"#utility.yul\":29842:29861   */\n      swap1\n      pop\n        /* \"#utility.yul\":29501:29867   */\n      swap2\n      swap1\n      pop\n      jump\t// out\n        /* \"#utility.yul\":29873:30292   */\n    tag_136:\n        /* \"#utility.yul\":30039:30043   */\n      0x00\n        /* \"#utility.yul\":30077:30079   */\n      0x20\n        /* \"#utility.yul\":30066:30075   */\n      dup3\n        /* \"#utility.yul\":30062:30080   */\n      add\n        /* \"#utility.yul\":30054:30080   */\n      swap1\n      pop\n        /* \"#utility.yul\":30126:30135   */\n      dup2\n        /* \"#utility.yul\":30120:30124   */\n      dup2\n        /* \"#utility.yul\":30116:30136   */\n      sub\n        /* \"#utility.yul\":30112:30113   */\n      0x00\n        /* \"#utility.yul\":30101:30110   */\n      dup4\n        /* \"#utility.yul\":30097:30114   */\n      add\n        /* \"#utility.yul\":30090:30137   */\n      mstore\n        /* \"#utility.yul\":30154:30285   */\n      tag_518\n        /* \"#utility.yul\":30280:30284   */\n      dup2\n        /* \"#utility.yul\":30154:30285   */\n      tag_257\n      jump\t// in\n    tag_518:\n        /* \"#utility.yul\":30146:30285   */\n      swap1\n      pop\n        /* \"#utility.yul\":29873:30292   */\n      swap2\n      swap1\n      pop\n      jump\t// out\n        /* \"#utility.yul\":30298:30469   */\n    tag_138:\n        /* \"#utility.yul\":30337:30340   */\n      0x00\n        /* \"#utility.yul\":30360:30384   */\n      tag_520\n        /* \"#utility.yul\":30378:30383   */\n      dup3\n        /* \"#utility.yul\":30360:30384   */\n      tag_212\n      jump\t// in\n    tag_520:\n        /* \"#utility.yul\":30351:30384   */\n      swap2\n      pop\n        /* \"#utility.yul\":30406:30410   */\n      0x00\n        /* \"#utility.yul\":30399:30404   */\n      dup3\n        /* \"#utility.yul\":30396:30411   */\n      sub\n        /* \"#utility.yul\":30393:30434   */\n      tag_521\n      jumpi\n        /* \"#utility.yul\":30414:30432   */\n      tag_522\n      tag_211\n      jump\t// in\n    tag_522:\n        /* \"#utility.yul\":30393:30434   */\n    tag_521:\n        /* \"#utility.yul\":30461:30462   */\n      0x01\n        /* \"#utility.yul\":30454:30459   */\n      dup3\n        /* \"#utility.yul\":30450:30463   */\n      sub\n        /* \"#utility.yul\":30443:30463   */\n      swap1\n      pop\n        /* \"#utility.yul\":30298:30469   */\n      swap2\n      swap1\n      pop\n      jump\t// out\n        /* \"#utility.yul\":30475:30655   */\n    tag_148:\n        /* \"#utility.yul\":30523:30600   */\n      0x4e487b7100000000000000000000000000000000000000000000000000000000\n        /* \"#utility.yul\":30520:30521   */\n      0x00\n        /* \"#utility.yul\":30513:30601   */\n      mstore\n        /* \"#utility.yul\":30620:30624   */\n      0x31\n        /* \"#utility.yul\":30617:30618   */\n      0x04\n        /* \"#utility.yul\":30610:30625   */\n      mstore\n        /* \"#utility.yul\":30644:30648   */\n      0x24\n        /* \"#utility.yul\":30641:30642   */\n      0x00\n        /* \"#utility.yul\":30634:30649   */\n      revert\n        /* \"#utility.yul\":30661:30908   */\n    tag_258:\n        /* \"#utility.yul\":30801:30835   */\n      0x4c69624469616d6f6e644375743a205f696e6974206973206164647265737328\n        /* \"#utility.yul\":30797:30798   */\n      0x00\n        /* \"#utility.yul\":30789:30795   */\n      dup3\n        /* \"#utility.yul\":30785:30799   */\n      add\n        /* \"#utility.yul\":30778:30836   */\n      mstore\n        /* \"#utility.yul\":30870:30900   */\n      0x3029206275745f63616c6c64617461206973206e6f7420656d70747900000000\n        /* \"#utility.yul\":30865:30867   */\n      0x20\n        /* \"#utility.yul\":30857:30863   */\n      dup3\n        /* \"#utility.yul\":30853:30868   */\n      add\n        /* \"#utility.yul\":30846:30901   */\n      mstore\n        /* \"#utility.yul\":30661:30908   */\n      pop\n      jump\t// out\n        /* \"#utility.yul\":30914:31280   */\n    tag_259:\n        /* \"#utility.yul\":31056:31059   */\n      0x00\n        /* \"#utility.yul\":31077:31144   */\n      tag_526\n        /* \"#utility.yul\":31141:31143   */\n      0x3c\n        /* \"#utility.yul\":31136:31139   */\n      dup4\n        /* \"#utility.yul\":31077:31144   */\n      tag_206\n      jump\t// in\n    tag_526:\n        /* \"#utility.yul\":31070:31144   */\n      swap2\n      pop\n        /* \"#utility.yul\":31153:31246   */\n      tag_527\n        /* \"#utility.yul\":31242:31245   */\n      dup3\n        /* \"#utility.yul\":31153:31246   */\n      tag_258\n      jump\t// in\n    tag_527:\n        /* \"#utility.yul\":31271:31273   */\n      0x40\n        /* \"#utility.yul\":31266:31269   */\n      dup3\n        /* \"#utility.yul\":31262:31274   */\n      add\n        /* \"#utility.yul\":31255:31274   */\n      swap1\n      pop\n        /* \"#utility.yul\":30914:31280   */\n      swap2\n      swap1\n      pop\n      jump\t// out\n        /* \"#utility.yul\":31286:31705   */\n    tag_155:\n        /* \"#utility.yul\":31452:31456   */\n      0x00\n        /* \"#utility.yul\":31490:31492   */\n      0x20\n        /* \"#utility.yul\":31479:31488   */\n      dup3\n        /* \"#utility.yul\":31475:31493   */\n      add\n        /* \"#utility.yul\":31467:31493   */\n      swap1\n      pop\n        /* \"#utility.yul\":31539:31548   */\n      dup2\n        /* \"#utility.yul\":31533:31537   */\n      dup2\n        /* \"#utility.yul\":31529:31549   */\n      sub\n        /* \"#utility.yul\":31525:31526   */\n      0x00\n        /* \"#utility.yul\":31514:31523   */\n      dup4\n        /* \"#utility.yul\":31510:31527   */\n      add\n        /* \"#utility.yul\":31503:31550   */\n      mstore\n        /* \"#utility.yul\":31567:31698   */\n      tag_529\n        /* \"#utility.yul\":31693:31697   */\n      dup2\n        /* \"#utility.yul\":31567:31698   */\n      tag_259\n      jump\t// in\n    tag_529:\n        /* \"#utility.yul\":31559:31698   */\n      swap1\n      pop\n        /* \"#utility.yul\":31286:31705   */\n      swap2\n      swap1\n      pop\n      jump\t// out\n        /* \"#utility.yul\":31711:31959   */\n    tag_260:\n        /* \"#utility.yul\":31851:31885   */\n      0x4c69624469616d6f6e644375743a205f63616c6c6461746120697320656d7074\n        /* \"#utility.yul\":31847:31848   */\n      0x00\n        /* \"#utility.yul\":31839:31845   */\n      dup3\n        /* \"#utility.yul\":31835:31849   */\n      add\n        /* \"#utility.yul\":31828:31886   */\n      mstore\n        /* \"#utility.yul\":31920:31951   */\n      0x7920627574205f696e6974206973206e6f742061646472657373283029000000\n        /* \"#utility.yul\":31915:31917   */\n      0x20\n        /* \"#utility.yul\":31907:31913   */\n      dup3\n        /* \"#utility.yul\":31903:31918   */\n      add\n        /* \"#utility.yul\":31896:31952   */\n      mstore\n        /* \"#utility.yul\":31711:31959   */\n      pop\n      jump\t// out\n        /* \"#utility.yul\":31965:32331   */\n    tag_261:\n        /* \"#utility.yul\":32107:32110   */\n      0x00\n        /* \"#utility.yul\":32128:32195   */\n      tag_532\n        /* \"#utility.yul\":32192:32194   */\n      0x3d\n        /* \"#utility.yul\":32187:32190   */\n      dup4\n        /* \"#utility.yul\":32128:32195   */\n      tag_206\n      jump\t// in\n    tag_532:\n        /* \"#utility.yul\":32121:32195   */\n      swap2\n      pop\n        /* \"#utility.yul\":32204:32297   */\n      tag_533\n        /* \"#utility.yul\":32293:32296   */\n      dup3\n        /* \"#utility.yul\":32204:32297   */\n      tag_260\n      jump\t// in\n    tag_533:\n        /* \"#utility.yul\":32322:32324   */\n      0x40\n        /* \"#utility.yul\":32317:32320   */\n      dup3\n        /* \"#utility.yul\":32313:32325   */\n      add\n        /* \"#utility.yul\":32306:32325   */\n      swap1\n      pop\n        /* \"#utility.yul\":31965:32331   */\n      swap2\n      swap1\n      pop\n      jump\t// out\n        /* \"#utility.yul\":32337:32756   */\n    tag_159:\n        /* \"#utility.yul\":32503:32507   */\n      0x00\n        /* \"#utility.yul\":32541:32543   */\n      0x20\n        /* \"#utility.yul\":32530:32539   */\n      dup3\n        /* \"#utility.yul\":32526:32544   */\n      add\n        /* \"#utility.yul\":32518:32544   */\n      swap1\n      pop\n        /* \"#utility.yul\":32590:32599   */\n      dup2\n        /* \"#utility.yul\":32584:32588   */\n      dup2\n        /* \"#utility.yul\":32580:32600   */\n      sub\n        /* \"#utility.yul\":32576:32577   */\n      0x00\n        /* \"#utility.yul\":32565:32574   */\n      dup4\n        /* \"#utility.yul\":32561:32578   */\n      add\n        /* \"#utility.yul\":32554:32601   */\n      mstore\n        /* \"#utility.yul\":32618:32749   */\n      tag_535\n        /* \"#utility.yul\":32744:32748   */\n      dup2\n        /* \"#utility.yul\":32618:32749   */\n      tag_261\n      jump\t// in\n    tag_535:\n        /* \"#utility.yul\":32610:32749   */\n      swap1\n      pop\n        /* \"#utility.yul\":32337:32756   */\n      swap2\n      swap1\n      pop\n      jump\t// out\n        /* \"#utility.yul\":32762:32909   */\n    tag_262:\n        /* \"#utility.yul\":32863:32874   */\n      0x00\n        /* \"#utility.yul\":32900:32903   */\n      dup2\n        /* \"#utility.yul\":32885:32903   */\n      swap1\n      pop\n        /* \"#utility.yul\":32762:32909   */\n      swap3\n      swap2\n      pop\n      pop\n      jump\t// out\n        /* \"#utility.yul\":32915:33301   */\n    tag_263:\n        /* \"#utility.yul\":33019:33022   */\n      0x00\n        /* \"#utility.yul\":33047:33085   */\n      tag_538\n        /* \"#utility.yul\":33079:33084   */\n      dup3\n        /* \"#utility.yul\":33047:33085   */\n      tag_233\n      jump\t// in\n    tag_538:\n        /* \"#utility.yul\":33101:33189   */\n      tag_539\n        /* \"#utility.yul\":33182:33188   */\n      dup2\n        /* \"#utility.yul\":33177:33180   */\n      dup6\n        /* \"#utility.yul\":33101:33189   */\n      tag_262\n      jump\t// in\n    tag_539:\n        /* \"#utility.yul\":33094:33189   */\n      swap4\n      pop\n        /* \"#utility.yul\":33198:33263   */\n      tag_540\n        /* \"#utility.yul\":33256:33262   */\n      dup2\n        /* \"#utility.yul\":33251:33254   */\n      dup6\n        /* \"#utility.yul\":33244:33248   */\n      0x20\n        /* \"#utility.yul\":33237:33242   */\n      dup7\n        /* \"#utility.yul\":33233:33249   */\n      add\n        /* \"#utility.yul\":33198:33263   */\n      tag_235\n      jump\t// in\n    tag_540:\n        /* \"#utility.yul\":33288:33294   */\n      dup1\n        /* \"#utility.yul\":33283:33286   */\n      dup5\n        /* \"#utility.yul\":33279:33295   */\n      add\n        /* \"#utility.yul\":33272:33295   */\n      swap2\n      pop\n        /* \"#utility.yul\":33023:33301   */\n      pop\n        /* \"#utility.yul\":32915:33301   */\n      swap3\n      swap2\n      pop\n      pop\n      jump\t// out\n        /* \"#utility.yul\":33307:33578   */\n    tag_163:\n        /* \"#utility.yul\":33437:33440   */\n      0x00\n        /* \"#utility.yul\":33459:33552   */\n      tag_542\n        /* \"#utility.yul\":33548:33551   */\n      dup3\n        /* \"#utility.yul\":33539:33545   */\n      dup5\n        /* \"#utility.yul\":33459:33552   */\n      tag_263\n      jump\t// in\n    tag_542:\n        /* \"#utility.yul\":33452:33552   */\n      swap2\n      pop\n        /* \"#utility.yul\":33569:33572   */\n      dup2\n        /* \"#utility.yul\":33562:33572   */\n      swap1\n      pop\n        /* \"#utility.yul\":33307:33578   */\n      swap3\n      swap2\n      pop\n      pop\n      jump\t// out\n        /* \"#utility.yul\":33584:33683   */\n    tag_264:\n        /* \"#utility.yul\":33636:33642   */\n      0x00\n        /* \"#utility.yul\":33670:33675   */\n      dup2\n        /* \"#utility.yul\":33664:33676   */\n      mload\n        /* \"#utility.yul\":33654:33676   */\n      swap1\n      pop\n        /* \"#utility.yul\":33584:33683   */\n      swap2\n      swap1\n      pop\n      jump\t// out\n        /* \"#utility.yul\":33689:34066   */\n    tag_265:\n        /* \"#utility.yul\":33777:33780   */\n      0x00\n        /* \"#utility.yul\":33805:33844   */\n      tag_545\n        /* \"#utility.yul\":33838:33843   */\n      dup3\n        /* \"#utility.yul\":33805:33844   */\n      tag_264\n      jump\t// in\n    tag_545:\n        /* \"#utility.yul\":33860:33931   */\n      tag_546\n        /* \"#utility.yul\":33924:33930   */\n      dup2\n        /* \"#utility.yul\":33919:33922   */\n      dup6\n        /* \"#utility.yul\":33860:33931   */\n      tag_206\n      jump\t// in\n    tag_546:\n        /* \"#utility.yul\":33853:33931   */\n      swap4\n      pop\n        /* \"#utility.yul\":33940:34005   */\n      tag_547\n        /* \"#utility.yul\":33998:34004   */\n      dup2\n        /* \"#utility.yul\":33993:33996   */\n      dup6\n        /* \"#utility.yul\":33986:33990   */\n      0x20\n        /* \"#utility.yul\":33979:33984   */\n      dup7\n        /* \"#utility.yul\":33975:33991   */\n      add\n        /* \"#utility.yul\":33940:34005   */\n      tag_235\n      jump\t// in\n    tag_547:\n        /* \"#utility.yul\":34030:34059   */\n      tag_548\n        /* \"#utility.yul\":34052:34058   */\n      dup2\n        /* \"#utility.yul\":34030:34059   */\n      tag_189\n      jump\t// in\n    tag_548:\n        /* \"#utility.yul\":34025:34028   */\n      dup5\n        /* \"#utility.yul\":34021:34060   */\n      add\n        /* \"#utility.yul\":34014:34060   */\n      swap2\n      pop\n        /* \"#utility.yul\":33781:34066   */\n      pop\n        /* \"#utility.yul\":33689:34066   */\n      swap3\n      swap2\n      pop\n      pop\n      jump\t// out\n        /* \"#utility.yul\":34072:34385   */\n    tag_170:\n        /* \"#utility.yul\":34185:34189   */\n      0x00\n        /* \"#utility.yul\":34223:34225   */\n      0x20\n        /* \"#utility.yul\":34212:34221   */\n      dup3\n        /* \"#utility.yul\":34208:34226   */\n      add\n        /* \"#utility.yul\":34200:34226   */\n      swap1\n      pop\n        /* \"#utility.yul\":34272:34281   */\n      dup2\n        /* \"#utility.yul\":34266:34270   */\n      dup2\n        /* \"#utility.yul\":34262:34282   */\n      sub\n        /* \"#utility.yul\":34258:34259   */\n      0x00\n        /* \"#utility.yul\":34247:34256   */\n      dup4\n        /* \"#utility.yul\":34243:34260   */\n      add\n        /* \"#utility.yul\":34236:34283   */\n      mstore\n        /* \"#utility.yul\":34300:34378   */\n      tag_550\n        /* \"#utility.yul\":34373:34377   */\n      dup2\n        /* \"#utility.yul\":34364:34370   */\n      dup5\n        /* \"#utility.yul\":34300:34378   */\n      tag_265\n      jump\t// in\n    tag_550:\n        /* \"#utility.yul\":34292:34378   */\n      swap1\n      pop\n        /* \"#utility.yul\":34072:34385   */\n      swap3\n      swap2\n      pop\n      pop\n      jump\t// out\n        /* \"#utility.yul\":34391:34616   */\n    tag_266:\n        /* \"#utility.yul\":34531:34565   */\n      0x4c69624469616d6f6e644375743a205f696e69742066756e6374696f6e207265\n        /* \"#utility.yul\":34527:34528   */\n      0x00\n        /* \"#utility.yul\":34519:34525   */\n      dup3\n        /* \"#utility.yul\":34515:34529   */\n      add\n        /* \"#utility.yul\":34508:34566   */\n      mstore\n        /* \"#utility.yul\":34600:34608   */\n      0x7665727465640000000000000000000000000000000000000000000000000000\n        /* \"#utility.yul\":34595:34597   */\n      0x20\n        /* \"#utility.yul\":34587:34593   */\n      dup3\n        /* \"#utility.yul\":34583:34598   */\n      add\n        /* \"#utility.yul\":34576:34609   */\n      mstore\n        /* \"#utility.yul\":34391:34616   */\n      pop\n      jump\t// out\n        /* \"#utility.yul\":34622:34988   */\n    tag_267:\n        /* \"#utility.yul\":34764:34767   */\n      0x00\n        /* \"#utility.yul\":34785:34852   */\n      tag_553\n        /* \"#utility.yul\":34849:34851   */\n      0x26\n        /* \"#utility.yul\":34844:34847   */\n      dup4\n        /* \"#utility.yul\":34785:34852   */\n      tag_206\n      jump\t// in\n    tag_553:\n        /* \"#utility.yul\":34778:34852   */\n      swap2\n      pop\n        /* \"#utility.yul\":34861:34954   */\n      tag_554\n        /* \"#utility.yul\":34950:34953   */\n      dup3\n        /* \"#utility.yul\":34861:34954   */\n      tag_266\n      jump\t// in\n    tag_554:\n        /* \"#utility.yul\":34979:34981   */\n      0x40\n        /* \"#utility.yul\":34974:34977   */\n      dup3\n        /* \"#utility.yul\":34970:34982   */\n      add\n        /* \"#utility.yul\":34963:34982   */\n      swap1\n      pop\n        /* \"#utility.yul\":34622:34988   */\n      swap2\n      swap1\n      pop\n      jump\t// out\n        /* \"#utility.yul\":34994:35413   */\n    tag_173:\n        /* \"#utility.yul\":35160:35164   */\n      0x00\n        /* \"#utility.yul\":35198:35200   */\n      0x20\n        /* \"#utility.yul\":35187:35196   */\n      dup3\n        /* \"#utility.yul\":35183:35201   */\n      add\n        /* \"#utility.yul\":35175:35201   */\n      swap1\n      pop\n        /* \"#utility.yul\":35247:35256   */\n      dup2\n        /* \"#utility.yul\":35241:35245   */\n      dup2\n        /* \"#utility.yul\":35237:35257   */\n      sub\n        /* \"#utility.yul\":35233:35234   */\n      0x00\n        /* \"#utility.yul\":35222:35231   */\n      dup4\n        /* \"#utility.yul\":35218:35235   */\n      add\n        /* \"#utility.yul\":35211:35258   */\n      mstore\n        /* \"#utility.yul\":35275:35406   */\n      tag_556\n        /* \"#utility.yul\":35401:35405   */\n      dup2\n        /* \"#utility.yul\":35275:35406   */\n      tag_267\n      jump\t// in\n    tag_556:\n        /* \"#utility.yul\":35267:35406   */\n      swap1\n      pop\n        /* \"#utility.yul\":34994:35413   */\n      swap2\n      swap1\n      pop\n      jump\t// out\n    stop\n    data_343e33adc9ef80d2a3b19196e3a71ee2d793419943c19ad2b2a6875f7dd42e8d 4c69624469616d6f6e644375743a2041646420666163657420686173206e6f20636f6465\n    data_460f8f0920c649146ef02741816b1cf9ce4f02ea288ceb73adf027cefe9069a0 4c69624469616d6f6e644375743a205f696e6974206164647265737320686173206e6f20636f6465\n    data_de246aa8052f872d61bcd9cfb620b8012f8bc6e512400178c0e967944dadacfe 4c69624469616d6f6e644375743a205265706c61636520666163657420686173206e6f20636f6465\n\n    auxdata: 0xa26469706673582212200bcc3ad41468284d319c6ecb2f116a381e62f4505e463481e988fd5ec324585a64736f6c63430008120033\n}\n",
				"bytecode": {
					"linkReferences": {},
					"object": "608060405234801561001057600080fd5b5061250b806100206000396000f3fe608060405234801561001057600080fd5b506004361061002b5760003560e01c80631f931c1c14610030575b600080fd5b61004a600480360381019061004591906112ed565b61004c565b005b6100546100b6565b6100af858590610064919061168b565b8484848080601f016020809104026020016040519081016040528093929190818152602001838380828437600081840152601f19601f82011690508083019250505050505050610151565b5050505050565b6100be610380565b60030160009054906101000a900473ffffffffffffffffffffffffffffffffffffffff1673ffffffffffffffffffffffffffffffffffffffff163373ffffffffffffffffffffffffffffffffffffffff161461014f576040517f08c379a000000000000000000000000000000000000000000000000000000000815260040161014690611723565b60405180910390fd5b565b60005b835181101561033557600084828151811061017257610171611743565b5b60200260200101516020015190506000600281111561019457610193611772565b5b8160028111156101a7576101a6611772565b5b036101f7576101f28583815181106101c2576101c1611743565b5b6020026020010151600001518684815181106101e1576101e0611743565b5b6020026020010151604001516103ad565b610321565b6001600281111561020b5761020a611772565b5b81600281111561021e5761021d611772565b5b0361026e5761026985838151811061023957610238611743565b5b60200260200101516000015186848151811061025857610257611743565b5b602002602001015160400151610715565b610320565b60028081111561028157610280611772565b5b81600281111561029457610293611772565b5b036102e4576102df8583815181106102af576102ae611743565b5b6020026020010151600001518684815181106102ce576102cd611743565b5b602002602001015160400151610a97565b61031f565b6040517f08c379a000000000000000000000000000000000000000000000000000000000815260040161031690611813565b60405180910390fd5b5b5b50808061032d9061186c565b915050610154565b507f8faa70878671ccd212d20771b795c50af8fd3ff6cf27f4bde57e5d4de0aeb67383838360405161036993929190611b69565b60405180910390a161037b8282610f5c565b505050565b6000807fc8fcad8db84d3cc18b4c41d551ea0ee66dd599cde068d998e57d5e09332c131c90508091505090565b60008151116103f1576040517f08c379a00000000000000000000000000000000000000000000000000000000081526004016103e890611c20565b60405180910390fd5b60006103fb610380565b9050600081600101805490509050600073ffffffffffffffffffffffffffffffffffffffff168473ffffffffffffffffffffffffffffffffffffffff1603610478576040517f08c379a000000000000000000000000000000000000000000000000000000000815260040161046f90611cb2565b60405180910390fd5b61049a846040518060600160405280602481526020016124626024913961116e565b60005b835181101561070e5760008482815181106104bb576104ba611743565b5b602002602001015190506000846000016000837bffffffffffffffffffffffffffffffffffffffffffffffffffffffff19167bffffffffffffffffffffffffffffffffffffffffffffffffffffffff1916815260200190815260200160002060000160009054906101000a900473ffffffffffffffffffffffffffffffffffffffff169050600073ffffffffffffffffffffffffffffffffffffffff168173ffffffffffffffffffffffffffffffffffffffff16146105af576040517f08c379a00000000000000000000000000000000000000000000000000000000081526004016105a690611d44565b60405180910390fd5b60405180604001604052808873ffffffffffffffffffffffffffffffffffffffff1681526020018561ffff16815250856000016000847bffffffffffffffffffffffffffffffffffffffffffffffffffffffff19167bffffffffffffffffffffffffffffffffffffffffffffffffffffffff1916815260200190815260200160002060008201518160000160006101000a81548173ffffffffffffffffffffffffffffffffffffffff021916908373ffffffffffffffffffffffffffffffffffffffff16021790555060208201518160000160146101000a81548161ffff021916908361ffff160217905550905050846001018290806001815401808255809150506001900390600052602060002090600891828204019190066004029091909190916101000a81548163ffffffff021916908360e01c021790555083806106f690611d72565b945050505080806107069061186c565b91505061049d565b5050505050565b6000815111610759576040517f08c379a000000000000000000000000000000000000000000000000000000000815260040161075090611c20565b60405180910390fd5b6000610763610380565b9050600073ffffffffffffffffffffffffffffffffffffffff168373ffffffffffffffffffffffffffffffffffffffff16036107d4576040517f08c379a00000000000000000000000000000000000000000000000000000000081526004016107cb90611e0e565b60405180910390fd5b6107f6836040518060600160405280602881526020016124ae6028913961116e565b60005b8251811015610a9157600083828151811061081757610816611743565b5b602002602001015190506000836000016000837bffffffffffffffffffffffffffffffffffffffffffffffffffffffff19167bffffffffffffffffffffffffffffffffffffffffffffffffffffffff1916815260200190815260200160002060000160009054906101000a900473ffffffffffffffffffffffffffffffffffffffff1690503073ffffffffffffffffffffffffffffffffffffffff168173ffffffffffffffffffffffffffffffffffffffff160361090a576040517f08c379a000000000000000000000000000000000000000000000000000000000815260040161090190611ea0565b60405180910390fd5b8573ffffffffffffffffffffffffffffffffffffffff168173ffffffffffffffffffffffffffffffffffffffff1603610978576040517f08c379a000000000000000000000000000000000000000000000000000000000815260040161096f90611f32565b60405180910390fd5b600073ffffffffffffffffffffffffffffffffffffffff168173ffffffffffffffffffffffffffffffffffffffff16036109e7576040517f08c379a00000000000000000000000000000000000000000000000000000000081526004016109de90611fc4565b60405180910390fd5b85846000016000847bffffffffffffffffffffffffffffffffffffffffffffffffffffffff19167bffffffffffffffffffffffffffffffffffffffffffffffffffffffff1916815260200190815260200160002060000160006101000a81548173ffffffffffffffffffffffffffffffffffffffff021916908373ffffffffffffffffffffffffffffffffffffffff16021790555050508080610a899061186c565b9150506107f9565b50505050565b6000815111610adb576040517f08c379a0000000000000000000000000000000000000000000000000000000008152600401610ad290611c20565b60405180910390fd5b6000610ae5610380565b9050600081600101805490509050600073ffffffffffffffffffffffffffffffffffffffff168473ffffffffffffffffffffffffffffffffffffffff1614610b62576040517f08c379a0000000000000000000000000000000000000000000000000000000008152600401610b5990612056565b60405180910390fd5b60005b8351811015610f55576000848281518110610b8357610b82611743565b5b602002602001015190506000846000016000837bffffffffffffffffffffffffffffffffffffffffffffffffffffffff19167bffffffffffffffffffffffffffffffffffffffffffffffffffffffff191681526020019081526020016000206040518060400160405290816000820160009054906101000a900473ffffffffffffffffffffffffffffffffffffffff1673ffffffffffffffffffffffffffffffffffffffff1673ffffffffffffffffffffffffffffffffffffffff1681526020016000820160149054906101000a900461ffff1661ffff1661ffff16815250509050600073ffffffffffffffffffffffffffffffffffffffff16816000015173ffffffffffffffffffffffffffffffffffffffff1603610cd8576040517f08c379a0000000000000000000000000000000000000000000000000000000008152600401610ccf906120e8565b60405180910390fd5b3073ffffffffffffffffffffffffffffffffffffffff16816000015173ffffffffffffffffffffffffffffffffffffffff1603610d4a576040517f08c379a0000000000000000000000000000000000000000000000000000000008152600401610d419061217a565b60405180910390fd5b8380610d559061219a565b94505083816020015161ffff1614610e6a576000856001018581548110610d7f57610d7e611743565b5b90600052602060002090600891828204019190066004029054906101000a900460e01b90508086600101836020015161ffff1681548110610dc357610dc2611743565b5b90600052602060002090600891828204019190066004026101000a81548163ffffffff021916908360e01c02179055508160200151866000016000837bffffffffffffffffffffffffffffffffffffffffffffffffffffffff19167bffffffffffffffffffffffffffffffffffffffffffffffffffffffff1916815260200190815260200160002060000160146101000a81548161ffff021916908361ffff160217905550505b84600101805480610e7e57610e7d6121c3565b5b60019003818190600052602060002090600891828204019190066004026101000a81549063ffffffff02191690559055846000016000837bffffffffffffffffffffffffffffffffffffffffffffffffffffffff19167bffffffffffffffffffffffffffffffffffffffffffffffffffffffff19168152602001908152602001600020600080820160006101000a81549073ffffffffffffffffffffffffffffffffffffffff02191690556000820160146101000a81549061ffff0219169055505050508080610f4d9061186c565b915050610b65565b5050505050565b600073ffffffffffffffffffffffffffffffffffffffff168273ffffffffffffffffffffffffffffffffffffffff1603610fd9576000815114610fd4576040517f08c379a0000000000000000000000000000000000000000000000000000000008152600401610fcb90612264565b60405180910390fd5b61116a565b600081511161101d576040517f08c379a0000000000000000000000000000000000000000000000000000000008152600401611014906122f6565b60405180910390fd5b3073ffffffffffffffffffffffffffffffffffffffff168273ffffffffffffffffffffffffffffffffffffffff161461107357611072826040518060600160405280602881526020016124866028913961116e565b5b6000808373ffffffffffffffffffffffffffffffffffffffff168360405161109b9190612352565b600060405180830381855af49150503d80600081146110d6576040519150601f19603f3d011682016040523d82523d6000602084013e6110db565b606091505b5091509150816111675760008151111561112c57806040517f08c379a000000000000000000000000000000000000000000000000000000000815260040161112391906123ad565b60405180910390fd5b6040517f08c379a000000000000000000000000000000000000000000000000000000000815260040161115e90612441565b60405180910390fd5b50505b5050565b6000823b90506000811182906111ba576040517f08c379a00000000000000000000000000000000000000000000000000000000081526004016111b191906123ad565b60405180910390fd5b50505050565b6000604051905090565b600080fd5b600080fd5b600080fd5b600080fd5b600080fd5b60008083601f8401126111f9576111f86111d4565b5b8235905067ffffffffffffffff811115611216576112156111d9565b5b602083019150836020820283011115611232576112316111de565b5b9250929050565b600073ffffffffffffffffffffffffffffffffffffffff82169050919050565b600061126482611239565b9050919050565b61127481611259565b811461127f57600080fd5b50565b6000813590506112918161126b565b92915050565b60008083601f8401126112ad576112ac6111d4565b5b8235905067ffffffffffffffff8111156112ca576112c96111d9565b5b6020830191508360018202830111156112e6576112e56111de565b5b9250929050565b600080600080600060608688031215611309576113086111ca565b5b600086013567ffffffffffffffff811115611327576113266111cf565b5b611333888289016111e3565b9550955050602061134688828901611282565b935050604086013567ffffffffffffffff811115611367576113666111cf565b5b61137388828901611297565b92509250509295509295909350565b6000601f19601f8301169050919050565b7f4e487b7100000000000000000000000000000000000000000000000000000000600052604160045260246000fd5b6113cb82611382565b810181811067ffffffffffffffff821117156113ea576113e9611393565b5b80604052505050565b60006113fd6111c0565b905061140982826113c2565b919050565b600067ffffffffffffffff82111561142957611428611393565b5b602082029050602081019050919050565b600080fd5b600080fd5b6003811061145157600080fd5b50565b60008135905061146381611444565b92915050565b600067ffffffffffffffff82111561148457611483611393565b5b602082029050602081019050919050565b60007fffffffff0000000000000000000000000000000000000000000000000000000082169050919050565b6114ca81611495565b81146114d557600080fd5b50565b6000813590506114e7816114c1565b92915050565b60006115006114fb84611469565b6113f3565b90508083825260208201905060208402830185811115611523576115226111de565b5b835b8181101561154c578061153888826114d8565b845260208401935050602081019050611525565b5050509392505050565b600082601f83011261156b5761156a6111d4565b5b813561157b8482602086016114ed565b91505092915050565b60006060828403121561159a5761159961143a565b5b6115a460606113f3565b905060006115b484828501611282565b60008301525060206115c884828501611454565b602083015250604082013567ffffffffffffffff8111156115ec576115eb61143f565b5b6115f884828501611556565b60408301525092915050565b60006116176116128461140e565b6113f3565b9050808382526020820190506020840283018581111561163a576116396111de565b5b835b8181101561168157803567ffffffffffffffff81111561165f5761165e6111d4565b5b80860161166c8982611584565b8552602085019450505060208101905061163c565b5050509392505050565b6000611698368484611604565b905092915050565b600082825260208201905092915050565b7f4c69624469616d6f6e643a204d75737420626520636f6e7472616374206f776e60008201527f6572000000000000000000000000000000000000000000000000000000000000602082015250565b600061170d6022836116a0565b9150611718826116b1565b604082019050919050565b6000602082019050818103600083015261173c81611700565b9050919050565b7f4e487b7100000000000000000000000000000000000000000000000000000000600052603260045260246000fd5b7f4e487b7100000000000000000000000000000000000000000000000000000000600052602160045260246000fd5b7f4c69624469616d6f6e644375743a20496e636f7272656374204661636574437560008201527f74416374696f6e00000000000000000000000000000000000000000000000000602082015250565b60006117fd6027836116a0565b9150611808826117a1565b604082019050919050565b6000602082019050818103600083015261182c816117f0565b9050919050565b7f4e487b7100000000000000000000000000000000000000000000000000000000600052601160045260246000fd5b6000819050919050565b600061187782611862565b91507fffffffffffffffffffffffffffffffffffffffffffffffffffffffffffffffff82036118a9576118a8611833565b5b600182019050919050565b600081519050919050565b600082825260208201905092915050565b6000819050602082019050919050565b6118e981611259565b82525050565b60038110611900576118ff611772565b5b50565b6000819050611911826118ef565b919050565b600061192182611903565b9050919050565b61193181611916565b82525050565b600081519050919050565b600082825260208201905092915050565b6000819050602082019050919050565b61196c81611495565b82525050565b600061197e8383611963565b60208301905092915050565b6000602082019050919050565b60006119a282611937565b6119ac8185611942565b93506119b783611953565b8060005b838110156119e85781516119cf8882611972565b97506119da8361198a565b9250506001810190506119bb565b5085935050505092915050565b6000606083016000830151611a0d60008601826118e0565b506020830151611a206020860182611928565b5060408301518482036040860152611a388282611997565b9150508091505092915050565b6000611a5183836119f5565b905092915050565b6000602082019050919050565b6000611a71826118b4565b611a7b81856118bf565b935083602082028501611a8d856118d0565b8060005b85811015611ac95784840389528151611aaa8582611a45565b9450611ab583611a59565b925060208a01995050600181019050611a91565b50829750879550505050505092915050565b611ae481611259565b82525050565b600081519050919050565b600082825260208201905092915050565b60005b83811015611b24578082015181840152602081019050611b09565b60008484015250505050565b6000611b3b82611aea565b611b458185611af5565b9350611b55818560208601611b06565b611b5e81611382565b840191505092915050565b60006060820190508181036000830152611b838186611a66565b9050611b926020830185611adb565b8181036040830152611ba48184611b30565b9050949350505050565b7f4c69624469616d6f6e644375743a204e6f2073656c6563746f727320696e206660008201527f6163657420746f20637574000000000000000000000000000000000000000000602082015250565b6000611c0a602b836116a0565b9150611c1582611bae565b604082019050919050565b60006020820190508181036000830152611c3981611bfd565b9050919050565b7f4c69624469616d6f6e644375743a204164642066616365742063616e2774206260008201527f6520616464726573732830290000000000000000000000000000000000000000602082015250565b6000611c9c602c836116a0565b9150611ca782611c40565b604082019050919050565b60006020820190508181036000830152611ccb81611c8f565b9050919050565b7f4c69624469616d6f6e644375743a2043616e2774206164642066756e6374696f60008201527f6e207468617420616c7265616479206578697374730000000000000000000000602082015250565b6000611d2e6035836116a0565b9150611d3982611cd2565b604082019050919050565b60006020820190508181036000830152611d5d81611d21565b9050919050565b600061ffff82169050919050565b6000611d7d82611d64565b915061ffff8203611d9157611d90611833565b5b600182019050919050565b7f4c69624469616d6f6e644375743a205265706c6163652066616365742063616e60008201527f2774206265206164647265737328302900000000000000000000000000000000602082015250565b6000611df86030836116a0565b9150611e0382611d9c565b604082019050919050565b60006020820190508181036000830152611e2781611deb565b9050919050565b7f4c69624469616d6f6e644375743a2043616e2774207265706c61636520696d6d60008201527f757461626c652066756e6374696f6e0000000000000000000000000000000000602082015250565b6000611e8a602f836116a0565b9150611e9582611e2e565b604082019050919050565b60006020820190508181036000830152611eb981611e7d565b9050919050565b7f4c69624469616d6f6e644375743a2043616e2774207265706c6163652066756e60008201527f6374696f6e20776974682073616d652066756e6374696f6e0000000000000000602082015250565b6000611f1c6038836116a0565b9150611f2782611ec0565b604082019050919050565b60006020820190508181036000830152611f4b81611f0f565b9050919050565b7f4c69624469616d6f6e644375743a2043616e2774207265706c6163652066756e60008201527f6374696f6e207468617420646f65736e27742065786973740000000000000000602082015250565b6000611fae6038836116a0565b9150611fb982611f52565b604082019050919050565b60006020820190508181036000830152611fdd81611fa1565b9050919050565b7f4c69624469616d6f6e644375743a2052656d6f7665206661636574206164647260008201527f657373206d757374206265206164647265737328302900000000000000000000602082015250565b60006120406036836116a0565b915061204b82611fe4565b604082019050919050565b6000602082019050818103600083015261206f81612033565b9050919050565b7f4c69624469616d6f6e644375743a2043616e27742072656d6f76652066756e6360008201527f74696f6e207468617420646f65736e2774206578697374000000000000000000602082015250565b60006120d26037836116a0565b91506120dd82612076565b604082019050919050565b60006020820190508181036000830152612101816120c5565b9050919050565b7f4c69624469616d6f6e644375743a2043616e27742072656d6f766520696d6d7560008201527f7461626c652066756e6374696f6e2e0000000000000000000000000000000000602082015250565b6000612164602f836116a0565b915061216f82612108565b604082019050919050565b6000602082019050818103600083015261219381612157565b9050919050565b60006121a582611862565b9150600082036121b8576121b7611833565b5b600182039050919050565b7f4e487b7100000000000000000000000000000000000000000000000000000000600052603160045260246000fd5b7f4c69624469616d6f6e644375743a205f696e697420697320616464726573732860008201527f3029206275745f63616c6c64617461206973206e6f7420656d70747900000000602082015250565b600061224e603c836116a0565b9150612259826121f2565b604082019050919050565b6000602082019050818103600083015261227d81612241565b9050919050565b7f4c69624469616d6f6e644375743a205f63616c6c6461746120697320656d707460008201527f7920627574205f696e6974206973206e6f742061646472657373283029000000602082015250565b60006122e0603d836116a0565b91506122eb82612284565b604082019050919050565b6000602082019050818103600083015261230f816122d3565b9050919050565b600081905092915050565b600061232c82611aea565b6123368185612316565b9350612346818560208601611b06565b80840191505092915050565b600061235e8284612321565b915081905092915050565b600081519050919050565b600061237f82612369565b61238981856116a0565b9350612399818560208601611b06565b6123a281611382565b840191505092915050565b600060208201905081810360008301526123c78184612374565b905092915050565b7f4c69624469616d6f6e644375743a205f696e69742066756e6374696f6e20726560008201527f7665727465640000000000000000000000000000000000000000000000000000602082015250565b600061242b6026836116a0565b9150612436826123cf565b604082019050919050565b6000602082019050818103600083015261245a8161241e565b905091905056fe4c69624469616d6f6e644375743a2041646420666163657420686173206e6f20636f64654c69624469616d6f6e644375743a205f696e6974206164647265737320686173206e6f20636f64654c69624469616d6f6e644375743a205265706c61636520666163657420686173206e6f20636f6465a26469706673582212200bcc3ad41468284d319c6ecb2f116a381e62f4505e463481e988fd5ec324585a64736f6c63430008120033",
					"opcodes": "PUSH1 0x80 PUSH1 0x40 MSTORE CALLVALUE DUP1 ISZERO PUSH2 0x10 JUMPI PUSH1 0x0 DUP1 REVERT JUMPDEST POP PUSH2 0x250B DUP1 PUSH2 0x20 PUSH1 0x0 CODECOPY PUSH1 0x0 RETURN INVALID PUSH1 0x80 PUSH1 0x40 MSTORE CALLVALUE DUP1 ISZERO PUSH2 0x10 JUMPI PUSH1 0x0 DUP1 REVERT JUMPDEST POP PUSH1 0x4 CALLDATASIZE LT PUSH2 0x2B JUMPI PUSH1 0x0 CALLDATALOAD PUSH1 0xE0 SHR DUP1 PUSH4 0x1F931C1C EQ PUSH2 0x30 JUMPI JUMPDEST PUSH1 0x0 DUP1 REVERT JUMPDEST PUSH2 0x4A PUSH1 0x4 DUP1 CALLDATASIZE SUB DUP2 ADD SWAP1 PUSH2 0x45 SWAP2 SWAP1 PUSH2 0x12ED JUMP JUMPDEST PUSH2 0x4C JUMP JUMPDEST STOP JUMPDEST PUSH2 0x54 PUSH2 0xB6 JUMP JUMPDEST PUSH2 0xAF DUP6 DUP6 SWAP1 PUSH2 0x64 SWAP2 SWAP1 PUSH2 0x168B JUMP JUMPDEST DUP5 DUP5 DUP5 DUP1 DUP1 PUSH1 0x1F ADD PUSH1 0x20 DUP1 SWAP2 DIV MUL PUSH1 0x20 ADD PUSH1 0x40 MLOAD SWAP1 DUP2 ADD PUSH1 0x40 MSTORE DUP1 SWAP4 SWAP3 SWAP2 SWAP1 DUP2 DUP2 MSTORE PUSH1 0x20 ADD DUP4 DUP4 DUP1 DUP3 DUP5 CALLDATACOPY PUSH1 0x0 DUP2 DUP5 ADD MSTORE PUSH1 0x1F NOT PUSH1 0x1F DUP3 ADD AND SWAP1 POP DUP1 DUP4 ADD SWAP3 POP POP POP POP POP POP POP PUSH2 0x151 JUMP JUMPDEST POP POP POP POP POP JUMP JUMPDEST PUSH2 0xBE PUSH2 0x380 JUMP JUMPDEST PUSH1 0x3 ADD PUSH1 0x0 SWAP1 SLOAD SWAP1 PUSH2 0x100 EXP SWAP1 DIV PUSH20 0xFFFFFFFFFFFFFFFFFFFFFFFFFFFFFFFFFFFFFFFF AND PUSH20 0xFFFFFFFFFFFFFFFFFFFFFFFFFFFFFFFFFFFFFFFF AND CALLER PUSH20 0xFFFFFFFFFFFFFFFFFFFFFFFFFFFFFFFFFFFFFFFF AND EQ PUSH2 0x14F JUMPI PUSH1 0x40 MLOAD PUSH32 0x8C379A000000000000000000000000000000000000000000000000000000000 DUP2 MSTORE PUSH1 0x4 ADD PUSH2 0x146 SWAP1 PUSH2 0x1723 JUMP JUMPDEST PUSH1 0x40 MLOAD DUP1 SWAP2 SUB SWAP1 REVERT JUMPDEST JUMP JUMPDEST PUSH1 0x0 JUMPDEST DUP4 MLOAD DUP2 LT ISZERO PUSH2 0x335 JUMPI PUSH1 0x0 DUP5 DUP3 DUP2 MLOAD DUP2 LT PUSH2 0x172 JUMPI PUSH2 0x171 PUSH2 0x1743 JUMP JUMPDEST JUMPDEST PUSH1 0x20 MUL PUSH1 0x20 ADD ADD MLOAD PUSH1 0x20 ADD MLOAD SWAP1 POP PUSH1 0x0 PUSH1 0x2 DUP2 GT ISZERO PUSH2 0x194 JUMPI PUSH2 0x193 PUSH2 0x1772 JUMP JUMPDEST JUMPDEST DUP2 PUSH1 0x2 DUP2 GT ISZERO PUSH2 0x1A7 JUMPI PUSH2 0x1A6 PUSH2 0x1772 JUMP JUMPDEST JUMPDEST SUB PUSH2 0x1F7 JUMPI PUSH2 0x1F2 DUP6 DUP4 DUP2 MLOAD DUP2 LT PUSH2 0x1C2 JUMPI PUSH2 0x1C1 PUSH2 0x1743 JUMP JUMPDEST JUMPDEST PUSH1 0x20 MUL PUSH1 0x20 ADD ADD MLOAD PUSH1 0x0 ADD MLOAD DUP7 DUP5 DUP2 MLOAD DUP2 LT PUSH2 0x1E1 JUMPI PUSH2 0x1E0 PUSH2 0x1743 JUMP JUMPDEST JUMPDEST PUSH1 0x20 MUL PUSH1 0x20 ADD ADD MLOAD PUSH1 0x40 ADD MLOAD PUSH2 0x3AD JUMP JUMPDEST PUSH2 0x321 JUMP JUMPDEST PUSH1 0x1 PUSH1 0x2 DUP2 GT ISZERO PUSH2 0x20B JUMPI PUSH2 0x20A PUSH2 0x1772 JUMP JUMPDEST JUMPDEST DUP2 PUSH1 0x2 DUP2 GT ISZERO PUSH2 0x21E JUMPI PUSH2 0x21D PUSH2 0x1772 JUMP JUMPDEST JUMPDEST SUB PUSH2 0x26E JUMPI PUSH2 0x269 DUP6 DUP4 DUP2 MLOAD DUP2 LT PUSH2 0x239 JUMPI PUSH2 0x238 PUSH2 0x1743 JUMP JUMPDEST JUMPDEST PUSH1 0x20 MUL PUSH1 0x20 ADD ADD MLOAD PUSH1 0x0 ADD MLOAD DUP7 DUP5 DUP2 MLOAD DUP2 LT PUSH2 0x258 JUMPI PUSH2 0x257 PUSH2 0x1743 JUMP JUMPDEST JUMPDEST PUSH1 0x20 MUL PUSH1 0x20 ADD ADD MLOAD PUSH1 0x40 ADD MLOAD PUSH2 0x715 JUMP JUMPDEST PUSH2 0x320 JUMP JUMPDEST PUSH1 0x2 DUP1 DUP2 GT ISZERO PUSH2 0x281 JUMPI PUSH2 0x280 PUSH2 0x1772 JUMP JUMPDEST JUMPDEST DUP2 PUSH1 0x2 DUP2 GT ISZERO PUSH2 0x294 JUMPI PUSH2 0x293 PUSH2 0x1772 JUMP JUMPDEST JUMPDEST SUB PUSH2 0x2E4 JUMPI PUSH2 0x2DF DUP6 DUP4 DUP2 MLOAD DUP2 LT PUSH2 0x2AF JUMPI PUSH2 0x2AE PUSH2 0x1743 JUMP JUMPDEST JUMPDEST PUSH1 0x20 MUL PUSH1 0x20 ADD ADD MLOAD PUSH1 0x0 ADD MLOAD DUP7 DUP5 DUP2 MLOAD DUP2 LT PUSH2 0x2CE JUMPI PUSH2 0x2CD PUSH2 0x1743 JUMP JUMPDEST JUMPDEST PUSH1 0x20 MUL PUSH1 0x20 ADD ADD MLOAD PUSH1 0x40 ADD MLOAD PUSH2 0xA97 JUMP JUMPDEST PUSH2 0x31F JUMP JUMPDEST PUSH1 0x40 MLOAD PUSH32 0x8C379A000000000000000000000000000000000000000000000000000000000 DUP2 MSTORE PUSH1 0x4 ADD PUSH2 0x316 SWAP1 PUSH2 0x1813 JUMP JUMPDEST PUSH1 0x40 MLOAD DUP1 SWAP2 SUB SWAP1 REVERT JUMPDEST JUMPDEST JUMPDEST POP DUP1 DUP1 PUSH2 0x32D SWAP1 PUSH2 0x186C JUMP JUMPDEST SWAP2 POP POP PUSH2 0x154 JUMP JUMPDEST POP PUSH32 0x8FAA70878671CCD212D20771B795C50AF8FD3FF6CF27F4BDE57E5D4DE0AEB673 DUP4 DUP4 DUP4 PUSH1 0x40 MLOAD PUSH2 0x369 SWAP4 SWAP3 SWAP2 SWAP1 PUSH2 0x1B69 JUMP JUMPDEST PUSH1 0x40 MLOAD DUP1 SWAP2 SUB SWAP1 LOG1 PUSH2 0x37B DUP3 DUP3 PUSH2 0xF5C JUMP JUMPDEST POP POP POP JUMP JUMPDEST PUSH1 0x0 DUP1 PUSH32 0xC8FCAD8DB84D3CC18B4C41D551EA0EE66DD599CDE068D998E57D5E09332C131C SWAP1 POP DUP1 SWAP2 POP POP SWAP1 JUMP JUMPDEST PUSH1 0x0 DUP2 MLOAD GT PUSH2 0x3F1 JUMPI PUSH1 0x40 MLOAD PUSH32 0x8C379A000000000000000000000000000000000000000000000000000000000 DUP2 MSTORE PUSH1 0x4 ADD PUSH2 0x3E8 SWAP1 PUSH2 0x1C20 JUMP JUMPDEST PUSH1 0x40 MLOAD DUP1 SWAP2 SUB SWAP1 REVERT JUMPDEST PUSH1 0x0 PUSH2 0x3FB PUSH2 0x380 JUMP JUMPDEST SWAP1 POP PUSH1 0x0 DUP2 PUSH1 0x1 ADD DUP1 SLOAD SWAP1 POP SWAP1 POP PUSH1 0x0 PUSH20 0xFFFFFFFFFFFFFFFFFFFFFFFFFFFFFFFFFFFFFFFF AND DUP5 PUSH20 0xFFFFFFFFFFFFFFFFFFFFFFFFFFFFFFFFFFFFFFFF AND SUB PUSH2 0x478 JUMPI PUSH1 0x40 MLOAD PUSH32 0x8C379A000000000000000000000000000000000000000000000000000000000 DUP2 MSTORE PUSH1 0x4 ADD PUSH2 0x46F SWAP1 PUSH2 0x1CB2 JUMP JUMPDEST PUSH1 0x40 MLOAD DUP1 SWAP2 SUB SWAP1 REVERT JUMPDEST PUSH2 0x49A DUP5 PUSH1 0x40 MLOAD DUP1 PUSH1 0x60 ADD PUSH1 0x40 MSTORE DUP1 PUSH1 0x24 DUP2 MSTORE PUSH1 0x20 ADD PUSH2 0x2462 PUSH1 0x24 SWAP2 CODECOPY PUSH2 0x116E JUMP JUMPDEST PUSH1 0x0 JUMPDEST DUP4 MLOAD DUP2 LT ISZERO PUSH2 0x70E JUMPI PUSH1 0x0 DUP5 DUP3 DUP2 MLOAD DUP2 LT PUSH2 0x4BB JUMPI PUSH2 0x4BA PUSH2 0x1743 JUMP JUMPDEST JUMPDEST PUSH1 0x20 MUL PUSH1 0x20 ADD ADD MLOAD SWAP1 POP PUSH1 0x0 DUP5 PUSH1 0x0 ADD PUSH1 0x0 DUP4 PUSH28 0xFFFFFFFFFFFFFFFFFFFFFFFFFFFFFFFFFFFFFFFFFFFFFFFFFFFFFFFF NOT AND PUSH28 0xFFFFFFFFFFFFFFFFFFFFFFFFFFFFFFFFFFFFFFFFFFFFFFFFFFFFFFFF NOT AND DUP2 MSTORE PUSH1 0x20 ADD SWAP1 DUP2 MSTORE PUSH1 0x20 ADD PUSH1 0x0 KECCAK256 PUSH1 0x0 ADD PUSH1 0x0 SWAP1 SLOAD SWAP1 PUSH2 0x100 EXP SWAP1 DIV PUSH20 0xFFFFFFFFFFFFFFFFFFFFFFFFFFFFFFFFFFFFFFFF AND SWAP1 POP PUSH1 0x0 PUSH20 0xFFFFFFFFFFFFFFFFFFFFFFFFFFFFFFFFFFFFFFFF AND DUP2 PUSH20 0xFFFFFFFFFFFFFFFFFFFFFFFFFFFFFFFFFFFFFFFF AND EQ PUSH2 0x5AF JUMPI PUSH1 0x40 MLOAD PUSH32 0x8C379A000000000000000000000000000000000000000000000000000000000 DUP2 MSTORE PUSH1 0x4 ADD PUSH2 0x5A6 SWAP1 PUSH2 0x1D44 JUMP JUMPDEST PUSH1 0x40 MLOAD DUP1 SWAP2 SUB SWAP1 REVERT JUMPDEST PUSH1 0x40 MLOAD DUP1 PUSH1 0x40 ADD PUSH1 0x40 MSTORE DUP1 DUP9 PUSH20 0xFFFFFFFFFFFFFFFFFFFFFFFFFFFFFFFFFFFFFFFF AND DUP2 MSTORE PUSH1 0x20 ADD DUP6 PUSH2 0xFFFF AND DUP2 MSTORE POP DUP6 PUSH1 0x0 ADD PUSH1 0x0 DUP5 PUSH28 0xFFFFFFFFFFFFFFFFFFFFFFFFFFFFFFFFFFFFFFFFFFFFFFFFFFFFFFFF NOT AND PUSH28 0xFFFFFFFFFFFFFFFFFFFFFFFFFFFFFFFFFFFFFFFFFFFFFFFFFFFFFFFF NOT AND DUP2 MSTORE PUSH1 0x20 ADD SWAP1 DUP2 MSTORE PUSH1 0x20 ADD PUSH1 0x0 KECCAK256 PUSH1 0x0 DUP3 ADD MLOAD DUP2 PUSH1 0x0 ADD PUSH1 0x0 PUSH2 0x100 EXP DUP2 SLOAD DUP2 PUSH20 0xFFFFFFFFFFFFFFFFFFFFFFFFFFFFFFFFFFFFFFFF MUL NOT AND SWAP1 DUP4 PUSH20 0xFFFFFFFFFFFFFFFFFFFFFFFFFFFFFFFFFFFFFFFF AND MUL OR SWAP1 SSTORE POP PUSH1 0x20 DUP3 ADD MLOAD DUP2 PUSH1 0x0 ADD PUSH1 0x14 PUSH2 0x100 EXP DUP2 SLOAD DUP2 PUSH2 0xFFFF MUL NOT AND SWAP1 DUP4 PUSH2 0xFFFF AND MUL OR SWAP1 SSTORE POP SWAP1 POP POP DUP5 PUSH1 0x1 ADD DUP3 SWAP1 DUP1 PUSH1 0x1 DUP2 SLOAD ADD DUP1 DUP3 SSTORE DUP1 SWAP2 POP POP PUSH1 0x1 SWAP1 SUB SWAP1 PUSH1 0x0 MSTORE PUSH1 0x20 PUSH1 0x0 KECCAK256 SWAP1 PUSH1 0x8 SWAP2 DUP3 DUP3 DIV ADD SWAP2 SWAP1 MOD PUSH1 0x4 MUL SWAP1 SWAP2 SWAP1 SWAP2 SWAP1 SWAP2 PUSH2 0x100 EXP DUP2 SLOAD DUP2 PUSH4 0xFFFFFFFF MUL NOT AND SWAP1 DUP4 PUSH1 0xE0 SHR MUL OR SWAP1 SSTORE POP DUP4 DUP1 PUSH2 0x6F6 SWAP1 PUSH2 0x1D72 JUMP JUMPDEST SWAP5 POP POP POP POP DUP1 DUP1 PUSH2 0x706 SWAP1 PUSH2 0x186C JUMP JUMPDEST SWAP2 POP POP PUSH2 0x49D JUMP JUMPDEST POP POP POP POP POP JUMP JUMPDEST PUSH1 0x0 DUP2 MLOAD GT PUSH2 0x759 JUMPI PUSH1 0x40 MLOAD PUSH32 0x8C379A000000000000000000000000000000000000000000000000000000000 DUP2 MSTORE PUSH1 0x4 ADD PUSH2 0x750 SWAP1 PUSH2 0x1C20 JUMP JUMPDEST PUSH1 0x40 MLOAD DUP1 SWAP2 SUB SWAP1 REVERT JUMPDEST PUSH1 0x0 PUSH2 0x763 PUSH2 0x380 JUMP JUMPDEST SWAP1 POP PUSH1 0x0 PUSH20 0xFFFFFFFFFFFFFFFFFFFFFFFFFFFFFFFFFFFFFFFF AND DUP4 PUSH20 0xFFFFFFFFFFFFFFFFFFFFFFFFFFFFFFFFFFFFFFFF AND SUB PUSH2 0x7D4 JUMPI PUSH1 0x40 MLOAD PUSH32 0x8C379A000000000000000000000000000000000000000000000000000000000 DUP2 MSTORE PUSH1 0x4 ADD PUSH2 0x7CB SWAP1 PUSH2 0x1E0E JUMP JUMPDEST PUSH1 0x40 MLOAD DUP1 SWAP2 SUB SWAP1 REVERT JUMPDEST PUSH2 0x7F6 DUP4 PUSH1 0x40 MLOAD DUP1 PUSH1 0x60 ADD PUSH1 0x40 MSTORE DUP1 PUSH1 0x28 DUP2 MSTORE PUSH1 0x20 ADD PUSH2 0x24AE PUSH1 0x28 SWAP2 CODECOPY PUSH2 0x116E JUMP JUMPDEST PUSH1 0x0 JUMPDEST DUP3 MLOAD DUP2 LT ISZERO PUSH2 0xA91 JUMPI PUSH1 0x0 DUP4 DUP3 DUP2 MLOAD DUP2 LT PUSH2 0x817 JUMPI PUSH2 0x816 PUSH2 0x1743 JUMP JUMPDEST JUMPDEST PUSH1 0x20 MUL PUSH1 0x20 ADD ADD MLOAD SWAP1 POP PUSH1 0x0 DUP4 PUSH1 0x0 ADD PUSH1 0x0 DUP4 PUSH28 0xFFFFFFFFFFFFFFFFFFFFFFFFFFFFFFFFFFFFFFFFFFFFFFFFFFFFFFFF NOT AND PUSH28 0xFFFFFFFFFFFFFFFFFFFFFFFFFFFFFFFFFFFFFFFFFFFFFFFFFFFFFFFF NOT AND DUP2 MSTORE PUSH1 0x20 ADD SWAP1 DUP2 MSTORE PUSH1 0x20 ADD PUSH1 0x0 KECCAK256 PUSH1 0x0 ADD PUSH1 0x0 SWAP1 SLOAD SWAP1 PUSH2 0x100 EXP SWAP1 DIV PUSH20 0xFFFFFFFFFFFFFFFFFFFFFFFFFFFFFFFFFFFFFFFF AND SWAP1 POP ADDRESS PUSH20 0xFFFFFFFFFFFFFFFFFFFFFFFFFFFFFFFFFFFFFFFF AND DUP2 PUSH20 0xFFFFFFFFFFFFFFFFFFFFFFFFFFFFFFFFFFFFFFFF AND SUB PUSH2 0x90A JUMPI PUSH1 0x40 MLOAD PUSH32 0x8C379A000000000000000000000000000000000000000000000000000000000 DUP2 MSTORE PUSH1 0x4 ADD PUSH2 0x901 SWAP1 PUSH2 0x1EA0 JUMP JUMPDEST PUSH1 0x40 MLOAD DUP1 SWAP2 SUB SWAP1 REVERT JUMPDEST DUP6 PUSH20 0xFFFFFFFFFFFFFFFFFFFFFFFFFFFFFFFFFFFFFFFF AND DUP2 PUSH20 0xFFFFFFFFFFFFFFFFFFFFFFFFFFFFFFFFFFFFFFFF AND SUB PUSH2 0x978 JUMPI PUSH1 0x40 MLOAD PUSH32 0x8C379A000000000000000000000000000000000000000000000000000000000 DUP2 MSTORE PUSH1 0x4 ADD PUSH2 0x96F SWAP1 PUSH2 0x1F32 JUMP JUMPDEST PUSH1 0x40 MLOAD DUP1 SWAP2 SUB SWAP1 REVERT JUMPDEST PUSH1 0x0 PUSH20 0xFFFFFFFFFFFFFFFFFFFFFFFFFFFFFFFFFFFFFFFF AND DUP2 PUSH20 0xFFFFFFFFFFFFFFFFFFFFFFFFFFFFFFFFFFFFFFFF AND SUB PUSH2 0x9E7 JUMPI PUSH1 0x40 MLOAD PUSH32 0x8C379A000000000000000000000000000000000000000000000000000000000 DUP2 MSTORE PUSH1 0x4 ADD PUSH2 0x9DE SWAP1 PUSH2 0x1FC4 JUMP JUMPDEST PUSH1 0x40 MLOAD DUP1 SWAP2 SUB SWAP1 REVERT JUMPDEST DUP6 DUP5 PUSH1 0x0 ADD PUSH1 0x0 DUP5 PUSH28 0xFFFFFFFFFFFFFFFFFFFFFFFFFFFFFFFFFFFFFFFFFFFFFFFFFFFFFFFF NOT AND PUSH28 0xFFFFFFFFFFFFFFFFFFFFFFFFFFFFFFFFFFFFFFFFFFFFFFFFFFFFFFFF NOT AND DUP2 MSTORE PUSH1 0x20 ADD SWAP1 DUP2 MSTORE PUSH1 0x20 ADD PUSH1 0x0 KECCAK256 PUSH1 0x0 ADD PUSH1 0x0 PUSH2 0x100 EXP DUP2 SLOAD DUP2 PUSH20 0xFFFFFFFFFFFFFFFFFFFFFFFFFFFFFFFFFFFFFFFF MUL NOT AND SWAP1 DUP4 PUSH20 0xFFFFFFFFFFFFFFFFFFFFFFFFFFFFFFFFFFFFFFFF AND MUL OR SWAP1 SSTORE POP POP POP DUP1 DUP1 PUSH2 0xA89 SWAP1 PUSH2 0x186C JUMP JUMPDEST SWAP2 POP POP PUSH2 0x7F9 JUMP JUMPDEST POP POP POP POP JUMP JUMPDEST PUSH1 0x0 DUP2 MLOAD GT PUSH2 0xADB JUMPI PUSH1 0x40 MLOAD PUSH32 0x8C379A000000000000000000000000000000000000000000000000000000000 DUP2 MSTORE PUSH1 0x4 ADD PUSH2 0xAD2 SWAP1 PUSH2 0x1C20 JUMP JUMPDEST PUSH1 0x40 MLOAD DUP1 SWAP2 SUB SWAP1 REVERT JUMPDEST PUSH1 0x0 PUSH2 0xAE5 PUSH2 0x380 JUMP JUMPDEST SWAP1 POP PUSH1 0x0 DUP2 PUSH1 0x1 ADD DUP1 SLOAD SWAP1 POP SWAP1 POP PUSH1 0x0 PUSH20 0xFFFFFFFFFFFFFFFFFFFFFFFFFFFFFFFFFFFFFFFF AND DUP5 PUSH20 0xFFFFFFFFFFFFFFFFFFFFFFFFFFFFFFFFFFFFFFFF AND EQ PUSH2 0xB62 JUMPI PUSH1 0x40 MLOAD PUSH32 0x8C379A000000000000000000000000000000000000000000000000000000000 DUP2 MSTORE PUSH1 0x4 ADD PUSH2 0xB59 SWAP1 PUSH2 0x2056 JUMP JUMPDEST PUSH1 0x40 MLOAD DUP1 SWAP2 SUB SWAP1 REVERT JUMPDEST PUSH1 0x0 JUMPDEST DUP4 MLOAD DUP2 LT ISZERO PUSH2 0xF55 JUMPI PUSH1 0x0 DUP5 DUP3 DUP2 MLOAD DUP2 LT PUSH2 0xB83 JUMPI PUSH2 0xB82 PUSH2 0x1743 JUMP JUMPDEST JUMPDEST PUSH1 0x20 MUL PUSH1 0x20 ADD ADD MLOAD SWAP1 POP PUSH1 0x0 DUP5 PUSH1 0x0 ADD PUSH1 0x0 DUP4 PUSH28 0xFFFFFFFFFFFFFFFFFFFFFFFFFFFFFFFFFFFFFFFFFFFFFFFFFFFFFFFF NOT AND PUSH28 0xFFFFFFFFFFFFFFFFFFFFFFFFFFFFFFFFFFFFFFFFFFFFFFFFFFFFFFFF NOT AND DUP2 MSTORE PUSH1 0x20 ADD SWAP1 DUP2 MSTORE PUSH1 0x20 ADD PUSH1 0x0 KECCAK256 PUSH1 0x40 MLOAD DUP1 PUSH1 0x40 ADD PUSH1 0x40 MSTORE SWAP1 DUP2 PUSH1 0x0 DUP3 ADD PUSH1 0x0 SWAP1 SLOAD SWAP1 PUSH2 0x100 EXP SWAP1 DIV PUSH20 0xFFFFFFFFFFFFFFFFFFFFFFFFFFFFFFFFFFFFFFFF AND PUSH20 0xFFFFFFFFFFFFFFFFFFFFFFFFFFFFFFFFFFFFFFFF AND PUSH20 0xFFFFFFFFFFFFFFFFFFFFFFFFFFFFFFFFFFFFFFFF AND DUP2 MSTORE PUSH1 0x20 ADD PUSH1 0x0 DUP3 ADD PUSH1 0x14 SWAP1 SLOAD SWAP1 PUSH2 0x100 EXP SWAP1 DIV PUSH2 0xFFFF AND PUSH2 0xFFFF AND PUSH2 0xFFFF AND DUP2 MSTORE POP POP SWAP1 POP PUSH1 0x0 PUSH20 0xFFFFFFFFFFFFFFFFFFFFFFFFFFFFFFFFFFFFFFFF AND DUP2 PUSH1 0x0 ADD MLOAD PUSH20 0xFFFFFFFFFFFFFFFFFFFFFFFFFFFFFFFFFFFFFFFF AND SUB PUSH2 0xCD8 JUMPI PUSH1 0x40 MLOAD PUSH32 0x8C379A000000000000000000000000000000000000000000000000000000000 DUP2 MSTORE PUSH1 0x4 ADD PUSH2 0xCCF SWAP1 PUSH2 0x20E8 JUMP JUMPDEST PUSH1 0x40 MLOAD DUP1 SWAP2 SUB SWAP1 REVERT JUMPDEST ADDRESS PUSH20 0xFFFFFFFFFFFFFFFFFFFFFFFFFFFFFFFFFFFFFFFF AND DUP2 PUSH1 0x0 ADD MLOAD PUSH20 0xFFFFFFFFFFFFFFFFFFFFFFFFFFFFFFFFFFFFFFFF AND SUB PUSH2 0xD4A JUMPI PUSH1 0x40 MLOAD PUSH32 0x8C379A000000000000000000000000000000000000000000000000000000000 DUP2 MSTORE PUSH1 0x4 ADD PUSH2 0xD41 SWAP1 PUSH2 0x217A JUMP JUMPDEST PUSH1 0x40 MLOAD DUP1 SWAP2 SUB SWAP1 REVERT JUMPDEST DUP4 DUP1 PUSH2 0xD55 SWAP1 PUSH2 0x219A JUMP JUMPDEST SWAP5 POP POP DUP4 DUP2 PUSH1 0x20 ADD MLOAD PUSH2 0xFFFF AND EQ PUSH2 0xE6A JUMPI PUSH1 0x0 DUP6 PUSH1 0x1 ADD DUP6 DUP2 SLOAD DUP2 LT PUSH2 0xD7F JUMPI PUSH2 0xD7E PUSH2 0x1743 JUMP JUMPDEST JUMPDEST SWAP1 PUSH1 0x0 MSTORE PUSH1 0x20 PUSH1 0x0 KECCAK256 SWAP1 PUSH1 0x8 SWAP2 DUP3 DUP3 DIV ADD SWAP2 SWAP1 MOD PUSH1 0x4 MUL SWAP1 SLOAD SWAP1 PUSH2 0x100 EXP SWAP1 DIV PUSH1 0xE0 SHL SWAP1 POP DUP1 DUP7 PUSH1 0x1 ADD DUP4 PUSH1 0x20 ADD MLOAD PUSH2 0xFFFF AND DUP2 SLOAD DUP2 LT PUSH2 0xDC3 JUMPI PUSH2 0xDC2 PUSH2 0x1743 JUMP JUMPDEST JUMPDEST SWAP1 PUSH1 0x0 MSTORE PUSH1 0x20 PUSH1 0x0 KECCAK256 SWAP1 PUSH1 0x8 SWAP2 DUP3 DUP3 DIV ADD SWAP2 SWAP1 MOD PUSH1 0x4 MUL PUSH2 0x100 EXP DUP2 SLOAD DUP2 PUSH4 0xFFFFFFFF MUL NOT AND SWAP1 DUP4 PUSH1 0xE0 SHR MUL OR SWAP1 SSTORE POP DUP2 PUSH1 0x20 ADD MLOAD DUP7 PUSH1 0x0 ADD PUSH1 0x0 DUP4 PUSH28 0xFFFFFFFFFFFFFFFFFFFFFFFFFFFFFFFFFFFFFFFFFFFFFFFFFFFFFFFF NOT AND PUSH28 0xFFFFFFFFFFFFFFFFFFFFFFFFFFFFFFFFFFFFFFFFFFFFFFFFFFFFFFFF NOT AND DUP2 MSTORE PUSH1 0x20 ADD SWAP1 DUP2 MSTORE PUSH1 0x20 ADD PUSH1 0x0 KECCAK256 PUSH1 0x0 ADD PUSH1 0x14 PUSH2 0x100 EXP DUP2 SLOAD DUP2 PUSH2 0xFFFF MUL NOT AND SWAP1 DUP4 PUSH2 0xFFFF AND MUL OR SWAP1 SSTORE POP POP JUMPDEST DUP5 PUSH1 0x1 ADD DUP1 SLOAD DUP1 PUSH2 0xE7E JUMPI PUSH2 0xE7D PUSH2 0x21C3 JUMP JUMPDEST JUMPDEST PUSH1 0x1 SWAP1 SUB DUP2 DUP2 SWAP1 PUSH1 0x0 MSTORE PUSH1 0x20 PUSH1 0x0 KECCAK256 SWAP1 PUSH1 0x8 SWAP2 DUP3 DUP3 DIV ADD SWAP2 SWAP1 MOD PUSH1 0x4 MUL PUSH2 0x100 EXP DUP2 SLOAD SWAP1 PUSH4 0xFFFFFFFF MUL NOT AND SWAP1 SSTORE SWAP1 SSTORE DUP5 PUSH1 0x0 ADD PUSH1 0x0 DUP4 PUSH28 0xFFFFFFFFFFFFFFFFFFFFFFFFFFFFFFFFFFFFFFFFFFFFFFFFFFFFFFFF NOT AND PUSH28 0xFFFFFFFFFFFFFFFFFFFFFFFFFFFFFFFFFFFFFFFFFFFFFFFFFFFFFFFF NOT AND DUP2 MSTORE PUSH1 0x20 ADD SWAP1 DUP2 MSTORE PUSH1 0x20 ADD PUSH1 0x0 KECCAK256 PUSH1 0x0 DUP1 DUP3 ADD PUSH1 0x0 PUSH2 0x100 EXP DUP2 SLOAD SWAP1 PUSH20 0xFFFFFFFFFFFFFFFFFFFFFFFFFFFFFFFFFFFFFFFF MUL NOT AND SWAP1 SSTORE PUSH1 0x0 DUP3 ADD PUSH1 0x14 PUSH2 0x100 EXP DUP2 SLOAD SWAP1 PUSH2 0xFFFF MUL NOT AND SWAP1 SSTORE POP POP POP POP DUP1 DUP1 PUSH2 0xF4D SWAP1 PUSH2 0x186C JUMP JUMPDEST SWAP2 POP POP PUSH2 0xB65 JUMP JUMPDEST POP POP POP POP POP JUMP JUMPDEST PUSH1 0x0 PUSH20 0xFFFFFFFFFFFFFFFFFFFFFFFFFFFFFFFFFFFFFFFF AND DUP3 PUSH20 0xFFFFFFFFFFFFFFFFFFFFFFFFFFFFFFFFFFFFFFFF AND SUB PUSH2 0xFD9 JUMPI PUSH1 0x0 DUP2 MLOAD EQ PUSH2 0xFD4 JUMPI PUSH1 0x40 MLOAD PUSH32 0x8C379A000000000000000000000000000000000000000000000000000000000 DUP2 MSTORE PUSH1 0x4 ADD PUSH2 0xFCB SWAP1 PUSH2 0x2264 JUMP JUMPDEST PUSH1 0x40 MLOAD DUP1 SWAP2 SUB SWAP1 REVERT JUMPDEST PUSH2 0x116A JUMP JUMPDEST PUSH1 0x0 DUP2 MLOAD GT PUSH2 0x101D JUMPI PUSH1 0x40 MLOAD PUSH32 0x8C379A000000000000000000000000000000000000000000000000000000000 DUP2 MSTORE PUSH1 0x4 ADD PUSH2 0x1014 SWAP1 PUSH2 0x22F6 JUMP JUMPDEST PUSH1 0x40 MLOAD DUP1 SWAP2 SUB SWAP1 REVERT JUMPDEST ADDRESS PUSH20 0xFFFFFFFFFFFFFFFFFFFFFFFFFFFFFFFFFFFFFFFF AND DUP3 PUSH20 0xFFFFFFFFFFFFFFFFFFFFFFFFFFFFFFFFFFFFFFFF AND EQ PUSH2 0x1073 JUMPI PUSH2 0x1072 DUP3 PUSH1 0x40 MLOAD DUP1 PUSH1 0x60 ADD PUSH1 0x40 MSTORE DUP1 PUSH1 0x28 DUP2 MSTORE PUSH1 0x20 ADD PUSH2 0x2486 PUSH1 0x28 SWAP2 CODECOPY PUSH2 0x116E JUMP JUMPDEST JUMPDEST PUSH1 0x0 DUP1 DUP4 PUSH20 0xFFFFFFFFFFFFFFFFFFFFFFFFFFFFFFFFFFFFFFFF AND DUP4 PUSH1 0x40 MLOAD PUSH2 0x109B SWAP2 SWAP1 PUSH2 0x2352 JUMP JUMPDEST PUSH1 0x0 PUSH1 0x40 MLOAD DUP1 DUP4 SUB DUP2 DUP6 GAS DELEGATECALL SWAP2 POP POP RETURNDATASIZE DUP1 PUSH1 0x0 DUP2 EQ PUSH2 0x10D6 JUMPI PUSH1 0x40 MLOAD SWAP2 POP PUSH1 0x1F NOT PUSH1 0x3F RETURNDATASIZE ADD AND DUP3 ADD PUSH1 0x40 MSTORE RETURNDATASIZE DUP3 MSTORE RETURNDATASIZE PUSH1 0x0 PUSH1 0x20 DUP5 ADD RETURNDATACOPY PUSH2 0x10DB JUMP JUMPDEST PUSH1 0x60 SWAP2 POP JUMPDEST POP SWAP2 POP SWAP2 POP DUP2 PUSH2 0x1167 JUMPI PUSH1 0x0 DUP2 MLOAD GT ISZERO PUSH2 0x112C JUMPI DUP1 PUSH1 0x40 MLOAD PUSH32 0x8C379A000000000000000000000000000000000000000000000000000000000 DUP2 MSTORE PUSH1 0x4 ADD PUSH2 0x1123 SWAP2 SWAP1 PUSH2 0x23AD JUMP JUMPDEST PUSH1 0x40 MLOAD DUP1 SWAP2 SUB SWAP1 REVERT JUMPDEST PUSH1 0x40 MLOAD PUSH32 0x8C379A000000000000000000000000000000000000000000000000000000000 DUP2 MSTORE PUSH1 0x4 ADD PUSH2 0x115E SWAP1 PUSH2 0x2441 JUMP JUMPDEST PUSH1 0x40 MLOAD DUP1 SWAP2 SUB SWAP1 REVERT JUMPDEST POP POP JUMPDEST POP POP JUMP JUMPDEST PUSH1 0x0 DUP3 EXTCODESIZE SWAP1 POP PUSH1 0x0 DUP2 GT DUP3 SWAP1 PUSH2 0x11BA JUMPI PUSH1 0x40 MLOAD PUSH32 0x8C379A000000000000000000000000000000000000000000000000000000000 DUP2 MSTORE PUSH1 0x4 ADD PUSH2 0x11B1 SWAP2 SWAP1 PUSH2 0x23AD JUMP JUMPDEST PUSH1 0x40 MLOAD DUP1 SWAP2 SUB SWAP1 REVERT JUMPDEST POP POP POP POP JUMP JUMPDEST PUSH1 0x0 PUSH1 0x40 MLOAD SWAP1 POP SWAP1 JUMP JUMPDEST PUSH1 0x0 DUP1 REVERT JUMPDEST PUSH1 0x0 DUP1 REVERT JUMPDEST PUSH1 0x0 DUP1 REVERT JUMPDEST PUSH1 0x0 DUP1 REVERT JUMPDEST PUSH1 0x0 DUP1 REVERT JUMPDEST PUSH1 0x0 DUP1 DUP4 PUSH1 0x1F DUP5 ADD SLT PUSH2 0x11F9 JUMPI PUSH2 0x11F8 PUSH2 0x11D4 JUMP JUMPDEST JUMPDEST DUP3 CALLDATALOAD SWAP1 POP PUSH8 0xFFFFFFFFFFFFFFFF DUP2 GT ISZERO PUSH2 0x1216 JUMPI PUSH2 0x1215 PUSH2 0x11D9 JUMP JUMPDEST JUMPDEST PUSH1 0x20 DUP4 ADD SWAP2 POP DUP4 PUSH1 0x20 DUP3 MUL DUP4 ADD GT ISZERO PUSH2 0x1232 JUMPI PUSH2 0x1231 PUSH2 0x11DE JUMP JUMPDEST JUMPDEST SWAP3 POP SWAP3 SWAP1 POP JUMP JUMPDEST PUSH1 0x0 PUSH20 0xFFFFFFFFFFFFFFFFFFFFFFFFFFFFFFFFFFFFFFFF DUP3 AND SWAP1 POP SWAP2 SWAP1 POP JUMP JUMPDEST PUSH1 0x0 PUSH2 0x1264 DUP3 PUSH2 0x1239 JUMP JUMPDEST SWAP1 POP SWAP2 SWAP1 POP JUMP JUMPDEST PUSH2 0x1274 DUP2 PUSH2 0x1259 JUMP JUMPDEST DUP2 EQ PUSH2 0x127F JUMPI PUSH1 0x0 DUP1 REVERT JUMPDEST POP JUMP JUMPDEST PUSH1 0x0 DUP2 CALLDATALOAD SWAP1 POP PUSH2 0x1291 DUP2 PUSH2 0x126B JUMP JUMPDEST SWAP3 SWAP2 POP POP JUMP JUMPDEST PUSH1 0x0 DUP1 DUP4 PUSH1 0x1F DUP5 ADD SLT PUSH2 0x12AD JUMPI PUSH2 0x12AC PUSH2 0x11D4 JUMP JUMPDEST JUMPDEST DUP3 CALLDATALOAD SWAP1 POP PUSH8 0xFFFFFFFFFFFFFFFF DUP2 GT ISZERO PUSH2 0x12CA JUMPI PUSH2 0x12C9 PUSH2 0x11D9 JUMP JUMPDEST JUMPDEST PUSH1 0x20 DUP4 ADD SWAP2 POP DUP4 PUSH1 0x1 DUP3 MUL DUP4 ADD GT ISZERO PUSH2 0x12E6 JUMPI PUSH2 0x12E5 PUSH2 0x11DE JUMP JUMPDEST JUMPDEST SWAP3 POP SWAP3 SWAP1 POP JUMP JUMPDEST PUSH1 0x0 DUP1 PUSH1 0x0 DUP1 PUSH1 0x0 PUSH1 0x60 DUP7 DUP9 SUB SLT ISZERO PUSH2 0x1309 JUMPI PUSH2 0x1308 PUSH2 0x11CA JUMP JUMPDEST JUMPDEST PUSH1 0x0 DUP7 ADD CALLDATALOAD PUSH8 0xFFFFFFFFFFFFFFFF DUP2 GT ISZERO PUSH2 0x1327 JUMPI PUSH2 0x1326 PUSH2 0x11CF JUMP JUMPDEST JUMPDEST PUSH2 0x1333 DUP9 DUP3 DUP10 ADD PUSH2 0x11E3 JUMP JUMPDEST SWAP6 POP SWAP6 POP POP PUSH1 0x20 PUSH2 0x1346 DUP9 DUP3 DUP10 ADD PUSH2 0x1282 JUMP JUMPDEST SWAP4 POP POP PUSH1 0x40 DUP7 ADD CALLDATALOAD PUSH8 0xFFFFFFFFFFFFFFFF DUP2 GT ISZERO PUSH2 0x1367 JUMPI PUSH2 0x1366 PUSH2 0x11CF JUMP JUMPDEST JUMPDEST PUSH2 0x1373 DUP9 DUP3 DUP10 ADD PUSH2 0x1297 JUMP JUMPDEST SWAP3 POP SWAP3 POP POP SWAP3 SWAP6 POP SWAP3 SWAP6 SWAP1 SWAP4 POP JUMP JUMPDEST PUSH1 0x0 PUSH1 0x1F NOT PUSH1 0x1F DUP4 ADD AND SWAP1 POP SWAP2 SWAP1 POP JUMP JUMPDEST PUSH32 0x4E487B7100000000000000000000000000000000000000000000000000000000 PUSH1 0x0 MSTORE PUSH1 0x41 PUSH1 0x4 MSTORE PUSH1 0x24 PUSH1 0x0 REVERT JUMPDEST PUSH2 0x13CB DUP3 PUSH2 0x1382 JUMP JUMPDEST DUP2 ADD DUP2 DUP2 LT PUSH8 0xFFFFFFFFFFFFFFFF DUP3 GT OR ISZERO PUSH2 0x13EA JUMPI PUSH2 0x13E9 PUSH2 0x1393 JUMP JUMPDEST JUMPDEST DUP1 PUSH1 0x40 MSTORE POP POP POP JUMP JUMPDEST PUSH1 0x0 PUSH2 0x13FD PUSH2 0x11C0 JUMP JUMPDEST SWAP1 POP PUSH2 0x1409 DUP3 DUP3 PUSH2 0x13C2 JUMP JUMPDEST SWAP2 SWAP1 POP JUMP JUMPDEST PUSH1 0x0 PUSH8 0xFFFFFFFFFFFFFFFF DUP3 GT ISZERO PUSH2 0x1429 JUMPI PUSH2 0x1428 PUSH2 0x1393 JUMP JUMPDEST JUMPDEST PUSH1 0x20 DUP3 MUL SWAP1 POP PUSH1 0x20 DUP2 ADD SWAP1 POP SWAP2 SWAP1 POP JUMP JUMPDEST PUSH1 0x0 DUP1 REVERT JUMPDEST PUSH1 0x0 DUP1 REVERT JUMPDEST PUSH1 0x3 DUP2 LT PUSH2 0x1451 JUMPI PUSH1 0x0 DUP1 REVERT JUMPDEST POP JUMP JUMPDEST PUSH1 0x0 DUP2 CALLDATALOAD SWAP1 POP PUSH2 0x1463 DUP2 PUSH2 0x1444 JUMP JUMPDEST SWAP3 SWAP2 POP POP JUMP JUMPDEST PUSH1 0x0 PUSH8 0xFFFFFFFFFFFFFFFF DUP3 GT ISZERO PUSH2 0x1484 JUMPI PUSH2 0x1483 PUSH2 0x1393 JUMP JUMPDEST JUMPDEST PUSH1 0x20 DUP3 MUL SWAP1 POP PUSH1 0x20 DUP2 ADD SWAP1 POP SWAP2 SWAP1 POP JUMP JUMPDEST PUSH1 0x0 PUSH32 0xFFFFFFFF00000000000000000000000000000000000000000000000000000000 DUP3 AND SWAP1 POP SWAP2 SWAP1 POP JUMP JUMPDEST PUSH2 0x14CA DUP2 PUSH2 0x1495 JUMP JUMPDEST DUP2 EQ PUSH2 0x14D5 JUMPI PUSH1 0x0 DUP1 REVERT JUMPDEST POP JUMP JUMPDEST PUSH1 0x0 DUP2 CALLDATALOAD SWAP1 POP PUSH2 0x14E7 DUP2 PUSH2 0x14C1 JUMP JUMPDEST SWAP3 SWAP2 POP POP JUMP JUMPDEST PUSH1 0x0 PUSH2 0x1500 PUSH2 0x14FB DUP5 PUSH2 0x1469 JUMP JUMPDEST PUSH2 0x13F3 JUMP JUMPDEST SWAP1 POP DUP1 DUP4 DUP3 MSTORE PUSH1 0x20 DUP3 ADD SWAP1 POP PUSH1 0x20 DUP5 MUL DUP4 ADD DUP6 DUP2 GT ISZERO PUSH2 0x1523 JUMPI PUSH2 0x1522 PUSH2 0x11DE JUMP JUMPDEST JUMPDEST DUP4 JUMPDEST DUP2 DUP2 LT ISZERO PUSH2 0x154C JUMPI DUP1 PUSH2 0x1538 DUP9 DUP3 PUSH2 0x14D8 JUMP JUMPDEST DUP5 MSTORE PUSH1 0x20 DUP5 ADD SWAP4 POP POP PUSH1 0x20 DUP2 ADD SWAP1 POP PUSH2 0x1525 JUMP JUMPDEST POP POP POP SWAP4 SWAP3 POP POP POP JUMP JUMPDEST PUSH1 0x0 DUP3 PUSH1 0x1F DUP4 ADD SLT PUSH2 0x156B JUMPI PUSH2 0x156A PUSH2 0x11D4 JUMP JUMPDEST JUMPDEST DUP2 CALLDATALOAD PUSH2 0x157B DUP5 DUP3 PUSH1 0x20 DUP7 ADD PUSH2 0x14ED JUMP JUMPDEST SWAP2 POP POP SWAP3 SWAP2 POP POP JUMP JUMPDEST PUSH1 0x0 PUSH1 0x60 DUP3 DUP5 SUB SLT ISZERO PUSH2 0x159A JUMPI PUSH2 0x1599 PUSH2 0x143A JUMP JUMPDEST JUMPDEST PUSH2 0x15A4 PUSH1 0x60 PUSH2 0x13F3 JUMP JUMPDEST SWAP1 POP PUSH1 0x0 PUSH2 0x15B4 DUP5 DUP3 DUP6 ADD PUSH2 0x1282 JUMP JUMPDEST PUSH1 0x0 DUP4 ADD MSTORE POP PUSH1 0x20 PUSH2 0x15C8 DUP5 DUP3 DUP6 ADD PUSH2 0x1454 JUMP JUMPDEST PUSH1 0x20 DUP4 ADD MSTORE POP PUSH1 0x40 DUP3 ADD CALLDATALOAD PUSH8 0xFFFFFFFFFFFFFFFF DUP2 GT ISZERO PUSH2 0x15EC JUMPI PUSH2 0x15EB PUSH2 0x143F JUMP JUMPDEST JUMPDEST PUSH2 0x15F8 DUP5 DUP3 DUP6 ADD PUSH2 0x1556 JUMP JUMPDEST PUSH1 0x40 DUP4 ADD MSTORE POP SWAP3 SWAP2 POP POP JUMP JUMPDEST PUSH1 0x0 PUSH2 0x1617 PUSH2 0x1612 DUP5 PUSH2 0x140E JUMP JUMPDEST PUSH2 0x13F3 JUMP JUMPDEST SWAP1 POP DUP1 DUP4 DUP3 MSTORE PUSH1 0x20 DUP3 ADD SWAP1 POP PUSH1 0x20 DUP5 MUL DUP4 ADD DUP6 DUP2 GT ISZERO PUSH2 0x163A JUMPI PUSH2 0x1639 PUSH2 0x11DE JUMP JUMPDEST JUMPDEST DUP4 JUMPDEST DUP2 DUP2 LT ISZERO PUSH2 0x1681 JUMPI DUP1 CALLDATALOAD PUSH8 0xFFFFFFFFFFFFFFFF DUP2 GT ISZERO PUSH2 0x165F JUMPI PUSH2 0x165E PUSH2 0x11D4 JUMP JUMPDEST JUMPDEST DUP1 DUP7 ADD PUSH2 0x166C DUP10 DUP3 PUSH2 0x1584 JUMP JUMPDEST DUP6 MSTORE PUSH1 0x20 DUP6 ADD SWAP5 POP POP POP PUSH1 0x20 DUP2 ADD SWAP1 POP PUSH2 0x163C JUMP JUMPDEST POP POP POP SWAP4 SWAP3 POP POP POP JUMP JUMPDEST PUSH1 0x0 PUSH2 0x1698 CALLDATASIZE DUP5 DUP5 PUSH2 0x1604 JUMP JUMPDEST SWAP1 POP SWAP3 SWAP2 POP POP JUMP JUMPDEST PUSH1 0x0 DUP3 DUP3 MSTORE PUSH1 0x20 DUP3 ADD SWAP1 POP SWAP3 SWAP2 POP POP JUMP JUMPDEST PUSH32 0x4C69624469616D6F6E643A204D75737420626520636F6E7472616374206F776E PUSH1 0x0 DUP3 ADD MSTORE PUSH32 0x6572000000000000000000000000000000000000000000000000000000000000 PUSH1 0x20 DUP3 ADD MSTORE POP JUMP JUMPDEST PUSH1 0x0 PUSH2 0x170D PUSH1 0x22 DUP4 PUSH2 0x16A0 JUMP JUMPDEST SWAP2 POP PUSH2 0x1718 DUP3 PUSH2 0x16B1 JUMP JUMPDEST PUSH1 0x40 DUP3 ADD SWAP1 POP SWAP2 SWAP1 POP JUMP JUMPDEST PUSH1 0x0 PUSH1 0x20 DUP3 ADD SWAP1 POP DUP2 DUP2 SUB PUSH1 0x0 DUP4 ADD MSTORE PUSH2 0x173C DUP2 PUSH2 0x1700 JUMP JUMPDEST SWAP1 POP SWAP2 SWAP1 POP JUMP JUMPDEST PUSH32 0x4E487B7100000000000000000000000000000000000000000000000000000000 PUSH1 0x0 MSTORE PUSH1 0x32 PUSH1 0x4 MSTORE PUSH1 0x24 PUSH1 0x0 REVERT JUMPDEST PUSH32 0x4E487B7100000000000000000000000000000000000000000000000000000000 PUSH1 0x0 MSTORE PUSH1 0x21 PUSH1 0x4 MSTORE PUSH1 0x24 PUSH1 0x0 REVERT JUMPDEST PUSH32 0x4C69624469616D6F6E644375743A20496E636F72726563742046616365744375 PUSH1 0x0 DUP3 ADD MSTORE PUSH32 0x74416374696F6E00000000000000000000000000000000000000000000000000 PUSH1 0x20 DUP3 ADD MSTORE POP JUMP JUMPDEST PUSH1 0x0 PUSH2 0x17FD PUSH1 0x27 DUP4 PUSH2 0x16A0 JUMP JUMPDEST SWAP2 POP PUSH2 0x1808 DUP3 PUSH2 0x17A1 JUMP JUMPDEST PUSH1 0x40 DUP3 ADD SWAP1 POP SWAP2 SWAP1 POP JUMP JUMPDEST PUSH1 0x0 PUSH1 0x20 DUP3 ADD SWAP1 POP DUP2 DUP2 SUB PUSH1 0x0 DUP4 ADD MSTORE PUSH2 0x182C DUP2 PUSH2 0x17F0 JUMP JUMPDEST SWAP1 POP SWAP2 SWAP1 POP JUMP JUMPDEST PUSH32 0x4E487B7100000000000000000000000000000000000000000000000000000000 PUSH1 0x0 MSTORE PUSH1 0x11 PUSH1 0x4 MSTORE PUSH1 0x24 PUSH1 0x0 REVERT JUMPDEST PUSH1 0x0 DUP2 SWAP1 POP SWAP2 SWAP1 POP JUMP JUMPDEST PUSH1 0x0 PUSH2 0x1877 DUP3 PUSH2 0x1862 JUMP JUMPDEST SWAP2 POP PUSH32 0xFFFFFFFFFFFFFFFFFFFFFFFFFFFFFFFFFFFFFFFFFFFFFFFFFFFFFFFFFFFFFFFF DUP3 SUB PUSH2 0x18A9 JUMPI PUSH2 0x18A8 PUSH2 0x1833 JUMP JUMPDEST JUMPDEST PUSH1 0x1 DUP3 ADD SWAP1 POP SWAP2 SWAP1 POP JUMP JUMPDEST PUSH1 0x0 DUP2 MLOAD SWAP1 POP SWAP2 SWAP1 POP JUMP JUMPDEST PUSH1 0x0 DUP3 DUP3 MSTORE PUSH1 0x20 DUP3 ADD SWAP1 POP SWAP3 SWAP2 POP POP JUMP JUMPDEST PUSH1 0x0 DUP2 SWAP1 POP PUSH1 0x20 DUP3 ADD SWAP1 POP SWAP2 SWAP1 POP JUMP JUMPDEST PUSH2 0x18E9 DUP2 PUSH2 0x1259 JUMP JUMPDEST DUP3 MSTORE POP POP JUMP JUMPDEST PUSH1 0x3 DUP2 LT PUSH2 0x1900 JUMPI PUSH2 0x18FF PUSH2 0x1772 JUMP JUMPDEST JUMPDEST POP JUMP JUMPDEST PUSH1 0x0 DUP2 SWAP1 POP PUSH2 0x1911 DUP3 PUSH2 0x18EF JUMP JUMPDEST SWAP2 SWAP1 POP JUMP JUMPDEST PUSH1 0x0 PUSH2 0x1921 DUP3 PUSH2 0x1903 JUMP JUMPDEST SWAP1 POP SWAP2 SWAP1 POP JUMP JUMPDEST PUSH2 0x1931 DUP2 PUSH2 0x1916 JUMP JUMPDEST DUP3 MSTORE POP POP JUMP JUMPDEST PUSH1 0x0 DUP2 MLOAD SWAP1 POP SWAP2 SWAP1 POP JUMP JUMPDEST PUSH1 0x0 DUP3 DUP3 MSTORE PUSH1 0x20 DUP3 ADD SWAP1 POP SWAP3 SWAP2 POP POP JUMP JUMPDEST PUSH1 0x0 DUP2 SWAP1 POP PUSH1 0x20 DUP3 ADD SWAP1 POP SWAP2 SWAP1 POP JUMP JUMPDEST PUSH2 0x196C DUP2 PUSH2 0x1495 JUMP JUMPDEST DUP3 MSTORE POP POP JUMP JUMPDEST PUSH1 0x0 PUSH2 0x197E DUP4 DUP4 PUSH2 0x1963 JUMP JUMPDEST PUSH1 0x20 DUP4 ADD SWAP1 POP SWAP3 SWAP2 POP POP JUMP JUMPDEST PUSH1 0x0 PUSH1 0x20 DUP3 ADD SWAP1 POP SWAP2 SWAP1 POP JUMP JUMPDEST PUSH1 0x0 PUSH2 0x19A2 DUP3 PUSH2 0x1937 JUMP JUMPDEST PUSH2 0x19AC DUP2 DUP6 PUSH2 0x1942 JUMP JUMPDEST SWAP4 POP PUSH2 0x19B7 DUP4 PUSH2 0x1953 JUMP JUMPDEST DUP1 PUSH1 0x0 JUMPDEST DUP4 DUP2 LT ISZERO PUSH2 0x19E8 JUMPI DUP2 MLOAD PUSH2 0x19CF DUP9 DUP3 PUSH2 0x1972 JUMP JUMPDEST SWAP8 POP PUSH2 0x19DA DUP4 PUSH2 0x198A JUMP JUMPDEST SWAP3 POP POP PUSH1 0x1 DUP2 ADD SWAP1 POP PUSH2 0x19BB JUMP JUMPDEST POP DUP6 SWAP4 POP POP POP POP SWAP3 SWAP2 POP POP JUMP JUMPDEST PUSH1 0x0 PUSH1 0x60 DUP4 ADD PUSH1 0x0 DUP4 ADD MLOAD PUSH2 0x1A0D PUSH1 0x0 DUP7 ADD DUP3 PUSH2 0x18E0 JUMP JUMPDEST POP PUSH1 0x20 DUP4 ADD MLOAD PUSH2 0x1A20 PUSH1 0x20 DUP7 ADD DUP3 PUSH2 0x1928 JUMP JUMPDEST POP PUSH1 0x40 DUP4 ADD MLOAD DUP5 DUP3 SUB PUSH1 0x40 DUP7 ADD MSTORE PUSH2 0x1A38 DUP3 DUP3 PUSH2 0x1997 JUMP JUMPDEST SWAP2 POP POP DUP1 SWAP2 POP POP SWAP3 SWAP2 POP POP JUMP JUMPDEST PUSH1 0x0 PUSH2 0x1A51 DUP4 DUP4 PUSH2 0x19F5 JUMP JUMPDEST SWAP1 POP SWAP3 SWAP2 POP POP JUMP JUMPDEST PUSH1 0x0 PUSH1 0x20 DUP3 ADD SWAP1 POP SWAP2 SWAP1 POP JUMP JUMPDEST PUSH1 0x0 PUSH2 0x1A71 DUP3 PUSH2 0x18B4 JUMP JUMPDEST PUSH2 0x1A7B DUP2 DUP6 PUSH2 0x18BF JUMP JUMPDEST SWAP4 POP DUP4 PUSH1 0x20 DUP3 MUL DUP6 ADD PUSH2 0x1A8D DUP6 PUSH2 0x18D0 JUMP JUMPDEST DUP1 PUSH1 0x0 JUMPDEST DUP6 DUP2 LT ISZERO PUSH2 0x1AC9 JUMPI DUP5 DUP5 SUB DUP10 MSTORE DUP2 MLOAD PUSH2 0x1AAA DUP6 DUP3 PUSH2 0x1A45 JUMP JUMPDEST SWAP5 POP PUSH2 0x1AB5 DUP4 PUSH2 0x1A59 JUMP JUMPDEST SWAP3 POP PUSH1 0x20 DUP11 ADD SWAP10 POP POP PUSH1 0x1 DUP2 ADD SWAP1 POP PUSH2 0x1A91 JUMP JUMPDEST POP DUP3 SWAP8 POP DUP8 SWAP6 POP POP POP POP POP POP SWAP3 SWAP2 POP POP JUMP JUMPDEST PUSH2 0x1AE4 DUP2 PUSH2 0x1259 JUMP JUMPDEST DUP3 MSTORE POP POP JUMP JUMPDEST PUSH1 0x0 DUP2 MLOAD SWAP1 POP SWAP2 SWAP1 POP JUMP JUMPDEST PUSH1 0x0 DUP3 DUP3 MSTORE PUSH1 0x20 DUP3 ADD SWAP1 POP SWAP3 SWAP2 POP POP JUMP JUMPDEST PUSH1 0x0 JUMPDEST DUP4 DUP2 LT ISZERO PUSH2 0x1B24 JUMPI DUP1 DUP3 ADD MLOAD DUP2 DUP5 ADD MSTORE PUSH1 0x20 DUP2 ADD SWAP1 POP PUSH2 0x1B09 JUMP JUMPDEST PUSH1 0x0 DUP5 DUP5 ADD MSTORE POP POP POP POP JUMP JUMPDEST PUSH1 0x0 PUSH2 0x1B3B DUP3 PUSH2 0x1AEA JUMP JUMPDEST PUSH2 0x1B45 DUP2 DUP6 PUSH2 0x1AF5 JUMP JUMPDEST SWAP4 POP PUSH2 0x1B55 DUP2 DUP6 PUSH1 0x20 DUP7 ADD PUSH2 0x1B06 JUMP JUMPDEST PUSH2 0x1B5E DUP2 PUSH2 0x1382 JUMP JUMPDEST DUP5 ADD SWAP2 POP POP SWAP3 SWAP2 POP POP JUMP JUMPDEST PUSH1 0x0 PUSH1 0x60 DUP3 ADD SWAP1 POP DUP2 DUP2 SUB PUSH1 0x0 DUP4 ADD MSTORE PUSH2 0x1B83 DUP2 DUP7 PUSH2 0x1A66 JUMP JUMPDEST SWAP1 POP PUSH2 0x1B92 PUSH1 0x20 DUP4 ADD DUP6 PUSH2 0x1ADB JUMP JUMPDEST DUP2 DUP2 SUB PUSH1 0x40 DUP4 ADD MSTORE PUSH2 0x1BA4 DUP2 DUP5 PUSH2 0x1B30 JUMP JUMPDEST SWAP1 POP SWAP5 SWAP4 POP POP POP POP JUMP JUMPDEST PUSH32 0x4C69624469616D6F6E644375743A204E6F2073656C6563746F727320696E2066 PUSH1 0x0 DUP3 ADD MSTORE PUSH32 0x6163657420746F20637574000000000000000000000000000000000000000000 PUSH1 0x20 DUP3 ADD MSTORE POP JUMP JUMPDEST PUSH1 0x0 PUSH2 0x1C0A PUSH1 0x2B DUP4 PUSH2 0x16A0 JUMP JUMPDEST SWAP2 POP PUSH2 0x1C15 DUP3 PUSH2 0x1BAE JUMP JUMPDEST PUSH1 0x40 DUP3 ADD SWAP1 POP SWAP2 SWAP1 POP JUMP JUMPDEST PUSH1 0x0 PUSH1 0x20 DUP3 ADD SWAP1 POP DUP2 DUP2 SUB PUSH1 0x0 DUP4 ADD MSTORE PUSH2 0x1C39 DUP2 PUSH2 0x1BFD JUMP JUMPDEST SWAP1 POP SWAP2 SWAP1 POP JUMP JUMPDEST PUSH32 0x4C69624469616D6F6E644375743A204164642066616365742063616E27742062 PUSH1 0x0 DUP3 ADD MSTORE PUSH32 0x6520616464726573732830290000000000000000000000000000000000000000 PUSH1 0x20 DUP3 ADD MSTORE POP JUMP JUMPDEST PUSH1 0x0 PUSH2 0x1C9C PUSH1 0x2C DUP4 PUSH2 0x16A0 JUMP JUMPDEST SWAP2 POP PUSH2 0x1CA7 DUP3 PUSH2 0x1C40 JUMP JUMPDEST PUSH1 0x40 DUP3 ADD SWAP1 POP SWAP2 SWAP1 POP JUMP JUMPDEST PUSH1 0x0 PUSH1 0x20 DUP3 ADD SWAP1 POP DUP2 DUP2 SUB PUSH1 0x0 DUP4 ADD MSTORE PUSH2 0x1CCB DUP2 PUSH2 0x1C8F JUMP JUMPDEST SWAP1 POP SWAP2 SWAP1 POP JUMP JUMPDEST PUSH32 0x4C69624469616D6F6E644375743A2043616E2774206164642066756E6374696F PUSH1 0x0 DUP3 ADD MSTORE PUSH32 0x6E207468617420616C7265616479206578697374730000000000000000000000 PUSH1 0x20 DUP3 ADD MSTORE POP JUMP JUMPDEST PUSH1 0x0 PUSH2 0x1D2E PUSH1 0x35 DUP4 PUSH2 0x16A0 JUMP JUMPDEST SWAP2 POP PUSH2 0x1D39 DUP3 PUSH2 0x1CD2 JUMP JUMPDEST PUSH1 0x40 DUP3 ADD SWAP1 POP SWAP2 SWAP1 POP JUMP JUMPDEST PUSH1 0x0 PUSH1 0x20 DUP3 ADD SWAP1 POP DUP2 DUP2 SUB PUSH1 0x0 DUP4 ADD MSTORE PUSH2 0x1D5D DUP2 PUSH2 0x1D21 JUMP JUMPDEST SWAP1 POP SWAP2 SWAP1 POP JUMP JUMPDEST PUSH1 0x0 PUSH2 0xFFFF DUP3 AND SWAP1 POP SWAP2 SWAP1 POP JUMP JUMPDEST PUSH1 0x0 PUSH2 0x1D7D DUP3 PUSH2 0x1D64 JUMP JUMPDEST SWAP2 POP PUSH2 0xFFFF DUP3 SUB PUSH2 0x1D91 JUMPI PUSH2 0x1D90 PUSH2 0x1833 JUMP JUMPDEST JUMPDEST PUSH1 0x1 DUP3 ADD SWAP1 POP SWAP2 SWAP1 POP JUMP JUMPDEST PUSH32 0x4C69624469616D6F6E644375743A205265706C6163652066616365742063616E PUSH1 0x0 DUP3 ADD MSTORE PUSH32 0x2774206265206164647265737328302900000000000000000000000000000000 PUSH1 0x20 DUP3 ADD MSTORE POP JUMP JUMPDEST PUSH1 0x0 PUSH2 0x1DF8 PUSH1 0x30 DUP4 PUSH2 0x16A0 JUMP JUMPDEST SWAP2 POP PUSH2 0x1E03 DUP3 PUSH2 0x1D9C JUMP JUMPDEST PUSH1 0x40 DUP3 ADD SWAP1 POP SWAP2 SWAP1 POP JUMP JUMPDEST PUSH1 0x0 PUSH1 0x20 DUP3 ADD SWAP1 POP DUP2 DUP2 SUB PUSH1 0x0 DUP4 ADD MSTORE PUSH2 0x1E27 DUP2 PUSH2 0x1DEB JUMP JUMPDEST SWAP1 POP SWAP2 SWAP1 POP JUMP JUMPDEST PUSH32 0x4C69624469616D6F6E644375743A2043616E2774207265706C61636520696D6D PUSH1 0x0 DUP3 ADD MSTORE PUSH32 0x757461626C652066756E6374696F6E0000000000000000000000000000000000 PUSH1 0x20 DUP3 ADD MSTORE POP JUMP JUMPDEST PUSH1 0x0 PUSH2 0x1E8A PUSH1 0x2F DUP4 PUSH2 0x16A0 JUMP JUMPDEST SWAP2 POP PUSH2 0x1E95 DUP3 PUSH2 0x1E2E JUMP JUMPDEST PUSH1 0x40 DUP3 ADD SWAP1 POP SWAP2 SWAP1 POP JUMP JUMPDEST PUSH1 0x0 PUSH1 0x20 DUP3 ADD SWAP1 POP DUP2 DUP2 SUB PUSH1 0x0 DUP4 ADD MSTORE PUSH2 0x1EB9 DUP2 PUSH2 0x1E7D JUMP JUMPDEST SWAP1 POP SWAP2 SWAP1 POP JUMP JUMPDEST PUSH32 0x4C69624469616D6F6E644375743A2043616E2774207265706C6163652066756E PUSH1 0x0 DUP3 ADD MSTORE PUSH32 0x6374696F6E20776974682073616D652066756E6374696F6E0000000000000000 PUSH1 0x20 DUP3 ADD MSTORE POP JUMP JUMPDEST PUSH1 0x0 PUSH2 0x1F1C PUSH1 0x38 DUP4 PUSH2 0x16A0 JUMP JUMPDEST SWAP2 POP PUSH2 0x1F27 DUP3 PUSH2 0x1EC0 JUMP JUMPDEST PUSH1 0x40 DUP3 ADD SWAP1 POP SWAP2 SWAP1 POP JUMP JUMPDEST PUSH1 0x0 PUSH1 0x20 DUP3 ADD SWAP1 POP DUP2 DUP2 SUB PUSH1 0x0 DUP4 ADD MSTORE PUSH2 0x1F4B DUP2 PUSH2 0x1F0F JUMP JUMPDEST SWAP1 POP SWAP2 SWAP1 POP JUMP JUMPDEST PUSH32 0x4C69624469616D6F6E644375743A2043616E2774207265706C6163652066756E PUSH1 0x0 DUP3 ADD MSTORE PUSH32 0x6374696F6E207468617420646F65736E27742065786973740000000000000000 PUSH1 0x20 DUP3 ADD MSTORE POP JUMP JUMPDEST PUSH1 0x0 PUSH2 0x1FAE PUSH1 0x38 DUP4 PUSH2 0x16A0 JUMP JUMPDEST SWAP2 POP PUSH2 0x1FB9 DUP3 PUSH2 0x1F52 JUMP JUMPDEST PUSH1 0x40 DUP3 ADD SWAP1 POP SWAP2 SWAP1 POP JUMP JUMPDEST PUSH1 0x0 PUSH1 0x20 DUP3 ADD SWAP1 POP DUP2 DUP2 SUB PUSH1 0x0 DUP4 ADD MSTORE PUSH2 0x1FDD DUP2 PUSH2 0x1FA1 JUMP JUMPDEST SWAP1 POP SWAP2 SWAP1 POP JUMP JUMPDEST PUSH32 0x4C69624469616D6F6E644375743A2052656D6F76652066616365742061646472 PUSH1 0x0 DUP3 ADD MSTORE PUSH32 0x657373206D757374206265206164647265737328302900000000000000000000 PUSH1 0x20 DUP3 ADD MSTORE POP JUMP JUMPDEST PUSH1 0x0 PUSH2 0x2040 PUSH1 0x36 DUP4 PUSH2 0x16A0 JUMP JUMPDEST SWAP2 POP PUSH2 0x204B DUP3 PUSH2 0x1FE4 JUMP JUMPDEST PUSH1 0x40 DUP3 ADD SWAP1 POP SWAP2 SWAP1 POP JUMP JUMPDEST PUSH1 0x0 PUSH1 0x20 DUP3 ADD SWAP1 POP DUP2 DUP2 SUB PUSH1 0x0 DUP4 ADD MSTORE PUSH2 0x206F DUP2 PUSH2 0x2033 JUMP JUMPDEST SWAP1 POP SWAP2 SWAP1 POP JUMP JUMPDEST PUSH32 0x4C69624469616D6F6E644375743A2043616E27742072656D6F76652066756E63 PUSH1 0x0 DUP3 ADD MSTORE PUSH32 0x74696F6E207468617420646F65736E2774206578697374000000000000000000 PUSH1 0x20 DUP3 ADD MSTORE POP JUMP JUMPDEST PUSH1 0x0 PUSH2 0x20D2 PUSH1 0x37 DUP4 PUSH2 0x16A0 JUMP JUMPDEST SWAP2 POP PUSH2 0x20DD DUP3 PUSH2 0x2076 JUMP JUMPDEST PUSH1 0x40 DUP3 ADD SWAP1 POP SWAP2 SWAP1 POP JUMP JUMPDEST PUSH1 0x0 PUSH1 0x20 DUP3 ADD SWAP1 POP DUP2 DUP2 SUB PUSH1 0x0 DUP4 ADD MSTORE PUSH2 0x2101 DUP2 PUSH2 0x20C5 JUMP JUMPDEST SWAP1 POP SWAP2 SWAP1 POP JUMP JUMPDEST PUSH32 0x4C69624469616D6F6E644375743A2043616E27742072656D6F766520696D6D75 PUSH1 0x0 DUP3 ADD MSTORE PUSH32 0x7461626C652066756E6374696F6E2E0000000000000000000000000000000000 PUSH1 0x20 DUP3 ADD MSTORE POP JUMP JUMPDEST PUSH1 0x0 PUSH2 0x2164 PUSH1 0x2F DUP4 PUSH2 0x16A0 JUMP JUMPDEST SWAP2 POP PUSH2 0x216F DUP3 PUSH2 0x2108 JUMP JUMPDEST PUSH1 0x40 DUP3 ADD SWAP1 POP SWAP2 SWAP1 POP JUMP JUMPDEST PUSH1 0x0 PUSH1 0x20 DUP3 ADD SWAP1 POP DUP2 DUP2 SUB PUSH1 0x0 DUP4 ADD MSTORE PUSH2 0x2193 DUP2 PUSH2 0x2157 JUMP JUMPDEST SWAP1 POP SWAP2 SWAP1 POP JUMP JUMPDEST PUSH1 0x0 PUSH2 0x21A5 DUP3 PUSH2 0x1862 JUMP JUMPDEST SWAP2 POP PUSH1 0x0 DUP3 SUB PUSH2 0x21B8 JUMPI PUSH2 0x21B7 PUSH2 0x1833 JUMP JUMPDEST JUMPDEST PUSH1 0x1 DUP3 SUB SWAP1 POP SWAP2 SWAP1 POP JUMP JUMPDEST PUSH32 0x4E487B7100000000000000000000000000000000000000000000000000000000 PUSH1 0x0 MSTORE PUSH1 0x31 PUSH1 0x4 MSTORE PUSH1 0x24 PUSH1 0x0 REVERT JUMPDEST PUSH32 0x4C69624469616D6F6E644375743A205F696E6974206973206164647265737328 PUSH1 0x0 DUP3 ADD MSTORE PUSH32 0x3029206275745F63616C6C64617461206973206E6F7420656D70747900000000 PUSH1 0x20 DUP3 ADD MSTORE POP JUMP JUMPDEST PUSH1 0x0 PUSH2 0x224E PUSH1 0x3C DUP4 PUSH2 0x16A0 JUMP JUMPDEST SWAP2 POP PUSH2 0x2259 DUP3 PUSH2 0x21F2 JUMP JUMPDEST PUSH1 0x40 DUP3 ADD SWAP1 POP SWAP2 SWAP1 POP JUMP JUMPDEST PUSH1 0x0 PUSH1 0x20 DUP3 ADD SWAP1 POP DUP2 DUP2 SUB PUSH1 0x0 DUP4 ADD MSTORE PUSH2 0x227D DUP2 PUSH2 0x2241 JUMP JUMPDEST SWAP1 POP SWAP2 SWAP1 POP JUMP JUMPDEST PUSH32 0x4C69624469616D6F6E644375743A205F63616C6C6461746120697320656D7074 PUSH1 0x0 DUP3 ADD MSTORE PUSH32 0x7920627574205F696E6974206973206E6F742061646472657373283029000000 PUSH1 0x20 DUP3 ADD MSTORE POP JUMP JUMPDEST PUSH1 0x0 PUSH2 0x22E0 PUSH1 0x3D DUP4 PUSH2 0x16A0 JUMP JUMPDEST SWAP2 POP PUSH2 0x22EB DUP3 PUSH2 0x2284 JUMP JUMPDEST PUSH1 0x40 DUP3 ADD SWAP1 POP SWAP2 SWAP1 POP JUMP JUMPDEST PUSH1 0x0 PUSH1 0x20 DUP3 ADD SWAP1 POP DUP2 DUP2 SUB PUSH1 0x0 DUP4 ADD MSTORE PUSH2 0x230F DUP2 PUSH2 0x22D3 JUMP JUMPDEST SWAP1 POP SWAP2 SWAP1 POP JUMP JUMPDEST PUSH1 0x0 DUP2 SWAP1 POP SWAP3 SWAP2 POP POP JUMP JUMPDEST PUSH1 0x0 PUSH2 0x232C DUP3 PUSH2 0x1AEA JUMP JUMPDEST PUSH2 0x2336 DUP2 DUP6 PUSH2 0x2316 JUMP JUMPDEST SWAP4 POP PUSH2 0x2346 DUP2 DUP6 PUSH1 0x20 DUP7 ADD PUSH2 0x1B06 JUMP JUMPDEST DUP1 DUP5 ADD SWAP2 POP POP SWAP3 SWAP2 POP POP JUMP JUMPDEST PUSH1 0x0 PUSH2 0x235E DUP3 DUP5 PUSH2 0x2321 JUMP JUMPDEST SWAP2 POP DUP2 SWAP1 POP SWAP3 SWAP2 POP POP JUMP JUMPDEST PUSH1 0x0 DUP2 MLOAD SWAP1 POP SWAP2 SWAP1 POP JUMP JUMPDEST PUSH1 0x0 PUSH2 0x237F DUP3 PUSH2 0x2369 JUMP JUMPDEST PUSH2 0x2389 DUP2 DUP6 PUSH2 0x16A0 JUMP JUMPDEST SWAP4 POP PUSH2 0x2399 DUP2 DUP6 PUSH1 0x20 DUP7 ADD PUSH2 0x1B06 JUMP JUMPDEST PUSH2 0x23A2 DUP2 PUSH2 0x1382 JUMP JUMPDEST DUP5 ADD SWAP2 POP POP SWAP3 SWAP2 POP POP JUMP JUMPDEST PUSH1 0x0 PUSH1 0x20 DUP3 ADD SWAP1 POP DUP2 DUP2 SUB PUSH1 0x0 DUP4 ADD MSTORE PUSH2 0x23C7 DUP2 DUP5 PUSH2 0x2374 JUMP JUMPDEST SWAP1 POP SWAP3 SWAP2 POP POP JUMP JUMPDEST PUSH32 0x4C69624469616D6F6E644375743A205F696E69742066756E6374696F6E207265 PUSH1 0x0 DUP3 ADD MSTORE PUSH32 0x7665727465640000000000000000000000000000000000000000000000000000 PUSH1 0x20 DUP3 ADD MSTORE POP JUMP JUMPDEST PUSH1 0x0 PUSH2 0x242B PUSH1 0x26 DUP4 PUSH2 0x16A0 JUMP JUMPDEST SWAP2 POP PUSH2 0x2436 DUP3 PUSH2 0x23CF JUMP JUMPDEST PUSH1 0x40 DUP3 ADD SWAP1 POP SWAP2 SWAP1 POP JUMP JUMPDEST PUSH1 0x0 PUSH1 0x20 DUP3 ADD SWAP1 POP DUP2 DUP2 SUB PUSH1 0x0 DUP4 ADD MSTORE PUSH2 0x245A DUP2 PUSH2 0x241E JUMP JUMPDEST SWAP1 POP SWAP2 SWAP1 POP JUMP INVALID 0x4C PUSH10 0x624469616D6F6E644375 PUSH21 0x3A2041646420666163657420686173206E6F20636F PUSH5 0x654C696244 PUSH10 0x616D6F6E644375743A20 0x5F PUSH10 0x6E697420616464726573 PUSH20 0x20686173206E6F20636F64654C69624469616D6F PUSH15 0x644375743A205265706C6163652066 PUSH2 0x6365 PUSH21 0x20686173206E6F20636F6465A26469706673582212 KECCAK256 SIGNEXTEND 0xCC GASPRICE 0xD4 EQ PUSH9 0x284D319C6ECB2F116A CODESIZE 0x1E PUSH3 0xF4505E CHAINID CALLVALUE DUP2 0xE9 DUP9 REVERT 0x5E 0xC3 0x24 PC GAS PUSH5 0x736F6C6343 STOP ADDMOD SLT STOP CALLER "
				},
				"gasEstimates": {
					"creation": {
						"codeDepositCost": "1896600",
						"executionCost": "2005",
						"totalCost": "1898605"
					},
					"external": {
						"diamondCut((address,uint8,bytes4[])[],address,bytes)": "infinite"
					}
				},
				"methodIdentifiers": {
					"diamondCut((address,uint8,bytes4[])[],address,bytes)": "1f931c1c"
				}
			},
			"storageLayout": {
				"storage": [],
				"types": null
			},
			"userdoc": {
				"kind": "user",
				"methods": {
					"diamondCut((address,uint8,bytes4[])[],address,bytes)": {
						"notice": "Add/replace/remove any number of functions and optionally execute         a function with delegatecall"
					}
				},
				"version": 1
			}
		}
	}
}