{
	"Desktop/development/smart contract/SwapCryptoLoanUpdate/contracts/facets/PriceOracleFacet.sol": {
		"PriceOracleFacet": {
			"abi": [
				{
					"anonymous": false,
					"inputs": [
						{
							"indexed": false,
							"internalType": "string",
							"name": "_ticker",
							"type": "string"
						},
						{
							"indexed": false,
							"internalType": "uint256",
							"name": "_price",
							"type": "uint256"
						},
						{
							"indexed": false,
							"internalType": "address",
							"name": "_pythia",
							"type": "address"
						},
						{
							"indexed": false,
							"internalType": "uint256",
							"name": "_time",
							"type": "uint256"
						}
					],
					"name": "PriceUpdated",
					"type": "event"
				},
				{
					"anonymous": false,
					"inputs": [
						{
							"indexed": false,
							"internalType": "uint256",
							"name": "_time",
							"type": "uint256"
						}
					],
					"name": "PrinceChanged",
					"type": "event"
				},
				{
					"anonymous": false,
					"inputs": [
						{
							"indexed": false,
							"internalType": "address",
							"name": "_pythia",
							"type": "address"
						},
						{
							"indexed": false,
							"internalType": "address",
							"name": "_addBy",
							"type": "address"
						},
						{
							"indexed": false,
							"internalType": "uint256",
							"name": "_time",
							"type": "uint256"
						}
					],
					"name": "PythiaAdded",
					"type": "event"
				},
				{
					"anonymous": false,
					"inputs": [
						{
							"indexed": false,
							"internalType": "address",
							"name": "_pythia",
							"type": "address"
						},
						{
							"indexed": false,
							"internalType": "address",
							"name": "_addBy",
							"type": "address"
						},
						{
							"indexed": false,
							"internalType": "uint256",
							"name": "_time",
							"type": "uint256"
						}
					],
					"name": "PythiaSuspended",
					"type": "event"
				},
				{
					"inputs": [
						{
							"internalType": "string",
							"name": "_source",
							"type": "string"
						}
					],
					"name": "converter",
					"outputs": [
						{
							"internalType": "bytes",
							"name": "",
							"type": "bytes"
						}
					],
					"stateMutability": "pure",
					"type": "function"
				},
				{
					"inputs": [],
					"name": "getStakingAndBuyingTokenPrices",
					"outputs": [
						{
							"internalType": "uint256",
							"name": "",
							"type": "uint256"
						},
						{
							"internalType": "uint256",
							"name": "",
							"type": "uint256"
						}
					],
					"stateMutability": "view",
					"type": "function"
				},
				{
					"inputs": [
						{
							"internalType": "address",
							"name": "_pythia",
							"type": "address"
						}
					],
					"name": "isPythia",
					"outputs": [
						{
							"internalType": "bool",
							"name": "",
							"type": "bool"
						}
					],
					"stateMutability": "view",
					"type": "function"
				},
				{
					"inputs": [
						{
							"internalType": "string",
							"name": "_ticker",
							"type": "string"
						}
					],
					"name": "price",
					"outputs": [
						{
							"internalType": "uint256",
							"name": "",
							"type": "uint256"
						}
					],
					"stateMutability": "view",
					"type": "function"
				},
				{
					"inputs": [
						{
							"internalType": "string",
							"name": "_ticker",
							"type": "string"
						}
					],
					"name": "setEGCUSDTicker",
					"outputs": [],
					"stateMutability": "nonpayable",
					"type": "function"
				},
				{
					"inputs": [
						{
							"internalType": "string",
							"name": "_ticker",
							"type": "string"
						}
					],
					"name": "setNairaUSDTicker",
					"outputs": [],
					"stateMutability": "nonpayable",
					"type": "function"
				},
				{
					"inputs": [
						{
							"internalType": "address",
							"name": "_pythia",
							"type": "address"
						}
					],
					"name": "setPythia",
					"outputs": [],
					"stateMutability": "nonpayable",
					"type": "function"
				},
				{
					"inputs": [
						{
							"internalType": "address",
							"name": "_pythia",
							"type": "address"
						}
					],
					"name": "suspendPythia",
					"outputs": [],
					"stateMutability": "nonpayable",
					"type": "function"
				},
				{
					"inputs": [
						{
							"internalType": "uint256[]",
							"name": "_prices",
							"type": "uint256[]"
						},
						{
							"internalType": "string[]",
							"name": "_tickers",
							"type": "string[]"
						}
					],
					"name": "updateTickerPrices",
					"outputs": [],
					"stateMutability": "nonpayable",
					"type": "function"
				}
			],
			"devdoc": {
				"kind": "dev",
				"methods": {},
				"version": 1
			},
			"evm": {
				"assembly": "    /* \"Desktop/development/smart contract/SwapCryptoLoanUpdate/contracts/facets/PriceOracleFacet.sol\":165:3057  contract PriceOracleFacet {... */\n  mstore(0x40, 0x80)\n  callvalue\n  dup1\n  iszero\n  tag_1\n  jumpi\n  0x00\n  dup1\n  revert\ntag_1:\n  pop\n  dataSize(sub_0)\n  dup1\n  dataOffset(sub_0)\n  0x00\n  codecopy\n  0x00\n  return\nstop\n\nsub_0: assembly {\n        /* \"Desktop/development/smart contract/SwapCryptoLoanUpdate/contracts/facets/PriceOracleFacet.sol\":165:3057  contract PriceOracleFacet {... */\n      mstore(0x40, 0x80)\n      callvalue\n      dup1\n      iszero\n      tag_1\n      jumpi\n      0x00\n      dup1\n      revert\n    tag_1:\n      pop\n      jumpi(tag_2, lt(calldatasize, 0x04))\n      shr(0xe0, calldataload(0x00))\n      dup1\n      0x832427da\n      gt\n      tag_12\n      jumpi\n      dup1\n      0x832427da\n      eq\n      tag_7\n      jumpi\n      dup1\n      0x94a72f1c\n      eq\n      tag_8\n      jumpi\n      dup1\n      0xb55bfc6f\n      eq\n      tag_9\n      jumpi\n      dup1\n      0xfc3a49e0\n      eq\n      tag_10\n      jumpi\n      dup1\n      0xfe2c6198\n      eq\n      tag_11\n      jumpi\n      jump(tag_2)\n    tag_12:\n      dup1\n      0x267561c8\n      eq\n      tag_3\n      jumpi\n      dup1\n      0x5c60896d\n      eq\n      tag_4\n      jumpi\n      dup1\n      0x658bdb2e\n      eq\n      tag_5\n      jumpi\n      dup1\n      0x734bc659\n      eq\n      tag_6\n      jumpi\n    tag_2:\n      0x00\n      dup1\n      revert\n        /* \"Desktop/development/smart contract/SwapCryptoLoanUpdate/contracts/facets/PriceOracleFacet.sol\":1797:1916  function setNairaUSDTicker(string memory _ticker) external onlyOwner {... */\n    tag_3:\n      tag_13\n      0x04\n      dup1\n      calldatasize\n      sub\n      dup2\n      add\n      swap1\n      tag_14\n      swap2\n      swap1\n      tag_15\n      jump\t// in\n    tag_14:\n      tag_16\n      jump\t// in\n    tag_13:\n      stop\n        /* \"Desktop/development/smart contract/SwapCryptoLoanUpdate/contracts/facets/PriceOracleFacet.sol\":2268:2437  function suspendPythia(address _pythia) external onlyOwner {... */\n    tag_4:\n      tag_17\n      0x04\n      dup1\n      calldatasize\n      sub\n      dup2\n      add\n      swap1\n      tag_18\n      swap2\n      swap1\n      tag_19\n      jump\t// in\n    tag_18:\n      tag_20\n      jump\t// in\n    tag_17:\n      stop\n        /* \"Desktop/development/smart contract/SwapCryptoLoanUpdate/contracts/facets/PriceOracleFacet.sol\":1432:1537  function isPythia(address _pythia) external view returns (bool) {... */\n    tag_5:\n      tag_21\n      0x04\n      dup1\n      calldatasize\n      sub\n      dup2\n      add\n      swap1\n      tag_22\n      swap2\n      swap1\n      tag_19\n      jump\t// in\n    tag_22:\n      tag_23\n      jump\t// in\n    tag_21:\n      mload(0x40)\n      tag_24\n      swap2\n      swap1\n      tag_25\n      jump\t// in\n    tag_24:\n      mload(0x40)\n      dup1\n      swap2\n      sub\n      swap1\n      return\n        /* \"Desktop/development/smart contract/SwapCryptoLoanUpdate/contracts/facets/PriceOracleFacet.sol\":828:1426  function updateTickerPrices(... */\n    tag_6:\n      tag_26\n      0x04\n      dup1\n      calldatasize\n      sub\n      dup2\n      add\n      swap1\n      tag_27\n      swap2\n      swap1\n      tag_28\n      jump\t// in\n    tag_27:\n      tag_29\n      jump\t// in\n    tag_26:\n      stop\n        /* \"Desktop/development/smart contract/SwapCryptoLoanUpdate/contracts/facets/PriceOracleFacet.sol\":1673:1791  function setEGCUSDTicker(string memory _ticker) external onlyOwner {... */\n    tag_7:\n      tag_30\n      0x04\n      dup1\n      calldatasize\n      sub\n      dup2\n      add\n      swap1\n      tag_31\n      swap2\n      swap1\n      tag_15\n      jump\t// in\n    tag_31:\n      tag_32\n      jump\t// in\n    tag_30:\n      stop\n        /* \"Desktop/development/smart contract/SwapCryptoLoanUpdate/contracts/facets/PriceOracleFacet.sol\":2443:2581  function converter(... */\n    tag_8:\n      tag_33\n      0x04\n      dup1\n      calldatasize\n      sub\n      dup2\n      add\n      swap1\n      tag_34\n      swap2\n      swap1\n      tag_15\n      jump\t// in\n    tag_34:\n      tag_35\n      jump\t// in\n    tag_33:\n      mload(0x40)\n      tag_36\n      swap2\n      swap1\n      tag_37\n      jump\t// in\n    tag_36:\n      mload(0x40)\n      dup1\n      swap2\n      sub\n      swap1\n      return\n        /* \"Desktop/development/smart contract/SwapCryptoLoanUpdate/contracts/facets/PriceOracleFacet.sol\":2102:2262  function setPythia(address _pythia) external onlyOwner {... */\n    tag_9:\n      tag_38\n      0x04\n      dup1\n      calldatasize\n      sub\n      dup2\n      add\n      swap1\n      tag_39\n      swap2\n      swap1\n      tag_19\n      jump\t// in\n    tag_39:\n      tag_40\n      jump\t// in\n    tag_38:\n      stop\n        /* \"Desktop/development/smart contract/SwapCryptoLoanUpdate/contracts/facets/PriceOracleFacet.sol\":1922:2096  function getStakingAndBuyingTokenPrices()... */\n    tag_10:\n      tag_41\n      tag_42\n      jump\t// in\n    tag_41:\n      mload(0x40)\n      tag_43\n      swap3\n      swap2\n      swap1\n      tag_44\n      jump\t// in\n    tag_43:\n      mload(0x40)\n      dup1\n      swap2\n      sub\n      swap1\n      return\n        /* \"Desktop/development/smart contract/SwapCryptoLoanUpdate/contracts/facets/PriceOracleFacet.sol\":1543:1667  function price(string memory _ticker) external view returns (uint) {... */\n    tag_11:\n      tag_45\n      0x04\n      dup1\n      calldatasize\n      sub\n      dup2\n      add\n      swap1\n      tag_46\n      swap2\n      swap1\n      tag_15\n      jump\t// in\n    tag_46:\n      tag_47\n      jump\t// in\n    tag_45:\n      mload(0x40)\n      tag_48\n      swap2\n      swap1\n      tag_49\n      jump\t// in\n    tag_48:\n      mload(0x40)\n      dup1\n      swap2\n      sub\n      swap1\n      return\n        /* \"Desktop/development/smart contract/SwapCryptoLoanUpdate/contracts/facets/PriceOracleFacet.sol\":1797:1916  function setNairaUSDTicker(string memory _ticker) external onlyOwner {... */\n    tag_16:\n        /* \"Desktop/development/smart contract/SwapCryptoLoanUpdate/contracts/facets/PriceOracleFacet.sol\":588:614  LibDiamond.contractOwner() */\n      tag_51\n        /* \"Desktop/development/smart contract/SwapCryptoLoanUpdate/contracts/facets/PriceOracleFacet.sol\":588:612  LibDiamond.contractOwner */\n      tag_52\n        /* \"Desktop/development/smart contract/SwapCryptoLoanUpdate/contracts/facets/PriceOracleFacet.sol\":588:614  LibDiamond.contractOwner() */\n      jump\t// in\n    tag_51:\n        /* \"Desktop/development/smart contract/SwapCryptoLoanUpdate/contracts/facets/PriceOracleFacet.sol\":574:614  msg.sender == LibDiamond.contractOwner() */\n      0xffffffffffffffffffffffffffffffffffffffff\n      and\n        /* \"Desktop/development/smart contract/SwapCryptoLoanUpdate/contracts/facets/PriceOracleFacet.sol\":574:584  msg.sender */\n      caller\n        /* \"Desktop/development/smart contract/SwapCryptoLoanUpdate/contracts/facets/PriceOracleFacet.sol\":574:614  msg.sender == LibDiamond.contractOwner() */\n      0xffffffffffffffffffffffffffffffffffffffff\n      and\n      eq\n        /* \"Desktop/development/smart contract/SwapCryptoLoanUpdate/contracts/facets/PriceOracleFacet.sol\":553:677  require(... */\n      tag_53\n      jumpi\n      mload(0x40)\n      0x08c379a000000000000000000000000000000000000000000000000000000000\n      dup2\n      mstore\n      0x04\n      add\n      tag_54\n      swap1\n      tag_55\n      jump\t// in\n    tag_54:\n      mload(0x40)\n      dup1\n      swap2\n      sub\n      swap1\n      revert\n    tag_53:\n        /* \"Desktop/development/smart contract/SwapCryptoLoanUpdate/contracts/facets/PriceOracleFacet.sol\":1886:1890  this */\n      address\n        /* \"Desktop/development/smart contract/SwapCryptoLoanUpdate/contracts/facets/PriceOracleFacet.sol\":1886:1900  this.converter */\n      0xffffffffffffffffffffffffffffffffffffffff\n      and\n      0x94a72f1c\n        /* \"Desktop/development/smart contract/SwapCryptoLoanUpdate/contracts/facets/PriceOracleFacet.sol\":1901:1908  _ticker */\n      dup3\n        /* \"Desktop/development/smart contract/SwapCryptoLoanUpdate/contracts/facets/PriceOracleFacet.sol\":1886:1909  this.converter(_ticker) */\n      mload(0x40)\n      dup3\n      0xffffffff\n      and\n      0xe0\n      shl\n      dup2\n      mstore\n      0x04\n      add\n      tag_57\n      swap2\n      swap1\n      tag_58\n      jump\t// in\n    tag_57:\n      0x00\n      mload(0x40)\n      dup1\n      dup4\n      sub\n      dup2\n      dup7\n      gas\n      staticcall\n      iszero\n      dup1\n      iszero\n      tag_60\n      jumpi\n      returndatasize\n      0x00\n      dup1\n      returndatacopy\n      revert(0x00, returndatasize)\n    tag_60:\n      pop\n      pop\n      pop\n      pop\n      mload(0x40)\n      returndatasize\n      0x00\n      dup3\n      returndatacopy\n      returndatasize\n      not(0x1f)\n      0x1f\n      dup3\n      add\n      and\n      dup3\n      add\n      dup1\n      0x40\n      mstore\n      pop\n      dup2\n      add\n      swap1\n      tag_61\n      swap2\n      swap1\n      tag_62\n      jump\t// in\n    tag_61:\n        /* \"Desktop/development/smart contract/SwapCryptoLoanUpdate/contracts/facets/PriceOracleFacet.sol\":1876:1877  s */\n      0x00\n        /* \"Desktop/development/smart contract/SwapCryptoLoanUpdate/contracts/facets/PriceOracleFacet.sol\":1876:1883  s.naira */\n      0x3d\n      add\n        /* \"Desktop/development/smart contract/SwapCryptoLoanUpdate/contracts/facets/PriceOracleFacet.sol\":1876:1909  s.naira = this.converter(_ticker) */\n      swap1\n      dup2\n      tag_63\n      swap2\n      swap1\n      tag_64\n      jump\t// in\n    tag_63:\n      pop\n        /* \"Desktop/development/smart contract/SwapCryptoLoanUpdate/contracts/facets/PriceOracleFacet.sol\":1797:1916  function setNairaUSDTicker(string memory _ticker) external onlyOwner {... */\n      pop\n      jump\t// out\n        /* \"Desktop/development/smart contract/SwapCryptoLoanUpdate/contracts/facets/PriceOracleFacet.sol\":2268:2437  function suspendPythia(address _pythia) external onlyOwner {... */\n    tag_20:\n        /* \"Desktop/development/smart contract/SwapCryptoLoanUpdate/contracts/facets/PriceOracleFacet.sol\":588:614  LibDiamond.contractOwner() */\n      tag_66\n        /* \"Desktop/development/smart contract/SwapCryptoLoanUpdate/contracts/facets/PriceOracleFacet.sol\":588:612  LibDiamond.contractOwner */\n      tag_52\n        /* \"Desktop/development/smart contract/SwapCryptoLoanUpdate/contracts/facets/PriceOracleFacet.sol\":588:614  LibDiamond.contractOwner() */\n      jump\t// in\n    tag_66:\n        /* \"Desktop/development/smart contract/SwapCryptoLoanUpdate/contracts/facets/PriceOracleFacet.sol\":574:614  msg.sender == LibDiamond.contractOwner() */\n      0xffffffffffffffffffffffffffffffffffffffff\n      and\n        /* \"Desktop/development/smart contract/SwapCryptoLoanUpdate/contracts/facets/PriceOracleFacet.sol\":574:584  msg.sender */\n      caller\n        /* \"Desktop/development/smart contract/SwapCryptoLoanUpdate/contracts/facets/PriceOracleFacet.sol\":574:614  msg.sender == LibDiamond.contractOwner() */\n      0xffffffffffffffffffffffffffffffffffffffff\n      and\n      eq\n        /* \"Desktop/development/smart contract/SwapCryptoLoanUpdate/contracts/facets/PriceOracleFacet.sol\":553:677  require(... */\n      tag_67\n      jumpi\n      mload(0x40)\n      0x08c379a000000000000000000000000000000000000000000000000000000000\n      dup2\n      mstore\n      0x04\n      add\n      tag_68\n      swap1\n      tag_55\n      jump\t// in\n    tag_68:\n      mload(0x40)\n      dup1\n      swap2\n      sub\n      swap1\n      revert\n    tag_67:\n        /* \"Desktop/development/smart contract/SwapCryptoLoanUpdate/contracts/facets/PriceOracleFacet.sol\":2357:2362  false */\n      0x00\n        /* \"Desktop/development/smart contract/SwapCryptoLoanUpdate/contracts/facets/PriceOracleFacet.sol\":2337:2338  s */\n      dup1\n        /* \"Desktop/development/smart contract/SwapCryptoLoanUpdate/contracts/facets/PriceOracleFacet.sol\":2337:2345  s.pythia */\n      0x01\n      add\n        /* \"Desktop/development/smart contract/SwapCryptoLoanUpdate/contracts/facets/PriceOracleFacet.sol\":2337:2354  s.pythia[_pythia] */\n      0x00\n        /* \"Desktop/development/smart contract/SwapCryptoLoanUpdate/contracts/facets/PriceOracleFacet.sol\":2346:2353  _pythia */\n      dup4\n        /* \"Desktop/development/smart contract/SwapCryptoLoanUpdate/contracts/facets/PriceOracleFacet.sol\":2337:2354  s.pythia[_pythia] */\n      0xffffffffffffffffffffffffffffffffffffffff\n      and\n      0xffffffffffffffffffffffffffffffffffffffff\n      and\n      dup2\n      mstore\n      0x20\n      add\n      swap1\n      dup2\n      mstore\n      0x20\n      add\n      0x00\n      keccak256\n      0x00\n        /* \"Desktop/development/smart contract/SwapCryptoLoanUpdate/contracts/facets/PriceOracleFacet.sol\":2337:2362  s.pythia[_pythia] = false */\n      0x0100\n      exp\n      dup2\n      sload\n      dup2\n      0xff\n      mul\n      not\n      and\n      swap1\n      dup4\n      iszero\n      iszero\n      mul\n      or\n      swap1\n      sstore\n      pop\n        /* \"Desktop/development/smart contract/SwapCryptoLoanUpdate/contracts/facets/PriceOracleFacet.sol\":2377:2430  PythiaSuspended(_pythia, msg.sender, block.timestamp) */\n      0xb3d5aa2917b85a4687df1a925388b77def36a6b799246cdd492b4fd402c6be7b\n        /* \"Desktop/development/smart contract/SwapCryptoLoanUpdate/contracts/facets/PriceOracleFacet.sol\":2393:2400  _pythia */\n      dup2\n        /* \"Desktop/development/smart contract/SwapCryptoLoanUpdate/contracts/facets/PriceOracleFacet.sol\":2402:2412  msg.sender */\n      caller\n        /* \"Desktop/development/smart contract/SwapCryptoLoanUpdate/contracts/facets/PriceOracleFacet.sol\":2414:2429  block.timestamp */\n      timestamp\n        /* \"Desktop/development/smart contract/SwapCryptoLoanUpdate/contracts/facets/PriceOracleFacet.sol\":2377:2430  PythiaSuspended(_pythia, msg.sender, block.timestamp) */\n      mload(0x40)\n      tag_70\n      swap4\n      swap3\n      swap2\n      swap1\n      tag_71\n      jump\t// in\n    tag_70:\n      mload(0x40)\n      dup1\n      swap2\n      sub\n      swap1\n      log1\n        /* \"Desktop/development/smart contract/SwapCryptoLoanUpdate/contracts/facets/PriceOracleFacet.sol\":2268:2437  function suspendPythia(address _pythia) external onlyOwner {... */\n      pop\n      jump\t// out\n        /* \"Desktop/development/smart contract/SwapCryptoLoanUpdate/contracts/facets/PriceOracleFacet.sol\":1432:1537  function isPythia(address _pythia) external view returns (bool) {... */\n    tag_23:\n        /* \"Desktop/development/smart contract/SwapCryptoLoanUpdate/contracts/facets/PriceOracleFacet.sol\":1490:1494  bool */\n      0x00\n        /* \"Desktop/development/smart contract/SwapCryptoLoanUpdate/contracts/facets/PriceOracleFacet.sol\":1513:1514  s */\n      dup1\n        /* \"Desktop/development/smart contract/SwapCryptoLoanUpdate/contracts/facets/PriceOracleFacet.sol\":1513:1521  s.pythia */\n      0x01\n      add\n        /* \"Desktop/development/smart contract/SwapCryptoLoanUpdate/contracts/facets/PriceOracleFacet.sol\":1513:1530  s.pythia[_pythia] */\n      0x00\n        /* \"Desktop/development/smart contract/SwapCryptoLoanUpdate/contracts/facets/PriceOracleFacet.sol\":1522:1529  _pythia */\n      dup4\n        /* \"Desktop/development/smart contract/SwapCryptoLoanUpdate/contracts/facets/PriceOracleFacet.sol\":1513:1530  s.pythia[_pythia] */\n      0xffffffffffffffffffffffffffffffffffffffff\n      and\n      0xffffffffffffffffffffffffffffffffffffffff\n      and\n      dup2\n      mstore\n      0x20\n      add\n      swap1\n      dup2\n      mstore\n      0x20\n      add\n      0x00\n      keccak256\n      0x00\n      swap1\n      sload\n      swap1\n      0x0100\n      exp\n      swap1\n      div\n      0xff\n      and\n        /* \"Desktop/development/smart contract/SwapCryptoLoanUpdate/contracts/facets/PriceOracleFacet.sol\":1506:1530  return s.pythia[_pythia] */\n      swap1\n      pop\n        /* \"Desktop/development/smart contract/SwapCryptoLoanUpdate/contracts/facets/PriceOracleFacet.sol\":1432:1537  function isPythia(address _pythia) external view returns (bool) {... */\n      swap2\n      swap1\n      pop\n      jump\t// out\n        /* \"Desktop/development/smart contract/SwapCryptoLoanUpdate/contracts/facets/PriceOracleFacet.sol\":828:1426  function updateTickerPrices(... */\n    tag_29:\n        /* \"Desktop/development/smart contract/SwapCryptoLoanUpdate/contracts/facets/PriceOracleFacet.sol\":741:742  s */\n      0x00\n        /* \"Desktop/development/smart contract/SwapCryptoLoanUpdate/contracts/facets/PriceOracleFacet.sol\":741:749  s.pythia */\n      0x01\n      add\n        /* \"Desktop/development/smart contract/SwapCryptoLoanUpdate/contracts/facets/PriceOracleFacet.sol\":741:761  s.pythia[msg.sender] */\n      0x00\n        /* \"Desktop/development/smart contract/SwapCryptoLoanUpdate/contracts/facets/PriceOracleFacet.sol\":750:760  msg.sender */\n      caller\n        /* \"Desktop/development/smart contract/SwapCryptoLoanUpdate/contracts/facets/PriceOracleFacet.sol\":741:761  s.pythia[msg.sender] */\n      0xffffffffffffffffffffffffffffffffffffffff\n      and\n      0xffffffffffffffffffffffffffffffffffffffff\n      and\n      dup2\n      mstore\n      0x20\n      add\n      swap1\n      dup2\n      mstore\n      0x20\n      add\n      0x00\n      keccak256\n      0x00\n      swap1\n      sload\n      swap1\n      0x0100\n      exp\n      swap1\n      div\n      0xff\n      and\n        /* \"Desktop/development/smart contract/SwapCryptoLoanUpdate/contracts/facets/PriceOracleFacet.sol\":733:804  require(s.pythia[msg.sender], \"Access denied. Only Pythia is allowed!\") */\n      tag_74\n      jumpi\n      mload(0x40)\n      0x08c379a000000000000000000000000000000000000000000000000000000000\n      dup2\n      mstore\n      0x04\n      add\n      tag_75\n      swap1\n      tag_76\n      jump\t// in\n    tag_75:\n      mload(0x40)\n      dup1\n      swap2\n      sub\n      swap1\n      revert\n    tag_74:\n        /* \"Desktop/development/smart contract/SwapCryptoLoanUpdate/contracts/facets/PriceOracleFacet.sol\":1003:1011  _tickers */\n      dup2\n      dup2\n        /* \"Desktop/development/smart contract/SwapCryptoLoanUpdate/contracts/facets/PriceOracleFacet.sol\":1003:1018  _tickers.length */\n      swap1\n      pop\n        /* \"Desktop/development/smart contract/SwapCryptoLoanUpdate/contracts/facets/PriceOracleFacet.sol\":985:992  _prices */\n      dup5\n      dup5\n        /* \"Desktop/development/smart contract/SwapCryptoLoanUpdate/contracts/facets/PriceOracleFacet.sol\":985:999  _prices.length */\n      swap1\n      pop\n        /* \"Desktop/development/smart contract/SwapCryptoLoanUpdate/contracts/facets/PriceOracleFacet.sol\":985:1018  _prices.length == _tickers.length */\n      eq\n        /* \"Desktop/development/smart contract/SwapCryptoLoanUpdate/contracts/facets/PriceOracleFacet.sol\":964:1086  require(... */\n      tag_78\n      jumpi\n      mload(0x40)\n      0x08c379a000000000000000000000000000000000000000000000000000000000\n      dup2\n      mstore\n      0x04\n      add\n      tag_79\n      swap1\n      tag_80\n      jump\t// in\n    tag_79:\n      mload(0x40)\n      dup1\n      swap2\n      sub\n      swap1\n      revert\n    tag_78:\n        /* \"Desktop/development/smart contract/SwapCryptoLoanUpdate/contracts/facets/PriceOracleFacet.sol\":1101:1110  uint256 i */\n      0x00\n        /* \"Desktop/development/smart contract/SwapCryptoLoanUpdate/contracts/facets/PriceOracleFacet.sol\":1096:1375  for (uint256 i; i < _prices.length; i++) {... */\n    tag_81:\n        /* \"Desktop/development/smart contract/SwapCryptoLoanUpdate/contracts/facets/PriceOracleFacet.sol\":1116:1123  _prices */\n      dup5\n      dup5\n        /* \"Desktop/development/smart contract/SwapCryptoLoanUpdate/contracts/facets/PriceOracleFacet.sol\":1116:1130  _prices.length */\n      swap1\n      pop\n        /* \"Desktop/development/smart contract/SwapCryptoLoanUpdate/contracts/facets/PriceOracleFacet.sol\":1112:1113  i */\n      dup2\n        /* \"Desktop/development/smart contract/SwapCryptoLoanUpdate/contracts/facets/PriceOracleFacet.sol\":1112:1130  i < _prices.length */\n      lt\n        /* \"Desktop/development/smart contract/SwapCryptoLoanUpdate/contracts/facets/PriceOracleFacet.sol\":1096:1375  for (uint256 i; i < _prices.length; i++) {... */\n      iszero\n      tag_82\n      jumpi\n        /* \"Desktop/development/smart contract/SwapCryptoLoanUpdate/contracts/facets/PriceOracleFacet.sol\":1191:1198  _prices */\n      dup5\n      dup5\n        /* \"Desktop/development/smart contract/SwapCryptoLoanUpdate/contracts/facets/PriceOracleFacet.sol\":1199:1200  i */\n      dup3\n        /* \"Desktop/development/smart contract/SwapCryptoLoanUpdate/contracts/facets/PriceOracleFacet.sol\":1191:1201  _prices[i] */\n      dup2\n      dup2\n      lt\n      tag_84\n      jumpi\n      tag_85\n      tag_86\n      jump\t// in\n    tag_85:\n    tag_84:\n      swap1\n      pop\n      0x20\n      mul\n      add\n      calldataload\n        /* \"Desktop/development/smart contract/SwapCryptoLoanUpdate/contracts/facets/PriceOracleFacet.sol\":1151:1152  s */\n      0x00\n        /* \"Desktop/development/smart contract/SwapCryptoLoanUpdate/contracts/facets/PriceOracleFacet.sol\":1151:1159  s.ticker */\n      dup1\n      add\n        /* \"Desktop/development/smart contract/SwapCryptoLoanUpdate/contracts/facets/PriceOracleFacet.sol\":1160:1164  this */\n      address\n        /* \"Desktop/development/smart contract/SwapCryptoLoanUpdate/contracts/facets/PriceOracleFacet.sol\":1160:1174  this.converter */\n      0xffffffffffffffffffffffffffffffffffffffff\n      and\n      0x94a72f1c\n        /* \"Desktop/development/smart contract/SwapCryptoLoanUpdate/contracts/facets/PriceOracleFacet.sol\":1175:1183  _tickers */\n      dup7\n      dup7\n        /* \"Desktop/development/smart contract/SwapCryptoLoanUpdate/contracts/facets/PriceOracleFacet.sol\":1184:1185  i */\n      dup7\n        /* \"Desktop/development/smart contract/SwapCryptoLoanUpdate/contracts/facets/PriceOracleFacet.sol\":1175:1186  _tickers[i] */\n      dup2\n      dup2\n      lt\n      tag_87\n      jumpi\n      tag_88\n      tag_86\n      jump\t// in\n    tag_88:\n    tag_87:\n      swap1\n      pop\n      0x20\n      mul\n      dup2\n      add\n      swap1\n      tag_89\n      swap2\n      swap1\n      tag_90\n      jump\t// in\n    tag_89:\n        /* \"Desktop/development/smart contract/SwapCryptoLoanUpdate/contracts/facets/PriceOracleFacet.sol\":1160:1187  this.converter(_tickers[i]) */\n      mload(0x40)\n      dup4\n      0xffffffff\n      and\n      0xe0\n      shl\n      dup2\n      mstore\n      0x04\n      add\n      tag_91\n      swap3\n      swap2\n      swap1\n      tag_92\n      jump\t// in\n    tag_91:\n      0x00\n      mload(0x40)\n      dup1\n      dup4\n      sub\n      dup2\n      dup7\n      gas\n      staticcall\n      iszero\n      dup1\n      iszero\n      tag_94\n      jumpi\n      returndatasize\n      0x00\n      dup1\n      returndatacopy\n      revert(0x00, returndatasize)\n    tag_94:\n      pop\n      pop\n      pop\n      pop\n      mload(0x40)\n      returndatasize\n      0x00\n      dup3\n      returndatacopy\n      returndatasize\n      not(0x1f)\n      0x1f\n      dup3\n      add\n      and\n      dup3\n      add\n      dup1\n      0x40\n      mstore\n      pop\n      dup2\n      add\n      swap1\n      tag_95\n      swap2\n      swap1\n      tag_62\n      jump\t// in\n    tag_95:\n        /* \"Desktop/development/smart contract/SwapCryptoLoanUpdate/contracts/facets/PriceOracleFacet.sol\":1151:1188  s.ticker[this.converter(_tickers[i])] */\n      mload(0x40)\n      tag_96\n      swap2\n      swap1\n      tag_97\n      jump\t// in\n    tag_96:\n      swap1\n      dup2\n      mstore\n      0x20\n      add\n      mload(0x40)\n      dup1\n      swap2\n      sub\n      swap1\n      keccak256\n        /* \"Desktop/development/smart contract/SwapCryptoLoanUpdate/contracts/facets/PriceOracleFacet.sol\":1151:1201  s.ticker[this.converter(_tickers[i])] = _prices[i] */\n      dup2\n      swap1\n      sstore\n      pop\n        /* \"Desktop/development/smart contract/SwapCryptoLoanUpdate/contracts/facets/PriceOracleFacet.sol\":1220:1364  PriceUpdated(... */\n      0x89186bbd353809bcc0aa77843d6ea72e488b7fd552bfe5afb4006dc6cd6fe6a3\n        /* \"Desktop/development/smart contract/SwapCryptoLoanUpdate/contracts/facets/PriceOracleFacet.sol\":1250:1258  _tickers */\n      dup4\n      dup4\n        /* \"Desktop/development/smart contract/SwapCryptoLoanUpdate/contracts/facets/PriceOracleFacet.sol\":1259:1260  i */\n      dup4\n        /* \"Desktop/development/smart contract/SwapCryptoLoanUpdate/contracts/facets/PriceOracleFacet.sol\":1250:1261  _tickers[i] */\n      dup2\n      dup2\n      lt\n      tag_98\n      jumpi\n      tag_99\n      tag_86\n      jump\t// in\n    tag_99:\n    tag_98:\n      swap1\n      pop\n      0x20\n      mul\n      dup2\n      add\n      swap1\n      tag_100\n      swap2\n      swap1\n      tag_90\n      jump\t// in\n    tag_100:\n        /* \"Desktop/development/smart contract/SwapCryptoLoanUpdate/contracts/facets/PriceOracleFacet.sol\":1279:1286  _prices */\n      dup8\n      dup8\n        /* \"Desktop/development/smart contract/SwapCryptoLoanUpdate/contracts/facets/PriceOracleFacet.sol\":1287:1288  i */\n      dup6\n        /* \"Desktop/development/smart contract/SwapCryptoLoanUpdate/contracts/facets/PriceOracleFacet.sol\":1279:1289  _prices[i] */\n      dup2\n      dup2\n      lt\n      tag_101\n      jumpi\n      tag_102\n      tag_86\n      jump\t// in\n    tag_102:\n    tag_101:\n      swap1\n      pop\n      0x20\n      mul\n      add\n      calldataload\n        /* \"Desktop/development/smart contract/SwapCryptoLoanUpdate/contracts/facets/PriceOracleFacet.sol\":1307:1317  msg.sender */\n      caller\n        /* \"Desktop/development/smart contract/SwapCryptoLoanUpdate/contracts/facets/PriceOracleFacet.sol\":1335:1350  block.timestamp */\n      timestamp\n        /* \"Desktop/development/smart contract/SwapCryptoLoanUpdate/contracts/facets/PriceOracleFacet.sol\":1220:1364  PriceUpdated(... */\n      mload(0x40)\n      tag_103\n      swap6\n      swap5\n      swap4\n      swap3\n      swap2\n      swap1\n      tag_104\n      jump\t// in\n    tag_103:\n      mload(0x40)\n      dup1\n      swap2\n      sub\n      swap1\n      log1\n        /* \"Desktop/development/smart contract/SwapCryptoLoanUpdate/contracts/facets/PriceOracleFacet.sol\":1132:1135  i++ */\n      dup1\n      dup1\n      0x01\n      add\n      swap2\n      pop\n      pop\n        /* \"Desktop/development/smart contract/SwapCryptoLoanUpdate/contracts/facets/PriceOracleFacet.sol\":1096:1375  for (uint256 i; i < _prices.length; i++) {... */\n      jump(tag_81)\n    tag_82:\n      pop\n        /* \"Desktop/development/smart contract/SwapCryptoLoanUpdate/contracts/facets/PriceOracleFacet.sol\":1389:1419  PrinceChanged(block.timestamp) */\n      0xbad13593cf14db38c871d023e850302b404aef491d5e3f41ab7aebaafab6ecda\n        /* \"Desktop/development/smart contract/SwapCryptoLoanUpdate/contracts/facets/PriceOracleFacet.sol\":1403:1418  block.timestamp */\n      timestamp\n        /* \"Desktop/development/smart contract/SwapCryptoLoanUpdate/contracts/facets/PriceOracleFacet.sol\":1389:1419  PrinceChanged(block.timestamp) */\n      mload(0x40)\n      tag_105\n      swap2\n      swap1\n      tag_49\n      jump\t// in\n    tag_105:\n      mload(0x40)\n      dup1\n      swap2\n      sub\n      swap1\n      log1\n        /* \"Desktop/development/smart contract/SwapCryptoLoanUpdate/contracts/facets/PriceOracleFacet.sol\":828:1426  function updateTickerPrices(... */\n      pop\n      pop\n      pop\n      pop\n      jump\t// out\n        /* \"Desktop/development/smart contract/SwapCryptoLoanUpdate/contracts/facets/PriceOracleFacet.sol\":1673:1791  function setEGCUSDTicker(string memory _ticker) external onlyOwner {... */\n    tag_32:\n        /* \"Desktop/development/smart contract/SwapCryptoLoanUpdate/contracts/facets/PriceOracleFacet.sol\":588:614  LibDiamond.contractOwner() */\n      tag_107\n        /* \"Desktop/development/smart contract/SwapCryptoLoanUpdate/contracts/facets/PriceOracleFacet.sol\":588:612  LibDiamond.contractOwner */\n      tag_52\n        /* \"Desktop/development/smart contract/SwapCryptoLoanUpdate/contracts/facets/PriceOracleFacet.sol\":588:614  LibDiamond.contractOwner() */\n      jump\t// in\n    tag_107:\n        /* \"Desktop/development/smart contract/SwapCryptoLoanUpdate/contracts/facets/PriceOracleFacet.sol\":574:614  msg.sender == LibDiamond.contractOwner() */\n      0xffffffffffffffffffffffffffffffffffffffff\n      and\n        /* \"Desktop/development/smart contract/SwapCryptoLoanUpdate/contracts/facets/PriceOracleFacet.sol\":574:584  msg.sender */\n      caller\n        /* \"Desktop/development/smart contract/SwapCryptoLoanUpdate/contracts/facets/PriceOracleFacet.sol\":574:614  msg.sender == LibDiamond.contractOwner() */\n      0xffffffffffffffffffffffffffffffffffffffff\n      and\n      eq\n        /* \"Desktop/development/smart contract/SwapCryptoLoanUpdate/contracts/facets/PriceOracleFacet.sol\":553:677  require(... */\n      tag_108\n      jumpi\n      mload(0x40)\n      0x08c379a000000000000000000000000000000000000000000000000000000000\n      dup2\n      mstore\n      0x04\n      add\n      tag_109\n      swap1\n      tag_55\n      jump\t// in\n    tag_109:\n      mload(0x40)\n      dup1\n      swap2\n      sub\n      swap1\n      revert\n    tag_108:\n        /* \"Desktop/development/smart contract/SwapCryptoLoanUpdate/contracts/facets/PriceOracleFacet.sol\":1761:1765  this */\n      address\n        /* \"Desktop/development/smart contract/SwapCryptoLoanUpdate/contracts/facets/PriceOracleFacet.sol\":1761:1775  this.converter */\n      0xffffffffffffffffffffffffffffffffffffffff\n      and\n      0x94a72f1c\n        /* \"Desktop/development/smart contract/SwapCryptoLoanUpdate/contracts/facets/PriceOracleFacet.sol\":1776:1783  _ticker */\n      dup3\n        /* \"Desktop/development/smart contract/SwapCryptoLoanUpdate/contracts/facets/PriceOracleFacet.sol\":1761:1784  this.converter(_ticker) */\n      mload(0x40)\n      dup3\n      0xffffffff\n      and\n      0xe0\n      shl\n      dup2\n      mstore\n      0x04\n      add\n      tag_111\n      swap2\n      swap1\n      tag_58\n      jump\t// in\n    tag_111:\n      0x00\n      mload(0x40)\n      dup1\n      dup4\n      sub\n      dup2\n      dup7\n      gas\n      staticcall\n      iszero\n      dup1\n      iszero\n      tag_113\n      jumpi\n      returndatasize\n      0x00\n      dup1\n      returndatacopy\n      revert(0x00, returndatasize)\n    tag_113:\n      pop\n      pop\n      pop\n      pop\n      mload(0x40)\n      returndatasize\n      0x00\n      dup3\n      returndatacopy\n      returndatasize\n      not(0x1f)\n      0x1f\n      dup3\n      add\n      and\n      dup3\n      add\n      dup1\n      0x40\n      mstore\n      pop\n      dup2\n      add\n      swap1\n      tag_114\n      swap2\n      swap1\n      tag_62\n      jump\t// in\n    tag_114:\n        /* \"Desktop/development/smart contract/SwapCryptoLoanUpdate/contracts/facets/PriceOracleFacet.sol\":1750:1751  s */\n      0x00\n        /* \"Desktop/development/smart contract/SwapCryptoLoanUpdate/contracts/facets/PriceOracleFacet.sol\":1750:1758  s.egcusd */\n      0x06\n      add\n        /* \"Desktop/development/smart contract/SwapCryptoLoanUpdate/contracts/facets/PriceOracleFacet.sol\":1750:1784  s.egcusd = this.converter(_ticker) */\n      swap1\n      dup2\n      tag_115\n      swap2\n      swap1\n      tag_64\n      jump\t// in\n    tag_115:\n      pop\n        /* \"Desktop/development/smart contract/SwapCryptoLoanUpdate/contracts/facets/PriceOracleFacet.sol\":1673:1791  function setEGCUSDTicker(string memory _ticker) external onlyOwner {... */\n      pop\n      jump\t// out\n        /* \"Desktop/development/smart contract/SwapCryptoLoanUpdate/contracts/facets/PriceOracleFacet.sol\":2443:2581  function converter(... */\n    tag_35:\n        /* \"Desktop/development/smart contract/SwapCryptoLoanUpdate/contracts/facets/PriceOracleFacet.sol\":2522:2534  bytes memory */\n      0x60\n        /* \"Desktop/development/smart contract/SwapCryptoLoanUpdate/contracts/facets/PriceOracleFacet.sol\":2559:2573  upper(_source) */\n      tag_117\n        /* \"Desktop/development/smart contract/SwapCryptoLoanUpdate/contracts/facets/PriceOracleFacet.sol\":2565:2572  _source */\n      dup3\n        /* \"Desktop/development/smart contract/SwapCryptoLoanUpdate/contracts/facets/PriceOracleFacet.sol\":2559:2564  upper */\n      tag_118\n        /* \"Desktop/development/smart contract/SwapCryptoLoanUpdate/contracts/facets/PriceOracleFacet.sol\":2559:2573  upper(_source) */\n      jump\t// in\n    tag_117:\n        /* \"Desktop/development/smart contract/SwapCryptoLoanUpdate/contracts/facets/PriceOracleFacet.sol\":2546:2574  return bytes(upper(_source)) */\n      swap1\n      pop\n        /* \"Desktop/development/smart contract/SwapCryptoLoanUpdate/contracts/facets/PriceOracleFacet.sol\":2443:2581  function converter(... */\n      swap2\n      swap1\n      pop\n      jump\t// out\n        /* \"Desktop/development/smart contract/SwapCryptoLoanUpdate/contracts/facets/PriceOracleFacet.sol\":2102:2262  function setPythia(address _pythia) external onlyOwner {... */\n    tag_40:\n        /* \"Desktop/development/smart contract/SwapCryptoLoanUpdate/contracts/facets/PriceOracleFacet.sol\":588:614  LibDiamond.contractOwner() */\n      tag_120\n        /* \"Desktop/development/smart contract/SwapCryptoLoanUpdate/contracts/facets/PriceOracleFacet.sol\":588:612  LibDiamond.contractOwner */\n      tag_52\n        /* \"Desktop/development/smart contract/SwapCryptoLoanUpdate/contracts/facets/PriceOracleFacet.sol\":588:614  LibDiamond.contractOwner() */\n      jump\t// in\n    tag_120:\n        /* \"Desktop/development/smart contract/SwapCryptoLoanUpdate/contracts/facets/PriceOracleFacet.sol\":574:614  msg.sender == LibDiamond.contractOwner() */\n      0xffffffffffffffffffffffffffffffffffffffff\n      and\n        /* \"Desktop/development/smart contract/SwapCryptoLoanUpdate/contracts/facets/PriceOracleFacet.sol\":574:584  msg.sender */\n      caller\n        /* \"Desktop/development/smart contract/SwapCryptoLoanUpdate/contracts/facets/PriceOracleFacet.sol\":574:614  msg.sender == LibDiamond.contractOwner() */\n      0xffffffffffffffffffffffffffffffffffffffff\n      and\n      eq\n        /* \"Desktop/development/smart contract/SwapCryptoLoanUpdate/contracts/facets/PriceOracleFacet.sol\":553:677  require(... */\n      tag_121\n      jumpi\n      mload(0x40)\n      0x08c379a000000000000000000000000000000000000000000000000000000000\n      dup2\n      mstore\n      0x04\n      add\n      tag_122\n      swap1\n      tag_55\n      jump\t// in\n    tag_122:\n      mload(0x40)\n      dup1\n      swap2\n      sub\n      swap1\n      revert\n    tag_121:\n        /* \"Desktop/development/smart contract/SwapCryptoLoanUpdate/contracts/facets/PriceOracleFacet.sol\":2187:2191  true */\n      0x01\n        /* \"Desktop/development/smart contract/SwapCryptoLoanUpdate/contracts/facets/PriceOracleFacet.sol\":2167:2168  s */\n      0x00\n        /* \"Desktop/development/smart contract/SwapCryptoLoanUpdate/contracts/facets/PriceOracleFacet.sol\":2167:2175  s.pythia */\n      0x01\n      add\n        /* \"Desktop/development/smart contract/SwapCryptoLoanUpdate/contracts/facets/PriceOracleFacet.sol\":2167:2184  s.pythia[_pythia] */\n      0x00\n        /* \"Desktop/development/smart contract/SwapCryptoLoanUpdate/contracts/facets/PriceOracleFacet.sol\":2176:2183  _pythia */\n      dup4\n        /* \"Desktop/development/smart contract/SwapCryptoLoanUpdate/contracts/facets/PriceOracleFacet.sol\":2167:2184  s.pythia[_pythia] */\n      0xffffffffffffffffffffffffffffffffffffffff\n      and\n      0xffffffffffffffffffffffffffffffffffffffff\n      and\n      dup2\n      mstore\n      0x20\n      add\n      swap1\n      dup2\n      mstore\n      0x20\n      add\n      0x00\n      keccak256\n      0x00\n        /* \"Desktop/development/smart contract/SwapCryptoLoanUpdate/contracts/facets/PriceOracleFacet.sol\":2167:2191  s.pythia[_pythia] = true */\n      0x0100\n      exp\n      dup2\n      sload\n      dup2\n      0xff\n      mul\n      not\n      and\n      swap1\n      dup4\n      iszero\n      iszero\n      mul\n      or\n      swap1\n      sstore\n      pop\n        /* \"Desktop/development/smart contract/SwapCryptoLoanUpdate/contracts/facets/PriceOracleFacet.sol\":2206:2255  PythiaAdded(_pythia, msg.sender, block.timestamp) */\n      0x9f47004a8a67ae0ede102ae657402045a03474bf00cf7e14f62cdbdc5af9c547\n        /* \"Desktop/development/smart contract/SwapCryptoLoanUpdate/contracts/facets/PriceOracleFacet.sol\":2218:2225  _pythia */\n      dup2\n        /* \"Desktop/development/smart contract/SwapCryptoLoanUpdate/contracts/facets/PriceOracleFacet.sol\":2227:2237  msg.sender */\n      caller\n        /* \"Desktop/development/smart contract/SwapCryptoLoanUpdate/contracts/facets/PriceOracleFacet.sol\":2239:2254  block.timestamp */\n      timestamp\n        /* \"Desktop/development/smart contract/SwapCryptoLoanUpdate/contracts/facets/PriceOracleFacet.sol\":2206:2255  PythiaAdded(_pythia, msg.sender, block.timestamp) */\n      mload(0x40)\n      tag_124\n      swap4\n      swap3\n      swap2\n      swap1\n      tag_71\n      jump\t// in\n    tag_124:\n      mload(0x40)\n      dup1\n      swap2\n      sub\n      swap1\n      log1\n        /* \"Desktop/development/smart contract/SwapCryptoLoanUpdate/contracts/facets/PriceOracleFacet.sol\":2102:2262  function setPythia(address _pythia) external onlyOwner {... */\n      pop\n      jump\t// out\n        /* \"Desktop/development/smart contract/SwapCryptoLoanUpdate/contracts/facets/PriceOracleFacet.sol\":1922:2096  function getStakingAndBuyingTokenPrices()... */\n    tag_42:\n        /* \"Desktop/development/smart contract/SwapCryptoLoanUpdate/contracts/facets/PriceOracleFacet.sol\":2011:2018  uint256 */\n      0x00\n        /* \"Desktop/development/smart contract/SwapCryptoLoanUpdate/contracts/facets/PriceOracleFacet.sol\":2020:2027  uint256 */\n      dup1\n        /* \"Desktop/development/smart contract/SwapCryptoLoanUpdate/contracts/facets/PriceOracleFacet.sol\":2051:2052  s */\n      0x00\n        /* \"Desktop/development/smart contract/SwapCryptoLoanUpdate/contracts/facets/PriceOracleFacet.sol\":2051:2059  s.ticker */\n      dup1\n      add\n        /* \"Desktop/development/smart contract/SwapCryptoLoanUpdate/contracts/facets/PriceOracleFacet.sol\":2060:2061  s */\n      0x00\n        /* \"Desktop/development/smart contract/SwapCryptoLoanUpdate/contracts/facets/PriceOracleFacet.sol\":2060:2067  s.naira */\n      0x3d\n      add\n        /* \"Desktop/development/smart contract/SwapCryptoLoanUpdate/contracts/facets/PriceOracleFacet.sol\":2051:2068  s.ticker[s.naira] */\n      mload(0x40)\n      tag_126\n      swap2\n      swap1\n      tag_127\n      jump\t// in\n    tag_126:\n      swap1\n      dup2\n      mstore\n      0x20\n      add\n      mload(0x40)\n      dup1\n      swap2\n      sub\n      swap1\n      keccak256\n      sload\n        /* \"Desktop/development/smart contract/SwapCryptoLoanUpdate/contracts/facets/PriceOracleFacet.sol\":2070:2071  s */\n      0x00\n        /* \"Desktop/development/smart contract/SwapCryptoLoanUpdate/contracts/facets/PriceOracleFacet.sol\":2070:2078  s.ticker */\n      dup1\n      add\n        /* \"Desktop/development/smart contract/SwapCryptoLoanUpdate/contracts/facets/PriceOracleFacet.sol\":2079:2080  s */\n      0x00\n        /* \"Desktop/development/smart contract/SwapCryptoLoanUpdate/contracts/facets/PriceOracleFacet.sol\":2079:2087  s.egcusd */\n      0x06\n      add\n        /* \"Desktop/development/smart contract/SwapCryptoLoanUpdate/contracts/facets/PriceOracleFacet.sol\":2070:2088  s.ticker[s.egcusd] */\n      mload(0x40)\n      tag_128\n      swap2\n      swap1\n      tag_127\n      jump\t// in\n    tag_128:\n      swap1\n      dup2\n      mstore\n      0x20\n      add\n      mload(0x40)\n      dup1\n      swap2\n      sub\n      swap1\n      keccak256\n      sload\n        /* \"Desktop/development/smart contract/SwapCryptoLoanUpdate/contracts/facets/PriceOracleFacet.sol\":2043:2089  return (s.ticker[s.naira], s.ticker[s.egcusd]) */\n      swap2\n      pop\n      swap2\n      pop\n        /* \"Desktop/development/smart contract/SwapCryptoLoanUpdate/contracts/facets/PriceOracleFacet.sol\":1922:2096  function getStakingAndBuyingTokenPrices()... */\n      swap1\n      swap2\n      jump\t// out\n        /* \"Desktop/development/smart contract/SwapCryptoLoanUpdate/contracts/facets/PriceOracleFacet.sol\":1543:1667  function price(string memory _ticker) external view returns (uint) {... */\n    tag_47:\n        /* \"Desktop/development/smart contract/SwapCryptoLoanUpdate/contracts/facets/PriceOracleFacet.sol\":1604:1608  uint */\n      0x00\n        /* \"Desktop/development/smart contract/SwapCryptoLoanUpdate/contracts/facets/PriceOracleFacet.sol\":1627:1628  s */\n      dup1\n        /* \"Desktop/development/smart contract/SwapCryptoLoanUpdate/contracts/facets/PriceOracleFacet.sol\":1627:1635  s.ticker */\n      0x00\n      add\n        /* \"Desktop/development/smart contract/SwapCryptoLoanUpdate/contracts/facets/PriceOracleFacet.sol\":1636:1640  this */\n      address\n        /* \"Desktop/development/smart contract/SwapCryptoLoanUpdate/contracts/facets/PriceOracleFacet.sol\":1636:1650  this.converter */\n      0xffffffffffffffffffffffffffffffffffffffff\n      and\n      0x94a72f1c\n        /* \"Desktop/development/smart contract/SwapCryptoLoanUpdate/contracts/facets/PriceOracleFacet.sol\":1651:1658  _ticker */\n      dup5\n        /* \"Desktop/development/smart contract/SwapCryptoLoanUpdate/contracts/facets/PriceOracleFacet.sol\":1636:1659  this.converter(_ticker) */\n      mload(0x40)\n      dup3\n      0xffffffff\n      and\n      0xe0\n      shl\n      dup2\n      mstore\n      0x04\n      add\n      tag_130\n      swap2\n      swap1\n      tag_58\n      jump\t// in\n    tag_130:\n      0x00\n      mload(0x40)\n      dup1\n      dup4\n      sub\n      dup2\n      dup7\n      gas\n      staticcall\n      iszero\n      dup1\n      iszero\n      tag_132\n      jumpi\n      returndatasize\n      0x00\n      dup1\n      returndatacopy\n      revert(0x00, returndatasize)\n    tag_132:\n      pop\n      pop\n      pop\n      pop\n      mload(0x40)\n      returndatasize\n      0x00\n      dup3\n      returndatacopy\n      returndatasize\n      not(0x1f)\n      0x1f\n      dup3\n      add\n      and\n      dup3\n      add\n      dup1\n      0x40\n      mstore\n      pop\n      dup2\n      add\n      swap1\n      tag_133\n      swap2\n      swap1\n      tag_62\n      jump\t// in\n    tag_133:\n        /* \"Desktop/development/smart contract/SwapCryptoLoanUpdate/contracts/facets/PriceOracleFacet.sol\":1627:1660  s.ticker[this.converter(_ticker)] */\n      mload(0x40)\n      tag_134\n      swap2\n      swap1\n      tag_97\n      jump\t// in\n    tag_134:\n      swap1\n      dup2\n      mstore\n      0x20\n      add\n      mload(0x40)\n      dup1\n      swap2\n      sub\n      swap1\n      keccak256\n      sload\n        /* \"Desktop/development/smart contract/SwapCryptoLoanUpdate/contracts/facets/PriceOracleFacet.sol\":1620:1660  return s.ticker[this.converter(_ticker)] */\n      swap1\n      pop\n        /* \"Desktop/development/smart contract/SwapCryptoLoanUpdate/contracts/facets/PriceOracleFacet.sol\":1543:1667  function price(string memory _ticker) external view returns (uint) {... */\n      swap2\n      swap1\n      pop\n      jump\t// out\n        /* \"Desktop/development/smart contract/SwapCryptoLoanUpdate/contracts/libraries/LibDiamond.sol\":1669:1805  function contractOwner() internal view returns (address contractOwner_) {... */\n    tag_52:\n        /* \"Desktop/development/smart contract/SwapCryptoLoanUpdate/contracts/libraries/LibDiamond.sol\":1717:1739  address contractOwner_ */\n      0x00\n        /* \"Desktop/development/smart contract/SwapCryptoLoanUpdate/contracts/libraries/LibDiamond.sol\":1768:1784  diamondStorage() */\n      tag_136\n        /* \"Desktop/development/smart contract/SwapCryptoLoanUpdate/contracts/libraries/LibDiamond.sol\":1768:1782  diamondStorage */\n      tag_137\n        /* \"Desktop/development/smart contract/SwapCryptoLoanUpdate/contracts/libraries/LibDiamond.sol\":1768:1784  diamondStorage() */\n      jump\t// in\n    tag_136:\n        /* \"Desktop/development/smart contract/SwapCryptoLoanUpdate/contracts/libraries/LibDiamond.sol\":1768:1798  diamondStorage().contractOwner */\n      0x03\n      add\n      0x00\n      swap1\n      sload\n      swap1\n      0x0100\n      exp\n      swap1\n      div\n      0xffffffffffffffffffffffffffffffffffffffff\n      and\n        /* \"Desktop/development/smart contract/SwapCryptoLoanUpdate/contracts/libraries/LibDiamond.sol\":1751:1798  contractOwner_ = diamondStorage().contractOwner */\n      swap1\n      pop\n        /* \"Desktop/development/smart contract/SwapCryptoLoanUpdate/contracts/libraries/LibDiamond.sol\":1669:1805  function contractOwner() internal view returns (address contractOwner_) {... */\n      swap1\n      jump\t// out\n        /* \"Desktop/development/smart contract/SwapCryptoLoanUpdate/contracts/facets/PriceOracleFacet.sol\":2587:2867  function upper(string memory _base) internal pure returns (string memory) {... */\n    tag_118:\n        /* \"Desktop/development/smart contract/SwapCryptoLoanUpdate/contracts/facets/PriceOracleFacet.sol\":2646:2659  string memory */\n      0x60\n        /* \"Desktop/development/smart contract/SwapCryptoLoanUpdate/contracts/facets/PriceOracleFacet.sol\":2671:2694  bytes memory _baseBytes */\n      0x00\n        /* \"Desktop/development/smart contract/SwapCryptoLoanUpdate/contracts/facets/PriceOracleFacet.sol\":2703:2708  _base */\n      dup3\n        /* \"Desktop/development/smart contract/SwapCryptoLoanUpdate/contracts/facets/PriceOracleFacet.sol\":2671:2709  bytes memory _baseBytes = bytes(_base) */\n      swap1\n      pop\n        /* \"Desktop/development/smart contract/SwapCryptoLoanUpdate/contracts/facets/PriceOracleFacet.sol\":2724:2730  uint i */\n      0x00\n        /* \"Desktop/development/smart contract/SwapCryptoLoanUpdate/contracts/facets/PriceOracleFacet.sol\":2719:2826  for (uint i = 0; i < _baseBytes.length; i++) {... */\n    tag_139:\n        /* \"Desktop/development/smart contract/SwapCryptoLoanUpdate/contracts/facets/PriceOracleFacet.sol\":2740:2750  _baseBytes */\n      dup2\n        /* \"Desktop/development/smart contract/SwapCryptoLoanUpdate/contracts/facets/PriceOracleFacet.sol\":2740:2757  _baseBytes.length */\n      mload\n        /* \"Desktop/development/smart contract/SwapCryptoLoanUpdate/contracts/facets/PriceOracleFacet.sol\":2736:2737  i */\n      dup2\n        /* \"Desktop/development/smart contract/SwapCryptoLoanUpdate/contracts/facets/PriceOracleFacet.sol\":2736:2757  i < _baseBytes.length */\n      lt\n        /* \"Desktop/development/smart contract/SwapCryptoLoanUpdate/contracts/facets/PriceOracleFacet.sol\":2719:2826  for (uint i = 0; i < _baseBytes.length; i++) {... */\n      iszero\n      tag_140\n      jumpi\n        /* \"Desktop/development/smart contract/SwapCryptoLoanUpdate/contracts/facets/PriceOracleFacet.sol\":2794:2815  _upper(_baseBytes[i]) */\n      tag_142\n        /* \"Desktop/development/smart contract/SwapCryptoLoanUpdate/contracts/facets/PriceOracleFacet.sol\":2801:2811  _baseBytes */\n      dup3\n        /* \"Desktop/development/smart contract/SwapCryptoLoanUpdate/contracts/facets/PriceOracleFacet.sol\":2812:2813  i */\n      dup3\n        /* \"Desktop/development/smart contract/SwapCryptoLoanUpdate/contracts/facets/PriceOracleFacet.sol\":2801:2814  _baseBytes[i] */\n      dup2\n      mload\n      dup2\n      lt\n      tag_143\n      jumpi\n      tag_144\n      tag_86\n      jump\t// in\n    tag_144:\n    tag_143:\n      0x20\n      add\n      add\n      mload\n      0xf8\n      shr\n      0xf8\n      shl\n        /* \"Desktop/development/smart contract/SwapCryptoLoanUpdate/contracts/facets/PriceOracleFacet.sol\":2794:2800  _upper */\n      tag_145\n        /* \"Desktop/development/smart contract/SwapCryptoLoanUpdate/contracts/facets/PriceOracleFacet.sol\":2794:2815  _upper(_baseBytes[i]) */\n      jump\t// in\n    tag_142:\n        /* \"Desktop/development/smart contract/SwapCryptoLoanUpdate/contracts/facets/PriceOracleFacet.sol\":2778:2788  _baseBytes */\n      dup3\n        /* \"Desktop/development/smart contract/SwapCryptoLoanUpdate/contracts/facets/PriceOracleFacet.sol\":2789:2790  i */\n      dup3\n        /* \"Desktop/development/smart contract/SwapCryptoLoanUpdate/contracts/facets/PriceOracleFacet.sol\":2778:2791  _baseBytes[i] */\n      dup2\n      mload\n      dup2\n      lt\n      tag_146\n      jumpi\n      tag_147\n      tag_86\n      jump\t// in\n    tag_147:\n    tag_146:\n      0x20\n      add\n      add\n        /* \"Desktop/development/smart contract/SwapCryptoLoanUpdate/contracts/facets/PriceOracleFacet.sol\":2778:2815  _baseBytes[i] = _upper(_baseBytes[i]) */\n      swap1\n      not(0xffffffffffffffffffffffffffffffffffffffffffffffffffffffffffffff)\n      and\n      swap1\n      dup2\n      0x00\n      byte\n      swap1\n      mstore8\n      pop\n        /* \"Desktop/development/smart contract/SwapCryptoLoanUpdate/contracts/facets/PriceOracleFacet.sol\":2759:2762  i++ */\n      dup1\n      dup1\n      0x01\n      add\n      swap2\n      pop\n      pop\n        /* \"Desktop/development/smart contract/SwapCryptoLoanUpdate/contracts/facets/PriceOracleFacet.sol\":2719:2826  for (uint i = 0; i < _baseBytes.length; i++) {... */\n      jump(tag_139)\n    tag_140:\n      pop\n        /* \"Desktop/development/smart contract/SwapCryptoLoanUpdate/contracts/facets/PriceOracleFacet.sol\":2849:2859  _baseBytes */\n      dup1\n        /* \"Desktop/development/smart contract/SwapCryptoLoanUpdate/contracts/facets/PriceOracleFacet.sol\":2835:2860  return string(_baseBytes) */\n      swap2\n      pop\n      pop\n        /* \"Desktop/development/smart contract/SwapCryptoLoanUpdate/contracts/facets/PriceOracleFacet.sol\":2587:2867  function upper(string memory _base) internal pure returns (string memory) {... */\n      swap2\n      swap1\n      pop\n      jump\t// out\n        /* \"Desktop/development/smart contract/SwapCryptoLoanUpdate/contracts/libraries/LibDiamond.sol\":1056:1281  function diamondStorage()... */\n    tag_137:\n        /* \"Desktop/development/smart contract/SwapCryptoLoanUpdate/contracts/libraries/LibDiamond.sol\":1129:1154  DiamondStorage storage ds */\n      0x00\n        /* \"Desktop/development/smart contract/SwapCryptoLoanUpdate/contracts/libraries/LibDiamond.sol\":1170:1186  bytes32 position */\n      dup1\n        /* \"Desktop/development/smart contract/SwapCryptoLoanUpdate/contracts/libraries/LibDiamond.sol\":530:575  keccak256(\"diamond.standard.diamond.storage\") */\n      0xc8fcad8db84d3cc18b4c41d551ea0ee66dd599cde068d998e57d5e09332c131c\n        /* \"Desktop/development/smart contract/SwapCryptoLoanUpdate/contracts/libraries/LibDiamond.sol\":1170:1213  bytes32 position = DIAMOND_STORAGE_POSITION */\n      swap1\n      pop\n        /* \"Desktop/development/smart contract/SwapCryptoLoanUpdate/contracts/libraries/LibDiamond.sol\":1257:1265  position */\n      dup1\n        /* \"Desktop/development/smart contract/SwapCryptoLoanUpdate/contracts/libraries/LibDiamond.sol\":1246:1265  ds.slot := position */\n      swap2\n      pop\n        /* \"Desktop/development/smart contract/SwapCryptoLoanUpdate/contracts/libraries/LibDiamond.sol\":1232:1275  {... */\n      pop\n        /* \"Desktop/development/smart contract/SwapCryptoLoanUpdate/contracts/libraries/LibDiamond.sol\":1056:1281  function diamondStorage()... */\n      swap1\n      jump\t// out\n        /* \"Desktop/development/smart contract/SwapCryptoLoanUpdate/contracts/facets/PriceOracleFacet.sol\":2873:3055  function _upper(bytes1 _b1) private pure returns (bytes1) {... */\n    tag_145:\n        /* \"Desktop/development/smart contract/SwapCryptoLoanUpdate/contracts/facets/PriceOracleFacet.sol\":2923:2929  bytes1 */\n      0x00\n        /* \"Desktop/development/smart contract/SwapCryptoLoanUpdate/contracts/facets/PriceOracleFacet.sol\":2952:2956  0x61 */\n      0x61\n        /* \"Desktop/development/smart contract/SwapCryptoLoanUpdate/contracts/facets/PriceOracleFacet.sol\":2945:2956  _b1 >= 0x61 */\n      0xf8\n      shl\n        /* \"Desktop/development/smart contract/SwapCryptoLoanUpdate/contracts/facets/PriceOracleFacet.sol\":2945:2948  _b1 */\n      dup3\n        /* \"Desktop/development/smart contract/SwapCryptoLoanUpdate/contracts/facets/PriceOracleFacet.sol\":2945:2956  _b1 >= 0x61 */\n      not(0xffffffffffffffffffffffffffffffffffffffffffffffffffffffffffffff)\n      and\n      lt\n      iszero\n        /* \"Desktop/development/smart contract/SwapCryptoLoanUpdate/contracts/facets/PriceOracleFacet.sol\":2945:2971  _b1 >= 0x61 && _b1 <= 0x7A */\n      dup1\n      iszero\n      tag_150\n      jumpi\n      pop\n        /* \"Desktop/development/smart contract/SwapCryptoLoanUpdate/contracts/facets/PriceOracleFacet.sol\":2967:2971  0x7A */\n      0x7a\n        /* \"Desktop/development/smart contract/SwapCryptoLoanUpdate/contracts/facets/PriceOracleFacet.sol\":2960:2971  _b1 <= 0x7A */\n      0xf8\n      shl\n        /* \"Desktop/development/smart contract/SwapCryptoLoanUpdate/contracts/facets/PriceOracleFacet.sol\":2960:2963  _b1 */\n      dup3\n        /* \"Desktop/development/smart contract/SwapCryptoLoanUpdate/contracts/facets/PriceOracleFacet.sol\":2960:2971  _b1 <= 0x7A */\n      not(0xffffffffffffffffffffffffffffffffffffffffffffffffffffffffffffff)\n      and\n      gt\n      iszero\n        /* \"Desktop/development/smart contract/SwapCryptoLoanUpdate/contracts/facets/PriceOracleFacet.sol\":2945:2971  _b1 >= 0x61 && _b1 <= 0x7A */\n    tag_150:\n        /* \"Desktop/development/smart contract/SwapCryptoLoanUpdate/contracts/facets/PriceOracleFacet.sol\":2941:3028  if (_b1 >= 0x61 && _b1 <= 0x7A) {... */\n      iszero\n      tag_151\n      jumpi\n        /* \"Desktop/development/smart contract/SwapCryptoLoanUpdate/contracts/facets/PriceOracleFacet.sol\":3014:3016  32 */\n      0x20\n        /* \"Desktop/development/smart contract/SwapCryptoLoanUpdate/contracts/facets/PriceOracleFacet.sol\":3007:3010  _b1 */\n      dup3\n        /* \"Desktop/development/smart contract/SwapCryptoLoanUpdate/contracts/facets/PriceOracleFacet.sol\":3001:3011  uint8(_b1) */\n      0xf8\n      shr\n        /* \"Desktop/development/smart contract/SwapCryptoLoanUpdate/contracts/facets/PriceOracleFacet.sol\":3001:3016  uint8(_b1) - 32 */\n      tag_152\n      swap2\n      swap1\n      tag_153\n      jump\t// in\n    tag_152:\n        /* \"Desktop/development/smart contract/SwapCryptoLoanUpdate/contracts/facets/PriceOracleFacet.sol\":2994:3017  bytes1(uint8(_b1) - 32) */\n      0xf8\n      shl\n        /* \"Desktop/development/smart contract/SwapCryptoLoanUpdate/contracts/facets/PriceOracleFacet.sol\":2987:3017  return bytes1(uint8(_b1) - 32) */\n      swap1\n      pop\n      jump(tag_149)\n        /* \"Desktop/development/smart contract/SwapCryptoLoanUpdate/contracts/facets/PriceOracleFacet.sol\":2941:3028  if (_b1 >= 0x61 && _b1 <= 0x7A) {... */\n    tag_151:\n        /* \"Desktop/development/smart contract/SwapCryptoLoanUpdate/contracts/facets/PriceOracleFacet.sol\":3045:3048  _b1 */\n      dup2\n        /* \"Desktop/development/smart contract/SwapCryptoLoanUpdate/contracts/facets/PriceOracleFacet.sol\":3038:3048  return _b1 */\n      swap1\n      pop\n        /* \"Desktop/development/smart contract/SwapCryptoLoanUpdate/contracts/facets/PriceOracleFacet.sol\":2873:3055  function _upper(bytes1 _b1) private pure returns (bytes1) {... */\n    tag_149:\n      swap2\n      swap1\n      pop\n      jump\t// out\n        /* \"#utility.yul\":7:82   */\n    tag_154:\n        /* \"#utility.yul\":40:46   */\n      0x00\n        /* \"#utility.yul\":73:75   */\n      0x40\n        /* \"#utility.yul\":67:76   */\n      mload\n        /* \"#utility.yul\":57:76   */\n      swap1\n      pop\n        /* \"#utility.yul\":7:82   */\n      swap1\n      jump\t// out\n        /* \"#utility.yul\":88:205   */\n    tag_155:\n        /* \"#utility.yul\":197:198   */\n      0x00\n        /* \"#utility.yul\":194:195   */\n      dup1\n        /* \"#utility.yul\":187:199   */\n      revert\n        /* \"#utility.yul\":211:328   */\n    tag_156:\n        /* \"#utility.yul\":320:321   */\n      0x00\n        /* \"#utility.yul\":317:318   */\n      dup1\n        /* \"#utility.yul\":310:322   */\n      revert\n        /* \"#utility.yul\":334:451   */\n    tag_157:\n        /* \"#utility.yul\":443:444   */\n      0x00\n        /* \"#utility.yul\":440:441   */\n      dup1\n        /* \"#utility.yul\":433:445   */\n      revert\n        /* \"#utility.yul\":457:574   */\n    tag_158:\n        /* \"#utility.yul\":566:567   */\n      0x00\n        /* \"#utility.yul\":563:564   */\n      dup1\n        /* \"#utility.yul\":556:568   */\n      revert\n        /* \"#utility.yul\":580:682   */\n    tag_159:\n        /* \"#utility.yul\":621:627   */\n      0x00\n        /* \"#utility.yul\":672:674   */\n      0x1f\n        /* \"#utility.yul\":668:675   */\n      not\n        /* \"#utility.yul\":663:665   */\n      0x1f\n        /* \"#utility.yul\":656:661   */\n      dup4\n        /* \"#utility.yul\":652:666   */\n      add\n        /* \"#utility.yul\":648:676   */\n      and\n        /* \"#utility.yul\":638:676   */\n      swap1\n      pop\n        /* \"#utility.yul\":580:682   */\n      swap2\n      swap1\n      pop\n      jump\t// out\n        /* \"#utility.yul\":688:868   */\n    tag_160:\n        /* \"#utility.yul\":736:813   */\n      0x4e487b7100000000000000000000000000000000000000000000000000000000\n        /* \"#utility.yul\":733:734   */\n      0x00\n        /* \"#utility.yul\":726:814   */\n      mstore\n        /* \"#utility.yul\":833:837   */\n      0x41\n        /* \"#utility.yul\":830:831   */\n      0x04\n        /* \"#utility.yul\":823:838   */\n      mstore\n        /* \"#utility.yul\":857:861   */\n      0x24\n        /* \"#utility.yul\":854:855   */\n      0x00\n        /* \"#utility.yul\":847:862   */\n      revert\n        /* \"#utility.yul\":874:1155   */\n    tag_161:\n        /* \"#utility.yul\":957:984   */\n      tag_231\n        /* \"#utility.yul\":979:983   */\n      dup3\n        /* \"#utility.yul\":957:984   */\n      tag_159\n      jump\t// in\n    tag_231:\n        /* \"#utility.yul\":949:955   */\n      dup2\n        /* \"#utility.yul\":945:985   */\n      add\n        /* \"#utility.yul\":1087:1093   */\n      dup2\n        /* \"#utility.yul\":1075:1085   */\n      dup2\n        /* \"#utility.yul\":1072:1094   */\n      lt\n        /* \"#utility.yul\":1051:1069   */\n      0xffffffffffffffff\n        /* \"#utility.yul\":1039:1049   */\n      dup3\n        /* \"#utility.yul\":1036:1070   */\n      gt\n        /* \"#utility.yul\":1033:1095   */\n      or\n        /* \"#utility.yul\":1030:1118   */\n      iszero\n      tag_232\n      jumpi\n        /* \"#utility.yul\":1098:1116   */\n      tag_233\n      tag_160\n      jump\t// in\n    tag_233:\n        /* \"#utility.yul\":1030:1118   */\n    tag_232:\n        /* \"#utility.yul\":1138:1148   */\n      dup1\n        /* \"#utility.yul\":1134:1136   */\n      0x40\n        /* \"#utility.yul\":1127:1149   */\n      mstore\n        /* \"#utility.yul\":917:1155   */\n      pop\n        /* \"#utility.yul\":874:1155   */\n      pop\n      pop\n      jump\t// out\n        /* \"#utility.yul\":1161:1290   */\n    tag_162:\n        /* \"#utility.yul\":1195:1201   */\n      0x00\n        /* \"#utility.yul\":1222:1242   */\n      tag_235\n      tag_154\n      jump\t// in\n    tag_235:\n        /* \"#utility.yul\":1212:1242   */\n      swap1\n      pop\n        /* \"#utility.yul\":1251:1284   */\n      tag_236\n        /* \"#utility.yul\":1279:1283   */\n      dup3\n        /* \"#utility.yul\":1271:1277   */\n      dup3\n        /* \"#utility.yul\":1251:1284   */\n      tag_161\n      jump\t// in\n    tag_236:\n        /* \"#utility.yul\":1161:1290   */\n      swap2\n      swap1\n      pop\n      jump\t// out\n        /* \"#utility.yul\":1296:1604   */\n    tag_163:\n        /* \"#utility.yul\":1358:1362   */\n      0x00\n        /* \"#utility.yul\":1448:1466   */\n      0xffffffffffffffff\n        /* \"#utility.yul\":1440:1446   */\n      dup3\n        /* \"#utility.yul\":1437:1467   */\n      gt\n        /* \"#utility.yul\":1434:1490   */\n      iszero\n      tag_238\n      jumpi\n        /* \"#utility.yul\":1470:1488   */\n      tag_239\n      tag_160\n      jump\t// in\n    tag_239:\n        /* \"#utility.yul\":1434:1490   */\n    tag_238:\n        /* \"#utility.yul\":1508:1537   */\n      tag_240\n        /* \"#utility.yul\":1530:1536   */\n      dup3\n        /* \"#utility.yul\":1508:1537   */\n      tag_159\n      jump\t// in\n    tag_240:\n        /* \"#utility.yul\":1500:1537   */\n      swap1\n      pop\n        /* \"#utility.yul\":1592:1596   */\n      0x20\n        /* \"#utility.yul\":1586:1590   */\n      dup2\n        /* \"#utility.yul\":1582:1597   */\n      add\n        /* \"#utility.yul\":1574:1597   */\n      swap1\n      pop\n        /* \"#utility.yul\":1296:1604   */\n      swap2\n      swap1\n      pop\n      jump\t// out\n        /* \"#utility.yul\":1610:1756   */\n    tag_164:\n        /* \"#utility.yul\":1707:1713   */\n      dup3\n        /* \"#utility.yul\":1702:1705   */\n      dup2\n        /* \"#utility.yul\":1697:1700   */\n      dup4\n        /* \"#utility.yul\":1684:1714   */\n      calldatacopy\n        /* \"#utility.yul\":1748:1749   */\n      0x00\n        /* \"#utility.yul\":1739:1745   */\n      dup4\n        /* \"#utility.yul\":1734:1737   */\n      dup4\n        /* \"#utility.yul\":1730:1746   */\n      add\n        /* \"#utility.yul\":1723:1750   */\n      mstore\n        /* \"#utility.yul\":1610:1756   */\n      pop\n      pop\n      pop\n      jump\t// out\n        /* \"#utility.yul\":1762:2187   */\n    tag_165:\n        /* \"#utility.yul\":1840:1845   */\n      0x00\n        /* \"#utility.yul\":1865:1931   */\n      tag_243\n        /* \"#utility.yul\":1881:1930   */\n      tag_244\n        /* \"#utility.yul\":1923:1929   */\n      dup5\n        /* \"#utility.yul\":1881:1930   */\n      tag_163\n      jump\t// in\n    tag_244:\n        /* \"#utility.yul\":1865:1931   */\n      tag_162\n      jump\t// in\n    tag_243:\n        /* \"#utility.yul\":1856:1931   */\n      swap1\n      pop\n        /* \"#utility.yul\":1954:1960   */\n      dup3\n        /* \"#utility.yul\":1947:1952   */\n      dup2\n        /* \"#utility.yul\":1940:1961   */\n      mstore\n        /* \"#utility.yul\":1992:1996   */\n      0x20\n        /* \"#utility.yul\":1985:1990   */\n      dup2\n        /* \"#utility.yul\":1981:1997   */\n      add\n        /* \"#utility.yul\":2030:2033   */\n      dup5\n        /* \"#utility.yul\":2021:2027   */\n      dup5\n        /* \"#utility.yul\":2016:2019   */\n      dup5\n        /* \"#utility.yul\":2012:2028   */\n      add\n        /* \"#utility.yul\":2009:2034   */\n      gt\n        /* \"#utility.yul\":2006:2118   */\n      iszero\n      tag_245\n      jumpi\n        /* \"#utility.yul\":2037:2116   */\n      tag_246\n      tag_158\n      jump\t// in\n    tag_246:\n        /* \"#utility.yul\":2006:2118   */\n    tag_245:\n        /* \"#utility.yul\":2127:2181   */\n      tag_247\n        /* \"#utility.yul\":2174:2180   */\n      dup5\n        /* \"#utility.yul\":2169:2172   */\n      dup3\n        /* \"#utility.yul\":2164:2167   */\n      dup6\n        /* \"#utility.yul\":2127:2181   */\n      tag_164\n      jump\t// in\n    tag_247:\n        /* \"#utility.yul\":1846:2187   */\n      pop\n        /* \"#utility.yul\":1762:2187   */\n      swap4\n      swap3\n      pop\n      pop\n      pop\n      jump\t// out\n        /* \"#utility.yul\":2207:2547   */\n    tag_166:\n        /* \"#utility.yul\":2263:2268   */\n      0x00\n        /* \"#utility.yul\":2312:2315   */\n      dup3\n        /* \"#utility.yul\":2305:2309   */\n      0x1f\n        /* \"#utility.yul\":2297:2303   */\n      dup4\n        /* \"#utility.yul\":2293:2310   */\n      add\n        /* \"#utility.yul\":2289:2316   */\n      slt\n        /* \"#utility.yul\":2279:2401   */\n      tag_249\n      jumpi\n        /* \"#utility.yul\":2320:2399   */\n      tag_250\n      tag_157\n      jump\t// in\n    tag_250:\n        /* \"#utility.yul\":2279:2401   */\n    tag_249:\n        /* \"#utility.yul\":2437:2443   */\n      dup2\n        /* \"#utility.yul\":2424:2444   */\n      calldataload\n        /* \"#utility.yul\":2462:2541   */\n      tag_251\n        /* \"#utility.yul\":2537:2540   */\n      dup5\n        /* \"#utility.yul\":2529:2535   */\n      dup3\n        /* \"#utility.yul\":2522:2526   */\n      0x20\n        /* \"#utility.yul\":2514:2520   */\n      dup7\n        /* \"#utility.yul\":2510:2527   */\n      add\n        /* \"#utility.yul\":2462:2541   */\n      tag_165\n      jump\t// in\n    tag_251:\n        /* \"#utility.yul\":2453:2541   */\n      swap2\n      pop\n        /* \"#utility.yul\":2269:2547   */\n      pop\n        /* \"#utility.yul\":2207:2547   */\n      swap3\n      swap2\n      pop\n      pop\n      jump\t// out\n        /* \"#utility.yul\":2553:3062   */\n    tag_15:\n        /* \"#utility.yul\":2622:2628   */\n      0x00\n        /* \"#utility.yul\":2671:2673   */\n      0x20\n        /* \"#utility.yul\":2659:2668   */\n      dup3\n        /* \"#utility.yul\":2650:2657   */\n      dup5\n        /* \"#utility.yul\":2646:2669   */\n      sub\n        /* \"#utility.yul\":2642:2674   */\n      slt\n        /* \"#utility.yul\":2639:2758   */\n      iszero\n      tag_253\n      jumpi\n        /* \"#utility.yul\":2677:2756   */\n      tag_254\n      tag_155\n      jump\t// in\n    tag_254:\n        /* \"#utility.yul\":2639:2758   */\n    tag_253:\n        /* \"#utility.yul\":2825:2826   */\n      0x00\n        /* \"#utility.yul\":2814:2823   */\n      dup3\n        /* \"#utility.yul\":2810:2827   */\n      add\n        /* \"#utility.yul\":2797:2828   */\n      calldataload\n        /* \"#utility.yul\":2855:2873   */\n      0xffffffffffffffff\n        /* \"#utility.yul\":2847:2853   */\n      dup2\n        /* \"#utility.yul\":2844:2874   */\n      gt\n        /* \"#utility.yul\":2841:2958   */\n      iszero\n      tag_255\n      jumpi\n        /* \"#utility.yul\":2877:2956   */\n      tag_256\n      tag_156\n      jump\t// in\n    tag_256:\n        /* \"#utility.yul\":2841:2958   */\n    tag_255:\n        /* \"#utility.yul\":2982:3045   */\n      tag_257\n        /* \"#utility.yul\":3037:3044   */\n      dup5\n        /* \"#utility.yul\":3028:3034   */\n      dup3\n        /* \"#utility.yul\":3017:3026   */\n      dup6\n        /* \"#utility.yul\":3013:3035   */\n      add\n        /* \"#utility.yul\":2982:3045   */\n      tag_166\n      jump\t// in\n    tag_257:\n        /* \"#utility.yul\":2972:3045   */\n      swap2\n      pop\n        /* \"#utility.yul\":2768:3055   */\n      pop\n        /* \"#utility.yul\":2553:3062   */\n      swap3\n      swap2\n      pop\n      pop\n      jump\t// out\n        /* \"#utility.yul\":3068:3194   */\n    tag_167:\n        /* \"#utility.yul\":3105:3112   */\n      0x00\n        /* \"#utility.yul\":3145:3187   */\n      0xffffffffffffffffffffffffffffffffffffffff\n        /* \"#utility.yul\":3138:3143   */\n      dup3\n        /* \"#utility.yul\":3134:3188   */\n      and\n        /* \"#utility.yul\":3123:3188   */\n      swap1\n      pop\n        /* \"#utility.yul\":3068:3194   */\n      swap2\n      swap1\n      pop\n      jump\t// out\n        /* \"#utility.yul\":3200:3296   */\n    tag_168:\n        /* \"#utility.yul\":3237:3244   */\n      0x00\n        /* \"#utility.yul\":3266:3290   */\n      tag_260\n        /* \"#utility.yul\":3284:3289   */\n      dup3\n        /* \"#utility.yul\":3266:3290   */\n      tag_167\n      jump\t// in\n    tag_260:\n        /* \"#utility.yul\":3255:3290   */\n      swap1\n      pop\n        /* \"#utility.yul\":3200:3296   */\n      swap2\n      swap1\n      pop\n      jump\t// out\n        /* \"#utility.yul\":3302:3424   */\n    tag_169:\n        /* \"#utility.yul\":3375:3399   */\n      tag_262\n        /* \"#utility.yul\":3393:3398   */\n      dup2\n        /* \"#utility.yul\":3375:3399   */\n      tag_168\n      jump\t// in\n    tag_262:\n        /* \"#utility.yul\":3368:3373   */\n      dup2\n        /* \"#utility.yul\":3365:3400   */\n      eq\n        /* \"#utility.yul\":3355:3418   */\n      tag_263\n      jumpi\n        /* \"#utility.yul\":3414:3415   */\n      0x00\n        /* \"#utility.yul\":3411:3412   */\n      dup1\n        /* \"#utility.yul\":3404:3416   */\n      revert\n        /* \"#utility.yul\":3355:3418   */\n    tag_263:\n        /* \"#utility.yul\":3302:3424   */\n      pop\n      jump\t// out\n        /* \"#utility.yul\":3430:3569   */\n    tag_170:\n        /* \"#utility.yul\":3476:3481   */\n      0x00\n        /* \"#utility.yul\":3514:3520   */\n      dup2\n        /* \"#utility.yul\":3501:3521   */\n      calldataload\n        /* \"#utility.yul\":3492:3521   */\n      swap1\n      pop\n        /* \"#utility.yul\":3530:3563   */\n      tag_265\n        /* \"#utility.yul\":3557:3562   */\n      dup2\n        /* \"#utility.yul\":3530:3563   */\n      tag_169\n      jump\t// in\n    tag_265:\n        /* \"#utility.yul\":3430:3569   */\n      swap3\n      swap2\n      pop\n      pop\n      jump\t// out\n        /* \"#utility.yul\":3575:3904   */\n    tag_19:\n        /* \"#utility.yul\":3634:3640   */\n      0x00\n        /* \"#utility.yul\":3683:3685   */\n      0x20\n        /* \"#utility.yul\":3671:3680   */\n      dup3\n        /* \"#utility.yul\":3662:3669   */\n      dup5\n        /* \"#utility.yul\":3658:3681   */\n      sub\n        /* \"#utility.yul\":3654:3686   */\n      slt\n        /* \"#utility.yul\":3651:3770   */\n      iszero\n      tag_267\n      jumpi\n        /* \"#utility.yul\":3689:3768   */\n      tag_268\n      tag_155\n      jump\t// in\n    tag_268:\n        /* \"#utility.yul\":3651:3770   */\n    tag_267:\n        /* \"#utility.yul\":3809:3810   */\n      0x00\n        /* \"#utility.yul\":3834:3887   */\n      tag_269\n        /* \"#utility.yul\":3879:3886   */\n      dup5\n        /* \"#utility.yul\":3870:3876   */\n      dup3\n        /* \"#utility.yul\":3859:3868   */\n      dup6\n        /* \"#utility.yul\":3855:3877   */\n      add\n        /* \"#utility.yul\":3834:3887   */\n      tag_170\n      jump\t// in\n    tag_269:\n        /* \"#utility.yul\":3824:3887   */\n      swap2\n      pop\n        /* \"#utility.yul\":3780:3897   */\n      pop\n        /* \"#utility.yul\":3575:3904   */\n      swap3\n      swap2\n      pop\n      pop\n      jump\t// out\n        /* \"#utility.yul\":3910:4000   */\n    tag_171:\n        /* \"#utility.yul\":3944:3951   */\n      0x00\n        /* \"#utility.yul\":3987:3992   */\n      dup2\n        /* \"#utility.yul\":3980:3993   */\n      iszero\n        /* \"#utility.yul\":3973:3994   */\n      iszero\n        /* \"#utility.yul\":3962:3994   */\n      swap1\n      pop\n        /* \"#utility.yul\":3910:4000   */\n      swap2\n      swap1\n      pop\n      jump\t// out\n        /* \"#utility.yul\":4006:4115   */\n    tag_172:\n        /* \"#utility.yul\":4087:4108   */\n      tag_272\n        /* \"#utility.yul\":4102:4107   */\n      dup2\n        /* \"#utility.yul\":4087:4108   */\n      tag_171\n      jump\t// in\n    tag_272:\n        /* \"#utility.yul\":4082:4085   */\n      dup3\n        /* \"#utility.yul\":4075:4109   */\n      mstore\n        /* \"#utility.yul\":4006:4115   */\n      pop\n      pop\n      jump\t// out\n        /* \"#utility.yul\":4121:4331   */\n    tag_25:\n        /* \"#utility.yul\":4208:4212   */\n      0x00\n        /* \"#utility.yul\":4246:4248   */\n      0x20\n        /* \"#utility.yul\":4235:4244   */\n      dup3\n        /* \"#utility.yul\":4231:4249   */\n      add\n        /* \"#utility.yul\":4223:4249   */\n      swap1\n      pop\n        /* \"#utility.yul\":4259:4324   */\n      tag_274\n        /* \"#utility.yul\":4321:4322   */\n      0x00\n        /* \"#utility.yul\":4310:4319   */\n      dup4\n        /* \"#utility.yul\":4306:4323   */\n      add\n        /* \"#utility.yul\":4297:4303   */\n      dup5\n        /* \"#utility.yul\":4259:4324   */\n      tag_172\n      jump\t// in\n    tag_274:\n        /* \"#utility.yul\":4121:4331   */\n      swap3\n      swap2\n      pop\n      pop\n      jump\t// out\n        /* \"#utility.yul\":4337:4454   */\n    tag_173:\n        /* \"#utility.yul\":4446:4447   */\n      0x00\n        /* \"#utility.yul\":4443:4444   */\n      dup1\n        /* \"#utility.yul\":4436:4448   */\n      revert\n        /* \"#utility.yul\":4460:4577   */\n    tag_174:\n        /* \"#utility.yul\":4569:4570   */\n      0x00\n        /* \"#utility.yul\":4566:4567   */\n      dup1\n        /* \"#utility.yul\":4559:4571   */\n      revert\n        /* \"#utility.yul\":4600:5168   */\n    tag_175:\n        /* \"#utility.yul\":4673:4681   */\n      0x00\n        /* \"#utility.yul\":4683:4689   */\n      dup1\n        /* \"#utility.yul\":4733:4736   */\n      dup4\n        /* \"#utility.yul\":4726:4730   */\n      0x1f\n        /* \"#utility.yul\":4718:4724   */\n      dup5\n        /* \"#utility.yul\":4714:4731   */\n      add\n        /* \"#utility.yul\":4710:4737   */\n      slt\n        /* \"#utility.yul\":4700:4822   */\n      tag_278\n      jumpi\n        /* \"#utility.yul\":4741:4820   */\n      tag_279\n      tag_157\n      jump\t// in\n    tag_279:\n        /* \"#utility.yul\":4700:4822   */\n    tag_278:\n        /* \"#utility.yul\":4854:4860   */\n      dup3\n        /* \"#utility.yul\":4841:4861   */\n      calldataload\n        /* \"#utility.yul\":4831:4861   */\n      swap1\n      pop\n        /* \"#utility.yul\":4884:4902   */\n      0xffffffffffffffff\n        /* \"#utility.yul\":4876:4882   */\n      dup2\n        /* \"#utility.yul\":4873:4903   */\n      gt\n        /* \"#utility.yul\":4870:4987   */\n      iszero\n      tag_280\n      jumpi\n        /* \"#utility.yul\":4906:4985   */\n      tag_281\n      tag_173\n      jump\t// in\n    tag_281:\n        /* \"#utility.yul\":4870:4987   */\n    tag_280:\n        /* \"#utility.yul\":5020:5024   */\n      0x20\n        /* \"#utility.yul\":5012:5018   */\n      dup4\n        /* \"#utility.yul\":5008:5025   */\n      add\n        /* \"#utility.yul\":4996:5025   */\n      swap2\n      pop\n        /* \"#utility.yul\":5074:5077   */\n      dup4\n        /* \"#utility.yul\":5066:5070   */\n      0x20\n        /* \"#utility.yul\":5058:5064   */\n      dup3\n        /* \"#utility.yul\":5054:5071   */\n      mul\n        /* \"#utility.yul\":5044:5052   */\n      dup4\n        /* \"#utility.yul\":5040:5072   */\n      add\n        /* \"#utility.yul\":5037:5078   */\n      gt\n        /* \"#utility.yul\":5034:5162   */\n      iszero\n      tag_282\n      jumpi\n        /* \"#utility.yul\":5081:5160   */\n      tag_283\n      tag_174\n      jump\t// in\n    tag_283:\n        /* \"#utility.yul\":5034:5162   */\n    tag_282:\n        /* \"#utility.yul\":4600:5168   */\n      swap3\n      pop\n      swap3\n      swap1\n      pop\n      jump\t// out\n        /* \"#utility.yul\":5190:5770   */\n    tag_176:\n        /* \"#utility.yul\":5275:5283   */\n      0x00\n        /* \"#utility.yul\":5285:5291   */\n      dup1\n        /* \"#utility.yul\":5335:5338   */\n      dup4\n        /* \"#utility.yul\":5328:5332   */\n      0x1f\n        /* \"#utility.yul\":5320:5326   */\n      dup5\n        /* \"#utility.yul\":5316:5333   */\n      add\n        /* \"#utility.yul\":5312:5339   */\n      slt\n        /* \"#utility.yul\":5302:5424   */\n      tag_285\n      jumpi\n        /* \"#utility.yul\":5343:5422   */\n      tag_286\n      tag_157\n      jump\t// in\n    tag_286:\n        /* \"#utility.yul\":5302:5424   */\n    tag_285:\n        /* \"#utility.yul\":5456:5462   */\n      dup3\n        /* \"#utility.yul\":5443:5463   */\n      calldataload\n        /* \"#utility.yul\":5433:5463   */\n      swap1\n      pop\n        /* \"#utility.yul\":5486:5504   */\n      0xffffffffffffffff\n        /* \"#utility.yul\":5478:5484   */\n      dup2\n        /* \"#utility.yul\":5475:5505   */\n      gt\n        /* \"#utility.yul\":5472:5589   */\n      iszero\n      tag_287\n      jumpi\n        /* \"#utility.yul\":5508:5587   */\n      tag_288\n      tag_173\n      jump\t// in\n    tag_288:\n        /* \"#utility.yul\":5472:5589   */\n    tag_287:\n        /* \"#utility.yul\":5622:5626   */\n      0x20\n        /* \"#utility.yul\":5614:5620   */\n      dup4\n        /* \"#utility.yul\":5610:5627   */\n      add\n        /* \"#utility.yul\":5598:5627   */\n      swap2\n      pop\n        /* \"#utility.yul\":5676:5679   */\n      dup4\n        /* \"#utility.yul\":5668:5672   */\n      0x20\n        /* \"#utility.yul\":5660:5666   */\n      dup3\n        /* \"#utility.yul\":5656:5673   */\n      mul\n        /* \"#utility.yul\":5646:5654   */\n      dup4\n        /* \"#utility.yul\":5642:5674   */\n      add\n        /* \"#utility.yul\":5639:5680   */\n      gt\n        /* \"#utility.yul\":5636:5764   */\n      iszero\n      tag_289\n      jumpi\n        /* \"#utility.yul\":5683:5762   */\n      tag_290\n      tag_174\n      jump\t// in\n    tag_290:\n        /* \"#utility.yul\":5636:5764   */\n    tag_289:\n        /* \"#utility.yul\":5190:5770   */\n      swap3\n      pop\n      swap3\n      swap1\n      pop\n      jump\t// out\n        /* \"#utility.yul\":5776:6734   */\n    tag_28:\n        /* \"#utility.yul\":5910:5916   */\n      0x00\n        /* \"#utility.yul\":5918:5924   */\n      dup1\n        /* \"#utility.yul\":5926:5932   */\n      0x00\n        /* \"#utility.yul\":5934:5940   */\n      dup1\n        /* \"#utility.yul\":5983:5985   */\n      0x40\n        /* \"#utility.yul\":5971:5980   */\n      dup6\n        /* \"#utility.yul\":5962:5969   */\n      dup8\n        /* \"#utility.yul\":5958:5981   */\n      sub\n        /* \"#utility.yul\":5954:5986   */\n      slt\n        /* \"#utility.yul\":5951:6070   */\n      iszero\n      tag_292\n      jumpi\n        /* \"#utility.yul\":5989:6068   */\n      tag_293\n      tag_155\n      jump\t// in\n    tag_293:\n        /* \"#utility.yul\":5951:6070   */\n    tag_292:\n        /* \"#utility.yul\":6137:6138   */\n      0x00\n        /* \"#utility.yul\":6126:6135   */\n      dup6\n        /* \"#utility.yul\":6122:6139   */\n      add\n        /* \"#utility.yul\":6109:6140   */\n      calldataload\n        /* \"#utility.yul\":6167:6185   */\n      0xffffffffffffffff\n        /* \"#utility.yul\":6159:6165   */\n      dup2\n        /* \"#utility.yul\":6156:6186   */\n      gt\n        /* \"#utility.yul\":6153:6270   */\n      iszero\n      tag_294\n      jumpi\n        /* \"#utility.yul\":6189:6268   */\n      tag_295\n      tag_156\n      jump\t// in\n    tag_295:\n        /* \"#utility.yul\":6153:6270   */\n    tag_294:\n        /* \"#utility.yul\":6302:6382   */\n      tag_296\n        /* \"#utility.yul\":6374:6381   */\n      dup8\n        /* \"#utility.yul\":6365:6371   */\n      dup3\n        /* \"#utility.yul\":6354:6363   */\n      dup9\n        /* \"#utility.yul\":6350:6372   */\n      add\n        /* \"#utility.yul\":6302:6382   */\n      tag_175\n      jump\t// in\n    tag_296:\n        /* \"#utility.yul\":6284:6382   */\n      swap5\n      pop\n      swap5\n      pop\n        /* \"#utility.yul\":6080:6392   */\n      pop\n        /* \"#utility.yul\":6459:6461   */\n      0x20\n        /* \"#utility.yul\":6448:6457   */\n      dup6\n        /* \"#utility.yul\":6444:6462   */\n      add\n        /* \"#utility.yul\":6431:6463   */\n      calldataload\n        /* \"#utility.yul\":6490:6508   */\n      0xffffffffffffffff\n        /* \"#utility.yul\":6482:6488   */\n      dup2\n        /* \"#utility.yul\":6479:6509   */\n      gt\n        /* \"#utility.yul\":6476:6593   */\n      iszero\n      tag_297\n      jumpi\n        /* \"#utility.yul\":6512:6591   */\n      tag_298\n      tag_156\n      jump\t// in\n    tag_298:\n        /* \"#utility.yul\":6476:6593   */\n    tag_297:\n        /* \"#utility.yul\":6625:6717   */\n      tag_299\n        /* \"#utility.yul\":6709:6716   */\n      dup8\n        /* \"#utility.yul\":6700:6706   */\n      dup3\n        /* \"#utility.yul\":6689:6698   */\n      dup9\n        /* \"#utility.yul\":6685:6707   */\n      add\n        /* \"#utility.yul\":6625:6717   */\n      tag_176\n      jump\t// in\n    tag_299:\n        /* \"#utility.yul\":6607:6717   */\n      swap3\n      pop\n      swap3\n      pop\n        /* \"#utility.yul\":6402:6727   */\n      pop\n        /* \"#utility.yul\":5776:6734   */\n      swap3\n      swap6\n      swap2\n      swap5\n      pop\n      swap3\n      pop\n      jump\t// out\n        /* \"#utility.yul\":6740:6838   */\n    tag_177:\n        /* \"#utility.yul\":6791:6797   */\n      0x00\n        /* \"#utility.yul\":6825:6830   */\n      dup2\n        /* \"#utility.yul\":6819:6831   */\n      mload\n        /* \"#utility.yul\":6809:6831   */\n      swap1\n      pop\n        /* \"#utility.yul\":6740:6838   */\n      swap2\n      swap1\n      pop\n      jump\t// out\n        /* \"#utility.yul\":6844:7012   */\n    tag_178:\n        /* \"#utility.yul\":6927:6938   */\n      0x00\n        /* \"#utility.yul\":6961:6967   */\n      dup3\n        /* \"#utility.yul\":6956:6959   */\n      dup3\n        /* \"#utility.yul\":6949:6968   */\n      mstore\n        /* \"#utility.yul\":7001:7005   */\n      0x20\n        /* \"#utility.yul\":6996:6999   */\n      dup3\n        /* \"#utility.yul\":6992:7006   */\n      add\n        /* \"#utility.yul\":6977:7006   */\n      swap1\n      pop\n        /* \"#utility.yul\":6844:7012   */\n      swap3\n      swap2\n      pop\n      pop\n      jump\t// out\n        /* \"#utility.yul\":7018:7264   */\n    tag_179:\n        /* \"#utility.yul\":7099:7100   */\n      0x00\n        /* \"#utility.yul\":7109:7222   */\n    tag_303:\n        /* \"#utility.yul\":7123:7129   */\n      dup4\n        /* \"#utility.yul\":7120:7121   */\n      dup2\n        /* \"#utility.yul\":7117:7130   */\n      lt\n        /* \"#utility.yul\":7109:7222   */\n      iszero\n      tag_305\n      jumpi\n        /* \"#utility.yul\":7208:7209   */\n      dup1\n        /* \"#utility.yul\":7203:7206   */\n      dup3\n        /* \"#utility.yul\":7199:7210   */\n      add\n        /* \"#utility.yul\":7193:7211   */\n      mload\n        /* \"#utility.yul\":7189:7190   */\n      dup2\n        /* \"#utility.yul\":7184:7187   */\n      dup5\n        /* \"#utility.yul\":7180:7191   */\n      add\n        /* \"#utility.yul\":7173:7212   */\n      mstore\n        /* \"#utility.yul\":7145:7147   */\n      0x20\n        /* \"#utility.yul\":7142:7143   */\n      dup2\n        /* \"#utility.yul\":7138:7148   */\n      add\n        /* \"#utility.yul\":7133:7148   */\n      swap1\n      pop\n        /* \"#utility.yul\":7109:7222   */\n      jump(tag_303)\n    tag_305:\n        /* \"#utility.yul\":7256:7257   */\n      0x00\n        /* \"#utility.yul\":7247:7253   */\n      dup5\n        /* \"#utility.yul\":7242:7245   */\n      dup5\n        /* \"#utility.yul\":7238:7254   */\n      add\n        /* \"#utility.yul\":7231:7258   */\n      mstore\n        /* \"#utility.yul\":7080:7264   */\n      pop\n        /* \"#utility.yul\":7018:7264   */\n      pop\n      pop\n      pop\n      jump\t// out\n        /* \"#utility.yul\":7270:7643   */\n    tag_180:\n        /* \"#utility.yul\":7356:7359   */\n      0x00\n        /* \"#utility.yul\":7384:7422   */\n      tag_307\n        /* \"#utility.yul\":7416:7421   */\n      dup3\n        /* \"#utility.yul\":7384:7422   */\n      tag_177\n      jump\t// in\n    tag_307:\n        /* \"#utility.yul\":7438:7508   */\n      tag_308\n        /* \"#utility.yul\":7501:7507   */\n      dup2\n        /* \"#utility.yul\":7496:7499   */\n      dup6\n        /* \"#utility.yul\":7438:7508   */\n      tag_178\n      jump\t// in\n    tag_308:\n        /* \"#utility.yul\":7431:7508   */\n      swap4\n      pop\n        /* \"#utility.yul\":7517:7582   */\n      tag_309\n        /* \"#utility.yul\":7575:7581   */\n      dup2\n        /* \"#utility.yul\":7570:7573   */\n      dup6\n        /* \"#utility.yul\":7563:7567   */\n      0x20\n        /* \"#utility.yul\":7556:7561   */\n      dup7\n        /* \"#utility.yul\":7552:7568   */\n      add\n        /* \"#utility.yul\":7517:7582   */\n      tag_179\n      jump\t// in\n    tag_309:\n        /* \"#utility.yul\":7607:7636   */\n      tag_310\n        /* \"#utility.yul\":7629:7635   */\n      dup2\n        /* \"#utility.yul\":7607:7636   */\n      tag_159\n      jump\t// in\n    tag_310:\n        /* \"#utility.yul\":7602:7605   */\n      dup5\n        /* \"#utility.yul\":7598:7637   */\n      add\n        /* \"#utility.yul\":7591:7637   */\n      swap2\n      pop\n        /* \"#utility.yul\":7360:7643   */\n      pop\n        /* \"#utility.yul\":7270:7643   */\n      swap3\n      swap2\n      pop\n      pop\n      jump\t// out\n        /* \"#utility.yul\":7649:7958   */\n    tag_37:\n        /* \"#utility.yul\":7760:7764   */\n      0x00\n        /* \"#utility.yul\":7798:7800   */\n      0x20\n        /* \"#utility.yul\":7787:7796   */\n      dup3\n        /* \"#utility.yul\":7783:7801   */\n      add\n        /* \"#utility.yul\":7775:7801   */\n      swap1\n      pop\n        /* \"#utility.yul\":7847:7856   */\n      dup2\n        /* \"#utility.yul\":7841:7845   */\n      dup2\n        /* \"#utility.yul\":7837:7857   */\n      sub\n        /* \"#utility.yul\":7833:7834   */\n      0x00\n        /* \"#utility.yul\":7822:7831   */\n      dup4\n        /* \"#utility.yul\":7818:7835   */\n      add\n        /* \"#utility.yul\":7811:7858   */\n      mstore\n        /* \"#utility.yul\":7875:7951   */\n      tag_312\n        /* \"#utility.yul\":7946:7950   */\n      dup2\n        /* \"#utility.yul\":7937:7943   */\n      dup5\n        /* \"#utility.yul\":7875:7951   */\n      tag_180\n      jump\t// in\n    tag_312:\n        /* \"#utility.yul\":7867:7951   */\n      swap1\n      pop\n        /* \"#utility.yul\":7649:7958   */\n      swap3\n      swap2\n      pop\n      pop\n      jump\t// out\n        /* \"#utility.yul\":7964:8041   */\n    tag_181:\n        /* \"#utility.yul\":8001:8008   */\n      0x00\n        /* \"#utility.yul\":8030:8035   */\n      dup2\n        /* \"#utility.yul\":8019:8035   */\n      swap1\n      pop\n        /* \"#utility.yul\":7964:8041   */\n      swap2\n      swap1\n      pop\n      jump\t// out\n        /* \"#utility.yul\":8047:8165   */\n    tag_182:\n        /* \"#utility.yul\":8134:8158   */\n      tag_315\n        /* \"#utility.yul\":8152:8157   */\n      dup2\n        /* \"#utility.yul\":8134:8158   */\n      tag_181\n      jump\t// in\n    tag_315:\n        /* \"#utility.yul\":8129:8132   */\n      dup3\n        /* \"#utility.yul\":8122:8159   */\n      mstore\n        /* \"#utility.yul\":8047:8165   */\n      pop\n      pop\n      jump\t// out\n        /* \"#utility.yul\":8171:8503   */\n    tag_44:\n        /* \"#utility.yul\":8292:8296   */\n      0x00\n        /* \"#utility.yul\":8330:8332   */\n      0x40\n        /* \"#utility.yul\":8319:8328   */\n      dup3\n        /* \"#utility.yul\":8315:8333   */\n      add\n        /* \"#utility.yul\":8307:8333   */\n      swap1\n      pop\n        /* \"#utility.yul\":8343:8414   */\n      tag_317\n        /* \"#utility.yul\":8411:8412   */\n      0x00\n        /* \"#utility.yul\":8400:8409   */\n      dup4\n        /* \"#utility.yul\":8396:8413   */\n      add\n        /* \"#utility.yul\":8387:8393   */\n      dup6\n        /* \"#utility.yul\":8343:8414   */\n      tag_182\n      jump\t// in\n    tag_317:\n        /* \"#utility.yul\":8424:8496   */\n      tag_318\n        /* \"#utility.yul\":8492:8494   */\n      0x20\n        /* \"#utility.yul\":8481:8490   */\n      dup4\n        /* \"#utility.yul\":8477:8495   */\n      add\n        /* \"#utility.yul\":8468:8474   */\n      dup5\n        /* \"#utility.yul\":8424:8496   */\n      tag_182\n      jump\t// in\n    tag_318:\n        /* \"#utility.yul\":8171:8503   */\n      swap4\n      swap3\n      pop\n      pop\n      pop\n      jump\t// out\n        /* \"#utility.yul\":8509:8731   */\n    tag_49:\n        /* \"#utility.yul\":8602:8606   */\n      0x00\n        /* \"#utility.yul\":8640:8642   */\n      0x20\n        /* \"#utility.yul\":8629:8638   */\n      dup3\n        /* \"#utility.yul\":8625:8643   */\n      add\n        /* \"#utility.yul\":8617:8643   */\n      swap1\n      pop\n        /* \"#utility.yul\":8653:8724   */\n      tag_320\n        /* \"#utility.yul\":8721:8722   */\n      0x00\n        /* \"#utility.yul\":8710:8719   */\n      dup4\n        /* \"#utility.yul\":8706:8723   */\n      add\n        /* \"#utility.yul\":8697:8703   */\n      dup5\n        /* \"#utility.yul\":8653:8724   */\n      tag_182\n      jump\t// in\n    tag_320:\n        /* \"#utility.yul\":8509:8731   */\n      swap3\n      swap2\n      pop\n      pop\n      jump\t// out\n        /* \"#utility.yul\":8737:8906   */\n    tag_183:\n        /* \"#utility.yul\":8821:8832   */\n      0x00\n        /* \"#utility.yul\":8855:8861   */\n      dup3\n        /* \"#utility.yul\":8850:8853   */\n      dup3\n        /* \"#utility.yul\":8843:8862   */\n      mstore\n        /* \"#utility.yul\":8895:8899   */\n      0x20\n        /* \"#utility.yul\":8890:8893   */\n      dup3\n        /* \"#utility.yul\":8886:8900   */\n      add\n        /* \"#utility.yul\":8871:8900   */\n      swap1\n      pop\n        /* \"#utility.yul\":8737:8906   */\n      swap3\n      swap2\n      pop\n      pop\n      jump\t// out\n        /* \"#utility.yul\":8912:9136   */\n    tag_184:\n        /* \"#utility.yul\":9052:9086   */\n      0x4163636573732064656e6965642c204f6e6c79206f776e657220697320616c6c\n        /* \"#utility.yul\":9048:9049   */\n      0x00\n        /* \"#utility.yul\":9040:9046   */\n      dup3\n        /* \"#utility.yul\":9036:9050   */\n      add\n        /* \"#utility.yul\":9029:9087   */\n      mstore\n        /* \"#utility.yul\":9121:9128   */\n      0x6f77656421000000000000000000000000000000000000000000000000000000\n        /* \"#utility.yul\":9116:9118   */\n      0x20\n        /* \"#utility.yul\":9108:9114   */\n      dup3\n        /* \"#utility.yul\":9104:9119   */\n      add\n        /* \"#utility.yul\":9097:9129   */\n      mstore\n        /* \"#utility.yul\":8912:9136   */\n      pop\n      jump\t// out\n        /* \"#utility.yul\":9142:9508   */\n    tag_185:\n        /* \"#utility.yul\":9284:9287   */\n      0x00\n        /* \"#utility.yul\":9305:9372   */\n      tag_324\n        /* \"#utility.yul\":9369:9371   */\n      0x25\n        /* \"#utility.yul\":9364:9367   */\n      dup4\n        /* \"#utility.yul\":9305:9372   */\n      tag_183\n      jump\t// in\n    tag_324:\n        /* \"#utility.yul\":9298:9372   */\n      swap2\n      pop\n        /* \"#utility.yul\":9381:9474   */\n      tag_325\n        /* \"#utility.yul\":9470:9473   */\n      dup3\n        /* \"#utility.yul\":9381:9474   */\n      tag_184\n      jump\t// in\n    tag_325:\n        /* \"#utility.yul\":9499:9501   */\n      0x40\n        /* \"#utility.yul\":9494:9497   */\n      dup3\n        /* \"#utility.yul\":9490:9502   */\n      add\n        /* \"#utility.yul\":9483:9502   */\n      swap1\n      pop\n        /* \"#utility.yul\":9142:9508   */\n      swap2\n      swap1\n      pop\n      jump\t// out\n        /* \"#utility.yul\":9514:9933   */\n    tag_55:\n        /* \"#utility.yul\":9680:9684   */\n      0x00\n        /* \"#utility.yul\":9718:9720   */\n      0x20\n        /* \"#utility.yul\":9707:9716   */\n      dup3\n        /* \"#utility.yul\":9703:9721   */\n      add\n        /* \"#utility.yul\":9695:9721   */\n      swap1\n      pop\n        /* \"#utility.yul\":9767:9776   */\n      dup2\n        /* \"#utility.yul\":9761:9765   */\n      dup2\n        /* \"#utility.yul\":9757:9777   */\n      sub\n        /* \"#utility.yul\":9753:9754   */\n      0x00\n        /* \"#utility.yul\":9742:9751   */\n      dup4\n        /* \"#utility.yul\":9738:9755   */\n      add\n        /* \"#utility.yul\":9731:9778   */\n      mstore\n        /* \"#utility.yul\":9795:9926   */\n      tag_327\n        /* \"#utility.yul\":9921:9925   */\n      dup2\n        /* \"#utility.yul\":9795:9926   */\n      tag_185\n      jump\t// in\n    tag_327:\n        /* \"#utility.yul\":9787:9926   */\n      swap1\n      pop\n        /* \"#utility.yul\":9514:9933   */\n      swap2\n      swap1\n      pop\n      jump\t// out\n        /* \"#utility.yul\":9939:10038   */\n    tag_186:\n        /* \"#utility.yul\":9991:9997   */\n      0x00\n        /* \"#utility.yul\":10025:10030   */\n      dup2\n        /* \"#utility.yul\":10019:10031   */\n      mload\n        /* \"#utility.yul\":10009:10031   */\n      swap1\n      pop\n        /* \"#utility.yul\":9939:10038   */\n      swap2\n      swap1\n      pop\n      jump\t// out\n        /* \"#utility.yul\":10044:10421   */\n    tag_187:\n        /* \"#utility.yul\":10132:10135   */\n      0x00\n        /* \"#utility.yul\":10160:10199   */\n      tag_330\n        /* \"#utility.yul\":10193:10198   */\n      dup3\n        /* \"#utility.yul\":10160:10199   */\n      tag_186\n      jump\t// in\n    tag_330:\n        /* \"#utility.yul\":10215:10286   */\n      tag_331\n        /* \"#utility.yul\":10279:10285   */\n      dup2\n        /* \"#utility.yul\":10274:10277   */\n      dup6\n        /* \"#utility.yul\":10215:10286   */\n      tag_183\n      jump\t// in\n    tag_331:\n        /* \"#utility.yul\":10208:10286   */\n      swap4\n      pop\n        /* \"#utility.yul\":10295:10360   */\n      tag_332\n        /* \"#utility.yul\":10353:10359   */\n      dup2\n        /* \"#utility.yul\":10348:10351   */\n      dup6\n        /* \"#utility.yul\":10341:10345   */\n      0x20\n        /* \"#utility.yul\":10334:10339   */\n      dup7\n        /* \"#utility.yul\":10330:10346   */\n      add\n        /* \"#utility.yul\":10295:10360   */\n      tag_179\n      jump\t// in\n    tag_332:\n        /* \"#utility.yul\":10385:10414   */\n      tag_333\n        /* \"#utility.yul\":10407:10413   */\n      dup2\n        /* \"#utility.yul\":10385:10414   */\n      tag_159\n      jump\t// in\n    tag_333:\n        /* \"#utility.yul\":10380:10383   */\n      dup5\n        /* \"#utility.yul\":10376:10415   */\n      add\n        /* \"#utility.yul\":10369:10415   */\n      swap2\n      pop\n        /* \"#utility.yul\":10136:10421   */\n      pop\n        /* \"#utility.yul\":10044:10421   */\n      swap3\n      swap2\n      pop\n      pop\n      jump\t// out\n        /* \"#utility.yul\":10427:10740   */\n    tag_58:\n        /* \"#utility.yul\":10540:10544   */\n      0x00\n        /* \"#utility.yul\":10578:10580   */\n      0x20\n        /* \"#utility.yul\":10567:10576   */\n      dup3\n        /* \"#utility.yul\":10563:10581   */\n      add\n        /* \"#utility.yul\":10555:10581   */\n      swap1\n      pop\n        /* \"#utility.yul\":10627:10636   */\n      dup2\n        /* \"#utility.yul\":10621:10625   */\n      dup2\n        /* \"#utility.yul\":10617:10637   */\n      sub\n        /* \"#utility.yul\":10613:10614   */\n      0x00\n        /* \"#utility.yul\":10602:10611   */\n      dup4\n        /* \"#utility.yul\":10598:10615   */\n      add\n        /* \"#utility.yul\":10591:10638   */\n      mstore\n        /* \"#utility.yul\":10655:10733   */\n      tag_335\n        /* \"#utility.yul\":10728:10732   */\n      dup2\n        /* \"#utility.yul\":10719:10725   */\n      dup5\n        /* \"#utility.yul\":10655:10733   */\n      tag_187\n      jump\t// in\n    tag_335:\n        /* \"#utility.yul\":10647:10733   */\n      swap1\n      pop\n        /* \"#utility.yul\":10427:10740   */\n      swap3\n      swap2\n      pop\n      pop\n      jump\t// out\n        /* \"#utility.yul\":10746:11053   */\n    tag_188:\n        /* \"#utility.yul\":10807:10811   */\n      0x00\n        /* \"#utility.yul\":10897:10915   */\n      0xffffffffffffffff\n        /* \"#utility.yul\":10889:10895   */\n      dup3\n        /* \"#utility.yul\":10886:10916   */\n      gt\n        /* \"#utility.yul\":10883:10939   */\n      iszero\n      tag_337\n      jumpi\n        /* \"#utility.yul\":10919:10937   */\n      tag_338\n      tag_160\n      jump\t// in\n    tag_338:\n        /* \"#utility.yul\":10883:10939   */\n    tag_337:\n        /* \"#utility.yul\":10957:10986   */\n      tag_339\n        /* \"#utility.yul\":10979:10985   */\n      dup3\n        /* \"#utility.yul\":10957:10986   */\n      tag_159\n      jump\t// in\n    tag_339:\n        /* \"#utility.yul\":10949:10986   */\n      swap1\n      pop\n        /* \"#utility.yul\":11041:11045   */\n      0x20\n        /* \"#utility.yul\":11035:11039   */\n      dup2\n        /* \"#utility.yul\":11031:11046   */\n      add\n        /* \"#utility.yul\":11023:11046   */\n      swap1\n      pop\n        /* \"#utility.yul\":10746:11053   */\n      swap2\n      swap1\n      pop\n      jump\t// out\n        /* \"#utility.yul\":11059:11491   */\n    tag_189:\n        /* \"#utility.yul\":11147:11152   */\n      0x00\n        /* \"#utility.yul\":11172:11237   */\n      tag_341\n        /* \"#utility.yul\":11188:11236   */\n      tag_342\n        /* \"#utility.yul\":11229:11235   */\n      dup5\n        /* \"#utility.yul\":11188:11236   */\n      tag_188\n      jump\t// in\n    tag_342:\n        /* \"#utility.yul\":11172:11237   */\n      tag_162\n      jump\t// in\n    tag_341:\n        /* \"#utility.yul\":11163:11237   */\n      swap1\n      pop\n        /* \"#utility.yul\":11260:11266   */\n      dup3\n        /* \"#utility.yul\":11253:11258   */\n      dup2\n        /* \"#utility.yul\":11246:11267   */\n      mstore\n        /* \"#utility.yul\":11298:11302   */\n      0x20\n        /* \"#utility.yul\":11291:11296   */\n      dup2\n        /* \"#utility.yul\":11287:11303   */\n      add\n        /* \"#utility.yul\":11336:11339   */\n      dup5\n        /* \"#utility.yul\":11327:11333   */\n      dup5\n        /* \"#utility.yul\":11322:11325   */\n      dup5\n        /* \"#utility.yul\":11318:11334   */\n      add\n        /* \"#utility.yul\":11315:11340   */\n      gt\n        /* \"#utility.yul\":11312:11424   */\n      iszero\n      tag_343\n      jumpi\n        /* \"#utility.yul\":11343:11422   */\n      tag_344\n      tag_158\n      jump\t// in\n    tag_344:\n        /* \"#utility.yul\":11312:11424   */\n    tag_343:\n        /* \"#utility.yul\":11433:11485   */\n      tag_345\n        /* \"#utility.yul\":11478:11484   */\n      dup5\n        /* \"#utility.yul\":11473:11476   */\n      dup3\n        /* \"#utility.yul\":11468:11471   */\n      dup6\n        /* \"#utility.yul\":11433:11485   */\n      tag_179\n      jump\t// in\n    tag_345:\n        /* \"#utility.yul\":11153:11491   */\n      pop\n        /* \"#utility.yul\":11059:11491   */\n      swap4\n      swap3\n      pop\n      pop\n      pop\n      jump\t// out\n        /* \"#utility.yul\":11510:11863   */\n    tag_190:\n        /* \"#utility.yul\":11576:11581   */\n      0x00\n        /* \"#utility.yul\":11625:11628   */\n      dup3\n        /* \"#utility.yul\":11618:11622   */\n      0x1f\n        /* \"#utility.yul\":11610:11616   */\n      dup4\n        /* \"#utility.yul\":11606:11623   */\n      add\n        /* \"#utility.yul\":11602:11629   */\n      slt\n        /* \"#utility.yul\":11592:11714   */\n      tag_347\n      jumpi\n        /* \"#utility.yul\":11633:11712   */\n      tag_348\n      tag_157\n      jump\t// in\n    tag_348:\n        /* \"#utility.yul\":11592:11714   */\n    tag_347:\n        /* \"#utility.yul\":11743:11749   */\n      dup2\n        /* \"#utility.yul\":11737:11750   */\n      mload\n        /* \"#utility.yul\":11768:11857   */\n      tag_349\n        /* \"#utility.yul\":11853:11856   */\n      dup5\n        /* \"#utility.yul\":11845:11851   */\n      dup3\n        /* \"#utility.yul\":11838:11842   */\n      0x20\n        /* \"#utility.yul\":11830:11836   */\n      dup7\n        /* \"#utility.yul\":11826:11843   */\n      add\n        /* \"#utility.yul\":11768:11857   */\n      tag_189\n      jump\t// in\n    tag_349:\n        /* \"#utility.yul\":11759:11857   */\n      swap2\n      pop\n        /* \"#utility.yul\":11582:11863   */\n      pop\n        /* \"#utility.yul\":11510:11863   */\n      swap3\n      swap2\n      pop\n      pop\n      jump\t// out\n        /* \"#utility.yul\":11869:12391   */\n    tag_62:\n        /* \"#utility.yul\":11948:11954   */\n      0x00\n        /* \"#utility.yul\":11997:11999   */\n      0x20\n        /* \"#utility.yul\":11985:11994   */\n      dup3\n        /* \"#utility.yul\":11976:11983   */\n      dup5\n        /* \"#utility.yul\":11972:11995   */\n      sub\n        /* \"#utility.yul\":11968:12000   */\n      slt\n        /* \"#utility.yul\":11965:12084   */\n      iszero\n      tag_351\n      jumpi\n        /* \"#utility.yul\":12003:12082   */\n      tag_352\n      tag_155\n      jump\t// in\n    tag_352:\n        /* \"#utility.yul\":11965:12084   */\n    tag_351:\n        /* \"#utility.yul\":12144:12145   */\n      0x00\n        /* \"#utility.yul\":12133:12142   */\n      dup3\n        /* \"#utility.yul\":12129:12146   */\n      add\n        /* \"#utility.yul\":12123:12147   */\n      mload\n        /* \"#utility.yul\":12174:12192   */\n      0xffffffffffffffff\n        /* \"#utility.yul\":12166:12172   */\n      dup2\n        /* \"#utility.yul\":12163:12193   */\n      gt\n        /* \"#utility.yul\":12160:12277   */\n      iszero\n      tag_353\n      jumpi\n        /* \"#utility.yul\":12196:12275   */\n      tag_354\n      tag_156\n      jump\t// in\n    tag_354:\n        /* \"#utility.yul\":12160:12277   */\n    tag_353:\n        /* \"#utility.yul\":12301:12374   */\n      tag_355\n        /* \"#utility.yul\":12366:12373   */\n      dup5\n        /* \"#utility.yul\":12357:12363   */\n      dup3\n        /* \"#utility.yul\":12346:12355   */\n      dup6\n        /* \"#utility.yul\":12342:12364   */\n      add\n        /* \"#utility.yul\":12301:12374   */\n      tag_190\n      jump\t// in\n    tag_355:\n        /* \"#utility.yul\":12291:12374   */\n      swap2\n      pop\n        /* \"#utility.yul\":12094:12384   */\n      pop\n        /* \"#utility.yul\":11869:12391   */\n      swap3\n      swap2\n      pop\n      pop\n      jump\t// out\n        /* \"#utility.yul\":12397:12577   */\n    tag_191:\n        /* \"#utility.yul\":12445:12522   */\n      0x4e487b7100000000000000000000000000000000000000000000000000000000\n        /* \"#utility.yul\":12442:12443   */\n      0x00\n        /* \"#utility.yul\":12435:12523   */\n      mstore\n        /* \"#utility.yul\":12542:12546   */\n      0x22\n        /* \"#utility.yul\":12539:12540   */\n      0x04\n        /* \"#utility.yul\":12532:12547   */\n      mstore\n        /* \"#utility.yul\":12566:12570   */\n      0x24\n        /* \"#utility.yul\":12563:12564   */\n      0x00\n        /* \"#utility.yul\":12556:12571   */\n      revert\n        /* \"#utility.yul\":12583:12903   */\n    tag_192:\n        /* \"#utility.yul\":12627:12633   */\n      0x00\n        /* \"#utility.yul\":12664:12665   */\n      0x02\n        /* \"#utility.yul\":12658:12662   */\n      dup3\n        /* \"#utility.yul\":12654:12666   */\n      div\n        /* \"#utility.yul\":12644:12666   */\n      swap1\n      pop\n        /* \"#utility.yul\":12711:12712   */\n      0x01\n        /* \"#utility.yul\":12705:12709   */\n      dup3\n        /* \"#utility.yul\":12701:12713   */\n      and\n        /* \"#utility.yul\":12732:12750   */\n      dup1\n        /* \"#utility.yul\":12722:12803   */\n      tag_358\n      jumpi\n        /* \"#utility.yul\":12788:12792   */\n      0x7f\n        /* \"#utility.yul\":12780:12786   */\n      dup3\n        /* \"#utility.yul\":12776:12793   */\n      and\n        /* \"#utility.yul\":12766:12793   */\n      swap2\n      pop\n        /* \"#utility.yul\":12722:12803   */\n    tag_358:\n        /* \"#utility.yul\":12850:12852   */\n      0x20\n        /* \"#utility.yul\":12842:12848   */\n      dup3\n        /* \"#utility.yul\":12839:12853   */\n      lt\n        /* \"#utility.yul\":12819:12837   */\n      dup2\n        /* \"#utility.yul\":12816:12854   */\n      sub\n        /* \"#utility.yul\":12813:12897   */\n      tag_359\n      jumpi\n        /* \"#utility.yul\":12869:12887   */\n      tag_360\n      tag_191\n      jump\t// in\n    tag_360:\n        /* \"#utility.yul\":12813:12897   */\n    tag_359:\n        /* \"#utility.yul\":12634:12903   */\n      pop\n        /* \"#utility.yul\":12583:12903   */\n      swap2\n      swap1\n      pop\n      jump\t// out\n        /* \"#utility.yul\":12909:13049   */\n    tag_193:\n        /* \"#utility.yul\":12957:12961   */\n      0x00\n        /* \"#utility.yul\":12980:12983   */\n      dup2\n        /* \"#utility.yul\":12972:12983   */\n      swap1\n      pop\n        /* \"#utility.yul\":13003:13006   */\n      dup2\n        /* \"#utility.yul\":13000:13001   */\n      0x00\n        /* \"#utility.yul\":12993:13007   */\n      mstore\n        /* \"#utility.yul\":13037:13041   */\n      0x20\n        /* \"#utility.yul\":13034:13035   */\n      0x00\n        /* \"#utility.yul\":13024:13042   */\n      keccak256\n        /* \"#utility.yul\":13016:13042   */\n      swap1\n      pop\n        /* \"#utility.yul\":12909:13049   */\n      swap2\n      swap1\n      pop\n      jump\t// out\n        /* \"#utility.yul\":13055:13148   */\n    tag_194:\n        /* \"#utility.yul\":13092:13098   */\n      0x00\n        /* \"#utility.yul\":13139:13141   */\n      0x20\n        /* \"#utility.yul\":13134:13136   */\n      0x1f\n        /* \"#utility.yul\":13127:13132   */\n      dup4\n        /* \"#utility.yul\":13123:13137   */\n      add\n        /* \"#utility.yul\":13119:13142   */\n      div\n        /* \"#utility.yul\":13109:13142   */\n      swap1\n      pop\n        /* \"#utility.yul\":13055:13148   */\n      swap2\n      swap1\n      pop\n      jump\t// out\n        /* \"#utility.yul\":13154:13261   */\n    tag_195:\n        /* \"#utility.yul\":13198:13206   */\n      0x00\n        /* \"#utility.yul\":13248:13253   */\n      dup3\n        /* \"#utility.yul\":13242:13246   */\n      dup3\n        /* \"#utility.yul\":13238:13254   */\n      shl\n        /* \"#utility.yul\":13217:13254   */\n      swap1\n      pop\n        /* \"#utility.yul\":13154:13261   */\n      swap3\n      swap2\n      pop\n      pop\n      jump\t// out\n        /* \"#utility.yul\":13267:13660   */\n    tag_196:\n        /* \"#utility.yul\":13336:13342   */\n      0x00\n        /* \"#utility.yul\":13386:13387   */\n      0x08\n        /* \"#utility.yul\":13374:13384   */\n      dup4\n        /* \"#utility.yul\":13370:13388   */\n      mul\n        /* \"#utility.yul\":13409:13506   */\n      tag_365\n        /* \"#utility.yul\":13439:13505   */\n      0xffffffffffffffffffffffffffffffffffffffffffffffffffffffffffffffff\n        /* \"#utility.yul\":13428:13437   */\n      dup3\n        /* \"#utility.yul\":13409:13506   */\n      tag_195\n      jump\t// in\n    tag_365:\n        /* \"#utility.yul\":13527:13566   */\n      tag_366\n        /* \"#utility.yul\":13557:13565   */\n      dup7\n        /* \"#utility.yul\":13546:13555   */\n      dup4\n        /* \"#utility.yul\":13527:13566   */\n      tag_195\n      jump\t// in\n    tag_366:\n        /* \"#utility.yul\":13515:13566   */\n      swap6\n      pop\n        /* \"#utility.yul\":13599:13603   */\n      dup1\n        /* \"#utility.yul\":13595:13604   */\n      not\n        /* \"#utility.yul\":13588:13593   */\n      dup5\n        /* \"#utility.yul\":13584:13605   */\n      and\n        /* \"#utility.yul\":13575:13605   */\n      swap4\n      pop\n        /* \"#utility.yul\":13648:13652   */\n      dup1\n        /* \"#utility.yul\":13638:13646   */\n      dup7\n        /* \"#utility.yul\":13634:13653   */\n      and\n        /* \"#utility.yul\":13627:13632   */\n      dup5\n        /* \"#utility.yul\":13624:13654   */\n      or\n        /* \"#utility.yul\":13614:13654   */\n      swap3\n      pop\n        /* \"#utility.yul\":13343:13660   */\n      pop\n      pop\n        /* \"#utility.yul\":13267:13660   */\n      swap4\n      swap3\n      pop\n      pop\n      pop\n      jump\t// out\n        /* \"#utility.yul\":13666:13726   */\n    tag_197:\n        /* \"#utility.yul\":13694:13697   */\n      0x00\n        /* \"#utility.yul\":13715:13720   */\n      dup2\n        /* \"#utility.yul\":13708:13720   */\n      swap1\n      pop\n        /* \"#utility.yul\":13666:13726   */\n      swap2\n      swap1\n      pop\n      jump\t// out\n        /* \"#utility.yul\":13732:13874   */\n    tag_198:\n        /* \"#utility.yul\":13782:13791   */\n      0x00\n        /* \"#utility.yul\":13815:13868   */\n      tag_369\n        /* \"#utility.yul\":13833:13867   */\n      tag_370\n        /* \"#utility.yul\":13842:13866   */\n      tag_371\n        /* \"#utility.yul\":13860:13865   */\n      dup5\n        /* \"#utility.yul\":13842:13866   */\n      tag_181\n      jump\t// in\n    tag_371:\n        /* \"#utility.yul\":13833:13867   */\n      tag_197\n      jump\t// in\n    tag_370:\n        /* \"#utility.yul\":13815:13868   */\n      tag_181\n      jump\t// in\n    tag_369:\n        /* \"#utility.yul\":13802:13868   */\n      swap1\n      pop\n        /* \"#utility.yul\":13732:13874   */\n      swap2\n      swap1\n      pop\n      jump\t// out\n        /* \"#utility.yul\":13880:13955   */\n    tag_199:\n        /* \"#utility.yul\":13923:13926   */\n      0x00\n        /* \"#utility.yul\":13944:13949   */\n      dup2\n        /* \"#utility.yul\":13937:13949   */\n      swap1\n      pop\n        /* \"#utility.yul\":13880:13955   */\n      swap2\n      swap1\n      pop\n      jump\t// out\n        /* \"#utility.yul\":13961:14230   */\n    tag_200:\n        /* \"#utility.yul\":14071:14110   */\n      tag_374\n        /* \"#utility.yul\":14102:14109   */\n      dup4\n        /* \"#utility.yul\":14071:14110   */\n      tag_198\n      jump\t// in\n    tag_374:\n        /* \"#utility.yul\":14132:14223   */\n      tag_375\n        /* \"#utility.yul\":14181:14222   */\n      tag_376\n        /* \"#utility.yul\":14205:14221   */\n      dup3\n        /* \"#utility.yul\":14181:14222   */\n      tag_199\n      jump\t// in\n    tag_376:\n        /* \"#utility.yul\":14173:14179   */\n      dup5\n        /* \"#utility.yul\":14166:14170   */\n      dup5\n        /* \"#utility.yul\":14160:14171   */\n      sload\n        /* \"#utility.yul\":14132:14223   */\n      tag_196\n      jump\t// in\n    tag_375:\n        /* \"#utility.yul\":14126:14130   */\n      dup3\n        /* \"#utility.yul\":14119:14224   */\n      sstore\n        /* \"#utility.yul\":14037:14230   */\n      pop\n        /* \"#utility.yul\":13961:14230   */\n      pop\n      pop\n      pop\n      jump\t// out\n        /* \"#utility.yul\":14236:14309   */\n    tag_201:\n        /* \"#utility.yul\":14281:14284   */\n      0x00\n        /* \"#utility.yul\":14236:14309   */\n      swap1\n      jump\t// out\n        /* \"#utility.yul\":14315:14504   */\n    tag_202:\n        /* \"#utility.yul\":14392:14424   */\n      tag_379\n      tag_201\n      jump\t// in\n    tag_379:\n        /* \"#utility.yul\":14433:14498   */\n      tag_380\n        /* \"#utility.yul\":14491:14497   */\n      dup2\n        /* \"#utility.yul\":14483:14489   */\n      dup5\n        /* \"#utility.yul\":14477:14481   */\n      dup5\n        /* \"#utility.yul\":14433:14498   */\n      tag_200\n      jump\t// in\n    tag_380:\n        /* \"#utility.yul\":14368:14504   */\n      pop\n        /* \"#utility.yul\":14315:14504   */\n      pop\n      pop\n      jump\t// out\n        /* \"#utility.yul\":14510:14696   */\n    tag_203:\n        /* \"#utility.yul\":14570:14690   */\n    tag_382:\n        /* \"#utility.yul\":14587:14590   */\n      dup2\n        /* \"#utility.yul\":14580:14585   */\n      dup2\n        /* \"#utility.yul\":14577:14591   */\n      lt\n        /* \"#utility.yul\":14570:14690   */\n      iszero\n      tag_384\n      jumpi\n        /* \"#utility.yul\":14641:14680   */\n      tag_385\n        /* \"#utility.yul\":14678:14679   */\n      0x00\n        /* \"#utility.yul\":14671:14676   */\n      dup3\n        /* \"#utility.yul\":14641:14680   */\n      tag_202\n      jump\t// in\n    tag_385:\n        /* \"#utility.yul\":14614:14615   */\n      0x01\n        /* \"#utility.yul\":14607:14612   */\n      dup2\n        /* \"#utility.yul\":14603:14616   */\n      add\n        /* \"#utility.yul\":14594:14616   */\n      swap1\n      pop\n        /* \"#utility.yul\":14570:14690   */\n      jump(tag_382)\n    tag_384:\n        /* \"#utility.yul\":14510:14696   */\n      pop\n      pop\n      jump\t// out\n        /* \"#utility.yul\":14702:15243   */\n    tag_204:\n        /* \"#utility.yul\":14802:14804   */\n      0x1f\n        /* \"#utility.yul\":14797:14800   */\n      dup3\n        /* \"#utility.yul\":14794:14805   */\n      gt\n        /* \"#utility.yul\":14791:15236   */\n      iszero\n      tag_387\n      jumpi\n        /* \"#utility.yul\":14836:14873   */\n      tag_388\n        /* \"#utility.yul\":14867:14872   */\n      dup2\n        /* \"#utility.yul\":14836:14873   */\n      tag_193\n      jump\t// in\n    tag_388:\n        /* \"#utility.yul\":14919:14948   */\n      tag_389\n        /* \"#utility.yul\":14937:14947   */\n      dup5\n        /* \"#utility.yul\":14919:14948   */\n      tag_194\n      jump\t// in\n    tag_389:\n        /* \"#utility.yul\":14909:14917   */\n      dup2\n        /* \"#utility.yul\":14905:14949   */\n      add\n        /* \"#utility.yul\":15102:15104   */\n      0x20\n        /* \"#utility.yul\":15090:15100   */\n      dup6\n        /* \"#utility.yul\":15087:15105   */\n      lt\n        /* \"#utility.yul\":15084:15133   */\n      iszero\n      tag_390\n      jumpi\n        /* \"#utility.yul\":15123:15131   */\n      dup2\n        /* \"#utility.yul\":15108:15131   */\n      swap1\n      pop\n        /* \"#utility.yul\":15084:15133   */\n    tag_390:\n        /* \"#utility.yul\":15146:15226   */\n      tag_391\n        /* \"#utility.yul\":15202:15224   */\n      tag_392\n        /* \"#utility.yul\":15220:15223   */\n      dup6\n        /* \"#utility.yul\":15202:15224   */\n      tag_194\n      jump\t// in\n    tag_392:\n        /* \"#utility.yul\":15192:15200   */\n      dup4\n        /* \"#utility.yul\":15188:15225   */\n      add\n        /* \"#utility.yul\":15175:15186   */\n      dup3\n        /* \"#utility.yul\":15146:15226   */\n      tag_203\n      jump\t// in\n    tag_391:\n        /* \"#utility.yul\":14806:15236   */\n      pop\n      pop\n        /* \"#utility.yul\":14791:15236   */\n    tag_387:\n        /* \"#utility.yul\":14702:15243   */\n      pop\n      pop\n      pop\n      jump\t// out\n        /* \"#utility.yul\":15249:15366   */\n    tag_205:\n        /* \"#utility.yul\":15303:15311   */\n      0x00\n        /* \"#utility.yul\":15353:15358   */\n      dup3\n        /* \"#utility.yul\":15347:15351   */\n      dup3\n        /* \"#utility.yul\":15343:15359   */\n      shr\n        /* \"#utility.yul\":15322:15359   */\n      swap1\n      pop\n        /* \"#utility.yul\":15249:15366   */\n      swap3\n      swap2\n      pop\n      pop\n      jump\t// out\n        /* \"#utility.yul\":15372:15541   */\n    tag_206:\n        /* \"#utility.yul\":15416:15422   */\n      0x00\n        /* \"#utility.yul\":15449:15500   */\n      tag_395\n        /* \"#utility.yul\":15497:15498   */\n      0x00\n        /* \"#utility.yul\":15493:15499   */\n      not\n        /* \"#utility.yul\":15485:15490   */\n      dup5\n        /* \"#utility.yul\":15482:15483   */\n      0x08\n        /* \"#utility.yul\":15478:15491   */\n      mul\n        /* \"#utility.yul\":15449:15500   */\n      tag_205\n      jump\t// in\n    tag_395:\n        /* \"#utility.yul\":15445:15501   */\n      not\n        /* \"#utility.yul\":15530:15534   */\n      dup1\n        /* \"#utility.yul\":15524:15528   */\n      dup4\n        /* \"#utility.yul\":15520:15535   */\n      and\n        /* \"#utility.yul\":15510:15535   */\n      swap2\n      pop\n        /* \"#utility.yul\":15423:15541   */\n      pop\n        /* \"#utility.yul\":15372:15541   */\n      swap3\n      swap2\n      pop\n      pop\n      jump\t// out\n        /* \"#utility.yul\":15546:15841   */\n    tag_207:\n        /* \"#utility.yul\":15622:15626   */\n      0x00\n        /* \"#utility.yul\":15768:15797   */\n      tag_397\n        /* \"#utility.yul\":15793:15796   */\n      dup4\n        /* \"#utility.yul\":15787:15791   */\n      dup4\n        /* \"#utility.yul\":15768:15797   */\n      tag_206\n      jump\t// in\n    tag_397:\n        /* \"#utility.yul\":15760:15797   */\n      swap2\n      pop\n        /* \"#utility.yul\":15830:15833   */\n      dup3\n        /* \"#utility.yul\":15827:15828   */\n      0x02\n        /* \"#utility.yul\":15823:15834   */\n      mul\n        /* \"#utility.yul\":15817:15821   */\n      dup3\n        /* \"#utility.yul\":15814:15835   */\n      or\n        /* \"#utility.yul\":15806:15835   */\n      swap1\n      pop\n        /* \"#utility.yul\":15546:15841   */\n      swap3\n      swap2\n      pop\n      pop\n      jump\t// out\n        /* \"#utility.yul\":15846:17236   */\n    tag_64:\n        /* \"#utility.yul\":15961:15997   */\n      tag_399\n        /* \"#utility.yul\":15993:15996   */\n      dup3\n        /* \"#utility.yul\":15961:15997   */\n      tag_177\n      jump\t// in\n    tag_399:\n        /* \"#utility.yul\":16062:16080   */\n      0xffffffffffffffff\n        /* \"#utility.yul\":16054:16060   */\n      dup2\n        /* \"#utility.yul\":16051:16081   */\n      gt\n        /* \"#utility.yul\":16048:16104   */\n      iszero\n      tag_400\n      jumpi\n        /* \"#utility.yul\":16084:16102   */\n      tag_401\n      tag_160\n      jump\t// in\n    tag_401:\n        /* \"#utility.yul\":16048:16104   */\n    tag_400:\n        /* \"#utility.yul\":16128:16166   */\n      tag_402\n        /* \"#utility.yul\":16160:16164   */\n      dup3\n        /* \"#utility.yul\":16154:16165   */\n      sload\n        /* \"#utility.yul\":16128:16166   */\n      tag_192\n      jump\t// in\n    tag_402:\n        /* \"#utility.yul\":16213:16279   */\n      tag_403\n        /* \"#utility.yul\":16272:16278   */\n      dup3\n        /* \"#utility.yul\":16264:16270   */\n      dup3\n        /* \"#utility.yul\":16258:16262   */\n      dup6\n        /* \"#utility.yul\":16213:16279   */\n      tag_204\n      jump\t// in\n    tag_403:\n        /* \"#utility.yul\":16306:16307   */\n      0x00\n        /* \"#utility.yul\":16330:16334   */\n      0x20\n        /* \"#utility.yul\":16317:16334   */\n      swap1\n      pop\n        /* \"#utility.yul\":16362:16364   */\n      0x1f\n        /* \"#utility.yul\":16354:16360   */\n      dup4\n        /* \"#utility.yul\":16351:16365   */\n      gt\n        /* \"#utility.yul\":16379:16380   */\n      0x01\n        /* \"#utility.yul\":16374:16991   */\n      dup2\n      eq\n      tag_405\n      jumpi\n        /* \"#utility.yul\":17035:17036   */\n      0x00\n        /* \"#utility.yul\":17052:17058   */\n      dup5\n        /* \"#utility.yul\":17049:17126   */\n      iszero\n      tag_406\n      jumpi\n        /* \"#utility.yul\":17101:17110   */\n      dup3\n        /* \"#utility.yul\":17096:17099   */\n      dup8\n        /* \"#utility.yul\":17092:17111   */\n      add\n        /* \"#utility.yul\":17086:17112   */\n      mload\n        /* \"#utility.yul\":17077:17112   */\n      swap1\n      pop\n        /* \"#utility.yul\":17049:17126   */\n    tag_406:\n        /* \"#utility.yul\":17152:17219   */\n      tag_407\n        /* \"#utility.yul\":17212:17218   */\n      dup6\n        /* \"#utility.yul\":17205:17210   */\n      dup3\n        /* \"#utility.yul\":17152:17219   */\n      tag_207\n      jump\t// in\n    tag_407:\n        /* \"#utility.yul\":17146:17150   */\n      dup7\n        /* \"#utility.yul\":17139:17220   */\n      sstore\n        /* \"#utility.yul\":17008:17230   */\n      pop\n        /* \"#utility.yul\":16344:17230   */\n      jump(tag_404)\n        /* \"#utility.yul\":16374:16991   */\n    tag_405:\n        /* \"#utility.yul\":16426:16430   */\n      0x1f\n        /* \"#utility.yul\":16422:16431   */\n      not\n        /* \"#utility.yul\":16414:16420   */\n      dup5\n        /* \"#utility.yul\":16410:16432   */\n      and\n        /* \"#utility.yul\":16460:16496   */\n      tag_408\n        /* \"#utility.yul\":16491:16495   */\n      dup7\n        /* \"#utility.yul\":16460:16496   */\n      tag_193\n      jump\t// in\n    tag_408:\n        /* \"#utility.yul\":16518:16519   */\n      0x00\n        /* \"#utility.yul\":16532:16740   */\n    tag_409:\n        /* \"#utility.yul\":16546:16553   */\n      dup3\n        /* \"#utility.yul\":16543:16544   */\n      dup2\n        /* \"#utility.yul\":16540:16554   */\n      lt\n        /* \"#utility.yul\":16532:16740   */\n      iszero\n      tag_411\n      jumpi\n        /* \"#utility.yul\":16625:16634   */\n      dup5\n        /* \"#utility.yul\":16620:16623   */\n      dup10\n        /* \"#utility.yul\":16616:16635   */\n      add\n        /* \"#utility.yul\":16610:16636   */\n      mload\n        /* \"#utility.yul\":16602:16608   */\n      dup3\n        /* \"#utility.yul\":16595:16637   */\n      sstore\n        /* \"#utility.yul\":16676:16677   */\n      0x01\n        /* \"#utility.yul\":16668:16674   */\n      dup3\n        /* \"#utility.yul\":16664:16678   */\n      add\n        /* \"#utility.yul\":16654:16678   */\n      swap2\n      pop\n        /* \"#utility.yul\":16723:16725   */\n      0x20\n        /* \"#utility.yul\":16712:16721   */\n      dup6\n        /* \"#utility.yul\":16708:16726   */\n      add\n        /* \"#utility.yul\":16695:16726   */\n      swap5\n      pop\n        /* \"#utility.yul\":16569:16573   */\n      0x20\n        /* \"#utility.yul\":16566:16567   */\n      dup2\n        /* \"#utility.yul\":16562:16574   */\n      add\n        /* \"#utility.yul\":16557:16574   */\n      swap1\n      pop\n        /* \"#utility.yul\":16532:16740   */\n      jump(tag_409)\n    tag_411:\n        /* \"#utility.yul\":16768:16774   */\n      dup7\n        /* \"#utility.yul\":16759:16766   */\n      dup4\n        /* \"#utility.yul\":16756:16775   */\n      lt\n        /* \"#utility.yul\":16753:16932   */\n      iszero\n      tag_412\n      jumpi\n        /* \"#utility.yul\":16826:16835   */\n      dup5\n        /* \"#utility.yul\":16821:16824   */\n      dup10\n        /* \"#utility.yul\":16817:16836   */\n      add\n        /* \"#utility.yul\":16811:16837   */\n      mload\n        /* \"#utility.yul\":16869:16917   */\n      tag_413\n        /* \"#utility.yul\":16911:16915   */\n      0x1f\n        /* \"#utility.yul\":16903:16909   */\n      dup10\n        /* \"#utility.yul\":16899:16916   */\n      and\n        /* \"#utility.yul\":16888:16897   */\n      dup3\n        /* \"#utility.yul\":16869:16917   */\n      tag_206\n      jump\t// in\n    tag_413:\n        /* \"#utility.yul\":16861:16867   */\n      dup4\n        /* \"#utility.yul\":16854:16918   */\n      sstore\n        /* \"#utility.yul\":16776:16932   */\n      pop\n        /* \"#utility.yul\":16753:16932   */\n    tag_412:\n        /* \"#utility.yul\":16978:16979   */\n      0x01\n        /* \"#utility.yul\":16974:16975   */\n      0x02\n        /* \"#utility.yul\":16966:16972   */\n      dup9\n        /* \"#utility.yul\":16962:16976   */\n      mul\n        /* \"#utility.yul\":16958:16980   */\n      add\n        /* \"#utility.yul\":16952:16956   */\n      dup9\n        /* \"#utility.yul\":16945:16981   */\n      sstore\n        /* \"#utility.yul\":16381:16991   */\n      pop\n      pop\n      pop\n        /* \"#utility.yul\":16344:17230   */\n    tag_404:\n      pop\n        /* \"#utility.yul\":15936:17236   */\n      pop\n      pop\n      pop\n        /* \"#utility.yul\":15846:17236   */\n      pop\n      pop\n      jump\t// out\n        /* \"#utility.yul\":17242:17360   */\n    tag_208:\n        /* \"#utility.yul\":17329:17353   */\n      tag_415\n        /* \"#utility.yul\":17347:17352   */\n      dup2\n        /* \"#utility.yul\":17329:17353   */\n      tag_168\n      jump\t// in\n    tag_415:\n        /* \"#utility.yul\":17324:17327   */\n      dup3\n        /* \"#utility.yul\":17317:17354   */\n      mstore\n        /* \"#utility.yul\":17242:17360   */\n      pop\n      pop\n      jump\t// out\n        /* \"#utility.yul\":17366:17808   */\n    tag_71:\n        /* \"#utility.yul\":17515:17519   */\n      0x00\n        /* \"#utility.yul\":17553:17555   */\n      0x60\n        /* \"#utility.yul\":17542:17551   */\n      dup3\n        /* \"#utility.yul\":17538:17556   */\n      add\n        /* \"#utility.yul\":17530:17556   */\n      swap1\n      pop\n        /* \"#utility.yul\":17566:17637   */\n      tag_417\n        /* \"#utility.yul\":17634:17635   */\n      0x00\n        /* \"#utility.yul\":17623:17632   */\n      dup4\n        /* \"#utility.yul\":17619:17636   */\n      add\n        /* \"#utility.yul\":17610:17616   */\n      dup7\n        /* \"#utility.yul\":17566:17637   */\n      tag_208\n      jump\t// in\n    tag_417:\n        /* \"#utility.yul\":17647:17719   */\n      tag_418\n        /* \"#utility.yul\":17715:17717   */\n      0x20\n        /* \"#utility.yul\":17704:17713   */\n      dup4\n        /* \"#utility.yul\":17700:17718   */\n      add\n        /* \"#utility.yul\":17691:17697   */\n      dup6\n        /* \"#utility.yul\":17647:17719   */\n      tag_208\n      jump\t// in\n    tag_418:\n        /* \"#utility.yul\":17729:17801   */\n      tag_419\n        /* \"#utility.yul\":17797:17799   */\n      0x40\n        /* \"#utility.yul\":17786:17795   */\n      dup4\n        /* \"#utility.yul\":17782:17800   */\n      add\n        /* \"#utility.yul\":17773:17779   */\n      dup5\n        /* \"#utility.yul\":17729:17801   */\n      tag_182\n      jump\t// in\n    tag_419:\n        /* \"#utility.yul\":17366:17808   */\n      swap5\n      swap4\n      pop\n      pop\n      pop\n      pop\n      jump\t// out\n        /* \"#utility.yul\":17814:18039   */\n    tag_209:\n        /* \"#utility.yul\":17954:17988   */\n      0x4163636573732064656e6965642e204f6e6c792050797468696120697320616c\n        /* \"#utility.yul\":17950:17951   */\n      0x00\n        /* \"#utility.yul\":17942:17948   */\n      dup3\n        /* \"#utility.yul\":17938:17952   */\n      add\n        /* \"#utility.yul\":17931:17989   */\n      mstore\n        /* \"#utility.yul\":18023:18031   */\n      0x6c6f776564210000000000000000000000000000000000000000000000000000\n        /* \"#utility.yul\":18018:18020   */\n      0x20\n        /* \"#utility.yul\":18010:18016   */\n      dup3\n        /* \"#utility.yul\":18006:18021   */\n      add\n        /* \"#utility.yul\":17999:18032   */\n      mstore\n        /* \"#utility.yul\":17814:18039   */\n      pop\n      jump\t// out\n        /* \"#utility.yul\":18045:18411   */\n    tag_210:\n        /* \"#utility.yul\":18187:18190   */\n      0x00\n        /* \"#utility.yul\":18208:18275   */\n      tag_422\n        /* \"#utility.yul\":18272:18274   */\n      0x26\n        /* \"#utility.yul\":18267:18270   */\n      dup4\n        /* \"#utility.yul\":18208:18275   */\n      tag_183\n      jump\t// in\n    tag_422:\n        /* \"#utility.yul\":18201:18275   */\n      swap2\n      pop\n        /* \"#utility.yul\":18284:18377   */\n      tag_423\n        /* \"#utility.yul\":18373:18376   */\n      dup3\n        /* \"#utility.yul\":18284:18377   */\n      tag_209\n      jump\t// in\n    tag_423:\n        /* \"#utility.yul\":18402:18404   */\n      0x40\n        /* \"#utility.yul\":18397:18400   */\n      dup3\n        /* \"#utility.yul\":18393:18405   */\n      add\n        /* \"#utility.yul\":18386:18405   */\n      swap1\n      pop\n        /* \"#utility.yul\":18045:18411   */\n      swap2\n      swap1\n      pop\n      jump\t// out\n        /* \"#utility.yul\":18417:18836   */\n    tag_76:\n        /* \"#utility.yul\":18583:18587   */\n      0x00\n        /* \"#utility.yul\":18621:18623   */\n      0x20\n        /* \"#utility.yul\":18610:18619   */\n      dup3\n        /* \"#utility.yul\":18606:18624   */\n      add\n        /* \"#utility.yul\":18598:18624   */\n      swap1\n      pop\n        /* \"#utility.yul\":18670:18679   */\n      dup2\n        /* \"#utility.yul\":18664:18668   */\n      dup2\n        /* \"#utility.yul\":18660:18680   */\n      sub\n        /* \"#utility.yul\":18656:18657   */\n      0x00\n        /* \"#utility.yul\":18645:18654   */\n      dup4\n        /* \"#utility.yul\":18641:18658   */\n      add\n        /* \"#utility.yul\":18634:18681   */\n      mstore\n        /* \"#utility.yul\":18698:18829   */\n      tag_425\n        /* \"#utility.yul\":18824:18828   */\n      dup2\n        /* \"#utility.yul\":18698:18829   */\n      tag_210\n      jump\t// in\n    tag_425:\n        /* \"#utility.yul\":18690:18829   */\n      swap1\n      pop\n        /* \"#utility.yul\":18417:18836   */\n      swap2\n      swap1\n      pop\n      jump\t// out\n        /* \"#utility.yul\":18842:19071   */\n    tag_211:\n        /* \"#utility.yul\":18982:19016   */\n      0x50726963657320616e64207469636b657273206d757374206265206f66206571\n        /* \"#utility.yul\":18978:18979   */\n      0x00\n        /* \"#utility.yul\":18970:18976   */\n      dup3\n        /* \"#utility.yul\":18966:18980   */\n      add\n        /* \"#utility.yul\":18959:19017   */\n      mstore\n        /* \"#utility.yul\":19051:19063   */\n      0x75616c206c656e67746800000000000000000000000000000000000000000000\n        /* \"#utility.yul\":19046:19048   */\n      0x20\n        /* \"#utility.yul\":19038:19044   */\n      dup3\n        /* \"#utility.yul\":19034:19049   */\n      add\n        /* \"#utility.yul\":19027:19064   */\n      mstore\n        /* \"#utility.yul\":18842:19071   */\n      pop\n      jump\t// out\n        /* \"#utility.yul\":19077:19443   */\n    tag_212:\n        /* \"#utility.yul\":19219:19222   */\n      0x00\n        /* \"#utility.yul\":19240:19307   */\n      tag_428\n        /* \"#utility.yul\":19304:19306   */\n      0x2a\n        /* \"#utility.yul\":19299:19302   */\n      dup4\n        /* \"#utility.yul\":19240:19307   */\n      tag_183\n      jump\t// in\n    tag_428:\n        /* \"#utility.yul\":19233:19307   */\n      swap2\n      pop\n        /* \"#utility.yul\":19316:19409   */\n      tag_429\n        /* \"#utility.yul\":19405:19408   */\n      dup3\n        /* \"#utility.yul\":19316:19409   */\n      tag_211\n      jump\t// in\n    tag_429:\n        /* \"#utility.yul\":19434:19436   */\n      0x40\n        /* \"#utility.yul\":19429:19432   */\n      dup3\n        /* \"#utility.yul\":19425:19437   */\n      add\n        /* \"#utility.yul\":19418:19437   */\n      swap1\n      pop\n        /* \"#utility.yul\":19077:19443   */\n      swap2\n      swap1\n      pop\n      jump\t// out\n        /* \"#utility.yul\":19449:19868   */\n    tag_80:\n        /* \"#utility.yul\":19615:19619   */\n      0x00\n        /* \"#utility.yul\":19653:19655   */\n      0x20\n        /* \"#utility.yul\":19642:19651   */\n      dup3\n        /* \"#utility.yul\":19638:19656   */\n      add\n        /* \"#utility.yul\":19630:19656   */\n      swap1\n      pop\n        /* \"#utility.yul\":19702:19711   */\n      dup2\n        /* \"#utility.yul\":19696:19700   */\n      dup2\n        /* \"#utility.yul\":19692:19712   */\n      sub\n        /* \"#utility.yul\":19688:19689   */\n      0x00\n        /* \"#utility.yul\":19677:19686   */\n      dup4\n        /* \"#utility.yul\":19673:19690   */\n      add\n        /* \"#utility.yul\":19666:19713   */\n      mstore\n        /* \"#utility.yul\":19730:19861   */\n      tag_431\n        /* \"#utility.yul\":19856:19860   */\n      dup2\n        /* \"#utility.yul\":19730:19861   */\n      tag_212\n      jump\t// in\n    tag_431:\n        /* \"#utility.yul\":19722:19861   */\n      swap1\n      pop\n        /* \"#utility.yul\":19449:19868   */\n      swap2\n      swap1\n      pop\n      jump\t// out\n        /* \"#utility.yul\":19874:20054   */\n    tag_86:\n        /* \"#utility.yul\":19922:19999   */\n      0x4e487b7100000000000000000000000000000000000000000000000000000000\n        /* \"#utility.yul\":19919:19920   */\n      0x00\n        /* \"#utility.yul\":19912:20000   */\n      mstore\n        /* \"#utility.yul\":20019:20023   */\n      0x32\n        /* \"#utility.yul\":20016:20017   */\n      0x04\n        /* \"#utility.yul\":20009:20024   */\n      mstore\n        /* \"#utility.yul\":20043:20047   */\n      0x24\n        /* \"#utility.yul\":20040:20041   */\n      0x00\n        /* \"#utility.yul\":20033:20048   */\n      revert\n        /* \"#utility.yul\":20060:20177   */\n    tag_213:\n        /* \"#utility.yul\":20169:20170   */\n      0x00\n        /* \"#utility.yul\":20166:20167   */\n      dup1\n        /* \"#utility.yul\":20159:20171   */\n      revert\n        /* \"#utility.yul\":20183:20300   */\n    tag_214:\n        /* \"#utility.yul\":20292:20293   */\n      0x00\n        /* \"#utility.yul\":20289:20290   */\n      dup1\n        /* \"#utility.yul\":20282:20294   */\n      revert\n        /* \"#utility.yul\":20306:20423   */\n    tag_215:\n        /* \"#utility.yul\":20415:20416   */\n      0x00\n        /* \"#utility.yul\":20412:20413   */\n      dup1\n        /* \"#utility.yul\":20405:20417   */\n      revert\n        /* \"#utility.yul\":20429:21154   */\n    tag_90:\n        /* \"#utility.yul\":20507:20511   */\n      0x00\n        /* \"#utility.yul\":20513:20519   */\n      dup1\n        /* \"#utility.yul\":20569:20580   */\n      dup4\n        /* \"#utility.yul\":20556:20581   */\n      calldataload\n        /* \"#utility.yul\":20669:20670   */\n      0x01\n        /* \"#utility.yul\":20663:20667   */\n      0x20\n        /* \"#utility.yul\":20659:20671   */\n      sub\n        /* \"#utility.yul\":20648:20656   */\n      dup5\n        /* \"#utility.yul\":20632:20646   */\n      calldatasize\n        /* \"#utility.yul\":20628:20657   */\n      sub\n        /* \"#utility.yul\":20624:20672   */\n      sub\n        /* \"#utility.yul\":20604:20622   */\n      dup2\n        /* \"#utility.yul\":20600:20673   */\n      slt\n        /* \"#utility.yul\":20590:20758   */\n      tag_437\n      jumpi\n        /* \"#utility.yul\":20677:20756   */\n      tag_438\n      tag_213\n      jump\t// in\n    tag_438:\n        /* \"#utility.yul\":20590:20758   */\n    tag_437:\n        /* \"#utility.yul\":20789:20807   */\n      dup1\n        /* \"#utility.yul\":20779:20787   */\n      dup5\n        /* \"#utility.yul\":20775:20808   */\n      add\n        /* \"#utility.yul\":20767:20808   */\n      swap3\n      pop\n        /* \"#utility.yul\":20841:20845   */\n      dup3\n        /* \"#utility.yul\":20828:20846   */\n      calldataload\n        /* \"#utility.yul\":20818:20846   */\n      swap2\n      pop\n        /* \"#utility.yul\":20869:20887   */\n      0xffffffffffffffff\n        /* \"#utility.yul\":20861:20867   */\n      dup3\n        /* \"#utility.yul\":20858:20888   */\n      gt\n        /* \"#utility.yul\":20855:20972   */\n      iszero\n      tag_439\n      jumpi\n        /* \"#utility.yul\":20891:20970   */\n      tag_440\n      tag_214\n      jump\t// in\n    tag_440:\n        /* \"#utility.yul\":20855:20972   */\n    tag_439:\n        /* \"#utility.yul\":20999:21001   */\n      0x20\n        /* \"#utility.yul\":20993:20997   */\n      dup4\n        /* \"#utility.yul\":20989:21002   */\n      add\n        /* \"#utility.yul\":20981:21002   */\n      swap3\n      pop\n        /* \"#utility.yul\":21056:21060   */\n      0x01\n        /* \"#utility.yul\":21048:21054   */\n      dup3\n        /* \"#utility.yul\":21044:21061   */\n      mul\n        /* \"#utility.yul\":21028:21042   */\n      calldatasize\n        /* \"#utility.yul\":21024:21062   */\n      sub\n        /* \"#utility.yul\":21018:21022   */\n      dup4\n        /* \"#utility.yul\":21014:21063   */\n      sgt\n        /* \"#utility.yul\":21011:21147   */\n      iszero\n      tag_441\n      jumpi\n        /* \"#utility.yul\":21066:21145   */\n      tag_442\n      tag_215\n      jump\t// in\n    tag_442:\n        /* \"#utility.yul\":21011:21147   */\n    tag_441:\n        /* \"#utility.yul\":20520:21154   */\n      pop\n        /* \"#utility.yul\":20429:21154   */\n      swap3\n      pop\n      swap3\n      swap1\n      pop\n      jump\t// out\n        /* \"#utility.yul\":21184:21501   */\n    tag_216:\n        /* \"#utility.yul\":21282:21285   */\n      0x00\n        /* \"#utility.yul\":21303:21374   */\n      tag_444\n        /* \"#utility.yul\":21367:21373   */\n      dup4\n        /* \"#utility.yul\":21362:21365   */\n      dup6\n        /* \"#utility.yul\":21303:21374   */\n      tag_183\n      jump\t// in\n    tag_444:\n        /* \"#utility.yul\":21296:21374   */\n      swap4\n      pop\n        /* \"#utility.yul\":21384:21440   */\n      tag_445\n        /* \"#utility.yul\":21433:21439   */\n      dup4\n        /* \"#utility.yul\":21428:21431   */\n      dup6\n        /* \"#utility.yul\":21421:21426   */\n      dup5\n        /* \"#utility.yul\":21384:21440   */\n      tag_164\n      jump\t// in\n    tag_445:\n        /* \"#utility.yul\":21465:21494   */\n      tag_446\n        /* \"#utility.yul\":21487:21493   */\n      dup4\n        /* \"#utility.yul\":21465:21494   */\n      tag_159\n      jump\t// in\n    tag_446:\n        /* \"#utility.yul\":21460:21463   */\n      dup5\n        /* \"#utility.yul\":21456:21495   */\n      add\n        /* \"#utility.yul\":21449:21495   */\n      swap1\n      pop\n        /* \"#utility.yul\":21184:21501   */\n      swap4\n      swap3\n      pop\n      pop\n      pop\n      jump\t// out\n        /* \"#utility.yul\":21507:21840   */\n    tag_92:\n        /* \"#utility.yul\":21630:21634   */\n      0x00\n        /* \"#utility.yul\":21668:21670   */\n      0x20\n        /* \"#utility.yul\":21657:21666   */\n      dup3\n        /* \"#utility.yul\":21653:21671   */\n      add\n        /* \"#utility.yul\":21645:21671   */\n      swap1\n      pop\n        /* \"#utility.yul\":21717:21726   */\n      dup2\n        /* \"#utility.yul\":21711:21715   */\n      dup2\n        /* \"#utility.yul\":21707:21727   */\n      sub\n        /* \"#utility.yul\":21703:21704   */\n      0x00\n        /* \"#utility.yul\":21692:21701   */\n      dup4\n        /* \"#utility.yul\":21688:21705   */\n      add\n        /* \"#utility.yul\":21681:21728   */\n      mstore\n        /* \"#utility.yul\":21745:21833   */\n      tag_448\n        /* \"#utility.yul\":21828:21832   */\n      dup2\n        /* \"#utility.yul\":21819:21825   */\n      dup5\n        /* \"#utility.yul\":21811:21817   */\n      dup7\n        /* \"#utility.yul\":21745:21833   */\n      tag_216\n      jump\t// in\n    tag_448:\n        /* \"#utility.yul\":21737:21833   */\n      swap1\n      pop\n        /* \"#utility.yul\":21507:21840   */\n      swap4\n      swap3\n      pop\n      pop\n      pop\n      jump\t// out\n        /* \"#utility.yul\":21846:21993   */\n    tag_217:\n        /* \"#utility.yul\":21947:21958   */\n      0x00\n        /* \"#utility.yul\":21984:21987   */\n      dup2\n        /* \"#utility.yul\":21969:21987   */\n      swap1\n      pop\n        /* \"#utility.yul\":21846:21993   */\n      swap3\n      swap2\n      pop\n      pop\n      jump\t// out\n        /* \"#utility.yul\":21999:22385   */\n    tag_218:\n        /* \"#utility.yul\":22103:22106   */\n      0x00\n        /* \"#utility.yul\":22131:22169   */\n      tag_451\n        /* \"#utility.yul\":22163:22168   */\n      dup3\n        /* \"#utility.yul\":22131:22169   */\n      tag_177\n      jump\t// in\n    tag_451:\n        /* \"#utility.yul\":22185:22273   */\n      tag_452\n        /* \"#utility.yul\":22266:22272   */\n      dup2\n        /* \"#utility.yul\":22261:22264   */\n      dup6\n        /* \"#utility.yul\":22185:22273   */\n      tag_217\n      jump\t// in\n    tag_452:\n        /* \"#utility.yul\":22178:22273   */\n      swap4\n      pop\n        /* \"#utility.yul\":22282:22347   */\n      tag_453\n        /* \"#utility.yul\":22340:22346   */\n      dup2\n        /* \"#utility.yul\":22335:22338   */\n      dup6\n        /* \"#utility.yul\":22328:22332   */\n      0x20\n        /* \"#utility.yul\":22321:22326   */\n      dup7\n        /* \"#utility.yul\":22317:22333   */\n      add\n        /* \"#utility.yul\":22282:22347   */\n      tag_179\n      jump\t// in\n    tag_453:\n        /* \"#utility.yul\":22372:22378   */\n      dup1\n        /* \"#utility.yul\":22367:22370   */\n      dup5\n        /* \"#utility.yul\":22363:22379   */\n      add\n        /* \"#utility.yul\":22356:22379   */\n      swap2\n      pop\n        /* \"#utility.yul\":22107:22385   */\n      pop\n        /* \"#utility.yul\":21999:22385   */\n      swap3\n      swap2\n      pop\n      pop\n      jump\t// out\n        /* \"#utility.yul\":22391:22662   */\n    tag_97:\n        /* \"#utility.yul\":22521:22524   */\n      0x00\n        /* \"#utility.yul\":22543:22636   */\n      tag_455\n        /* \"#utility.yul\":22632:22635   */\n      dup3\n        /* \"#utility.yul\":22623:22629   */\n      dup5\n        /* \"#utility.yul\":22543:22636   */\n      tag_218\n      jump\t// in\n    tag_455:\n        /* \"#utility.yul\":22536:22636   */\n      swap2\n      pop\n        /* \"#utility.yul\":22653:22656   */\n      dup2\n        /* \"#utility.yul\":22646:22656   */\n      swap1\n      pop\n        /* \"#utility.yul\":22391:22662   */\n      swap3\n      swap2\n      pop\n      pop\n      jump\t// out\n        /* \"#utility.yul\":22668:23332   */\n    tag_104:\n        /* \"#utility.yul\":22875:22879   */\n      0x00\n        /* \"#utility.yul\":22913:22916   */\n      0x80\n        /* \"#utility.yul\":22902:22911   */\n      dup3\n        /* \"#utility.yul\":22898:22917   */\n      add\n        /* \"#utility.yul\":22890:22917   */\n      swap1\n      pop\n        /* \"#utility.yul\":22963:22972   */\n      dup2\n        /* \"#utility.yul\":22957:22961   */\n      dup2\n        /* \"#utility.yul\":22953:22973   */\n      sub\n        /* \"#utility.yul\":22949:22950   */\n      0x00\n        /* \"#utility.yul\":22938:22947   */\n      dup4\n        /* \"#utility.yul\":22934:22951   */\n      add\n        /* \"#utility.yul\":22927:22974   */\n      mstore\n        /* \"#utility.yul\":22991:23079   */\n      tag_457\n        /* \"#utility.yul\":23074:23078   */\n      dup2\n        /* \"#utility.yul\":23065:23071   */\n      dup8\n        /* \"#utility.yul\":23057:23063   */\n      dup10\n        /* \"#utility.yul\":22991:23079   */\n      tag_216\n      jump\t// in\n    tag_457:\n        /* \"#utility.yul\":22983:23079   */\n      swap1\n      pop\n        /* \"#utility.yul\":23089:23161   */\n      tag_458\n        /* \"#utility.yul\":23157:23159   */\n      0x20\n        /* \"#utility.yul\":23146:23155   */\n      dup4\n        /* \"#utility.yul\":23142:23160   */\n      add\n        /* \"#utility.yul\":23133:23139   */\n      dup7\n        /* \"#utility.yul\":23089:23161   */\n      tag_182\n      jump\t// in\n    tag_458:\n        /* \"#utility.yul\":23171:23243   */\n      tag_459\n        /* \"#utility.yul\":23239:23241   */\n      0x40\n        /* \"#utility.yul\":23228:23237   */\n      dup4\n        /* \"#utility.yul\":23224:23242   */\n      add\n        /* \"#utility.yul\":23215:23221   */\n      dup6\n        /* \"#utility.yul\":23171:23243   */\n      tag_208\n      jump\t// in\n    tag_459:\n        /* \"#utility.yul\":23253:23325   */\n      tag_460\n        /* \"#utility.yul\":23321:23323   */\n      0x60\n        /* \"#utility.yul\":23310:23319   */\n      dup4\n        /* \"#utility.yul\":23306:23324   */\n      add\n        /* \"#utility.yul\":23297:23303   */\n      dup5\n        /* \"#utility.yul\":23253:23325   */\n      tag_182\n      jump\t// in\n    tag_460:\n        /* \"#utility.yul\":22668:23332   */\n      swap7\n      swap6\n      pop\n      pop\n      pop\n      pop\n      pop\n      pop\n      jump\t// out\n        /* \"#utility.yul\":23360:24230   */\n    tag_219:\n        /* \"#utility.yul\":23461:23464   */\n      0x00\n        /* \"#utility.yul\":23498:23503   */\n      dup2\n        /* \"#utility.yul\":23492:23504   */\n      sload\n        /* \"#utility.yul\":23527:23563   */\n      tag_462\n        /* \"#utility.yul\":23553:23562   */\n      dup2\n        /* \"#utility.yul\":23527:23563   */\n      tag_192\n      jump\t// in\n    tag_462:\n        /* \"#utility.yul\":23579:23667   */\n      tag_463\n        /* \"#utility.yul\":23660:23666   */\n      dup2\n        /* \"#utility.yul\":23655:23658   */\n      dup7\n        /* \"#utility.yul\":23579:23667   */\n      tag_217\n      jump\t// in\n    tag_463:\n        /* \"#utility.yul\":23572:23667   */\n      swap5\n      pop\n        /* \"#utility.yul\":23698:23699   */\n      0x01\n        /* \"#utility.yul\":23687:23696   */\n      dup3\n        /* \"#utility.yul\":23683:23700   */\n      and\n        /* \"#utility.yul\":23714:23715   */\n      0x00\n        /* \"#utility.yul\":23709:23875   */\n      dup2\n      eq\n      tag_465\n      jumpi\n        /* \"#utility.yul\":23889:23890   */\n      0x01\n        /* \"#utility.yul\":23884:24224   */\n      dup2\n      eq\n      tag_466\n      jumpi\n        /* \"#utility.yul\":23676:24224   */\n      jump(tag_464)\n        /* \"#utility.yul\":23709:23875   */\n    tag_465:\n        /* \"#utility.yul\":23793:23797   */\n      0xff\n        /* \"#utility.yul\":23789:23798   */\n      not\n        /* \"#utility.yul\":23778:23787   */\n      dup4\n        /* \"#utility.yul\":23774:23799   */\n      and\n        /* \"#utility.yul\":23769:23772   */\n      dup7\n        /* \"#utility.yul\":23762:23800   */\n      mstore\n        /* \"#utility.yul\":23855:23861   */\n      dup2\n        /* \"#utility.yul\":23848:23862   */\n      iszero\n        /* \"#utility.yul\":23841:23863   */\n      iszero\n        /* \"#utility.yul\":23833:23839   */\n      dup3\n        /* \"#utility.yul\":23829:23864   */\n      mul\n        /* \"#utility.yul\":23824:23827   */\n      dup7\n        /* \"#utility.yul\":23820:23865   */\n      add\n        /* \"#utility.yul\":23813:23865   */\n      swap4\n      pop\n        /* \"#utility.yul\":23709:23875   */\n      jump(tag_464)\n        /* \"#utility.yul\":23884:24224   */\n    tag_466:\n        /* \"#utility.yul\":23951:23988   */\n      tag_467\n        /* \"#utility.yul\":23982:23987   */\n      dup6\n        /* \"#utility.yul\":23951:23988   */\n      tag_193\n      jump\t// in\n    tag_467:\n        /* \"#utility.yul\":24010:24011   */\n      0x00\n        /* \"#utility.yul\":24024:24178   */\n    tag_468:\n        /* \"#utility.yul\":24038:24044   */\n      dup4\n        /* \"#utility.yul\":24035:24036   */\n      dup2\n        /* \"#utility.yul\":24032:24045   */\n      lt\n        /* \"#utility.yul\":24024:24178   */\n      iszero\n      tag_470\n      jumpi\n        /* \"#utility.yul\":24112:24119   */\n      dup2\n        /* \"#utility.yul\":24106:24120   */\n      sload\n        /* \"#utility.yul\":24102:24103   */\n      dup2\n        /* \"#utility.yul\":24097:24100   */\n      dup10\n        /* \"#utility.yul\":24093:24104   */\n      add\n        /* \"#utility.yul\":24086:24121   */\n      mstore\n        /* \"#utility.yul\":24162:24163   */\n      0x01\n        /* \"#utility.yul\":24153:24160   */\n      dup3\n        /* \"#utility.yul\":24149:24164   */\n      add\n        /* \"#utility.yul\":24138:24164   */\n      swap2\n      pop\n        /* \"#utility.yul\":24060:24064   */\n      0x20\n        /* \"#utility.yul\":24057:24058   */\n      dup2\n        /* \"#utility.yul\":24053:24065   */\n      add\n        /* \"#utility.yul\":24048:24065   */\n      swap1\n      pop\n        /* \"#utility.yul\":24024:24178   */\n      jump(tag_468)\n    tag_470:\n        /* \"#utility.yul\":24207:24213   */\n      dup4\n        /* \"#utility.yul\":24202:24205   */\n      dup9\n        /* \"#utility.yul\":24198:24214   */\n      add\n        /* \"#utility.yul\":24191:24214   */\n      swap6\n      pop\n        /* \"#utility.yul\":23891:24224   */\n      pop\n      pop\n        /* \"#utility.yul\":23676:24224   */\n    tag_464:\n      pop\n        /* \"#utility.yul\":23465:24230   */\n      pop\n      pop\n        /* \"#utility.yul\":23360:24230   */\n      swap3\n      swap2\n      pop\n      pop\n      jump\t// out\n        /* \"#utility.yul\":24236:24501   */\n    tag_127:\n        /* \"#utility.yul\":24363:24366   */\n      0x00\n        /* \"#utility.yul\":24385:24475   */\n      tag_472\n        /* \"#utility.yul\":24471:24474   */\n      dup3\n        /* \"#utility.yul\":24462:24468   */\n      dup5\n        /* \"#utility.yul\":24385:24475   */\n      tag_219\n      jump\t// in\n    tag_472:\n        /* \"#utility.yul\":24378:24475   */\n      swap2\n      pop\n        /* \"#utility.yul\":24492:24495   */\n      dup2\n        /* \"#utility.yul\":24485:24495   */\n      swap1\n      pop\n        /* \"#utility.yul\":24236:24501   */\n      swap3\n      swap2\n      pop\n      pop\n      jump\t// out\n        /* \"#utility.yul\":24507:24593   */\n    tag_220:\n        /* \"#utility.yul\":24542:24549   */\n      0x00\n        /* \"#utility.yul\":24582:24586   */\n      0xff\n        /* \"#utility.yul\":24575:24580   */\n      dup3\n        /* \"#utility.yul\":24571:24587   */\n      and\n        /* \"#utility.yul\":24560:24587   */\n      swap1\n      pop\n        /* \"#utility.yul\":24507:24593   */\n      swap2\n      swap1\n      pop\n      jump\t// out\n        /* \"#utility.yul\":24599:24779   */\n    tag_221:\n        /* \"#utility.yul\":24647:24724   */\n      0x4e487b7100000000000000000000000000000000000000000000000000000000\n        /* \"#utility.yul\":24644:24645   */\n      0x00\n        /* \"#utility.yul\":24637:24725   */\n      mstore\n        /* \"#utility.yul\":24744:24748   */\n      0x11\n        /* \"#utility.yul\":24741:24742   */\n      0x04\n        /* \"#utility.yul\":24734:24749   */\n      mstore\n        /* \"#utility.yul\":24768:24772   */\n      0x24\n        /* \"#utility.yul\":24765:24766   */\n      0x00\n        /* \"#utility.yul\":24758:24773   */\n      revert\n        /* \"#utility.yul\":24785:24976   */\n    tag_153:\n        /* \"#utility.yul\":24823:24827   */\n      0x00\n        /* \"#utility.yul\":24843:24861   */\n      tag_476\n        /* \"#utility.yul\":24859:24860   */\n      dup3\n        /* \"#utility.yul\":24843:24861   */\n      tag_220\n      jump\t// in\n    tag_476:\n        /* \"#utility.yul\":24838:24861   */\n      swap2\n      pop\n        /* \"#utility.yul\":24875:24893   */\n      tag_477\n        /* \"#utility.yul\":24891:24892   */\n      dup4\n        /* \"#utility.yul\":24875:24893   */\n      tag_220\n      jump\t// in\n    tag_477:\n        /* \"#utility.yul\":24870:24893   */\n      swap3\n      pop\n        /* \"#utility.yul\":24917:24918   */\n      dup3\n        /* \"#utility.yul\":24914:24915   */\n      dup3\n        /* \"#utility.yul\":24910:24919   */\n      sub\n        /* \"#utility.yul\":24902:24919   */\n      swap1\n      pop\n        /* \"#utility.yul\":24941:24945   */\n      0xff\n        /* \"#utility.yul\":24935:24939   */\n      dup2\n        /* \"#utility.yul\":24932:24946   */\n      gt\n        /* \"#utility.yul\":24929:24969   */\n      iszero\n      tag_478\n      jumpi\n        /* \"#utility.yul\":24949:24967   */\n      tag_479\n      tag_221\n      jump\t// in\n    tag_479:\n        /* \"#utility.yul\":24929:24969   */\n    tag_478:\n        /* \"#utility.yul\":24785:24976   */\n      swap3\n      swap2\n      pop\n      pop\n      jump\t// out\n\n    auxdata: 0xa2646970667358221220fcf0182c29ea877b2de18e901e6227a544a5ee44638be4856e2d28e0702b7e7464736f6c63430008160033\n}\n",
				"bytecode": {
					"linkReferences": {},
					"object": "608060405234801561001057600080fd5b50611913806100206000396000f3fe608060405234801561001057600080fd5b50600436106100935760003560e01c8063832427da11610066578063832427da1461011c57806394a72f1c14610138578063b55bfc6f14610168578063fc3a49e014610184578063fe2c6198146101a357610093565b8063267561c8146100985780635c60896d146100b4578063658bdb2e146100d0578063734bc65914610100575b600080fd5b6100b260048036038101906100ad9190610cc5565b6101d3565b005b6100ce60048036038101906100c99190610d6c565b6102dc565b005b6100ea60048036038101906100e59190610d6c565b6103e9565b6040516100f79190610db4565b60405180910390f35b61011a60048036038101906101159190610e85565b610441565b005b61013660048036038101906101319190610cc5565b6106cd565b005b610152600480360381019061014d9190610cc5565b6107d6565b60405161015f9190610f85565b60405180910390f35b610182600480360381019061017d9190610d6c565b6107e8565b005b61018c6108f6565b60405161019a929190610fc0565b60405180910390f35b6101bd60048036038101906101b89190610cc5565b61094b565b6040516101ca9190610fe9565b60405180910390f35b6101db6109f3565b73ffffffffffffffffffffffffffffffffffffffff163373ffffffffffffffffffffffffffffffffffffffff1614610248576040517f08c379a000000000000000000000000000000000000000000000000000000000815260040161023f90611087565b60405180910390fd5b3073ffffffffffffffffffffffffffffffffffffffff166394a72f1c826040518263ffffffff1660e01b815260040161028191906110eb565b600060405180830381865afa15801561029e573d6000803e3d6000fd5b505050506040513d6000823e3d601f19601f820116820180604052508101906102c791906111ae565b6000603d0190816102d89190611403565b5050565b6102e46109f3565b73ffffffffffffffffffffffffffffffffffffffff163373ffffffffffffffffffffffffffffffffffffffff1614610351576040517f08c379a000000000000000000000000000000000000000000000000000000000815260040161034890611087565b60405180910390fd5b60008060010160008373ffffffffffffffffffffffffffffffffffffffff1673ffffffffffffffffffffffffffffffffffffffff16815260200190815260200160002060006101000a81548160ff0219169083151502179055507fb3d5aa2917b85a4687df1a925388b77def36a6b799246cdd492b4fd402c6be7b8133426040516103de939291906114e4565b60405180910390a150565b60008060010160008373ffffffffffffffffffffffffffffffffffffffff1673ffffffffffffffffffffffffffffffffffffffff16815260200190815260200160002060009054906101000a900460ff169050919050565b600060010160003373ffffffffffffffffffffffffffffffffffffffff1673ffffffffffffffffffffffffffffffffffffffff16815260200190815260200160002060009054906101000a900460ff166104d0576040517f08c379a00000000000000000000000000000000000000000000000000000000081526004016104c79061158d565b60405180910390fd5b818190508484905014610518576040517f08c379a000000000000000000000000000000000000000000000000000000000815260040161050f9061161f565b60405180910390fd5b60005b8484905081101561068f578484828181106105395761053861163f565b5b90506020020135600080013073ffffffffffffffffffffffffffffffffffffffff166394a72f1c8686868181106105735761057261163f565b5b9050602002810190610585919061167d565b6040518363ffffffff1660e01b81526004016105a292919061170d565b600060405180830381865afa1580156105bf573d6000803e3d6000fd5b505050506040513d6000823e3d601f19601f820116820180604052508101906105e891906111ae565b6040516105f5919061176d565b9081526020016040518091039020819055507f89186bbd353809bcc0aa77843d6ea72e488b7fd552bfe5afb4006dc6cd6fe6a383838381811061063b5761063a61163f565b5b905060200281019061064d919061167d565b8787858181106106605761065f61163f565b5b90506020020135334260405161067a959493929190611784565b60405180910390a1808060010191505061051b565b507fbad13593cf14db38c871d023e850302b404aef491d5e3f41ab7aebaafab6ecda426040516106bf9190610fe9565b60405180910390a150505050565b6106d56109f3565b73ffffffffffffffffffffffffffffffffffffffff163373ffffffffffffffffffffffffffffffffffffffff1614610742576040517f08c379a000000000000000000000000000000000000000000000000000000000815260040161073990611087565b60405180910390fd5b3073ffffffffffffffffffffffffffffffffffffffff166394a72f1c826040518263ffffffff1660e01b815260040161077b91906110eb565b600060405180830381865afa158015610798573d6000803e3d6000fd5b505050506040513d6000823e3d601f19601f820116820180604052508101906107c191906111ae565b600060060190816107d29190611403565b5050565b60606107e182610a26565b9050919050565b6107f06109f3565b73ffffffffffffffffffffffffffffffffffffffff163373ffffffffffffffffffffffffffffffffffffffff161461085d576040517f08c379a000000000000000000000000000000000000000000000000000000000815260040161085490611087565b60405180910390fd5b6001600060010160008373ffffffffffffffffffffffffffffffffffffffff1673ffffffffffffffffffffffffffffffffffffffff16815260200190815260200160002060006101000a81548160ff0219169083151502179055507f9f47004a8a67ae0ede102ae657402045a03474bf00cf7e14f62cdbdc5af9c5478133426040516108eb939291906114e4565b60405180910390a150565b600080600080016000603d0160405161090f9190611855565b9081526020016040518091039020546000800160006006016040516109349190611855565b908152602001604051809103902054915091509091565b6000806000013073ffffffffffffffffffffffffffffffffffffffff166394a72f1c846040518263ffffffff1660e01b815260040161098a91906110eb565b600060405180830381865afa1580156109a7573d6000803e3d6000fd5b505050506040513d6000823e3d601f19601f820116820180604052508101906109d091906111ae565b6040516109dd919061176d565b9081526020016040518091039020549050919050565b60006109fd610ab8565b60030160009054906101000a900473ffffffffffffffffffffffffffffffffffffffff16905090565b6060600082905060005b8151811015610aae57610a5f828281518110610a4f57610a4e61163f565b5b602001015160f81c60f81b610ae5565b828281518110610a7257610a7161163f565b5b60200101907effffffffffffffffffffffffffffffffffffffffffffffffffffffffffffff1916908160001a9053508080600101915050610a30565b5080915050919050565b6000807fc8fcad8db84d3cc18b4c41d551ea0ee66dd599cde068d998e57d5e09332c131c90508091505090565b6000606160f81b827effffffffffffffffffffffffffffffffffffffffffffffffffffffffffffff191610158015610b435750607a60f81b827effffffffffffffffffffffffffffffffffffffffffffffffffffffffffffff191611155b15610b625760208260f81c610b5891906118a8565b60f81b9050610b66565b8190505b919050565b6000604051905090565b600080fd5b600080fd5b600080fd5b600080fd5b6000601f19601f8301169050919050565b7f4e487b7100000000000000000000000000000000000000000000000000000000600052604160045260246000fd5b610bd282610b89565b810181811067ffffffffffffffff82111715610bf157610bf0610b9a565b5b80604052505050565b6000610c04610b6b565b9050610c108282610bc9565b919050565b600067ffffffffffffffff821115610c3057610c2f610b9a565b5b610c3982610b89565b9050602081019050919050565b82818337600083830152505050565b6000610c68610c6384610c15565b610bfa565b905082815260208101848484011115610c8457610c83610b84565b5b610c8f848285610c46565b509392505050565b600082601f830112610cac57610cab610b7f565b5b8135610cbc848260208601610c55565b91505092915050565b600060208284031215610cdb57610cda610b75565b5b600082013567ffffffffffffffff811115610cf957610cf8610b7a565b5b610d0584828501610c97565b91505092915050565b600073ffffffffffffffffffffffffffffffffffffffff82169050919050565b6000610d3982610d0e565b9050919050565b610d4981610d2e565b8114610d5457600080fd5b50565b600081359050610d6681610d40565b92915050565b600060208284031215610d8257610d81610b75565b5b6000610d9084828501610d57565b91505092915050565b60008115159050919050565b610dae81610d99565b82525050565b6000602082019050610dc96000830184610da5565b92915050565b600080fd5b600080fd5b60008083601f840112610def57610dee610b7f565b5b8235905067ffffffffffffffff811115610e0c57610e0b610dcf565b5b602083019150836020820283011115610e2857610e27610dd4565b5b9250929050565b60008083601f840112610e4557610e44610b7f565b5b8235905067ffffffffffffffff811115610e6257610e61610dcf565b5b602083019150836020820283011115610e7e57610e7d610dd4565b5b9250929050565b60008060008060408587031215610e9f57610e9e610b75565b5b600085013567ffffffffffffffff811115610ebd57610ebc610b7a565b5b610ec987828801610dd9565b9450945050602085013567ffffffffffffffff811115610eec57610eeb610b7a565b5b610ef887828801610e2f565b925092505092959194509250565b600081519050919050565b600082825260208201905092915050565b60005b83811015610f40578082015181840152602081019050610f25565b60008484015250505050565b6000610f5782610f06565b610f618185610f11565b9350610f71818560208601610f22565b610f7a81610b89565b840191505092915050565b60006020820190508181036000830152610f9f8184610f4c565b905092915050565b6000819050919050565b610fba81610fa7565b82525050565b6000604082019050610fd56000830185610fb1565b610fe26020830184610fb1565b9392505050565b6000602082019050610ffe6000830184610fb1565b92915050565b600082825260208201905092915050565b7f4163636573732064656e6965642c204f6e6c79206f776e657220697320616c6c60008201527f6f77656421000000000000000000000000000000000000000000000000000000602082015250565b6000611071602583611004565b915061107c82611015565b604082019050919050565b600060208201905081810360008301526110a081611064565b9050919050565b600081519050919050565b60006110bd826110a7565b6110c78185611004565b93506110d7818560208601610f22565b6110e081610b89565b840191505092915050565b6000602082019050818103600083015261110581846110b2565b905092915050565b600067ffffffffffffffff82111561112857611127610b9a565b5b61113182610b89565b9050602081019050919050565b600061115161114c8461110d565b610bfa565b90508281526020810184848401111561116d5761116c610b84565b5b611178848285610f22565b509392505050565b600082601f83011261119557611194610b7f565b5b81516111a584826020860161113e565b91505092915050565b6000602082840312156111c4576111c3610b75565b5b600082015167ffffffffffffffff8111156111e2576111e1610b7a565b5b6111ee84828501611180565b91505092915050565b7f4e487b7100000000000000000000000000000000000000000000000000000000600052602260045260246000fd5b6000600282049050600182168061123e57607f821691505b602082108103611251576112506111f7565b5b50919050565b60008190508160005260206000209050919050565b60006020601f8301049050919050565b600082821b905092915050565b6000600883026112b97fffffffffffffffffffffffffffffffffffffffffffffffffffffffffffffffff8261127c565b6112c3868361127c565b95508019841693508086168417925050509392505050565b6000819050919050565b60006113006112fb6112f684610fa7565b6112db565b610fa7565b9050919050565b6000819050919050565b61131a836112e5565b61132e61132682611307565b848454611289565b825550505050565b600090565b611343611336565b61134e818484611311565b505050565b5b818110156113725761136760008261133b565b600181019050611354565b5050565b601f8211156113b75761138881611257565b6113918461126c565b810160208510156113a0578190505b6113b46113ac8561126c565b830182611353565b50505b505050565b600082821c905092915050565b60006113da600019846008026113bc565b1980831691505092915050565b60006113f383836113c9565b9150826002028217905092915050565b61140c82610f06565b67ffffffffffffffff81111561142557611424610b9a565b5b61142f8254611226565b61143a828285611376565b600060209050601f83116001811461146d576000841561145b578287015190505b61146585826113e7565b8655506114cd565b601f19841661147b86611257565b60005b828110156114a35784890151825560018201915060208501945060208101905061147e565b868310156114c057848901516114bc601f8916826113c9565b8355505b6001600288020188555050505b505050505050565b6114de81610d2e565b82525050565b60006060820190506114f960008301866114d5565b61150660208301856114d5565b6115136040830184610fb1565b949350505050565b7f4163636573732064656e6965642e204f6e6c792050797468696120697320616c60008201527f6c6f776564210000000000000000000000000000000000000000000000000000602082015250565b6000611577602683611004565b91506115828261151b565b604082019050919050565b600060208201905081810360008301526115a68161156a565b9050919050565b7f50726963657320616e64207469636b657273206d757374206265206f6620657160008201527f75616c206c656e67746800000000000000000000000000000000000000000000602082015250565b6000611609602a83611004565b9150611614826115ad565b604082019050919050565b60006020820190508181036000830152611638816115fc565b9050919050565b7f4e487b7100000000000000000000000000000000000000000000000000000000600052603260045260246000fd5b600080fd5b600080fd5b600080fd5b6000808335600160200384360303811261169a5761169961166e565b5b80840192508235915067ffffffffffffffff8211156116bc576116bb611673565b5b6020830192506001820236038313156116d8576116d7611678565b5b509250929050565b60006116ec8385611004565b93506116f9838584610c46565b61170283610b89565b840190509392505050565b600060208201905081810360008301526117288184866116e0565b90509392505050565b600081905092915050565b600061174782610f06565b6117518185611731565b9350611761818560208601610f22565b80840191505092915050565b6000611779828461173c565b915081905092915050565b6000608082019050818103600083015261179f8187896116e0565b90506117ae6020830186610fb1565b6117bb60408301856114d5565b6117c86060830184610fb1565b9695505050505050565b600081546117df81611226565b6117e98186611731565b9450600182166000811461180457600181146118195761184c565b60ff198316865281151582028601935061184c565b61182285611257565b60005b8381101561184457815481890152600182019150602081019050611825565b838801955050505b50505092915050565b600061186182846117d2565b915081905092915050565b600060ff82169050919050565b7f4e487b7100000000000000000000000000000000000000000000000000000000600052601160045260246000fd5b60006118b38261186c565b91506118be8361186c565b9250828203905060ff8111156118d7576118d6611879565b5b9291505056fea2646970667358221220fcf0182c29ea877b2de18e901e6227a544a5ee44638be4856e2d28e0702b7e7464736f6c63430008160033",
					"opcodes": "PUSH1 0x80 PUSH1 0x40 MSTORE CALLVALUE DUP1 ISZERO PUSH2 0x10 JUMPI PUSH1 0x0 DUP1 REVERT JUMPDEST POP PUSH2 0x1913 DUP1 PUSH2 0x20 PUSH1 0x0 CODECOPY PUSH1 0x0 RETURN INVALID PUSH1 0x80 PUSH1 0x40 MSTORE CALLVALUE DUP1 ISZERO PUSH2 0x10 JUMPI PUSH1 0x0 DUP1 REVERT JUMPDEST POP PUSH1 0x4 CALLDATASIZE LT PUSH2 0x93 JUMPI PUSH1 0x0 CALLDATALOAD PUSH1 0xE0 SHR DUP1 PUSH4 0x832427DA GT PUSH2 0x66 JUMPI DUP1 PUSH4 0x832427DA EQ PUSH2 0x11C JUMPI DUP1 PUSH4 0x94A72F1C EQ PUSH2 0x138 JUMPI DUP1 PUSH4 0xB55BFC6F EQ PUSH2 0x168 JUMPI DUP1 PUSH4 0xFC3A49E0 EQ PUSH2 0x184 JUMPI DUP1 PUSH4 0xFE2C6198 EQ PUSH2 0x1A3 JUMPI PUSH2 0x93 JUMP JUMPDEST DUP1 PUSH4 0x267561C8 EQ PUSH2 0x98 JUMPI DUP1 PUSH4 0x5C60896D EQ PUSH2 0xB4 JUMPI DUP1 PUSH4 0x658BDB2E EQ PUSH2 0xD0 JUMPI DUP1 PUSH4 0x734BC659 EQ PUSH2 0x100 JUMPI JUMPDEST PUSH1 0x0 DUP1 REVERT JUMPDEST PUSH2 0xB2 PUSH1 0x4 DUP1 CALLDATASIZE SUB DUP2 ADD SWAP1 PUSH2 0xAD SWAP2 SWAP1 PUSH2 0xCC5 JUMP JUMPDEST PUSH2 0x1D3 JUMP JUMPDEST STOP JUMPDEST PUSH2 0xCE PUSH1 0x4 DUP1 CALLDATASIZE SUB DUP2 ADD SWAP1 PUSH2 0xC9 SWAP2 SWAP1 PUSH2 0xD6C JUMP JUMPDEST PUSH2 0x2DC JUMP JUMPDEST STOP JUMPDEST PUSH2 0xEA PUSH1 0x4 DUP1 CALLDATASIZE SUB DUP2 ADD SWAP1 PUSH2 0xE5 SWAP2 SWAP1 PUSH2 0xD6C JUMP JUMPDEST PUSH2 0x3E9 JUMP JUMPDEST PUSH1 0x40 MLOAD PUSH2 0xF7 SWAP2 SWAP1 PUSH2 0xDB4 JUMP JUMPDEST PUSH1 0x40 MLOAD DUP1 SWAP2 SUB SWAP1 RETURN JUMPDEST PUSH2 0x11A PUSH1 0x4 DUP1 CALLDATASIZE SUB DUP2 ADD SWAP1 PUSH2 0x115 SWAP2 SWAP1 PUSH2 0xE85 JUMP JUMPDEST PUSH2 0x441 JUMP JUMPDEST STOP JUMPDEST PUSH2 0x136 PUSH1 0x4 DUP1 CALLDATASIZE SUB DUP2 ADD SWAP1 PUSH2 0x131 SWAP2 SWAP1 PUSH2 0xCC5 JUMP JUMPDEST PUSH2 0x6CD JUMP JUMPDEST STOP JUMPDEST PUSH2 0x152 PUSH1 0x4 DUP1 CALLDATASIZE SUB DUP2 ADD SWAP1 PUSH2 0x14D SWAP2 SWAP1 PUSH2 0xCC5 JUMP JUMPDEST PUSH2 0x7D6 JUMP JUMPDEST PUSH1 0x40 MLOAD PUSH2 0x15F SWAP2 SWAP1 PUSH2 0xF85 JUMP JUMPDEST PUSH1 0x40 MLOAD DUP1 SWAP2 SUB SWAP1 RETURN JUMPDEST PUSH2 0x182 PUSH1 0x4 DUP1 CALLDATASIZE SUB DUP2 ADD SWAP1 PUSH2 0x17D SWAP2 SWAP1 PUSH2 0xD6C JUMP JUMPDEST PUSH2 0x7E8 JUMP JUMPDEST STOP JUMPDEST PUSH2 0x18C PUSH2 0x8F6 JUMP JUMPDEST PUSH1 0x40 MLOAD PUSH2 0x19A SWAP3 SWAP2 SWAP1 PUSH2 0xFC0 JUMP JUMPDEST PUSH1 0x40 MLOAD DUP1 SWAP2 SUB SWAP1 RETURN JUMPDEST PUSH2 0x1BD PUSH1 0x4 DUP1 CALLDATASIZE SUB DUP2 ADD SWAP1 PUSH2 0x1B8 SWAP2 SWAP1 PUSH2 0xCC5 JUMP JUMPDEST PUSH2 0x94B JUMP JUMPDEST PUSH1 0x40 MLOAD PUSH2 0x1CA SWAP2 SWAP1 PUSH2 0xFE9 JUMP JUMPDEST PUSH1 0x40 MLOAD DUP1 SWAP2 SUB SWAP1 RETURN JUMPDEST PUSH2 0x1DB PUSH2 0x9F3 JUMP JUMPDEST PUSH20 0xFFFFFFFFFFFFFFFFFFFFFFFFFFFFFFFFFFFFFFFF AND CALLER PUSH20 0xFFFFFFFFFFFFFFFFFFFFFFFFFFFFFFFFFFFFFFFF AND EQ PUSH2 0x248 JUMPI PUSH1 0x40 MLOAD PUSH32 0x8C379A000000000000000000000000000000000000000000000000000000000 DUP2 MSTORE PUSH1 0x4 ADD PUSH2 0x23F SWAP1 PUSH2 0x1087 JUMP JUMPDEST PUSH1 0x40 MLOAD DUP1 SWAP2 SUB SWAP1 REVERT JUMPDEST ADDRESS PUSH20 0xFFFFFFFFFFFFFFFFFFFFFFFFFFFFFFFFFFFFFFFF AND PUSH4 0x94A72F1C DUP3 PUSH1 0x40 MLOAD DUP3 PUSH4 0xFFFFFFFF AND PUSH1 0xE0 SHL DUP2 MSTORE PUSH1 0x4 ADD PUSH2 0x281 SWAP2 SWAP1 PUSH2 0x10EB JUMP JUMPDEST PUSH1 0x0 PUSH1 0x40 MLOAD DUP1 DUP4 SUB DUP2 DUP7 GAS STATICCALL ISZERO DUP1 ISZERO PUSH2 0x29E JUMPI RETURNDATASIZE PUSH1 0x0 DUP1 RETURNDATACOPY RETURNDATASIZE PUSH1 0x0 REVERT JUMPDEST POP POP POP POP PUSH1 0x40 MLOAD RETURNDATASIZE PUSH1 0x0 DUP3 RETURNDATACOPY RETURNDATASIZE PUSH1 0x1F NOT PUSH1 0x1F DUP3 ADD AND DUP3 ADD DUP1 PUSH1 0x40 MSTORE POP DUP2 ADD SWAP1 PUSH2 0x2C7 SWAP2 SWAP1 PUSH2 0x11AE JUMP JUMPDEST PUSH1 0x0 PUSH1 0x3D ADD SWAP1 DUP2 PUSH2 0x2D8 SWAP2 SWAP1 PUSH2 0x1403 JUMP JUMPDEST POP POP JUMP JUMPDEST PUSH2 0x2E4 PUSH2 0x9F3 JUMP JUMPDEST PUSH20 0xFFFFFFFFFFFFFFFFFFFFFFFFFFFFFFFFFFFFFFFF AND CALLER PUSH20 0xFFFFFFFFFFFFFFFFFFFFFFFFFFFFFFFFFFFFFFFF AND EQ PUSH2 0x351 JUMPI PUSH1 0x40 MLOAD PUSH32 0x8C379A000000000000000000000000000000000000000000000000000000000 DUP2 MSTORE PUSH1 0x4 ADD PUSH2 0x348 SWAP1 PUSH2 0x1087 JUMP JUMPDEST PUSH1 0x40 MLOAD DUP1 SWAP2 SUB SWAP1 REVERT JUMPDEST PUSH1 0x0 DUP1 PUSH1 0x1 ADD PUSH1 0x0 DUP4 PUSH20 0xFFFFFFFFFFFFFFFFFFFFFFFFFFFFFFFFFFFFFFFF AND PUSH20 0xFFFFFFFFFFFFFFFFFFFFFFFFFFFFFFFFFFFFFFFF AND DUP2 MSTORE PUSH1 0x20 ADD SWAP1 DUP2 MSTORE PUSH1 0x20 ADD PUSH1 0x0 KECCAK256 PUSH1 0x0 PUSH2 0x100 EXP DUP2 SLOAD DUP2 PUSH1 0xFF MUL NOT AND SWAP1 DUP4 ISZERO ISZERO MUL OR SWAP1 SSTORE POP PUSH32 0xB3D5AA2917B85A4687DF1A925388B77DEF36A6B799246CDD492B4FD402C6BE7B DUP2 CALLER TIMESTAMP PUSH1 0x40 MLOAD PUSH2 0x3DE SWAP4 SWAP3 SWAP2 SWAP1 PUSH2 0x14E4 JUMP JUMPDEST PUSH1 0x40 MLOAD DUP1 SWAP2 SUB SWAP1 LOG1 POP JUMP JUMPDEST PUSH1 0x0 DUP1 PUSH1 0x1 ADD PUSH1 0x0 DUP4 PUSH20 0xFFFFFFFFFFFFFFFFFFFFFFFFFFFFFFFFFFFFFFFF AND PUSH20 0xFFFFFFFFFFFFFFFFFFFFFFFFFFFFFFFFFFFFFFFF AND DUP2 MSTORE PUSH1 0x20 ADD SWAP1 DUP2 MSTORE PUSH1 0x20 ADD PUSH1 0x0 KECCAK256 PUSH1 0x0 SWAP1 SLOAD SWAP1 PUSH2 0x100 EXP SWAP1 DIV PUSH1 0xFF AND SWAP1 POP SWAP2 SWAP1 POP JUMP JUMPDEST PUSH1 0x0 PUSH1 0x1 ADD PUSH1 0x0 CALLER PUSH20 0xFFFFFFFFFFFFFFFFFFFFFFFFFFFFFFFFFFFFFFFF AND PUSH20 0xFFFFFFFFFFFFFFFFFFFFFFFFFFFFFFFFFFFFFFFF AND DUP2 MSTORE PUSH1 0x20 ADD SWAP1 DUP2 MSTORE PUSH1 0x20 ADD PUSH1 0x0 KECCAK256 PUSH1 0x0 SWAP1 SLOAD SWAP1 PUSH2 0x100 EXP SWAP1 DIV PUSH1 0xFF AND PUSH2 0x4D0 JUMPI PUSH1 0x40 MLOAD PUSH32 0x8C379A000000000000000000000000000000000000000000000000000000000 DUP2 MSTORE PUSH1 0x4 ADD PUSH2 0x4C7 SWAP1 PUSH2 0x158D JUMP JUMPDEST PUSH1 0x40 MLOAD DUP1 SWAP2 SUB SWAP1 REVERT JUMPDEST DUP2 DUP2 SWAP1 POP DUP5 DUP5 SWAP1 POP EQ PUSH2 0x518 JUMPI PUSH1 0x40 MLOAD PUSH32 0x8C379A000000000000000000000000000000000000000000000000000000000 DUP2 MSTORE PUSH1 0x4 ADD PUSH2 0x50F SWAP1 PUSH2 0x161F JUMP JUMPDEST PUSH1 0x40 MLOAD DUP1 SWAP2 SUB SWAP1 REVERT JUMPDEST PUSH1 0x0 JUMPDEST DUP5 DUP5 SWAP1 POP DUP2 LT ISZERO PUSH2 0x68F JUMPI DUP5 DUP5 DUP3 DUP2 DUP2 LT PUSH2 0x539 JUMPI PUSH2 0x538 PUSH2 0x163F JUMP JUMPDEST JUMPDEST SWAP1 POP PUSH1 0x20 MUL ADD CALLDATALOAD PUSH1 0x0 DUP1 ADD ADDRESS PUSH20 0xFFFFFFFFFFFFFFFFFFFFFFFFFFFFFFFFFFFFFFFF AND PUSH4 0x94A72F1C DUP7 DUP7 DUP7 DUP2 DUP2 LT PUSH2 0x573 JUMPI PUSH2 0x572 PUSH2 0x163F JUMP JUMPDEST JUMPDEST SWAP1 POP PUSH1 0x20 MUL DUP2 ADD SWAP1 PUSH2 0x585 SWAP2 SWAP1 PUSH2 0x167D JUMP JUMPDEST PUSH1 0x40 MLOAD DUP4 PUSH4 0xFFFFFFFF AND PUSH1 0xE0 SHL DUP2 MSTORE PUSH1 0x4 ADD PUSH2 0x5A2 SWAP3 SWAP2 SWAP1 PUSH2 0x170D JUMP JUMPDEST PUSH1 0x0 PUSH1 0x40 MLOAD DUP1 DUP4 SUB DUP2 DUP7 GAS STATICCALL ISZERO DUP1 ISZERO PUSH2 0x5BF JUMPI RETURNDATASIZE PUSH1 0x0 DUP1 RETURNDATACOPY RETURNDATASIZE PUSH1 0x0 REVERT JUMPDEST POP POP POP POP PUSH1 0x40 MLOAD RETURNDATASIZE PUSH1 0x0 DUP3 RETURNDATACOPY RETURNDATASIZE PUSH1 0x1F NOT PUSH1 0x1F DUP3 ADD AND DUP3 ADD DUP1 PUSH1 0x40 MSTORE POP DUP2 ADD SWAP1 PUSH2 0x5E8 SWAP2 SWAP1 PUSH2 0x11AE JUMP JUMPDEST PUSH1 0x40 MLOAD PUSH2 0x5F5 SWAP2 SWAP1 PUSH2 0x176D JUMP JUMPDEST SWAP1 DUP2 MSTORE PUSH1 0x20 ADD PUSH1 0x40 MLOAD DUP1 SWAP2 SUB SWAP1 KECCAK256 DUP2 SWAP1 SSTORE POP PUSH32 0x89186BBD353809BCC0AA77843D6EA72E488B7FD552BFE5AFB4006DC6CD6FE6A3 DUP4 DUP4 DUP4 DUP2 DUP2 LT PUSH2 0x63B JUMPI PUSH2 0x63A PUSH2 0x163F JUMP JUMPDEST JUMPDEST SWAP1 POP PUSH1 0x20 MUL DUP2 ADD SWAP1 PUSH2 0x64D SWAP2 SWAP1 PUSH2 0x167D JUMP JUMPDEST DUP8 DUP8 DUP6 DUP2 DUP2 LT PUSH2 0x660 JUMPI PUSH2 0x65F PUSH2 0x163F JUMP JUMPDEST JUMPDEST SWAP1 POP PUSH1 0x20 MUL ADD CALLDATALOAD CALLER TIMESTAMP PUSH1 0x40 MLOAD PUSH2 0x67A SWAP6 SWAP5 SWAP4 SWAP3 SWAP2 SWAP1 PUSH2 0x1784 JUMP JUMPDEST PUSH1 0x40 MLOAD DUP1 SWAP2 SUB SWAP1 LOG1 DUP1 DUP1 PUSH1 0x1 ADD SWAP2 POP POP PUSH2 0x51B JUMP JUMPDEST POP PUSH32 0xBAD13593CF14DB38C871D023E850302B404AEF491D5E3F41AB7AEBAAFAB6ECDA TIMESTAMP PUSH1 0x40 MLOAD PUSH2 0x6BF SWAP2 SWAP1 PUSH2 0xFE9 JUMP JUMPDEST PUSH1 0x40 MLOAD DUP1 SWAP2 SUB SWAP1 LOG1 POP POP POP POP JUMP JUMPDEST PUSH2 0x6D5 PUSH2 0x9F3 JUMP JUMPDEST PUSH20 0xFFFFFFFFFFFFFFFFFFFFFFFFFFFFFFFFFFFFFFFF AND CALLER PUSH20 0xFFFFFFFFFFFFFFFFFFFFFFFFFFFFFFFFFFFFFFFF AND EQ PUSH2 0x742 JUMPI PUSH1 0x40 MLOAD PUSH32 0x8C379A000000000000000000000000000000000000000000000000000000000 DUP2 MSTORE PUSH1 0x4 ADD PUSH2 0x739 SWAP1 PUSH2 0x1087 JUMP JUMPDEST PUSH1 0x40 MLOAD DUP1 SWAP2 SUB SWAP1 REVERT JUMPDEST ADDRESS PUSH20 0xFFFFFFFFFFFFFFFFFFFFFFFFFFFFFFFFFFFFFFFF AND PUSH4 0x94A72F1C DUP3 PUSH1 0x40 MLOAD DUP3 PUSH4 0xFFFFFFFF AND PUSH1 0xE0 SHL DUP2 MSTORE PUSH1 0x4 ADD PUSH2 0x77B SWAP2 SWAP1 PUSH2 0x10EB JUMP JUMPDEST PUSH1 0x0 PUSH1 0x40 MLOAD DUP1 DUP4 SUB DUP2 DUP7 GAS STATICCALL ISZERO DUP1 ISZERO PUSH2 0x798 JUMPI RETURNDATASIZE PUSH1 0x0 DUP1 RETURNDATACOPY RETURNDATASIZE PUSH1 0x0 REVERT JUMPDEST POP POP POP POP PUSH1 0x40 MLOAD RETURNDATASIZE PUSH1 0x0 DUP3 RETURNDATACOPY RETURNDATASIZE PUSH1 0x1F NOT PUSH1 0x1F DUP3 ADD AND DUP3 ADD DUP1 PUSH1 0x40 MSTORE POP DUP2 ADD SWAP1 PUSH2 0x7C1 SWAP2 SWAP1 PUSH2 0x11AE JUMP JUMPDEST PUSH1 0x0 PUSH1 0x6 ADD SWAP1 DUP2 PUSH2 0x7D2 SWAP2 SWAP1 PUSH2 0x1403 JUMP JUMPDEST POP POP JUMP JUMPDEST PUSH1 0x60 PUSH2 0x7E1 DUP3 PUSH2 0xA26 JUMP JUMPDEST SWAP1 POP SWAP2 SWAP1 POP JUMP JUMPDEST PUSH2 0x7F0 PUSH2 0x9F3 JUMP JUMPDEST PUSH20 0xFFFFFFFFFFFFFFFFFFFFFFFFFFFFFFFFFFFFFFFF AND CALLER PUSH20 0xFFFFFFFFFFFFFFFFFFFFFFFFFFFFFFFFFFFFFFFF AND EQ PUSH2 0x85D JUMPI PUSH1 0x40 MLOAD PUSH32 0x8C379A000000000000000000000000000000000000000000000000000000000 DUP2 MSTORE PUSH1 0x4 ADD PUSH2 0x854 SWAP1 PUSH2 0x1087 JUMP JUMPDEST PUSH1 0x40 MLOAD DUP1 SWAP2 SUB SWAP1 REVERT JUMPDEST PUSH1 0x1 PUSH1 0x0 PUSH1 0x1 ADD PUSH1 0x0 DUP4 PUSH20 0xFFFFFFFFFFFFFFFFFFFFFFFFFFFFFFFFFFFFFFFF AND PUSH20 0xFFFFFFFFFFFFFFFFFFFFFFFFFFFFFFFFFFFFFFFF AND DUP2 MSTORE PUSH1 0x20 ADD SWAP1 DUP2 MSTORE PUSH1 0x20 ADD PUSH1 0x0 KECCAK256 PUSH1 0x0 PUSH2 0x100 EXP DUP2 SLOAD DUP2 PUSH1 0xFF MUL NOT AND SWAP1 DUP4 ISZERO ISZERO MUL OR SWAP1 SSTORE POP PUSH32 0x9F47004A8A67AE0EDE102AE657402045A03474BF00CF7E14F62CDBDC5AF9C547 DUP2 CALLER TIMESTAMP PUSH1 0x40 MLOAD PUSH2 0x8EB SWAP4 SWAP3 SWAP2 SWAP1 PUSH2 0x14E4 JUMP JUMPDEST PUSH1 0x40 MLOAD DUP1 SWAP2 SUB SWAP1 LOG1 POP JUMP JUMPDEST PUSH1 0x0 DUP1 PUSH1 0x0 DUP1 ADD PUSH1 0x0 PUSH1 0x3D ADD PUSH1 0x40 MLOAD PUSH2 0x90F SWAP2 SWAP1 PUSH2 0x1855 JUMP JUMPDEST SWAP1 DUP2 MSTORE PUSH1 0x20 ADD PUSH1 0x40 MLOAD DUP1 SWAP2 SUB SWAP1 KECCAK256 SLOAD PUSH1 0x0 DUP1 ADD PUSH1 0x0 PUSH1 0x6 ADD PUSH1 0x40 MLOAD PUSH2 0x934 SWAP2 SWAP1 PUSH2 0x1855 JUMP JUMPDEST SWAP1 DUP2 MSTORE PUSH1 0x20 ADD PUSH1 0x40 MLOAD DUP1 SWAP2 SUB SWAP1 KECCAK256 SLOAD SWAP2 POP SWAP2 POP SWAP1 SWAP2 JUMP JUMPDEST PUSH1 0x0 DUP1 PUSH1 0x0 ADD ADDRESS PUSH20 0xFFFFFFFFFFFFFFFFFFFFFFFFFFFFFFFFFFFFFFFF AND PUSH4 0x94A72F1C DUP5 PUSH1 0x40 MLOAD DUP3 PUSH4 0xFFFFFFFF AND PUSH1 0xE0 SHL DUP2 MSTORE PUSH1 0x4 ADD PUSH2 0x98A SWAP2 SWAP1 PUSH2 0x10EB JUMP JUMPDEST PUSH1 0x0 PUSH1 0x40 MLOAD DUP1 DUP4 SUB DUP2 DUP7 GAS STATICCALL ISZERO DUP1 ISZERO PUSH2 0x9A7 JUMPI RETURNDATASIZE PUSH1 0x0 DUP1 RETURNDATACOPY RETURNDATASIZE PUSH1 0x0 REVERT JUMPDEST POP POP POP POP PUSH1 0x40 MLOAD RETURNDATASIZE PUSH1 0x0 DUP3 RETURNDATACOPY RETURNDATASIZE PUSH1 0x1F NOT PUSH1 0x1F DUP3 ADD AND DUP3 ADD DUP1 PUSH1 0x40 MSTORE POP DUP2 ADD SWAP1 PUSH2 0x9D0 SWAP2 SWAP1 PUSH2 0x11AE JUMP JUMPDEST PUSH1 0x40 MLOAD PUSH2 0x9DD SWAP2 SWAP1 PUSH2 0x176D JUMP JUMPDEST SWAP1 DUP2 MSTORE PUSH1 0x20 ADD PUSH1 0x40 MLOAD DUP1 SWAP2 SUB SWAP1 KECCAK256 SLOAD SWAP1 POP SWAP2 SWAP1 POP JUMP JUMPDEST PUSH1 0x0 PUSH2 0x9FD PUSH2 0xAB8 JUMP JUMPDEST PUSH1 0x3 ADD PUSH1 0x0 SWAP1 SLOAD SWAP1 PUSH2 0x100 EXP SWAP1 DIV PUSH20 0xFFFFFFFFFFFFFFFFFFFFFFFFFFFFFFFFFFFFFFFF AND SWAP1 POP SWAP1 JUMP JUMPDEST PUSH1 0x60 PUSH1 0x0 DUP3 SWAP1 POP PUSH1 0x0 JUMPDEST DUP2 MLOAD DUP2 LT ISZERO PUSH2 0xAAE JUMPI PUSH2 0xA5F DUP3 DUP3 DUP2 MLOAD DUP2 LT PUSH2 0xA4F JUMPI PUSH2 0xA4E PUSH2 0x163F JUMP JUMPDEST JUMPDEST PUSH1 0x20 ADD ADD MLOAD PUSH1 0xF8 SHR PUSH1 0xF8 SHL PUSH2 0xAE5 JUMP JUMPDEST DUP3 DUP3 DUP2 MLOAD DUP2 LT PUSH2 0xA72 JUMPI PUSH2 0xA71 PUSH2 0x163F JUMP JUMPDEST JUMPDEST PUSH1 0x20 ADD ADD SWAP1 PUSH31 0xFFFFFFFFFFFFFFFFFFFFFFFFFFFFFFFFFFFFFFFFFFFFFFFFFFFFFFFFFFFFFF NOT AND SWAP1 DUP2 PUSH1 0x0 BYTE SWAP1 MSTORE8 POP DUP1 DUP1 PUSH1 0x1 ADD SWAP2 POP POP PUSH2 0xA30 JUMP JUMPDEST POP DUP1 SWAP2 POP POP SWAP2 SWAP1 POP JUMP JUMPDEST PUSH1 0x0 DUP1 PUSH32 0xC8FCAD8DB84D3CC18B4C41D551EA0EE66DD599CDE068D998E57D5E09332C131C SWAP1 POP DUP1 SWAP2 POP POP SWAP1 JUMP JUMPDEST PUSH1 0x0 PUSH1 0x61 PUSH1 0xF8 SHL DUP3 PUSH31 0xFFFFFFFFFFFFFFFFFFFFFFFFFFFFFFFFFFFFFFFFFFFFFFFFFFFFFFFFFFFFFF NOT AND LT ISZERO DUP1 ISZERO PUSH2 0xB43 JUMPI POP PUSH1 0x7A PUSH1 0xF8 SHL DUP3 PUSH31 0xFFFFFFFFFFFFFFFFFFFFFFFFFFFFFFFFFFFFFFFFFFFFFFFFFFFFFFFFFFFFFF NOT AND GT ISZERO JUMPDEST ISZERO PUSH2 0xB62 JUMPI PUSH1 0x20 DUP3 PUSH1 0xF8 SHR PUSH2 0xB58 SWAP2 SWAP1 PUSH2 0x18A8 JUMP JUMPDEST PUSH1 0xF8 SHL SWAP1 POP PUSH2 0xB66 JUMP JUMPDEST DUP2 SWAP1 POP JUMPDEST SWAP2 SWAP1 POP JUMP JUMPDEST PUSH1 0x0 PUSH1 0x40 MLOAD SWAP1 POP SWAP1 JUMP JUMPDEST PUSH1 0x0 DUP1 REVERT JUMPDEST PUSH1 0x0 DUP1 REVERT JUMPDEST PUSH1 0x0 DUP1 REVERT JUMPDEST PUSH1 0x0 DUP1 REVERT JUMPDEST PUSH1 0x0 PUSH1 0x1F NOT PUSH1 0x1F DUP4 ADD AND SWAP1 POP SWAP2 SWAP1 POP JUMP JUMPDEST PUSH32 0x4E487B7100000000000000000000000000000000000000000000000000000000 PUSH1 0x0 MSTORE PUSH1 0x41 PUSH1 0x4 MSTORE PUSH1 0x24 PUSH1 0x0 REVERT JUMPDEST PUSH2 0xBD2 DUP3 PUSH2 0xB89 JUMP JUMPDEST DUP2 ADD DUP2 DUP2 LT PUSH8 0xFFFFFFFFFFFFFFFF DUP3 GT OR ISZERO PUSH2 0xBF1 JUMPI PUSH2 0xBF0 PUSH2 0xB9A JUMP JUMPDEST JUMPDEST DUP1 PUSH1 0x40 MSTORE POP POP POP JUMP JUMPDEST PUSH1 0x0 PUSH2 0xC04 PUSH2 0xB6B JUMP JUMPDEST SWAP1 POP PUSH2 0xC10 DUP3 DUP3 PUSH2 0xBC9 JUMP JUMPDEST SWAP2 SWAP1 POP JUMP JUMPDEST PUSH1 0x0 PUSH8 0xFFFFFFFFFFFFFFFF DUP3 GT ISZERO PUSH2 0xC30 JUMPI PUSH2 0xC2F PUSH2 0xB9A JUMP JUMPDEST JUMPDEST PUSH2 0xC39 DUP3 PUSH2 0xB89 JUMP JUMPDEST SWAP1 POP PUSH1 0x20 DUP2 ADD SWAP1 POP SWAP2 SWAP1 POP JUMP JUMPDEST DUP3 DUP2 DUP4 CALLDATACOPY PUSH1 0x0 DUP4 DUP4 ADD MSTORE POP POP POP JUMP JUMPDEST PUSH1 0x0 PUSH2 0xC68 PUSH2 0xC63 DUP5 PUSH2 0xC15 JUMP JUMPDEST PUSH2 0xBFA JUMP JUMPDEST SWAP1 POP DUP3 DUP2 MSTORE PUSH1 0x20 DUP2 ADD DUP5 DUP5 DUP5 ADD GT ISZERO PUSH2 0xC84 JUMPI PUSH2 0xC83 PUSH2 0xB84 JUMP JUMPDEST JUMPDEST PUSH2 0xC8F DUP5 DUP3 DUP6 PUSH2 0xC46 JUMP JUMPDEST POP SWAP4 SWAP3 POP POP POP JUMP JUMPDEST PUSH1 0x0 DUP3 PUSH1 0x1F DUP4 ADD SLT PUSH2 0xCAC JUMPI PUSH2 0xCAB PUSH2 0xB7F JUMP JUMPDEST JUMPDEST DUP2 CALLDATALOAD PUSH2 0xCBC DUP5 DUP3 PUSH1 0x20 DUP7 ADD PUSH2 0xC55 JUMP JUMPDEST SWAP2 POP POP SWAP3 SWAP2 POP POP JUMP JUMPDEST PUSH1 0x0 PUSH1 0x20 DUP3 DUP5 SUB SLT ISZERO PUSH2 0xCDB JUMPI PUSH2 0xCDA PUSH2 0xB75 JUMP JUMPDEST JUMPDEST PUSH1 0x0 DUP3 ADD CALLDATALOAD PUSH8 0xFFFFFFFFFFFFFFFF DUP2 GT ISZERO PUSH2 0xCF9 JUMPI PUSH2 0xCF8 PUSH2 0xB7A JUMP JUMPDEST JUMPDEST PUSH2 0xD05 DUP5 DUP3 DUP6 ADD PUSH2 0xC97 JUMP JUMPDEST SWAP2 POP POP SWAP3 SWAP2 POP POP JUMP JUMPDEST PUSH1 0x0 PUSH20 0xFFFFFFFFFFFFFFFFFFFFFFFFFFFFFFFFFFFFFFFF DUP3 AND SWAP1 POP SWAP2 SWAP1 POP JUMP JUMPDEST PUSH1 0x0 PUSH2 0xD39 DUP3 PUSH2 0xD0E JUMP JUMPDEST SWAP1 POP SWAP2 SWAP1 POP JUMP JUMPDEST PUSH2 0xD49 DUP2 PUSH2 0xD2E JUMP JUMPDEST DUP2 EQ PUSH2 0xD54 JUMPI PUSH1 0x0 DUP1 REVERT JUMPDEST POP JUMP JUMPDEST PUSH1 0x0 DUP2 CALLDATALOAD SWAP1 POP PUSH2 0xD66 DUP2 PUSH2 0xD40 JUMP JUMPDEST SWAP3 SWAP2 POP POP JUMP JUMPDEST PUSH1 0x0 PUSH1 0x20 DUP3 DUP5 SUB SLT ISZERO PUSH2 0xD82 JUMPI PUSH2 0xD81 PUSH2 0xB75 JUMP JUMPDEST JUMPDEST PUSH1 0x0 PUSH2 0xD90 DUP5 DUP3 DUP6 ADD PUSH2 0xD57 JUMP JUMPDEST SWAP2 POP POP SWAP3 SWAP2 POP POP JUMP JUMPDEST PUSH1 0x0 DUP2 ISZERO ISZERO SWAP1 POP SWAP2 SWAP1 POP JUMP JUMPDEST PUSH2 0xDAE DUP2 PUSH2 0xD99 JUMP JUMPDEST DUP3 MSTORE POP POP JUMP JUMPDEST PUSH1 0x0 PUSH1 0x20 DUP3 ADD SWAP1 POP PUSH2 0xDC9 PUSH1 0x0 DUP4 ADD DUP5 PUSH2 0xDA5 JUMP JUMPDEST SWAP3 SWAP2 POP POP JUMP JUMPDEST PUSH1 0x0 DUP1 REVERT JUMPDEST PUSH1 0x0 DUP1 REVERT JUMPDEST PUSH1 0x0 DUP1 DUP4 PUSH1 0x1F DUP5 ADD SLT PUSH2 0xDEF JUMPI PUSH2 0xDEE PUSH2 0xB7F JUMP JUMPDEST JUMPDEST DUP3 CALLDATALOAD SWAP1 POP PUSH8 0xFFFFFFFFFFFFFFFF DUP2 GT ISZERO PUSH2 0xE0C JUMPI PUSH2 0xE0B PUSH2 0xDCF JUMP JUMPDEST JUMPDEST PUSH1 0x20 DUP4 ADD SWAP2 POP DUP4 PUSH1 0x20 DUP3 MUL DUP4 ADD GT ISZERO PUSH2 0xE28 JUMPI PUSH2 0xE27 PUSH2 0xDD4 JUMP JUMPDEST JUMPDEST SWAP3 POP SWAP3 SWAP1 POP JUMP JUMPDEST PUSH1 0x0 DUP1 DUP4 PUSH1 0x1F DUP5 ADD SLT PUSH2 0xE45 JUMPI PUSH2 0xE44 PUSH2 0xB7F JUMP JUMPDEST JUMPDEST DUP3 CALLDATALOAD SWAP1 POP PUSH8 0xFFFFFFFFFFFFFFFF DUP2 GT ISZERO PUSH2 0xE62 JUMPI PUSH2 0xE61 PUSH2 0xDCF JUMP JUMPDEST JUMPDEST PUSH1 0x20 DUP4 ADD SWAP2 POP DUP4 PUSH1 0x20 DUP3 MUL DUP4 ADD GT ISZERO PUSH2 0xE7E JUMPI PUSH2 0xE7D PUSH2 0xDD4 JUMP JUMPDEST JUMPDEST SWAP3 POP SWAP3 SWAP1 POP JUMP JUMPDEST PUSH1 0x0 DUP1 PUSH1 0x0 DUP1 PUSH1 0x40 DUP6 DUP8 SUB SLT ISZERO PUSH2 0xE9F JUMPI PUSH2 0xE9E PUSH2 0xB75 JUMP JUMPDEST JUMPDEST PUSH1 0x0 DUP6 ADD CALLDATALOAD PUSH8 0xFFFFFFFFFFFFFFFF DUP2 GT ISZERO PUSH2 0xEBD JUMPI PUSH2 0xEBC PUSH2 0xB7A JUMP JUMPDEST JUMPDEST PUSH2 0xEC9 DUP8 DUP3 DUP9 ADD PUSH2 0xDD9 JUMP JUMPDEST SWAP5 POP SWAP5 POP POP PUSH1 0x20 DUP6 ADD CALLDATALOAD PUSH8 0xFFFFFFFFFFFFFFFF DUP2 GT ISZERO PUSH2 0xEEC JUMPI PUSH2 0xEEB PUSH2 0xB7A JUMP JUMPDEST JUMPDEST PUSH2 0xEF8 DUP8 DUP3 DUP9 ADD PUSH2 0xE2F JUMP JUMPDEST SWAP3 POP SWAP3 POP POP SWAP3 SWAP6 SWAP2 SWAP5 POP SWAP3 POP JUMP JUMPDEST PUSH1 0x0 DUP2 MLOAD SWAP1 POP SWAP2 SWAP1 POP JUMP JUMPDEST PUSH1 0x0 DUP3 DUP3 MSTORE PUSH1 0x20 DUP3 ADD SWAP1 POP SWAP3 SWAP2 POP POP JUMP JUMPDEST PUSH1 0x0 JUMPDEST DUP4 DUP2 LT ISZERO PUSH2 0xF40 JUMPI DUP1 DUP3 ADD MLOAD DUP2 DUP5 ADD MSTORE PUSH1 0x20 DUP2 ADD SWAP1 POP PUSH2 0xF25 JUMP JUMPDEST PUSH1 0x0 DUP5 DUP5 ADD MSTORE POP POP POP POP JUMP JUMPDEST PUSH1 0x0 PUSH2 0xF57 DUP3 PUSH2 0xF06 JUMP JUMPDEST PUSH2 0xF61 DUP2 DUP6 PUSH2 0xF11 JUMP JUMPDEST SWAP4 POP PUSH2 0xF71 DUP2 DUP6 PUSH1 0x20 DUP7 ADD PUSH2 0xF22 JUMP JUMPDEST PUSH2 0xF7A DUP2 PUSH2 0xB89 JUMP JUMPDEST DUP5 ADD SWAP2 POP POP SWAP3 SWAP2 POP POP JUMP JUMPDEST PUSH1 0x0 PUSH1 0x20 DUP3 ADD SWAP1 POP DUP2 DUP2 SUB PUSH1 0x0 DUP4 ADD MSTORE PUSH2 0xF9F DUP2 DUP5 PUSH2 0xF4C JUMP JUMPDEST SWAP1 POP SWAP3 SWAP2 POP POP JUMP JUMPDEST PUSH1 0x0 DUP2 SWAP1 POP SWAP2 SWAP1 POP JUMP JUMPDEST PUSH2 0xFBA DUP2 PUSH2 0xFA7 JUMP JUMPDEST DUP3 MSTORE POP POP JUMP JUMPDEST PUSH1 0x0 PUSH1 0x40 DUP3 ADD SWAP1 POP PUSH2 0xFD5 PUSH1 0x0 DUP4 ADD DUP6 PUSH2 0xFB1 JUMP JUMPDEST PUSH2 0xFE2 PUSH1 0x20 DUP4 ADD DUP5 PUSH2 0xFB1 JUMP JUMPDEST SWAP4 SWAP3 POP POP POP JUMP JUMPDEST PUSH1 0x0 PUSH1 0x20 DUP3 ADD SWAP1 POP PUSH2 0xFFE PUSH1 0x0 DUP4 ADD DUP5 PUSH2 0xFB1 JUMP JUMPDEST SWAP3 SWAP2 POP POP JUMP JUMPDEST PUSH1 0x0 DUP3 DUP3 MSTORE PUSH1 0x20 DUP3 ADD SWAP1 POP SWAP3 SWAP2 POP POP JUMP JUMPDEST PUSH32 0x4163636573732064656E6965642C204F6E6C79206F776E657220697320616C6C PUSH1 0x0 DUP3 ADD MSTORE PUSH32 0x6F77656421000000000000000000000000000000000000000000000000000000 PUSH1 0x20 DUP3 ADD MSTORE POP JUMP JUMPDEST PUSH1 0x0 PUSH2 0x1071 PUSH1 0x25 DUP4 PUSH2 0x1004 JUMP JUMPDEST SWAP2 POP PUSH2 0x107C DUP3 PUSH2 0x1015 JUMP JUMPDEST PUSH1 0x40 DUP3 ADD SWAP1 POP SWAP2 SWAP1 POP JUMP JUMPDEST PUSH1 0x0 PUSH1 0x20 DUP3 ADD SWAP1 POP DUP2 DUP2 SUB PUSH1 0x0 DUP4 ADD MSTORE PUSH2 0x10A0 DUP2 PUSH2 0x1064 JUMP JUMPDEST SWAP1 POP SWAP2 SWAP1 POP JUMP JUMPDEST PUSH1 0x0 DUP2 MLOAD SWAP1 POP SWAP2 SWAP1 POP JUMP JUMPDEST PUSH1 0x0 PUSH2 0x10BD DUP3 PUSH2 0x10A7 JUMP JUMPDEST PUSH2 0x10C7 DUP2 DUP6 PUSH2 0x1004 JUMP JUMPDEST SWAP4 POP PUSH2 0x10D7 DUP2 DUP6 PUSH1 0x20 DUP7 ADD PUSH2 0xF22 JUMP JUMPDEST PUSH2 0x10E0 DUP2 PUSH2 0xB89 JUMP JUMPDEST DUP5 ADD SWAP2 POP POP SWAP3 SWAP2 POP POP JUMP JUMPDEST PUSH1 0x0 PUSH1 0x20 DUP3 ADD SWAP1 POP DUP2 DUP2 SUB PUSH1 0x0 DUP4 ADD MSTORE PUSH2 0x1105 DUP2 DUP5 PUSH2 0x10B2 JUMP JUMPDEST SWAP1 POP SWAP3 SWAP2 POP POP JUMP JUMPDEST PUSH1 0x0 PUSH8 0xFFFFFFFFFFFFFFFF DUP3 GT ISZERO PUSH2 0x1128 JUMPI PUSH2 0x1127 PUSH2 0xB9A JUMP JUMPDEST JUMPDEST PUSH2 0x1131 DUP3 PUSH2 0xB89 JUMP JUMPDEST SWAP1 POP PUSH1 0x20 DUP2 ADD SWAP1 POP SWAP2 SWAP1 POP JUMP JUMPDEST PUSH1 0x0 PUSH2 0x1151 PUSH2 0x114C DUP5 PUSH2 0x110D JUMP JUMPDEST PUSH2 0xBFA JUMP JUMPDEST SWAP1 POP DUP3 DUP2 MSTORE PUSH1 0x20 DUP2 ADD DUP5 DUP5 DUP5 ADD GT ISZERO PUSH2 0x116D JUMPI PUSH2 0x116C PUSH2 0xB84 JUMP JUMPDEST JUMPDEST PUSH2 0x1178 DUP5 DUP3 DUP6 PUSH2 0xF22 JUMP JUMPDEST POP SWAP4 SWAP3 POP POP POP JUMP JUMPDEST PUSH1 0x0 DUP3 PUSH1 0x1F DUP4 ADD SLT PUSH2 0x1195 JUMPI PUSH2 0x1194 PUSH2 0xB7F JUMP JUMPDEST JUMPDEST DUP2 MLOAD PUSH2 0x11A5 DUP5 DUP3 PUSH1 0x20 DUP7 ADD PUSH2 0x113E JUMP JUMPDEST SWAP2 POP POP SWAP3 SWAP2 POP POP JUMP JUMPDEST PUSH1 0x0 PUSH1 0x20 DUP3 DUP5 SUB SLT ISZERO PUSH2 0x11C4 JUMPI PUSH2 0x11C3 PUSH2 0xB75 JUMP JUMPDEST JUMPDEST PUSH1 0x0 DUP3 ADD MLOAD PUSH8 0xFFFFFFFFFFFFFFFF DUP2 GT ISZERO PUSH2 0x11E2 JUMPI PUSH2 0x11E1 PUSH2 0xB7A JUMP JUMPDEST JUMPDEST PUSH2 0x11EE DUP5 DUP3 DUP6 ADD PUSH2 0x1180 JUMP JUMPDEST SWAP2 POP POP SWAP3 SWAP2 POP POP JUMP JUMPDEST PUSH32 0x4E487B7100000000000000000000000000000000000000000000000000000000 PUSH1 0x0 MSTORE PUSH1 0x22 PUSH1 0x4 MSTORE PUSH1 0x24 PUSH1 0x0 REVERT JUMPDEST PUSH1 0x0 PUSH1 0x2 DUP3 DIV SWAP1 POP PUSH1 0x1 DUP3 AND DUP1 PUSH2 0x123E JUMPI PUSH1 0x7F DUP3 AND SWAP2 POP JUMPDEST PUSH1 0x20 DUP3 LT DUP2 SUB PUSH2 0x1251 JUMPI PUSH2 0x1250 PUSH2 0x11F7 JUMP JUMPDEST JUMPDEST POP SWAP2 SWAP1 POP JUMP JUMPDEST PUSH1 0x0 DUP2 SWAP1 POP DUP2 PUSH1 0x0 MSTORE PUSH1 0x20 PUSH1 0x0 KECCAK256 SWAP1 POP SWAP2 SWAP1 POP JUMP JUMPDEST PUSH1 0x0 PUSH1 0x20 PUSH1 0x1F DUP4 ADD DIV SWAP1 POP SWAP2 SWAP1 POP JUMP JUMPDEST PUSH1 0x0 DUP3 DUP3 SHL SWAP1 POP SWAP3 SWAP2 POP POP JUMP JUMPDEST PUSH1 0x0 PUSH1 0x8 DUP4 MUL PUSH2 0x12B9 PUSH32 0xFFFFFFFFFFFFFFFFFFFFFFFFFFFFFFFFFFFFFFFFFFFFFFFFFFFFFFFFFFFFFFFF DUP3 PUSH2 0x127C JUMP JUMPDEST PUSH2 0x12C3 DUP7 DUP4 PUSH2 0x127C JUMP JUMPDEST SWAP6 POP DUP1 NOT DUP5 AND SWAP4 POP DUP1 DUP7 AND DUP5 OR SWAP3 POP POP POP SWAP4 SWAP3 POP POP POP JUMP JUMPDEST PUSH1 0x0 DUP2 SWAP1 POP SWAP2 SWAP1 POP JUMP JUMPDEST PUSH1 0x0 PUSH2 0x1300 PUSH2 0x12FB PUSH2 0x12F6 DUP5 PUSH2 0xFA7 JUMP JUMPDEST PUSH2 0x12DB JUMP JUMPDEST PUSH2 0xFA7 JUMP JUMPDEST SWAP1 POP SWAP2 SWAP1 POP JUMP JUMPDEST PUSH1 0x0 DUP2 SWAP1 POP SWAP2 SWAP1 POP JUMP JUMPDEST PUSH2 0x131A DUP4 PUSH2 0x12E5 JUMP JUMPDEST PUSH2 0x132E PUSH2 0x1326 DUP3 PUSH2 0x1307 JUMP JUMPDEST DUP5 DUP5 SLOAD PUSH2 0x1289 JUMP JUMPDEST DUP3 SSTORE POP POP POP POP JUMP JUMPDEST PUSH1 0x0 SWAP1 JUMP JUMPDEST PUSH2 0x1343 PUSH2 0x1336 JUMP JUMPDEST PUSH2 0x134E DUP2 DUP5 DUP5 PUSH2 0x1311 JUMP JUMPDEST POP POP POP JUMP JUMPDEST JUMPDEST DUP2 DUP2 LT ISZERO PUSH2 0x1372 JUMPI PUSH2 0x1367 PUSH1 0x0 DUP3 PUSH2 0x133B JUMP JUMPDEST PUSH1 0x1 DUP2 ADD SWAP1 POP PUSH2 0x1354 JUMP JUMPDEST POP POP JUMP JUMPDEST PUSH1 0x1F DUP3 GT ISZERO PUSH2 0x13B7 JUMPI PUSH2 0x1388 DUP2 PUSH2 0x1257 JUMP JUMPDEST PUSH2 0x1391 DUP5 PUSH2 0x126C JUMP JUMPDEST DUP2 ADD PUSH1 0x20 DUP6 LT ISZERO PUSH2 0x13A0 JUMPI DUP2 SWAP1 POP JUMPDEST PUSH2 0x13B4 PUSH2 0x13AC DUP6 PUSH2 0x126C JUMP JUMPDEST DUP4 ADD DUP3 PUSH2 0x1353 JUMP JUMPDEST POP POP JUMPDEST POP POP POP JUMP JUMPDEST PUSH1 0x0 DUP3 DUP3 SHR SWAP1 POP SWAP3 SWAP2 POP POP JUMP JUMPDEST PUSH1 0x0 PUSH2 0x13DA PUSH1 0x0 NOT DUP5 PUSH1 0x8 MUL PUSH2 0x13BC JUMP JUMPDEST NOT DUP1 DUP4 AND SWAP2 POP POP SWAP3 SWAP2 POP POP JUMP JUMPDEST PUSH1 0x0 PUSH2 0x13F3 DUP4 DUP4 PUSH2 0x13C9 JUMP JUMPDEST SWAP2 POP DUP3 PUSH1 0x2 MUL DUP3 OR SWAP1 POP SWAP3 SWAP2 POP POP JUMP JUMPDEST PUSH2 0x140C DUP3 PUSH2 0xF06 JUMP JUMPDEST PUSH8 0xFFFFFFFFFFFFFFFF DUP2 GT ISZERO PUSH2 0x1425 JUMPI PUSH2 0x1424 PUSH2 0xB9A JUMP JUMPDEST JUMPDEST PUSH2 0x142F DUP3 SLOAD PUSH2 0x1226 JUMP JUMPDEST PUSH2 0x143A DUP3 DUP3 DUP6 PUSH2 0x1376 JUMP JUMPDEST PUSH1 0x0 PUSH1 0x20 SWAP1 POP PUSH1 0x1F DUP4 GT PUSH1 0x1 DUP2 EQ PUSH2 0x146D JUMPI PUSH1 0x0 DUP5 ISZERO PUSH2 0x145B JUMPI DUP3 DUP8 ADD MLOAD SWAP1 POP JUMPDEST PUSH2 0x1465 DUP6 DUP3 PUSH2 0x13E7 JUMP JUMPDEST DUP7 SSTORE POP PUSH2 0x14CD JUMP JUMPDEST PUSH1 0x1F NOT DUP5 AND PUSH2 0x147B DUP7 PUSH2 0x1257 JUMP JUMPDEST PUSH1 0x0 JUMPDEST DUP3 DUP2 LT ISZERO PUSH2 0x14A3 JUMPI DUP5 DUP10 ADD MLOAD DUP3 SSTORE PUSH1 0x1 DUP3 ADD SWAP2 POP PUSH1 0x20 DUP6 ADD SWAP5 POP PUSH1 0x20 DUP2 ADD SWAP1 POP PUSH2 0x147E JUMP JUMPDEST DUP7 DUP4 LT ISZERO PUSH2 0x14C0 JUMPI DUP5 DUP10 ADD MLOAD PUSH2 0x14BC PUSH1 0x1F DUP10 AND DUP3 PUSH2 0x13C9 JUMP JUMPDEST DUP4 SSTORE POP JUMPDEST PUSH1 0x1 PUSH1 0x2 DUP9 MUL ADD DUP9 SSTORE POP POP POP JUMPDEST POP POP POP POP POP POP JUMP JUMPDEST PUSH2 0x14DE DUP2 PUSH2 0xD2E JUMP JUMPDEST DUP3 MSTORE POP POP JUMP JUMPDEST PUSH1 0x0 PUSH1 0x60 DUP3 ADD SWAP1 POP PUSH2 0x14F9 PUSH1 0x0 DUP4 ADD DUP7 PUSH2 0x14D5 JUMP JUMPDEST PUSH2 0x1506 PUSH1 0x20 DUP4 ADD DUP6 PUSH2 0x14D5 JUMP JUMPDEST PUSH2 0x1513 PUSH1 0x40 DUP4 ADD DUP5 PUSH2 0xFB1 JUMP JUMPDEST SWAP5 SWAP4 POP POP POP POP JUMP JUMPDEST PUSH32 0x4163636573732064656E6965642E204F6E6C792050797468696120697320616C PUSH1 0x0 DUP3 ADD MSTORE PUSH32 0x6C6F776564210000000000000000000000000000000000000000000000000000 PUSH1 0x20 DUP3 ADD MSTORE POP JUMP JUMPDEST PUSH1 0x0 PUSH2 0x1577 PUSH1 0x26 DUP4 PUSH2 0x1004 JUMP JUMPDEST SWAP2 POP PUSH2 0x1582 DUP3 PUSH2 0x151B JUMP JUMPDEST PUSH1 0x40 DUP3 ADD SWAP1 POP SWAP2 SWAP1 POP JUMP JUMPDEST PUSH1 0x0 PUSH1 0x20 DUP3 ADD SWAP1 POP DUP2 DUP2 SUB PUSH1 0x0 DUP4 ADD MSTORE PUSH2 0x15A6 DUP2 PUSH2 0x156A JUMP JUMPDEST SWAP1 POP SWAP2 SWAP1 POP JUMP JUMPDEST PUSH32 0x50726963657320616E64207469636B657273206D757374206265206F66206571 PUSH1 0x0 DUP3 ADD MSTORE PUSH32 0x75616C206C656E67746800000000000000000000000000000000000000000000 PUSH1 0x20 DUP3 ADD MSTORE POP JUMP JUMPDEST PUSH1 0x0 PUSH2 0x1609 PUSH1 0x2A DUP4 PUSH2 0x1004 JUMP JUMPDEST SWAP2 POP PUSH2 0x1614 DUP3 PUSH2 0x15AD JUMP JUMPDEST PUSH1 0x40 DUP3 ADD SWAP1 POP SWAP2 SWAP1 POP JUMP JUMPDEST PUSH1 0x0 PUSH1 0x20 DUP3 ADD SWAP1 POP DUP2 DUP2 SUB PUSH1 0x0 DUP4 ADD MSTORE PUSH2 0x1638 DUP2 PUSH2 0x15FC JUMP JUMPDEST SWAP1 POP SWAP2 SWAP1 POP JUMP JUMPDEST PUSH32 0x4E487B7100000000000000000000000000000000000000000000000000000000 PUSH1 0x0 MSTORE PUSH1 0x32 PUSH1 0x4 MSTORE PUSH1 0x24 PUSH1 0x0 REVERT JUMPDEST PUSH1 0x0 DUP1 REVERT JUMPDEST PUSH1 0x0 DUP1 REVERT JUMPDEST PUSH1 0x0 DUP1 REVERT JUMPDEST PUSH1 0x0 DUP1 DUP4 CALLDATALOAD PUSH1 0x1 PUSH1 0x20 SUB DUP5 CALLDATASIZE SUB SUB DUP2 SLT PUSH2 0x169A JUMPI PUSH2 0x1699 PUSH2 0x166E JUMP JUMPDEST JUMPDEST DUP1 DUP5 ADD SWAP3 POP DUP3 CALLDATALOAD SWAP2 POP PUSH8 0xFFFFFFFFFFFFFFFF DUP3 GT ISZERO PUSH2 0x16BC JUMPI PUSH2 0x16BB PUSH2 0x1673 JUMP JUMPDEST JUMPDEST PUSH1 0x20 DUP4 ADD SWAP3 POP PUSH1 0x1 DUP3 MUL CALLDATASIZE SUB DUP4 SGT ISZERO PUSH2 0x16D8 JUMPI PUSH2 0x16D7 PUSH2 0x1678 JUMP JUMPDEST JUMPDEST POP SWAP3 POP SWAP3 SWAP1 POP JUMP JUMPDEST PUSH1 0x0 PUSH2 0x16EC DUP4 DUP6 PUSH2 0x1004 JUMP JUMPDEST SWAP4 POP PUSH2 0x16F9 DUP4 DUP6 DUP5 PUSH2 0xC46 JUMP JUMPDEST PUSH2 0x1702 DUP4 PUSH2 0xB89 JUMP JUMPDEST DUP5 ADD SWAP1 POP SWAP4 SWAP3 POP POP POP JUMP JUMPDEST PUSH1 0x0 PUSH1 0x20 DUP3 ADD SWAP1 POP DUP2 DUP2 SUB PUSH1 0x0 DUP4 ADD MSTORE PUSH2 0x1728 DUP2 DUP5 DUP7 PUSH2 0x16E0 JUMP JUMPDEST SWAP1 POP SWAP4 SWAP3 POP POP POP JUMP JUMPDEST PUSH1 0x0 DUP2 SWAP1 POP SWAP3 SWAP2 POP POP JUMP JUMPDEST PUSH1 0x0 PUSH2 0x1747 DUP3 PUSH2 0xF06 JUMP JUMPDEST PUSH2 0x1751 DUP2 DUP6 PUSH2 0x1731 JUMP JUMPDEST SWAP4 POP PUSH2 0x1761 DUP2 DUP6 PUSH1 0x20 DUP7 ADD PUSH2 0xF22 JUMP JUMPDEST DUP1 DUP5 ADD SWAP2 POP POP SWAP3 SWAP2 POP POP JUMP JUMPDEST PUSH1 0x0 PUSH2 0x1779 DUP3 DUP5 PUSH2 0x173C JUMP JUMPDEST SWAP2 POP DUP2 SWAP1 POP SWAP3 SWAP2 POP POP JUMP JUMPDEST PUSH1 0x0 PUSH1 0x80 DUP3 ADD SWAP1 POP DUP2 DUP2 SUB PUSH1 0x0 DUP4 ADD MSTORE PUSH2 0x179F DUP2 DUP8 DUP10 PUSH2 0x16E0 JUMP JUMPDEST SWAP1 POP PUSH2 0x17AE PUSH1 0x20 DUP4 ADD DUP7 PUSH2 0xFB1 JUMP JUMPDEST PUSH2 0x17BB PUSH1 0x40 DUP4 ADD DUP6 PUSH2 0x14D5 JUMP JUMPDEST PUSH2 0x17C8 PUSH1 0x60 DUP4 ADD DUP5 PUSH2 0xFB1 JUMP JUMPDEST SWAP7 SWAP6 POP POP POP POP POP POP JUMP JUMPDEST PUSH1 0x0 DUP2 SLOAD PUSH2 0x17DF DUP2 PUSH2 0x1226 JUMP JUMPDEST PUSH2 0x17E9 DUP2 DUP7 PUSH2 0x1731 JUMP JUMPDEST SWAP5 POP PUSH1 0x1 DUP3 AND PUSH1 0x0 DUP2 EQ PUSH2 0x1804 JUMPI PUSH1 0x1 DUP2 EQ PUSH2 0x1819 JUMPI PUSH2 0x184C JUMP JUMPDEST PUSH1 0xFF NOT DUP4 AND DUP7 MSTORE DUP2 ISZERO ISZERO DUP3 MUL DUP7 ADD SWAP4 POP PUSH2 0x184C JUMP JUMPDEST PUSH2 0x1822 DUP6 PUSH2 0x1257 JUMP JUMPDEST PUSH1 0x0 JUMPDEST DUP4 DUP2 LT ISZERO PUSH2 0x1844 JUMPI DUP2 SLOAD DUP2 DUP10 ADD MSTORE PUSH1 0x1 DUP3 ADD SWAP2 POP PUSH1 0x20 DUP2 ADD SWAP1 POP PUSH2 0x1825 JUMP JUMPDEST DUP4 DUP9 ADD SWAP6 POP POP POP JUMPDEST POP POP POP SWAP3 SWAP2 POP POP JUMP JUMPDEST PUSH1 0x0 PUSH2 0x1861 DUP3 DUP5 PUSH2 0x17D2 JUMP JUMPDEST SWAP2 POP DUP2 SWAP1 POP SWAP3 SWAP2 POP POP JUMP JUMPDEST PUSH1 0x0 PUSH1 0xFF DUP3 AND SWAP1 POP SWAP2 SWAP1 POP JUMP JUMPDEST PUSH32 0x4E487B7100000000000000000000000000000000000000000000000000000000 PUSH1 0x0 MSTORE PUSH1 0x11 PUSH1 0x4 MSTORE PUSH1 0x24 PUSH1 0x0 REVERT JUMPDEST PUSH1 0x0 PUSH2 0x18B3 DUP3 PUSH2 0x186C JUMP JUMPDEST SWAP2 POP PUSH2 0x18BE DUP4 PUSH2 0x186C JUMP JUMPDEST SWAP3 POP DUP3 DUP3 SUB SWAP1 POP PUSH1 0xFF DUP2 GT ISZERO PUSH2 0x18D7 JUMPI PUSH2 0x18D6 PUSH2 0x1879 JUMP JUMPDEST JUMPDEST SWAP3 SWAP2 POP POP JUMP INVALID LOG2 PUSH5 0x6970667358 0x22 SLT KECCAK256 0xFC CREATE XOR 0x2C 0x29 0xEA DUP8 PUSH28 0x2DE18E901E6227A544A5EE44638BE4856E2D28E0702B7E7464736F6C PUSH4 0x43000816 STOP CALLER "
				},
				"gasEstimates": {
					"creation": {
						"codeDepositCost": "1283800",
						"executionCost": "1335",
						"totalCost": "1285135"
					},
					"external": {
						"converter(string)": "infinite",
						"getStakingAndBuyingTokenPrices()": "infinite",
						"isPythia(address)": "2934",
						"price(string)": "infinite",
						"setEGCUSDTicker(string)": "infinite",
						"setNairaUSDTicker(string)": "infinite",
						"setPythia(address)": "infinite",
						"suspendPythia(address)": "infinite",
						"updateTickerPrices(uint256[],string[])": "infinite"
					},
					"internal": {
						"_upper(bytes1)": "infinite",
						"upper(string memory)": "infinite"
					}
				},
				"methodIdentifiers": {
					"converter(string)": "94a72f1c",
					"getStakingAndBuyingTokenPrices()": "fc3a49e0",
					"isPythia(address)": "658bdb2e",
					"price(string)": "fe2c6198",
					"setEGCUSDTicker(string)": "832427da",
					"setNairaUSDTicker(string)": "267561c8",
					"setPythia(address)": "b55bfc6f",
					"suspendPythia(address)": "5c60896d",
					"updateTickerPrices(uint256[],string[])": "734bc659"
				}
			},
			"storageLayout": {
				"storage": [
					{
						"astId": 249,
						"contract": "Desktop/development/smart contract/SwapCryptoLoanUpdate/contracts/facets/PriceOracleFacet.sol:PriceOracleFacet",
						"label": "s",
						"offset": 0,
						"slot": "0",
						"type": "t_struct(AppStorage)241_storage"
					}
				],
				"types": {
					"t_address": {
						"encoding": "inplace",
						"label": "address",
						"numberOfBytes": "20"
					},
					"t_array(t_address)dyn_storage": {
						"base": "t_address",
						"encoding": "dynamic_array",
						"label": "address[]",
						"numberOfBytes": "32"
					},
					"t_bool": {
						"encoding": "inplace",
						"label": "bool",
						"numberOfBytes": "1"
					},
					"t_bytes_memory_ptr": {
						"encoding": "bytes",
						"label": "bytes",
						"numberOfBytes": "32"
					},
					"t_bytes_storage": {
						"encoding": "bytes",
						"label": "bytes",
						"numberOfBytes": "32"
					},
					"t_mapping(t_address,t_address)": {
						"encoding": "mapping",
						"key": "t_address",
						"label": "mapping(address => address)",
						"numberOfBytes": "32",
						"value": "t_address"
					},
					"t_mapping(t_address,t_array(t_address)dyn_storage)": {
						"encoding": "mapping",
						"key": "t_address",
						"label": "mapping(address => address[])",
						"numberOfBytes": "32",
						"value": "t_array(t_address)dyn_storage"
					},
					"t_mapping(t_address,t_bool)": {
						"encoding": "mapping",
						"key": "t_address",
						"label": "mapping(address => bool)",
						"numberOfBytes": "32",
						"value": "t_bool"
					},
					"t_mapping(t_address,t_bytes_storage)": {
						"encoding": "mapping",
						"key": "t_address",
						"label": "mapping(address => bytes)",
						"numberOfBytes": "32",
						"value": "t_bytes_storage"
					},
					"t_mapping(t_address,t_mapping(t_bool,t_uint256))": {
						"encoding": "mapping",
						"key": "t_address",
						"label": "mapping(address => mapping(bool => uint256))",
						"numberOfBytes": "32",
						"value": "t_mapping(t_bool,t_uint256)"
					},
					"t_mapping(t_address,t_mapping(t_uint256,t_bool))": {
						"encoding": "mapping",
						"key": "t_address",
						"label": "mapping(address => mapping(uint256 => bool))",
						"numberOfBytes": "32",
						"value": "t_mapping(t_uint256,t_bool)"
					},
					"t_mapping(t_address,t_uint256)": {
						"encoding": "mapping",
						"key": "t_address",
						"label": "mapping(address => uint256)",
						"numberOfBytes": "32",
						"value": "t_uint256"
					},
					"t_mapping(t_bool,t_uint256)": {
						"encoding": "mapping",
						"key": "t_bool",
						"label": "mapping(bool => uint256)",
						"numberOfBytes": "32",
						"value": "t_uint256"
					},
					"t_mapping(t_bytes_memory_ptr,t_address)": {
						"encoding": "mapping",
						"key": "t_bytes_memory_ptr",
						"label": "mapping(bytes => address)",
						"numberOfBytes": "32",
						"value": "t_address"
					},
					"t_mapping(t_bytes_memory_ptr,t_bool)": {
						"encoding": "mapping",
						"key": "t_bytes_memory_ptr",
						"label": "mapping(bytes => bool)",
						"numberOfBytes": "32",
						"value": "t_bool"
					},
					"t_mapping(t_bytes_memory_ptr,t_mapping(t_address,t_uint256))": {
						"encoding": "mapping",
						"key": "t_bytes_memory_ptr",
						"label": "mapping(bytes => mapping(address => uint256))",
						"numberOfBytes": "32",
						"value": "t_mapping(t_address,t_uint256)"
					},
					"t_mapping(t_bytes_memory_ptr,t_uint256)": {
						"encoding": "mapping",
						"key": "t_bytes_memory_ptr",
						"label": "mapping(bytes => uint256)",
						"numberOfBytes": "32",
						"value": "t_uint256"
					},
					"t_mapping(t_uint256,t_address)": {
						"encoding": "mapping",
						"key": "t_uint256",
						"label": "mapping(uint256 => address)",
						"numberOfBytes": "32",
						"value": "t_address"
					},
					"t_mapping(t_uint256,t_bool)": {
						"encoding": "mapping",
						"key": "t_uint256",
						"label": "mapping(uint256 => bool)",
						"numberOfBytes": "32",
						"value": "t_bool"
					},
					"t_mapping(t_uint256,t_mapping(t_address,t_bool))": {
						"encoding": "mapping",
						"key": "t_uint256",
						"label": "mapping(uint256 => mapping(address => bool))",
						"numberOfBytes": "32",
						"value": "t_mapping(t_address,t_bool)"
					},
					"t_mapping(t_uint256,t_mapping(t_address,t_uint256))": {
						"encoding": "mapping",
						"key": "t_uint256",
						"label": "mapping(uint256 => mapping(address => uint256))",
						"numberOfBytes": "32",
						"value": "t_mapping(t_address,t_uint256)"
					},
					"t_mapping(t_uint256,t_mapping(t_uint256,t_address))": {
						"encoding": "mapping",
						"key": "t_uint256",
						"label": "mapping(uint256 => mapping(uint256 => address))",
						"numberOfBytes": "32",
						"value": "t_mapping(t_uint256,t_address)"
					},
					"t_mapping(t_uint256,t_mapping(t_uint256,t_uint256))": {
						"encoding": "mapping",
						"key": "t_uint256",
						"label": "mapping(uint256 => mapping(uint256 => uint256))",
						"numberOfBytes": "32",
						"value": "t_mapping(t_uint256,t_uint256)"
					},
					"t_mapping(t_uint256,t_uint256)": {
						"encoding": "mapping",
						"key": "t_uint256",
						"label": "mapping(uint256 => uint256)",
						"numberOfBytes": "32",
						"value": "t_uint256"
					},
					"t_struct(AppStorage)241_storage": {
						"encoding": "inplace",
						"label": "struct AppStorage",
						"members": [
							{
								"astId": 5,
								"contract": "Desktop/development/smart contract/SwapCryptoLoanUpdate/contracts/facets/PriceOracleFacet.sol:PriceOracleFacet",
								"label": "ticker",
								"offset": 0,
								"slot": "0",
								"type": "t_mapping(t_bytes_memory_ptr,t_uint256)"
							},
							{
								"astId": 9,
								"contract": "Desktop/development/smart contract/SwapCryptoLoanUpdate/contracts/facets/PriceOracleFacet.sol:PriceOracleFacet",
								"label": "pythia",
								"offset": 0,
								"slot": "1",
								"type": "t_mapping(t_address,t_bool)"
							},
							{
								"astId": 14,
								"contract": "Desktop/development/smart contract/SwapCryptoLoanUpdate/contracts/facets/PriceOracleFacet.sol:PriceOracleFacet",
								"label": "myReferrals",
								"offset": 0,
								"slot": "2",
								"type": "t_mapping(t_address,t_array(t_address)dyn_storage)"
							},
							{
								"astId": 18,
								"contract": "Desktop/development/smart contract/SwapCryptoLoanUpdate/contracts/facets/PriceOracleFacet.sol:PriceOracleFacet",
								"label": "staffId",
								"offset": 0,
								"slot": "3",
								"type": "t_mapping(t_address,t_uint256)"
							},
							{
								"astId": 20,
								"contract": "Desktop/development/smart contract/SwapCryptoLoanUpdate/contracts/facets/PriceOracleFacet.sol:PriceOracleFacet",
								"label": "eusdAddr",
								"offset": 0,
								"slot": "4",
								"type": "t_address"
							},
							{
								"astId": 22,
								"contract": "Desktop/development/smart contract/SwapCryptoLoanUpdate/contracts/facets/PriceOracleFacet.sol:PriceOracleFacet",
								"label": "egcAddr",
								"offset": 0,
								"slot": "5",
								"type": "t_address"
							},
							{
								"astId": 24,
								"contract": "Desktop/development/smart contract/SwapCryptoLoanUpdate/contracts/facets/PriceOracleFacet.sol:PriceOracleFacet",
								"label": "egcusd",
								"offset": 0,
								"slot": "6",
								"type": "t_bytes_storage"
							},
							{
								"astId": 28,
								"contract": "Desktop/development/smart contract/SwapCryptoLoanUpdate/contracts/facets/PriceOracleFacet.sol:PriceOracleFacet",
								"label": "member",
								"offset": 0,
								"slot": "7",
								"type": "t_mapping(t_address,t_bool)"
							},
							{
								"astId": 32,
								"contract": "Desktop/development/smart contract/SwapCryptoLoanUpdate/contracts/facets/PriceOracleFacet.sol:PriceOracleFacet",
								"label": "plan",
								"offset": 0,
								"slot": "8",
								"type": "t_mapping(t_uint256,t_uint256)"
							},
							{
								"astId": 36,
								"contract": "Desktop/development/smart contract/SwapCryptoLoanUpdate/contracts/facets/PriceOracleFacet.sol:PriceOracleFacet",
								"label": "stakingPlan",
								"offset": 0,
								"slot": "9",
								"type": "t_mapping(t_uint256,t_uint256)"
							},
							{
								"astId": 40,
								"contract": "Desktop/development/smart contract/SwapCryptoLoanUpdate/contracts/facets/PriceOracleFacet.sol:PriceOracleFacet",
								"label": "expiryDate",
								"offset": 0,
								"slot": "10",
								"type": "t_mapping(t_address,t_uint256)"
							},
							{
								"astId": 44,
								"contract": "Desktop/development/smart contract/SwapCryptoLoanUpdate/contracts/facets/PriceOracleFacet.sol:PriceOracleFacet",
								"label": "userTotalStake",
								"offset": 0,
								"slot": "11",
								"type": "t_mapping(t_address,t_uint256)"
							},
							{
								"astId": 48,
								"contract": "Desktop/development/smart contract/SwapCryptoLoanUpdate/contracts/facets/PriceOracleFacet.sol:PriceOracleFacet",
								"label": "userTotalStakeUsd",
								"offset": 0,
								"slot": "12",
								"type": "t_mapping(t_address,t_uint256)"
							},
							{
								"astId": 52,
								"contract": "Desktop/development/smart contract/SwapCryptoLoanUpdate/contracts/facets/PriceOracleFacet.sol:PriceOracleFacet",
								"label": "dailyRoyalty",
								"offset": 0,
								"slot": "13",
								"type": "t_mapping(t_address,t_uint256)"
							},
							{
								"astId": 56,
								"contract": "Desktop/development/smart contract/SwapCryptoLoanUpdate/contracts/facets/PriceOracleFacet.sol:PriceOracleFacet",
								"label": "lockPeriod",
								"offset": 0,
								"slot": "14",
								"type": "t_mapping(t_address,t_uint256)"
							},
							{
								"astId": 60,
								"contract": "Desktop/development/smart contract/SwapCryptoLoanUpdate/contracts/facets/PriceOracleFacet.sol:PriceOracleFacet",
								"label": "nextRoyaltyTakePeriod",
								"offset": 0,
								"slot": "15",
								"type": "t_mapping(t_address,t_uint256)"
							},
							{
								"astId": 64,
								"contract": "Desktop/development/smart contract/SwapCryptoLoanUpdate/contracts/facets/PriceOracleFacet.sol:PriceOracleFacet",
								"label": "totalRoyaltyTaken",
								"offset": 0,
								"slot": "16",
								"type": "t_mapping(t_address,t_uint256)"
							},
							{
								"astId": 70,
								"contract": "Desktop/development/smart contract/SwapCryptoLoanUpdate/contracts/facets/PriceOracleFacet.sol:PriceOracleFacet",
								"label": "userTotalSwap",
								"offset": 0,
								"slot": "17",
								"type": "t_mapping(t_address,t_mapping(t_bool,t_uint256))"
							},
							{
								"astId": 74,
								"contract": "Desktop/development/smart contract/SwapCryptoLoanUpdate/contracts/facets/PriceOracleFacet.sol:PriceOracleFacet",
								"label": "totalSwap",
								"offset": 0,
								"slot": "18",
								"type": "t_mapping(t_bool,t_uint256)"
							},
							{
								"astId": 76,
								"contract": "Desktop/development/smart contract/SwapCryptoLoanUpdate/contracts/facets/PriceOracleFacet.sol:PriceOracleFacet",
								"label": "_priceOracle",
								"offset": 0,
								"slot": "19",
								"type": "t_address"
							},
							{
								"astId": 78,
								"contract": "Desktop/development/smart contract/SwapCryptoLoanUpdate/contracts/facets/PriceOracleFacet.sol:PriceOracleFacet",
								"label": "_price",
								"offset": 0,
								"slot": "20",
								"type": "t_bytes_storage"
							},
							{
								"astId": 80,
								"contract": "Desktop/development/smart contract/SwapCryptoLoanUpdate/contracts/facets/PriceOracleFacet.sol:PriceOracleFacet",
								"label": "nextSpillIndex",
								"offset": 0,
								"slot": "21",
								"type": "t_uint256"
							},
							{
								"astId": 84,
								"contract": "Desktop/development/smart contract/SwapCryptoLoanUpdate/contracts/facets/PriceOracleFacet.sol:PriceOracleFacet",
								"label": "referredBy",
								"offset": 0,
								"slot": "22",
								"type": "t_mapping(t_address,t_address)"
							},
							{
								"astId": 88,
								"contract": "Desktop/development/smart contract/SwapCryptoLoanUpdate/contracts/facets/PriceOracleFacet.sol:PriceOracleFacet",
								"label": "referralRewardBalance",
								"offset": 0,
								"slot": "23",
								"type": "t_mapping(t_address,t_uint256)"
							},
							{
								"astId": 92,
								"contract": "Desktop/development/smart contract/SwapCryptoLoanUpdate/contracts/facets/PriceOracleFacet.sol:PriceOracleFacet",
								"label": "referralCount",
								"offset": 0,
								"slot": "24",
								"type": "t_mapping(t_address,t_uint256)"
							},
							{
								"astId": 96,
								"contract": "Desktop/development/smart contract/SwapCryptoLoanUpdate/contracts/facets/PriceOracleFacet.sol:PriceOracleFacet",
								"label": "alreadyMember",
								"offset": 0,
								"slot": "25",
								"type": "t_mapping(t_address,t_bool)"
							},
							{
								"astId": 98,
								"contract": "Desktop/development/smart contract/SwapCryptoLoanUpdate/contracts/facets/PriceOracleFacet.sol:PriceOracleFacet",
								"label": "referralBurnBalance",
								"offset": 0,
								"slot": "26",
								"type": "t_uint256"
							},
							{
								"astId": 102,
								"contract": "Desktop/development/smart contract/SwapCryptoLoanUpdate/contracts/facets/PriceOracleFacet.sol:PriceOracleFacet",
								"label": "referralLink",
								"offset": 0,
								"slot": "27",
								"type": "t_mapping(t_address,t_bytes_storage)"
							},
							{
								"astId": 106,
								"contract": "Desktop/development/smart contract/SwapCryptoLoanUpdate/contracts/facets/PriceOracleFacet.sol:PriceOracleFacet",
								"label": "referralAddress",
								"offset": 0,
								"slot": "28",
								"type": "t_mapping(t_bytes_memory_ptr,t_address)"
							},
							{
								"astId": 110,
								"contract": "Desktop/development/smart contract/SwapCryptoLoanUpdate/contracts/facets/PriceOracleFacet.sol:PriceOracleFacet",
								"label": "token_address",
								"offset": 0,
								"slot": "29",
								"type": "t_mapping(t_bytes_memory_ptr,t_address)"
							},
							{
								"astId": 114,
								"contract": "Desktop/development/smart contract/SwapCryptoLoanUpdate/contracts/facets/PriceOracleFacet.sol:PriceOracleFacet",
								"label": "fee",
								"offset": 0,
								"slot": "30",
								"type": "t_mapping(t_bytes_memory_ptr,t_uint256)"
							},
							{
								"astId": 118,
								"contract": "Desktop/development/smart contract/SwapCryptoLoanUpdate/contracts/facets/PriceOracleFacet.sol:PriceOracleFacet",
								"label": "isListed",
								"offset": 0,
								"slot": "31",
								"type": "t_mapping(t_bytes_memory_ptr,t_bool)"
							},
							{
								"astId": 124,
								"contract": "Desktop/development/smart contract/SwapCryptoLoanUpdate/contracts/facets/PriceOracleFacet.sol:PriceOracleFacet",
								"label": "liquidity",
								"offset": 0,
								"slot": "32",
								"type": "t_mapping(t_bytes_memory_ptr,t_mapping(t_address,t_uint256))"
							},
							{
								"astId": 130,
								"contract": "Desktop/development/smart contract/SwapCryptoLoanUpdate/contracts/facets/PriceOracleFacet.sol:PriceOracleFacet",
								"label": "soldProductAmount",
								"offset": 0,
								"slot": "33",
								"type": "t_mapping(t_uint256,t_mapping(t_uint256,t_uint256))"
							},
							{
								"astId": 136,
								"contract": "Desktop/development/smart contract/SwapCryptoLoanUpdate/contracts/facets/PriceOracleFacet.sol:PriceOracleFacet",
								"label": "soldProductBuyer",
								"offset": 0,
								"slot": "34",
								"type": "t_mapping(t_uint256,t_mapping(t_uint256,t_address))"
							},
							{
								"astId": 138,
								"contract": "Desktop/development/smart contract/SwapCryptoLoanUpdate/contracts/facets/PriceOracleFacet.sol:PriceOracleFacet",
								"label": "totalStake",
								"offset": 0,
								"slot": "35",
								"type": "t_uint256"
							},
							{
								"astId": 140,
								"contract": "Desktop/development/smart contract/SwapCryptoLoanUpdate/contracts/facets/PriceOracleFacet.sol:PriceOracleFacet",
								"label": "totalPenaltyStake",
								"offset": 0,
								"slot": "36",
								"type": "t_uint256"
							},
							{
								"astId": 142,
								"contract": "Desktop/development/smart contract/SwapCryptoLoanUpdate/contracts/facets/PriceOracleFacet.sol:PriceOracleFacet",
								"label": "totalUnStake",
								"offset": 0,
								"slot": "37",
								"type": "t_uint256"
							},
							{
								"astId": 144,
								"contract": "Desktop/development/smart contract/SwapCryptoLoanUpdate/contracts/facets/PriceOracleFacet.sol:PriceOracleFacet",
								"label": "initProductCount",
								"offset": 0,
								"slot": "38",
								"type": "t_uint256"
							},
							{
								"astId": 150,
								"contract": "Desktop/development/smart contract/SwapCryptoLoanUpdate/contracts/facets/PriceOracleFacet.sol:PriceOracleFacet",
								"label": "userActivity",
								"offset": 0,
								"slot": "39",
								"type": "t_mapping(t_uint256,t_mapping(t_address,t_uint256))"
							},
							{
								"astId": 154,
								"contract": "Desktop/development/smart contract/SwapCryptoLoanUpdate/contracts/facets/PriceOracleFacet.sol:PriceOracleFacet",
								"label": "allUserActivity",
								"offset": 0,
								"slot": "40",
								"type": "t_mapping(t_address,t_uint256)"
							},
							{
								"astId": 158,
								"contract": "Desktop/development/smart contract/SwapCryptoLoanUpdate/contracts/facets/PriceOracleFacet.sol:PriceOracleFacet",
								"label": "currentAllActivity",
								"offset": 0,
								"slot": "41",
								"type": "t_mapping(t_uint256,t_uint256)"
							},
							{
								"astId": 160,
								"contract": "Desktop/development/smart contract/SwapCryptoLoanUpdate/contracts/facets/PriceOracleFacet.sol:PriceOracleFacet",
								"label": "allActivity",
								"offset": 0,
								"slot": "42",
								"type": "t_uint256"
							},
							{
								"astId": 162,
								"contract": "Desktop/development/smart contract/SwapCryptoLoanUpdate/contracts/facets/PriceOracleFacet.sol:PriceOracleFacet",
								"label": "rewardPeriod",
								"offset": 0,
								"slot": "43",
								"type": "t_uint256"
							},
							{
								"astId": 164,
								"contract": "Desktop/development/smart contract/SwapCryptoLoanUpdate/contracts/facets/PriceOracleFacet.sol:PriceOracleFacet",
								"label": "nextRewardPeriod",
								"offset": 0,
								"slot": "44",
								"type": "t_uint256"
							},
							{
								"astId": 170,
								"contract": "Desktop/development/smart contract/SwapCryptoLoanUpdate/contracts/facets/PriceOracleFacet.sol:PriceOracleFacet",
								"label": "currentPerfomers",
								"offset": 0,
								"slot": "45",
								"type": "t_mapping(t_uint256,t_mapping(t_address,t_bool))"
							},
							{
								"astId": 172,
								"contract": "Desktop/development/smart contract/SwapCryptoLoanUpdate/contracts/facets/PriceOracleFacet.sol:PriceOracleFacet",
								"label": "totalRewardTokenRemaining",
								"offset": 0,
								"slot": "46",
								"type": "t_uint256"
							},
							{
								"astId": 174,
								"contract": "Desktop/development/smart contract/SwapCryptoLoanUpdate/contracts/facets/PriceOracleFacet.sol:PriceOracleFacet",
								"label": "totalRewardDistributed",
								"offset": 0,
								"slot": "47",
								"type": "t_uint256"
							},
							{
								"astId": 178,
								"contract": "Desktop/development/smart contract/SwapCryptoLoanUpdate/contracts/facets/PriceOracleFacet.sol:PriceOracleFacet",
								"label": "userTotalRewardRecieved",
								"offset": 0,
								"slot": "48",
								"type": "t_mapping(t_address,t_uint256)"
							},
							{
								"astId": 182,
								"contract": "Desktop/development/smart contract/SwapCryptoLoanUpdate/contracts/facets/PriceOracleFacet.sol:PriceOracleFacet",
								"label": "lockedRewardForStaking",
								"offset": 0,
								"slot": "49",
								"type": "t_mapping(t_address,t_uint256)"
							},
							{
								"astId": 184,
								"contract": "Desktop/development/smart contract/SwapCryptoLoanUpdate/contracts/facets/PriceOracleFacet.sol:PriceOracleFacet",
								"label": "stakingPlanForSixMonths",
								"offset": 0,
								"slot": "50",
								"type": "t_uint256"
							},
							{
								"astId": 188,
								"contract": "Desktop/development/smart contract/SwapCryptoLoanUpdate/contracts/facets/PriceOracleFacet.sol:PriceOracleFacet",
								"label": "dealersPlan",
								"offset": 0,
								"slot": "51",
								"type": "t_mapping(t_uint256,t_uint256)"
							},
							{
								"astId": 190,
								"contract": "Desktop/development/smart contract/SwapCryptoLoanUpdate/contracts/facets/PriceOracleFacet.sol:PriceOracleFacet",
								"label": "_token_addres",
								"offset": 0,
								"slot": "52",
								"type": "t_address"
							},
							{
								"astId": 194,
								"contract": "Desktop/development/smart contract/SwapCryptoLoanUpdate/contracts/facets/PriceOracleFacet.sol:PriceOracleFacet",
								"label": "dealerExpiryDate",
								"offset": 0,
								"slot": "53",
								"type": "t_mapping(t_address,t_uint256)"
							},
							{
								"astId": 198,
								"contract": "Desktop/development/smart contract/SwapCryptoLoanUpdate/contracts/facets/PriceOracleFacet.sol:PriceOracleFacet",
								"label": "isADealer",
								"offset": 0,
								"slot": "54",
								"type": "t_mapping(t_address,t_bool)"
							},
							{
								"astId": 202,
								"contract": "Desktop/development/smart contract/SwapCryptoLoanUpdate/contracts/facets/PriceOracleFacet.sol:PriceOracleFacet",
								"label": "dealerPlan",
								"offset": 0,
								"slot": "55",
								"type": "t_mapping(t_address,t_uint256)"
							},
							{
								"astId": 204,
								"contract": "Desktop/development/smart contract/SwapCryptoLoanUpdate/contracts/facets/PriceOracleFacet.sol:PriceOracleFacet",
								"label": "dealerSubcriptionCollector",
								"offset": 0,
								"slot": "56",
								"type": "t_address"
							},
							{
								"astId": 208,
								"contract": "Desktop/development/smart contract/SwapCryptoLoanUpdate/contracts/facets/PriceOracleFacet.sol:PriceOracleFacet",
								"label": "referralDealerRewardBalance",
								"offset": 0,
								"slot": "57",
								"type": "t_mapping(t_address,t_uint256)"
							},
							{
								"astId": 210,
								"contract": "Desktop/development/smart contract/SwapCryptoLoanUpdate/contracts/facets/PriceOracleFacet.sol:PriceOracleFacet",
								"label": "dealerSubcriptionCollectorBalance",
								"offset": 0,
								"slot": "58",
								"type": "t_uint256"
							},
							{
								"astId": 214,
								"contract": "Desktop/development/smart contract/SwapCryptoLoanUpdate/contracts/facets/PriceOracleFacet.sol:PriceOracleFacet",
								"label": "deallerReferredBy",
								"offset": 0,
								"slot": "59",
								"type": "t_mapping(t_address,t_address)"
							},
							{
								"astId": 218,
								"contract": "Desktop/development/smart contract/SwapCryptoLoanUpdate/contracts/facets/PriceOracleFacet.sol:PriceOracleFacet",
								"label": "deallerReferralCount",
								"offset": 0,
								"slot": "60",
								"type": "t_mapping(t_address,t_uint256)"
							},
							{
								"astId": 220,
								"contract": "Desktop/development/smart contract/SwapCryptoLoanUpdate/contracts/facets/PriceOracleFacet.sol:PriceOracleFacet",
								"label": "naira",
								"offset": 0,
								"slot": "61",
								"type": "t_bytes_storage"
							},
							{
								"astId": 222,
								"contract": "Desktop/development/smart contract/SwapCryptoLoanUpdate/contracts/facets/PriceOracleFacet.sol:PriceOracleFacet",
								"label": "totalProcurementAmount",
								"offset": 0,
								"slot": "62",
								"type": "t_uint256"
							},
							{
								"astId": 226,
								"contract": "Desktop/development/smart contract/SwapCryptoLoanUpdate/contracts/facets/PriceOracleFacet.sol:PriceOracleFacet",
								"label": "yesVotes",
								"offset": 0,
								"slot": "63",
								"type": "t_mapping(t_uint256,t_uint256)"
							},
							{
								"astId": 230,
								"contract": "Desktop/development/smart contract/SwapCryptoLoanUpdate/contracts/facets/PriceOracleFacet.sol:PriceOracleFacet",
								"label": "noVotes",
								"offset": 0,
								"slot": "64",
								"type": "t_mapping(t_uint256,t_uint256)"
							},
							{
								"astId": 234,
								"contract": "Desktop/development/smart contract/SwapCryptoLoanUpdate/contracts/facets/PriceOracleFacet.sol:PriceOracleFacet",
								"label": "vottingPeriod",
								"offset": 0,
								"slot": "65",
								"type": "t_mapping(t_uint256,t_uint256)"
							},
							{
								"astId": 240,
								"contract": "Desktop/development/smart contract/SwapCryptoLoanUpdate/contracts/facets/PriceOracleFacet.sol:PriceOracleFacet",
								"label": "hasVoted",
								"offset": 0,
								"slot": "66",
								"type": "t_mapping(t_address,t_mapping(t_uint256,t_bool))"
							}
						],
						"numberOfBytes": "2144"
					},
					"t_uint256": {
						"encoding": "inplace",
						"label": "uint256",
						"numberOfBytes": "32"
					}
				}
			},
			"userdoc": {
				"kind": "user",
				"methods": {},
				"version": 1
			}
		}
	}
}