{
	"smart contract/SwapCryptoLoanUpdate/contracts/extensions/Ownable.sol": {
		"Ownable": {
			"abi": [
				{
					"inputs": [],
					"stateMutability": "nonpayable",
					"type": "constructor"
				},
				{
					"anonymous": false,
					"inputs": [
						{
							"indexed": true,
							"internalType": "address",
							"name": "previousOwner",
							"type": "address"
						},
						{
							"indexed": true,
							"internalType": "address",
							"name": "newOwner",
							"type": "address"
						}
					],
					"name": "OwnershipTransferred",
					"type": "event"
				},
				{
					"inputs": [],
					"name": "isOwner",
					"outputs": [
						{
							"internalType": "bool",
							"name": "",
							"type": "bool"
						}
					],
					"stateMutability": "view",
					"type": "function"
				},
				{
					"inputs": [],
					"name": "owner",
					"outputs": [
						{
							"internalType": "address",
							"name": "",
							"type": "address"
						}
					],
					"stateMutability": "view",
					"type": "function"
				},
				{
					"inputs": [],
					"name": "renounceOwnership",
					"outputs": [],
					"stateMutability": "nonpayable",
					"type": "function"
				},
				{
					"inputs": [
						{
							"internalType": "address",
							"name": "newOwner",
							"type": "address"
						}
					],
					"name": "transferOwnership",
					"outputs": [],
					"stateMutability": "nonpayable",
					"type": "function"
				}
			],
			"devdoc": {
				"kind": "dev",
				"methods": {
					"constructor": {
						"details": "Initializes the contract setting the deployer as the initial owner."
					},
					"isOwner()": {
						"details": "Returns true if the caller is the current owner."
					},
					"owner()": {
						"details": "Returns the address of the current owner."
					},
					"renounceOwnership()": {
						"details": "Leaves the contract without owner. It will not be possible to call `onlyOwner` functions anymore. Can only be called by the current owner. > Note: Renouncing ownership will leave the contract without an owner, thereby removing any functionality that is only available to the owner."
					},
					"transferOwnership(address)": {
						"details": "Transfers ownership of the contract to a new account (`newOwner`). Can only be called by the current owner."
					}
				},
				"version": 1
			},
			"evm": {
				"assembly": "    /* \"smart contract/SwapCryptoLoanUpdate/contracts/extensions/Ownable.sol\":58:2045  contract Ownable {... */\n  mstore(0x40, 0x80)\n    /* \"smart contract/SwapCryptoLoanUpdate/contracts/extensions/Ownable.sol\":318:423  constructor() {... */\n  callvalue\n  dup1\n  iszero\n  tag_1\n  jumpi\n  0x00\n  dup1\n  revert\ntag_1:\n  pop\n    /* \"smart contract/SwapCryptoLoanUpdate/contracts/extensions/Ownable.sol\":351:361  msg.sender */\n  caller\n    /* \"smart contract/SwapCryptoLoanUpdate/contracts/extensions/Ownable.sol\":342:348  _owner */\n  0x00\n  dup1\n    /* \"smart contract/SwapCryptoLoanUpdate/contracts/extensions/Ownable.sol\":342:361  _owner = msg.sender */\n  0x0100\n  exp\n  dup2\n  sload\n  dup2\n  0xffffffffffffffffffffffffffffffffffffffff\n  mul\n  not\n  and\n  swap1\n  dup4\n  0xffffffffffffffffffffffffffffffffffffffff\n  and\n  mul\n  or\n  swap1\n  sstore\n  pop\n    /* \"smart contract/SwapCryptoLoanUpdate/contracts/extensions/Ownable.sol\":409:415  _owner */\n  0x00\n  dup1\n  sload\n  swap1\n  0x0100\n  exp\n  swap1\n  div\n  0xffffffffffffffffffffffffffffffffffffffff\n  and\n    /* \"smart contract/SwapCryptoLoanUpdate/contracts/extensions/Ownable.sol\":376:416  OwnershipTransferred(address(0), _owner) */\n  0xffffffffffffffffffffffffffffffffffffffff\n  and\n    /* \"smart contract/SwapCryptoLoanUpdate/contracts/extensions/Ownable.sol\":405:406  0 */\n  0x00\n    /* \"smart contract/SwapCryptoLoanUpdate/contracts/extensions/Ownable.sol\":376:416  OwnershipTransferred(address(0), _owner) */\n  0xffffffffffffffffffffffffffffffffffffffff\n  and\n  0x8be0079c531659141344cd1fd0a4f28419497f9722a3daafe3b4186f6b6457e0\n  mload(0x40)\n  mload(0x40)\n  dup1\n  swap2\n  sub\n  swap1\n  log3\n    /* \"smart contract/SwapCryptoLoanUpdate/contracts/extensions/Ownable.sol\":58:2045  contract Ownable {... */\n  dataSize(sub_0)\n  dup1\n  dataOffset(sub_0)\n  0x00\n  codecopy\n  0x00\n  return\nstop\n\nsub_0: assembly {\n        /* \"smart contract/SwapCryptoLoanUpdate/contracts/extensions/Ownable.sol\":58:2045  contract Ownable {... */\n      mstore(0x40, 0x80)\n      callvalue\n      dup1\n      iszero\n      tag_1\n      jumpi\n      0x00\n      dup1\n      revert\n    tag_1:\n      pop\n      jumpi(tag_2, lt(calldatasize, 0x04))\n      shr(0xe0, calldataload(0x00))\n      dup1\n      0x715018a6\n      eq\n      tag_3\n      jumpi\n      dup1\n      0x8da5cb5b\n      eq\n      tag_4\n      jumpi\n      dup1\n      0x8f32d59b\n      eq\n      tag_5\n      jumpi\n      dup1\n      0xf2fde38b\n      eq\n      tag_6\n      jumpi\n    tag_2:\n      0x00\n      dup1\n      revert\n        /* \"smart contract/SwapCryptoLoanUpdate/contracts/extensions/Ownable.sol\":1286:1425  function renounceOwnership() external onlyOwner {... */\n    tag_3:\n      tag_7\n      tag_8\n      jump\t// in\n    tag_7:\n      stop\n        /* \"smart contract/SwapCryptoLoanUpdate/contracts/extensions/Ownable.sol\":499:578  function owner() external view returns (address) {... */\n    tag_4:\n      tag_9\n      tag_10\n      jump\t// in\n    tag_9:\n      mload(0x40)\n      tag_11\n      swap2\n      swap1\n      tag_12\n      jump\t// in\n    tag_11:\n      mload(0x40)\n      dup1\n      swap2\n      sub\n      swap1\n      return\n        /* \"smart contract/SwapCryptoLoanUpdate/contracts/extensions/Ownable.sol\":852:942  function isOwner() public view returns (bool) {... */\n    tag_5:\n      tag_13\n      tag_14\n      jump\t// in\n    tag_13:\n      mload(0x40)\n      tag_15\n      swap2\n      swap1\n      tag_16\n      jump\t// in\n    tag_15:\n      mload(0x40)\n      dup1\n      swap2\n      sub\n      swap1\n      return\n        /* \"smart contract/SwapCryptoLoanUpdate/contracts/extensions/Ownable.sol\":1574:1683  function transferOwnership(address newOwner) external onlyOwner {... */\n    tag_6:\n      tag_17\n      0x04\n      dup1\n      calldatasize\n      sub\n      dup2\n      add\n      swap1\n      tag_18\n      swap2\n      swap1\n      tag_19\n      jump\t// in\n    tag_18:\n      tag_20\n      jump\t// in\n    tag_17:\n      stop\n        /* \"smart contract/SwapCryptoLoanUpdate/contracts/extensions/Ownable.sol\":1286:1425  function renounceOwnership() external onlyOwner {... */\n    tag_8:\n        /* \"smart contract/SwapCryptoLoanUpdate/contracts/extensions/Ownable.sol\":705:714  isOwner() */\n      tag_22\n        /* \"smart contract/SwapCryptoLoanUpdate/contracts/extensions/Ownable.sol\":705:712  isOwner */\n      tag_14\n        /* \"smart contract/SwapCryptoLoanUpdate/contracts/extensions/Ownable.sol\":705:714  isOwner() */\n      jump\t// in\n    tag_22:\n        /* \"smart contract/SwapCryptoLoanUpdate/contracts/extensions/Ownable.sol\":697:751  require(isOwner(), \"Ownable: caller is not the owner\") */\n      tag_23\n      jumpi\n      mload(0x40)\n      0x08c379a000000000000000000000000000000000000000000000000000000000\n      dup2\n      mstore\n      0x04\n      add\n      tag_24\n      swap1\n      tag_25\n      jump\t// in\n    tag_24:\n      mload(0x40)\n      dup1\n      swap2\n      sub\n      swap1\n      revert\n    tag_23:\n        /* \"smart contract/SwapCryptoLoanUpdate/contracts/extensions/Ownable.sol\":1386:1387  0 */\n      0x00\n        /* \"smart contract/SwapCryptoLoanUpdate/contracts/extensions/Ownable.sol\":1349:1389  OwnershipTransferred(_owner, address(0)) */\n      0xffffffffffffffffffffffffffffffffffffffff\n      and\n        /* \"smart contract/SwapCryptoLoanUpdate/contracts/extensions/Ownable.sol\":1370:1376  _owner */\n      0x00\n      dup1\n      sload\n      swap1\n      0x0100\n      exp\n      swap1\n      div\n      0xffffffffffffffffffffffffffffffffffffffff\n      and\n        /* \"smart contract/SwapCryptoLoanUpdate/contracts/extensions/Ownable.sol\":1349:1389  OwnershipTransferred(_owner, address(0)) */\n      0xffffffffffffffffffffffffffffffffffffffff\n      and\n      0x8be0079c531659141344cd1fd0a4f28419497f9722a3daafe3b4186f6b6457e0\n      mload(0x40)\n      mload(0x40)\n      dup1\n      swap2\n      sub\n      swap1\n      log3\n        /* \"smart contract/SwapCryptoLoanUpdate/contracts/extensions/Ownable.sol\":1416:1417  0 */\n      0x00\n        /* \"smart contract/SwapCryptoLoanUpdate/contracts/extensions/Ownable.sol\":1399:1405  _owner */\n      dup1\n      0x00\n        /* \"smart contract/SwapCryptoLoanUpdate/contracts/extensions/Ownable.sol\":1399:1418  _owner = address(0) */\n      0x0100\n      exp\n      dup2\n      sload\n      dup2\n      0xffffffffffffffffffffffffffffffffffffffff\n      mul\n      not\n      and\n      swap1\n      dup4\n      0xffffffffffffffffffffffffffffffffffffffff\n      and\n      mul\n      or\n      swap1\n      sstore\n      pop\n        /* \"smart contract/SwapCryptoLoanUpdate/contracts/extensions/Ownable.sol\":1286:1425  function renounceOwnership() external onlyOwner {... */\n      jump\t// out\n        /* \"smart contract/SwapCryptoLoanUpdate/contracts/extensions/Ownable.sol\":499:578  function owner() external view returns (address) {... */\n    tag_10:\n        /* \"smart contract/SwapCryptoLoanUpdate/contracts/extensions/Ownable.sol\":539:546  address */\n      0x00\n        /* \"smart contract/SwapCryptoLoanUpdate/contracts/extensions/Ownable.sol\":565:571  _owner */\n      dup1\n      0x00\n      swap1\n      sload\n      swap1\n      0x0100\n      exp\n      swap1\n      div\n      0xffffffffffffffffffffffffffffffffffffffff\n      and\n        /* \"smart contract/SwapCryptoLoanUpdate/contracts/extensions/Ownable.sol\":558:571  return _owner */\n      swap1\n      pop\n        /* \"smart contract/SwapCryptoLoanUpdate/contracts/extensions/Ownable.sol\":499:578  function owner() external view returns (address) {... */\n      swap1\n      jump\t// out\n        /* \"smart contract/SwapCryptoLoanUpdate/contracts/extensions/Ownable.sol\":852:942  function isOwner() public view returns (bool) {... */\n    tag_14:\n        /* \"smart contract/SwapCryptoLoanUpdate/contracts/extensions/Ownable.sol\":892:896  bool */\n      0x00\n        /* \"smart contract/SwapCryptoLoanUpdate/contracts/extensions/Ownable.sol\":929:935  _owner */\n      dup1\n      0x00\n      swap1\n      sload\n      swap1\n      0x0100\n      exp\n      swap1\n      div\n      0xffffffffffffffffffffffffffffffffffffffff\n      and\n        /* \"smart contract/SwapCryptoLoanUpdate/contracts/extensions/Ownable.sol\":915:935  msg.sender == _owner */\n      0xffffffffffffffffffffffffffffffffffffffff\n      and\n        /* \"smart contract/SwapCryptoLoanUpdate/contracts/extensions/Ownable.sol\":915:925  msg.sender */\n      caller\n        /* \"smart contract/SwapCryptoLoanUpdate/contracts/extensions/Ownable.sol\":915:935  msg.sender == _owner */\n      0xffffffffffffffffffffffffffffffffffffffff\n      and\n      eq\n        /* \"smart contract/SwapCryptoLoanUpdate/contracts/extensions/Ownable.sol\":908:935  return msg.sender == _owner */\n      swap1\n      pop\n        /* \"smart contract/SwapCryptoLoanUpdate/contracts/extensions/Ownable.sol\":852:942  function isOwner() public view returns (bool) {... */\n      swap1\n      jump\t// out\n        /* \"smart contract/SwapCryptoLoanUpdate/contracts/extensions/Ownable.sol\":1574:1683  function transferOwnership(address newOwner) external onlyOwner {... */\n    tag_20:\n        /* \"smart contract/SwapCryptoLoanUpdate/contracts/extensions/Ownable.sol\":705:714  isOwner() */\n      tag_30\n        /* \"smart contract/SwapCryptoLoanUpdate/contracts/extensions/Ownable.sol\":705:712  isOwner */\n      tag_14\n        /* \"smart contract/SwapCryptoLoanUpdate/contracts/extensions/Ownable.sol\":705:714  isOwner() */\n      jump\t// in\n    tag_30:\n        /* \"smart contract/SwapCryptoLoanUpdate/contracts/extensions/Ownable.sol\":697:751  require(isOwner(), \"Ownable: caller is not the owner\") */\n      tag_31\n      jumpi\n      mload(0x40)\n      0x08c379a000000000000000000000000000000000000000000000000000000000\n      dup2\n      mstore\n      0x04\n      add\n      tag_32\n      swap1\n      tag_25\n      jump\t// in\n    tag_32:\n      mload(0x40)\n      dup1\n      swap2\n      sub\n      swap1\n      revert\n    tag_31:\n        /* \"smart contract/SwapCryptoLoanUpdate/contracts/extensions/Ownable.sol\":1648:1676  _transferOwnership(newOwner) */\n      tag_34\n        /* \"smart contract/SwapCryptoLoanUpdate/contracts/extensions/Ownable.sol\":1667:1675  newOwner */\n      dup2\n        /* \"smart contract/SwapCryptoLoanUpdate/contracts/extensions/Ownable.sol\":1648:1666  _transferOwnership */\n      tag_35\n        /* \"smart contract/SwapCryptoLoanUpdate/contracts/extensions/Ownable.sol\":1648:1676  _transferOwnership(newOwner) */\n      jump\t// in\n    tag_34:\n        /* \"smart contract/SwapCryptoLoanUpdate/contracts/extensions/Ownable.sol\":1574:1683  function transferOwnership(address newOwner) external onlyOwner {... */\n      pop\n      jump\t// out\n        /* \"smart contract/SwapCryptoLoanUpdate/contracts/extensions/Ownable.sol\":1784:2043  function _transferOwnership(address newOwner) internal {... */\n    tag_35:\n        /* \"smart contract/SwapCryptoLoanUpdate/contracts/extensions/Ownable.sol\":1890:1891  0 */\n      0x00\n        /* \"smart contract/SwapCryptoLoanUpdate/contracts/extensions/Ownable.sol\":1870:1892  newOwner != address(0) */\n      0xffffffffffffffffffffffffffffffffffffffff\n      and\n        /* \"smart contract/SwapCryptoLoanUpdate/contracts/extensions/Ownable.sol\":1870:1878  newOwner */\n      dup2\n        /* \"smart contract/SwapCryptoLoanUpdate/contracts/extensions/Ownable.sol\":1870:1892  newOwner != address(0) */\n      0xffffffffffffffffffffffffffffffffffffffff\n      and\n      sub\n        /* \"smart contract/SwapCryptoLoanUpdate/contracts/extensions/Ownable.sol\":1849:1956  require(... */\n      tag_37\n      jumpi\n      mload(0x40)\n      0x08c379a000000000000000000000000000000000000000000000000000000000\n      dup2\n      mstore\n      0x04\n      add\n      tag_38\n      swap1\n      tag_39\n      jump\t// in\n    tag_38:\n      mload(0x40)\n      dup1\n      swap2\n      sub\n      swap1\n      revert\n    tag_37:\n        /* \"smart contract/SwapCryptoLoanUpdate/contracts/extensions/Ownable.sol\":2000:2008  newOwner */\n      dup1\n        /* \"smart contract/SwapCryptoLoanUpdate/contracts/extensions/Ownable.sol\":1971:2009  OwnershipTransferred(_owner, newOwner) */\n      0xffffffffffffffffffffffffffffffffffffffff\n      and\n        /* \"smart contract/SwapCryptoLoanUpdate/contracts/extensions/Ownable.sol\":1992:1998  _owner */\n      0x00\n      dup1\n      sload\n      swap1\n      0x0100\n      exp\n      swap1\n      div\n      0xffffffffffffffffffffffffffffffffffffffff\n      and\n        /* \"smart contract/SwapCryptoLoanUpdate/contracts/extensions/Ownable.sol\":1971:2009  OwnershipTransferred(_owner, newOwner) */\n      0xffffffffffffffffffffffffffffffffffffffff\n      and\n      0x8be0079c531659141344cd1fd0a4f28419497f9722a3daafe3b4186f6b6457e0\n      mload(0x40)\n      mload(0x40)\n      dup1\n      swap2\n      sub\n      swap1\n      log3\n        /* \"smart contract/SwapCryptoLoanUpdate/contracts/extensions/Ownable.sol\":2028:2036  newOwner */\n      dup1\n        /* \"smart contract/SwapCryptoLoanUpdate/contracts/extensions/Ownable.sol\":2019:2025  _owner */\n      0x00\n      dup1\n        /* \"smart contract/SwapCryptoLoanUpdate/contracts/extensions/Ownable.sol\":2019:2036  _owner = newOwner */\n      0x0100\n      exp\n      dup2\n      sload\n      dup2\n      0xffffffffffffffffffffffffffffffffffffffff\n      mul\n      not\n      and\n      swap1\n      dup4\n      0xffffffffffffffffffffffffffffffffffffffff\n      and\n      mul\n      or\n      swap1\n      sstore\n      pop\n        /* \"smart contract/SwapCryptoLoanUpdate/contracts/extensions/Ownable.sol\":1784:2043  function _transferOwnership(address newOwner) internal {... */\n      pop\n      jump\t// out\n        /* \"#utility.yul\":7:133   */\n    tag_40:\n        /* \"#utility.yul\":44:51   */\n      0x00\n        /* \"#utility.yul\":84:126   */\n      0xffffffffffffffffffffffffffffffffffffffff\n        /* \"#utility.yul\":77:82   */\n      dup3\n        /* \"#utility.yul\":73:127   */\n      and\n        /* \"#utility.yul\":62:127   */\n      swap1\n      pop\n        /* \"#utility.yul\":7:133   */\n      swap2\n      swap1\n      pop\n      jump\t// out\n        /* \"#utility.yul\":139:235   */\n    tag_41:\n        /* \"#utility.yul\":176:183   */\n      0x00\n        /* \"#utility.yul\":205:229   */\n      tag_58\n        /* \"#utility.yul\":223:228   */\n      dup3\n        /* \"#utility.yul\":205:229   */\n      tag_40\n      jump\t// in\n    tag_58:\n        /* \"#utility.yul\":194:229   */\n      swap1\n      pop\n        /* \"#utility.yul\":139:235   */\n      swap2\n      swap1\n      pop\n      jump\t// out\n        /* \"#utility.yul\":241:359   */\n    tag_42:\n        /* \"#utility.yul\":328:352   */\n      tag_60\n        /* \"#utility.yul\":346:351   */\n      dup2\n        /* \"#utility.yul\":328:352   */\n      tag_41\n      jump\t// in\n    tag_60:\n        /* \"#utility.yul\":323:326   */\n      dup3\n        /* \"#utility.yul\":316:353   */\n      mstore\n        /* \"#utility.yul\":241:359   */\n      pop\n      pop\n      jump\t// out\n        /* \"#utility.yul\":365:587   */\n    tag_12:\n        /* \"#utility.yul\":458:462   */\n      0x00\n        /* \"#utility.yul\":496:498   */\n      0x20\n        /* \"#utility.yul\":485:494   */\n      dup3\n        /* \"#utility.yul\":481:499   */\n      add\n        /* \"#utility.yul\":473:499   */\n      swap1\n      pop\n        /* \"#utility.yul\":509:580   */\n      tag_62\n        /* \"#utility.yul\":577:578   */\n      0x00\n        /* \"#utility.yul\":566:575   */\n      dup4\n        /* \"#utility.yul\":562:579   */\n      add\n        /* \"#utility.yul\":553:559   */\n      dup5\n        /* \"#utility.yul\":509:580   */\n      tag_42\n      jump\t// in\n    tag_62:\n        /* \"#utility.yul\":365:587   */\n      swap3\n      swap2\n      pop\n      pop\n      jump\t// out\n        /* \"#utility.yul\":593:683   */\n    tag_43:\n        /* \"#utility.yul\":627:634   */\n      0x00\n        /* \"#utility.yul\":670:675   */\n      dup2\n        /* \"#utility.yul\":663:676   */\n      iszero\n        /* \"#utility.yul\":656:677   */\n      iszero\n        /* \"#utility.yul\":645:677   */\n      swap1\n      pop\n        /* \"#utility.yul\":593:683   */\n      swap2\n      swap1\n      pop\n      jump\t// out\n        /* \"#utility.yul\":689:798   */\n    tag_44:\n        /* \"#utility.yul\":770:791   */\n      tag_65\n        /* \"#utility.yul\":785:790   */\n      dup2\n        /* \"#utility.yul\":770:791   */\n      tag_43\n      jump\t// in\n    tag_65:\n        /* \"#utility.yul\":765:768   */\n      dup3\n        /* \"#utility.yul\":758:792   */\n      mstore\n        /* \"#utility.yul\":689:798   */\n      pop\n      pop\n      jump\t// out\n        /* \"#utility.yul\":804:1014   */\n    tag_16:\n        /* \"#utility.yul\":891:895   */\n      0x00\n        /* \"#utility.yul\":929:931   */\n      0x20\n        /* \"#utility.yul\":918:927   */\n      dup3\n        /* \"#utility.yul\":914:932   */\n      add\n        /* \"#utility.yul\":906:932   */\n      swap1\n      pop\n        /* \"#utility.yul\":942:1007   */\n      tag_67\n        /* \"#utility.yul\":1004:1005   */\n      0x00\n        /* \"#utility.yul\":993:1002   */\n      dup4\n        /* \"#utility.yul\":989:1006   */\n      add\n        /* \"#utility.yul\":980:986   */\n      dup5\n        /* \"#utility.yul\":942:1007   */\n      tag_44\n      jump\t// in\n    tag_67:\n        /* \"#utility.yul\":804:1014   */\n      swap3\n      swap2\n      pop\n      pop\n      jump\t// out\n        /* \"#utility.yul\":1101:1218   */\n    tag_46:\n        /* \"#utility.yul\":1210:1211   */\n      0x00\n        /* \"#utility.yul\":1207:1208   */\n      dup1\n        /* \"#utility.yul\":1200:1212   */\n      revert\n        /* \"#utility.yul\":1347:1469   */\n    tag_48:\n        /* \"#utility.yul\":1420:1444   */\n      tag_72\n        /* \"#utility.yul\":1438:1443   */\n      dup2\n        /* \"#utility.yul\":1420:1444   */\n      tag_41\n      jump\t// in\n    tag_72:\n        /* \"#utility.yul\":1413:1418   */\n      dup2\n        /* \"#utility.yul\":1410:1445   */\n      eq\n        /* \"#utility.yul\":1400:1463   */\n      tag_73\n      jumpi\n        /* \"#utility.yul\":1459:1460   */\n      0x00\n        /* \"#utility.yul\":1456:1457   */\n      dup1\n        /* \"#utility.yul\":1449:1461   */\n      revert\n        /* \"#utility.yul\":1400:1463   */\n    tag_73:\n        /* \"#utility.yul\":1347:1469   */\n      pop\n      jump\t// out\n        /* \"#utility.yul\":1475:1614   */\n    tag_49:\n        /* \"#utility.yul\":1521:1526   */\n      0x00\n        /* \"#utility.yul\":1559:1565   */\n      dup2\n        /* \"#utility.yul\":1546:1566   */\n      calldataload\n        /* \"#utility.yul\":1537:1566   */\n      swap1\n      pop\n        /* \"#utility.yul\":1575:1608   */\n      tag_75\n        /* \"#utility.yul\":1602:1607   */\n      dup2\n        /* \"#utility.yul\":1575:1608   */\n      tag_48\n      jump\t// in\n    tag_75:\n        /* \"#utility.yul\":1475:1614   */\n      swap3\n      swap2\n      pop\n      pop\n      jump\t// out\n        /* \"#utility.yul\":1620:1949   */\n    tag_19:\n        /* \"#utility.yul\":1679:1685   */\n      0x00\n        /* \"#utility.yul\":1728:1730   */\n      0x20\n        /* \"#utility.yul\":1716:1725   */\n      dup3\n        /* \"#utility.yul\":1707:1714   */\n      dup5\n        /* \"#utility.yul\":1703:1726   */\n      sub\n        /* \"#utility.yul\":1699:1731   */\n      slt\n        /* \"#utility.yul\":1696:1815   */\n      iszero\n      tag_77\n      jumpi\n        /* \"#utility.yul\":1734:1813   */\n      tag_78\n      tag_46\n      jump\t// in\n    tag_78:\n        /* \"#utility.yul\":1696:1815   */\n    tag_77:\n        /* \"#utility.yul\":1854:1855   */\n      0x00\n        /* \"#utility.yul\":1879:1932   */\n      tag_79\n        /* \"#utility.yul\":1924:1931   */\n      dup5\n        /* \"#utility.yul\":1915:1921   */\n      dup3\n        /* \"#utility.yul\":1904:1913   */\n      dup6\n        /* \"#utility.yul\":1900:1922   */\n      add\n        /* \"#utility.yul\":1879:1932   */\n      tag_49\n      jump\t// in\n    tag_79:\n        /* \"#utility.yul\":1869:1932   */\n      swap2\n      pop\n        /* \"#utility.yul\":1825:1942   */\n      pop\n        /* \"#utility.yul\":1620:1949   */\n      swap3\n      swap2\n      pop\n      pop\n      jump\t// out\n        /* \"#utility.yul\":1955:2124   */\n    tag_50:\n        /* \"#utility.yul\":2039:2050   */\n      0x00\n        /* \"#utility.yul\":2073:2079   */\n      dup3\n        /* \"#utility.yul\":2068:2071   */\n      dup3\n        /* \"#utility.yul\":2061:2080   */\n      mstore\n        /* \"#utility.yul\":2113:2117   */\n      0x20\n        /* \"#utility.yul\":2108:2111   */\n      dup3\n        /* \"#utility.yul\":2104:2118   */\n      add\n        /* \"#utility.yul\":2089:2118   */\n      swap1\n      pop\n        /* \"#utility.yul\":1955:2124   */\n      swap3\n      swap2\n      pop\n      pop\n      jump\t// out\n        /* \"#utility.yul\":2130:2312   */\n    tag_51:\n        /* \"#utility.yul\":2270:2304   */\n      0x4f776e61626c653a2063616c6c6572206973206e6f7420746865206f776e6572\n        /* \"#utility.yul\":2266:2267   */\n      0x00\n        /* \"#utility.yul\":2258:2264   */\n      dup3\n        /* \"#utility.yul\":2254:2268   */\n      add\n        /* \"#utility.yul\":2247:2305   */\n      mstore\n        /* \"#utility.yul\":2130:2312   */\n      pop\n      jump\t// out\n        /* \"#utility.yul\":2318:2684   */\n    tag_52:\n        /* \"#utility.yul\":2460:2463   */\n      0x00\n        /* \"#utility.yul\":2481:2548   */\n      tag_83\n        /* \"#utility.yul\":2545:2547   */\n      0x20\n        /* \"#utility.yul\":2540:2543   */\n      dup4\n        /* \"#utility.yul\":2481:2548   */\n      tag_50\n      jump\t// in\n    tag_83:\n        /* \"#utility.yul\":2474:2548   */\n      swap2\n      pop\n        /* \"#utility.yul\":2557:2650   */\n      tag_84\n        /* \"#utility.yul\":2646:2649   */\n      dup3\n        /* \"#utility.yul\":2557:2650   */\n      tag_51\n      jump\t// in\n    tag_84:\n        /* \"#utility.yul\":2675:2677   */\n      0x20\n        /* \"#utility.yul\":2670:2673   */\n      dup3\n        /* \"#utility.yul\":2666:2678   */\n      add\n        /* \"#utility.yul\":2659:2678   */\n      swap1\n      pop\n        /* \"#utility.yul\":2318:2684   */\n      swap2\n      swap1\n      pop\n      jump\t// out\n        /* \"#utility.yul\":2690:3109   */\n    tag_25:\n        /* \"#utility.yul\":2856:2860   */\n      0x00\n        /* \"#utility.yul\":2894:2896   */\n      0x20\n        /* \"#utility.yul\":2883:2892   */\n      dup3\n        /* \"#utility.yul\":2879:2897   */\n      add\n        /* \"#utility.yul\":2871:2897   */\n      swap1\n      pop\n        /* \"#utility.yul\":2943:2952   */\n      dup2\n        /* \"#utility.yul\":2937:2941   */\n      dup2\n        /* \"#utility.yul\":2933:2953   */\n      sub\n        /* \"#utility.yul\":2929:2930   */\n      0x00\n        /* \"#utility.yul\":2918:2927   */\n      dup4\n        /* \"#utility.yul\":2914:2931   */\n      add\n        /* \"#utility.yul\":2907:2954   */\n      mstore\n        /* \"#utility.yul\":2971:3102   */\n      tag_86\n        /* \"#utility.yul\":3097:3101   */\n      dup2\n        /* \"#utility.yul\":2971:3102   */\n      tag_52\n      jump\t// in\n    tag_86:\n        /* \"#utility.yul\":2963:3102   */\n      swap1\n      pop\n        /* \"#utility.yul\":2690:3109   */\n      swap2\n      swap1\n      pop\n      jump\t// out\n        /* \"#utility.yul\":3115:3340   */\n    tag_53:\n        /* \"#utility.yul\":3255:3289   */\n      0x4f776e61626c653a206e6577206f776e657220697320746865207a65726f2061\n        /* \"#utility.yul\":3251:3252   */\n      0x00\n        /* \"#utility.yul\":3243:3249   */\n      dup3\n        /* \"#utility.yul\":3239:3253   */\n      add\n        /* \"#utility.yul\":3232:3290   */\n      mstore\n        /* \"#utility.yul\":3324:3332   */\n      0x6464726573730000000000000000000000000000000000000000000000000000\n        /* \"#utility.yul\":3319:3321   */\n      0x20\n        /* \"#utility.yul\":3311:3317   */\n      dup3\n        /* \"#utility.yul\":3307:3322   */\n      add\n        /* \"#utility.yul\":3300:3333   */\n      mstore\n        /* \"#utility.yul\":3115:3340   */\n      pop\n      jump\t// out\n        /* \"#utility.yul\":3346:3712   */\n    tag_54:\n        /* \"#utility.yul\":3488:3491   */\n      0x00\n        /* \"#utility.yul\":3509:3576   */\n      tag_89\n        /* \"#utility.yul\":3573:3575   */\n      0x26\n        /* \"#utility.yul\":3568:3571   */\n      dup4\n        /* \"#utility.yul\":3509:3576   */\n      tag_50\n      jump\t// in\n    tag_89:\n        /* \"#utility.yul\":3502:3576   */\n      swap2\n      pop\n        /* \"#utility.yul\":3585:3678   */\n      tag_90\n        /* \"#utility.yul\":3674:3677   */\n      dup3\n        /* \"#utility.yul\":3585:3678   */\n      tag_53\n      jump\t// in\n    tag_90:\n        /* \"#utility.yul\":3703:3705   */\n      0x40\n        /* \"#utility.yul\":3698:3701   */\n      dup3\n        /* \"#utility.yul\":3694:3706   */\n      add\n        /* \"#utility.yul\":3687:3706   */\n      swap1\n      pop\n        /* \"#utility.yul\":3346:3712   */\n      swap2\n      swap1\n      pop\n      jump\t// out\n        /* \"#utility.yul\":3718:4137   */\n    tag_39:\n        /* \"#utility.yul\":3884:3888   */\n      0x00\n        /* \"#utility.yul\":3922:3924   */\n      0x20\n        /* \"#utility.yul\":3911:3920   */\n      dup3\n        /* \"#utility.yul\":3907:3925   */\n      add\n        /* \"#utility.yul\":3899:3925   */\n      swap1\n      pop\n        /* \"#utility.yul\":3971:3980   */\n      dup2\n        /* \"#utility.yul\":3965:3969   */\n      dup2\n        /* \"#utility.yul\":3961:3981   */\n      sub\n        /* \"#utility.yul\":3957:3958   */\n      0x00\n        /* \"#utility.yul\":3946:3955   */\n      dup4\n        /* \"#utility.yul\":3942:3959   */\n      add\n        /* \"#utility.yul\":3935:3982   */\n      mstore\n        /* \"#utility.yul\":3999:4130   */\n      tag_92\n        /* \"#utility.yul\":4125:4129   */\n      dup2\n        /* \"#utility.yul\":3999:4130   */\n      tag_54\n      jump\t// in\n    tag_92:\n        /* \"#utility.yul\":3991:4130   */\n      swap1\n      pop\n        /* \"#utility.yul\":3718:4137   */\n      swap2\n      swap1\n      pop\n      jump\t// out\n\n    auxdata: 0xa26469706673582212206af439aef42bcb2f58a14124612fe58ccf71a784d343dec3b7f6836937e2fed964736f6c63430008120033\n}\n",
				"bytecode": {
					"linkReferences": {},
					"object": "608060405234801561001057600080fd5b50336000806101000a81548173ffffffffffffffffffffffffffffffffffffffff021916908373ffffffffffffffffffffffffffffffffffffffff16021790555060008054906101000a900473ffffffffffffffffffffffffffffffffffffffff1673ffffffffffffffffffffffffffffffffffffffff16600073ffffffffffffffffffffffffffffffffffffffff167f8be0079c531659141344cd1fd0a4f28419497f9722a3daafe3b4186f6b6457e060405160405180910390a36105ec806100db6000396000f3fe608060405234801561001057600080fd5b506004361061004c5760003560e01c8063715018a6146100515780638da5cb5b1461005b5780638f32d59b14610079578063f2fde38b14610097575b600080fd5b6100596100b3565b005b6100636101b8565b60405161007091906103f8565b60405180910390f35b6100816101e1565b60405161008e919061042e565b60405180910390f35b6100b160048036038101906100ac919061047a565b610238565b005b6100bb6101e1565b6100fa576040517f08c379a00000000000000000000000000000000000000000000000000000000081526004016100f190610504565b60405180910390fd5b600073ffffffffffffffffffffffffffffffffffffffff1660008054906101000a900473ffffffffffffffffffffffffffffffffffffffff1673ffffffffffffffffffffffffffffffffffffffff167f8be0079c531659141344cd1fd0a4f28419497f9722a3daafe3b4186f6b6457e060405160405180910390a360008060006101000a81548173ffffffffffffffffffffffffffffffffffffffff021916908373ffffffffffffffffffffffffffffffffffffffff160217905550565b60008060009054906101000a900473ffffffffffffffffffffffffffffffffffffffff16905090565b60008060009054906101000a900473ffffffffffffffffffffffffffffffffffffffff1673ffffffffffffffffffffffffffffffffffffffff163373ffffffffffffffffffffffffffffffffffffffff1614905090565b6102406101e1565b61027f576040517f08c379a000000000000000000000000000000000000000000000000000000000815260040161027690610504565b60405180910390fd5b6102888161028b565b50565b600073ffffffffffffffffffffffffffffffffffffffff168173ffffffffffffffffffffffffffffffffffffffff16036102fa576040517f08c379a00000000000000000000000000000000000000000000000000000000081526004016102f190610596565b60405180910390fd5b8073ffffffffffffffffffffffffffffffffffffffff1660008054906101000a900473ffffffffffffffffffffffffffffffffffffffff1673ffffffffffffffffffffffffffffffffffffffff167f8be0079c531659141344cd1fd0a4f28419497f9722a3daafe3b4186f6b6457e060405160405180910390a3806000806101000a81548173ffffffffffffffffffffffffffffffffffffffff021916908373ffffffffffffffffffffffffffffffffffffffff16021790555050565b600073ffffffffffffffffffffffffffffffffffffffff82169050919050565b60006103e2826103b7565b9050919050565b6103f2816103d7565b82525050565b600060208201905061040d60008301846103e9565b92915050565b60008115159050919050565b61042881610413565b82525050565b6000602082019050610443600083018461041f565b92915050565b600080fd5b610457816103d7565b811461046257600080fd5b50565b6000813590506104748161044e565b92915050565b6000602082840312156104905761048f610449565b5b600061049e84828501610465565b91505092915050565b600082825260208201905092915050565b7f4f776e61626c653a2063616c6c6572206973206e6f7420746865206f776e6572600082015250565b60006104ee6020836104a7565b91506104f9826104b8565b602082019050919050565b6000602082019050818103600083015261051d816104e1565b9050919050565b7f4f776e61626c653a206e6577206f776e657220697320746865207a65726f206160008201527f6464726573730000000000000000000000000000000000000000000000000000602082015250565b60006105806026836104a7565b915061058b82610524565b604082019050919050565b600060208201905081810360008301526105af81610573565b905091905056fea26469706673582212206af439aef42bcb2f58a14124612fe58ccf71a784d343dec3b7f6836937e2fed964736f6c63430008120033",
					"opcodes": "PUSH1 0x80 PUSH1 0x40 MSTORE CALLVALUE DUP1 ISZERO PUSH2 0x10 JUMPI PUSH1 0x0 DUP1 REVERT JUMPDEST POP CALLER PUSH1 0x0 DUP1 PUSH2 0x100 EXP DUP2 SLOAD DUP2 PUSH20 0xFFFFFFFFFFFFFFFFFFFFFFFFFFFFFFFFFFFFFFFF MUL NOT AND SWAP1 DUP4 PUSH20 0xFFFFFFFFFFFFFFFFFFFFFFFFFFFFFFFFFFFFFFFF AND MUL OR SWAP1 SSTORE POP PUSH1 0x0 DUP1 SLOAD SWAP1 PUSH2 0x100 EXP SWAP1 DIV PUSH20 0xFFFFFFFFFFFFFFFFFFFFFFFFFFFFFFFFFFFFFFFF AND PUSH20 0xFFFFFFFFFFFFFFFFFFFFFFFFFFFFFFFFFFFFFFFF AND PUSH1 0x0 PUSH20 0xFFFFFFFFFFFFFFFFFFFFFFFFFFFFFFFFFFFFFFFF AND PUSH32 0x8BE0079C531659141344CD1FD0A4F28419497F9722A3DAAFE3B4186F6B6457E0 PUSH1 0x40 MLOAD PUSH1 0x40 MLOAD DUP1 SWAP2 SUB SWAP1 LOG3 PUSH2 0x5EC DUP1 PUSH2 0xDB PUSH1 0x0 CODECOPY PUSH1 0x0 RETURN INVALID PUSH1 0x80 PUSH1 0x40 MSTORE CALLVALUE DUP1 ISZERO PUSH2 0x10 JUMPI PUSH1 0x0 DUP1 REVERT JUMPDEST POP PUSH1 0x4 CALLDATASIZE LT PUSH2 0x4C JUMPI PUSH1 0x0 CALLDATALOAD PUSH1 0xE0 SHR DUP1 PUSH4 0x715018A6 EQ PUSH2 0x51 JUMPI DUP1 PUSH4 0x8DA5CB5B EQ PUSH2 0x5B JUMPI DUP1 PUSH4 0x8F32D59B EQ PUSH2 0x79 JUMPI DUP1 PUSH4 0xF2FDE38B EQ PUSH2 0x97 JUMPI JUMPDEST PUSH1 0x0 DUP1 REVERT JUMPDEST PUSH2 0x59 PUSH2 0xB3 JUMP JUMPDEST STOP JUMPDEST PUSH2 0x63 PUSH2 0x1B8 JUMP JUMPDEST PUSH1 0x40 MLOAD PUSH2 0x70 SWAP2 SWAP1 PUSH2 0x3F8 JUMP JUMPDEST PUSH1 0x40 MLOAD DUP1 SWAP2 SUB SWAP1 RETURN JUMPDEST PUSH2 0x81 PUSH2 0x1E1 JUMP JUMPDEST PUSH1 0x40 MLOAD PUSH2 0x8E SWAP2 SWAP1 PUSH2 0x42E JUMP JUMPDEST PUSH1 0x40 MLOAD DUP1 SWAP2 SUB SWAP1 RETURN JUMPDEST PUSH2 0xB1 PUSH1 0x4 DUP1 CALLDATASIZE SUB DUP2 ADD SWAP1 PUSH2 0xAC SWAP2 SWAP1 PUSH2 0x47A JUMP JUMPDEST PUSH2 0x238 JUMP JUMPDEST STOP JUMPDEST PUSH2 0xBB PUSH2 0x1E1 JUMP JUMPDEST PUSH2 0xFA JUMPI PUSH1 0x40 MLOAD PUSH32 0x8C379A000000000000000000000000000000000000000000000000000000000 DUP2 MSTORE PUSH1 0x4 ADD PUSH2 0xF1 SWAP1 PUSH2 0x504 JUMP JUMPDEST PUSH1 0x40 MLOAD DUP1 SWAP2 SUB SWAP1 REVERT JUMPDEST PUSH1 0x0 PUSH20 0xFFFFFFFFFFFFFFFFFFFFFFFFFFFFFFFFFFFFFFFF AND PUSH1 0x0 DUP1 SLOAD SWAP1 PUSH2 0x100 EXP SWAP1 DIV PUSH20 0xFFFFFFFFFFFFFFFFFFFFFFFFFFFFFFFFFFFFFFFF AND PUSH20 0xFFFFFFFFFFFFFFFFFFFFFFFFFFFFFFFFFFFFFFFF AND PUSH32 0x8BE0079C531659141344CD1FD0A4F28419497F9722A3DAAFE3B4186F6B6457E0 PUSH1 0x40 MLOAD PUSH1 0x40 MLOAD DUP1 SWAP2 SUB SWAP1 LOG3 PUSH1 0x0 DUP1 PUSH1 0x0 PUSH2 0x100 EXP DUP2 SLOAD DUP2 PUSH20 0xFFFFFFFFFFFFFFFFFFFFFFFFFFFFFFFFFFFFFFFF MUL NOT AND SWAP1 DUP4 PUSH20 0xFFFFFFFFFFFFFFFFFFFFFFFFFFFFFFFFFFFFFFFF AND MUL OR SWAP1 SSTORE POP JUMP JUMPDEST PUSH1 0x0 DUP1 PUSH1 0x0 SWAP1 SLOAD SWAP1 PUSH2 0x100 EXP SWAP1 DIV PUSH20 0xFFFFFFFFFFFFFFFFFFFFFFFFFFFFFFFFFFFFFFFF AND SWAP1 POP SWAP1 JUMP JUMPDEST PUSH1 0x0 DUP1 PUSH1 0x0 SWAP1 SLOAD SWAP1 PUSH2 0x100 EXP SWAP1 DIV PUSH20 0xFFFFFFFFFFFFFFFFFFFFFFFFFFFFFFFFFFFFFFFF AND PUSH20 0xFFFFFFFFFFFFFFFFFFFFFFFFFFFFFFFFFFFFFFFF AND CALLER PUSH20 0xFFFFFFFFFFFFFFFFFFFFFFFFFFFFFFFFFFFFFFFF AND EQ SWAP1 POP SWAP1 JUMP JUMPDEST PUSH2 0x240 PUSH2 0x1E1 JUMP JUMPDEST PUSH2 0x27F JUMPI PUSH1 0x40 MLOAD PUSH32 0x8C379A000000000000000000000000000000000000000000000000000000000 DUP2 MSTORE PUSH1 0x4 ADD PUSH2 0x276 SWAP1 PUSH2 0x504 JUMP JUMPDEST PUSH1 0x40 MLOAD DUP1 SWAP2 SUB SWAP1 REVERT JUMPDEST PUSH2 0x288 DUP2 PUSH2 0x28B JUMP JUMPDEST POP JUMP JUMPDEST PUSH1 0x0 PUSH20 0xFFFFFFFFFFFFFFFFFFFFFFFFFFFFFFFFFFFFFFFF AND DUP2 PUSH20 0xFFFFFFFFFFFFFFFFFFFFFFFFFFFFFFFFFFFFFFFF AND SUB PUSH2 0x2FA JUMPI PUSH1 0x40 MLOAD PUSH32 0x8C379A000000000000000000000000000000000000000000000000000000000 DUP2 MSTORE PUSH1 0x4 ADD PUSH2 0x2F1 SWAP1 PUSH2 0x596 JUMP JUMPDEST PUSH1 0x40 MLOAD DUP1 SWAP2 SUB SWAP1 REVERT JUMPDEST DUP1 PUSH20 0xFFFFFFFFFFFFFFFFFFFFFFFFFFFFFFFFFFFFFFFF AND PUSH1 0x0 DUP1 SLOAD SWAP1 PUSH2 0x100 EXP SWAP1 DIV PUSH20 0xFFFFFFFFFFFFFFFFFFFFFFFFFFFFFFFFFFFFFFFF AND PUSH20 0xFFFFFFFFFFFFFFFFFFFFFFFFFFFFFFFFFFFFFFFF AND PUSH32 0x8BE0079C531659141344CD1FD0A4F28419497F9722A3DAAFE3B4186F6B6457E0 PUSH1 0x40 MLOAD PUSH1 0x40 MLOAD DUP1 SWAP2 SUB SWAP1 LOG3 DUP1 PUSH1 0x0 DUP1 PUSH2 0x100 EXP DUP2 SLOAD DUP2 PUSH20 0xFFFFFFFFFFFFFFFFFFFFFFFFFFFFFFFFFFFFFFFF MUL NOT AND SWAP1 DUP4 PUSH20 0xFFFFFFFFFFFFFFFFFFFFFFFFFFFFFFFFFFFFFFFF AND MUL OR SWAP1 SSTORE POP POP JUMP JUMPDEST PUSH1 0x0 PUSH20 0xFFFFFFFFFFFFFFFFFFFFFFFFFFFFFFFFFFFFFFFF DUP3 AND SWAP1 POP SWAP2 SWAP1 POP JUMP JUMPDEST PUSH1 0x0 PUSH2 0x3E2 DUP3 PUSH2 0x3B7 JUMP JUMPDEST SWAP1 POP SWAP2 SWAP1 POP JUMP JUMPDEST PUSH2 0x3F2 DUP2 PUSH2 0x3D7 JUMP JUMPDEST DUP3 MSTORE POP POP JUMP JUMPDEST PUSH1 0x0 PUSH1 0x20 DUP3 ADD SWAP1 POP PUSH2 0x40D PUSH1 0x0 DUP4 ADD DUP5 PUSH2 0x3E9 JUMP JUMPDEST SWAP3 SWAP2 POP POP JUMP JUMPDEST PUSH1 0x0 DUP2 ISZERO ISZERO SWAP1 POP SWAP2 SWAP1 POP JUMP JUMPDEST PUSH2 0x428 DUP2 PUSH2 0x413 JUMP JUMPDEST DUP3 MSTORE POP POP JUMP JUMPDEST PUSH1 0x0 PUSH1 0x20 DUP3 ADD SWAP1 POP PUSH2 0x443 PUSH1 0x0 DUP4 ADD DUP5 PUSH2 0x41F JUMP JUMPDEST SWAP3 SWAP2 POP POP JUMP JUMPDEST PUSH1 0x0 DUP1 REVERT JUMPDEST PUSH2 0x457 DUP2 PUSH2 0x3D7 JUMP JUMPDEST DUP2 EQ PUSH2 0x462 JUMPI PUSH1 0x0 DUP1 REVERT JUMPDEST POP JUMP JUMPDEST PUSH1 0x0 DUP2 CALLDATALOAD SWAP1 POP PUSH2 0x474 DUP2 PUSH2 0x44E JUMP JUMPDEST SWAP3 SWAP2 POP POP JUMP JUMPDEST PUSH1 0x0 PUSH1 0x20 DUP3 DUP5 SUB SLT ISZERO PUSH2 0x490 JUMPI PUSH2 0x48F PUSH2 0x449 JUMP JUMPDEST JUMPDEST PUSH1 0x0 PUSH2 0x49E DUP5 DUP3 DUP6 ADD PUSH2 0x465 JUMP JUMPDEST SWAP2 POP POP SWAP3 SWAP2 POP POP JUMP JUMPDEST PUSH1 0x0 DUP3 DUP3 MSTORE PUSH1 0x20 DUP3 ADD SWAP1 POP SWAP3 SWAP2 POP POP JUMP JUMPDEST PUSH32 0x4F776E61626C653A2063616C6C6572206973206E6F7420746865206F776E6572 PUSH1 0x0 DUP3 ADD MSTORE POP JUMP JUMPDEST PUSH1 0x0 PUSH2 0x4EE PUSH1 0x20 DUP4 PUSH2 0x4A7 JUMP JUMPDEST SWAP2 POP PUSH2 0x4F9 DUP3 PUSH2 0x4B8 JUMP JUMPDEST PUSH1 0x20 DUP3 ADD SWAP1 POP SWAP2 SWAP1 POP JUMP JUMPDEST PUSH1 0x0 PUSH1 0x20 DUP3 ADD SWAP1 POP DUP2 DUP2 SUB PUSH1 0x0 DUP4 ADD MSTORE PUSH2 0x51D DUP2 PUSH2 0x4E1 JUMP JUMPDEST SWAP1 POP SWAP2 SWAP1 POP JUMP JUMPDEST PUSH32 0x4F776E61626C653A206E6577206F776E657220697320746865207A65726F2061 PUSH1 0x0 DUP3 ADD MSTORE PUSH32 0x6464726573730000000000000000000000000000000000000000000000000000 PUSH1 0x20 DUP3 ADD MSTORE POP JUMP JUMPDEST PUSH1 0x0 PUSH2 0x580 PUSH1 0x26 DUP4 PUSH2 0x4A7 JUMP JUMPDEST SWAP2 POP PUSH2 0x58B DUP3 PUSH2 0x524 JUMP JUMPDEST PUSH1 0x40 DUP3 ADD SWAP1 POP SWAP2 SWAP1 POP JUMP JUMPDEST PUSH1 0x0 PUSH1 0x20 DUP3 ADD SWAP1 POP DUP2 DUP2 SUB PUSH1 0x0 DUP4 ADD MSTORE PUSH2 0x5AF DUP2 PUSH2 0x573 JUMP JUMPDEST SWAP1 POP SWAP2 SWAP1 POP JUMP INVALID LOG2 PUSH5 0x6970667358 0x22 SLT KECCAK256 PUSH11 0xF439AEF42BCB2F58A14124 PUSH2 0x2FE5 DUP13 0xCF PUSH18 0xA784D343DEC3B7F6836937E2FED964736F6C PUSH4 0x43000812 STOP CALLER "
				},
				"gasEstimates": {
					"creation": {
						"codeDepositCost": "303200",
						"executionCost": "28287",
						"totalCost": "331487"
					},
					"external": {
						"isOwner()": "2518",
						"owner()": "2522",
						"renounceOwnership()": "30272",
						"transferOwnership(address)": "30713"
					},
					"internal": {
						"_transferOwnership(address)": "infinite"
					}
				},
				"methodIdentifiers": {
					"isOwner()": "8f32d59b",
					"owner()": "8da5cb5b",
					"renounceOwnership()": "715018a6",
					"transferOwnership(address)": "f2fde38b"
				}
			},
			"storageLayout": {
				"storage": [
					{
						"astId": 28,
						"contract": "smart contract/SwapCryptoLoanUpdate/contracts/extensions/Ownable.sol:Ownable",
						"label": "_owner",
						"offset": 0,
						"slot": "0",
						"type": "t_address"
					}
				],
				"types": {
					"t_address": {
						"encoding": "inplace",
						"label": "address",
						"numberOfBytes": "20"
					}
				}
			},
			"userdoc": {
				"kind": "user",
				"methods": {},
				"version": 1
			}
		}
	}
}