{
	"smart contract/SwapCryptoLoanUpdate/contracts/facets/MartgptCoin.sol": {
		"MartGPTToken": {
			"abi": [
				{
					"inputs": [
						{
							"internalType": "string",
							"name": "name_",
							"type": "string"
						},
						{
							"internalType": "string",
							"name": "symbol_",
							"type": "string"
						},
						{
							"internalType": "address",
							"name": "convertAddress_",
							"type": "address"
						},
						{
							"internalType": "address",
							"name": "martGPTMarketAddress_",
							"type": "address"
						},
						{
							"internalType": "uint256",
							"name": "totalCap_",
							"type": "uint256"
						},
						{
							"internalType": "uint256",
							"name": "dailyMining_",
							"type": "uint256"
						}
					],
					"stateMutability": "nonpayable",
					"type": "constructor"
				},
				{
					"anonymous": false,
					"inputs": [
						{
							"indexed": true,
							"internalType": "address",
							"name": "owner",
							"type": "address"
						},
						{
							"indexed": true,
							"internalType": "address",
							"name": "spender",
							"type": "address"
						},
						{
							"indexed": false,
							"internalType": "uint256",
							"name": "value",
							"type": "uint256"
						}
					],
					"name": "Approval",
					"type": "event"
				},
				{
					"anonymous": false,
					"inputs": [
						{
							"indexed": true,
							"internalType": "address",
							"name": "previousOwner",
							"type": "address"
						},
						{
							"indexed": true,
							"internalType": "address",
							"name": "newOwner",
							"type": "address"
						}
					],
					"name": "OwnershipTransferred",
					"type": "event"
				},
				{
					"anonymous": false,
					"inputs": [
						{
							"indexed": true,
							"internalType": "address",
							"name": "from",
							"type": "address"
						},
						{
							"indexed": true,
							"internalType": "address",
							"name": "to",
							"type": "address"
						},
						{
							"indexed": false,
							"internalType": "uint256",
							"name": "value",
							"type": "uint256"
						}
					],
					"name": "Transfer",
					"type": "event"
				},
				{
					"inputs": [
						{
							"internalType": "address",
							"name": "owner",
							"type": "address"
						},
						{
							"internalType": "address",
							"name": "spender",
							"type": "address"
						}
					],
					"name": "allowance",
					"outputs": [
						{
							"internalType": "uint256",
							"name": "",
							"type": "uint256"
						}
					],
					"stateMutability": "view",
					"type": "function"
				},
				{
					"inputs": [
						{
							"internalType": "address",
							"name": "spender",
							"type": "address"
						},
						{
							"internalType": "uint256",
							"name": "amount",
							"type": "uint256"
						}
					],
					"name": "approve",
					"outputs": [
						{
							"internalType": "bool",
							"name": "",
							"type": "bool"
						}
					],
					"stateMutability": "nonpayable",
					"type": "function"
				},
				{
					"inputs": [
						{
							"internalType": "address",
							"name": "account",
							"type": "address"
						}
					],
					"name": "balanceOf",
					"outputs": [
						{
							"internalType": "uint256",
							"name": "",
							"type": "uint256"
						}
					],
					"stateMutability": "view",
					"type": "function"
				},
				{
					"inputs": [
						{
							"internalType": "uint256",
							"name": "amount",
							"type": "uint256"
						}
					],
					"name": "burn",
					"outputs": [
						{
							"internalType": "bool",
							"name": "",
							"type": "bool"
						}
					],
					"stateMutability": "nonpayable",
					"type": "function"
				},
				{
					"inputs": [
						{
							"internalType": "address",
							"name": "account",
							"type": "address"
						},
						{
							"internalType": "uint256",
							"name": "amount",
							"type": "uint256"
						}
					],
					"name": "burnFrom",
					"outputs": [
						{
							"internalType": "bool",
							"name": "",
							"type": "bool"
						}
					],
					"stateMutability": "nonpayable",
					"type": "function"
				},
				{
					"inputs": [
						{
							"internalType": "address",
							"name": "account",
							"type": "address"
						},
						{
							"internalType": "uint256",
							"name": "amount",
							"type": "uint256"
						}
					],
					"name": "convertTokenToMartGPTToken",
					"outputs": [
						{
							"internalType": "bool",
							"name": "",
							"type": "bool"
						}
					],
					"stateMutability": "nonpayable",
					"type": "function"
				},
				{
					"inputs": [
						{
							"internalType": "address",
							"name": "account",
							"type": "address"
						},
						{
							"internalType": "uint256",
							"name": "amount",
							"type": "uint256"
						}
					],
					"name": "convertTokenToMartGPTTokenWithOutBurn",
					"outputs": [
						{
							"internalType": "bool",
							"name": "",
							"type": "bool"
						}
					],
					"stateMutability": "nonpayable",
					"type": "function"
				},
				{
					"inputs": [],
					"name": "dailyBlockMining",
					"outputs": [
						{
							"internalType": "bool",
							"name": "",
							"type": "bool"
						}
					],
					"stateMutability": "nonpayable",
					"type": "function"
				},
				{
					"inputs": [],
					"name": "decimals",
					"outputs": [
						{
							"internalType": "uint8",
							"name": "",
							"type": "uint8"
						}
					],
					"stateMutability": "view",
					"type": "function"
				},
				{
					"inputs": [
						{
							"internalType": "address",
							"name": "spender",
							"type": "address"
						},
						{
							"internalType": "uint256",
							"name": "subtractedValue",
							"type": "uint256"
						}
					],
					"name": "decreaseAllowance",
					"outputs": [
						{
							"internalType": "bool",
							"name": "",
							"type": "bool"
						}
					],
					"stateMutability": "nonpayable",
					"type": "function"
				},
				{
					"inputs": [
						{
							"internalType": "address",
							"name": "spender",
							"type": "address"
						},
						{
							"internalType": "uint256",
							"name": "addedValue",
							"type": "uint256"
						}
					],
					"name": "increaseAllowance",
					"outputs": [
						{
							"internalType": "bool",
							"name": "",
							"type": "bool"
						}
					],
					"stateMutability": "nonpayable",
					"type": "function"
				},
				{
					"inputs": [],
					"name": "isOwner",
					"outputs": [
						{
							"internalType": "bool",
							"name": "",
							"type": "bool"
						}
					],
					"stateMutability": "view",
					"type": "function"
				},
				{
					"inputs": [],
					"name": "name",
					"outputs": [
						{
							"internalType": "string",
							"name": "",
							"type": "string"
						}
					],
					"stateMutability": "view",
					"type": "function"
				},
				{
					"inputs": [],
					"name": "owner",
					"outputs": [
						{
							"internalType": "address",
							"name": "",
							"type": "address"
						}
					],
					"stateMutability": "view",
					"type": "function"
				},
				{
					"inputs": [],
					"name": "renounceOwnership",
					"outputs": [],
					"stateMutability": "nonpayable",
					"type": "function"
				},
				{
					"inputs": [],
					"name": "symbol",
					"outputs": [
						{
							"internalType": "string",
							"name": "",
							"type": "string"
						}
					],
					"stateMutability": "view",
					"type": "function"
				},
				{
					"inputs": [],
					"name": "totalSupply",
					"outputs": [
						{
							"internalType": "uint256",
							"name": "",
							"type": "uint256"
						}
					],
					"stateMutability": "view",
					"type": "function"
				},
				{
					"inputs": [
						{
							"internalType": "address",
							"name": "to",
							"type": "address"
						},
						{
							"internalType": "uint256",
							"name": "amount",
							"type": "uint256"
						}
					],
					"name": "transfer",
					"outputs": [
						{
							"internalType": "bool",
							"name": "",
							"type": "bool"
						}
					],
					"stateMutability": "nonpayable",
					"type": "function"
				},
				{
					"inputs": [
						{
							"internalType": "address",
							"name": "from",
							"type": "address"
						},
						{
							"internalType": "address",
							"name": "to",
							"type": "address"
						},
						{
							"internalType": "uint256",
							"name": "amount",
							"type": "uint256"
						}
					],
					"name": "transferFrom",
					"outputs": [
						{
							"internalType": "bool",
							"name": "",
							"type": "bool"
						}
					],
					"stateMutability": "nonpayable",
					"type": "function"
				},
				{
					"inputs": [
						{
							"internalType": "address",
							"name": "newOwner",
							"type": "address"
						}
					],
					"name": "transferOwnership",
					"outputs": [],
					"stateMutability": "nonpayable",
					"type": "function"
				}
			],
			"devdoc": {
				"events": {
					"Approval(address,address,uint256)": {
						"details": "Emitted when the allowance of a `spender` for an `owner` is set by a call to {approve}. `value` is the new allowance."
					}
				},
				"kind": "dev",
				"methods": {
					"isOwner()": {
						"details": "Returns true if the caller is the current owner."
					},
					"owner()": {
						"details": "Returns the address of the current owner."
					},
					"renounceOwnership()": {
						"details": "Leaves the contract without owner. It will not be possible to call `onlyOwner` functions anymore. Can only be called by the current owner. > Note: Renouncing ownership will leave the contract without an owner, thereby removing any functionality that is only available to the owner."
					},
					"transferOwnership(address)": {
						"details": "Transfers ownership of the contract to a new account (`newOwner`). Can only be called by the current owner."
					}
				},
				"version": 1
			},
			"evm": {
				"assembly": "    /* \"smart contract/SwapCryptoLoanUpdate/contracts/facets/MartgptCoin.sol\":239:7892  contract MartGPTToken is Context, Ownable {... */\n  mstore(0x40, 0x80)\n    /* \"smart contract/SwapCryptoLoanUpdate/contracts/facets/MartgptCoin.sol\":1056:1486  constructor(... */\n  callvalue\n  dup1\n  iszero\n  tag_1\n  jumpi\n  0x00\n  dup1\n  revert\ntag_1:\n  pop\n  mload(0x40)\n  sub(codesize, bytecodeSize)\n  dup1\n  bytecodeSize\n  dup4\n  codecopy\n  dup2\n  dup2\n  add\n  0x40\n  mstore\n  dup2\n  add\n  swap1\n  tag_2\n  swap2\n  swap1\n  tag_3\n  jump\t// in\ntag_2:\n    /* \"smart contract/SwapCryptoLoanUpdate/contracts/extensions/Ownable.sol\":351:361  msg.sender */\n  caller\n    /* \"smart contract/SwapCryptoLoanUpdate/contracts/extensions/Ownable.sol\":342:348  _owner */\n  0x00\n  dup1\n    /* \"smart contract/SwapCryptoLoanUpdate/contracts/extensions/Ownable.sol\":342:361  _owner = msg.sender */\n  0x0100\n  exp\n  dup2\n  sload\n  dup2\n  0xffffffffffffffffffffffffffffffffffffffff\n  mul\n  not\n  and\n  swap1\n  dup4\n  0xffffffffffffffffffffffffffffffffffffffff\n  and\n  mul\n  or\n  swap1\n  sstore\n  pop\n    /* \"smart contract/SwapCryptoLoanUpdate/contracts/extensions/Ownable.sol\":409:415  _owner */\n  0x00\n  dup1\n  sload\n  swap1\n  0x0100\n  exp\n  swap1\n  div\n  0xffffffffffffffffffffffffffffffffffffffff\n  and\n    /* \"smart contract/SwapCryptoLoanUpdate/contracts/extensions/Ownable.sol\":376:416  OwnershipTransferred(address(0), _owner) */\n  0xffffffffffffffffffffffffffffffffffffffff\n  and\n    /* \"smart contract/SwapCryptoLoanUpdate/contracts/extensions/Ownable.sol\":405:406  0 */\n  0x00\n    /* \"smart contract/SwapCryptoLoanUpdate/contracts/extensions/Ownable.sol\":376:416  OwnershipTransferred(address(0), _owner) */\n  0xffffffffffffffffffffffffffffffffffffffff\n  and\n  0x8be0079c531659141344cd1fd0a4f28419497f9722a3daafe3b4186f6b6457e0\n  mload(0x40)\n  mload(0x40)\n  dup1\n  swap2\n  sub\n  swap1\n  log3\n    /* \"smart contract/SwapCryptoLoanUpdate/contracts/facets/MartgptCoin.sol\":1281:1286  name_ */\n  dup6\n    /* \"smart contract/SwapCryptoLoanUpdate/contracts/facets/MartgptCoin.sol\":1273:1278  _name */\n  0x04\n    /* \"smart contract/SwapCryptoLoanUpdate/contracts/facets/MartgptCoin.sol\":1273:1286  _name = name_ */\n  swap1\n  dup2\n  tag_8\n  swap2\n  swap1\n  tag_9\n  jump\t// in\ntag_8:\n  pop\n    /* \"smart contract/SwapCryptoLoanUpdate/contracts/facets/MartgptCoin.sol\":1306:1313  symbol_ */\n  dup5\n    /* \"smart contract/SwapCryptoLoanUpdate/contracts/facets/MartgptCoin.sol\":1296:1303  _symbol */\n  0x05\n    /* \"smart contract/SwapCryptoLoanUpdate/contracts/facets/MartgptCoin.sol\":1296:1313  _symbol = symbol_ */\n  swap1\n  dup2\n  tag_10\n  swap2\n  swap1\n  tag_9\n  jump\t// in\ntag_10:\n  pop\n    /* \"smart contract/SwapCryptoLoanUpdate/contracts/facets/MartgptCoin.sol\":1341:1356  convertAddress_ */\n  dup4\n    /* \"smart contract/SwapCryptoLoanUpdate/contracts/facets/MartgptCoin.sol\":1323:1338  _convertAddress */\n  0x06\n  0x00\n    /* \"smart contract/SwapCryptoLoanUpdate/contracts/facets/MartgptCoin.sol\":1323:1356  _convertAddress = convertAddress_ */\n  0x0100\n  exp\n  dup2\n  sload\n  dup2\n  0xffffffffffffffffffffffffffffffffffffffff\n  mul\n  not\n  and\n  swap1\n  dup4\n  0xffffffffffffffffffffffffffffffffffffffff\n  and\n  mul\n  or\n  swap1\n  sstore\n  pop\n    /* \"smart contract/SwapCryptoLoanUpdate/contracts/facets/MartgptCoin.sol\":1378:1387  totalCap_ */\n  dup2\n    /* \"smart contract/SwapCryptoLoanUpdate/contracts/facets/MartgptCoin.sol\":1366:1375  _totalCap */\n  0x08\n    /* \"smart contract/SwapCryptoLoanUpdate/contracts/facets/MartgptCoin.sol\":1366:1387  _totalCap = totalCap_ */\n  dup2\n  swap1\n  sstore\n  pop\n    /* \"smart contract/SwapCryptoLoanUpdate/contracts/facets/MartgptCoin.sol\":1421:1442  martGPTMarketAddress_ */\n  dup3\n    /* \"smart contract/SwapCryptoLoanUpdate/contracts/facets/MartgptCoin.sol\":1397:1418  _martGPTMarketAddress */\n  0x07\n  0x00\n    /* \"smart contract/SwapCryptoLoanUpdate/contracts/facets/MartgptCoin.sol\":1397:1442  _martGPTMarketAddress = martGPTMarketAddress_ */\n  0x0100\n  exp\n  dup2\n  sload\n  dup2\n  0xffffffffffffffffffffffffffffffffffffffff\n  mul\n  not\n  and\n  swap1\n  dup4\n  0xffffffffffffffffffffffffffffffffffffffff\n  and\n  mul\n  or\n  swap1\n  sstore\n  pop\n    /* \"smart contract/SwapCryptoLoanUpdate/contracts/facets/MartgptCoin.sol\":1467:1479  dailyMining_ */\n  dup1\n    /* \"smart contract/SwapCryptoLoanUpdate/contracts/facets/MartgptCoin.sol\":1452:1464  _dailyMining */\n  0x0a\n    /* \"smart contract/SwapCryptoLoanUpdate/contracts/facets/MartgptCoin.sol\":1452:1479  _dailyMining = dailyMining_ */\n  dup2\n  swap1\n  sstore\n  pop\n    /* \"smart contract/SwapCryptoLoanUpdate/contracts/facets/MartgptCoin.sol\":1056:1486  constructor(... */\n  pop\n  pop\n  pop\n  pop\n  pop\n  pop\n    /* \"smart contract/SwapCryptoLoanUpdate/contracts/facets/MartgptCoin.sol\":239:7892  contract MartGPTToken is Context, Ownable {... */\n  jump(tag_11)\n    /* \"#utility.yul\":7:82   */\ntag_12:\n    /* \"#utility.yul\":40:46   */\n  0x00\n    /* \"#utility.yul\":73:75   */\n  0x40\n    /* \"#utility.yul\":67:76   */\n  mload\n    /* \"#utility.yul\":57:76   */\n  swap1\n  pop\n    /* \"#utility.yul\":7:82   */\n  swap1\n  jump\t// out\n    /* \"#utility.yul\":88:205   */\ntag_13:\n    /* \"#utility.yul\":197:198   */\n  0x00\n    /* \"#utility.yul\":194:195   */\n  dup1\n    /* \"#utility.yul\":187:199   */\n  revert\n    /* \"#utility.yul\":211:328   */\ntag_14:\n    /* \"#utility.yul\":320:321   */\n  0x00\n    /* \"#utility.yul\":317:318   */\n  dup1\n    /* \"#utility.yul\":310:322   */\n  revert\n    /* \"#utility.yul\":334:451   */\ntag_15:\n    /* \"#utility.yul\":443:444   */\n  0x00\n    /* \"#utility.yul\":440:441   */\n  dup1\n    /* \"#utility.yul\":433:445   */\n  revert\n    /* \"#utility.yul\":457:574   */\ntag_16:\n    /* \"#utility.yul\":566:567   */\n  0x00\n    /* \"#utility.yul\":563:564   */\n  dup1\n    /* \"#utility.yul\":556:568   */\n  revert\n    /* \"#utility.yul\":580:682   */\ntag_17:\n    /* \"#utility.yul\":621:627   */\n  0x00\n    /* \"#utility.yul\":672:674   */\n  0x1f\n    /* \"#utility.yul\":668:675   */\n  not\n    /* \"#utility.yul\":663:665   */\n  0x1f\n    /* \"#utility.yul\":656:661   */\n  dup4\n    /* \"#utility.yul\":652:666   */\n  add\n    /* \"#utility.yul\":648:676   */\n  and\n    /* \"#utility.yul\":638:676   */\n  swap1\n  pop\n    /* \"#utility.yul\":580:682   */\n  swap2\n  swap1\n  pop\n  jump\t// out\n    /* \"#utility.yul\":688:868   */\ntag_18:\n    /* \"#utility.yul\":736:813   */\n  0x4e487b7100000000000000000000000000000000000000000000000000000000\n    /* \"#utility.yul\":733:734   */\n  0x00\n    /* \"#utility.yul\":726:814   */\n  mstore\n    /* \"#utility.yul\":833:837   */\n  0x41\n    /* \"#utility.yul\":830:831   */\n  0x04\n    /* \"#utility.yul\":823:838   */\n  mstore\n    /* \"#utility.yul\":857:861   */\n  0x24\n    /* \"#utility.yul\":854:855   */\n  0x00\n    /* \"#utility.yul\":847:862   */\n  revert\n    /* \"#utility.yul\":874:1155   */\ntag_19:\n    /* \"#utility.yul\":957:984   */\n  tag_59\n    /* \"#utility.yul\":979:983   */\n  dup3\n    /* \"#utility.yul\":957:984   */\n  tag_17\n  jump\t// in\ntag_59:\n    /* \"#utility.yul\":949:955   */\n  dup2\n    /* \"#utility.yul\":945:985   */\n  add\n    /* \"#utility.yul\":1087:1093   */\n  dup2\n    /* \"#utility.yul\":1075:1085   */\n  dup2\n    /* \"#utility.yul\":1072:1094   */\n  lt\n    /* \"#utility.yul\":1051:1069   */\n  0xffffffffffffffff\n    /* \"#utility.yul\":1039:1049   */\n  dup3\n    /* \"#utility.yul\":1036:1070   */\n  gt\n    /* \"#utility.yul\":1033:1095   */\n  or\n    /* \"#utility.yul\":1030:1118   */\n  iszero\n  tag_60\n  jumpi\n    /* \"#utility.yul\":1098:1116   */\n  tag_61\n  tag_18\n  jump\t// in\ntag_61:\n    /* \"#utility.yul\":1030:1118   */\ntag_60:\n    /* \"#utility.yul\":1138:1148   */\n  dup1\n    /* \"#utility.yul\":1134:1136   */\n  0x40\n    /* \"#utility.yul\":1127:1149   */\n  mstore\n    /* \"#utility.yul\":917:1155   */\n  pop\n    /* \"#utility.yul\":874:1155   */\n  pop\n  pop\n  jump\t// out\n    /* \"#utility.yul\":1161:1290   */\ntag_20:\n    /* \"#utility.yul\":1195:1201   */\n  0x00\n    /* \"#utility.yul\":1222:1242   */\n  tag_63\n  tag_12\n  jump\t// in\ntag_63:\n    /* \"#utility.yul\":1212:1242   */\n  swap1\n  pop\n    /* \"#utility.yul\":1251:1284   */\n  tag_64\n    /* \"#utility.yul\":1279:1283   */\n  dup3\n    /* \"#utility.yul\":1271:1277   */\n  dup3\n    /* \"#utility.yul\":1251:1284   */\n  tag_19\n  jump\t// in\ntag_64:\n    /* \"#utility.yul\":1161:1290   */\n  swap2\n  swap1\n  pop\n  jump\t// out\n    /* \"#utility.yul\":1296:1604   */\ntag_21:\n    /* \"#utility.yul\":1358:1362   */\n  0x00\n    /* \"#utility.yul\":1448:1466   */\n  0xffffffffffffffff\n    /* \"#utility.yul\":1440:1446   */\n  dup3\n    /* \"#utility.yul\":1437:1467   */\n  gt\n    /* \"#utility.yul\":1434:1490   */\n  iszero\n  tag_66\n  jumpi\n    /* \"#utility.yul\":1470:1488   */\n  tag_67\n  tag_18\n  jump\t// in\ntag_67:\n    /* \"#utility.yul\":1434:1490   */\ntag_66:\n    /* \"#utility.yul\":1508:1537   */\n  tag_68\n    /* \"#utility.yul\":1530:1536   */\n  dup3\n    /* \"#utility.yul\":1508:1537   */\n  tag_17\n  jump\t// in\ntag_68:\n    /* \"#utility.yul\":1500:1537   */\n  swap1\n  pop\n    /* \"#utility.yul\":1592:1596   */\n  0x20\n    /* \"#utility.yul\":1586:1590   */\n  dup2\n    /* \"#utility.yul\":1582:1597   */\n  add\n    /* \"#utility.yul\":1574:1597   */\n  swap1\n  pop\n    /* \"#utility.yul\":1296:1604   */\n  swap2\n  swap1\n  pop\n  jump\t// out\n    /* \"#utility.yul\":1610:1856   */\ntag_22:\n    /* \"#utility.yul\":1691:1692   */\n  0x00\n    /* \"#utility.yul\":1701:1814   */\ntag_70:\n    /* \"#utility.yul\":1715:1721   */\n  dup4\n    /* \"#utility.yul\":1712:1713   */\n  dup2\n    /* \"#utility.yul\":1709:1722   */\n  lt\n    /* \"#utility.yul\":1701:1814   */\n  iszero\n  tag_72\n  jumpi\n    /* \"#utility.yul\":1800:1801   */\n  dup1\n    /* \"#utility.yul\":1795:1798   */\n  dup3\n    /* \"#utility.yul\":1791:1802   */\n  add\n    /* \"#utility.yul\":1785:1803   */\n  mload\n    /* \"#utility.yul\":1781:1782   */\n  dup2\n    /* \"#utility.yul\":1776:1779   */\n  dup5\n    /* \"#utility.yul\":1772:1783   */\n  add\n    /* \"#utility.yul\":1765:1804   */\n  mstore\n    /* \"#utility.yul\":1737:1739   */\n  0x20\n    /* \"#utility.yul\":1734:1735   */\n  dup2\n    /* \"#utility.yul\":1730:1740   */\n  add\n    /* \"#utility.yul\":1725:1740   */\n  swap1\n  pop\n    /* \"#utility.yul\":1701:1814   */\n  jump(tag_70)\ntag_72:\n    /* \"#utility.yul\":1848:1849   */\n  0x00\n    /* \"#utility.yul\":1839:1845   */\n  dup5\n    /* \"#utility.yul\":1834:1837   */\n  dup5\n    /* \"#utility.yul\":1830:1846   */\n  add\n    /* \"#utility.yul\":1823:1850   */\n  mstore\n    /* \"#utility.yul\":1672:1856   */\n  pop\n    /* \"#utility.yul\":1610:1856   */\n  pop\n  pop\n  pop\n  jump\t// out\n    /* \"#utility.yul\":1862:2296   */\ntag_23:\n    /* \"#utility.yul\":1951:1956   */\n  0x00\n    /* \"#utility.yul\":1976:2042   */\n  tag_74\n    /* \"#utility.yul\":1992:2041   */\n  tag_75\n    /* \"#utility.yul\":2034:2040   */\n  dup5\n    /* \"#utility.yul\":1992:2041   */\n  tag_21\n  jump\t// in\ntag_75:\n    /* \"#utility.yul\":1976:2042   */\n  tag_20\n  jump\t// in\ntag_74:\n    /* \"#utility.yul\":1967:2042   */\n  swap1\n  pop\n    /* \"#utility.yul\":2065:2071   */\n  dup3\n    /* \"#utility.yul\":2058:2063   */\n  dup2\n    /* \"#utility.yul\":2051:2072   */\n  mstore\n    /* \"#utility.yul\":2103:2107   */\n  0x20\n    /* \"#utility.yul\":2096:2101   */\n  dup2\n    /* \"#utility.yul\":2092:2108   */\n  add\n    /* \"#utility.yul\":2141:2144   */\n  dup5\n    /* \"#utility.yul\":2132:2138   */\n  dup5\n    /* \"#utility.yul\":2127:2130   */\n  dup5\n    /* \"#utility.yul\":2123:2139   */\n  add\n    /* \"#utility.yul\":2120:2145   */\n  gt\n    /* \"#utility.yul\":2117:2229   */\n  iszero\n  tag_76\n  jumpi\n    /* \"#utility.yul\":2148:2227   */\n  tag_77\n  tag_16\n  jump\t// in\ntag_77:\n    /* \"#utility.yul\":2117:2229   */\ntag_76:\n    /* \"#utility.yul\":2238:2290   */\n  tag_78\n    /* \"#utility.yul\":2283:2289   */\n  dup5\n    /* \"#utility.yul\":2278:2281   */\n  dup3\n    /* \"#utility.yul\":2273:2276   */\n  dup6\n    /* \"#utility.yul\":2238:2290   */\n  tag_22\n  jump\t// in\ntag_78:\n    /* \"#utility.yul\":1957:2296   */\n  pop\n    /* \"#utility.yul\":1862:2296   */\n  swap4\n  swap3\n  pop\n  pop\n  pop\n  jump\t// out\n    /* \"#utility.yul\":2316:2671   */\ntag_24:\n    /* \"#utility.yul\":2383:2388   */\n  0x00\n    /* \"#utility.yul\":2432:2435   */\n  dup3\n    /* \"#utility.yul\":2425:2429   */\n  0x1f\n    /* \"#utility.yul\":2417:2423   */\n  dup4\n    /* \"#utility.yul\":2413:2430   */\n  add\n    /* \"#utility.yul\":2409:2436   */\n  slt\n    /* \"#utility.yul\":2399:2521   */\n  tag_80\n  jumpi\n    /* \"#utility.yul\":2440:2519   */\n  tag_81\n  tag_15\n  jump\t// in\ntag_81:\n    /* \"#utility.yul\":2399:2521   */\ntag_80:\n    /* \"#utility.yul\":2550:2556   */\n  dup2\n    /* \"#utility.yul\":2544:2557   */\n  mload\n    /* \"#utility.yul\":2575:2665   */\n  tag_82\n    /* \"#utility.yul\":2661:2664   */\n  dup5\n    /* \"#utility.yul\":2653:2659   */\n  dup3\n    /* \"#utility.yul\":2646:2650   */\n  0x20\n    /* \"#utility.yul\":2638:2644   */\n  dup7\n    /* \"#utility.yul\":2634:2651   */\n  add\n    /* \"#utility.yul\":2575:2665   */\n  tag_23\n  jump\t// in\ntag_82:\n    /* \"#utility.yul\":2566:2665   */\n  swap2\n  pop\n    /* \"#utility.yul\":2389:2671   */\n  pop\n    /* \"#utility.yul\":2316:2671   */\n  swap3\n  swap2\n  pop\n  pop\n  jump\t// out\n    /* \"#utility.yul\":2677:2803   */\ntag_25:\n    /* \"#utility.yul\":2714:2721   */\n  0x00\n    /* \"#utility.yul\":2754:2796   */\n  0xffffffffffffffffffffffffffffffffffffffff\n    /* \"#utility.yul\":2747:2752   */\n  dup3\n    /* \"#utility.yul\":2743:2797   */\n  and\n    /* \"#utility.yul\":2732:2797   */\n  swap1\n  pop\n    /* \"#utility.yul\":2677:2803   */\n  swap2\n  swap1\n  pop\n  jump\t// out\n    /* \"#utility.yul\":2809:2905   */\ntag_26:\n    /* \"#utility.yul\":2846:2853   */\n  0x00\n    /* \"#utility.yul\":2875:2899   */\n  tag_85\n    /* \"#utility.yul\":2893:2898   */\n  dup3\n    /* \"#utility.yul\":2875:2899   */\n  tag_25\n  jump\t// in\ntag_85:\n    /* \"#utility.yul\":2864:2899   */\n  swap1\n  pop\n    /* \"#utility.yul\":2809:2905   */\n  swap2\n  swap1\n  pop\n  jump\t// out\n    /* \"#utility.yul\":2911:3033   */\ntag_27:\n    /* \"#utility.yul\":2984:3008   */\n  tag_87\n    /* \"#utility.yul\":3002:3007   */\n  dup2\n    /* \"#utility.yul\":2984:3008   */\n  tag_26\n  jump\t// in\ntag_87:\n    /* \"#utility.yul\":2977:2982   */\n  dup2\n    /* \"#utility.yul\":2974:3009   */\n  eq\n    /* \"#utility.yul\":2964:3027   */\n  tag_88\n  jumpi\n    /* \"#utility.yul\":3023:3024   */\n  0x00\n    /* \"#utility.yul\":3020:3021   */\n  dup1\n    /* \"#utility.yul\":3013:3025   */\n  revert\n    /* \"#utility.yul\":2964:3027   */\ntag_88:\n    /* \"#utility.yul\":2911:3033   */\n  pop\n  jump\t// out\n    /* \"#utility.yul\":3039:3182   */\ntag_28:\n    /* \"#utility.yul\":3096:3101   */\n  0x00\n    /* \"#utility.yul\":3127:3133   */\n  dup2\n    /* \"#utility.yul\":3121:3134   */\n  mload\n    /* \"#utility.yul\":3112:3134   */\n  swap1\n  pop\n    /* \"#utility.yul\":3143:3176   */\n  tag_90\n    /* \"#utility.yul\":3170:3175   */\n  dup2\n    /* \"#utility.yul\":3143:3176   */\n  tag_27\n  jump\t// in\ntag_90:\n    /* \"#utility.yul\":3039:3182   */\n  swap3\n  swap2\n  pop\n  pop\n  jump\t// out\n    /* \"#utility.yul\":3188:3265   */\ntag_29:\n    /* \"#utility.yul\":3225:3232   */\n  0x00\n    /* \"#utility.yul\":3254:3259   */\n  dup2\n    /* \"#utility.yul\":3243:3259   */\n  swap1\n  pop\n    /* \"#utility.yul\":3188:3265   */\n  swap2\n  swap1\n  pop\n  jump\t// out\n    /* \"#utility.yul\":3271:3393   */\ntag_30:\n    /* \"#utility.yul\":3344:3368   */\n  tag_93\n    /* \"#utility.yul\":3362:3367   */\n  dup2\n    /* \"#utility.yul\":3344:3368   */\n  tag_29\n  jump\t// in\ntag_93:\n    /* \"#utility.yul\":3337:3342   */\n  dup2\n    /* \"#utility.yul\":3334:3369   */\n  eq\n    /* \"#utility.yul\":3324:3387   */\n  tag_94\n  jumpi\n    /* \"#utility.yul\":3383:3384   */\n  0x00\n    /* \"#utility.yul\":3380:3381   */\n  dup1\n    /* \"#utility.yul\":3373:3385   */\n  revert\n    /* \"#utility.yul\":3324:3387   */\ntag_94:\n    /* \"#utility.yul\":3271:3393   */\n  pop\n  jump\t// out\n    /* \"#utility.yul\":3399:3542   */\ntag_31:\n    /* \"#utility.yul\":3456:3461   */\n  0x00\n    /* \"#utility.yul\":3487:3493   */\n  dup2\n    /* \"#utility.yul\":3481:3494   */\n  mload\n    /* \"#utility.yul\":3472:3494   */\n  swap1\n  pop\n    /* \"#utility.yul\":3503:3536   */\n  tag_96\n    /* \"#utility.yul\":3530:3535   */\n  dup2\n    /* \"#utility.yul\":3503:3536   */\n  tag_30\n  jump\t// in\ntag_96:\n    /* \"#utility.yul\":3399:3542   */\n  swap3\n  swap2\n  pop\n  pop\n  jump\t// out\n    /* \"#utility.yul\":3548:5028   */\ntag_3:\n    /* \"#utility.yul\":3683:3689   */\n  0x00\n    /* \"#utility.yul\":3691:3697   */\n  dup1\n    /* \"#utility.yul\":3699:3705   */\n  0x00\n    /* \"#utility.yul\":3707:3713   */\n  dup1\n    /* \"#utility.yul\":3715:3721   */\n  0x00\n    /* \"#utility.yul\":3723:3729   */\n  dup1\n    /* \"#utility.yul\":3772:3775   */\n  0xc0\n    /* \"#utility.yul\":3760:3769   */\n  dup8\n    /* \"#utility.yul\":3751:3758   */\n  dup10\n    /* \"#utility.yul\":3747:3770   */\n  sub\n    /* \"#utility.yul\":3743:3776   */\n  slt\n    /* \"#utility.yul\":3740:3860   */\n  iszero\n  tag_98\n  jumpi\n    /* \"#utility.yul\":3779:3858   */\n  tag_99\n  tag_13\n  jump\t// in\ntag_99:\n    /* \"#utility.yul\":3740:3860   */\ntag_98:\n    /* \"#utility.yul\":3920:3921   */\n  0x00\n    /* \"#utility.yul\":3909:3918   */\n  dup8\n    /* \"#utility.yul\":3905:3922   */\n  add\n    /* \"#utility.yul\":3899:3923   */\n  mload\n    /* \"#utility.yul\":3950:3968   */\n  0xffffffffffffffff\n    /* \"#utility.yul\":3942:3948   */\n  dup2\n    /* \"#utility.yul\":3939:3969   */\n  gt\n    /* \"#utility.yul\":3936:4053   */\n  iszero\n  tag_100\n  jumpi\n    /* \"#utility.yul\":3972:4051   */\n  tag_101\n  tag_14\n  jump\t// in\ntag_101:\n    /* \"#utility.yul\":3936:4053   */\ntag_100:\n    /* \"#utility.yul\":4077:4151   */\n  tag_102\n    /* \"#utility.yul\":4143:4150   */\n  dup10\n    /* \"#utility.yul\":4134:4140   */\n  dup3\n    /* \"#utility.yul\":4123:4132   */\n  dup11\n    /* \"#utility.yul\":4119:4141   */\n  add\n    /* \"#utility.yul\":4077:4151   */\n  tag_24\n  jump\t// in\ntag_102:\n    /* \"#utility.yul\":4067:4151   */\n  swap7\n  pop\n    /* \"#utility.yul\":3870:4161   */\n  pop\n    /* \"#utility.yul\":4221:4223   */\n  0x20\n    /* \"#utility.yul\":4210:4219   */\n  dup8\n    /* \"#utility.yul\":4206:4224   */\n  add\n    /* \"#utility.yul\":4200:4225   */\n  mload\n    /* \"#utility.yul\":4252:4270   */\n  0xffffffffffffffff\n    /* \"#utility.yul\":4244:4250   */\n  dup2\n    /* \"#utility.yul\":4241:4271   */\n  gt\n    /* \"#utility.yul\":4238:4355   */\n  iszero\n  tag_103\n  jumpi\n    /* \"#utility.yul\":4274:4353   */\n  tag_104\n  tag_14\n  jump\t// in\ntag_104:\n    /* \"#utility.yul\":4238:4355   */\ntag_103:\n    /* \"#utility.yul\":4379:4453   */\n  tag_105\n    /* \"#utility.yul\":4445:4452   */\n  dup10\n    /* \"#utility.yul\":4436:4442   */\n  dup3\n    /* \"#utility.yul\":4425:4434   */\n  dup11\n    /* \"#utility.yul\":4421:4443   */\n  add\n    /* \"#utility.yul\":4379:4453   */\n  tag_24\n  jump\t// in\ntag_105:\n    /* \"#utility.yul\":4369:4453   */\n  swap6\n  pop\n    /* \"#utility.yul\":4171:4463   */\n  pop\n    /* \"#utility.yul\":4502:4504   */\n  0x40\n    /* \"#utility.yul\":4528:4592   */\n  tag_106\n    /* \"#utility.yul\":4584:4591   */\n  dup10\n    /* \"#utility.yul\":4575:4581   */\n  dup3\n    /* \"#utility.yul\":4564:4573   */\n  dup11\n    /* \"#utility.yul\":4560:4582   */\n  add\n    /* \"#utility.yul\":4528:4592   */\n  tag_28\n  jump\t// in\ntag_106:\n    /* \"#utility.yul\":4518:4592   */\n  swap5\n  pop\n    /* \"#utility.yul\":4473:4602   */\n  pop\n    /* \"#utility.yul\":4641:4643   */\n  0x60\n    /* \"#utility.yul\":4667:4731   */\n  tag_107\n    /* \"#utility.yul\":4723:4730   */\n  dup10\n    /* \"#utility.yul\":4714:4720   */\n  dup3\n    /* \"#utility.yul\":4703:4712   */\n  dup11\n    /* \"#utility.yul\":4699:4721   */\n  add\n    /* \"#utility.yul\":4667:4731   */\n  tag_28\n  jump\t// in\ntag_107:\n    /* \"#utility.yul\":4657:4731   */\n  swap4\n  pop\n    /* \"#utility.yul\":4612:4741   */\n  pop\n    /* \"#utility.yul\":4780:4783   */\n  0x80\n    /* \"#utility.yul\":4807:4871   */\n  tag_108\n    /* \"#utility.yul\":4863:4870   */\n  dup10\n    /* \"#utility.yul\":4854:4860   */\n  dup3\n    /* \"#utility.yul\":4843:4852   */\n  dup11\n    /* \"#utility.yul\":4839:4861   */\n  add\n    /* \"#utility.yul\":4807:4871   */\n  tag_31\n  jump\t// in\ntag_108:\n    /* \"#utility.yul\":4797:4871   */\n  swap3\n  pop\n    /* \"#utility.yul\":4751:4881   */\n  pop\n    /* \"#utility.yul\":4920:4923   */\n  0xa0\n    /* \"#utility.yul\":4947:5011   */\n  tag_109\n    /* \"#utility.yul\":5003:5010   */\n  dup10\n    /* \"#utility.yul\":4994:5000   */\n  dup3\n    /* \"#utility.yul\":4983:4992   */\n  dup11\n    /* \"#utility.yul\":4979:5001   */\n  add\n    /* \"#utility.yul\":4947:5011   */\n  tag_31\n  jump\t// in\ntag_109:\n    /* \"#utility.yul\":4937:5011   */\n  swap2\n  pop\n    /* \"#utility.yul\":4891:5021   */\n  pop\n    /* \"#utility.yul\":3548:5028   */\n  swap3\n  swap6\n  pop\n  swap3\n  swap6\n  pop\n  swap3\n  swap6\n  jump\t// out\n    /* \"#utility.yul\":5034:5133   */\ntag_32:\n    /* \"#utility.yul\":5086:5092   */\n  0x00\n    /* \"#utility.yul\":5120:5125   */\n  dup2\n    /* \"#utility.yul\":5114:5126   */\n  mload\n    /* \"#utility.yul\":5104:5126   */\n  swap1\n  pop\n    /* \"#utility.yul\":5034:5133   */\n  swap2\n  swap1\n  pop\n  jump\t// out\n    /* \"#utility.yul\":5139:5319   */\ntag_33:\n    /* \"#utility.yul\":5187:5264   */\n  0x4e487b7100000000000000000000000000000000000000000000000000000000\n    /* \"#utility.yul\":5184:5185   */\n  0x00\n    /* \"#utility.yul\":5177:5265   */\n  mstore\n    /* \"#utility.yul\":5284:5288   */\n  0x22\n    /* \"#utility.yul\":5281:5282   */\n  0x04\n    /* \"#utility.yul\":5274:5289   */\n  mstore\n    /* \"#utility.yul\":5308:5312   */\n  0x24\n    /* \"#utility.yul\":5305:5306   */\n  0x00\n    /* \"#utility.yul\":5298:5313   */\n  revert\n    /* \"#utility.yul\":5325:5645   */\ntag_34:\n    /* \"#utility.yul\":5369:5375   */\n  0x00\n    /* \"#utility.yul\":5406:5407   */\n  0x02\n    /* \"#utility.yul\":5400:5404   */\n  dup3\n    /* \"#utility.yul\":5396:5408   */\n  div\n    /* \"#utility.yul\":5386:5408   */\n  swap1\n  pop\n    /* \"#utility.yul\":5453:5454   */\n  0x01\n    /* \"#utility.yul\":5447:5451   */\n  dup3\n    /* \"#utility.yul\":5443:5455   */\n  and\n    /* \"#utility.yul\":5474:5492   */\n  dup1\n    /* \"#utility.yul\":5464:5545   */\n  tag_113\n  jumpi\n    /* \"#utility.yul\":5530:5534   */\n  0x7f\n    /* \"#utility.yul\":5522:5528   */\n  dup3\n    /* \"#utility.yul\":5518:5535   */\n  and\n    /* \"#utility.yul\":5508:5535   */\n  swap2\n  pop\n    /* \"#utility.yul\":5464:5545   */\ntag_113:\n    /* \"#utility.yul\":5592:5594   */\n  0x20\n    /* \"#utility.yul\":5584:5590   */\n  dup3\n    /* \"#utility.yul\":5581:5595   */\n  lt\n    /* \"#utility.yul\":5561:5579   */\n  dup2\n    /* \"#utility.yul\":5558:5596   */\n  sub\n    /* \"#utility.yul\":5555:5639   */\n  tag_114\n  jumpi\n    /* \"#utility.yul\":5611:5629   */\n  tag_115\n  tag_33\n  jump\t// in\ntag_115:\n    /* \"#utility.yul\":5555:5639   */\ntag_114:\n    /* \"#utility.yul\":5376:5645   */\n  pop\n    /* \"#utility.yul\":5325:5645   */\n  swap2\n  swap1\n  pop\n  jump\t// out\n    /* \"#utility.yul\":5651:5792   */\ntag_35:\n    /* \"#utility.yul\":5700:5704   */\n  0x00\n    /* \"#utility.yul\":5723:5726   */\n  dup2\n    /* \"#utility.yul\":5715:5726   */\n  swap1\n  pop\n    /* \"#utility.yul\":5746:5749   */\n  dup2\n    /* \"#utility.yul\":5743:5744   */\n  0x00\n    /* \"#utility.yul\":5736:5750   */\n  mstore\n    /* \"#utility.yul\":5780:5784   */\n  0x20\n    /* \"#utility.yul\":5777:5778   */\n  0x00\n    /* \"#utility.yul\":5767:5785   */\n  keccak256\n    /* \"#utility.yul\":5759:5785   */\n  swap1\n  pop\n    /* \"#utility.yul\":5651:5792   */\n  swap2\n  swap1\n  pop\n  jump\t// out\n    /* \"#utility.yul\":5798:5891   */\ntag_36:\n    /* \"#utility.yul\":5835:5841   */\n  0x00\n    /* \"#utility.yul\":5882:5884   */\n  0x20\n    /* \"#utility.yul\":5877:5879   */\n  0x1f\n    /* \"#utility.yul\":5870:5875   */\n  dup4\n    /* \"#utility.yul\":5866:5880   */\n  add\n    /* \"#utility.yul\":5862:5885   */\n  div\n    /* \"#utility.yul\":5852:5885   */\n  swap1\n  pop\n    /* \"#utility.yul\":5798:5891   */\n  swap2\n  swap1\n  pop\n  jump\t// out\n    /* \"#utility.yul\":5897:6004   */\ntag_37:\n    /* \"#utility.yul\":5941:5949   */\n  0x00\n    /* \"#utility.yul\":5991:5996   */\n  dup3\n    /* \"#utility.yul\":5985:5989   */\n  dup3\n    /* \"#utility.yul\":5981:5997   */\n  shl\n    /* \"#utility.yul\":5960:5997   */\n  swap1\n  pop\n    /* \"#utility.yul\":5897:6004   */\n  swap3\n  swap2\n  pop\n  pop\n  jump\t// out\n    /* \"#utility.yul\":6010:6403   */\ntag_38:\n    /* \"#utility.yul\":6079:6085   */\n  0x00\n    /* \"#utility.yul\":6129:6130   */\n  0x08\n    /* \"#utility.yul\":6117:6127   */\n  dup4\n    /* \"#utility.yul\":6113:6131   */\n  mul\n    /* \"#utility.yul\":6152:6249   */\n  tag_120\n    /* \"#utility.yul\":6182:6248   */\n  0xffffffffffffffffffffffffffffffffffffffffffffffffffffffffffffffff\n    /* \"#utility.yul\":6171:6180   */\n  dup3\n    /* \"#utility.yul\":6152:6249   */\n  tag_37\n  jump\t// in\ntag_120:\n    /* \"#utility.yul\":6270:6309   */\n  tag_121\n    /* \"#utility.yul\":6300:6308   */\n  dup7\n    /* \"#utility.yul\":6289:6298   */\n  dup4\n    /* \"#utility.yul\":6270:6309   */\n  tag_37\n  jump\t// in\ntag_121:\n    /* \"#utility.yul\":6258:6309   */\n  swap6\n  pop\n    /* \"#utility.yul\":6342:6346   */\n  dup1\n    /* \"#utility.yul\":6338:6347   */\n  not\n    /* \"#utility.yul\":6331:6336   */\n  dup5\n    /* \"#utility.yul\":6327:6348   */\n  and\n    /* \"#utility.yul\":6318:6348   */\n  swap4\n  pop\n    /* \"#utility.yul\":6391:6395   */\n  dup1\n    /* \"#utility.yul\":6381:6389   */\n  dup7\n    /* \"#utility.yul\":6377:6396   */\n  and\n    /* \"#utility.yul\":6370:6375   */\n  dup5\n    /* \"#utility.yul\":6367:6397   */\n  or\n    /* \"#utility.yul\":6357:6397   */\n  swap3\n  pop\n    /* \"#utility.yul\":6086:6403   */\n  pop\n  pop\n    /* \"#utility.yul\":6010:6403   */\n  swap4\n  swap3\n  pop\n  pop\n  pop\n  jump\t// out\n    /* \"#utility.yul\":6409:6469   */\ntag_39:\n    /* \"#utility.yul\":6437:6440   */\n  0x00\n    /* \"#utility.yul\":6458:6463   */\n  dup2\n    /* \"#utility.yul\":6451:6463   */\n  swap1\n  pop\n    /* \"#utility.yul\":6409:6469   */\n  swap2\n  swap1\n  pop\n  jump\t// out\n    /* \"#utility.yul\":6475:6617   */\ntag_40:\n    /* \"#utility.yul\":6525:6534   */\n  0x00\n    /* \"#utility.yul\":6558:6611   */\n  tag_124\n    /* \"#utility.yul\":6576:6610   */\n  tag_125\n    /* \"#utility.yul\":6585:6609   */\n  tag_126\n    /* \"#utility.yul\":6603:6608   */\n  dup5\n    /* \"#utility.yul\":6585:6609   */\n  tag_29\n  jump\t// in\ntag_126:\n    /* \"#utility.yul\":6576:6610   */\n  tag_39\n  jump\t// in\ntag_125:\n    /* \"#utility.yul\":6558:6611   */\n  tag_29\n  jump\t// in\ntag_124:\n    /* \"#utility.yul\":6545:6611   */\n  swap1\n  pop\n    /* \"#utility.yul\":6475:6617   */\n  swap2\n  swap1\n  pop\n  jump\t// out\n    /* \"#utility.yul\":6623:6698   */\ntag_41:\n    /* \"#utility.yul\":6666:6669   */\n  0x00\n    /* \"#utility.yul\":6687:6692   */\n  dup2\n    /* \"#utility.yul\":6680:6692   */\n  swap1\n  pop\n    /* \"#utility.yul\":6623:6698   */\n  swap2\n  swap1\n  pop\n  jump\t// out\n    /* \"#utility.yul\":6704:6973   */\ntag_42:\n    /* \"#utility.yul\":6814:6853   */\n  tag_129\n    /* \"#utility.yul\":6845:6852   */\n  dup4\n    /* \"#utility.yul\":6814:6853   */\n  tag_40\n  jump\t// in\ntag_129:\n    /* \"#utility.yul\":6875:6966   */\n  tag_130\n    /* \"#utility.yul\":6924:6965   */\n  tag_131\n    /* \"#utility.yul\":6948:6964   */\n  dup3\n    /* \"#utility.yul\":6924:6965   */\n  tag_41\n  jump\t// in\ntag_131:\n    /* \"#utility.yul\":6916:6922   */\n  dup5\n    /* \"#utility.yul\":6909:6913   */\n  dup5\n    /* \"#utility.yul\":6903:6914   */\n  sload\n    /* \"#utility.yul\":6875:6966   */\n  tag_38\n  jump\t// in\ntag_130:\n    /* \"#utility.yul\":6869:6873   */\n  dup3\n    /* \"#utility.yul\":6862:6967   */\n  sstore\n    /* \"#utility.yul\":6780:6973   */\n  pop\n    /* \"#utility.yul\":6704:6973   */\n  pop\n  pop\n  pop\n  jump\t// out\n    /* \"#utility.yul\":6979:7052   */\ntag_43:\n    /* \"#utility.yul\":7024:7027   */\n  0x00\n    /* \"#utility.yul\":6979:7052   */\n  swap1\n  jump\t// out\n    /* \"#utility.yul\":7058:7247   */\ntag_44:\n    /* \"#utility.yul\":7135:7167   */\n  tag_134\n  tag_43\n  jump\t// in\ntag_134:\n    /* \"#utility.yul\":7176:7241   */\n  tag_135\n    /* \"#utility.yul\":7234:7240   */\n  dup2\n    /* \"#utility.yul\":7226:7232   */\n  dup5\n    /* \"#utility.yul\":7220:7224   */\n  dup5\n    /* \"#utility.yul\":7176:7241   */\n  tag_42\n  jump\t// in\ntag_135:\n    /* \"#utility.yul\":7111:7247   */\n  pop\n    /* \"#utility.yul\":7058:7247   */\n  pop\n  pop\n  jump\t// out\n    /* \"#utility.yul\":7253:7439   */\ntag_45:\n    /* \"#utility.yul\":7313:7433   */\ntag_137:\n    /* \"#utility.yul\":7330:7333   */\n  dup2\n    /* \"#utility.yul\":7323:7328   */\n  dup2\n    /* \"#utility.yul\":7320:7334   */\n  lt\n    /* \"#utility.yul\":7313:7433   */\n  iszero\n  tag_139\n  jumpi\n    /* \"#utility.yul\":7384:7423   */\n  tag_140\n    /* \"#utility.yul\":7421:7422   */\n  0x00\n    /* \"#utility.yul\":7414:7419   */\n  dup3\n    /* \"#utility.yul\":7384:7423   */\n  tag_44\n  jump\t// in\ntag_140:\n    /* \"#utility.yul\":7357:7358   */\n  0x01\n    /* \"#utility.yul\":7350:7355   */\n  dup2\n    /* \"#utility.yul\":7346:7359   */\n  add\n    /* \"#utility.yul\":7337:7359   */\n  swap1\n  pop\n    /* \"#utility.yul\":7313:7433   */\n  jump(tag_137)\ntag_139:\n    /* \"#utility.yul\":7253:7439   */\n  pop\n  pop\n  jump\t// out\n    /* \"#utility.yul\":7445:7988   */\ntag_46:\n    /* \"#utility.yul\":7546:7548   */\n  0x1f\n    /* \"#utility.yul\":7541:7544   */\n  dup3\n    /* \"#utility.yul\":7538:7549   */\n  gt\n    /* \"#utility.yul\":7535:7981   */\n  iszero\n  tag_142\n  jumpi\n    /* \"#utility.yul\":7580:7618   */\n  tag_143\n    /* \"#utility.yul\":7612:7617   */\n  dup2\n    /* \"#utility.yul\":7580:7618   */\n  tag_35\n  jump\t// in\ntag_143:\n    /* \"#utility.yul\":7664:7693   */\n  tag_144\n    /* \"#utility.yul\":7682:7692   */\n  dup5\n    /* \"#utility.yul\":7664:7693   */\n  tag_36\n  jump\t// in\ntag_144:\n    /* \"#utility.yul\":7654:7662   */\n  dup2\n    /* \"#utility.yul\":7650:7694   */\n  add\n    /* \"#utility.yul\":7847:7849   */\n  0x20\n    /* \"#utility.yul\":7835:7845   */\n  dup6\n    /* \"#utility.yul\":7832:7850   */\n  lt\n    /* \"#utility.yul\":7829:7878   */\n  iszero\n  tag_145\n  jumpi\n    /* \"#utility.yul\":7868:7876   */\n  dup2\n    /* \"#utility.yul\":7853:7876   */\n  swap1\n  pop\n    /* \"#utility.yul\":7829:7878   */\ntag_145:\n    /* \"#utility.yul\":7891:7971   */\n  tag_146\n    /* \"#utility.yul\":7947:7969   */\n  tag_147\n    /* \"#utility.yul\":7965:7968   */\n  dup6\n    /* \"#utility.yul\":7947:7969   */\n  tag_36\n  jump\t// in\ntag_147:\n    /* \"#utility.yul\":7937:7945   */\n  dup4\n    /* \"#utility.yul\":7933:7970   */\n  add\n    /* \"#utility.yul\":7920:7931   */\n  dup3\n    /* \"#utility.yul\":7891:7971   */\n  tag_45\n  jump\t// in\ntag_146:\n    /* \"#utility.yul\":7550:7981   */\n  pop\n  pop\n    /* \"#utility.yul\":7535:7981   */\ntag_142:\n    /* \"#utility.yul\":7445:7988   */\n  pop\n  pop\n  pop\n  jump\t// out\n    /* \"#utility.yul\":7994:8111   */\ntag_47:\n    /* \"#utility.yul\":8048:8056   */\n  0x00\n    /* \"#utility.yul\":8098:8103   */\n  dup3\n    /* \"#utility.yul\":8092:8096   */\n  dup3\n    /* \"#utility.yul\":8088:8104   */\n  shr\n    /* \"#utility.yul\":8067:8104   */\n  swap1\n  pop\n    /* \"#utility.yul\":7994:8111   */\n  swap3\n  swap2\n  pop\n  pop\n  jump\t// out\n    /* \"#utility.yul\":8117:8286   */\ntag_48:\n    /* \"#utility.yul\":8161:8167   */\n  0x00\n    /* \"#utility.yul\":8194:8245   */\n  tag_150\n    /* \"#utility.yul\":8242:8243   */\n  0x00\n    /* \"#utility.yul\":8238:8244   */\n  not\n    /* \"#utility.yul\":8230:8235   */\n  dup5\n    /* \"#utility.yul\":8227:8228   */\n  0x08\n    /* \"#utility.yul\":8223:8236   */\n  mul\n    /* \"#utility.yul\":8194:8245   */\n  tag_47\n  jump\t// in\ntag_150:\n    /* \"#utility.yul\":8190:8246   */\n  not\n    /* \"#utility.yul\":8275:8279   */\n  dup1\n    /* \"#utility.yul\":8269:8273   */\n  dup4\n    /* \"#utility.yul\":8265:8280   */\n  and\n    /* \"#utility.yul\":8255:8280   */\n  swap2\n  pop\n    /* \"#utility.yul\":8168:8286   */\n  pop\n    /* \"#utility.yul\":8117:8286   */\n  swap3\n  swap2\n  pop\n  pop\n  jump\t// out\n    /* \"#utility.yul\":8291:8586   */\ntag_49:\n    /* \"#utility.yul\":8367:8371   */\n  0x00\n    /* \"#utility.yul\":8513:8542   */\n  tag_152\n    /* \"#utility.yul\":8538:8541   */\n  dup4\n    /* \"#utility.yul\":8532:8536   */\n  dup4\n    /* \"#utility.yul\":8513:8542   */\n  tag_48\n  jump\t// in\ntag_152:\n    /* \"#utility.yul\":8505:8542   */\n  swap2\n  pop\n    /* \"#utility.yul\":8575:8578   */\n  dup3\n    /* \"#utility.yul\":8572:8573   */\n  0x02\n    /* \"#utility.yul\":8568:8579   */\n  mul\n    /* \"#utility.yul\":8562:8566   */\n  dup3\n    /* \"#utility.yul\":8559:8580   */\n  or\n    /* \"#utility.yul\":8551:8580   */\n  swap1\n  pop\n    /* \"#utility.yul\":8291:8586   */\n  swap3\n  swap2\n  pop\n  pop\n  jump\t// out\n    /* \"#utility.yul\":8591:9986   */\ntag_9:\n    /* \"#utility.yul\":8708:8745   */\n  tag_154\n    /* \"#utility.yul\":8741:8744   */\n  dup3\n    /* \"#utility.yul\":8708:8745   */\n  tag_32\n  jump\t// in\ntag_154:\n    /* \"#utility.yul\":8810:8828   */\n  0xffffffffffffffff\n    /* \"#utility.yul\":8802:8808   */\n  dup2\n    /* \"#utility.yul\":8799:8829   */\n  gt\n    /* \"#utility.yul\":8796:8852   */\n  iszero\n  tag_155\n  jumpi\n    /* \"#utility.yul\":8832:8850   */\n  tag_156\n  tag_18\n  jump\t// in\ntag_156:\n    /* \"#utility.yul\":8796:8852   */\ntag_155:\n    /* \"#utility.yul\":8876:8914   */\n  tag_157\n    /* \"#utility.yul\":8908:8912   */\n  dup3\n    /* \"#utility.yul\":8902:8913   */\n  sload\n    /* \"#utility.yul\":8876:8914   */\n  tag_34\n  jump\t// in\ntag_157:\n    /* \"#utility.yul\":8961:9028   */\n  tag_158\n    /* \"#utility.yul\":9021:9027   */\n  dup3\n    /* \"#utility.yul\":9013:9019   */\n  dup3\n    /* \"#utility.yul\":9007:9011   */\n  dup6\n    /* \"#utility.yul\":8961:9028   */\n  tag_46\n  jump\t// in\ntag_158:\n    /* \"#utility.yul\":9055:9056   */\n  0x00\n    /* \"#utility.yul\":9079:9083   */\n  0x20\n    /* \"#utility.yul\":9066:9083   */\n  swap1\n  pop\n    /* \"#utility.yul\":9111:9113   */\n  0x1f\n    /* \"#utility.yul\":9103:9109   */\n  dup4\n    /* \"#utility.yul\":9100:9114   */\n  gt\n    /* \"#utility.yul\":9128:9129   */\n  0x01\n    /* \"#utility.yul\":9123:9741   */\n  dup2\n  eq\n  tag_160\n  jumpi\n    /* \"#utility.yul\":9785:9786   */\n  0x00\n    /* \"#utility.yul\":9802:9808   */\n  dup5\n    /* \"#utility.yul\":9799:9876   */\n  iszero\n  tag_161\n  jumpi\n    /* \"#utility.yul\":9851:9860   */\n  dup3\n    /* \"#utility.yul\":9846:9849   */\n  dup8\n    /* \"#utility.yul\":9842:9861   */\n  add\n    /* \"#utility.yul\":9836:9862   */\n  mload\n    /* \"#utility.yul\":9827:9862   */\n  swap1\n  pop\n    /* \"#utility.yul\":9799:9876   */\ntag_161:\n    /* \"#utility.yul\":9902:9969   */\n  tag_162\n    /* \"#utility.yul\":9962:9968   */\n  dup6\n    /* \"#utility.yul\":9955:9960   */\n  dup3\n    /* \"#utility.yul\":9902:9969   */\n  tag_49\n  jump\t// in\ntag_162:\n    /* \"#utility.yul\":9896:9900   */\n  dup7\n    /* \"#utility.yul\":9889:9970   */\n  sstore\n    /* \"#utility.yul\":9758:9980   */\n  pop\n    /* \"#utility.yul\":9093:9980   */\n  jump(tag_159)\n    /* \"#utility.yul\":9123:9741   */\ntag_160:\n    /* \"#utility.yul\":9175:9179   */\n  0x1f\n    /* \"#utility.yul\":9171:9180   */\n  not\n    /* \"#utility.yul\":9163:9169   */\n  dup5\n    /* \"#utility.yul\":9159:9181   */\n  and\n    /* \"#utility.yul\":9209:9246   */\n  tag_163\n    /* \"#utility.yul\":9241:9245   */\n  dup7\n    /* \"#utility.yul\":9209:9246   */\n  tag_35\n  jump\t// in\ntag_163:\n    /* \"#utility.yul\":9268:9269   */\n  0x00\n    /* \"#utility.yul\":9282:9490   */\ntag_164:\n    /* \"#utility.yul\":9296:9303   */\n  dup3\n    /* \"#utility.yul\":9293:9294   */\n  dup2\n    /* \"#utility.yul\":9290:9304   */\n  lt\n    /* \"#utility.yul\":9282:9490   */\n  iszero\n  tag_166\n  jumpi\n    /* \"#utility.yul\":9375:9384   */\n  dup5\n    /* \"#utility.yul\":9370:9373   */\n  dup10\n    /* \"#utility.yul\":9366:9385   */\n  add\n    /* \"#utility.yul\":9360:9386   */\n  mload\n    /* \"#utility.yul\":9352:9358   */\n  dup3\n    /* \"#utility.yul\":9345:9387   */\n  sstore\n    /* \"#utility.yul\":9426:9427   */\n  0x01\n    /* \"#utility.yul\":9418:9424   */\n  dup3\n    /* \"#utility.yul\":9414:9428   */\n  add\n    /* \"#utility.yul\":9404:9428   */\n  swap2\n  pop\n    /* \"#utility.yul\":9473:9475   */\n  0x20\n    /* \"#utility.yul\":9462:9471   */\n  dup6\n    /* \"#utility.yul\":9458:9476   */\n  add\n    /* \"#utility.yul\":9445:9476   */\n  swap5\n  pop\n    /* \"#utility.yul\":9319:9323   */\n  0x20\n    /* \"#utility.yul\":9316:9317   */\n  dup2\n    /* \"#utility.yul\":9312:9324   */\n  add\n    /* \"#utility.yul\":9307:9324   */\n  swap1\n  pop\n    /* \"#utility.yul\":9282:9490   */\n  jump(tag_164)\ntag_166:\n    /* \"#utility.yul\":9518:9524   */\n  dup7\n    /* \"#utility.yul\":9509:9516   */\n  dup4\n    /* \"#utility.yul\":9506:9525   */\n  lt\n    /* \"#utility.yul\":9503:9682   */\n  iszero\n  tag_167\n  jumpi\n    /* \"#utility.yul\":9576:9585   */\n  dup5\n    /* \"#utility.yul\":9571:9574   */\n  dup10\n    /* \"#utility.yul\":9567:9586   */\n  add\n    /* \"#utility.yul\":9561:9587   */\n  mload\n    /* \"#utility.yul\":9619:9667   */\n  tag_168\n    /* \"#utility.yul\":9661:9665   */\n  0x1f\n    /* \"#utility.yul\":9653:9659   */\n  dup10\n    /* \"#utility.yul\":9649:9666   */\n  and\n    /* \"#utility.yul\":9638:9647   */\n  dup3\n    /* \"#utility.yul\":9619:9667   */\n  tag_48\n  jump\t// in\ntag_168:\n    /* \"#utility.yul\":9611:9617   */\n  dup4\n    /* \"#utility.yul\":9604:9668   */\n  sstore\n    /* \"#utility.yul\":9526:9682   */\n  pop\n    /* \"#utility.yul\":9503:9682   */\ntag_167:\n    /* \"#utility.yul\":9728:9729   */\n  0x01\n    /* \"#utility.yul\":9724:9725   */\n  0x02\n    /* \"#utility.yul\":9716:9722   */\n  dup9\n    /* \"#utility.yul\":9712:9726   */\n  mul\n    /* \"#utility.yul\":9708:9730   */\n  add\n    /* \"#utility.yul\":9702:9706   */\n  dup9\n    /* \"#utility.yul\":9695:9731   */\n  sstore\n    /* \"#utility.yul\":9130:9741   */\n  pop\n  pop\n  pop\n    /* \"#utility.yul\":9093:9980   */\ntag_159:\n  pop\n    /* \"#utility.yul\":8683:9986   */\n  pop\n  pop\n  pop\n    /* \"#utility.yul\":8591:9986   */\n  pop\n  pop\n  jump\t// out\n    /* \"smart contract/SwapCryptoLoanUpdate/contracts/facets/MartgptCoin.sol\":239:7892  contract MartGPTToken is Context, Ownable {... */\ntag_11:\n  dataSize(sub_0)\n  dup1\n  dataOffset(sub_0)\n  0x00\n  codecopy\n  0x00\n  return\nstop\n\nsub_0: assembly {\n        /* \"smart contract/SwapCryptoLoanUpdate/contracts/facets/MartgptCoin.sol\":239:7892  contract MartGPTToken is Context, Ownable {... */\n      mstore(0x40, 0x80)\n      callvalue\n      dup1\n      iszero\n      tag_1\n      jumpi\n      0x00\n      dup1\n      revert\n    tag_1:\n      pop\n      jumpi(tag_2, lt(calldatasize, 0x04))\n      shr(0xe0, calldataload(0x00))\n      dup1\n      0x70a08231\n      gt\n      tag_23\n      jumpi\n      dup1\n      0x95d89b41\n      gt\n      tag_24\n      jumpi\n      dup1\n      0x95d89b41\n      eq\n      tag_18\n      jumpi\n      dup1\n      0xa457c2d7\n      eq\n      tag_19\n      jumpi\n      dup1\n      0xa9059cbb\n      eq\n      tag_20\n      jumpi\n      dup1\n      0xdd62ed3e\n      eq\n      tag_21\n      jumpi\n      dup1\n      0xf2fde38b\n      eq\n      tag_22\n      jumpi\n      jump(tag_2)\n    tag_24:\n      dup1\n      0x70a08231\n      eq\n      tag_13\n      jumpi\n      dup1\n      0x715018a6\n      eq\n      tag_14\n      jumpi\n      dup1\n      0x79cc6790\n      eq\n      tag_15\n      jumpi\n      dup1\n      0x8da5cb5b\n      eq\n      tag_16\n      jumpi\n      dup1\n      0x8f32d59b\n      eq\n      tag_17\n      jumpi\n      jump(tag_2)\n    tag_23:\n      dup1\n      0x313ce567\n      gt\n      tag_25\n      jumpi\n      dup1\n      0x313ce567\n      eq\n      tag_8\n      jumpi\n      dup1\n      0x334b93f0\n      eq\n      tag_9\n      jumpi\n      dup1\n      0x39509351\n      eq\n      tag_10\n      jumpi\n      dup1\n      0x42966c68\n      eq\n      tag_11\n      jumpi\n      dup1\n      0x641a21f3\n      eq\n      tag_12\n      jumpi\n      jump(tag_2)\n    tag_25:\n      dup1\n      0x06fdde03\n      eq\n      tag_3\n      jumpi\n      dup1\n      0x074742fd\n      eq\n      tag_4\n      jumpi\n      dup1\n      0x095ea7b3\n      eq\n      tag_5\n      jumpi\n      dup1\n      0x18160ddd\n      eq\n      tag_6\n      jumpi\n      dup1\n      0x23b872dd\n      eq\n      tag_7\n      jumpi\n    tag_2:\n      0x00\n      dup1\n      revert\n        /* \"smart contract/SwapCryptoLoanUpdate/contracts/facets/MartgptCoin.sol\":1492:1581  function name() public view virtual returns (string memory) {... */\n    tag_3:\n      tag_26\n      tag_27\n      jump\t// in\n    tag_26:\n      mload(0x40)\n      tag_28\n      swap2\n      swap1\n      tag_29\n      jump\t// in\n    tag_28:\n      mload(0x40)\n      dup1\n      swap2\n      sub\n      swap1\n      return\n        /* \"smart contract/SwapCryptoLoanUpdate/contracts/facets/MartgptCoin.sol\":3272:3782  function convertTokenToMartGPTToken(... */\n    tag_4:\n      tag_30\n      0x04\n      dup1\n      calldatasize\n      sub\n      dup2\n      add\n      swap1\n      tag_31\n      swap2\n      swap1\n      tag_32\n      jump\t// in\n    tag_31:\n      tag_33\n      jump\t// in\n    tag_30:\n      mload(0x40)\n      tag_34\n      swap2\n      swap1\n      tag_35\n      jump\t// in\n    tag_34:\n      mload(0x40)\n      dup1\n      swap2\n      sub\n      swap1\n      return\n        /* \"smart contract/SwapCryptoLoanUpdate/contracts/facets/MartgptCoin.sol\":4164:4374  function approve(... */\n    tag_5:\n      tag_36\n      0x04\n      dup1\n      calldatasize\n      sub\n      dup2\n      add\n      swap1\n      tag_37\n      swap2\n      swap1\n      tag_32\n      jump\t// in\n    tag_37:\n      tag_38\n      jump\t// in\n    tag_36:\n      mload(0x40)\n      tag_39\n      swap2\n      swap1\n      tag_35\n      jump\t// in\n    tag_39:\n      mload(0x40)\n      dup1\n      swap2\n      sub\n      swap1\n      return\n        /* \"smart contract/SwapCryptoLoanUpdate/contracts/facets/MartgptCoin.sol\":1774:1871  function totalSupply() public view virtual returns (uint256) {... */\n    tag_6:\n      tag_40\n      tag_41\n      jump\t// in\n    tag_40:\n      mload(0x40)\n      tag_42\n      swap2\n      swap1\n      tag_43\n      jump\t// in\n    tag_42:\n      mload(0x40)\n      dup1\n      swap2\n      sub\n      swap1\n      return\n        /* \"smart contract/SwapCryptoLoanUpdate/contracts/facets/MartgptCoin.sol\":4380:4657  function transferFrom(... */\n    tag_7:\n      tag_44\n      0x04\n      dup1\n      calldatasize\n      sub\n      dup2\n      add\n      swap1\n      tag_45\n      swap2\n      swap1\n      tag_46\n      jump\t// in\n    tag_45:\n      tag_47\n      jump\t// in\n    tag_44:\n      mload(0x40)\n      tag_48\n      swap2\n      swap1\n      tag_35\n      jump\t// in\n    tag_48:\n      mload(0x40)\n      dup1\n      swap2\n      sub\n      swap1\n      return\n        /* \"smart contract/SwapCryptoLoanUpdate/contracts/facets/MartgptCoin.sol\":1686:1768  function decimals() public view virtual returns (uint8) {... */\n    tag_8:\n      tag_49\n      tag_50\n      jump\t// in\n    tag_49:\n      mload(0x40)\n      tag_51\n      swap2\n      swap1\n      tag_52\n      jump\t// in\n    tag_51:\n      mload(0x40)\n      dup1\n      swap2\n      sub\n      swap1\n      return\n        /* \"smart contract/SwapCryptoLoanUpdate/contracts/facets/MartgptCoin.sol\":2364:2738  function dailyBlockMining() external returns (bool) {... */\n    tag_9:\n      tag_53\n      tag_54\n      jump\t// in\n    tag_53:\n      mload(0x40)\n      tag_55\n      swap2\n      swap1\n      tag_35\n      jump\t// in\n    tag_55:\n      mload(0x40)\n      dup1\n      swap2\n      sub\n      swap1\n      return\n        /* \"smart contract/SwapCryptoLoanUpdate/contracts/facets/MartgptCoin.sol\":4663:4922  function increaseAllowance(... */\n    tag_10:\n      tag_56\n      0x04\n      dup1\n      calldatasize\n      sub\n      dup2\n      add\n      swap1\n      tag_57\n      swap2\n      swap1\n      tag_32\n      jump\t// in\n    tag_57:\n      tag_58\n      jump\t// in\n    tag_56:\n      mload(0x40)\n      tag_59\n      swap2\n      swap1\n      tag_35\n      jump\t// in\n    tag_59:\n      mload(0x40)\n      dup1\n      swap2\n      sub\n      swap1\n      return\n        /* \"smart contract/SwapCryptoLoanUpdate/contracts/facets/MartgptCoin.sol\":1999:2126  function burn(uint256 amount) external virtual returns (bool) {... */\n    tag_11:\n      tag_60\n      0x04\n      dup1\n      calldatasize\n      sub\n      dup2\n      add\n      swap1\n      tag_61\n      swap2\n      swap1\n      tag_62\n      jump\t// in\n    tag_61:\n      tag_63\n      jump\t// in\n    tag_60:\n      mload(0x40)\n      tag_64\n      swap2\n      swap1\n      tag_35\n      jump\t// in\n    tag_64:\n      mload(0x40)\n      dup1\n      swap2\n      sub\n      swap1\n      return\n        /* \"smart contract/SwapCryptoLoanUpdate/contracts/facets/MartgptCoin.sol\":2744:3266  function convertTokenToMartGPTTokenWithOutBurn(... */\n    tag_12:\n      tag_65\n      0x04\n      dup1\n      calldatasize\n      sub\n      dup2\n      add\n      swap1\n      tag_66\n      swap2\n      swap1\n      tag_32\n      jump\t// in\n    tag_66:\n      tag_67\n      jump\t// in\n    tag_65:\n      mload(0x40)\n      tag_68\n      swap2\n      swap1\n      tag_35\n      jump\t// in\n    tag_68:\n      mload(0x40)\n      dup1\n      swap2\n      sub\n      swap1\n      return\n        /* \"smart contract/SwapCryptoLoanUpdate/contracts/facets/MartgptCoin.sol\":1877:1993  function balanceOf(address account) public view virtual returns (uint256) {... */\n    tag_13:\n      tag_69\n      0x04\n      dup1\n      calldatasize\n      sub\n      dup2\n      add\n      swap1\n      tag_70\n      swap2\n      swap1\n      tag_71\n      jump\t// in\n    tag_70:\n      tag_72\n      jump\t// in\n    tag_69:\n      mload(0x40)\n      tag_73\n      swap2\n      swap1\n      tag_43\n      jump\t// in\n    tag_73:\n      mload(0x40)\n      dup1\n      swap2\n      sub\n      swap1\n      return\n        /* \"smart contract/SwapCryptoLoanUpdate/contracts/extensions/Ownable.sol\":1286:1425  function renounceOwnership() external onlyOwner {... */\n    tag_14:\n      tag_74\n      tag_75\n      jump\t// in\n    tag_74:\n      stop\n        /* \"smart contract/SwapCryptoLoanUpdate/contracts/facets/MartgptCoin.sol\":2132:2358  function burnFrom(address account, uint256 amount) external returns (bool) {... */\n    tag_15:\n      tag_76\n      0x04\n      dup1\n      calldatasize\n      sub\n      dup2\n      add\n      swap1\n      tag_77\n      swap2\n      swap1\n      tag_32\n      jump\t// in\n    tag_77:\n      tag_78\n      jump\t// in\n    tag_76:\n      mload(0x40)\n      tag_79\n      swap2\n      swap1\n      tag_35\n      jump\t// in\n    tag_79:\n      mload(0x40)\n      dup1\n      swap2\n      sub\n      swap1\n      return\n        /* \"smart contract/SwapCryptoLoanUpdate/contracts/extensions/Ownable.sol\":499:578  function owner() external view returns (address) {... */\n    tag_16:\n      tag_80\n      tag_81\n      jump\t// in\n    tag_80:\n      mload(0x40)\n      tag_82\n      swap2\n      swap1\n      tag_83\n      jump\t// in\n    tag_82:\n      mload(0x40)\n      dup1\n      swap2\n      sub\n      swap1\n      return\n        /* \"smart contract/SwapCryptoLoanUpdate/contracts/extensions/Ownable.sol\":852:942  function isOwner() public view returns (bool) {... */\n    tag_17:\n      tag_84\n      tag_85\n      jump\t// in\n    tag_84:\n      mload(0x40)\n      tag_86\n      swap2\n      swap1\n      tag_35\n      jump\t// in\n    tag_86:\n      mload(0x40)\n      dup1\n      swap2\n      sub\n      swap1\n      return\n        /* \"smart contract/SwapCryptoLoanUpdate/contracts/facets/MartgptCoin.sol\":1587:1680  function symbol() public view virtual returns (string memory) {... */\n    tag_18:\n      tag_87\n      tag_88\n      jump\t// in\n    tag_87:\n      mload(0x40)\n      tag_89\n      swap2\n      swap1\n      tag_29\n      jump\t// in\n    tag_89:\n      mload(0x40)\n      dup1\n      swap2\n      sub\n      swap1\n      return\n        /* \"smart contract/SwapCryptoLoanUpdate/contracts/facets/MartgptCoin.sol\":4928:5414  function decreaseAllowance(... */\n    tag_19:\n      tag_90\n      0x04\n      dup1\n      calldatasize\n      sub\n      dup2\n      add\n      swap1\n      tag_91\n      swap2\n      swap1\n      tag_32\n      jump\t// in\n    tag_91:\n      tag_92\n      jump\t// in\n    tag_90:\n      mload(0x40)\n      tag_93\n      swap2\n      swap1\n      tag_35\n      jump\t// in\n    tag_93:\n      mload(0x40)\n      dup1\n      swap2\n      sub\n      swap1\n      return\n        /* \"smart contract/SwapCryptoLoanUpdate/contracts/facets/MartgptCoin.sol\":3788:3990  function transfer(... */\n    tag_20:\n      tag_94\n      0x04\n      dup1\n      calldatasize\n      sub\n      dup2\n      add\n      swap1\n      tag_95\n      swap2\n      swap1\n      tag_32\n      jump\t// in\n    tag_95:\n      tag_96\n      jump\t// in\n    tag_94:\n      mload(0x40)\n      tag_97\n      swap2\n      swap1\n      tag_35\n      jump\t// in\n    tag_97:\n      mload(0x40)\n      dup1\n      swap2\n      sub\n      swap1\n      return\n        /* \"smart contract/SwapCryptoLoanUpdate/contracts/facets/MartgptCoin.sol\":3996:4158  function allowance(... */\n    tag_21:\n      tag_98\n      0x04\n      dup1\n      calldatasize\n      sub\n      dup2\n      add\n      swap1\n      tag_99\n      swap2\n      swap1\n      tag_100\n      jump\t// in\n    tag_99:\n      tag_101\n      jump\t// in\n    tag_98:\n      mload(0x40)\n      tag_102\n      swap2\n      swap1\n      tag_43\n      jump\t// in\n    tag_102:\n      mload(0x40)\n      dup1\n      swap2\n      sub\n      swap1\n      return\n        /* \"smart contract/SwapCryptoLoanUpdate/contracts/extensions/Ownable.sol\":1574:1683  function transferOwnership(address newOwner) external onlyOwner {... */\n    tag_22:\n      tag_103\n      0x04\n      dup1\n      calldatasize\n      sub\n      dup2\n      add\n      swap1\n      tag_104\n      swap2\n      swap1\n      tag_71\n      jump\t// in\n    tag_104:\n      tag_105\n      jump\t// in\n    tag_103:\n      stop\n        /* \"smart contract/SwapCryptoLoanUpdate/contracts/facets/MartgptCoin.sol\":1492:1581  function name() public view virtual returns (string memory) {... */\n    tag_27:\n        /* \"smart contract/SwapCryptoLoanUpdate/contracts/facets/MartgptCoin.sol\":1537:1550  string memory */\n      0x60\n        /* \"smart contract/SwapCryptoLoanUpdate/contracts/facets/MartgptCoin.sol\":1569:1574  _name */\n      0x04\n        /* \"smart contract/SwapCryptoLoanUpdate/contracts/facets/MartgptCoin.sol\":1562:1574  return _name */\n      dup1\n      sload\n      tag_107\n      swap1\n      tag_108\n      jump\t// in\n    tag_107:\n      dup1\n      0x1f\n      add\n      0x20\n      dup1\n      swap2\n      div\n      mul\n      0x20\n      add\n      mload(0x40)\n      swap1\n      dup2\n      add\n      0x40\n      mstore\n      dup1\n      swap3\n      swap2\n      swap1\n      dup2\n      dup2\n      mstore\n      0x20\n      add\n      dup3\n      dup1\n      sload\n      tag_109\n      swap1\n      tag_108\n      jump\t// in\n    tag_109:\n      dup1\n      iszero\n      tag_110\n      jumpi\n      dup1\n      0x1f\n      lt\n      tag_111\n      jumpi\n      0x0100\n      dup1\n      dup4\n      sload\n      div\n      mul\n      dup4\n      mstore\n      swap2\n      0x20\n      add\n      swap2\n      jump(tag_110)\n    tag_111:\n      dup3\n      add\n      swap2\n      swap1\n      0x00\n      mstore\n      keccak256(0x00, 0x20)\n      swap1\n    tag_112:\n      dup2\n      sload\n      dup2\n      mstore\n      swap1\n      0x01\n      add\n      swap1\n      0x20\n      add\n      dup1\n      dup4\n      gt\n      tag_112\n      jumpi\n      dup3\n      swap1\n      sub\n      0x1f\n      and\n      dup3\n      add\n      swap2\n    tag_110:\n      pop\n      pop\n      pop\n      pop\n      pop\n      swap1\n      pop\n        /* \"smart contract/SwapCryptoLoanUpdate/contracts/facets/MartgptCoin.sol\":1492:1581  function name() public view virtual returns (string memory) {... */\n      swap1\n      jump\t// out\n        /* \"smart contract/SwapCryptoLoanUpdate/contracts/facets/MartgptCoin.sol\":3272:3782  function convertTokenToMartGPTToken(... */\n    tag_33:\n        /* \"smart contract/SwapCryptoLoanUpdate/contracts/facets/MartgptCoin.sol\":3381:3385  bool */\n      0x00\n        /* \"smart contract/SwapCryptoLoanUpdate/contracts/facets/MartgptCoin.sol\":3397:3412  IERC20 __ierc20 */\n      dup1\n        /* \"smart contract/SwapCryptoLoanUpdate/contracts/facets/MartgptCoin.sol\":3422:3437  _convertAddress */\n      0x06\n      0x00\n      swap1\n      sload\n      swap1\n      0x0100\n      exp\n      swap1\n      div\n      0xffffffffffffffffffffffffffffffffffffffff\n      and\n        /* \"smart contract/SwapCryptoLoanUpdate/contracts/facets/MartgptCoin.sol\":3397:3438  IERC20 __ierc20 = IERC20(_convertAddress) */\n      swap1\n      pop\n        /* \"smart contract/SwapCryptoLoanUpdate/contracts/facets/MartgptCoin.sol\":3448:3465  _checkCap(amount) */\n      tag_114\n        /* \"smart contract/SwapCryptoLoanUpdate/contracts/facets/MartgptCoin.sol\":3458:3464  amount */\n      dup4\n        /* \"smart contract/SwapCryptoLoanUpdate/contracts/facets/MartgptCoin.sol\":3448:3457  _checkCap */\n      tag_115\n        /* \"smart contract/SwapCryptoLoanUpdate/contracts/facets/MartgptCoin.sol\":3448:3465  _checkCap(amount) */\n      jump\t// in\n    tag_114:\n        /* \"smart contract/SwapCryptoLoanUpdate/contracts/facets/MartgptCoin.sol\":3475:3497  _mint(account, amount) */\n      tag_116\n        /* \"smart contract/SwapCryptoLoanUpdate/contracts/facets/MartgptCoin.sol\":3481:3488  account */\n      dup5\n        /* \"smart contract/SwapCryptoLoanUpdate/contracts/facets/MartgptCoin.sol\":3490:3496  amount */\n      dup5\n        /* \"smart contract/SwapCryptoLoanUpdate/contracts/facets/MartgptCoin.sol\":3475:3480  _mint */\n      tag_117\n        /* \"smart contract/SwapCryptoLoanUpdate/contracts/facets/MartgptCoin.sol\":3475:3497  _mint(account, amount) */\n      jump\t// in\n    tag_116:\n        /* \"smart contract/SwapCryptoLoanUpdate/contracts/facets/MartgptCoin.sol\":3579:3585  amount */\n      dup3\n        /* \"smart contract/SwapCryptoLoanUpdate/contracts/facets/MartgptCoin.sol\":3528:3536  __ierc20 */\n      dup2\n        /* \"smart contract/SwapCryptoLoanUpdate/contracts/facets/MartgptCoin.sol\":3528:3546  __ierc20.allowance */\n      0xffffffffffffffffffffffffffffffffffffffff\n      and\n      0xdd62ed3e\n        /* \"smart contract/SwapCryptoLoanUpdate/contracts/facets/MartgptCoin.sol\":3547:3559  _msgSender() */\n      tag_118\n        /* \"smart contract/SwapCryptoLoanUpdate/contracts/facets/MartgptCoin.sol\":3547:3557  _msgSender */\n      tag_119\n        /* \"smart contract/SwapCryptoLoanUpdate/contracts/facets/MartgptCoin.sol\":3547:3559  _msgSender() */\n      jump\t// in\n    tag_118:\n        /* \"smart contract/SwapCryptoLoanUpdate/contracts/facets/MartgptCoin.sol\":3569:3573  this */\n      address\n        /* \"smart contract/SwapCryptoLoanUpdate/contracts/facets/MartgptCoin.sol\":3528:3575  __ierc20.allowance(_msgSender(), address(this)) */\n      mload(0x40)\n      dup4\n      0xffffffff\n      and\n      0xe0\n      shl\n      dup2\n      mstore\n      0x04\n      add\n      tag_120\n      swap3\n      swap2\n      swap1\n      tag_121\n      jump\t// in\n    tag_120:\n      0x20\n      mload(0x40)\n      dup1\n      dup4\n      sub\n      dup2\n      dup7\n      gas\n      staticcall\n      iszero\n      dup1\n      iszero\n      tag_123\n      jumpi\n      returndatasize\n      0x00\n      dup1\n      returndatacopy\n      revert(0x00, returndatasize)\n    tag_123:\n      pop\n      pop\n      pop\n      pop\n      mload(0x40)\n      returndatasize\n      not(0x1f)\n      0x1f\n      dup3\n      add\n      and\n      dup3\n      add\n      dup1\n      0x40\n      mstore\n      pop\n      dup2\n      add\n      swap1\n      tag_124\n      swap2\n      swap1\n      tag_125\n      jump\t// in\n    tag_124:\n        /* \"smart contract/SwapCryptoLoanUpdate/contracts/facets/MartgptCoin.sol\":3528:3585  __ierc20.allowance(_msgSender(), address(this)) >= amount */\n      lt\n      iszero\n        /* \"smart contract/SwapCryptoLoanUpdate/contracts/facets/MartgptCoin.sol\":3507:3634  require(... */\n      tag_126\n      jumpi\n      mload(0x40)\n      0x08c379a000000000000000000000000000000000000000000000000000000000\n      dup2\n      mstore\n      0x04\n      add\n      tag_127\n      swap1\n      tag_128\n      jump\t// in\n    tag_127:\n      mload(0x40)\n      dup1\n      swap2\n      sub\n      swap1\n      revert\n    tag_126:\n        /* \"smart contract/SwapCryptoLoanUpdate/contracts/facets/MartgptCoin.sol\":3644:3652  __ierc20 */\n      dup1\n        /* \"smart contract/SwapCryptoLoanUpdate/contracts/facets/MartgptCoin.sol\":3644:3661  __ierc20.burnFrom */\n      0xffffffffffffffffffffffffffffffffffffffff\n      and\n      0x79cc6790\n        /* \"smart contract/SwapCryptoLoanUpdate/contracts/facets/MartgptCoin.sol\":3662:3674  _msgSender() */\n      tag_129\n        /* \"smart contract/SwapCryptoLoanUpdate/contracts/facets/MartgptCoin.sol\":3662:3672  _msgSender */\n      tag_119\n        /* \"smart contract/SwapCryptoLoanUpdate/contracts/facets/MartgptCoin.sol\":3662:3674  _msgSender() */\n      jump\t// in\n    tag_129:\n        /* \"smart contract/SwapCryptoLoanUpdate/contracts/facets/MartgptCoin.sol\":3676:3682  amount */\n      dup6\n        /* \"smart contract/SwapCryptoLoanUpdate/contracts/facets/MartgptCoin.sol\":3644:3683  __ierc20.burnFrom(_msgSender(), amount) */\n      mload(0x40)\n      dup4\n      0xffffffff\n      and\n      0xe0\n      shl\n      dup2\n      mstore\n      0x04\n      add\n      tag_130\n      swap3\n      swap2\n      swap1\n      tag_131\n      jump\t// in\n    tag_130:\n      0x00\n      mload(0x40)\n      dup1\n      dup4\n      sub\n      dup2\n      0x00\n      dup8\n      dup1\n      extcodesize\n      iszero\n      dup1\n      iszero\n      tag_132\n      jumpi\n      0x00\n      dup1\n      revert\n    tag_132:\n      pop\n      gas\n      call\n      iszero\n      dup1\n      iszero\n      tag_134\n      jumpi\n      returndatasize\n      0x00\n      dup1\n      returndatacopy\n      revert(0x00, returndatasize)\n    tag_134:\n      pop\n      pop\n      pop\n      pop\n        /* \"smart contract/SwapCryptoLoanUpdate/contracts/facets/MartgptCoin.sol\":3771:3775  true */\n      0x01\n        /* \"smart contract/SwapCryptoLoanUpdate/contracts/facets/MartgptCoin.sol\":3764:3775  return true */\n      swap2\n      pop\n      pop\n        /* \"smart contract/SwapCryptoLoanUpdate/contracts/facets/MartgptCoin.sol\":3272:3782  function convertTokenToMartGPTToken(... */\n      swap3\n      swap2\n      pop\n      pop\n      jump\t// out\n        /* \"smart contract/SwapCryptoLoanUpdate/contracts/facets/MartgptCoin.sol\":4164:4374  function approve(... */\n    tag_38:\n        /* \"smart contract/SwapCryptoLoanUpdate/contracts/facets/MartgptCoin.sol\":4260:4264  bool */\n      0x00\n        /* \"smart contract/SwapCryptoLoanUpdate/contracts/facets/MartgptCoin.sol\":4276:4289  address owner */\n      dup1\n        /* \"smart contract/SwapCryptoLoanUpdate/contracts/facets/MartgptCoin.sol\":4292:4304  _msgSender() */\n      tag_136\n        /* \"smart contract/SwapCryptoLoanUpdate/contracts/facets/MartgptCoin.sol\":4292:4302  _msgSender */\n      tag_119\n        /* \"smart contract/SwapCryptoLoanUpdate/contracts/facets/MartgptCoin.sol\":4292:4304  _msgSender() */\n      jump\t// in\n    tag_136:\n        /* \"smart contract/SwapCryptoLoanUpdate/contracts/facets/MartgptCoin.sol\":4276:4304  address owner = _msgSender() */\n      swap1\n      pop\n        /* \"smart contract/SwapCryptoLoanUpdate/contracts/facets/MartgptCoin.sol\":4314:4346  _approve(owner, spender, amount) */\n      tag_137\n        /* \"smart contract/SwapCryptoLoanUpdate/contracts/facets/MartgptCoin.sol\":4323:4328  owner */\n      dup2\n        /* \"smart contract/SwapCryptoLoanUpdate/contracts/facets/MartgptCoin.sol\":4330:4337  spender */\n      dup6\n        /* \"smart contract/SwapCryptoLoanUpdate/contracts/facets/MartgptCoin.sol\":4339:4345  amount */\n      dup6\n        /* \"smart contract/SwapCryptoLoanUpdate/contracts/facets/MartgptCoin.sol\":4314:4322  _approve */\n      tag_138\n        /* \"smart contract/SwapCryptoLoanUpdate/contracts/facets/MartgptCoin.sol\":4314:4346  _approve(owner, spender, amount) */\n      jump\t// in\n    tag_137:\n        /* \"smart contract/SwapCryptoLoanUpdate/contracts/facets/MartgptCoin.sol\":4363:4367  true */\n      0x01\n        /* \"smart contract/SwapCryptoLoanUpdate/contracts/facets/MartgptCoin.sol\":4356:4367  return true */\n      swap2\n      pop\n      pop\n        /* \"smart contract/SwapCryptoLoanUpdate/contracts/facets/MartgptCoin.sol\":4164:4374  function approve(... */\n      swap3\n      swap2\n      pop\n      pop\n      jump\t// out\n        /* \"smart contract/SwapCryptoLoanUpdate/contracts/facets/MartgptCoin.sol\":1774:1871  function totalSupply() public view virtual returns (uint256) {... */\n    tag_41:\n        /* \"smart contract/SwapCryptoLoanUpdate/contracts/facets/MartgptCoin.sol\":1826:1833  uint256 */\n      0x00\n        /* \"smart contract/SwapCryptoLoanUpdate/contracts/facets/MartgptCoin.sol\":1852:1864  _totalSupply */\n      sload(0x03)\n        /* \"smart contract/SwapCryptoLoanUpdate/contracts/facets/MartgptCoin.sol\":1845:1864  return _totalSupply */\n      swap1\n      pop\n        /* \"smart contract/SwapCryptoLoanUpdate/contracts/facets/MartgptCoin.sol\":1774:1871  function totalSupply() public view virtual returns (uint256) {... */\n      swap1\n      jump\t// out\n        /* \"smart contract/SwapCryptoLoanUpdate/contracts/facets/MartgptCoin.sol\":4380:4657  function transferFrom(... */\n    tag_47:\n        /* \"smart contract/SwapCryptoLoanUpdate/contracts/facets/MartgptCoin.sol\":4498:4502  bool */\n      0x00\n        /* \"smart contract/SwapCryptoLoanUpdate/contracts/facets/MartgptCoin.sol\":4514:4529  address spender */\n      dup1\n        /* \"smart contract/SwapCryptoLoanUpdate/contracts/facets/MartgptCoin.sol\":4532:4544  _msgSender() */\n      tag_141\n        /* \"smart contract/SwapCryptoLoanUpdate/contracts/facets/MartgptCoin.sol\":4532:4542  _msgSender */\n      tag_119\n        /* \"smart contract/SwapCryptoLoanUpdate/contracts/facets/MartgptCoin.sol\":4532:4544  _msgSender() */\n      jump\t// in\n    tag_141:\n        /* \"smart contract/SwapCryptoLoanUpdate/contracts/facets/MartgptCoin.sol\":4514:4544  address spender = _msgSender() */\n      swap1\n      pop\n        /* \"smart contract/SwapCryptoLoanUpdate/contracts/facets/MartgptCoin.sol\":4554:4592  _spendAllowance(from, spender, amount) */\n      tag_142\n        /* \"smart contract/SwapCryptoLoanUpdate/contracts/facets/MartgptCoin.sol\":4570:4574  from */\n      dup6\n        /* \"smart contract/SwapCryptoLoanUpdate/contracts/facets/MartgptCoin.sol\":4576:4583  spender */\n      dup3\n        /* \"smart contract/SwapCryptoLoanUpdate/contracts/facets/MartgptCoin.sol\":4585:4591  amount */\n      dup6\n        /* \"smart contract/SwapCryptoLoanUpdate/contracts/facets/MartgptCoin.sol\":4554:4569  _spendAllowance */\n      tag_143\n        /* \"smart contract/SwapCryptoLoanUpdate/contracts/facets/MartgptCoin.sol\":4554:4592  _spendAllowance(from, spender, amount) */\n      jump\t// in\n    tag_142:\n        /* \"smart contract/SwapCryptoLoanUpdate/contracts/facets/MartgptCoin.sol\":4602:4629  _transfer(from, to, amount) */\n      tag_144\n        /* \"smart contract/SwapCryptoLoanUpdate/contracts/facets/MartgptCoin.sol\":4612:4616  from */\n      dup6\n        /* \"smart contract/SwapCryptoLoanUpdate/contracts/facets/MartgptCoin.sol\":4618:4620  to */\n      dup6\n        /* \"smart contract/SwapCryptoLoanUpdate/contracts/facets/MartgptCoin.sol\":4622:4628  amount */\n      dup6\n        /* \"smart contract/SwapCryptoLoanUpdate/contracts/facets/MartgptCoin.sol\":4602:4611  _transfer */\n      tag_145\n        /* \"smart contract/SwapCryptoLoanUpdate/contracts/facets/MartgptCoin.sol\":4602:4629  _transfer(from, to, amount) */\n      jump\t// in\n    tag_144:\n        /* \"smart contract/SwapCryptoLoanUpdate/contracts/facets/MartgptCoin.sol\":4646:4650  true */\n      0x01\n        /* \"smart contract/SwapCryptoLoanUpdate/contracts/facets/MartgptCoin.sol\":4639:4650  return true */\n      swap2\n      pop\n      pop\n        /* \"smart contract/SwapCryptoLoanUpdate/contracts/facets/MartgptCoin.sol\":4380:4657  function transferFrom(... */\n      swap4\n      swap3\n      pop\n      pop\n      pop\n      jump\t// out\n        /* \"smart contract/SwapCryptoLoanUpdate/contracts/facets/MartgptCoin.sol\":1686:1768  function decimals() public view virtual returns (uint8) {... */\n    tag_50:\n        /* \"smart contract/SwapCryptoLoanUpdate/contracts/facets/MartgptCoin.sol\":1735:1740  uint8 */\n      0x00\n        /* \"smart contract/SwapCryptoLoanUpdate/contracts/facets/MartgptCoin.sol\":1759:1761  18 */\n      0x12\n        /* \"smart contract/SwapCryptoLoanUpdate/contracts/facets/MartgptCoin.sol\":1752:1761  return 18 */\n      swap1\n      pop\n        /* \"smart contract/SwapCryptoLoanUpdate/contracts/facets/MartgptCoin.sol\":1686:1768  function decimals() public view virtual returns (uint8) {... */\n      swap1\n      jump\t// out\n        /* \"smart contract/SwapCryptoLoanUpdate/contracts/facets/MartgptCoin.sol\":2364:2738  function dailyBlockMining() external returns (bool) {... */\n    tag_54:\n        /* \"smart contract/SwapCryptoLoanUpdate/contracts/facets/MartgptCoin.sol\":2410:2414  bool */\n      0x00\n        /* \"smart contract/SwapCryptoLoanUpdate/contracts/facets/MartgptCoin.sol\":2450:2471  _martGPTMarketAddress */\n      0x07\n      0x00\n      swap1\n      sload\n      swap1\n      0x0100\n      exp\n      swap1\n      div\n      0xffffffffffffffffffffffffffffffffffffffff\n      and\n        /* \"smart contract/SwapCryptoLoanUpdate/contracts/facets/MartgptCoin.sol\":2434:2471  _msgSender() == _martGPTMarketAddress */\n      0xffffffffffffffffffffffffffffffffffffffff\n      and\n        /* \"smart contract/SwapCryptoLoanUpdate/contracts/facets/MartgptCoin.sol\":2434:2446  _msgSender() */\n      tag_148\n        /* \"smart contract/SwapCryptoLoanUpdate/contracts/facets/MartgptCoin.sol\":2434:2444  _msgSender */\n      tag_119\n        /* \"smart contract/SwapCryptoLoanUpdate/contracts/facets/MartgptCoin.sol\":2434:2446  _msgSender() */\n      jump\t// in\n    tag_148:\n        /* \"smart contract/SwapCryptoLoanUpdate/contracts/facets/MartgptCoin.sol\":2434:2471  _msgSender() == _martGPTMarketAddress */\n      0xffffffffffffffffffffffffffffffffffffffff\n      and\n      eq\n        /* \"smart contract/SwapCryptoLoanUpdate/contracts/facets/MartgptCoin.sol\":2426:2490  require(_msgSender() == _martGPTMarketAddress, \"Access denied!\") */\n      tag_149\n      jumpi\n      mload(0x40)\n      0x08c379a000000000000000000000000000000000000000000000000000000000\n      dup2\n      mstore\n      0x04\n      add\n      tag_150\n      swap1\n      tag_151\n      jump\t// in\n    tag_150:\n      mload(0x40)\n      dup1\n      swap2\n      sub\n      swap1\n      revert\n    tag_149:\n        /* \"smart contract/SwapCryptoLoanUpdate/contracts/facets/MartgptCoin.sol\":2527:2544  _nextDisburseDate */\n      sload(0x09)\n        /* \"smart contract/SwapCryptoLoanUpdate/contracts/facets/MartgptCoin.sol\":2508:2523  block.timestamp */\n      timestamp\n        /* \"smart contract/SwapCryptoLoanUpdate/contracts/facets/MartgptCoin.sol\":2508:2544  block.timestamp >= _nextDisburseDate */\n      lt\n      iszero\n        /* \"smart contract/SwapCryptoLoanUpdate/contracts/facets/MartgptCoin.sol\":2500:2568  require(block.timestamp >= _nextDisburseDate, \"Wait till next day!\") */\n      tag_152\n      jumpi\n      mload(0x40)\n      0x08c379a000000000000000000000000000000000000000000000000000000000\n      dup2\n      mstore\n      0x04\n      add\n      tag_153\n      swap1\n      tag_154\n      jump\t// in\n    tag_153:\n      mload(0x40)\n      dup1\n      swap2\n      sub\n      swap1\n      revert\n    tag_152:\n        /* \"smart contract/SwapCryptoLoanUpdate/contracts/facets/MartgptCoin.sol\":2598:2625  block.timestamp.add(1 days) */\n      tag_155\n        /* \"smart contract/SwapCryptoLoanUpdate/contracts/facets/MartgptCoin.sol\":2618:2624  1 days */\n      0x015180\n        /* \"smart contract/SwapCryptoLoanUpdate/contracts/facets/MartgptCoin.sol\":2598:2613  block.timestamp */\n      timestamp\n        /* \"smart contract/SwapCryptoLoanUpdate/contracts/facets/MartgptCoin.sol\":2598:2617  block.timestamp.add */\n      tag_156\n      swap1\n        /* \"smart contract/SwapCryptoLoanUpdate/contracts/facets/MartgptCoin.sol\":2598:2625  block.timestamp.add(1 days) */\n      swap2\n      swap1\n      0xffffffff\n      and\n      jump\t// in\n    tag_155:\n        /* \"smart contract/SwapCryptoLoanUpdate/contracts/facets/MartgptCoin.sol\":2578:2595  _nextDisburseDate */\n      0x09\n        /* \"smart contract/SwapCryptoLoanUpdate/contracts/facets/MartgptCoin.sol\":2578:2625  _nextDisburseDate = block.timestamp.add(1 days) */\n      dup2\n      swap1\n      sstore\n      pop\n        /* \"smart contract/SwapCryptoLoanUpdate/contracts/facets/MartgptCoin.sol\":2635:2658  _checkCap(_dailyMining) */\n      tag_157\n        /* \"smart contract/SwapCryptoLoanUpdate/contracts/facets/MartgptCoin.sol\":2645:2657  _dailyMining */\n      sload(0x0a)\n        /* \"smart contract/SwapCryptoLoanUpdate/contracts/facets/MartgptCoin.sol\":2635:2644  _checkCap */\n      tag_115\n        /* \"smart contract/SwapCryptoLoanUpdate/contracts/facets/MartgptCoin.sol\":2635:2658  _checkCap(_dailyMining) */\n      jump\t// in\n    tag_157:\n        /* \"smart contract/SwapCryptoLoanUpdate/contracts/facets/MartgptCoin.sol\":2668:2710  _mint(_martGPTMarketAddress, _dailyMining) */\n      tag_158\n        /* \"smart contract/SwapCryptoLoanUpdate/contracts/facets/MartgptCoin.sol\":2674:2695  _martGPTMarketAddress */\n      0x07\n      0x00\n      swap1\n      sload\n      swap1\n      0x0100\n      exp\n      swap1\n      div\n      0xffffffffffffffffffffffffffffffffffffffff\n      and\n        /* \"smart contract/SwapCryptoLoanUpdate/contracts/facets/MartgptCoin.sol\":2697:2709  _dailyMining */\n      sload(0x0a)\n        /* \"smart contract/SwapCryptoLoanUpdate/contracts/facets/MartgptCoin.sol\":2668:2673  _mint */\n      tag_117\n        /* \"smart contract/SwapCryptoLoanUpdate/contracts/facets/MartgptCoin.sol\":2668:2710  _mint(_martGPTMarketAddress, _dailyMining) */\n      jump\t// in\n    tag_158:\n        /* \"smart contract/SwapCryptoLoanUpdate/contracts/facets/MartgptCoin.sol\":2727:2731  true */\n      0x01\n        /* \"smart contract/SwapCryptoLoanUpdate/contracts/facets/MartgptCoin.sol\":2720:2731  return true */\n      swap1\n      pop\n        /* \"smart contract/SwapCryptoLoanUpdate/contracts/facets/MartgptCoin.sol\":2364:2738  function dailyBlockMining() external returns (bool) {... */\n      swap1\n      jump\t// out\n        /* \"smart contract/SwapCryptoLoanUpdate/contracts/facets/MartgptCoin.sol\":4663:4922  function increaseAllowance(... */\n    tag_58:\n        /* \"smart contract/SwapCryptoLoanUpdate/contracts/facets/MartgptCoin.sol\":4773:4777  bool */\n      0x00\n        /* \"smart contract/SwapCryptoLoanUpdate/contracts/facets/MartgptCoin.sol\":4789:4802  address owner */\n      dup1\n        /* \"smart contract/SwapCryptoLoanUpdate/contracts/facets/MartgptCoin.sol\":4805:4817  _msgSender() */\n      tag_160\n        /* \"smart contract/SwapCryptoLoanUpdate/contracts/facets/MartgptCoin.sol\":4805:4815  _msgSender */\n      tag_119\n        /* \"smart contract/SwapCryptoLoanUpdate/contracts/facets/MartgptCoin.sol\":4805:4817  _msgSender() */\n      jump\t// in\n    tag_160:\n        /* \"smart contract/SwapCryptoLoanUpdate/contracts/facets/MartgptCoin.sol\":4789:4817  address owner = _msgSender() */\n      swap1\n      pop\n        /* \"smart contract/SwapCryptoLoanUpdate/contracts/facets/MartgptCoin.sol\":4827:4894  _approve(owner, spender, allowance(owner, spender).add(addedValue)) */\n      tag_161\n        /* \"smart contract/SwapCryptoLoanUpdate/contracts/facets/MartgptCoin.sol\":4836:4841  owner */\n      dup2\n        /* \"smart contract/SwapCryptoLoanUpdate/contracts/facets/MartgptCoin.sol\":4843:4850  spender */\n      dup6\n        /* \"smart contract/SwapCryptoLoanUpdate/contracts/facets/MartgptCoin.sol\":4852:4893  allowance(owner, spender).add(addedValue) */\n      tag_162\n        /* \"smart contract/SwapCryptoLoanUpdate/contracts/facets/MartgptCoin.sol\":4882:4892  addedValue */\n      dup7\n        /* \"smart contract/SwapCryptoLoanUpdate/contracts/facets/MartgptCoin.sol\":4852:4877  allowance(owner, spender) */\n      tag_163\n        /* \"smart contract/SwapCryptoLoanUpdate/contracts/facets/MartgptCoin.sol\":4862:4867  owner */\n      dup7\n        /* \"smart contract/SwapCryptoLoanUpdate/contracts/facets/MartgptCoin.sol\":4869:4876  spender */\n      dup11\n        /* \"smart contract/SwapCryptoLoanUpdate/contracts/facets/MartgptCoin.sol\":4852:4861  allowance */\n      tag_101\n        /* \"smart contract/SwapCryptoLoanUpdate/contracts/facets/MartgptCoin.sol\":4852:4877  allowance(owner, spender) */\n      jump\t// in\n    tag_163:\n        /* \"smart contract/SwapCryptoLoanUpdate/contracts/facets/MartgptCoin.sol\":4852:4881  allowance(owner, spender).add */\n      tag_156\n      swap1\n        /* \"smart contract/SwapCryptoLoanUpdate/contracts/facets/MartgptCoin.sol\":4852:4893  allowance(owner, spender).add(addedValue) */\n      swap2\n      swap1\n      0xffffffff\n      and\n      jump\t// in\n    tag_162:\n        /* \"smart contract/SwapCryptoLoanUpdate/contracts/facets/MartgptCoin.sol\":4827:4835  _approve */\n      tag_138\n        /* \"smart contract/SwapCryptoLoanUpdate/contracts/facets/MartgptCoin.sol\":4827:4894  _approve(owner, spender, allowance(owner, spender).add(addedValue)) */\n      jump\t// in\n    tag_161:\n        /* \"smart contract/SwapCryptoLoanUpdate/contracts/facets/MartgptCoin.sol\":4911:4915  true */\n      0x01\n        /* \"smart contract/SwapCryptoLoanUpdate/contracts/facets/MartgptCoin.sol\":4904:4915  return true */\n      swap2\n      pop\n      pop\n        /* \"smart contract/SwapCryptoLoanUpdate/contracts/facets/MartgptCoin.sol\":4663:4922  function increaseAllowance(... */\n      swap3\n      swap2\n      pop\n      pop\n      jump\t// out\n        /* \"smart contract/SwapCryptoLoanUpdate/contracts/facets/MartgptCoin.sol\":1999:2126  function burn(uint256 amount) external virtual returns (bool) {... */\n    tag_63:\n        /* \"smart contract/SwapCryptoLoanUpdate/contracts/facets/MartgptCoin.sol\":2055:2059  bool */\n      0x00\n        /* \"smart contract/SwapCryptoLoanUpdate/contracts/facets/MartgptCoin.sol\":2071:2098  _burn(_msgSender(), amount) */\n      tag_165\n        /* \"smart contract/SwapCryptoLoanUpdate/contracts/facets/MartgptCoin.sol\":2077:2089  _msgSender() */\n      tag_166\n        /* \"smart contract/SwapCryptoLoanUpdate/contracts/facets/MartgptCoin.sol\":2077:2087  _msgSender */\n      tag_119\n        /* \"smart contract/SwapCryptoLoanUpdate/contracts/facets/MartgptCoin.sol\":2077:2089  _msgSender() */\n      jump\t// in\n    tag_166:\n        /* \"smart contract/SwapCryptoLoanUpdate/contracts/facets/MartgptCoin.sol\":2091:2097  amount */\n      dup4\n        /* \"smart contract/SwapCryptoLoanUpdate/contracts/facets/MartgptCoin.sol\":2071:2076  _burn */\n      tag_167\n        /* \"smart contract/SwapCryptoLoanUpdate/contracts/facets/MartgptCoin.sol\":2071:2098  _burn(_msgSender(), amount) */\n      jump\t// in\n    tag_165:\n        /* \"smart contract/SwapCryptoLoanUpdate/contracts/facets/MartgptCoin.sol\":2115:2119  true */\n      0x01\n        /* \"smart contract/SwapCryptoLoanUpdate/contracts/facets/MartgptCoin.sol\":2108:2119  return true */\n      swap1\n      pop\n        /* \"smart contract/SwapCryptoLoanUpdate/contracts/facets/MartgptCoin.sol\":1999:2126  function burn(uint256 amount) external virtual returns (bool) {... */\n      swap2\n      swap1\n      pop\n      jump\t// out\n        /* \"smart contract/SwapCryptoLoanUpdate/contracts/facets/MartgptCoin.sol\":2744:3266  function convertTokenToMartGPTTokenWithOutBurn(... */\n    tag_67:\n        /* \"smart contract/SwapCryptoLoanUpdate/contracts/facets/MartgptCoin.sol\":2864:2868  bool */\n      0x00\n        /* \"smart contract/SwapCryptoLoanUpdate/contracts/facets/MartgptCoin.sol\":2880:2895  IERC20 __ierc20 */\n      dup1\n        /* \"smart contract/SwapCryptoLoanUpdate/contracts/facets/MartgptCoin.sol\":2905:2920  _convertAddress */\n      0x06\n      0x00\n      swap1\n      sload\n      swap1\n      0x0100\n      exp\n      swap1\n      div\n      0xffffffffffffffffffffffffffffffffffffffff\n      and\n        /* \"smart contract/SwapCryptoLoanUpdate/contracts/facets/MartgptCoin.sol\":2880:2921  IERC20 __ierc20 = IERC20(_convertAddress) */\n      swap1\n      pop\n        /* \"smart contract/SwapCryptoLoanUpdate/contracts/facets/MartgptCoin.sol\":2931:2948  _checkCap(amount) */\n      tag_169\n        /* \"smart contract/SwapCryptoLoanUpdate/contracts/facets/MartgptCoin.sol\":2941:2947  amount */\n      dup4\n        /* \"smart contract/SwapCryptoLoanUpdate/contracts/facets/MartgptCoin.sol\":2931:2940  _checkCap */\n      tag_115\n        /* \"smart contract/SwapCryptoLoanUpdate/contracts/facets/MartgptCoin.sol\":2931:2948  _checkCap(amount) */\n      jump\t// in\n    tag_169:\n        /* \"smart contract/SwapCryptoLoanUpdate/contracts/facets/MartgptCoin.sol\":2958:2980  _mint(account, amount) */\n      tag_170\n        /* \"smart contract/SwapCryptoLoanUpdate/contracts/facets/MartgptCoin.sol\":2964:2971  account */\n      dup5\n        /* \"smart contract/SwapCryptoLoanUpdate/contracts/facets/MartgptCoin.sol\":2973:2979  amount */\n      dup5\n        /* \"smart contract/SwapCryptoLoanUpdate/contracts/facets/MartgptCoin.sol\":2958:2963  _mint */\n      tag_117\n        /* \"smart contract/SwapCryptoLoanUpdate/contracts/facets/MartgptCoin.sol\":2958:2980  _mint(account, amount) */\n      jump\t// in\n    tag_170:\n        /* \"smart contract/SwapCryptoLoanUpdate/contracts/facets/MartgptCoin.sol\":3062:3068  amount */\n      dup3\n        /* \"smart contract/SwapCryptoLoanUpdate/contracts/facets/MartgptCoin.sol\":3011:3019  __ierc20 */\n      dup2\n        /* \"smart contract/SwapCryptoLoanUpdate/contracts/facets/MartgptCoin.sol\":3011:3029  __ierc20.allowance */\n      0xffffffffffffffffffffffffffffffffffffffff\n      and\n      0xdd62ed3e\n        /* \"smart contract/SwapCryptoLoanUpdate/contracts/facets/MartgptCoin.sol\":3030:3042  _msgSender() */\n      tag_171\n        /* \"smart contract/SwapCryptoLoanUpdate/contracts/facets/MartgptCoin.sol\":3030:3040  _msgSender */\n      tag_119\n        /* \"smart contract/SwapCryptoLoanUpdate/contracts/facets/MartgptCoin.sol\":3030:3042  _msgSender() */\n      jump\t// in\n    tag_171:\n        /* \"smart contract/SwapCryptoLoanUpdate/contracts/facets/MartgptCoin.sol\":3052:3056  this */\n      address\n        /* \"smart contract/SwapCryptoLoanUpdate/contracts/facets/MartgptCoin.sol\":3011:3058  __ierc20.allowance(_msgSender(), address(this)) */\n      mload(0x40)\n      dup4\n      0xffffffff\n      and\n      0xe0\n      shl\n      dup2\n      mstore\n      0x04\n      add\n      tag_172\n      swap3\n      swap2\n      swap1\n      tag_121\n      jump\t// in\n    tag_172:\n      0x20\n      mload(0x40)\n      dup1\n      dup4\n      sub\n      dup2\n      dup7\n      gas\n      staticcall\n      iszero\n      dup1\n      iszero\n      tag_174\n      jumpi\n      returndatasize\n      0x00\n      dup1\n      returndatacopy\n      revert(0x00, returndatasize)\n    tag_174:\n      pop\n      pop\n      pop\n      pop\n      mload(0x40)\n      returndatasize\n      not(0x1f)\n      0x1f\n      dup3\n      add\n      and\n      dup3\n      add\n      dup1\n      0x40\n      mstore\n      pop\n      dup2\n      add\n      swap1\n      tag_175\n      swap2\n      swap1\n      tag_125\n      jump\t// in\n    tag_175:\n        /* \"smart contract/SwapCryptoLoanUpdate/contracts/facets/MartgptCoin.sol\":3011:3068  __ierc20.allowance(_msgSender(), address(this)) >= amount */\n      lt\n      iszero\n        /* \"smart contract/SwapCryptoLoanUpdate/contracts/facets/MartgptCoin.sol\":2990:3117  require(... */\n      tag_176\n      jumpi\n      mload(0x40)\n      0x08c379a000000000000000000000000000000000000000000000000000000000\n      dup2\n      mstore\n      0x04\n      add\n      tag_177\n      swap1\n      tag_128\n      jump\t// in\n    tag_177:\n      mload(0x40)\n      dup1\n      swap2\n      sub\n      swap1\n      revert\n    tag_176:\n        /* \"smart contract/SwapCryptoLoanUpdate/contracts/facets/MartgptCoin.sol\":3179:3187  __ierc20 */\n      dup1\n        /* \"smart contract/SwapCryptoLoanUpdate/contracts/facets/MartgptCoin.sol\":3179:3200  __ierc20.transferFrom */\n      0xffffffffffffffffffffffffffffffffffffffff\n      and\n      0x23b872dd\n        /* \"smart contract/SwapCryptoLoanUpdate/contracts/facets/MartgptCoin.sol\":3201:3213  _msgSender() */\n      tag_178\n        /* \"smart contract/SwapCryptoLoanUpdate/contracts/facets/MartgptCoin.sol\":3201:3211  _msgSender */\n      tag_119\n        /* \"smart contract/SwapCryptoLoanUpdate/contracts/facets/MartgptCoin.sol\":3201:3213  _msgSender() */\n      jump\t// in\n    tag_178:\n        /* \"smart contract/SwapCryptoLoanUpdate/contracts/facets/MartgptCoin.sol\":3223:3227  this */\n      address\n        /* \"smart contract/SwapCryptoLoanUpdate/contracts/facets/MartgptCoin.sol\":3230:3236  amount */\n      dup7\n        /* \"smart contract/SwapCryptoLoanUpdate/contracts/facets/MartgptCoin.sol\":3179:3237  __ierc20.transferFrom(_msgSender(), address(this), amount) */\n      mload(0x40)\n      dup5\n      0xffffffff\n      and\n      0xe0\n      shl\n      dup2\n      mstore\n      0x04\n      add\n      tag_179\n      swap4\n      swap3\n      swap2\n      swap1\n      tag_180\n      jump\t// in\n    tag_179:\n      0x20\n      mload(0x40)\n      dup1\n      dup4\n      sub\n      dup2\n      0x00\n      dup8\n      gas\n      call\n      iszero\n      dup1\n      iszero\n      tag_182\n      jumpi\n      returndatasize\n      0x00\n      dup1\n      returndatacopy\n      revert(0x00, returndatasize)\n    tag_182:\n      pop\n      pop\n      pop\n      pop\n      mload(0x40)\n      returndatasize\n      not(0x1f)\n      0x1f\n      dup3\n      add\n      and\n      dup3\n      add\n      dup1\n      0x40\n      mstore\n      pop\n      dup2\n      add\n      swap1\n      tag_183\n      swap2\n      swap1\n      tag_184\n      jump\t// in\n    tag_183:\n      pop\n        /* \"smart contract/SwapCryptoLoanUpdate/contracts/facets/MartgptCoin.sol\":3255:3259  true */\n      0x01\n        /* \"smart contract/SwapCryptoLoanUpdate/contracts/facets/MartgptCoin.sol\":3248:3259  return true */\n      swap2\n      pop\n      pop\n        /* \"smart contract/SwapCryptoLoanUpdate/contracts/facets/MartgptCoin.sol\":2744:3266  function convertTokenToMartGPTTokenWithOutBurn(... */\n      swap3\n      swap2\n      pop\n      pop\n      jump\t// out\n        /* \"smart contract/SwapCryptoLoanUpdate/contracts/facets/MartgptCoin.sol\":1877:1993  function balanceOf(address account) public view virtual returns (uint256) {... */\n    tag_72:\n        /* \"smart contract/SwapCryptoLoanUpdate/contracts/facets/MartgptCoin.sol\":1942:1949  uint256 */\n      0x00\n        /* \"smart contract/SwapCryptoLoanUpdate/contracts/facets/MartgptCoin.sol\":1968:1977  _balances */\n      0x01\n        /* \"smart contract/SwapCryptoLoanUpdate/contracts/facets/MartgptCoin.sol\":1968:1986  _balances[account] */\n      0x00\n        /* \"smart contract/SwapCryptoLoanUpdate/contracts/facets/MartgptCoin.sol\":1978:1985  account */\n      dup4\n        /* \"smart contract/SwapCryptoLoanUpdate/contracts/facets/MartgptCoin.sol\":1968:1986  _balances[account] */\n      0xffffffffffffffffffffffffffffffffffffffff\n      and\n      0xffffffffffffffffffffffffffffffffffffffff\n      and\n      dup2\n      mstore\n      0x20\n      add\n      swap1\n      dup2\n      mstore\n      0x20\n      add\n      0x00\n      keccak256\n      sload\n        /* \"smart contract/SwapCryptoLoanUpdate/contracts/facets/MartgptCoin.sol\":1961:1986  return _balances[account] */\n      swap1\n      pop\n        /* \"smart contract/SwapCryptoLoanUpdate/contracts/facets/MartgptCoin.sol\":1877:1993  function balanceOf(address account) public view virtual returns (uint256) {... */\n      swap2\n      swap1\n      pop\n      jump\t// out\n        /* \"smart contract/SwapCryptoLoanUpdate/contracts/extensions/Ownable.sol\":1286:1425  function renounceOwnership() external onlyOwner {... */\n    tag_75:\n        /* \"smart contract/SwapCryptoLoanUpdate/contracts/extensions/Ownable.sol\":705:714  isOwner() */\n      tag_187\n        /* \"smart contract/SwapCryptoLoanUpdate/contracts/extensions/Ownable.sol\":705:712  isOwner */\n      tag_85\n        /* \"smart contract/SwapCryptoLoanUpdate/contracts/extensions/Ownable.sol\":705:714  isOwner() */\n      jump\t// in\n    tag_187:\n        /* \"smart contract/SwapCryptoLoanUpdate/contracts/extensions/Ownable.sol\":697:751  require(isOwner(), \"Ownable: caller is not the owner\") */\n      tag_188\n      jumpi\n      mload(0x40)\n      0x08c379a000000000000000000000000000000000000000000000000000000000\n      dup2\n      mstore\n      0x04\n      add\n      tag_189\n      swap1\n      tag_190\n      jump\t// in\n    tag_189:\n      mload(0x40)\n      dup1\n      swap2\n      sub\n      swap1\n      revert\n    tag_188:\n        /* \"smart contract/SwapCryptoLoanUpdate/contracts/extensions/Ownable.sol\":1386:1387  0 */\n      0x00\n        /* \"smart contract/SwapCryptoLoanUpdate/contracts/extensions/Ownable.sol\":1349:1389  OwnershipTransferred(_owner, address(0)) */\n      0xffffffffffffffffffffffffffffffffffffffff\n      and\n        /* \"smart contract/SwapCryptoLoanUpdate/contracts/extensions/Ownable.sol\":1370:1376  _owner */\n      0x00\n      dup1\n      sload\n      swap1\n      0x0100\n      exp\n      swap1\n      div\n      0xffffffffffffffffffffffffffffffffffffffff\n      and\n        /* \"smart contract/SwapCryptoLoanUpdate/contracts/extensions/Ownable.sol\":1349:1389  OwnershipTransferred(_owner, address(0)) */\n      0xffffffffffffffffffffffffffffffffffffffff\n      and\n      0x8be0079c531659141344cd1fd0a4f28419497f9722a3daafe3b4186f6b6457e0\n      mload(0x40)\n      mload(0x40)\n      dup1\n      swap2\n      sub\n      swap1\n      log3\n        /* \"smart contract/SwapCryptoLoanUpdate/contracts/extensions/Ownable.sol\":1416:1417  0 */\n      0x00\n        /* \"smart contract/SwapCryptoLoanUpdate/contracts/extensions/Ownable.sol\":1399:1405  _owner */\n      dup1\n      0x00\n        /* \"smart contract/SwapCryptoLoanUpdate/contracts/extensions/Ownable.sol\":1399:1418  _owner = address(0) */\n      0x0100\n      exp\n      dup2\n      sload\n      dup2\n      0xffffffffffffffffffffffffffffffffffffffff\n      mul\n      not\n      and\n      swap1\n      dup4\n      0xffffffffffffffffffffffffffffffffffffffff\n      and\n      mul\n      or\n      swap1\n      sstore\n      pop\n        /* \"smart contract/SwapCryptoLoanUpdate/contracts/extensions/Ownable.sol\":1286:1425  function renounceOwnership() external onlyOwner {... */\n      jump\t// out\n        /* \"smart contract/SwapCryptoLoanUpdate/contracts/facets/MartgptCoin.sol\":2132:2358  function burnFrom(address account, uint256 amount) external returns (bool) {... */\n    tag_78:\n        /* \"smart contract/SwapCryptoLoanUpdate/contracts/facets/MartgptCoin.sol\":2201:2205  bool */\n      0x00\n        /* \"smart contract/SwapCryptoLoanUpdate/contracts/facets/MartgptCoin.sol\":2217:2232  address spender */\n      dup1\n        /* \"smart contract/SwapCryptoLoanUpdate/contracts/facets/MartgptCoin.sol\":2235:2247  _msgSender() */\n      tag_193\n        /* \"smart contract/SwapCryptoLoanUpdate/contracts/facets/MartgptCoin.sol\":2235:2245  _msgSender */\n      tag_119\n        /* \"smart contract/SwapCryptoLoanUpdate/contracts/facets/MartgptCoin.sol\":2235:2247  _msgSender() */\n      jump\t// in\n    tag_193:\n        /* \"smart contract/SwapCryptoLoanUpdate/contracts/facets/MartgptCoin.sol\":2217:2247  address spender = _msgSender() */\n      swap1\n      pop\n        /* \"smart contract/SwapCryptoLoanUpdate/contracts/facets/MartgptCoin.sol\":2257:2279  _burn(account, amount) */\n      tag_194\n        /* \"smart contract/SwapCryptoLoanUpdate/contracts/facets/MartgptCoin.sol\":2263:2270  account */\n      dup5\n        /* \"smart contract/SwapCryptoLoanUpdate/contracts/facets/MartgptCoin.sol\":2272:2278  amount */\n      dup5\n        /* \"smart contract/SwapCryptoLoanUpdate/contracts/facets/MartgptCoin.sol\":2257:2262  _burn */\n      tag_167\n        /* \"smart contract/SwapCryptoLoanUpdate/contracts/facets/MartgptCoin.sol\":2257:2279  _burn(account, amount) */\n      jump\t// in\n    tag_194:\n        /* \"smart contract/SwapCryptoLoanUpdate/contracts/facets/MartgptCoin.sol\":2289:2330  _spendAllowance(account, spender, amount) */\n      tag_195\n        /* \"smart contract/SwapCryptoLoanUpdate/contracts/facets/MartgptCoin.sol\":2305:2312  account */\n      dup5\n        /* \"smart contract/SwapCryptoLoanUpdate/contracts/facets/MartgptCoin.sol\":2314:2321  spender */\n      dup3\n        /* \"smart contract/SwapCryptoLoanUpdate/contracts/facets/MartgptCoin.sol\":2323:2329  amount */\n      dup6\n        /* \"smart contract/SwapCryptoLoanUpdate/contracts/facets/MartgptCoin.sol\":2289:2304  _spendAllowance */\n      tag_143\n        /* \"smart contract/SwapCryptoLoanUpdate/contracts/facets/MartgptCoin.sol\":2289:2330  _spendAllowance(account, spender, amount) */\n      jump\t// in\n    tag_195:\n        /* \"smart contract/SwapCryptoLoanUpdate/contracts/facets/MartgptCoin.sol\":2347:2351  true */\n      0x01\n        /* \"smart contract/SwapCryptoLoanUpdate/contracts/facets/MartgptCoin.sol\":2340:2351  return true */\n      swap2\n      pop\n      pop\n        /* \"smart contract/SwapCryptoLoanUpdate/contracts/facets/MartgptCoin.sol\":2132:2358  function burnFrom(address account, uint256 amount) external returns (bool) {... */\n      swap3\n      swap2\n      pop\n      pop\n      jump\t// out\n        /* \"smart contract/SwapCryptoLoanUpdate/contracts/extensions/Ownable.sol\":499:578  function owner() external view returns (address) {... */\n    tag_81:\n        /* \"smart contract/SwapCryptoLoanUpdate/contracts/extensions/Ownable.sol\":539:546  address */\n      0x00\n        /* \"smart contract/SwapCryptoLoanUpdate/contracts/extensions/Ownable.sol\":565:571  _owner */\n      dup1\n      0x00\n      swap1\n      sload\n      swap1\n      0x0100\n      exp\n      swap1\n      div\n      0xffffffffffffffffffffffffffffffffffffffff\n      and\n        /* \"smart contract/SwapCryptoLoanUpdate/contracts/extensions/Ownable.sol\":558:571  return _owner */\n      swap1\n      pop\n        /* \"smart contract/SwapCryptoLoanUpdate/contracts/extensions/Ownable.sol\":499:578  function owner() external view returns (address) {... */\n      swap1\n      jump\t// out\n        /* \"smart contract/SwapCryptoLoanUpdate/contracts/extensions/Ownable.sol\":852:942  function isOwner() public view returns (bool) {... */\n    tag_85:\n        /* \"smart contract/SwapCryptoLoanUpdate/contracts/extensions/Ownable.sol\":892:896  bool */\n      0x00\n        /* \"smart contract/SwapCryptoLoanUpdate/contracts/extensions/Ownable.sol\":929:935  _owner */\n      dup1\n      0x00\n      swap1\n      sload\n      swap1\n      0x0100\n      exp\n      swap1\n      div\n      0xffffffffffffffffffffffffffffffffffffffff\n      and\n        /* \"smart contract/SwapCryptoLoanUpdate/contracts/extensions/Ownable.sol\":915:935  msg.sender == _owner */\n      0xffffffffffffffffffffffffffffffffffffffff\n      and\n        /* \"smart contract/SwapCryptoLoanUpdate/contracts/extensions/Ownable.sol\":915:925  msg.sender */\n      caller\n        /* \"smart contract/SwapCryptoLoanUpdate/contracts/extensions/Ownable.sol\":915:935  msg.sender == _owner */\n      0xffffffffffffffffffffffffffffffffffffffff\n      and\n      eq\n        /* \"smart contract/SwapCryptoLoanUpdate/contracts/extensions/Ownable.sol\":908:935  return msg.sender == _owner */\n      swap1\n      pop\n        /* \"smart contract/SwapCryptoLoanUpdate/contracts/extensions/Ownable.sol\":852:942  function isOwner() public view returns (bool) {... */\n      swap1\n      jump\t// out\n        /* \"smart contract/SwapCryptoLoanUpdate/contracts/facets/MartgptCoin.sol\":1587:1680  function symbol() public view virtual returns (string memory) {... */\n    tag_88:\n        /* \"smart contract/SwapCryptoLoanUpdate/contracts/facets/MartgptCoin.sol\":1634:1647  string memory */\n      0x60\n        /* \"smart contract/SwapCryptoLoanUpdate/contracts/facets/MartgptCoin.sol\":1666:1673  _symbol */\n      0x05\n        /* \"smart contract/SwapCryptoLoanUpdate/contracts/facets/MartgptCoin.sol\":1659:1673  return _symbol */\n      dup1\n      sload\n      tag_199\n      swap1\n      tag_108\n      jump\t// in\n    tag_199:\n      dup1\n      0x1f\n      add\n      0x20\n      dup1\n      swap2\n      div\n      mul\n      0x20\n      add\n      mload(0x40)\n      swap1\n      dup2\n      add\n      0x40\n      mstore\n      dup1\n      swap3\n      swap2\n      swap1\n      dup2\n      dup2\n      mstore\n      0x20\n      add\n      dup3\n      dup1\n      sload\n      tag_200\n      swap1\n      tag_108\n      jump\t// in\n    tag_200:\n      dup1\n      iszero\n      tag_201\n      jumpi\n      dup1\n      0x1f\n      lt\n      tag_202\n      jumpi\n      0x0100\n      dup1\n      dup4\n      sload\n      div\n      mul\n      dup4\n      mstore\n      swap2\n      0x20\n      add\n      swap2\n      jump(tag_201)\n    tag_202:\n      dup3\n      add\n      swap2\n      swap1\n      0x00\n      mstore\n      keccak256(0x00, 0x20)\n      swap1\n    tag_203:\n      dup2\n      sload\n      dup2\n      mstore\n      swap1\n      0x01\n      add\n      swap1\n      0x20\n      add\n      dup1\n      dup4\n      gt\n      tag_203\n      jumpi\n      dup3\n      swap1\n      sub\n      0x1f\n      and\n      dup3\n      add\n      swap2\n    tag_201:\n      pop\n      pop\n      pop\n      pop\n      pop\n      swap1\n      pop\n        /* \"smart contract/SwapCryptoLoanUpdate/contracts/facets/MartgptCoin.sol\":1587:1680  function symbol() public view virtual returns (string memory) {... */\n      swap1\n      jump\t// out\n        /* \"smart contract/SwapCryptoLoanUpdate/contracts/facets/MartgptCoin.sol\":4928:5414  function decreaseAllowance(... */\n    tag_92:\n        /* \"smart contract/SwapCryptoLoanUpdate/contracts/facets/MartgptCoin.sol\":5043:5047  bool */\n      0x00\n        /* \"smart contract/SwapCryptoLoanUpdate/contracts/facets/MartgptCoin.sol\":5059:5072  address owner */\n      dup1\n        /* \"smart contract/SwapCryptoLoanUpdate/contracts/facets/MartgptCoin.sol\":5075:5087  _msgSender() */\n      tag_205\n        /* \"smart contract/SwapCryptoLoanUpdate/contracts/facets/MartgptCoin.sol\":5075:5085  _msgSender */\n      tag_119\n        /* \"smart contract/SwapCryptoLoanUpdate/contracts/facets/MartgptCoin.sol\":5075:5087  _msgSender() */\n      jump\t// in\n    tag_205:\n        /* \"smart contract/SwapCryptoLoanUpdate/contracts/facets/MartgptCoin.sol\":5059:5087  address owner = _msgSender() */\n      swap1\n      pop\n        /* \"smart contract/SwapCryptoLoanUpdate/contracts/facets/MartgptCoin.sol\":5097:5121  uint256 currentAllowance */\n      0x00\n        /* \"smart contract/SwapCryptoLoanUpdate/contracts/facets/MartgptCoin.sol\":5124:5149  allowance(owner, spender) */\n      tag_206\n        /* \"smart contract/SwapCryptoLoanUpdate/contracts/facets/MartgptCoin.sol\":5134:5139  owner */\n      dup3\n        /* \"smart contract/SwapCryptoLoanUpdate/contracts/facets/MartgptCoin.sol\":5141:5148  spender */\n      dup7\n        /* \"smart contract/SwapCryptoLoanUpdate/contracts/facets/MartgptCoin.sol\":5124:5133  allowance */\n      tag_101\n        /* \"smart contract/SwapCryptoLoanUpdate/contracts/facets/MartgptCoin.sol\":5124:5149  allowance(owner, spender) */\n      jump\t// in\n    tag_206:\n        /* \"smart contract/SwapCryptoLoanUpdate/contracts/facets/MartgptCoin.sol\":5097:5149  uint256 currentAllowance = allowance(owner, spender) */\n      swap1\n      pop\n        /* \"smart contract/SwapCryptoLoanUpdate/contracts/facets/MartgptCoin.sol\":5200:5215  subtractedValue */\n      dup4\n        /* \"smart contract/SwapCryptoLoanUpdate/contracts/facets/MartgptCoin.sol\":5180:5196  currentAllowance */\n      dup2\n        /* \"smart contract/SwapCryptoLoanUpdate/contracts/facets/MartgptCoin.sol\":5180:5215  currentAllowance >= subtractedValue */\n      lt\n      iszero\n        /* \"smart contract/SwapCryptoLoanUpdate/contracts/facets/MartgptCoin.sol\":5159:5278  require(... */\n      tag_207\n      jumpi\n      mload(0x40)\n      0x08c379a000000000000000000000000000000000000000000000000000000000\n      dup2\n      mstore\n      0x04\n      add\n      tag_208\n      swap1\n      tag_209\n      jump\t// in\n    tag_208:\n      mload(0x40)\n      dup1\n      swap2\n      sub\n      swap1\n      revert\n    tag_207:\n        /* \"smart contract/SwapCryptoLoanUpdate/contracts/facets/MartgptCoin.sol\":5312:5375  _approve(owner, spender, currentAllowance.sub(subtractedValue)) */\n      tag_210\n        /* \"smart contract/SwapCryptoLoanUpdate/contracts/facets/MartgptCoin.sol\":5321:5326  owner */\n      dup3\n        /* \"smart contract/SwapCryptoLoanUpdate/contracts/facets/MartgptCoin.sol\":5328:5335  spender */\n      dup7\n        /* \"smart contract/SwapCryptoLoanUpdate/contracts/facets/MartgptCoin.sol\":5337:5374  currentAllowance.sub(subtractedValue) */\n      tag_211\n        /* \"smart contract/SwapCryptoLoanUpdate/contracts/facets/MartgptCoin.sol\":5358:5373  subtractedValue */\n      dup8\n        /* \"smart contract/SwapCryptoLoanUpdate/contracts/facets/MartgptCoin.sol\":5337:5353  currentAllowance */\n      dup6\n        /* \"smart contract/SwapCryptoLoanUpdate/contracts/facets/MartgptCoin.sol\":5337:5357  currentAllowance.sub */\n      tag_212\n      swap1\n        /* \"smart contract/SwapCryptoLoanUpdate/contracts/facets/MartgptCoin.sol\":5337:5374  currentAllowance.sub(subtractedValue) */\n      swap2\n      swap1\n      0xffffffff\n      and\n      jump\t// in\n    tag_211:\n        /* \"smart contract/SwapCryptoLoanUpdate/contracts/facets/MartgptCoin.sol\":5312:5320  _approve */\n      tag_138\n        /* \"smart contract/SwapCryptoLoanUpdate/contracts/facets/MartgptCoin.sol\":5312:5375  _approve(owner, spender, currentAllowance.sub(subtractedValue)) */\n      jump\t// in\n    tag_210:\n        /* \"smart contract/SwapCryptoLoanUpdate/contracts/facets/MartgptCoin.sol\":5403:5407  true */\n      0x01\n        /* \"smart contract/SwapCryptoLoanUpdate/contracts/facets/MartgptCoin.sol\":5396:5407  return true */\n      swap3\n      pop\n      pop\n      pop\n        /* \"smart contract/SwapCryptoLoanUpdate/contracts/facets/MartgptCoin.sol\":4928:5414  function decreaseAllowance(... */\n      swap3\n      swap2\n      pop\n      pop\n      jump\t// out\n        /* \"smart contract/SwapCryptoLoanUpdate/contracts/facets/MartgptCoin.sol\":3788:3990  function transfer(... */\n    tag_96:\n        /* \"smart contract/SwapCryptoLoanUpdate/contracts/facets/MartgptCoin.sol\":3880:3884  bool */\n      0x00\n        /* \"smart contract/SwapCryptoLoanUpdate/contracts/facets/MartgptCoin.sol\":3896:3909  address owner */\n      dup1\n        /* \"smart contract/SwapCryptoLoanUpdate/contracts/facets/MartgptCoin.sol\":3912:3924  _msgSender() */\n      tag_214\n        /* \"smart contract/SwapCryptoLoanUpdate/contracts/facets/MartgptCoin.sol\":3912:3922  _msgSender */\n      tag_119\n        /* \"smart contract/SwapCryptoLoanUpdate/contracts/facets/MartgptCoin.sol\":3912:3924  _msgSender() */\n      jump\t// in\n    tag_214:\n        /* \"smart contract/SwapCryptoLoanUpdate/contracts/facets/MartgptCoin.sol\":3896:3924  address owner = _msgSender() */\n      swap1\n      pop\n        /* \"smart contract/SwapCryptoLoanUpdate/contracts/facets/MartgptCoin.sol\":3934:3962  _transfer(owner, to, amount) */\n      tag_215\n        /* \"smart contract/SwapCryptoLoanUpdate/contracts/facets/MartgptCoin.sol\":3944:3949  owner */\n      dup2\n        /* \"smart contract/SwapCryptoLoanUpdate/contracts/facets/MartgptCoin.sol\":3951:3953  to */\n      dup6\n        /* \"smart contract/SwapCryptoLoanUpdate/contracts/facets/MartgptCoin.sol\":3955:3961  amount */\n      dup6\n        /* \"smart contract/SwapCryptoLoanUpdate/contracts/facets/MartgptCoin.sol\":3934:3943  _transfer */\n      tag_145\n        /* \"smart contract/SwapCryptoLoanUpdate/contracts/facets/MartgptCoin.sol\":3934:3962  _transfer(owner, to, amount) */\n      jump\t// in\n    tag_215:\n        /* \"smart contract/SwapCryptoLoanUpdate/contracts/facets/MartgptCoin.sol\":3979:3983  true */\n      0x01\n        /* \"smart contract/SwapCryptoLoanUpdate/contracts/facets/MartgptCoin.sol\":3972:3983  return true */\n      swap2\n      pop\n      pop\n        /* \"smart contract/SwapCryptoLoanUpdate/contracts/facets/MartgptCoin.sol\":3788:3990  function transfer(... */\n      swap3\n      swap2\n      pop\n      pop\n      jump\t// out\n        /* \"smart contract/SwapCryptoLoanUpdate/contracts/facets/MartgptCoin.sol\":3996:4158  function allowance(... */\n    tag_101:\n        /* \"smart contract/SwapCryptoLoanUpdate/contracts/facets/MartgptCoin.sol\":4098:4105  uint256 */\n      0x00\n        /* \"smart contract/SwapCryptoLoanUpdate/contracts/facets/MartgptCoin.sol\":4124:4135  _allowances */\n      0x02\n        /* \"smart contract/SwapCryptoLoanUpdate/contracts/facets/MartgptCoin.sol\":4124:4142  _allowances[owner] */\n      0x00\n        /* \"smart contract/SwapCryptoLoanUpdate/contracts/facets/MartgptCoin.sol\":4136:4141  owner */\n      dup5\n        /* \"smart contract/SwapCryptoLoanUpdate/contracts/facets/MartgptCoin.sol\":4124:4142  _allowances[owner] */\n      0xffffffffffffffffffffffffffffffffffffffff\n      and\n      0xffffffffffffffffffffffffffffffffffffffff\n      and\n      dup2\n      mstore\n      0x20\n      add\n      swap1\n      dup2\n      mstore\n      0x20\n      add\n      0x00\n      keccak256\n        /* \"smart contract/SwapCryptoLoanUpdate/contracts/facets/MartgptCoin.sol\":4124:4151  _allowances[owner][spender] */\n      0x00\n        /* \"smart contract/SwapCryptoLoanUpdate/contracts/facets/MartgptCoin.sol\":4143:4150  spender */\n      dup4\n        /* \"smart contract/SwapCryptoLoanUpdate/contracts/facets/MartgptCoin.sol\":4124:4151  _allowances[owner][spender] */\n      0xffffffffffffffffffffffffffffffffffffffff\n      and\n      0xffffffffffffffffffffffffffffffffffffffff\n      and\n      dup2\n      mstore\n      0x20\n      add\n      swap1\n      dup2\n      mstore\n      0x20\n      add\n      0x00\n      keccak256\n      sload\n        /* \"smart contract/SwapCryptoLoanUpdate/contracts/facets/MartgptCoin.sol\":4117:4151  return _allowances[owner][spender] */\n      swap1\n      pop\n        /* \"smart contract/SwapCryptoLoanUpdate/contracts/facets/MartgptCoin.sol\":3996:4158  function allowance(... */\n      swap3\n      swap2\n      pop\n      pop\n      jump\t// out\n        /* \"smart contract/SwapCryptoLoanUpdate/contracts/extensions/Ownable.sol\":1574:1683  function transferOwnership(address newOwner) external onlyOwner {... */\n    tag_105:\n        /* \"smart contract/SwapCryptoLoanUpdate/contracts/extensions/Ownable.sol\":705:714  isOwner() */\n      tag_218\n        /* \"smart contract/SwapCryptoLoanUpdate/contracts/extensions/Ownable.sol\":705:712  isOwner */\n      tag_85\n        /* \"smart contract/SwapCryptoLoanUpdate/contracts/extensions/Ownable.sol\":705:714  isOwner() */\n      jump\t// in\n    tag_218:\n        /* \"smart contract/SwapCryptoLoanUpdate/contracts/extensions/Ownable.sol\":697:751  require(isOwner(), \"Ownable: caller is not the owner\") */\n      tag_219\n      jumpi\n      mload(0x40)\n      0x08c379a000000000000000000000000000000000000000000000000000000000\n      dup2\n      mstore\n      0x04\n      add\n      tag_220\n      swap1\n      tag_190\n      jump\t// in\n    tag_220:\n      mload(0x40)\n      dup1\n      swap2\n      sub\n      swap1\n      revert\n    tag_219:\n        /* \"smart contract/SwapCryptoLoanUpdate/contracts/extensions/Ownable.sol\":1648:1676  _transferOwnership(newOwner) */\n      tag_222\n        /* \"smart contract/SwapCryptoLoanUpdate/contracts/extensions/Ownable.sol\":1667:1675  newOwner */\n      dup2\n        /* \"smart contract/SwapCryptoLoanUpdate/contracts/extensions/Ownable.sol\":1648:1666  _transferOwnership */\n      tag_223\n        /* \"smart contract/SwapCryptoLoanUpdate/contracts/extensions/Ownable.sol\":1648:1676  _transferOwnership(newOwner) */\n      jump\t// in\n    tag_222:\n        /* \"smart contract/SwapCryptoLoanUpdate/contracts/extensions/Ownable.sol\":1574:1683  function transferOwnership(address newOwner) external onlyOwner {... */\n      pop\n      jump\t// out\n        /* \"smart contract/SwapCryptoLoanUpdate/contracts/facets/MartgptCoin.sol\":7257:7394  function _checkCap(uint256 amount) internal virtual {... */\n    tag_115:\n        /* \"smart contract/SwapCryptoLoanUpdate/contracts/facets/MartgptCoin.sol\":7340:7364  _totalSupply.add(amount) */\n      tag_225\n        /* \"smart contract/SwapCryptoLoanUpdate/contracts/facets/MartgptCoin.sol\":7357:7363  amount */\n      dup2\n        /* \"smart contract/SwapCryptoLoanUpdate/contracts/facets/MartgptCoin.sol\":7340:7352  _totalSupply */\n      sload(0x03)\n        /* \"smart contract/SwapCryptoLoanUpdate/contracts/facets/MartgptCoin.sol\":7340:7356  _totalSupply.add */\n      tag_156\n      swap1\n        /* \"smart contract/SwapCryptoLoanUpdate/contracts/facets/MartgptCoin.sol\":7340:7364  _totalSupply.add(amount) */\n      swap2\n      swap1\n      0xffffffff\n      and\n      jump\t// in\n    tag_225:\n        /* \"smart contract/SwapCryptoLoanUpdate/contracts/facets/MartgptCoin.sol\":7327:7336  _totalCap */\n      sload(0x08)\n        /* \"smart contract/SwapCryptoLoanUpdate/contracts/facets/MartgptCoin.sol\":7327:7364  _totalCap >= _totalSupply.add(amount) */\n      lt\n      iszero\n        /* \"smart contract/SwapCryptoLoanUpdate/contracts/facets/MartgptCoin.sol\":7319:7387  require(_totalCap >= _totalSupply.add(amount), \"Total Cap exceeded\") */\n      tag_226\n      jumpi\n      mload(0x40)\n      0x08c379a000000000000000000000000000000000000000000000000000000000\n      dup2\n      mstore\n      0x04\n      add\n      tag_227\n      swap1\n      tag_228\n      jump\t// in\n    tag_227:\n      mload(0x40)\n      dup1\n      swap2\n      sub\n      swap1\n      revert\n    tag_226:\n        /* \"smart contract/SwapCryptoLoanUpdate/contracts/facets/MartgptCoin.sol\":7257:7394  function _checkCap(uint256 amount) internal virtual {... */\n      pop\n      jump\t// out\n        /* \"smart contract/SwapCryptoLoanUpdate/contracts/facets/MartgptCoin.sol\":6497:6682  function _mint(address account, uint256 amount) internal {... */\n    tag_117:\n        /* \"smart contract/SwapCryptoLoanUpdate/contracts/facets/MartgptCoin.sol\":6591:6592  0 */\n      0x00\n        /* \"smart contract/SwapCryptoLoanUpdate/contracts/facets/MartgptCoin.sol\":6572:6593  account != address(0) */\n      0xffffffffffffffffffffffffffffffffffffffff\n      and\n        /* \"smart contract/SwapCryptoLoanUpdate/contracts/facets/MartgptCoin.sol\":6572:6579  account */\n      dup3\n        /* \"smart contract/SwapCryptoLoanUpdate/contracts/facets/MartgptCoin.sol\":6572:6593  account != address(0) */\n      0xffffffffffffffffffffffffffffffffffffffff\n      and\n      sub\n        /* \"smart contract/SwapCryptoLoanUpdate/contracts/facets/MartgptCoin.sol\":6564:6629  require(account != address(0), \"ERC20: mint to the zero address\") */\n      tag_230\n      jumpi\n      mload(0x40)\n      0x08c379a000000000000000000000000000000000000000000000000000000000\n      dup2\n      mstore\n      0x04\n      add\n      tag_231\n      swap1\n      tag_232\n      jump\t// in\n    tag_231:\n      mload(0x40)\n      dup1\n      swap2\n      sub\n      swap1\n      revert\n    tag_230:\n        /* \"smart contract/SwapCryptoLoanUpdate/contracts/facets/MartgptCoin.sol\":6639:6675  _update(address(0), account, amount) */\n      tag_233\n        /* \"smart contract/SwapCryptoLoanUpdate/contracts/facets/MartgptCoin.sol\":6655:6656  0 */\n      0x00\n        /* \"smart contract/SwapCryptoLoanUpdate/contracts/facets/MartgptCoin.sol\":6659:6666  account */\n      dup4\n        /* \"smart contract/SwapCryptoLoanUpdate/contracts/facets/MartgptCoin.sol\":6668:6674  amount */\n      dup4\n        /* \"smart contract/SwapCryptoLoanUpdate/contracts/facets/MartgptCoin.sol\":6639:6646  _update */\n      tag_234\n        /* \"smart contract/SwapCryptoLoanUpdate/contracts/facets/MartgptCoin.sol\":6639:6675  _update(address(0), account, amount) */\n      jump\t// in\n    tag_233:\n        /* \"smart contract/SwapCryptoLoanUpdate/contracts/facets/MartgptCoin.sol\":6497:6682  function _mint(address account, uint256 amount) internal {... */\n      pop\n      pop\n      jump\t// out\n        /* \"smart contract/SwapCryptoLoanUpdate/contracts/utils/Context.sol\":640:736  function _msgSender() internal view virtual returns (address) {... */\n    tag_119:\n        /* \"smart contract/SwapCryptoLoanUpdate/contracts/utils/Context.sol\":693:700  address */\n      0x00\n        /* \"smart contract/SwapCryptoLoanUpdate/contracts/utils/Context.sol\":719:729  msg.sender */\n      caller\n        /* \"smart contract/SwapCryptoLoanUpdate/contracts/utils/Context.sol\":712:729  return msg.sender */\n      swap1\n      pop\n        /* \"smart contract/SwapCryptoLoanUpdate/contracts/utils/Context.sol\":640:736  function _msgSender() internal view virtual returns (address) {... */\n      swap1\n      jump\t// out\n        /* \"smart contract/SwapCryptoLoanUpdate/contracts/facets/MartgptCoin.sol\":6881:7251  function _approve(... */\n    tag_138:\n        /* \"smart contract/SwapCryptoLoanUpdate/contracts/facets/MartgptCoin.sol\":7029:7030  0 */\n      0x00\n        /* \"smart contract/SwapCryptoLoanUpdate/contracts/facets/MartgptCoin.sol\":7012:7031  owner != address(0) */\n      0xffffffffffffffffffffffffffffffffffffffff\n      and\n        /* \"smart contract/SwapCryptoLoanUpdate/contracts/facets/MartgptCoin.sol\":7012:7017  owner */\n      dup4\n        /* \"smart contract/SwapCryptoLoanUpdate/contracts/facets/MartgptCoin.sol\":7012:7031  owner != address(0) */\n      0xffffffffffffffffffffffffffffffffffffffff\n      and\n      sub\n        /* \"smart contract/SwapCryptoLoanUpdate/contracts/facets/MartgptCoin.sol\":7004:7072  require(owner != address(0), \"ERC20: approve from the zero address\") */\n      tag_237\n      jumpi\n      mload(0x40)\n      0x08c379a000000000000000000000000000000000000000000000000000000000\n      dup2\n      mstore\n      0x04\n      add\n      tag_238\n      swap1\n      tag_239\n      jump\t// in\n    tag_238:\n      mload(0x40)\n      dup1\n      swap2\n      sub\n      swap1\n      revert\n    tag_237:\n        /* \"smart contract/SwapCryptoLoanUpdate/contracts/facets/MartgptCoin.sol\":7109:7110  0 */\n      0x00\n        /* \"smart contract/SwapCryptoLoanUpdate/contracts/facets/MartgptCoin.sol\":7090:7111  spender != address(0) */\n      0xffffffffffffffffffffffffffffffffffffffff\n      and\n        /* \"smart contract/SwapCryptoLoanUpdate/contracts/facets/MartgptCoin.sol\":7090:7097  spender */\n      dup3\n        /* \"smart contract/SwapCryptoLoanUpdate/contracts/facets/MartgptCoin.sol\":7090:7111  spender != address(0) */\n      0xffffffffffffffffffffffffffffffffffffffff\n      and\n      sub\n        /* \"smart contract/SwapCryptoLoanUpdate/contracts/facets/MartgptCoin.sol\":7082:7150  require(spender != address(0), \"ERC20: approve to the zero address\") */\n      tag_240\n      jumpi\n      mload(0x40)\n      0x08c379a000000000000000000000000000000000000000000000000000000000\n      dup2\n      mstore\n      0x04\n      add\n      tag_241\n      swap1\n      tag_242\n      jump\t// in\n    tag_241:\n      mload(0x40)\n      dup1\n      swap2\n      sub\n      swap1\n      revert\n    tag_240:\n        /* \"smart contract/SwapCryptoLoanUpdate/contracts/facets/MartgptCoin.sol\":7191:7197  amount */\n      dup1\n        /* \"smart contract/SwapCryptoLoanUpdate/contracts/facets/MartgptCoin.sol\":7161:7172  _allowances */\n      0x02\n        /* \"smart contract/SwapCryptoLoanUpdate/contracts/facets/MartgptCoin.sol\":7161:7179  _allowances[owner] */\n      0x00\n        /* \"smart contract/SwapCryptoLoanUpdate/contracts/facets/MartgptCoin.sol\":7173:7178  owner */\n      dup6\n        /* \"smart contract/SwapCryptoLoanUpdate/contracts/facets/MartgptCoin.sol\":7161:7179  _allowances[owner] */\n      0xffffffffffffffffffffffffffffffffffffffff\n      and\n      0xffffffffffffffffffffffffffffffffffffffff\n      and\n      dup2\n      mstore\n      0x20\n      add\n      swap1\n      dup2\n      mstore\n      0x20\n      add\n      0x00\n      keccak256\n        /* \"smart contract/SwapCryptoLoanUpdate/contracts/facets/MartgptCoin.sol\":7161:7188  _allowances[owner][spender] */\n      0x00\n        /* \"smart contract/SwapCryptoLoanUpdate/contracts/facets/MartgptCoin.sol\":7180:7187  spender */\n      dup5\n        /* \"smart contract/SwapCryptoLoanUpdate/contracts/facets/MartgptCoin.sol\":7161:7188  _allowances[owner][spender] */\n      0xffffffffffffffffffffffffffffffffffffffff\n      and\n      0xffffffffffffffffffffffffffffffffffffffff\n      and\n      dup2\n      mstore\n      0x20\n      add\n      swap1\n      dup2\n      mstore\n      0x20\n      add\n      0x00\n      keccak256\n        /* \"smart contract/SwapCryptoLoanUpdate/contracts/facets/MartgptCoin.sol\":7161:7197  _allowances[owner][spender] = amount */\n      dup2\n      swap1\n      sstore\n      pop\n        /* \"smart contract/SwapCryptoLoanUpdate/contracts/facets/MartgptCoin.sol\":7228:7235  spender */\n      dup2\n        /* \"smart contract/SwapCryptoLoanUpdate/contracts/facets/MartgptCoin.sol\":7212:7244  Approval(owner, spender, amount) */\n      0xffffffffffffffffffffffffffffffffffffffff\n      and\n        /* \"smart contract/SwapCryptoLoanUpdate/contracts/facets/MartgptCoin.sol\":7221:7226  owner */\n      dup4\n        /* \"smart contract/SwapCryptoLoanUpdate/contracts/facets/MartgptCoin.sol\":7212:7244  Approval(owner, spender, amount) */\n      0xffffffffffffffffffffffffffffffffffffffff\n      and\n      0x8c5be1e5ebec7d5bd14f71427d1e84f3dd0314c0f7b2291e5b200ac8c7c3b925\n        /* \"smart contract/SwapCryptoLoanUpdate/contracts/facets/MartgptCoin.sol\":7237:7243  amount */\n      dup4\n        /* \"smart contract/SwapCryptoLoanUpdate/contracts/facets/MartgptCoin.sol\":7212:7244  Approval(owner, spender, amount) */\n      mload(0x40)\n      tag_243\n      swap2\n      swap1\n      tag_43\n      jump\t// in\n    tag_243:\n      mload(0x40)\n      dup1\n      swap2\n      sub\n      swap1\n      log3\n        /* \"smart contract/SwapCryptoLoanUpdate/contracts/facets/MartgptCoin.sol\":6881:7251  function _approve(... */\n      pop\n      pop\n      pop\n      jump\t// out\n        /* \"smart contract/SwapCryptoLoanUpdate/contracts/facets/MartgptCoin.sol\":7400:7890  function _spendAllowance(... */\n    tag_143:\n        /* \"smart contract/SwapCryptoLoanUpdate/contracts/facets/MartgptCoin.sol\":7530:7554  uint256 currentAllowance */\n      0x00\n        /* \"smart contract/SwapCryptoLoanUpdate/contracts/facets/MartgptCoin.sol\":7557:7582  allowance(owner, spender) */\n      tag_245\n        /* \"smart contract/SwapCryptoLoanUpdate/contracts/facets/MartgptCoin.sol\":7567:7572  owner */\n      dup5\n        /* \"smart contract/SwapCryptoLoanUpdate/contracts/facets/MartgptCoin.sol\":7574:7581  spender */\n      dup5\n        /* \"smart contract/SwapCryptoLoanUpdate/contracts/facets/MartgptCoin.sol\":7557:7566  allowance */\n      tag_101\n        /* \"smart contract/SwapCryptoLoanUpdate/contracts/facets/MartgptCoin.sol\":7557:7582  allowance(owner, spender) */\n      jump\t// in\n    tag_245:\n        /* \"smart contract/SwapCryptoLoanUpdate/contracts/facets/MartgptCoin.sol\":7530:7582  uint256 currentAllowance = allowance(owner, spender) */\n      swap1\n      pop\n        /* \"smart contract/SwapCryptoLoanUpdate/contracts/facets/MartgptCoin.sol\":7616:7633  type(uint256).max */\n      0xffffffffffffffffffffffffffffffffffffffffffffffffffffffffffffffff\n        /* \"smart contract/SwapCryptoLoanUpdate/contracts/facets/MartgptCoin.sol\":7596:7612  currentAllowance */\n      dup2\n        /* \"smart contract/SwapCryptoLoanUpdate/contracts/facets/MartgptCoin.sol\":7596:7633  currentAllowance != type(uint256).max */\n      eq\n        /* \"smart contract/SwapCryptoLoanUpdate/contracts/facets/MartgptCoin.sol\":7592:7884  if (currentAllowance != type(uint256).max) {... */\n      tag_246\n      jumpi\n        /* \"smart contract/SwapCryptoLoanUpdate/contracts/facets/MartgptCoin.sol\":7694:7700  amount */\n      dup2\n        /* \"smart contract/SwapCryptoLoanUpdate/contracts/facets/MartgptCoin.sol\":7674:7690  currentAllowance */\n      dup2\n        /* \"smart contract/SwapCryptoLoanUpdate/contracts/facets/MartgptCoin.sol\":7674:7700  currentAllowance >= amount */\n      lt\n      iszero\n        /* \"smart contract/SwapCryptoLoanUpdate/contracts/facets/MartgptCoin.sol\":7649:7763  require(... */\n      tag_247\n      jumpi\n      mload(0x40)\n      0x08c379a000000000000000000000000000000000000000000000000000000000\n      dup2\n      mstore\n      0x04\n      add\n      tag_248\n      swap1\n      tag_249\n      jump\t// in\n    tag_248:\n      mload(0x40)\n      dup1\n      swap2\n      sub\n      swap1\n      revert\n    tag_247:\n        /* \"smart contract/SwapCryptoLoanUpdate/contracts/facets/MartgptCoin.sol\":7805:7859  _approve(owner, spender, currentAllowance.sub(amount)) */\n      tag_250\n        /* \"smart contract/SwapCryptoLoanUpdate/contracts/facets/MartgptCoin.sol\":7814:7819  owner */\n      dup5\n        /* \"smart contract/SwapCryptoLoanUpdate/contracts/facets/MartgptCoin.sol\":7821:7828  spender */\n      dup5\n        /* \"smart contract/SwapCryptoLoanUpdate/contracts/facets/MartgptCoin.sol\":7830:7858  currentAllowance.sub(amount) */\n      tag_251\n        /* \"smart contract/SwapCryptoLoanUpdate/contracts/facets/MartgptCoin.sol\":7851:7857  amount */\n      dup6\n        /* \"smart contract/SwapCryptoLoanUpdate/contracts/facets/MartgptCoin.sol\":7830:7846  currentAllowance */\n      dup6\n        /* \"smart contract/SwapCryptoLoanUpdate/contracts/facets/MartgptCoin.sol\":7830:7850  currentAllowance.sub */\n      tag_212\n      swap1\n        /* \"smart contract/SwapCryptoLoanUpdate/contracts/facets/MartgptCoin.sol\":7830:7858  currentAllowance.sub(amount) */\n      swap2\n      swap1\n      0xffffffff\n      and\n      jump\t// in\n    tag_251:\n        /* \"smart contract/SwapCryptoLoanUpdate/contracts/facets/MartgptCoin.sol\":7805:7813  _approve */\n      tag_138\n        /* \"smart contract/SwapCryptoLoanUpdate/contracts/facets/MartgptCoin.sol\":7805:7859  _approve(owner, spender, currentAllowance.sub(amount)) */\n      jump\t// in\n    tag_250:\n        /* \"smart contract/SwapCryptoLoanUpdate/contracts/facets/MartgptCoin.sol\":7592:7884  if (currentAllowance != type(uint256).max) {... */\n    tag_246:\n        /* \"smart contract/SwapCryptoLoanUpdate/contracts/facets/MartgptCoin.sol\":7520:7890  {... */\n      pop\n        /* \"smart contract/SwapCryptoLoanUpdate/contracts/facets/MartgptCoin.sol\":7400:7890  function _spendAllowance(... */\n      pop\n      pop\n      pop\n      jump\t// out\n        /* \"smart contract/SwapCryptoLoanUpdate/contracts/facets/MartgptCoin.sol\":5420:5684  function _transfer(address from, address to, uint256 amount) internal {... */\n    tag_145:\n        /* \"smart contract/SwapCryptoLoanUpdate/contracts/facets/MartgptCoin.sol\":5524:5525  0 */\n      0x00\n        /* \"smart contract/SwapCryptoLoanUpdate/contracts/facets/MartgptCoin.sol\":5508:5526  from != address(0) */\n      0xffffffffffffffffffffffffffffffffffffffff\n      and\n        /* \"smart contract/SwapCryptoLoanUpdate/contracts/facets/MartgptCoin.sol\":5508:5512  from */\n      dup4\n        /* \"smart contract/SwapCryptoLoanUpdate/contracts/facets/MartgptCoin.sol\":5508:5526  from != address(0) */\n      0xffffffffffffffffffffffffffffffffffffffff\n      and\n      sub\n        /* \"smart contract/SwapCryptoLoanUpdate/contracts/facets/MartgptCoin.sol\":5500:5568  require(from != address(0), \"ERC20: transfer from the zero address\") */\n      tag_253\n      jumpi\n      mload(0x40)\n      0x08c379a000000000000000000000000000000000000000000000000000000000\n      dup2\n      mstore\n      0x04\n      add\n      tag_254\n      swap1\n      tag_255\n      jump\t// in\n    tag_254:\n      mload(0x40)\n      dup1\n      swap2\n      sub\n      swap1\n      revert\n    tag_253:\n        /* \"smart contract/SwapCryptoLoanUpdate/contracts/facets/MartgptCoin.sol\":5600:5601  0 */\n      0x00\n        /* \"smart contract/SwapCryptoLoanUpdate/contracts/facets/MartgptCoin.sol\":5586:5602  to != address(0) */\n      0xffffffffffffffffffffffffffffffffffffffff\n      and\n        /* \"smart contract/SwapCryptoLoanUpdate/contracts/facets/MartgptCoin.sol\":5586:5588  to */\n      dup3\n        /* \"smart contract/SwapCryptoLoanUpdate/contracts/facets/MartgptCoin.sol\":5586:5602  to != address(0) */\n      0xffffffffffffffffffffffffffffffffffffffff\n      and\n      sub\n        /* \"smart contract/SwapCryptoLoanUpdate/contracts/facets/MartgptCoin.sol\":5578:5642  require(to != address(0), \"ERC20: transfer to the zero address\") */\n      tag_256\n      jumpi\n      mload(0x40)\n      0x08c379a000000000000000000000000000000000000000000000000000000000\n      dup2\n      mstore\n      0x04\n      add\n      tag_257\n      swap1\n      tag_258\n      jump\t// in\n    tag_257:\n      mload(0x40)\n      dup1\n      swap2\n      sub\n      swap1\n      revert\n    tag_256:\n        /* \"smart contract/SwapCryptoLoanUpdate/contracts/facets/MartgptCoin.sol\":5652:5677  _update(from, to, amount) */\n      tag_259\n        /* \"smart contract/SwapCryptoLoanUpdate/contracts/facets/MartgptCoin.sol\":5660:5664  from */\n      dup4\n        /* \"smart contract/SwapCryptoLoanUpdate/contracts/facets/MartgptCoin.sol\":5666:5668  to */\n      dup4\n        /* \"smart contract/SwapCryptoLoanUpdate/contracts/facets/MartgptCoin.sol\":5670:5676  amount */\n      dup4\n        /* \"smart contract/SwapCryptoLoanUpdate/contracts/facets/MartgptCoin.sol\":5652:5659  _update */\n      tag_234\n        /* \"smart contract/SwapCryptoLoanUpdate/contracts/facets/MartgptCoin.sol\":5652:5677  _update(from, to, amount) */\n      jump\t// in\n    tag_259:\n        /* \"smart contract/SwapCryptoLoanUpdate/contracts/facets/MartgptCoin.sol\":5420:5684  function _transfer(address from, address to, uint256 amount) internal {... */\n      pop\n      pop\n      pop\n      jump\t// out\n        /* \"smart contract/SwapCryptoLoanUpdate/contracts/libraries/SafeMath.sol\":2749:2845  function add(uint256 a, uint256 b) internal pure returns (uint256) {... */\n    tag_156:\n        /* \"smart contract/SwapCryptoLoanUpdate/contracts/libraries/SafeMath.sol\":2807:2814  uint256 */\n      0x00\n        /* \"smart contract/SwapCryptoLoanUpdate/contracts/libraries/SafeMath.sol\":2837:2838  b */\n      dup2\n        /* \"smart contract/SwapCryptoLoanUpdate/contracts/libraries/SafeMath.sol\":2833:2834  a */\n      dup4\n        /* \"smart contract/SwapCryptoLoanUpdate/contracts/libraries/SafeMath.sol\":2833:2838  a + b */\n      tag_261\n      swap2\n      swap1\n      tag_262\n      jump\t// in\n    tag_261:\n        /* \"smart contract/SwapCryptoLoanUpdate/contracts/libraries/SafeMath.sol\":2826:2838  return a + b */\n      swap1\n      pop\n        /* \"smart contract/SwapCryptoLoanUpdate/contracts/libraries/SafeMath.sol\":2749:2845  function add(uint256 a, uint256 b) internal pure returns (uint256) {... */\n      swap3\n      swap2\n      pop\n      pop\n      jump\t// out\n        /* \"smart contract/SwapCryptoLoanUpdate/contracts/facets/MartgptCoin.sol\":6688:6875  function _burn(address account, uint256 amount) internal {... */\n    tag_167:\n        /* \"smart contract/SwapCryptoLoanUpdate/contracts/facets/MartgptCoin.sol\":6782:6783  0 */\n      0x00\n        /* \"smart contract/SwapCryptoLoanUpdate/contracts/facets/MartgptCoin.sol\":6763:6784  account != address(0) */\n      0xffffffffffffffffffffffffffffffffffffffff\n      and\n        /* \"smart contract/SwapCryptoLoanUpdate/contracts/facets/MartgptCoin.sol\":6763:6770  account */\n      dup3\n        /* \"smart contract/SwapCryptoLoanUpdate/contracts/facets/MartgptCoin.sol\":6763:6784  account != address(0) */\n      0xffffffffffffffffffffffffffffffffffffffff\n      and\n      sub\n        /* \"smart contract/SwapCryptoLoanUpdate/contracts/facets/MartgptCoin.sol\":6755:6822  require(account != address(0), \"ERC20: burn from the zero address\") */\n      tag_264\n      jumpi\n      mload(0x40)\n      0x08c379a000000000000000000000000000000000000000000000000000000000\n      dup2\n      mstore\n      0x04\n      add\n      tag_265\n      swap1\n      tag_266\n      jump\t// in\n    tag_265:\n      mload(0x40)\n      dup1\n      swap2\n      sub\n      swap1\n      revert\n    tag_264:\n        /* \"smart contract/SwapCryptoLoanUpdate/contracts/facets/MartgptCoin.sol\":6832:6868  _update(account, address(0), amount) */\n      tag_267\n        /* \"smart contract/SwapCryptoLoanUpdate/contracts/facets/MartgptCoin.sol\":6840:6847  account */\n      dup3\n        /* \"smart contract/SwapCryptoLoanUpdate/contracts/facets/MartgptCoin.sol\":6857:6858  0 */\n      0x00\n        /* \"smart contract/SwapCryptoLoanUpdate/contracts/facets/MartgptCoin.sol\":6861:6867  amount */\n      dup4\n        /* \"smart contract/SwapCryptoLoanUpdate/contracts/facets/MartgptCoin.sol\":6832:6839  _update */\n      tag_234\n        /* \"smart contract/SwapCryptoLoanUpdate/contracts/facets/MartgptCoin.sol\":6832:6868  _update(account, address(0), amount) */\n      jump\t// in\n    tag_267:\n        /* \"smart contract/SwapCryptoLoanUpdate/contracts/facets/MartgptCoin.sol\":6688:6875  function _burn(address account, uint256 amount) internal {... */\n      pop\n      pop\n      jump\t// out\n        /* \"smart contract/SwapCryptoLoanUpdate/contracts/libraries/SafeMath.sol\":3116:3212  function sub(uint256 a, uint256 b) internal pure returns (uint256) {... */\n    tag_212:\n        /* \"smart contract/SwapCryptoLoanUpdate/contracts/libraries/SafeMath.sol\":3174:3181  uint256 */\n      0x00\n        /* \"smart contract/SwapCryptoLoanUpdate/contracts/libraries/SafeMath.sol\":3204:3205  b */\n      dup2\n        /* \"smart contract/SwapCryptoLoanUpdate/contracts/libraries/SafeMath.sol\":3200:3201  a */\n      dup4\n        /* \"smart contract/SwapCryptoLoanUpdate/contracts/libraries/SafeMath.sol\":3200:3205  a - b */\n      tag_269\n      swap2\n      swap1\n      tag_270\n      jump\t// in\n    tag_269:\n        /* \"smart contract/SwapCryptoLoanUpdate/contracts/libraries/SafeMath.sol\":3193:3205  return a - b */\n      swap1\n      pop\n        /* \"smart contract/SwapCryptoLoanUpdate/contracts/libraries/SafeMath.sol\":3116:3212  function sub(uint256 a, uint256 b) internal pure returns (uint256) {... */\n      swap3\n      swap2\n      pop\n      pop\n      jump\t// out\n        /* \"smart contract/SwapCryptoLoanUpdate/contracts/extensions/Ownable.sol\":1784:2043  function _transferOwnership(address newOwner) internal {... */\n    tag_223:\n        /* \"smart contract/SwapCryptoLoanUpdate/contracts/extensions/Ownable.sol\":1890:1891  0 */\n      0x00\n        /* \"smart contract/SwapCryptoLoanUpdate/contracts/extensions/Ownable.sol\":1870:1892  newOwner != address(0) */\n      0xffffffffffffffffffffffffffffffffffffffff\n      and\n        /* \"smart contract/SwapCryptoLoanUpdate/contracts/extensions/Ownable.sol\":1870:1878  newOwner */\n      dup2\n        /* \"smart contract/SwapCryptoLoanUpdate/contracts/extensions/Ownable.sol\":1870:1892  newOwner != address(0) */\n      0xffffffffffffffffffffffffffffffffffffffff\n      and\n      sub\n        /* \"smart contract/SwapCryptoLoanUpdate/contracts/extensions/Ownable.sol\":1849:1956  require(... */\n      tag_272\n      jumpi\n      mload(0x40)\n      0x08c379a000000000000000000000000000000000000000000000000000000000\n      dup2\n      mstore\n      0x04\n      add\n      tag_273\n      swap1\n      tag_274\n      jump\t// in\n    tag_273:\n      mload(0x40)\n      dup1\n      swap2\n      sub\n      swap1\n      revert\n    tag_272:\n        /* \"smart contract/SwapCryptoLoanUpdate/contracts/extensions/Ownable.sol\":2000:2008  newOwner */\n      dup1\n        /* \"smart contract/SwapCryptoLoanUpdate/contracts/extensions/Ownable.sol\":1971:2009  OwnershipTransferred(_owner, newOwner) */\n      0xffffffffffffffffffffffffffffffffffffffff\n      and\n        /* \"smart contract/SwapCryptoLoanUpdate/contracts/extensions/Ownable.sol\":1992:1998  _owner */\n      0x00\n      dup1\n      sload\n      swap1\n      0x0100\n      exp\n      swap1\n      div\n      0xffffffffffffffffffffffffffffffffffffffff\n      and\n        /* \"smart contract/SwapCryptoLoanUpdate/contracts/extensions/Ownable.sol\":1971:2009  OwnershipTransferred(_owner, newOwner) */\n      0xffffffffffffffffffffffffffffffffffffffff\n      and\n      0x8be0079c531659141344cd1fd0a4f28419497f9722a3daafe3b4186f6b6457e0\n      mload(0x40)\n      mload(0x40)\n      dup1\n      swap2\n      sub\n      swap1\n      log3\n        /* \"smart contract/SwapCryptoLoanUpdate/contracts/extensions/Ownable.sol\":2028:2036  newOwner */\n      dup1\n        /* \"smart contract/SwapCryptoLoanUpdate/contracts/extensions/Ownable.sol\":2019:2025  _owner */\n      0x00\n      dup1\n        /* \"smart contract/SwapCryptoLoanUpdate/contracts/extensions/Ownable.sol\":2019:2036  _owner = newOwner */\n      0x0100\n      exp\n      dup2\n      sload\n      dup2\n      0xffffffffffffffffffffffffffffffffffffffff\n      mul\n      not\n      and\n      swap1\n      dup4\n      0xffffffffffffffffffffffffffffffffffffffff\n      and\n      mul\n      or\n      swap1\n      sstore\n      pop\n        /* \"smart contract/SwapCryptoLoanUpdate/contracts/extensions/Ownable.sol\":1784:2043  function _transferOwnership(address newOwner) internal {... */\n      pop\n      jump\t// out\n        /* \"smart contract/SwapCryptoLoanUpdate/contracts/facets/MartgptCoin.sol\":5690:6491  function _update(... */\n    tag_234:\n        /* \"smart contract/SwapCryptoLoanUpdate/contracts/facets/MartgptCoin.sol\":5826:5827  0 */\n      0x00\n        /* \"smart contract/SwapCryptoLoanUpdate/contracts/facets/MartgptCoin.sol\":5810:5828  from == address(0) */\n      0xffffffffffffffffffffffffffffffffffffffff\n      and\n        /* \"smart contract/SwapCryptoLoanUpdate/contracts/facets/MartgptCoin.sol\":5810:5814  from */\n      dup4\n        /* \"smart contract/SwapCryptoLoanUpdate/contracts/facets/MartgptCoin.sol\":5810:5828  from == address(0) */\n      0xffffffffffffffffffffffffffffffffffffffff\n      and\n      sub\n        /* \"smart contract/SwapCryptoLoanUpdate/contracts/facets/MartgptCoin.sol\":5806:6191  if (from == address(0)) {... */\n      tag_276\n      jumpi\n        /* \"smart contract/SwapCryptoLoanUpdate/contracts/facets/MartgptCoin.sol\":5859:5883  _totalSupply.add(amount) */\n      tag_277\n        /* \"smart contract/SwapCryptoLoanUpdate/contracts/facets/MartgptCoin.sol\":5876:5882  amount */\n      dup2\n        /* \"smart contract/SwapCryptoLoanUpdate/contracts/facets/MartgptCoin.sol\":5859:5871  _totalSupply */\n      sload(0x03)\n        /* \"smart contract/SwapCryptoLoanUpdate/contracts/facets/MartgptCoin.sol\":5859:5875  _totalSupply.add */\n      tag_156\n      swap1\n        /* \"smart contract/SwapCryptoLoanUpdate/contracts/facets/MartgptCoin.sol\":5859:5883  _totalSupply.add(amount) */\n      swap2\n      swap1\n      0xffffffff\n      and\n      jump\t// in\n    tag_277:\n        /* \"smart contract/SwapCryptoLoanUpdate/contracts/facets/MartgptCoin.sol\":5844:5856  _totalSupply */\n      0x03\n        /* \"smart contract/SwapCryptoLoanUpdate/contracts/facets/MartgptCoin.sol\":5844:5883  _totalSupply = _totalSupply.add(amount) */\n      dup2\n      swap1\n      sstore\n      pop\n        /* \"smart contract/SwapCryptoLoanUpdate/contracts/facets/MartgptCoin.sol\":5806:6191  if (from == address(0)) {... */\n      jump(tag_278)\n    tag_276:\n        /* \"smart contract/SwapCryptoLoanUpdate/contracts/facets/MartgptCoin.sol\":5914:5933  uint256 fromBalance */\n      0x00\n        /* \"smart contract/SwapCryptoLoanUpdate/contracts/facets/MartgptCoin.sol\":5936:5945  _balances */\n      0x01\n        /* \"smart contract/SwapCryptoLoanUpdate/contracts/facets/MartgptCoin.sol\":5936:5951  _balances[from] */\n      0x00\n        /* \"smart contract/SwapCryptoLoanUpdate/contracts/facets/MartgptCoin.sol\":5946:5950  from */\n      dup6\n        /* \"smart contract/SwapCryptoLoanUpdate/contracts/facets/MartgptCoin.sol\":5936:5951  _balances[from] */\n      0xffffffffffffffffffffffffffffffffffffffff\n      and\n      0xffffffffffffffffffffffffffffffffffffffff\n      and\n      dup2\n      mstore\n      0x20\n      add\n      swap1\n      dup2\n      mstore\n      0x20\n      add\n      0x00\n      keccak256\n      sload\n        /* \"smart contract/SwapCryptoLoanUpdate/contracts/facets/MartgptCoin.sol\":5914:5951  uint256 fromBalance = _balances[from] */\n      swap1\n      pop\n        /* \"smart contract/SwapCryptoLoanUpdate/contracts/facets/MartgptCoin.sol\":6005:6011  amount */\n      dup2\n        /* \"smart contract/SwapCryptoLoanUpdate/contracts/facets/MartgptCoin.sol\":5990:6001  fromBalance */\n      dup2\n        /* \"smart contract/SwapCryptoLoanUpdate/contracts/facets/MartgptCoin.sol\":5990:6011  fromBalance >= amount */\n      lt\n      iszero\n        /* \"smart contract/SwapCryptoLoanUpdate/contracts/facets/MartgptCoin.sol\":5965:6083  require(... */\n      tag_279\n      jumpi\n      mload(0x40)\n      0x08c379a000000000000000000000000000000000000000000000000000000000\n      dup2\n      mstore\n      0x04\n      add\n      tag_280\n      swap1\n      tag_281\n      jump\t// in\n    tag_280:\n      mload(0x40)\n      dup1\n      swap2\n      sub\n      swap1\n      revert\n    tag_279:\n        /* \"smart contract/SwapCryptoLoanUpdate/contracts/facets/MartgptCoin.sol\":6143:6166  fromBalance.sub(amount) */\n      tag_282\n        /* \"smart contract/SwapCryptoLoanUpdate/contracts/facets/MartgptCoin.sol\":6159:6165  amount */\n      dup3\n        /* \"smart contract/SwapCryptoLoanUpdate/contracts/facets/MartgptCoin.sol\":6143:6154  fromBalance */\n      dup3\n        /* \"smart contract/SwapCryptoLoanUpdate/contracts/facets/MartgptCoin.sol\":6143:6158  fromBalance.sub */\n      tag_212\n      swap1\n        /* \"smart contract/SwapCryptoLoanUpdate/contracts/facets/MartgptCoin.sol\":6143:6166  fromBalance.sub(amount) */\n      swap2\n      swap1\n      0xffffffff\n      and\n      jump\t// in\n    tag_282:\n        /* \"smart contract/SwapCryptoLoanUpdate/contracts/facets/MartgptCoin.sol\":6125:6134  _balances */\n      0x01\n        /* \"smart contract/SwapCryptoLoanUpdate/contracts/facets/MartgptCoin.sol\":6125:6140  _balances[from] */\n      0x00\n        /* \"smart contract/SwapCryptoLoanUpdate/contracts/facets/MartgptCoin.sol\":6135:6139  from */\n      dup7\n        /* \"smart contract/SwapCryptoLoanUpdate/contracts/facets/MartgptCoin.sol\":6125:6140  _balances[from] */\n      0xffffffffffffffffffffffffffffffffffffffff\n      and\n      0xffffffffffffffffffffffffffffffffffffffff\n      and\n      dup2\n      mstore\n      0x20\n      add\n      swap1\n      dup2\n      mstore\n      0x20\n      add\n      0x00\n      keccak256\n        /* \"smart contract/SwapCryptoLoanUpdate/contracts/facets/MartgptCoin.sol\":6125:6166  _balances[from] = fromBalance.sub(amount) */\n      dup2\n      swap1\n      sstore\n      pop\n        /* \"smart contract/SwapCryptoLoanUpdate/contracts/facets/MartgptCoin.sol\":5900:6191  {... */\n      pop\n        /* \"smart contract/SwapCryptoLoanUpdate/contracts/facets/MartgptCoin.sol\":5806:6191  if (from == address(0)) {... */\n    tag_278:\n        /* \"smart contract/SwapCryptoLoanUpdate/contracts/facets/MartgptCoin.sol\":6219:6220  0 */\n      0x00\n        /* \"smart contract/SwapCryptoLoanUpdate/contracts/facets/MartgptCoin.sol\":6205:6221  to == address(0) */\n      0xffffffffffffffffffffffffffffffffffffffff\n      and\n        /* \"smart contract/SwapCryptoLoanUpdate/contracts/facets/MartgptCoin.sol\":6205:6207  to */\n      dup3\n        /* \"smart contract/SwapCryptoLoanUpdate/contracts/facets/MartgptCoin.sol\":6205:6221  to == address(0) */\n      0xffffffffffffffffffffffffffffffffffffffff\n      and\n      sub\n        /* \"smart contract/SwapCryptoLoanUpdate/contracts/facets/MartgptCoin.sol\":6201:6443  if (to == address(0)) {... */\n      tag_283\n      jumpi\n        /* \"smart contract/SwapCryptoLoanUpdate/contracts/facets/MartgptCoin.sol\":6280:6304  _totalSupply.sub(amount) */\n      tag_284\n        /* \"smart contract/SwapCryptoLoanUpdate/contracts/facets/MartgptCoin.sol\":6297:6303  amount */\n      dup2\n        /* \"smart contract/SwapCryptoLoanUpdate/contracts/facets/MartgptCoin.sol\":6280:6292  _totalSupply */\n      sload(0x03)\n        /* \"smart contract/SwapCryptoLoanUpdate/contracts/facets/MartgptCoin.sol\":6280:6296  _totalSupply.sub */\n      tag_212\n      swap1\n        /* \"smart contract/SwapCryptoLoanUpdate/contracts/facets/MartgptCoin.sol\":6280:6304  _totalSupply.sub(amount) */\n      swap2\n      swap1\n      0xffffffff\n      and\n      jump\t// in\n    tag_284:\n        /* \"smart contract/SwapCryptoLoanUpdate/contracts/facets/MartgptCoin.sol\":6265:6277  _totalSupply */\n      0x03\n        /* \"smart contract/SwapCryptoLoanUpdate/contracts/facets/MartgptCoin.sol\":6265:6304  _totalSupply = _totalSupply.sub(amount) */\n      dup2\n      swap1\n      sstore\n      pop\n        /* \"smart contract/SwapCryptoLoanUpdate/contracts/facets/MartgptCoin.sol\":6201:6443  if (to == address(0)) {... */\n      jump(tag_285)\n    tag_283:\n        /* \"smart contract/SwapCryptoLoanUpdate/contracts/facets/MartgptCoin.sol\":6393:6418  _balances[to].add(amount) */\n      tag_286\n        /* \"smart contract/SwapCryptoLoanUpdate/contracts/facets/MartgptCoin.sol\":6411:6417  amount */\n      dup2\n        /* \"smart contract/SwapCryptoLoanUpdate/contracts/facets/MartgptCoin.sol\":6393:6402  _balances */\n      0x01\n        /* \"smart contract/SwapCryptoLoanUpdate/contracts/facets/MartgptCoin.sol\":6393:6406  _balances[to] */\n      0x00\n        /* \"smart contract/SwapCryptoLoanUpdate/contracts/facets/MartgptCoin.sol\":6403:6405  to */\n      dup6\n        /* \"smart contract/SwapCryptoLoanUpdate/contracts/facets/MartgptCoin.sol\":6393:6406  _balances[to] */\n      0xffffffffffffffffffffffffffffffffffffffff\n      and\n      0xffffffffffffffffffffffffffffffffffffffff\n      and\n      dup2\n      mstore\n      0x20\n      add\n      swap1\n      dup2\n      mstore\n      0x20\n      add\n      0x00\n      keccak256\n      sload\n        /* \"smart contract/SwapCryptoLoanUpdate/contracts/facets/MartgptCoin.sol\":6393:6410  _balances[to].add */\n      tag_156\n      swap1\n        /* \"smart contract/SwapCryptoLoanUpdate/contracts/facets/MartgptCoin.sol\":6393:6418  _balances[to].add(amount) */\n      swap2\n      swap1\n      0xffffffff\n      and\n      jump\t// in\n    tag_286:\n        /* \"smart contract/SwapCryptoLoanUpdate/contracts/facets/MartgptCoin.sol\":6377:6386  _balances */\n      0x01\n        /* \"smart contract/SwapCryptoLoanUpdate/contracts/facets/MartgptCoin.sol\":6377:6390  _balances[to] */\n      0x00\n        /* \"smart contract/SwapCryptoLoanUpdate/contracts/facets/MartgptCoin.sol\":6387:6389  to */\n      dup5\n        /* \"smart contract/SwapCryptoLoanUpdate/contracts/facets/MartgptCoin.sol\":6377:6390  _balances[to] */\n      0xffffffffffffffffffffffffffffffffffffffff\n      and\n      0xffffffffffffffffffffffffffffffffffffffff\n      and\n      dup2\n      mstore\n      0x20\n      add\n      swap1\n      dup2\n      mstore\n      0x20\n      add\n      0x00\n      keccak256\n        /* \"smart contract/SwapCryptoLoanUpdate/contracts/facets/MartgptCoin.sol\":6377:6418  _balances[to] = _balances[to].add(amount) */\n      dup2\n      swap1\n      sstore\n      pop\n        /* \"smart contract/SwapCryptoLoanUpdate/contracts/facets/MartgptCoin.sol\":6201:6443  if (to == address(0)) {... */\n    tag_285:\n        /* \"smart contract/SwapCryptoLoanUpdate/contracts/facets/MartgptCoin.sol\":6473:6475  to */\n      dup2\n        /* \"smart contract/SwapCryptoLoanUpdate/contracts/facets/MartgptCoin.sol\":6458:6484  Transfer(from, to, amount) */\n      0xffffffffffffffffffffffffffffffffffffffff\n      and\n        /* \"smart contract/SwapCryptoLoanUpdate/contracts/facets/MartgptCoin.sol\":6467:6471  from */\n      dup4\n        /* \"smart contract/SwapCryptoLoanUpdate/contracts/facets/MartgptCoin.sol\":6458:6484  Transfer(from, to, amount) */\n      0xffffffffffffffffffffffffffffffffffffffff\n      and\n      0xddf252ad1be2c89b69c2b068fc378daa952ba7f163c4a11628f55a4df523b3ef\n        /* \"smart contract/SwapCryptoLoanUpdate/contracts/facets/MartgptCoin.sol\":6477:6483  amount */\n      dup4\n        /* \"smart contract/SwapCryptoLoanUpdate/contracts/facets/MartgptCoin.sol\":6458:6484  Transfer(from, to, amount) */\n      mload(0x40)\n      tag_287\n      swap2\n      swap1\n      tag_43\n      jump\t// in\n    tag_287:\n      mload(0x40)\n      dup1\n      swap2\n      sub\n      swap1\n      log3\n        /* \"smart contract/SwapCryptoLoanUpdate/contracts/facets/MartgptCoin.sol\":5690:6491  function _update(... */\n      pop\n      pop\n      pop\n      jump\t// out\n        /* \"#utility.yul\":7:106   */\n    tag_288:\n        /* \"#utility.yul\":59:65   */\n      0x00\n        /* \"#utility.yul\":93:98   */\n      dup2\n        /* \"#utility.yul\":87:99   */\n      mload\n        /* \"#utility.yul\":77:99   */\n      swap1\n      pop\n        /* \"#utility.yul\":7:106   */\n      swap2\n      swap1\n      pop\n      jump\t// out\n        /* \"#utility.yul\":112:281   */\n    tag_289:\n        /* \"#utility.yul\":196:207   */\n      0x00\n        /* \"#utility.yul\":230:236   */\n      dup3\n        /* \"#utility.yul\":225:228   */\n      dup3\n        /* \"#utility.yul\":218:237   */\n      mstore\n        /* \"#utility.yul\":270:274   */\n      0x20\n        /* \"#utility.yul\":265:268   */\n      dup3\n        /* \"#utility.yul\":261:275   */\n      add\n        /* \"#utility.yul\":246:275   */\n      swap1\n      pop\n        /* \"#utility.yul\":112:281   */\n      swap3\n      swap2\n      pop\n      pop\n      jump\t// out\n        /* \"#utility.yul\":287:533   */\n    tag_290:\n        /* \"#utility.yul\":368:369   */\n      0x00\n        /* \"#utility.yul\":378:491   */\n    tag_348:\n        /* \"#utility.yul\":392:398   */\n      dup4\n        /* \"#utility.yul\":389:390   */\n      dup2\n        /* \"#utility.yul\":386:399   */\n      lt\n        /* \"#utility.yul\":378:491   */\n      iszero\n      tag_350\n      jumpi\n        /* \"#utility.yul\":477:478   */\n      dup1\n        /* \"#utility.yul\":472:475   */\n      dup3\n        /* \"#utility.yul\":468:479   */\n      add\n        /* \"#utility.yul\":462:480   */\n      mload\n        /* \"#utility.yul\":458:459   */\n      dup2\n        /* \"#utility.yul\":453:456   */\n      dup5\n        /* \"#utility.yul\":449:460   */\n      add\n        /* \"#utility.yul\":442:481   */\n      mstore\n        /* \"#utility.yul\":414:416   */\n      0x20\n        /* \"#utility.yul\":411:412   */\n      dup2\n        /* \"#utility.yul\":407:417   */\n      add\n        /* \"#utility.yul\":402:417   */\n      swap1\n      pop\n        /* \"#utility.yul\":378:491   */\n      jump(tag_348)\n    tag_350:\n        /* \"#utility.yul\":525:526   */\n      0x00\n        /* \"#utility.yul\":516:522   */\n      dup5\n        /* \"#utility.yul\":511:514   */\n      dup5\n        /* \"#utility.yul\":507:523   */\n      add\n        /* \"#utility.yul\":500:527   */\n      mstore\n        /* \"#utility.yul\":349:533   */\n      pop\n        /* \"#utility.yul\":287:533   */\n      pop\n      pop\n      pop\n      jump\t// out\n        /* \"#utility.yul\":539:641   */\n    tag_291:\n        /* \"#utility.yul\":580:586   */\n      0x00\n        /* \"#utility.yul\":631:633   */\n      0x1f\n        /* \"#utility.yul\":627:634   */\n      not\n        /* \"#utility.yul\":622:624   */\n      0x1f\n        /* \"#utility.yul\":615:620   */\n      dup4\n        /* \"#utility.yul\":611:625   */\n      add\n        /* \"#utility.yul\":607:635   */\n      and\n        /* \"#utility.yul\":597:635   */\n      swap1\n      pop\n        /* \"#utility.yul\":539:641   */\n      swap2\n      swap1\n      pop\n      jump\t// out\n        /* \"#utility.yul\":647:1024   */\n    tag_292:\n        /* \"#utility.yul\":735:738   */\n      0x00\n        /* \"#utility.yul\":763:802   */\n      tag_353\n        /* \"#utility.yul\":796:801   */\n      dup3\n        /* \"#utility.yul\":763:802   */\n      tag_288\n      jump\t// in\n    tag_353:\n        /* \"#utility.yul\":818:889   */\n      tag_354\n        /* \"#utility.yul\":882:888   */\n      dup2\n        /* \"#utility.yul\":877:880   */\n      dup6\n        /* \"#utility.yul\":818:889   */\n      tag_289\n      jump\t// in\n    tag_354:\n        /* \"#utility.yul\":811:889   */\n      swap4\n      pop\n        /* \"#utility.yul\":898:963   */\n      tag_355\n        /* \"#utility.yul\":956:962   */\n      dup2\n        /* \"#utility.yul\":951:954   */\n      dup6\n        /* \"#utility.yul\":944:948   */\n      0x20\n        /* \"#utility.yul\":937:942   */\n      dup7\n        /* \"#utility.yul\":933:949   */\n      add\n        /* \"#utility.yul\":898:963   */\n      tag_290\n      jump\t// in\n    tag_355:\n        /* \"#utility.yul\":988:1017   */\n      tag_356\n        /* \"#utility.yul\":1010:1016   */\n      dup2\n        /* \"#utility.yul\":988:1017   */\n      tag_291\n      jump\t// in\n    tag_356:\n        /* \"#utility.yul\":983:986   */\n      dup5\n        /* \"#utility.yul\":979:1018   */\n      add\n        /* \"#utility.yul\":972:1018   */\n      swap2\n      pop\n        /* \"#utility.yul\":739:1024   */\n      pop\n        /* \"#utility.yul\":647:1024   */\n      swap3\n      swap2\n      pop\n      pop\n      jump\t// out\n        /* \"#utility.yul\":1030:1343   */\n    tag_29:\n        /* \"#utility.yul\":1143:1147   */\n      0x00\n        /* \"#utility.yul\":1181:1183   */\n      0x20\n        /* \"#utility.yul\":1170:1179   */\n      dup3\n        /* \"#utility.yul\":1166:1184   */\n      add\n        /* \"#utility.yul\":1158:1184   */\n      swap1\n      pop\n        /* \"#utility.yul\":1230:1239   */\n      dup2\n        /* \"#utility.yul\":1224:1228   */\n      dup2\n        /* \"#utility.yul\":1220:1240   */\n      sub\n        /* \"#utility.yul\":1216:1217   */\n      0x00\n        /* \"#utility.yul\":1205:1214   */\n      dup4\n        /* \"#utility.yul\":1201:1218   */\n      add\n        /* \"#utility.yul\":1194:1241   */\n      mstore\n        /* \"#utility.yul\":1258:1336   */\n      tag_358\n        /* \"#utility.yul\":1331:1335   */\n      dup2\n        /* \"#utility.yul\":1322:1328   */\n      dup5\n        /* \"#utility.yul\":1258:1336   */\n      tag_292\n      jump\t// in\n    tag_358:\n        /* \"#utility.yul\":1250:1336   */\n      swap1\n      pop\n        /* \"#utility.yul\":1030:1343   */\n      swap3\n      swap2\n      pop\n      pop\n      jump\t// out\n        /* \"#utility.yul\":1430:1547   */\n    tag_294:\n        /* \"#utility.yul\":1539:1540   */\n      0x00\n        /* \"#utility.yul\":1536:1537   */\n      dup1\n        /* \"#utility.yul\":1529:1541   */\n      revert\n        /* \"#utility.yul\":1676:1802   */\n    tag_296:\n        /* \"#utility.yul\":1713:1720   */\n      0x00\n        /* \"#utility.yul\":1753:1795   */\n      0xffffffffffffffffffffffffffffffffffffffff\n        /* \"#utility.yul\":1746:1751   */\n      dup3\n        /* \"#utility.yul\":1742:1796   */\n      and\n        /* \"#utility.yul\":1731:1796   */\n      swap1\n      pop\n        /* \"#utility.yul\":1676:1802   */\n      swap2\n      swap1\n      pop\n      jump\t// out\n        /* \"#utility.yul\":1808:1904   */\n    tag_297:\n        /* \"#utility.yul\":1845:1852   */\n      0x00\n        /* \"#utility.yul\":1874:1898   */\n      tag_364\n        /* \"#utility.yul\":1892:1897   */\n      dup3\n        /* \"#utility.yul\":1874:1898   */\n      tag_296\n      jump\t// in\n    tag_364:\n        /* \"#utility.yul\":1863:1898   */\n      swap1\n      pop\n        /* \"#utility.yul\":1808:1904   */\n      swap2\n      swap1\n      pop\n      jump\t// out\n        /* \"#utility.yul\":1910:2032   */\n    tag_298:\n        /* \"#utility.yul\":1983:2007   */\n      tag_366\n        /* \"#utility.yul\":2001:2006   */\n      dup2\n        /* \"#utility.yul\":1983:2007   */\n      tag_297\n      jump\t// in\n    tag_366:\n        /* \"#utility.yul\":1976:1981   */\n      dup2\n        /* \"#utility.yul\":1973:2008   */\n      eq\n        /* \"#utility.yul\":1963:2026   */\n      tag_367\n      jumpi\n        /* \"#utility.yul\":2022:2023   */\n      0x00\n        /* \"#utility.yul\":2019:2020   */\n      dup1\n        /* \"#utility.yul\":2012:2024   */\n      revert\n        /* \"#utility.yul\":1963:2026   */\n    tag_367:\n        /* \"#utility.yul\":1910:2032   */\n      pop\n      jump\t// out\n        /* \"#utility.yul\":2038:2177   */\n    tag_299:\n        /* \"#utility.yul\":2084:2089   */\n      0x00\n        /* \"#utility.yul\":2122:2128   */\n      dup2\n        /* \"#utility.yul\":2109:2129   */\n      calldataload\n        /* \"#utility.yul\":2100:2129   */\n      swap1\n      pop\n        /* \"#utility.yul\":2138:2171   */\n      tag_369\n        /* \"#utility.yul\":2165:2170   */\n      dup2\n        /* \"#utility.yul\":2138:2171   */\n      tag_298\n      jump\t// in\n    tag_369:\n        /* \"#utility.yul\":2038:2177   */\n      swap3\n      swap2\n      pop\n      pop\n      jump\t// out\n        /* \"#utility.yul\":2183:2260   */\n    tag_300:\n        /* \"#utility.yul\":2220:2227   */\n      0x00\n        /* \"#utility.yul\":2249:2254   */\n      dup2\n        /* \"#utility.yul\":2238:2254   */\n      swap1\n      pop\n        /* \"#utility.yul\":2183:2260   */\n      swap2\n      swap1\n      pop\n      jump\t// out\n        /* \"#utility.yul\":2266:2388   */\n    tag_301:\n        /* \"#utility.yul\":2339:2363   */\n      tag_372\n        /* \"#utility.yul\":2357:2362   */\n      dup2\n        /* \"#utility.yul\":2339:2363   */\n      tag_300\n      jump\t// in\n    tag_372:\n        /* \"#utility.yul\":2332:2337   */\n      dup2\n        /* \"#utility.yul\":2329:2364   */\n      eq\n        /* \"#utility.yul\":2319:2382   */\n      tag_373\n      jumpi\n        /* \"#utility.yul\":2378:2379   */\n      0x00\n        /* \"#utility.yul\":2375:2376   */\n      dup1\n        /* \"#utility.yul\":2368:2380   */\n      revert\n        /* \"#utility.yul\":2319:2382   */\n    tag_373:\n        /* \"#utility.yul\":2266:2388   */\n      pop\n      jump\t// out\n        /* \"#utility.yul\":2394:2533   */\n    tag_302:\n        /* \"#utility.yul\":2440:2445   */\n      0x00\n        /* \"#utility.yul\":2478:2484   */\n      dup2\n        /* \"#utility.yul\":2465:2485   */\n      calldataload\n        /* \"#utility.yul\":2456:2485   */\n      swap1\n      pop\n        /* \"#utility.yul\":2494:2527   */\n      tag_375\n        /* \"#utility.yul\":2521:2526   */\n      dup2\n        /* \"#utility.yul\":2494:2527   */\n      tag_301\n      jump\t// in\n    tag_375:\n        /* \"#utility.yul\":2394:2533   */\n      swap3\n      swap2\n      pop\n      pop\n      jump\t// out\n        /* \"#utility.yul\":2539:3013   */\n    tag_32:\n        /* \"#utility.yul\":2607:2613   */\n      0x00\n        /* \"#utility.yul\":2615:2621   */\n      dup1\n        /* \"#utility.yul\":2664:2666   */\n      0x40\n        /* \"#utility.yul\":2652:2661   */\n      dup4\n        /* \"#utility.yul\":2643:2650   */\n      dup6\n        /* \"#utility.yul\":2639:2662   */\n      sub\n        /* \"#utility.yul\":2635:2667   */\n      slt\n        /* \"#utility.yul\":2632:2751   */\n      iszero\n      tag_377\n      jumpi\n        /* \"#utility.yul\":2670:2749   */\n      tag_378\n      tag_294\n      jump\t// in\n    tag_378:\n        /* \"#utility.yul\":2632:2751   */\n    tag_377:\n        /* \"#utility.yul\":2790:2791   */\n      0x00\n        /* \"#utility.yul\":2815:2868   */\n      tag_379\n        /* \"#utility.yul\":2860:2867   */\n      dup6\n        /* \"#utility.yul\":2851:2857   */\n      dup3\n        /* \"#utility.yul\":2840:2849   */\n      dup7\n        /* \"#utility.yul\":2836:2858   */\n      add\n        /* \"#utility.yul\":2815:2868   */\n      tag_299\n      jump\t// in\n    tag_379:\n        /* \"#utility.yul\":2805:2868   */\n      swap3\n      pop\n        /* \"#utility.yul\":2761:2878   */\n      pop\n        /* \"#utility.yul\":2917:2919   */\n      0x20\n        /* \"#utility.yul\":2943:2996   */\n      tag_380\n        /* \"#utility.yul\":2988:2995   */\n      dup6\n        /* \"#utility.yul\":2979:2985   */\n      dup3\n        /* \"#utility.yul\":2968:2977   */\n      dup7\n        /* \"#utility.yul\":2964:2986   */\n      add\n        /* \"#utility.yul\":2943:2996   */\n      tag_302\n      jump\t// in\n    tag_380:\n        /* \"#utility.yul\":2933:2996   */\n      swap2\n      pop\n        /* \"#utility.yul\":2888:3006   */\n      pop\n        /* \"#utility.yul\":2539:3013   */\n      swap3\n      pop\n      swap3\n      swap1\n      pop\n      jump\t// out\n        /* \"#utility.yul\":3019:3109   */\n    tag_303:\n        /* \"#utility.yul\":3053:3060   */\n      0x00\n        /* \"#utility.yul\":3096:3101   */\n      dup2\n        /* \"#utility.yul\":3089:3102   */\n      iszero\n        /* \"#utility.yul\":3082:3103   */\n      iszero\n        /* \"#utility.yul\":3071:3103   */\n      swap1\n      pop\n        /* \"#utility.yul\":3019:3109   */\n      swap2\n      swap1\n      pop\n      jump\t// out\n        /* \"#utility.yul\":3115:3224   */\n    tag_304:\n        /* \"#utility.yul\":3196:3217   */\n      tag_383\n        /* \"#utility.yul\":3211:3216   */\n      dup2\n        /* \"#utility.yul\":3196:3217   */\n      tag_303\n      jump\t// in\n    tag_383:\n        /* \"#utility.yul\":3191:3194   */\n      dup3\n        /* \"#utility.yul\":3184:3218   */\n      mstore\n        /* \"#utility.yul\":3115:3224   */\n      pop\n      pop\n      jump\t// out\n        /* \"#utility.yul\":3230:3440   */\n    tag_35:\n        /* \"#utility.yul\":3317:3321   */\n      0x00\n        /* \"#utility.yul\":3355:3357   */\n      0x20\n        /* \"#utility.yul\":3344:3353   */\n      dup3\n        /* \"#utility.yul\":3340:3358   */\n      add\n        /* \"#utility.yul\":3332:3358   */\n      swap1\n      pop\n        /* \"#utility.yul\":3368:3433   */\n      tag_385\n        /* \"#utility.yul\":3430:3431   */\n      0x00\n        /* \"#utility.yul\":3419:3428   */\n      dup4\n        /* \"#utility.yul\":3415:3432   */\n      add\n        /* \"#utility.yul\":3406:3412   */\n      dup5\n        /* \"#utility.yul\":3368:3433   */\n      tag_304\n      jump\t// in\n    tag_385:\n        /* \"#utility.yul\":3230:3440   */\n      swap3\n      swap2\n      pop\n      pop\n      jump\t// out\n        /* \"#utility.yul\":3446:3564   */\n    tag_305:\n        /* \"#utility.yul\":3533:3557   */\n      tag_387\n        /* \"#utility.yul\":3551:3556   */\n      dup2\n        /* \"#utility.yul\":3533:3557   */\n      tag_300\n      jump\t// in\n    tag_387:\n        /* \"#utility.yul\":3528:3531   */\n      dup3\n        /* \"#utility.yul\":3521:3558   */\n      mstore\n        /* \"#utility.yul\":3446:3564   */\n      pop\n      pop\n      jump\t// out\n        /* \"#utility.yul\":3570:3792   */\n    tag_43:\n        /* \"#utility.yul\":3663:3667   */\n      0x00\n        /* \"#utility.yul\":3701:3703   */\n      0x20\n        /* \"#utility.yul\":3690:3699   */\n      dup3\n        /* \"#utility.yul\":3686:3704   */\n      add\n        /* \"#utility.yul\":3678:3704   */\n      swap1\n      pop\n        /* \"#utility.yul\":3714:3785   */\n      tag_389\n        /* \"#utility.yul\":3782:3783   */\n      0x00\n        /* \"#utility.yul\":3771:3780   */\n      dup4\n        /* \"#utility.yul\":3767:3784   */\n      add\n        /* \"#utility.yul\":3758:3764   */\n      dup5\n        /* \"#utility.yul\":3714:3785   */\n      tag_305\n      jump\t// in\n    tag_389:\n        /* \"#utility.yul\":3570:3792   */\n      swap3\n      swap2\n      pop\n      pop\n      jump\t// out\n        /* \"#utility.yul\":3798:4417   */\n    tag_46:\n        /* \"#utility.yul\":3875:3881   */\n      0x00\n        /* \"#utility.yul\":3883:3889   */\n      dup1\n        /* \"#utility.yul\":3891:3897   */\n      0x00\n        /* \"#utility.yul\":3940:3942   */\n      0x60\n        /* \"#utility.yul\":3928:3937   */\n      dup5\n        /* \"#utility.yul\":3919:3926   */\n      dup7\n        /* \"#utility.yul\":3915:3938   */\n      sub\n        /* \"#utility.yul\":3911:3943   */\n      slt\n        /* \"#utility.yul\":3908:4027   */\n      iszero\n      tag_391\n      jumpi\n        /* \"#utility.yul\":3946:4025   */\n      tag_392\n      tag_294\n      jump\t// in\n    tag_392:\n        /* \"#utility.yul\":3908:4027   */\n    tag_391:\n        /* \"#utility.yul\":4066:4067   */\n      0x00\n        /* \"#utility.yul\":4091:4144   */\n      tag_393\n        /* \"#utility.yul\":4136:4143   */\n      dup7\n        /* \"#utility.yul\":4127:4133   */\n      dup3\n        /* \"#utility.yul\":4116:4125   */\n      dup8\n        /* \"#utility.yul\":4112:4134   */\n      add\n        /* \"#utility.yul\":4091:4144   */\n      tag_299\n      jump\t// in\n    tag_393:\n        /* \"#utility.yul\":4081:4144   */\n      swap4\n      pop\n        /* \"#utility.yul\":4037:4154   */\n      pop\n        /* \"#utility.yul\":4193:4195   */\n      0x20\n        /* \"#utility.yul\":4219:4272   */\n      tag_394\n        /* \"#utility.yul\":4264:4271   */\n      dup7\n        /* \"#utility.yul\":4255:4261   */\n      dup3\n        /* \"#utility.yul\":4244:4253   */\n      dup8\n        /* \"#utility.yul\":4240:4262   */\n      add\n        /* \"#utility.yul\":4219:4272   */\n      tag_299\n      jump\t// in\n    tag_394:\n        /* \"#utility.yul\":4209:4272   */\n      swap3\n      pop\n        /* \"#utility.yul\":4164:4282   */\n      pop\n        /* \"#utility.yul\":4321:4323   */\n      0x40\n        /* \"#utility.yul\":4347:4400   */\n      tag_395\n        /* \"#utility.yul\":4392:4399   */\n      dup7\n        /* \"#utility.yul\":4383:4389   */\n      dup3\n        /* \"#utility.yul\":4372:4381   */\n      dup8\n        /* \"#utility.yul\":4368:4390   */\n      add\n        /* \"#utility.yul\":4347:4400   */\n      tag_302\n      jump\t// in\n    tag_395:\n        /* \"#utility.yul\":4337:4400   */\n      swap2\n      pop\n        /* \"#utility.yul\":4292:4410   */\n      pop\n        /* \"#utility.yul\":3798:4417   */\n      swap3\n      pop\n      swap3\n      pop\n      swap3\n      jump\t// out\n        /* \"#utility.yul\":4423:4509   */\n    tag_306:\n        /* \"#utility.yul\":4458:4465   */\n      0x00\n        /* \"#utility.yul\":4498:4502   */\n      0xff\n        /* \"#utility.yul\":4491:4496   */\n      dup3\n        /* \"#utility.yul\":4487:4503   */\n      and\n        /* \"#utility.yul\":4476:4503   */\n      swap1\n      pop\n        /* \"#utility.yul\":4423:4509   */\n      swap2\n      swap1\n      pop\n      jump\t// out\n        /* \"#utility.yul\":4515:4627   */\n    tag_307:\n        /* \"#utility.yul\":4598:4620   */\n      tag_398\n        /* \"#utility.yul\":4614:4619   */\n      dup2\n        /* \"#utility.yul\":4598:4620   */\n      tag_306\n      jump\t// in\n    tag_398:\n        /* \"#utility.yul\":4593:4596   */\n      dup3\n        /* \"#utility.yul\":4586:4621   */\n      mstore\n        /* \"#utility.yul\":4515:4627   */\n      pop\n      pop\n      jump\t// out\n        /* \"#utility.yul\":4633:4847   */\n    tag_52:\n        /* \"#utility.yul\":4722:4726   */\n      0x00\n        /* \"#utility.yul\":4760:4762   */\n      0x20\n        /* \"#utility.yul\":4749:4758   */\n      dup3\n        /* \"#utility.yul\":4745:4763   */\n      add\n        /* \"#utility.yul\":4737:4763   */\n      swap1\n      pop\n        /* \"#utility.yul\":4773:4840   */\n      tag_400\n        /* \"#utility.yul\":4837:4838   */\n      0x00\n        /* \"#utility.yul\":4826:4835   */\n      dup4\n        /* \"#utility.yul\":4822:4839   */\n      add\n        /* \"#utility.yul\":4813:4819   */\n      dup5\n        /* \"#utility.yul\":4773:4840   */\n      tag_307\n      jump\t// in\n    tag_400:\n        /* \"#utility.yul\":4633:4847   */\n      swap3\n      swap2\n      pop\n      pop\n      jump\t// out\n        /* \"#utility.yul\":4853:5182   */\n    tag_62:\n        /* \"#utility.yul\":4912:4918   */\n      0x00\n        /* \"#utility.yul\":4961:4963   */\n      0x20\n        /* \"#utility.yul\":4949:4958   */\n      dup3\n        /* \"#utility.yul\":4940:4947   */\n      dup5\n        /* \"#utility.yul\":4936:4959   */\n      sub\n        /* \"#utility.yul\":4932:4964   */\n      slt\n        /* \"#utility.yul\":4929:5048   */\n      iszero\n      tag_402\n      jumpi\n        /* \"#utility.yul\":4967:5046   */\n      tag_403\n      tag_294\n      jump\t// in\n    tag_403:\n        /* \"#utility.yul\":4929:5048   */\n    tag_402:\n        /* \"#utility.yul\":5087:5088   */\n      0x00\n        /* \"#utility.yul\":5112:5165   */\n      tag_404\n        /* \"#utility.yul\":5157:5164   */\n      dup5\n        /* \"#utility.yul\":5148:5154   */\n      dup3\n        /* \"#utility.yul\":5137:5146   */\n      dup6\n        /* \"#utility.yul\":5133:5155   */\n      add\n        /* \"#utility.yul\":5112:5165   */\n      tag_302\n      jump\t// in\n    tag_404:\n        /* \"#utility.yul\":5102:5165   */\n      swap2\n      pop\n        /* \"#utility.yul\":5058:5175   */\n      pop\n        /* \"#utility.yul\":4853:5182   */\n      swap3\n      swap2\n      pop\n      pop\n      jump\t// out\n        /* \"#utility.yul\":5188:5517   */\n    tag_71:\n        /* \"#utility.yul\":5247:5253   */\n      0x00\n        /* \"#utility.yul\":5296:5298   */\n      0x20\n        /* \"#utility.yul\":5284:5293   */\n      dup3\n        /* \"#utility.yul\":5275:5282   */\n      dup5\n        /* \"#utility.yul\":5271:5294   */\n      sub\n        /* \"#utility.yul\":5267:5299   */\n      slt\n        /* \"#utility.yul\":5264:5383   */\n      iszero\n      tag_406\n      jumpi\n        /* \"#utility.yul\":5302:5381   */\n      tag_407\n      tag_294\n      jump\t// in\n    tag_407:\n        /* \"#utility.yul\":5264:5383   */\n    tag_406:\n        /* \"#utility.yul\":5422:5423   */\n      0x00\n        /* \"#utility.yul\":5447:5500   */\n      tag_408\n        /* \"#utility.yul\":5492:5499   */\n      dup5\n        /* \"#utility.yul\":5483:5489   */\n      dup3\n        /* \"#utility.yul\":5472:5481   */\n      dup6\n        /* \"#utility.yul\":5468:5490   */\n      add\n        /* \"#utility.yul\":5447:5500   */\n      tag_299\n      jump\t// in\n    tag_408:\n        /* \"#utility.yul\":5437:5500   */\n      swap2\n      pop\n        /* \"#utility.yul\":5393:5510   */\n      pop\n        /* \"#utility.yul\":5188:5517   */\n      swap3\n      swap2\n      pop\n      pop\n      jump\t// out\n        /* \"#utility.yul\":5523:5641   */\n    tag_308:\n        /* \"#utility.yul\":5610:5634   */\n      tag_410\n        /* \"#utility.yul\":5628:5633   */\n      dup2\n        /* \"#utility.yul\":5610:5634   */\n      tag_297\n      jump\t// in\n    tag_410:\n        /* \"#utility.yul\":5605:5608   */\n      dup3\n        /* \"#utility.yul\":5598:5635   */\n      mstore\n        /* \"#utility.yul\":5523:5641   */\n      pop\n      pop\n      jump\t// out\n        /* \"#utility.yul\":5647:5869   */\n    tag_83:\n        /* \"#utility.yul\":5740:5744   */\n      0x00\n        /* \"#utility.yul\":5778:5780   */\n      0x20\n        /* \"#utility.yul\":5767:5776   */\n      dup3\n        /* \"#utility.yul\":5763:5781   */\n      add\n        /* \"#utility.yul\":5755:5781   */\n      swap1\n      pop\n        /* \"#utility.yul\":5791:5862   */\n      tag_412\n        /* \"#utility.yul\":5859:5860   */\n      0x00\n        /* \"#utility.yul\":5848:5857   */\n      dup4\n        /* \"#utility.yul\":5844:5861   */\n      add\n        /* \"#utility.yul\":5835:5841   */\n      dup5\n        /* \"#utility.yul\":5791:5862   */\n      tag_308\n      jump\t// in\n    tag_412:\n        /* \"#utility.yul\":5647:5869   */\n      swap3\n      swap2\n      pop\n      pop\n      jump\t// out\n        /* \"#utility.yul\":5875:6349   */\n    tag_100:\n        /* \"#utility.yul\":5943:5949   */\n      0x00\n        /* \"#utility.yul\":5951:5957   */\n      dup1\n        /* \"#utility.yul\":6000:6002   */\n      0x40\n        /* \"#utility.yul\":5988:5997   */\n      dup4\n        /* \"#utility.yul\":5979:5986   */\n      dup6\n        /* \"#utility.yul\":5975:5998   */\n      sub\n        /* \"#utility.yul\":5971:6003   */\n      slt\n        /* \"#utility.yul\":5968:6087   */\n      iszero\n      tag_414\n      jumpi\n        /* \"#utility.yul\":6006:6085   */\n      tag_415\n      tag_294\n      jump\t// in\n    tag_415:\n        /* \"#utility.yul\":5968:6087   */\n    tag_414:\n        /* \"#utility.yul\":6126:6127   */\n      0x00\n        /* \"#utility.yul\":6151:6204   */\n      tag_416\n        /* \"#utility.yul\":6196:6203   */\n      dup6\n        /* \"#utility.yul\":6187:6193   */\n      dup3\n        /* \"#utility.yul\":6176:6185   */\n      dup7\n        /* \"#utility.yul\":6172:6194   */\n      add\n        /* \"#utility.yul\":6151:6204   */\n      tag_299\n      jump\t// in\n    tag_416:\n        /* \"#utility.yul\":6141:6204   */\n      swap3\n      pop\n        /* \"#utility.yul\":6097:6214   */\n      pop\n        /* \"#utility.yul\":6253:6255   */\n      0x20\n        /* \"#utility.yul\":6279:6332   */\n      tag_417\n        /* \"#utility.yul\":6324:6331   */\n      dup6\n        /* \"#utility.yul\":6315:6321   */\n      dup3\n        /* \"#utility.yul\":6304:6313   */\n      dup7\n        /* \"#utility.yul\":6300:6322   */\n      add\n        /* \"#utility.yul\":6279:6332   */\n      tag_299\n      jump\t// in\n    tag_417:\n        /* \"#utility.yul\":6269:6332   */\n      swap2\n      pop\n        /* \"#utility.yul\":6224:6342   */\n      pop\n        /* \"#utility.yul\":5875:6349   */\n      swap3\n      pop\n      swap3\n      swap1\n      pop\n      jump\t// out\n        /* \"#utility.yul\":6355:6535   */\n    tag_309:\n        /* \"#utility.yul\":6403:6480   */\n      0x4e487b7100000000000000000000000000000000000000000000000000000000\n        /* \"#utility.yul\":6400:6401   */\n      0x00\n        /* \"#utility.yul\":6393:6481   */\n      mstore\n        /* \"#utility.yul\":6500:6504   */\n      0x22\n        /* \"#utility.yul\":6497:6498   */\n      0x04\n        /* \"#utility.yul\":6490:6505   */\n      mstore\n        /* \"#utility.yul\":6524:6528   */\n      0x24\n        /* \"#utility.yul\":6521:6522   */\n      0x00\n        /* \"#utility.yul\":6514:6529   */\n      revert\n        /* \"#utility.yul\":6541:6861   */\n    tag_108:\n        /* \"#utility.yul\":6585:6591   */\n      0x00\n        /* \"#utility.yul\":6622:6623   */\n      0x02\n        /* \"#utility.yul\":6616:6620   */\n      dup3\n        /* \"#utility.yul\":6612:6624   */\n      div\n        /* \"#utility.yul\":6602:6624   */\n      swap1\n      pop\n        /* \"#utility.yul\":6669:6670   */\n      0x01\n        /* \"#utility.yul\":6663:6667   */\n      dup3\n        /* \"#utility.yul\":6659:6671   */\n      and\n        /* \"#utility.yul\":6690:6708   */\n      dup1\n        /* \"#utility.yul\":6680:6761   */\n      tag_420\n      jumpi\n        /* \"#utility.yul\":6746:6750   */\n      0x7f\n        /* \"#utility.yul\":6738:6744   */\n      dup3\n        /* \"#utility.yul\":6734:6751   */\n      and\n        /* \"#utility.yul\":6724:6751   */\n      swap2\n      pop\n        /* \"#utility.yul\":6680:6761   */\n    tag_420:\n        /* \"#utility.yul\":6808:6810   */\n      0x20\n        /* \"#utility.yul\":6800:6806   */\n      dup3\n        /* \"#utility.yul\":6797:6811   */\n      lt\n        /* \"#utility.yul\":6777:6795   */\n      dup2\n        /* \"#utility.yul\":6774:6812   */\n      sub\n        /* \"#utility.yul\":6771:6855   */\n      tag_421\n      jumpi\n        /* \"#utility.yul\":6827:6845   */\n      tag_422\n      tag_309\n      jump\t// in\n    tag_422:\n        /* \"#utility.yul\":6771:6855   */\n    tag_421:\n        /* \"#utility.yul\":6592:6861   */\n      pop\n        /* \"#utility.yul\":6541:6861   */\n      swap2\n      swap1\n      pop\n      jump\t// out\n        /* \"#utility.yul\":6867:7199   */\n    tag_121:\n        /* \"#utility.yul\":6988:6992   */\n      0x00\n        /* \"#utility.yul\":7026:7028   */\n      0x40\n        /* \"#utility.yul\":7015:7024   */\n      dup3\n        /* \"#utility.yul\":7011:7029   */\n      add\n        /* \"#utility.yul\":7003:7029   */\n      swap1\n      pop\n        /* \"#utility.yul\":7039:7110   */\n      tag_424\n        /* \"#utility.yul\":7107:7108   */\n      0x00\n        /* \"#utility.yul\":7096:7105   */\n      dup4\n        /* \"#utility.yul\":7092:7109   */\n      add\n        /* \"#utility.yul\":7083:7089   */\n      dup6\n        /* \"#utility.yul\":7039:7110   */\n      tag_308\n      jump\t// in\n    tag_424:\n        /* \"#utility.yul\":7120:7192   */\n      tag_425\n        /* \"#utility.yul\":7188:7190   */\n      0x20\n        /* \"#utility.yul\":7177:7186   */\n      dup4\n        /* \"#utility.yul\":7173:7191   */\n      add\n        /* \"#utility.yul\":7164:7170   */\n      dup5\n        /* \"#utility.yul\":7120:7192   */\n      tag_308\n      jump\t// in\n    tag_425:\n        /* \"#utility.yul\":6867:7199   */\n      swap4\n      swap3\n      pop\n      pop\n      pop\n      jump\t// out\n        /* \"#utility.yul\":7205:7348   */\n    tag_310:\n        /* \"#utility.yul\":7262:7267   */\n      0x00\n        /* \"#utility.yul\":7293:7299   */\n      dup2\n        /* \"#utility.yul\":7287:7300   */\n      mload\n        /* \"#utility.yul\":7278:7300   */\n      swap1\n      pop\n        /* \"#utility.yul\":7309:7342   */\n      tag_427\n        /* \"#utility.yul\":7336:7341   */\n      dup2\n        /* \"#utility.yul\":7309:7342   */\n      tag_301\n      jump\t// in\n    tag_427:\n        /* \"#utility.yul\":7205:7348   */\n      swap3\n      swap2\n      pop\n      pop\n      jump\t// out\n        /* \"#utility.yul\":7354:7705   */\n    tag_125:\n        /* \"#utility.yul\":7424:7430   */\n      0x00\n        /* \"#utility.yul\":7473:7475   */\n      0x20\n        /* \"#utility.yul\":7461:7470   */\n      dup3\n        /* \"#utility.yul\":7452:7459   */\n      dup5\n        /* \"#utility.yul\":7448:7471   */\n      sub\n        /* \"#utility.yul\":7444:7476   */\n      slt\n        /* \"#utility.yul\":7441:7560   */\n      iszero\n      tag_429\n      jumpi\n        /* \"#utility.yul\":7479:7558   */\n      tag_430\n      tag_294\n      jump\t// in\n    tag_430:\n        /* \"#utility.yul\":7441:7560   */\n    tag_429:\n        /* \"#utility.yul\":7599:7600   */\n      0x00\n        /* \"#utility.yul\":7624:7688   */\n      tag_431\n        /* \"#utility.yul\":7680:7687   */\n      dup5\n        /* \"#utility.yul\":7671:7677   */\n      dup3\n        /* \"#utility.yul\":7660:7669   */\n      dup6\n        /* \"#utility.yul\":7656:7678   */\n      add\n        /* \"#utility.yul\":7624:7688   */\n      tag_310\n      jump\t// in\n    tag_431:\n        /* \"#utility.yul\":7614:7688   */\n      swap2\n      pop\n        /* \"#utility.yul\":7570:7698   */\n      pop\n        /* \"#utility.yul\":7354:7705   */\n      swap3\n      swap2\n      pop\n      pop\n      jump\t// out\n        /* \"#utility.yul\":7711:7884   */\n    tag_311:\n        /* \"#utility.yul\":7851:7876   */\n      0x496e73756666696369656e7420616c6c6f77616e636521000000000000000000\n        /* \"#utility.yul\":7847:7848   */\n      0x00\n        /* \"#utility.yul\":7839:7845   */\n      dup3\n        /* \"#utility.yul\":7835:7849   */\n      add\n        /* \"#utility.yul\":7828:7877   */\n      mstore\n        /* \"#utility.yul\":7711:7884   */\n      pop\n      jump\t// out\n        /* \"#utility.yul\":7890:8256   */\n    tag_312:\n        /* \"#utility.yul\":8032:8035   */\n      0x00\n        /* \"#utility.yul\":8053:8120   */\n      tag_434\n        /* \"#utility.yul\":8117:8119   */\n      0x17\n        /* \"#utility.yul\":8112:8115   */\n      dup4\n        /* \"#utility.yul\":8053:8120   */\n      tag_289\n      jump\t// in\n    tag_434:\n        /* \"#utility.yul\":8046:8120   */\n      swap2\n      pop\n        /* \"#utility.yul\":8129:8222   */\n      tag_435\n        /* \"#utility.yul\":8218:8221   */\n      dup3\n        /* \"#utility.yul\":8129:8222   */\n      tag_311\n      jump\t// in\n    tag_435:\n        /* \"#utility.yul\":8247:8249   */\n      0x20\n        /* \"#utility.yul\":8242:8245   */\n      dup3\n        /* \"#utility.yul\":8238:8250   */\n      add\n        /* \"#utility.yul\":8231:8250   */\n      swap1\n      pop\n        /* \"#utility.yul\":7890:8256   */\n      swap2\n      swap1\n      pop\n      jump\t// out\n        /* \"#utility.yul\":8262:8681   */\n    tag_128:\n        /* \"#utility.yul\":8428:8432   */\n      0x00\n        /* \"#utility.yul\":8466:8468   */\n      0x20\n        /* \"#utility.yul\":8455:8464   */\n      dup3\n        /* \"#utility.yul\":8451:8469   */\n      add\n        /* \"#utility.yul\":8443:8469   */\n      swap1\n      pop\n        /* \"#utility.yul\":8515:8524   */\n      dup2\n        /* \"#utility.yul\":8509:8513   */\n      dup2\n        /* \"#utility.yul\":8505:8525   */\n      sub\n        /* \"#utility.yul\":8501:8502   */\n      0x00\n        /* \"#utility.yul\":8490:8499   */\n      dup4\n        /* \"#utility.yul\":8486:8503   */\n      add\n        /* \"#utility.yul\":8479:8526   */\n      mstore\n        /* \"#utility.yul\":8543:8674   */\n      tag_437\n        /* \"#utility.yul\":8669:8673   */\n      dup2\n        /* \"#utility.yul\":8543:8674   */\n      tag_312\n      jump\t// in\n    tag_437:\n        /* \"#utility.yul\":8535:8674   */\n      swap1\n      pop\n        /* \"#utility.yul\":8262:8681   */\n      swap2\n      swap1\n      pop\n      jump\t// out\n        /* \"#utility.yul\":8687:9019   */\n    tag_131:\n        /* \"#utility.yul\":8808:8812   */\n      0x00\n        /* \"#utility.yul\":8846:8848   */\n      0x40\n        /* \"#utility.yul\":8835:8844   */\n      dup3\n        /* \"#utility.yul\":8831:8849   */\n      add\n        /* \"#utility.yul\":8823:8849   */\n      swap1\n      pop\n        /* \"#utility.yul\":8859:8930   */\n      tag_439\n        /* \"#utility.yul\":8927:8928   */\n      0x00\n        /* \"#utility.yul\":8916:8925   */\n      dup4\n        /* \"#utility.yul\":8912:8929   */\n      add\n        /* \"#utility.yul\":8903:8909   */\n      dup6\n        /* \"#utility.yul\":8859:8930   */\n      tag_308\n      jump\t// in\n    tag_439:\n        /* \"#utility.yul\":8940:9012   */\n      tag_440\n        /* \"#utility.yul\":9008:9010   */\n      0x20\n        /* \"#utility.yul\":8997:9006   */\n      dup4\n        /* \"#utility.yul\":8993:9011   */\n      add\n        /* \"#utility.yul\":8984:8990   */\n      dup5\n        /* \"#utility.yul\":8940:9012   */\n      tag_305\n      jump\t// in\n    tag_440:\n        /* \"#utility.yul\":8687:9019   */\n      swap4\n      swap3\n      pop\n      pop\n      pop\n      jump\t// out\n        /* \"#utility.yul\":9025:9189   */\n    tag_313:\n        /* \"#utility.yul\":9165:9181   */\n      0x4163636573732064656e69656421000000000000000000000000000000000000\n        /* \"#utility.yul\":9161:9162   */\n      0x00\n        /* \"#utility.yul\":9153:9159   */\n      dup3\n        /* \"#utility.yul\":9149:9163   */\n      add\n        /* \"#utility.yul\":9142:9182   */\n      mstore\n        /* \"#utility.yul\":9025:9189   */\n      pop\n      jump\t// out\n        /* \"#utility.yul\":9195:9561   */\n    tag_314:\n        /* \"#utility.yul\":9337:9340   */\n      0x00\n        /* \"#utility.yul\":9358:9425   */\n      tag_443\n        /* \"#utility.yul\":9422:9424   */\n      0x0e\n        /* \"#utility.yul\":9417:9420   */\n      dup4\n        /* \"#utility.yul\":9358:9425   */\n      tag_289\n      jump\t// in\n    tag_443:\n        /* \"#utility.yul\":9351:9425   */\n      swap2\n      pop\n        /* \"#utility.yul\":9434:9527   */\n      tag_444\n        /* \"#utility.yul\":9523:9526   */\n      dup3\n        /* \"#utility.yul\":9434:9527   */\n      tag_313\n      jump\t// in\n    tag_444:\n        /* \"#utility.yul\":9552:9554   */\n      0x20\n        /* \"#utility.yul\":9547:9550   */\n      dup3\n        /* \"#utility.yul\":9543:9555   */\n      add\n        /* \"#utility.yul\":9536:9555   */\n      swap1\n      pop\n        /* \"#utility.yul\":9195:9561   */\n      swap2\n      swap1\n      pop\n      jump\t// out\n        /* \"#utility.yul\":9567:9986   */\n    tag_151:\n        /* \"#utility.yul\":9733:9737   */\n      0x00\n        /* \"#utility.yul\":9771:9773   */\n      0x20\n        /* \"#utility.yul\":9760:9769   */\n      dup3\n        /* \"#utility.yul\":9756:9774   */\n      add\n        /* \"#utility.yul\":9748:9774   */\n      swap1\n      pop\n        /* \"#utility.yul\":9820:9829   */\n      dup2\n        /* \"#utility.yul\":9814:9818   */\n      dup2\n        /* \"#utility.yul\":9810:9830   */\n      sub\n        /* \"#utility.yul\":9806:9807   */\n      0x00\n        /* \"#utility.yul\":9795:9804   */\n      dup4\n        /* \"#utility.yul\":9791:9808   */\n      add\n        /* \"#utility.yul\":9784:9831   */\n      mstore\n        /* \"#utility.yul\":9848:9979   */\n      tag_446\n        /* \"#utility.yul\":9974:9978   */\n      dup2\n        /* \"#utility.yul\":9848:9979   */\n      tag_314\n      jump\t// in\n    tag_446:\n        /* \"#utility.yul\":9840:9979   */\n      swap1\n      pop\n        /* \"#utility.yul\":9567:9986   */\n      swap2\n      swap1\n      pop\n      jump\t// out\n        /* \"#utility.yul\":9992:10161   */\n    tag_315:\n        /* \"#utility.yul\":10132:10153   */\n      0x576169742074696c6c206e657874206461792100000000000000000000000000\n        /* \"#utility.yul\":10128:10129   */\n      0x00\n        /* \"#utility.yul\":10120:10126   */\n      dup3\n        /* \"#utility.yul\":10116:10130   */\n      add\n        /* \"#utility.yul\":10109:10154   */\n      mstore\n        /* \"#utility.yul\":9992:10161   */\n      pop\n      jump\t// out\n        /* \"#utility.yul\":10167:10533   */\n    tag_316:\n        /* \"#utility.yul\":10309:10312   */\n      0x00\n        /* \"#utility.yul\":10330:10397   */\n      tag_449\n        /* \"#utility.yul\":10394:10396   */\n      0x13\n        /* \"#utility.yul\":10389:10392   */\n      dup4\n        /* \"#utility.yul\":10330:10397   */\n      tag_289\n      jump\t// in\n    tag_449:\n        /* \"#utility.yul\":10323:10397   */\n      swap2\n      pop\n        /* \"#utility.yul\":10406:10499   */\n      tag_450\n        /* \"#utility.yul\":10495:10498   */\n      dup3\n        /* \"#utility.yul\":10406:10499   */\n      tag_315\n      jump\t// in\n    tag_450:\n        /* \"#utility.yul\":10524:10526   */\n      0x20\n        /* \"#utility.yul\":10519:10522   */\n      dup3\n        /* \"#utility.yul\":10515:10527   */\n      add\n        /* \"#utility.yul\":10508:10527   */\n      swap1\n      pop\n        /* \"#utility.yul\":10167:10533   */\n      swap2\n      swap1\n      pop\n      jump\t// out\n        /* \"#utility.yul\":10539:10958   */\n    tag_154:\n        /* \"#utility.yul\":10705:10709   */\n      0x00\n        /* \"#utility.yul\":10743:10745   */\n      0x20\n        /* \"#utility.yul\":10732:10741   */\n      dup3\n        /* \"#utility.yul\":10728:10746   */\n      add\n        /* \"#utility.yul\":10720:10746   */\n      swap1\n      pop\n        /* \"#utility.yul\":10792:10801   */\n      dup2\n        /* \"#utility.yul\":10786:10790   */\n      dup2\n        /* \"#utility.yul\":10782:10802   */\n      sub\n        /* \"#utility.yul\":10778:10779   */\n      0x00\n        /* \"#utility.yul\":10767:10776   */\n      dup4\n        /* \"#utility.yul\":10763:10780   */\n      add\n        /* \"#utility.yul\":10756:10803   */\n      mstore\n        /* \"#utility.yul\":10820:10951   */\n      tag_452\n        /* \"#utility.yul\":10946:10950   */\n      dup2\n        /* \"#utility.yul\":10820:10951   */\n      tag_316\n      jump\t// in\n    tag_452:\n        /* \"#utility.yul\":10812:10951   */\n      swap1\n      pop\n        /* \"#utility.yul\":10539:10958   */\n      swap2\n      swap1\n      pop\n      jump\t// out\n        /* \"#utility.yul\":10964:11406   */\n    tag_180:\n        /* \"#utility.yul\":11113:11117   */\n      0x00\n        /* \"#utility.yul\":11151:11153   */\n      0x60\n        /* \"#utility.yul\":11140:11149   */\n      dup3\n        /* \"#utility.yul\":11136:11154   */\n      add\n        /* \"#utility.yul\":11128:11154   */\n      swap1\n      pop\n        /* \"#utility.yul\":11164:11235   */\n      tag_454\n        /* \"#utility.yul\":11232:11233   */\n      0x00\n        /* \"#utility.yul\":11221:11230   */\n      dup4\n        /* \"#utility.yul\":11217:11234   */\n      add\n        /* \"#utility.yul\":11208:11214   */\n      dup7\n        /* \"#utility.yul\":11164:11235   */\n      tag_308\n      jump\t// in\n    tag_454:\n        /* \"#utility.yul\":11245:11317   */\n      tag_455\n        /* \"#utility.yul\":11313:11315   */\n      0x20\n        /* \"#utility.yul\":11302:11311   */\n      dup4\n        /* \"#utility.yul\":11298:11316   */\n      add\n        /* \"#utility.yul\":11289:11295   */\n      dup6\n        /* \"#utility.yul\":11245:11317   */\n      tag_308\n      jump\t// in\n    tag_455:\n        /* \"#utility.yul\":11327:11399   */\n      tag_456\n        /* \"#utility.yul\":11395:11397   */\n      0x40\n        /* \"#utility.yul\":11384:11393   */\n      dup4\n        /* \"#utility.yul\":11380:11398   */\n      add\n        /* \"#utility.yul\":11371:11377   */\n      dup5\n        /* \"#utility.yul\":11327:11399   */\n      tag_305\n      jump\t// in\n    tag_456:\n        /* \"#utility.yul\":10964:11406   */\n      swap5\n      swap4\n      pop\n      pop\n      pop\n      pop\n      jump\t// out\n        /* \"#utility.yul\":11412:11528   */\n    tag_317:\n        /* \"#utility.yul\":11482:11503   */\n      tag_458\n        /* \"#utility.yul\":11497:11502   */\n      dup2\n        /* \"#utility.yul\":11482:11503   */\n      tag_303\n      jump\t// in\n    tag_458:\n        /* \"#utility.yul\":11475:11480   */\n      dup2\n        /* \"#utility.yul\":11472:11504   */\n      eq\n        /* \"#utility.yul\":11462:11522   */\n      tag_459\n      jumpi\n        /* \"#utility.yul\":11518:11519   */\n      0x00\n        /* \"#utility.yul\":11515:11516   */\n      dup1\n        /* \"#utility.yul\":11508:11520   */\n      revert\n        /* \"#utility.yul\":11462:11522   */\n    tag_459:\n        /* \"#utility.yul\":11412:11528   */\n      pop\n      jump\t// out\n        /* \"#utility.yul\":11534:11671   */\n    tag_318:\n        /* \"#utility.yul\":11588:11593   */\n      0x00\n        /* \"#utility.yul\":11619:11625   */\n      dup2\n        /* \"#utility.yul\":11613:11626   */\n      mload\n        /* \"#utility.yul\":11604:11626   */\n      swap1\n      pop\n        /* \"#utility.yul\":11635:11665   */\n      tag_461\n        /* \"#utility.yul\":11659:11664   */\n      dup2\n        /* \"#utility.yul\":11635:11665   */\n      tag_317\n      jump\t// in\n    tag_461:\n        /* \"#utility.yul\":11534:11671   */\n      swap3\n      swap2\n      pop\n      pop\n      jump\t// out\n        /* \"#utility.yul\":11677:12022   */\n    tag_184:\n        /* \"#utility.yul\":11744:11750   */\n      0x00\n        /* \"#utility.yul\":11793:11795   */\n      0x20\n        /* \"#utility.yul\":11781:11790   */\n      dup3\n        /* \"#utility.yul\":11772:11779   */\n      dup5\n        /* \"#utility.yul\":11768:11791   */\n      sub\n        /* \"#utility.yul\":11764:11796   */\n      slt\n        /* \"#utility.yul\":11761:11880   */\n      iszero\n      tag_463\n      jumpi\n        /* \"#utility.yul\":11799:11878   */\n      tag_464\n      tag_294\n      jump\t// in\n    tag_464:\n        /* \"#utility.yul\":11761:11880   */\n    tag_463:\n        /* \"#utility.yul\":11919:11920   */\n      0x00\n        /* \"#utility.yul\":11944:12005   */\n      tag_465\n        /* \"#utility.yul\":11997:12004   */\n      dup5\n        /* \"#utility.yul\":11988:11994   */\n      dup3\n        /* \"#utility.yul\":11977:11986   */\n      dup6\n        /* \"#utility.yul\":11973:11995   */\n      add\n        /* \"#utility.yul\":11944:12005   */\n      tag_318\n      jump\t// in\n    tag_465:\n        /* \"#utility.yul\":11934:12005   */\n      swap2\n      pop\n        /* \"#utility.yul\":11890:12015   */\n      pop\n        /* \"#utility.yul\":11677:12022   */\n      swap3\n      swap2\n      pop\n      pop\n      jump\t// out\n        /* \"#utility.yul\":12028:12210   */\n    tag_319:\n        /* \"#utility.yul\":12168:12202   */\n      0x4f776e61626c653a2063616c6c6572206973206e6f7420746865206f776e6572\n        /* \"#utility.yul\":12164:12165   */\n      0x00\n        /* \"#utility.yul\":12156:12162   */\n      dup3\n        /* \"#utility.yul\":12152:12166   */\n      add\n        /* \"#utility.yul\":12145:12203   */\n      mstore\n        /* \"#utility.yul\":12028:12210   */\n      pop\n      jump\t// out\n        /* \"#utility.yul\":12216:12582   */\n    tag_320:\n        /* \"#utility.yul\":12358:12361   */\n      0x00\n        /* \"#utility.yul\":12379:12446   */\n      tag_468\n        /* \"#utility.yul\":12443:12445   */\n      0x20\n        /* \"#utility.yul\":12438:12441   */\n      dup4\n        /* \"#utility.yul\":12379:12446   */\n      tag_289\n      jump\t// in\n    tag_468:\n        /* \"#utility.yul\":12372:12446   */\n      swap2\n      pop\n        /* \"#utility.yul\":12455:12548   */\n      tag_469\n        /* \"#utility.yul\":12544:12547   */\n      dup3\n        /* \"#utility.yul\":12455:12548   */\n      tag_319\n      jump\t// in\n    tag_469:\n        /* \"#utility.yul\":12573:12575   */\n      0x20\n        /* \"#utility.yul\":12568:12571   */\n      dup3\n        /* \"#utility.yul\":12564:12576   */\n      add\n        /* \"#utility.yul\":12557:12576   */\n      swap1\n      pop\n        /* \"#utility.yul\":12216:12582   */\n      swap2\n      swap1\n      pop\n      jump\t// out\n        /* \"#utility.yul\":12588:13007   */\n    tag_190:\n        /* \"#utility.yul\":12754:12758   */\n      0x00\n        /* \"#utility.yul\":12792:12794   */\n      0x20\n        /* \"#utility.yul\":12781:12790   */\n      dup3\n        /* \"#utility.yul\":12777:12795   */\n      add\n        /* \"#utility.yul\":12769:12795   */\n      swap1\n      pop\n        /* \"#utility.yul\":12841:12850   */\n      dup2\n        /* \"#utility.yul\":12835:12839   */\n      dup2\n        /* \"#utility.yul\":12831:12851   */\n      sub\n        /* \"#utility.yul\":12827:12828   */\n      0x00\n        /* \"#utility.yul\":12816:12825   */\n      dup4\n        /* \"#utility.yul\":12812:12829   */\n      add\n        /* \"#utility.yul\":12805:12852   */\n      mstore\n        /* \"#utility.yul\":12869:13000   */\n      tag_471\n        /* \"#utility.yul\":12995:12999   */\n      dup2\n        /* \"#utility.yul\":12869:13000   */\n      tag_320\n      jump\t// in\n    tag_471:\n        /* \"#utility.yul\":12861:13000   */\n      swap1\n      pop\n        /* \"#utility.yul\":12588:13007   */\n      swap2\n      swap1\n      pop\n      jump\t// out\n        /* \"#utility.yul\":13013:13237   */\n    tag_321:\n        /* \"#utility.yul\":13153:13187   */\n      0x45524332303a2064656372656173656420616c6c6f77616e63652062656c6f77\n        /* \"#utility.yul\":13149:13150   */\n      0x00\n        /* \"#utility.yul\":13141:13147   */\n      dup3\n        /* \"#utility.yul\":13137:13151   */\n      add\n        /* \"#utility.yul\":13130:13188   */\n      mstore\n        /* \"#utility.yul\":13222:13229   */\n      0x207a65726f000000000000000000000000000000000000000000000000000000\n        /* \"#utility.yul\":13217:13219   */\n      0x20\n        /* \"#utility.yul\":13209:13215   */\n      dup3\n        /* \"#utility.yul\":13205:13220   */\n      add\n        /* \"#utility.yul\":13198:13230   */\n      mstore\n        /* \"#utility.yul\":13013:13237   */\n      pop\n      jump\t// out\n        /* \"#utility.yul\":13243:13609   */\n    tag_322:\n        /* \"#utility.yul\":13385:13388   */\n      0x00\n        /* \"#utility.yul\":13406:13473   */\n      tag_474\n        /* \"#utility.yul\":13470:13472   */\n      0x25\n        /* \"#utility.yul\":13465:13468   */\n      dup4\n        /* \"#utility.yul\":13406:13473   */\n      tag_289\n      jump\t// in\n    tag_474:\n        /* \"#utility.yul\":13399:13473   */\n      swap2\n      pop\n        /* \"#utility.yul\":13482:13575   */\n      tag_475\n        /* \"#utility.yul\":13571:13574   */\n      dup3\n        /* \"#utility.yul\":13482:13575   */\n      tag_321\n      jump\t// in\n    tag_475:\n        /* \"#utility.yul\":13600:13602   */\n      0x40\n        /* \"#utility.yul\":13595:13598   */\n      dup3\n        /* \"#utility.yul\":13591:13603   */\n      add\n        /* \"#utility.yul\":13584:13603   */\n      swap1\n      pop\n        /* \"#utility.yul\":13243:13609   */\n      swap2\n      swap1\n      pop\n      jump\t// out\n        /* \"#utility.yul\":13615:14034   */\n    tag_209:\n        /* \"#utility.yul\":13781:13785   */\n      0x00\n        /* \"#utility.yul\":13819:13821   */\n      0x20\n        /* \"#utility.yul\":13808:13817   */\n      dup3\n        /* \"#utility.yul\":13804:13822   */\n      add\n        /* \"#utility.yul\":13796:13822   */\n      swap1\n      pop\n        /* \"#utility.yul\":13868:13877   */\n      dup2\n        /* \"#utility.yul\":13862:13866   */\n      dup2\n        /* \"#utility.yul\":13858:13878   */\n      sub\n        /* \"#utility.yul\":13854:13855   */\n      0x00\n        /* \"#utility.yul\":13843:13852   */\n      dup4\n        /* \"#utility.yul\":13839:13856   */\n      add\n        /* \"#utility.yul\":13832:13879   */\n      mstore\n        /* \"#utility.yul\":13896:14027   */\n      tag_477\n        /* \"#utility.yul\":14022:14026   */\n      dup2\n        /* \"#utility.yul\":13896:14027   */\n      tag_322\n      jump\t// in\n    tag_477:\n        /* \"#utility.yul\":13888:14027   */\n      swap1\n      pop\n        /* \"#utility.yul\":13615:14034   */\n      swap2\n      swap1\n      pop\n      jump\t// out\n        /* \"#utility.yul\":14040:14208   */\n    tag_323:\n        /* \"#utility.yul\":14180:14200   */\n      0x546f74616c204361702065786365656465640000000000000000000000000000\n        /* \"#utility.yul\":14176:14177   */\n      0x00\n        /* \"#utility.yul\":14168:14174   */\n      dup3\n        /* \"#utility.yul\":14164:14178   */\n      add\n        /* \"#utility.yul\":14157:14201   */\n      mstore\n        /* \"#utility.yul\":14040:14208   */\n      pop\n      jump\t// out\n        /* \"#utility.yul\":14214:14580   */\n    tag_324:\n        /* \"#utility.yul\":14356:14359   */\n      0x00\n        /* \"#utility.yul\":14377:14444   */\n      tag_480\n        /* \"#utility.yul\":14441:14443   */\n      0x12\n        /* \"#utility.yul\":14436:14439   */\n      dup4\n        /* \"#utility.yul\":14377:14444   */\n      tag_289\n      jump\t// in\n    tag_480:\n        /* \"#utility.yul\":14370:14444   */\n      swap2\n      pop\n        /* \"#utility.yul\":14453:14546   */\n      tag_481\n        /* \"#utility.yul\":14542:14545   */\n      dup3\n        /* \"#utility.yul\":14453:14546   */\n      tag_323\n      jump\t// in\n    tag_481:\n        /* \"#utility.yul\":14571:14573   */\n      0x20\n        /* \"#utility.yul\":14566:14569   */\n      dup3\n        /* \"#utility.yul\":14562:14574   */\n      add\n        /* \"#utility.yul\":14555:14574   */\n      swap1\n      pop\n        /* \"#utility.yul\":14214:14580   */\n      swap2\n      swap1\n      pop\n      jump\t// out\n        /* \"#utility.yul\":14586:15005   */\n    tag_228:\n        /* \"#utility.yul\":14752:14756   */\n      0x00\n        /* \"#utility.yul\":14790:14792   */\n      0x20\n        /* \"#utility.yul\":14779:14788   */\n      dup3\n        /* \"#utility.yul\":14775:14793   */\n      add\n        /* \"#utility.yul\":14767:14793   */\n      swap1\n      pop\n        /* \"#utility.yul\":14839:14848   */\n      dup2\n        /* \"#utility.yul\":14833:14837   */\n      dup2\n        /* \"#utility.yul\":14829:14849   */\n      sub\n        /* \"#utility.yul\":14825:14826   */\n      0x00\n        /* \"#utility.yul\":14814:14823   */\n      dup4\n        /* \"#utility.yul\":14810:14827   */\n      add\n        /* \"#utility.yul\":14803:14850   */\n      mstore\n        /* \"#utility.yul\":14867:14998   */\n      tag_483\n        /* \"#utility.yul\":14993:14997   */\n      dup2\n        /* \"#utility.yul\":14867:14998   */\n      tag_324\n      jump\t// in\n    tag_483:\n        /* \"#utility.yul\":14859:14998   */\n      swap1\n      pop\n        /* \"#utility.yul\":14586:15005   */\n      swap2\n      swap1\n      pop\n      jump\t// out\n        /* \"#utility.yul\":15011:15192   */\n    tag_325:\n        /* \"#utility.yul\":15151:15184   */\n      0x45524332303a206d696e7420746f20746865207a65726f206164647265737300\n        /* \"#utility.yul\":15147:15148   */\n      0x00\n        /* \"#utility.yul\":15139:15145   */\n      dup3\n        /* \"#utility.yul\":15135:15149   */\n      add\n        /* \"#utility.yul\":15128:15185   */\n      mstore\n        /* \"#utility.yul\":15011:15192   */\n      pop\n      jump\t// out\n        /* \"#utility.yul\":15198:15564   */\n    tag_326:\n        /* \"#utility.yul\":15340:15343   */\n      0x00\n        /* \"#utility.yul\":15361:15428   */\n      tag_486\n        /* \"#utility.yul\":15425:15427   */\n      0x1f\n        /* \"#utility.yul\":15420:15423   */\n      dup4\n        /* \"#utility.yul\":15361:15428   */\n      tag_289\n      jump\t// in\n    tag_486:\n        /* \"#utility.yul\":15354:15428   */\n      swap2\n      pop\n        /* \"#utility.yul\":15437:15530   */\n      tag_487\n        /* \"#utility.yul\":15526:15529   */\n      dup3\n        /* \"#utility.yul\":15437:15530   */\n      tag_325\n      jump\t// in\n    tag_487:\n        /* \"#utility.yul\":15555:15557   */\n      0x20\n        /* \"#utility.yul\":15550:15553   */\n      dup3\n        /* \"#utility.yul\":15546:15558   */\n      add\n        /* \"#utility.yul\":15539:15558   */\n      swap1\n      pop\n        /* \"#utility.yul\":15198:15564   */\n      swap2\n      swap1\n      pop\n      jump\t// out\n        /* \"#utility.yul\":15570:15989   */\n    tag_232:\n        /* \"#utility.yul\":15736:15740   */\n      0x00\n        /* \"#utility.yul\":15774:15776   */\n      0x20\n        /* \"#utility.yul\":15763:15772   */\n      dup3\n        /* \"#utility.yul\":15759:15777   */\n      add\n        /* \"#utility.yul\":15751:15777   */\n      swap1\n      pop\n        /* \"#utility.yul\":15823:15832   */\n      dup2\n        /* \"#utility.yul\":15817:15821   */\n      dup2\n        /* \"#utility.yul\":15813:15833   */\n      sub\n        /* \"#utility.yul\":15809:15810   */\n      0x00\n        /* \"#utility.yul\":15798:15807   */\n      dup4\n        /* \"#utility.yul\":15794:15811   */\n      add\n        /* \"#utility.yul\":15787:15834   */\n      mstore\n        /* \"#utility.yul\":15851:15982   */\n      tag_489\n        /* \"#utility.yul\":15977:15981   */\n      dup2\n        /* \"#utility.yul\":15851:15982   */\n      tag_326\n      jump\t// in\n    tag_489:\n        /* \"#utility.yul\":15843:15982   */\n      swap1\n      pop\n        /* \"#utility.yul\":15570:15989   */\n      swap2\n      swap1\n      pop\n      jump\t// out\n        /* \"#utility.yul\":15995:16218   */\n    tag_327:\n        /* \"#utility.yul\":16135:16169   */\n      0x45524332303a20617070726f76652066726f6d20746865207a65726f20616464\n        /* \"#utility.yul\":16131:16132   */\n      0x00\n        /* \"#utility.yul\":16123:16129   */\n      dup3\n        /* \"#utility.yul\":16119:16133   */\n      add\n        /* \"#utility.yul\":16112:16170   */\n      mstore\n        /* \"#utility.yul\":16204:16210   */\n      0x7265737300000000000000000000000000000000000000000000000000000000\n        /* \"#utility.yul\":16199:16201   */\n      0x20\n        /* \"#utility.yul\":16191:16197   */\n      dup3\n        /* \"#utility.yul\":16187:16202   */\n      add\n        /* \"#utility.yul\":16180:16211   */\n      mstore\n        /* \"#utility.yul\":15995:16218   */\n      pop\n      jump\t// out\n        /* \"#utility.yul\":16224:16590   */\n    tag_328:\n        /* \"#utility.yul\":16366:16369   */\n      0x00\n        /* \"#utility.yul\":16387:16454   */\n      tag_492\n        /* \"#utility.yul\":16451:16453   */\n      0x24\n        /* \"#utility.yul\":16446:16449   */\n      dup4\n        /* \"#utility.yul\":16387:16454   */\n      tag_289\n      jump\t// in\n    tag_492:\n        /* \"#utility.yul\":16380:16454   */\n      swap2\n      pop\n        /* \"#utility.yul\":16463:16556   */\n      tag_493\n        /* \"#utility.yul\":16552:16555   */\n      dup3\n        /* \"#utility.yul\":16463:16556   */\n      tag_327\n      jump\t// in\n    tag_493:\n        /* \"#utility.yul\":16581:16583   */\n      0x40\n        /* \"#utility.yul\":16576:16579   */\n      dup3\n        /* \"#utility.yul\":16572:16584   */\n      add\n        /* \"#utility.yul\":16565:16584   */\n      swap1\n      pop\n        /* \"#utility.yul\":16224:16590   */\n      swap2\n      swap1\n      pop\n      jump\t// out\n        /* \"#utility.yul\":16596:17015   */\n    tag_239:\n        /* \"#utility.yul\":16762:16766   */\n      0x00\n        /* \"#utility.yul\":16800:16802   */\n      0x20\n        /* \"#utility.yul\":16789:16798   */\n      dup3\n        /* \"#utility.yul\":16785:16803   */\n      add\n        /* \"#utility.yul\":16777:16803   */\n      swap1\n      pop\n        /* \"#utility.yul\":16849:16858   */\n      dup2\n        /* \"#utility.yul\":16843:16847   */\n      dup2\n        /* \"#utility.yul\":16839:16859   */\n      sub\n        /* \"#utility.yul\":16835:16836   */\n      0x00\n        /* \"#utility.yul\":16824:16833   */\n      dup4\n        /* \"#utility.yul\":16820:16837   */\n      add\n        /* \"#utility.yul\":16813:16860   */\n      mstore\n        /* \"#utility.yul\":16877:17008   */\n      tag_495\n        /* \"#utility.yul\":17003:17007   */\n      dup2\n        /* \"#utility.yul\":16877:17008   */\n      tag_328\n      jump\t// in\n    tag_495:\n        /* \"#utility.yul\":16869:17008   */\n      swap1\n      pop\n        /* \"#utility.yul\":16596:17015   */\n      swap2\n      swap1\n      pop\n      jump\t// out\n        /* \"#utility.yul\":17021:17242   */\n    tag_329:\n        /* \"#utility.yul\":17161:17195   */\n      0x45524332303a20617070726f766520746f20746865207a65726f206164647265\n        /* \"#utility.yul\":17157:17158   */\n      0x00\n        /* \"#utility.yul\":17149:17155   */\n      dup3\n        /* \"#utility.yul\":17145:17159   */\n      add\n        /* \"#utility.yul\":17138:17196   */\n      mstore\n        /* \"#utility.yul\":17230:17234   */\n      0x7373000000000000000000000000000000000000000000000000000000000000\n        /* \"#utility.yul\":17225:17227   */\n      0x20\n        /* \"#utility.yul\":17217:17223   */\n      dup3\n        /* \"#utility.yul\":17213:17228   */\n      add\n        /* \"#utility.yul\":17206:17235   */\n      mstore\n        /* \"#utility.yul\":17021:17242   */\n      pop\n      jump\t// out\n        /* \"#utility.yul\":17248:17614   */\n    tag_330:\n        /* \"#utility.yul\":17390:17393   */\n      0x00\n        /* \"#utility.yul\":17411:17478   */\n      tag_498\n        /* \"#utility.yul\":17475:17477   */\n      0x22\n        /* \"#utility.yul\":17470:17473   */\n      dup4\n        /* \"#utility.yul\":17411:17478   */\n      tag_289\n      jump\t// in\n    tag_498:\n        /* \"#utility.yul\":17404:17478   */\n      swap2\n      pop\n        /* \"#utility.yul\":17487:17580   */\n      tag_499\n        /* \"#utility.yul\":17576:17579   */\n      dup3\n        /* \"#utility.yul\":17487:17580   */\n      tag_329\n      jump\t// in\n    tag_499:\n        /* \"#utility.yul\":17605:17607   */\n      0x40\n        /* \"#utility.yul\":17600:17603   */\n      dup3\n        /* \"#utility.yul\":17596:17608   */\n      add\n        /* \"#utility.yul\":17589:17608   */\n      swap1\n      pop\n        /* \"#utility.yul\":17248:17614   */\n      swap2\n      swap1\n      pop\n      jump\t// out\n        /* \"#utility.yul\":17620:18039   */\n    tag_242:\n        /* \"#utility.yul\":17786:17790   */\n      0x00\n        /* \"#utility.yul\":17824:17826   */\n      0x20\n        /* \"#utility.yul\":17813:17822   */\n      dup3\n        /* \"#utility.yul\":17809:17827   */\n      add\n        /* \"#utility.yul\":17801:17827   */\n      swap1\n      pop\n        /* \"#utility.yul\":17873:17882   */\n      dup2\n        /* \"#utility.yul\":17867:17871   */\n      dup2\n        /* \"#utility.yul\":17863:17883   */\n      sub\n        /* \"#utility.yul\":17859:17860   */\n      0x00\n        /* \"#utility.yul\":17848:17857   */\n      dup4\n        /* \"#utility.yul\":17844:17861   */\n      add\n        /* \"#utility.yul\":17837:17884   */\n      mstore\n        /* \"#utility.yul\":17901:18032   */\n      tag_501\n        /* \"#utility.yul\":18027:18031   */\n      dup2\n        /* \"#utility.yul\":17901:18032   */\n      tag_330\n      jump\t// in\n    tag_501:\n        /* \"#utility.yul\":17893:18032   */\n      swap1\n      pop\n        /* \"#utility.yul\":17620:18039   */\n      swap2\n      swap1\n      pop\n      jump\t// out\n        /* \"#utility.yul\":18045:18224   */\n    tag_331:\n        /* \"#utility.yul\":18185:18216   */\n      0x45524332303a20696e73756666696369656e7420616c6c6f77616e6365000000\n        /* \"#utility.yul\":18181:18182   */\n      0x00\n        /* \"#utility.yul\":18173:18179   */\n      dup3\n        /* \"#utility.yul\":18169:18183   */\n      add\n        /* \"#utility.yul\":18162:18217   */\n      mstore\n        /* \"#utility.yul\":18045:18224   */\n      pop\n      jump\t// out\n        /* \"#utility.yul\":18230:18596   */\n    tag_332:\n        /* \"#utility.yul\":18372:18375   */\n      0x00\n        /* \"#utility.yul\":18393:18460   */\n      tag_504\n        /* \"#utility.yul\":18457:18459   */\n      0x1d\n        /* \"#utility.yul\":18452:18455   */\n      dup4\n        /* \"#utility.yul\":18393:18460   */\n      tag_289\n      jump\t// in\n    tag_504:\n        /* \"#utility.yul\":18386:18460   */\n      swap2\n      pop\n        /* \"#utility.yul\":18469:18562   */\n      tag_505\n        /* \"#utility.yul\":18558:18561   */\n      dup3\n        /* \"#utility.yul\":18469:18562   */\n      tag_331\n      jump\t// in\n    tag_505:\n        /* \"#utility.yul\":18587:18589   */\n      0x20\n        /* \"#utility.yul\":18582:18585   */\n      dup3\n        /* \"#utility.yul\":18578:18590   */\n      add\n        /* \"#utility.yul\":18571:18590   */\n      swap1\n      pop\n        /* \"#utility.yul\":18230:18596   */\n      swap2\n      swap1\n      pop\n      jump\t// out\n        /* \"#utility.yul\":18602:19021   */\n    tag_249:\n        /* \"#utility.yul\":18768:18772   */\n      0x00\n        /* \"#utility.yul\":18806:18808   */\n      0x20\n        /* \"#utility.yul\":18795:18804   */\n      dup3\n        /* \"#utility.yul\":18791:18809   */\n      add\n        /* \"#utility.yul\":18783:18809   */\n      swap1\n      pop\n        /* \"#utility.yul\":18855:18864   */\n      dup2\n        /* \"#utility.yul\":18849:18853   */\n      dup2\n        /* \"#utility.yul\":18845:18865   */\n      sub\n        /* \"#utility.yul\":18841:18842   */\n      0x00\n        /* \"#utility.yul\":18830:18839   */\n      dup4\n        /* \"#utility.yul\":18826:18843   */\n      add\n        /* \"#utility.yul\":18819:18866   */\n      mstore\n        /* \"#utility.yul\":18883:19014   */\n      tag_507\n        /* \"#utility.yul\":19009:19013   */\n      dup2\n        /* \"#utility.yul\":18883:19014   */\n      tag_332\n      jump\t// in\n    tag_507:\n        /* \"#utility.yul\":18875:19014   */\n      swap1\n      pop\n        /* \"#utility.yul\":18602:19021   */\n      swap2\n      swap1\n      pop\n      jump\t// out\n        /* \"#utility.yul\":19027:19251   */\n    tag_333:\n        /* \"#utility.yul\":19167:19201   */\n      0x45524332303a207472616e736665722066726f6d20746865207a65726f206164\n        /* \"#utility.yul\":19163:19164   */\n      0x00\n        /* \"#utility.yul\":19155:19161   */\n      dup3\n        /* \"#utility.yul\":19151:19165   */\n      add\n        /* \"#utility.yul\":19144:19202   */\n      mstore\n        /* \"#utility.yul\":19236:19243   */\n      0x6472657373000000000000000000000000000000000000000000000000000000\n        /* \"#utility.yul\":19231:19233   */\n      0x20\n        /* \"#utility.yul\":19223:19229   */\n      dup3\n        /* \"#utility.yul\":19219:19234   */\n      add\n        /* \"#utility.yul\":19212:19244   */\n      mstore\n        /* \"#utility.yul\":19027:19251   */\n      pop\n      jump\t// out\n        /* \"#utility.yul\":19257:19623   */\n    tag_334:\n        /* \"#utility.yul\":19399:19402   */\n      0x00\n        /* \"#utility.yul\":19420:19487   */\n      tag_510\n        /* \"#utility.yul\":19484:19486   */\n      0x25\n        /* \"#utility.yul\":19479:19482   */\n      dup4\n        /* \"#utility.yul\":19420:19487   */\n      tag_289\n      jump\t// in\n    tag_510:\n        /* \"#utility.yul\":19413:19487   */\n      swap2\n      pop\n        /* \"#utility.yul\":19496:19589   */\n      tag_511\n        /* \"#utility.yul\":19585:19588   */\n      dup3\n        /* \"#utility.yul\":19496:19589   */\n      tag_333\n      jump\t// in\n    tag_511:\n        /* \"#utility.yul\":19614:19616   */\n      0x40\n        /* \"#utility.yul\":19609:19612   */\n      dup3\n        /* \"#utility.yul\":19605:19617   */\n      add\n        /* \"#utility.yul\":19598:19617   */\n      swap1\n      pop\n        /* \"#utility.yul\":19257:19623   */\n      swap2\n      swap1\n      pop\n      jump\t// out\n        /* \"#utility.yul\":19629:20048   */\n    tag_255:\n        /* \"#utility.yul\":19795:19799   */\n      0x00\n        /* \"#utility.yul\":19833:19835   */\n      0x20\n        /* \"#utility.yul\":19822:19831   */\n      dup3\n        /* \"#utility.yul\":19818:19836   */\n      add\n        /* \"#utility.yul\":19810:19836   */\n      swap1\n      pop\n        /* \"#utility.yul\":19882:19891   */\n      dup2\n        /* \"#utility.yul\":19876:19880   */\n      dup2\n        /* \"#utility.yul\":19872:19892   */\n      sub\n        /* \"#utility.yul\":19868:19869   */\n      0x00\n        /* \"#utility.yul\":19857:19866   */\n      dup4\n        /* \"#utility.yul\":19853:19870   */\n      add\n        /* \"#utility.yul\":19846:19893   */\n      mstore\n        /* \"#utility.yul\":19910:20041   */\n      tag_513\n        /* \"#utility.yul\":20036:20040   */\n      dup2\n        /* \"#utility.yul\":19910:20041   */\n      tag_334\n      jump\t// in\n    tag_513:\n        /* \"#utility.yul\":19902:20041   */\n      swap1\n      pop\n        /* \"#utility.yul\":19629:20048   */\n      swap2\n      swap1\n      pop\n      jump\t// out\n        /* \"#utility.yul\":20054:20276   */\n    tag_335:\n        /* \"#utility.yul\":20194:20228   */\n      0x45524332303a207472616e7366657220746f20746865207a65726f2061646472\n        /* \"#utility.yul\":20190:20191   */\n      0x00\n        /* \"#utility.yul\":20182:20188   */\n      dup3\n        /* \"#utility.yul\":20178:20192   */\n      add\n        /* \"#utility.yul\":20171:20229   */\n      mstore\n        /* \"#utility.yul\":20263:20268   */\n      0x6573730000000000000000000000000000000000000000000000000000000000\n        /* \"#utility.yul\":20258:20260   */\n      0x20\n        /* \"#utility.yul\":20250:20256   */\n      dup3\n        /* \"#utility.yul\":20246:20261   */\n      add\n        /* \"#utility.yul\":20239:20269   */\n      mstore\n        /* \"#utility.yul\":20054:20276   */\n      pop\n      jump\t// out\n        /* \"#utility.yul\":20282:20648   */\n    tag_336:\n        /* \"#utility.yul\":20424:20427   */\n      0x00\n        /* \"#utility.yul\":20445:20512   */\n      tag_516\n        /* \"#utility.yul\":20509:20511   */\n      0x23\n        /* \"#utility.yul\":20504:20507   */\n      dup4\n        /* \"#utility.yul\":20445:20512   */\n      tag_289\n      jump\t// in\n    tag_516:\n        /* \"#utility.yul\":20438:20512   */\n      swap2\n      pop\n        /* \"#utility.yul\":20521:20614   */\n      tag_517\n        /* \"#utility.yul\":20610:20613   */\n      dup3\n        /* \"#utility.yul\":20521:20614   */\n      tag_335\n      jump\t// in\n    tag_517:\n        /* \"#utility.yul\":20639:20641   */\n      0x40\n        /* \"#utility.yul\":20634:20637   */\n      dup3\n        /* \"#utility.yul\":20630:20642   */\n      add\n        /* \"#utility.yul\":20623:20642   */\n      swap1\n      pop\n        /* \"#utility.yul\":20282:20648   */\n      swap2\n      swap1\n      pop\n      jump\t// out\n        /* \"#utility.yul\":20654:21073   */\n    tag_258:\n        /* \"#utility.yul\":20820:20824   */\n      0x00\n        /* \"#utility.yul\":20858:20860   */\n      0x20\n        /* \"#utility.yul\":20847:20856   */\n      dup3\n        /* \"#utility.yul\":20843:20861   */\n      add\n        /* \"#utility.yul\":20835:20861   */\n      swap1\n      pop\n        /* \"#utility.yul\":20907:20916   */\n      dup2\n        /* \"#utility.yul\":20901:20905   */\n      dup2\n        /* \"#utility.yul\":20897:20917   */\n      sub\n        /* \"#utility.yul\":20893:20894   */\n      0x00\n        /* \"#utility.yul\":20882:20891   */\n      dup4\n        /* \"#utility.yul\":20878:20895   */\n      add\n        /* \"#utility.yul\":20871:20918   */\n      mstore\n        /* \"#utility.yul\":20935:21066   */\n      tag_519\n        /* \"#utility.yul\":21061:21065   */\n      dup2\n        /* \"#utility.yul\":20935:21066   */\n      tag_336\n      jump\t// in\n    tag_519:\n        /* \"#utility.yul\":20927:21066   */\n      swap1\n      pop\n        /* \"#utility.yul\":20654:21073   */\n      swap2\n      swap1\n      pop\n      jump\t// out\n        /* \"#utility.yul\":21079:21259   */\n    tag_337:\n        /* \"#utility.yul\":21127:21204   */\n      0x4e487b7100000000000000000000000000000000000000000000000000000000\n        /* \"#utility.yul\":21124:21125   */\n      0x00\n        /* \"#utility.yul\":21117:21205   */\n      mstore\n        /* \"#utility.yul\":21224:21228   */\n      0x11\n        /* \"#utility.yul\":21221:21222   */\n      0x04\n        /* \"#utility.yul\":21214:21229   */\n      mstore\n        /* \"#utility.yul\":21248:21252   */\n      0x24\n        /* \"#utility.yul\":21245:21246   */\n      0x00\n        /* \"#utility.yul\":21238:21253   */\n      revert\n        /* \"#utility.yul\":21265:21456   */\n    tag_262:\n        /* \"#utility.yul\":21305:21308   */\n      0x00\n        /* \"#utility.yul\":21324:21344   */\n      tag_522\n        /* \"#utility.yul\":21342:21343   */\n      dup3\n        /* \"#utility.yul\":21324:21344   */\n      tag_300\n      jump\t// in\n    tag_522:\n        /* \"#utility.yul\":21319:21344   */\n      swap2\n      pop\n        /* \"#utility.yul\":21358:21378   */\n      tag_523\n        /* \"#utility.yul\":21376:21377   */\n      dup4\n        /* \"#utility.yul\":21358:21378   */\n      tag_300\n      jump\t// in\n    tag_523:\n        /* \"#utility.yul\":21353:21378   */\n      swap3\n      pop\n        /* \"#utility.yul\":21401:21402   */\n      dup3\n        /* \"#utility.yul\":21398:21399   */\n      dup3\n        /* \"#utility.yul\":21394:21403   */\n      add\n        /* \"#utility.yul\":21387:21403   */\n      swap1\n      pop\n        /* \"#utility.yul\":21422:21425   */\n      dup1\n        /* \"#utility.yul\":21419:21420   */\n      dup3\n        /* \"#utility.yul\":21416:21426   */\n      gt\n        /* \"#utility.yul\":21413:21449   */\n      iszero\n      tag_524\n      jumpi\n        /* \"#utility.yul\":21429:21447   */\n      tag_525\n      tag_337\n      jump\t// in\n    tag_525:\n        /* \"#utility.yul\":21413:21449   */\n    tag_524:\n        /* \"#utility.yul\":21265:21456   */\n      swap3\n      swap2\n      pop\n      pop\n      jump\t// out\n        /* \"#utility.yul\":21462:21682   */\n    tag_338:\n        /* \"#utility.yul\":21602:21636   */\n      0x45524332303a206275726e2066726f6d20746865207a65726f20616464726573\n        /* \"#utility.yul\":21598:21599   */\n      0x00\n        /* \"#utility.yul\":21590:21596   */\n      dup3\n        /* \"#utility.yul\":21586:21600   */\n      add\n        /* \"#utility.yul\":21579:21637   */\n      mstore\n        /* \"#utility.yul\":21671:21674   */\n      0x7300000000000000000000000000000000000000000000000000000000000000\n        /* \"#utility.yul\":21666:21668   */\n      0x20\n        /* \"#utility.yul\":21658:21664   */\n      dup3\n        /* \"#utility.yul\":21654:21669   */\n      add\n        /* \"#utility.yul\":21647:21675   */\n      mstore\n        /* \"#utility.yul\":21462:21682   */\n      pop\n      jump\t// out\n        /* \"#utility.yul\":21688:22054   */\n    tag_339:\n        /* \"#utility.yul\":21830:21833   */\n      0x00\n        /* \"#utility.yul\":21851:21918   */\n      tag_528\n        /* \"#utility.yul\":21915:21917   */\n      0x21\n        /* \"#utility.yul\":21910:21913   */\n      dup4\n        /* \"#utility.yul\":21851:21918   */\n      tag_289\n      jump\t// in\n    tag_528:\n        /* \"#utility.yul\":21844:21918   */\n      swap2\n      pop\n        /* \"#utility.yul\":21927:22020   */\n      tag_529\n        /* \"#utility.yul\":22016:22019   */\n      dup3\n        /* \"#utility.yul\":21927:22020   */\n      tag_338\n      jump\t// in\n    tag_529:\n        /* \"#utility.yul\":22045:22047   */\n      0x40\n        /* \"#utility.yul\":22040:22043   */\n      dup3\n        /* \"#utility.yul\":22036:22048   */\n      add\n        /* \"#utility.yul\":22029:22048   */\n      swap1\n      pop\n        /* \"#utility.yul\":21688:22054   */\n      swap2\n      swap1\n      pop\n      jump\t// out\n        /* \"#utility.yul\":22060:22479   */\n    tag_266:\n        /* \"#utility.yul\":22226:22230   */\n      0x00\n        /* \"#utility.yul\":22264:22266   */\n      0x20\n        /* \"#utility.yul\":22253:22262   */\n      dup3\n        /* \"#utility.yul\":22249:22267   */\n      add\n        /* \"#utility.yul\":22241:22267   */\n      swap1\n      pop\n        /* \"#utility.yul\":22313:22322   */\n      dup2\n        /* \"#utility.yul\":22307:22311   */\n      dup2\n        /* \"#utility.yul\":22303:22323   */\n      sub\n        /* \"#utility.yul\":22299:22300   */\n      0x00\n        /* \"#utility.yul\":22288:22297   */\n      dup4\n        /* \"#utility.yul\":22284:22301   */\n      add\n        /* \"#utility.yul\":22277:22324   */\n      mstore\n        /* \"#utility.yul\":22341:22472   */\n      tag_531\n        /* \"#utility.yul\":22467:22471   */\n      dup2\n        /* \"#utility.yul\":22341:22472   */\n      tag_339\n      jump\t// in\n    tag_531:\n        /* \"#utility.yul\":22333:22472   */\n      swap1\n      pop\n        /* \"#utility.yul\":22060:22479   */\n      swap2\n      swap1\n      pop\n      jump\t// out\n        /* \"#utility.yul\":22485:22679   */\n    tag_270:\n        /* \"#utility.yul\":22525:22529   */\n      0x00\n        /* \"#utility.yul\":22545:22565   */\n      tag_533\n        /* \"#utility.yul\":22563:22564   */\n      dup3\n        /* \"#utility.yul\":22545:22565   */\n      tag_300\n      jump\t// in\n    tag_533:\n        /* \"#utility.yul\":22540:22565   */\n      swap2\n      pop\n        /* \"#utility.yul\":22579:22599   */\n      tag_534\n        /* \"#utility.yul\":22597:22598   */\n      dup4\n        /* \"#utility.yul\":22579:22599   */\n      tag_300\n      jump\t// in\n    tag_534:\n        /* \"#utility.yul\":22574:22599   */\n      swap3\n      pop\n        /* \"#utility.yul\":22623:22624   */\n      dup3\n        /* \"#utility.yul\":22620:22621   */\n      dup3\n        /* \"#utility.yul\":22616:22625   */\n      sub\n        /* \"#utility.yul\":22608:22625   */\n      swap1\n      pop\n        /* \"#utility.yul\":22647:22648   */\n      dup2\n        /* \"#utility.yul\":22641:22645   */\n      dup2\n        /* \"#utility.yul\":22638:22649   */\n      gt\n        /* \"#utility.yul\":22635:22672   */\n      iszero\n      tag_535\n      jumpi\n        /* \"#utility.yul\":22652:22670   */\n      tag_536\n      tag_337\n      jump\t// in\n    tag_536:\n        /* \"#utility.yul\":22635:22672   */\n    tag_535:\n        /* \"#utility.yul\":22485:22679   */\n      swap3\n      swap2\n      pop\n      pop\n      jump\t// out\n        /* \"#utility.yul\":22685:22910   */\n    tag_340:\n        /* \"#utility.yul\":22825:22859   */\n      0x4f776e61626c653a206e6577206f776e657220697320746865207a65726f2061\n        /* \"#utility.yul\":22821:22822   */\n      0x00\n        /* \"#utility.yul\":22813:22819   */\n      dup3\n        /* \"#utility.yul\":22809:22823   */\n      add\n        /* \"#utility.yul\":22802:22860   */\n      mstore\n        /* \"#utility.yul\":22894:22902   */\n      0x6464726573730000000000000000000000000000000000000000000000000000\n        /* \"#utility.yul\":22889:22891   */\n      0x20\n        /* \"#utility.yul\":22881:22887   */\n      dup3\n        /* \"#utility.yul\":22877:22892   */\n      add\n        /* \"#utility.yul\":22870:22903   */\n      mstore\n        /* \"#utility.yul\":22685:22910   */\n      pop\n      jump\t// out\n        /* \"#utility.yul\":22916:23282   */\n    tag_341:\n        /* \"#utility.yul\":23058:23061   */\n      0x00\n        /* \"#utility.yul\":23079:23146   */\n      tag_539\n        /* \"#utility.yul\":23143:23145   */\n      0x26\n        /* \"#utility.yul\":23138:23141   */\n      dup4\n        /* \"#utility.yul\":23079:23146   */\n      tag_289\n      jump\t// in\n    tag_539:\n        /* \"#utility.yul\":23072:23146   */\n      swap2\n      pop\n        /* \"#utility.yul\":23155:23248   */\n      tag_540\n        /* \"#utility.yul\":23244:23247   */\n      dup3\n        /* \"#utility.yul\":23155:23248   */\n      tag_340\n      jump\t// in\n    tag_540:\n        /* \"#utility.yul\":23273:23275   */\n      0x40\n        /* \"#utility.yul\":23268:23271   */\n      dup3\n        /* \"#utility.yul\":23264:23276   */\n      add\n        /* \"#utility.yul\":23257:23276   */\n      swap1\n      pop\n        /* \"#utility.yul\":22916:23282   */\n      swap2\n      swap1\n      pop\n      jump\t// out\n        /* \"#utility.yul\":23288:23707   */\n    tag_274:\n        /* \"#utility.yul\":23454:23458   */\n      0x00\n        /* \"#utility.yul\":23492:23494   */\n      0x20\n        /* \"#utility.yul\":23481:23490   */\n      dup3\n        /* \"#utility.yul\":23477:23495   */\n      add\n        /* \"#utility.yul\":23469:23495   */\n      swap1\n      pop\n        /* \"#utility.yul\":23541:23550   */\n      dup2\n        /* \"#utility.yul\":23535:23539   */\n      dup2\n        /* \"#utility.yul\":23531:23551   */\n      sub\n        /* \"#utility.yul\":23527:23528   */\n      0x00\n        /* \"#utility.yul\":23516:23525   */\n      dup4\n        /* \"#utility.yul\":23512:23529   */\n      add\n        /* \"#utility.yul\":23505:23552   */\n      mstore\n        /* \"#utility.yul\":23569:23700   */\n      tag_542\n        /* \"#utility.yul\":23695:23699   */\n      dup2\n        /* \"#utility.yul\":23569:23700   */\n      tag_341\n      jump\t// in\n    tag_542:\n        /* \"#utility.yul\":23561:23700   */\n      swap1\n      pop\n        /* \"#utility.yul\":23288:23707   */\n      swap2\n      swap1\n      pop\n      jump\t// out\n        /* \"#utility.yul\":23713:23938   */\n    tag_342:\n        /* \"#utility.yul\":23853:23887   */\n      0x45524332303a207472616e7366657220616d6f756e7420657863656564732062\n        /* \"#utility.yul\":23849:23850   */\n      0x00\n        /* \"#utility.yul\":23841:23847   */\n      dup3\n        /* \"#utility.yul\":23837:23851   */\n      add\n        /* \"#utility.yul\":23830:23888   */\n      mstore\n        /* \"#utility.yul\":23922:23930   */\n      0x616c616e63650000000000000000000000000000000000000000000000000000\n        /* \"#utility.yul\":23917:23919   */\n      0x20\n        /* \"#utility.yul\":23909:23915   */\n      dup3\n        /* \"#utility.yul\":23905:23920   */\n      add\n        /* \"#utility.yul\":23898:23931   */\n      mstore\n        /* \"#utility.yul\":23713:23938   */\n      pop\n      jump\t// out\n        /* \"#utility.yul\":23944:24310   */\n    tag_343:\n        /* \"#utility.yul\":24086:24089   */\n      0x00\n        /* \"#utility.yul\":24107:24174   */\n      tag_545\n        /* \"#utility.yul\":24171:24173   */\n      0x26\n        /* \"#utility.yul\":24166:24169   */\n      dup4\n        /* \"#utility.yul\":24107:24174   */\n      tag_289\n      jump\t// in\n    tag_545:\n        /* \"#utility.yul\":24100:24174   */\n      swap2\n      pop\n        /* \"#utility.yul\":24183:24276   */\n      tag_546\n        /* \"#utility.yul\":24272:24275   */\n      dup3\n        /* \"#utility.yul\":24183:24276   */\n      tag_342\n      jump\t// in\n    tag_546:\n        /* \"#utility.yul\":24301:24303   */\n      0x40\n        /* \"#utility.yul\":24296:24299   */\n      dup3\n        /* \"#utility.yul\":24292:24304   */\n      add\n        /* \"#utility.yul\":24285:24304   */\n      swap1\n      pop\n        /* \"#utility.yul\":23944:24310   */\n      swap2\n      swap1\n      pop\n      jump\t// out\n        /* \"#utility.yul\":24316:24735   */\n    tag_281:\n        /* \"#utility.yul\":24482:24486   */\n      0x00\n        /* \"#utility.yul\":24520:24522   */\n      0x20\n        /* \"#utility.yul\":24509:24518   */\n      dup3\n        /* \"#utility.yul\":24505:24523   */\n      add\n        /* \"#utility.yul\":24497:24523   */\n      swap1\n      pop\n        /* \"#utility.yul\":24569:24578   */\n      dup2\n        /* \"#utility.yul\":24563:24567   */\n      dup2\n        /* \"#utility.yul\":24559:24579   */\n      sub\n        /* \"#utility.yul\":24555:24556   */\n      0x00\n        /* \"#utility.yul\":24544:24553   */\n      dup4\n        /* \"#utility.yul\":24540:24557   */\n      add\n        /* \"#utility.yul\":24533:24580   */\n      mstore\n        /* \"#utility.yul\":24597:24728   */\n      tag_548\n        /* \"#utility.yul\":24723:24727   */\n      dup2\n        /* \"#utility.yul\":24597:24728   */\n      tag_343\n      jump\t// in\n    tag_548:\n        /* \"#utility.yul\":24589:24728   */\n      swap1\n      pop\n        /* \"#utility.yul\":24316:24735   */\n      swap2\n      swap1\n      pop\n      jump\t// out\n\n    auxdata: 0xa2646970667358221220d66d14b84cec8360811bd084a26af9db12fb0bab1b5ea78ecb039b587e1b0c7064736f6c63430008120033\n}\n",
				"bytecode": {
					"linkReferences": {},
					"object": "60806040523480156200001157600080fd5b5060405162002b8038038062002b808339818101604052810190620000379190620003e5565b336000806101000a81548173ffffffffffffffffffffffffffffffffffffffff021916908373ffffffffffffffffffffffffffffffffffffffff16021790555060008054906101000a900473ffffffffffffffffffffffffffffffffffffffff1673ffffffffffffffffffffffffffffffffffffffff16600073ffffffffffffffffffffffffffffffffffffffff167f8be0079c531659141344cd1fd0a4f28419497f9722a3daafe3b4186f6b6457e060405160405180910390a3856004908162000103919062000700565b50846005908162000115919062000700565b5083600660006101000a81548173ffffffffffffffffffffffffffffffffffffffff021916908373ffffffffffffffffffffffffffffffffffffffff1602179055508160088190555082600760006101000a81548173ffffffffffffffffffffffffffffffffffffffff021916908373ffffffffffffffffffffffffffffffffffffffff16021790555080600a81905550505050505050620007e7565b6000604051905090565b600080fd5b600080fd5b600080fd5b600080fd5b6000601f19601f8301169050919050565b7f4e487b7100000000000000000000000000000000000000000000000000000000600052604160045260246000fd5b6200021b82620001d0565b810181811067ffffffffffffffff821117156200023d576200023c620001e1565b5b80604052505050565b600062000252620001b2565b905062000260828262000210565b919050565b600067ffffffffffffffff821115620002835762000282620001e1565b5b6200028e82620001d0565b9050602081019050919050565b60005b83811015620002bb5780820151818401526020810190506200029e565b60008484015250505050565b6000620002de620002d88462000265565b62000246565b905082815260208101848484011115620002fd57620002fc620001cb565b5b6200030a8482856200029b565b509392505050565b600082601f8301126200032a5762000329620001c6565b5b81516200033c848260208601620002c7565b91505092915050565b600073ffffffffffffffffffffffffffffffffffffffff82169050919050565b6000620003728262000345565b9050919050565b620003848162000365565b81146200039057600080fd5b50565b600081519050620003a48162000379565b92915050565b6000819050919050565b620003bf81620003aa565b8114620003cb57600080fd5b50565b600081519050620003df81620003b4565b92915050565b60008060008060008060c08789031215620004055762000404620001bc565b5b600087015167ffffffffffffffff811115620004265762000425620001c1565b5b6200043489828a0162000312565b965050602087015167ffffffffffffffff811115620004585762000457620001c1565b5b6200046689828a0162000312565b95505060406200047989828a0162000393565b94505060606200048c89828a0162000393565b93505060806200049f89828a01620003ce565b92505060a0620004b289828a01620003ce565b9150509295509295509295565b600081519050919050565b7f4e487b7100000000000000000000000000000000000000000000000000000000600052602260045260246000fd5b600060028204905060018216806200051257607f821691505b602082108103620005285762000527620004ca565b5b50919050565b60008190508160005260206000209050919050565b60006020601f8301049050919050565b600082821b905092915050565b600060088302620005927fffffffffffffffffffffffffffffffffffffffffffffffffffffffffffffffff8262000553565b6200059e868362000553565b95508019841693508086168417925050509392505050565b6000819050919050565b6000620005e1620005db620005d584620003aa565b620005b6565b620003aa565b9050919050565b6000819050919050565b620005fd83620005c0565b620006156200060c82620005e8565b84845462000560565b825550505050565b600090565b6200062c6200061d565b62000639818484620005f2565b505050565b5b8181101562000661576200065560008262000622565b6001810190506200063f565b5050565b601f821115620006b0576200067a816200052e565b620006858462000543565b8101602085101562000695578190505b620006ad620006a48562000543565b8301826200063e565b50505b505050565b600082821c905092915050565b6000620006d560001984600802620006b5565b1980831691505092915050565b6000620006f08383620006c2565b9150826002028217905092915050565b6200070b82620004bf565b67ffffffffffffffff811115620007275762000726620001e1565b5b620007338254620004f9565b6200074082828562000665565b600060209050601f83116001811462000778576000841562000763578287015190505b6200076f8582620006e2565b865550620007df565b601f19841662000788866200052e565b60005b82811015620007b2578489015182556001820191506020850194506020810190506200078b565b86831015620007d25784890151620007ce601f891682620006c2565b8355505b6001600288020188555050505b505050505050565b61238980620007f76000396000f3fe608060405234801561001057600080fd5b506004361061012c5760003560e01c806370a08231116100ad57806395d89b411161007157806395d89b411461036f578063a457c2d71461038d578063a9059cbb146103bd578063dd62ed3e146103ed578063f2fde38b1461041d5761012c565b806370a08231146102c9578063715018a6146102f957806379cc6790146103035780638da5cb5b146103335780638f32d59b146103515761012c565b8063313ce567116100f4578063313ce567146101fd578063334b93f01461021b578063395093511461023957806342966c6814610269578063641a21f3146102995761012c565b806306fdde0314610131578063074742fd1461014f578063095ea7b31461017f57806318160ddd146101af57806323b872dd146101cd575b600080fd5b610139610439565b604051610146919061170b565b60405180910390f35b610169600480360381019061016491906117c6565b6104cb565b6040516101769190611821565b60405180910390f35b610199600480360381019061019491906117c6565b61064a565b6040516101a69190611821565b60405180910390f35b6101b761066d565b6040516101c4919061184b565b60405180910390f35b6101e760048036038101906101e29190611866565b610677565b6040516101f49190611821565b60405180910390f35b6102056106a6565b60405161021291906118d5565b60405180910390f35b6102236106af565b6040516102309190611821565b60405180910390f35b610253600480360381019061024e91906117c6565b6107e9565b6040516102609190611821565b60405180910390f35b610283600480360381019061027e91906118f0565b610827565b6040516102909190611821565b60405180910390f35b6102b360048036038101906102ae91906117c6565b610843565b6040516102c09190611821565b60405180910390f35b6102e360048036038101906102de919061191d565b6109d6565b6040516102f0919061184b565b60405180910390f35b610301610a1f565b005b61031d600480360381019061031891906117c6565b610b24565b60405161032a9190611821565b60405180910390f35b61033b610b51565b6040516103489190611959565b60405180910390f35b610359610b7a565b6040516103669190611821565b60405180910390f35b610377610bd1565b604051610384919061170b565b60405180910390f35b6103a760048036038101906103a291906117c6565b610c63565b6040516103b49190611821565b60405180910390f35b6103d760048036038101906103d291906117c6565b610cea565b6040516103e49190611821565b60405180910390f35b61040760048036038101906104029190611974565b610d0d565b604051610414919061184b565b60405180910390f35b6104376004803603810190610432919061191d565b610d94565b005b606060048054610448906119e3565b80601f0160208091040260200160405190810160405280929190818152602001828054610474906119e3565b80156104c15780601f10610496576101008083540402835291602001916104c1565b820191906000526020600020905b8154815290600101906020018083116104a457829003601f168201915b5050505050905090565b600080600660009054906101000a900473ffffffffffffffffffffffffffffffffffffffff1690506104fc83610de7565b6105068484610e43565b828173ffffffffffffffffffffffffffffffffffffffff1663dd62ed3e61052b610ec2565b306040518363ffffffff1660e01b8152600401610549929190611a14565b602060405180830381865afa158015610566573d6000803e3d6000fd5b505050506040513d601f19601f8201168201806040525081019061058a9190611a52565b10156105cb576040517f08c379a00000000000000000000000000000000000000000000000000000000081526004016105c290611acb565b60405180910390fd5b8073ffffffffffffffffffffffffffffffffffffffff166379cc67906105ef610ec2565b856040518363ffffffff1660e01b815260040161060d929190611aeb565b600060405180830381600087803b15801561062757600080fd5b505af115801561063b573d6000803e3d6000fd5b50505050600191505092915050565b600080610655610ec2565b9050610662818585610eca565b600191505092915050565b6000600354905090565b600080610682610ec2565b905061068f858285611093565b61069a85858561112f565b60019150509392505050565b60006012905090565b6000600760009054906101000a900473ffffffffffffffffffffffffffffffffffffffff1673ffffffffffffffffffffffffffffffffffffffff166106f2610ec2565b73ffffffffffffffffffffffffffffffffffffffff1614610748576040517f08c379a000000000000000000000000000000000000000000000000000000000815260040161073f90611b60565b60405180910390fd5b60095442101561078d576040517f08c379a000000000000000000000000000000000000000000000000000000000815260040161078490611bcc565b60405180910390fd5b6107a3620151804261121d90919063ffffffff16565b6009819055506107b4600a54610de7565b6107e2600760009054906101000a900473ffffffffffffffffffffffffffffffffffffffff16600a54610e43565b6001905090565b6000806107f4610ec2565b905061081c818561081786610809868a610d0d565b61121d90919063ffffffff16565b610eca565b600191505092915050565b600061083a610834610ec2565b83611233565b60019050919050565b600080600660009054906101000a900473ffffffffffffffffffffffffffffffffffffffff16905061087483610de7565b61087e8484610e43565b828173ffffffffffffffffffffffffffffffffffffffff1663dd62ed3e6108a3610ec2565b306040518363ffffffff1660e01b81526004016108c1929190611a14565b602060405180830381865afa1580156108de573d6000803e3d6000fd5b505050506040513d601f19601f820116820180604052508101906109029190611a52565b1015610943576040517f08c379a000000000000000000000000000000000000000000000000000000000815260040161093a90611acb565b60405180910390fd5b8073ffffffffffffffffffffffffffffffffffffffff166323b872dd610967610ec2565b30866040518463ffffffff1660e01b815260040161098793929190611bec565b6020604051808303816000875af11580156109a6573d6000803e3d6000fd5b505050506040513d601f19601f820116820180604052508101906109ca9190611c4f565b50600191505092915050565b6000600160008373ffffffffffffffffffffffffffffffffffffffff1673ffffffffffffffffffffffffffffffffffffffff168152602001908152602001600020549050919050565b610a27610b7a565b610a66576040517f08c379a0000000000000000000000000000000000000000000000000000000008152600401610a5d90611cc8565b60405180910390fd5b600073ffffffffffffffffffffffffffffffffffffffff1660008054906101000a900473ffffffffffffffffffffffffffffffffffffffff1673ffffffffffffffffffffffffffffffffffffffff167f8be0079c531659141344cd1fd0a4f28419497f9722a3daafe3b4186f6b6457e060405160405180910390a360008060006101000a81548173ffffffffffffffffffffffffffffffffffffffff021916908373ffffffffffffffffffffffffffffffffffffffff160217905550565b600080610b2f610ec2565b9050610b3b8484611233565b610b46848285611093565b600191505092915050565b60008060009054906101000a900473ffffffffffffffffffffffffffffffffffffffff16905090565b60008060009054906101000a900473ffffffffffffffffffffffffffffffffffffffff1673ffffffffffffffffffffffffffffffffffffffff163373ffffffffffffffffffffffffffffffffffffffff1614905090565b606060058054610be0906119e3565b80601f0160208091040260200160405190810160405280929190818152602001828054610c0c906119e3565b8015610c595780601f10610c2e57610100808354040283529160200191610c59565b820191906000526020600020905b815481529060010190602001808311610c3c57829003601f168201915b5050505050905090565b600080610c6e610ec2565b90506000610c7c8286610d0d565b905083811015610cc1576040517f08c379a0000000000000000000000000000000000000000000000000000000008152600401610cb890611d5a565b60405180910390fd5b610cde8286610cd987856112b290919063ffffffff16565b610eca565b60019250505092915050565b600080610cf5610ec2565b9050610d0281858561112f565b600191505092915050565b6000600260008473ffffffffffffffffffffffffffffffffffffffff1673ffffffffffffffffffffffffffffffffffffffff16815260200190815260200160002060008373ffffffffffffffffffffffffffffffffffffffff1673ffffffffffffffffffffffffffffffffffffffff16815260200190815260200160002054905092915050565b610d9c610b7a565b610ddb576040517f08c379a0000000000000000000000000000000000000000000000000000000008152600401610dd290611cc8565b60405180910390fd5b610de4816112c8565b50565b610dfc8160035461121d90919063ffffffff16565b6008541015610e40576040517f08c379a0000000000000000000000000000000000000000000000000000000008152600401610e3790611dc6565b60405180910390fd5b50565b600073ffffffffffffffffffffffffffffffffffffffff168273ffffffffffffffffffffffffffffffffffffffff1603610eb2576040517f08c379a0000000000000000000000000000000000000000000000000000000008152600401610ea990611e32565b60405180910390fd5b610ebe600083836113f4565b5050565b600033905090565b600073ffffffffffffffffffffffffffffffffffffffff168373ffffffffffffffffffffffffffffffffffffffff1603610f39576040517f08c379a0000000000000000000000000000000000000000000000000000000008152600401610f3090611ec4565b60405180910390fd5b600073ffffffffffffffffffffffffffffffffffffffff168273ffffffffffffffffffffffffffffffffffffffff1603610fa8576040517f08c379a0000000000000000000000000000000000000000000000000000000008152600401610f9f90611f56565b60405180910390fd5b80600260008573ffffffffffffffffffffffffffffffffffffffff1673ffffffffffffffffffffffffffffffffffffffff16815260200190815260200160002060008473ffffffffffffffffffffffffffffffffffffffff1673ffffffffffffffffffffffffffffffffffffffff168152602001908152602001600020819055508173ffffffffffffffffffffffffffffffffffffffff168373ffffffffffffffffffffffffffffffffffffffff167f8c5be1e5ebec7d5bd14f71427d1e84f3dd0314c0f7b2291e5b200ac8c7c3b92583604051611086919061184b565b60405180910390a3505050565b600061109f8484610d0d565b90507fffffffffffffffffffffffffffffffffffffffffffffffffffffffffffffffff8114611129578181101561110b576040517f08c379a000000000000000000000000000000000000000000000000000000000815260040161110290611fc2565b60405180910390fd5b611128848461112385856112b290919063ffffffff16565b610eca565b5b50505050565b600073ffffffffffffffffffffffffffffffffffffffff168373ffffffffffffffffffffffffffffffffffffffff160361119e576040517f08c379a000000000000000000000000000000000000000000000000000000000815260040161119590612054565b60405180910390fd5b600073ffffffffffffffffffffffffffffffffffffffff168273ffffffffffffffffffffffffffffffffffffffff160361120d576040517f08c379a0000000000000000000000000000000000000000000000000000000008152600401611204906120e6565b60405180910390fd5b6112188383836113f4565b505050565b6000818361122b9190612135565b905092915050565b600073ffffffffffffffffffffffffffffffffffffffff168273ffffffffffffffffffffffffffffffffffffffff16036112a2576040517f08c379a0000000000000000000000000000000000000000000000000000000008152600401611299906121db565b60405180910390fd5b6112ae826000836113f4565b5050565b600081836112c091906121fb565b905092915050565b600073ffffffffffffffffffffffffffffffffffffffff168173ffffffffffffffffffffffffffffffffffffffff1603611337576040517f08c379a000000000000000000000000000000000000000000000000000000000815260040161132e906122a1565b60405180910390fd5b8073ffffffffffffffffffffffffffffffffffffffff1660008054906101000a900473ffffffffffffffffffffffffffffffffffffffff1673ffffffffffffffffffffffffffffffffffffffff167f8be0079c531659141344cd1fd0a4f28419497f9722a3daafe3b4186f6b6457e060405160405180910390a3806000806101000a81548173ffffffffffffffffffffffffffffffffffffffff021916908373ffffffffffffffffffffffffffffffffffffffff16021790555050565b600073ffffffffffffffffffffffffffffffffffffffff168373ffffffffffffffffffffffffffffffffffffffff16036114485761143d8160035461121d90919063ffffffff16565b600381905550611527565b6000600160008573ffffffffffffffffffffffffffffffffffffffff1673ffffffffffffffffffffffffffffffffffffffff168152602001908152602001600020549050818110156114cf576040517f08c379a00000000000000000000000000000000000000000000000000000000081526004016114c690612333565b60405180910390fd5b6114e282826112b290919063ffffffff16565b600160008673ffffffffffffffffffffffffffffffffffffffff1673ffffffffffffffffffffffffffffffffffffffff16815260200190815260200160002081905550505b600073ffffffffffffffffffffffffffffffffffffffff168273ffffffffffffffffffffffffffffffffffffffff160361157b57611570816003546112b290919063ffffffff16565b600381905550611611565b6115cd81600160008573ffffffffffffffffffffffffffffffffffffffff1673ffffffffffffffffffffffffffffffffffffffff1681526020019081526020016000205461121d90919063ffffffff16565b600160008473ffffffffffffffffffffffffffffffffffffffff1673ffffffffffffffffffffffffffffffffffffffff168152602001908152602001600020819055505b8173ffffffffffffffffffffffffffffffffffffffff168373ffffffffffffffffffffffffffffffffffffffff167fddf252ad1be2c89b69c2b068fc378daa952ba7f163c4a11628f55a4df523b3ef8360405161166e919061184b565b60405180910390a3505050565b600081519050919050565b600082825260208201905092915050565b60005b838110156116b557808201518184015260208101905061169a565b60008484015250505050565b6000601f19601f8301169050919050565b60006116dd8261167b565b6116e78185611686565b93506116f7818560208601611697565b611700816116c1565b840191505092915050565b6000602082019050818103600083015261172581846116d2565b905092915050565b600080fd5b600073ffffffffffffffffffffffffffffffffffffffff82169050919050565b600061175d82611732565b9050919050565b61176d81611752565b811461177857600080fd5b50565b60008135905061178a81611764565b92915050565b6000819050919050565b6117a381611790565b81146117ae57600080fd5b50565b6000813590506117c08161179a565b92915050565b600080604083850312156117dd576117dc61172d565b5b60006117eb8582860161177b565b92505060206117fc858286016117b1565b9150509250929050565b60008115159050919050565b61181b81611806565b82525050565b60006020820190506118366000830184611812565b92915050565b61184581611790565b82525050565b6000602082019050611860600083018461183c565b92915050565b60008060006060848603121561187f5761187e61172d565b5b600061188d8682870161177b565b935050602061189e8682870161177b565b92505060406118af868287016117b1565b9150509250925092565b600060ff82169050919050565b6118cf816118b9565b82525050565b60006020820190506118ea60008301846118c6565b92915050565b6000602082840312156119065761190561172d565b5b6000611914848285016117b1565b91505092915050565b6000602082840312156119335761193261172d565b5b60006119418482850161177b565b91505092915050565b61195381611752565b82525050565b600060208201905061196e600083018461194a565b92915050565b6000806040838503121561198b5761198a61172d565b5b60006119998582860161177b565b92505060206119aa8582860161177b565b9150509250929050565b7f4e487b7100000000000000000000000000000000000000000000000000000000600052602260045260246000fd5b600060028204905060018216806119fb57607f821691505b602082108103611a0e57611a0d6119b4565b5b50919050565b6000604082019050611a29600083018561194a565b611a36602083018461194a565b9392505050565b600081519050611a4c8161179a565b92915050565b600060208284031215611a6857611a6761172d565b5b6000611a7684828501611a3d565b91505092915050565b7f496e73756666696369656e7420616c6c6f77616e636521000000000000000000600082015250565b6000611ab5601783611686565b9150611ac082611a7f565b602082019050919050565b60006020820190508181036000830152611ae481611aa8565b9050919050565b6000604082019050611b00600083018561194a565b611b0d602083018461183c565b9392505050565b7f4163636573732064656e69656421000000000000000000000000000000000000600082015250565b6000611b4a600e83611686565b9150611b5582611b14565b602082019050919050565b60006020820190508181036000830152611b7981611b3d565b9050919050565b7f576169742074696c6c206e657874206461792100000000000000000000000000600082015250565b6000611bb6601383611686565b9150611bc182611b80565b602082019050919050565b60006020820190508181036000830152611be581611ba9565b9050919050565b6000606082019050611c01600083018661194a565b611c0e602083018561194a565b611c1b604083018461183c565b949350505050565b611c2c81611806565b8114611c3757600080fd5b50565b600081519050611c4981611c23565b92915050565b600060208284031215611c6557611c6461172d565b5b6000611c7384828501611c3a565b91505092915050565b7f4f776e61626c653a2063616c6c6572206973206e6f7420746865206f776e6572600082015250565b6000611cb2602083611686565b9150611cbd82611c7c565b602082019050919050565b60006020820190508181036000830152611ce181611ca5565b9050919050565b7f45524332303a2064656372656173656420616c6c6f77616e63652062656c6f7760008201527f207a65726f000000000000000000000000000000000000000000000000000000602082015250565b6000611d44602583611686565b9150611d4f82611ce8565b604082019050919050565b60006020820190508181036000830152611d7381611d37565b9050919050565b7f546f74616c204361702065786365656465640000000000000000000000000000600082015250565b6000611db0601283611686565b9150611dbb82611d7a565b602082019050919050565b60006020820190508181036000830152611ddf81611da3565b9050919050565b7f45524332303a206d696e7420746f20746865207a65726f206164647265737300600082015250565b6000611e1c601f83611686565b9150611e2782611de6565b602082019050919050565b60006020820190508181036000830152611e4b81611e0f565b9050919050565b7f45524332303a20617070726f76652066726f6d20746865207a65726f2061646460008201527f7265737300000000000000000000000000000000000000000000000000000000602082015250565b6000611eae602483611686565b9150611eb982611e52565b604082019050919050565b60006020820190508181036000830152611edd81611ea1565b9050919050565b7f45524332303a20617070726f766520746f20746865207a65726f20616464726560008201527f7373000000000000000000000000000000000000000000000000000000000000602082015250565b6000611f40602283611686565b9150611f4b82611ee4565b604082019050919050565b60006020820190508181036000830152611f6f81611f33565b9050919050565b7f45524332303a20696e73756666696369656e7420616c6c6f77616e6365000000600082015250565b6000611fac601d83611686565b9150611fb782611f76565b602082019050919050565b60006020820190508181036000830152611fdb81611f9f565b9050919050565b7f45524332303a207472616e736665722066726f6d20746865207a65726f20616460008201527f6472657373000000000000000000000000000000000000000000000000000000602082015250565b600061203e602583611686565b915061204982611fe2565b604082019050919050565b6000602082019050818103600083015261206d81612031565b9050919050565b7f45524332303a207472616e7366657220746f20746865207a65726f206164647260008201527f6573730000000000000000000000000000000000000000000000000000000000602082015250565b60006120d0602383611686565b91506120db82612074565b604082019050919050565b600060208201905081810360008301526120ff816120c3565b9050919050565b7f4e487b7100000000000000000000000000000000000000000000000000000000600052601160045260246000fd5b600061214082611790565b915061214b83611790565b925082820190508082111561216357612162612106565b5b92915050565b7f45524332303a206275726e2066726f6d20746865207a65726f2061646472657360008201527f7300000000000000000000000000000000000000000000000000000000000000602082015250565b60006121c5602183611686565b91506121d082612169565b604082019050919050565b600060208201905081810360008301526121f4816121b8565b9050919050565b600061220682611790565b915061221183611790565b925082820390508181111561222957612228612106565b5b92915050565b7f4f776e61626c653a206e6577206f776e657220697320746865207a65726f206160008201527f6464726573730000000000000000000000000000000000000000000000000000602082015250565b600061228b602683611686565b91506122968261222f565b604082019050919050565b600060208201905081810360008301526122ba8161227e565b9050919050565b7f45524332303a207472616e7366657220616d6f756e742065786365656473206260008201527f616c616e63650000000000000000000000000000000000000000000000000000602082015250565b600061231d602683611686565b9150612328826122c1565b604082019050919050565b6000602082019050818103600083015261234c81612310565b905091905056fea2646970667358221220d66d14b84cec8360811bd084a26af9db12fb0bab1b5ea78ecb039b587e1b0c7064736f6c63430008120033",
					"opcodes": "PUSH1 0x80 PUSH1 0x40 MSTORE CALLVALUE DUP1 ISZERO PUSH3 0x11 JUMPI PUSH1 0x0 DUP1 REVERT JUMPDEST POP PUSH1 0x40 MLOAD PUSH3 0x2B80 CODESIZE SUB DUP1 PUSH3 0x2B80 DUP4 CODECOPY DUP2 DUP2 ADD PUSH1 0x40 MSTORE DUP2 ADD SWAP1 PUSH3 0x37 SWAP2 SWAP1 PUSH3 0x3E5 JUMP JUMPDEST CALLER PUSH1 0x0 DUP1 PUSH2 0x100 EXP DUP2 SLOAD DUP2 PUSH20 0xFFFFFFFFFFFFFFFFFFFFFFFFFFFFFFFFFFFFFFFF MUL NOT AND SWAP1 DUP4 PUSH20 0xFFFFFFFFFFFFFFFFFFFFFFFFFFFFFFFFFFFFFFFF AND MUL OR SWAP1 SSTORE POP PUSH1 0x0 DUP1 SLOAD SWAP1 PUSH2 0x100 EXP SWAP1 DIV PUSH20 0xFFFFFFFFFFFFFFFFFFFFFFFFFFFFFFFFFFFFFFFF AND PUSH20 0xFFFFFFFFFFFFFFFFFFFFFFFFFFFFFFFFFFFFFFFF AND PUSH1 0x0 PUSH20 0xFFFFFFFFFFFFFFFFFFFFFFFFFFFFFFFFFFFFFFFF AND PUSH32 0x8BE0079C531659141344CD1FD0A4F28419497F9722A3DAAFE3B4186F6B6457E0 PUSH1 0x40 MLOAD PUSH1 0x40 MLOAD DUP1 SWAP2 SUB SWAP1 LOG3 DUP6 PUSH1 0x4 SWAP1 DUP2 PUSH3 0x103 SWAP2 SWAP1 PUSH3 0x700 JUMP JUMPDEST POP DUP5 PUSH1 0x5 SWAP1 DUP2 PUSH3 0x115 SWAP2 SWAP1 PUSH3 0x700 JUMP JUMPDEST POP DUP4 PUSH1 0x6 PUSH1 0x0 PUSH2 0x100 EXP DUP2 SLOAD DUP2 PUSH20 0xFFFFFFFFFFFFFFFFFFFFFFFFFFFFFFFFFFFFFFFF MUL NOT AND SWAP1 DUP4 PUSH20 0xFFFFFFFFFFFFFFFFFFFFFFFFFFFFFFFFFFFFFFFF AND MUL OR SWAP1 SSTORE POP DUP2 PUSH1 0x8 DUP2 SWAP1 SSTORE POP DUP3 PUSH1 0x7 PUSH1 0x0 PUSH2 0x100 EXP DUP2 SLOAD DUP2 PUSH20 0xFFFFFFFFFFFFFFFFFFFFFFFFFFFFFFFFFFFFFFFF MUL NOT AND SWAP1 DUP4 PUSH20 0xFFFFFFFFFFFFFFFFFFFFFFFFFFFFFFFFFFFFFFFF AND MUL OR SWAP1 SSTORE POP DUP1 PUSH1 0xA DUP2 SWAP1 SSTORE POP POP POP POP POP POP POP PUSH3 0x7E7 JUMP JUMPDEST PUSH1 0x0 PUSH1 0x40 MLOAD SWAP1 POP SWAP1 JUMP JUMPDEST PUSH1 0x0 DUP1 REVERT JUMPDEST PUSH1 0x0 DUP1 REVERT JUMPDEST PUSH1 0x0 DUP1 REVERT JUMPDEST PUSH1 0x0 DUP1 REVERT JUMPDEST PUSH1 0x0 PUSH1 0x1F NOT PUSH1 0x1F DUP4 ADD AND SWAP1 POP SWAP2 SWAP1 POP JUMP JUMPDEST PUSH32 0x4E487B7100000000000000000000000000000000000000000000000000000000 PUSH1 0x0 MSTORE PUSH1 0x41 PUSH1 0x4 MSTORE PUSH1 0x24 PUSH1 0x0 REVERT JUMPDEST PUSH3 0x21B DUP3 PUSH3 0x1D0 JUMP JUMPDEST DUP2 ADD DUP2 DUP2 LT PUSH8 0xFFFFFFFFFFFFFFFF DUP3 GT OR ISZERO PUSH3 0x23D JUMPI PUSH3 0x23C PUSH3 0x1E1 JUMP JUMPDEST JUMPDEST DUP1 PUSH1 0x40 MSTORE POP POP POP JUMP JUMPDEST PUSH1 0x0 PUSH3 0x252 PUSH3 0x1B2 JUMP JUMPDEST SWAP1 POP PUSH3 0x260 DUP3 DUP3 PUSH3 0x210 JUMP JUMPDEST SWAP2 SWAP1 POP JUMP JUMPDEST PUSH1 0x0 PUSH8 0xFFFFFFFFFFFFFFFF DUP3 GT ISZERO PUSH3 0x283 JUMPI PUSH3 0x282 PUSH3 0x1E1 JUMP JUMPDEST JUMPDEST PUSH3 0x28E DUP3 PUSH3 0x1D0 JUMP JUMPDEST SWAP1 POP PUSH1 0x20 DUP2 ADD SWAP1 POP SWAP2 SWAP1 POP JUMP JUMPDEST PUSH1 0x0 JUMPDEST DUP4 DUP2 LT ISZERO PUSH3 0x2BB JUMPI DUP1 DUP3 ADD MLOAD DUP2 DUP5 ADD MSTORE PUSH1 0x20 DUP2 ADD SWAP1 POP PUSH3 0x29E JUMP JUMPDEST PUSH1 0x0 DUP5 DUP5 ADD MSTORE POP POP POP POP JUMP JUMPDEST PUSH1 0x0 PUSH3 0x2DE PUSH3 0x2D8 DUP5 PUSH3 0x265 JUMP JUMPDEST PUSH3 0x246 JUMP JUMPDEST SWAP1 POP DUP3 DUP2 MSTORE PUSH1 0x20 DUP2 ADD DUP5 DUP5 DUP5 ADD GT ISZERO PUSH3 0x2FD JUMPI PUSH3 0x2FC PUSH3 0x1CB JUMP JUMPDEST JUMPDEST PUSH3 0x30A DUP5 DUP3 DUP6 PUSH3 0x29B JUMP JUMPDEST POP SWAP4 SWAP3 POP POP POP JUMP JUMPDEST PUSH1 0x0 DUP3 PUSH1 0x1F DUP4 ADD SLT PUSH3 0x32A JUMPI PUSH3 0x329 PUSH3 0x1C6 JUMP JUMPDEST JUMPDEST DUP2 MLOAD PUSH3 0x33C DUP5 DUP3 PUSH1 0x20 DUP7 ADD PUSH3 0x2C7 JUMP JUMPDEST SWAP2 POP POP SWAP3 SWAP2 POP POP JUMP JUMPDEST PUSH1 0x0 PUSH20 0xFFFFFFFFFFFFFFFFFFFFFFFFFFFFFFFFFFFFFFFF DUP3 AND SWAP1 POP SWAP2 SWAP1 POP JUMP JUMPDEST PUSH1 0x0 PUSH3 0x372 DUP3 PUSH3 0x345 JUMP JUMPDEST SWAP1 POP SWAP2 SWAP1 POP JUMP JUMPDEST PUSH3 0x384 DUP2 PUSH3 0x365 JUMP JUMPDEST DUP2 EQ PUSH3 0x390 JUMPI PUSH1 0x0 DUP1 REVERT JUMPDEST POP JUMP JUMPDEST PUSH1 0x0 DUP2 MLOAD SWAP1 POP PUSH3 0x3A4 DUP2 PUSH3 0x379 JUMP JUMPDEST SWAP3 SWAP2 POP POP JUMP JUMPDEST PUSH1 0x0 DUP2 SWAP1 POP SWAP2 SWAP1 POP JUMP JUMPDEST PUSH3 0x3BF DUP2 PUSH3 0x3AA JUMP JUMPDEST DUP2 EQ PUSH3 0x3CB JUMPI PUSH1 0x0 DUP1 REVERT JUMPDEST POP JUMP JUMPDEST PUSH1 0x0 DUP2 MLOAD SWAP1 POP PUSH3 0x3DF DUP2 PUSH3 0x3B4 JUMP JUMPDEST SWAP3 SWAP2 POP POP JUMP JUMPDEST PUSH1 0x0 DUP1 PUSH1 0x0 DUP1 PUSH1 0x0 DUP1 PUSH1 0xC0 DUP8 DUP10 SUB SLT ISZERO PUSH3 0x405 JUMPI PUSH3 0x404 PUSH3 0x1BC JUMP JUMPDEST JUMPDEST PUSH1 0x0 DUP8 ADD MLOAD PUSH8 0xFFFFFFFFFFFFFFFF DUP2 GT ISZERO PUSH3 0x426 JUMPI PUSH3 0x425 PUSH3 0x1C1 JUMP JUMPDEST JUMPDEST PUSH3 0x434 DUP10 DUP3 DUP11 ADD PUSH3 0x312 JUMP JUMPDEST SWAP7 POP POP PUSH1 0x20 DUP8 ADD MLOAD PUSH8 0xFFFFFFFFFFFFFFFF DUP2 GT ISZERO PUSH3 0x458 JUMPI PUSH3 0x457 PUSH3 0x1C1 JUMP JUMPDEST JUMPDEST PUSH3 0x466 DUP10 DUP3 DUP11 ADD PUSH3 0x312 JUMP JUMPDEST SWAP6 POP POP PUSH1 0x40 PUSH3 0x479 DUP10 DUP3 DUP11 ADD PUSH3 0x393 JUMP JUMPDEST SWAP5 POP POP PUSH1 0x60 PUSH3 0x48C DUP10 DUP3 DUP11 ADD PUSH3 0x393 JUMP JUMPDEST SWAP4 POP POP PUSH1 0x80 PUSH3 0x49F DUP10 DUP3 DUP11 ADD PUSH3 0x3CE JUMP JUMPDEST SWAP3 POP POP PUSH1 0xA0 PUSH3 0x4B2 DUP10 DUP3 DUP11 ADD PUSH3 0x3CE JUMP JUMPDEST SWAP2 POP POP SWAP3 SWAP6 POP SWAP3 SWAP6 POP SWAP3 SWAP6 JUMP JUMPDEST PUSH1 0x0 DUP2 MLOAD SWAP1 POP SWAP2 SWAP1 POP JUMP JUMPDEST PUSH32 0x4E487B7100000000000000000000000000000000000000000000000000000000 PUSH1 0x0 MSTORE PUSH1 0x22 PUSH1 0x4 MSTORE PUSH1 0x24 PUSH1 0x0 REVERT JUMPDEST PUSH1 0x0 PUSH1 0x2 DUP3 DIV SWAP1 POP PUSH1 0x1 DUP3 AND DUP1 PUSH3 0x512 JUMPI PUSH1 0x7F DUP3 AND SWAP2 POP JUMPDEST PUSH1 0x20 DUP3 LT DUP2 SUB PUSH3 0x528 JUMPI PUSH3 0x527 PUSH3 0x4CA JUMP JUMPDEST JUMPDEST POP SWAP2 SWAP1 POP JUMP JUMPDEST PUSH1 0x0 DUP2 SWAP1 POP DUP2 PUSH1 0x0 MSTORE PUSH1 0x20 PUSH1 0x0 KECCAK256 SWAP1 POP SWAP2 SWAP1 POP JUMP JUMPDEST PUSH1 0x0 PUSH1 0x20 PUSH1 0x1F DUP4 ADD DIV SWAP1 POP SWAP2 SWAP1 POP JUMP JUMPDEST PUSH1 0x0 DUP3 DUP3 SHL SWAP1 POP SWAP3 SWAP2 POP POP JUMP JUMPDEST PUSH1 0x0 PUSH1 0x8 DUP4 MUL PUSH3 0x592 PUSH32 0xFFFFFFFFFFFFFFFFFFFFFFFFFFFFFFFFFFFFFFFFFFFFFFFFFFFFFFFFFFFFFFFF DUP3 PUSH3 0x553 JUMP JUMPDEST PUSH3 0x59E DUP7 DUP4 PUSH3 0x553 JUMP JUMPDEST SWAP6 POP DUP1 NOT DUP5 AND SWAP4 POP DUP1 DUP7 AND DUP5 OR SWAP3 POP POP POP SWAP4 SWAP3 POP POP POP JUMP JUMPDEST PUSH1 0x0 DUP2 SWAP1 POP SWAP2 SWAP1 POP JUMP JUMPDEST PUSH1 0x0 PUSH3 0x5E1 PUSH3 0x5DB PUSH3 0x5D5 DUP5 PUSH3 0x3AA JUMP JUMPDEST PUSH3 0x5B6 JUMP JUMPDEST PUSH3 0x3AA JUMP JUMPDEST SWAP1 POP SWAP2 SWAP1 POP JUMP JUMPDEST PUSH1 0x0 DUP2 SWAP1 POP SWAP2 SWAP1 POP JUMP JUMPDEST PUSH3 0x5FD DUP4 PUSH3 0x5C0 JUMP JUMPDEST PUSH3 0x615 PUSH3 0x60C DUP3 PUSH3 0x5E8 JUMP JUMPDEST DUP5 DUP5 SLOAD PUSH3 0x560 JUMP JUMPDEST DUP3 SSTORE POP POP POP POP JUMP JUMPDEST PUSH1 0x0 SWAP1 JUMP JUMPDEST PUSH3 0x62C PUSH3 0x61D JUMP JUMPDEST PUSH3 0x639 DUP2 DUP5 DUP5 PUSH3 0x5F2 JUMP JUMPDEST POP POP POP JUMP JUMPDEST JUMPDEST DUP2 DUP2 LT ISZERO PUSH3 0x661 JUMPI PUSH3 0x655 PUSH1 0x0 DUP3 PUSH3 0x622 JUMP JUMPDEST PUSH1 0x1 DUP2 ADD SWAP1 POP PUSH3 0x63F JUMP JUMPDEST POP POP JUMP JUMPDEST PUSH1 0x1F DUP3 GT ISZERO PUSH3 0x6B0 JUMPI PUSH3 0x67A DUP2 PUSH3 0x52E JUMP JUMPDEST PUSH3 0x685 DUP5 PUSH3 0x543 JUMP JUMPDEST DUP2 ADD PUSH1 0x20 DUP6 LT ISZERO PUSH3 0x695 JUMPI DUP2 SWAP1 POP JUMPDEST PUSH3 0x6AD PUSH3 0x6A4 DUP6 PUSH3 0x543 JUMP JUMPDEST DUP4 ADD DUP3 PUSH3 0x63E JUMP JUMPDEST POP POP JUMPDEST POP POP POP JUMP JUMPDEST PUSH1 0x0 DUP3 DUP3 SHR SWAP1 POP SWAP3 SWAP2 POP POP JUMP JUMPDEST PUSH1 0x0 PUSH3 0x6D5 PUSH1 0x0 NOT DUP5 PUSH1 0x8 MUL PUSH3 0x6B5 JUMP JUMPDEST NOT DUP1 DUP4 AND SWAP2 POP POP SWAP3 SWAP2 POP POP JUMP JUMPDEST PUSH1 0x0 PUSH3 0x6F0 DUP4 DUP4 PUSH3 0x6C2 JUMP JUMPDEST SWAP2 POP DUP3 PUSH1 0x2 MUL DUP3 OR SWAP1 POP SWAP3 SWAP2 POP POP JUMP JUMPDEST PUSH3 0x70B DUP3 PUSH3 0x4BF JUMP JUMPDEST PUSH8 0xFFFFFFFFFFFFFFFF DUP2 GT ISZERO PUSH3 0x727 JUMPI PUSH3 0x726 PUSH3 0x1E1 JUMP JUMPDEST JUMPDEST PUSH3 0x733 DUP3 SLOAD PUSH3 0x4F9 JUMP JUMPDEST PUSH3 0x740 DUP3 DUP3 DUP6 PUSH3 0x665 JUMP JUMPDEST PUSH1 0x0 PUSH1 0x20 SWAP1 POP PUSH1 0x1F DUP4 GT PUSH1 0x1 DUP2 EQ PUSH3 0x778 JUMPI PUSH1 0x0 DUP5 ISZERO PUSH3 0x763 JUMPI DUP3 DUP8 ADD MLOAD SWAP1 POP JUMPDEST PUSH3 0x76F DUP6 DUP3 PUSH3 0x6E2 JUMP JUMPDEST DUP7 SSTORE POP PUSH3 0x7DF JUMP JUMPDEST PUSH1 0x1F NOT DUP5 AND PUSH3 0x788 DUP7 PUSH3 0x52E JUMP JUMPDEST PUSH1 0x0 JUMPDEST DUP3 DUP2 LT ISZERO PUSH3 0x7B2 JUMPI DUP5 DUP10 ADD MLOAD DUP3 SSTORE PUSH1 0x1 DUP3 ADD SWAP2 POP PUSH1 0x20 DUP6 ADD SWAP5 POP PUSH1 0x20 DUP2 ADD SWAP1 POP PUSH3 0x78B JUMP JUMPDEST DUP7 DUP4 LT ISZERO PUSH3 0x7D2 JUMPI DUP5 DUP10 ADD MLOAD PUSH3 0x7CE PUSH1 0x1F DUP10 AND DUP3 PUSH3 0x6C2 JUMP JUMPDEST DUP4 SSTORE POP JUMPDEST PUSH1 0x1 PUSH1 0x2 DUP9 MUL ADD DUP9 SSTORE POP POP POP JUMPDEST POP POP POP POP POP POP JUMP JUMPDEST PUSH2 0x2389 DUP1 PUSH3 0x7F7 PUSH1 0x0 CODECOPY PUSH1 0x0 RETURN INVALID PUSH1 0x80 PUSH1 0x40 MSTORE CALLVALUE DUP1 ISZERO PUSH2 0x10 JUMPI PUSH1 0x0 DUP1 REVERT JUMPDEST POP PUSH1 0x4 CALLDATASIZE LT PUSH2 0x12C JUMPI PUSH1 0x0 CALLDATALOAD PUSH1 0xE0 SHR DUP1 PUSH4 0x70A08231 GT PUSH2 0xAD JUMPI DUP1 PUSH4 0x95D89B41 GT PUSH2 0x71 JUMPI DUP1 PUSH4 0x95D89B41 EQ PUSH2 0x36F JUMPI DUP1 PUSH4 0xA457C2D7 EQ PUSH2 0x38D JUMPI DUP1 PUSH4 0xA9059CBB EQ PUSH2 0x3BD JUMPI DUP1 PUSH4 0xDD62ED3E EQ PUSH2 0x3ED JUMPI DUP1 PUSH4 0xF2FDE38B EQ PUSH2 0x41D JUMPI PUSH2 0x12C JUMP JUMPDEST DUP1 PUSH4 0x70A08231 EQ PUSH2 0x2C9 JUMPI DUP1 PUSH4 0x715018A6 EQ PUSH2 0x2F9 JUMPI DUP1 PUSH4 0x79CC6790 EQ PUSH2 0x303 JUMPI DUP1 PUSH4 0x8DA5CB5B EQ PUSH2 0x333 JUMPI DUP1 PUSH4 0x8F32D59B EQ PUSH2 0x351 JUMPI PUSH2 0x12C JUMP JUMPDEST DUP1 PUSH4 0x313CE567 GT PUSH2 0xF4 JUMPI DUP1 PUSH4 0x313CE567 EQ PUSH2 0x1FD JUMPI DUP1 PUSH4 0x334B93F0 EQ PUSH2 0x21B JUMPI DUP1 PUSH4 0x39509351 EQ PUSH2 0x239 JUMPI DUP1 PUSH4 0x42966C68 EQ PUSH2 0x269 JUMPI DUP1 PUSH4 0x641A21F3 EQ PUSH2 0x299 JUMPI PUSH2 0x12C JUMP JUMPDEST DUP1 PUSH4 0x6FDDE03 EQ PUSH2 0x131 JUMPI DUP1 PUSH4 0x74742FD EQ PUSH2 0x14F JUMPI DUP1 PUSH4 0x95EA7B3 EQ PUSH2 0x17F JUMPI DUP1 PUSH4 0x18160DDD EQ PUSH2 0x1AF JUMPI DUP1 PUSH4 0x23B872DD EQ PUSH2 0x1CD JUMPI JUMPDEST PUSH1 0x0 DUP1 REVERT JUMPDEST PUSH2 0x139 PUSH2 0x439 JUMP JUMPDEST PUSH1 0x40 MLOAD PUSH2 0x146 SWAP2 SWAP1 PUSH2 0x170B JUMP JUMPDEST PUSH1 0x40 MLOAD DUP1 SWAP2 SUB SWAP1 RETURN JUMPDEST PUSH2 0x169 PUSH1 0x4 DUP1 CALLDATASIZE SUB DUP2 ADD SWAP1 PUSH2 0x164 SWAP2 SWAP1 PUSH2 0x17C6 JUMP JUMPDEST PUSH2 0x4CB JUMP JUMPDEST PUSH1 0x40 MLOAD PUSH2 0x176 SWAP2 SWAP1 PUSH2 0x1821 JUMP JUMPDEST PUSH1 0x40 MLOAD DUP1 SWAP2 SUB SWAP1 RETURN JUMPDEST PUSH2 0x199 PUSH1 0x4 DUP1 CALLDATASIZE SUB DUP2 ADD SWAP1 PUSH2 0x194 SWAP2 SWAP1 PUSH2 0x17C6 JUMP JUMPDEST PUSH2 0x64A JUMP JUMPDEST PUSH1 0x40 MLOAD PUSH2 0x1A6 SWAP2 SWAP1 PUSH2 0x1821 JUMP JUMPDEST PUSH1 0x40 MLOAD DUP1 SWAP2 SUB SWAP1 RETURN JUMPDEST PUSH2 0x1B7 PUSH2 0x66D JUMP JUMPDEST PUSH1 0x40 MLOAD PUSH2 0x1C4 SWAP2 SWAP1 PUSH2 0x184B JUMP JUMPDEST PUSH1 0x40 MLOAD DUP1 SWAP2 SUB SWAP1 RETURN JUMPDEST PUSH2 0x1E7 PUSH1 0x4 DUP1 CALLDATASIZE SUB DUP2 ADD SWAP1 PUSH2 0x1E2 SWAP2 SWAP1 PUSH2 0x1866 JUMP JUMPDEST PUSH2 0x677 JUMP JUMPDEST PUSH1 0x40 MLOAD PUSH2 0x1F4 SWAP2 SWAP1 PUSH2 0x1821 JUMP JUMPDEST PUSH1 0x40 MLOAD DUP1 SWAP2 SUB SWAP1 RETURN JUMPDEST PUSH2 0x205 PUSH2 0x6A6 JUMP JUMPDEST PUSH1 0x40 MLOAD PUSH2 0x212 SWAP2 SWAP1 PUSH2 0x18D5 JUMP JUMPDEST PUSH1 0x40 MLOAD DUP1 SWAP2 SUB SWAP1 RETURN JUMPDEST PUSH2 0x223 PUSH2 0x6AF JUMP JUMPDEST PUSH1 0x40 MLOAD PUSH2 0x230 SWAP2 SWAP1 PUSH2 0x1821 JUMP JUMPDEST PUSH1 0x40 MLOAD DUP1 SWAP2 SUB SWAP1 RETURN JUMPDEST PUSH2 0x253 PUSH1 0x4 DUP1 CALLDATASIZE SUB DUP2 ADD SWAP1 PUSH2 0x24E SWAP2 SWAP1 PUSH2 0x17C6 JUMP JUMPDEST PUSH2 0x7E9 JUMP JUMPDEST PUSH1 0x40 MLOAD PUSH2 0x260 SWAP2 SWAP1 PUSH2 0x1821 JUMP JUMPDEST PUSH1 0x40 MLOAD DUP1 SWAP2 SUB SWAP1 RETURN JUMPDEST PUSH2 0x283 PUSH1 0x4 DUP1 CALLDATASIZE SUB DUP2 ADD SWAP1 PUSH2 0x27E SWAP2 SWAP1 PUSH2 0x18F0 JUMP JUMPDEST PUSH2 0x827 JUMP JUMPDEST PUSH1 0x40 MLOAD PUSH2 0x290 SWAP2 SWAP1 PUSH2 0x1821 JUMP JUMPDEST PUSH1 0x40 MLOAD DUP1 SWAP2 SUB SWAP1 RETURN JUMPDEST PUSH2 0x2B3 PUSH1 0x4 DUP1 CALLDATASIZE SUB DUP2 ADD SWAP1 PUSH2 0x2AE SWAP2 SWAP1 PUSH2 0x17C6 JUMP JUMPDEST PUSH2 0x843 JUMP JUMPDEST PUSH1 0x40 MLOAD PUSH2 0x2C0 SWAP2 SWAP1 PUSH2 0x1821 JUMP JUMPDEST PUSH1 0x40 MLOAD DUP1 SWAP2 SUB SWAP1 RETURN JUMPDEST PUSH2 0x2E3 PUSH1 0x4 DUP1 CALLDATASIZE SUB DUP2 ADD SWAP1 PUSH2 0x2DE SWAP2 SWAP1 PUSH2 0x191D JUMP JUMPDEST PUSH2 0x9D6 JUMP JUMPDEST PUSH1 0x40 MLOAD PUSH2 0x2F0 SWAP2 SWAP1 PUSH2 0x184B JUMP JUMPDEST PUSH1 0x40 MLOAD DUP1 SWAP2 SUB SWAP1 RETURN JUMPDEST PUSH2 0x301 PUSH2 0xA1F JUMP JUMPDEST STOP JUMPDEST PUSH2 0x31D PUSH1 0x4 DUP1 CALLDATASIZE SUB DUP2 ADD SWAP1 PUSH2 0x318 SWAP2 SWAP1 PUSH2 0x17C6 JUMP JUMPDEST PUSH2 0xB24 JUMP JUMPDEST PUSH1 0x40 MLOAD PUSH2 0x32A SWAP2 SWAP1 PUSH2 0x1821 JUMP JUMPDEST PUSH1 0x40 MLOAD DUP1 SWAP2 SUB SWAP1 RETURN JUMPDEST PUSH2 0x33B PUSH2 0xB51 JUMP JUMPDEST PUSH1 0x40 MLOAD PUSH2 0x348 SWAP2 SWAP1 PUSH2 0x1959 JUMP JUMPDEST PUSH1 0x40 MLOAD DUP1 SWAP2 SUB SWAP1 RETURN JUMPDEST PUSH2 0x359 PUSH2 0xB7A JUMP JUMPDEST PUSH1 0x40 MLOAD PUSH2 0x366 SWAP2 SWAP1 PUSH2 0x1821 JUMP JUMPDEST PUSH1 0x40 MLOAD DUP1 SWAP2 SUB SWAP1 RETURN JUMPDEST PUSH2 0x377 PUSH2 0xBD1 JUMP JUMPDEST PUSH1 0x40 MLOAD PUSH2 0x384 SWAP2 SWAP1 PUSH2 0x170B JUMP JUMPDEST PUSH1 0x40 MLOAD DUP1 SWAP2 SUB SWAP1 RETURN JUMPDEST PUSH2 0x3A7 PUSH1 0x4 DUP1 CALLDATASIZE SUB DUP2 ADD SWAP1 PUSH2 0x3A2 SWAP2 SWAP1 PUSH2 0x17C6 JUMP JUMPDEST PUSH2 0xC63 JUMP JUMPDEST PUSH1 0x40 MLOAD PUSH2 0x3B4 SWAP2 SWAP1 PUSH2 0x1821 JUMP JUMPDEST PUSH1 0x40 MLOAD DUP1 SWAP2 SUB SWAP1 RETURN JUMPDEST PUSH2 0x3D7 PUSH1 0x4 DUP1 CALLDATASIZE SUB DUP2 ADD SWAP1 PUSH2 0x3D2 SWAP2 SWAP1 PUSH2 0x17C6 JUMP JUMPDEST PUSH2 0xCEA JUMP JUMPDEST PUSH1 0x40 MLOAD PUSH2 0x3E4 SWAP2 SWAP1 PUSH2 0x1821 JUMP JUMPDEST PUSH1 0x40 MLOAD DUP1 SWAP2 SUB SWAP1 RETURN JUMPDEST PUSH2 0x407 PUSH1 0x4 DUP1 CALLDATASIZE SUB DUP2 ADD SWAP1 PUSH2 0x402 SWAP2 SWAP1 PUSH2 0x1974 JUMP JUMPDEST PUSH2 0xD0D JUMP JUMPDEST PUSH1 0x40 MLOAD PUSH2 0x414 SWAP2 SWAP1 PUSH2 0x184B JUMP JUMPDEST PUSH1 0x40 MLOAD DUP1 SWAP2 SUB SWAP1 RETURN JUMPDEST PUSH2 0x437 PUSH1 0x4 DUP1 CALLDATASIZE SUB DUP2 ADD SWAP1 PUSH2 0x432 SWAP2 SWAP1 PUSH2 0x191D JUMP JUMPDEST PUSH2 0xD94 JUMP JUMPDEST STOP JUMPDEST PUSH1 0x60 PUSH1 0x4 DUP1 SLOAD PUSH2 0x448 SWAP1 PUSH2 0x19E3 JUMP JUMPDEST DUP1 PUSH1 0x1F ADD PUSH1 0x20 DUP1 SWAP2 DIV MUL PUSH1 0x20 ADD PUSH1 0x40 MLOAD SWAP1 DUP2 ADD PUSH1 0x40 MSTORE DUP1 SWAP3 SWAP2 SWAP1 DUP2 DUP2 MSTORE PUSH1 0x20 ADD DUP3 DUP1 SLOAD PUSH2 0x474 SWAP1 PUSH2 0x19E3 JUMP JUMPDEST DUP1 ISZERO PUSH2 0x4C1 JUMPI DUP1 PUSH1 0x1F LT PUSH2 0x496 JUMPI PUSH2 0x100 DUP1 DUP4 SLOAD DIV MUL DUP4 MSTORE SWAP2 PUSH1 0x20 ADD SWAP2 PUSH2 0x4C1 JUMP JUMPDEST DUP3 ADD SWAP2 SWAP1 PUSH1 0x0 MSTORE PUSH1 0x20 PUSH1 0x0 KECCAK256 SWAP1 JUMPDEST DUP2 SLOAD DUP2 MSTORE SWAP1 PUSH1 0x1 ADD SWAP1 PUSH1 0x20 ADD DUP1 DUP4 GT PUSH2 0x4A4 JUMPI DUP3 SWAP1 SUB PUSH1 0x1F AND DUP3 ADD SWAP2 JUMPDEST POP POP POP POP POP SWAP1 POP SWAP1 JUMP JUMPDEST PUSH1 0x0 DUP1 PUSH1 0x6 PUSH1 0x0 SWAP1 SLOAD SWAP1 PUSH2 0x100 EXP SWAP1 DIV PUSH20 0xFFFFFFFFFFFFFFFFFFFFFFFFFFFFFFFFFFFFFFFF AND SWAP1 POP PUSH2 0x4FC DUP4 PUSH2 0xDE7 JUMP JUMPDEST PUSH2 0x506 DUP5 DUP5 PUSH2 0xE43 JUMP JUMPDEST DUP3 DUP2 PUSH20 0xFFFFFFFFFFFFFFFFFFFFFFFFFFFFFFFFFFFFFFFF AND PUSH4 0xDD62ED3E PUSH2 0x52B PUSH2 0xEC2 JUMP JUMPDEST ADDRESS PUSH1 0x40 MLOAD DUP4 PUSH4 0xFFFFFFFF AND PUSH1 0xE0 SHL DUP2 MSTORE PUSH1 0x4 ADD PUSH2 0x549 SWAP3 SWAP2 SWAP1 PUSH2 0x1A14 JUMP JUMPDEST PUSH1 0x20 PUSH1 0x40 MLOAD DUP1 DUP4 SUB DUP2 DUP7 GAS STATICCALL ISZERO DUP1 ISZERO PUSH2 0x566 JUMPI RETURNDATASIZE PUSH1 0x0 DUP1 RETURNDATACOPY RETURNDATASIZE PUSH1 0x0 REVERT JUMPDEST POP POP POP POP PUSH1 0x40 MLOAD RETURNDATASIZE PUSH1 0x1F NOT PUSH1 0x1F DUP3 ADD AND DUP3 ADD DUP1 PUSH1 0x40 MSTORE POP DUP2 ADD SWAP1 PUSH2 0x58A SWAP2 SWAP1 PUSH2 0x1A52 JUMP JUMPDEST LT ISZERO PUSH2 0x5CB JUMPI PUSH1 0x40 MLOAD PUSH32 0x8C379A000000000000000000000000000000000000000000000000000000000 DUP2 MSTORE PUSH1 0x4 ADD PUSH2 0x5C2 SWAP1 PUSH2 0x1ACB JUMP JUMPDEST PUSH1 0x40 MLOAD DUP1 SWAP2 SUB SWAP1 REVERT JUMPDEST DUP1 PUSH20 0xFFFFFFFFFFFFFFFFFFFFFFFFFFFFFFFFFFFFFFFF AND PUSH4 0x79CC6790 PUSH2 0x5EF PUSH2 0xEC2 JUMP JUMPDEST DUP6 PUSH1 0x40 MLOAD DUP4 PUSH4 0xFFFFFFFF AND PUSH1 0xE0 SHL DUP2 MSTORE PUSH1 0x4 ADD PUSH2 0x60D SWAP3 SWAP2 SWAP1 PUSH2 0x1AEB JUMP JUMPDEST PUSH1 0x0 PUSH1 0x40 MLOAD DUP1 DUP4 SUB DUP2 PUSH1 0x0 DUP8 DUP1 EXTCODESIZE ISZERO DUP1 ISZERO PUSH2 0x627 JUMPI PUSH1 0x0 DUP1 REVERT JUMPDEST POP GAS CALL ISZERO DUP1 ISZERO PUSH2 0x63B JUMPI RETURNDATASIZE PUSH1 0x0 DUP1 RETURNDATACOPY RETURNDATASIZE PUSH1 0x0 REVERT JUMPDEST POP POP POP POP PUSH1 0x1 SWAP2 POP POP SWAP3 SWAP2 POP POP JUMP JUMPDEST PUSH1 0x0 DUP1 PUSH2 0x655 PUSH2 0xEC2 JUMP JUMPDEST SWAP1 POP PUSH2 0x662 DUP2 DUP6 DUP6 PUSH2 0xECA JUMP JUMPDEST PUSH1 0x1 SWAP2 POP POP SWAP3 SWAP2 POP POP JUMP JUMPDEST PUSH1 0x0 PUSH1 0x3 SLOAD SWAP1 POP SWAP1 JUMP JUMPDEST PUSH1 0x0 DUP1 PUSH2 0x682 PUSH2 0xEC2 JUMP JUMPDEST SWAP1 POP PUSH2 0x68F DUP6 DUP3 DUP6 PUSH2 0x1093 JUMP JUMPDEST PUSH2 0x69A DUP6 DUP6 DUP6 PUSH2 0x112F JUMP JUMPDEST PUSH1 0x1 SWAP2 POP POP SWAP4 SWAP3 POP POP POP JUMP JUMPDEST PUSH1 0x0 PUSH1 0x12 SWAP1 POP SWAP1 JUMP JUMPDEST PUSH1 0x0 PUSH1 0x7 PUSH1 0x0 SWAP1 SLOAD SWAP1 PUSH2 0x100 EXP SWAP1 DIV PUSH20 0xFFFFFFFFFFFFFFFFFFFFFFFFFFFFFFFFFFFFFFFF AND PUSH20 0xFFFFFFFFFFFFFFFFFFFFFFFFFFFFFFFFFFFFFFFF AND PUSH2 0x6F2 PUSH2 0xEC2 JUMP JUMPDEST PUSH20 0xFFFFFFFFFFFFFFFFFFFFFFFFFFFFFFFFFFFFFFFF AND EQ PUSH2 0x748 JUMPI PUSH1 0x40 MLOAD PUSH32 0x8C379A000000000000000000000000000000000000000000000000000000000 DUP2 MSTORE PUSH1 0x4 ADD PUSH2 0x73F SWAP1 PUSH2 0x1B60 JUMP JUMPDEST PUSH1 0x40 MLOAD DUP1 SWAP2 SUB SWAP1 REVERT JUMPDEST PUSH1 0x9 SLOAD TIMESTAMP LT ISZERO PUSH2 0x78D JUMPI PUSH1 0x40 MLOAD PUSH32 0x8C379A000000000000000000000000000000000000000000000000000000000 DUP2 MSTORE PUSH1 0x4 ADD PUSH2 0x784 SWAP1 PUSH2 0x1BCC JUMP JUMPDEST PUSH1 0x40 MLOAD DUP1 SWAP2 SUB SWAP1 REVERT JUMPDEST PUSH2 0x7A3 PUSH3 0x15180 TIMESTAMP PUSH2 0x121D SWAP1 SWAP2 SWAP1 PUSH4 0xFFFFFFFF AND JUMP JUMPDEST PUSH1 0x9 DUP2 SWAP1 SSTORE POP PUSH2 0x7B4 PUSH1 0xA SLOAD PUSH2 0xDE7 JUMP JUMPDEST PUSH2 0x7E2 PUSH1 0x7 PUSH1 0x0 SWAP1 SLOAD SWAP1 PUSH2 0x100 EXP SWAP1 DIV PUSH20 0xFFFFFFFFFFFFFFFFFFFFFFFFFFFFFFFFFFFFFFFF AND PUSH1 0xA SLOAD PUSH2 0xE43 JUMP JUMPDEST PUSH1 0x1 SWAP1 POP SWAP1 JUMP JUMPDEST PUSH1 0x0 DUP1 PUSH2 0x7F4 PUSH2 0xEC2 JUMP JUMPDEST SWAP1 POP PUSH2 0x81C DUP2 DUP6 PUSH2 0x817 DUP7 PUSH2 0x809 DUP7 DUP11 PUSH2 0xD0D JUMP JUMPDEST PUSH2 0x121D SWAP1 SWAP2 SWAP1 PUSH4 0xFFFFFFFF AND JUMP JUMPDEST PUSH2 0xECA JUMP JUMPDEST PUSH1 0x1 SWAP2 POP POP SWAP3 SWAP2 POP POP JUMP JUMPDEST PUSH1 0x0 PUSH2 0x83A PUSH2 0x834 PUSH2 0xEC2 JUMP JUMPDEST DUP4 PUSH2 0x1233 JUMP JUMPDEST PUSH1 0x1 SWAP1 POP SWAP2 SWAP1 POP JUMP JUMPDEST PUSH1 0x0 DUP1 PUSH1 0x6 PUSH1 0x0 SWAP1 SLOAD SWAP1 PUSH2 0x100 EXP SWAP1 DIV PUSH20 0xFFFFFFFFFFFFFFFFFFFFFFFFFFFFFFFFFFFFFFFF AND SWAP1 POP PUSH2 0x874 DUP4 PUSH2 0xDE7 JUMP JUMPDEST PUSH2 0x87E DUP5 DUP5 PUSH2 0xE43 JUMP JUMPDEST DUP3 DUP2 PUSH20 0xFFFFFFFFFFFFFFFFFFFFFFFFFFFFFFFFFFFFFFFF AND PUSH4 0xDD62ED3E PUSH2 0x8A3 PUSH2 0xEC2 JUMP JUMPDEST ADDRESS PUSH1 0x40 MLOAD DUP4 PUSH4 0xFFFFFFFF AND PUSH1 0xE0 SHL DUP2 MSTORE PUSH1 0x4 ADD PUSH2 0x8C1 SWAP3 SWAP2 SWAP1 PUSH2 0x1A14 JUMP JUMPDEST PUSH1 0x20 PUSH1 0x40 MLOAD DUP1 DUP4 SUB DUP2 DUP7 GAS STATICCALL ISZERO DUP1 ISZERO PUSH2 0x8DE JUMPI RETURNDATASIZE PUSH1 0x0 DUP1 RETURNDATACOPY RETURNDATASIZE PUSH1 0x0 REVERT JUMPDEST POP POP POP POP PUSH1 0x40 MLOAD RETURNDATASIZE PUSH1 0x1F NOT PUSH1 0x1F DUP3 ADD AND DUP3 ADD DUP1 PUSH1 0x40 MSTORE POP DUP2 ADD SWAP1 PUSH2 0x902 SWAP2 SWAP1 PUSH2 0x1A52 JUMP JUMPDEST LT ISZERO PUSH2 0x943 JUMPI PUSH1 0x40 MLOAD PUSH32 0x8C379A000000000000000000000000000000000000000000000000000000000 DUP2 MSTORE PUSH1 0x4 ADD PUSH2 0x93A SWAP1 PUSH2 0x1ACB JUMP JUMPDEST PUSH1 0x40 MLOAD DUP1 SWAP2 SUB SWAP1 REVERT JUMPDEST DUP1 PUSH20 0xFFFFFFFFFFFFFFFFFFFFFFFFFFFFFFFFFFFFFFFF AND PUSH4 0x23B872DD PUSH2 0x967 PUSH2 0xEC2 JUMP JUMPDEST ADDRESS DUP7 PUSH1 0x40 MLOAD DUP5 PUSH4 0xFFFFFFFF AND PUSH1 0xE0 SHL DUP2 MSTORE PUSH1 0x4 ADD PUSH2 0x987 SWAP4 SWAP3 SWAP2 SWAP1 PUSH2 0x1BEC JUMP JUMPDEST PUSH1 0x20 PUSH1 0x40 MLOAD DUP1 DUP4 SUB DUP2 PUSH1 0x0 DUP8 GAS CALL ISZERO DUP1 ISZERO PUSH2 0x9A6 JUMPI RETURNDATASIZE PUSH1 0x0 DUP1 RETURNDATACOPY RETURNDATASIZE PUSH1 0x0 REVERT JUMPDEST POP POP POP POP PUSH1 0x40 MLOAD RETURNDATASIZE PUSH1 0x1F NOT PUSH1 0x1F DUP3 ADD AND DUP3 ADD DUP1 PUSH1 0x40 MSTORE POP DUP2 ADD SWAP1 PUSH2 0x9CA SWAP2 SWAP1 PUSH2 0x1C4F JUMP JUMPDEST POP PUSH1 0x1 SWAP2 POP POP SWAP3 SWAP2 POP POP JUMP JUMPDEST PUSH1 0x0 PUSH1 0x1 PUSH1 0x0 DUP4 PUSH20 0xFFFFFFFFFFFFFFFFFFFFFFFFFFFFFFFFFFFFFFFF AND PUSH20 0xFFFFFFFFFFFFFFFFFFFFFFFFFFFFFFFFFFFFFFFF AND DUP2 MSTORE PUSH1 0x20 ADD SWAP1 DUP2 MSTORE PUSH1 0x20 ADD PUSH1 0x0 KECCAK256 SLOAD SWAP1 POP SWAP2 SWAP1 POP JUMP JUMPDEST PUSH2 0xA27 PUSH2 0xB7A JUMP JUMPDEST PUSH2 0xA66 JUMPI PUSH1 0x40 MLOAD PUSH32 0x8C379A000000000000000000000000000000000000000000000000000000000 DUP2 MSTORE PUSH1 0x4 ADD PUSH2 0xA5D SWAP1 PUSH2 0x1CC8 JUMP JUMPDEST PUSH1 0x40 MLOAD DUP1 SWAP2 SUB SWAP1 REVERT JUMPDEST PUSH1 0x0 PUSH20 0xFFFFFFFFFFFFFFFFFFFFFFFFFFFFFFFFFFFFFFFF AND PUSH1 0x0 DUP1 SLOAD SWAP1 PUSH2 0x100 EXP SWAP1 DIV PUSH20 0xFFFFFFFFFFFFFFFFFFFFFFFFFFFFFFFFFFFFFFFF AND PUSH20 0xFFFFFFFFFFFFFFFFFFFFFFFFFFFFFFFFFFFFFFFF AND PUSH32 0x8BE0079C531659141344CD1FD0A4F28419497F9722A3DAAFE3B4186F6B6457E0 PUSH1 0x40 MLOAD PUSH1 0x40 MLOAD DUP1 SWAP2 SUB SWAP1 LOG3 PUSH1 0x0 DUP1 PUSH1 0x0 PUSH2 0x100 EXP DUP2 SLOAD DUP2 PUSH20 0xFFFFFFFFFFFFFFFFFFFFFFFFFFFFFFFFFFFFFFFF MUL NOT AND SWAP1 DUP4 PUSH20 0xFFFFFFFFFFFFFFFFFFFFFFFFFFFFFFFFFFFFFFFF AND MUL OR SWAP1 SSTORE POP JUMP JUMPDEST PUSH1 0x0 DUP1 PUSH2 0xB2F PUSH2 0xEC2 JUMP JUMPDEST SWAP1 POP PUSH2 0xB3B DUP5 DUP5 PUSH2 0x1233 JUMP JUMPDEST PUSH2 0xB46 DUP5 DUP3 DUP6 PUSH2 0x1093 JUMP JUMPDEST PUSH1 0x1 SWAP2 POP POP SWAP3 SWAP2 POP POP JUMP JUMPDEST PUSH1 0x0 DUP1 PUSH1 0x0 SWAP1 SLOAD SWAP1 PUSH2 0x100 EXP SWAP1 DIV PUSH20 0xFFFFFFFFFFFFFFFFFFFFFFFFFFFFFFFFFFFFFFFF AND SWAP1 POP SWAP1 JUMP JUMPDEST PUSH1 0x0 DUP1 PUSH1 0x0 SWAP1 SLOAD SWAP1 PUSH2 0x100 EXP SWAP1 DIV PUSH20 0xFFFFFFFFFFFFFFFFFFFFFFFFFFFFFFFFFFFFFFFF AND PUSH20 0xFFFFFFFFFFFFFFFFFFFFFFFFFFFFFFFFFFFFFFFF AND CALLER PUSH20 0xFFFFFFFFFFFFFFFFFFFFFFFFFFFFFFFFFFFFFFFF AND EQ SWAP1 POP SWAP1 JUMP JUMPDEST PUSH1 0x60 PUSH1 0x5 DUP1 SLOAD PUSH2 0xBE0 SWAP1 PUSH2 0x19E3 JUMP JUMPDEST DUP1 PUSH1 0x1F ADD PUSH1 0x20 DUP1 SWAP2 DIV MUL PUSH1 0x20 ADD PUSH1 0x40 MLOAD SWAP1 DUP2 ADD PUSH1 0x40 MSTORE DUP1 SWAP3 SWAP2 SWAP1 DUP2 DUP2 MSTORE PUSH1 0x20 ADD DUP3 DUP1 SLOAD PUSH2 0xC0C SWAP1 PUSH2 0x19E3 JUMP JUMPDEST DUP1 ISZERO PUSH2 0xC59 JUMPI DUP1 PUSH1 0x1F LT PUSH2 0xC2E JUMPI PUSH2 0x100 DUP1 DUP4 SLOAD DIV MUL DUP4 MSTORE SWAP2 PUSH1 0x20 ADD SWAP2 PUSH2 0xC59 JUMP JUMPDEST DUP3 ADD SWAP2 SWAP1 PUSH1 0x0 MSTORE PUSH1 0x20 PUSH1 0x0 KECCAK256 SWAP1 JUMPDEST DUP2 SLOAD DUP2 MSTORE SWAP1 PUSH1 0x1 ADD SWAP1 PUSH1 0x20 ADD DUP1 DUP4 GT PUSH2 0xC3C JUMPI DUP3 SWAP1 SUB PUSH1 0x1F AND DUP3 ADD SWAP2 JUMPDEST POP POP POP POP POP SWAP1 POP SWAP1 JUMP JUMPDEST PUSH1 0x0 DUP1 PUSH2 0xC6E PUSH2 0xEC2 JUMP JUMPDEST SWAP1 POP PUSH1 0x0 PUSH2 0xC7C DUP3 DUP7 PUSH2 0xD0D JUMP JUMPDEST SWAP1 POP DUP4 DUP2 LT ISZERO PUSH2 0xCC1 JUMPI PUSH1 0x40 MLOAD PUSH32 0x8C379A000000000000000000000000000000000000000000000000000000000 DUP2 MSTORE PUSH1 0x4 ADD PUSH2 0xCB8 SWAP1 PUSH2 0x1D5A JUMP JUMPDEST PUSH1 0x40 MLOAD DUP1 SWAP2 SUB SWAP1 REVERT JUMPDEST PUSH2 0xCDE DUP3 DUP7 PUSH2 0xCD9 DUP8 DUP6 PUSH2 0x12B2 SWAP1 SWAP2 SWAP1 PUSH4 0xFFFFFFFF AND JUMP JUMPDEST PUSH2 0xECA JUMP JUMPDEST PUSH1 0x1 SWAP3 POP POP POP SWAP3 SWAP2 POP POP JUMP JUMPDEST PUSH1 0x0 DUP1 PUSH2 0xCF5 PUSH2 0xEC2 JUMP JUMPDEST SWAP1 POP PUSH2 0xD02 DUP2 DUP6 DUP6 PUSH2 0x112F JUMP JUMPDEST PUSH1 0x1 SWAP2 POP POP SWAP3 SWAP2 POP POP JUMP JUMPDEST PUSH1 0x0 PUSH1 0x2 PUSH1 0x0 DUP5 PUSH20 0xFFFFFFFFFFFFFFFFFFFFFFFFFFFFFFFFFFFFFFFF AND PUSH20 0xFFFFFFFFFFFFFFFFFFFFFFFFFFFFFFFFFFFFFFFF AND DUP2 MSTORE PUSH1 0x20 ADD SWAP1 DUP2 MSTORE PUSH1 0x20 ADD PUSH1 0x0 KECCAK256 PUSH1 0x0 DUP4 PUSH20 0xFFFFFFFFFFFFFFFFFFFFFFFFFFFFFFFFFFFFFFFF AND PUSH20 0xFFFFFFFFFFFFFFFFFFFFFFFFFFFFFFFFFFFFFFFF AND DUP2 MSTORE PUSH1 0x20 ADD SWAP1 DUP2 MSTORE PUSH1 0x20 ADD PUSH1 0x0 KECCAK256 SLOAD SWAP1 POP SWAP3 SWAP2 POP POP JUMP JUMPDEST PUSH2 0xD9C PUSH2 0xB7A JUMP JUMPDEST PUSH2 0xDDB JUMPI PUSH1 0x40 MLOAD PUSH32 0x8C379A000000000000000000000000000000000000000000000000000000000 DUP2 MSTORE PUSH1 0x4 ADD PUSH2 0xDD2 SWAP1 PUSH2 0x1CC8 JUMP JUMPDEST PUSH1 0x40 MLOAD DUP1 SWAP2 SUB SWAP1 REVERT JUMPDEST PUSH2 0xDE4 DUP2 PUSH2 0x12C8 JUMP JUMPDEST POP JUMP JUMPDEST PUSH2 0xDFC DUP2 PUSH1 0x3 SLOAD PUSH2 0x121D SWAP1 SWAP2 SWAP1 PUSH4 0xFFFFFFFF AND JUMP JUMPDEST PUSH1 0x8 SLOAD LT ISZERO PUSH2 0xE40 JUMPI PUSH1 0x40 MLOAD PUSH32 0x8C379A000000000000000000000000000000000000000000000000000000000 DUP2 MSTORE PUSH1 0x4 ADD PUSH2 0xE37 SWAP1 PUSH2 0x1DC6 JUMP JUMPDEST PUSH1 0x40 MLOAD DUP1 SWAP2 SUB SWAP1 REVERT JUMPDEST POP JUMP JUMPDEST PUSH1 0x0 PUSH20 0xFFFFFFFFFFFFFFFFFFFFFFFFFFFFFFFFFFFFFFFF AND DUP3 PUSH20 0xFFFFFFFFFFFFFFFFFFFFFFFFFFFFFFFFFFFFFFFF AND SUB PUSH2 0xEB2 JUMPI PUSH1 0x40 MLOAD PUSH32 0x8C379A000000000000000000000000000000000000000000000000000000000 DUP2 MSTORE PUSH1 0x4 ADD PUSH2 0xEA9 SWAP1 PUSH2 0x1E32 JUMP JUMPDEST PUSH1 0x40 MLOAD DUP1 SWAP2 SUB SWAP1 REVERT JUMPDEST PUSH2 0xEBE PUSH1 0x0 DUP4 DUP4 PUSH2 0x13F4 JUMP JUMPDEST POP POP JUMP JUMPDEST PUSH1 0x0 CALLER SWAP1 POP SWAP1 JUMP JUMPDEST PUSH1 0x0 PUSH20 0xFFFFFFFFFFFFFFFFFFFFFFFFFFFFFFFFFFFFFFFF AND DUP4 PUSH20 0xFFFFFFFFFFFFFFFFFFFFFFFFFFFFFFFFFFFFFFFF AND SUB PUSH2 0xF39 JUMPI PUSH1 0x40 MLOAD PUSH32 0x8C379A000000000000000000000000000000000000000000000000000000000 DUP2 MSTORE PUSH1 0x4 ADD PUSH2 0xF30 SWAP1 PUSH2 0x1EC4 JUMP JUMPDEST PUSH1 0x40 MLOAD DUP1 SWAP2 SUB SWAP1 REVERT JUMPDEST PUSH1 0x0 PUSH20 0xFFFFFFFFFFFFFFFFFFFFFFFFFFFFFFFFFFFFFFFF AND DUP3 PUSH20 0xFFFFFFFFFFFFFFFFFFFFFFFFFFFFFFFFFFFFFFFF AND SUB PUSH2 0xFA8 JUMPI PUSH1 0x40 MLOAD PUSH32 0x8C379A000000000000000000000000000000000000000000000000000000000 DUP2 MSTORE PUSH1 0x4 ADD PUSH2 0xF9F SWAP1 PUSH2 0x1F56 JUMP JUMPDEST PUSH1 0x40 MLOAD DUP1 SWAP2 SUB SWAP1 REVERT JUMPDEST DUP1 PUSH1 0x2 PUSH1 0x0 DUP6 PUSH20 0xFFFFFFFFFFFFFFFFFFFFFFFFFFFFFFFFFFFFFFFF AND PUSH20 0xFFFFFFFFFFFFFFFFFFFFFFFFFFFFFFFFFFFFFFFF AND DUP2 MSTORE PUSH1 0x20 ADD SWAP1 DUP2 MSTORE PUSH1 0x20 ADD PUSH1 0x0 KECCAK256 PUSH1 0x0 DUP5 PUSH20 0xFFFFFFFFFFFFFFFFFFFFFFFFFFFFFFFFFFFFFFFF AND PUSH20 0xFFFFFFFFFFFFFFFFFFFFFFFFFFFFFFFFFFFFFFFF AND DUP2 MSTORE PUSH1 0x20 ADD SWAP1 DUP2 MSTORE PUSH1 0x20 ADD PUSH1 0x0 KECCAK256 DUP2 SWAP1 SSTORE POP DUP2 PUSH20 0xFFFFFFFFFFFFFFFFFFFFFFFFFFFFFFFFFFFFFFFF AND DUP4 PUSH20 0xFFFFFFFFFFFFFFFFFFFFFFFFFFFFFFFFFFFFFFFF AND PUSH32 0x8C5BE1E5EBEC7D5BD14F71427D1E84F3DD0314C0F7B2291E5B200AC8C7C3B925 DUP4 PUSH1 0x40 MLOAD PUSH2 0x1086 SWAP2 SWAP1 PUSH2 0x184B JUMP JUMPDEST PUSH1 0x40 MLOAD DUP1 SWAP2 SUB SWAP1 LOG3 POP POP POP JUMP JUMPDEST PUSH1 0x0 PUSH2 0x109F DUP5 DUP5 PUSH2 0xD0D JUMP JUMPDEST SWAP1 POP PUSH32 0xFFFFFFFFFFFFFFFFFFFFFFFFFFFFFFFFFFFFFFFFFFFFFFFFFFFFFFFFFFFFFFFF DUP2 EQ PUSH2 0x1129 JUMPI DUP2 DUP2 LT ISZERO PUSH2 0x110B JUMPI PUSH1 0x40 MLOAD PUSH32 0x8C379A000000000000000000000000000000000000000000000000000000000 DUP2 MSTORE PUSH1 0x4 ADD PUSH2 0x1102 SWAP1 PUSH2 0x1FC2 JUMP JUMPDEST PUSH1 0x40 MLOAD DUP1 SWAP2 SUB SWAP1 REVERT JUMPDEST PUSH2 0x1128 DUP5 DUP5 PUSH2 0x1123 DUP6 DUP6 PUSH2 0x12B2 SWAP1 SWAP2 SWAP1 PUSH4 0xFFFFFFFF AND JUMP JUMPDEST PUSH2 0xECA JUMP JUMPDEST JUMPDEST POP POP POP POP JUMP JUMPDEST PUSH1 0x0 PUSH20 0xFFFFFFFFFFFFFFFFFFFFFFFFFFFFFFFFFFFFFFFF AND DUP4 PUSH20 0xFFFFFFFFFFFFFFFFFFFFFFFFFFFFFFFFFFFFFFFF AND SUB PUSH2 0x119E JUMPI PUSH1 0x40 MLOAD PUSH32 0x8C379A000000000000000000000000000000000000000000000000000000000 DUP2 MSTORE PUSH1 0x4 ADD PUSH2 0x1195 SWAP1 PUSH2 0x2054 JUMP JUMPDEST PUSH1 0x40 MLOAD DUP1 SWAP2 SUB SWAP1 REVERT JUMPDEST PUSH1 0x0 PUSH20 0xFFFFFFFFFFFFFFFFFFFFFFFFFFFFFFFFFFFFFFFF AND DUP3 PUSH20 0xFFFFFFFFFFFFFFFFFFFFFFFFFFFFFFFFFFFFFFFF AND SUB PUSH2 0x120D JUMPI PUSH1 0x40 MLOAD PUSH32 0x8C379A000000000000000000000000000000000000000000000000000000000 DUP2 MSTORE PUSH1 0x4 ADD PUSH2 0x1204 SWAP1 PUSH2 0x20E6 JUMP JUMPDEST PUSH1 0x40 MLOAD DUP1 SWAP2 SUB SWAP1 REVERT JUMPDEST PUSH2 0x1218 DUP4 DUP4 DUP4 PUSH2 0x13F4 JUMP JUMPDEST POP POP POP JUMP JUMPDEST PUSH1 0x0 DUP2 DUP4 PUSH2 0x122B SWAP2 SWAP1 PUSH2 0x2135 JUMP JUMPDEST SWAP1 POP SWAP3 SWAP2 POP POP JUMP JUMPDEST PUSH1 0x0 PUSH20 0xFFFFFFFFFFFFFFFFFFFFFFFFFFFFFFFFFFFFFFFF AND DUP3 PUSH20 0xFFFFFFFFFFFFFFFFFFFFFFFFFFFFFFFFFFFFFFFF AND SUB PUSH2 0x12A2 JUMPI PUSH1 0x40 MLOAD PUSH32 0x8C379A000000000000000000000000000000000000000000000000000000000 DUP2 MSTORE PUSH1 0x4 ADD PUSH2 0x1299 SWAP1 PUSH2 0x21DB JUMP JUMPDEST PUSH1 0x40 MLOAD DUP1 SWAP2 SUB SWAP1 REVERT JUMPDEST PUSH2 0x12AE DUP3 PUSH1 0x0 DUP4 PUSH2 0x13F4 JUMP JUMPDEST POP POP JUMP JUMPDEST PUSH1 0x0 DUP2 DUP4 PUSH2 0x12C0 SWAP2 SWAP1 PUSH2 0x21FB JUMP JUMPDEST SWAP1 POP SWAP3 SWAP2 POP POP JUMP JUMPDEST PUSH1 0x0 PUSH20 0xFFFFFFFFFFFFFFFFFFFFFFFFFFFFFFFFFFFFFFFF AND DUP2 PUSH20 0xFFFFFFFFFFFFFFFFFFFFFFFFFFFFFFFFFFFFFFFF AND SUB PUSH2 0x1337 JUMPI PUSH1 0x40 MLOAD PUSH32 0x8C379A000000000000000000000000000000000000000000000000000000000 DUP2 MSTORE PUSH1 0x4 ADD PUSH2 0x132E SWAP1 PUSH2 0x22A1 JUMP JUMPDEST PUSH1 0x40 MLOAD DUP1 SWAP2 SUB SWAP1 REVERT JUMPDEST DUP1 PUSH20 0xFFFFFFFFFFFFFFFFFFFFFFFFFFFFFFFFFFFFFFFF AND PUSH1 0x0 DUP1 SLOAD SWAP1 PUSH2 0x100 EXP SWAP1 DIV PUSH20 0xFFFFFFFFFFFFFFFFFFFFFFFFFFFFFFFFFFFFFFFF AND PUSH20 0xFFFFFFFFFFFFFFFFFFFFFFFFFFFFFFFFFFFFFFFF AND PUSH32 0x8BE0079C531659141344CD1FD0A4F28419497F9722A3DAAFE3B4186F6B6457E0 PUSH1 0x40 MLOAD PUSH1 0x40 MLOAD DUP1 SWAP2 SUB SWAP1 LOG3 DUP1 PUSH1 0x0 DUP1 PUSH2 0x100 EXP DUP2 SLOAD DUP2 PUSH20 0xFFFFFFFFFFFFFFFFFFFFFFFFFFFFFFFFFFFFFFFF MUL NOT AND SWAP1 DUP4 PUSH20 0xFFFFFFFFFFFFFFFFFFFFFFFFFFFFFFFFFFFFFFFF AND MUL OR SWAP1 SSTORE POP POP JUMP JUMPDEST PUSH1 0x0 PUSH20 0xFFFFFFFFFFFFFFFFFFFFFFFFFFFFFFFFFFFFFFFF AND DUP4 PUSH20 0xFFFFFFFFFFFFFFFFFFFFFFFFFFFFFFFFFFFFFFFF AND SUB PUSH2 0x1448 JUMPI PUSH2 0x143D DUP2 PUSH1 0x3 SLOAD PUSH2 0x121D SWAP1 SWAP2 SWAP1 PUSH4 0xFFFFFFFF AND JUMP JUMPDEST PUSH1 0x3 DUP2 SWAP1 SSTORE POP PUSH2 0x1527 JUMP JUMPDEST PUSH1 0x0 PUSH1 0x1 PUSH1 0x0 DUP6 PUSH20 0xFFFFFFFFFFFFFFFFFFFFFFFFFFFFFFFFFFFFFFFF AND PUSH20 0xFFFFFFFFFFFFFFFFFFFFFFFFFFFFFFFFFFFFFFFF AND DUP2 MSTORE PUSH1 0x20 ADD SWAP1 DUP2 MSTORE PUSH1 0x20 ADD PUSH1 0x0 KECCAK256 SLOAD SWAP1 POP DUP2 DUP2 LT ISZERO PUSH2 0x14CF JUMPI PUSH1 0x40 MLOAD PUSH32 0x8C379A000000000000000000000000000000000000000000000000000000000 DUP2 MSTORE PUSH1 0x4 ADD PUSH2 0x14C6 SWAP1 PUSH2 0x2333 JUMP JUMPDEST PUSH1 0x40 MLOAD DUP1 SWAP2 SUB SWAP1 REVERT JUMPDEST PUSH2 0x14E2 DUP3 DUP3 PUSH2 0x12B2 SWAP1 SWAP2 SWAP1 PUSH4 0xFFFFFFFF AND JUMP JUMPDEST PUSH1 0x1 PUSH1 0x0 DUP7 PUSH20 0xFFFFFFFFFFFFFFFFFFFFFFFFFFFFFFFFFFFFFFFF AND PUSH20 0xFFFFFFFFFFFFFFFFFFFFFFFFFFFFFFFFFFFFFFFF AND DUP2 MSTORE PUSH1 0x20 ADD SWAP1 DUP2 MSTORE PUSH1 0x20 ADD PUSH1 0x0 KECCAK256 DUP2 SWAP1 SSTORE POP POP JUMPDEST PUSH1 0x0 PUSH20 0xFFFFFFFFFFFFFFFFFFFFFFFFFFFFFFFFFFFFFFFF AND DUP3 PUSH20 0xFFFFFFFFFFFFFFFFFFFFFFFFFFFFFFFFFFFFFFFF AND SUB PUSH2 0x157B JUMPI PUSH2 0x1570 DUP2 PUSH1 0x3 SLOAD PUSH2 0x12B2 SWAP1 SWAP2 SWAP1 PUSH4 0xFFFFFFFF AND JUMP JUMPDEST PUSH1 0x3 DUP2 SWAP1 SSTORE POP PUSH2 0x1611 JUMP JUMPDEST PUSH2 0x15CD DUP2 PUSH1 0x1 PUSH1 0x0 DUP6 PUSH20 0xFFFFFFFFFFFFFFFFFFFFFFFFFFFFFFFFFFFFFFFF AND PUSH20 0xFFFFFFFFFFFFFFFFFFFFFFFFFFFFFFFFFFFFFFFF AND DUP2 MSTORE PUSH1 0x20 ADD SWAP1 DUP2 MSTORE PUSH1 0x20 ADD PUSH1 0x0 KECCAK256 SLOAD PUSH2 0x121D SWAP1 SWAP2 SWAP1 PUSH4 0xFFFFFFFF AND JUMP JUMPDEST PUSH1 0x1 PUSH1 0x0 DUP5 PUSH20 0xFFFFFFFFFFFFFFFFFFFFFFFFFFFFFFFFFFFFFFFF AND PUSH20 0xFFFFFFFFFFFFFFFFFFFFFFFFFFFFFFFFFFFFFFFF AND DUP2 MSTORE PUSH1 0x20 ADD SWAP1 DUP2 MSTORE PUSH1 0x20 ADD PUSH1 0x0 KECCAK256 DUP2 SWAP1 SSTORE POP JUMPDEST DUP2 PUSH20 0xFFFFFFFFFFFFFFFFFFFFFFFFFFFFFFFFFFFFFFFF AND DUP4 PUSH20 0xFFFFFFFFFFFFFFFFFFFFFFFFFFFFFFFFFFFFFFFF AND PUSH32 0xDDF252AD1BE2C89B69C2B068FC378DAA952BA7F163C4A11628F55A4DF523B3EF DUP4 PUSH1 0x40 MLOAD PUSH2 0x166E SWAP2 SWAP1 PUSH2 0x184B JUMP JUMPDEST PUSH1 0x40 MLOAD DUP1 SWAP2 SUB SWAP1 LOG3 POP POP POP JUMP JUMPDEST PUSH1 0x0 DUP2 MLOAD SWAP1 POP SWAP2 SWAP1 POP JUMP JUMPDEST PUSH1 0x0 DUP3 DUP3 MSTORE PUSH1 0x20 DUP3 ADD SWAP1 POP SWAP3 SWAP2 POP POP JUMP JUMPDEST PUSH1 0x0 JUMPDEST DUP4 DUP2 LT ISZERO PUSH2 0x16B5 JUMPI DUP1 DUP3 ADD MLOAD DUP2 DUP5 ADD MSTORE PUSH1 0x20 DUP2 ADD SWAP1 POP PUSH2 0x169A JUMP JUMPDEST PUSH1 0x0 DUP5 DUP5 ADD MSTORE POP POP POP POP JUMP JUMPDEST PUSH1 0x0 PUSH1 0x1F NOT PUSH1 0x1F DUP4 ADD AND SWAP1 POP SWAP2 SWAP1 POP JUMP JUMPDEST PUSH1 0x0 PUSH2 0x16DD DUP3 PUSH2 0x167B JUMP JUMPDEST PUSH2 0x16E7 DUP2 DUP6 PUSH2 0x1686 JUMP JUMPDEST SWAP4 POP PUSH2 0x16F7 DUP2 DUP6 PUSH1 0x20 DUP7 ADD PUSH2 0x1697 JUMP JUMPDEST PUSH2 0x1700 DUP2 PUSH2 0x16C1 JUMP JUMPDEST DUP5 ADD SWAP2 POP POP SWAP3 SWAP2 POP POP JUMP JUMPDEST PUSH1 0x0 PUSH1 0x20 DUP3 ADD SWAP1 POP DUP2 DUP2 SUB PUSH1 0x0 DUP4 ADD MSTORE PUSH2 0x1725 DUP2 DUP5 PUSH2 0x16D2 JUMP JUMPDEST SWAP1 POP SWAP3 SWAP2 POP POP JUMP JUMPDEST PUSH1 0x0 DUP1 REVERT JUMPDEST PUSH1 0x0 PUSH20 0xFFFFFFFFFFFFFFFFFFFFFFFFFFFFFFFFFFFFFFFF DUP3 AND SWAP1 POP SWAP2 SWAP1 POP JUMP JUMPDEST PUSH1 0x0 PUSH2 0x175D DUP3 PUSH2 0x1732 JUMP JUMPDEST SWAP1 POP SWAP2 SWAP1 POP JUMP JUMPDEST PUSH2 0x176D DUP2 PUSH2 0x1752 JUMP JUMPDEST DUP2 EQ PUSH2 0x1778 JUMPI PUSH1 0x0 DUP1 REVERT JUMPDEST POP JUMP JUMPDEST PUSH1 0x0 DUP2 CALLDATALOAD SWAP1 POP PUSH2 0x178A DUP2 PUSH2 0x1764 JUMP JUMPDEST SWAP3 SWAP2 POP POP JUMP JUMPDEST PUSH1 0x0 DUP2 SWAP1 POP SWAP2 SWAP1 POP JUMP JUMPDEST PUSH2 0x17A3 DUP2 PUSH2 0x1790 JUMP JUMPDEST DUP2 EQ PUSH2 0x17AE JUMPI PUSH1 0x0 DUP1 REVERT JUMPDEST POP JUMP JUMPDEST PUSH1 0x0 DUP2 CALLDATALOAD SWAP1 POP PUSH2 0x17C0 DUP2 PUSH2 0x179A JUMP JUMPDEST SWAP3 SWAP2 POP POP JUMP JUMPDEST PUSH1 0x0 DUP1 PUSH1 0x40 DUP4 DUP6 SUB SLT ISZERO PUSH2 0x17DD JUMPI PUSH2 0x17DC PUSH2 0x172D JUMP JUMPDEST JUMPDEST PUSH1 0x0 PUSH2 0x17EB DUP6 DUP3 DUP7 ADD PUSH2 0x177B JUMP JUMPDEST SWAP3 POP POP PUSH1 0x20 PUSH2 0x17FC DUP6 DUP3 DUP7 ADD PUSH2 0x17B1 JUMP JUMPDEST SWAP2 POP POP SWAP3 POP SWAP3 SWAP1 POP JUMP JUMPDEST PUSH1 0x0 DUP2 ISZERO ISZERO SWAP1 POP SWAP2 SWAP1 POP JUMP JUMPDEST PUSH2 0x181B DUP2 PUSH2 0x1806 JUMP JUMPDEST DUP3 MSTORE POP POP JUMP JUMPDEST PUSH1 0x0 PUSH1 0x20 DUP3 ADD SWAP1 POP PUSH2 0x1836 PUSH1 0x0 DUP4 ADD DUP5 PUSH2 0x1812 JUMP JUMPDEST SWAP3 SWAP2 POP POP JUMP JUMPDEST PUSH2 0x1845 DUP2 PUSH2 0x1790 JUMP JUMPDEST DUP3 MSTORE POP POP JUMP JUMPDEST PUSH1 0x0 PUSH1 0x20 DUP3 ADD SWAP1 POP PUSH2 0x1860 PUSH1 0x0 DUP4 ADD DUP5 PUSH2 0x183C JUMP JUMPDEST SWAP3 SWAP2 POP POP JUMP JUMPDEST PUSH1 0x0 DUP1 PUSH1 0x0 PUSH1 0x60 DUP5 DUP7 SUB SLT ISZERO PUSH2 0x187F JUMPI PUSH2 0x187E PUSH2 0x172D JUMP JUMPDEST JUMPDEST PUSH1 0x0 PUSH2 0x188D DUP7 DUP3 DUP8 ADD PUSH2 0x177B JUMP JUMPDEST SWAP4 POP POP PUSH1 0x20 PUSH2 0x189E DUP7 DUP3 DUP8 ADD PUSH2 0x177B JUMP JUMPDEST SWAP3 POP POP PUSH1 0x40 PUSH2 0x18AF DUP7 DUP3 DUP8 ADD PUSH2 0x17B1 JUMP JUMPDEST SWAP2 POP POP SWAP3 POP SWAP3 POP SWAP3 JUMP JUMPDEST PUSH1 0x0 PUSH1 0xFF DUP3 AND SWAP1 POP SWAP2 SWAP1 POP JUMP JUMPDEST PUSH2 0x18CF DUP2 PUSH2 0x18B9 JUMP JUMPDEST DUP3 MSTORE POP POP JUMP JUMPDEST PUSH1 0x0 PUSH1 0x20 DUP3 ADD SWAP1 POP PUSH2 0x18EA PUSH1 0x0 DUP4 ADD DUP5 PUSH2 0x18C6 JUMP JUMPDEST SWAP3 SWAP2 POP POP JUMP JUMPDEST PUSH1 0x0 PUSH1 0x20 DUP3 DUP5 SUB SLT ISZERO PUSH2 0x1906 JUMPI PUSH2 0x1905 PUSH2 0x172D JUMP JUMPDEST JUMPDEST PUSH1 0x0 PUSH2 0x1914 DUP5 DUP3 DUP6 ADD PUSH2 0x17B1 JUMP JUMPDEST SWAP2 POP POP SWAP3 SWAP2 POP POP JUMP JUMPDEST PUSH1 0x0 PUSH1 0x20 DUP3 DUP5 SUB SLT ISZERO PUSH2 0x1933 JUMPI PUSH2 0x1932 PUSH2 0x172D JUMP JUMPDEST JUMPDEST PUSH1 0x0 PUSH2 0x1941 DUP5 DUP3 DUP6 ADD PUSH2 0x177B JUMP JUMPDEST SWAP2 POP POP SWAP3 SWAP2 POP POP JUMP JUMPDEST PUSH2 0x1953 DUP2 PUSH2 0x1752 JUMP JUMPDEST DUP3 MSTORE POP POP JUMP JUMPDEST PUSH1 0x0 PUSH1 0x20 DUP3 ADD SWAP1 POP PUSH2 0x196E PUSH1 0x0 DUP4 ADD DUP5 PUSH2 0x194A JUMP JUMPDEST SWAP3 SWAP2 POP POP JUMP JUMPDEST PUSH1 0x0 DUP1 PUSH1 0x40 DUP4 DUP6 SUB SLT ISZERO PUSH2 0x198B JUMPI PUSH2 0x198A PUSH2 0x172D JUMP JUMPDEST JUMPDEST PUSH1 0x0 PUSH2 0x1999 DUP6 DUP3 DUP7 ADD PUSH2 0x177B JUMP JUMPDEST SWAP3 POP POP PUSH1 0x20 PUSH2 0x19AA DUP6 DUP3 DUP7 ADD PUSH2 0x177B JUMP JUMPDEST SWAP2 POP POP SWAP3 POP SWAP3 SWAP1 POP JUMP JUMPDEST PUSH32 0x4E487B7100000000000000000000000000000000000000000000000000000000 PUSH1 0x0 MSTORE PUSH1 0x22 PUSH1 0x4 MSTORE PUSH1 0x24 PUSH1 0x0 REVERT JUMPDEST PUSH1 0x0 PUSH1 0x2 DUP3 DIV SWAP1 POP PUSH1 0x1 DUP3 AND DUP1 PUSH2 0x19FB JUMPI PUSH1 0x7F DUP3 AND SWAP2 POP JUMPDEST PUSH1 0x20 DUP3 LT DUP2 SUB PUSH2 0x1A0E JUMPI PUSH2 0x1A0D PUSH2 0x19B4 JUMP JUMPDEST JUMPDEST POP SWAP2 SWAP1 POP JUMP JUMPDEST PUSH1 0x0 PUSH1 0x40 DUP3 ADD SWAP1 POP PUSH2 0x1A29 PUSH1 0x0 DUP4 ADD DUP6 PUSH2 0x194A JUMP JUMPDEST PUSH2 0x1A36 PUSH1 0x20 DUP4 ADD DUP5 PUSH2 0x194A JUMP JUMPDEST SWAP4 SWAP3 POP POP POP JUMP JUMPDEST PUSH1 0x0 DUP2 MLOAD SWAP1 POP PUSH2 0x1A4C DUP2 PUSH2 0x179A JUMP JUMPDEST SWAP3 SWAP2 POP POP JUMP JUMPDEST PUSH1 0x0 PUSH1 0x20 DUP3 DUP5 SUB SLT ISZERO PUSH2 0x1A68 JUMPI PUSH2 0x1A67 PUSH2 0x172D JUMP JUMPDEST JUMPDEST PUSH1 0x0 PUSH2 0x1A76 DUP5 DUP3 DUP6 ADD PUSH2 0x1A3D JUMP JUMPDEST SWAP2 POP POP SWAP3 SWAP2 POP POP JUMP JUMPDEST PUSH32 0x496E73756666696369656E7420616C6C6F77616E636521000000000000000000 PUSH1 0x0 DUP3 ADD MSTORE POP JUMP JUMPDEST PUSH1 0x0 PUSH2 0x1AB5 PUSH1 0x17 DUP4 PUSH2 0x1686 JUMP JUMPDEST SWAP2 POP PUSH2 0x1AC0 DUP3 PUSH2 0x1A7F JUMP JUMPDEST PUSH1 0x20 DUP3 ADD SWAP1 POP SWAP2 SWAP1 POP JUMP JUMPDEST PUSH1 0x0 PUSH1 0x20 DUP3 ADD SWAP1 POP DUP2 DUP2 SUB PUSH1 0x0 DUP4 ADD MSTORE PUSH2 0x1AE4 DUP2 PUSH2 0x1AA8 JUMP JUMPDEST SWAP1 POP SWAP2 SWAP1 POP JUMP JUMPDEST PUSH1 0x0 PUSH1 0x40 DUP3 ADD SWAP1 POP PUSH2 0x1B00 PUSH1 0x0 DUP4 ADD DUP6 PUSH2 0x194A JUMP JUMPDEST PUSH2 0x1B0D PUSH1 0x20 DUP4 ADD DUP5 PUSH2 0x183C JUMP JUMPDEST SWAP4 SWAP3 POP POP POP JUMP JUMPDEST PUSH32 0x4163636573732064656E69656421000000000000000000000000000000000000 PUSH1 0x0 DUP3 ADD MSTORE POP JUMP JUMPDEST PUSH1 0x0 PUSH2 0x1B4A PUSH1 0xE DUP4 PUSH2 0x1686 JUMP JUMPDEST SWAP2 POP PUSH2 0x1B55 DUP3 PUSH2 0x1B14 JUMP JUMPDEST PUSH1 0x20 DUP3 ADD SWAP1 POP SWAP2 SWAP1 POP JUMP JUMPDEST PUSH1 0x0 PUSH1 0x20 DUP3 ADD SWAP1 POP DUP2 DUP2 SUB PUSH1 0x0 DUP4 ADD MSTORE PUSH2 0x1B79 DUP2 PUSH2 0x1B3D JUMP JUMPDEST SWAP1 POP SWAP2 SWAP1 POP JUMP JUMPDEST PUSH32 0x576169742074696C6C206E657874206461792100000000000000000000000000 PUSH1 0x0 DUP3 ADD MSTORE POP JUMP JUMPDEST PUSH1 0x0 PUSH2 0x1BB6 PUSH1 0x13 DUP4 PUSH2 0x1686 JUMP JUMPDEST SWAP2 POP PUSH2 0x1BC1 DUP3 PUSH2 0x1B80 JUMP JUMPDEST PUSH1 0x20 DUP3 ADD SWAP1 POP SWAP2 SWAP1 POP JUMP JUMPDEST PUSH1 0x0 PUSH1 0x20 DUP3 ADD SWAP1 POP DUP2 DUP2 SUB PUSH1 0x0 DUP4 ADD MSTORE PUSH2 0x1BE5 DUP2 PUSH2 0x1BA9 JUMP JUMPDEST SWAP1 POP SWAP2 SWAP1 POP JUMP JUMPDEST PUSH1 0x0 PUSH1 0x60 DUP3 ADD SWAP1 POP PUSH2 0x1C01 PUSH1 0x0 DUP4 ADD DUP7 PUSH2 0x194A JUMP JUMPDEST PUSH2 0x1C0E PUSH1 0x20 DUP4 ADD DUP6 PUSH2 0x194A JUMP JUMPDEST PUSH2 0x1C1B PUSH1 0x40 DUP4 ADD DUP5 PUSH2 0x183C JUMP JUMPDEST SWAP5 SWAP4 POP POP POP POP JUMP JUMPDEST PUSH2 0x1C2C DUP2 PUSH2 0x1806 JUMP JUMPDEST DUP2 EQ PUSH2 0x1C37 JUMPI PUSH1 0x0 DUP1 REVERT JUMPDEST POP JUMP JUMPDEST PUSH1 0x0 DUP2 MLOAD SWAP1 POP PUSH2 0x1C49 DUP2 PUSH2 0x1C23 JUMP JUMPDEST SWAP3 SWAP2 POP POP JUMP JUMPDEST PUSH1 0x0 PUSH1 0x20 DUP3 DUP5 SUB SLT ISZERO PUSH2 0x1C65 JUMPI PUSH2 0x1C64 PUSH2 0x172D JUMP JUMPDEST JUMPDEST PUSH1 0x0 PUSH2 0x1C73 DUP5 DUP3 DUP6 ADD PUSH2 0x1C3A JUMP JUMPDEST SWAP2 POP POP SWAP3 SWAP2 POP POP JUMP JUMPDEST PUSH32 0x4F776E61626C653A2063616C6C6572206973206E6F7420746865206F776E6572 PUSH1 0x0 DUP3 ADD MSTORE POP JUMP JUMPDEST PUSH1 0x0 PUSH2 0x1CB2 PUSH1 0x20 DUP4 PUSH2 0x1686 JUMP JUMPDEST SWAP2 POP PUSH2 0x1CBD DUP3 PUSH2 0x1C7C JUMP JUMPDEST PUSH1 0x20 DUP3 ADD SWAP1 POP SWAP2 SWAP1 POP JUMP JUMPDEST PUSH1 0x0 PUSH1 0x20 DUP3 ADD SWAP1 POP DUP2 DUP2 SUB PUSH1 0x0 DUP4 ADD MSTORE PUSH2 0x1CE1 DUP2 PUSH2 0x1CA5 JUMP JUMPDEST SWAP1 POP SWAP2 SWAP1 POP JUMP JUMPDEST PUSH32 0x45524332303A2064656372656173656420616C6C6F77616E63652062656C6F77 PUSH1 0x0 DUP3 ADD MSTORE PUSH32 0x207A65726F000000000000000000000000000000000000000000000000000000 PUSH1 0x20 DUP3 ADD MSTORE POP JUMP JUMPDEST PUSH1 0x0 PUSH2 0x1D44 PUSH1 0x25 DUP4 PUSH2 0x1686 JUMP JUMPDEST SWAP2 POP PUSH2 0x1D4F DUP3 PUSH2 0x1CE8 JUMP JUMPDEST PUSH1 0x40 DUP3 ADD SWAP1 POP SWAP2 SWAP1 POP JUMP JUMPDEST PUSH1 0x0 PUSH1 0x20 DUP3 ADD SWAP1 POP DUP2 DUP2 SUB PUSH1 0x0 DUP4 ADD MSTORE PUSH2 0x1D73 DUP2 PUSH2 0x1D37 JUMP JUMPDEST SWAP1 POP SWAP2 SWAP1 POP JUMP JUMPDEST PUSH32 0x546F74616C204361702065786365656465640000000000000000000000000000 PUSH1 0x0 DUP3 ADD MSTORE POP JUMP JUMPDEST PUSH1 0x0 PUSH2 0x1DB0 PUSH1 0x12 DUP4 PUSH2 0x1686 JUMP JUMPDEST SWAP2 POP PUSH2 0x1DBB DUP3 PUSH2 0x1D7A JUMP JUMPDEST PUSH1 0x20 DUP3 ADD SWAP1 POP SWAP2 SWAP1 POP JUMP JUMPDEST PUSH1 0x0 PUSH1 0x20 DUP3 ADD SWAP1 POP DUP2 DUP2 SUB PUSH1 0x0 DUP4 ADD MSTORE PUSH2 0x1DDF DUP2 PUSH2 0x1DA3 JUMP JUMPDEST SWAP1 POP SWAP2 SWAP1 POP JUMP JUMPDEST PUSH32 0x45524332303A206D696E7420746F20746865207A65726F206164647265737300 PUSH1 0x0 DUP3 ADD MSTORE POP JUMP JUMPDEST PUSH1 0x0 PUSH2 0x1E1C PUSH1 0x1F DUP4 PUSH2 0x1686 JUMP JUMPDEST SWAP2 POP PUSH2 0x1E27 DUP3 PUSH2 0x1DE6 JUMP JUMPDEST PUSH1 0x20 DUP3 ADD SWAP1 POP SWAP2 SWAP1 POP JUMP JUMPDEST PUSH1 0x0 PUSH1 0x20 DUP3 ADD SWAP1 POP DUP2 DUP2 SUB PUSH1 0x0 DUP4 ADD MSTORE PUSH2 0x1E4B DUP2 PUSH2 0x1E0F JUMP JUMPDEST SWAP1 POP SWAP2 SWAP1 POP JUMP JUMPDEST PUSH32 0x45524332303A20617070726F76652066726F6D20746865207A65726F20616464 PUSH1 0x0 DUP3 ADD MSTORE PUSH32 0x7265737300000000000000000000000000000000000000000000000000000000 PUSH1 0x20 DUP3 ADD MSTORE POP JUMP JUMPDEST PUSH1 0x0 PUSH2 0x1EAE PUSH1 0x24 DUP4 PUSH2 0x1686 JUMP JUMPDEST SWAP2 POP PUSH2 0x1EB9 DUP3 PUSH2 0x1E52 JUMP JUMPDEST PUSH1 0x40 DUP3 ADD SWAP1 POP SWAP2 SWAP1 POP JUMP JUMPDEST PUSH1 0x0 PUSH1 0x20 DUP3 ADD SWAP1 POP DUP2 DUP2 SUB PUSH1 0x0 DUP4 ADD MSTORE PUSH2 0x1EDD DUP2 PUSH2 0x1EA1 JUMP JUMPDEST SWAP1 POP SWAP2 SWAP1 POP JUMP JUMPDEST PUSH32 0x45524332303A20617070726F766520746F20746865207A65726F206164647265 PUSH1 0x0 DUP3 ADD MSTORE PUSH32 0x7373000000000000000000000000000000000000000000000000000000000000 PUSH1 0x20 DUP3 ADD MSTORE POP JUMP JUMPDEST PUSH1 0x0 PUSH2 0x1F40 PUSH1 0x22 DUP4 PUSH2 0x1686 JUMP JUMPDEST SWAP2 POP PUSH2 0x1F4B DUP3 PUSH2 0x1EE4 JUMP JUMPDEST PUSH1 0x40 DUP3 ADD SWAP1 POP SWAP2 SWAP1 POP JUMP JUMPDEST PUSH1 0x0 PUSH1 0x20 DUP3 ADD SWAP1 POP DUP2 DUP2 SUB PUSH1 0x0 DUP4 ADD MSTORE PUSH2 0x1F6F DUP2 PUSH2 0x1F33 JUMP JUMPDEST SWAP1 POP SWAP2 SWAP1 POP JUMP JUMPDEST PUSH32 0x45524332303A20696E73756666696369656E7420616C6C6F77616E6365000000 PUSH1 0x0 DUP3 ADD MSTORE POP JUMP JUMPDEST PUSH1 0x0 PUSH2 0x1FAC PUSH1 0x1D DUP4 PUSH2 0x1686 JUMP JUMPDEST SWAP2 POP PUSH2 0x1FB7 DUP3 PUSH2 0x1F76 JUMP JUMPDEST PUSH1 0x20 DUP3 ADD SWAP1 POP SWAP2 SWAP1 POP JUMP JUMPDEST PUSH1 0x0 PUSH1 0x20 DUP3 ADD SWAP1 POP DUP2 DUP2 SUB PUSH1 0x0 DUP4 ADD MSTORE PUSH2 0x1FDB DUP2 PUSH2 0x1F9F JUMP JUMPDEST SWAP1 POP SWAP2 SWAP1 POP JUMP JUMPDEST PUSH32 0x45524332303A207472616E736665722066726F6D20746865207A65726F206164 PUSH1 0x0 DUP3 ADD MSTORE PUSH32 0x6472657373000000000000000000000000000000000000000000000000000000 PUSH1 0x20 DUP3 ADD MSTORE POP JUMP JUMPDEST PUSH1 0x0 PUSH2 0x203E PUSH1 0x25 DUP4 PUSH2 0x1686 JUMP JUMPDEST SWAP2 POP PUSH2 0x2049 DUP3 PUSH2 0x1FE2 JUMP JUMPDEST PUSH1 0x40 DUP3 ADD SWAP1 POP SWAP2 SWAP1 POP JUMP JUMPDEST PUSH1 0x0 PUSH1 0x20 DUP3 ADD SWAP1 POP DUP2 DUP2 SUB PUSH1 0x0 DUP4 ADD MSTORE PUSH2 0x206D DUP2 PUSH2 0x2031 JUMP JUMPDEST SWAP1 POP SWAP2 SWAP1 POP JUMP JUMPDEST PUSH32 0x45524332303A207472616E7366657220746F20746865207A65726F2061646472 PUSH1 0x0 DUP3 ADD MSTORE PUSH32 0x6573730000000000000000000000000000000000000000000000000000000000 PUSH1 0x20 DUP3 ADD MSTORE POP JUMP JUMPDEST PUSH1 0x0 PUSH2 0x20D0 PUSH1 0x23 DUP4 PUSH2 0x1686 JUMP JUMPDEST SWAP2 POP PUSH2 0x20DB DUP3 PUSH2 0x2074 JUMP JUMPDEST PUSH1 0x40 DUP3 ADD SWAP1 POP SWAP2 SWAP1 POP JUMP JUMPDEST PUSH1 0x0 PUSH1 0x20 DUP3 ADD SWAP1 POP DUP2 DUP2 SUB PUSH1 0x0 DUP4 ADD MSTORE PUSH2 0x20FF DUP2 PUSH2 0x20C3 JUMP JUMPDEST SWAP1 POP SWAP2 SWAP1 POP JUMP JUMPDEST PUSH32 0x4E487B7100000000000000000000000000000000000000000000000000000000 PUSH1 0x0 MSTORE PUSH1 0x11 PUSH1 0x4 MSTORE PUSH1 0x24 PUSH1 0x0 REVERT JUMPDEST PUSH1 0x0 PUSH2 0x2140 DUP3 PUSH2 0x1790 JUMP JUMPDEST SWAP2 POP PUSH2 0x214B DUP4 PUSH2 0x1790 JUMP JUMPDEST SWAP3 POP DUP3 DUP3 ADD SWAP1 POP DUP1 DUP3 GT ISZERO PUSH2 0x2163 JUMPI PUSH2 0x2162 PUSH2 0x2106 JUMP JUMPDEST JUMPDEST SWAP3 SWAP2 POP POP JUMP JUMPDEST PUSH32 0x45524332303A206275726E2066726F6D20746865207A65726F20616464726573 PUSH1 0x0 DUP3 ADD MSTORE PUSH32 0x7300000000000000000000000000000000000000000000000000000000000000 PUSH1 0x20 DUP3 ADD MSTORE POP JUMP JUMPDEST PUSH1 0x0 PUSH2 0x21C5 PUSH1 0x21 DUP4 PUSH2 0x1686 JUMP JUMPDEST SWAP2 POP PUSH2 0x21D0 DUP3 PUSH2 0x2169 JUMP JUMPDEST PUSH1 0x40 DUP3 ADD SWAP1 POP SWAP2 SWAP1 POP JUMP JUMPDEST PUSH1 0x0 PUSH1 0x20 DUP3 ADD SWAP1 POP DUP2 DUP2 SUB PUSH1 0x0 DUP4 ADD MSTORE PUSH2 0x21F4 DUP2 PUSH2 0x21B8 JUMP JUMPDEST SWAP1 POP SWAP2 SWAP1 POP JUMP JUMPDEST PUSH1 0x0 PUSH2 0x2206 DUP3 PUSH2 0x1790 JUMP JUMPDEST SWAP2 POP PUSH2 0x2211 DUP4 PUSH2 0x1790 JUMP JUMPDEST SWAP3 POP DUP3 DUP3 SUB SWAP1 POP DUP2 DUP2 GT ISZERO PUSH2 0x2229 JUMPI PUSH2 0x2228 PUSH2 0x2106 JUMP JUMPDEST JUMPDEST SWAP3 SWAP2 POP POP JUMP JUMPDEST PUSH32 0x4F776E61626C653A206E6577206F776E657220697320746865207A65726F2061 PUSH1 0x0 DUP3 ADD MSTORE PUSH32 0x6464726573730000000000000000000000000000000000000000000000000000 PUSH1 0x20 DUP3 ADD MSTORE POP JUMP JUMPDEST PUSH1 0x0 PUSH2 0x228B PUSH1 0x26 DUP4 PUSH2 0x1686 JUMP JUMPDEST SWAP2 POP PUSH2 0x2296 DUP3 PUSH2 0x222F JUMP JUMPDEST PUSH1 0x40 DUP3 ADD SWAP1 POP SWAP2 SWAP1 POP JUMP JUMPDEST PUSH1 0x0 PUSH1 0x20 DUP3 ADD SWAP1 POP DUP2 DUP2 SUB PUSH1 0x0 DUP4 ADD MSTORE PUSH2 0x22BA DUP2 PUSH2 0x227E JUMP JUMPDEST SWAP1 POP SWAP2 SWAP1 POP JUMP JUMPDEST PUSH32 0x45524332303A207472616E7366657220616D6F756E7420657863656564732062 PUSH1 0x0 DUP3 ADD MSTORE PUSH32 0x616C616E63650000000000000000000000000000000000000000000000000000 PUSH1 0x20 DUP3 ADD MSTORE POP JUMP JUMPDEST PUSH1 0x0 PUSH2 0x231D PUSH1 0x26 DUP4 PUSH2 0x1686 JUMP JUMPDEST SWAP2 POP PUSH2 0x2328 DUP3 PUSH2 0x22C1 JUMP JUMPDEST PUSH1 0x40 DUP3 ADD SWAP1 POP SWAP2 SWAP1 POP JUMP JUMPDEST PUSH1 0x0 PUSH1 0x20 DUP3 ADD SWAP1 POP DUP2 DUP2 SUB PUSH1 0x0 DUP4 ADD MSTORE PUSH2 0x234C DUP2 PUSH2 0x2310 JUMP JUMPDEST SWAP1 POP SWAP2 SWAP1 POP JUMP INVALID LOG2 PUSH5 0x6970667358 0x22 SLT KECCAK256 0xD6 PUSH14 0x14B84CEC8360811BD084A26AF9DB SLT 0xFB SIGNEXTEND 0xAB SHL 0x5E 0xA7 DUP15 0xCB SUB SWAP12 PC PUSH31 0x1B0C7064736F6C634300081200330000000000000000000000000000000000 "
				},
				"gasEstimates": {
					"creation": {
						"codeDepositCost": "1819400",
						"executionCost": "infinite",
						"totalCost": "infinite"
					},
					"external": {
						"allowance(address,address)": "infinite",
						"approve(address,uint256)": "infinite",
						"balanceOf(address)": "2864",
						"burn(uint256)": "infinite",
						"burnFrom(address,uint256)": "infinite",
						"convertTokenToMartGPTToken(address,uint256)": "infinite",
						"convertTokenToMartGPTTokenWithOutBurn(address,uint256)": "infinite",
						"dailyBlockMining()": "infinite",
						"decimals()": "366",
						"decreaseAllowance(address,uint256)": "infinite",
						"increaseAllowance(address,uint256)": "infinite",
						"isOwner()": "2607",
						"name()": "infinite",
						"owner()": "2611",
						"renounceOwnership()": "30339",
						"symbol()": "infinite",
						"totalSupply()": "2527",
						"transfer(address,uint256)": "infinite",
						"transferFrom(address,address,uint256)": "infinite",
						"transferOwnership(address)": "30779"
					},
					"internal": {
						"_approve(address,address,uint256)": "infinite",
						"_burn(address,uint256)": "infinite",
						"_checkCap(uint256)": "infinite",
						"_mint(address,uint256)": "infinite",
						"_spendAllowance(address,address,uint256)": "infinite",
						"_transfer(address,address,uint256)": "infinite",
						"_update(address,address,uint256)": "infinite"
					}
				},
				"methodIdentifiers": {
					"allowance(address,address)": "dd62ed3e",
					"approve(address,uint256)": "095ea7b3",
					"balanceOf(address)": "70a08231",
					"burn(uint256)": "42966c68",
					"burnFrom(address,uint256)": "79cc6790",
					"convertTokenToMartGPTToken(address,uint256)": "074742fd",
					"convertTokenToMartGPTTokenWithOutBurn(address,uint256)": "641a21f3",
					"dailyBlockMining()": "334b93f0",
					"decimals()": "313ce567",
					"decreaseAllowance(address,uint256)": "a457c2d7",
					"increaseAllowance(address,uint256)": "39509351",
					"isOwner()": "8f32d59b",
					"name()": "06fdde03",
					"owner()": "8da5cb5b",
					"renounceOwnership()": "715018a6",
					"symbol()": "95d89b41",
					"totalSupply()": "18160ddd",
					"transfer(address,uint256)": "a9059cbb",
					"transferFrom(address,address,uint256)": "23b872dd",
					"transferOwnership(address)": "f2fde38b"
				}
			},
			"storageLayout": {
				"storage": [
					{
						"astId": 28,
						"contract": "smart contract/SwapCryptoLoanUpdate/contracts/facets/MartgptCoin.sol:MartGPTToken",
						"label": "_owner",
						"offset": 0,
						"slot": "0",
						"type": "t_address"
					},
					{
						"astId": 178,
						"contract": "smart contract/SwapCryptoLoanUpdate/contracts/facets/MartgptCoin.sol:MartGPTToken",
						"label": "_balances",
						"offset": 0,
						"slot": "1",
						"type": "t_mapping(t_address,t_uint256)"
					},
					{
						"astId": 184,
						"contract": "smart contract/SwapCryptoLoanUpdate/contracts/facets/MartgptCoin.sol:MartGPTToken",
						"label": "_allowances",
						"offset": 0,
						"slot": "2",
						"type": "t_mapping(t_address,t_mapping(t_address,t_uint256))"
					},
					{
						"astId": 186,
						"contract": "smart contract/SwapCryptoLoanUpdate/contracts/facets/MartgptCoin.sol:MartGPTToken",
						"label": "_totalSupply",
						"offset": 0,
						"slot": "3",
						"type": "t_uint256"
					},
					{
						"astId": 191,
						"contract": "smart contract/SwapCryptoLoanUpdate/contracts/facets/MartgptCoin.sol:MartGPTToken",
						"label": "_name",
						"offset": 0,
						"slot": "4",
						"type": "t_string_storage"
					},
					{
						"astId": 193,
						"contract": "smart contract/SwapCryptoLoanUpdate/contracts/facets/MartgptCoin.sol:MartGPTToken",
						"label": "_symbol",
						"offset": 0,
						"slot": "5",
						"type": "t_string_storage"
					},
					{
						"astId": 195,
						"contract": "smart contract/SwapCryptoLoanUpdate/contracts/facets/MartgptCoin.sol:MartGPTToken",
						"label": "_convertAddress",
						"offset": 0,
						"slot": "6",
						"type": "t_address"
					},
					{
						"astId": 197,
						"contract": "smart contract/SwapCryptoLoanUpdate/contracts/facets/MartgptCoin.sol:MartGPTToken",
						"label": "_martGPTMarketAddress",
						"offset": 0,
						"slot": "7",
						"type": "t_address"
					},
					{
						"astId": 199,
						"contract": "smart contract/SwapCryptoLoanUpdate/contracts/facets/MartgptCoin.sol:MartGPTToken",
						"label": "_totalCap",
						"offset": 0,
						"slot": "8",
						"type": "t_uint256"
					},
					{
						"astId": 201,
						"contract": "smart contract/SwapCryptoLoanUpdate/contracts/facets/MartgptCoin.sol:MartGPTToken",
						"label": "_nextDisburseDate",
						"offset": 0,
						"slot": "9",
						"type": "t_uint256"
					},
					{
						"astId": 203,
						"contract": "smart contract/SwapCryptoLoanUpdate/contracts/facets/MartgptCoin.sol:MartGPTToken",
						"label": "_dailyMining",
						"offset": 0,
						"slot": "10",
						"type": "t_uint256"
					}
				],
				"types": {
					"t_address": {
						"encoding": "inplace",
						"label": "address",
						"numberOfBytes": "20"
					},
					"t_mapping(t_address,t_mapping(t_address,t_uint256))": {
						"encoding": "mapping",
						"key": "t_address",
						"label": "mapping(address => mapping(address => uint256))",
						"numberOfBytes": "32",
						"value": "t_mapping(t_address,t_uint256)"
					},
					"t_mapping(t_address,t_uint256)": {
						"encoding": "mapping",
						"key": "t_address",
						"label": "mapping(address => uint256)",
						"numberOfBytes": "32",
						"value": "t_uint256"
					},
					"t_string_storage": {
						"encoding": "bytes",
						"label": "string",
						"numberOfBytes": "32"
					},
					"t_uint256": {
						"encoding": "inplace",
						"label": "uint256",
						"numberOfBytes": "32"
					}
				}
			},
			"userdoc": {
				"kind": "user",
				"methods": {},
				"version": 1
			}
		}
	}
}