{
	"smart contract/SwapCryptoLoanUpdate/contracts/facets/VolumeGenerator.sol": {
		"VolumeGenerator": {
			"abi": [
				{
					"inputs": [
						{
							"internalType": "address",
							"name": "martGTPADDRESS_",
							"type": "address"
						}
					],
					"stateMutability": "nonpayable",
					"type": "constructor"
				},
				{
					"anonymous": false,
					"inputs": [
						{
							"indexed": true,
							"internalType": "address",
							"name": "previousOwner",
							"type": "address"
						},
						{
							"indexed": true,
							"internalType": "address",
							"name": "newOwner",
							"type": "address"
						}
					],
					"name": "OwnershipTransferred",
					"type": "event"
				},
				{
					"inputs": [],
					"name": "addBNBLiquidity",
					"outputs": [],
					"stateMutability": "payable",
					"type": "function"
				},
				{
					"inputs": [
						{
							"internalType": "uint256",
							"name": "amountIn",
							"type": "uint256"
						},
						{
							"internalType": "address",
							"name": "token",
							"type": "address"
						}
					],
					"name": "addTokenLiquidity",
					"outputs": [],
					"stateMutability": "nonpayable",
					"type": "function"
				},
				{
					"inputs": [
						{
							"internalType": "uint256",
							"name": "amountIn",
							"type": "uint256"
						},
						{
							"internalType": "address[]",
							"name": "path",
							"type": "address[]"
						},
						{
							"internalType": "address[]",
							"name": "routerPath",
							"type": "address[]"
						}
					],
					"name": "getAmountsOut",
					"outputs": [
						{
							"internalType": "uint256[]",
							"name": "amounts",
							"type": "uint256[]"
						}
					],
					"stateMutability": "view",
					"type": "function"
				},
				{
					"inputs": [],
					"name": "isOwner",
					"outputs": [
						{
							"internalType": "bool",
							"name": "",
							"type": "bool"
						}
					],
					"stateMutability": "view",
					"type": "function"
				},
				{
					"inputs": [],
					"name": "owner",
					"outputs": [
						{
							"internalType": "address",
							"name": "",
							"type": "address"
						}
					],
					"stateMutability": "view",
					"type": "function"
				},
				{
					"inputs": [
						{
							"internalType": "uint256",
							"name": "amount",
							"type": "uint256"
						},
						{
							"internalType": "address payable",
							"name": "to",
							"type": "address"
						}
					],
					"name": "removeBNBLiquidity",
					"outputs": [],
					"stateMutability": "nonpayable",
					"type": "function"
				},
				{
					"inputs": [
						{
							"internalType": "uint256",
							"name": "amount",
							"type": "uint256"
						},
						{
							"internalType": "address",
							"name": "token",
							"type": "address"
						},
						{
							"internalType": "address",
							"name": "to",
							"type": "address"
						}
					],
					"name": "removeTokenLiquidity",
					"outputs": [],
					"stateMutability": "nonpayable",
					"type": "function"
				},
				{
					"inputs": [],
					"name": "renounceOwnership",
					"outputs": [],
					"stateMutability": "nonpayable",
					"type": "function"
				},
				{
					"inputs": [
						{
							"internalType": "uint256",
							"name": "amountIn",
							"type": "uint256"
						},
						{
							"internalType": "uint256",
							"name": "amountOutMin",
							"type": "uint256"
						},
						{
							"internalType": "address",
							"name": "tokenOut",
							"type": "address"
						},
						{
							"internalType": "address[]",
							"name": "routerPath",
							"type": "address[]"
						}
					],
					"name": "swapExactBNBForEUSD",
					"outputs": [],
					"stateMutability": "nonpayable",
					"type": "function"
				},
				{
					"inputs": [
						{
							"internalType": "uint256",
							"name": "amountIn",
							"type": "uint256"
						},
						{
							"internalType": "uint256",
							"name": "amountOutMin",
							"type": "uint256"
						},
						{
							"internalType": "address[]",
							"name": "path",
							"type": "address[]"
						},
						{
							"internalType": "address[]",
							"name": "routerPath",
							"type": "address[]"
						}
					],
					"name": "swapExactEUSDForTokens",
					"outputs": [],
					"stateMutability": "nonpayable",
					"type": "function"
				},
				{
					"inputs": [
						{
							"internalType": "address",
							"name": "token",
							"type": "address"
						},
						{
							"internalType": "uint256",
							"name": "amountIn",
							"type": "uint256"
						},
						{
							"internalType": "uint256",
							"name": "amountOutMin",
							"type": "uint256"
						},
						{
							"internalType": "address[]",
							"name": "routerPath",
							"type": "address[]"
						}
					],
					"name": "swapExactEUSDforBNB",
					"outputs": [],
					"stateMutability": "nonpayable",
					"type": "function"
				},
				{
					"inputs": [
						{
							"internalType": "uint256",
							"name": "amountIn",
							"type": "uint256"
						},
						{
							"internalType": "uint256",
							"name": "amountOutMin",
							"type": "uint256"
						},
						{
							"internalType": "address[]",
							"name": "path",
							"type": "address[]"
						},
						{
							"internalType": "address[]",
							"name": "routerPath",
							"type": "address[]"
						}
					],
					"name": "swapExactTokensForEUSD",
					"outputs": [],
					"stateMutability": "nonpayable",
					"type": "function"
				},
				{
					"inputs": [
						{
							"internalType": "address",
							"name": "newOwner",
							"type": "address"
						}
					],
					"name": "transferOwnership",
					"outputs": [],
					"stateMutability": "nonpayable",
					"type": "function"
				}
			],
			"devdoc": {
				"kind": "dev",
				"methods": {
					"isOwner()": {
						"details": "Returns true if the caller is the current owner."
					},
					"owner()": {
						"details": "Returns the address of the current owner."
					},
					"renounceOwnership()": {
						"details": "Leaves the contract without owner. It will not be possible to call `onlyOwner` functions anymore. Can only be called by the current owner. > Note: Renouncing ownership will leave the contract without an owner, thereby removing any functionality that is only available to the owner."
					},
					"transferOwnership(address)": {
						"details": "Transfers ownership of the contract to a new account (`newOwner`). Can only be called by the current owner."
					}
				},
				"version": 1
			},
			"evm": {
				"assembly": "    /* \"smart contract/SwapCryptoLoanUpdate/contracts/facets/VolumeGenerator.sol\":237:3074  contract VolumeGenerator is Ownable {... */\n  mstore(0x40, 0x80)\n    /* \"smart contract/SwapCryptoLoanUpdate/contracts/facets/VolumeGenerator.sol\":477:564  constructor(address martGTPADDRESS_) {... */\n  callvalue\n  dup1\n  iszero\n  tag_1\n  jumpi\n  0x00\n  dup1\n  revert\ntag_1:\n  pop\n  mload(0x40)\n  sub(codesize, bytecodeSize)\n  dup1\n  bytecodeSize\n  dup4\n  codecopy\n  dup2\n  dup2\n  add\n  0x40\n  mstore\n  dup2\n  add\n  swap1\n  tag_2\n  swap2\n  swap1\n  tag_3\n  jump\t// in\ntag_2:\n    /* \"smart contract/SwapCryptoLoanUpdate/contracts/extensions/Ownable.sol\":351:361  msg.sender */\n  caller\n    /* \"smart contract/SwapCryptoLoanUpdate/contracts/extensions/Ownable.sol\":342:348  _owner */\n  0x00\n  dup1\n    /* \"smart contract/SwapCryptoLoanUpdate/contracts/extensions/Ownable.sol\":342:361  _owner = msg.sender */\n  0x0100\n  exp\n  dup2\n  sload\n  dup2\n  0xffffffffffffffffffffffffffffffffffffffff\n  mul\n  not\n  and\n  swap1\n  dup4\n  0xffffffffffffffffffffffffffffffffffffffff\n  and\n  mul\n  or\n  swap1\n  sstore\n  pop\n    /* \"smart contract/SwapCryptoLoanUpdate/contracts/extensions/Ownable.sol\":409:415  _owner */\n  0x00\n  dup1\n  sload\n  swap1\n  0x0100\n  exp\n  swap1\n  div\n  0xffffffffffffffffffffffffffffffffffffffff\n  and\n    /* \"smart contract/SwapCryptoLoanUpdate/contracts/extensions/Ownable.sol\":376:416  OwnershipTransferred(address(0), _owner) */\n  0xffffffffffffffffffffffffffffffffffffffff\n  and\n    /* \"smart contract/SwapCryptoLoanUpdate/contracts/extensions/Ownable.sol\":405:406  0 */\n  0x00\n    /* \"smart contract/SwapCryptoLoanUpdate/contracts/extensions/Ownable.sol\":376:416  OwnershipTransferred(address(0), _owner) */\n  0xffffffffffffffffffffffffffffffffffffffff\n  and\n  0x8be0079c531659141344cd1fd0a4f28419497f9722a3daafe3b4186f6b6457e0\n  mload(0x40)\n  mload(0x40)\n  dup1\n  swap2\n  sub\n  swap1\n  log3\n    /* \"smart contract/SwapCryptoLoanUpdate/contracts/facets/VolumeGenerator.sol\":542:557  martGTPADDRESS_ */\n  dup1\n    /* \"smart contract/SwapCryptoLoanUpdate/contracts/facets/VolumeGenerator.sol\":524:539  _martGTPADDRESS */\n  0x01\n  0x00\n    /* \"smart contract/SwapCryptoLoanUpdate/contracts/facets/VolumeGenerator.sol\":524:557  _martGTPADDRESS = martGTPADDRESS_ */\n  0x0100\n  exp\n  dup2\n  sload\n  dup2\n  0xffffffffffffffffffffffffffffffffffffffff\n  mul\n  not\n  and\n  swap1\n  dup4\n  0xffffffffffffffffffffffffffffffffffffffff\n  and\n  mul\n  or\n  swap1\n  sstore\n  pop\n    /* \"smart contract/SwapCryptoLoanUpdate/contracts/facets/VolumeGenerator.sol\":477:564  constructor(address martGTPADDRESS_) {... */\n  pop\n    /* \"smart contract/SwapCryptoLoanUpdate/contracts/facets/VolumeGenerator.sol\":237:3074  contract VolumeGenerator is Ownable {... */\n  jump(tag_8)\n    /* \"#utility.yul\":88:205   */\ntag_10:\n    /* \"#utility.yul\":197:198   */\n  0x00\n    /* \"#utility.yul\":194:195   */\n  dup1\n    /* \"#utility.yul\":187:199   */\n  revert\n    /* \"#utility.yul\":334:460   */\ntag_12:\n    /* \"#utility.yul\":371:378   */\n  0x00\n    /* \"#utility.yul\":411:453   */\n  0xffffffffffffffffffffffffffffffffffffffff\n    /* \"#utility.yul\":404:409   */\n  dup3\n    /* \"#utility.yul\":400:454   */\n  and\n    /* \"#utility.yul\":389:454   */\n  swap1\n  pop\n    /* \"#utility.yul\":334:460   */\n  swap2\n  swap1\n  pop\n  jump\t// out\n    /* \"#utility.yul\":466:562   */\ntag_13:\n    /* \"#utility.yul\":503:510   */\n  0x00\n    /* \"#utility.yul\":532:556   */\n  tag_22\n    /* \"#utility.yul\":550:555   */\n  dup3\n    /* \"#utility.yul\":532:556   */\n  tag_12\n  jump\t// in\ntag_22:\n    /* \"#utility.yul\":521:556   */\n  swap1\n  pop\n    /* \"#utility.yul\":466:562   */\n  swap2\n  swap1\n  pop\n  jump\t// out\n    /* \"#utility.yul\":568:690   */\ntag_14:\n    /* \"#utility.yul\":641:665   */\n  tag_24\n    /* \"#utility.yul\":659:664   */\n  dup2\n    /* \"#utility.yul\":641:665   */\n  tag_13\n  jump\t// in\ntag_24:\n    /* \"#utility.yul\":634:639   */\n  dup2\n    /* \"#utility.yul\":631:666   */\n  eq\n    /* \"#utility.yul\":621:684   */\n  tag_25\n  jumpi\n    /* \"#utility.yul\":680:681   */\n  0x00\n    /* \"#utility.yul\":677:678   */\n  dup1\n    /* \"#utility.yul\":670:682   */\n  revert\n    /* \"#utility.yul\":621:684   */\ntag_25:\n    /* \"#utility.yul\":568:690   */\n  pop\n  jump\t// out\n    /* \"#utility.yul\":696:839   */\ntag_15:\n    /* \"#utility.yul\":753:758   */\n  0x00\n    /* \"#utility.yul\":784:790   */\n  dup2\n    /* \"#utility.yul\":778:791   */\n  mload\n    /* \"#utility.yul\":769:791   */\n  swap1\n  pop\n    /* \"#utility.yul\":800:833   */\n  tag_27\n    /* \"#utility.yul\":827:832   */\n  dup2\n    /* \"#utility.yul\":800:833   */\n  tag_14\n  jump\t// in\ntag_27:\n    /* \"#utility.yul\":696:839   */\n  swap3\n  swap2\n  pop\n  pop\n  jump\t// out\n    /* \"#utility.yul\":845:1196   */\ntag_3:\n    /* \"#utility.yul\":915:921   */\n  0x00\n    /* \"#utility.yul\":964:966   */\n  0x20\n    /* \"#utility.yul\":952:961   */\n  dup3\n    /* \"#utility.yul\":943:950   */\n  dup5\n    /* \"#utility.yul\":939:962   */\n  sub\n    /* \"#utility.yul\":935:967   */\n  slt\n    /* \"#utility.yul\":932:1051   */\n  iszero\n  tag_29\n  jumpi\n    /* \"#utility.yul\":970:1049   */\n  tag_30\n  tag_10\n  jump\t// in\ntag_30:\n    /* \"#utility.yul\":932:1051   */\ntag_29:\n    /* \"#utility.yul\":1090:1091   */\n  0x00\n    /* \"#utility.yul\":1115:1179   */\n  tag_31\n    /* \"#utility.yul\":1171:1178   */\n  dup5\n    /* \"#utility.yul\":1162:1168   */\n  dup3\n    /* \"#utility.yul\":1151:1160   */\n  dup6\n    /* \"#utility.yul\":1147:1169   */\n  add\n    /* \"#utility.yul\":1115:1179   */\n  tag_15\n  jump\t// in\ntag_31:\n    /* \"#utility.yul\":1105:1179   */\n  swap2\n  pop\n    /* \"#utility.yul\":1061:1189   */\n  pop\n    /* \"#utility.yul\":845:1196   */\n  swap3\n  swap2\n  pop\n  pop\n  jump\t// out\n    /* \"smart contract/SwapCryptoLoanUpdate/contracts/facets/VolumeGenerator.sol\":237:3074  contract VolumeGenerator is Ownable {... */\ntag_8:\n  dataSize(sub_0)\n  dup1\n  dataOffset(sub_0)\n  0x00\n  codecopy\n  0x00\n  return\nstop\n\nsub_0: assembly {\n        /* \"smart contract/SwapCryptoLoanUpdate/contracts/facets/VolumeGenerator.sol\":237:3074  contract VolumeGenerator is Ownable {... */\n      mstore(0x40, 0x80)\n      jumpi(tag_1, lt(calldatasize, 0x04))\n      shr(0xe0, calldataload(0x00))\n      dup1\n      0x82382e88\n      gt\n      tag_15\n      jumpi\n      dup1\n      0x9c48a3c3\n      gt\n      tag_16\n      jumpi\n      dup1\n      0x9c48a3c3\n      eq\n      tag_11\n      jumpi\n      dup1\n      0x9f593c33\n      eq\n      tag_12\n      jumpi\n      dup1\n      0xa8312b1d\n      eq\n      tag_13\n      jumpi\n      dup1\n      0xf2fde38b\n      eq\n      tag_14\n      jumpi\n      jump(tag_1)\n    tag_16:\n      dup1\n      0x82382e88\n      eq\n      tag_8\n      jumpi\n      dup1\n      0x8da5cb5b\n      eq\n      tag_9\n      jumpi\n      dup1\n      0x8f32d59b\n      eq\n      tag_10\n      jumpi\n      jump(tag_1)\n    tag_15:\n      dup1\n      0x23a70807\n      eq\n      tag_2\n      jumpi\n      dup1\n      0x2d21c6c0\n      eq\n      tag_3\n      jumpi\n      dup1\n      0x52385f42\n      eq\n      tag_4\n      jumpi\n      dup1\n      0x5df88e51\n      eq\n      tag_5\n      jumpi\n      dup1\n      0x5eb6d9ac\n      eq\n      tag_6\n      jumpi\n      dup1\n      0x715018a6\n      eq\n      tag_7\n      jumpi\n    tag_1:\n      0x00\n      dup1\n      revert\n        /* \"smart contract/SwapCryptoLoanUpdate/contracts/facets/VolumeGenerator.sol\":570:894  function swapExactBNBForEUSD(... */\n    tag_2:\n      callvalue\n      dup1\n      iszero\n      tag_17\n      jumpi\n      0x00\n      dup1\n      revert\n    tag_17:\n      pop\n      tag_18\n      0x04\n      dup1\n      calldatasize\n      sub\n      dup2\n      add\n      swap1\n      tag_19\n      swap2\n      swap1\n      tag_20\n      jump\t// in\n    tag_19:\n      tag_21\n      jump\t// in\n    tag_18:\n      stop\n        /* \"smart contract/SwapCryptoLoanUpdate/contracts/facets/VolumeGenerator.sol\":2467:2613  function addTokenLiquidity(uint amountIn, address token) external {... */\n    tag_3:\n      callvalue\n      dup1\n      iszero\n      tag_22\n      jumpi\n      0x00\n      dup1\n      revert\n    tag_22:\n      pop\n      tag_23\n      0x04\n      dup1\n      calldatasize\n      sub\n      dup2\n      add\n      swap1\n      tag_24\n      swap2\n      swap1\n      tag_25\n      jump\t// in\n    tag_24:\n      tag_26\n      jump\t// in\n    tag_23:\n      stop\n        /* \"smart contract/SwapCryptoLoanUpdate/contracts/facets/VolumeGenerator.sol\":3026:3072  function addBNBLiquidity() external payable {} */\n    tag_4:\n      tag_27\n      tag_28\n      jump\t// in\n    tag_27:\n      stop\n        /* \"smart contract/SwapCryptoLoanUpdate/contracts/facets/VolumeGenerator.sol\":2795:3020  function removeBNBLiquidity(... */\n    tag_5:\n      callvalue\n      dup1\n      iszero\n      tag_29\n      jumpi\n      0x00\n      dup1\n      revert\n    tag_29:\n      pop\n      tag_30\n      0x04\n      dup1\n      calldatasize\n      sub\n      dup2\n      add\n      swap1\n      tag_31\n      swap2\n      swap1\n      tag_32\n      jump\t// in\n    tag_31:\n      tag_33\n      jump\t// in\n    tag_30:\n      stop\n        /* \"smart contract/SwapCryptoLoanUpdate/contracts/facets/VolumeGenerator.sol\":2619:2789  function removeTokenLiquidity(... */\n    tag_6:\n      callvalue\n      dup1\n      iszero\n      tag_34\n      jumpi\n      0x00\n      dup1\n      revert\n    tag_34:\n      pop\n      tag_35\n      0x04\n      dup1\n      calldatasize\n      sub\n      dup2\n      add\n      swap1\n      tag_36\n      swap2\n      swap1\n      tag_37\n      jump\t// in\n    tag_36:\n      tag_38\n      jump\t// in\n    tag_35:\n      stop\n        /* \"smart contract/SwapCryptoLoanUpdate/contracts/extensions/Ownable.sol\":1286:1425  function renounceOwnership() external onlyOwner {... */\n    tag_7:\n      callvalue\n      dup1\n      iszero\n      tag_39\n      jumpi\n      0x00\n      dup1\n      revert\n    tag_39:\n      pop\n      tag_40\n      tag_41\n      jump\t// in\n    tag_40:\n      stop\n        /* \"smart contract/SwapCryptoLoanUpdate/contracts/facets/VolumeGenerator.sol\":900:1290  function swapExactEUSDforBNB(... */\n    tag_8:\n      callvalue\n      dup1\n      iszero\n      tag_42\n      jumpi\n      0x00\n      dup1\n      revert\n    tag_42:\n      pop\n      tag_43\n      0x04\n      dup1\n      calldatasize\n      sub\n      dup2\n      add\n      swap1\n      tag_44\n      swap2\n      swap1\n      tag_45\n      jump\t// in\n    tag_44:\n      tag_46\n      jump\t// in\n    tag_43:\n      stop\n        /* \"smart contract/SwapCryptoLoanUpdate/contracts/extensions/Ownable.sol\":499:578  function owner() external view returns (address) {... */\n    tag_9:\n      callvalue\n      dup1\n      iszero\n      tag_47\n      jumpi\n      0x00\n      dup1\n      revert\n    tag_47:\n      pop\n      tag_48\n      tag_49\n      jump\t// in\n    tag_48:\n      mload(0x40)\n      tag_50\n      swap2\n      swap1\n      tag_51\n      jump\t// in\n    tag_50:\n      mload(0x40)\n      dup1\n      swap2\n      sub\n      swap1\n      return\n        /* \"smart contract/SwapCryptoLoanUpdate/contracts/extensions/Ownable.sol\":852:942  function isOwner() public view returns (bool) {... */\n    tag_10:\n      callvalue\n      dup1\n      iszero\n      tag_52\n      jumpi\n      0x00\n      dup1\n      revert\n    tag_52:\n      pop\n      tag_53\n      tag_54\n      jump\t// in\n    tag_53:\n      mload(0x40)\n      tag_55\n      swap2\n      swap1\n      tag_56\n      jump\t// in\n    tag_55:\n      mload(0x40)\n      dup1\n      swap2\n      sub\n      swap1\n      return\n        /* \"smart contract/SwapCryptoLoanUpdate/contracts/facets/VolumeGenerator.sol\":1709:2116  function swapExactTokensForEUSD(... */\n    tag_11:\n      callvalue\n      dup1\n      iszero\n      tag_57\n      jumpi\n      0x00\n      dup1\n      revert\n    tag_57:\n      pop\n      tag_58\n      0x04\n      dup1\n      calldatasize\n      sub\n      dup2\n      add\n      swap1\n      tag_59\n      swap2\n      swap1\n      tag_60\n      jump\t// in\n    tag_59:\n      tag_61\n      jump\t// in\n    tag_58:\n      stop\n        /* \"smart contract/SwapCryptoLoanUpdate/contracts/facets/VolumeGenerator.sol\":1296:1703  function swapExactEUSDForTokens(... */\n    tag_12:\n      callvalue\n      dup1\n      iszero\n      tag_62\n      jumpi\n      0x00\n      dup1\n      revert\n    tag_62:\n      pop\n      tag_63\n      0x04\n      dup1\n      calldatasize\n      sub\n      dup2\n      add\n      swap1\n      tag_64\n      swap2\n      swap1\n      tag_60\n      jump\t// in\n    tag_64:\n      tag_65\n      jump\t// in\n    tag_63:\n      stop\n        /* \"smart contract/SwapCryptoLoanUpdate/contracts/facets/VolumeGenerator.sol\":2122:2461  function getAmountsOut(... */\n    tag_13:\n      callvalue\n      dup1\n      iszero\n      tag_66\n      jumpi\n      0x00\n      dup1\n      revert\n    tag_66:\n      pop\n      tag_67\n      0x04\n      dup1\n      calldatasize\n      sub\n      dup2\n      add\n      swap1\n      tag_68\n      swap2\n      swap1\n      tag_69\n      jump\t// in\n    tag_68:\n      tag_70\n      jump\t// in\n    tag_67:\n      mload(0x40)\n      tag_71\n      swap2\n      swap1\n      tag_72\n      jump\t// in\n    tag_71:\n      mload(0x40)\n      dup1\n      swap2\n      sub\n      swap1\n      return\n        /* \"smart contract/SwapCryptoLoanUpdate/contracts/extensions/Ownable.sol\":1574:1683  function transferOwnership(address newOwner) external onlyOwner {... */\n    tag_14:\n      callvalue\n      dup1\n      iszero\n      tag_73\n      jumpi\n      0x00\n      dup1\n      revert\n    tag_73:\n      pop\n      tag_74\n      0x04\n      dup1\n      calldatasize\n      sub\n      dup2\n      add\n      swap1\n      tag_75\n      swap2\n      swap1\n      tag_76\n      jump\t// in\n    tag_75:\n      tag_77\n      jump\t// in\n    tag_74:\n      stop\n        /* \"smart contract/SwapCryptoLoanUpdate/contracts/facets/VolumeGenerator.sol\":570:894  function swapExactBNBForEUSD(... */\n    tag_21:\n        /* \"smart contract/SwapCryptoLoanUpdate/contracts/facets/VolumeGenerator.sol\":752:767  _martGTPADDRESS */\n      0x01\n      0x00\n      swap1\n      sload\n      swap1\n      0x0100\n      exp\n      swap1\n      div\n      0xffffffffffffffffffffffffffffffffffffffff\n      and\n        /* \"smart contract/SwapCryptoLoanUpdate/contracts/facets/VolumeGenerator.sol\":739:788  IPancakeSwap(_martGTPADDRESS).swapExactBNBForEUSD */\n      0xffffffffffffffffffffffffffffffffffffffff\n      and\n      0xcf1d14dc\n        /* \"smart contract/SwapCryptoLoanUpdate/contracts/facets/VolumeGenerator.sol\":796:804  amountIn */\n      dup7\n        /* \"smart contract/SwapCryptoLoanUpdate/contracts/facets/VolumeGenerator.sol\":819:831  amountOutMin */\n      dup7\n        /* \"smart contract/SwapCryptoLoanUpdate/contracts/facets/VolumeGenerator.sol\":845:853  tokenOut */\n      dup7\n        /* \"smart contract/SwapCryptoLoanUpdate/contracts/facets/VolumeGenerator.sol\":867:877  routerPath */\n      dup7\n      dup7\n        /* \"smart contract/SwapCryptoLoanUpdate/contracts/facets/VolumeGenerator.sol\":739:887  IPancakeSwap(_martGTPADDRESS).swapExactBNBForEUSD{value: amountIn}(... */\n      mload(0x40)\n      dup7\n      0xffffffff\n      and\n      0xe0\n      shl\n      dup2\n      mstore\n      0x04\n      add\n      tag_79\n      swap5\n      swap4\n      swap3\n      swap2\n      swap1\n      tag_80\n      jump\t// in\n    tag_79:\n      0x00\n      mload(0x40)\n      dup1\n      dup4\n      sub\n      dup2\n      dup6\n      dup9\n      dup1\n      extcodesize\n      iszero\n      dup1\n      iszero\n      tag_81\n      jumpi\n      0x00\n      dup1\n      revert\n    tag_81:\n      pop\n      gas\n      call\n      iszero\n      dup1\n      iszero\n      tag_83\n      jumpi\n      returndatasize\n      0x00\n      dup1\n      returndatacopy\n      revert(0x00, returndatasize)\n    tag_83:\n      pop\n      pop\n      pop\n      pop\n      pop\n        /* \"smart contract/SwapCryptoLoanUpdate/contracts/facets/VolumeGenerator.sol\":570:894  function swapExactBNBForEUSD(... */\n      pop\n      pop\n      pop\n      pop\n      pop\n      jump\t// out\n        /* \"smart contract/SwapCryptoLoanUpdate/contracts/facets/VolumeGenerator.sol\":2467:2613  function addTokenLiquidity(uint amountIn, address token) external {... */\n    tag_26:\n        /* \"smart contract/SwapCryptoLoanUpdate/contracts/facets/VolumeGenerator.sol\":2550:2555  token */\n      dup1\n        /* \"smart contract/SwapCryptoLoanUpdate/contracts/facets/VolumeGenerator.sol\":2543:2569  IERC20(token).transferFrom */\n      0xffffffffffffffffffffffffffffffffffffffff\n      and\n      0x23b872dd\n        /* \"smart contract/SwapCryptoLoanUpdate/contracts/facets/VolumeGenerator.sol\":2570:2580  msg.sender */\n      caller\n        /* \"smart contract/SwapCryptoLoanUpdate/contracts/facets/VolumeGenerator.sol\":2590:2594  this */\n      address\n        /* \"smart contract/SwapCryptoLoanUpdate/contracts/facets/VolumeGenerator.sol\":2597:2605  amountIn */\n      dup6\n        /* \"smart contract/SwapCryptoLoanUpdate/contracts/facets/VolumeGenerator.sol\":2543:2606  IERC20(token).transferFrom(msg.sender, address(this), amountIn) */\n      mload(0x40)\n      dup5\n      0xffffffff\n      and\n      0xe0\n      shl\n      dup2\n      mstore\n      0x04\n      add\n      tag_85\n      swap4\n      swap3\n      swap2\n      swap1\n      tag_86\n      jump\t// in\n    tag_85:\n      0x20\n      mload(0x40)\n      dup1\n      dup4\n      sub\n      dup2\n      0x00\n      dup8\n      gas\n      call\n      iszero\n      dup1\n      iszero\n      tag_88\n      jumpi\n      returndatasize\n      0x00\n      dup1\n      returndatacopy\n      revert(0x00, returndatasize)\n    tag_88:\n      pop\n      pop\n      pop\n      pop\n      mload(0x40)\n      returndatasize\n      not(0x1f)\n      0x1f\n      dup3\n      add\n      and\n      dup3\n      add\n      dup1\n      0x40\n      mstore\n      pop\n      dup2\n      add\n      swap1\n      tag_89\n      swap2\n      swap1\n      tag_90\n      jump\t// in\n    tag_89:\n      pop\n        /* \"smart contract/SwapCryptoLoanUpdate/contracts/facets/VolumeGenerator.sol\":2467:2613  function addTokenLiquidity(uint amountIn, address token) external {... */\n      pop\n      pop\n      jump\t// out\n        /* \"smart contract/SwapCryptoLoanUpdate/contracts/facets/VolumeGenerator.sol\":3026:3072  function addBNBLiquidity() external payable {} */\n    tag_28:\n      jump\t// out\n        /* \"smart contract/SwapCryptoLoanUpdate/contracts/facets/VolumeGenerator.sol\":2795:3020  function removeBNBLiquidity(... */\n    tag_33:\n        /* \"smart contract/SwapCryptoLoanUpdate/contracts/extensions/Ownable.sol\":705:714  isOwner() */\n      tag_93\n        /* \"smart contract/SwapCryptoLoanUpdate/contracts/extensions/Ownable.sol\":705:712  isOwner */\n      tag_54\n        /* \"smart contract/SwapCryptoLoanUpdate/contracts/extensions/Ownable.sol\":705:714  isOwner() */\n      jump\t// in\n    tag_93:\n        /* \"smart contract/SwapCryptoLoanUpdate/contracts/extensions/Ownable.sol\":697:751  require(isOwner(), \"Ownable: caller is not the owner\") */\n      tag_94\n      jumpi\n      mload(0x40)\n      0x08c379a000000000000000000000000000000000000000000000000000000000\n      dup2\n      mstore\n      0x04\n      add\n      tag_95\n      swap1\n      tag_96\n      jump\t// in\n    tag_95:\n      mload(0x40)\n      dup1\n      swap2\n      sub\n      swap1\n      revert\n    tag_94:\n        /* \"smart contract/SwapCryptoLoanUpdate/contracts/facets/VolumeGenerator.sol\":2908:2917  bool sent */\n      0x00\n        /* \"smart contract/SwapCryptoLoanUpdate/contracts/facets/VolumeGenerator.sol\":2919:2936  bytes memory data */\n      dup1\n        /* \"smart contract/SwapCryptoLoanUpdate/contracts/facets/VolumeGenerator.sol\":2940:2942  to */\n      dup3\n        /* \"smart contract/SwapCryptoLoanUpdate/contracts/facets/VolumeGenerator.sol\":2940:2947  to.call */\n      0xffffffffffffffffffffffffffffffffffffffff\n      and\n        /* \"smart contract/SwapCryptoLoanUpdate/contracts/facets/VolumeGenerator.sol\":2955:2961  amount */\n      dup5\n        /* \"smart contract/SwapCryptoLoanUpdate/contracts/facets/VolumeGenerator.sol\":2940:2966  to.call{value: amount}(\"\") */\n      mload(0x40)\n      tag_98\n      swap1\n      tag_99\n      jump\t// in\n    tag_98:\n      0x00\n      mload(0x40)\n      dup1\n      dup4\n      sub\n      dup2\n      dup6\n      dup8\n      gas\n      call\n      swap3\n      pop\n      pop\n      pop\n      returndatasize\n      dup1\n      0x00\n      dup2\n      eq\n      tag_102\n      jumpi\n      mload(0x40)\n      swap2\n      pop\n      and(add(returndatasize, 0x3f), not(0x1f))\n      dup3\n      add\n      0x40\n      mstore\n      returndatasize\n      dup3\n      mstore\n      returndatasize\n      0x00\n      0x20\n      dup5\n      add\n      returndatacopy\n      jump(tag_101)\n    tag_102:\n      0x60\n      swap2\n      pop\n    tag_101:\n      pop\n        /* \"smart contract/SwapCryptoLoanUpdate/contracts/facets/VolumeGenerator.sol\":2907:2966  (bool sent, bytes memory data) = to.call{value: amount}(\"\") */\n      swap2\n      pop\n      swap2\n      pop\n        /* \"smart contract/SwapCryptoLoanUpdate/contracts/facets/VolumeGenerator.sol\":2984:2988  sent */\n      dup2\n        /* \"smart contract/SwapCryptoLoanUpdate/contracts/facets/VolumeGenerator.sol\":2976:3013  require(sent, \"Failed to send Ether\") */\n      tag_103\n      jumpi\n      mload(0x40)\n      0x08c379a000000000000000000000000000000000000000000000000000000000\n      dup2\n      mstore\n      0x04\n      add\n      tag_104\n      swap1\n      tag_105\n      jump\t// in\n    tag_104:\n      mload(0x40)\n      dup1\n      swap2\n      sub\n      swap1\n      revert\n    tag_103:\n        /* \"smart contract/SwapCryptoLoanUpdate/contracts/facets/VolumeGenerator.sol\":2897:3020  {... */\n      pop\n      pop\n        /* \"smart contract/SwapCryptoLoanUpdate/contracts/facets/VolumeGenerator.sol\":2795:3020  function removeBNBLiquidity(... */\n      pop\n      pop\n      jump\t// out\n        /* \"smart contract/SwapCryptoLoanUpdate/contracts/facets/VolumeGenerator.sol\":2619:2789  function removeTokenLiquidity(... */\n    tag_38:\n        /* \"smart contract/SwapCryptoLoanUpdate/contracts/extensions/Ownable.sol\":705:714  isOwner() */\n      tag_107\n        /* \"smart contract/SwapCryptoLoanUpdate/contracts/extensions/Ownable.sol\":705:712  isOwner */\n      tag_54\n        /* \"smart contract/SwapCryptoLoanUpdate/contracts/extensions/Ownable.sol\":705:714  isOwner() */\n      jump\t// in\n    tag_107:\n        /* \"smart contract/SwapCryptoLoanUpdate/contracts/extensions/Ownable.sol\":697:751  require(isOwner(), \"Ownable: caller is not the owner\") */\n      tag_108\n      jumpi\n      mload(0x40)\n      0x08c379a000000000000000000000000000000000000000000000000000000000\n      dup2\n      mstore\n      0x04\n      add\n      tag_109\n      swap1\n      tag_96\n      jump\t// in\n    tag_109:\n      mload(0x40)\n      dup1\n      swap2\n      sub\n      swap1\n      revert\n    tag_108:\n        /* \"smart contract/SwapCryptoLoanUpdate/contracts/facets/VolumeGenerator.sol\":2755:2760  token */\n      dup2\n        /* \"smart contract/SwapCryptoLoanUpdate/contracts/facets/VolumeGenerator.sol\":2748:2770  IERC20(token).transfer */\n      0xffffffffffffffffffffffffffffffffffffffff\n      and\n      0xa9059cbb\n        /* \"smart contract/SwapCryptoLoanUpdate/contracts/facets/VolumeGenerator.sol\":2771:2773  to */\n      dup3\n        /* \"smart contract/SwapCryptoLoanUpdate/contracts/facets/VolumeGenerator.sol\":2775:2781  amount */\n      dup6\n        /* \"smart contract/SwapCryptoLoanUpdate/contracts/facets/VolumeGenerator.sol\":2748:2782  IERC20(token).transfer(to, amount) */\n      mload(0x40)\n      dup4\n      0xffffffff\n      and\n      0xe0\n      shl\n      dup2\n      mstore\n      0x04\n      add\n      tag_111\n      swap3\n      swap2\n      swap1\n      tag_112\n      jump\t// in\n    tag_111:\n      0x20\n      mload(0x40)\n      dup1\n      dup4\n      sub\n      dup2\n      0x00\n      dup8\n      gas\n      call\n      iszero\n      dup1\n      iszero\n      tag_114\n      jumpi\n      returndatasize\n      0x00\n      dup1\n      returndatacopy\n      revert(0x00, returndatasize)\n    tag_114:\n      pop\n      pop\n      pop\n      pop\n      mload(0x40)\n      returndatasize\n      not(0x1f)\n      0x1f\n      dup3\n      add\n      and\n      dup3\n      add\n      dup1\n      0x40\n      mstore\n      pop\n      dup2\n      add\n      swap1\n      tag_115\n      swap2\n      swap1\n      tag_90\n      jump\t// in\n    tag_115:\n      pop\n        /* \"smart contract/SwapCryptoLoanUpdate/contracts/facets/VolumeGenerator.sol\":2619:2789  function removeTokenLiquidity(... */\n      pop\n      pop\n      pop\n      jump\t// out\n        /* \"smart contract/SwapCryptoLoanUpdate/contracts/extensions/Ownable.sol\":1286:1425  function renounceOwnership() external onlyOwner {... */\n    tag_41:\n        /* \"smart contract/SwapCryptoLoanUpdate/contracts/extensions/Ownable.sol\":705:714  isOwner() */\n      tag_117\n        /* \"smart contract/SwapCryptoLoanUpdate/contracts/extensions/Ownable.sol\":705:712  isOwner */\n      tag_54\n        /* \"smart contract/SwapCryptoLoanUpdate/contracts/extensions/Ownable.sol\":705:714  isOwner() */\n      jump\t// in\n    tag_117:\n        /* \"smart contract/SwapCryptoLoanUpdate/contracts/extensions/Ownable.sol\":697:751  require(isOwner(), \"Ownable: caller is not the owner\") */\n      tag_118\n      jumpi\n      mload(0x40)\n      0x08c379a000000000000000000000000000000000000000000000000000000000\n      dup2\n      mstore\n      0x04\n      add\n      tag_119\n      swap1\n      tag_96\n      jump\t// in\n    tag_119:\n      mload(0x40)\n      dup1\n      swap2\n      sub\n      swap1\n      revert\n    tag_118:\n        /* \"smart contract/SwapCryptoLoanUpdate/contracts/extensions/Ownable.sol\":1386:1387  0 */\n      0x00\n        /* \"smart contract/SwapCryptoLoanUpdate/contracts/extensions/Ownable.sol\":1349:1389  OwnershipTransferred(_owner, address(0)) */\n      0xffffffffffffffffffffffffffffffffffffffff\n      and\n        /* \"smart contract/SwapCryptoLoanUpdate/contracts/extensions/Ownable.sol\":1370:1376  _owner */\n      0x00\n      dup1\n      sload\n      swap1\n      0x0100\n      exp\n      swap1\n      div\n      0xffffffffffffffffffffffffffffffffffffffff\n      and\n        /* \"smart contract/SwapCryptoLoanUpdate/contracts/extensions/Ownable.sol\":1349:1389  OwnershipTransferred(_owner, address(0)) */\n      0xffffffffffffffffffffffffffffffffffffffff\n      and\n      0x8be0079c531659141344cd1fd0a4f28419497f9722a3daafe3b4186f6b6457e0\n      mload(0x40)\n      mload(0x40)\n      dup1\n      swap2\n      sub\n      swap1\n      log3\n        /* \"smart contract/SwapCryptoLoanUpdate/contracts/extensions/Ownable.sol\":1416:1417  0 */\n      0x00\n        /* \"smart contract/SwapCryptoLoanUpdate/contracts/extensions/Ownable.sol\":1399:1405  _owner */\n      dup1\n      0x00\n        /* \"smart contract/SwapCryptoLoanUpdate/contracts/extensions/Ownable.sol\":1399:1418  _owner = address(0) */\n      0x0100\n      exp\n      dup2\n      sload\n      dup2\n      0xffffffffffffffffffffffffffffffffffffffff\n      mul\n      not\n      and\n      swap1\n      dup4\n      0xffffffffffffffffffffffffffffffffffffffff\n      and\n      mul\n      or\n      swap1\n      sstore\n      pop\n        /* \"smart contract/SwapCryptoLoanUpdate/contracts/extensions/Ownable.sol\":1286:1425  function renounceOwnership() external onlyOwner {... */\n      jump\t// out\n        /* \"smart contract/SwapCryptoLoanUpdate/contracts/facets/VolumeGenerator.sol\":900:1290  function swapExactEUSDforBNB(... */\n    tag_46:\n        /* \"smart contract/SwapCryptoLoanUpdate/contracts/facets/VolumeGenerator.sol\":1073:1078  token */\n      dup5\n        /* \"smart contract/SwapCryptoLoanUpdate/contracts/facets/VolumeGenerator.sol\":1066:1087  IERC20(token).approve */\n      0xffffffffffffffffffffffffffffffffffffffff\n      and\n      0x095ea7b3\n        /* \"smart contract/SwapCryptoLoanUpdate/contracts/facets/VolumeGenerator.sol\":1096:1111  _martGTPADDRESS */\n      0x01\n      0x00\n      swap1\n      sload\n      swap1\n      0x0100\n      exp\n      swap1\n      div\n      0xffffffffffffffffffffffffffffffffffffffff\n      and\n        /* \"smart contract/SwapCryptoLoanUpdate/contracts/facets/VolumeGenerator.sol\":1114:1122  amountIn */\n      dup7\n        /* \"smart contract/SwapCryptoLoanUpdate/contracts/facets/VolumeGenerator.sol\":1066:1123  IERC20(token).approve(address(_martGTPADDRESS), amountIn) */\n      mload(0x40)\n      dup4\n      0xffffffff\n      and\n      0xe0\n      shl\n      dup2\n      mstore\n      0x04\n      add\n      tag_122\n      swap3\n      swap2\n      swap1\n      tag_112\n      jump\t// in\n    tag_122:\n      0x20\n      mload(0x40)\n      dup1\n      dup4\n      sub\n      dup2\n      0x00\n      dup8\n      gas\n      call\n      iszero\n      dup1\n      iszero\n      tag_124\n      jumpi\n      returndatasize\n      0x00\n      dup1\n      returndatacopy\n      revert(0x00, returndatasize)\n    tag_124:\n      pop\n      pop\n      pop\n      pop\n      mload(0x40)\n      returndatasize\n      not(0x1f)\n      0x1f\n      dup3\n      add\n      and\n      dup3\n      add\n      dup1\n      0x40\n      mstore\n      pop\n      dup2\n      add\n      swap1\n      tag_125\n      swap2\n      swap1\n      tag_90\n      jump\t// in\n    tag_125:\n      pop\n        /* \"smart contract/SwapCryptoLoanUpdate/contracts/facets/VolumeGenerator.sol\":1146:1161  _martGTPADDRESS */\n      0x01\n      0x00\n      swap1\n      sload\n      swap1\n      0x0100\n      exp\n      swap1\n      div\n      0xffffffffffffffffffffffffffffffffffffffff\n      and\n        /* \"smart contract/SwapCryptoLoanUpdate/contracts/facets/VolumeGenerator.sol\":1133:1182  IPancakeSwap(_martGTPADDRESS).swapExactEUSDforBNB */\n      0xffffffffffffffffffffffffffffffffffffffff\n      and\n      0x82382e88\n        /* \"smart contract/SwapCryptoLoanUpdate/contracts/facets/VolumeGenerator.sol\":1196:1201  token */\n      dup7\n        /* \"smart contract/SwapCryptoLoanUpdate/contracts/facets/VolumeGenerator.sol\":1215:1223  amountIn */\n      dup7\n        /* \"smart contract/SwapCryptoLoanUpdate/contracts/facets/VolumeGenerator.sol\":1237:1249  amountOutMin */\n      dup7\n        /* \"smart contract/SwapCryptoLoanUpdate/contracts/facets/VolumeGenerator.sol\":1263:1273  routerPath */\n      dup7\n      dup7\n        /* \"smart contract/SwapCryptoLoanUpdate/contracts/facets/VolumeGenerator.sol\":1133:1283  IPancakeSwap(_martGTPADDRESS).swapExactEUSDforBNB(... */\n      mload(0x40)\n      dup7\n      0xffffffff\n      and\n      0xe0\n      shl\n      dup2\n      mstore\n      0x04\n      add\n      tag_126\n      swap6\n      swap5\n      swap4\n      swap3\n      swap2\n      swap1\n      tag_127\n      jump\t// in\n    tag_126:\n      0x00\n      mload(0x40)\n      dup1\n      dup4\n      sub\n      dup2\n      0x00\n      dup8\n      dup1\n      extcodesize\n      iszero\n      dup1\n      iszero\n      tag_128\n      jumpi\n      0x00\n      dup1\n      revert\n    tag_128:\n      pop\n      gas\n      call\n      iszero\n      dup1\n      iszero\n      tag_130\n      jumpi\n      returndatasize\n      0x00\n      dup1\n      returndatacopy\n      revert(0x00, returndatasize)\n    tag_130:\n      pop\n      pop\n      pop\n      pop\n        /* \"smart contract/SwapCryptoLoanUpdate/contracts/facets/VolumeGenerator.sol\":900:1290  function swapExactEUSDforBNB(... */\n      pop\n      pop\n      pop\n      pop\n      pop\n      jump\t// out\n        /* \"smart contract/SwapCryptoLoanUpdate/contracts/extensions/Ownable.sol\":499:578  function owner() external view returns (address) {... */\n    tag_49:\n        /* \"smart contract/SwapCryptoLoanUpdate/contracts/extensions/Ownable.sol\":539:546  address */\n      0x00\n        /* \"smart contract/SwapCryptoLoanUpdate/contracts/extensions/Ownable.sol\":565:571  _owner */\n      dup1\n      0x00\n      swap1\n      sload\n      swap1\n      0x0100\n      exp\n      swap1\n      div\n      0xffffffffffffffffffffffffffffffffffffffff\n      and\n        /* \"smart contract/SwapCryptoLoanUpdate/contracts/extensions/Ownable.sol\":558:571  return _owner */\n      swap1\n      pop\n        /* \"smart contract/SwapCryptoLoanUpdate/contracts/extensions/Ownable.sol\":499:578  function owner() external view returns (address) {... */\n      swap1\n      jump\t// out\n        /* \"smart contract/SwapCryptoLoanUpdate/contracts/extensions/Ownable.sol\":852:942  function isOwner() public view returns (bool) {... */\n    tag_54:\n        /* \"smart contract/SwapCryptoLoanUpdate/contracts/extensions/Ownable.sol\":892:896  bool */\n      0x00\n        /* \"smart contract/SwapCryptoLoanUpdate/contracts/extensions/Ownable.sol\":929:935  _owner */\n      dup1\n      0x00\n      swap1\n      sload\n      swap1\n      0x0100\n      exp\n      swap1\n      div\n      0xffffffffffffffffffffffffffffffffffffffff\n      and\n        /* \"smart contract/SwapCryptoLoanUpdate/contracts/extensions/Ownable.sol\":915:935  msg.sender == _owner */\n      0xffffffffffffffffffffffffffffffffffffffff\n      and\n        /* \"smart contract/SwapCryptoLoanUpdate/contracts/extensions/Ownable.sol\":915:925  msg.sender */\n      caller\n        /* \"smart contract/SwapCryptoLoanUpdate/contracts/extensions/Ownable.sol\":915:935  msg.sender == _owner */\n      0xffffffffffffffffffffffffffffffffffffffff\n      and\n      eq\n        /* \"smart contract/SwapCryptoLoanUpdate/contracts/extensions/Ownable.sol\":908:935  return msg.sender == _owner */\n      swap1\n      pop\n        /* \"smart contract/SwapCryptoLoanUpdate/contracts/extensions/Ownable.sol\":852:942  function isOwner() public view returns (bool) {... */\n      swap1\n      jump\t// out\n        /* \"smart contract/SwapCryptoLoanUpdate/contracts/facets/VolumeGenerator.sol\":1709:2116  function swapExactTokensForEUSD(... */\n    tag_61:\n        /* \"smart contract/SwapCryptoLoanUpdate/contracts/facets/VolumeGenerator.sol\":1895:1899  path */\n      dup4\n      dup4\n        /* \"smart contract/SwapCryptoLoanUpdate/contracts/facets/VolumeGenerator.sol\":1900:1901  0 */\n      0x00\n        /* \"smart contract/SwapCryptoLoanUpdate/contracts/facets/VolumeGenerator.sol\":1895:1902  path[0] */\n      dup2\n      dup2\n      lt\n      tag_134\n      jumpi\n      tag_135\n      tag_136\n      jump\t// in\n    tag_135:\n    tag_134:\n      swap1\n      pop\n      0x20\n      mul\n      add\n      0x20\n      dup2\n      add\n      swap1\n      tag_137\n      swap2\n      swap1\n      tag_76\n      jump\t// in\n    tag_137:\n        /* \"smart contract/SwapCryptoLoanUpdate/contracts/facets/VolumeGenerator.sol\":1888:1911  IERC20(path[0]).approve */\n      0xffffffffffffffffffffffffffffffffffffffff\n      and\n      0x095ea7b3\n        /* \"smart contract/SwapCryptoLoanUpdate/contracts/facets/VolumeGenerator.sol\":1920:1935  _martGTPADDRESS */\n      0x01\n      0x00\n      swap1\n      sload\n      swap1\n      0x0100\n      exp\n      swap1\n      div\n      0xffffffffffffffffffffffffffffffffffffffff\n      and\n        /* \"smart contract/SwapCryptoLoanUpdate/contracts/facets/VolumeGenerator.sol\":1938:1946  amountIn */\n      dup9\n        /* \"smart contract/SwapCryptoLoanUpdate/contracts/facets/VolumeGenerator.sol\":1888:1947  IERC20(path[0]).approve(address(_martGTPADDRESS), amountIn) */\n      mload(0x40)\n      dup4\n      0xffffffff\n      and\n      0xe0\n      shl\n      dup2\n      mstore\n      0x04\n      add\n      tag_138\n      swap3\n      swap2\n      swap1\n      tag_112\n      jump\t// in\n    tag_138:\n      0x20\n      mload(0x40)\n      dup1\n      dup4\n      sub\n      dup2\n      0x00\n      dup8\n      gas\n      call\n      iszero\n      dup1\n      iszero\n      tag_140\n      jumpi\n      returndatasize\n      0x00\n      dup1\n      returndatacopy\n      revert(0x00, returndatasize)\n    tag_140:\n      pop\n      pop\n      pop\n      pop\n      mload(0x40)\n      returndatasize\n      not(0x1f)\n      0x1f\n      dup3\n      add\n      and\n      dup3\n      add\n      dup1\n      0x40\n      mstore\n      pop\n      dup2\n      add\n      swap1\n      tag_141\n      swap2\n      swap1\n      tag_90\n      jump\t// in\n    tag_141:\n      pop\n        /* \"smart contract/SwapCryptoLoanUpdate/contracts/facets/VolumeGenerator.sol\":1970:1985  _martGTPADDRESS */\n      0x01\n      0x00\n      swap1\n      sload\n      swap1\n      0x0100\n      exp\n      swap1\n      div\n      0xffffffffffffffffffffffffffffffffffffffff\n      and\n        /* \"smart contract/SwapCryptoLoanUpdate/contracts/facets/VolumeGenerator.sol\":1957:2009  IPancakeSwap(_martGTPADDRESS).swapExactTokensForEUSD */\n      0xffffffffffffffffffffffffffffffffffffffff\n      and\n      0x9c48a3c3\n        /* \"smart contract/SwapCryptoLoanUpdate/contracts/facets/VolumeGenerator.sol\":2023:2031  amountIn */\n      dup8\n        /* \"smart contract/SwapCryptoLoanUpdate/contracts/facets/VolumeGenerator.sol\":2045:2057  amountOutMin */\n      dup8\n        /* \"smart contract/SwapCryptoLoanUpdate/contracts/facets/VolumeGenerator.sol\":2071:2075  path */\n      dup8\n      dup8\n        /* \"smart contract/SwapCryptoLoanUpdate/contracts/facets/VolumeGenerator.sol\":2089:2099  routerPath */\n      dup8\n      dup8\n        /* \"smart contract/SwapCryptoLoanUpdate/contracts/facets/VolumeGenerator.sol\":1957:2109  IPancakeSwap(_martGTPADDRESS).swapExactTokensForEUSD(... */\n      mload(0x40)\n      dup8\n      0xffffffff\n      and\n      0xe0\n      shl\n      dup2\n      mstore\n      0x04\n      add\n      tag_142\n      swap7\n      swap6\n      swap5\n      swap4\n      swap3\n      swap2\n      swap1\n      tag_143\n      jump\t// in\n    tag_142:\n      0x00\n      mload(0x40)\n      dup1\n      dup4\n      sub\n      dup2\n      0x00\n      dup8\n      dup1\n      extcodesize\n      iszero\n      dup1\n      iszero\n      tag_144\n      jumpi\n      0x00\n      dup1\n      revert\n    tag_144:\n      pop\n      gas\n      call\n      iszero\n      dup1\n      iszero\n      tag_146\n      jumpi\n      returndatasize\n      0x00\n      dup1\n      returndatacopy\n      revert(0x00, returndatasize)\n    tag_146:\n      pop\n      pop\n      pop\n      pop\n        /* \"smart contract/SwapCryptoLoanUpdate/contracts/facets/VolumeGenerator.sol\":1709:2116  function swapExactTokensForEUSD(... */\n      pop\n      pop\n      pop\n      pop\n      pop\n      pop\n      jump\t// out\n        /* \"smart contract/SwapCryptoLoanUpdate/contracts/facets/VolumeGenerator.sol\":1296:1703  function swapExactEUSDForTokens(... */\n    tag_65:\n        /* \"smart contract/SwapCryptoLoanUpdate/contracts/facets/VolumeGenerator.sol\":1482:1486  path */\n      dup4\n      dup4\n        /* \"smart contract/SwapCryptoLoanUpdate/contracts/facets/VolumeGenerator.sol\":1487:1488  0 */\n      0x00\n        /* \"smart contract/SwapCryptoLoanUpdate/contracts/facets/VolumeGenerator.sol\":1482:1489  path[0] */\n      dup2\n      dup2\n      lt\n      tag_148\n      jumpi\n      tag_149\n      tag_136\n      jump\t// in\n    tag_149:\n    tag_148:\n      swap1\n      pop\n      0x20\n      mul\n      add\n      0x20\n      dup2\n      add\n      swap1\n      tag_150\n      swap2\n      swap1\n      tag_76\n      jump\t// in\n    tag_150:\n        /* \"smart contract/SwapCryptoLoanUpdate/contracts/facets/VolumeGenerator.sol\":1475:1498  IERC20(path[0]).approve */\n      0xffffffffffffffffffffffffffffffffffffffff\n      and\n      0x095ea7b3\n        /* \"smart contract/SwapCryptoLoanUpdate/contracts/facets/VolumeGenerator.sol\":1507:1522  _martGTPADDRESS */\n      0x01\n      0x00\n      swap1\n      sload\n      swap1\n      0x0100\n      exp\n      swap1\n      div\n      0xffffffffffffffffffffffffffffffffffffffff\n      and\n        /* \"smart contract/SwapCryptoLoanUpdate/contracts/facets/VolumeGenerator.sol\":1525:1533  amountIn */\n      dup9\n        /* \"smart contract/SwapCryptoLoanUpdate/contracts/facets/VolumeGenerator.sol\":1475:1534  IERC20(path[0]).approve(address(_martGTPADDRESS), amountIn) */\n      mload(0x40)\n      dup4\n      0xffffffff\n      and\n      0xe0\n      shl\n      dup2\n      mstore\n      0x04\n      add\n      tag_151\n      swap3\n      swap2\n      swap1\n      tag_112\n      jump\t// in\n    tag_151:\n      0x20\n      mload(0x40)\n      dup1\n      dup4\n      sub\n      dup2\n      0x00\n      dup8\n      gas\n      call\n      iszero\n      dup1\n      iszero\n      tag_153\n      jumpi\n      returndatasize\n      0x00\n      dup1\n      returndatacopy\n      revert(0x00, returndatasize)\n    tag_153:\n      pop\n      pop\n      pop\n      pop\n      mload(0x40)\n      returndatasize\n      not(0x1f)\n      0x1f\n      dup3\n      add\n      and\n      dup3\n      add\n      dup1\n      0x40\n      mstore\n      pop\n      dup2\n      add\n      swap1\n      tag_154\n      swap2\n      swap1\n      tag_90\n      jump\t// in\n    tag_154:\n      pop\n        /* \"smart contract/SwapCryptoLoanUpdate/contracts/facets/VolumeGenerator.sol\":1557:1572  _martGTPADDRESS */\n      0x01\n      0x00\n      swap1\n      sload\n      swap1\n      0x0100\n      exp\n      swap1\n      div\n      0xffffffffffffffffffffffffffffffffffffffff\n      and\n        /* \"smart contract/SwapCryptoLoanUpdate/contracts/facets/VolumeGenerator.sol\":1544:1596  IPancakeSwap(_martGTPADDRESS).swapExactEUSDForTokens */\n      0xffffffffffffffffffffffffffffffffffffffff\n      and\n      0x9f593c33\n        /* \"smart contract/SwapCryptoLoanUpdate/contracts/facets/VolumeGenerator.sol\":1610:1618  amountIn */\n      dup8\n        /* \"smart contract/SwapCryptoLoanUpdate/contracts/facets/VolumeGenerator.sol\":1632:1644  amountOutMin */\n      dup8\n        /* \"smart contract/SwapCryptoLoanUpdate/contracts/facets/VolumeGenerator.sol\":1658:1662  path */\n      dup8\n      dup8\n        /* \"smart contract/SwapCryptoLoanUpdate/contracts/facets/VolumeGenerator.sol\":1676:1686  routerPath */\n      dup8\n      dup8\n        /* \"smart contract/SwapCryptoLoanUpdate/contracts/facets/VolumeGenerator.sol\":1544:1696  IPancakeSwap(_martGTPADDRESS).swapExactEUSDForTokens(... */\n      mload(0x40)\n      dup8\n      0xffffffff\n      and\n      0xe0\n      shl\n      dup2\n      mstore\n      0x04\n      add\n      tag_155\n      swap7\n      swap6\n      swap5\n      swap4\n      swap3\n      swap2\n      swap1\n      tag_143\n      jump\t// in\n    tag_155:\n      0x00\n      mload(0x40)\n      dup1\n      dup4\n      sub\n      dup2\n      0x00\n      dup8\n      dup1\n      extcodesize\n      iszero\n      dup1\n      iszero\n      tag_156\n      jumpi\n      0x00\n      dup1\n      revert\n    tag_156:\n      pop\n      gas\n      call\n      iszero\n      dup1\n      iszero\n      tag_158\n      jumpi\n      returndatasize\n      0x00\n      dup1\n      returndatacopy\n      revert(0x00, returndatasize)\n    tag_158:\n      pop\n      pop\n      pop\n      pop\n        /* \"smart contract/SwapCryptoLoanUpdate/contracts/facets/VolumeGenerator.sol\":1296:1703  function swapExactEUSDForTokens(... */\n      pop\n      pop\n      pop\n      pop\n      pop\n      pop\n      jump\t// out\n        /* \"smart contract/SwapCryptoLoanUpdate/contracts/facets/VolumeGenerator.sol\":2122:2461  function getAmountsOut(... */\n    tag_70:\n        /* \"smart contract/SwapCryptoLoanUpdate/contracts/facets/VolumeGenerator.sol\":2269:2290  uint[] memory amounts */\n      0x60\n        /* \"smart contract/SwapCryptoLoanUpdate/contracts/facets/VolumeGenerator.sol\":2334:2349  _martGTPADDRESS */\n      0x01\n      0x00\n      swap1\n      sload\n      swap1\n      0x0100\n      exp\n      swap1\n      div\n      0xffffffffffffffffffffffffffffffffffffffff\n      and\n        /* \"smart contract/SwapCryptoLoanUpdate/contracts/facets/VolumeGenerator.sol\":2321:2364  IPancakeSwap(_martGTPADDRESS).getAmountsOut */\n      0xffffffffffffffffffffffffffffffffffffffff\n      and\n      0xa8312b1d\n        /* \"smart contract/SwapCryptoLoanUpdate/contracts/facets/VolumeGenerator.sol\":2382:2390  amountIn */\n      dup8\n        /* \"smart contract/SwapCryptoLoanUpdate/contracts/facets/VolumeGenerator.sol\":2408:2412  path */\n      dup8\n      dup8\n        /* \"smart contract/SwapCryptoLoanUpdate/contracts/facets/VolumeGenerator.sol\":2430:2440  routerPath */\n      dup8\n      dup8\n        /* \"smart contract/SwapCryptoLoanUpdate/contracts/facets/VolumeGenerator.sol\":2321:2454  IPancakeSwap(_martGTPADDRESS).getAmountsOut(... */\n      mload(0x40)\n      dup7\n      0xffffffff\n      and\n      0xe0\n      shl\n      dup2\n      mstore\n      0x04\n      add\n      tag_160\n      swap6\n      swap5\n      swap4\n      swap3\n      swap2\n      swap1\n      tag_161\n      jump\t// in\n    tag_160:\n      0x00\n      mload(0x40)\n      dup1\n      dup4\n      sub\n      dup2\n      dup7\n      gas\n      staticcall\n      iszero\n      dup1\n      iszero\n      tag_163\n      jumpi\n      returndatasize\n      0x00\n      dup1\n      returndatacopy\n      revert(0x00, returndatasize)\n    tag_163:\n      pop\n      pop\n      pop\n      pop\n      mload(0x40)\n      returndatasize\n      0x00\n      dup3\n      returndatacopy\n      returndatasize\n      not(0x1f)\n      0x1f\n      dup3\n      add\n      and\n      dup3\n      add\n      dup1\n      0x40\n      mstore\n      pop\n      dup2\n      add\n      swap1\n      tag_164\n      swap2\n      swap1\n      tag_165\n      jump\t// in\n    tag_164:\n        /* \"smart contract/SwapCryptoLoanUpdate/contracts/facets/VolumeGenerator.sol\":2302:2454  return... */\n      swap1\n      pop\n        /* \"smart contract/SwapCryptoLoanUpdate/contracts/facets/VolumeGenerator.sol\":2122:2461  function getAmountsOut(... */\n      swap6\n      swap5\n      pop\n      pop\n      pop\n      pop\n      pop\n      jump\t// out\n        /* \"smart contract/SwapCryptoLoanUpdate/contracts/extensions/Ownable.sol\":1574:1683  function transferOwnership(address newOwner) external onlyOwner {... */\n    tag_77:\n        /* \"smart contract/SwapCryptoLoanUpdate/contracts/extensions/Ownable.sol\":705:714  isOwner() */\n      tag_167\n        /* \"smart contract/SwapCryptoLoanUpdate/contracts/extensions/Ownable.sol\":705:712  isOwner */\n      tag_54\n        /* \"smart contract/SwapCryptoLoanUpdate/contracts/extensions/Ownable.sol\":705:714  isOwner() */\n      jump\t// in\n    tag_167:\n        /* \"smart contract/SwapCryptoLoanUpdate/contracts/extensions/Ownable.sol\":697:751  require(isOwner(), \"Ownable: caller is not the owner\") */\n      tag_168\n      jumpi\n      mload(0x40)\n      0x08c379a000000000000000000000000000000000000000000000000000000000\n      dup2\n      mstore\n      0x04\n      add\n      tag_169\n      swap1\n      tag_96\n      jump\t// in\n    tag_169:\n      mload(0x40)\n      dup1\n      swap2\n      sub\n      swap1\n      revert\n    tag_168:\n        /* \"smart contract/SwapCryptoLoanUpdate/contracts/extensions/Ownable.sol\":1648:1676  _transferOwnership(newOwner) */\n      tag_171\n        /* \"smart contract/SwapCryptoLoanUpdate/contracts/extensions/Ownable.sol\":1667:1675  newOwner */\n      dup2\n        /* \"smart contract/SwapCryptoLoanUpdate/contracts/extensions/Ownable.sol\":1648:1666  _transferOwnership */\n      tag_172\n        /* \"smart contract/SwapCryptoLoanUpdate/contracts/extensions/Ownable.sol\":1648:1676  _transferOwnership(newOwner) */\n      jump\t// in\n    tag_171:\n        /* \"smart contract/SwapCryptoLoanUpdate/contracts/extensions/Ownable.sol\":1574:1683  function transferOwnership(address newOwner) external onlyOwner {... */\n      pop\n      jump\t// out\n        /* \"smart contract/SwapCryptoLoanUpdate/contracts/extensions/Ownable.sol\":1784:2043  function _transferOwnership(address newOwner) internal {... */\n    tag_172:\n        /* \"smart contract/SwapCryptoLoanUpdate/contracts/extensions/Ownable.sol\":1890:1891  0 */\n      0x00\n        /* \"smart contract/SwapCryptoLoanUpdate/contracts/extensions/Ownable.sol\":1870:1892  newOwner != address(0) */\n      0xffffffffffffffffffffffffffffffffffffffff\n      and\n        /* \"smart contract/SwapCryptoLoanUpdate/contracts/extensions/Ownable.sol\":1870:1878  newOwner */\n      dup2\n        /* \"smart contract/SwapCryptoLoanUpdate/contracts/extensions/Ownable.sol\":1870:1892  newOwner != address(0) */\n      0xffffffffffffffffffffffffffffffffffffffff\n      and\n      sub\n        /* \"smart contract/SwapCryptoLoanUpdate/contracts/extensions/Ownable.sol\":1849:1956  require(... */\n      tag_174\n      jumpi\n      mload(0x40)\n      0x08c379a000000000000000000000000000000000000000000000000000000000\n      dup2\n      mstore\n      0x04\n      add\n      tag_175\n      swap1\n      tag_176\n      jump\t// in\n    tag_175:\n      mload(0x40)\n      dup1\n      swap2\n      sub\n      swap1\n      revert\n    tag_174:\n        /* \"smart contract/SwapCryptoLoanUpdate/contracts/extensions/Ownable.sol\":2000:2008  newOwner */\n      dup1\n        /* \"smart contract/SwapCryptoLoanUpdate/contracts/extensions/Ownable.sol\":1971:2009  OwnershipTransferred(_owner, newOwner) */\n      0xffffffffffffffffffffffffffffffffffffffff\n      and\n        /* \"smart contract/SwapCryptoLoanUpdate/contracts/extensions/Ownable.sol\":1992:1998  _owner */\n      0x00\n      dup1\n      sload\n      swap1\n      0x0100\n      exp\n      swap1\n      div\n      0xffffffffffffffffffffffffffffffffffffffff\n      and\n        /* \"smart contract/SwapCryptoLoanUpdate/contracts/extensions/Ownable.sol\":1971:2009  OwnershipTransferred(_owner, newOwner) */\n      0xffffffffffffffffffffffffffffffffffffffff\n      and\n      0x8be0079c531659141344cd1fd0a4f28419497f9722a3daafe3b4186f6b6457e0\n      mload(0x40)\n      mload(0x40)\n      dup1\n      swap2\n      sub\n      swap1\n      log3\n        /* \"smart contract/SwapCryptoLoanUpdate/contracts/extensions/Ownable.sol\":2028:2036  newOwner */\n      dup1\n        /* \"smart contract/SwapCryptoLoanUpdate/contracts/extensions/Ownable.sol\":2019:2025  _owner */\n      0x00\n      dup1\n        /* \"smart contract/SwapCryptoLoanUpdate/contracts/extensions/Ownable.sol\":2019:2036  _owner = newOwner */\n      0x0100\n      exp\n      dup2\n      sload\n      dup2\n      0xffffffffffffffffffffffffffffffffffffffff\n      mul\n      not\n      and\n      swap1\n      dup4\n      0xffffffffffffffffffffffffffffffffffffffff\n      and\n      mul\n      or\n      swap1\n      sstore\n      pop\n        /* \"smart contract/SwapCryptoLoanUpdate/contracts/extensions/Ownable.sol\":1784:2043  function _transferOwnership(address newOwner) internal {... */\n      pop\n      jump\t// out\n        /* \"#utility.yul\":7:82   */\n    tag_177:\n        /* \"#utility.yul\":40:46   */\n      0x00\n        /* \"#utility.yul\":73:75   */\n      0x40\n        /* \"#utility.yul\":67:76   */\n      mload\n        /* \"#utility.yul\":57:76   */\n      swap1\n      pop\n        /* \"#utility.yul\":7:82   */\n      swap1\n      jump\t// out\n        /* \"#utility.yul\":88:205   */\n    tag_178:\n        /* \"#utility.yul\":197:198   */\n      0x00\n        /* \"#utility.yul\":194:195   */\n      dup1\n        /* \"#utility.yul\":187:199   */\n      revert\n        /* \"#utility.yul\":211:328   */\n    tag_179:\n        /* \"#utility.yul\":320:321   */\n      0x00\n        /* \"#utility.yul\":317:318   */\n      dup1\n        /* \"#utility.yul\":310:322   */\n      revert\n        /* \"#utility.yul\":334:411   */\n    tag_180:\n        /* \"#utility.yul\":371:378   */\n      0x00\n        /* \"#utility.yul\":400:405   */\n      dup2\n        /* \"#utility.yul\":389:405   */\n      swap1\n      pop\n        /* \"#utility.yul\":334:411   */\n      swap2\n      swap1\n      pop\n      jump\t// out\n        /* \"#utility.yul\":417:539   */\n    tag_181:\n        /* \"#utility.yul\":490:514   */\n      tag_238\n        /* \"#utility.yul\":508:513   */\n      dup2\n        /* \"#utility.yul\":490:514   */\n      tag_180\n      jump\t// in\n    tag_238:\n        /* \"#utility.yul\":483:488   */\n      dup2\n        /* \"#utility.yul\":480:515   */\n      eq\n        /* \"#utility.yul\":470:533   */\n      tag_239\n      jumpi\n        /* \"#utility.yul\":529:530   */\n      0x00\n        /* \"#utility.yul\":526:527   */\n      dup1\n        /* \"#utility.yul\":519:531   */\n      revert\n        /* \"#utility.yul\":470:533   */\n    tag_239:\n        /* \"#utility.yul\":417:539   */\n      pop\n      jump\t// out\n        /* \"#utility.yul\":545:684   */\n    tag_182:\n        /* \"#utility.yul\":591:596   */\n      0x00\n        /* \"#utility.yul\":629:635   */\n      dup2\n        /* \"#utility.yul\":616:636   */\n      calldataload\n        /* \"#utility.yul\":607:636   */\n      swap1\n      pop\n        /* \"#utility.yul\":645:678   */\n      tag_241\n        /* \"#utility.yul\":672:677   */\n      dup2\n        /* \"#utility.yul\":645:678   */\n      tag_181\n      jump\t// in\n    tag_241:\n        /* \"#utility.yul\":545:684   */\n      swap3\n      swap2\n      pop\n      pop\n      jump\t// out\n        /* \"#utility.yul\":690:816   */\n    tag_183:\n        /* \"#utility.yul\":727:734   */\n      0x00\n        /* \"#utility.yul\":767:809   */\n      0xffffffffffffffffffffffffffffffffffffffff\n        /* \"#utility.yul\":760:765   */\n      dup3\n        /* \"#utility.yul\":756:810   */\n      and\n        /* \"#utility.yul\":745:810   */\n      swap1\n      pop\n        /* \"#utility.yul\":690:816   */\n      swap2\n      swap1\n      pop\n      jump\t// out\n        /* \"#utility.yul\":822:918   */\n    tag_184:\n        /* \"#utility.yul\":859:866   */\n      0x00\n        /* \"#utility.yul\":888:912   */\n      tag_244\n        /* \"#utility.yul\":906:911   */\n      dup3\n        /* \"#utility.yul\":888:912   */\n      tag_183\n      jump\t// in\n    tag_244:\n        /* \"#utility.yul\":877:912   */\n      swap1\n      pop\n        /* \"#utility.yul\":822:918   */\n      swap2\n      swap1\n      pop\n      jump\t// out\n        /* \"#utility.yul\":924:1046   */\n    tag_185:\n        /* \"#utility.yul\":997:1021   */\n      tag_246\n        /* \"#utility.yul\":1015:1020   */\n      dup2\n        /* \"#utility.yul\":997:1021   */\n      tag_184\n      jump\t// in\n    tag_246:\n        /* \"#utility.yul\":990:995   */\n      dup2\n        /* \"#utility.yul\":987:1022   */\n      eq\n        /* \"#utility.yul\":977:1040   */\n      tag_247\n      jumpi\n        /* \"#utility.yul\":1036:1037   */\n      0x00\n        /* \"#utility.yul\":1033:1034   */\n      dup1\n        /* \"#utility.yul\":1026:1038   */\n      revert\n        /* \"#utility.yul\":977:1040   */\n    tag_247:\n        /* \"#utility.yul\":924:1046   */\n      pop\n      jump\t// out\n        /* \"#utility.yul\":1052:1191   */\n    tag_186:\n        /* \"#utility.yul\":1098:1103   */\n      0x00\n        /* \"#utility.yul\":1136:1142   */\n      dup2\n        /* \"#utility.yul\":1123:1143   */\n      calldataload\n        /* \"#utility.yul\":1114:1143   */\n      swap1\n      pop\n        /* \"#utility.yul\":1152:1185   */\n      tag_249\n        /* \"#utility.yul\":1179:1184   */\n      dup2\n        /* \"#utility.yul\":1152:1185   */\n      tag_185\n      jump\t// in\n    tag_249:\n        /* \"#utility.yul\":1052:1191   */\n      swap3\n      swap2\n      pop\n      pop\n      jump\t// out\n        /* \"#utility.yul\":1197:1314   */\n    tag_187:\n        /* \"#utility.yul\":1306:1307   */\n      0x00\n        /* \"#utility.yul\":1303:1304   */\n      dup1\n        /* \"#utility.yul\":1296:1308   */\n      revert\n        /* \"#utility.yul\":1320:1437   */\n    tag_188:\n        /* \"#utility.yul\":1429:1430   */\n      0x00\n        /* \"#utility.yul\":1426:1427   */\n      dup1\n        /* \"#utility.yul\":1419:1431   */\n      revert\n        /* \"#utility.yul\":1443:1560   */\n    tag_189:\n        /* \"#utility.yul\":1552:1553   */\n      0x00\n        /* \"#utility.yul\":1549:1550   */\n      dup1\n        /* \"#utility.yul\":1542:1554   */\n      revert\n        /* \"#utility.yul\":1583:2151   */\n    tag_190:\n        /* \"#utility.yul\":1656:1664   */\n      0x00\n        /* \"#utility.yul\":1666:1672   */\n      dup1\n        /* \"#utility.yul\":1716:1719   */\n      dup4\n        /* \"#utility.yul\":1709:1713   */\n      0x1f\n        /* \"#utility.yul\":1701:1707   */\n      dup5\n        /* \"#utility.yul\":1697:1714   */\n      add\n        /* \"#utility.yul\":1693:1720   */\n      slt\n        /* \"#utility.yul\":1683:1805   */\n      tag_254\n      jumpi\n        /* \"#utility.yul\":1724:1803   */\n      tag_255\n      tag_187\n      jump\t// in\n    tag_255:\n        /* \"#utility.yul\":1683:1805   */\n    tag_254:\n        /* \"#utility.yul\":1837:1843   */\n      dup3\n        /* \"#utility.yul\":1824:1844   */\n      calldataload\n        /* \"#utility.yul\":1814:1844   */\n      swap1\n      pop\n        /* \"#utility.yul\":1867:1885   */\n      0xffffffffffffffff\n        /* \"#utility.yul\":1859:1865   */\n      dup2\n        /* \"#utility.yul\":1856:1886   */\n      gt\n        /* \"#utility.yul\":1853:1970   */\n      iszero\n      tag_256\n      jumpi\n        /* \"#utility.yul\":1889:1968   */\n      tag_257\n      tag_188\n      jump\t// in\n    tag_257:\n        /* \"#utility.yul\":1853:1970   */\n    tag_256:\n        /* \"#utility.yul\":2003:2007   */\n      0x20\n        /* \"#utility.yul\":1995:2001   */\n      dup4\n        /* \"#utility.yul\":1991:2008   */\n      add\n        /* \"#utility.yul\":1979:2008   */\n      swap2\n      pop\n        /* \"#utility.yul\":2057:2060   */\n      dup4\n        /* \"#utility.yul\":2049:2053   */\n      0x20\n        /* \"#utility.yul\":2041:2047   */\n      dup3\n        /* \"#utility.yul\":2037:2054   */\n      mul\n        /* \"#utility.yul\":2027:2035   */\n      dup4\n        /* \"#utility.yul\":2023:2055   */\n      add\n        /* \"#utility.yul\":2020:2061   */\n      gt\n        /* \"#utility.yul\":2017:2145   */\n      iszero\n      tag_258\n      jumpi\n        /* \"#utility.yul\":2064:2143   */\n      tag_259\n      tag_189\n      jump\t// in\n    tag_259:\n        /* \"#utility.yul\":2017:2145   */\n    tag_258:\n        /* \"#utility.yul\":1583:2151   */\n      swap3\n      pop\n      swap3\n      swap1\n      pop\n      jump\t// out\n        /* \"#utility.yul\":2157:3152   */\n    tag_20:\n        /* \"#utility.yul\":2270:2276   */\n      0x00\n        /* \"#utility.yul\":2278:2284   */\n      dup1\n        /* \"#utility.yul\":2286:2292   */\n      0x00\n        /* \"#utility.yul\":2294:2300   */\n      dup1\n        /* \"#utility.yul\":2302:2308   */\n      0x00\n        /* \"#utility.yul\":2351:2354   */\n      0x80\n        /* \"#utility.yul\":2339:2348   */\n      dup7\n        /* \"#utility.yul\":2330:2337   */\n      dup9\n        /* \"#utility.yul\":2326:2349   */\n      sub\n        /* \"#utility.yul\":2322:2355   */\n      slt\n        /* \"#utility.yul\":2319:2439   */\n      iszero\n      tag_261\n      jumpi\n        /* \"#utility.yul\":2358:2437   */\n      tag_262\n      tag_178\n      jump\t// in\n    tag_262:\n        /* \"#utility.yul\":2319:2439   */\n    tag_261:\n        /* \"#utility.yul\":2478:2479   */\n      0x00\n        /* \"#utility.yul\":2503:2556   */\n      tag_263\n        /* \"#utility.yul\":2548:2555   */\n      dup9\n        /* \"#utility.yul\":2539:2545   */\n      dup3\n        /* \"#utility.yul\":2528:2537   */\n      dup10\n        /* \"#utility.yul\":2524:2546   */\n      add\n        /* \"#utility.yul\":2503:2556   */\n      tag_182\n      jump\t// in\n    tag_263:\n        /* \"#utility.yul\":2493:2556   */\n      swap6\n      pop\n        /* \"#utility.yul\":2449:2566   */\n      pop\n        /* \"#utility.yul\":2605:2607   */\n      0x20\n        /* \"#utility.yul\":2631:2684   */\n      tag_264\n        /* \"#utility.yul\":2676:2683   */\n      dup9\n        /* \"#utility.yul\":2667:2673   */\n      dup3\n        /* \"#utility.yul\":2656:2665   */\n      dup10\n        /* \"#utility.yul\":2652:2674   */\n      add\n        /* \"#utility.yul\":2631:2684   */\n      tag_182\n      jump\t// in\n    tag_264:\n        /* \"#utility.yul\":2621:2684   */\n      swap5\n      pop\n        /* \"#utility.yul\":2576:2694   */\n      pop\n        /* \"#utility.yul\":2733:2735   */\n      0x40\n        /* \"#utility.yul\":2759:2812   */\n      tag_265\n        /* \"#utility.yul\":2804:2811   */\n      dup9\n        /* \"#utility.yul\":2795:2801   */\n      dup3\n        /* \"#utility.yul\":2784:2793   */\n      dup10\n        /* \"#utility.yul\":2780:2802   */\n      add\n        /* \"#utility.yul\":2759:2812   */\n      tag_186\n      jump\t// in\n    tag_265:\n        /* \"#utility.yul\":2749:2812   */\n      swap4\n      pop\n        /* \"#utility.yul\":2704:2822   */\n      pop\n        /* \"#utility.yul\":2889:2891   */\n      0x60\n        /* \"#utility.yul\":2878:2887   */\n      dup7\n        /* \"#utility.yul\":2874:2892   */\n      add\n        /* \"#utility.yul\":2861:2893   */\n      calldataload\n        /* \"#utility.yul\":2920:2938   */\n      0xffffffffffffffff\n        /* \"#utility.yul\":2912:2918   */\n      dup2\n        /* \"#utility.yul\":2909:2939   */\n      gt\n        /* \"#utility.yul\":2906:3023   */\n      iszero\n      tag_266\n      jumpi\n        /* \"#utility.yul\":2942:3021   */\n      tag_267\n      tag_179\n      jump\t// in\n    tag_267:\n        /* \"#utility.yul\":2906:3023   */\n    tag_266:\n        /* \"#utility.yul\":3055:3135   */\n      tag_268\n        /* \"#utility.yul\":3127:3134   */\n      dup9\n        /* \"#utility.yul\":3118:3124   */\n      dup3\n        /* \"#utility.yul\":3107:3116   */\n      dup10\n        /* \"#utility.yul\":3103:3125   */\n      add\n        /* \"#utility.yul\":3055:3135   */\n      tag_190\n      jump\t// in\n    tag_268:\n        /* \"#utility.yul\":3037:3135   */\n      swap3\n      pop\n      swap3\n      pop\n        /* \"#utility.yul\":2832:3145   */\n      pop\n        /* \"#utility.yul\":2157:3152   */\n      swap3\n      swap6\n      pop\n      swap3\n      swap6\n      swap1\n      swap4\n      pop\n      jump\t// out\n        /* \"#utility.yul\":3158:3632   */\n    tag_25:\n        /* \"#utility.yul\":3226:3232   */\n      0x00\n        /* \"#utility.yul\":3234:3240   */\n      dup1\n        /* \"#utility.yul\":3283:3285   */\n      0x40\n        /* \"#utility.yul\":3271:3280   */\n      dup4\n        /* \"#utility.yul\":3262:3269   */\n      dup6\n        /* \"#utility.yul\":3258:3281   */\n      sub\n        /* \"#utility.yul\":3254:3286   */\n      slt\n        /* \"#utility.yul\":3251:3370   */\n      iszero\n      tag_270\n      jumpi\n        /* \"#utility.yul\":3289:3368   */\n      tag_271\n      tag_178\n      jump\t// in\n    tag_271:\n        /* \"#utility.yul\":3251:3370   */\n    tag_270:\n        /* \"#utility.yul\":3409:3410   */\n      0x00\n        /* \"#utility.yul\":3434:3487   */\n      tag_272\n        /* \"#utility.yul\":3479:3486   */\n      dup6\n        /* \"#utility.yul\":3470:3476   */\n      dup3\n        /* \"#utility.yul\":3459:3468   */\n      dup7\n        /* \"#utility.yul\":3455:3477   */\n      add\n        /* \"#utility.yul\":3434:3487   */\n      tag_182\n      jump\t// in\n    tag_272:\n        /* \"#utility.yul\":3424:3487   */\n      swap3\n      pop\n        /* \"#utility.yul\":3380:3497   */\n      pop\n        /* \"#utility.yul\":3536:3538   */\n      0x20\n        /* \"#utility.yul\":3562:3615   */\n      tag_273\n        /* \"#utility.yul\":3607:3614   */\n      dup6\n        /* \"#utility.yul\":3598:3604   */\n      dup3\n        /* \"#utility.yul\":3587:3596   */\n      dup7\n        /* \"#utility.yul\":3583:3605   */\n      add\n        /* \"#utility.yul\":3562:3615   */\n      tag_186\n      jump\t// in\n    tag_273:\n        /* \"#utility.yul\":3552:3615   */\n      swap2\n      pop\n        /* \"#utility.yul\":3507:3625   */\n      pop\n        /* \"#utility.yul\":3158:3632   */\n      swap3\n      pop\n      swap3\n      swap1\n      pop\n      jump\t// out\n        /* \"#utility.yul\":3638:3742   */\n    tag_191:\n        /* \"#utility.yul\":3683:3690   */\n      0x00\n        /* \"#utility.yul\":3712:3736   */\n      tag_275\n        /* \"#utility.yul\":3730:3735   */\n      dup3\n        /* \"#utility.yul\":3712:3736   */\n      tag_183\n      jump\t// in\n    tag_275:\n        /* \"#utility.yul\":3701:3736   */\n      swap1\n      pop\n        /* \"#utility.yul\":3638:3742   */\n      swap2\n      swap1\n      pop\n      jump\t// out\n        /* \"#utility.yul\":3748:3886   */\n    tag_192:\n        /* \"#utility.yul\":3829:3861   */\n      tag_277\n        /* \"#utility.yul\":3855:3860   */\n      dup2\n        /* \"#utility.yul\":3829:3861   */\n      tag_191\n      jump\t// in\n    tag_277:\n        /* \"#utility.yul\":3822:3827   */\n      dup2\n        /* \"#utility.yul\":3819:3862   */\n      eq\n        /* \"#utility.yul\":3809:3880   */\n      tag_278\n      jumpi\n        /* \"#utility.yul\":3876:3877   */\n      0x00\n        /* \"#utility.yul\":3873:3874   */\n      dup1\n        /* \"#utility.yul\":3866:3878   */\n      revert\n        /* \"#utility.yul\":3809:3880   */\n    tag_278:\n        /* \"#utility.yul\":3748:3886   */\n      pop\n      jump\t// out\n        /* \"#utility.yul\":3892:4047   */\n    tag_193:\n        /* \"#utility.yul\":3946:3951   */\n      0x00\n        /* \"#utility.yul\":3984:3990   */\n      dup2\n        /* \"#utility.yul\":3971:3991   */\n      calldataload\n        /* \"#utility.yul\":3962:3991   */\n      swap1\n      pop\n        /* \"#utility.yul\":4000:4041   */\n      tag_280\n        /* \"#utility.yul\":4035:4040   */\n      dup2\n        /* \"#utility.yul\":4000:4041   */\n      tag_192\n      jump\t// in\n    tag_280:\n        /* \"#utility.yul\":3892:4047   */\n      swap3\n      swap2\n      pop\n      pop\n      jump\t// out\n        /* \"#utility.yul\":4053:4543   */\n    tag_32:\n        /* \"#utility.yul\":4129:4135   */\n      0x00\n        /* \"#utility.yul\":4137:4143   */\n      dup1\n        /* \"#utility.yul\":4186:4188   */\n      0x40\n        /* \"#utility.yul\":4174:4183   */\n      dup4\n        /* \"#utility.yul\":4165:4172   */\n      dup6\n        /* \"#utility.yul\":4161:4184   */\n      sub\n        /* \"#utility.yul\":4157:4189   */\n      slt\n        /* \"#utility.yul\":4154:4273   */\n      iszero\n      tag_282\n      jumpi\n        /* \"#utility.yul\":4192:4271   */\n      tag_283\n      tag_178\n      jump\t// in\n    tag_283:\n        /* \"#utility.yul\":4154:4273   */\n    tag_282:\n        /* \"#utility.yul\":4312:4313   */\n      0x00\n        /* \"#utility.yul\":4337:4390   */\n      tag_284\n        /* \"#utility.yul\":4382:4389   */\n      dup6\n        /* \"#utility.yul\":4373:4379   */\n      dup3\n        /* \"#utility.yul\":4362:4371   */\n      dup7\n        /* \"#utility.yul\":4358:4380   */\n      add\n        /* \"#utility.yul\":4337:4390   */\n      tag_182\n      jump\t// in\n    tag_284:\n        /* \"#utility.yul\":4327:4390   */\n      swap3\n      pop\n        /* \"#utility.yul\":4283:4400   */\n      pop\n        /* \"#utility.yul\":4439:4441   */\n      0x20\n        /* \"#utility.yul\":4465:4526   */\n      tag_285\n        /* \"#utility.yul\":4518:4525   */\n      dup6\n        /* \"#utility.yul\":4509:4515   */\n      dup3\n        /* \"#utility.yul\":4498:4507   */\n      dup7\n        /* \"#utility.yul\":4494:4516   */\n      add\n        /* \"#utility.yul\":4465:4526   */\n      tag_193\n      jump\t// in\n    tag_285:\n        /* \"#utility.yul\":4455:4526   */\n      swap2\n      pop\n        /* \"#utility.yul\":4410:4536   */\n      pop\n        /* \"#utility.yul\":4053:4543   */\n      swap3\n      pop\n      swap3\n      swap1\n      pop\n      jump\t// out\n        /* \"#utility.yul\":4549:5168   */\n    tag_37:\n        /* \"#utility.yul\":4626:4632   */\n      0x00\n        /* \"#utility.yul\":4634:4640   */\n      dup1\n        /* \"#utility.yul\":4642:4648   */\n      0x00\n        /* \"#utility.yul\":4691:4693   */\n      0x60\n        /* \"#utility.yul\":4679:4688   */\n      dup5\n        /* \"#utility.yul\":4670:4677   */\n      dup7\n        /* \"#utility.yul\":4666:4689   */\n      sub\n        /* \"#utility.yul\":4662:4694   */\n      slt\n        /* \"#utility.yul\":4659:4778   */\n      iszero\n      tag_287\n      jumpi\n        /* \"#utility.yul\":4697:4776   */\n      tag_288\n      tag_178\n      jump\t// in\n    tag_288:\n        /* \"#utility.yul\":4659:4778   */\n    tag_287:\n        /* \"#utility.yul\":4817:4818   */\n      0x00\n        /* \"#utility.yul\":4842:4895   */\n      tag_289\n        /* \"#utility.yul\":4887:4894   */\n      dup7\n        /* \"#utility.yul\":4878:4884   */\n      dup3\n        /* \"#utility.yul\":4867:4876   */\n      dup8\n        /* \"#utility.yul\":4863:4885   */\n      add\n        /* \"#utility.yul\":4842:4895   */\n      tag_182\n      jump\t// in\n    tag_289:\n        /* \"#utility.yul\":4832:4895   */\n      swap4\n      pop\n        /* \"#utility.yul\":4788:4905   */\n      pop\n        /* \"#utility.yul\":4944:4946   */\n      0x20\n        /* \"#utility.yul\":4970:5023   */\n      tag_290\n        /* \"#utility.yul\":5015:5022   */\n      dup7\n        /* \"#utility.yul\":5006:5012   */\n      dup3\n        /* \"#utility.yul\":4995:5004   */\n      dup8\n        /* \"#utility.yul\":4991:5013   */\n      add\n        /* \"#utility.yul\":4970:5023   */\n      tag_186\n      jump\t// in\n    tag_290:\n        /* \"#utility.yul\":4960:5023   */\n      swap3\n      pop\n        /* \"#utility.yul\":4915:5033   */\n      pop\n        /* \"#utility.yul\":5072:5074   */\n      0x40\n        /* \"#utility.yul\":5098:5151   */\n      tag_291\n        /* \"#utility.yul\":5143:5150   */\n      dup7\n        /* \"#utility.yul\":5134:5140   */\n      dup3\n        /* \"#utility.yul\":5123:5132   */\n      dup8\n        /* \"#utility.yul\":5119:5141   */\n      add\n        /* \"#utility.yul\":5098:5151   */\n      tag_186\n      jump\t// in\n    tag_291:\n        /* \"#utility.yul\":5088:5151   */\n      swap2\n      pop\n        /* \"#utility.yul\":5043:5161   */\n      pop\n        /* \"#utility.yul\":4549:5168   */\n      swap3\n      pop\n      swap3\n      pop\n      swap3\n      jump\t// out\n        /* \"#utility.yul\":5174:6169   */\n    tag_45:\n        /* \"#utility.yul\":5287:5293   */\n      0x00\n        /* \"#utility.yul\":5295:5301   */\n      dup1\n        /* \"#utility.yul\":5303:5309   */\n      0x00\n        /* \"#utility.yul\":5311:5317   */\n      dup1\n        /* \"#utility.yul\":5319:5325   */\n      0x00\n        /* \"#utility.yul\":5368:5371   */\n      0x80\n        /* \"#utility.yul\":5356:5365   */\n      dup7\n        /* \"#utility.yul\":5347:5354   */\n      dup9\n        /* \"#utility.yul\":5343:5366   */\n      sub\n        /* \"#utility.yul\":5339:5372   */\n      slt\n        /* \"#utility.yul\":5336:5456   */\n      iszero\n      tag_293\n      jumpi\n        /* \"#utility.yul\":5375:5454   */\n      tag_294\n      tag_178\n      jump\t// in\n    tag_294:\n        /* \"#utility.yul\":5336:5456   */\n    tag_293:\n        /* \"#utility.yul\":5495:5496   */\n      0x00\n        /* \"#utility.yul\":5520:5573   */\n      tag_295\n        /* \"#utility.yul\":5565:5572   */\n      dup9\n        /* \"#utility.yul\":5556:5562   */\n      dup3\n        /* \"#utility.yul\":5545:5554   */\n      dup10\n        /* \"#utility.yul\":5541:5563   */\n      add\n        /* \"#utility.yul\":5520:5573   */\n      tag_186\n      jump\t// in\n    tag_295:\n        /* \"#utility.yul\":5510:5573   */\n      swap6\n      pop\n        /* \"#utility.yul\":5466:5583   */\n      pop\n        /* \"#utility.yul\":5622:5624   */\n      0x20\n        /* \"#utility.yul\":5648:5701   */\n      tag_296\n        /* \"#utility.yul\":5693:5700   */\n      dup9\n        /* \"#utility.yul\":5684:5690   */\n      dup3\n        /* \"#utility.yul\":5673:5682   */\n      dup10\n        /* \"#utility.yul\":5669:5691   */\n      add\n        /* \"#utility.yul\":5648:5701   */\n      tag_182\n      jump\t// in\n    tag_296:\n        /* \"#utility.yul\":5638:5701   */\n      swap5\n      pop\n        /* \"#utility.yul\":5593:5711   */\n      pop\n        /* \"#utility.yul\":5750:5752   */\n      0x40\n        /* \"#utility.yul\":5776:5829   */\n      tag_297\n        /* \"#utility.yul\":5821:5828   */\n      dup9\n        /* \"#utility.yul\":5812:5818   */\n      dup3\n        /* \"#utility.yul\":5801:5810   */\n      dup10\n        /* \"#utility.yul\":5797:5819   */\n      add\n        /* \"#utility.yul\":5776:5829   */\n      tag_182\n      jump\t// in\n    tag_297:\n        /* \"#utility.yul\":5766:5829   */\n      swap4\n      pop\n        /* \"#utility.yul\":5721:5839   */\n      pop\n        /* \"#utility.yul\":5906:5908   */\n      0x60\n        /* \"#utility.yul\":5895:5904   */\n      dup7\n        /* \"#utility.yul\":5891:5909   */\n      add\n        /* \"#utility.yul\":5878:5910   */\n      calldataload\n        /* \"#utility.yul\":5937:5955   */\n      0xffffffffffffffff\n        /* \"#utility.yul\":5929:5935   */\n      dup2\n        /* \"#utility.yul\":5926:5956   */\n      gt\n        /* \"#utility.yul\":5923:6040   */\n      iszero\n      tag_298\n      jumpi\n        /* \"#utility.yul\":5959:6038   */\n      tag_299\n      tag_179\n      jump\t// in\n    tag_299:\n        /* \"#utility.yul\":5923:6040   */\n    tag_298:\n        /* \"#utility.yul\":6072:6152   */\n      tag_300\n        /* \"#utility.yul\":6144:6151   */\n      dup9\n        /* \"#utility.yul\":6135:6141   */\n      dup3\n        /* \"#utility.yul\":6124:6133   */\n      dup10\n        /* \"#utility.yul\":6120:6142   */\n      add\n        /* \"#utility.yul\":6072:6152   */\n      tag_190\n      jump\t// in\n    tag_300:\n        /* \"#utility.yul\":6054:6152   */\n      swap3\n      pop\n      swap3\n      pop\n        /* \"#utility.yul\":5849:6162   */\n      pop\n        /* \"#utility.yul\":5174:6169   */\n      swap3\n      swap6\n      pop\n      swap3\n      swap6\n      swap1\n      swap4\n      pop\n      jump\t// out\n        /* \"#utility.yul\":6175:6293   */\n    tag_194:\n        /* \"#utility.yul\":6262:6286   */\n      tag_302\n        /* \"#utility.yul\":6280:6285   */\n      dup2\n        /* \"#utility.yul\":6262:6286   */\n      tag_184\n      jump\t// in\n    tag_302:\n        /* \"#utility.yul\":6257:6260   */\n      dup3\n        /* \"#utility.yul\":6250:6287   */\n      mstore\n        /* \"#utility.yul\":6175:6293   */\n      pop\n      pop\n      jump\t// out\n        /* \"#utility.yul\":6299:6521   */\n    tag_51:\n        /* \"#utility.yul\":6392:6396   */\n      0x00\n        /* \"#utility.yul\":6430:6432   */\n      0x20\n        /* \"#utility.yul\":6419:6428   */\n      dup3\n        /* \"#utility.yul\":6415:6433   */\n      add\n        /* \"#utility.yul\":6407:6433   */\n      swap1\n      pop\n        /* \"#utility.yul\":6443:6514   */\n      tag_304\n        /* \"#utility.yul\":6511:6512   */\n      0x00\n        /* \"#utility.yul\":6500:6509   */\n      dup4\n        /* \"#utility.yul\":6496:6513   */\n      add\n        /* \"#utility.yul\":6487:6493   */\n      dup5\n        /* \"#utility.yul\":6443:6514   */\n      tag_194\n      jump\t// in\n    tag_304:\n        /* \"#utility.yul\":6299:6521   */\n      swap3\n      swap2\n      pop\n      pop\n      jump\t// out\n        /* \"#utility.yul\":6527:6617   */\n    tag_195:\n        /* \"#utility.yul\":6561:6568   */\n      0x00\n        /* \"#utility.yul\":6604:6609   */\n      dup2\n        /* \"#utility.yul\":6597:6610   */\n      iszero\n        /* \"#utility.yul\":6590:6611   */\n      iszero\n        /* \"#utility.yul\":6579:6611   */\n      swap1\n      pop\n        /* \"#utility.yul\":6527:6617   */\n      swap2\n      swap1\n      pop\n      jump\t// out\n        /* \"#utility.yul\":6623:6732   */\n    tag_196:\n        /* \"#utility.yul\":6704:6725   */\n      tag_307\n        /* \"#utility.yul\":6719:6724   */\n      dup2\n        /* \"#utility.yul\":6704:6725   */\n      tag_195\n      jump\t// in\n    tag_307:\n        /* \"#utility.yul\":6699:6702   */\n      dup3\n        /* \"#utility.yul\":6692:6726   */\n      mstore\n        /* \"#utility.yul\":6623:6732   */\n      pop\n      pop\n      jump\t// out\n        /* \"#utility.yul\":6738:6948   */\n    tag_56:\n        /* \"#utility.yul\":6825:6829   */\n      0x00\n        /* \"#utility.yul\":6863:6865   */\n      0x20\n        /* \"#utility.yul\":6852:6861   */\n      dup3\n        /* \"#utility.yul\":6848:6866   */\n      add\n        /* \"#utility.yul\":6840:6866   */\n      swap1\n      pop\n        /* \"#utility.yul\":6876:6941   */\n      tag_309\n        /* \"#utility.yul\":6938:6939   */\n      0x00\n        /* \"#utility.yul\":6927:6936   */\n      dup4\n        /* \"#utility.yul\":6923:6940   */\n      add\n        /* \"#utility.yul\":6914:6920   */\n      dup5\n        /* \"#utility.yul\":6876:6941   */\n      tag_196\n      jump\t// in\n    tag_309:\n        /* \"#utility.yul\":6738:6948   */\n      swap3\n      swap2\n      pop\n      pop\n      jump\t// out\n        /* \"#utility.yul\":6954:8179   */\n    tag_60:\n        /* \"#utility.yul\":7094:7100   */\n      0x00\n        /* \"#utility.yul\":7102:7108   */\n      dup1\n        /* \"#utility.yul\":7110:7116   */\n      0x00\n        /* \"#utility.yul\":7118:7124   */\n      dup1\n        /* \"#utility.yul\":7126:7132   */\n      0x00\n        /* \"#utility.yul\":7134:7140   */\n      dup1\n        /* \"#utility.yul\":7183:7186   */\n      0x80\n        /* \"#utility.yul\":7171:7180   */\n      dup8\n        /* \"#utility.yul\":7162:7169   */\n      dup10\n        /* \"#utility.yul\":7158:7181   */\n      sub\n        /* \"#utility.yul\":7154:7187   */\n      slt\n        /* \"#utility.yul\":7151:7271   */\n      iszero\n      tag_311\n      jumpi\n        /* \"#utility.yul\":7190:7269   */\n      tag_312\n      tag_178\n      jump\t// in\n    tag_312:\n        /* \"#utility.yul\":7151:7271   */\n    tag_311:\n        /* \"#utility.yul\":7310:7311   */\n      0x00\n        /* \"#utility.yul\":7335:7388   */\n      tag_313\n        /* \"#utility.yul\":7380:7387   */\n      dup10\n        /* \"#utility.yul\":7371:7377   */\n      dup3\n        /* \"#utility.yul\":7360:7369   */\n      dup11\n        /* \"#utility.yul\":7356:7378   */\n      add\n        /* \"#utility.yul\":7335:7388   */\n      tag_182\n      jump\t// in\n    tag_313:\n        /* \"#utility.yul\":7325:7388   */\n      swap7\n      pop\n        /* \"#utility.yul\":7281:7398   */\n      pop\n        /* \"#utility.yul\":7437:7439   */\n      0x20\n        /* \"#utility.yul\":7463:7516   */\n      tag_314\n        /* \"#utility.yul\":7508:7515   */\n      dup10\n        /* \"#utility.yul\":7499:7505   */\n      dup3\n        /* \"#utility.yul\":7488:7497   */\n      dup11\n        /* \"#utility.yul\":7484:7506   */\n      add\n        /* \"#utility.yul\":7463:7516   */\n      tag_182\n      jump\t// in\n    tag_314:\n        /* \"#utility.yul\":7453:7516   */\n      swap6\n      pop\n        /* \"#utility.yul\":7408:7526   */\n      pop\n        /* \"#utility.yul\":7593:7595   */\n      0x40\n        /* \"#utility.yul\":7582:7591   */\n      dup8\n        /* \"#utility.yul\":7578:7596   */\n      add\n        /* \"#utility.yul\":7565:7597   */\n      calldataload\n        /* \"#utility.yul\":7624:7642   */\n      0xffffffffffffffff\n        /* \"#utility.yul\":7616:7622   */\n      dup2\n        /* \"#utility.yul\":7613:7643   */\n      gt\n        /* \"#utility.yul\":7610:7727   */\n      iszero\n      tag_315\n      jumpi\n        /* \"#utility.yul\":7646:7725   */\n      tag_316\n      tag_179\n      jump\t// in\n    tag_316:\n        /* \"#utility.yul\":7610:7727   */\n    tag_315:\n        /* \"#utility.yul\":7759:7839   */\n      tag_317\n        /* \"#utility.yul\":7831:7838   */\n      dup10\n        /* \"#utility.yul\":7822:7828   */\n      dup3\n        /* \"#utility.yul\":7811:7820   */\n      dup11\n        /* \"#utility.yul\":7807:7829   */\n      add\n        /* \"#utility.yul\":7759:7839   */\n      tag_190\n      jump\t// in\n    tag_317:\n        /* \"#utility.yul\":7741:7839   */\n      swap5\n      pop\n      swap5\n      pop\n        /* \"#utility.yul\":7536:7849   */\n      pop\n        /* \"#utility.yul\":7916:7918   */\n      0x60\n        /* \"#utility.yul\":7905:7914   */\n      dup8\n        /* \"#utility.yul\":7901:7919   */\n      add\n        /* \"#utility.yul\":7888:7920   */\n      calldataload\n        /* \"#utility.yul\":7947:7965   */\n      0xffffffffffffffff\n        /* \"#utility.yul\":7939:7945   */\n      dup2\n        /* \"#utility.yul\":7936:7966   */\n      gt\n        /* \"#utility.yul\":7933:8050   */\n      iszero\n      tag_318\n      jumpi\n        /* \"#utility.yul\":7969:8048   */\n      tag_319\n      tag_179\n      jump\t// in\n    tag_319:\n        /* \"#utility.yul\":7933:8050   */\n    tag_318:\n        /* \"#utility.yul\":8082:8162   */\n      tag_320\n        /* \"#utility.yul\":8154:8161   */\n      dup10\n        /* \"#utility.yul\":8145:8151   */\n      dup3\n        /* \"#utility.yul\":8134:8143   */\n      dup11\n        /* \"#utility.yul\":8130:8152   */\n      add\n        /* \"#utility.yul\":8082:8162   */\n      tag_190\n      jump\t// in\n    tag_320:\n        /* \"#utility.yul\":8064:8162   */\n      swap3\n      pop\n      swap3\n      pop\n        /* \"#utility.yul\":7859:8172   */\n      pop\n        /* \"#utility.yul\":6954:8179   */\n      swap3\n      swap6\n      pop\n      swap3\n      swap6\n      pop\n      swap3\n      swap6\n      jump\t// out\n        /* \"#utility.yul\":8185:9264   */\n    tag_69:\n        /* \"#utility.yul\":8316:8322   */\n      0x00\n        /* \"#utility.yul\":8324:8330   */\n      dup1\n        /* \"#utility.yul\":8332:8338   */\n      0x00\n        /* \"#utility.yul\":8340:8346   */\n      dup1\n        /* \"#utility.yul\":8348:8354   */\n      0x00\n        /* \"#utility.yul\":8397:8399   */\n      0x60\n        /* \"#utility.yul\":8385:8394   */\n      dup7\n        /* \"#utility.yul\":8376:8383   */\n      dup9\n        /* \"#utility.yul\":8372:8395   */\n      sub\n        /* \"#utility.yul\":8368:8400   */\n      slt\n        /* \"#utility.yul\":8365:8484   */\n      iszero\n      tag_322\n      jumpi\n        /* \"#utility.yul\":8403:8482   */\n      tag_323\n      tag_178\n      jump\t// in\n    tag_323:\n        /* \"#utility.yul\":8365:8484   */\n    tag_322:\n        /* \"#utility.yul\":8523:8524   */\n      0x00\n        /* \"#utility.yul\":8548:8601   */\n      tag_324\n        /* \"#utility.yul\":8593:8600   */\n      dup9\n        /* \"#utility.yul\":8584:8590   */\n      dup3\n        /* \"#utility.yul\":8573:8582   */\n      dup10\n        /* \"#utility.yul\":8569:8591   */\n      add\n        /* \"#utility.yul\":8548:8601   */\n      tag_182\n      jump\t// in\n    tag_324:\n        /* \"#utility.yul\":8538:8601   */\n      swap6\n      pop\n        /* \"#utility.yul\":8494:8611   */\n      pop\n        /* \"#utility.yul\":8678:8680   */\n      0x20\n        /* \"#utility.yul\":8667:8676   */\n      dup7\n        /* \"#utility.yul\":8663:8681   */\n      add\n        /* \"#utility.yul\":8650:8682   */\n      calldataload\n        /* \"#utility.yul\":8709:8727   */\n      0xffffffffffffffff\n        /* \"#utility.yul\":8701:8707   */\n      dup2\n        /* \"#utility.yul\":8698:8728   */\n      gt\n        /* \"#utility.yul\":8695:8812   */\n      iszero\n      tag_325\n      jumpi\n        /* \"#utility.yul\":8731:8810   */\n      tag_326\n      tag_179\n      jump\t// in\n    tag_326:\n        /* \"#utility.yul\":8695:8812   */\n    tag_325:\n        /* \"#utility.yul\":8844:8924   */\n      tag_327\n        /* \"#utility.yul\":8916:8923   */\n      dup9\n        /* \"#utility.yul\":8907:8913   */\n      dup3\n        /* \"#utility.yul\":8896:8905   */\n      dup10\n        /* \"#utility.yul\":8892:8914   */\n      add\n        /* \"#utility.yul\":8844:8924   */\n      tag_190\n      jump\t// in\n    tag_327:\n        /* \"#utility.yul\":8826:8924   */\n      swap5\n      pop\n      swap5\n      pop\n        /* \"#utility.yul\":8621:8934   */\n      pop\n        /* \"#utility.yul\":9001:9003   */\n      0x40\n        /* \"#utility.yul\":8990:8999   */\n      dup7\n        /* \"#utility.yul\":8986:9004   */\n      add\n        /* \"#utility.yul\":8973:9005   */\n      calldataload\n        /* \"#utility.yul\":9032:9050   */\n      0xffffffffffffffff\n        /* \"#utility.yul\":9024:9030   */\n      dup2\n        /* \"#utility.yul\":9021:9051   */\n      gt\n        /* \"#utility.yul\":9018:9135   */\n      iszero\n      tag_328\n      jumpi\n        /* \"#utility.yul\":9054:9133   */\n      tag_329\n      tag_179\n      jump\t// in\n    tag_329:\n        /* \"#utility.yul\":9018:9135   */\n    tag_328:\n        /* \"#utility.yul\":9167:9247   */\n      tag_330\n        /* \"#utility.yul\":9239:9246   */\n      dup9\n        /* \"#utility.yul\":9230:9236   */\n      dup3\n        /* \"#utility.yul\":9219:9228   */\n      dup10\n        /* \"#utility.yul\":9215:9237   */\n      add\n        /* \"#utility.yul\":9167:9247   */\n      tag_190\n      jump\t// in\n    tag_330:\n        /* \"#utility.yul\":9149:9247   */\n      swap3\n      pop\n      swap3\n      pop\n        /* \"#utility.yul\":8944:9257   */\n      pop\n        /* \"#utility.yul\":8185:9264   */\n      swap3\n      swap6\n      pop\n      swap3\n      swap6\n      swap1\n      swap4\n      pop\n      jump\t// out\n        /* \"#utility.yul\":9270:9384   */\n    tag_197:\n        /* \"#utility.yul\":9337:9343   */\n      0x00\n        /* \"#utility.yul\":9371:9376   */\n      dup2\n        /* \"#utility.yul\":9365:9377   */\n      mload\n        /* \"#utility.yul\":9355:9377   */\n      swap1\n      pop\n        /* \"#utility.yul\":9270:9384   */\n      swap2\n      swap1\n      pop\n      jump\t// out\n        /* \"#utility.yul\":9390:9574   */\n    tag_198:\n        /* \"#utility.yul\":9489:9500   */\n      0x00\n        /* \"#utility.yul\":9523:9529   */\n      dup3\n        /* \"#utility.yul\":9518:9521   */\n      dup3\n        /* \"#utility.yul\":9511:9530   */\n      mstore\n        /* \"#utility.yul\":9563:9567   */\n      0x20\n        /* \"#utility.yul\":9558:9561   */\n      dup3\n        /* \"#utility.yul\":9554:9568   */\n      add\n        /* \"#utility.yul\":9539:9568   */\n      swap1\n      pop\n        /* \"#utility.yul\":9390:9574   */\n      swap3\n      swap2\n      pop\n      pop\n      jump\t// out\n        /* \"#utility.yul\":9580:9712   */\n    tag_199:\n        /* \"#utility.yul\":9647:9651   */\n      0x00\n        /* \"#utility.yul\":9670:9673   */\n      dup2\n        /* \"#utility.yul\":9662:9673   */\n      swap1\n      pop\n        /* \"#utility.yul\":9700:9704   */\n      0x20\n        /* \"#utility.yul\":9695:9698   */\n      dup3\n        /* \"#utility.yul\":9691:9705   */\n      add\n        /* \"#utility.yul\":9683:9705   */\n      swap1\n      pop\n        /* \"#utility.yul\":9580:9712   */\n      swap2\n      swap1\n      pop\n      jump\t// out\n        /* \"#utility.yul\":9718:9826   */\n    tag_200:\n        /* \"#utility.yul\":9795:9819   */\n      tag_335\n        /* \"#utility.yul\":9813:9818   */\n      dup2\n        /* \"#utility.yul\":9795:9819   */\n      tag_180\n      jump\t// in\n    tag_335:\n        /* \"#utility.yul\":9790:9793   */\n      dup3\n        /* \"#utility.yul\":9783:9820   */\n      mstore\n        /* \"#utility.yul\":9718:9826   */\n      pop\n      pop\n      jump\t// out\n        /* \"#utility.yul\":9832:10011   */\n    tag_201:\n        /* \"#utility.yul\":9901:9911   */\n      0x00\n        /* \"#utility.yul\":9922:9968   */\n      tag_337\n        /* \"#utility.yul\":9964:9967   */\n      dup4\n        /* \"#utility.yul\":9956:9962   */\n      dup4\n        /* \"#utility.yul\":9922:9968   */\n      tag_200\n      jump\t// in\n    tag_337:\n        /* \"#utility.yul\":10000:10004   */\n      0x20\n        /* \"#utility.yul\":9995:9998   */\n      dup4\n        /* \"#utility.yul\":9991:10005   */\n      add\n        /* \"#utility.yul\":9977:10005   */\n      swap1\n      pop\n        /* \"#utility.yul\":9832:10011   */\n      swap3\n      swap2\n      pop\n      pop\n      jump\t// out\n        /* \"#utility.yul\":10017:10130   */\n    tag_202:\n        /* \"#utility.yul\":10087:10091   */\n      0x00\n        /* \"#utility.yul\":10119:10123   */\n      0x20\n        /* \"#utility.yul\":10114:10117   */\n      dup3\n        /* \"#utility.yul\":10110:10124   */\n      add\n        /* \"#utility.yul\":10102:10124   */\n      swap1\n      pop\n        /* \"#utility.yul\":10017:10130   */\n      swap2\n      swap1\n      pop\n      jump\t// out\n        /* \"#utility.yul\":10166:10898   */\n    tag_203:\n        /* \"#utility.yul\":10285:10288   */\n      0x00\n        /* \"#utility.yul\":10314:10368   */\n      tag_340\n        /* \"#utility.yul\":10362:10367   */\n      dup3\n        /* \"#utility.yul\":10314:10368   */\n      tag_197\n      jump\t// in\n    tag_340:\n        /* \"#utility.yul\":10384:10470   */\n      tag_341\n        /* \"#utility.yul\":10463:10469   */\n      dup2\n        /* \"#utility.yul\":10458:10461   */\n      dup6\n        /* \"#utility.yul\":10384:10470   */\n      tag_198\n      jump\t// in\n    tag_341:\n        /* \"#utility.yul\":10377:10470   */\n      swap4\n      pop\n        /* \"#utility.yul\":10494:10550   */\n      tag_342\n        /* \"#utility.yul\":10544:10549   */\n      dup4\n        /* \"#utility.yul\":10494:10550   */\n      tag_199\n      jump\t// in\n    tag_342:\n        /* \"#utility.yul\":10573:10580   */\n      dup1\n        /* \"#utility.yul\":10604:10605   */\n      0x00\n        /* \"#utility.yul\":10589:10873   */\n    tag_343:\n        /* \"#utility.yul\":10614:10620   */\n      dup4\n        /* \"#utility.yul\":10611:10612   */\n      dup2\n        /* \"#utility.yul\":10608:10621   */\n      lt\n        /* \"#utility.yul\":10589:10873   */\n      iszero\n      tag_345\n      jumpi\n        /* \"#utility.yul\":10690:10696   */\n      dup2\n        /* \"#utility.yul\":10684:10697   */\n      mload\n        /* \"#utility.yul\":10717:10780   */\n      tag_346\n        /* \"#utility.yul\":10776:10779   */\n      dup9\n        /* \"#utility.yul\":10761:10774   */\n      dup3\n        /* \"#utility.yul\":10717:10780   */\n      tag_201\n      jump\t// in\n    tag_346:\n        /* \"#utility.yul\":10710:10780   */\n      swap8\n      pop\n        /* \"#utility.yul\":10803:10863   */\n      tag_347\n        /* \"#utility.yul\":10856:10862   */\n      dup4\n        /* \"#utility.yul\":10803:10863   */\n      tag_202\n      jump\t// in\n    tag_347:\n        /* \"#utility.yul\":10793:10863   */\n      swap3\n      pop\n        /* \"#utility.yul\":10649:10873   */\n      pop\n        /* \"#utility.yul\":10636:10637   */\n      0x01\n        /* \"#utility.yul\":10633:10634   */\n      dup2\n        /* \"#utility.yul\":10629:10638   */\n      add\n        /* \"#utility.yul\":10624:10638   */\n      swap1\n      pop\n        /* \"#utility.yul\":10589:10873   */\n      jump(tag_343)\n    tag_345:\n        /* \"#utility.yul\":10593:10607   */\n      pop\n        /* \"#utility.yul\":10889:10892   */\n      dup6\n        /* \"#utility.yul\":10882:10892   */\n      swap4\n      pop\n        /* \"#utility.yul\":10290:10898   */\n      pop\n      pop\n      pop\n        /* \"#utility.yul\":10166:10898   */\n      swap3\n      swap2\n      pop\n      pop\n      jump\t// out\n        /* \"#utility.yul\":10904:11277   */\n    tag_72:\n        /* \"#utility.yul\":11047:11051   */\n      0x00\n        /* \"#utility.yul\":11085:11087   */\n      0x20\n        /* \"#utility.yul\":11074:11083   */\n      dup3\n        /* \"#utility.yul\":11070:11088   */\n      add\n        /* \"#utility.yul\":11062:11088   */\n      swap1\n      pop\n        /* \"#utility.yul\":11134:11143   */\n      dup2\n        /* \"#utility.yul\":11128:11132   */\n      dup2\n        /* \"#utility.yul\":11124:11144   */\n      sub\n        /* \"#utility.yul\":11120:11121   */\n      0x00\n        /* \"#utility.yul\":11109:11118   */\n      dup4\n        /* \"#utility.yul\":11105:11122   */\n      add\n        /* \"#utility.yul\":11098:11145   */\n      mstore\n        /* \"#utility.yul\":11162:11270   */\n      tag_349\n        /* \"#utility.yul\":11265:11269   */\n      dup2\n        /* \"#utility.yul\":11256:11262   */\n      dup5\n        /* \"#utility.yul\":11162:11270   */\n      tag_203\n      jump\t// in\n    tag_349:\n        /* \"#utility.yul\":11154:11270   */\n      swap1\n      pop\n        /* \"#utility.yul\":10904:11277   */\n      swap3\n      swap2\n      pop\n      pop\n      jump\t// out\n        /* \"#utility.yul\":11283:11612   */\n    tag_76:\n        /* \"#utility.yul\":11342:11348   */\n      0x00\n        /* \"#utility.yul\":11391:11393   */\n      0x20\n        /* \"#utility.yul\":11379:11388   */\n      dup3\n        /* \"#utility.yul\":11370:11377   */\n      dup5\n        /* \"#utility.yul\":11366:11389   */\n      sub\n        /* \"#utility.yul\":11362:11394   */\n      slt\n        /* \"#utility.yul\":11359:11478   */\n      iszero\n      tag_351\n      jumpi\n        /* \"#utility.yul\":11397:11476   */\n      tag_352\n      tag_178\n      jump\t// in\n    tag_352:\n        /* \"#utility.yul\":11359:11478   */\n    tag_351:\n        /* \"#utility.yul\":11517:11518   */\n      0x00\n        /* \"#utility.yul\":11542:11595   */\n      tag_353\n        /* \"#utility.yul\":11587:11594   */\n      dup5\n        /* \"#utility.yul\":11578:11584   */\n      dup3\n        /* \"#utility.yul\":11567:11576   */\n      dup6\n        /* \"#utility.yul\":11563:11585   */\n      add\n        /* \"#utility.yul\":11542:11595   */\n      tag_186\n      jump\t// in\n    tag_353:\n        /* \"#utility.yul\":11532:11595   */\n      swap2\n      pop\n        /* \"#utility.yul\":11488:11605   */\n      pop\n        /* \"#utility.yul\":11283:11612   */\n      swap3\n      swap2\n      pop\n      pop\n      jump\t// out\n        /* \"#utility.yul\":11618:11736   */\n    tag_204:\n        /* \"#utility.yul\":11705:11729   */\n      tag_355\n        /* \"#utility.yul\":11723:11728   */\n      dup2\n        /* \"#utility.yul\":11705:11729   */\n      tag_180\n      jump\t// in\n    tag_355:\n        /* \"#utility.yul\":11700:11703   */\n      dup3\n        /* \"#utility.yul\":11693:11730   */\n      mstore\n        /* \"#utility.yul\":11618:11736   */\n      pop\n      pop\n      jump\t// out\n        /* \"#utility.yul\":11742:11926   */\n    tag_205:\n        /* \"#utility.yul\":11841:11852   */\n      0x00\n        /* \"#utility.yul\":11875:11881   */\n      dup3\n        /* \"#utility.yul\":11870:11873   */\n      dup3\n        /* \"#utility.yul\":11863:11882   */\n      mstore\n        /* \"#utility.yul\":11915:11919   */\n      0x20\n        /* \"#utility.yul\":11910:11913   */\n      dup3\n        /* \"#utility.yul\":11906:11920   */\n      add\n        /* \"#utility.yul\":11891:11920   */\n      swap1\n      pop\n        /* \"#utility.yul\":11742:11926   */\n      swap3\n      swap2\n      pop\n      pop\n      jump\t// out\n        /* \"#utility.yul\":11932:12034   */\n    tag_206:\n        /* \"#utility.yul\":12001:12005   */\n      0x00\n        /* \"#utility.yul\":12024:12027   */\n      dup2\n        /* \"#utility.yul\":12016:12027   */\n      swap1\n      pop\n        /* \"#utility.yul\":11932:12034   */\n      swap2\n      swap1\n      pop\n      jump\t// out\n        /* \"#utility.yul\":12040:12148   */\n    tag_207:\n        /* \"#utility.yul\":12117:12141   */\n      tag_359\n        /* \"#utility.yul\":12135:12140   */\n      dup2\n        /* \"#utility.yul\":12117:12141   */\n      tag_184\n      jump\t// in\n    tag_359:\n        /* \"#utility.yul\":12112:12115   */\n      dup3\n        /* \"#utility.yul\":12105:12142   */\n      mstore\n        /* \"#utility.yul\":12040:12148   */\n      pop\n      pop\n      jump\t// out\n        /* \"#utility.yul\":12154:12333   */\n    tag_208:\n        /* \"#utility.yul\":12223:12233   */\n      0x00\n        /* \"#utility.yul\":12244:12290   */\n      tag_361\n        /* \"#utility.yul\":12286:12289   */\n      dup4\n        /* \"#utility.yul\":12278:12284   */\n      dup4\n        /* \"#utility.yul\":12244:12290   */\n      tag_207\n      jump\t// in\n    tag_361:\n        /* \"#utility.yul\":12322:12326   */\n      0x20\n        /* \"#utility.yul\":12317:12320   */\n      dup4\n        /* \"#utility.yul\":12313:12327   */\n      add\n        /* \"#utility.yul\":12299:12327   */\n      swap1\n      pop\n        /* \"#utility.yul\":12154:12333   */\n      swap3\n      swap2\n      pop\n      pop\n      jump\t// out\n        /* \"#utility.yul\":12339:12461   */\n    tag_209:\n        /* \"#utility.yul\":12391:12396   */\n      0x00\n        /* \"#utility.yul\":12416:12455   */\n      tag_363\n        /* \"#utility.yul\":12451:12453   */\n      0x20\n        /* \"#utility.yul\":12446:12449   */\n      dup5\n        /* \"#utility.yul\":12442:12454   */\n      add\n        /* \"#utility.yul\":12437:12440   */\n      dup5\n        /* \"#utility.yul\":12416:12455   */\n      tag_186\n      jump\t// in\n    tag_363:\n        /* \"#utility.yul\":12407:12455   */\n      swap1\n      pop\n        /* \"#utility.yul\":12339:12461   */\n      swap3\n      swap2\n      pop\n      pop\n      jump\t// out\n        /* \"#utility.yul\":12467:12582   */\n    tag_210:\n        /* \"#utility.yul\":12539:12543   */\n      0x00\n        /* \"#utility.yul\":12571:12575   */\n      0x20\n        /* \"#utility.yul\":12566:12569   */\n      dup3\n        /* \"#utility.yul\":12562:12576   */\n      add\n        /* \"#utility.yul\":12554:12576   */\n      swap1\n      pop\n        /* \"#utility.yul\":12467:12582   */\n      swap2\n      swap1\n      pop\n      jump\t// out\n        /* \"#utility.yul\":12618:13317   */\n    tag_211:\n        /* \"#utility.yul\":12747:12750   */\n      0x00\n        /* \"#utility.yul\":12770:12856   */\n      tag_366\n        /* \"#utility.yul\":12849:12855   */\n      dup4\n        /* \"#utility.yul\":12844:12847   */\n      dup6\n        /* \"#utility.yul\":12770:12856   */\n      tag_205\n      jump\t// in\n    tag_366:\n        /* \"#utility.yul\":12763:12856   */\n      swap4\n      pop\n        /* \"#utility.yul\":12880:12938   */\n      tag_367\n        /* \"#utility.yul\":12932:12937   */\n      dup3\n        /* \"#utility.yul\":12880:12938   */\n      tag_206\n      jump\t// in\n    tag_367:\n        /* \"#utility.yul\":12961:12968   */\n      dup1\n        /* \"#utility.yul\":12992:12993   */\n      0x00\n        /* \"#utility.yul\":12977:13292   */\n    tag_368:\n        /* \"#utility.yul\":13002:13008   */\n      dup6\n        /* \"#utility.yul\":12999:13000   */\n      dup2\n        /* \"#utility.yul\":12996:13009   */\n      lt\n        /* \"#utility.yul\":12977:13292   */\n      iszero\n      tag_370\n      jumpi\n        /* \"#utility.yul\":13072:13114   */\n      tag_371\n        /* \"#utility.yul\":13107:13113   */\n      dup3\n        /* \"#utility.yul\":13098:13105   */\n      dup5\n        /* \"#utility.yul\":13072:13114   */\n      tag_209\n      jump\t// in\n    tag_371:\n        /* \"#utility.yul\":13134:13197   */\n      tag_372\n        /* \"#utility.yul\":13193:13196   */\n      dup9\n        /* \"#utility.yul\":13178:13191   */\n      dup3\n        /* \"#utility.yul\":13134:13197   */\n      tag_208\n      jump\t// in\n    tag_372:\n        /* \"#utility.yul\":13127:13197   */\n      swap8\n      pop\n        /* \"#utility.yul\":13220:13282   */\n      tag_373\n        /* \"#utility.yul\":13275:13281   */\n      dup4\n        /* \"#utility.yul\":13220:13282   */\n      tag_210\n      jump\t// in\n    tag_373:\n        /* \"#utility.yul\":13210:13282   */\n      swap3\n      pop\n        /* \"#utility.yul\":13037:13292   */\n      pop\n        /* \"#utility.yul\":13024:13025   */\n      0x01\n        /* \"#utility.yul\":13021:13022   */\n      dup2\n        /* \"#utility.yul\":13017:13026   */\n      add\n        /* \"#utility.yul\":13012:13026   */\n      swap1\n      pop\n        /* \"#utility.yul\":12977:13292   */\n      jump(tag_368)\n    tag_370:\n        /* \"#utility.yul\":12981:12995   */\n      pop\n        /* \"#utility.yul\":13308:13311   */\n      dup6\n        /* \"#utility.yul\":13301:13311   */\n      swap3\n      pop\n        /* \"#utility.yul\":12752:13317   */\n      pop\n      pop\n        /* \"#utility.yul\":12618:13317   */\n      swap4\n      swap3\n      pop\n      pop\n      pop\n      jump\t// out\n        /* \"#utility.yul\":13323:13936   */\n    tag_80:\n        /* \"#utility.yul\":13532:13536   */\n      0x00\n        /* \"#utility.yul\":13570:13572   */\n      0x60\n        /* \"#utility.yul\":13559:13568   */\n      dup3\n        /* \"#utility.yul\":13555:13573   */\n      add\n        /* \"#utility.yul\":13547:13573   */\n      swap1\n      pop\n        /* \"#utility.yul\":13583:13654   */\n      tag_375\n        /* \"#utility.yul\":13651:13652   */\n      0x00\n        /* \"#utility.yul\":13640:13649   */\n      dup4\n        /* \"#utility.yul\":13636:13653   */\n      add\n        /* \"#utility.yul\":13627:13633   */\n      dup8\n        /* \"#utility.yul\":13583:13654   */\n      tag_204\n      jump\t// in\n    tag_375:\n        /* \"#utility.yul\":13664:13736   */\n      tag_376\n        /* \"#utility.yul\":13732:13734   */\n      0x20\n        /* \"#utility.yul\":13721:13730   */\n      dup4\n        /* \"#utility.yul\":13717:13735   */\n      add\n        /* \"#utility.yul\":13708:13714   */\n      dup7\n        /* \"#utility.yul\":13664:13736   */\n      tag_194\n      jump\t// in\n    tag_376:\n        /* \"#utility.yul\":13783:13792   */\n      dup2\n        /* \"#utility.yul\":13777:13781   */\n      dup2\n        /* \"#utility.yul\":13773:13793   */\n      sub\n        /* \"#utility.yul\":13768:13770   */\n      0x40\n        /* \"#utility.yul\":13757:13766   */\n      dup4\n        /* \"#utility.yul\":13753:13771   */\n      add\n        /* \"#utility.yul\":13746:13794   */\n      mstore\n        /* \"#utility.yul\":13811:13929   */\n      tag_377\n        /* \"#utility.yul\":13924:13928   */\n      dup2\n        /* \"#utility.yul\":13915:13921   */\n      dup5\n        /* \"#utility.yul\":13907:13913   */\n      dup7\n        /* \"#utility.yul\":13811:13929   */\n      tag_211\n      jump\t// in\n    tag_377:\n        /* \"#utility.yul\":13803:13929   */\n      swap1\n      pop\n        /* \"#utility.yul\":13323:13936   */\n      swap6\n      swap5\n      pop\n      pop\n      pop\n      pop\n      pop\n      jump\t// out\n        /* \"#utility.yul\":13942:14384   */\n    tag_86:\n        /* \"#utility.yul\":14091:14095   */\n      0x00\n        /* \"#utility.yul\":14129:14131   */\n      0x60\n        /* \"#utility.yul\":14118:14127   */\n      dup3\n        /* \"#utility.yul\":14114:14132   */\n      add\n        /* \"#utility.yul\":14106:14132   */\n      swap1\n      pop\n        /* \"#utility.yul\":14142:14213   */\n      tag_379\n        /* \"#utility.yul\":14210:14211   */\n      0x00\n        /* \"#utility.yul\":14199:14208   */\n      dup4\n        /* \"#utility.yul\":14195:14212   */\n      add\n        /* \"#utility.yul\":14186:14192   */\n      dup7\n        /* \"#utility.yul\":14142:14213   */\n      tag_194\n      jump\t// in\n    tag_379:\n        /* \"#utility.yul\":14223:14295   */\n      tag_380\n        /* \"#utility.yul\":14291:14293   */\n      0x20\n        /* \"#utility.yul\":14280:14289   */\n      dup4\n        /* \"#utility.yul\":14276:14294   */\n      add\n        /* \"#utility.yul\":14267:14273   */\n      dup6\n        /* \"#utility.yul\":14223:14295   */\n      tag_194\n      jump\t// in\n    tag_380:\n        /* \"#utility.yul\":14305:14377   */\n      tag_381\n        /* \"#utility.yul\":14373:14375   */\n      0x40\n        /* \"#utility.yul\":14362:14371   */\n      dup4\n        /* \"#utility.yul\":14358:14376   */\n      add\n        /* \"#utility.yul\":14349:14355   */\n      dup5\n        /* \"#utility.yul\":14305:14377   */\n      tag_204\n      jump\t// in\n    tag_381:\n        /* \"#utility.yul\":13942:14384   */\n      swap5\n      swap4\n      pop\n      pop\n      pop\n      pop\n      jump\t// out\n        /* \"#utility.yul\":14390:14506   */\n    tag_212:\n        /* \"#utility.yul\":14460:14481   */\n      tag_383\n        /* \"#utility.yul\":14475:14480   */\n      dup2\n        /* \"#utility.yul\":14460:14481   */\n      tag_195\n      jump\t// in\n    tag_383:\n        /* \"#utility.yul\":14453:14458   */\n      dup2\n        /* \"#utility.yul\":14450:14482   */\n      eq\n        /* \"#utility.yul\":14440:14500   */\n      tag_384\n      jumpi\n        /* \"#utility.yul\":14496:14497   */\n      0x00\n        /* \"#utility.yul\":14493:14494   */\n      dup1\n        /* \"#utility.yul\":14486:14498   */\n      revert\n        /* \"#utility.yul\":14440:14500   */\n    tag_384:\n        /* \"#utility.yul\":14390:14506   */\n      pop\n      jump\t// out\n        /* \"#utility.yul\":14512:14649   */\n    tag_213:\n        /* \"#utility.yul\":14566:14571   */\n      0x00\n        /* \"#utility.yul\":14597:14603   */\n      dup2\n        /* \"#utility.yul\":14591:14604   */\n      mload\n        /* \"#utility.yul\":14582:14604   */\n      swap1\n      pop\n        /* \"#utility.yul\":14613:14643   */\n      tag_386\n        /* \"#utility.yul\":14637:14642   */\n      dup2\n        /* \"#utility.yul\":14613:14643   */\n      tag_212\n      jump\t// in\n    tag_386:\n        /* \"#utility.yul\":14512:14649   */\n      swap3\n      swap2\n      pop\n      pop\n      jump\t// out\n        /* \"#utility.yul\":14655:15000   */\n    tag_90:\n        /* \"#utility.yul\":14722:14728   */\n      0x00\n        /* \"#utility.yul\":14771:14773   */\n      0x20\n        /* \"#utility.yul\":14759:14768   */\n      dup3\n        /* \"#utility.yul\":14750:14757   */\n      dup5\n        /* \"#utility.yul\":14746:14769   */\n      sub\n        /* \"#utility.yul\":14742:14774   */\n      slt\n        /* \"#utility.yul\":14739:14858   */\n      iszero\n      tag_388\n      jumpi\n        /* \"#utility.yul\":14777:14856   */\n      tag_389\n      tag_178\n      jump\t// in\n    tag_389:\n        /* \"#utility.yul\":14739:14858   */\n    tag_388:\n        /* \"#utility.yul\":14897:14898   */\n      0x00\n        /* \"#utility.yul\":14922:14983   */\n      tag_390\n        /* \"#utility.yul\":14975:14982   */\n      dup5\n        /* \"#utility.yul\":14966:14972   */\n      dup3\n        /* \"#utility.yul\":14955:14964   */\n      dup6\n        /* \"#utility.yul\":14951:14973   */\n      add\n        /* \"#utility.yul\":14922:14983   */\n      tag_213\n      jump\t// in\n    tag_390:\n        /* \"#utility.yul\":14912:14983   */\n      swap2\n      pop\n        /* \"#utility.yul\":14868:14993   */\n      pop\n        /* \"#utility.yul\":14655:15000   */\n      swap3\n      swap2\n      pop\n      pop\n      jump\t// out\n        /* \"#utility.yul\":15006:15175   */\n    tag_214:\n        /* \"#utility.yul\":15090:15101   */\n      0x00\n        /* \"#utility.yul\":15124:15130   */\n      dup3\n        /* \"#utility.yul\":15119:15122   */\n      dup3\n        /* \"#utility.yul\":15112:15131   */\n      mstore\n        /* \"#utility.yul\":15164:15168   */\n      0x20\n        /* \"#utility.yul\":15159:15162   */\n      dup3\n        /* \"#utility.yul\":15155:15169   */\n      add\n        /* \"#utility.yul\":15140:15169   */\n      swap1\n      pop\n        /* \"#utility.yul\":15006:15175   */\n      swap3\n      swap2\n      pop\n      pop\n      jump\t// out\n        /* \"#utility.yul\":15181:15363   */\n    tag_215:\n        /* \"#utility.yul\":15321:15355   */\n      0x4f776e61626c653a2063616c6c6572206973206e6f7420746865206f776e6572\n        /* \"#utility.yul\":15317:15318   */\n      0x00\n        /* \"#utility.yul\":15309:15315   */\n      dup3\n        /* \"#utility.yul\":15305:15319   */\n      add\n        /* \"#utility.yul\":15298:15356   */\n      mstore\n        /* \"#utility.yul\":15181:15363   */\n      pop\n      jump\t// out\n        /* \"#utility.yul\":15369:15735   */\n    tag_216:\n        /* \"#utility.yul\":15511:15514   */\n      0x00\n        /* \"#utility.yul\":15532:15599   */\n      tag_394\n        /* \"#utility.yul\":15596:15598   */\n      0x20\n        /* \"#utility.yul\":15591:15594   */\n      dup4\n        /* \"#utility.yul\":15532:15599   */\n      tag_214\n      jump\t// in\n    tag_394:\n        /* \"#utility.yul\":15525:15599   */\n      swap2\n      pop\n        /* \"#utility.yul\":15608:15701   */\n      tag_395\n        /* \"#utility.yul\":15697:15700   */\n      dup3\n        /* \"#utility.yul\":15608:15701   */\n      tag_215\n      jump\t// in\n    tag_395:\n        /* \"#utility.yul\":15726:15728   */\n      0x20\n        /* \"#utility.yul\":15721:15724   */\n      dup3\n        /* \"#utility.yul\":15717:15729   */\n      add\n        /* \"#utility.yul\":15710:15729   */\n      swap1\n      pop\n        /* \"#utility.yul\":15369:15735   */\n      swap2\n      swap1\n      pop\n      jump\t// out\n        /* \"#utility.yul\":15741:16160   */\n    tag_96:\n        /* \"#utility.yul\":15907:15911   */\n      0x00\n        /* \"#utility.yul\":15945:15947   */\n      0x20\n        /* \"#utility.yul\":15934:15943   */\n      dup3\n        /* \"#utility.yul\":15930:15948   */\n      add\n        /* \"#utility.yul\":15922:15948   */\n      swap1\n      pop\n        /* \"#utility.yul\":15994:16003   */\n      dup2\n        /* \"#utility.yul\":15988:15992   */\n      dup2\n        /* \"#utility.yul\":15984:16004   */\n      sub\n        /* \"#utility.yul\":15980:15981   */\n      0x00\n        /* \"#utility.yul\":15969:15978   */\n      dup4\n        /* \"#utility.yul\":15965:15982   */\n      add\n        /* \"#utility.yul\":15958:16005   */\n      mstore\n        /* \"#utility.yul\":16022:16153   */\n      tag_397\n        /* \"#utility.yul\":16148:16152   */\n      dup2\n        /* \"#utility.yul\":16022:16153   */\n      tag_216\n      jump\t// in\n    tag_397:\n        /* \"#utility.yul\":16014:16153   */\n      swap1\n      pop\n        /* \"#utility.yul\":15741:16160   */\n      swap2\n      swap1\n      pop\n      jump\t// out\n        /* \"#utility.yul\":16166:16313   */\n    tag_217:\n        /* \"#utility.yul\":16267:16278   */\n      0x00\n        /* \"#utility.yul\":16304:16307   */\n      dup2\n        /* \"#utility.yul\":16289:16307   */\n      swap1\n      pop\n        /* \"#utility.yul\":16166:16313   */\n      swap3\n      swap2\n      pop\n      pop\n      jump\t// out\n        /* \"#utility.yul\":16319:16433   */\n    tag_218:\n      pop\n      jump\t// out\n        /* \"#utility.yul\":16439:16837   */\n    tag_219:\n        /* \"#utility.yul\":16598:16601   */\n      0x00\n        /* \"#utility.yul\":16619:16702   */\n      tag_401\n        /* \"#utility.yul\":16700:16701   */\n      0x00\n        /* \"#utility.yul\":16695:16698   */\n      dup4\n        /* \"#utility.yul\":16619:16702   */\n      tag_217\n      jump\t// in\n    tag_401:\n        /* \"#utility.yul\":16612:16702   */\n      swap2\n      pop\n        /* \"#utility.yul\":16711:16804   */\n      tag_402\n        /* \"#utility.yul\":16800:16803   */\n      dup3\n        /* \"#utility.yul\":16711:16804   */\n      tag_218\n      jump\t// in\n    tag_402:\n        /* \"#utility.yul\":16829:16830   */\n      0x00\n        /* \"#utility.yul\":16824:16827   */\n      dup3\n        /* \"#utility.yul\":16820:16831   */\n      add\n        /* \"#utility.yul\":16813:16831   */\n      swap1\n      pop\n        /* \"#utility.yul\":16439:16837   */\n      swap2\n      swap1\n      pop\n      jump\t// out\n        /* \"#utility.yul\":16843:17222   */\n    tag_99:\n        /* \"#utility.yul\":17027:17030   */\n      0x00\n        /* \"#utility.yul\":17049:17196   */\n      tag_404\n        /* \"#utility.yul\":17192:17195   */\n      dup3\n        /* \"#utility.yul\":17049:17196   */\n      tag_219\n      jump\t// in\n    tag_404:\n        /* \"#utility.yul\":17042:17196   */\n      swap2\n      pop\n        /* \"#utility.yul\":17213:17216   */\n      dup2\n        /* \"#utility.yul\":17206:17216   */\n      swap1\n      pop\n        /* \"#utility.yul\":16843:17222   */\n      swap2\n      swap1\n      pop\n      jump\t// out\n        /* \"#utility.yul\":17228:17398   */\n    tag_220:\n        /* \"#utility.yul\":17368:17390   */\n      0x4661696c656420746f2073656e64204574686572000000000000000000000000\n        /* \"#utility.yul\":17364:17365   */\n      0x00\n        /* \"#utility.yul\":17356:17362   */\n      dup3\n        /* \"#utility.yul\":17352:17366   */\n      add\n        /* \"#utility.yul\":17345:17391   */\n      mstore\n        /* \"#utility.yul\":17228:17398   */\n      pop\n      jump\t// out\n        /* \"#utility.yul\":17404:17770   */\n    tag_221:\n        /* \"#utility.yul\":17546:17549   */\n      0x00\n        /* \"#utility.yul\":17567:17634   */\n      tag_407\n        /* \"#utility.yul\":17631:17633   */\n      0x14\n        /* \"#utility.yul\":17626:17629   */\n      dup4\n        /* \"#utility.yul\":17567:17634   */\n      tag_214\n      jump\t// in\n    tag_407:\n        /* \"#utility.yul\":17560:17634   */\n      swap2\n      pop\n        /* \"#utility.yul\":17643:17736   */\n      tag_408\n        /* \"#utility.yul\":17732:17735   */\n      dup3\n        /* \"#utility.yul\":17643:17736   */\n      tag_220\n      jump\t// in\n    tag_408:\n        /* \"#utility.yul\":17761:17763   */\n      0x20\n        /* \"#utility.yul\":17756:17759   */\n      dup3\n        /* \"#utility.yul\":17752:17764   */\n      add\n        /* \"#utility.yul\":17745:17764   */\n      swap1\n      pop\n        /* \"#utility.yul\":17404:17770   */\n      swap2\n      swap1\n      pop\n      jump\t// out\n        /* \"#utility.yul\":17776:18195   */\n    tag_105:\n        /* \"#utility.yul\":17942:17946   */\n      0x00\n        /* \"#utility.yul\":17980:17982   */\n      0x20\n        /* \"#utility.yul\":17969:17978   */\n      dup3\n        /* \"#utility.yul\":17965:17983   */\n      add\n        /* \"#utility.yul\":17957:17983   */\n      swap1\n      pop\n        /* \"#utility.yul\":18029:18038   */\n      dup2\n        /* \"#utility.yul\":18023:18027   */\n      dup2\n        /* \"#utility.yul\":18019:18039   */\n      sub\n        /* \"#utility.yul\":18015:18016   */\n      0x00\n        /* \"#utility.yul\":18004:18013   */\n      dup4\n        /* \"#utility.yul\":18000:18017   */\n      add\n        /* \"#utility.yul\":17993:18040   */\n      mstore\n        /* \"#utility.yul\":18057:18188   */\n      tag_410\n        /* \"#utility.yul\":18183:18187   */\n      dup2\n        /* \"#utility.yul\":18057:18188   */\n      tag_221\n      jump\t// in\n    tag_410:\n        /* \"#utility.yul\":18049:18188   */\n      swap1\n      pop\n        /* \"#utility.yul\":17776:18195   */\n      swap2\n      swap1\n      pop\n      jump\t// out\n        /* \"#utility.yul\":18201:18533   */\n    tag_112:\n        /* \"#utility.yul\":18322:18326   */\n      0x00\n        /* \"#utility.yul\":18360:18362   */\n      0x40\n        /* \"#utility.yul\":18349:18358   */\n      dup3\n        /* \"#utility.yul\":18345:18363   */\n      add\n        /* \"#utility.yul\":18337:18363   */\n      swap1\n      pop\n        /* \"#utility.yul\":18373:18444   */\n      tag_412\n        /* \"#utility.yul\":18441:18442   */\n      0x00\n        /* \"#utility.yul\":18430:18439   */\n      dup4\n        /* \"#utility.yul\":18426:18443   */\n      add\n        /* \"#utility.yul\":18417:18423   */\n      dup6\n        /* \"#utility.yul\":18373:18444   */\n      tag_194\n      jump\t// in\n    tag_412:\n        /* \"#utility.yul\":18454:18526   */\n      tag_413\n        /* \"#utility.yul\":18522:18524   */\n      0x20\n        /* \"#utility.yul\":18511:18520   */\n      dup4\n        /* \"#utility.yul\":18507:18525   */\n      add\n        /* \"#utility.yul\":18498:18504   */\n      dup5\n        /* \"#utility.yul\":18454:18526   */\n      tag_204\n      jump\t// in\n    tag_413:\n        /* \"#utility.yul\":18201:18533   */\n      swap4\n      swap3\n      pop\n      pop\n      pop\n      jump\t// out\n        /* \"#utility.yul\":18539:19263   */\n    tag_127:\n        /* \"#utility.yul\":18776:18780   */\n      0x00\n        /* \"#utility.yul\":18814:18817   */\n      0x80\n        /* \"#utility.yul\":18803:18812   */\n      dup3\n        /* \"#utility.yul\":18799:18818   */\n      add\n        /* \"#utility.yul\":18791:18818   */\n      swap1\n      pop\n        /* \"#utility.yul\":18828:18899   */\n      tag_415\n        /* \"#utility.yul\":18896:18897   */\n      0x00\n        /* \"#utility.yul\":18885:18894   */\n      dup4\n        /* \"#utility.yul\":18881:18898   */\n      add\n        /* \"#utility.yul\":18872:18878   */\n      dup9\n        /* \"#utility.yul\":18828:18899   */\n      tag_194\n      jump\t// in\n    tag_415:\n        /* \"#utility.yul\":18909:18981   */\n      tag_416\n        /* \"#utility.yul\":18977:18979   */\n      0x20\n        /* \"#utility.yul\":18966:18975   */\n      dup4\n        /* \"#utility.yul\":18962:18980   */\n      add\n        /* \"#utility.yul\":18953:18959   */\n      dup8\n        /* \"#utility.yul\":18909:18981   */\n      tag_204\n      jump\t// in\n    tag_416:\n        /* \"#utility.yul\":18991:19063   */\n      tag_417\n        /* \"#utility.yul\":19059:19061   */\n      0x40\n        /* \"#utility.yul\":19048:19057   */\n      dup4\n        /* \"#utility.yul\":19044:19062   */\n      add\n        /* \"#utility.yul\":19035:19041   */\n      dup7\n        /* \"#utility.yul\":18991:19063   */\n      tag_204\n      jump\t// in\n    tag_417:\n        /* \"#utility.yul\":19110:19119   */\n      dup2\n        /* \"#utility.yul\":19104:19108   */\n      dup2\n        /* \"#utility.yul\":19100:19120   */\n      sub\n        /* \"#utility.yul\":19095:19097   */\n      0x60\n        /* \"#utility.yul\":19084:19093   */\n      dup4\n        /* \"#utility.yul\":19080:19098   */\n      add\n        /* \"#utility.yul\":19073:19121   */\n      mstore\n        /* \"#utility.yul\":19138:19256   */\n      tag_418\n        /* \"#utility.yul\":19251:19255   */\n      dup2\n        /* \"#utility.yul\":19242:19248   */\n      dup5\n        /* \"#utility.yul\":19234:19240   */\n      dup7\n        /* \"#utility.yul\":19138:19256   */\n      tag_211\n      jump\t// in\n    tag_418:\n        /* \"#utility.yul\":19130:19256   */\n      swap1\n      pop\n        /* \"#utility.yul\":18539:19263   */\n      swap7\n      swap6\n      pop\n      pop\n      pop\n      pop\n      pop\n      pop\n      jump\t// out\n        /* \"#utility.yul\":19269:19449   */\n    tag_136:\n        /* \"#utility.yul\":19317:19394   */\n      0x4e487b7100000000000000000000000000000000000000000000000000000000\n        /* \"#utility.yul\":19314:19315   */\n      0x00\n        /* \"#utility.yul\":19307:19395   */\n      mstore\n        /* \"#utility.yul\":19414:19418   */\n      0x32\n        /* \"#utility.yul\":19411:19412   */\n      0x04\n        /* \"#utility.yul\":19404:19419   */\n      mstore\n        /* \"#utility.yul\":19438:19442   */\n      0x24\n        /* \"#utility.yul\":19435:19436   */\n      0x00\n        /* \"#utility.yul\":19428:19443   */\n      revert\n        /* \"#utility.yul\":19455:20350   */\n    tag_143:\n        /* \"#utility.yul\":19752:19756   */\n      0x00\n        /* \"#utility.yul\":19790:19793   */\n      0x80\n        /* \"#utility.yul\":19779:19788   */\n      dup3\n        /* \"#utility.yul\":19775:19794   */\n      add\n        /* \"#utility.yul\":19767:19794   */\n      swap1\n      pop\n        /* \"#utility.yul\":19804:19875   */\n      tag_421\n        /* \"#utility.yul\":19872:19873   */\n      0x00\n        /* \"#utility.yul\":19861:19870   */\n      dup4\n        /* \"#utility.yul\":19857:19874   */\n      add\n        /* \"#utility.yul\":19848:19854   */\n      dup10\n        /* \"#utility.yul\":19804:19875   */\n      tag_204\n      jump\t// in\n    tag_421:\n        /* \"#utility.yul\":19885:19957   */\n      tag_422\n        /* \"#utility.yul\":19953:19955   */\n      0x20\n        /* \"#utility.yul\":19942:19951   */\n      dup4\n        /* \"#utility.yul\":19938:19956   */\n      add\n        /* \"#utility.yul\":19929:19935   */\n      dup9\n        /* \"#utility.yul\":19885:19957   */\n      tag_204\n      jump\t// in\n    tag_422:\n        /* \"#utility.yul\":20004:20013   */\n      dup2\n        /* \"#utility.yul\":19998:20002   */\n      dup2\n        /* \"#utility.yul\":19994:20014   */\n      sub\n        /* \"#utility.yul\":19989:19991   */\n      0x40\n        /* \"#utility.yul\":19978:19987   */\n      dup4\n        /* \"#utility.yul\":19974:19992   */\n      add\n        /* \"#utility.yul\":19967:20015   */\n      mstore\n        /* \"#utility.yul\":20032:20150   */\n      tag_423\n        /* \"#utility.yul\":20145:20149   */\n      dup2\n        /* \"#utility.yul\":20136:20142   */\n      dup7\n        /* \"#utility.yul\":20128:20134   */\n      dup9\n        /* \"#utility.yul\":20032:20150   */\n      tag_211\n      jump\t// in\n    tag_423:\n        /* \"#utility.yul\":20024:20150   */\n      swap1\n      pop\n        /* \"#utility.yul\":20197:20206   */\n      dup2\n        /* \"#utility.yul\":20191:20195   */\n      dup2\n        /* \"#utility.yul\":20187:20207   */\n      sub\n        /* \"#utility.yul\":20182:20184   */\n      0x60\n        /* \"#utility.yul\":20171:20180   */\n      dup4\n        /* \"#utility.yul\":20167:20185   */\n      add\n        /* \"#utility.yul\":20160:20208   */\n      mstore\n        /* \"#utility.yul\":20225:20343   */\n      tag_424\n        /* \"#utility.yul\":20338:20342   */\n      dup2\n        /* \"#utility.yul\":20329:20335   */\n      dup5\n        /* \"#utility.yul\":20321:20327   */\n      dup7\n        /* \"#utility.yul\":20225:20343   */\n      tag_211\n      jump\t// in\n    tag_424:\n        /* \"#utility.yul\":20217:20343   */\n      swap1\n      pop\n        /* \"#utility.yul\":19455:20350   */\n      swap8\n      swap7\n      pop\n      pop\n      pop\n      pop\n      pop\n      pop\n      pop\n      jump\t// out\n        /* \"#utility.yul\":20356:21140   */\n    tag_161:\n        /* \"#utility.yul\":20625:20629   */\n      0x00\n        /* \"#utility.yul\":20663:20665   */\n      0x60\n        /* \"#utility.yul\":20652:20661   */\n      dup3\n        /* \"#utility.yul\":20648:20666   */\n      add\n        /* \"#utility.yul\":20640:20666   */\n      swap1\n      pop\n        /* \"#utility.yul\":20676:20747   */\n      tag_426\n        /* \"#utility.yul\":20744:20745   */\n      0x00\n        /* \"#utility.yul\":20733:20742   */\n      dup4\n        /* \"#utility.yul\":20729:20746   */\n      add\n        /* \"#utility.yul\":20720:20726   */\n      dup9\n        /* \"#utility.yul\":20676:20747   */\n      tag_204\n      jump\t// in\n    tag_426:\n        /* \"#utility.yul\":20794:20803   */\n      dup2\n        /* \"#utility.yul\":20788:20792   */\n      dup2\n        /* \"#utility.yul\":20784:20804   */\n      sub\n        /* \"#utility.yul\":20779:20781   */\n      0x20\n        /* \"#utility.yul\":20768:20777   */\n      dup4\n        /* \"#utility.yul\":20764:20782   */\n      add\n        /* \"#utility.yul\":20757:20805   */\n      mstore\n        /* \"#utility.yul\":20822:20940   */\n      tag_427\n        /* \"#utility.yul\":20935:20939   */\n      dup2\n        /* \"#utility.yul\":20926:20932   */\n      dup7\n        /* \"#utility.yul\":20918:20924   */\n      dup9\n        /* \"#utility.yul\":20822:20940   */\n      tag_211\n      jump\t// in\n    tag_427:\n        /* \"#utility.yul\":20814:20940   */\n      swap1\n      pop\n        /* \"#utility.yul\":20987:20996   */\n      dup2\n        /* \"#utility.yul\":20981:20985   */\n      dup2\n        /* \"#utility.yul\":20977:20997   */\n      sub\n        /* \"#utility.yul\":20972:20974   */\n      0x40\n        /* \"#utility.yul\":20961:20970   */\n      dup4\n        /* \"#utility.yul\":20957:20975   */\n      add\n        /* \"#utility.yul\":20950:20998   */\n      mstore\n        /* \"#utility.yul\":21015:21133   */\n      tag_428\n        /* \"#utility.yul\":21128:21132   */\n      dup2\n        /* \"#utility.yul\":21119:21125   */\n      dup5\n        /* \"#utility.yul\":21111:21117   */\n      dup7\n        /* \"#utility.yul\":21015:21133   */\n      tag_211\n      jump\t// in\n    tag_428:\n        /* \"#utility.yul\":21007:21133   */\n      swap1\n      pop\n        /* \"#utility.yul\":20356:21140   */\n      swap7\n      swap6\n      pop\n      pop\n      pop\n      pop\n      pop\n      pop\n      jump\t// out\n        /* \"#utility.yul\":21146:21248   */\n    tag_222:\n        /* \"#utility.yul\":21187:21193   */\n      0x00\n        /* \"#utility.yul\":21238:21240   */\n      0x1f\n        /* \"#utility.yul\":21234:21241   */\n      not\n        /* \"#utility.yul\":21229:21231   */\n      0x1f\n        /* \"#utility.yul\":21222:21227   */\n      dup4\n        /* \"#utility.yul\":21218:21232   */\n      add\n        /* \"#utility.yul\":21214:21242   */\n      and\n        /* \"#utility.yul\":21204:21242   */\n      swap1\n      pop\n        /* \"#utility.yul\":21146:21248   */\n      swap2\n      swap1\n      pop\n      jump\t// out\n        /* \"#utility.yul\":21254:21434   */\n    tag_223:\n        /* \"#utility.yul\":21302:21379   */\n      0x4e487b7100000000000000000000000000000000000000000000000000000000\n        /* \"#utility.yul\":21299:21300   */\n      0x00\n        /* \"#utility.yul\":21292:21380   */\n      mstore\n        /* \"#utility.yul\":21399:21403   */\n      0x41\n        /* \"#utility.yul\":21396:21397   */\n      0x04\n        /* \"#utility.yul\":21389:21404   */\n      mstore\n        /* \"#utility.yul\":21423:21427   */\n      0x24\n        /* \"#utility.yul\":21420:21421   */\n      0x00\n        /* \"#utility.yul\":21413:21428   */\n      revert\n        /* \"#utility.yul\":21440:21721   */\n    tag_224:\n        /* \"#utility.yul\":21523:21550   */\n      tag_432\n        /* \"#utility.yul\":21545:21549   */\n      dup3\n        /* \"#utility.yul\":21523:21550   */\n      tag_222\n      jump\t// in\n    tag_432:\n        /* \"#utility.yul\":21515:21521   */\n      dup2\n        /* \"#utility.yul\":21511:21551   */\n      add\n        /* \"#utility.yul\":21653:21659   */\n      dup2\n        /* \"#utility.yul\":21641:21651   */\n      dup2\n        /* \"#utility.yul\":21638:21660   */\n      lt\n        /* \"#utility.yul\":21617:21635   */\n      0xffffffffffffffff\n        /* \"#utility.yul\":21605:21615   */\n      dup3\n        /* \"#utility.yul\":21602:21636   */\n      gt\n        /* \"#utility.yul\":21599:21661   */\n      or\n        /* \"#utility.yul\":21596:21684   */\n      iszero\n      tag_433\n      jumpi\n        /* \"#utility.yul\":21664:21682   */\n      tag_434\n      tag_223\n      jump\t// in\n    tag_434:\n        /* \"#utility.yul\":21596:21684   */\n    tag_433:\n        /* \"#utility.yul\":21704:21714   */\n      dup1\n        /* \"#utility.yul\":21700:21702   */\n      0x40\n        /* \"#utility.yul\":21693:21715   */\n      mstore\n        /* \"#utility.yul\":21483:21721   */\n      pop\n        /* \"#utility.yul\":21440:21721   */\n      pop\n      pop\n      jump\t// out\n        /* \"#utility.yul\":21727:21856   */\n    tag_225:\n        /* \"#utility.yul\":21761:21767   */\n      0x00\n        /* \"#utility.yul\":21788:21808   */\n      tag_436\n      tag_177\n      jump\t// in\n    tag_436:\n        /* \"#utility.yul\":21778:21808   */\n      swap1\n      pop\n        /* \"#utility.yul\":21817:21850   */\n      tag_437\n        /* \"#utility.yul\":21845:21849   */\n      dup3\n        /* \"#utility.yul\":21837:21843   */\n      dup3\n        /* \"#utility.yul\":21817:21850   */\n      tag_224\n      jump\t// in\n    tag_437:\n        /* \"#utility.yul\":21727:21856   */\n      swap2\n      swap1\n      pop\n      jump\t// out\n        /* \"#utility.yul\":21862:22173   */\n    tag_226:\n        /* \"#utility.yul\":21939:21943   */\n      0x00\n        /* \"#utility.yul\":22029:22047   */\n      0xffffffffffffffff\n        /* \"#utility.yul\":22021:22027   */\n      dup3\n        /* \"#utility.yul\":22018:22048   */\n      gt\n        /* \"#utility.yul\":22015:22071   */\n      iszero\n      tag_439\n      jumpi\n        /* \"#utility.yul\":22051:22069   */\n      tag_440\n      tag_223\n      jump\t// in\n    tag_440:\n        /* \"#utility.yul\":22015:22071   */\n    tag_439:\n        /* \"#utility.yul\":22101:22105   */\n      0x20\n        /* \"#utility.yul\":22093:22099   */\n      dup3\n        /* \"#utility.yul\":22089:22106   */\n      mul\n        /* \"#utility.yul\":22081:22106   */\n      swap1\n      pop\n        /* \"#utility.yul\":22161:22165   */\n      0x20\n        /* \"#utility.yul\":22155:22159   */\n      dup2\n        /* \"#utility.yul\":22151:22166   */\n      add\n        /* \"#utility.yul\":22143:22166   */\n      swap1\n      pop\n        /* \"#utility.yul\":21862:22173   */\n      swap2\n      swap1\n      pop\n      jump\t// out\n        /* \"#utility.yul\":22179:22322   */\n    tag_227:\n        /* \"#utility.yul\":22236:22241   */\n      0x00\n        /* \"#utility.yul\":22267:22273   */\n      dup2\n        /* \"#utility.yul\":22261:22274   */\n      mload\n        /* \"#utility.yul\":22252:22274   */\n      swap1\n      pop\n        /* \"#utility.yul\":22283:22316   */\n      tag_442\n        /* \"#utility.yul\":22310:22315   */\n      dup2\n        /* \"#utility.yul\":22283:22316   */\n      tag_181\n      jump\t// in\n    tag_442:\n        /* \"#utility.yul\":22179:22322   */\n      swap3\n      swap2\n      pop\n      pop\n      jump\t// out\n        /* \"#utility.yul\":22345:23077   */\n    tag_228:\n        /* \"#utility.yul\":22452:22457   */\n      0x00\n        /* \"#utility.yul\":22477:22558   */\n      tag_444\n        /* \"#utility.yul\":22493:22557   */\n      tag_445\n        /* \"#utility.yul\":22550:22556   */\n      dup5\n        /* \"#utility.yul\":22493:22557   */\n      tag_226\n      jump\t// in\n    tag_445:\n        /* \"#utility.yul\":22477:22558   */\n      tag_225\n      jump\t// in\n    tag_444:\n        /* \"#utility.yul\":22468:22558   */\n      swap1\n      pop\n        /* \"#utility.yul\":22578:22583   */\n      dup1\n        /* \"#utility.yul\":22607:22613   */\n      dup4\n        /* \"#utility.yul\":22600:22605   */\n      dup3\n        /* \"#utility.yul\":22593:22614   */\n      mstore\n        /* \"#utility.yul\":22641:22645   */\n      0x20\n        /* \"#utility.yul\":22634:22639   */\n      dup3\n        /* \"#utility.yul\":22630:22646   */\n      add\n        /* \"#utility.yul\":22623:22646   */\n      swap1\n      pop\n        /* \"#utility.yul\":22694:22698   */\n      0x20\n        /* \"#utility.yul\":22686:22692   */\n      dup5\n        /* \"#utility.yul\":22682:22699   */\n      mul\n        /* \"#utility.yul\":22674:22680   */\n      dup4\n        /* \"#utility.yul\":22670:22700   */\n      add\n        /* \"#utility.yul\":22723:22726   */\n      dup6\n        /* \"#utility.yul\":22715:22721   */\n      dup2\n        /* \"#utility.yul\":22712:22727   */\n      gt\n        /* \"#utility.yul\":22709:22831   */\n      iszero\n      tag_446\n      jumpi\n        /* \"#utility.yul\":22742:22821   */\n      tag_447\n      tag_189\n      jump\t// in\n    tag_447:\n        /* \"#utility.yul\":22709:22831   */\n    tag_446:\n        /* \"#utility.yul\":22857:22863   */\n      dup4\n        /* \"#utility.yul\":22840:23071   */\n    tag_448:\n        /* \"#utility.yul\":22874:22880   */\n      dup2\n        /* \"#utility.yul\":22869:22872   */\n      dup2\n        /* \"#utility.yul\":22866:22881   */\n      lt\n        /* \"#utility.yul\":22840:23071   */\n      iszero\n      tag_450\n      jumpi\n        /* \"#utility.yul\":22949:22952   */\n      dup1\n        /* \"#utility.yul\":22978:23026   */\n      tag_451\n        /* \"#utility.yul\":23022:23025   */\n      dup9\n        /* \"#utility.yul\":23010:23020   */\n      dup3\n        /* \"#utility.yul\":22978:23026   */\n      tag_227\n      jump\t// in\n    tag_451:\n        /* \"#utility.yul\":22973:22976   */\n      dup5\n        /* \"#utility.yul\":22966:23027   */\n      mstore\n        /* \"#utility.yul\":23056:23060   */\n      0x20\n        /* \"#utility.yul\":23051:23054   */\n      dup5\n        /* \"#utility.yul\":23047:23061   */\n      add\n        /* \"#utility.yul\":23040:23061   */\n      swap4\n      pop\n        /* \"#utility.yul\":22916:23071   */\n      pop\n        /* \"#utility.yul\":22900:22904   */\n      0x20\n        /* \"#utility.yul\":22895:22898   */\n      dup2\n        /* \"#utility.yul\":22891:22905   */\n      add\n        /* \"#utility.yul\":22884:22905   */\n      swap1\n      pop\n        /* \"#utility.yul\":22840:23071   */\n      jump(tag_448)\n    tag_450:\n        /* \"#utility.yul\":22844:22865   */\n      pop\n        /* \"#utility.yul\":22458:23077   */\n      pop\n      pop\n        /* \"#utility.yul\":22345:23077   */\n      swap4\n      swap3\n      pop\n      pop\n      pop\n      jump\t// out\n        /* \"#utility.yul\":23100:23485   */\n    tag_229:\n        /* \"#utility.yul\":23182:23187   */\n      0x00\n        /* \"#utility.yul\":23231:23234   */\n      dup3\n        /* \"#utility.yul\":23224:23228   */\n      0x1f\n        /* \"#utility.yul\":23216:23222   */\n      dup4\n        /* \"#utility.yul\":23212:23229   */\n      add\n        /* \"#utility.yul\":23208:23235   */\n      slt\n        /* \"#utility.yul\":23198:23320   */\n      tag_453\n      jumpi\n        /* \"#utility.yul\":23239:23318   */\n      tag_454\n      tag_187\n      jump\t// in\n    tag_454:\n        /* \"#utility.yul\":23198:23320   */\n    tag_453:\n        /* \"#utility.yul\":23349:23355   */\n      dup2\n        /* \"#utility.yul\":23343:23356   */\n      mload\n        /* \"#utility.yul\":23374:23479   */\n      tag_455\n        /* \"#utility.yul\":23475:23478   */\n      dup5\n        /* \"#utility.yul\":23467:23473   */\n      dup3\n        /* \"#utility.yul\":23460:23464   */\n      0x20\n        /* \"#utility.yul\":23452:23458   */\n      dup7\n        /* \"#utility.yul\":23448:23465   */\n      add\n        /* \"#utility.yul\":23374:23479   */\n      tag_228\n      jump\t// in\n    tag_455:\n        /* \"#utility.yul\":23365:23479   */\n      swap2\n      pop\n        /* \"#utility.yul\":23188:23485   */\n      pop\n        /* \"#utility.yul\":23100:23485   */\n      swap3\n      swap2\n      pop\n      pop\n      jump\t// out\n        /* \"#utility.yul\":23491:24045   */\n    tag_165:\n        /* \"#utility.yul\":23586:23592   */\n      0x00\n        /* \"#utility.yul\":23635:23637   */\n      0x20\n        /* \"#utility.yul\":23623:23632   */\n      dup3\n        /* \"#utility.yul\":23614:23621   */\n      dup5\n        /* \"#utility.yul\":23610:23633   */\n      sub\n        /* \"#utility.yul\":23606:23638   */\n      slt\n        /* \"#utility.yul\":23603:23722   */\n      iszero\n      tag_457\n      jumpi\n        /* \"#utility.yul\":23641:23720   */\n      tag_458\n      tag_178\n      jump\t// in\n    tag_458:\n        /* \"#utility.yul\":23603:23722   */\n    tag_457:\n        /* \"#utility.yul\":23782:23783   */\n      0x00\n        /* \"#utility.yul\":23771:23780   */\n      dup3\n        /* \"#utility.yul\":23767:23784   */\n      add\n        /* \"#utility.yul\":23761:23785   */\n      mload\n        /* \"#utility.yul\":23812:23830   */\n      0xffffffffffffffff\n        /* \"#utility.yul\":23804:23810   */\n      dup2\n        /* \"#utility.yul\":23801:23831   */\n      gt\n        /* \"#utility.yul\":23798:23915   */\n      iszero\n      tag_459\n      jumpi\n        /* \"#utility.yul\":23834:23913   */\n      tag_460\n      tag_179\n      jump\t// in\n    tag_460:\n        /* \"#utility.yul\":23798:23915   */\n    tag_459:\n        /* \"#utility.yul\":23939:24028   */\n      tag_461\n        /* \"#utility.yul\":24020:24027   */\n      dup5\n        /* \"#utility.yul\":24011:24017   */\n      dup3\n        /* \"#utility.yul\":24000:24009   */\n      dup6\n        /* \"#utility.yul\":23996:24018   */\n      add\n        /* \"#utility.yul\":23939:24028   */\n      tag_229\n      jump\t// in\n    tag_461:\n        /* \"#utility.yul\":23929:24028   */\n      swap2\n      pop\n        /* \"#utility.yul\":23732:24038   */\n      pop\n        /* \"#utility.yul\":23491:24045   */\n      swap3\n      swap2\n      pop\n      pop\n      jump\t// out\n        /* \"#utility.yul\":24051:24276   */\n    tag_230:\n        /* \"#utility.yul\":24191:24225   */\n      0x4f776e61626c653a206e6577206f776e657220697320746865207a65726f2061\n        /* \"#utility.yul\":24187:24188   */\n      0x00\n        /* \"#utility.yul\":24179:24185   */\n      dup3\n        /* \"#utility.yul\":24175:24189   */\n      add\n        /* \"#utility.yul\":24168:24226   */\n      mstore\n        /* \"#utility.yul\":24260:24268   */\n      0x6464726573730000000000000000000000000000000000000000000000000000\n        /* \"#utility.yul\":24255:24257   */\n      0x20\n        /* \"#utility.yul\":24247:24253   */\n      dup3\n        /* \"#utility.yul\":24243:24258   */\n      add\n        /* \"#utility.yul\":24236:24269   */\n      mstore\n        /* \"#utility.yul\":24051:24276   */\n      pop\n      jump\t// out\n        /* \"#utility.yul\":24282:24648   */\n    tag_231:\n        /* \"#utility.yul\":24424:24427   */\n      0x00\n        /* \"#utility.yul\":24445:24512   */\n      tag_464\n        /* \"#utility.yul\":24509:24511   */\n      0x26\n        /* \"#utility.yul\":24504:24507   */\n      dup4\n        /* \"#utility.yul\":24445:24512   */\n      tag_214\n      jump\t// in\n    tag_464:\n        /* \"#utility.yul\":24438:24512   */\n      swap2\n      pop\n        /* \"#utility.yul\":24521:24614   */\n      tag_465\n        /* \"#utility.yul\":24610:24613   */\n      dup3\n        /* \"#utility.yul\":24521:24614   */\n      tag_230\n      jump\t// in\n    tag_465:\n        /* \"#utility.yul\":24639:24641   */\n      0x40\n        /* \"#utility.yul\":24634:24637   */\n      dup3\n        /* \"#utility.yul\":24630:24642   */\n      add\n        /* \"#utility.yul\":24623:24642   */\n      swap1\n      pop\n        /* \"#utility.yul\":24282:24648   */\n      swap2\n      swap1\n      pop\n      jump\t// out\n        /* \"#utility.yul\":24654:25073   */\n    tag_176:\n        /* \"#utility.yul\":24820:24824   */\n      0x00\n        /* \"#utility.yul\":24858:24860   */\n      0x20\n        /* \"#utility.yul\":24847:24856   */\n      dup3\n        /* \"#utility.yul\":24843:24861   */\n      add\n        /* \"#utility.yul\":24835:24861   */\n      swap1\n      pop\n        /* \"#utility.yul\":24907:24916   */\n      dup2\n        /* \"#utility.yul\":24901:24905   */\n      dup2\n        /* \"#utility.yul\":24897:24917   */\n      sub\n        /* \"#utility.yul\":24893:24894   */\n      0x00\n        /* \"#utility.yul\":24882:24891   */\n      dup4\n        /* \"#utility.yul\":24878:24895   */\n      add\n        /* \"#utility.yul\":24871:24918   */\n      mstore\n        /* \"#utility.yul\":24935:25066   */\n      tag_467\n        /* \"#utility.yul\":25061:25065   */\n      dup2\n        /* \"#utility.yul\":24935:25066   */\n      tag_231\n      jump\t// in\n    tag_467:\n        /* \"#utility.yul\":24927:25066   */\n      swap1\n      pop\n        /* \"#utility.yul\":24654:25073   */\n      swap2\n      swap1\n      pop\n      jump\t// out\n\n    auxdata: 0xa2646970667358221220c4b0012e687789fcce03c871b0190452fbafc9719cc875dbab9ce7b4dd9b8a4764736f6c63430008120033\n}\n",
				"bytecode": {
					"linkReferences": {},
					"object": "60806040523480156200001157600080fd5b5060405162001bbb38038062001bbb8339818101604052810190620000379190620001a4565b336000806101000a81548173ffffffffffffffffffffffffffffffffffffffff021916908373ffffffffffffffffffffffffffffffffffffffff16021790555060008054906101000a900473ffffffffffffffffffffffffffffffffffffffff1673ffffffffffffffffffffffffffffffffffffffff16600073ffffffffffffffffffffffffffffffffffffffff167f8be0079c531659141344cd1fd0a4f28419497f9722a3daafe3b4186f6b6457e060405160405180910390a380600160006101000a81548173ffffffffffffffffffffffffffffffffffffffff021916908373ffffffffffffffffffffffffffffffffffffffff16021790555050620001d6565b600080fd5b600073ffffffffffffffffffffffffffffffffffffffff82169050919050565b60006200016c826200013f565b9050919050565b6200017e816200015f565b81146200018a57600080fd5b50565b6000815190506200019e8162000173565b92915050565b600060208284031215620001bd57620001bc6200013a565b5b6000620001cd848285016200018d565b91505092915050565b6119d580620001e66000396000f3fe6080604052600436106100c25760003560e01c806382382e881161007f5780639c48a3c3116100595780639c48a3c31461020b5780639f593c3314610234578063a8312b1d1461025d578063f2fde38b1461029a576100c2565b806382382e881461018c5780638da5cb5b146101b55780638f32d59b146101e0576100c2565b806323a70807146100c75780632d21c6c0146100f057806352385f42146101195780635df88e51146101235780635eb6d9ac1461014c578063715018a614610175575b600080fd5b3480156100d357600080fd5b506100ee60048036038101906100e99190610e7f565b6102c3565b005b3480156100fc57600080fd5b5061011760048036038101906101129190610f07565b61035e565b005b6101216103e3565b005b34801561012f57600080fd5b5061014a60048036038101906101459190610f85565b6103e5565b005b34801561015857600080fd5b50610173600480360381019061016e9190610fc5565b6104e0565b005b34801561018157600080fd5b5061018a6105ab565b005b34801561019857600080fd5b506101b360048036038101906101ae9190611018565b6106b0565b005b3480156101c157600080fd5b506101ca6107ed565b6040516101d791906110af565b60405180910390f35b3480156101ec57600080fd5b506101f5610816565b60405161020291906110e5565b60405180910390f35b34801561021757600080fd5b50610232600480360381019061022d9190611100565b61086d565b005b34801561024057600080fd5b5061025b60048036038101906102569190611100565b6109d5565b005b34801561026957600080fd5b50610284600480360381019061027f91906111a7565b610b3d565b60405161029191906112fa565b60405180910390f35b3480156102a657600080fd5b506102c160048036038101906102bc919061131c565b610bf3565b005b600160009054906101000a900473ffffffffffffffffffffffffffffffffffffffff1673ffffffffffffffffffffffffffffffffffffffff1663cf1d14dc86868686866040518663ffffffff1660e01b8152600401610325949392919061141b565b6000604051808303818588803b15801561033e57600080fd5b505af1158015610352573d6000803e3d6000fd5b50505050505050505050565b8073ffffffffffffffffffffffffffffffffffffffff166323b872dd3330856040518463ffffffff1660e01b815260040161039b9392919061145b565b6020604051808303816000875af11580156103ba573d6000803e3d6000fd5b505050506040513d601f19601f820116820180604052508101906103de91906114be565b505050565b565b6103ed610816565b61042c576040517f08c379a000000000000000000000000000000000000000000000000000000000815260040161042390611548565b60405180910390fd5b6000808273ffffffffffffffffffffffffffffffffffffffff168460405161045390611599565b60006040518083038185875af1925050503d8060008114610490576040519150601f19603f3d011682016040523d82523d6000602084013e610495565b606091505b5091509150816104da576040517f08c379a00000000000000000000000000000000000000000000000000000000081526004016104d1906115fa565b60405180910390fd5b50505050565b6104e8610816565b610527576040517f08c379a000000000000000000000000000000000000000000000000000000000815260040161051e90611548565b60405180910390fd5b8173ffffffffffffffffffffffffffffffffffffffff1663a9059cbb82856040518363ffffffff1660e01b815260040161056292919061161a565b6020604051808303816000875af1158015610581573d6000803e3d6000fd5b505050506040513d601f19601f820116820180604052508101906105a591906114be565b50505050565b6105b3610816565b6105f2576040517f08c379a00000000000000000000000000000000000000000000000000000000081526004016105e990611548565b60405180910390fd5b600073ffffffffffffffffffffffffffffffffffffffff1660008054906101000a900473ffffffffffffffffffffffffffffffffffffffff1673ffffffffffffffffffffffffffffffffffffffff167f8be0079c531659141344cd1fd0a4f28419497f9722a3daafe3b4186f6b6457e060405160405180910390a360008060006101000a81548173ffffffffffffffffffffffffffffffffffffffff021916908373ffffffffffffffffffffffffffffffffffffffff160217905550565b8473ffffffffffffffffffffffffffffffffffffffff1663095ea7b3600160009054906101000a900473ffffffffffffffffffffffffffffffffffffffff16866040518363ffffffff1660e01b815260040161070d92919061161a565b6020604051808303816000875af115801561072c573d6000803e3d6000fd5b505050506040513d601f19601f8201168201806040525081019061075091906114be565b50600160009054906101000a900473ffffffffffffffffffffffffffffffffffffffff1673ffffffffffffffffffffffffffffffffffffffff166382382e8886868686866040518663ffffffff1660e01b81526004016107b4959493929190611643565b600060405180830381600087803b1580156107ce57600080fd5b505af11580156107e2573d6000803e3d6000fd5b505050505050505050565b60008060009054906101000a900473ffffffffffffffffffffffffffffffffffffffff16905090565b60008060009054906101000a900473ffffffffffffffffffffffffffffffffffffffff1673ffffffffffffffffffffffffffffffffffffffff163373ffffffffffffffffffffffffffffffffffffffff1614905090565b8383600081811061088157610880611691565b5b9050602002016020810190610896919061131c565b73ffffffffffffffffffffffffffffffffffffffff1663095ea7b3600160009054906101000a900473ffffffffffffffffffffffffffffffffffffffff16886040518363ffffffff1660e01b81526004016108f292919061161a565b6020604051808303816000875af1158015610911573d6000803e3d6000fd5b505050506040513d601f19601f8201168201806040525081019061093591906114be565b50600160009054906101000a900473ffffffffffffffffffffffffffffffffffffffff1673ffffffffffffffffffffffffffffffffffffffff16639c48a3c38787878787876040518763ffffffff1660e01b815260040161099b969594939291906116c0565b600060405180830381600087803b1580156109b557600080fd5b505af11580156109c9573d6000803e3d6000fd5b50505050505050505050565b838360008181106109e9576109e8611691565b5b90506020020160208101906109fe919061131c565b73ffffffffffffffffffffffffffffffffffffffff1663095ea7b3600160009054906101000a900473ffffffffffffffffffffffffffffffffffffffff16886040518363ffffffff1660e01b8152600401610a5a92919061161a565b6020604051808303816000875af1158015610a79573d6000803e3d6000fd5b505050506040513d601f19601f82011682018060405250810190610a9d91906114be565b50600160009054906101000a900473ffffffffffffffffffffffffffffffffffffffff1673ffffffffffffffffffffffffffffffffffffffff16639f593c338787878787876040518763ffffffff1660e01b8152600401610b03969594939291906116c0565b600060405180830381600087803b158015610b1d57600080fd5b505af1158015610b31573d6000803e3d6000fd5b50505050505050505050565b6060600160009054906101000a900473ffffffffffffffffffffffffffffffffffffffff1673ffffffffffffffffffffffffffffffffffffffff1663a8312b1d87878787876040518663ffffffff1660e01b8152600401610ba2959493929190611717565b600060405180830381865afa158015610bbf573d6000803e3d6000fd5b505050506040513d6000823e3d601f19601f82011682018060405250810190610be891906118c4565b905095945050505050565b610bfb610816565b610c3a576040517f08c379a0000000000000000000000000000000000000000000000000000000008152600401610c3190611548565b60405180910390fd5b610c4381610c46565b50565b600073ffffffffffffffffffffffffffffffffffffffff168173ffffffffffffffffffffffffffffffffffffffff1603610cb5576040517f08c379a0000000000000000000000000000000000000000000000000000000008152600401610cac9061197f565b60405180910390fd5b8073ffffffffffffffffffffffffffffffffffffffff1660008054906101000a900473ffffffffffffffffffffffffffffffffffffffff1673ffffffffffffffffffffffffffffffffffffffff167f8be0079c531659141344cd1fd0a4f28419497f9722a3daafe3b4186f6b6457e060405160405180910390a3806000806101000a81548173ffffffffffffffffffffffffffffffffffffffff021916908373ffffffffffffffffffffffffffffffffffffffff16021790555050565b6000604051905090565b600080fd5b600080fd5b6000819050919050565b610d9981610d86565b8114610da457600080fd5b50565b600081359050610db681610d90565b92915050565b600073ffffffffffffffffffffffffffffffffffffffff82169050919050565b6000610de782610dbc565b9050919050565b610df781610ddc565b8114610e0257600080fd5b50565b600081359050610e1481610dee565b92915050565b600080fd5b600080fd5b600080fd5b60008083601f840112610e3f57610e3e610e1a565b5b8235905067ffffffffffffffff811115610e5c57610e5b610e1f565b5b602083019150836020820283011115610e7857610e77610e24565b5b9250929050565b600080600080600060808688031215610e9b57610e9a610d7c565b5b6000610ea988828901610da7565b9550506020610eba88828901610da7565b9450506040610ecb88828901610e05565b935050606086013567ffffffffffffffff811115610eec57610eeb610d81565b5b610ef888828901610e29565b92509250509295509295909350565b60008060408385031215610f1e57610f1d610d7c565b5b6000610f2c85828601610da7565b9250506020610f3d85828601610e05565b9150509250929050565b6000610f5282610dbc565b9050919050565b610f6281610f47565b8114610f6d57600080fd5b50565b600081359050610f7f81610f59565b92915050565b60008060408385031215610f9c57610f9b610d7c565b5b6000610faa85828601610da7565b9250506020610fbb85828601610f70565b9150509250929050565b600080600060608486031215610fde57610fdd610d7c565b5b6000610fec86828701610da7565b9350506020610ffd86828701610e05565b925050604061100e86828701610e05565b9150509250925092565b60008060008060006080868803121561103457611033610d7c565b5b600061104288828901610e05565b955050602061105388828901610da7565b945050604061106488828901610da7565b935050606086013567ffffffffffffffff81111561108557611084610d81565b5b61109188828901610e29565b92509250509295509295909350565b6110a981610ddc565b82525050565b60006020820190506110c460008301846110a0565b92915050565b60008115159050919050565b6110df816110ca565b82525050565b60006020820190506110fa60008301846110d6565b92915050565b6000806000806000806080878903121561111d5761111c610d7c565b5b600061112b89828a01610da7565b965050602061113c89828a01610da7565b955050604087013567ffffffffffffffff81111561115d5761115c610d81565b5b61116989828a01610e29565b9450945050606087013567ffffffffffffffff81111561118c5761118b610d81565b5b61119889828a01610e29565b92509250509295509295509295565b6000806000806000606086880312156111c3576111c2610d7c565b5b60006111d188828901610da7565b955050602086013567ffffffffffffffff8111156111f2576111f1610d81565b5b6111fe88828901610e29565b9450945050604086013567ffffffffffffffff81111561122157611220610d81565b5b61122d88828901610e29565b92509250509295509295909350565b600081519050919050565b600082825260208201905092915050565b6000819050602082019050919050565b61127181610d86565b82525050565b60006112838383611268565b60208301905092915050565b6000602082019050919050565b60006112a78261123c565b6112b18185611247565b93506112bc83611258565b8060005b838110156112ed5781516112d48882611277565b97506112df8361128f565b9250506001810190506112c0565b5085935050505092915050565b60006020820190508181036000830152611314818461129c565b905092915050565b60006020828403121561133257611331610d7c565b5b600061134084828501610e05565b91505092915050565b61135281610d86565b82525050565b600082825260208201905092915050565b6000819050919050565b61137c81610ddc565b82525050565b600061138e8383611373565b60208301905092915050565b60006113a96020840184610e05565b905092915050565b6000602082019050919050565b60006113ca8385611358565b93506113d582611369565b8060005b8581101561140e576113eb828461139a565b6113f58882611382565b9750611400836113b1565b9250506001810190506113d9565b5085925050509392505050565b60006060820190506114306000830187611349565b61143d60208301866110a0565b81810360408301526114508184866113be565b905095945050505050565b600060608201905061147060008301866110a0565b61147d60208301856110a0565b61148a6040830184611349565b949350505050565b61149b816110ca565b81146114a657600080fd5b50565b6000815190506114b881611492565b92915050565b6000602082840312156114d4576114d3610d7c565b5b60006114e2848285016114a9565b91505092915050565b600082825260208201905092915050565b7f4f776e61626c653a2063616c6c6572206973206e6f7420746865206f776e6572600082015250565b60006115326020836114eb565b915061153d826114fc565b602082019050919050565b6000602082019050818103600083015261156181611525565b9050919050565b600081905092915050565b50565b6000611583600083611568565b915061158e82611573565b600082019050919050565b60006115a482611576565b9150819050919050565b7f4661696c656420746f2073656e64204574686572000000000000000000000000600082015250565b60006115e46014836114eb565b91506115ef826115ae565b602082019050919050565b60006020820190508181036000830152611613816115d7565b9050919050565b600060408201905061162f60008301856110a0565b61163c6020830184611349565b9392505050565b600060808201905061165860008301886110a0565b6116656020830187611349565b6116726040830186611349565b81810360608301526116858184866113be565b90509695505050505050565b7f4e487b7100000000000000000000000000000000000000000000000000000000600052603260045260246000fd5b60006080820190506116d56000830189611349565b6116e26020830188611349565b81810360408301526116f58186886113be565b9050818103606083015261170a8184866113be565b9050979650505050505050565b600060608201905061172c6000830188611349565b818103602083015261173f8186886113be565b905081810360408301526117548184866113be565b90509695505050505050565b6000601f19601f8301169050919050565b7f4e487b7100000000000000000000000000000000000000000000000000000000600052604160045260246000fd5b6117a982611760565b810181811067ffffffffffffffff821117156117c8576117c7611771565b5b80604052505050565b60006117db610d72565b90506117e782826117a0565b919050565b600067ffffffffffffffff82111561180757611806611771565b5b602082029050602081019050919050565b60008151905061182781610d90565b92915050565b600061184061183b846117ec565b6117d1565b9050808382526020820190506020840283018581111561186357611862610e24565b5b835b8181101561188c57806118788882611818565b845260208401935050602081019050611865565b5050509392505050565b600082601f8301126118ab576118aa610e1a565b5b81516118bb84826020860161182d565b91505092915050565b6000602082840312156118da576118d9610d7c565b5b600082015167ffffffffffffffff8111156118f8576118f7610d81565b5b61190484828501611896565b91505092915050565b7f4f776e61626c653a206e6577206f776e657220697320746865207a65726f206160008201527f6464726573730000000000000000000000000000000000000000000000000000602082015250565b60006119696026836114eb565b91506119748261190d565b604082019050919050565b600060208201905081810360008301526119988161195c565b905091905056fea2646970667358221220c4b0012e687789fcce03c871b0190452fbafc9719cc875dbab9ce7b4dd9b8a4764736f6c63430008120033",
					"opcodes": "PUSH1 0x80 PUSH1 0x40 MSTORE CALLVALUE DUP1 ISZERO PUSH3 0x11 JUMPI PUSH1 0x0 DUP1 REVERT JUMPDEST POP PUSH1 0x40 MLOAD PUSH3 0x1BBB CODESIZE SUB DUP1 PUSH3 0x1BBB DUP4 CODECOPY DUP2 DUP2 ADD PUSH1 0x40 MSTORE DUP2 ADD SWAP1 PUSH3 0x37 SWAP2 SWAP1 PUSH3 0x1A4 JUMP JUMPDEST CALLER PUSH1 0x0 DUP1 PUSH2 0x100 EXP DUP2 SLOAD DUP2 PUSH20 0xFFFFFFFFFFFFFFFFFFFFFFFFFFFFFFFFFFFFFFFF MUL NOT AND SWAP1 DUP4 PUSH20 0xFFFFFFFFFFFFFFFFFFFFFFFFFFFFFFFFFFFFFFFF AND MUL OR SWAP1 SSTORE POP PUSH1 0x0 DUP1 SLOAD SWAP1 PUSH2 0x100 EXP SWAP1 DIV PUSH20 0xFFFFFFFFFFFFFFFFFFFFFFFFFFFFFFFFFFFFFFFF AND PUSH20 0xFFFFFFFFFFFFFFFFFFFFFFFFFFFFFFFFFFFFFFFF AND PUSH1 0x0 PUSH20 0xFFFFFFFFFFFFFFFFFFFFFFFFFFFFFFFFFFFFFFFF AND PUSH32 0x8BE0079C531659141344CD1FD0A4F28419497F9722A3DAAFE3B4186F6B6457E0 PUSH1 0x40 MLOAD PUSH1 0x40 MLOAD DUP1 SWAP2 SUB SWAP1 LOG3 DUP1 PUSH1 0x1 PUSH1 0x0 PUSH2 0x100 EXP DUP2 SLOAD DUP2 PUSH20 0xFFFFFFFFFFFFFFFFFFFFFFFFFFFFFFFFFFFFFFFF MUL NOT AND SWAP1 DUP4 PUSH20 0xFFFFFFFFFFFFFFFFFFFFFFFFFFFFFFFFFFFFFFFF AND MUL OR SWAP1 SSTORE POP POP PUSH3 0x1D6 JUMP JUMPDEST PUSH1 0x0 DUP1 REVERT JUMPDEST PUSH1 0x0 PUSH20 0xFFFFFFFFFFFFFFFFFFFFFFFFFFFFFFFFFFFFFFFF DUP3 AND SWAP1 POP SWAP2 SWAP1 POP JUMP JUMPDEST PUSH1 0x0 PUSH3 0x16C DUP3 PUSH3 0x13F JUMP JUMPDEST SWAP1 POP SWAP2 SWAP1 POP JUMP JUMPDEST PUSH3 0x17E DUP2 PUSH3 0x15F JUMP JUMPDEST DUP2 EQ PUSH3 0x18A JUMPI PUSH1 0x0 DUP1 REVERT JUMPDEST POP JUMP JUMPDEST PUSH1 0x0 DUP2 MLOAD SWAP1 POP PUSH3 0x19E DUP2 PUSH3 0x173 JUMP JUMPDEST SWAP3 SWAP2 POP POP JUMP JUMPDEST PUSH1 0x0 PUSH1 0x20 DUP3 DUP5 SUB SLT ISZERO PUSH3 0x1BD JUMPI PUSH3 0x1BC PUSH3 0x13A JUMP JUMPDEST JUMPDEST PUSH1 0x0 PUSH3 0x1CD DUP5 DUP3 DUP6 ADD PUSH3 0x18D JUMP JUMPDEST SWAP2 POP POP SWAP3 SWAP2 POP POP JUMP JUMPDEST PUSH2 0x19D5 DUP1 PUSH3 0x1E6 PUSH1 0x0 CODECOPY PUSH1 0x0 RETURN INVALID PUSH1 0x80 PUSH1 0x40 MSTORE PUSH1 0x4 CALLDATASIZE LT PUSH2 0xC2 JUMPI PUSH1 0x0 CALLDATALOAD PUSH1 0xE0 SHR DUP1 PUSH4 0x82382E88 GT PUSH2 0x7F JUMPI DUP1 PUSH4 0x9C48A3C3 GT PUSH2 0x59 JUMPI DUP1 PUSH4 0x9C48A3C3 EQ PUSH2 0x20B JUMPI DUP1 PUSH4 0x9F593C33 EQ PUSH2 0x234 JUMPI DUP1 PUSH4 0xA8312B1D EQ PUSH2 0x25D JUMPI DUP1 PUSH4 0xF2FDE38B EQ PUSH2 0x29A JUMPI PUSH2 0xC2 JUMP JUMPDEST DUP1 PUSH4 0x82382E88 EQ PUSH2 0x18C JUMPI DUP1 PUSH4 0x8DA5CB5B EQ PUSH2 0x1B5 JUMPI DUP1 PUSH4 0x8F32D59B EQ PUSH2 0x1E0 JUMPI PUSH2 0xC2 JUMP JUMPDEST DUP1 PUSH4 0x23A70807 EQ PUSH2 0xC7 JUMPI DUP1 PUSH4 0x2D21C6C0 EQ PUSH2 0xF0 JUMPI DUP1 PUSH4 0x52385F42 EQ PUSH2 0x119 JUMPI DUP1 PUSH4 0x5DF88E51 EQ PUSH2 0x123 JUMPI DUP1 PUSH4 0x5EB6D9AC EQ PUSH2 0x14C JUMPI DUP1 PUSH4 0x715018A6 EQ PUSH2 0x175 JUMPI JUMPDEST PUSH1 0x0 DUP1 REVERT JUMPDEST CALLVALUE DUP1 ISZERO PUSH2 0xD3 JUMPI PUSH1 0x0 DUP1 REVERT JUMPDEST POP PUSH2 0xEE PUSH1 0x4 DUP1 CALLDATASIZE SUB DUP2 ADD SWAP1 PUSH2 0xE9 SWAP2 SWAP1 PUSH2 0xE7F JUMP JUMPDEST PUSH2 0x2C3 JUMP JUMPDEST STOP JUMPDEST CALLVALUE DUP1 ISZERO PUSH2 0xFC JUMPI PUSH1 0x0 DUP1 REVERT JUMPDEST POP PUSH2 0x117 PUSH1 0x4 DUP1 CALLDATASIZE SUB DUP2 ADD SWAP1 PUSH2 0x112 SWAP2 SWAP1 PUSH2 0xF07 JUMP JUMPDEST PUSH2 0x35E JUMP JUMPDEST STOP JUMPDEST PUSH2 0x121 PUSH2 0x3E3 JUMP JUMPDEST STOP JUMPDEST CALLVALUE DUP1 ISZERO PUSH2 0x12F JUMPI PUSH1 0x0 DUP1 REVERT JUMPDEST POP PUSH2 0x14A PUSH1 0x4 DUP1 CALLDATASIZE SUB DUP2 ADD SWAP1 PUSH2 0x145 SWAP2 SWAP1 PUSH2 0xF85 JUMP JUMPDEST PUSH2 0x3E5 JUMP JUMPDEST STOP JUMPDEST CALLVALUE DUP1 ISZERO PUSH2 0x158 JUMPI PUSH1 0x0 DUP1 REVERT JUMPDEST POP PUSH2 0x173 PUSH1 0x4 DUP1 CALLDATASIZE SUB DUP2 ADD SWAP1 PUSH2 0x16E SWAP2 SWAP1 PUSH2 0xFC5 JUMP JUMPDEST PUSH2 0x4E0 JUMP JUMPDEST STOP JUMPDEST CALLVALUE DUP1 ISZERO PUSH2 0x181 JUMPI PUSH1 0x0 DUP1 REVERT JUMPDEST POP PUSH2 0x18A PUSH2 0x5AB JUMP JUMPDEST STOP JUMPDEST CALLVALUE DUP1 ISZERO PUSH2 0x198 JUMPI PUSH1 0x0 DUP1 REVERT JUMPDEST POP PUSH2 0x1B3 PUSH1 0x4 DUP1 CALLDATASIZE SUB DUP2 ADD SWAP1 PUSH2 0x1AE SWAP2 SWAP1 PUSH2 0x1018 JUMP JUMPDEST PUSH2 0x6B0 JUMP JUMPDEST STOP JUMPDEST CALLVALUE DUP1 ISZERO PUSH2 0x1C1 JUMPI PUSH1 0x0 DUP1 REVERT JUMPDEST POP PUSH2 0x1CA PUSH2 0x7ED JUMP JUMPDEST PUSH1 0x40 MLOAD PUSH2 0x1D7 SWAP2 SWAP1 PUSH2 0x10AF JUMP JUMPDEST PUSH1 0x40 MLOAD DUP1 SWAP2 SUB SWAP1 RETURN JUMPDEST CALLVALUE DUP1 ISZERO PUSH2 0x1EC JUMPI PUSH1 0x0 DUP1 REVERT JUMPDEST POP PUSH2 0x1F5 PUSH2 0x816 JUMP JUMPDEST PUSH1 0x40 MLOAD PUSH2 0x202 SWAP2 SWAP1 PUSH2 0x10E5 JUMP JUMPDEST PUSH1 0x40 MLOAD DUP1 SWAP2 SUB SWAP1 RETURN JUMPDEST CALLVALUE DUP1 ISZERO PUSH2 0x217 JUMPI PUSH1 0x0 DUP1 REVERT JUMPDEST POP PUSH2 0x232 PUSH1 0x4 DUP1 CALLDATASIZE SUB DUP2 ADD SWAP1 PUSH2 0x22D SWAP2 SWAP1 PUSH2 0x1100 JUMP JUMPDEST PUSH2 0x86D JUMP JUMPDEST STOP JUMPDEST CALLVALUE DUP1 ISZERO PUSH2 0x240 JUMPI PUSH1 0x0 DUP1 REVERT JUMPDEST POP PUSH2 0x25B PUSH1 0x4 DUP1 CALLDATASIZE SUB DUP2 ADD SWAP1 PUSH2 0x256 SWAP2 SWAP1 PUSH2 0x1100 JUMP JUMPDEST PUSH2 0x9D5 JUMP JUMPDEST STOP JUMPDEST CALLVALUE DUP1 ISZERO PUSH2 0x269 JUMPI PUSH1 0x0 DUP1 REVERT JUMPDEST POP PUSH2 0x284 PUSH1 0x4 DUP1 CALLDATASIZE SUB DUP2 ADD SWAP1 PUSH2 0x27F SWAP2 SWAP1 PUSH2 0x11A7 JUMP JUMPDEST PUSH2 0xB3D JUMP JUMPDEST PUSH1 0x40 MLOAD PUSH2 0x291 SWAP2 SWAP1 PUSH2 0x12FA JUMP JUMPDEST PUSH1 0x40 MLOAD DUP1 SWAP2 SUB SWAP1 RETURN JUMPDEST CALLVALUE DUP1 ISZERO PUSH2 0x2A6 JUMPI PUSH1 0x0 DUP1 REVERT JUMPDEST POP PUSH2 0x2C1 PUSH1 0x4 DUP1 CALLDATASIZE SUB DUP2 ADD SWAP1 PUSH2 0x2BC SWAP2 SWAP1 PUSH2 0x131C JUMP JUMPDEST PUSH2 0xBF3 JUMP JUMPDEST STOP JUMPDEST PUSH1 0x1 PUSH1 0x0 SWAP1 SLOAD SWAP1 PUSH2 0x100 EXP SWAP1 DIV PUSH20 0xFFFFFFFFFFFFFFFFFFFFFFFFFFFFFFFFFFFFFFFF AND PUSH20 0xFFFFFFFFFFFFFFFFFFFFFFFFFFFFFFFFFFFFFFFF AND PUSH4 0xCF1D14DC DUP7 DUP7 DUP7 DUP7 DUP7 PUSH1 0x40 MLOAD DUP7 PUSH4 0xFFFFFFFF AND PUSH1 0xE0 SHL DUP2 MSTORE PUSH1 0x4 ADD PUSH2 0x325 SWAP5 SWAP4 SWAP3 SWAP2 SWAP1 PUSH2 0x141B JUMP JUMPDEST PUSH1 0x0 PUSH1 0x40 MLOAD DUP1 DUP4 SUB DUP2 DUP6 DUP9 DUP1 EXTCODESIZE ISZERO DUP1 ISZERO PUSH2 0x33E JUMPI PUSH1 0x0 DUP1 REVERT JUMPDEST POP GAS CALL ISZERO DUP1 ISZERO PUSH2 0x352 JUMPI RETURNDATASIZE PUSH1 0x0 DUP1 RETURNDATACOPY RETURNDATASIZE PUSH1 0x0 REVERT JUMPDEST POP POP POP POP POP POP POP POP POP POP JUMP JUMPDEST DUP1 PUSH20 0xFFFFFFFFFFFFFFFFFFFFFFFFFFFFFFFFFFFFFFFF AND PUSH4 0x23B872DD CALLER ADDRESS DUP6 PUSH1 0x40 MLOAD DUP5 PUSH4 0xFFFFFFFF AND PUSH1 0xE0 SHL DUP2 MSTORE PUSH1 0x4 ADD PUSH2 0x39B SWAP4 SWAP3 SWAP2 SWAP1 PUSH2 0x145B JUMP JUMPDEST PUSH1 0x20 PUSH1 0x40 MLOAD DUP1 DUP4 SUB DUP2 PUSH1 0x0 DUP8 GAS CALL ISZERO DUP1 ISZERO PUSH2 0x3BA JUMPI RETURNDATASIZE PUSH1 0x0 DUP1 RETURNDATACOPY RETURNDATASIZE PUSH1 0x0 REVERT JUMPDEST POP POP POP POP PUSH1 0x40 MLOAD RETURNDATASIZE PUSH1 0x1F NOT PUSH1 0x1F DUP3 ADD AND DUP3 ADD DUP1 PUSH1 0x40 MSTORE POP DUP2 ADD SWAP1 PUSH2 0x3DE SWAP2 SWAP1 PUSH2 0x14BE JUMP JUMPDEST POP POP POP JUMP JUMPDEST JUMP JUMPDEST PUSH2 0x3ED PUSH2 0x816 JUMP JUMPDEST PUSH2 0x42C JUMPI PUSH1 0x40 MLOAD PUSH32 0x8C379A000000000000000000000000000000000000000000000000000000000 DUP2 MSTORE PUSH1 0x4 ADD PUSH2 0x423 SWAP1 PUSH2 0x1548 JUMP JUMPDEST PUSH1 0x40 MLOAD DUP1 SWAP2 SUB SWAP1 REVERT JUMPDEST PUSH1 0x0 DUP1 DUP3 PUSH20 0xFFFFFFFFFFFFFFFFFFFFFFFFFFFFFFFFFFFFFFFF AND DUP5 PUSH1 0x40 MLOAD PUSH2 0x453 SWAP1 PUSH2 0x1599 JUMP JUMPDEST PUSH1 0x0 PUSH1 0x40 MLOAD DUP1 DUP4 SUB DUP2 DUP6 DUP8 GAS CALL SWAP3 POP POP POP RETURNDATASIZE DUP1 PUSH1 0x0 DUP2 EQ PUSH2 0x490 JUMPI PUSH1 0x40 MLOAD SWAP2 POP PUSH1 0x1F NOT PUSH1 0x3F RETURNDATASIZE ADD AND DUP3 ADD PUSH1 0x40 MSTORE RETURNDATASIZE DUP3 MSTORE RETURNDATASIZE PUSH1 0x0 PUSH1 0x20 DUP5 ADD RETURNDATACOPY PUSH2 0x495 JUMP JUMPDEST PUSH1 0x60 SWAP2 POP JUMPDEST POP SWAP2 POP SWAP2 POP DUP2 PUSH2 0x4DA JUMPI PUSH1 0x40 MLOAD PUSH32 0x8C379A000000000000000000000000000000000000000000000000000000000 DUP2 MSTORE PUSH1 0x4 ADD PUSH2 0x4D1 SWAP1 PUSH2 0x15FA JUMP JUMPDEST PUSH1 0x40 MLOAD DUP1 SWAP2 SUB SWAP1 REVERT JUMPDEST POP POP POP POP JUMP JUMPDEST PUSH2 0x4E8 PUSH2 0x816 JUMP JUMPDEST PUSH2 0x527 JUMPI PUSH1 0x40 MLOAD PUSH32 0x8C379A000000000000000000000000000000000000000000000000000000000 DUP2 MSTORE PUSH1 0x4 ADD PUSH2 0x51E SWAP1 PUSH2 0x1548 JUMP JUMPDEST PUSH1 0x40 MLOAD DUP1 SWAP2 SUB SWAP1 REVERT JUMPDEST DUP2 PUSH20 0xFFFFFFFFFFFFFFFFFFFFFFFFFFFFFFFFFFFFFFFF AND PUSH4 0xA9059CBB DUP3 DUP6 PUSH1 0x40 MLOAD DUP4 PUSH4 0xFFFFFFFF AND PUSH1 0xE0 SHL DUP2 MSTORE PUSH1 0x4 ADD PUSH2 0x562 SWAP3 SWAP2 SWAP1 PUSH2 0x161A JUMP JUMPDEST PUSH1 0x20 PUSH1 0x40 MLOAD DUP1 DUP4 SUB DUP2 PUSH1 0x0 DUP8 GAS CALL ISZERO DUP1 ISZERO PUSH2 0x581 JUMPI RETURNDATASIZE PUSH1 0x0 DUP1 RETURNDATACOPY RETURNDATASIZE PUSH1 0x0 REVERT JUMPDEST POP POP POP POP PUSH1 0x40 MLOAD RETURNDATASIZE PUSH1 0x1F NOT PUSH1 0x1F DUP3 ADD AND DUP3 ADD DUP1 PUSH1 0x40 MSTORE POP DUP2 ADD SWAP1 PUSH2 0x5A5 SWAP2 SWAP1 PUSH2 0x14BE JUMP JUMPDEST POP POP POP POP JUMP JUMPDEST PUSH2 0x5B3 PUSH2 0x816 JUMP JUMPDEST PUSH2 0x5F2 JUMPI PUSH1 0x40 MLOAD PUSH32 0x8C379A000000000000000000000000000000000000000000000000000000000 DUP2 MSTORE PUSH1 0x4 ADD PUSH2 0x5E9 SWAP1 PUSH2 0x1548 JUMP JUMPDEST PUSH1 0x40 MLOAD DUP1 SWAP2 SUB SWAP1 REVERT JUMPDEST PUSH1 0x0 PUSH20 0xFFFFFFFFFFFFFFFFFFFFFFFFFFFFFFFFFFFFFFFF AND PUSH1 0x0 DUP1 SLOAD SWAP1 PUSH2 0x100 EXP SWAP1 DIV PUSH20 0xFFFFFFFFFFFFFFFFFFFFFFFFFFFFFFFFFFFFFFFF AND PUSH20 0xFFFFFFFFFFFFFFFFFFFFFFFFFFFFFFFFFFFFFFFF AND PUSH32 0x8BE0079C531659141344CD1FD0A4F28419497F9722A3DAAFE3B4186F6B6457E0 PUSH1 0x40 MLOAD PUSH1 0x40 MLOAD DUP1 SWAP2 SUB SWAP1 LOG3 PUSH1 0x0 DUP1 PUSH1 0x0 PUSH2 0x100 EXP DUP2 SLOAD DUP2 PUSH20 0xFFFFFFFFFFFFFFFFFFFFFFFFFFFFFFFFFFFFFFFF MUL NOT AND SWAP1 DUP4 PUSH20 0xFFFFFFFFFFFFFFFFFFFFFFFFFFFFFFFFFFFFFFFF AND MUL OR SWAP1 SSTORE POP JUMP JUMPDEST DUP5 PUSH20 0xFFFFFFFFFFFFFFFFFFFFFFFFFFFFFFFFFFFFFFFF AND PUSH4 0x95EA7B3 PUSH1 0x1 PUSH1 0x0 SWAP1 SLOAD SWAP1 PUSH2 0x100 EXP SWAP1 DIV PUSH20 0xFFFFFFFFFFFFFFFFFFFFFFFFFFFFFFFFFFFFFFFF AND DUP7 PUSH1 0x40 MLOAD DUP4 PUSH4 0xFFFFFFFF AND PUSH1 0xE0 SHL DUP2 MSTORE PUSH1 0x4 ADD PUSH2 0x70D SWAP3 SWAP2 SWAP1 PUSH2 0x161A JUMP JUMPDEST PUSH1 0x20 PUSH1 0x40 MLOAD DUP1 DUP4 SUB DUP2 PUSH1 0x0 DUP8 GAS CALL ISZERO DUP1 ISZERO PUSH2 0x72C JUMPI RETURNDATASIZE PUSH1 0x0 DUP1 RETURNDATACOPY RETURNDATASIZE PUSH1 0x0 REVERT JUMPDEST POP POP POP POP PUSH1 0x40 MLOAD RETURNDATASIZE PUSH1 0x1F NOT PUSH1 0x1F DUP3 ADD AND DUP3 ADD DUP1 PUSH1 0x40 MSTORE POP DUP2 ADD SWAP1 PUSH2 0x750 SWAP2 SWAP1 PUSH2 0x14BE JUMP JUMPDEST POP PUSH1 0x1 PUSH1 0x0 SWAP1 SLOAD SWAP1 PUSH2 0x100 EXP SWAP1 DIV PUSH20 0xFFFFFFFFFFFFFFFFFFFFFFFFFFFFFFFFFFFFFFFF AND PUSH20 0xFFFFFFFFFFFFFFFFFFFFFFFFFFFFFFFFFFFFFFFF AND PUSH4 0x82382E88 DUP7 DUP7 DUP7 DUP7 DUP7 PUSH1 0x40 MLOAD DUP7 PUSH4 0xFFFFFFFF AND PUSH1 0xE0 SHL DUP2 MSTORE PUSH1 0x4 ADD PUSH2 0x7B4 SWAP6 SWAP5 SWAP4 SWAP3 SWAP2 SWAP1 PUSH2 0x1643 JUMP JUMPDEST PUSH1 0x0 PUSH1 0x40 MLOAD DUP1 DUP4 SUB DUP2 PUSH1 0x0 DUP8 DUP1 EXTCODESIZE ISZERO DUP1 ISZERO PUSH2 0x7CE JUMPI PUSH1 0x0 DUP1 REVERT JUMPDEST POP GAS CALL ISZERO DUP1 ISZERO PUSH2 0x7E2 JUMPI RETURNDATASIZE PUSH1 0x0 DUP1 RETURNDATACOPY RETURNDATASIZE PUSH1 0x0 REVERT JUMPDEST POP POP POP POP POP POP POP POP POP JUMP JUMPDEST PUSH1 0x0 DUP1 PUSH1 0x0 SWAP1 SLOAD SWAP1 PUSH2 0x100 EXP SWAP1 DIV PUSH20 0xFFFFFFFFFFFFFFFFFFFFFFFFFFFFFFFFFFFFFFFF AND SWAP1 POP SWAP1 JUMP JUMPDEST PUSH1 0x0 DUP1 PUSH1 0x0 SWAP1 SLOAD SWAP1 PUSH2 0x100 EXP SWAP1 DIV PUSH20 0xFFFFFFFFFFFFFFFFFFFFFFFFFFFFFFFFFFFFFFFF AND PUSH20 0xFFFFFFFFFFFFFFFFFFFFFFFFFFFFFFFFFFFFFFFF AND CALLER PUSH20 0xFFFFFFFFFFFFFFFFFFFFFFFFFFFFFFFFFFFFFFFF AND EQ SWAP1 POP SWAP1 JUMP JUMPDEST DUP4 DUP4 PUSH1 0x0 DUP2 DUP2 LT PUSH2 0x881 JUMPI PUSH2 0x880 PUSH2 0x1691 JUMP JUMPDEST JUMPDEST SWAP1 POP PUSH1 0x20 MUL ADD PUSH1 0x20 DUP2 ADD SWAP1 PUSH2 0x896 SWAP2 SWAP1 PUSH2 0x131C JUMP JUMPDEST PUSH20 0xFFFFFFFFFFFFFFFFFFFFFFFFFFFFFFFFFFFFFFFF AND PUSH4 0x95EA7B3 PUSH1 0x1 PUSH1 0x0 SWAP1 SLOAD SWAP1 PUSH2 0x100 EXP SWAP1 DIV PUSH20 0xFFFFFFFFFFFFFFFFFFFFFFFFFFFFFFFFFFFFFFFF AND DUP9 PUSH1 0x40 MLOAD DUP4 PUSH4 0xFFFFFFFF AND PUSH1 0xE0 SHL DUP2 MSTORE PUSH1 0x4 ADD PUSH2 0x8F2 SWAP3 SWAP2 SWAP1 PUSH2 0x161A JUMP JUMPDEST PUSH1 0x20 PUSH1 0x40 MLOAD DUP1 DUP4 SUB DUP2 PUSH1 0x0 DUP8 GAS CALL ISZERO DUP1 ISZERO PUSH2 0x911 JUMPI RETURNDATASIZE PUSH1 0x0 DUP1 RETURNDATACOPY RETURNDATASIZE PUSH1 0x0 REVERT JUMPDEST POP POP POP POP PUSH1 0x40 MLOAD RETURNDATASIZE PUSH1 0x1F NOT PUSH1 0x1F DUP3 ADD AND DUP3 ADD DUP1 PUSH1 0x40 MSTORE POP DUP2 ADD SWAP1 PUSH2 0x935 SWAP2 SWAP1 PUSH2 0x14BE JUMP JUMPDEST POP PUSH1 0x1 PUSH1 0x0 SWAP1 SLOAD SWAP1 PUSH2 0x100 EXP SWAP1 DIV PUSH20 0xFFFFFFFFFFFFFFFFFFFFFFFFFFFFFFFFFFFFFFFF AND PUSH20 0xFFFFFFFFFFFFFFFFFFFFFFFFFFFFFFFFFFFFFFFF AND PUSH4 0x9C48A3C3 DUP8 DUP8 DUP8 DUP8 DUP8 DUP8 PUSH1 0x40 MLOAD DUP8 PUSH4 0xFFFFFFFF AND PUSH1 0xE0 SHL DUP2 MSTORE PUSH1 0x4 ADD PUSH2 0x99B SWAP7 SWAP6 SWAP5 SWAP4 SWAP3 SWAP2 SWAP1 PUSH2 0x16C0 JUMP JUMPDEST PUSH1 0x0 PUSH1 0x40 MLOAD DUP1 DUP4 SUB DUP2 PUSH1 0x0 DUP8 DUP1 EXTCODESIZE ISZERO DUP1 ISZERO PUSH2 0x9B5 JUMPI PUSH1 0x0 DUP1 REVERT JUMPDEST POP GAS CALL ISZERO DUP1 ISZERO PUSH2 0x9C9 JUMPI RETURNDATASIZE PUSH1 0x0 DUP1 RETURNDATACOPY RETURNDATASIZE PUSH1 0x0 REVERT JUMPDEST POP POP POP POP POP POP POP POP POP POP JUMP JUMPDEST DUP4 DUP4 PUSH1 0x0 DUP2 DUP2 LT PUSH2 0x9E9 JUMPI PUSH2 0x9E8 PUSH2 0x1691 JUMP JUMPDEST JUMPDEST SWAP1 POP PUSH1 0x20 MUL ADD PUSH1 0x20 DUP2 ADD SWAP1 PUSH2 0x9FE SWAP2 SWAP1 PUSH2 0x131C JUMP JUMPDEST PUSH20 0xFFFFFFFFFFFFFFFFFFFFFFFFFFFFFFFFFFFFFFFF AND PUSH4 0x95EA7B3 PUSH1 0x1 PUSH1 0x0 SWAP1 SLOAD SWAP1 PUSH2 0x100 EXP SWAP1 DIV PUSH20 0xFFFFFFFFFFFFFFFFFFFFFFFFFFFFFFFFFFFFFFFF AND DUP9 PUSH1 0x40 MLOAD DUP4 PUSH4 0xFFFFFFFF AND PUSH1 0xE0 SHL DUP2 MSTORE PUSH1 0x4 ADD PUSH2 0xA5A SWAP3 SWAP2 SWAP1 PUSH2 0x161A JUMP JUMPDEST PUSH1 0x20 PUSH1 0x40 MLOAD DUP1 DUP4 SUB DUP2 PUSH1 0x0 DUP8 GAS CALL ISZERO DUP1 ISZERO PUSH2 0xA79 JUMPI RETURNDATASIZE PUSH1 0x0 DUP1 RETURNDATACOPY RETURNDATASIZE PUSH1 0x0 REVERT JUMPDEST POP POP POP POP PUSH1 0x40 MLOAD RETURNDATASIZE PUSH1 0x1F NOT PUSH1 0x1F DUP3 ADD AND DUP3 ADD DUP1 PUSH1 0x40 MSTORE POP DUP2 ADD SWAP1 PUSH2 0xA9D SWAP2 SWAP1 PUSH2 0x14BE JUMP JUMPDEST POP PUSH1 0x1 PUSH1 0x0 SWAP1 SLOAD SWAP1 PUSH2 0x100 EXP SWAP1 DIV PUSH20 0xFFFFFFFFFFFFFFFFFFFFFFFFFFFFFFFFFFFFFFFF AND PUSH20 0xFFFFFFFFFFFFFFFFFFFFFFFFFFFFFFFFFFFFFFFF AND PUSH4 0x9F593C33 DUP8 DUP8 DUP8 DUP8 DUP8 DUP8 PUSH1 0x40 MLOAD DUP8 PUSH4 0xFFFFFFFF AND PUSH1 0xE0 SHL DUP2 MSTORE PUSH1 0x4 ADD PUSH2 0xB03 SWAP7 SWAP6 SWAP5 SWAP4 SWAP3 SWAP2 SWAP1 PUSH2 0x16C0 JUMP JUMPDEST PUSH1 0x0 PUSH1 0x40 MLOAD DUP1 DUP4 SUB DUP2 PUSH1 0x0 DUP8 DUP1 EXTCODESIZE ISZERO DUP1 ISZERO PUSH2 0xB1D JUMPI PUSH1 0x0 DUP1 REVERT JUMPDEST POP GAS CALL ISZERO DUP1 ISZERO PUSH2 0xB31 JUMPI RETURNDATASIZE PUSH1 0x0 DUP1 RETURNDATACOPY RETURNDATASIZE PUSH1 0x0 REVERT JUMPDEST POP POP POP POP POP POP POP POP POP POP JUMP JUMPDEST PUSH1 0x60 PUSH1 0x1 PUSH1 0x0 SWAP1 SLOAD SWAP1 PUSH2 0x100 EXP SWAP1 DIV PUSH20 0xFFFFFFFFFFFFFFFFFFFFFFFFFFFFFFFFFFFFFFFF AND PUSH20 0xFFFFFFFFFFFFFFFFFFFFFFFFFFFFFFFFFFFFFFFF AND PUSH4 0xA8312B1D DUP8 DUP8 DUP8 DUP8 DUP8 PUSH1 0x40 MLOAD DUP7 PUSH4 0xFFFFFFFF AND PUSH1 0xE0 SHL DUP2 MSTORE PUSH1 0x4 ADD PUSH2 0xBA2 SWAP6 SWAP5 SWAP4 SWAP3 SWAP2 SWAP1 PUSH2 0x1717 JUMP JUMPDEST PUSH1 0x0 PUSH1 0x40 MLOAD DUP1 DUP4 SUB DUP2 DUP7 GAS STATICCALL ISZERO DUP1 ISZERO PUSH2 0xBBF JUMPI RETURNDATASIZE PUSH1 0x0 DUP1 RETURNDATACOPY RETURNDATASIZE PUSH1 0x0 REVERT JUMPDEST POP POP POP POP PUSH1 0x40 MLOAD RETURNDATASIZE PUSH1 0x0 DUP3 RETURNDATACOPY RETURNDATASIZE PUSH1 0x1F NOT PUSH1 0x1F DUP3 ADD AND DUP3 ADD DUP1 PUSH1 0x40 MSTORE POP DUP2 ADD SWAP1 PUSH2 0xBE8 SWAP2 SWAP1 PUSH2 0x18C4 JUMP JUMPDEST SWAP1 POP SWAP6 SWAP5 POP POP POP POP POP JUMP JUMPDEST PUSH2 0xBFB PUSH2 0x816 JUMP JUMPDEST PUSH2 0xC3A JUMPI PUSH1 0x40 MLOAD PUSH32 0x8C379A000000000000000000000000000000000000000000000000000000000 DUP2 MSTORE PUSH1 0x4 ADD PUSH2 0xC31 SWAP1 PUSH2 0x1548 JUMP JUMPDEST PUSH1 0x40 MLOAD DUP1 SWAP2 SUB SWAP1 REVERT JUMPDEST PUSH2 0xC43 DUP2 PUSH2 0xC46 JUMP JUMPDEST POP JUMP JUMPDEST PUSH1 0x0 PUSH20 0xFFFFFFFFFFFFFFFFFFFFFFFFFFFFFFFFFFFFFFFF AND DUP2 PUSH20 0xFFFFFFFFFFFFFFFFFFFFFFFFFFFFFFFFFFFFFFFF AND SUB PUSH2 0xCB5 JUMPI PUSH1 0x40 MLOAD PUSH32 0x8C379A000000000000000000000000000000000000000000000000000000000 DUP2 MSTORE PUSH1 0x4 ADD PUSH2 0xCAC SWAP1 PUSH2 0x197F JUMP JUMPDEST PUSH1 0x40 MLOAD DUP1 SWAP2 SUB SWAP1 REVERT JUMPDEST DUP1 PUSH20 0xFFFFFFFFFFFFFFFFFFFFFFFFFFFFFFFFFFFFFFFF AND PUSH1 0x0 DUP1 SLOAD SWAP1 PUSH2 0x100 EXP SWAP1 DIV PUSH20 0xFFFFFFFFFFFFFFFFFFFFFFFFFFFFFFFFFFFFFFFF AND PUSH20 0xFFFFFFFFFFFFFFFFFFFFFFFFFFFFFFFFFFFFFFFF AND PUSH32 0x8BE0079C531659141344CD1FD0A4F28419497F9722A3DAAFE3B4186F6B6457E0 PUSH1 0x40 MLOAD PUSH1 0x40 MLOAD DUP1 SWAP2 SUB SWAP1 LOG3 DUP1 PUSH1 0x0 DUP1 PUSH2 0x100 EXP DUP2 SLOAD DUP2 PUSH20 0xFFFFFFFFFFFFFFFFFFFFFFFFFFFFFFFFFFFFFFFF MUL NOT AND SWAP1 DUP4 PUSH20 0xFFFFFFFFFFFFFFFFFFFFFFFFFFFFFFFFFFFFFFFF AND MUL OR SWAP1 SSTORE POP POP JUMP JUMPDEST PUSH1 0x0 PUSH1 0x40 MLOAD SWAP1 POP SWAP1 JUMP JUMPDEST PUSH1 0x0 DUP1 REVERT JUMPDEST PUSH1 0x0 DUP1 REVERT JUMPDEST PUSH1 0x0 DUP2 SWAP1 POP SWAP2 SWAP1 POP JUMP JUMPDEST PUSH2 0xD99 DUP2 PUSH2 0xD86 JUMP JUMPDEST DUP2 EQ PUSH2 0xDA4 JUMPI PUSH1 0x0 DUP1 REVERT JUMPDEST POP JUMP JUMPDEST PUSH1 0x0 DUP2 CALLDATALOAD SWAP1 POP PUSH2 0xDB6 DUP2 PUSH2 0xD90 JUMP JUMPDEST SWAP3 SWAP2 POP POP JUMP JUMPDEST PUSH1 0x0 PUSH20 0xFFFFFFFFFFFFFFFFFFFFFFFFFFFFFFFFFFFFFFFF DUP3 AND SWAP1 POP SWAP2 SWAP1 POP JUMP JUMPDEST PUSH1 0x0 PUSH2 0xDE7 DUP3 PUSH2 0xDBC JUMP JUMPDEST SWAP1 POP SWAP2 SWAP1 POP JUMP JUMPDEST PUSH2 0xDF7 DUP2 PUSH2 0xDDC JUMP JUMPDEST DUP2 EQ PUSH2 0xE02 JUMPI PUSH1 0x0 DUP1 REVERT JUMPDEST POP JUMP JUMPDEST PUSH1 0x0 DUP2 CALLDATALOAD SWAP1 POP PUSH2 0xE14 DUP2 PUSH2 0xDEE JUMP JUMPDEST SWAP3 SWAP2 POP POP JUMP JUMPDEST PUSH1 0x0 DUP1 REVERT JUMPDEST PUSH1 0x0 DUP1 REVERT JUMPDEST PUSH1 0x0 DUP1 REVERT JUMPDEST PUSH1 0x0 DUP1 DUP4 PUSH1 0x1F DUP5 ADD SLT PUSH2 0xE3F JUMPI PUSH2 0xE3E PUSH2 0xE1A JUMP JUMPDEST JUMPDEST DUP3 CALLDATALOAD SWAP1 POP PUSH8 0xFFFFFFFFFFFFFFFF DUP2 GT ISZERO PUSH2 0xE5C JUMPI PUSH2 0xE5B PUSH2 0xE1F JUMP JUMPDEST JUMPDEST PUSH1 0x20 DUP4 ADD SWAP2 POP DUP4 PUSH1 0x20 DUP3 MUL DUP4 ADD GT ISZERO PUSH2 0xE78 JUMPI PUSH2 0xE77 PUSH2 0xE24 JUMP JUMPDEST JUMPDEST SWAP3 POP SWAP3 SWAP1 POP JUMP JUMPDEST PUSH1 0x0 DUP1 PUSH1 0x0 DUP1 PUSH1 0x0 PUSH1 0x80 DUP7 DUP9 SUB SLT ISZERO PUSH2 0xE9B JUMPI PUSH2 0xE9A PUSH2 0xD7C JUMP JUMPDEST JUMPDEST PUSH1 0x0 PUSH2 0xEA9 DUP9 DUP3 DUP10 ADD PUSH2 0xDA7 JUMP JUMPDEST SWAP6 POP POP PUSH1 0x20 PUSH2 0xEBA DUP9 DUP3 DUP10 ADD PUSH2 0xDA7 JUMP JUMPDEST SWAP5 POP POP PUSH1 0x40 PUSH2 0xECB DUP9 DUP3 DUP10 ADD PUSH2 0xE05 JUMP JUMPDEST SWAP4 POP POP PUSH1 0x60 DUP7 ADD CALLDATALOAD PUSH8 0xFFFFFFFFFFFFFFFF DUP2 GT ISZERO PUSH2 0xEEC JUMPI PUSH2 0xEEB PUSH2 0xD81 JUMP JUMPDEST JUMPDEST PUSH2 0xEF8 DUP9 DUP3 DUP10 ADD PUSH2 0xE29 JUMP JUMPDEST SWAP3 POP SWAP3 POP POP SWAP3 SWAP6 POP SWAP3 SWAP6 SWAP1 SWAP4 POP JUMP JUMPDEST PUSH1 0x0 DUP1 PUSH1 0x40 DUP4 DUP6 SUB SLT ISZERO PUSH2 0xF1E JUMPI PUSH2 0xF1D PUSH2 0xD7C JUMP JUMPDEST JUMPDEST PUSH1 0x0 PUSH2 0xF2C DUP6 DUP3 DUP7 ADD PUSH2 0xDA7 JUMP JUMPDEST SWAP3 POP POP PUSH1 0x20 PUSH2 0xF3D DUP6 DUP3 DUP7 ADD PUSH2 0xE05 JUMP JUMPDEST SWAP2 POP POP SWAP3 POP SWAP3 SWAP1 POP JUMP JUMPDEST PUSH1 0x0 PUSH2 0xF52 DUP3 PUSH2 0xDBC JUMP JUMPDEST SWAP1 POP SWAP2 SWAP1 POP JUMP JUMPDEST PUSH2 0xF62 DUP2 PUSH2 0xF47 JUMP JUMPDEST DUP2 EQ PUSH2 0xF6D JUMPI PUSH1 0x0 DUP1 REVERT JUMPDEST POP JUMP JUMPDEST PUSH1 0x0 DUP2 CALLDATALOAD SWAP1 POP PUSH2 0xF7F DUP2 PUSH2 0xF59 JUMP JUMPDEST SWAP3 SWAP2 POP POP JUMP JUMPDEST PUSH1 0x0 DUP1 PUSH1 0x40 DUP4 DUP6 SUB SLT ISZERO PUSH2 0xF9C JUMPI PUSH2 0xF9B PUSH2 0xD7C JUMP JUMPDEST JUMPDEST PUSH1 0x0 PUSH2 0xFAA DUP6 DUP3 DUP7 ADD PUSH2 0xDA7 JUMP JUMPDEST SWAP3 POP POP PUSH1 0x20 PUSH2 0xFBB DUP6 DUP3 DUP7 ADD PUSH2 0xF70 JUMP JUMPDEST SWAP2 POP POP SWAP3 POP SWAP3 SWAP1 POP JUMP JUMPDEST PUSH1 0x0 DUP1 PUSH1 0x0 PUSH1 0x60 DUP5 DUP7 SUB SLT ISZERO PUSH2 0xFDE JUMPI PUSH2 0xFDD PUSH2 0xD7C JUMP JUMPDEST JUMPDEST PUSH1 0x0 PUSH2 0xFEC DUP7 DUP3 DUP8 ADD PUSH2 0xDA7 JUMP JUMPDEST SWAP4 POP POP PUSH1 0x20 PUSH2 0xFFD DUP7 DUP3 DUP8 ADD PUSH2 0xE05 JUMP JUMPDEST SWAP3 POP POP PUSH1 0x40 PUSH2 0x100E DUP7 DUP3 DUP8 ADD PUSH2 0xE05 JUMP JUMPDEST SWAP2 POP POP SWAP3 POP SWAP3 POP SWAP3 JUMP JUMPDEST PUSH1 0x0 DUP1 PUSH1 0x0 DUP1 PUSH1 0x0 PUSH1 0x80 DUP7 DUP9 SUB SLT ISZERO PUSH2 0x1034 JUMPI PUSH2 0x1033 PUSH2 0xD7C JUMP JUMPDEST JUMPDEST PUSH1 0x0 PUSH2 0x1042 DUP9 DUP3 DUP10 ADD PUSH2 0xE05 JUMP JUMPDEST SWAP6 POP POP PUSH1 0x20 PUSH2 0x1053 DUP9 DUP3 DUP10 ADD PUSH2 0xDA7 JUMP JUMPDEST SWAP5 POP POP PUSH1 0x40 PUSH2 0x1064 DUP9 DUP3 DUP10 ADD PUSH2 0xDA7 JUMP JUMPDEST SWAP4 POP POP PUSH1 0x60 DUP7 ADD CALLDATALOAD PUSH8 0xFFFFFFFFFFFFFFFF DUP2 GT ISZERO PUSH2 0x1085 JUMPI PUSH2 0x1084 PUSH2 0xD81 JUMP JUMPDEST JUMPDEST PUSH2 0x1091 DUP9 DUP3 DUP10 ADD PUSH2 0xE29 JUMP JUMPDEST SWAP3 POP SWAP3 POP POP SWAP3 SWAP6 POP SWAP3 SWAP6 SWAP1 SWAP4 POP JUMP JUMPDEST PUSH2 0x10A9 DUP2 PUSH2 0xDDC JUMP JUMPDEST DUP3 MSTORE POP POP JUMP JUMPDEST PUSH1 0x0 PUSH1 0x20 DUP3 ADD SWAP1 POP PUSH2 0x10C4 PUSH1 0x0 DUP4 ADD DUP5 PUSH2 0x10A0 JUMP JUMPDEST SWAP3 SWAP2 POP POP JUMP JUMPDEST PUSH1 0x0 DUP2 ISZERO ISZERO SWAP1 POP SWAP2 SWAP1 POP JUMP JUMPDEST PUSH2 0x10DF DUP2 PUSH2 0x10CA JUMP JUMPDEST DUP3 MSTORE POP POP JUMP JUMPDEST PUSH1 0x0 PUSH1 0x20 DUP3 ADD SWAP1 POP PUSH2 0x10FA PUSH1 0x0 DUP4 ADD DUP5 PUSH2 0x10D6 JUMP JUMPDEST SWAP3 SWAP2 POP POP JUMP JUMPDEST PUSH1 0x0 DUP1 PUSH1 0x0 DUP1 PUSH1 0x0 DUP1 PUSH1 0x80 DUP8 DUP10 SUB SLT ISZERO PUSH2 0x111D JUMPI PUSH2 0x111C PUSH2 0xD7C JUMP JUMPDEST JUMPDEST PUSH1 0x0 PUSH2 0x112B DUP10 DUP3 DUP11 ADD PUSH2 0xDA7 JUMP JUMPDEST SWAP7 POP POP PUSH1 0x20 PUSH2 0x113C DUP10 DUP3 DUP11 ADD PUSH2 0xDA7 JUMP JUMPDEST SWAP6 POP POP PUSH1 0x40 DUP8 ADD CALLDATALOAD PUSH8 0xFFFFFFFFFFFFFFFF DUP2 GT ISZERO PUSH2 0x115D JUMPI PUSH2 0x115C PUSH2 0xD81 JUMP JUMPDEST JUMPDEST PUSH2 0x1169 DUP10 DUP3 DUP11 ADD PUSH2 0xE29 JUMP JUMPDEST SWAP5 POP SWAP5 POP POP PUSH1 0x60 DUP8 ADD CALLDATALOAD PUSH8 0xFFFFFFFFFFFFFFFF DUP2 GT ISZERO PUSH2 0x118C JUMPI PUSH2 0x118B PUSH2 0xD81 JUMP JUMPDEST JUMPDEST PUSH2 0x1198 DUP10 DUP3 DUP11 ADD PUSH2 0xE29 JUMP JUMPDEST SWAP3 POP SWAP3 POP POP SWAP3 SWAP6 POP SWAP3 SWAP6 POP SWAP3 SWAP6 JUMP JUMPDEST PUSH1 0x0 DUP1 PUSH1 0x0 DUP1 PUSH1 0x0 PUSH1 0x60 DUP7 DUP9 SUB SLT ISZERO PUSH2 0x11C3 JUMPI PUSH2 0x11C2 PUSH2 0xD7C JUMP JUMPDEST JUMPDEST PUSH1 0x0 PUSH2 0x11D1 DUP9 DUP3 DUP10 ADD PUSH2 0xDA7 JUMP JUMPDEST SWAP6 POP POP PUSH1 0x20 DUP7 ADD CALLDATALOAD PUSH8 0xFFFFFFFFFFFFFFFF DUP2 GT ISZERO PUSH2 0x11F2 JUMPI PUSH2 0x11F1 PUSH2 0xD81 JUMP JUMPDEST JUMPDEST PUSH2 0x11FE DUP9 DUP3 DUP10 ADD PUSH2 0xE29 JUMP JUMPDEST SWAP5 POP SWAP5 POP POP PUSH1 0x40 DUP7 ADD CALLDATALOAD PUSH8 0xFFFFFFFFFFFFFFFF DUP2 GT ISZERO PUSH2 0x1221 JUMPI PUSH2 0x1220 PUSH2 0xD81 JUMP JUMPDEST JUMPDEST PUSH2 0x122D DUP9 DUP3 DUP10 ADD PUSH2 0xE29 JUMP JUMPDEST SWAP3 POP SWAP3 POP POP SWAP3 SWAP6 POP SWAP3 SWAP6 SWAP1 SWAP4 POP JUMP JUMPDEST PUSH1 0x0 DUP2 MLOAD SWAP1 POP SWAP2 SWAP1 POP JUMP JUMPDEST PUSH1 0x0 DUP3 DUP3 MSTORE PUSH1 0x20 DUP3 ADD SWAP1 POP SWAP3 SWAP2 POP POP JUMP JUMPDEST PUSH1 0x0 DUP2 SWAP1 POP PUSH1 0x20 DUP3 ADD SWAP1 POP SWAP2 SWAP1 POP JUMP JUMPDEST PUSH2 0x1271 DUP2 PUSH2 0xD86 JUMP JUMPDEST DUP3 MSTORE POP POP JUMP JUMPDEST PUSH1 0x0 PUSH2 0x1283 DUP4 DUP4 PUSH2 0x1268 JUMP JUMPDEST PUSH1 0x20 DUP4 ADD SWAP1 POP SWAP3 SWAP2 POP POP JUMP JUMPDEST PUSH1 0x0 PUSH1 0x20 DUP3 ADD SWAP1 POP SWAP2 SWAP1 POP JUMP JUMPDEST PUSH1 0x0 PUSH2 0x12A7 DUP3 PUSH2 0x123C JUMP JUMPDEST PUSH2 0x12B1 DUP2 DUP6 PUSH2 0x1247 JUMP JUMPDEST SWAP4 POP PUSH2 0x12BC DUP4 PUSH2 0x1258 JUMP JUMPDEST DUP1 PUSH1 0x0 JUMPDEST DUP4 DUP2 LT ISZERO PUSH2 0x12ED JUMPI DUP2 MLOAD PUSH2 0x12D4 DUP9 DUP3 PUSH2 0x1277 JUMP JUMPDEST SWAP8 POP PUSH2 0x12DF DUP4 PUSH2 0x128F JUMP JUMPDEST SWAP3 POP POP PUSH1 0x1 DUP2 ADD SWAP1 POP PUSH2 0x12C0 JUMP JUMPDEST POP DUP6 SWAP4 POP POP POP POP SWAP3 SWAP2 POP POP JUMP JUMPDEST PUSH1 0x0 PUSH1 0x20 DUP3 ADD SWAP1 POP DUP2 DUP2 SUB PUSH1 0x0 DUP4 ADD MSTORE PUSH2 0x1314 DUP2 DUP5 PUSH2 0x129C JUMP JUMPDEST SWAP1 POP SWAP3 SWAP2 POP POP JUMP JUMPDEST PUSH1 0x0 PUSH1 0x20 DUP3 DUP5 SUB SLT ISZERO PUSH2 0x1332 JUMPI PUSH2 0x1331 PUSH2 0xD7C JUMP JUMPDEST JUMPDEST PUSH1 0x0 PUSH2 0x1340 DUP5 DUP3 DUP6 ADD PUSH2 0xE05 JUMP JUMPDEST SWAP2 POP POP SWAP3 SWAP2 POP POP JUMP JUMPDEST PUSH2 0x1352 DUP2 PUSH2 0xD86 JUMP JUMPDEST DUP3 MSTORE POP POP JUMP JUMPDEST PUSH1 0x0 DUP3 DUP3 MSTORE PUSH1 0x20 DUP3 ADD SWAP1 POP SWAP3 SWAP2 POP POP JUMP JUMPDEST PUSH1 0x0 DUP2 SWAP1 POP SWAP2 SWAP1 POP JUMP JUMPDEST PUSH2 0x137C DUP2 PUSH2 0xDDC JUMP JUMPDEST DUP3 MSTORE POP POP JUMP JUMPDEST PUSH1 0x0 PUSH2 0x138E DUP4 DUP4 PUSH2 0x1373 JUMP JUMPDEST PUSH1 0x20 DUP4 ADD SWAP1 POP SWAP3 SWAP2 POP POP JUMP JUMPDEST PUSH1 0x0 PUSH2 0x13A9 PUSH1 0x20 DUP5 ADD DUP5 PUSH2 0xE05 JUMP JUMPDEST SWAP1 POP SWAP3 SWAP2 POP POP JUMP JUMPDEST PUSH1 0x0 PUSH1 0x20 DUP3 ADD SWAP1 POP SWAP2 SWAP1 POP JUMP JUMPDEST PUSH1 0x0 PUSH2 0x13CA DUP4 DUP6 PUSH2 0x1358 JUMP JUMPDEST SWAP4 POP PUSH2 0x13D5 DUP3 PUSH2 0x1369 JUMP JUMPDEST DUP1 PUSH1 0x0 JUMPDEST DUP6 DUP2 LT ISZERO PUSH2 0x140E JUMPI PUSH2 0x13EB DUP3 DUP5 PUSH2 0x139A JUMP JUMPDEST PUSH2 0x13F5 DUP9 DUP3 PUSH2 0x1382 JUMP JUMPDEST SWAP8 POP PUSH2 0x1400 DUP4 PUSH2 0x13B1 JUMP JUMPDEST SWAP3 POP POP PUSH1 0x1 DUP2 ADD SWAP1 POP PUSH2 0x13D9 JUMP JUMPDEST POP DUP6 SWAP3 POP POP POP SWAP4 SWAP3 POP POP POP JUMP JUMPDEST PUSH1 0x0 PUSH1 0x60 DUP3 ADD SWAP1 POP PUSH2 0x1430 PUSH1 0x0 DUP4 ADD DUP8 PUSH2 0x1349 JUMP JUMPDEST PUSH2 0x143D PUSH1 0x20 DUP4 ADD DUP7 PUSH2 0x10A0 JUMP JUMPDEST DUP2 DUP2 SUB PUSH1 0x40 DUP4 ADD MSTORE PUSH2 0x1450 DUP2 DUP5 DUP7 PUSH2 0x13BE JUMP JUMPDEST SWAP1 POP SWAP6 SWAP5 POP POP POP POP POP JUMP JUMPDEST PUSH1 0x0 PUSH1 0x60 DUP3 ADD SWAP1 POP PUSH2 0x1470 PUSH1 0x0 DUP4 ADD DUP7 PUSH2 0x10A0 JUMP JUMPDEST PUSH2 0x147D PUSH1 0x20 DUP4 ADD DUP6 PUSH2 0x10A0 JUMP JUMPDEST PUSH2 0x148A PUSH1 0x40 DUP4 ADD DUP5 PUSH2 0x1349 JUMP JUMPDEST SWAP5 SWAP4 POP POP POP POP JUMP JUMPDEST PUSH2 0x149B DUP2 PUSH2 0x10CA JUMP JUMPDEST DUP2 EQ PUSH2 0x14A6 JUMPI PUSH1 0x0 DUP1 REVERT JUMPDEST POP JUMP JUMPDEST PUSH1 0x0 DUP2 MLOAD SWAP1 POP PUSH2 0x14B8 DUP2 PUSH2 0x1492 JUMP JUMPDEST SWAP3 SWAP2 POP POP JUMP JUMPDEST PUSH1 0x0 PUSH1 0x20 DUP3 DUP5 SUB SLT ISZERO PUSH2 0x14D4 JUMPI PUSH2 0x14D3 PUSH2 0xD7C JUMP JUMPDEST JUMPDEST PUSH1 0x0 PUSH2 0x14E2 DUP5 DUP3 DUP6 ADD PUSH2 0x14A9 JUMP JUMPDEST SWAP2 POP POP SWAP3 SWAP2 POP POP JUMP JUMPDEST PUSH1 0x0 DUP3 DUP3 MSTORE PUSH1 0x20 DUP3 ADD SWAP1 POP SWAP3 SWAP2 POP POP JUMP JUMPDEST PUSH32 0x4F776E61626C653A2063616C6C6572206973206E6F7420746865206F776E6572 PUSH1 0x0 DUP3 ADD MSTORE POP JUMP JUMPDEST PUSH1 0x0 PUSH2 0x1532 PUSH1 0x20 DUP4 PUSH2 0x14EB JUMP JUMPDEST SWAP2 POP PUSH2 0x153D DUP3 PUSH2 0x14FC JUMP JUMPDEST PUSH1 0x20 DUP3 ADD SWAP1 POP SWAP2 SWAP1 POP JUMP JUMPDEST PUSH1 0x0 PUSH1 0x20 DUP3 ADD SWAP1 POP DUP2 DUP2 SUB PUSH1 0x0 DUP4 ADD MSTORE PUSH2 0x1561 DUP2 PUSH2 0x1525 JUMP JUMPDEST SWAP1 POP SWAP2 SWAP1 POP JUMP JUMPDEST PUSH1 0x0 DUP2 SWAP1 POP SWAP3 SWAP2 POP POP JUMP JUMPDEST POP JUMP JUMPDEST PUSH1 0x0 PUSH2 0x1583 PUSH1 0x0 DUP4 PUSH2 0x1568 JUMP JUMPDEST SWAP2 POP PUSH2 0x158E DUP3 PUSH2 0x1573 JUMP JUMPDEST PUSH1 0x0 DUP3 ADD SWAP1 POP SWAP2 SWAP1 POP JUMP JUMPDEST PUSH1 0x0 PUSH2 0x15A4 DUP3 PUSH2 0x1576 JUMP JUMPDEST SWAP2 POP DUP2 SWAP1 POP SWAP2 SWAP1 POP JUMP JUMPDEST PUSH32 0x4661696C656420746F2073656E64204574686572000000000000000000000000 PUSH1 0x0 DUP3 ADD MSTORE POP JUMP JUMPDEST PUSH1 0x0 PUSH2 0x15E4 PUSH1 0x14 DUP4 PUSH2 0x14EB JUMP JUMPDEST SWAP2 POP PUSH2 0x15EF DUP3 PUSH2 0x15AE JUMP JUMPDEST PUSH1 0x20 DUP3 ADD SWAP1 POP SWAP2 SWAP1 POP JUMP JUMPDEST PUSH1 0x0 PUSH1 0x20 DUP3 ADD SWAP1 POP DUP2 DUP2 SUB PUSH1 0x0 DUP4 ADD MSTORE PUSH2 0x1613 DUP2 PUSH2 0x15D7 JUMP JUMPDEST SWAP1 POP SWAP2 SWAP1 POP JUMP JUMPDEST PUSH1 0x0 PUSH1 0x40 DUP3 ADD SWAP1 POP PUSH2 0x162F PUSH1 0x0 DUP4 ADD DUP6 PUSH2 0x10A0 JUMP JUMPDEST PUSH2 0x163C PUSH1 0x20 DUP4 ADD DUP5 PUSH2 0x1349 JUMP JUMPDEST SWAP4 SWAP3 POP POP POP JUMP JUMPDEST PUSH1 0x0 PUSH1 0x80 DUP3 ADD SWAP1 POP PUSH2 0x1658 PUSH1 0x0 DUP4 ADD DUP9 PUSH2 0x10A0 JUMP JUMPDEST PUSH2 0x1665 PUSH1 0x20 DUP4 ADD DUP8 PUSH2 0x1349 JUMP JUMPDEST PUSH2 0x1672 PUSH1 0x40 DUP4 ADD DUP7 PUSH2 0x1349 JUMP JUMPDEST DUP2 DUP2 SUB PUSH1 0x60 DUP4 ADD MSTORE PUSH2 0x1685 DUP2 DUP5 DUP7 PUSH2 0x13BE JUMP JUMPDEST SWAP1 POP SWAP7 SWAP6 POP POP POP POP POP POP JUMP JUMPDEST PUSH32 0x4E487B7100000000000000000000000000000000000000000000000000000000 PUSH1 0x0 MSTORE PUSH1 0x32 PUSH1 0x4 MSTORE PUSH1 0x24 PUSH1 0x0 REVERT JUMPDEST PUSH1 0x0 PUSH1 0x80 DUP3 ADD SWAP1 POP PUSH2 0x16D5 PUSH1 0x0 DUP4 ADD DUP10 PUSH2 0x1349 JUMP JUMPDEST PUSH2 0x16E2 PUSH1 0x20 DUP4 ADD DUP9 PUSH2 0x1349 JUMP JUMPDEST DUP2 DUP2 SUB PUSH1 0x40 DUP4 ADD MSTORE PUSH2 0x16F5 DUP2 DUP7 DUP9 PUSH2 0x13BE JUMP JUMPDEST SWAP1 POP DUP2 DUP2 SUB PUSH1 0x60 DUP4 ADD MSTORE PUSH2 0x170A DUP2 DUP5 DUP7 PUSH2 0x13BE JUMP JUMPDEST SWAP1 POP SWAP8 SWAP7 POP POP POP POP POP POP POP JUMP JUMPDEST PUSH1 0x0 PUSH1 0x60 DUP3 ADD SWAP1 POP PUSH2 0x172C PUSH1 0x0 DUP4 ADD DUP9 PUSH2 0x1349 JUMP JUMPDEST DUP2 DUP2 SUB PUSH1 0x20 DUP4 ADD MSTORE PUSH2 0x173F DUP2 DUP7 DUP9 PUSH2 0x13BE JUMP JUMPDEST SWAP1 POP DUP2 DUP2 SUB PUSH1 0x40 DUP4 ADD MSTORE PUSH2 0x1754 DUP2 DUP5 DUP7 PUSH2 0x13BE JUMP JUMPDEST SWAP1 POP SWAP7 SWAP6 POP POP POP POP POP POP JUMP JUMPDEST PUSH1 0x0 PUSH1 0x1F NOT PUSH1 0x1F DUP4 ADD AND SWAP1 POP SWAP2 SWAP1 POP JUMP JUMPDEST PUSH32 0x4E487B7100000000000000000000000000000000000000000000000000000000 PUSH1 0x0 MSTORE PUSH1 0x41 PUSH1 0x4 MSTORE PUSH1 0x24 PUSH1 0x0 REVERT JUMPDEST PUSH2 0x17A9 DUP3 PUSH2 0x1760 JUMP JUMPDEST DUP2 ADD DUP2 DUP2 LT PUSH8 0xFFFFFFFFFFFFFFFF DUP3 GT OR ISZERO PUSH2 0x17C8 JUMPI PUSH2 0x17C7 PUSH2 0x1771 JUMP JUMPDEST JUMPDEST DUP1 PUSH1 0x40 MSTORE POP POP POP JUMP JUMPDEST PUSH1 0x0 PUSH2 0x17DB PUSH2 0xD72 JUMP JUMPDEST SWAP1 POP PUSH2 0x17E7 DUP3 DUP3 PUSH2 0x17A0 JUMP JUMPDEST SWAP2 SWAP1 POP JUMP JUMPDEST PUSH1 0x0 PUSH8 0xFFFFFFFFFFFFFFFF DUP3 GT ISZERO PUSH2 0x1807 JUMPI PUSH2 0x1806 PUSH2 0x1771 JUMP JUMPDEST JUMPDEST PUSH1 0x20 DUP3 MUL SWAP1 POP PUSH1 0x20 DUP2 ADD SWAP1 POP SWAP2 SWAP1 POP JUMP JUMPDEST PUSH1 0x0 DUP2 MLOAD SWAP1 POP PUSH2 0x1827 DUP2 PUSH2 0xD90 JUMP JUMPDEST SWAP3 SWAP2 POP POP JUMP JUMPDEST PUSH1 0x0 PUSH2 0x1840 PUSH2 0x183B DUP5 PUSH2 0x17EC JUMP JUMPDEST PUSH2 0x17D1 JUMP JUMPDEST SWAP1 POP DUP1 DUP4 DUP3 MSTORE PUSH1 0x20 DUP3 ADD SWAP1 POP PUSH1 0x20 DUP5 MUL DUP4 ADD DUP6 DUP2 GT ISZERO PUSH2 0x1863 JUMPI PUSH2 0x1862 PUSH2 0xE24 JUMP JUMPDEST JUMPDEST DUP4 JUMPDEST DUP2 DUP2 LT ISZERO PUSH2 0x188C JUMPI DUP1 PUSH2 0x1878 DUP9 DUP3 PUSH2 0x1818 JUMP JUMPDEST DUP5 MSTORE PUSH1 0x20 DUP5 ADD SWAP4 POP POP PUSH1 0x20 DUP2 ADD SWAP1 POP PUSH2 0x1865 JUMP JUMPDEST POP POP POP SWAP4 SWAP3 POP POP POP JUMP JUMPDEST PUSH1 0x0 DUP3 PUSH1 0x1F DUP4 ADD SLT PUSH2 0x18AB JUMPI PUSH2 0x18AA PUSH2 0xE1A JUMP JUMPDEST JUMPDEST DUP2 MLOAD PUSH2 0x18BB DUP5 DUP3 PUSH1 0x20 DUP7 ADD PUSH2 0x182D JUMP JUMPDEST SWAP2 POP POP SWAP3 SWAP2 POP POP JUMP JUMPDEST PUSH1 0x0 PUSH1 0x20 DUP3 DUP5 SUB SLT ISZERO PUSH2 0x18DA JUMPI PUSH2 0x18D9 PUSH2 0xD7C JUMP JUMPDEST JUMPDEST PUSH1 0x0 DUP3 ADD MLOAD PUSH8 0xFFFFFFFFFFFFFFFF DUP2 GT ISZERO PUSH2 0x18F8 JUMPI PUSH2 0x18F7 PUSH2 0xD81 JUMP JUMPDEST JUMPDEST PUSH2 0x1904 DUP5 DUP3 DUP6 ADD PUSH2 0x1896 JUMP JUMPDEST SWAP2 POP POP SWAP3 SWAP2 POP POP JUMP JUMPDEST PUSH32 0x4F776E61626C653A206E6577206F776E657220697320746865207A65726F2061 PUSH1 0x0 DUP3 ADD MSTORE PUSH32 0x6464726573730000000000000000000000000000000000000000000000000000 PUSH1 0x20 DUP3 ADD MSTORE POP JUMP JUMPDEST PUSH1 0x0 PUSH2 0x1969 PUSH1 0x26 DUP4 PUSH2 0x14EB JUMP JUMPDEST SWAP2 POP PUSH2 0x1974 DUP3 PUSH2 0x190D JUMP JUMPDEST PUSH1 0x40 DUP3 ADD SWAP1 POP SWAP2 SWAP1 POP JUMP JUMPDEST PUSH1 0x0 PUSH1 0x20 DUP3 ADD SWAP1 POP DUP2 DUP2 SUB PUSH1 0x0 DUP4 ADD MSTORE PUSH2 0x1998 DUP2 PUSH2 0x195C JUMP JUMPDEST SWAP1 POP SWAP2 SWAP1 POP JUMP INVALID LOG2 PUSH5 0x6970667358 0x22 SLT KECCAK256 0xC4 0xB0 ADD 0x2E PUSH9 0x7789FCCE03C871B019 DIV MSTORE 0xFB 0xAF 0xC9 PUSH18 0x9CC875DBAB9CE7B4DD9B8A4764736F6C6343 STOP ADDMOD SLT STOP CALLER "
				},
				"gasEstimates": {
					"creation": {
						"codeDepositCost": "1322600",
						"executionCost": "infinite",
						"totalCost": "infinite"
					},
					"external": {
						"addBNBLiquidity()": "165",
						"addTokenLiquidity(uint256,address)": "infinite",
						"getAmountsOut(uint256,address[],address[])": "infinite",
						"isOwner()": "2563",
						"owner()": "2567",
						"removeBNBLiquidity(uint256,address)": "infinite",
						"removeTokenLiquidity(uint256,address,address)": "infinite",
						"renounceOwnership()": "30405",
						"swapExactBNBForEUSD(uint256,uint256,address,address[])": "infinite",
						"swapExactEUSDForTokens(uint256,uint256,address[],address[])": "infinite",
						"swapExactEUSDforBNB(address,uint256,uint256,address[])": "infinite",
						"swapExactTokensForEUSD(uint256,uint256,address[],address[])": "infinite",
						"transferOwnership(address)": "30757"
					},
					"internal": {
						"_getBalanceOfToken(address)": "infinite"
					}
				},
				"methodIdentifiers": {
					"addBNBLiquidity()": "52385f42",
					"addTokenLiquidity(uint256,address)": "2d21c6c0",
					"getAmountsOut(uint256,address[],address[])": "a8312b1d",
					"isOwner()": "8f32d59b",
					"owner()": "8da5cb5b",
					"removeBNBLiquidity(uint256,address)": "5df88e51",
					"removeTokenLiquidity(uint256,address,address)": "5eb6d9ac",
					"renounceOwnership()": "715018a6",
					"swapExactBNBForEUSD(uint256,uint256,address,address[])": "23a70807",
					"swapExactEUSDForTokens(uint256,uint256,address[],address[])": "9f593c33",
					"swapExactEUSDforBNB(address,uint256,uint256,address[])": "82382e88",
					"swapExactTokensForEUSD(uint256,uint256,address[],address[])": "9c48a3c3",
					"transferOwnership(address)": "f2fde38b"
				}
			},
			"storageLayout": {
				"storage": [
					{
						"astId": 3,
						"contract": "smart contract/SwapCryptoLoanUpdate/contracts/facets/VolumeGenerator.sol:VolumeGenerator",
						"label": "_owner",
						"offset": 0,
						"slot": "0",
						"type": "t_address"
					},
					{
						"astId": 132,
						"contract": "smart contract/SwapCryptoLoanUpdate/contracts/facets/VolumeGenerator.sol:VolumeGenerator",
						"label": "_martGTPADDRESS",
						"offset": 0,
						"slot": "1",
						"type": "t_address"
					}
				],
				"types": {
					"t_address": {
						"encoding": "inplace",
						"label": "address",
						"numberOfBytes": "20"
					}
				}
			},
			"userdoc": {
				"kind": "user",
				"methods": {},
				"version": 1
			}
		}
	}
}