{
	"smart contract/SwapCryptoLoanUpdate/contracts/facets/PriceOracleFacet.sol": {
		"PriceOracleFacet": {
			"abi": [
				{
					"anonymous": false,
					"inputs": [
						{
							"indexed": false,
							"internalType": "string",
							"name": "_ticker",
							"type": "string"
						},
						{
							"indexed": false,
							"internalType": "uint256",
							"name": "_price",
							"type": "uint256"
						},
						{
							"indexed": false,
							"internalType": "address",
							"name": "_pythia",
							"type": "address"
						},
						{
							"indexed": false,
							"internalType": "uint256",
							"name": "_time",
							"type": "uint256"
						}
					],
					"name": "PriceUpdated",
					"type": "event"
				},
				{
					"anonymous": false,
					"inputs": [
						{
							"indexed": false,
							"internalType": "uint256",
							"name": "_time",
							"type": "uint256"
						}
					],
					"name": "PrinceChanged",
					"type": "event"
				},
				{
					"anonymous": false,
					"inputs": [
						{
							"indexed": false,
							"internalType": "address",
							"name": "_pythia",
							"type": "address"
						},
						{
							"indexed": false,
							"internalType": "address",
							"name": "_addBy",
							"type": "address"
						},
						{
							"indexed": false,
							"internalType": "uint256",
							"name": "_time",
							"type": "uint256"
						}
					],
					"name": "PythiaAdded",
					"type": "event"
				},
				{
					"anonymous": false,
					"inputs": [
						{
							"indexed": false,
							"internalType": "address",
							"name": "_pythia",
							"type": "address"
						},
						{
							"indexed": false,
							"internalType": "address",
							"name": "_addBy",
							"type": "address"
						},
						{
							"indexed": false,
							"internalType": "uint256",
							"name": "_time",
							"type": "uint256"
						}
					],
					"name": "PythiaSuspended",
					"type": "event"
				},
				{
					"inputs": [
						{
							"internalType": "string",
							"name": "_source",
							"type": "string"
						}
					],
					"name": "converter",
					"outputs": [
						{
							"internalType": "bytes",
							"name": "",
							"type": "bytes"
						}
					],
					"stateMutability": "pure",
					"type": "function"
				},
				{
					"inputs": [
						{
							"internalType": "address",
							"name": "_pythia",
							"type": "address"
						}
					],
					"name": "isPythia",
					"outputs": [
						{
							"internalType": "bool",
							"name": "",
							"type": "bool"
						}
					],
					"stateMutability": "view",
					"type": "function"
				},
				{
					"inputs": [
						{
							"internalType": "string",
							"name": "_ticker",
							"type": "string"
						}
					],
					"name": "price",
					"outputs": [
						{
							"internalType": "uint256",
							"name": "",
							"type": "uint256"
						}
					],
					"stateMutability": "view",
					"type": "function"
				},
				{
					"inputs": [
						{
							"internalType": "string",
							"name": "_ticker",
							"type": "string"
						}
					],
					"name": "setEGCUSDTicker",
					"outputs": [],
					"stateMutability": "nonpayable",
					"type": "function"
				},
				{
					"inputs": [
						{
							"internalType": "address",
							"name": "_pythia",
							"type": "address"
						}
					],
					"name": "setPythia",
					"outputs": [],
					"stateMutability": "nonpayable",
					"type": "function"
				},
				{
					"inputs": [
						{
							"internalType": "address",
							"name": "_pythia",
							"type": "address"
						}
					],
					"name": "suspendPythia",
					"outputs": [],
					"stateMutability": "nonpayable",
					"type": "function"
				},
				{
					"inputs": [
						{
							"internalType": "uint256[]",
							"name": "_prices",
							"type": "uint256[]"
						},
						{
							"internalType": "string[]",
							"name": "_tickers",
							"type": "string[]"
						}
					],
					"name": "updateTickerPrices",
					"outputs": [],
					"stateMutability": "nonpayable",
					"type": "function"
				}
			],
			"devdoc": {
				"kind": "dev",
				"methods": {},
				"version": 1
			},
			"evm": {
				"assembly": "    /* \"smart contract/SwapCryptoLoanUpdate/contracts/facets/PriceOracleFacet.sol\":165:2752  contract PriceOracleFacet {... */\n  mstore(0x40, 0x80)\n  callvalue\n  dup1\n  iszero\n  tag_1\n  jumpi\n  0x00\n  dup1\n  revert\ntag_1:\n  pop\n  dataSize(sub_0)\n  dup1\n  dataOffset(sub_0)\n  0x00\n  codecopy\n  0x00\n  return\nstop\n\nsub_0: assembly {\n        /* \"smart contract/SwapCryptoLoanUpdate/contracts/facets/PriceOracleFacet.sol\":165:2752  contract PriceOracleFacet {... */\n      mstore(0x40, 0x80)\n      callvalue\n      dup1\n      iszero\n      tag_1\n      jumpi\n      0x00\n      dup1\n      revert\n    tag_1:\n      pop\n      jumpi(tag_2, lt(calldatasize, 0x04))\n      shr(0xe0, calldataload(0x00))\n      dup1\n      0x832427da\n      gt\n      tag_10\n      jumpi\n      dup1\n      0x832427da\n      eq\n      tag_6\n      jumpi\n      dup1\n      0x94a72f1c\n      eq\n      tag_7\n      jumpi\n      dup1\n      0xb55bfc6f\n      eq\n      tag_8\n      jumpi\n      dup1\n      0xfe2c6198\n      eq\n      tag_9\n      jumpi\n      jump(tag_2)\n    tag_10:\n      dup1\n      0x5c60896d\n      eq\n      tag_3\n      jumpi\n      dup1\n      0x658bdb2e\n      eq\n      tag_4\n      jumpi\n      dup1\n      0x734bc659\n      eq\n      tag_5\n      jumpi\n    tag_2:\n      0x00\n      dup1\n      revert\n        /* \"smart contract/SwapCryptoLoanUpdate/contracts/facets/PriceOracleFacet.sol\":1963:2132  function suspendPythia(address _pythia) external onlyOwner {... */\n    tag_3:\n      tag_11\n      0x04\n      dup1\n      calldatasize\n      sub\n      dup2\n      add\n      swap1\n      tag_12\n      swap2\n      swap1\n      tag_13\n      jump\t// in\n    tag_12:\n      tag_14\n      jump\t// in\n    tag_11:\n      stop\n        /* \"smart contract/SwapCryptoLoanUpdate/contracts/facets/PriceOracleFacet.sol\":1432:1537  function isPythia(address _pythia) external view returns (bool) {... */\n    tag_4:\n      tag_15\n      0x04\n      dup1\n      calldatasize\n      sub\n      dup2\n      add\n      swap1\n      tag_16\n      swap2\n      swap1\n      tag_13\n      jump\t// in\n    tag_16:\n      tag_17\n      jump\t// in\n    tag_15:\n      mload(0x40)\n      tag_18\n      swap2\n      swap1\n      tag_19\n      jump\t// in\n    tag_18:\n      mload(0x40)\n      dup1\n      swap2\n      sub\n      swap1\n      return\n        /* \"smart contract/SwapCryptoLoanUpdate/contracts/facets/PriceOracleFacet.sol\":828:1426  function updateTickerPrices(... */\n    tag_5:\n      tag_20\n      0x04\n      dup1\n      calldatasize\n      sub\n      dup2\n      add\n      swap1\n      tag_21\n      swap2\n      swap1\n      tag_22\n      jump\t// in\n    tag_21:\n      tag_23\n      jump\t// in\n    tag_20:\n      stop\n        /* \"smart contract/SwapCryptoLoanUpdate/contracts/facets/PriceOracleFacet.sol\":1673:1791  function setEGCUSDTicker(string memory _ticker) external onlyOwner {... */\n    tag_6:\n      tag_24\n      0x04\n      dup1\n      calldatasize\n      sub\n      dup2\n      add\n      swap1\n      tag_25\n      swap2\n      swap1\n      tag_26\n      jump\t// in\n    tag_25:\n      tag_27\n      jump\t// in\n    tag_24:\n      stop\n        /* \"smart contract/SwapCryptoLoanUpdate/contracts/facets/PriceOracleFacet.sol\":2138:2276  function converter(... */\n    tag_7:\n      tag_28\n      0x04\n      dup1\n      calldatasize\n      sub\n      dup2\n      add\n      swap1\n      tag_29\n      swap2\n      swap1\n      tag_26\n      jump\t// in\n    tag_29:\n      tag_30\n      jump\t// in\n    tag_28:\n      mload(0x40)\n      tag_31\n      swap2\n      swap1\n      tag_32\n      jump\t// in\n    tag_31:\n      mload(0x40)\n      dup1\n      swap2\n      sub\n      swap1\n      return\n        /* \"smart contract/SwapCryptoLoanUpdate/contracts/facets/PriceOracleFacet.sol\":1797:1957  function setPythia(address _pythia) external onlyOwner {... */\n    tag_8:\n      tag_33\n      0x04\n      dup1\n      calldatasize\n      sub\n      dup2\n      add\n      swap1\n      tag_34\n      swap2\n      swap1\n      tag_13\n      jump\t// in\n    tag_34:\n      tag_35\n      jump\t// in\n    tag_33:\n      stop\n        /* \"smart contract/SwapCryptoLoanUpdate/contracts/facets/PriceOracleFacet.sol\":1543:1667  function price(string memory _ticker) external view returns (uint) {... */\n    tag_9:\n      tag_36\n      0x04\n      dup1\n      calldatasize\n      sub\n      dup2\n      add\n      swap1\n      tag_37\n      swap2\n      swap1\n      tag_26\n      jump\t// in\n    tag_37:\n      tag_38\n      jump\t// in\n    tag_36:\n      mload(0x40)\n      tag_39\n      swap2\n      swap1\n      tag_40\n      jump\t// in\n    tag_39:\n      mload(0x40)\n      dup1\n      swap2\n      sub\n      swap1\n      return\n        /* \"smart contract/SwapCryptoLoanUpdate/contracts/facets/PriceOracleFacet.sol\":1963:2132  function suspendPythia(address _pythia) external onlyOwner {... */\n    tag_14:\n        /* \"smart contract/SwapCryptoLoanUpdate/contracts/facets/PriceOracleFacet.sol\":588:614  LibDiamond.contractOwner() */\n      tag_42\n        /* \"smart contract/SwapCryptoLoanUpdate/contracts/facets/PriceOracleFacet.sol\":588:612  LibDiamond.contractOwner */\n      tag_43\n        /* \"smart contract/SwapCryptoLoanUpdate/contracts/facets/PriceOracleFacet.sol\":588:614  LibDiamond.contractOwner() */\n      jump\t// in\n    tag_42:\n        /* \"smart contract/SwapCryptoLoanUpdate/contracts/facets/PriceOracleFacet.sol\":574:614  msg.sender == LibDiamond.contractOwner() */\n      0xffffffffffffffffffffffffffffffffffffffff\n      and\n        /* \"smart contract/SwapCryptoLoanUpdate/contracts/facets/PriceOracleFacet.sol\":574:584  msg.sender */\n      caller\n        /* \"smart contract/SwapCryptoLoanUpdate/contracts/facets/PriceOracleFacet.sol\":574:614  msg.sender == LibDiamond.contractOwner() */\n      0xffffffffffffffffffffffffffffffffffffffff\n      and\n      eq\n        /* \"smart contract/SwapCryptoLoanUpdate/contracts/facets/PriceOracleFacet.sol\":553:677  require(... */\n      tag_44\n      jumpi\n      mload(0x40)\n      0x08c379a000000000000000000000000000000000000000000000000000000000\n      dup2\n      mstore\n      0x04\n      add\n      tag_45\n      swap1\n      tag_46\n      jump\t// in\n    tag_45:\n      mload(0x40)\n      dup1\n      swap2\n      sub\n      swap1\n      revert\n    tag_44:\n        /* \"smart contract/SwapCryptoLoanUpdate/contracts/facets/PriceOracleFacet.sol\":2052:2057  false */\n      0x00\n        /* \"smart contract/SwapCryptoLoanUpdate/contracts/facets/PriceOracleFacet.sol\":2032:2033  s */\n      dup1\n        /* \"smart contract/SwapCryptoLoanUpdate/contracts/facets/PriceOracleFacet.sol\":2032:2040  s.pythia */\n      0x01\n      add\n        /* \"smart contract/SwapCryptoLoanUpdate/contracts/facets/PriceOracleFacet.sol\":2032:2049  s.pythia[_pythia] */\n      0x00\n        /* \"smart contract/SwapCryptoLoanUpdate/contracts/facets/PriceOracleFacet.sol\":2041:2048  _pythia */\n      dup4\n        /* \"smart contract/SwapCryptoLoanUpdate/contracts/facets/PriceOracleFacet.sol\":2032:2049  s.pythia[_pythia] */\n      0xffffffffffffffffffffffffffffffffffffffff\n      and\n      0xffffffffffffffffffffffffffffffffffffffff\n      and\n      dup2\n      mstore\n      0x20\n      add\n      swap1\n      dup2\n      mstore\n      0x20\n      add\n      0x00\n      keccak256\n      0x00\n        /* \"smart contract/SwapCryptoLoanUpdate/contracts/facets/PriceOracleFacet.sol\":2032:2057  s.pythia[_pythia] = false */\n      0x0100\n      exp\n      dup2\n      sload\n      dup2\n      0xff\n      mul\n      not\n      and\n      swap1\n      dup4\n      iszero\n      iszero\n      mul\n      or\n      swap1\n      sstore\n      pop\n        /* \"smart contract/SwapCryptoLoanUpdate/contracts/facets/PriceOracleFacet.sol\":2072:2125  PythiaSuspended(_pythia, msg.sender, block.timestamp) */\n      0xb3d5aa2917b85a4687df1a925388b77def36a6b799246cdd492b4fd402c6be7b\n        /* \"smart contract/SwapCryptoLoanUpdate/contracts/facets/PriceOracleFacet.sol\":2088:2095  _pythia */\n      dup2\n        /* \"smart contract/SwapCryptoLoanUpdate/contracts/facets/PriceOracleFacet.sol\":2097:2107  msg.sender */\n      caller\n        /* \"smart contract/SwapCryptoLoanUpdate/contracts/facets/PriceOracleFacet.sol\":2109:2124  block.timestamp */\n      timestamp\n        /* \"smart contract/SwapCryptoLoanUpdate/contracts/facets/PriceOracleFacet.sol\":2072:2125  PythiaSuspended(_pythia, msg.sender, block.timestamp) */\n      mload(0x40)\n      tag_48\n      swap4\n      swap3\n      swap2\n      swap1\n      tag_49\n      jump\t// in\n    tag_48:\n      mload(0x40)\n      dup1\n      swap2\n      sub\n      swap1\n      log1\n        /* \"smart contract/SwapCryptoLoanUpdate/contracts/facets/PriceOracleFacet.sol\":1963:2132  function suspendPythia(address _pythia) external onlyOwner {... */\n      pop\n      jump\t// out\n        /* \"smart contract/SwapCryptoLoanUpdate/contracts/facets/PriceOracleFacet.sol\":1432:1537  function isPythia(address _pythia) external view returns (bool) {... */\n    tag_17:\n        /* \"smart contract/SwapCryptoLoanUpdate/contracts/facets/PriceOracleFacet.sol\":1490:1494  bool */\n      0x00\n        /* \"smart contract/SwapCryptoLoanUpdate/contracts/facets/PriceOracleFacet.sol\":1513:1514  s */\n      dup1\n        /* \"smart contract/SwapCryptoLoanUpdate/contracts/facets/PriceOracleFacet.sol\":1513:1521  s.pythia */\n      0x01\n      add\n        /* \"smart contract/SwapCryptoLoanUpdate/contracts/facets/PriceOracleFacet.sol\":1513:1530  s.pythia[_pythia] */\n      0x00\n        /* \"smart contract/SwapCryptoLoanUpdate/contracts/facets/PriceOracleFacet.sol\":1522:1529  _pythia */\n      dup4\n        /* \"smart contract/SwapCryptoLoanUpdate/contracts/facets/PriceOracleFacet.sol\":1513:1530  s.pythia[_pythia] */\n      0xffffffffffffffffffffffffffffffffffffffff\n      and\n      0xffffffffffffffffffffffffffffffffffffffff\n      and\n      dup2\n      mstore\n      0x20\n      add\n      swap1\n      dup2\n      mstore\n      0x20\n      add\n      0x00\n      keccak256\n      0x00\n      swap1\n      sload\n      swap1\n      0x0100\n      exp\n      swap1\n      div\n      0xff\n      and\n        /* \"smart contract/SwapCryptoLoanUpdate/contracts/facets/PriceOracleFacet.sol\":1506:1530  return s.pythia[_pythia] */\n      swap1\n      pop\n        /* \"smart contract/SwapCryptoLoanUpdate/contracts/facets/PriceOracleFacet.sol\":1432:1537  function isPythia(address _pythia) external view returns (bool) {... */\n      swap2\n      swap1\n      pop\n      jump\t// out\n        /* \"smart contract/SwapCryptoLoanUpdate/contracts/facets/PriceOracleFacet.sol\":828:1426  function updateTickerPrices(... */\n    tag_23:\n        /* \"smart contract/SwapCryptoLoanUpdate/contracts/facets/PriceOracleFacet.sol\":741:742  s */\n      0x00\n        /* \"smart contract/SwapCryptoLoanUpdate/contracts/facets/PriceOracleFacet.sol\":741:749  s.pythia */\n      0x01\n      add\n        /* \"smart contract/SwapCryptoLoanUpdate/contracts/facets/PriceOracleFacet.sol\":741:761  s.pythia[msg.sender] */\n      0x00\n        /* \"smart contract/SwapCryptoLoanUpdate/contracts/facets/PriceOracleFacet.sol\":750:760  msg.sender */\n      caller\n        /* \"smart contract/SwapCryptoLoanUpdate/contracts/facets/PriceOracleFacet.sol\":741:761  s.pythia[msg.sender] */\n      0xffffffffffffffffffffffffffffffffffffffff\n      and\n      0xffffffffffffffffffffffffffffffffffffffff\n      and\n      dup2\n      mstore\n      0x20\n      add\n      swap1\n      dup2\n      mstore\n      0x20\n      add\n      0x00\n      keccak256\n      0x00\n      swap1\n      sload\n      swap1\n      0x0100\n      exp\n      swap1\n      div\n      0xff\n      and\n        /* \"smart contract/SwapCryptoLoanUpdate/contracts/facets/PriceOracleFacet.sol\":733:804  require(s.pythia[msg.sender], \"Access denied. Only Pythia is allowed!\") */\n      tag_52\n      jumpi\n      mload(0x40)\n      0x08c379a000000000000000000000000000000000000000000000000000000000\n      dup2\n      mstore\n      0x04\n      add\n      tag_53\n      swap1\n      tag_54\n      jump\t// in\n    tag_53:\n      mload(0x40)\n      dup1\n      swap2\n      sub\n      swap1\n      revert\n    tag_52:\n        /* \"smart contract/SwapCryptoLoanUpdate/contracts/facets/PriceOracleFacet.sol\":1003:1011  _tickers */\n      dup2\n      dup2\n        /* \"smart contract/SwapCryptoLoanUpdate/contracts/facets/PriceOracleFacet.sol\":1003:1018  _tickers.length */\n      swap1\n      pop\n        /* \"smart contract/SwapCryptoLoanUpdate/contracts/facets/PriceOracleFacet.sol\":985:992  _prices */\n      dup5\n      dup5\n        /* \"smart contract/SwapCryptoLoanUpdate/contracts/facets/PriceOracleFacet.sol\":985:999  _prices.length */\n      swap1\n      pop\n        /* \"smart contract/SwapCryptoLoanUpdate/contracts/facets/PriceOracleFacet.sol\":985:1018  _prices.length == _tickers.length */\n      eq\n        /* \"smart contract/SwapCryptoLoanUpdate/contracts/facets/PriceOracleFacet.sol\":964:1086  require(... */\n      tag_56\n      jumpi\n      mload(0x40)\n      0x08c379a000000000000000000000000000000000000000000000000000000000\n      dup2\n      mstore\n      0x04\n      add\n      tag_57\n      swap1\n      tag_58\n      jump\t// in\n    tag_57:\n      mload(0x40)\n      dup1\n      swap2\n      sub\n      swap1\n      revert\n    tag_56:\n        /* \"smart contract/SwapCryptoLoanUpdate/contracts/facets/PriceOracleFacet.sol\":1101:1110  uint256 i */\n      0x00\n        /* \"smart contract/SwapCryptoLoanUpdate/contracts/facets/PriceOracleFacet.sol\":1096:1375  for (uint256 i; i < _prices.length; i++) {... */\n    tag_59:\n        /* \"smart contract/SwapCryptoLoanUpdate/contracts/facets/PriceOracleFacet.sol\":1116:1123  _prices */\n      dup5\n      dup5\n        /* \"smart contract/SwapCryptoLoanUpdate/contracts/facets/PriceOracleFacet.sol\":1116:1130  _prices.length */\n      swap1\n      pop\n        /* \"smart contract/SwapCryptoLoanUpdate/contracts/facets/PriceOracleFacet.sol\":1112:1113  i */\n      dup2\n        /* \"smart contract/SwapCryptoLoanUpdate/contracts/facets/PriceOracleFacet.sol\":1112:1130  i < _prices.length */\n      lt\n        /* \"smart contract/SwapCryptoLoanUpdate/contracts/facets/PriceOracleFacet.sol\":1096:1375  for (uint256 i; i < _prices.length; i++) {... */\n      iszero\n      tag_60\n      jumpi\n        /* \"smart contract/SwapCryptoLoanUpdate/contracts/facets/PriceOracleFacet.sol\":1191:1198  _prices */\n      dup5\n      dup5\n        /* \"smart contract/SwapCryptoLoanUpdate/contracts/facets/PriceOracleFacet.sol\":1199:1200  i */\n      dup3\n        /* \"smart contract/SwapCryptoLoanUpdate/contracts/facets/PriceOracleFacet.sol\":1191:1201  _prices[i] */\n      dup2\n      dup2\n      lt\n      tag_62\n      jumpi\n      tag_63\n      tag_64\n      jump\t// in\n    tag_63:\n    tag_62:\n      swap1\n      pop\n      0x20\n      mul\n      add\n      calldataload\n        /* \"smart contract/SwapCryptoLoanUpdate/contracts/facets/PriceOracleFacet.sol\":1151:1152  s */\n      0x00\n        /* \"smart contract/SwapCryptoLoanUpdate/contracts/facets/PriceOracleFacet.sol\":1151:1159  s.ticker */\n      dup1\n      add\n        /* \"smart contract/SwapCryptoLoanUpdate/contracts/facets/PriceOracleFacet.sol\":1160:1164  this */\n      address\n        /* \"smart contract/SwapCryptoLoanUpdate/contracts/facets/PriceOracleFacet.sol\":1160:1174  this.converter */\n      0xffffffffffffffffffffffffffffffffffffffff\n      and\n      0x94a72f1c\n        /* \"smart contract/SwapCryptoLoanUpdate/contracts/facets/PriceOracleFacet.sol\":1175:1183  _tickers */\n      dup7\n      dup7\n        /* \"smart contract/SwapCryptoLoanUpdate/contracts/facets/PriceOracleFacet.sol\":1184:1185  i */\n      dup7\n        /* \"smart contract/SwapCryptoLoanUpdate/contracts/facets/PriceOracleFacet.sol\":1175:1186  _tickers[i] */\n      dup2\n      dup2\n      lt\n      tag_65\n      jumpi\n      tag_66\n      tag_64\n      jump\t// in\n    tag_66:\n    tag_65:\n      swap1\n      pop\n      0x20\n      mul\n      dup2\n      add\n      swap1\n      tag_67\n      swap2\n      swap1\n      tag_68\n      jump\t// in\n    tag_67:\n        /* \"smart contract/SwapCryptoLoanUpdate/contracts/facets/PriceOracleFacet.sol\":1160:1187  this.converter(_tickers[i]) */\n      mload(0x40)\n      dup4\n      0xffffffff\n      and\n      0xe0\n      shl\n      dup2\n      mstore\n      0x04\n      add\n      tag_69\n      swap3\n      swap2\n      swap1\n      tag_70\n      jump\t// in\n    tag_69:\n      0x00\n      mload(0x40)\n      dup1\n      dup4\n      sub\n      dup2\n      dup7\n      gas\n      staticcall\n      iszero\n      dup1\n      iszero\n      tag_72\n      jumpi\n      returndatasize\n      0x00\n      dup1\n      returndatacopy\n      revert(0x00, returndatasize)\n    tag_72:\n      pop\n      pop\n      pop\n      pop\n      mload(0x40)\n      returndatasize\n      0x00\n      dup3\n      returndatacopy\n      returndatasize\n      not(0x1f)\n      0x1f\n      dup3\n      add\n      and\n      dup3\n      add\n      dup1\n      0x40\n      mstore\n      pop\n      dup2\n      add\n      swap1\n      tag_73\n      swap2\n      swap1\n      tag_74\n      jump\t// in\n    tag_73:\n        /* \"smart contract/SwapCryptoLoanUpdate/contracts/facets/PriceOracleFacet.sol\":1151:1188  s.ticker[this.converter(_tickers[i])] */\n      mload(0x40)\n      tag_75\n      swap2\n      swap1\n      tag_76\n      jump\t// in\n    tag_75:\n      swap1\n      dup2\n      mstore\n      0x20\n      add\n      mload(0x40)\n      dup1\n      swap2\n      sub\n      swap1\n      keccak256\n        /* \"smart contract/SwapCryptoLoanUpdate/contracts/facets/PriceOracleFacet.sol\":1151:1201  s.ticker[this.converter(_tickers[i])] = _prices[i] */\n      dup2\n      swap1\n      sstore\n      pop\n        /* \"smart contract/SwapCryptoLoanUpdate/contracts/facets/PriceOracleFacet.sol\":1220:1364  PriceUpdated(... */\n      0x89186bbd353809bcc0aa77843d6ea72e488b7fd552bfe5afb4006dc6cd6fe6a3\n        /* \"smart contract/SwapCryptoLoanUpdate/contracts/facets/PriceOracleFacet.sol\":1250:1258  _tickers */\n      dup4\n      dup4\n        /* \"smart contract/SwapCryptoLoanUpdate/contracts/facets/PriceOracleFacet.sol\":1259:1260  i */\n      dup4\n        /* \"smart contract/SwapCryptoLoanUpdate/contracts/facets/PriceOracleFacet.sol\":1250:1261  _tickers[i] */\n      dup2\n      dup2\n      lt\n      tag_77\n      jumpi\n      tag_78\n      tag_64\n      jump\t// in\n    tag_78:\n    tag_77:\n      swap1\n      pop\n      0x20\n      mul\n      dup2\n      add\n      swap1\n      tag_79\n      swap2\n      swap1\n      tag_68\n      jump\t// in\n    tag_79:\n        /* \"smart contract/SwapCryptoLoanUpdate/contracts/facets/PriceOracleFacet.sol\":1279:1286  _prices */\n      dup8\n      dup8\n        /* \"smart contract/SwapCryptoLoanUpdate/contracts/facets/PriceOracleFacet.sol\":1287:1288  i */\n      dup6\n        /* \"smart contract/SwapCryptoLoanUpdate/contracts/facets/PriceOracleFacet.sol\":1279:1289  _prices[i] */\n      dup2\n      dup2\n      lt\n      tag_80\n      jumpi\n      tag_81\n      tag_64\n      jump\t// in\n    tag_81:\n    tag_80:\n      swap1\n      pop\n      0x20\n      mul\n      add\n      calldataload\n        /* \"smart contract/SwapCryptoLoanUpdate/contracts/facets/PriceOracleFacet.sol\":1307:1317  msg.sender */\n      caller\n        /* \"smart contract/SwapCryptoLoanUpdate/contracts/facets/PriceOracleFacet.sol\":1335:1350  block.timestamp */\n      timestamp\n        /* \"smart contract/SwapCryptoLoanUpdate/contracts/facets/PriceOracleFacet.sol\":1220:1364  PriceUpdated(... */\n      mload(0x40)\n      tag_82\n      swap6\n      swap5\n      swap4\n      swap3\n      swap2\n      swap1\n      tag_83\n      jump\t// in\n    tag_82:\n      mload(0x40)\n      dup1\n      swap2\n      sub\n      swap1\n      log1\n        /* \"smart contract/SwapCryptoLoanUpdate/contracts/facets/PriceOracleFacet.sol\":1132:1135  i++ */\n      dup1\n      dup1\n      tag_84\n      swap1\n      tag_85\n      jump\t// in\n    tag_84:\n      swap2\n      pop\n      pop\n        /* \"smart contract/SwapCryptoLoanUpdate/contracts/facets/PriceOracleFacet.sol\":1096:1375  for (uint256 i; i < _prices.length; i++) {... */\n      jump(tag_59)\n    tag_60:\n      pop\n        /* \"smart contract/SwapCryptoLoanUpdate/contracts/facets/PriceOracleFacet.sol\":1389:1419  PrinceChanged(block.timestamp) */\n      0xbad13593cf14db38c871d023e850302b404aef491d5e3f41ab7aebaafab6ecda\n        /* \"smart contract/SwapCryptoLoanUpdate/contracts/facets/PriceOracleFacet.sol\":1403:1418  block.timestamp */\n      timestamp\n        /* \"smart contract/SwapCryptoLoanUpdate/contracts/facets/PriceOracleFacet.sol\":1389:1419  PrinceChanged(block.timestamp) */\n      mload(0x40)\n      tag_86\n      swap2\n      swap1\n      tag_40\n      jump\t// in\n    tag_86:\n      mload(0x40)\n      dup1\n      swap2\n      sub\n      swap1\n      log1\n        /* \"smart contract/SwapCryptoLoanUpdate/contracts/facets/PriceOracleFacet.sol\":828:1426  function updateTickerPrices(... */\n      pop\n      pop\n      pop\n      pop\n      jump\t// out\n        /* \"smart contract/SwapCryptoLoanUpdate/contracts/facets/PriceOracleFacet.sol\":1673:1791  function setEGCUSDTicker(string memory _ticker) external onlyOwner {... */\n    tag_27:\n        /* \"smart contract/SwapCryptoLoanUpdate/contracts/facets/PriceOracleFacet.sol\":588:614  LibDiamond.contractOwner() */\n      tag_88\n        /* \"smart contract/SwapCryptoLoanUpdate/contracts/facets/PriceOracleFacet.sol\":588:612  LibDiamond.contractOwner */\n      tag_43\n        /* \"smart contract/SwapCryptoLoanUpdate/contracts/facets/PriceOracleFacet.sol\":588:614  LibDiamond.contractOwner() */\n      jump\t// in\n    tag_88:\n        /* \"smart contract/SwapCryptoLoanUpdate/contracts/facets/PriceOracleFacet.sol\":574:614  msg.sender == LibDiamond.contractOwner() */\n      0xffffffffffffffffffffffffffffffffffffffff\n      and\n        /* \"smart contract/SwapCryptoLoanUpdate/contracts/facets/PriceOracleFacet.sol\":574:584  msg.sender */\n      caller\n        /* \"smart contract/SwapCryptoLoanUpdate/contracts/facets/PriceOracleFacet.sol\":574:614  msg.sender == LibDiamond.contractOwner() */\n      0xffffffffffffffffffffffffffffffffffffffff\n      and\n      eq\n        /* \"smart contract/SwapCryptoLoanUpdate/contracts/facets/PriceOracleFacet.sol\":553:677  require(... */\n      tag_89\n      jumpi\n      mload(0x40)\n      0x08c379a000000000000000000000000000000000000000000000000000000000\n      dup2\n      mstore\n      0x04\n      add\n      tag_90\n      swap1\n      tag_46\n      jump\t// in\n    tag_90:\n      mload(0x40)\n      dup1\n      swap2\n      sub\n      swap1\n      revert\n    tag_89:\n        /* \"smart contract/SwapCryptoLoanUpdate/contracts/facets/PriceOracleFacet.sol\":1761:1765  this */\n      address\n        /* \"smart contract/SwapCryptoLoanUpdate/contracts/facets/PriceOracleFacet.sol\":1761:1775  this.converter */\n      0xffffffffffffffffffffffffffffffffffffffff\n      and\n      0x94a72f1c\n        /* \"smart contract/SwapCryptoLoanUpdate/contracts/facets/PriceOracleFacet.sol\":1776:1783  _ticker */\n      dup3\n        /* \"smart contract/SwapCryptoLoanUpdate/contracts/facets/PriceOracleFacet.sol\":1761:1784  this.converter(_ticker) */\n      mload(0x40)\n      dup3\n      0xffffffff\n      and\n      0xe0\n      shl\n      dup2\n      mstore\n      0x04\n      add\n      tag_92\n      swap2\n      swap1\n      tag_93\n      jump\t// in\n    tag_92:\n      0x00\n      mload(0x40)\n      dup1\n      dup4\n      sub\n      dup2\n      dup7\n      gas\n      staticcall\n      iszero\n      dup1\n      iszero\n      tag_95\n      jumpi\n      returndatasize\n      0x00\n      dup1\n      returndatacopy\n      revert(0x00, returndatasize)\n    tag_95:\n      pop\n      pop\n      pop\n      pop\n      mload(0x40)\n      returndatasize\n      0x00\n      dup3\n      returndatacopy\n      returndatasize\n      not(0x1f)\n      0x1f\n      dup3\n      add\n      and\n      dup3\n      add\n      dup1\n      0x40\n      mstore\n      pop\n      dup2\n      add\n      swap1\n      tag_96\n      swap2\n      swap1\n      tag_74\n      jump\t// in\n    tag_96:\n        /* \"smart contract/SwapCryptoLoanUpdate/contracts/facets/PriceOracleFacet.sol\":1750:1751  s */\n      0x00\n        /* \"smart contract/SwapCryptoLoanUpdate/contracts/facets/PriceOracleFacet.sol\":1750:1758  s.egcusd */\n      0x06\n      add\n        /* \"smart contract/SwapCryptoLoanUpdate/contracts/facets/PriceOracleFacet.sol\":1750:1784  s.egcusd = this.converter(_ticker) */\n      swap1\n      dup2\n      tag_97\n      swap2\n      swap1\n      tag_98\n      jump\t// in\n    tag_97:\n      pop\n        /* \"smart contract/SwapCryptoLoanUpdate/contracts/facets/PriceOracleFacet.sol\":1673:1791  function setEGCUSDTicker(string memory _ticker) external onlyOwner {... */\n      pop\n      jump\t// out\n        /* \"smart contract/SwapCryptoLoanUpdate/contracts/facets/PriceOracleFacet.sol\":2138:2276  function converter(... */\n    tag_30:\n        /* \"smart contract/SwapCryptoLoanUpdate/contracts/facets/PriceOracleFacet.sol\":2217:2229  bytes memory */\n      0x60\n        /* \"smart contract/SwapCryptoLoanUpdate/contracts/facets/PriceOracleFacet.sol\":2254:2268  upper(_source) */\n      tag_100\n        /* \"smart contract/SwapCryptoLoanUpdate/contracts/facets/PriceOracleFacet.sol\":2260:2267  _source */\n      dup3\n        /* \"smart contract/SwapCryptoLoanUpdate/contracts/facets/PriceOracleFacet.sol\":2254:2259  upper */\n      tag_101\n        /* \"smart contract/SwapCryptoLoanUpdate/contracts/facets/PriceOracleFacet.sol\":2254:2268  upper(_source) */\n      jump\t// in\n    tag_100:\n        /* \"smart contract/SwapCryptoLoanUpdate/contracts/facets/PriceOracleFacet.sol\":2241:2269  return bytes(upper(_source)) */\n      swap1\n      pop\n        /* \"smart contract/SwapCryptoLoanUpdate/contracts/facets/PriceOracleFacet.sol\":2138:2276  function converter(... */\n      swap2\n      swap1\n      pop\n      jump\t// out\n        /* \"smart contract/SwapCryptoLoanUpdate/contracts/facets/PriceOracleFacet.sol\":1797:1957  function setPythia(address _pythia) external onlyOwner {... */\n    tag_35:\n        /* \"smart contract/SwapCryptoLoanUpdate/contracts/facets/PriceOracleFacet.sol\":588:614  LibDiamond.contractOwner() */\n      tag_103\n        /* \"smart contract/SwapCryptoLoanUpdate/contracts/facets/PriceOracleFacet.sol\":588:612  LibDiamond.contractOwner */\n      tag_43\n        /* \"smart contract/SwapCryptoLoanUpdate/contracts/facets/PriceOracleFacet.sol\":588:614  LibDiamond.contractOwner() */\n      jump\t// in\n    tag_103:\n        /* \"smart contract/SwapCryptoLoanUpdate/contracts/facets/PriceOracleFacet.sol\":574:614  msg.sender == LibDiamond.contractOwner() */\n      0xffffffffffffffffffffffffffffffffffffffff\n      and\n        /* \"smart contract/SwapCryptoLoanUpdate/contracts/facets/PriceOracleFacet.sol\":574:584  msg.sender */\n      caller\n        /* \"smart contract/SwapCryptoLoanUpdate/contracts/facets/PriceOracleFacet.sol\":574:614  msg.sender == LibDiamond.contractOwner() */\n      0xffffffffffffffffffffffffffffffffffffffff\n      and\n      eq\n        /* \"smart contract/SwapCryptoLoanUpdate/contracts/facets/PriceOracleFacet.sol\":553:677  require(... */\n      tag_104\n      jumpi\n      mload(0x40)\n      0x08c379a000000000000000000000000000000000000000000000000000000000\n      dup2\n      mstore\n      0x04\n      add\n      tag_105\n      swap1\n      tag_46\n      jump\t// in\n    tag_105:\n      mload(0x40)\n      dup1\n      swap2\n      sub\n      swap1\n      revert\n    tag_104:\n        /* \"smart contract/SwapCryptoLoanUpdate/contracts/facets/PriceOracleFacet.sol\":1882:1886  true */\n      0x01\n        /* \"smart contract/SwapCryptoLoanUpdate/contracts/facets/PriceOracleFacet.sol\":1862:1863  s */\n      0x00\n        /* \"smart contract/SwapCryptoLoanUpdate/contracts/facets/PriceOracleFacet.sol\":1862:1870  s.pythia */\n      0x01\n      add\n        /* \"smart contract/SwapCryptoLoanUpdate/contracts/facets/PriceOracleFacet.sol\":1862:1879  s.pythia[_pythia] */\n      0x00\n        /* \"smart contract/SwapCryptoLoanUpdate/contracts/facets/PriceOracleFacet.sol\":1871:1878  _pythia */\n      dup4\n        /* \"smart contract/SwapCryptoLoanUpdate/contracts/facets/PriceOracleFacet.sol\":1862:1879  s.pythia[_pythia] */\n      0xffffffffffffffffffffffffffffffffffffffff\n      and\n      0xffffffffffffffffffffffffffffffffffffffff\n      and\n      dup2\n      mstore\n      0x20\n      add\n      swap1\n      dup2\n      mstore\n      0x20\n      add\n      0x00\n      keccak256\n      0x00\n        /* \"smart contract/SwapCryptoLoanUpdate/contracts/facets/PriceOracleFacet.sol\":1862:1886  s.pythia[_pythia] = true */\n      0x0100\n      exp\n      dup2\n      sload\n      dup2\n      0xff\n      mul\n      not\n      and\n      swap1\n      dup4\n      iszero\n      iszero\n      mul\n      or\n      swap1\n      sstore\n      pop\n        /* \"smart contract/SwapCryptoLoanUpdate/contracts/facets/PriceOracleFacet.sol\":1901:1950  PythiaAdded(_pythia, msg.sender, block.timestamp) */\n      0x9f47004a8a67ae0ede102ae657402045a03474bf00cf7e14f62cdbdc5af9c547\n        /* \"smart contract/SwapCryptoLoanUpdate/contracts/facets/PriceOracleFacet.sol\":1913:1920  _pythia */\n      dup2\n        /* \"smart contract/SwapCryptoLoanUpdate/contracts/facets/PriceOracleFacet.sol\":1922:1932  msg.sender */\n      caller\n        /* \"smart contract/SwapCryptoLoanUpdate/contracts/facets/PriceOracleFacet.sol\":1934:1949  block.timestamp */\n      timestamp\n        /* \"smart contract/SwapCryptoLoanUpdate/contracts/facets/PriceOracleFacet.sol\":1901:1950  PythiaAdded(_pythia, msg.sender, block.timestamp) */\n      mload(0x40)\n      tag_107\n      swap4\n      swap3\n      swap2\n      swap1\n      tag_49\n      jump\t// in\n    tag_107:\n      mload(0x40)\n      dup1\n      swap2\n      sub\n      swap1\n      log1\n        /* \"smart contract/SwapCryptoLoanUpdate/contracts/facets/PriceOracleFacet.sol\":1797:1957  function setPythia(address _pythia) external onlyOwner {... */\n      pop\n      jump\t// out\n        /* \"smart contract/SwapCryptoLoanUpdate/contracts/facets/PriceOracleFacet.sol\":1543:1667  function price(string memory _ticker) external view returns (uint) {... */\n    tag_38:\n        /* \"smart contract/SwapCryptoLoanUpdate/contracts/facets/PriceOracleFacet.sol\":1604:1608  uint */\n      0x00\n        /* \"smart contract/SwapCryptoLoanUpdate/contracts/facets/PriceOracleFacet.sol\":1627:1628  s */\n      dup1\n        /* \"smart contract/SwapCryptoLoanUpdate/contracts/facets/PriceOracleFacet.sol\":1627:1635  s.ticker */\n      0x00\n      add\n        /* \"smart contract/SwapCryptoLoanUpdate/contracts/facets/PriceOracleFacet.sol\":1636:1640  this */\n      address\n        /* \"smart contract/SwapCryptoLoanUpdate/contracts/facets/PriceOracleFacet.sol\":1636:1650  this.converter */\n      0xffffffffffffffffffffffffffffffffffffffff\n      and\n      0x94a72f1c\n        /* \"smart contract/SwapCryptoLoanUpdate/contracts/facets/PriceOracleFacet.sol\":1651:1658  _ticker */\n      dup5\n        /* \"smart contract/SwapCryptoLoanUpdate/contracts/facets/PriceOracleFacet.sol\":1636:1659  this.converter(_ticker) */\n      mload(0x40)\n      dup3\n      0xffffffff\n      and\n      0xe0\n      shl\n      dup2\n      mstore\n      0x04\n      add\n      tag_109\n      swap2\n      swap1\n      tag_93\n      jump\t// in\n    tag_109:\n      0x00\n      mload(0x40)\n      dup1\n      dup4\n      sub\n      dup2\n      dup7\n      gas\n      staticcall\n      iszero\n      dup1\n      iszero\n      tag_111\n      jumpi\n      returndatasize\n      0x00\n      dup1\n      returndatacopy\n      revert(0x00, returndatasize)\n    tag_111:\n      pop\n      pop\n      pop\n      pop\n      mload(0x40)\n      returndatasize\n      0x00\n      dup3\n      returndatacopy\n      returndatasize\n      not(0x1f)\n      0x1f\n      dup3\n      add\n      and\n      dup3\n      add\n      dup1\n      0x40\n      mstore\n      pop\n      dup2\n      add\n      swap1\n      tag_112\n      swap2\n      swap1\n      tag_74\n      jump\t// in\n    tag_112:\n        /* \"smart contract/SwapCryptoLoanUpdate/contracts/facets/PriceOracleFacet.sol\":1627:1660  s.ticker[this.converter(_ticker)] */\n      mload(0x40)\n      tag_113\n      swap2\n      swap1\n      tag_76\n      jump\t// in\n    tag_113:\n      swap1\n      dup2\n      mstore\n      0x20\n      add\n      mload(0x40)\n      dup1\n      swap2\n      sub\n      swap1\n      keccak256\n      sload\n        /* \"smart contract/SwapCryptoLoanUpdate/contracts/facets/PriceOracleFacet.sol\":1620:1660  return s.ticker[this.converter(_ticker)] */\n      swap1\n      pop\n        /* \"smart contract/SwapCryptoLoanUpdate/contracts/facets/PriceOracleFacet.sol\":1543:1667  function price(string memory _ticker) external view returns (uint) {... */\n      swap2\n      swap1\n      pop\n      jump\t// out\n        /* \"smart contract/SwapCryptoLoanUpdate/contracts/libraries/LibDiamond.sol\":1669:1805  function contractOwner() internal view returns (address contractOwner_) {... */\n    tag_43:\n        /* \"smart contract/SwapCryptoLoanUpdate/contracts/libraries/LibDiamond.sol\":1717:1739  address contractOwner_ */\n      0x00\n        /* \"smart contract/SwapCryptoLoanUpdate/contracts/libraries/LibDiamond.sol\":1768:1784  diamondStorage() */\n      tag_115\n        /* \"smart contract/SwapCryptoLoanUpdate/contracts/libraries/LibDiamond.sol\":1768:1782  diamondStorage */\n      tag_116\n        /* \"smart contract/SwapCryptoLoanUpdate/contracts/libraries/LibDiamond.sol\":1768:1784  diamondStorage() */\n      jump\t// in\n    tag_115:\n        /* \"smart contract/SwapCryptoLoanUpdate/contracts/libraries/LibDiamond.sol\":1768:1798  diamondStorage().contractOwner */\n      0x03\n      add\n      0x00\n      swap1\n      sload\n      swap1\n      0x0100\n      exp\n      swap1\n      div\n      0xffffffffffffffffffffffffffffffffffffffff\n      and\n        /* \"smart contract/SwapCryptoLoanUpdate/contracts/libraries/LibDiamond.sol\":1751:1798  contractOwner_ = diamondStorage().contractOwner */\n      swap1\n      pop\n        /* \"smart contract/SwapCryptoLoanUpdate/contracts/libraries/LibDiamond.sol\":1669:1805  function contractOwner() internal view returns (address contractOwner_) {... */\n      swap1\n      jump\t// out\n        /* \"smart contract/SwapCryptoLoanUpdate/contracts/facets/PriceOracleFacet.sol\":2282:2562  function upper(string memory _base) internal pure returns (string memory) {... */\n    tag_101:\n        /* \"smart contract/SwapCryptoLoanUpdate/contracts/facets/PriceOracleFacet.sol\":2341:2354  string memory */\n      0x60\n        /* \"smart contract/SwapCryptoLoanUpdate/contracts/facets/PriceOracleFacet.sol\":2366:2389  bytes memory _baseBytes */\n      0x00\n        /* \"smart contract/SwapCryptoLoanUpdate/contracts/facets/PriceOracleFacet.sol\":2398:2403  _base */\n      dup3\n        /* \"smart contract/SwapCryptoLoanUpdate/contracts/facets/PriceOracleFacet.sol\":2366:2404  bytes memory _baseBytes = bytes(_base) */\n      swap1\n      pop\n        /* \"smart contract/SwapCryptoLoanUpdate/contracts/facets/PriceOracleFacet.sol\":2419:2425  uint i */\n      0x00\n        /* \"smart contract/SwapCryptoLoanUpdate/contracts/facets/PriceOracleFacet.sol\":2414:2521  for (uint i = 0; i < _baseBytes.length; i++) {... */\n    tag_118:\n        /* \"smart contract/SwapCryptoLoanUpdate/contracts/facets/PriceOracleFacet.sol\":2435:2445  _baseBytes */\n      dup2\n        /* \"smart contract/SwapCryptoLoanUpdate/contracts/facets/PriceOracleFacet.sol\":2435:2452  _baseBytes.length */\n      mload\n        /* \"smart contract/SwapCryptoLoanUpdate/contracts/facets/PriceOracleFacet.sol\":2431:2432  i */\n      dup2\n        /* \"smart contract/SwapCryptoLoanUpdate/contracts/facets/PriceOracleFacet.sol\":2431:2452  i < _baseBytes.length */\n      lt\n        /* \"smart contract/SwapCryptoLoanUpdate/contracts/facets/PriceOracleFacet.sol\":2414:2521  for (uint i = 0; i < _baseBytes.length; i++) {... */\n      iszero\n      tag_119\n      jumpi\n        /* \"smart contract/SwapCryptoLoanUpdate/contracts/facets/PriceOracleFacet.sol\":2489:2510  _upper(_baseBytes[i]) */\n      tag_121\n        /* \"smart contract/SwapCryptoLoanUpdate/contracts/facets/PriceOracleFacet.sol\":2496:2506  _baseBytes */\n      dup3\n        /* \"smart contract/SwapCryptoLoanUpdate/contracts/facets/PriceOracleFacet.sol\":2507:2508  i */\n      dup3\n        /* \"smart contract/SwapCryptoLoanUpdate/contracts/facets/PriceOracleFacet.sol\":2496:2509  _baseBytes[i] */\n      dup2\n      mload\n      dup2\n      lt\n      tag_122\n      jumpi\n      tag_123\n      tag_64\n      jump\t// in\n    tag_123:\n    tag_122:\n      0x20\n      add\n      add\n      mload\n      0xf8\n      shr\n      0xf8\n      shl\n        /* \"smart contract/SwapCryptoLoanUpdate/contracts/facets/PriceOracleFacet.sol\":2489:2495  _upper */\n      tag_124\n        /* \"smart contract/SwapCryptoLoanUpdate/contracts/facets/PriceOracleFacet.sol\":2489:2510  _upper(_baseBytes[i]) */\n      jump\t// in\n    tag_121:\n        /* \"smart contract/SwapCryptoLoanUpdate/contracts/facets/PriceOracleFacet.sol\":2473:2483  _baseBytes */\n      dup3\n        /* \"smart contract/SwapCryptoLoanUpdate/contracts/facets/PriceOracleFacet.sol\":2484:2485  i */\n      dup3\n        /* \"smart contract/SwapCryptoLoanUpdate/contracts/facets/PriceOracleFacet.sol\":2473:2486  _baseBytes[i] */\n      dup2\n      mload\n      dup2\n      lt\n      tag_125\n      jumpi\n      tag_126\n      tag_64\n      jump\t// in\n    tag_126:\n    tag_125:\n      0x20\n      add\n      add\n        /* \"smart contract/SwapCryptoLoanUpdate/contracts/facets/PriceOracleFacet.sol\":2473:2510  _baseBytes[i] = _upper(_baseBytes[i]) */\n      swap1\n      not(0xffffffffffffffffffffffffffffffffffffffffffffffffffffffffffffff)\n      and\n      swap1\n      dup2\n      0x00\n      byte\n      swap1\n      mstore8\n      pop\n        /* \"smart contract/SwapCryptoLoanUpdate/contracts/facets/PriceOracleFacet.sol\":2454:2457  i++ */\n      dup1\n      dup1\n      tag_127\n      swap1\n      tag_85\n      jump\t// in\n    tag_127:\n      swap2\n      pop\n      pop\n        /* \"smart contract/SwapCryptoLoanUpdate/contracts/facets/PriceOracleFacet.sol\":2414:2521  for (uint i = 0; i < _baseBytes.length; i++) {... */\n      jump(tag_118)\n    tag_119:\n      pop\n        /* \"smart contract/SwapCryptoLoanUpdate/contracts/facets/PriceOracleFacet.sol\":2544:2554  _baseBytes */\n      dup1\n        /* \"smart contract/SwapCryptoLoanUpdate/contracts/facets/PriceOracleFacet.sol\":2530:2555  return string(_baseBytes) */\n      swap2\n      pop\n      pop\n        /* \"smart contract/SwapCryptoLoanUpdate/contracts/facets/PriceOracleFacet.sol\":2282:2562  function upper(string memory _base) internal pure returns (string memory) {... */\n      swap2\n      swap1\n      pop\n      jump\t// out\n        /* \"smart contract/SwapCryptoLoanUpdate/contracts/libraries/LibDiamond.sol\":1056:1281  function diamondStorage()... */\n    tag_116:\n        /* \"smart contract/SwapCryptoLoanUpdate/contracts/libraries/LibDiamond.sol\":1129:1154  DiamondStorage storage ds */\n      0x00\n        /* \"smart contract/SwapCryptoLoanUpdate/contracts/libraries/LibDiamond.sol\":1170:1186  bytes32 position */\n      dup1\n        /* \"smart contract/SwapCryptoLoanUpdate/contracts/libraries/LibDiamond.sol\":530:575  keccak256(\"diamond.standard.diamond.storage\") */\n      0xc8fcad8db84d3cc18b4c41d551ea0ee66dd599cde068d998e57d5e09332c131c\n        /* \"smart contract/SwapCryptoLoanUpdate/contracts/libraries/LibDiamond.sol\":1170:1213  bytes32 position = DIAMOND_STORAGE_POSITION */\n      swap1\n      pop\n        /* \"smart contract/SwapCryptoLoanUpdate/contracts/libraries/LibDiamond.sol\":1257:1265  position */\n      dup1\n        /* \"smart contract/SwapCryptoLoanUpdate/contracts/libraries/LibDiamond.sol\":1246:1265  ds.slot := position */\n      swap2\n      pop\n        /* \"smart contract/SwapCryptoLoanUpdate/contracts/libraries/LibDiamond.sol\":1232:1275  {... */\n      pop\n        /* \"smart contract/SwapCryptoLoanUpdate/contracts/libraries/LibDiamond.sol\":1056:1281  function diamondStorage()... */\n      swap1\n      jump\t// out\n        /* \"smart contract/SwapCryptoLoanUpdate/contracts/facets/PriceOracleFacet.sol\":2568:2750  function _upper(bytes1 _b1) private pure returns (bytes1) {... */\n    tag_124:\n        /* \"smart contract/SwapCryptoLoanUpdate/contracts/facets/PriceOracleFacet.sol\":2618:2624  bytes1 */\n      0x00\n        /* \"smart contract/SwapCryptoLoanUpdate/contracts/facets/PriceOracleFacet.sol\":2647:2651  0x61 */\n      0x61\n        /* \"smart contract/SwapCryptoLoanUpdate/contracts/facets/PriceOracleFacet.sol\":2640:2651  _b1 >= 0x61 */\n      0xf8\n      shl\n        /* \"smart contract/SwapCryptoLoanUpdate/contracts/facets/PriceOracleFacet.sol\":2640:2643  _b1 */\n      dup3\n        /* \"smart contract/SwapCryptoLoanUpdate/contracts/facets/PriceOracleFacet.sol\":2640:2651  _b1 >= 0x61 */\n      not(0xffffffffffffffffffffffffffffffffffffffffffffffffffffffffffffff)\n      and\n      lt\n      iszero\n        /* \"smart contract/SwapCryptoLoanUpdate/contracts/facets/PriceOracleFacet.sol\":2640:2666  _b1 >= 0x61 && _b1 <= 0x7A */\n      dup1\n      iszero\n      tag_130\n      jumpi\n      pop\n        /* \"smart contract/SwapCryptoLoanUpdate/contracts/facets/PriceOracleFacet.sol\":2662:2666  0x7A */\n      0x7a\n        /* \"smart contract/SwapCryptoLoanUpdate/contracts/facets/PriceOracleFacet.sol\":2655:2666  _b1 <= 0x7A */\n      0xf8\n      shl\n        /* \"smart contract/SwapCryptoLoanUpdate/contracts/facets/PriceOracleFacet.sol\":2655:2658  _b1 */\n      dup3\n        /* \"smart contract/SwapCryptoLoanUpdate/contracts/facets/PriceOracleFacet.sol\":2655:2666  _b1 <= 0x7A */\n      not(0xffffffffffffffffffffffffffffffffffffffffffffffffffffffffffffff)\n      and\n      gt\n      iszero\n        /* \"smart contract/SwapCryptoLoanUpdate/contracts/facets/PriceOracleFacet.sol\":2640:2666  _b1 >= 0x61 && _b1 <= 0x7A */\n    tag_130:\n        /* \"smart contract/SwapCryptoLoanUpdate/contracts/facets/PriceOracleFacet.sol\":2636:2723  if (_b1 >= 0x61 && _b1 <= 0x7A) {... */\n      iszero\n      tag_131\n      jumpi\n        /* \"smart contract/SwapCryptoLoanUpdate/contracts/facets/PriceOracleFacet.sol\":2709:2711  32 */\n      0x20\n        /* \"smart contract/SwapCryptoLoanUpdate/contracts/facets/PriceOracleFacet.sol\":2702:2705  _b1 */\n      dup3\n        /* \"smart contract/SwapCryptoLoanUpdate/contracts/facets/PriceOracleFacet.sol\":2696:2706  uint8(_b1) */\n      0xf8\n      shr\n        /* \"smart contract/SwapCryptoLoanUpdate/contracts/facets/PriceOracleFacet.sol\":2696:2711  uint8(_b1) - 32 */\n      tag_132\n      swap2\n      swap1\n      tag_133\n      jump\t// in\n    tag_132:\n        /* \"smart contract/SwapCryptoLoanUpdate/contracts/facets/PriceOracleFacet.sol\":2689:2712  bytes1(uint8(_b1) - 32) */\n      0xf8\n      shl\n        /* \"smart contract/SwapCryptoLoanUpdate/contracts/facets/PriceOracleFacet.sol\":2682:2712  return bytes1(uint8(_b1) - 32) */\n      swap1\n      pop\n      jump(tag_129)\n        /* \"smart contract/SwapCryptoLoanUpdate/contracts/facets/PriceOracleFacet.sol\":2636:2723  if (_b1 >= 0x61 && _b1 <= 0x7A) {... */\n    tag_131:\n        /* \"smart contract/SwapCryptoLoanUpdate/contracts/facets/PriceOracleFacet.sol\":2740:2743  _b1 */\n      dup2\n        /* \"smart contract/SwapCryptoLoanUpdate/contracts/facets/PriceOracleFacet.sol\":2733:2743  return _b1 */\n      swap1\n      pop\n        /* \"smart contract/SwapCryptoLoanUpdate/contracts/facets/PriceOracleFacet.sol\":2568:2750  function _upper(bytes1 _b1) private pure returns (bytes1) {... */\n    tag_129:\n      swap2\n      swap1\n      pop\n      jump\t// out\n        /* \"#utility.yul\":7:82   */\n    tag_134:\n        /* \"#utility.yul\":40:46   */\n      0x00\n        /* \"#utility.yul\":73:75   */\n      0x40\n        /* \"#utility.yul\":67:76   */\n      mload\n        /* \"#utility.yul\":57:76   */\n      swap1\n      pop\n        /* \"#utility.yul\":7:82   */\n      swap1\n      jump\t// out\n        /* \"#utility.yul\":88:205   */\n    tag_135:\n        /* \"#utility.yul\":197:198   */\n      0x00\n        /* \"#utility.yul\":194:195   */\n      dup1\n        /* \"#utility.yul\":187:199   */\n      revert\n        /* \"#utility.yul\":211:328   */\n    tag_136:\n        /* \"#utility.yul\":320:321   */\n      0x00\n        /* \"#utility.yul\":317:318   */\n      dup1\n        /* \"#utility.yul\":310:322   */\n      revert\n        /* \"#utility.yul\":334:460   */\n    tag_137:\n        /* \"#utility.yul\":371:378   */\n      0x00\n        /* \"#utility.yul\":411:453   */\n      0xffffffffffffffffffffffffffffffffffffffff\n        /* \"#utility.yul\":404:409   */\n      dup3\n        /* \"#utility.yul\":400:454   */\n      and\n        /* \"#utility.yul\":389:454   */\n      swap1\n      pop\n        /* \"#utility.yul\":334:460   */\n      swap2\n      swap1\n      pop\n      jump\t// out\n        /* \"#utility.yul\":466:562   */\n    tag_138:\n        /* \"#utility.yul\":503:510   */\n      0x00\n        /* \"#utility.yul\":532:556   */\n      tag_207\n        /* \"#utility.yul\":550:555   */\n      dup3\n        /* \"#utility.yul\":532:556   */\n      tag_137\n      jump\t// in\n    tag_207:\n        /* \"#utility.yul\":521:556   */\n      swap1\n      pop\n        /* \"#utility.yul\":466:562   */\n      swap2\n      swap1\n      pop\n      jump\t// out\n        /* \"#utility.yul\":568:690   */\n    tag_139:\n        /* \"#utility.yul\":641:665   */\n      tag_209\n        /* \"#utility.yul\":659:664   */\n      dup2\n        /* \"#utility.yul\":641:665   */\n      tag_138\n      jump\t// in\n    tag_209:\n        /* \"#utility.yul\":634:639   */\n      dup2\n        /* \"#utility.yul\":631:666   */\n      eq\n        /* \"#utility.yul\":621:684   */\n      tag_210\n      jumpi\n        /* \"#utility.yul\":680:681   */\n      0x00\n        /* \"#utility.yul\":677:678   */\n      dup1\n        /* \"#utility.yul\":670:682   */\n      revert\n        /* \"#utility.yul\":621:684   */\n    tag_210:\n        /* \"#utility.yul\":568:690   */\n      pop\n      jump\t// out\n        /* \"#utility.yul\":696:835   */\n    tag_140:\n        /* \"#utility.yul\":742:747   */\n      0x00\n        /* \"#utility.yul\":780:786   */\n      dup2\n        /* \"#utility.yul\":767:787   */\n      calldataload\n        /* \"#utility.yul\":758:787   */\n      swap1\n      pop\n        /* \"#utility.yul\":796:829   */\n      tag_212\n        /* \"#utility.yul\":823:828   */\n      dup2\n        /* \"#utility.yul\":796:829   */\n      tag_139\n      jump\t// in\n    tag_212:\n        /* \"#utility.yul\":696:835   */\n      swap3\n      swap2\n      pop\n      pop\n      jump\t// out\n        /* \"#utility.yul\":841:1170   */\n    tag_13:\n        /* \"#utility.yul\":900:906   */\n      0x00\n        /* \"#utility.yul\":949:951   */\n      0x20\n        /* \"#utility.yul\":937:946   */\n      dup3\n        /* \"#utility.yul\":928:935   */\n      dup5\n        /* \"#utility.yul\":924:947   */\n      sub\n        /* \"#utility.yul\":920:952   */\n      slt\n        /* \"#utility.yul\":917:1036   */\n      iszero\n      tag_214\n      jumpi\n        /* \"#utility.yul\":955:1034   */\n      tag_215\n      tag_135\n      jump\t// in\n    tag_215:\n        /* \"#utility.yul\":917:1036   */\n    tag_214:\n        /* \"#utility.yul\":1075:1076   */\n      0x00\n        /* \"#utility.yul\":1100:1153   */\n      tag_216\n        /* \"#utility.yul\":1145:1152   */\n      dup5\n        /* \"#utility.yul\":1136:1142   */\n      dup3\n        /* \"#utility.yul\":1125:1134   */\n      dup6\n        /* \"#utility.yul\":1121:1143   */\n      add\n        /* \"#utility.yul\":1100:1153   */\n      tag_140\n      jump\t// in\n    tag_216:\n        /* \"#utility.yul\":1090:1153   */\n      swap2\n      pop\n        /* \"#utility.yul\":1046:1163   */\n      pop\n        /* \"#utility.yul\":841:1170   */\n      swap3\n      swap2\n      pop\n      pop\n      jump\t// out\n        /* \"#utility.yul\":1176:1266   */\n    tag_141:\n        /* \"#utility.yul\":1210:1217   */\n      0x00\n        /* \"#utility.yul\":1253:1258   */\n      dup2\n        /* \"#utility.yul\":1246:1259   */\n      iszero\n        /* \"#utility.yul\":1239:1260   */\n      iszero\n        /* \"#utility.yul\":1228:1260   */\n      swap1\n      pop\n        /* \"#utility.yul\":1176:1266   */\n      swap2\n      swap1\n      pop\n      jump\t// out\n        /* \"#utility.yul\":1272:1381   */\n    tag_142:\n        /* \"#utility.yul\":1353:1374   */\n      tag_219\n        /* \"#utility.yul\":1368:1373   */\n      dup2\n        /* \"#utility.yul\":1353:1374   */\n      tag_141\n      jump\t// in\n    tag_219:\n        /* \"#utility.yul\":1348:1351   */\n      dup3\n        /* \"#utility.yul\":1341:1375   */\n      mstore\n        /* \"#utility.yul\":1272:1381   */\n      pop\n      pop\n      jump\t// out\n        /* \"#utility.yul\":1387:1597   */\n    tag_19:\n        /* \"#utility.yul\":1474:1478   */\n      0x00\n        /* \"#utility.yul\":1512:1514   */\n      0x20\n        /* \"#utility.yul\":1501:1510   */\n      dup3\n        /* \"#utility.yul\":1497:1515   */\n      add\n        /* \"#utility.yul\":1489:1515   */\n      swap1\n      pop\n        /* \"#utility.yul\":1525:1590   */\n      tag_221\n        /* \"#utility.yul\":1587:1588   */\n      0x00\n        /* \"#utility.yul\":1576:1585   */\n      dup4\n        /* \"#utility.yul\":1572:1589   */\n      add\n        /* \"#utility.yul\":1563:1569   */\n      dup5\n        /* \"#utility.yul\":1525:1590   */\n      tag_142\n      jump\t// in\n    tag_221:\n        /* \"#utility.yul\":1387:1597   */\n      swap3\n      swap2\n      pop\n      pop\n      jump\t// out\n        /* \"#utility.yul\":1603:1720   */\n    tag_143:\n        /* \"#utility.yul\":1712:1713   */\n      0x00\n        /* \"#utility.yul\":1709:1710   */\n      dup1\n        /* \"#utility.yul\":1702:1714   */\n      revert\n        /* \"#utility.yul\":1726:1843   */\n    tag_144:\n        /* \"#utility.yul\":1835:1836   */\n      0x00\n        /* \"#utility.yul\":1832:1833   */\n      dup1\n        /* \"#utility.yul\":1825:1837   */\n      revert\n        /* \"#utility.yul\":1849:1966   */\n    tag_145:\n        /* \"#utility.yul\":1958:1959   */\n      0x00\n        /* \"#utility.yul\":1955:1956   */\n      dup1\n        /* \"#utility.yul\":1948:1960   */\n      revert\n        /* \"#utility.yul\":1989:2557   */\n    tag_146:\n        /* \"#utility.yul\":2062:2070   */\n      0x00\n        /* \"#utility.yul\":2072:2078   */\n      dup1\n        /* \"#utility.yul\":2122:2125   */\n      dup4\n        /* \"#utility.yul\":2115:2119   */\n      0x1f\n        /* \"#utility.yul\":2107:2113   */\n      dup5\n        /* \"#utility.yul\":2103:2120   */\n      add\n        /* \"#utility.yul\":2099:2126   */\n      slt\n        /* \"#utility.yul\":2089:2211   */\n      tag_226\n      jumpi\n        /* \"#utility.yul\":2130:2209   */\n      tag_227\n      tag_143\n      jump\t// in\n    tag_227:\n        /* \"#utility.yul\":2089:2211   */\n    tag_226:\n        /* \"#utility.yul\":2243:2249   */\n      dup3\n        /* \"#utility.yul\":2230:2250   */\n      calldataload\n        /* \"#utility.yul\":2220:2250   */\n      swap1\n      pop\n        /* \"#utility.yul\":2273:2291   */\n      0xffffffffffffffff\n        /* \"#utility.yul\":2265:2271   */\n      dup2\n        /* \"#utility.yul\":2262:2292   */\n      gt\n        /* \"#utility.yul\":2259:2376   */\n      iszero\n      tag_228\n      jumpi\n        /* \"#utility.yul\":2295:2374   */\n      tag_229\n      tag_144\n      jump\t// in\n    tag_229:\n        /* \"#utility.yul\":2259:2376   */\n    tag_228:\n        /* \"#utility.yul\":2409:2413   */\n      0x20\n        /* \"#utility.yul\":2401:2407   */\n      dup4\n        /* \"#utility.yul\":2397:2414   */\n      add\n        /* \"#utility.yul\":2385:2414   */\n      swap2\n      pop\n        /* \"#utility.yul\":2463:2466   */\n      dup4\n        /* \"#utility.yul\":2455:2459   */\n      0x20\n        /* \"#utility.yul\":2447:2453   */\n      dup3\n        /* \"#utility.yul\":2443:2460   */\n      mul\n        /* \"#utility.yul\":2433:2441   */\n      dup4\n        /* \"#utility.yul\":2429:2461   */\n      add\n        /* \"#utility.yul\":2426:2467   */\n      gt\n        /* \"#utility.yul\":2423:2551   */\n      iszero\n      tag_230\n      jumpi\n        /* \"#utility.yul\":2470:2549   */\n      tag_231\n      tag_145\n      jump\t// in\n    tag_231:\n        /* \"#utility.yul\":2423:2551   */\n    tag_230:\n        /* \"#utility.yul\":1989:2557   */\n      swap3\n      pop\n      swap3\n      swap1\n      pop\n      jump\t// out\n        /* \"#utility.yul\":2579:3159   */\n    tag_147:\n        /* \"#utility.yul\":2664:2672   */\n      0x00\n        /* \"#utility.yul\":2674:2680   */\n      dup1\n        /* \"#utility.yul\":2724:2727   */\n      dup4\n        /* \"#utility.yul\":2717:2721   */\n      0x1f\n        /* \"#utility.yul\":2709:2715   */\n      dup5\n        /* \"#utility.yul\":2705:2722   */\n      add\n        /* \"#utility.yul\":2701:2728   */\n      slt\n        /* \"#utility.yul\":2691:2813   */\n      tag_233\n      jumpi\n        /* \"#utility.yul\":2732:2811   */\n      tag_234\n      tag_143\n      jump\t// in\n    tag_234:\n        /* \"#utility.yul\":2691:2813   */\n    tag_233:\n        /* \"#utility.yul\":2845:2851   */\n      dup3\n        /* \"#utility.yul\":2832:2852   */\n      calldataload\n        /* \"#utility.yul\":2822:2852   */\n      swap1\n      pop\n        /* \"#utility.yul\":2875:2893   */\n      0xffffffffffffffff\n        /* \"#utility.yul\":2867:2873   */\n      dup2\n        /* \"#utility.yul\":2864:2894   */\n      gt\n        /* \"#utility.yul\":2861:2978   */\n      iszero\n      tag_235\n      jumpi\n        /* \"#utility.yul\":2897:2976   */\n      tag_236\n      tag_144\n      jump\t// in\n    tag_236:\n        /* \"#utility.yul\":2861:2978   */\n    tag_235:\n        /* \"#utility.yul\":3011:3015   */\n      0x20\n        /* \"#utility.yul\":3003:3009   */\n      dup4\n        /* \"#utility.yul\":2999:3016   */\n      add\n        /* \"#utility.yul\":2987:3016   */\n      swap2\n      pop\n        /* \"#utility.yul\":3065:3068   */\n      dup4\n        /* \"#utility.yul\":3057:3061   */\n      0x20\n        /* \"#utility.yul\":3049:3055   */\n      dup3\n        /* \"#utility.yul\":3045:3062   */\n      mul\n        /* \"#utility.yul\":3035:3043   */\n      dup4\n        /* \"#utility.yul\":3031:3063   */\n      add\n        /* \"#utility.yul\":3028:3069   */\n      gt\n        /* \"#utility.yul\":3025:3153   */\n      iszero\n      tag_237\n      jumpi\n        /* \"#utility.yul\":3072:3151   */\n      tag_238\n      tag_145\n      jump\t// in\n    tag_238:\n        /* \"#utility.yul\":3025:3153   */\n    tag_237:\n        /* \"#utility.yul\":2579:3159   */\n      swap3\n      pop\n      swap3\n      swap1\n      pop\n      jump\t// out\n        /* \"#utility.yul\":3165:4123   */\n    tag_22:\n        /* \"#utility.yul\":3299:3305   */\n      0x00\n        /* \"#utility.yul\":3307:3313   */\n      dup1\n        /* \"#utility.yul\":3315:3321   */\n      0x00\n        /* \"#utility.yul\":3323:3329   */\n      dup1\n        /* \"#utility.yul\":3372:3374   */\n      0x40\n        /* \"#utility.yul\":3360:3369   */\n      dup6\n        /* \"#utility.yul\":3351:3358   */\n      dup8\n        /* \"#utility.yul\":3347:3370   */\n      sub\n        /* \"#utility.yul\":3343:3375   */\n      slt\n        /* \"#utility.yul\":3340:3459   */\n      iszero\n      tag_240\n      jumpi\n        /* \"#utility.yul\":3378:3457   */\n      tag_241\n      tag_135\n      jump\t// in\n    tag_241:\n        /* \"#utility.yul\":3340:3459   */\n    tag_240:\n        /* \"#utility.yul\":3526:3527   */\n      0x00\n        /* \"#utility.yul\":3515:3524   */\n      dup6\n        /* \"#utility.yul\":3511:3528   */\n      add\n        /* \"#utility.yul\":3498:3529   */\n      calldataload\n        /* \"#utility.yul\":3556:3574   */\n      0xffffffffffffffff\n        /* \"#utility.yul\":3548:3554   */\n      dup2\n        /* \"#utility.yul\":3545:3575   */\n      gt\n        /* \"#utility.yul\":3542:3659   */\n      iszero\n      tag_242\n      jumpi\n        /* \"#utility.yul\":3578:3657   */\n      tag_243\n      tag_136\n      jump\t// in\n    tag_243:\n        /* \"#utility.yul\":3542:3659   */\n    tag_242:\n        /* \"#utility.yul\":3691:3771   */\n      tag_244\n        /* \"#utility.yul\":3763:3770   */\n      dup8\n        /* \"#utility.yul\":3754:3760   */\n      dup3\n        /* \"#utility.yul\":3743:3752   */\n      dup9\n        /* \"#utility.yul\":3739:3761   */\n      add\n        /* \"#utility.yul\":3691:3771   */\n      tag_146\n      jump\t// in\n    tag_244:\n        /* \"#utility.yul\":3673:3771   */\n      swap5\n      pop\n      swap5\n      pop\n        /* \"#utility.yul\":3469:3781   */\n      pop\n        /* \"#utility.yul\":3848:3850   */\n      0x20\n        /* \"#utility.yul\":3837:3846   */\n      dup6\n        /* \"#utility.yul\":3833:3851   */\n      add\n        /* \"#utility.yul\":3820:3852   */\n      calldataload\n        /* \"#utility.yul\":3879:3897   */\n      0xffffffffffffffff\n        /* \"#utility.yul\":3871:3877   */\n      dup2\n        /* \"#utility.yul\":3868:3898   */\n      gt\n        /* \"#utility.yul\":3865:3982   */\n      iszero\n      tag_245\n      jumpi\n        /* \"#utility.yul\":3901:3980   */\n      tag_246\n      tag_136\n      jump\t// in\n    tag_246:\n        /* \"#utility.yul\":3865:3982   */\n    tag_245:\n        /* \"#utility.yul\":4014:4106   */\n      tag_247\n        /* \"#utility.yul\":4098:4105   */\n      dup8\n        /* \"#utility.yul\":4089:4095   */\n      dup3\n        /* \"#utility.yul\":4078:4087   */\n      dup9\n        /* \"#utility.yul\":4074:4096   */\n      add\n        /* \"#utility.yul\":4014:4106   */\n      tag_147\n      jump\t// in\n    tag_247:\n        /* \"#utility.yul\":3996:4106   */\n      swap3\n      pop\n      swap3\n      pop\n        /* \"#utility.yul\":3791:4116   */\n      pop\n        /* \"#utility.yul\":3165:4123   */\n      swap3\n      swap6\n      swap2\n      swap5\n      pop\n      swap3\n      pop\n      jump\t// out\n        /* \"#utility.yul\":4129:4246   */\n    tag_148:\n        /* \"#utility.yul\":4238:4239   */\n      0x00\n        /* \"#utility.yul\":4235:4236   */\n      dup1\n        /* \"#utility.yul\":4228:4240   */\n      revert\n        /* \"#utility.yul\":4252:4354   */\n    tag_149:\n        /* \"#utility.yul\":4293:4299   */\n      0x00\n        /* \"#utility.yul\":4344:4346   */\n      0x1f\n        /* \"#utility.yul\":4340:4347   */\n      not\n        /* \"#utility.yul\":4335:4337   */\n      0x1f\n        /* \"#utility.yul\":4328:4333   */\n      dup4\n        /* \"#utility.yul\":4324:4338   */\n      add\n        /* \"#utility.yul\":4320:4348   */\n      and\n        /* \"#utility.yul\":4310:4348   */\n      swap1\n      pop\n        /* \"#utility.yul\":4252:4354   */\n      swap2\n      swap1\n      pop\n      jump\t// out\n        /* \"#utility.yul\":4360:4540   */\n    tag_150:\n        /* \"#utility.yul\":4408:4485   */\n      0x4e487b7100000000000000000000000000000000000000000000000000000000\n        /* \"#utility.yul\":4405:4406   */\n      0x00\n        /* \"#utility.yul\":4398:4486   */\n      mstore\n        /* \"#utility.yul\":4505:4509   */\n      0x41\n        /* \"#utility.yul\":4502:4503   */\n      0x04\n        /* \"#utility.yul\":4495:4510   */\n      mstore\n        /* \"#utility.yul\":4529:4533   */\n      0x24\n        /* \"#utility.yul\":4526:4527   */\n      0x00\n        /* \"#utility.yul\":4519:4534   */\n      revert\n        /* \"#utility.yul\":4546:4827   */\n    tag_151:\n        /* \"#utility.yul\":4629:4656   */\n      tag_252\n        /* \"#utility.yul\":4651:4655   */\n      dup3\n        /* \"#utility.yul\":4629:4656   */\n      tag_149\n      jump\t// in\n    tag_252:\n        /* \"#utility.yul\":4621:4627   */\n      dup2\n        /* \"#utility.yul\":4617:4657   */\n      add\n        /* \"#utility.yul\":4759:4765   */\n      dup2\n        /* \"#utility.yul\":4747:4757   */\n      dup2\n        /* \"#utility.yul\":4744:4766   */\n      lt\n        /* \"#utility.yul\":4723:4741   */\n      0xffffffffffffffff\n        /* \"#utility.yul\":4711:4721   */\n      dup3\n        /* \"#utility.yul\":4708:4742   */\n      gt\n        /* \"#utility.yul\":4705:4767   */\n      or\n        /* \"#utility.yul\":4702:4790   */\n      iszero\n      tag_253\n      jumpi\n        /* \"#utility.yul\":4770:4788   */\n      tag_254\n      tag_150\n      jump\t// in\n    tag_254:\n        /* \"#utility.yul\":4702:4790   */\n    tag_253:\n        /* \"#utility.yul\":4810:4820   */\n      dup1\n        /* \"#utility.yul\":4806:4808   */\n      0x40\n        /* \"#utility.yul\":4799:4821   */\n      mstore\n        /* \"#utility.yul\":4589:4827   */\n      pop\n        /* \"#utility.yul\":4546:4827   */\n      pop\n      pop\n      jump\t// out\n        /* \"#utility.yul\":4833:4962   */\n    tag_152:\n        /* \"#utility.yul\":4867:4873   */\n      0x00\n        /* \"#utility.yul\":4894:4914   */\n      tag_256\n      tag_134\n      jump\t// in\n    tag_256:\n        /* \"#utility.yul\":4884:4914   */\n      swap1\n      pop\n        /* \"#utility.yul\":4923:4956   */\n      tag_257\n        /* \"#utility.yul\":4951:4955   */\n      dup3\n        /* \"#utility.yul\":4943:4949   */\n      dup3\n        /* \"#utility.yul\":4923:4956   */\n      tag_151\n      jump\t// in\n    tag_257:\n        /* \"#utility.yul\":4833:4962   */\n      swap2\n      swap1\n      pop\n      jump\t// out\n        /* \"#utility.yul\":4968:5276   */\n    tag_153:\n        /* \"#utility.yul\":5030:5034   */\n      0x00\n        /* \"#utility.yul\":5120:5138   */\n      0xffffffffffffffff\n        /* \"#utility.yul\":5112:5118   */\n      dup3\n        /* \"#utility.yul\":5109:5139   */\n      gt\n        /* \"#utility.yul\":5106:5162   */\n      iszero\n      tag_259\n      jumpi\n        /* \"#utility.yul\":5142:5160   */\n      tag_260\n      tag_150\n      jump\t// in\n    tag_260:\n        /* \"#utility.yul\":5106:5162   */\n    tag_259:\n        /* \"#utility.yul\":5180:5209   */\n      tag_261\n        /* \"#utility.yul\":5202:5208   */\n      dup3\n        /* \"#utility.yul\":5180:5209   */\n      tag_149\n      jump\t// in\n    tag_261:\n        /* \"#utility.yul\":5172:5209   */\n      swap1\n      pop\n        /* \"#utility.yul\":5264:5268   */\n      0x20\n        /* \"#utility.yul\":5258:5262   */\n      dup2\n        /* \"#utility.yul\":5254:5269   */\n      add\n        /* \"#utility.yul\":5246:5269   */\n      swap1\n      pop\n        /* \"#utility.yul\":4968:5276   */\n      swap2\n      swap1\n      pop\n      jump\t// out\n        /* \"#utility.yul\":5282:5428   */\n    tag_154:\n        /* \"#utility.yul\":5379:5385   */\n      dup3\n        /* \"#utility.yul\":5374:5377   */\n      dup2\n        /* \"#utility.yul\":5369:5372   */\n      dup4\n        /* \"#utility.yul\":5356:5386   */\n      calldatacopy\n        /* \"#utility.yul\":5420:5421   */\n      0x00\n        /* \"#utility.yul\":5411:5417   */\n      dup4\n        /* \"#utility.yul\":5406:5409   */\n      dup4\n        /* \"#utility.yul\":5402:5418   */\n      add\n        /* \"#utility.yul\":5395:5422   */\n      mstore\n        /* \"#utility.yul\":5282:5428   */\n      pop\n      pop\n      pop\n      jump\t// out\n        /* \"#utility.yul\":5434:5859   */\n    tag_155:\n        /* \"#utility.yul\":5512:5517   */\n      0x00\n        /* \"#utility.yul\":5537:5603   */\n      tag_264\n        /* \"#utility.yul\":5553:5602   */\n      tag_265\n        /* \"#utility.yul\":5595:5601   */\n      dup5\n        /* \"#utility.yul\":5553:5602   */\n      tag_153\n      jump\t// in\n    tag_265:\n        /* \"#utility.yul\":5537:5603   */\n      tag_152\n      jump\t// in\n    tag_264:\n        /* \"#utility.yul\":5528:5603   */\n      swap1\n      pop\n        /* \"#utility.yul\":5626:5632   */\n      dup3\n        /* \"#utility.yul\":5619:5624   */\n      dup2\n        /* \"#utility.yul\":5612:5633   */\n      mstore\n        /* \"#utility.yul\":5664:5668   */\n      0x20\n        /* \"#utility.yul\":5657:5662   */\n      dup2\n        /* \"#utility.yul\":5653:5669   */\n      add\n        /* \"#utility.yul\":5702:5705   */\n      dup5\n        /* \"#utility.yul\":5693:5699   */\n      dup5\n        /* \"#utility.yul\":5688:5691   */\n      dup5\n        /* \"#utility.yul\":5684:5700   */\n      add\n        /* \"#utility.yul\":5681:5706   */\n      gt\n        /* \"#utility.yul\":5678:5790   */\n      iszero\n      tag_266\n      jumpi\n        /* \"#utility.yul\":5709:5788   */\n      tag_267\n      tag_148\n      jump\t// in\n    tag_267:\n        /* \"#utility.yul\":5678:5790   */\n    tag_266:\n        /* \"#utility.yul\":5799:5853   */\n      tag_268\n        /* \"#utility.yul\":5846:5852   */\n      dup5\n        /* \"#utility.yul\":5841:5844   */\n      dup3\n        /* \"#utility.yul\":5836:5839   */\n      dup6\n        /* \"#utility.yul\":5799:5853   */\n      tag_154\n      jump\t// in\n    tag_268:\n        /* \"#utility.yul\":5518:5859   */\n      pop\n        /* \"#utility.yul\":5434:5859   */\n      swap4\n      swap3\n      pop\n      pop\n      pop\n      jump\t// out\n        /* \"#utility.yul\":5879:6219   */\n    tag_156:\n        /* \"#utility.yul\":5935:5940   */\n      0x00\n        /* \"#utility.yul\":5984:5987   */\n      dup3\n        /* \"#utility.yul\":5977:5981   */\n      0x1f\n        /* \"#utility.yul\":5969:5975   */\n      dup4\n        /* \"#utility.yul\":5965:5982   */\n      add\n        /* \"#utility.yul\":5961:5988   */\n      slt\n        /* \"#utility.yul\":5951:6073   */\n      tag_270\n      jumpi\n        /* \"#utility.yul\":5992:6071   */\n      tag_271\n      tag_143\n      jump\t// in\n    tag_271:\n        /* \"#utility.yul\":5951:6073   */\n    tag_270:\n        /* \"#utility.yul\":6109:6115   */\n      dup2\n        /* \"#utility.yul\":6096:6116   */\n      calldataload\n        /* \"#utility.yul\":6134:6213   */\n      tag_272\n        /* \"#utility.yul\":6209:6212   */\n      dup5\n        /* \"#utility.yul\":6201:6207   */\n      dup3\n        /* \"#utility.yul\":6194:6198   */\n      0x20\n        /* \"#utility.yul\":6186:6192   */\n      dup7\n        /* \"#utility.yul\":6182:6199   */\n      add\n        /* \"#utility.yul\":6134:6213   */\n      tag_155\n      jump\t// in\n    tag_272:\n        /* \"#utility.yul\":6125:6213   */\n      swap2\n      pop\n        /* \"#utility.yul\":5941:6219   */\n      pop\n        /* \"#utility.yul\":5879:6219   */\n      swap3\n      swap2\n      pop\n      pop\n      jump\t// out\n        /* \"#utility.yul\":6225:6734   */\n    tag_26:\n        /* \"#utility.yul\":6294:6300   */\n      0x00\n        /* \"#utility.yul\":6343:6345   */\n      0x20\n        /* \"#utility.yul\":6331:6340   */\n      dup3\n        /* \"#utility.yul\":6322:6329   */\n      dup5\n        /* \"#utility.yul\":6318:6341   */\n      sub\n        /* \"#utility.yul\":6314:6346   */\n      slt\n        /* \"#utility.yul\":6311:6430   */\n      iszero\n      tag_274\n      jumpi\n        /* \"#utility.yul\":6349:6428   */\n      tag_275\n      tag_135\n      jump\t// in\n    tag_275:\n        /* \"#utility.yul\":6311:6430   */\n    tag_274:\n        /* \"#utility.yul\":6497:6498   */\n      0x00\n        /* \"#utility.yul\":6486:6495   */\n      dup3\n        /* \"#utility.yul\":6482:6499   */\n      add\n        /* \"#utility.yul\":6469:6500   */\n      calldataload\n        /* \"#utility.yul\":6527:6545   */\n      0xffffffffffffffff\n        /* \"#utility.yul\":6519:6525   */\n      dup2\n        /* \"#utility.yul\":6516:6546   */\n      gt\n        /* \"#utility.yul\":6513:6630   */\n      iszero\n      tag_276\n      jumpi\n        /* \"#utility.yul\":6549:6628   */\n      tag_277\n      tag_136\n      jump\t// in\n    tag_277:\n        /* \"#utility.yul\":6513:6630   */\n    tag_276:\n        /* \"#utility.yul\":6654:6717   */\n      tag_278\n        /* \"#utility.yul\":6709:6716   */\n      dup5\n        /* \"#utility.yul\":6700:6706   */\n      dup3\n        /* \"#utility.yul\":6689:6698   */\n      dup6\n        /* \"#utility.yul\":6685:6707   */\n      add\n        /* \"#utility.yul\":6654:6717   */\n      tag_156\n      jump\t// in\n    tag_278:\n        /* \"#utility.yul\":6644:6717   */\n      swap2\n      pop\n        /* \"#utility.yul\":6440:6727   */\n      pop\n        /* \"#utility.yul\":6225:6734   */\n      swap3\n      swap2\n      pop\n      pop\n      jump\t// out\n        /* \"#utility.yul\":6740:6838   */\n    tag_157:\n        /* \"#utility.yul\":6791:6797   */\n      0x00\n        /* \"#utility.yul\":6825:6830   */\n      dup2\n        /* \"#utility.yul\":6819:6831   */\n      mload\n        /* \"#utility.yul\":6809:6831   */\n      swap1\n      pop\n        /* \"#utility.yul\":6740:6838   */\n      swap2\n      swap1\n      pop\n      jump\t// out\n        /* \"#utility.yul\":6844:7012   */\n    tag_158:\n        /* \"#utility.yul\":6927:6938   */\n      0x00\n        /* \"#utility.yul\":6961:6967   */\n      dup3\n        /* \"#utility.yul\":6956:6959   */\n      dup3\n        /* \"#utility.yul\":6949:6968   */\n      mstore\n        /* \"#utility.yul\":7001:7005   */\n      0x20\n        /* \"#utility.yul\":6996:6999   */\n      dup3\n        /* \"#utility.yul\":6992:7006   */\n      add\n        /* \"#utility.yul\":6977:7006   */\n      swap1\n      pop\n        /* \"#utility.yul\":6844:7012   */\n      swap3\n      swap2\n      pop\n      pop\n      jump\t// out\n        /* \"#utility.yul\":7018:7264   */\n    tag_159:\n        /* \"#utility.yul\":7099:7100   */\n      0x00\n        /* \"#utility.yul\":7109:7222   */\n    tag_282:\n        /* \"#utility.yul\":7123:7129   */\n      dup4\n        /* \"#utility.yul\":7120:7121   */\n      dup2\n        /* \"#utility.yul\":7117:7130   */\n      lt\n        /* \"#utility.yul\":7109:7222   */\n      iszero\n      tag_284\n      jumpi\n        /* \"#utility.yul\":7208:7209   */\n      dup1\n        /* \"#utility.yul\":7203:7206   */\n      dup3\n        /* \"#utility.yul\":7199:7210   */\n      add\n        /* \"#utility.yul\":7193:7211   */\n      mload\n        /* \"#utility.yul\":7189:7190   */\n      dup2\n        /* \"#utility.yul\":7184:7187   */\n      dup5\n        /* \"#utility.yul\":7180:7191   */\n      add\n        /* \"#utility.yul\":7173:7212   */\n      mstore\n        /* \"#utility.yul\":7145:7147   */\n      0x20\n        /* \"#utility.yul\":7142:7143   */\n      dup2\n        /* \"#utility.yul\":7138:7148   */\n      add\n        /* \"#utility.yul\":7133:7148   */\n      swap1\n      pop\n        /* \"#utility.yul\":7109:7222   */\n      jump(tag_282)\n    tag_284:\n        /* \"#utility.yul\":7256:7257   */\n      0x00\n        /* \"#utility.yul\":7247:7253   */\n      dup5\n        /* \"#utility.yul\":7242:7245   */\n      dup5\n        /* \"#utility.yul\":7238:7254   */\n      add\n        /* \"#utility.yul\":7231:7258   */\n      mstore\n        /* \"#utility.yul\":7080:7264   */\n      pop\n        /* \"#utility.yul\":7018:7264   */\n      pop\n      pop\n      pop\n      jump\t// out\n        /* \"#utility.yul\":7270:7643   */\n    tag_160:\n        /* \"#utility.yul\":7356:7359   */\n      0x00\n        /* \"#utility.yul\":7384:7422   */\n      tag_286\n        /* \"#utility.yul\":7416:7421   */\n      dup3\n        /* \"#utility.yul\":7384:7422   */\n      tag_157\n      jump\t// in\n    tag_286:\n        /* \"#utility.yul\":7438:7508   */\n      tag_287\n        /* \"#utility.yul\":7501:7507   */\n      dup2\n        /* \"#utility.yul\":7496:7499   */\n      dup6\n        /* \"#utility.yul\":7438:7508   */\n      tag_158\n      jump\t// in\n    tag_287:\n        /* \"#utility.yul\":7431:7508   */\n      swap4\n      pop\n        /* \"#utility.yul\":7517:7582   */\n      tag_288\n        /* \"#utility.yul\":7575:7581   */\n      dup2\n        /* \"#utility.yul\":7570:7573   */\n      dup6\n        /* \"#utility.yul\":7563:7567   */\n      0x20\n        /* \"#utility.yul\":7556:7561   */\n      dup7\n        /* \"#utility.yul\":7552:7568   */\n      add\n        /* \"#utility.yul\":7517:7582   */\n      tag_159\n      jump\t// in\n    tag_288:\n        /* \"#utility.yul\":7607:7636   */\n      tag_289\n        /* \"#utility.yul\":7629:7635   */\n      dup2\n        /* \"#utility.yul\":7607:7636   */\n      tag_149\n      jump\t// in\n    tag_289:\n        /* \"#utility.yul\":7602:7605   */\n      dup5\n        /* \"#utility.yul\":7598:7637   */\n      add\n        /* \"#utility.yul\":7591:7637   */\n      swap2\n      pop\n        /* \"#utility.yul\":7360:7643   */\n      pop\n        /* \"#utility.yul\":7270:7643   */\n      swap3\n      swap2\n      pop\n      pop\n      jump\t// out\n        /* \"#utility.yul\":7649:7958   */\n    tag_32:\n        /* \"#utility.yul\":7760:7764   */\n      0x00\n        /* \"#utility.yul\":7798:7800   */\n      0x20\n        /* \"#utility.yul\":7787:7796   */\n      dup3\n        /* \"#utility.yul\":7783:7801   */\n      add\n        /* \"#utility.yul\":7775:7801   */\n      swap1\n      pop\n        /* \"#utility.yul\":7847:7856   */\n      dup2\n        /* \"#utility.yul\":7841:7845   */\n      dup2\n        /* \"#utility.yul\":7837:7857   */\n      sub\n        /* \"#utility.yul\":7833:7834   */\n      0x00\n        /* \"#utility.yul\":7822:7831   */\n      dup4\n        /* \"#utility.yul\":7818:7835   */\n      add\n        /* \"#utility.yul\":7811:7858   */\n      mstore\n        /* \"#utility.yul\":7875:7951   */\n      tag_291\n        /* \"#utility.yul\":7946:7950   */\n      dup2\n        /* \"#utility.yul\":7937:7943   */\n      dup5\n        /* \"#utility.yul\":7875:7951   */\n      tag_160\n      jump\t// in\n    tag_291:\n        /* \"#utility.yul\":7867:7951   */\n      swap1\n      pop\n        /* \"#utility.yul\":7649:7958   */\n      swap3\n      swap2\n      pop\n      pop\n      jump\t// out\n        /* \"#utility.yul\":7964:8041   */\n    tag_161:\n        /* \"#utility.yul\":8001:8008   */\n      0x00\n        /* \"#utility.yul\":8030:8035   */\n      dup2\n        /* \"#utility.yul\":8019:8035   */\n      swap1\n      pop\n        /* \"#utility.yul\":7964:8041   */\n      swap2\n      swap1\n      pop\n      jump\t// out\n        /* \"#utility.yul\":8047:8165   */\n    tag_162:\n        /* \"#utility.yul\":8134:8158   */\n      tag_294\n        /* \"#utility.yul\":8152:8157   */\n      dup2\n        /* \"#utility.yul\":8134:8158   */\n      tag_161\n      jump\t// in\n    tag_294:\n        /* \"#utility.yul\":8129:8132   */\n      dup3\n        /* \"#utility.yul\":8122:8159   */\n      mstore\n        /* \"#utility.yul\":8047:8165   */\n      pop\n      pop\n      jump\t// out\n        /* \"#utility.yul\":8171:8393   */\n    tag_40:\n        /* \"#utility.yul\":8264:8268   */\n      0x00\n        /* \"#utility.yul\":8302:8304   */\n      0x20\n        /* \"#utility.yul\":8291:8300   */\n      dup3\n        /* \"#utility.yul\":8287:8305   */\n      add\n        /* \"#utility.yul\":8279:8305   */\n      swap1\n      pop\n        /* \"#utility.yul\":8315:8386   */\n      tag_296\n        /* \"#utility.yul\":8383:8384   */\n      0x00\n        /* \"#utility.yul\":8372:8381   */\n      dup4\n        /* \"#utility.yul\":8368:8385   */\n      add\n        /* \"#utility.yul\":8359:8365   */\n      dup5\n        /* \"#utility.yul\":8315:8386   */\n      tag_162\n      jump\t// in\n    tag_296:\n        /* \"#utility.yul\":8171:8393   */\n      swap3\n      swap2\n      pop\n      pop\n      jump\t// out\n        /* \"#utility.yul\":8399:8568   */\n    tag_163:\n        /* \"#utility.yul\":8483:8494   */\n      0x00\n        /* \"#utility.yul\":8517:8523   */\n      dup3\n        /* \"#utility.yul\":8512:8515   */\n      dup3\n        /* \"#utility.yul\":8505:8524   */\n      mstore\n        /* \"#utility.yul\":8557:8561   */\n      0x20\n        /* \"#utility.yul\":8552:8555   */\n      dup3\n        /* \"#utility.yul\":8548:8562   */\n      add\n        /* \"#utility.yul\":8533:8562   */\n      swap1\n      pop\n        /* \"#utility.yul\":8399:8568   */\n      swap3\n      swap2\n      pop\n      pop\n      jump\t// out\n        /* \"#utility.yul\":8574:8798   */\n    tag_164:\n        /* \"#utility.yul\":8714:8748   */\n      0x4163636573732064656e6965642c204f6e6c79206f776e657220697320616c6c\n        /* \"#utility.yul\":8710:8711   */\n      0x00\n        /* \"#utility.yul\":8702:8708   */\n      dup3\n        /* \"#utility.yul\":8698:8712   */\n      add\n        /* \"#utility.yul\":8691:8749   */\n      mstore\n        /* \"#utility.yul\":8783:8790   */\n      0x6f77656421000000000000000000000000000000000000000000000000000000\n        /* \"#utility.yul\":8778:8780   */\n      0x20\n        /* \"#utility.yul\":8770:8776   */\n      dup3\n        /* \"#utility.yul\":8766:8781   */\n      add\n        /* \"#utility.yul\":8759:8791   */\n      mstore\n        /* \"#utility.yul\":8574:8798   */\n      pop\n      jump\t// out\n        /* \"#utility.yul\":8804:9170   */\n    tag_165:\n        /* \"#utility.yul\":8946:8949   */\n      0x00\n        /* \"#utility.yul\":8967:9034   */\n      tag_300\n        /* \"#utility.yul\":9031:9033   */\n      0x25\n        /* \"#utility.yul\":9026:9029   */\n      dup4\n        /* \"#utility.yul\":8967:9034   */\n      tag_163\n      jump\t// in\n    tag_300:\n        /* \"#utility.yul\":8960:9034   */\n      swap2\n      pop\n        /* \"#utility.yul\":9043:9136   */\n      tag_301\n        /* \"#utility.yul\":9132:9135   */\n      dup3\n        /* \"#utility.yul\":9043:9136   */\n      tag_164\n      jump\t// in\n    tag_301:\n        /* \"#utility.yul\":9161:9163   */\n      0x40\n        /* \"#utility.yul\":9156:9159   */\n      dup3\n        /* \"#utility.yul\":9152:9164   */\n      add\n        /* \"#utility.yul\":9145:9164   */\n      swap1\n      pop\n        /* \"#utility.yul\":8804:9170   */\n      swap2\n      swap1\n      pop\n      jump\t// out\n        /* \"#utility.yul\":9176:9595   */\n    tag_46:\n        /* \"#utility.yul\":9342:9346   */\n      0x00\n        /* \"#utility.yul\":9380:9382   */\n      0x20\n        /* \"#utility.yul\":9369:9378   */\n      dup3\n        /* \"#utility.yul\":9365:9383   */\n      add\n        /* \"#utility.yul\":9357:9383   */\n      swap1\n      pop\n        /* \"#utility.yul\":9429:9438   */\n      dup2\n        /* \"#utility.yul\":9423:9427   */\n      dup2\n        /* \"#utility.yul\":9419:9439   */\n      sub\n        /* \"#utility.yul\":9415:9416   */\n      0x00\n        /* \"#utility.yul\":9404:9413   */\n      dup4\n        /* \"#utility.yul\":9400:9417   */\n      add\n        /* \"#utility.yul\":9393:9440   */\n      mstore\n        /* \"#utility.yul\":9457:9588   */\n      tag_303\n        /* \"#utility.yul\":9583:9587   */\n      dup2\n        /* \"#utility.yul\":9457:9588   */\n      tag_165\n      jump\t// in\n    tag_303:\n        /* \"#utility.yul\":9449:9588   */\n      swap1\n      pop\n        /* \"#utility.yul\":9176:9595   */\n      swap2\n      swap1\n      pop\n      jump\t// out\n        /* \"#utility.yul\":9601:9719   */\n    tag_166:\n        /* \"#utility.yul\":9688:9712   */\n      tag_305\n        /* \"#utility.yul\":9706:9711   */\n      dup2\n        /* \"#utility.yul\":9688:9712   */\n      tag_138\n      jump\t// in\n    tag_305:\n        /* \"#utility.yul\":9683:9686   */\n      dup3\n        /* \"#utility.yul\":9676:9713   */\n      mstore\n        /* \"#utility.yul\":9601:9719   */\n      pop\n      pop\n      jump\t// out\n        /* \"#utility.yul\":9725:10167   */\n    tag_49:\n        /* \"#utility.yul\":9874:9878   */\n      0x00\n        /* \"#utility.yul\":9912:9914   */\n      0x60\n        /* \"#utility.yul\":9901:9910   */\n      dup3\n        /* \"#utility.yul\":9897:9915   */\n      add\n        /* \"#utility.yul\":9889:9915   */\n      swap1\n      pop\n        /* \"#utility.yul\":9925:9996   */\n      tag_307\n        /* \"#utility.yul\":9993:9994   */\n      0x00\n        /* \"#utility.yul\":9982:9991   */\n      dup4\n        /* \"#utility.yul\":9978:9995   */\n      add\n        /* \"#utility.yul\":9969:9975   */\n      dup7\n        /* \"#utility.yul\":9925:9996   */\n      tag_166\n      jump\t// in\n    tag_307:\n        /* \"#utility.yul\":10006:10078   */\n      tag_308\n        /* \"#utility.yul\":10074:10076   */\n      0x20\n        /* \"#utility.yul\":10063:10072   */\n      dup4\n        /* \"#utility.yul\":10059:10077   */\n      add\n        /* \"#utility.yul\":10050:10056   */\n      dup6\n        /* \"#utility.yul\":10006:10078   */\n      tag_166\n      jump\t// in\n    tag_308:\n        /* \"#utility.yul\":10088:10160   */\n      tag_309\n        /* \"#utility.yul\":10156:10158   */\n      0x40\n        /* \"#utility.yul\":10145:10154   */\n      dup4\n        /* \"#utility.yul\":10141:10159   */\n      add\n        /* \"#utility.yul\":10132:10138   */\n      dup5\n        /* \"#utility.yul\":10088:10160   */\n      tag_162\n      jump\t// in\n    tag_309:\n        /* \"#utility.yul\":9725:10167   */\n      swap5\n      swap4\n      pop\n      pop\n      pop\n      pop\n      jump\t// out\n        /* \"#utility.yul\":10173:10398   */\n    tag_167:\n        /* \"#utility.yul\":10313:10347   */\n      0x4163636573732064656e6965642e204f6e6c792050797468696120697320616c\n        /* \"#utility.yul\":10309:10310   */\n      0x00\n        /* \"#utility.yul\":10301:10307   */\n      dup3\n        /* \"#utility.yul\":10297:10311   */\n      add\n        /* \"#utility.yul\":10290:10348   */\n      mstore\n        /* \"#utility.yul\":10382:10390   */\n      0x6c6f776564210000000000000000000000000000000000000000000000000000\n        /* \"#utility.yul\":10377:10379   */\n      0x20\n        /* \"#utility.yul\":10369:10375   */\n      dup3\n        /* \"#utility.yul\":10365:10380   */\n      add\n        /* \"#utility.yul\":10358:10391   */\n      mstore\n        /* \"#utility.yul\":10173:10398   */\n      pop\n      jump\t// out\n        /* \"#utility.yul\":10404:10770   */\n    tag_168:\n        /* \"#utility.yul\":10546:10549   */\n      0x00\n        /* \"#utility.yul\":10567:10634   */\n      tag_312\n        /* \"#utility.yul\":10631:10633   */\n      0x26\n        /* \"#utility.yul\":10626:10629   */\n      dup4\n        /* \"#utility.yul\":10567:10634   */\n      tag_163\n      jump\t// in\n    tag_312:\n        /* \"#utility.yul\":10560:10634   */\n      swap2\n      pop\n        /* \"#utility.yul\":10643:10736   */\n      tag_313\n        /* \"#utility.yul\":10732:10735   */\n      dup3\n        /* \"#utility.yul\":10643:10736   */\n      tag_167\n      jump\t// in\n    tag_313:\n        /* \"#utility.yul\":10761:10763   */\n      0x40\n        /* \"#utility.yul\":10756:10759   */\n      dup3\n        /* \"#utility.yul\":10752:10764   */\n      add\n        /* \"#utility.yul\":10745:10764   */\n      swap1\n      pop\n        /* \"#utility.yul\":10404:10770   */\n      swap2\n      swap1\n      pop\n      jump\t// out\n        /* \"#utility.yul\":10776:11195   */\n    tag_54:\n        /* \"#utility.yul\":10942:10946   */\n      0x00\n        /* \"#utility.yul\":10980:10982   */\n      0x20\n        /* \"#utility.yul\":10969:10978   */\n      dup3\n        /* \"#utility.yul\":10965:10983   */\n      add\n        /* \"#utility.yul\":10957:10983   */\n      swap1\n      pop\n        /* \"#utility.yul\":11029:11038   */\n      dup2\n        /* \"#utility.yul\":11023:11027   */\n      dup2\n        /* \"#utility.yul\":11019:11039   */\n      sub\n        /* \"#utility.yul\":11015:11016   */\n      0x00\n        /* \"#utility.yul\":11004:11013   */\n      dup4\n        /* \"#utility.yul\":11000:11017   */\n      add\n        /* \"#utility.yul\":10993:11040   */\n      mstore\n        /* \"#utility.yul\":11057:11188   */\n      tag_315\n        /* \"#utility.yul\":11183:11187   */\n      dup2\n        /* \"#utility.yul\":11057:11188   */\n      tag_168\n      jump\t// in\n    tag_315:\n        /* \"#utility.yul\":11049:11188   */\n      swap1\n      pop\n        /* \"#utility.yul\":10776:11195   */\n      swap2\n      swap1\n      pop\n      jump\t// out\n        /* \"#utility.yul\":11201:11430   */\n    tag_169:\n        /* \"#utility.yul\":11341:11375   */\n      0x50726963657320616e64207469636b657273206d757374206265206f66206571\n        /* \"#utility.yul\":11337:11338   */\n      0x00\n        /* \"#utility.yul\":11329:11335   */\n      dup3\n        /* \"#utility.yul\":11325:11339   */\n      add\n        /* \"#utility.yul\":11318:11376   */\n      mstore\n        /* \"#utility.yul\":11410:11422   */\n      0x75616c206c656e67746800000000000000000000000000000000000000000000\n        /* \"#utility.yul\":11405:11407   */\n      0x20\n        /* \"#utility.yul\":11397:11403   */\n      dup3\n        /* \"#utility.yul\":11393:11408   */\n      add\n        /* \"#utility.yul\":11386:11423   */\n      mstore\n        /* \"#utility.yul\":11201:11430   */\n      pop\n      jump\t// out\n        /* \"#utility.yul\":11436:11802   */\n    tag_170:\n        /* \"#utility.yul\":11578:11581   */\n      0x00\n        /* \"#utility.yul\":11599:11666   */\n      tag_318\n        /* \"#utility.yul\":11663:11665   */\n      0x2a\n        /* \"#utility.yul\":11658:11661   */\n      dup4\n        /* \"#utility.yul\":11599:11666   */\n      tag_163\n      jump\t// in\n    tag_318:\n        /* \"#utility.yul\":11592:11666   */\n      swap2\n      pop\n        /* \"#utility.yul\":11675:11768   */\n      tag_319\n        /* \"#utility.yul\":11764:11767   */\n      dup3\n        /* \"#utility.yul\":11675:11768   */\n      tag_169\n      jump\t// in\n    tag_319:\n        /* \"#utility.yul\":11793:11795   */\n      0x40\n        /* \"#utility.yul\":11788:11791   */\n      dup3\n        /* \"#utility.yul\":11784:11796   */\n      add\n        /* \"#utility.yul\":11777:11796   */\n      swap1\n      pop\n        /* \"#utility.yul\":11436:11802   */\n      swap2\n      swap1\n      pop\n      jump\t// out\n        /* \"#utility.yul\":11808:12227   */\n    tag_58:\n        /* \"#utility.yul\":11974:11978   */\n      0x00\n        /* \"#utility.yul\":12012:12014   */\n      0x20\n        /* \"#utility.yul\":12001:12010   */\n      dup3\n        /* \"#utility.yul\":11997:12015   */\n      add\n        /* \"#utility.yul\":11989:12015   */\n      swap1\n      pop\n        /* \"#utility.yul\":12061:12070   */\n      dup2\n        /* \"#utility.yul\":12055:12059   */\n      dup2\n        /* \"#utility.yul\":12051:12071   */\n      sub\n        /* \"#utility.yul\":12047:12048   */\n      0x00\n        /* \"#utility.yul\":12036:12045   */\n      dup4\n        /* \"#utility.yul\":12032:12049   */\n      add\n        /* \"#utility.yul\":12025:12072   */\n      mstore\n        /* \"#utility.yul\":12089:12220   */\n      tag_321\n        /* \"#utility.yul\":12215:12219   */\n      dup2\n        /* \"#utility.yul\":12089:12220   */\n      tag_170\n      jump\t// in\n    tag_321:\n        /* \"#utility.yul\":12081:12220   */\n      swap1\n      pop\n        /* \"#utility.yul\":11808:12227   */\n      swap2\n      swap1\n      pop\n      jump\t// out\n        /* \"#utility.yul\":12233:12413   */\n    tag_64:\n        /* \"#utility.yul\":12281:12358   */\n      0x4e487b7100000000000000000000000000000000000000000000000000000000\n        /* \"#utility.yul\":12278:12279   */\n      0x00\n        /* \"#utility.yul\":12271:12359   */\n      mstore\n        /* \"#utility.yul\":12378:12382   */\n      0x32\n        /* \"#utility.yul\":12375:12376   */\n      0x04\n        /* \"#utility.yul\":12368:12383   */\n      mstore\n        /* \"#utility.yul\":12402:12406   */\n      0x24\n        /* \"#utility.yul\":12399:12400   */\n      0x00\n        /* \"#utility.yul\":12392:12407   */\n      revert\n        /* \"#utility.yul\":12419:12536   */\n    tag_171:\n        /* \"#utility.yul\":12528:12529   */\n      0x00\n        /* \"#utility.yul\":12525:12526   */\n      dup1\n        /* \"#utility.yul\":12518:12530   */\n      revert\n        /* \"#utility.yul\":12542:12659   */\n    tag_172:\n        /* \"#utility.yul\":12651:12652   */\n      0x00\n        /* \"#utility.yul\":12648:12649   */\n      dup1\n        /* \"#utility.yul\":12641:12653   */\n      revert\n        /* \"#utility.yul\":12665:12782   */\n    tag_173:\n        /* \"#utility.yul\":12774:12775   */\n      0x00\n        /* \"#utility.yul\":12771:12772   */\n      dup1\n        /* \"#utility.yul\":12764:12776   */\n      revert\n        /* \"#utility.yul\":12788:13513   */\n    tag_68:\n        /* \"#utility.yul\":12866:12870   */\n      0x00\n        /* \"#utility.yul\":12872:12878   */\n      dup1\n        /* \"#utility.yul\":12928:12939   */\n      dup4\n        /* \"#utility.yul\":12915:12940   */\n      calldataload\n        /* \"#utility.yul\":13028:13029   */\n      0x01\n        /* \"#utility.yul\":13022:13026   */\n      0x20\n        /* \"#utility.yul\":13018:13030   */\n      sub\n        /* \"#utility.yul\":13007:13015   */\n      dup5\n        /* \"#utility.yul\":12991:13005   */\n      calldatasize\n        /* \"#utility.yul\":12987:13016   */\n      sub\n        /* \"#utility.yul\":12983:13031   */\n      sub\n        /* \"#utility.yul\":12963:12981   */\n      dup2\n        /* \"#utility.yul\":12959:13032   */\n      slt\n        /* \"#utility.yul\":12949:13117   */\n      tag_327\n      jumpi\n        /* \"#utility.yul\":13036:13115   */\n      tag_328\n      tag_171\n      jump\t// in\n    tag_328:\n        /* \"#utility.yul\":12949:13117   */\n    tag_327:\n        /* \"#utility.yul\":13148:13166   */\n      dup1\n        /* \"#utility.yul\":13138:13146   */\n      dup5\n        /* \"#utility.yul\":13134:13167   */\n      add\n        /* \"#utility.yul\":13126:13167   */\n      swap3\n      pop\n        /* \"#utility.yul\":13200:13204   */\n      dup3\n        /* \"#utility.yul\":13187:13205   */\n      calldataload\n        /* \"#utility.yul\":13177:13205   */\n      swap2\n      pop\n        /* \"#utility.yul\":13228:13246   */\n      0xffffffffffffffff\n        /* \"#utility.yul\":13220:13226   */\n      dup3\n        /* \"#utility.yul\":13217:13247   */\n      gt\n        /* \"#utility.yul\":13214:13331   */\n      iszero\n      tag_329\n      jumpi\n        /* \"#utility.yul\":13250:13329   */\n      tag_330\n      tag_172\n      jump\t// in\n    tag_330:\n        /* \"#utility.yul\":13214:13331   */\n    tag_329:\n        /* \"#utility.yul\":13358:13360   */\n      0x20\n        /* \"#utility.yul\":13352:13356   */\n      dup4\n        /* \"#utility.yul\":13348:13361   */\n      add\n        /* \"#utility.yul\":13340:13361   */\n      swap3\n      pop\n        /* \"#utility.yul\":13415:13419   */\n      0x01\n        /* \"#utility.yul\":13407:13413   */\n      dup3\n        /* \"#utility.yul\":13403:13420   */\n      mul\n        /* \"#utility.yul\":13387:13401   */\n      calldatasize\n        /* \"#utility.yul\":13383:13421   */\n      sub\n        /* \"#utility.yul\":13377:13381   */\n      dup4\n        /* \"#utility.yul\":13373:13422   */\n      sgt\n        /* \"#utility.yul\":13370:13506   */\n      iszero\n      tag_331\n      jumpi\n        /* \"#utility.yul\":13425:13504   */\n      tag_332\n      tag_173\n      jump\t// in\n    tag_332:\n        /* \"#utility.yul\":13370:13506   */\n    tag_331:\n        /* \"#utility.yul\":12879:13513   */\n      pop\n        /* \"#utility.yul\":12788:13513   */\n      swap3\n      pop\n      swap3\n      swap1\n      pop\n      jump\t// out\n        /* \"#utility.yul\":13543:13860   */\n    tag_174:\n        /* \"#utility.yul\":13641:13644   */\n      0x00\n        /* \"#utility.yul\":13662:13733   */\n      tag_334\n        /* \"#utility.yul\":13726:13732   */\n      dup4\n        /* \"#utility.yul\":13721:13724   */\n      dup6\n        /* \"#utility.yul\":13662:13733   */\n      tag_163\n      jump\t// in\n    tag_334:\n        /* \"#utility.yul\":13655:13733   */\n      swap4\n      pop\n        /* \"#utility.yul\":13743:13799   */\n      tag_335\n        /* \"#utility.yul\":13792:13798   */\n      dup4\n        /* \"#utility.yul\":13787:13790   */\n      dup6\n        /* \"#utility.yul\":13780:13785   */\n      dup5\n        /* \"#utility.yul\":13743:13799   */\n      tag_154\n      jump\t// in\n    tag_335:\n        /* \"#utility.yul\":13824:13853   */\n      tag_336\n        /* \"#utility.yul\":13846:13852   */\n      dup4\n        /* \"#utility.yul\":13824:13853   */\n      tag_149\n      jump\t// in\n    tag_336:\n        /* \"#utility.yul\":13819:13822   */\n      dup5\n        /* \"#utility.yul\":13815:13854   */\n      add\n        /* \"#utility.yul\":13808:13854   */\n      swap1\n      pop\n        /* \"#utility.yul\":13543:13860   */\n      swap4\n      swap3\n      pop\n      pop\n      pop\n      jump\t// out\n        /* \"#utility.yul\":13866:14199   */\n    tag_70:\n        /* \"#utility.yul\":13989:13993   */\n      0x00\n        /* \"#utility.yul\":14027:14029   */\n      0x20\n        /* \"#utility.yul\":14016:14025   */\n      dup3\n        /* \"#utility.yul\":14012:14030   */\n      add\n        /* \"#utility.yul\":14004:14030   */\n      swap1\n      pop\n        /* \"#utility.yul\":14076:14085   */\n      dup2\n        /* \"#utility.yul\":14070:14074   */\n      dup2\n        /* \"#utility.yul\":14066:14086   */\n      sub\n        /* \"#utility.yul\":14062:14063   */\n      0x00\n        /* \"#utility.yul\":14051:14060   */\n      dup4\n        /* \"#utility.yul\":14047:14064   */\n      add\n        /* \"#utility.yul\":14040:14087   */\n      mstore\n        /* \"#utility.yul\":14104:14192   */\n      tag_338\n        /* \"#utility.yul\":14187:14191   */\n      dup2\n        /* \"#utility.yul\":14178:14184   */\n      dup5\n        /* \"#utility.yul\":14170:14176   */\n      dup7\n        /* \"#utility.yul\":14104:14192   */\n      tag_174\n      jump\t// in\n    tag_338:\n        /* \"#utility.yul\":14096:14192   */\n      swap1\n      pop\n        /* \"#utility.yul\":13866:14199   */\n      swap4\n      swap3\n      pop\n      pop\n      pop\n      jump\t// out\n        /* \"#utility.yul\":14205:14512   */\n    tag_175:\n        /* \"#utility.yul\":14266:14270   */\n      0x00\n        /* \"#utility.yul\":14356:14374   */\n      0xffffffffffffffff\n        /* \"#utility.yul\":14348:14354   */\n      dup3\n        /* \"#utility.yul\":14345:14375   */\n      gt\n        /* \"#utility.yul\":14342:14398   */\n      iszero\n      tag_340\n      jumpi\n        /* \"#utility.yul\":14378:14396   */\n      tag_341\n      tag_150\n      jump\t// in\n    tag_341:\n        /* \"#utility.yul\":14342:14398   */\n    tag_340:\n        /* \"#utility.yul\":14416:14445   */\n      tag_342\n        /* \"#utility.yul\":14438:14444   */\n      dup3\n        /* \"#utility.yul\":14416:14445   */\n      tag_149\n      jump\t// in\n    tag_342:\n        /* \"#utility.yul\":14408:14445   */\n      swap1\n      pop\n        /* \"#utility.yul\":14500:14504   */\n      0x20\n        /* \"#utility.yul\":14494:14498   */\n      dup2\n        /* \"#utility.yul\":14490:14505   */\n      add\n        /* \"#utility.yul\":14482:14505   */\n      swap1\n      pop\n        /* \"#utility.yul\":14205:14512   */\n      swap2\n      swap1\n      pop\n      jump\t// out\n        /* \"#utility.yul\":14518:14950   */\n    tag_176:\n        /* \"#utility.yul\":14606:14611   */\n      0x00\n        /* \"#utility.yul\":14631:14696   */\n      tag_344\n        /* \"#utility.yul\":14647:14695   */\n      tag_345\n        /* \"#utility.yul\":14688:14694   */\n      dup5\n        /* \"#utility.yul\":14647:14695   */\n      tag_175\n      jump\t// in\n    tag_345:\n        /* \"#utility.yul\":14631:14696   */\n      tag_152\n      jump\t// in\n    tag_344:\n        /* \"#utility.yul\":14622:14696   */\n      swap1\n      pop\n        /* \"#utility.yul\":14719:14725   */\n      dup3\n        /* \"#utility.yul\":14712:14717   */\n      dup2\n        /* \"#utility.yul\":14705:14726   */\n      mstore\n        /* \"#utility.yul\":14757:14761   */\n      0x20\n        /* \"#utility.yul\":14750:14755   */\n      dup2\n        /* \"#utility.yul\":14746:14762   */\n      add\n        /* \"#utility.yul\":14795:14798   */\n      dup5\n        /* \"#utility.yul\":14786:14792   */\n      dup5\n        /* \"#utility.yul\":14781:14784   */\n      dup5\n        /* \"#utility.yul\":14777:14793   */\n      add\n        /* \"#utility.yul\":14774:14799   */\n      gt\n        /* \"#utility.yul\":14771:14883   */\n      iszero\n      tag_346\n      jumpi\n        /* \"#utility.yul\":14802:14881   */\n      tag_347\n      tag_148\n      jump\t// in\n    tag_347:\n        /* \"#utility.yul\":14771:14883   */\n    tag_346:\n        /* \"#utility.yul\":14892:14944   */\n      tag_348\n        /* \"#utility.yul\":14937:14943   */\n      dup5\n        /* \"#utility.yul\":14932:14935   */\n      dup3\n        /* \"#utility.yul\":14927:14930   */\n      dup6\n        /* \"#utility.yul\":14892:14944   */\n      tag_159\n      jump\t// in\n    tag_348:\n        /* \"#utility.yul\":14612:14950   */\n      pop\n        /* \"#utility.yul\":14518:14950   */\n      swap4\n      swap3\n      pop\n      pop\n      pop\n      jump\t// out\n        /* \"#utility.yul\":14969:15322   */\n    tag_177:\n        /* \"#utility.yul\":15035:15040   */\n      0x00\n        /* \"#utility.yul\":15084:15087   */\n      dup3\n        /* \"#utility.yul\":15077:15081   */\n      0x1f\n        /* \"#utility.yul\":15069:15075   */\n      dup4\n        /* \"#utility.yul\":15065:15082   */\n      add\n        /* \"#utility.yul\":15061:15088   */\n      slt\n        /* \"#utility.yul\":15051:15173   */\n      tag_350\n      jumpi\n        /* \"#utility.yul\":15092:15171   */\n      tag_351\n      tag_143\n      jump\t// in\n    tag_351:\n        /* \"#utility.yul\":15051:15173   */\n    tag_350:\n        /* \"#utility.yul\":15202:15208   */\n      dup2\n        /* \"#utility.yul\":15196:15209   */\n      mload\n        /* \"#utility.yul\":15227:15316   */\n      tag_352\n        /* \"#utility.yul\":15312:15315   */\n      dup5\n        /* \"#utility.yul\":15304:15310   */\n      dup3\n        /* \"#utility.yul\":15297:15301   */\n      0x20\n        /* \"#utility.yul\":15289:15295   */\n      dup7\n        /* \"#utility.yul\":15285:15302   */\n      add\n        /* \"#utility.yul\":15227:15316   */\n      tag_176\n      jump\t// in\n    tag_352:\n        /* \"#utility.yul\":15218:15316   */\n      swap2\n      pop\n        /* \"#utility.yul\":15041:15322   */\n      pop\n        /* \"#utility.yul\":14969:15322   */\n      swap3\n      swap2\n      pop\n      pop\n      jump\t// out\n        /* \"#utility.yul\":15328:15850   */\n    tag_74:\n        /* \"#utility.yul\":15407:15413   */\n      0x00\n        /* \"#utility.yul\":15456:15458   */\n      0x20\n        /* \"#utility.yul\":15444:15453   */\n      dup3\n        /* \"#utility.yul\":15435:15442   */\n      dup5\n        /* \"#utility.yul\":15431:15454   */\n      sub\n        /* \"#utility.yul\":15427:15459   */\n      slt\n        /* \"#utility.yul\":15424:15543   */\n      iszero\n      tag_354\n      jumpi\n        /* \"#utility.yul\":15462:15541   */\n      tag_355\n      tag_135\n      jump\t// in\n    tag_355:\n        /* \"#utility.yul\":15424:15543   */\n    tag_354:\n        /* \"#utility.yul\":15603:15604   */\n      0x00\n        /* \"#utility.yul\":15592:15601   */\n      dup3\n        /* \"#utility.yul\":15588:15605   */\n      add\n        /* \"#utility.yul\":15582:15606   */\n      mload\n        /* \"#utility.yul\":15633:15651   */\n      0xffffffffffffffff\n        /* \"#utility.yul\":15625:15631   */\n      dup2\n        /* \"#utility.yul\":15622:15652   */\n      gt\n        /* \"#utility.yul\":15619:15736   */\n      iszero\n      tag_356\n      jumpi\n        /* \"#utility.yul\":15655:15734   */\n      tag_357\n      tag_136\n      jump\t// in\n    tag_357:\n        /* \"#utility.yul\":15619:15736   */\n    tag_356:\n        /* \"#utility.yul\":15760:15833   */\n      tag_358\n        /* \"#utility.yul\":15825:15832   */\n      dup5\n        /* \"#utility.yul\":15816:15822   */\n      dup3\n        /* \"#utility.yul\":15805:15814   */\n      dup6\n        /* \"#utility.yul\":15801:15823   */\n      add\n        /* \"#utility.yul\":15760:15833   */\n      tag_177\n      jump\t// in\n    tag_358:\n        /* \"#utility.yul\":15750:15833   */\n      swap2\n      pop\n        /* \"#utility.yul\":15553:15843   */\n      pop\n        /* \"#utility.yul\":15328:15850   */\n      swap3\n      swap2\n      pop\n      pop\n      jump\t// out\n        /* \"#utility.yul\":15856:16003   */\n    tag_178:\n        /* \"#utility.yul\":15957:15968   */\n      0x00\n        /* \"#utility.yul\":15994:15997   */\n      dup2\n        /* \"#utility.yul\":15979:15997   */\n      swap1\n      pop\n        /* \"#utility.yul\":15856:16003   */\n      swap3\n      swap2\n      pop\n      pop\n      jump\t// out\n        /* \"#utility.yul\":16009:16395   */\n    tag_179:\n        /* \"#utility.yul\":16113:16116   */\n      0x00\n        /* \"#utility.yul\":16141:16179   */\n      tag_361\n        /* \"#utility.yul\":16173:16178   */\n      dup3\n        /* \"#utility.yul\":16141:16179   */\n      tag_157\n      jump\t// in\n    tag_361:\n        /* \"#utility.yul\":16195:16283   */\n      tag_362\n        /* \"#utility.yul\":16276:16282   */\n      dup2\n        /* \"#utility.yul\":16271:16274   */\n      dup6\n        /* \"#utility.yul\":16195:16283   */\n      tag_178\n      jump\t// in\n    tag_362:\n        /* \"#utility.yul\":16188:16283   */\n      swap4\n      pop\n        /* \"#utility.yul\":16292:16357   */\n      tag_363\n        /* \"#utility.yul\":16350:16356   */\n      dup2\n        /* \"#utility.yul\":16345:16348   */\n      dup6\n        /* \"#utility.yul\":16338:16342   */\n      0x20\n        /* \"#utility.yul\":16331:16336   */\n      dup7\n        /* \"#utility.yul\":16327:16343   */\n      add\n        /* \"#utility.yul\":16292:16357   */\n      tag_159\n      jump\t// in\n    tag_363:\n        /* \"#utility.yul\":16382:16388   */\n      dup1\n        /* \"#utility.yul\":16377:16380   */\n      dup5\n        /* \"#utility.yul\":16373:16389   */\n      add\n        /* \"#utility.yul\":16366:16389   */\n      swap2\n      pop\n        /* \"#utility.yul\":16117:16395   */\n      pop\n        /* \"#utility.yul\":16009:16395   */\n      swap3\n      swap2\n      pop\n      pop\n      jump\t// out\n        /* \"#utility.yul\":16401:16672   */\n    tag_76:\n        /* \"#utility.yul\":16531:16534   */\n      0x00\n        /* \"#utility.yul\":16553:16646   */\n      tag_365\n        /* \"#utility.yul\":16642:16645   */\n      dup3\n        /* \"#utility.yul\":16633:16639   */\n      dup5\n        /* \"#utility.yul\":16553:16646   */\n      tag_179\n      jump\t// in\n    tag_365:\n        /* \"#utility.yul\":16546:16646   */\n      swap2\n      pop\n        /* \"#utility.yul\":16663:16666   */\n      dup2\n        /* \"#utility.yul\":16656:16666   */\n      swap1\n      pop\n        /* \"#utility.yul\":16401:16672   */\n      swap3\n      swap2\n      pop\n      pop\n      jump\t// out\n        /* \"#utility.yul\":16678:17342   */\n    tag_83:\n        /* \"#utility.yul\":16885:16889   */\n      0x00\n        /* \"#utility.yul\":16923:16926   */\n      0x80\n        /* \"#utility.yul\":16912:16921   */\n      dup3\n        /* \"#utility.yul\":16908:16927   */\n      add\n        /* \"#utility.yul\":16900:16927   */\n      swap1\n      pop\n        /* \"#utility.yul\":16973:16982   */\n      dup2\n        /* \"#utility.yul\":16967:16971   */\n      dup2\n        /* \"#utility.yul\":16963:16983   */\n      sub\n        /* \"#utility.yul\":16959:16960   */\n      0x00\n        /* \"#utility.yul\":16948:16957   */\n      dup4\n        /* \"#utility.yul\":16944:16961   */\n      add\n        /* \"#utility.yul\":16937:16984   */\n      mstore\n        /* \"#utility.yul\":17001:17089   */\n      tag_367\n        /* \"#utility.yul\":17084:17088   */\n      dup2\n        /* \"#utility.yul\":17075:17081   */\n      dup8\n        /* \"#utility.yul\":17067:17073   */\n      dup10\n        /* \"#utility.yul\":17001:17089   */\n      tag_174\n      jump\t// in\n    tag_367:\n        /* \"#utility.yul\":16993:17089   */\n      swap1\n      pop\n        /* \"#utility.yul\":17099:17171   */\n      tag_368\n        /* \"#utility.yul\":17167:17169   */\n      0x20\n        /* \"#utility.yul\":17156:17165   */\n      dup4\n        /* \"#utility.yul\":17152:17170   */\n      add\n        /* \"#utility.yul\":17143:17149   */\n      dup7\n        /* \"#utility.yul\":17099:17171   */\n      tag_162\n      jump\t// in\n    tag_368:\n        /* \"#utility.yul\":17181:17253   */\n      tag_369\n        /* \"#utility.yul\":17249:17251   */\n      0x40\n        /* \"#utility.yul\":17238:17247   */\n      dup4\n        /* \"#utility.yul\":17234:17252   */\n      add\n        /* \"#utility.yul\":17225:17231   */\n      dup6\n        /* \"#utility.yul\":17181:17253   */\n      tag_166\n      jump\t// in\n    tag_369:\n        /* \"#utility.yul\":17263:17335   */\n      tag_370\n        /* \"#utility.yul\":17331:17333   */\n      0x60\n        /* \"#utility.yul\":17320:17329   */\n      dup4\n        /* \"#utility.yul\":17316:17334   */\n      add\n        /* \"#utility.yul\":17307:17313   */\n      dup5\n        /* \"#utility.yul\":17263:17335   */\n      tag_162\n      jump\t// in\n    tag_370:\n        /* \"#utility.yul\":16678:17342   */\n      swap7\n      swap6\n      pop\n      pop\n      pop\n      pop\n      pop\n      pop\n      jump\t// out\n        /* \"#utility.yul\":17348:17528   */\n    tag_180:\n        /* \"#utility.yul\":17396:17473   */\n      0x4e487b7100000000000000000000000000000000000000000000000000000000\n        /* \"#utility.yul\":17393:17394   */\n      0x00\n        /* \"#utility.yul\":17386:17474   */\n      mstore\n        /* \"#utility.yul\":17493:17497   */\n      0x11\n        /* \"#utility.yul\":17490:17491   */\n      0x04\n        /* \"#utility.yul\":17483:17498   */\n      mstore\n        /* \"#utility.yul\":17517:17521   */\n      0x24\n        /* \"#utility.yul\":17514:17515   */\n      0x00\n        /* \"#utility.yul\":17507:17522   */\n      revert\n        /* \"#utility.yul\":17534:17767   */\n    tag_85:\n        /* \"#utility.yul\":17573:17576   */\n      0x00\n        /* \"#utility.yul\":17596:17620   */\n      tag_373\n        /* \"#utility.yul\":17614:17619   */\n      dup3\n        /* \"#utility.yul\":17596:17620   */\n      tag_161\n      jump\t// in\n    tag_373:\n        /* \"#utility.yul\":17587:17620   */\n      swap2\n      pop\n        /* \"#utility.yul\":17642:17708   */\n      0xffffffffffffffffffffffffffffffffffffffffffffffffffffffffffffffff\n        /* \"#utility.yul\":17635:17640   */\n      dup3\n        /* \"#utility.yul\":17632:17709   */\n      sub\n        /* \"#utility.yul\":17629:17732   */\n      tag_374\n      jumpi\n        /* \"#utility.yul\":17712:17730   */\n      tag_375\n      tag_180\n      jump\t// in\n    tag_375:\n        /* \"#utility.yul\":17629:17732   */\n    tag_374:\n        /* \"#utility.yul\":17759:17760   */\n      0x01\n        /* \"#utility.yul\":17752:17757   */\n      dup3\n        /* \"#utility.yul\":17748:17761   */\n      add\n        /* \"#utility.yul\":17741:17761   */\n      swap1\n      pop\n        /* \"#utility.yul\":17534:17767   */\n      swap2\n      swap1\n      pop\n      jump\t// out\n        /* \"#utility.yul\":17773:17872   */\n    tag_181:\n        /* \"#utility.yul\":17825:17831   */\n      0x00\n        /* \"#utility.yul\":17859:17864   */\n      dup2\n        /* \"#utility.yul\":17853:17865   */\n      mload\n        /* \"#utility.yul\":17843:17865   */\n      swap1\n      pop\n        /* \"#utility.yul\":17773:17872   */\n      swap2\n      swap1\n      pop\n      jump\t// out\n        /* \"#utility.yul\":17878:18255   */\n    tag_182:\n        /* \"#utility.yul\":17966:17969   */\n      0x00\n        /* \"#utility.yul\":17994:18033   */\n      tag_378\n        /* \"#utility.yul\":18027:18032   */\n      dup3\n        /* \"#utility.yul\":17994:18033   */\n      tag_181\n      jump\t// in\n    tag_378:\n        /* \"#utility.yul\":18049:18120   */\n      tag_379\n        /* \"#utility.yul\":18113:18119   */\n      dup2\n        /* \"#utility.yul\":18108:18111   */\n      dup6\n        /* \"#utility.yul\":18049:18120   */\n      tag_163\n      jump\t// in\n    tag_379:\n        /* \"#utility.yul\":18042:18120   */\n      swap4\n      pop\n        /* \"#utility.yul\":18129:18194   */\n      tag_380\n        /* \"#utility.yul\":18187:18193   */\n      dup2\n        /* \"#utility.yul\":18182:18185   */\n      dup6\n        /* \"#utility.yul\":18175:18179   */\n      0x20\n        /* \"#utility.yul\":18168:18173   */\n      dup7\n        /* \"#utility.yul\":18164:18180   */\n      add\n        /* \"#utility.yul\":18129:18194   */\n      tag_159\n      jump\t// in\n    tag_380:\n        /* \"#utility.yul\":18219:18248   */\n      tag_381\n        /* \"#utility.yul\":18241:18247   */\n      dup2\n        /* \"#utility.yul\":18219:18248   */\n      tag_149\n      jump\t// in\n    tag_381:\n        /* \"#utility.yul\":18214:18217   */\n      dup5\n        /* \"#utility.yul\":18210:18249   */\n      add\n        /* \"#utility.yul\":18203:18249   */\n      swap2\n      pop\n        /* \"#utility.yul\":17970:18255   */\n      pop\n        /* \"#utility.yul\":17878:18255   */\n      swap3\n      swap2\n      pop\n      pop\n      jump\t// out\n        /* \"#utility.yul\":18261:18574   */\n    tag_93:\n        /* \"#utility.yul\":18374:18378   */\n      0x00\n        /* \"#utility.yul\":18412:18414   */\n      0x20\n        /* \"#utility.yul\":18401:18410   */\n      dup3\n        /* \"#utility.yul\":18397:18415   */\n      add\n        /* \"#utility.yul\":18389:18415   */\n      swap1\n      pop\n        /* \"#utility.yul\":18461:18470   */\n      dup2\n        /* \"#utility.yul\":18455:18459   */\n      dup2\n        /* \"#utility.yul\":18451:18471   */\n      sub\n        /* \"#utility.yul\":18447:18448   */\n      0x00\n        /* \"#utility.yul\":18436:18445   */\n      dup4\n        /* \"#utility.yul\":18432:18449   */\n      add\n        /* \"#utility.yul\":18425:18472   */\n      mstore\n        /* \"#utility.yul\":18489:18567   */\n      tag_383\n        /* \"#utility.yul\":18562:18566   */\n      dup2\n        /* \"#utility.yul\":18553:18559   */\n      dup5\n        /* \"#utility.yul\":18489:18567   */\n      tag_182\n      jump\t// in\n    tag_383:\n        /* \"#utility.yul\":18481:18567   */\n      swap1\n      pop\n        /* \"#utility.yul\":18261:18574   */\n      swap3\n      swap2\n      pop\n      pop\n      jump\t// out\n        /* \"#utility.yul\":18580:18760   */\n    tag_183:\n        /* \"#utility.yul\":18628:18705   */\n      0x4e487b7100000000000000000000000000000000000000000000000000000000\n        /* \"#utility.yul\":18625:18626   */\n      0x00\n        /* \"#utility.yul\":18618:18706   */\n      mstore\n        /* \"#utility.yul\":18725:18729   */\n      0x22\n        /* \"#utility.yul\":18722:18723   */\n      0x04\n        /* \"#utility.yul\":18715:18730   */\n      mstore\n        /* \"#utility.yul\":18749:18753   */\n      0x24\n        /* \"#utility.yul\":18746:18747   */\n      0x00\n        /* \"#utility.yul\":18739:18754   */\n      revert\n        /* \"#utility.yul\":18766:19086   */\n    tag_184:\n        /* \"#utility.yul\":18810:18816   */\n      0x00\n        /* \"#utility.yul\":18847:18848   */\n      0x02\n        /* \"#utility.yul\":18841:18845   */\n      dup3\n        /* \"#utility.yul\":18837:18849   */\n      div\n        /* \"#utility.yul\":18827:18849   */\n      swap1\n      pop\n        /* \"#utility.yul\":18894:18895   */\n      0x01\n        /* \"#utility.yul\":18888:18892   */\n      dup3\n        /* \"#utility.yul\":18884:18896   */\n      and\n        /* \"#utility.yul\":18915:18933   */\n      dup1\n        /* \"#utility.yul\":18905:18986   */\n      tag_386\n      jumpi\n        /* \"#utility.yul\":18971:18975   */\n      0x7f\n        /* \"#utility.yul\":18963:18969   */\n      dup3\n        /* \"#utility.yul\":18959:18976   */\n      and\n        /* \"#utility.yul\":18949:18976   */\n      swap2\n      pop\n        /* \"#utility.yul\":18905:18986   */\n    tag_386:\n        /* \"#utility.yul\":19033:19035   */\n      0x20\n        /* \"#utility.yul\":19025:19031   */\n      dup3\n        /* \"#utility.yul\":19022:19036   */\n      lt\n        /* \"#utility.yul\":19002:19020   */\n      dup2\n        /* \"#utility.yul\":18999:19037   */\n      sub\n        /* \"#utility.yul\":18996:19080   */\n      tag_387\n      jumpi\n        /* \"#utility.yul\":19052:19070   */\n      tag_388\n      tag_183\n      jump\t// in\n    tag_388:\n        /* \"#utility.yul\":18996:19080   */\n    tag_387:\n        /* \"#utility.yul\":18817:19086   */\n      pop\n        /* \"#utility.yul\":18766:19086   */\n      swap2\n      swap1\n      pop\n      jump\t// out\n        /* \"#utility.yul\":19092:19232   */\n    tag_185:\n        /* \"#utility.yul\":19140:19144   */\n      0x00\n        /* \"#utility.yul\":19163:19166   */\n      dup2\n        /* \"#utility.yul\":19155:19166   */\n      swap1\n      pop\n        /* \"#utility.yul\":19186:19189   */\n      dup2\n        /* \"#utility.yul\":19183:19184   */\n      0x00\n        /* \"#utility.yul\":19176:19190   */\n      mstore\n        /* \"#utility.yul\":19220:19224   */\n      0x20\n        /* \"#utility.yul\":19217:19218   */\n      0x00\n        /* \"#utility.yul\":19207:19225   */\n      keccak256\n        /* \"#utility.yul\":19199:19225   */\n      swap1\n      pop\n        /* \"#utility.yul\":19092:19232   */\n      swap2\n      swap1\n      pop\n      jump\t// out\n        /* \"#utility.yul\":19238:19331   */\n    tag_186:\n        /* \"#utility.yul\":19275:19281   */\n      0x00\n        /* \"#utility.yul\":19322:19324   */\n      0x20\n        /* \"#utility.yul\":19317:19319   */\n      0x1f\n        /* \"#utility.yul\":19310:19315   */\n      dup4\n        /* \"#utility.yul\":19306:19320   */\n      add\n        /* \"#utility.yul\":19302:19325   */\n      div\n        /* \"#utility.yul\":19292:19325   */\n      swap1\n      pop\n        /* \"#utility.yul\":19238:19331   */\n      swap2\n      swap1\n      pop\n      jump\t// out\n        /* \"#utility.yul\":19337:19444   */\n    tag_187:\n        /* \"#utility.yul\":19381:19389   */\n      0x00\n        /* \"#utility.yul\":19431:19436   */\n      dup3\n        /* \"#utility.yul\":19425:19429   */\n      dup3\n        /* \"#utility.yul\":19421:19437   */\n      shl\n        /* \"#utility.yul\":19400:19437   */\n      swap1\n      pop\n        /* \"#utility.yul\":19337:19444   */\n      swap3\n      swap2\n      pop\n      pop\n      jump\t// out\n        /* \"#utility.yul\":19450:19843   */\n    tag_188:\n        /* \"#utility.yul\":19519:19525   */\n      0x00\n        /* \"#utility.yul\":19569:19570   */\n      0x08\n        /* \"#utility.yul\":19557:19567   */\n      dup4\n        /* \"#utility.yul\":19553:19571   */\n      mul\n        /* \"#utility.yul\":19592:19689   */\n      tag_393\n        /* \"#utility.yul\":19622:19688   */\n      0xffffffffffffffffffffffffffffffffffffffffffffffffffffffffffffffff\n        /* \"#utility.yul\":19611:19620   */\n      dup3\n        /* \"#utility.yul\":19592:19689   */\n      tag_187\n      jump\t// in\n    tag_393:\n        /* \"#utility.yul\":19710:19749   */\n      tag_394\n        /* \"#utility.yul\":19740:19748   */\n      dup7\n        /* \"#utility.yul\":19729:19738   */\n      dup4\n        /* \"#utility.yul\":19710:19749   */\n      tag_187\n      jump\t// in\n    tag_394:\n        /* \"#utility.yul\":19698:19749   */\n      swap6\n      pop\n        /* \"#utility.yul\":19782:19786   */\n      dup1\n        /* \"#utility.yul\":19778:19787   */\n      not\n        /* \"#utility.yul\":19771:19776   */\n      dup5\n        /* \"#utility.yul\":19767:19788   */\n      and\n        /* \"#utility.yul\":19758:19788   */\n      swap4\n      pop\n        /* \"#utility.yul\":19831:19835   */\n      dup1\n        /* \"#utility.yul\":19821:19829   */\n      dup7\n        /* \"#utility.yul\":19817:19836   */\n      and\n        /* \"#utility.yul\":19810:19815   */\n      dup5\n        /* \"#utility.yul\":19807:19837   */\n      or\n        /* \"#utility.yul\":19797:19837   */\n      swap3\n      pop\n        /* \"#utility.yul\":19526:19843   */\n      pop\n      pop\n        /* \"#utility.yul\":19450:19843   */\n      swap4\n      swap3\n      pop\n      pop\n      pop\n      jump\t// out\n        /* \"#utility.yul\":19849:19909   */\n    tag_189:\n        /* \"#utility.yul\":19877:19880   */\n      0x00\n        /* \"#utility.yul\":19898:19903   */\n      dup2\n        /* \"#utility.yul\":19891:19903   */\n      swap1\n      pop\n        /* \"#utility.yul\":19849:19909   */\n      swap2\n      swap1\n      pop\n      jump\t// out\n        /* \"#utility.yul\":19915:20057   */\n    tag_190:\n        /* \"#utility.yul\":19965:19974   */\n      0x00\n        /* \"#utility.yul\":19998:20051   */\n      tag_397\n        /* \"#utility.yul\":20016:20050   */\n      tag_398\n        /* \"#utility.yul\":20025:20049   */\n      tag_399\n        /* \"#utility.yul\":20043:20048   */\n      dup5\n        /* \"#utility.yul\":20025:20049   */\n      tag_161\n      jump\t// in\n    tag_399:\n        /* \"#utility.yul\":20016:20050   */\n      tag_189\n      jump\t// in\n    tag_398:\n        /* \"#utility.yul\":19998:20051   */\n      tag_161\n      jump\t// in\n    tag_397:\n        /* \"#utility.yul\":19985:20051   */\n      swap1\n      pop\n        /* \"#utility.yul\":19915:20057   */\n      swap2\n      swap1\n      pop\n      jump\t// out\n        /* \"#utility.yul\":20063:20138   */\n    tag_191:\n        /* \"#utility.yul\":20106:20109   */\n      0x00\n        /* \"#utility.yul\":20127:20132   */\n      dup2\n        /* \"#utility.yul\":20120:20132   */\n      swap1\n      pop\n        /* \"#utility.yul\":20063:20138   */\n      swap2\n      swap1\n      pop\n      jump\t// out\n        /* \"#utility.yul\":20144:20413   */\n    tag_192:\n        /* \"#utility.yul\":20254:20293   */\n      tag_402\n        /* \"#utility.yul\":20285:20292   */\n      dup4\n        /* \"#utility.yul\":20254:20293   */\n      tag_190\n      jump\t// in\n    tag_402:\n        /* \"#utility.yul\":20315:20406   */\n      tag_403\n        /* \"#utility.yul\":20364:20405   */\n      tag_404\n        /* \"#utility.yul\":20388:20404   */\n      dup3\n        /* \"#utility.yul\":20364:20405   */\n      tag_191\n      jump\t// in\n    tag_404:\n        /* \"#utility.yul\":20356:20362   */\n      dup5\n        /* \"#utility.yul\":20349:20353   */\n      dup5\n        /* \"#utility.yul\":20343:20354   */\n      sload\n        /* \"#utility.yul\":20315:20406   */\n      tag_188\n      jump\t// in\n    tag_403:\n        /* \"#utility.yul\":20309:20313   */\n      dup3\n        /* \"#utility.yul\":20302:20407   */\n      sstore\n        /* \"#utility.yul\":20220:20413   */\n      pop\n        /* \"#utility.yul\":20144:20413   */\n      pop\n      pop\n      pop\n      jump\t// out\n        /* \"#utility.yul\":20419:20492   */\n    tag_193:\n        /* \"#utility.yul\":20464:20467   */\n      0x00\n        /* \"#utility.yul\":20419:20492   */\n      swap1\n      jump\t// out\n        /* \"#utility.yul\":20498:20687   */\n    tag_194:\n        /* \"#utility.yul\":20575:20607   */\n      tag_407\n      tag_193\n      jump\t// in\n    tag_407:\n        /* \"#utility.yul\":20616:20681   */\n      tag_408\n        /* \"#utility.yul\":20674:20680   */\n      dup2\n        /* \"#utility.yul\":20666:20672   */\n      dup5\n        /* \"#utility.yul\":20660:20664   */\n      dup5\n        /* \"#utility.yul\":20616:20681   */\n      tag_192\n      jump\t// in\n    tag_408:\n        /* \"#utility.yul\":20551:20687   */\n      pop\n        /* \"#utility.yul\":20498:20687   */\n      pop\n      pop\n      jump\t// out\n        /* \"#utility.yul\":20693:20879   */\n    tag_195:\n        /* \"#utility.yul\":20753:20873   */\n    tag_410:\n        /* \"#utility.yul\":20770:20773   */\n      dup2\n        /* \"#utility.yul\":20763:20768   */\n      dup2\n        /* \"#utility.yul\":20760:20774   */\n      lt\n        /* \"#utility.yul\":20753:20873   */\n      iszero\n      tag_412\n      jumpi\n        /* \"#utility.yul\":20824:20863   */\n      tag_413\n        /* \"#utility.yul\":20861:20862   */\n      0x00\n        /* \"#utility.yul\":20854:20859   */\n      dup3\n        /* \"#utility.yul\":20824:20863   */\n      tag_194\n      jump\t// in\n    tag_413:\n        /* \"#utility.yul\":20797:20798   */\n      0x01\n        /* \"#utility.yul\":20790:20795   */\n      dup2\n        /* \"#utility.yul\":20786:20799   */\n      add\n        /* \"#utility.yul\":20777:20799   */\n      swap1\n      pop\n        /* \"#utility.yul\":20753:20873   */\n      jump(tag_410)\n    tag_412:\n        /* \"#utility.yul\":20693:20879   */\n      pop\n      pop\n      jump\t// out\n        /* \"#utility.yul\":20885:21426   */\n    tag_196:\n        /* \"#utility.yul\":20985:20987   */\n      0x1f\n        /* \"#utility.yul\":20980:20983   */\n      dup3\n        /* \"#utility.yul\":20977:20988   */\n      gt\n        /* \"#utility.yul\":20974:21419   */\n      iszero\n      tag_415\n      jumpi\n        /* \"#utility.yul\":21019:21056   */\n      tag_416\n        /* \"#utility.yul\":21050:21055   */\n      dup2\n        /* \"#utility.yul\":21019:21056   */\n      tag_185\n      jump\t// in\n    tag_416:\n        /* \"#utility.yul\":21102:21131   */\n      tag_417\n        /* \"#utility.yul\":21120:21130   */\n      dup5\n        /* \"#utility.yul\":21102:21131   */\n      tag_186\n      jump\t// in\n    tag_417:\n        /* \"#utility.yul\":21092:21100   */\n      dup2\n        /* \"#utility.yul\":21088:21132   */\n      add\n        /* \"#utility.yul\":21285:21287   */\n      0x20\n        /* \"#utility.yul\":21273:21283   */\n      dup6\n        /* \"#utility.yul\":21270:21288   */\n      lt\n        /* \"#utility.yul\":21267:21316   */\n      iszero\n      tag_418\n      jumpi\n        /* \"#utility.yul\":21306:21314   */\n      dup2\n        /* \"#utility.yul\":21291:21314   */\n      swap1\n      pop\n        /* \"#utility.yul\":21267:21316   */\n    tag_418:\n        /* \"#utility.yul\":21329:21409   */\n      tag_419\n        /* \"#utility.yul\":21385:21407   */\n      tag_420\n        /* \"#utility.yul\":21403:21406   */\n      dup6\n        /* \"#utility.yul\":21385:21407   */\n      tag_186\n      jump\t// in\n    tag_420:\n        /* \"#utility.yul\":21375:21383   */\n      dup4\n        /* \"#utility.yul\":21371:21408   */\n      add\n        /* \"#utility.yul\":21358:21369   */\n      dup3\n        /* \"#utility.yul\":21329:21409   */\n      tag_195\n      jump\t// in\n    tag_419:\n        /* \"#utility.yul\":20989:21419   */\n      pop\n      pop\n        /* \"#utility.yul\":20974:21419   */\n    tag_415:\n        /* \"#utility.yul\":20885:21426   */\n      pop\n      pop\n      pop\n      jump\t// out\n        /* \"#utility.yul\":21432:21549   */\n    tag_197:\n        /* \"#utility.yul\":21486:21494   */\n      0x00\n        /* \"#utility.yul\":21536:21541   */\n      dup3\n        /* \"#utility.yul\":21530:21534   */\n      dup3\n        /* \"#utility.yul\":21526:21542   */\n      shr\n        /* \"#utility.yul\":21505:21542   */\n      swap1\n      pop\n        /* \"#utility.yul\":21432:21549   */\n      swap3\n      swap2\n      pop\n      pop\n      jump\t// out\n        /* \"#utility.yul\":21555:21724   */\n    tag_198:\n        /* \"#utility.yul\":21599:21605   */\n      0x00\n        /* \"#utility.yul\":21632:21683   */\n      tag_423\n        /* \"#utility.yul\":21680:21681   */\n      0x00\n        /* \"#utility.yul\":21676:21682   */\n      not\n        /* \"#utility.yul\":21668:21673   */\n      dup5\n        /* \"#utility.yul\":21665:21666   */\n      0x08\n        /* \"#utility.yul\":21661:21674   */\n      mul\n        /* \"#utility.yul\":21632:21683   */\n      tag_197\n      jump\t// in\n    tag_423:\n        /* \"#utility.yul\":21628:21684   */\n      not\n        /* \"#utility.yul\":21713:21717   */\n      dup1\n        /* \"#utility.yul\":21707:21711   */\n      dup4\n        /* \"#utility.yul\":21703:21718   */\n      and\n        /* \"#utility.yul\":21693:21718   */\n      swap2\n      pop\n        /* \"#utility.yul\":21606:21724   */\n      pop\n        /* \"#utility.yul\":21555:21724   */\n      swap3\n      swap2\n      pop\n      pop\n      jump\t// out\n        /* \"#utility.yul\":21729:22024   */\n    tag_199:\n        /* \"#utility.yul\":21805:21809   */\n      0x00\n        /* \"#utility.yul\":21951:21980   */\n      tag_425\n        /* \"#utility.yul\":21976:21979   */\n      dup4\n        /* \"#utility.yul\":21970:21974   */\n      dup4\n        /* \"#utility.yul\":21951:21980   */\n      tag_198\n      jump\t// in\n    tag_425:\n        /* \"#utility.yul\":21943:21980   */\n      swap2\n      pop\n        /* \"#utility.yul\":22013:22016   */\n      dup3\n        /* \"#utility.yul\":22010:22011   */\n      0x02\n        /* \"#utility.yul\":22006:22017   */\n      mul\n        /* \"#utility.yul\":22000:22004   */\n      dup3\n        /* \"#utility.yul\":21997:22018   */\n      or\n        /* \"#utility.yul\":21989:22018   */\n      swap1\n      pop\n        /* \"#utility.yul\":21729:22024   */\n      swap3\n      swap2\n      pop\n      pop\n      jump\t// out\n        /* \"#utility.yul\":22029:23419   */\n    tag_98:\n        /* \"#utility.yul\":22144:22180   */\n      tag_427\n        /* \"#utility.yul\":22176:22179   */\n      dup3\n        /* \"#utility.yul\":22144:22180   */\n      tag_157\n      jump\t// in\n    tag_427:\n        /* \"#utility.yul\":22245:22263   */\n      0xffffffffffffffff\n        /* \"#utility.yul\":22237:22243   */\n      dup2\n        /* \"#utility.yul\":22234:22264   */\n      gt\n        /* \"#utility.yul\":22231:22287   */\n      iszero\n      tag_428\n      jumpi\n        /* \"#utility.yul\":22267:22285   */\n      tag_429\n      tag_150\n      jump\t// in\n    tag_429:\n        /* \"#utility.yul\":22231:22287   */\n    tag_428:\n        /* \"#utility.yul\":22311:22349   */\n      tag_430\n        /* \"#utility.yul\":22343:22347   */\n      dup3\n        /* \"#utility.yul\":22337:22348   */\n      sload\n        /* \"#utility.yul\":22311:22349   */\n      tag_184\n      jump\t// in\n    tag_430:\n        /* \"#utility.yul\":22396:22462   */\n      tag_431\n        /* \"#utility.yul\":22455:22461   */\n      dup3\n        /* \"#utility.yul\":22447:22453   */\n      dup3\n        /* \"#utility.yul\":22441:22445   */\n      dup6\n        /* \"#utility.yul\":22396:22462   */\n      tag_196\n      jump\t// in\n    tag_431:\n        /* \"#utility.yul\":22489:22490   */\n      0x00\n        /* \"#utility.yul\":22513:22517   */\n      0x20\n        /* \"#utility.yul\":22500:22517   */\n      swap1\n      pop\n        /* \"#utility.yul\":22545:22547   */\n      0x1f\n        /* \"#utility.yul\":22537:22543   */\n      dup4\n        /* \"#utility.yul\":22534:22548   */\n      gt\n        /* \"#utility.yul\":22562:22563   */\n      0x01\n        /* \"#utility.yul\":22557:23174   */\n      dup2\n      eq\n      tag_433\n      jumpi\n        /* \"#utility.yul\":23218:23219   */\n      0x00\n        /* \"#utility.yul\":23235:23241   */\n      dup5\n        /* \"#utility.yul\":23232:23309   */\n      iszero\n      tag_434\n      jumpi\n        /* \"#utility.yul\":23284:23293   */\n      dup3\n        /* \"#utility.yul\":23279:23282   */\n      dup8\n        /* \"#utility.yul\":23275:23294   */\n      add\n        /* \"#utility.yul\":23269:23295   */\n      mload\n        /* \"#utility.yul\":23260:23295   */\n      swap1\n      pop\n        /* \"#utility.yul\":23232:23309   */\n    tag_434:\n        /* \"#utility.yul\":23335:23402   */\n      tag_435\n        /* \"#utility.yul\":23395:23401   */\n      dup6\n        /* \"#utility.yul\":23388:23393   */\n      dup3\n        /* \"#utility.yul\":23335:23402   */\n      tag_199\n      jump\t// in\n    tag_435:\n        /* \"#utility.yul\":23329:23333   */\n      dup7\n        /* \"#utility.yul\":23322:23403   */\n      sstore\n        /* \"#utility.yul\":23191:23413   */\n      pop\n        /* \"#utility.yul\":22527:23413   */\n      jump(tag_432)\n        /* \"#utility.yul\":22557:23174   */\n    tag_433:\n        /* \"#utility.yul\":22609:22613   */\n      0x1f\n        /* \"#utility.yul\":22605:22614   */\n      not\n        /* \"#utility.yul\":22597:22603   */\n      dup5\n        /* \"#utility.yul\":22593:22615   */\n      and\n        /* \"#utility.yul\":22643:22679   */\n      tag_436\n        /* \"#utility.yul\":22674:22678   */\n      dup7\n        /* \"#utility.yul\":22643:22679   */\n      tag_185\n      jump\t// in\n    tag_436:\n        /* \"#utility.yul\":22701:22702   */\n      0x00\n        /* \"#utility.yul\":22715:22923   */\n    tag_437:\n        /* \"#utility.yul\":22729:22736   */\n      dup3\n        /* \"#utility.yul\":22726:22727   */\n      dup2\n        /* \"#utility.yul\":22723:22737   */\n      lt\n        /* \"#utility.yul\":22715:22923   */\n      iszero\n      tag_439\n      jumpi\n        /* \"#utility.yul\":22808:22817   */\n      dup5\n        /* \"#utility.yul\":22803:22806   */\n      dup10\n        /* \"#utility.yul\":22799:22818   */\n      add\n        /* \"#utility.yul\":22793:22819   */\n      mload\n        /* \"#utility.yul\":22785:22791   */\n      dup3\n        /* \"#utility.yul\":22778:22820   */\n      sstore\n        /* \"#utility.yul\":22859:22860   */\n      0x01\n        /* \"#utility.yul\":22851:22857   */\n      dup3\n        /* \"#utility.yul\":22847:22861   */\n      add\n        /* \"#utility.yul\":22837:22861   */\n      swap2\n      pop\n        /* \"#utility.yul\":22906:22908   */\n      0x20\n        /* \"#utility.yul\":22895:22904   */\n      dup6\n        /* \"#utility.yul\":22891:22909   */\n      add\n        /* \"#utility.yul\":22878:22909   */\n      swap5\n      pop\n        /* \"#utility.yul\":22752:22756   */\n      0x20\n        /* \"#utility.yul\":22749:22750   */\n      dup2\n        /* \"#utility.yul\":22745:22757   */\n      add\n        /* \"#utility.yul\":22740:22757   */\n      swap1\n      pop\n        /* \"#utility.yul\":22715:22923   */\n      jump(tag_437)\n    tag_439:\n        /* \"#utility.yul\":22951:22957   */\n      dup7\n        /* \"#utility.yul\":22942:22949   */\n      dup4\n        /* \"#utility.yul\":22939:22958   */\n      lt\n        /* \"#utility.yul\":22936:23115   */\n      iszero\n      tag_440\n      jumpi\n        /* \"#utility.yul\":23009:23018   */\n      dup5\n        /* \"#utility.yul\":23004:23007   */\n      dup10\n        /* \"#utility.yul\":23000:23019   */\n      add\n        /* \"#utility.yul\":22994:23020   */\n      mload\n        /* \"#utility.yul\":23052:23100   */\n      tag_441\n        /* \"#utility.yul\":23094:23098   */\n      0x1f\n        /* \"#utility.yul\":23086:23092   */\n      dup10\n        /* \"#utility.yul\":23082:23099   */\n      and\n        /* \"#utility.yul\":23071:23080   */\n      dup3\n        /* \"#utility.yul\":23052:23100   */\n      tag_198\n      jump\t// in\n    tag_441:\n        /* \"#utility.yul\":23044:23050   */\n      dup4\n        /* \"#utility.yul\":23037:23101   */\n      sstore\n        /* \"#utility.yul\":22959:23115   */\n      pop\n        /* \"#utility.yul\":22936:23115   */\n    tag_440:\n        /* \"#utility.yul\":23161:23162   */\n      0x01\n        /* \"#utility.yul\":23157:23158   */\n      0x02\n        /* \"#utility.yul\":23149:23155   */\n      dup9\n        /* \"#utility.yul\":23145:23159   */\n      mul\n        /* \"#utility.yul\":23141:23163   */\n      add\n        /* \"#utility.yul\":23135:23139   */\n      dup9\n        /* \"#utility.yul\":23128:23164   */\n      sstore\n        /* \"#utility.yul\":22564:23174   */\n      pop\n      pop\n      pop\n        /* \"#utility.yul\":22527:23413   */\n    tag_432:\n      pop\n        /* \"#utility.yul\":22119:23419   */\n      pop\n      pop\n      pop\n        /* \"#utility.yul\":22029:23419   */\n      pop\n      pop\n      jump\t// out\n        /* \"#utility.yul\":23425:23511   */\n    tag_200:\n        /* \"#utility.yul\":23460:23467   */\n      0x00\n        /* \"#utility.yul\":23500:23504   */\n      0xff\n        /* \"#utility.yul\":23493:23498   */\n      dup3\n        /* \"#utility.yul\":23489:23505   */\n      and\n        /* \"#utility.yul\":23478:23505   */\n      swap1\n      pop\n        /* \"#utility.yul\":23425:23511   */\n      swap2\n      swap1\n      pop\n      jump\t// out\n        /* \"#utility.yul\":23517:23708   */\n    tag_133:\n        /* \"#utility.yul\":23555:23559   */\n      0x00\n        /* \"#utility.yul\":23575:23593   */\n      tag_444\n        /* \"#utility.yul\":23591:23592   */\n      dup3\n        /* \"#utility.yul\":23575:23593   */\n      tag_200\n      jump\t// in\n    tag_444:\n        /* \"#utility.yul\":23570:23593   */\n      swap2\n      pop\n        /* \"#utility.yul\":23607:23625   */\n      tag_445\n        /* \"#utility.yul\":23623:23624   */\n      dup4\n        /* \"#utility.yul\":23607:23625   */\n      tag_200\n      jump\t// in\n    tag_445:\n        /* \"#utility.yul\":23602:23625   */\n      swap3\n      pop\n        /* \"#utility.yul\":23649:23650   */\n      dup3\n        /* \"#utility.yul\":23646:23647   */\n      dup3\n        /* \"#utility.yul\":23642:23651   */\n      sub\n        /* \"#utility.yul\":23634:23651   */\n      swap1\n      pop\n        /* \"#utility.yul\":23673:23677   */\n      0xff\n        /* \"#utility.yul\":23667:23671   */\n      dup2\n        /* \"#utility.yul\":23664:23678   */\n      gt\n        /* \"#utility.yul\":23661:23701   */\n      iszero\n      tag_446\n      jumpi\n        /* \"#utility.yul\":23681:23699   */\n      tag_447\n      tag_180\n      jump\t// in\n    tag_447:\n        /* \"#utility.yul\":23661:23701   */\n    tag_446:\n        /* \"#utility.yul\":23517:23708   */\n      swap3\n      swap2\n      pop\n      pop\n      jump\t// out\n\n    auxdata: 0xa264697066735822122098a601b87b34cd1c82e7bdd30838ecbf91ea65bdde0248457e33f5b5219d376664736f6c63430008120033\n}\n",
				"bytecode": {
					"linkReferences": {},
					"object": "608060405234801561001057600080fd5b506116f5806100206000396000f3fe608060405234801561001057600080fd5b506004361061007d5760003560e01c8063832427da1161005b578063832427da146100ea57806394a72f1c14610106578063b55bfc6f14610136578063fe2c6198146101525761007d565b80635c60896d14610082578063658bdb2e1461009e578063734bc659146100ce575b600080fd5b61009c60048036038101906100979190610a3a565b610182565b005b6100b860048036038101906100b39190610a3a565b61028f565b6040516100c59190610a82565b60405180910390f35b6100e860048036038101906100e39190610b58565b6102e7565b005b61010460048036038101906100ff9190610d1a565b610579565b005b610120600480360381019061011b9190610d1a565b610682565b60405161012d9190610de2565b60405180910390f35b610150600480360381019061014b9190610a3a565b610694565b005b61016c60048036038101906101679190610d1a565b6107a2565b6040516101799190610e1d565b60405180910390f35b61018a61084a565b73ffffffffffffffffffffffffffffffffffffffff163373ffffffffffffffffffffffffffffffffffffffff16146101f7576040517f08c379a00000000000000000000000000000000000000000000000000000000081526004016101ee90610ebb565b60405180910390fd5b60008060010160008373ffffffffffffffffffffffffffffffffffffffff1673ffffffffffffffffffffffffffffffffffffffff16815260200190815260200160002060006101000a81548160ff0219169083151502179055507fb3d5aa2917b85a4687df1a925388b77def36a6b799246cdd492b4fd402c6be7b81334260405161028493929190610eea565b60405180910390a150565b60008060010160008373ffffffffffffffffffffffffffffffffffffffff1673ffffffffffffffffffffffffffffffffffffffff16815260200190815260200160002060009054906101000a900460ff169050919050565b600060010160003373ffffffffffffffffffffffffffffffffffffffff1673ffffffffffffffffffffffffffffffffffffffff16815260200190815260200160002060009054906101000a900460ff16610376576040517f08c379a000000000000000000000000000000000000000000000000000000000815260040161036d90610f93565b60405180910390fd5b8181905084849050146103be576040517f08c379a00000000000000000000000000000000000000000000000000000000081526004016103b590611025565b60405180910390fd5b60005b8484905081101561053b578484828181106103df576103de611045565b5b90506020020135600080013073ffffffffffffffffffffffffffffffffffffffff166394a72f1c86868681811061041957610418611045565b5b905060200281019061042b9190611083565b6040518363ffffffff1660e01b8152600401610448929190611113565b600060405180830381865afa158015610465573d6000803e3d6000fd5b505050506040513d6000823e3d601f19601f8201168201806040525081019061048e91906111d8565b60405161049b919061125d565b9081526020016040518091039020819055507f89186bbd353809bcc0aa77843d6ea72e488b7fd552bfe5afb4006dc6cd6fe6a38383838181106104e1576104e0611045565b5b90506020028101906104f39190611083565b87878581811061050657610505611045565b5b905060200201353342604051610520959493929190611274565b60405180910390a18080610533906112f1565b9150506103c1565b507fbad13593cf14db38c871d023e850302b404aef491d5e3f41ab7aebaafab6ecda4260405161056b9190610e1d565b60405180910390a150505050565b61058161084a565b73ffffffffffffffffffffffffffffffffffffffff163373ffffffffffffffffffffffffffffffffffffffff16146105ee576040517f08c379a00000000000000000000000000000000000000000000000000000000081526004016105e590610ebb565b60405180910390fd5b3073ffffffffffffffffffffffffffffffffffffffff166394a72f1c826040518263ffffffff1660e01b8152600401610627919061137d565b600060405180830381865afa158015610644573d6000803e3d6000fd5b505050506040513d6000823e3d601f19601f8201168201806040525081019061066d91906111d8565b6000600601908161067e91906115ab565b5050565b606061068d8261087d565b9050919050565b61069c61084a565b73ffffffffffffffffffffffffffffffffffffffff163373ffffffffffffffffffffffffffffffffffffffff1614610709576040517f08c379a000000000000000000000000000000000000000000000000000000000815260040161070090610ebb565b60405180910390fd5b6001600060010160008373ffffffffffffffffffffffffffffffffffffffff1673ffffffffffffffffffffffffffffffffffffffff16815260200190815260200160002060006101000a81548160ff0219169083151502179055507f9f47004a8a67ae0ede102ae657402045a03474bf00cf7e14f62cdbdc5af9c54781334260405161079793929190610eea565b60405180910390a150565b6000806000013073ffffffffffffffffffffffffffffffffffffffff166394a72f1c846040518263ffffffff1660e01b81526004016107e1919061137d565b600060405180830381865afa1580156107fe573d6000803e3d6000fd5b505050506040513d6000823e3d601f19601f8201168201806040525081019061082791906111d8565b604051610834919061125d565b9081526020016040518091039020549050919050565b6000610854610915565b60030160009054906101000a900473ffffffffffffffffffffffffffffffffffffffff16905090565b6060600082905060005b815181101561090b576108b68282815181106108a6576108a5611045565b5b602001015160f81c60f81b610942565b8282815181106108c9576108c8611045565b5b60200101907effffffffffffffffffffffffffffffffffffffffffffffffffffffffffffff1916908160001a9053508080610903906112f1565b915050610887565b5080915050919050565b6000807fc8fcad8db84d3cc18b4c41d551ea0ee66dd599cde068d998e57d5e09332c131c90508091505090565b6000606160f81b827effffffffffffffffffffffffffffffffffffffffffffffffffffffffffffff1916101580156109a05750607a60f81b827effffffffffffffffffffffffffffffffffffffffffffffffffffffffffffff191611155b156109bf5760208260f81c6109b5919061168a565b60f81b90506109c3565b8190505b919050565b6000604051905090565b600080fd5b600080fd5b600073ffffffffffffffffffffffffffffffffffffffff82169050919050565b6000610a07826109dc565b9050919050565b610a17816109fc565b8114610a2257600080fd5b50565b600081359050610a3481610a0e565b92915050565b600060208284031215610a5057610a4f6109d2565b5b6000610a5e84828501610a25565b91505092915050565b60008115159050919050565b610a7c81610a67565b82525050565b6000602082019050610a976000830184610a73565b92915050565b600080fd5b600080fd5b600080fd5b60008083601f840112610ac257610ac1610a9d565b5b8235905067ffffffffffffffff811115610adf57610ade610aa2565b5b602083019150836020820283011115610afb57610afa610aa7565b5b9250929050565b60008083601f840112610b1857610b17610a9d565b5b8235905067ffffffffffffffff811115610b3557610b34610aa2565b5b602083019150836020820283011115610b5157610b50610aa7565b5b9250929050565b60008060008060408587031215610b7257610b716109d2565b5b600085013567ffffffffffffffff811115610b9057610b8f6109d7565b5b610b9c87828801610aac565b9450945050602085013567ffffffffffffffff811115610bbf57610bbe6109d7565b5b610bcb87828801610b02565b925092505092959194509250565b600080fd5b6000601f19601f8301169050919050565b7f4e487b7100000000000000000000000000000000000000000000000000000000600052604160045260246000fd5b610c2782610bde565b810181811067ffffffffffffffff82111715610c4657610c45610bef565b5b80604052505050565b6000610c596109c8565b9050610c658282610c1e565b919050565b600067ffffffffffffffff821115610c8557610c84610bef565b5b610c8e82610bde565b9050602081019050919050565b82818337600083830152505050565b6000610cbd610cb884610c6a565b610c4f565b905082815260208101848484011115610cd957610cd8610bd9565b5b610ce4848285610c9b565b509392505050565b600082601f830112610d0157610d00610a9d565b5b8135610d11848260208601610caa565b91505092915050565b600060208284031215610d3057610d2f6109d2565b5b600082013567ffffffffffffffff811115610d4e57610d4d6109d7565b5b610d5a84828501610cec565b91505092915050565b600081519050919050565b600082825260208201905092915050565b60005b83811015610d9d578082015181840152602081019050610d82565b60008484015250505050565b6000610db482610d63565b610dbe8185610d6e565b9350610dce818560208601610d7f565b610dd781610bde565b840191505092915050565b60006020820190508181036000830152610dfc8184610da9565b905092915050565b6000819050919050565b610e1781610e04565b82525050565b6000602082019050610e326000830184610e0e565b92915050565b600082825260208201905092915050565b7f4163636573732064656e6965642c204f6e6c79206f776e657220697320616c6c60008201527f6f77656421000000000000000000000000000000000000000000000000000000602082015250565b6000610ea5602583610e38565b9150610eb082610e49565b604082019050919050565b60006020820190508181036000830152610ed481610e98565b9050919050565b610ee4816109fc565b82525050565b6000606082019050610eff6000830186610edb565b610f0c6020830185610edb565b610f196040830184610e0e565b949350505050565b7f4163636573732064656e6965642e204f6e6c792050797468696120697320616c60008201527f6c6f776564210000000000000000000000000000000000000000000000000000602082015250565b6000610f7d602683610e38565b9150610f8882610f21565b604082019050919050565b60006020820190508181036000830152610fac81610f70565b9050919050565b7f50726963657320616e64207469636b657273206d757374206265206f6620657160008201527f75616c206c656e67746800000000000000000000000000000000000000000000602082015250565b600061100f602a83610e38565b915061101a82610fb3565b604082019050919050565b6000602082019050818103600083015261103e81611002565b9050919050565b7f4e487b7100000000000000000000000000000000000000000000000000000000600052603260045260246000fd5b600080fd5b600080fd5b600080fd5b600080833560016020038436030381126110a05761109f611074565b5b80840192508235915067ffffffffffffffff8211156110c2576110c1611079565b5b6020830192506001820236038313156110de576110dd61107e565b5b509250929050565b60006110f28385610e38565b93506110ff838584610c9b565b61110883610bde565b840190509392505050565b6000602082019050818103600083015261112e8184866110e6565b90509392505050565b600067ffffffffffffffff82111561115257611151610bef565b5b61115b82610bde565b9050602081019050919050565b600061117b61117684611137565b610c4f565b90508281526020810184848401111561119757611196610bd9565b5b6111a2848285610d7f565b509392505050565b600082601f8301126111bf576111be610a9d565b5b81516111cf848260208601611168565b91505092915050565b6000602082840312156111ee576111ed6109d2565b5b600082015167ffffffffffffffff81111561120c5761120b6109d7565b5b611218848285016111aa565b91505092915050565b600081905092915050565b600061123782610d63565b6112418185611221565b9350611251818560208601610d7f565b80840191505092915050565b6000611269828461122c565b915081905092915050565b6000608082019050818103600083015261128f8187896110e6565b905061129e6020830186610e0e565b6112ab6040830185610edb565b6112b86060830184610e0e565b9695505050505050565b7f4e487b7100000000000000000000000000000000000000000000000000000000600052601160045260246000fd5b60006112fc82610e04565b91507fffffffffffffffffffffffffffffffffffffffffffffffffffffffffffffffff820361132e5761132d6112c2565b5b600182019050919050565b600081519050919050565b600061134f82611339565b6113598185610e38565b9350611369818560208601610d7f565b61137281610bde565b840191505092915050565b600060208201905081810360008301526113978184611344565b905092915050565b7f4e487b7100000000000000000000000000000000000000000000000000000000600052602260045260246000fd5b600060028204905060018216806113e657607f821691505b6020821081036113f9576113f861139f565b5b50919050565b60008190508160005260206000209050919050565b60006020601f8301049050919050565b600082821b905092915050565b6000600883026114617fffffffffffffffffffffffffffffffffffffffffffffffffffffffffffffffff82611424565b61146b8683611424565b95508019841693508086168417925050509392505050565b6000819050919050565b60006114a86114a361149e84610e04565b611483565b610e04565b9050919050565b6000819050919050565b6114c28361148d565b6114d66114ce826114af565b848454611431565b825550505050565b600090565b6114eb6114de565b6114f68184846114b9565b505050565b5b8181101561151a5761150f6000826114e3565b6001810190506114fc565b5050565b601f82111561155f57611530816113ff565b61153984611414565b81016020851015611548578190505b61155c61155485611414565b8301826114fb565b50505b505050565b600082821c905092915050565b600061158260001984600802611564565b1980831691505092915050565b600061159b8383611571565b9150826002028217905092915050565b6115b482610d63565b67ffffffffffffffff8111156115cd576115cc610bef565b5b6115d782546113ce565b6115e282828561151e565b600060209050601f8311600181146116155760008415611603578287015190505b61160d858261158f565b865550611675565b601f198416611623866113ff565b60005b8281101561164b57848901518255600182019150602085019450602081019050611626565b868310156116685784890151611664601f891682611571565b8355505b6001600288020188555050505b505050505050565b600060ff82169050919050565b60006116958261167d565b91506116a08361167d565b9250828203905060ff8111156116b9576116b86112c2565b5b9291505056fea264697066735822122098a601b87b34cd1c82e7bdd30838ecbf91ea65bdde0248457e33f5b5219d376664736f6c63430008120033",
					"opcodes": "PUSH1 0x80 PUSH1 0x40 MSTORE CALLVALUE DUP1 ISZERO PUSH2 0x10 JUMPI PUSH1 0x0 DUP1 REVERT JUMPDEST POP PUSH2 0x16F5 DUP1 PUSH2 0x20 PUSH1 0x0 CODECOPY PUSH1 0x0 RETURN INVALID PUSH1 0x80 PUSH1 0x40 MSTORE CALLVALUE DUP1 ISZERO PUSH2 0x10 JUMPI PUSH1 0x0 DUP1 REVERT JUMPDEST POP PUSH1 0x4 CALLDATASIZE LT PUSH2 0x7D JUMPI PUSH1 0x0 CALLDATALOAD PUSH1 0xE0 SHR DUP1 PUSH4 0x832427DA GT PUSH2 0x5B JUMPI DUP1 PUSH4 0x832427DA EQ PUSH2 0xEA JUMPI DUP1 PUSH4 0x94A72F1C EQ PUSH2 0x106 JUMPI DUP1 PUSH4 0xB55BFC6F EQ PUSH2 0x136 JUMPI DUP1 PUSH4 0xFE2C6198 EQ PUSH2 0x152 JUMPI PUSH2 0x7D JUMP JUMPDEST DUP1 PUSH4 0x5C60896D EQ PUSH2 0x82 JUMPI DUP1 PUSH4 0x658BDB2E EQ PUSH2 0x9E JUMPI DUP1 PUSH4 0x734BC659 EQ PUSH2 0xCE JUMPI JUMPDEST PUSH1 0x0 DUP1 REVERT JUMPDEST PUSH2 0x9C PUSH1 0x4 DUP1 CALLDATASIZE SUB DUP2 ADD SWAP1 PUSH2 0x97 SWAP2 SWAP1 PUSH2 0xA3A JUMP JUMPDEST PUSH2 0x182 JUMP JUMPDEST STOP JUMPDEST PUSH2 0xB8 PUSH1 0x4 DUP1 CALLDATASIZE SUB DUP2 ADD SWAP1 PUSH2 0xB3 SWAP2 SWAP1 PUSH2 0xA3A JUMP JUMPDEST PUSH2 0x28F JUMP JUMPDEST PUSH1 0x40 MLOAD PUSH2 0xC5 SWAP2 SWAP1 PUSH2 0xA82 JUMP JUMPDEST PUSH1 0x40 MLOAD DUP1 SWAP2 SUB SWAP1 RETURN JUMPDEST PUSH2 0xE8 PUSH1 0x4 DUP1 CALLDATASIZE SUB DUP2 ADD SWAP1 PUSH2 0xE3 SWAP2 SWAP1 PUSH2 0xB58 JUMP JUMPDEST PUSH2 0x2E7 JUMP JUMPDEST STOP JUMPDEST PUSH2 0x104 PUSH1 0x4 DUP1 CALLDATASIZE SUB DUP2 ADD SWAP1 PUSH2 0xFF SWAP2 SWAP1 PUSH2 0xD1A JUMP JUMPDEST PUSH2 0x579 JUMP JUMPDEST STOP JUMPDEST PUSH2 0x120 PUSH1 0x4 DUP1 CALLDATASIZE SUB DUP2 ADD SWAP1 PUSH2 0x11B SWAP2 SWAP1 PUSH2 0xD1A JUMP JUMPDEST PUSH2 0x682 JUMP JUMPDEST PUSH1 0x40 MLOAD PUSH2 0x12D SWAP2 SWAP1 PUSH2 0xDE2 JUMP JUMPDEST PUSH1 0x40 MLOAD DUP1 SWAP2 SUB SWAP1 RETURN JUMPDEST PUSH2 0x150 PUSH1 0x4 DUP1 CALLDATASIZE SUB DUP2 ADD SWAP1 PUSH2 0x14B SWAP2 SWAP1 PUSH2 0xA3A JUMP JUMPDEST PUSH2 0x694 JUMP JUMPDEST STOP JUMPDEST PUSH2 0x16C PUSH1 0x4 DUP1 CALLDATASIZE SUB DUP2 ADD SWAP1 PUSH2 0x167 SWAP2 SWAP1 PUSH2 0xD1A JUMP JUMPDEST PUSH2 0x7A2 JUMP JUMPDEST PUSH1 0x40 MLOAD PUSH2 0x179 SWAP2 SWAP1 PUSH2 0xE1D JUMP JUMPDEST PUSH1 0x40 MLOAD DUP1 SWAP2 SUB SWAP1 RETURN JUMPDEST PUSH2 0x18A PUSH2 0x84A JUMP JUMPDEST PUSH20 0xFFFFFFFFFFFFFFFFFFFFFFFFFFFFFFFFFFFFFFFF AND CALLER PUSH20 0xFFFFFFFFFFFFFFFFFFFFFFFFFFFFFFFFFFFFFFFF AND EQ PUSH2 0x1F7 JUMPI PUSH1 0x40 MLOAD PUSH32 0x8C379A000000000000000000000000000000000000000000000000000000000 DUP2 MSTORE PUSH1 0x4 ADD PUSH2 0x1EE SWAP1 PUSH2 0xEBB JUMP JUMPDEST PUSH1 0x40 MLOAD DUP1 SWAP2 SUB SWAP1 REVERT JUMPDEST PUSH1 0x0 DUP1 PUSH1 0x1 ADD PUSH1 0x0 DUP4 PUSH20 0xFFFFFFFFFFFFFFFFFFFFFFFFFFFFFFFFFFFFFFFF AND PUSH20 0xFFFFFFFFFFFFFFFFFFFFFFFFFFFFFFFFFFFFFFFF AND DUP2 MSTORE PUSH1 0x20 ADD SWAP1 DUP2 MSTORE PUSH1 0x20 ADD PUSH1 0x0 KECCAK256 PUSH1 0x0 PUSH2 0x100 EXP DUP2 SLOAD DUP2 PUSH1 0xFF MUL NOT AND SWAP1 DUP4 ISZERO ISZERO MUL OR SWAP1 SSTORE POP PUSH32 0xB3D5AA2917B85A4687DF1A925388B77DEF36A6B799246CDD492B4FD402C6BE7B DUP2 CALLER TIMESTAMP PUSH1 0x40 MLOAD PUSH2 0x284 SWAP4 SWAP3 SWAP2 SWAP1 PUSH2 0xEEA JUMP JUMPDEST PUSH1 0x40 MLOAD DUP1 SWAP2 SUB SWAP1 LOG1 POP JUMP JUMPDEST PUSH1 0x0 DUP1 PUSH1 0x1 ADD PUSH1 0x0 DUP4 PUSH20 0xFFFFFFFFFFFFFFFFFFFFFFFFFFFFFFFFFFFFFFFF AND PUSH20 0xFFFFFFFFFFFFFFFFFFFFFFFFFFFFFFFFFFFFFFFF AND DUP2 MSTORE PUSH1 0x20 ADD SWAP1 DUP2 MSTORE PUSH1 0x20 ADD PUSH1 0x0 KECCAK256 PUSH1 0x0 SWAP1 SLOAD SWAP1 PUSH2 0x100 EXP SWAP1 DIV PUSH1 0xFF AND SWAP1 POP SWAP2 SWAP1 POP JUMP JUMPDEST PUSH1 0x0 PUSH1 0x1 ADD PUSH1 0x0 CALLER PUSH20 0xFFFFFFFFFFFFFFFFFFFFFFFFFFFFFFFFFFFFFFFF AND PUSH20 0xFFFFFFFFFFFFFFFFFFFFFFFFFFFFFFFFFFFFFFFF AND DUP2 MSTORE PUSH1 0x20 ADD SWAP1 DUP2 MSTORE PUSH1 0x20 ADD PUSH1 0x0 KECCAK256 PUSH1 0x0 SWAP1 SLOAD SWAP1 PUSH2 0x100 EXP SWAP1 DIV PUSH1 0xFF AND PUSH2 0x376 JUMPI PUSH1 0x40 MLOAD PUSH32 0x8C379A000000000000000000000000000000000000000000000000000000000 DUP2 MSTORE PUSH1 0x4 ADD PUSH2 0x36D SWAP1 PUSH2 0xF93 JUMP JUMPDEST PUSH1 0x40 MLOAD DUP1 SWAP2 SUB SWAP1 REVERT JUMPDEST DUP2 DUP2 SWAP1 POP DUP5 DUP5 SWAP1 POP EQ PUSH2 0x3BE JUMPI PUSH1 0x40 MLOAD PUSH32 0x8C379A000000000000000000000000000000000000000000000000000000000 DUP2 MSTORE PUSH1 0x4 ADD PUSH2 0x3B5 SWAP1 PUSH2 0x1025 JUMP JUMPDEST PUSH1 0x40 MLOAD DUP1 SWAP2 SUB SWAP1 REVERT JUMPDEST PUSH1 0x0 JUMPDEST DUP5 DUP5 SWAP1 POP DUP2 LT ISZERO PUSH2 0x53B JUMPI DUP5 DUP5 DUP3 DUP2 DUP2 LT PUSH2 0x3DF JUMPI PUSH2 0x3DE PUSH2 0x1045 JUMP JUMPDEST JUMPDEST SWAP1 POP PUSH1 0x20 MUL ADD CALLDATALOAD PUSH1 0x0 DUP1 ADD ADDRESS PUSH20 0xFFFFFFFFFFFFFFFFFFFFFFFFFFFFFFFFFFFFFFFF AND PUSH4 0x94A72F1C DUP7 DUP7 DUP7 DUP2 DUP2 LT PUSH2 0x419 JUMPI PUSH2 0x418 PUSH2 0x1045 JUMP JUMPDEST JUMPDEST SWAP1 POP PUSH1 0x20 MUL DUP2 ADD SWAP1 PUSH2 0x42B SWAP2 SWAP1 PUSH2 0x1083 JUMP JUMPDEST PUSH1 0x40 MLOAD DUP4 PUSH4 0xFFFFFFFF AND PUSH1 0xE0 SHL DUP2 MSTORE PUSH1 0x4 ADD PUSH2 0x448 SWAP3 SWAP2 SWAP1 PUSH2 0x1113 JUMP JUMPDEST PUSH1 0x0 PUSH1 0x40 MLOAD DUP1 DUP4 SUB DUP2 DUP7 GAS STATICCALL ISZERO DUP1 ISZERO PUSH2 0x465 JUMPI RETURNDATASIZE PUSH1 0x0 DUP1 RETURNDATACOPY RETURNDATASIZE PUSH1 0x0 REVERT JUMPDEST POP POP POP POP PUSH1 0x40 MLOAD RETURNDATASIZE PUSH1 0x0 DUP3 RETURNDATACOPY RETURNDATASIZE PUSH1 0x1F NOT PUSH1 0x1F DUP3 ADD AND DUP3 ADD DUP1 PUSH1 0x40 MSTORE POP DUP2 ADD SWAP1 PUSH2 0x48E SWAP2 SWAP1 PUSH2 0x11D8 JUMP JUMPDEST PUSH1 0x40 MLOAD PUSH2 0x49B SWAP2 SWAP1 PUSH2 0x125D JUMP JUMPDEST SWAP1 DUP2 MSTORE PUSH1 0x20 ADD PUSH1 0x40 MLOAD DUP1 SWAP2 SUB SWAP1 KECCAK256 DUP2 SWAP1 SSTORE POP PUSH32 0x89186BBD353809BCC0AA77843D6EA72E488B7FD552BFE5AFB4006DC6CD6FE6A3 DUP4 DUP4 DUP4 DUP2 DUP2 LT PUSH2 0x4E1 JUMPI PUSH2 0x4E0 PUSH2 0x1045 JUMP JUMPDEST JUMPDEST SWAP1 POP PUSH1 0x20 MUL DUP2 ADD SWAP1 PUSH2 0x4F3 SWAP2 SWAP1 PUSH2 0x1083 JUMP JUMPDEST DUP8 DUP8 DUP6 DUP2 DUP2 LT PUSH2 0x506 JUMPI PUSH2 0x505 PUSH2 0x1045 JUMP JUMPDEST JUMPDEST SWAP1 POP PUSH1 0x20 MUL ADD CALLDATALOAD CALLER TIMESTAMP PUSH1 0x40 MLOAD PUSH2 0x520 SWAP6 SWAP5 SWAP4 SWAP3 SWAP2 SWAP1 PUSH2 0x1274 JUMP JUMPDEST PUSH1 0x40 MLOAD DUP1 SWAP2 SUB SWAP1 LOG1 DUP1 DUP1 PUSH2 0x533 SWAP1 PUSH2 0x12F1 JUMP JUMPDEST SWAP2 POP POP PUSH2 0x3C1 JUMP JUMPDEST POP PUSH32 0xBAD13593CF14DB38C871D023E850302B404AEF491D5E3F41AB7AEBAAFAB6ECDA TIMESTAMP PUSH1 0x40 MLOAD PUSH2 0x56B SWAP2 SWAP1 PUSH2 0xE1D JUMP JUMPDEST PUSH1 0x40 MLOAD DUP1 SWAP2 SUB SWAP1 LOG1 POP POP POP POP JUMP JUMPDEST PUSH2 0x581 PUSH2 0x84A JUMP JUMPDEST PUSH20 0xFFFFFFFFFFFFFFFFFFFFFFFFFFFFFFFFFFFFFFFF AND CALLER PUSH20 0xFFFFFFFFFFFFFFFFFFFFFFFFFFFFFFFFFFFFFFFF AND EQ PUSH2 0x5EE JUMPI PUSH1 0x40 MLOAD PUSH32 0x8C379A000000000000000000000000000000000000000000000000000000000 DUP2 MSTORE PUSH1 0x4 ADD PUSH2 0x5E5 SWAP1 PUSH2 0xEBB JUMP JUMPDEST PUSH1 0x40 MLOAD DUP1 SWAP2 SUB SWAP1 REVERT JUMPDEST ADDRESS PUSH20 0xFFFFFFFFFFFFFFFFFFFFFFFFFFFFFFFFFFFFFFFF AND PUSH4 0x94A72F1C DUP3 PUSH1 0x40 MLOAD DUP3 PUSH4 0xFFFFFFFF AND PUSH1 0xE0 SHL DUP2 MSTORE PUSH1 0x4 ADD PUSH2 0x627 SWAP2 SWAP1 PUSH2 0x137D JUMP JUMPDEST PUSH1 0x0 PUSH1 0x40 MLOAD DUP1 DUP4 SUB DUP2 DUP7 GAS STATICCALL ISZERO DUP1 ISZERO PUSH2 0x644 JUMPI RETURNDATASIZE PUSH1 0x0 DUP1 RETURNDATACOPY RETURNDATASIZE PUSH1 0x0 REVERT JUMPDEST POP POP POP POP PUSH1 0x40 MLOAD RETURNDATASIZE PUSH1 0x0 DUP3 RETURNDATACOPY RETURNDATASIZE PUSH1 0x1F NOT PUSH1 0x1F DUP3 ADD AND DUP3 ADD DUP1 PUSH1 0x40 MSTORE POP DUP2 ADD SWAP1 PUSH2 0x66D SWAP2 SWAP1 PUSH2 0x11D8 JUMP JUMPDEST PUSH1 0x0 PUSH1 0x6 ADD SWAP1 DUP2 PUSH2 0x67E SWAP2 SWAP1 PUSH2 0x15AB JUMP JUMPDEST POP POP JUMP JUMPDEST PUSH1 0x60 PUSH2 0x68D DUP3 PUSH2 0x87D JUMP JUMPDEST SWAP1 POP SWAP2 SWAP1 POP JUMP JUMPDEST PUSH2 0x69C PUSH2 0x84A JUMP JUMPDEST PUSH20 0xFFFFFFFFFFFFFFFFFFFFFFFFFFFFFFFFFFFFFFFF AND CALLER PUSH20 0xFFFFFFFFFFFFFFFFFFFFFFFFFFFFFFFFFFFFFFFF AND EQ PUSH2 0x709 JUMPI PUSH1 0x40 MLOAD PUSH32 0x8C379A000000000000000000000000000000000000000000000000000000000 DUP2 MSTORE PUSH1 0x4 ADD PUSH2 0x700 SWAP1 PUSH2 0xEBB JUMP JUMPDEST PUSH1 0x40 MLOAD DUP1 SWAP2 SUB SWAP1 REVERT JUMPDEST PUSH1 0x1 PUSH1 0x0 PUSH1 0x1 ADD PUSH1 0x0 DUP4 PUSH20 0xFFFFFFFFFFFFFFFFFFFFFFFFFFFFFFFFFFFFFFFF AND PUSH20 0xFFFFFFFFFFFFFFFFFFFFFFFFFFFFFFFFFFFFFFFF AND DUP2 MSTORE PUSH1 0x20 ADD SWAP1 DUP2 MSTORE PUSH1 0x20 ADD PUSH1 0x0 KECCAK256 PUSH1 0x0 PUSH2 0x100 EXP DUP2 SLOAD DUP2 PUSH1 0xFF MUL NOT AND SWAP1 DUP4 ISZERO ISZERO MUL OR SWAP1 SSTORE POP PUSH32 0x9F47004A8A67AE0EDE102AE657402045A03474BF00CF7E14F62CDBDC5AF9C547 DUP2 CALLER TIMESTAMP PUSH1 0x40 MLOAD PUSH2 0x797 SWAP4 SWAP3 SWAP2 SWAP1 PUSH2 0xEEA JUMP JUMPDEST PUSH1 0x40 MLOAD DUP1 SWAP2 SUB SWAP1 LOG1 POP JUMP JUMPDEST PUSH1 0x0 DUP1 PUSH1 0x0 ADD ADDRESS PUSH20 0xFFFFFFFFFFFFFFFFFFFFFFFFFFFFFFFFFFFFFFFF AND PUSH4 0x94A72F1C DUP5 PUSH1 0x40 MLOAD DUP3 PUSH4 0xFFFFFFFF AND PUSH1 0xE0 SHL DUP2 MSTORE PUSH1 0x4 ADD PUSH2 0x7E1 SWAP2 SWAP1 PUSH2 0x137D JUMP JUMPDEST PUSH1 0x0 PUSH1 0x40 MLOAD DUP1 DUP4 SUB DUP2 DUP7 GAS STATICCALL ISZERO DUP1 ISZERO PUSH2 0x7FE JUMPI RETURNDATASIZE PUSH1 0x0 DUP1 RETURNDATACOPY RETURNDATASIZE PUSH1 0x0 REVERT JUMPDEST POP POP POP POP PUSH1 0x40 MLOAD RETURNDATASIZE PUSH1 0x0 DUP3 RETURNDATACOPY RETURNDATASIZE PUSH1 0x1F NOT PUSH1 0x1F DUP3 ADD AND DUP3 ADD DUP1 PUSH1 0x40 MSTORE POP DUP2 ADD SWAP1 PUSH2 0x827 SWAP2 SWAP1 PUSH2 0x11D8 JUMP JUMPDEST PUSH1 0x40 MLOAD PUSH2 0x834 SWAP2 SWAP1 PUSH2 0x125D JUMP JUMPDEST SWAP1 DUP2 MSTORE PUSH1 0x20 ADD PUSH1 0x40 MLOAD DUP1 SWAP2 SUB SWAP1 KECCAK256 SLOAD SWAP1 POP SWAP2 SWAP1 POP JUMP JUMPDEST PUSH1 0x0 PUSH2 0x854 PUSH2 0x915 JUMP JUMPDEST PUSH1 0x3 ADD PUSH1 0x0 SWAP1 SLOAD SWAP1 PUSH2 0x100 EXP SWAP1 DIV PUSH20 0xFFFFFFFFFFFFFFFFFFFFFFFFFFFFFFFFFFFFFFFF AND SWAP1 POP SWAP1 JUMP JUMPDEST PUSH1 0x60 PUSH1 0x0 DUP3 SWAP1 POP PUSH1 0x0 JUMPDEST DUP2 MLOAD DUP2 LT ISZERO PUSH2 0x90B JUMPI PUSH2 0x8B6 DUP3 DUP3 DUP2 MLOAD DUP2 LT PUSH2 0x8A6 JUMPI PUSH2 0x8A5 PUSH2 0x1045 JUMP JUMPDEST JUMPDEST PUSH1 0x20 ADD ADD MLOAD PUSH1 0xF8 SHR PUSH1 0xF8 SHL PUSH2 0x942 JUMP JUMPDEST DUP3 DUP3 DUP2 MLOAD DUP2 LT PUSH2 0x8C9 JUMPI PUSH2 0x8C8 PUSH2 0x1045 JUMP JUMPDEST JUMPDEST PUSH1 0x20 ADD ADD SWAP1 PUSH31 0xFFFFFFFFFFFFFFFFFFFFFFFFFFFFFFFFFFFFFFFFFFFFFFFFFFFFFFFFFFFFFF NOT AND SWAP1 DUP2 PUSH1 0x0 BYTE SWAP1 MSTORE8 POP DUP1 DUP1 PUSH2 0x903 SWAP1 PUSH2 0x12F1 JUMP JUMPDEST SWAP2 POP POP PUSH2 0x887 JUMP JUMPDEST POP DUP1 SWAP2 POP POP SWAP2 SWAP1 POP JUMP JUMPDEST PUSH1 0x0 DUP1 PUSH32 0xC8FCAD8DB84D3CC18B4C41D551EA0EE66DD599CDE068D998E57D5E09332C131C SWAP1 POP DUP1 SWAP2 POP POP SWAP1 JUMP JUMPDEST PUSH1 0x0 PUSH1 0x61 PUSH1 0xF8 SHL DUP3 PUSH31 0xFFFFFFFFFFFFFFFFFFFFFFFFFFFFFFFFFFFFFFFFFFFFFFFFFFFFFFFFFFFFFF NOT AND LT ISZERO DUP1 ISZERO PUSH2 0x9A0 JUMPI POP PUSH1 0x7A PUSH1 0xF8 SHL DUP3 PUSH31 0xFFFFFFFFFFFFFFFFFFFFFFFFFFFFFFFFFFFFFFFFFFFFFFFFFFFFFFFFFFFFFF NOT AND GT ISZERO JUMPDEST ISZERO PUSH2 0x9BF JUMPI PUSH1 0x20 DUP3 PUSH1 0xF8 SHR PUSH2 0x9B5 SWAP2 SWAP1 PUSH2 0x168A JUMP JUMPDEST PUSH1 0xF8 SHL SWAP1 POP PUSH2 0x9C3 JUMP JUMPDEST DUP2 SWAP1 POP JUMPDEST SWAP2 SWAP1 POP JUMP JUMPDEST PUSH1 0x0 PUSH1 0x40 MLOAD SWAP1 POP SWAP1 JUMP JUMPDEST PUSH1 0x0 DUP1 REVERT JUMPDEST PUSH1 0x0 DUP1 REVERT JUMPDEST PUSH1 0x0 PUSH20 0xFFFFFFFFFFFFFFFFFFFFFFFFFFFFFFFFFFFFFFFF DUP3 AND SWAP1 POP SWAP2 SWAP1 POP JUMP JUMPDEST PUSH1 0x0 PUSH2 0xA07 DUP3 PUSH2 0x9DC JUMP JUMPDEST SWAP1 POP SWAP2 SWAP1 POP JUMP JUMPDEST PUSH2 0xA17 DUP2 PUSH2 0x9FC JUMP JUMPDEST DUP2 EQ PUSH2 0xA22 JUMPI PUSH1 0x0 DUP1 REVERT JUMPDEST POP JUMP JUMPDEST PUSH1 0x0 DUP2 CALLDATALOAD SWAP1 POP PUSH2 0xA34 DUP2 PUSH2 0xA0E JUMP JUMPDEST SWAP3 SWAP2 POP POP JUMP JUMPDEST PUSH1 0x0 PUSH1 0x20 DUP3 DUP5 SUB SLT ISZERO PUSH2 0xA50 JUMPI PUSH2 0xA4F PUSH2 0x9D2 JUMP JUMPDEST JUMPDEST PUSH1 0x0 PUSH2 0xA5E DUP5 DUP3 DUP6 ADD PUSH2 0xA25 JUMP JUMPDEST SWAP2 POP POP SWAP3 SWAP2 POP POP JUMP JUMPDEST PUSH1 0x0 DUP2 ISZERO ISZERO SWAP1 POP SWAP2 SWAP1 POP JUMP JUMPDEST PUSH2 0xA7C DUP2 PUSH2 0xA67 JUMP JUMPDEST DUP3 MSTORE POP POP JUMP JUMPDEST PUSH1 0x0 PUSH1 0x20 DUP3 ADD SWAP1 POP PUSH2 0xA97 PUSH1 0x0 DUP4 ADD DUP5 PUSH2 0xA73 JUMP JUMPDEST SWAP3 SWAP2 POP POP JUMP JUMPDEST PUSH1 0x0 DUP1 REVERT JUMPDEST PUSH1 0x0 DUP1 REVERT JUMPDEST PUSH1 0x0 DUP1 REVERT JUMPDEST PUSH1 0x0 DUP1 DUP4 PUSH1 0x1F DUP5 ADD SLT PUSH2 0xAC2 JUMPI PUSH2 0xAC1 PUSH2 0xA9D JUMP JUMPDEST JUMPDEST DUP3 CALLDATALOAD SWAP1 POP PUSH8 0xFFFFFFFFFFFFFFFF DUP2 GT ISZERO PUSH2 0xADF JUMPI PUSH2 0xADE PUSH2 0xAA2 JUMP JUMPDEST JUMPDEST PUSH1 0x20 DUP4 ADD SWAP2 POP DUP4 PUSH1 0x20 DUP3 MUL DUP4 ADD GT ISZERO PUSH2 0xAFB JUMPI PUSH2 0xAFA PUSH2 0xAA7 JUMP JUMPDEST JUMPDEST SWAP3 POP SWAP3 SWAP1 POP JUMP JUMPDEST PUSH1 0x0 DUP1 DUP4 PUSH1 0x1F DUP5 ADD SLT PUSH2 0xB18 JUMPI PUSH2 0xB17 PUSH2 0xA9D JUMP JUMPDEST JUMPDEST DUP3 CALLDATALOAD SWAP1 POP PUSH8 0xFFFFFFFFFFFFFFFF DUP2 GT ISZERO PUSH2 0xB35 JUMPI PUSH2 0xB34 PUSH2 0xAA2 JUMP JUMPDEST JUMPDEST PUSH1 0x20 DUP4 ADD SWAP2 POP DUP4 PUSH1 0x20 DUP3 MUL DUP4 ADD GT ISZERO PUSH2 0xB51 JUMPI PUSH2 0xB50 PUSH2 0xAA7 JUMP JUMPDEST JUMPDEST SWAP3 POP SWAP3 SWAP1 POP JUMP JUMPDEST PUSH1 0x0 DUP1 PUSH1 0x0 DUP1 PUSH1 0x40 DUP6 DUP8 SUB SLT ISZERO PUSH2 0xB72 JUMPI PUSH2 0xB71 PUSH2 0x9D2 JUMP JUMPDEST JUMPDEST PUSH1 0x0 DUP6 ADD CALLDATALOAD PUSH8 0xFFFFFFFFFFFFFFFF DUP2 GT ISZERO PUSH2 0xB90 JUMPI PUSH2 0xB8F PUSH2 0x9D7 JUMP JUMPDEST JUMPDEST PUSH2 0xB9C DUP8 DUP3 DUP9 ADD PUSH2 0xAAC JUMP JUMPDEST SWAP5 POP SWAP5 POP POP PUSH1 0x20 DUP6 ADD CALLDATALOAD PUSH8 0xFFFFFFFFFFFFFFFF DUP2 GT ISZERO PUSH2 0xBBF JUMPI PUSH2 0xBBE PUSH2 0x9D7 JUMP JUMPDEST JUMPDEST PUSH2 0xBCB DUP8 DUP3 DUP9 ADD PUSH2 0xB02 JUMP JUMPDEST SWAP3 POP SWAP3 POP POP SWAP3 SWAP6 SWAP2 SWAP5 POP SWAP3 POP JUMP JUMPDEST PUSH1 0x0 DUP1 REVERT JUMPDEST PUSH1 0x0 PUSH1 0x1F NOT PUSH1 0x1F DUP4 ADD AND SWAP1 POP SWAP2 SWAP1 POP JUMP JUMPDEST PUSH32 0x4E487B7100000000000000000000000000000000000000000000000000000000 PUSH1 0x0 MSTORE PUSH1 0x41 PUSH1 0x4 MSTORE PUSH1 0x24 PUSH1 0x0 REVERT JUMPDEST PUSH2 0xC27 DUP3 PUSH2 0xBDE JUMP JUMPDEST DUP2 ADD DUP2 DUP2 LT PUSH8 0xFFFFFFFFFFFFFFFF DUP3 GT OR ISZERO PUSH2 0xC46 JUMPI PUSH2 0xC45 PUSH2 0xBEF JUMP JUMPDEST JUMPDEST DUP1 PUSH1 0x40 MSTORE POP POP POP JUMP JUMPDEST PUSH1 0x0 PUSH2 0xC59 PUSH2 0x9C8 JUMP JUMPDEST SWAP1 POP PUSH2 0xC65 DUP3 DUP3 PUSH2 0xC1E JUMP JUMPDEST SWAP2 SWAP1 POP JUMP JUMPDEST PUSH1 0x0 PUSH8 0xFFFFFFFFFFFFFFFF DUP3 GT ISZERO PUSH2 0xC85 JUMPI PUSH2 0xC84 PUSH2 0xBEF JUMP JUMPDEST JUMPDEST PUSH2 0xC8E DUP3 PUSH2 0xBDE JUMP JUMPDEST SWAP1 POP PUSH1 0x20 DUP2 ADD SWAP1 POP SWAP2 SWAP1 POP JUMP JUMPDEST DUP3 DUP2 DUP4 CALLDATACOPY PUSH1 0x0 DUP4 DUP4 ADD MSTORE POP POP POP JUMP JUMPDEST PUSH1 0x0 PUSH2 0xCBD PUSH2 0xCB8 DUP5 PUSH2 0xC6A JUMP JUMPDEST PUSH2 0xC4F JUMP JUMPDEST SWAP1 POP DUP3 DUP2 MSTORE PUSH1 0x20 DUP2 ADD DUP5 DUP5 DUP5 ADD GT ISZERO PUSH2 0xCD9 JUMPI PUSH2 0xCD8 PUSH2 0xBD9 JUMP JUMPDEST JUMPDEST PUSH2 0xCE4 DUP5 DUP3 DUP6 PUSH2 0xC9B JUMP JUMPDEST POP SWAP4 SWAP3 POP POP POP JUMP JUMPDEST PUSH1 0x0 DUP3 PUSH1 0x1F DUP4 ADD SLT PUSH2 0xD01 JUMPI PUSH2 0xD00 PUSH2 0xA9D JUMP JUMPDEST JUMPDEST DUP2 CALLDATALOAD PUSH2 0xD11 DUP5 DUP3 PUSH1 0x20 DUP7 ADD PUSH2 0xCAA JUMP JUMPDEST SWAP2 POP POP SWAP3 SWAP2 POP POP JUMP JUMPDEST PUSH1 0x0 PUSH1 0x20 DUP3 DUP5 SUB SLT ISZERO PUSH2 0xD30 JUMPI PUSH2 0xD2F PUSH2 0x9D2 JUMP JUMPDEST JUMPDEST PUSH1 0x0 DUP3 ADD CALLDATALOAD PUSH8 0xFFFFFFFFFFFFFFFF DUP2 GT ISZERO PUSH2 0xD4E JUMPI PUSH2 0xD4D PUSH2 0x9D7 JUMP JUMPDEST JUMPDEST PUSH2 0xD5A DUP5 DUP3 DUP6 ADD PUSH2 0xCEC JUMP JUMPDEST SWAP2 POP POP SWAP3 SWAP2 POP POP JUMP JUMPDEST PUSH1 0x0 DUP2 MLOAD SWAP1 POP SWAP2 SWAP1 POP JUMP JUMPDEST PUSH1 0x0 DUP3 DUP3 MSTORE PUSH1 0x20 DUP3 ADD SWAP1 POP SWAP3 SWAP2 POP POP JUMP JUMPDEST PUSH1 0x0 JUMPDEST DUP4 DUP2 LT ISZERO PUSH2 0xD9D JUMPI DUP1 DUP3 ADD MLOAD DUP2 DUP5 ADD MSTORE PUSH1 0x20 DUP2 ADD SWAP1 POP PUSH2 0xD82 JUMP JUMPDEST PUSH1 0x0 DUP5 DUP5 ADD MSTORE POP POP POP POP JUMP JUMPDEST PUSH1 0x0 PUSH2 0xDB4 DUP3 PUSH2 0xD63 JUMP JUMPDEST PUSH2 0xDBE DUP2 DUP6 PUSH2 0xD6E JUMP JUMPDEST SWAP4 POP PUSH2 0xDCE DUP2 DUP6 PUSH1 0x20 DUP7 ADD PUSH2 0xD7F JUMP JUMPDEST PUSH2 0xDD7 DUP2 PUSH2 0xBDE JUMP JUMPDEST DUP5 ADD SWAP2 POP POP SWAP3 SWAP2 POP POP JUMP JUMPDEST PUSH1 0x0 PUSH1 0x20 DUP3 ADD SWAP1 POP DUP2 DUP2 SUB PUSH1 0x0 DUP4 ADD MSTORE PUSH2 0xDFC DUP2 DUP5 PUSH2 0xDA9 JUMP JUMPDEST SWAP1 POP SWAP3 SWAP2 POP POP JUMP JUMPDEST PUSH1 0x0 DUP2 SWAP1 POP SWAP2 SWAP1 POP JUMP JUMPDEST PUSH2 0xE17 DUP2 PUSH2 0xE04 JUMP JUMPDEST DUP3 MSTORE POP POP JUMP JUMPDEST PUSH1 0x0 PUSH1 0x20 DUP3 ADD SWAP1 POP PUSH2 0xE32 PUSH1 0x0 DUP4 ADD DUP5 PUSH2 0xE0E JUMP JUMPDEST SWAP3 SWAP2 POP POP JUMP JUMPDEST PUSH1 0x0 DUP3 DUP3 MSTORE PUSH1 0x20 DUP3 ADD SWAP1 POP SWAP3 SWAP2 POP POP JUMP JUMPDEST PUSH32 0x4163636573732064656E6965642C204F6E6C79206F776E657220697320616C6C PUSH1 0x0 DUP3 ADD MSTORE PUSH32 0x6F77656421000000000000000000000000000000000000000000000000000000 PUSH1 0x20 DUP3 ADD MSTORE POP JUMP JUMPDEST PUSH1 0x0 PUSH2 0xEA5 PUSH1 0x25 DUP4 PUSH2 0xE38 JUMP JUMPDEST SWAP2 POP PUSH2 0xEB0 DUP3 PUSH2 0xE49 JUMP JUMPDEST PUSH1 0x40 DUP3 ADD SWAP1 POP SWAP2 SWAP1 POP JUMP JUMPDEST PUSH1 0x0 PUSH1 0x20 DUP3 ADD SWAP1 POP DUP2 DUP2 SUB PUSH1 0x0 DUP4 ADD MSTORE PUSH2 0xED4 DUP2 PUSH2 0xE98 JUMP JUMPDEST SWAP1 POP SWAP2 SWAP1 POP JUMP JUMPDEST PUSH2 0xEE4 DUP2 PUSH2 0x9FC JUMP JUMPDEST DUP3 MSTORE POP POP JUMP JUMPDEST PUSH1 0x0 PUSH1 0x60 DUP3 ADD SWAP1 POP PUSH2 0xEFF PUSH1 0x0 DUP4 ADD DUP7 PUSH2 0xEDB JUMP JUMPDEST PUSH2 0xF0C PUSH1 0x20 DUP4 ADD DUP6 PUSH2 0xEDB JUMP JUMPDEST PUSH2 0xF19 PUSH1 0x40 DUP4 ADD DUP5 PUSH2 0xE0E JUMP JUMPDEST SWAP5 SWAP4 POP POP POP POP JUMP JUMPDEST PUSH32 0x4163636573732064656E6965642E204F6E6C792050797468696120697320616C PUSH1 0x0 DUP3 ADD MSTORE PUSH32 0x6C6F776564210000000000000000000000000000000000000000000000000000 PUSH1 0x20 DUP3 ADD MSTORE POP JUMP JUMPDEST PUSH1 0x0 PUSH2 0xF7D PUSH1 0x26 DUP4 PUSH2 0xE38 JUMP JUMPDEST SWAP2 POP PUSH2 0xF88 DUP3 PUSH2 0xF21 JUMP JUMPDEST PUSH1 0x40 DUP3 ADD SWAP1 POP SWAP2 SWAP1 POP JUMP JUMPDEST PUSH1 0x0 PUSH1 0x20 DUP3 ADD SWAP1 POP DUP2 DUP2 SUB PUSH1 0x0 DUP4 ADD MSTORE PUSH2 0xFAC DUP2 PUSH2 0xF70 JUMP JUMPDEST SWAP1 POP SWAP2 SWAP1 POP JUMP JUMPDEST PUSH32 0x50726963657320616E64207469636B657273206D757374206265206F66206571 PUSH1 0x0 DUP3 ADD MSTORE PUSH32 0x75616C206C656E67746800000000000000000000000000000000000000000000 PUSH1 0x20 DUP3 ADD MSTORE POP JUMP JUMPDEST PUSH1 0x0 PUSH2 0x100F PUSH1 0x2A DUP4 PUSH2 0xE38 JUMP JUMPDEST SWAP2 POP PUSH2 0x101A DUP3 PUSH2 0xFB3 JUMP JUMPDEST PUSH1 0x40 DUP3 ADD SWAP1 POP SWAP2 SWAP1 POP JUMP JUMPDEST PUSH1 0x0 PUSH1 0x20 DUP3 ADD SWAP1 POP DUP2 DUP2 SUB PUSH1 0x0 DUP4 ADD MSTORE PUSH2 0x103E DUP2 PUSH2 0x1002 JUMP JUMPDEST SWAP1 POP SWAP2 SWAP1 POP JUMP JUMPDEST PUSH32 0x4E487B7100000000000000000000000000000000000000000000000000000000 PUSH1 0x0 MSTORE PUSH1 0x32 PUSH1 0x4 MSTORE PUSH1 0x24 PUSH1 0x0 REVERT JUMPDEST PUSH1 0x0 DUP1 REVERT JUMPDEST PUSH1 0x0 DUP1 REVERT JUMPDEST PUSH1 0x0 DUP1 REVERT JUMPDEST PUSH1 0x0 DUP1 DUP4 CALLDATALOAD PUSH1 0x1 PUSH1 0x20 SUB DUP5 CALLDATASIZE SUB SUB DUP2 SLT PUSH2 0x10A0 JUMPI PUSH2 0x109F PUSH2 0x1074 JUMP JUMPDEST JUMPDEST DUP1 DUP5 ADD SWAP3 POP DUP3 CALLDATALOAD SWAP2 POP PUSH8 0xFFFFFFFFFFFFFFFF DUP3 GT ISZERO PUSH2 0x10C2 JUMPI PUSH2 0x10C1 PUSH2 0x1079 JUMP JUMPDEST JUMPDEST PUSH1 0x20 DUP4 ADD SWAP3 POP PUSH1 0x1 DUP3 MUL CALLDATASIZE SUB DUP4 SGT ISZERO PUSH2 0x10DE JUMPI PUSH2 0x10DD PUSH2 0x107E JUMP JUMPDEST JUMPDEST POP SWAP3 POP SWAP3 SWAP1 POP JUMP JUMPDEST PUSH1 0x0 PUSH2 0x10F2 DUP4 DUP6 PUSH2 0xE38 JUMP JUMPDEST SWAP4 POP PUSH2 0x10FF DUP4 DUP6 DUP5 PUSH2 0xC9B JUMP JUMPDEST PUSH2 0x1108 DUP4 PUSH2 0xBDE JUMP JUMPDEST DUP5 ADD SWAP1 POP SWAP4 SWAP3 POP POP POP JUMP JUMPDEST PUSH1 0x0 PUSH1 0x20 DUP3 ADD SWAP1 POP DUP2 DUP2 SUB PUSH1 0x0 DUP4 ADD MSTORE PUSH2 0x112E DUP2 DUP5 DUP7 PUSH2 0x10E6 JUMP JUMPDEST SWAP1 POP SWAP4 SWAP3 POP POP POP JUMP JUMPDEST PUSH1 0x0 PUSH8 0xFFFFFFFFFFFFFFFF DUP3 GT ISZERO PUSH2 0x1152 JUMPI PUSH2 0x1151 PUSH2 0xBEF JUMP JUMPDEST JUMPDEST PUSH2 0x115B DUP3 PUSH2 0xBDE JUMP JUMPDEST SWAP1 POP PUSH1 0x20 DUP2 ADD SWAP1 POP SWAP2 SWAP1 POP JUMP JUMPDEST PUSH1 0x0 PUSH2 0x117B PUSH2 0x1176 DUP5 PUSH2 0x1137 JUMP JUMPDEST PUSH2 0xC4F JUMP JUMPDEST SWAP1 POP DUP3 DUP2 MSTORE PUSH1 0x20 DUP2 ADD DUP5 DUP5 DUP5 ADD GT ISZERO PUSH2 0x1197 JUMPI PUSH2 0x1196 PUSH2 0xBD9 JUMP JUMPDEST JUMPDEST PUSH2 0x11A2 DUP5 DUP3 DUP6 PUSH2 0xD7F JUMP JUMPDEST POP SWAP4 SWAP3 POP POP POP JUMP JUMPDEST PUSH1 0x0 DUP3 PUSH1 0x1F DUP4 ADD SLT PUSH2 0x11BF JUMPI PUSH2 0x11BE PUSH2 0xA9D JUMP JUMPDEST JUMPDEST DUP2 MLOAD PUSH2 0x11CF DUP5 DUP3 PUSH1 0x20 DUP7 ADD PUSH2 0x1168 JUMP JUMPDEST SWAP2 POP POP SWAP3 SWAP2 POP POP JUMP JUMPDEST PUSH1 0x0 PUSH1 0x20 DUP3 DUP5 SUB SLT ISZERO PUSH2 0x11EE JUMPI PUSH2 0x11ED PUSH2 0x9D2 JUMP JUMPDEST JUMPDEST PUSH1 0x0 DUP3 ADD MLOAD PUSH8 0xFFFFFFFFFFFFFFFF DUP2 GT ISZERO PUSH2 0x120C JUMPI PUSH2 0x120B PUSH2 0x9D7 JUMP JUMPDEST JUMPDEST PUSH2 0x1218 DUP5 DUP3 DUP6 ADD PUSH2 0x11AA JUMP JUMPDEST SWAP2 POP POP SWAP3 SWAP2 POP POP JUMP JUMPDEST PUSH1 0x0 DUP2 SWAP1 POP SWAP3 SWAP2 POP POP JUMP JUMPDEST PUSH1 0x0 PUSH2 0x1237 DUP3 PUSH2 0xD63 JUMP JUMPDEST PUSH2 0x1241 DUP2 DUP6 PUSH2 0x1221 JUMP JUMPDEST SWAP4 POP PUSH2 0x1251 DUP2 DUP6 PUSH1 0x20 DUP7 ADD PUSH2 0xD7F JUMP JUMPDEST DUP1 DUP5 ADD SWAP2 POP POP SWAP3 SWAP2 POP POP JUMP JUMPDEST PUSH1 0x0 PUSH2 0x1269 DUP3 DUP5 PUSH2 0x122C JUMP JUMPDEST SWAP2 POP DUP2 SWAP1 POP SWAP3 SWAP2 POP POP JUMP JUMPDEST PUSH1 0x0 PUSH1 0x80 DUP3 ADD SWAP1 POP DUP2 DUP2 SUB PUSH1 0x0 DUP4 ADD MSTORE PUSH2 0x128F DUP2 DUP8 DUP10 PUSH2 0x10E6 JUMP JUMPDEST SWAP1 POP PUSH2 0x129E PUSH1 0x20 DUP4 ADD DUP7 PUSH2 0xE0E JUMP JUMPDEST PUSH2 0x12AB PUSH1 0x40 DUP4 ADD DUP6 PUSH2 0xEDB JUMP JUMPDEST PUSH2 0x12B8 PUSH1 0x60 DUP4 ADD DUP5 PUSH2 0xE0E JUMP JUMPDEST SWAP7 SWAP6 POP POP POP POP POP POP JUMP JUMPDEST PUSH32 0x4E487B7100000000000000000000000000000000000000000000000000000000 PUSH1 0x0 MSTORE PUSH1 0x11 PUSH1 0x4 MSTORE PUSH1 0x24 PUSH1 0x0 REVERT JUMPDEST PUSH1 0x0 PUSH2 0x12FC DUP3 PUSH2 0xE04 JUMP JUMPDEST SWAP2 POP PUSH32 0xFFFFFFFFFFFFFFFFFFFFFFFFFFFFFFFFFFFFFFFFFFFFFFFFFFFFFFFFFFFFFFFF DUP3 SUB PUSH2 0x132E JUMPI PUSH2 0x132D PUSH2 0x12C2 JUMP JUMPDEST JUMPDEST PUSH1 0x1 DUP3 ADD SWAP1 POP SWAP2 SWAP1 POP JUMP JUMPDEST PUSH1 0x0 DUP2 MLOAD SWAP1 POP SWAP2 SWAP1 POP JUMP JUMPDEST PUSH1 0x0 PUSH2 0x134F DUP3 PUSH2 0x1339 JUMP JUMPDEST PUSH2 0x1359 DUP2 DUP6 PUSH2 0xE38 JUMP JUMPDEST SWAP4 POP PUSH2 0x1369 DUP2 DUP6 PUSH1 0x20 DUP7 ADD PUSH2 0xD7F JUMP JUMPDEST PUSH2 0x1372 DUP2 PUSH2 0xBDE JUMP JUMPDEST DUP5 ADD SWAP2 POP POP SWAP3 SWAP2 POP POP JUMP JUMPDEST PUSH1 0x0 PUSH1 0x20 DUP3 ADD SWAP1 POP DUP2 DUP2 SUB PUSH1 0x0 DUP4 ADD MSTORE PUSH2 0x1397 DUP2 DUP5 PUSH2 0x1344 JUMP JUMPDEST SWAP1 POP SWAP3 SWAP2 POP POP JUMP JUMPDEST PUSH32 0x4E487B7100000000000000000000000000000000000000000000000000000000 PUSH1 0x0 MSTORE PUSH1 0x22 PUSH1 0x4 MSTORE PUSH1 0x24 PUSH1 0x0 REVERT JUMPDEST PUSH1 0x0 PUSH1 0x2 DUP3 DIV SWAP1 POP PUSH1 0x1 DUP3 AND DUP1 PUSH2 0x13E6 JUMPI PUSH1 0x7F DUP3 AND SWAP2 POP JUMPDEST PUSH1 0x20 DUP3 LT DUP2 SUB PUSH2 0x13F9 JUMPI PUSH2 0x13F8 PUSH2 0x139F JUMP JUMPDEST JUMPDEST POP SWAP2 SWAP1 POP JUMP JUMPDEST PUSH1 0x0 DUP2 SWAP1 POP DUP2 PUSH1 0x0 MSTORE PUSH1 0x20 PUSH1 0x0 KECCAK256 SWAP1 POP SWAP2 SWAP1 POP JUMP JUMPDEST PUSH1 0x0 PUSH1 0x20 PUSH1 0x1F DUP4 ADD DIV SWAP1 POP SWAP2 SWAP1 POP JUMP JUMPDEST PUSH1 0x0 DUP3 DUP3 SHL SWAP1 POP SWAP3 SWAP2 POP POP JUMP JUMPDEST PUSH1 0x0 PUSH1 0x8 DUP4 MUL PUSH2 0x1461 PUSH32 0xFFFFFFFFFFFFFFFFFFFFFFFFFFFFFFFFFFFFFFFFFFFFFFFFFFFFFFFFFFFFFFFF DUP3 PUSH2 0x1424 JUMP JUMPDEST PUSH2 0x146B DUP7 DUP4 PUSH2 0x1424 JUMP JUMPDEST SWAP6 POP DUP1 NOT DUP5 AND SWAP4 POP DUP1 DUP7 AND DUP5 OR SWAP3 POP POP POP SWAP4 SWAP3 POP POP POP JUMP JUMPDEST PUSH1 0x0 DUP2 SWAP1 POP SWAP2 SWAP1 POP JUMP JUMPDEST PUSH1 0x0 PUSH2 0x14A8 PUSH2 0x14A3 PUSH2 0x149E DUP5 PUSH2 0xE04 JUMP JUMPDEST PUSH2 0x1483 JUMP JUMPDEST PUSH2 0xE04 JUMP JUMPDEST SWAP1 POP SWAP2 SWAP1 POP JUMP JUMPDEST PUSH1 0x0 DUP2 SWAP1 POP SWAP2 SWAP1 POP JUMP JUMPDEST PUSH2 0x14C2 DUP4 PUSH2 0x148D JUMP JUMPDEST PUSH2 0x14D6 PUSH2 0x14CE DUP3 PUSH2 0x14AF JUMP JUMPDEST DUP5 DUP5 SLOAD PUSH2 0x1431 JUMP JUMPDEST DUP3 SSTORE POP POP POP POP JUMP JUMPDEST PUSH1 0x0 SWAP1 JUMP JUMPDEST PUSH2 0x14EB PUSH2 0x14DE JUMP JUMPDEST PUSH2 0x14F6 DUP2 DUP5 DUP5 PUSH2 0x14B9 JUMP JUMPDEST POP POP POP JUMP JUMPDEST JUMPDEST DUP2 DUP2 LT ISZERO PUSH2 0x151A JUMPI PUSH2 0x150F PUSH1 0x0 DUP3 PUSH2 0x14E3 JUMP JUMPDEST PUSH1 0x1 DUP2 ADD SWAP1 POP PUSH2 0x14FC JUMP JUMPDEST POP POP JUMP JUMPDEST PUSH1 0x1F DUP3 GT ISZERO PUSH2 0x155F JUMPI PUSH2 0x1530 DUP2 PUSH2 0x13FF JUMP JUMPDEST PUSH2 0x1539 DUP5 PUSH2 0x1414 JUMP JUMPDEST DUP2 ADD PUSH1 0x20 DUP6 LT ISZERO PUSH2 0x1548 JUMPI DUP2 SWAP1 POP JUMPDEST PUSH2 0x155C PUSH2 0x1554 DUP6 PUSH2 0x1414 JUMP JUMPDEST DUP4 ADD DUP3 PUSH2 0x14FB JUMP JUMPDEST POP POP JUMPDEST POP POP POP JUMP JUMPDEST PUSH1 0x0 DUP3 DUP3 SHR SWAP1 POP SWAP3 SWAP2 POP POP JUMP JUMPDEST PUSH1 0x0 PUSH2 0x1582 PUSH1 0x0 NOT DUP5 PUSH1 0x8 MUL PUSH2 0x1564 JUMP JUMPDEST NOT DUP1 DUP4 AND SWAP2 POP POP SWAP3 SWAP2 POP POP JUMP JUMPDEST PUSH1 0x0 PUSH2 0x159B DUP4 DUP4 PUSH2 0x1571 JUMP JUMPDEST SWAP2 POP DUP3 PUSH1 0x2 MUL DUP3 OR SWAP1 POP SWAP3 SWAP2 POP POP JUMP JUMPDEST PUSH2 0x15B4 DUP3 PUSH2 0xD63 JUMP JUMPDEST PUSH8 0xFFFFFFFFFFFFFFFF DUP2 GT ISZERO PUSH2 0x15CD JUMPI PUSH2 0x15CC PUSH2 0xBEF JUMP JUMPDEST JUMPDEST PUSH2 0x15D7 DUP3 SLOAD PUSH2 0x13CE JUMP JUMPDEST PUSH2 0x15E2 DUP3 DUP3 DUP6 PUSH2 0x151E JUMP JUMPDEST PUSH1 0x0 PUSH1 0x20 SWAP1 POP PUSH1 0x1F DUP4 GT PUSH1 0x1 DUP2 EQ PUSH2 0x1615 JUMPI PUSH1 0x0 DUP5 ISZERO PUSH2 0x1603 JUMPI DUP3 DUP8 ADD MLOAD SWAP1 POP JUMPDEST PUSH2 0x160D DUP6 DUP3 PUSH2 0x158F JUMP JUMPDEST DUP7 SSTORE POP PUSH2 0x1675 JUMP JUMPDEST PUSH1 0x1F NOT DUP5 AND PUSH2 0x1623 DUP7 PUSH2 0x13FF JUMP JUMPDEST PUSH1 0x0 JUMPDEST DUP3 DUP2 LT ISZERO PUSH2 0x164B JUMPI DUP5 DUP10 ADD MLOAD DUP3 SSTORE PUSH1 0x1 DUP3 ADD SWAP2 POP PUSH1 0x20 DUP6 ADD SWAP5 POP PUSH1 0x20 DUP2 ADD SWAP1 POP PUSH2 0x1626 JUMP JUMPDEST DUP7 DUP4 LT ISZERO PUSH2 0x1668 JUMPI DUP5 DUP10 ADD MLOAD PUSH2 0x1664 PUSH1 0x1F DUP10 AND DUP3 PUSH2 0x1571 JUMP JUMPDEST DUP4 SSTORE POP JUMPDEST PUSH1 0x1 PUSH1 0x2 DUP9 MUL ADD DUP9 SSTORE POP POP POP JUMPDEST POP POP POP POP POP POP JUMP JUMPDEST PUSH1 0x0 PUSH1 0xFF DUP3 AND SWAP1 POP SWAP2 SWAP1 POP JUMP JUMPDEST PUSH1 0x0 PUSH2 0x1695 DUP3 PUSH2 0x167D JUMP JUMPDEST SWAP2 POP PUSH2 0x16A0 DUP4 PUSH2 0x167D JUMP JUMPDEST SWAP3 POP DUP3 DUP3 SUB SWAP1 POP PUSH1 0xFF DUP2 GT ISZERO PUSH2 0x16B9 JUMPI PUSH2 0x16B8 PUSH2 0x12C2 JUMP JUMPDEST JUMPDEST SWAP3 SWAP2 POP POP JUMP INVALID LOG2 PUSH5 0x6970667358 0x22 SLT KECCAK256 SWAP9 0xA6 ADD 0xB8 PUSH28 0x34CD1C82E7BDD30838ECBF91EA65BDDE0248457E33F5B5219D376664 PUSH20 0x6F6C634300081200330000000000000000000000 "
				},
				"gasEstimates": {
					"creation": {
						"codeDepositCost": "1175400",
						"executionCost": "1221",
						"totalCost": "1176621"
					},
					"external": {
						"converter(string)": "infinite",
						"isPythia(address)": "2912",
						"price(string)": "infinite",
						"setEGCUSDTicker(string)": "infinite",
						"setPythia(address)": "infinite",
						"suspendPythia(address)": "infinite",
						"updateTickerPrices(uint256[],string[])": "infinite"
					},
					"internal": {
						"_upper(bytes1)": "infinite",
						"upper(string memory)": "infinite"
					}
				},
				"methodIdentifiers": {
					"converter(string)": "94a72f1c",
					"isPythia(address)": "658bdb2e",
					"price(string)": "fe2c6198",
					"setEGCUSDTicker(string)": "832427da",
					"setPythia(address)": "b55bfc6f",
					"suspendPythia(address)": "5c60896d",
					"updateTickerPrices(uint256[],string[])": "734bc659"
				}
			},
			"storageLayout": {
				"storage": [
					{
						"astId": 153,
						"contract": "smart contract/SwapCryptoLoanUpdate/contracts/facets/PriceOracleFacet.sol:PriceOracleFacet",
						"label": "s",
						"offset": 0,
						"slot": "0",
						"type": "t_struct(AppStorage)145_storage"
					}
				],
				"types": {
					"t_address": {
						"encoding": "inplace",
						"label": "address",
						"numberOfBytes": "20"
					},
					"t_array(t_address)dyn_storage": {
						"base": "t_address",
						"encoding": "dynamic_array",
						"label": "address[]",
						"numberOfBytes": "32"
					},
					"t_bool": {
						"encoding": "inplace",
						"label": "bool",
						"numberOfBytes": "1"
					},
					"t_bytes_memory_ptr": {
						"encoding": "bytes",
						"label": "bytes",
						"numberOfBytes": "32"
					},
					"t_bytes_storage": {
						"encoding": "bytes",
						"label": "bytes",
						"numberOfBytes": "32"
					},
					"t_mapping(t_address,t_address)": {
						"encoding": "mapping",
						"key": "t_address",
						"label": "mapping(address => address)",
						"numberOfBytes": "32",
						"value": "t_address"
					},
					"t_mapping(t_address,t_array(t_address)dyn_storage)": {
						"encoding": "mapping",
						"key": "t_address",
						"label": "mapping(address => address[])",
						"numberOfBytes": "32",
						"value": "t_array(t_address)dyn_storage"
					},
					"t_mapping(t_address,t_bool)": {
						"encoding": "mapping",
						"key": "t_address",
						"label": "mapping(address => bool)",
						"numberOfBytes": "32",
						"value": "t_bool"
					},
					"t_mapping(t_address,t_bytes_storage)": {
						"encoding": "mapping",
						"key": "t_address",
						"label": "mapping(address => bytes)",
						"numberOfBytes": "32",
						"value": "t_bytes_storage"
					},
					"t_mapping(t_address,t_mapping(t_bool,t_uint256))": {
						"encoding": "mapping",
						"key": "t_address",
						"label": "mapping(address => mapping(bool => uint256))",
						"numberOfBytes": "32",
						"value": "t_mapping(t_bool,t_uint256)"
					},
					"t_mapping(t_address,t_uint256)": {
						"encoding": "mapping",
						"key": "t_address",
						"label": "mapping(address => uint256)",
						"numberOfBytes": "32",
						"value": "t_uint256"
					},
					"t_mapping(t_bool,t_uint256)": {
						"encoding": "mapping",
						"key": "t_bool",
						"label": "mapping(bool => uint256)",
						"numberOfBytes": "32",
						"value": "t_uint256"
					},
					"t_mapping(t_bytes_memory_ptr,t_address)": {
						"encoding": "mapping",
						"key": "t_bytes_memory_ptr",
						"label": "mapping(bytes => address)",
						"numberOfBytes": "32",
						"value": "t_address"
					},
					"t_mapping(t_bytes_memory_ptr,t_bool)": {
						"encoding": "mapping",
						"key": "t_bytes_memory_ptr",
						"label": "mapping(bytes => bool)",
						"numberOfBytes": "32",
						"value": "t_bool"
					},
					"t_mapping(t_bytes_memory_ptr,t_mapping(t_address,t_uint256))": {
						"encoding": "mapping",
						"key": "t_bytes_memory_ptr",
						"label": "mapping(bytes => mapping(address => uint256))",
						"numberOfBytes": "32",
						"value": "t_mapping(t_address,t_uint256)"
					},
					"t_mapping(t_bytes_memory_ptr,t_uint256)": {
						"encoding": "mapping",
						"key": "t_bytes_memory_ptr",
						"label": "mapping(bytes => uint256)",
						"numberOfBytes": "32",
						"value": "t_uint256"
					},
					"t_mapping(t_uint256,t_address)": {
						"encoding": "mapping",
						"key": "t_uint256",
						"label": "mapping(uint256 => address)",
						"numberOfBytes": "32",
						"value": "t_address"
					},
					"t_mapping(t_uint256,t_mapping(t_uint256,t_address))": {
						"encoding": "mapping",
						"key": "t_uint256",
						"label": "mapping(uint256 => mapping(uint256 => address))",
						"numberOfBytes": "32",
						"value": "t_mapping(t_uint256,t_address)"
					},
					"t_mapping(t_uint256,t_mapping(t_uint256,t_uint256))": {
						"encoding": "mapping",
						"key": "t_uint256",
						"label": "mapping(uint256 => mapping(uint256 => uint256))",
						"numberOfBytes": "32",
						"value": "t_mapping(t_uint256,t_uint256)"
					},
					"t_mapping(t_uint256,t_uint256)": {
						"encoding": "mapping",
						"key": "t_uint256",
						"label": "mapping(uint256 => uint256)",
						"numberOfBytes": "32",
						"value": "t_uint256"
					},
					"t_struct(AppStorage)145_storage": {
						"encoding": "inplace",
						"label": "struct AppStorage",
						"members": [
							{
								"astId": 5,
								"contract": "smart contract/SwapCryptoLoanUpdate/contracts/facets/PriceOracleFacet.sol:PriceOracleFacet",
								"label": "ticker",
								"offset": 0,
								"slot": "0",
								"type": "t_mapping(t_bytes_memory_ptr,t_uint256)"
							},
							{
								"astId": 9,
								"contract": "smart contract/SwapCryptoLoanUpdate/contracts/facets/PriceOracleFacet.sol:PriceOracleFacet",
								"label": "pythia",
								"offset": 0,
								"slot": "1",
								"type": "t_mapping(t_address,t_bool)"
							},
							{
								"astId": 14,
								"contract": "smart contract/SwapCryptoLoanUpdate/contracts/facets/PriceOracleFacet.sol:PriceOracleFacet",
								"label": "myReferrals",
								"offset": 0,
								"slot": "2",
								"type": "t_mapping(t_address,t_array(t_address)dyn_storage)"
							},
							{
								"astId": 18,
								"contract": "smart contract/SwapCryptoLoanUpdate/contracts/facets/PriceOracleFacet.sol:PriceOracleFacet",
								"label": "staffId",
								"offset": 0,
								"slot": "3",
								"type": "t_mapping(t_address,t_uint256)"
							},
							{
								"astId": 20,
								"contract": "smart contract/SwapCryptoLoanUpdate/contracts/facets/PriceOracleFacet.sol:PriceOracleFacet",
								"label": "eusdAddr",
								"offset": 0,
								"slot": "4",
								"type": "t_address"
							},
							{
								"astId": 22,
								"contract": "smart contract/SwapCryptoLoanUpdate/contracts/facets/PriceOracleFacet.sol:PriceOracleFacet",
								"label": "egcAddr",
								"offset": 0,
								"slot": "5",
								"type": "t_address"
							},
							{
								"astId": 24,
								"contract": "smart contract/SwapCryptoLoanUpdate/contracts/facets/PriceOracleFacet.sol:PriceOracleFacet",
								"label": "egcusd",
								"offset": 0,
								"slot": "6",
								"type": "t_bytes_storage"
							},
							{
								"astId": 28,
								"contract": "smart contract/SwapCryptoLoanUpdate/contracts/facets/PriceOracleFacet.sol:PriceOracleFacet",
								"label": "member",
								"offset": 0,
								"slot": "7",
								"type": "t_mapping(t_address,t_bool)"
							},
							{
								"astId": 32,
								"contract": "smart contract/SwapCryptoLoanUpdate/contracts/facets/PriceOracleFacet.sol:PriceOracleFacet",
								"label": "plan",
								"offset": 0,
								"slot": "8",
								"type": "t_mapping(t_uint256,t_uint256)"
							},
							{
								"astId": 36,
								"contract": "smart contract/SwapCryptoLoanUpdate/contracts/facets/PriceOracleFacet.sol:PriceOracleFacet",
								"label": "stakingPlan",
								"offset": 0,
								"slot": "9",
								"type": "t_mapping(t_uint256,t_uint256)"
							},
							{
								"astId": 40,
								"contract": "smart contract/SwapCryptoLoanUpdate/contracts/facets/PriceOracleFacet.sol:PriceOracleFacet",
								"label": "expiryDate",
								"offset": 0,
								"slot": "10",
								"type": "t_mapping(t_address,t_uint256)"
							},
							{
								"astId": 44,
								"contract": "smart contract/SwapCryptoLoanUpdate/contracts/facets/PriceOracleFacet.sol:PriceOracleFacet",
								"label": "userTotalStake",
								"offset": 0,
								"slot": "11",
								"type": "t_mapping(t_address,t_uint256)"
							},
							{
								"astId": 48,
								"contract": "smart contract/SwapCryptoLoanUpdate/contracts/facets/PriceOracleFacet.sol:PriceOracleFacet",
								"label": "userTotalStakeUsd",
								"offset": 0,
								"slot": "12",
								"type": "t_mapping(t_address,t_uint256)"
							},
							{
								"astId": 52,
								"contract": "smart contract/SwapCryptoLoanUpdate/contracts/facets/PriceOracleFacet.sol:PriceOracleFacet",
								"label": "dailyRoyalty",
								"offset": 0,
								"slot": "13",
								"type": "t_mapping(t_address,t_uint256)"
							},
							{
								"astId": 56,
								"contract": "smart contract/SwapCryptoLoanUpdate/contracts/facets/PriceOracleFacet.sol:PriceOracleFacet",
								"label": "lockPeriod",
								"offset": 0,
								"slot": "14",
								"type": "t_mapping(t_address,t_uint256)"
							},
							{
								"astId": 60,
								"contract": "smart contract/SwapCryptoLoanUpdate/contracts/facets/PriceOracleFacet.sol:PriceOracleFacet",
								"label": "nextRoyaltyTakePeriod",
								"offset": 0,
								"slot": "15",
								"type": "t_mapping(t_address,t_uint256)"
							},
							{
								"astId": 64,
								"contract": "smart contract/SwapCryptoLoanUpdate/contracts/facets/PriceOracleFacet.sol:PriceOracleFacet",
								"label": "totalRoyaltyTaken",
								"offset": 0,
								"slot": "16",
								"type": "t_mapping(t_address,t_uint256)"
							},
							{
								"astId": 70,
								"contract": "smart contract/SwapCryptoLoanUpdate/contracts/facets/PriceOracleFacet.sol:PriceOracleFacet",
								"label": "userTotalSwap",
								"offset": 0,
								"slot": "17",
								"type": "t_mapping(t_address,t_mapping(t_bool,t_uint256))"
							},
							{
								"astId": 74,
								"contract": "smart contract/SwapCryptoLoanUpdate/contracts/facets/PriceOracleFacet.sol:PriceOracleFacet",
								"label": "totalSwap",
								"offset": 0,
								"slot": "18",
								"type": "t_mapping(t_bool,t_uint256)"
							},
							{
								"astId": 76,
								"contract": "smart contract/SwapCryptoLoanUpdate/contracts/facets/PriceOracleFacet.sol:PriceOracleFacet",
								"label": "_priceOracle",
								"offset": 0,
								"slot": "19",
								"type": "t_address"
							},
							{
								"astId": 78,
								"contract": "smart contract/SwapCryptoLoanUpdate/contracts/facets/PriceOracleFacet.sol:PriceOracleFacet",
								"label": "_price",
								"offset": 0,
								"slot": "20",
								"type": "t_bytes_storage"
							},
							{
								"astId": 80,
								"contract": "smart contract/SwapCryptoLoanUpdate/contracts/facets/PriceOracleFacet.sol:PriceOracleFacet",
								"label": "nextSpillIndex",
								"offset": 0,
								"slot": "21",
								"type": "t_uint256"
							},
							{
								"astId": 84,
								"contract": "smart contract/SwapCryptoLoanUpdate/contracts/facets/PriceOracleFacet.sol:PriceOracleFacet",
								"label": "referredBy",
								"offset": 0,
								"slot": "22",
								"type": "t_mapping(t_address,t_address)"
							},
							{
								"astId": 88,
								"contract": "smart contract/SwapCryptoLoanUpdate/contracts/facets/PriceOracleFacet.sol:PriceOracleFacet",
								"label": "referralRewardBalance",
								"offset": 0,
								"slot": "23",
								"type": "t_mapping(t_address,t_uint256)"
							},
							{
								"astId": 92,
								"contract": "smart contract/SwapCryptoLoanUpdate/contracts/facets/PriceOracleFacet.sol:PriceOracleFacet",
								"label": "referralCount",
								"offset": 0,
								"slot": "24",
								"type": "t_mapping(t_address,t_uint256)"
							},
							{
								"astId": 96,
								"contract": "smart contract/SwapCryptoLoanUpdate/contracts/facets/PriceOracleFacet.sol:PriceOracleFacet",
								"label": "alreadyMember",
								"offset": 0,
								"slot": "25",
								"type": "t_mapping(t_address,t_bool)"
							},
							{
								"astId": 98,
								"contract": "smart contract/SwapCryptoLoanUpdate/contracts/facets/PriceOracleFacet.sol:PriceOracleFacet",
								"label": "referralBurnBalance",
								"offset": 0,
								"slot": "26",
								"type": "t_uint256"
							},
							{
								"astId": 102,
								"contract": "smart contract/SwapCryptoLoanUpdate/contracts/facets/PriceOracleFacet.sol:PriceOracleFacet",
								"label": "referralLink",
								"offset": 0,
								"slot": "27",
								"type": "t_mapping(t_address,t_bytes_storage)"
							},
							{
								"astId": 106,
								"contract": "smart contract/SwapCryptoLoanUpdate/contracts/facets/PriceOracleFacet.sol:PriceOracleFacet",
								"label": "referralAddress",
								"offset": 0,
								"slot": "28",
								"type": "t_mapping(t_bytes_memory_ptr,t_address)"
							},
							{
								"astId": 110,
								"contract": "smart contract/SwapCryptoLoanUpdate/contracts/facets/PriceOracleFacet.sol:PriceOracleFacet",
								"label": "token_address",
								"offset": 0,
								"slot": "29",
								"type": "t_mapping(t_bytes_memory_ptr,t_address)"
							},
							{
								"astId": 114,
								"contract": "smart contract/SwapCryptoLoanUpdate/contracts/facets/PriceOracleFacet.sol:PriceOracleFacet",
								"label": "fee",
								"offset": 0,
								"slot": "30",
								"type": "t_mapping(t_bytes_memory_ptr,t_uint256)"
							},
							{
								"astId": 118,
								"contract": "smart contract/SwapCryptoLoanUpdate/contracts/facets/PriceOracleFacet.sol:PriceOracleFacet",
								"label": "isListed",
								"offset": 0,
								"slot": "31",
								"type": "t_mapping(t_bytes_memory_ptr,t_bool)"
							},
							{
								"astId": 124,
								"contract": "smart contract/SwapCryptoLoanUpdate/contracts/facets/PriceOracleFacet.sol:PriceOracleFacet",
								"label": "liquidity",
								"offset": 0,
								"slot": "32",
								"type": "t_mapping(t_bytes_memory_ptr,t_mapping(t_address,t_uint256))"
							},
							{
								"astId": 130,
								"contract": "smart contract/SwapCryptoLoanUpdate/contracts/facets/PriceOracleFacet.sol:PriceOracleFacet",
								"label": "soldProductAmount",
								"offset": 0,
								"slot": "33",
								"type": "t_mapping(t_uint256,t_mapping(t_uint256,t_uint256))"
							},
							{
								"astId": 136,
								"contract": "smart contract/SwapCryptoLoanUpdate/contracts/facets/PriceOracleFacet.sol:PriceOracleFacet",
								"label": "soldProductBuyer",
								"offset": 0,
								"slot": "34",
								"type": "t_mapping(t_uint256,t_mapping(t_uint256,t_address))"
							},
							{
								"astId": 138,
								"contract": "smart contract/SwapCryptoLoanUpdate/contracts/facets/PriceOracleFacet.sol:PriceOracleFacet",
								"label": "totalStake",
								"offset": 0,
								"slot": "35",
								"type": "t_uint256"
							},
							{
								"astId": 140,
								"contract": "smart contract/SwapCryptoLoanUpdate/contracts/facets/PriceOracleFacet.sol:PriceOracleFacet",
								"label": "totalPenaltyStake",
								"offset": 0,
								"slot": "36",
								"type": "t_uint256"
							},
							{
								"astId": 142,
								"contract": "smart contract/SwapCryptoLoanUpdate/contracts/facets/PriceOracleFacet.sol:PriceOracleFacet",
								"label": "totalUnStake",
								"offset": 0,
								"slot": "37",
								"type": "t_uint256"
							},
							{
								"astId": 144,
								"contract": "smart contract/SwapCryptoLoanUpdate/contracts/facets/PriceOracleFacet.sol:PriceOracleFacet",
								"label": "initProductCount",
								"offset": 0,
								"slot": "38",
								"type": "t_uint256"
							}
						],
						"numberOfBytes": "1248"
					},
					"t_uint256": {
						"encoding": "inplace",
						"label": "uint256",
						"numberOfBytes": "32"
					}
				}
			},
			"userdoc": {
				"kind": "user",
				"methods": {},
				"version": 1
			}
		}
	}
}