{
	"contracts/libraries/SafeDecimalMath.sol": {
		"SafeDecimalMath": {
			"abi": [
				{
					"inputs": [],
					"name": "PRECISE_UNIT",
					"outputs": [
						{
							"internalType": "uint256",
							"name": "",
							"type": "uint256"
						}
					],
					"stateMutability": "view",
					"type": "function"
				},
				{
					"inputs": [],
					"name": "UNIT",
					"outputs": [
						{
							"internalType": "uint256",
							"name": "",
							"type": "uint256"
						}
					],
					"stateMutability": "view",
					"type": "function"
				},
				{
					"inputs": [],
					"name": "decimals",
					"outputs": [
						{
							"internalType": "uint8",
							"name": "",
							"type": "uint8"
						}
					],
					"stateMutability": "view",
					"type": "function"
				},
				{
					"inputs": [],
					"name": "highPrecisionDecimals",
					"outputs": [
						{
							"internalType": "uint8",
							"name": "",
							"type": "uint8"
						}
					],
					"stateMutability": "view",
					"type": "function"
				},
				{
					"inputs": [],
					"name": "preciseUnit",
					"outputs": [
						{
							"internalType": "uint256",
							"name": "",
							"type": "uint256"
						}
					],
					"stateMutability": "pure",
					"type": "function"
				},
				{
					"inputs": [],
					"name": "unit",
					"outputs": [
						{
							"internalType": "uint256",
							"name": "",
							"type": "uint256"
						}
					],
					"stateMutability": "pure",
					"type": "function"
				}
			],
			"devdoc": {
				"kind": "dev",
				"methods": {
					"preciseUnit()": {
						"returns": {
							"_0": "Provides an interface to PRECISE_UNIT."
						}
					},
					"unit()": {
						"returns": {
							"_0": "Provides an interface to UNIT."
						}
					}
				},
				"version": 1
			},
			"evm": {
				"assembly": "    /* \"contracts/libraries/SafeDecimalMath.sol\":177:7675  library SafeDecimalMath {... */\n  dataSize(sub_0)\n  dataOffset(sub_0)\n  0x0b\n  dup3\n  dup3\n  dup3\n  codecopy\n  dup1\n  mload\n  0x00\n  byte\n  0x73\n  eq\n  tag_1\n  jumpi\n  mstore(0x00, 0x4e487b7100000000000000000000000000000000000000000000000000000000)\n  mstore(0x04, 0x00)\n  revert(0x00, 0x24)\ntag_1:\n  mstore(0x00, address)\n  0x73\n  dup2\n  mstore8\n  dup3\n  dup2\n  return\nstop\n\nsub_0: assembly {\n        /* \"contracts/libraries/SafeDecimalMath.sol\":177:7675  library SafeDecimalMath {... */\n      eq(address, deployTimeAddress())\n      mstore(0x40, 0x80)\n      jumpi(tag_1, lt(calldatasize, 0x04))\n      shr(0xe0, calldataload(0x00))\n      dup1\n      0x313ce567\n      eq\n      tag_2\n      jumpi\n      dup1\n      0x864029e7\n      eq\n      tag_3\n      jumpi\n      dup1\n      0x907af6c0\n      eq\n      tag_4\n      jumpi\n      dup1\n      0x9d8e2177\n      eq\n      tag_5\n      jumpi\n      dup1\n      0xd5e5e6e6\n      eq\n      tag_6\n      jumpi\n      dup1\n      0xdef4419d\n      eq\n      tag_7\n      jumpi\n    tag_1:\n      0x00\n      dup1\n      revert\n        /* \"contracts/libraries/SafeDecimalMath.sol\":296:331  uint8 public constant decimals = 18 */\n    tag_2:\n      tag_8\n      tag_9\n      jump\t// in\n    tag_8:\n      mload(0x40)\n      tag_10\n      swap2\n      swap1\n      tag_11\n      jump\t// in\n    tag_10:\n      mload(0x40)\n      dup1\n      swap2\n      sub\n      swap1\n      return\n        /* \"contracts/libraries/SafeDecimalMath.sol\":551:618  uint public constant PRECISE_UNIT = 10**uint(highPrecisionDecimals) */\n    tag_3:\n      tag_12\n      tag_13\n      jump\t// in\n    tag_12:\n      mload(0x40)\n      tag_14\n      swap2\n      swap1\n      tag_15\n      jump\t// in\n    tag_14:\n      mload(0x40)\n      dup1\n      swap2\n      sub\n      swap1\n      return\n        /* \"contracts/libraries/SafeDecimalMath.sol\":800:873  function unit() external pure returns (uint) {... */\n    tag_4:\n      tag_16\n      tag_17\n      jump\t// in\n    tag_16:\n      mload(0x40)\n      tag_18\n      swap2\n      swap1\n      tag_15\n      jump\t// in\n    tag_18:\n      mload(0x40)\n      dup1\n      swap2\n      sub\n      swap1\n      return\n        /* \"contracts/libraries/SafeDecimalMath.sol\":431:477  uint public constant UNIT = 10**uint(decimals) */\n    tag_5:\n      tag_19\n      tag_20\n      jump\t// in\n    tag_19:\n      mload(0x40)\n      tag_21\n      swap2\n      swap1\n      tag_15\n      jump\t// in\n    tag_21:\n      mload(0x40)\n      dup1\n      swap2\n      sub\n      swap1\n      return\n        /* \"contracts/libraries/SafeDecimalMath.sol\":949:1037  function preciseUnit() external pure returns (uint) {... */\n    tag_6:\n      tag_22\n      tag_23\n      jump\t// in\n    tag_22:\n      mload(0x40)\n      tag_24\n      swap2\n      swap1\n      tag_15\n      jump\t// in\n    tag_24:\n      mload(0x40)\n      dup1\n      swap2\n      sub\n      swap1\n      return\n        /* \"contracts/libraries/SafeDecimalMath.sol\":337:385  uint8 public constant highPrecisionDecimals = 27 */\n    tag_7:\n      tag_25\n      tag_26\n      jump\t// in\n    tag_25:\n      mload(0x40)\n      tag_27\n      swap2\n      swap1\n      tag_11\n      jump\t// in\n    tag_27:\n      mload(0x40)\n      dup1\n      swap2\n      sub\n      swap1\n      return\n        /* \"contracts/libraries/SafeDecimalMath.sol\":296:331  uint8 public constant decimals = 18 */\n    tag_9:\n        /* \"contracts/libraries/SafeDecimalMath.sol\":329:331  18 */\n      0x12\n        /* \"contracts/libraries/SafeDecimalMath.sol\":296:331  uint8 public constant decimals = 18 */\n      dup2\n      jump\t// out\n        /* \"contracts/libraries/SafeDecimalMath.sol\":551:618  uint public constant PRECISE_UNIT = 10**uint(highPrecisionDecimals) */\n    tag_13:\n        /* \"contracts/libraries/SafeDecimalMath.sol\":383:385  27 */\n      0x1b\n        /* \"contracts/libraries/SafeDecimalMath.sol\":591:618  uint(highPrecisionDecimals) */\n      0xff\n      and\n        /* \"contracts/libraries/SafeDecimalMath.sol\":587:589  10 */\n      0x0a\n        /* \"contracts/libraries/SafeDecimalMath.sol\":587:618  10**uint(highPrecisionDecimals) */\n      tag_28\n      swap2\n      swap1\n      tag_29\n      jump\t// in\n    tag_28:\n        /* \"contracts/libraries/SafeDecimalMath.sol\":551:618  uint public constant PRECISE_UNIT = 10**uint(highPrecisionDecimals) */\n      dup2\n      jump\t// out\n        /* \"contracts/libraries/SafeDecimalMath.sol\":800:873  function unit() external pure returns (uint) {... */\n    tag_17:\n        /* \"contracts/libraries/SafeDecimalMath.sol\":839:843  uint */\n      0x00\n        /* \"contracts/libraries/SafeDecimalMath.sol\":329:331  18 */\n      0x12\n        /* \"contracts/libraries/SafeDecimalMath.sol\":463:477  uint(decimals) */\n      0xff\n      and\n        /* \"contracts/libraries/SafeDecimalMath.sol\":459:461  10 */\n      0x0a\n        /* \"contracts/libraries/SafeDecimalMath.sol\":459:477  10**uint(decimals) */\n      tag_31\n      swap2\n      swap1\n      tag_29\n      jump\t// in\n    tag_31:\n        /* \"contracts/libraries/SafeDecimalMath.sol\":855:866  return UNIT */\n      swap1\n      pop\n        /* \"contracts/libraries/SafeDecimalMath.sol\":800:873  function unit() external pure returns (uint) {... */\n      swap1\n      jump\t// out\n        /* \"contracts/libraries/SafeDecimalMath.sol\":431:477  uint public constant UNIT = 10**uint(decimals) */\n    tag_20:\n        /* \"contracts/libraries/SafeDecimalMath.sol\":329:331  18 */\n      0x12\n        /* \"contracts/libraries/SafeDecimalMath.sol\":463:477  uint(decimals) */\n      0xff\n      and\n        /* \"contracts/libraries/SafeDecimalMath.sol\":459:461  10 */\n      0x0a\n        /* \"contracts/libraries/SafeDecimalMath.sol\":459:477  10**uint(decimals) */\n      tag_32\n      swap2\n      swap1\n      tag_29\n      jump\t// in\n    tag_32:\n        /* \"contracts/libraries/SafeDecimalMath.sol\":431:477  uint public constant UNIT = 10**uint(decimals) */\n      dup2\n      jump\t// out\n        /* \"contracts/libraries/SafeDecimalMath.sol\":949:1037  function preciseUnit() external pure returns (uint) {... */\n    tag_23:\n        /* \"contracts/libraries/SafeDecimalMath.sol\":995:999  uint */\n      0x00\n        /* \"contracts/libraries/SafeDecimalMath.sol\":383:385  27 */\n      0x1b\n        /* \"contracts/libraries/SafeDecimalMath.sol\":591:618  uint(highPrecisionDecimals) */\n      0xff\n      and\n        /* \"contracts/libraries/SafeDecimalMath.sol\":587:589  10 */\n      0x0a\n        /* \"contracts/libraries/SafeDecimalMath.sol\":587:618  10**uint(highPrecisionDecimals) */\n      tag_34\n      swap2\n      swap1\n      tag_29\n      jump\t// in\n    tag_34:\n        /* \"contracts/libraries/SafeDecimalMath.sol\":1011:1030  return PRECISE_UNIT */\n      swap1\n      pop\n        /* \"contracts/libraries/SafeDecimalMath.sol\":949:1037  function preciseUnit() external pure returns (uint) {... */\n      swap1\n      jump\t// out\n        /* \"contracts/libraries/SafeDecimalMath.sol\":337:385  uint8 public constant highPrecisionDecimals = 27 */\n    tag_26:\n        /* \"contracts/libraries/SafeDecimalMath.sol\":383:385  27 */\n      0x1b\n        /* \"contracts/libraries/SafeDecimalMath.sol\":337:385  uint8 public constant highPrecisionDecimals = 27 */\n      dup2\n      jump\t// out\n        /* \"#utility.yul\":7:93   */\n    tag_35:\n        /* \"#utility.yul\":42:49   */\n      0x00\n        /* \"#utility.yul\":82:86   */\n      0xff\n        /* \"#utility.yul\":75:80   */\n      dup3\n        /* \"#utility.yul\":71:87   */\n      and\n        /* \"#utility.yul\":60:87   */\n      swap1\n      pop\n        /* \"#utility.yul\":7:93   */\n      swap2\n      swap1\n      pop\n      jump\t// out\n        /* \"#utility.yul\":99:219   */\n    tag_36:\n        /* \"#utility.yul\":190:212   */\n      tag_46\n        /* \"#utility.yul\":206:211   */\n      dup2\n        /* \"#utility.yul\":190:212   */\n      tag_35\n      jump\t// in\n    tag_46:\n        /* \"#utility.yul\":185:188   */\n      dup3\n        /* \"#utility.yul\":178:213   */\n      mstore\n        /* \"#utility.yul\":99:219   */\n      pop\n      pop\n      jump\t// out\n        /* \"#utility.yul\":225:455   */\n    tag_11:\n        /* \"#utility.yul\":322:326   */\n      0x00\n        /* \"#utility.yul\":360:362   */\n      0x20\n        /* \"#utility.yul\":349:358   */\n      dup3\n        /* \"#utility.yul\":345:363   */\n      add\n        /* \"#utility.yul\":337:363   */\n      swap1\n      pop\n        /* \"#utility.yul\":373:448   */\n      tag_48\n        /* \"#utility.yul\":445:446   */\n      0x00\n        /* \"#utility.yul\":434:443   */\n      dup4\n        /* \"#utility.yul\":430:447   */\n      add\n        /* \"#utility.yul\":421:427   */\n      dup5\n        /* \"#utility.yul\":373:448   */\n      tag_36\n      jump\t// in\n    tag_48:\n        /* \"#utility.yul\":225:455   */\n      swap3\n      swap2\n      pop\n      pop\n      jump\t// out\n        /* \"#utility.yul\":461:538   */\n    tag_37:\n        /* \"#utility.yul\":498:505   */\n      0x00\n        /* \"#utility.yul\":527:532   */\n      dup2\n        /* \"#utility.yul\":516:532   */\n      swap1\n      pop\n        /* \"#utility.yul\":461:538   */\n      swap2\n      swap1\n      pop\n      jump\t// out\n        /* \"#utility.yul\":544:670   */\n    tag_38:\n        /* \"#utility.yul\":639:663   */\n      tag_51\n        /* \"#utility.yul\":657:662   */\n      dup2\n        /* \"#utility.yul\":639:663   */\n      tag_37\n      jump\t// in\n    tag_51:\n        /* \"#utility.yul\":634:637   */\n      dup3\n        /* \"#utility.yul\":627:664   */\n      mstore\n        /* \"#utility.yul\":544:670   */\n      pop\n      pop\n      jump\t// out\n        /* \"#utility.yul\":676:914   */\n    tag_15:\n        /* \"#utility.yul\":777:781   */\n      0x00\n        /* \"#utility.yul\":815:817   */\n      0x20\n        /* \"#utility.yul\":804:813   */\n      dup3\n        /* \"#utility.yul\":800:818   */\n      add\n        /* \"#utility.yul\":792:818   */\n      swap1\n      pop\n        /* \"#utility.yul\":828:907   */\n      tag_53\n        /* \"#utility.yul\":904:905   */\n      0x00\n        /* \"#utility.yul\":893:902   */\n      dup4\n        /* \"#utility.yul\":889:906   */\n      add\n        /* \"#utility.yul\":880:886   */\n      dup5\n        /* \"#utility.yul\":828:907   */\n      tag_38\n      jump\t// in\n    tag_53:\n        /* \"#utility.yul\":676:914   */\n      swap3\n      swap2\n      pop\n      pop\n      jump\t// out\n        /* \"#utility.yul\":920:1100   */\n    tag_39:\n        /* \"#utility.yul\":968:1045   */\n      0x4e487b7100000000000000000000000000000000000000000000000000000000\n        /* \"#utility.yul\":965:966   */\n      0x00\n        /* \"#utility.yul\":958:1046   */\n      mstore\n        /* \"#utility.yul\":1065:1069   */\n      0x11\n        /* \"#utility.yul\":1062:1063   */\n      0x04\n        /* \"#utility.yul\":1055:1070   */\n      mstore\n        /* \"#utility.yul\":1089:1093   */\n      0x24\n        /* \"#utility.yul\":1086:1087   */\n      0x00\n        /* \"#utility.yul\":1079:1094   */\n      revert\n        /* \"#utility.yul\":1106:1208   */\n    tag_40:\n        /* \"#utility.yul\":1148:1156   */\n      0x00\n        /* \"#utility.yul\":1195:1200   */\n      dup2\n        /* \"#utility.yul\":1192:1193   */\n      0x01\n        /* \"#utility.yul\":1188:1201   */\n      shr\n        /* \"#utility.yul\":1167:1201   */\n      swap1\n      pop\n        /* \"#utility.yul\":1106:1208   */\n      swap2\n      swap1\n      pop\n      jump\t// out\n        /* \"#utility.yul\":1214:2062   */\n    tag_41:\n        /* \"#utility.yul\":1275:1280   */\n      0x00\n        /* \"#utility.yul\":1282:1286   */\n      dup1\n        /* \"#utility.yul\":1306:1312   */\n      dup3\n        /* \"#utility.yul\":1297:1312   */\n      swap2\n      pop\n        /* \"#utility.yul\":1330:1335   */\n      dup4\n        /* \"#utility.yul\":1321:1335   */\n      swap1\n      pop\n        /* \"#utility.yul\":1344:2056   */\n    tag_57:\n        /* \"#utility.yul\":1365:1366   */\n      0x01\n        /* \"#utility.yul\":1355:1363   */\n      dup6\n        /* \"#utility.yul\":1352:1367   */\n      gt\n        /* \"#utility.yul\":1344:2056   */\n      iszero\n      tag_59\n      jumpi\n        /* \"#utility.yul\":1460:1464   */\n      dup1\n        /* \"#utility.yul\":1455:1458   */\n      dup7\n        /* \"#utility.yul\":1451:1465   */\n      div\n        /* \"#utility.yul\":1445:1449   */\n      dup2\n        /* \"#utility.yul\":1442:1466   */\n      gt\n        /* \"#utility.yul\":1439:1489   */\n      iszero\n      tag_60\n      jumpi\n        /* \"#utility.yul\":1469:1487   */\n      tag_61\n      tag_39\n      jump\t// in\n    tag_61:\n        /* \"#utility.yul\":1439:1489   */\n    tag_60:\n        /* \"#utility.yul\":1519:1520   */\n      0x01\n        /* \"#utility.yul\":1509:1517   */\n      dup6\n        /* \"#utility.yul\":1505:1521   */\n      and\n        /* \"#utility.yul\":1502:1953   */\n      iszero\n      tag_62\n      jumpi\n        /* \"#utility.yul\":1934:1938   */\n      dup1\n        /* \"#utility.yul\":1927:1932   */\n      dup3\n        /* \"#utility.yul\":1923:1939   */\n      mul\n        /* \"#utility.yul\":1914:1939   */\n      swap2\n      pop\n        /* \"#utility.yul\":1502:1953   */\n    tag_62:\n        /* \"#utility.yul\":1984:1988   */\n      dup1\n        /* \"#utility.yul\":1978:1982   */\n      dup2\n        /* \"#utility.yul\":1974:1989   */\n      mul\n        /* \"#utility.yul\":1966:1989   */\n      swap1\n      pop\n        /* \"#utility.yul\":2014:2046   */\n      tag_63\n        /* \"#utility.yul\":2037:2045   */\n      dup6\n        /* \"#utility.yul\":2014:2046   */\n      tag_40\n      jump\t// in\n    tag_63:\n        /* \"#utility.yul\":2002:2046   */\n      swap5\n      pop\n        /* \"#utility.yul\":1344:2056   */\n      jump(tag_57)\n    tag_59:\n        /* \"#utility.yul\":1214:2062   */\n      swap5\n      pop\n      swap5\n      swap3\n      pop\n      pop\n      pop\n      jump\t// out\n        /* \"#utility.yul\":2068:3141   */\n    tag_42:\n        /* \"#utility.yul\":2122:2127   */\n      0x00\n        /* \"#utility.yul\":2313:2321   */\n      dup3\n        /* \"#utility.yul\":2303:2343   */\n      tag_65\n      jumpi\n        /* \"#utility.yul\":2334:2335   */\n      0x01\n        /* \"#utility.yul\":2325:2335   */\n      swap1\n      pop\n        /* \"#utility.yul\":2336:2341   */\n      jump(tag_64)\n        /* \"#utility.yul\":2303:2343   */\n    tag_65:\n        /* \"#utility.yul\":2362:2366   */\n      dup2\n        /* \"#utility.yul\":2352:2388   */\n      tag_66\n      jumpi\n        /* \"#utility.yul\":2379:2380   */\n      0x00\n        /* \"#utility.yul\":2370:2380   */\n      swap1\n      pop\n        /* \"#utility.yul\":2381:2386   */\n      jump(tag_64)\n        /* \"#utility.yul\":2352:2388   */\n    tag_66:\n        /* \"#utility.yul\":2448:2452   */\n      dup2\n        /* \"#utility.yul\":2496:2497   */\n      0x01\n        /* \"#utility.yul\":2491:2518   */\n      dup2\n      eq\n      tag_68\n      jumpi\n        /* \"#utility.yul\":2532:2533   */\n      0x02\n        /* \"#utility.yul\":2527:2718   */\n      dup2\n      eq\n      tag_69\n      jumpi\n        /* \"#utility.yul\":2441:2718   */\n      jump(tag_67)\n        /* \"#utility.yul\":2491:2518   */\n    tag_68:\n        /* \"#utility.yul\":2509:2510   */\n      0x01\n        /* \"#utility.yul\":2500:2510   */\n      swap2\n      pop\n        /* \"#utility.yul\":2511:2516   */\n      pop\n      jump(tag_64)\n        /* \"#utility.yul\":2527:2718   */\n    tag_69:\n        /* \"#utility.yul\":2572:2575   */\n      0xff\n        /* \"#utility.yul\":2562:2570   */\n      dup5\n        /* \"#utility.yul\":2559:2576   */\n      gt\n        /* \"#utility.yul\":2556:2599   */\n      iszero\n      tag_70\n      jumpi\n        /* \"#utility.yul\":2579:2597   */\n      tag_71\n      tag_39\n      jump\t// in\n    tag_71:\n        /* \"#utility.yul\":2556:2599   */\n    tag_70:\n        /* \"#utility.yul\":2628:2636   */\n      dup4\n        /* \"#utility.yul\":2625:2626   */\n      0x02\n        /* \"#utility.yul\":2621:2637   */\n      exp\n        /* \"#utility.yul\":2612:2637   */\n      swap2\n      pop\n        /* \"#utility.yul\":2663:2666   */\n      dup5\n        /* \"#utility.yul\":2656:2661   */\n      dup3\n        /* \"#utility.yul\":2653:2667   */\n      gt\n        /* \"#utility.yul\":2650:2690   */\n      iszero\n      tag_72\n      jumpi\n        /* \"#utility.yul\":2670:2688   */\n      tag_73\n      tag_39\n      jump\t// in\n    tag_73:\n        /* \"#utility.yul\":2650:2690   */\n    tag_72:\n        /* \"#utility.yul\":2703:2708   */\n      pop\n      jump(tag_64)\n        /* \"#utility.yul\":2441:2718   */\n    tag_67:\n      pop\n        /* \"#utility.yul\":2827:2829   */\n      0x20\n        /* \"#utility.yul\":2817:2825   */\n      dup4\n        /* \"#utility.yul\":2814:2830   */\n      lt\n        /* \"#utility.yul\":2808:2811   */\n      0x0133\n        /* \"#utility.yul\":2802:2806   */\n      dup4\n        /* \"#utility.yul\":2799:2812   */\n      lt\n        /* \"#utility.yul\":2795:2831   */\n      and\n        /* \"#utility.yul\":2777:2779   */\n      0x4e\n        /* \"#utility.yul\":2767:2775   */\n      dup5\n        /* \"#utility.yul\":2764:2780   */\n      lt\n        /* \"#utility.yul\":2759:2761   */\n      0x0b\n        /* \"#utility.yul\":2753:2757   */\n      dup5\n        /* \"#utility.yul\":2750:2762   */\n      lt\n        /* \"#utility.yul\":2746:2781   */\n      and\n        /* \"#utility.yul\":2730:2841   */\n      or\n        /* \"#utility.yul\":2727:2973   */\n      iszero\n      tag_74\n      jumpi\n        /* \"#utility.yul\":2883:2891   */\n      dup3\n        /* \"#utility.yul\":2877:2881   */\n      dup3\n        /* \"#utility.yul\":2873:2892   */\n      exp\n        /* \"#utility.yul\":2864:2892   */\n      swap1\n      pop\n        /* \"#utility.yul\":2918:2921   */\n      dup4\n        /* \"#utility.yul\":2911:2916   */\n      dup2\n        /* \"#utility.yul\":2908:2922   */\n      gt\n        /* \"#utility.yul\":2905:2945   */\n      iszero\n      tag_75\n      jumpi\n        /* \"#utility.yul\":2925:2943   */\n      tag_76\n      tag_39\n      jump\t// in\n    tag_76:\n        /* \"#utility.yul\":2905:2945   */\n    tag_75:\n        /* \"#utility.yul\":2958:2963   */\n      jump(tag_64)\n        /* \"#utility.yul\":2727:2973   */\n    tag_74:\n        /* \"#utility.yul\":2998:3040   */\n      tag_77\n        /* \"#utility.yul\":3036:3039   */\n      dup5\n        /* \"#utility.yul\":3026:3034   */\n      dup5\n        /* \"#utility.yul\":3020:3024   */\n      dup5\n        /* \"#utility.yul\":3017:3018   */\n      0x01\n        /* \"#utility.yul\":2998:3040   */\n      tag_41\n      jump\t// in\n    tag_77:\n        /* \"#utility.yul\":2983:3040   */\n      swap3\n      pop\n      swap1\n      pop\n        /* \"#utility.yul\":3072:3076   */\n      dup2\n        /* \"#utility.yul\":3067:3070   */\n      dup5\n        /* \"#utility.yul\":3063:3077   */\n      div\n        /* \"#utility.yul\":3056:3061   */\n      dup2\n        /* \"#utility.yul\":3053:3078   */\n      gt\n        /* \"#utility.yul\":3050:3101   */\n      iszero\n      tag_78\n      jumpi\n        /* \"#utility.yul\":3081:3099   */\n      tag_79\n      tag_39\n      jump\t// in\n    tag_79:\n        /* \"#utility.yul\":3050:3101   */\n    tag_78:\n        /* \"#utility.yul\":3130:3134   */\n      dup2\n        /* \"#utility.yul\":3123:3128   */\n      dup2\n        /* \"#utility.yul\":3119:3135   */\n      mul\n        /* \"#utility.yul\":3110:3135   */\n      swap1\n      pop\n        /* \"#utility.yul\":2068:3141   */\n    tag_64:\n      swap4\n      swap3\n      pop\n      pop\n      pop\n      jump\t// out\n        /* \"#utility.yul\":3147:3432   */\n    tag_29:\n        /* \"#utility.yul\":3207:3212   */\n      0x00\n        /* \"#utility.yul\":3231:3254   */\n      tag_81\n        /* \"#utility.yul\":3249:3253   */\n      dup3\n        /* \"#utility.yul\":3231:3254   */\n      tag_37\n      jump\t// in\n    tag_81:\n        /* \"#utility.yul\":3223:3254   */\n      swap2\n      pop\n        /* \"#utility.yul\":3275:3302   */\n      tag_82\n        /* \"#utility.yul\":3293:3301   */\n      dup4\n        /* \"#utility.yul\":3275:3302   */\n      tag_37\n      jump\t// in\n    tag_82:\n        /* \"#utility.yul\":3263:3302   */\n      swap3\n      pop\n        /* \"#utility.yul\":3321:3425   */\n      tag_83\n        /* \"#utility.yul\":3358:3424   */\n      0xffffffffffffffffffffffffffffffffffffffffffffffffffffffffffffffff\n        /* \"#utility.yul\":3348:3356   */\n      dup5\n        /* \"#utility.yul\":3342:3346   */\n      dup5\n        /* \"#utility.yul\":3321:3425   */\n      tag_42\n      jump\t// in\n    tag_83:\n        /* \"#utility.yul\":3312:3425   */\n      swap1\n      pop\n        /* \"#utility.yul\":3147:3432   */\n      swap3\n      swap2\n      pop\n      pop\n      jump\t// out\n\n    auxdata: 0xa264697066735822122099e64ece5b1102f3a6d5271976e118137fa9b1ba6c2906af1e27240e1a7e061164736f6c634300080c0033\n}\n",
				"bytecode": {
					"linkReferences": {},
					"object": "6103d5610053600b82828239805160001a607314610046577f4e487b7100000000000000000000000000000000000000000000000000000000600052600060045260246000fd5b30600052607381538281f3fe730000000000000000000000000000000000000000301460806040526004361061006c5760003560e01c8063313ce56714610071578063864029e71461008f578063907af6c0146100ad5780639d8e2177146100cb578063d5e5e6e6146100e9578063def4419d14610107575b600080fd5b610079610125565b60405161008691906101a3565b60405180910390f35b61009761012a565b6040516100a491906101d7565b60405180910390f35b6100b561013e565b6040516100c291906101d7565b60405180910390f35b6100d3610156565b6040516100e091906101d7565b60405180910390f35b6100f161016a565b6040516100fe91906101d7565b60405180910390f35b61010f610182565b60405161011c91906101a3565b60405180910390f35b601281565b601b60ff16600a61013b9190610354565b81565b6000601260ff16600a6101519190610354565b905090565b601260ff16600a6101679190610354565b81565b6000601b60ff16600a61017d9190610354565b905090565b601b81565b600060ff82169050919050565b61019d81610187565b82525050565b60006020820190506101b86000830184610194565b92915050565b6000819050919050565b6101d1816101be565b82525050565b60006020820190506101ec60008301846101c8565b92915050565b7f4e487b7100000000000000000000000000000000000000000000000000000000600052601160045260246000fd5b60008160011c9050919050565b6000808291508390505b600185111561027857808604811115610254576102536101f2565b5b60018516156102635780820291505b808102905061027185610221565b9450610238565b94509492505050565b600082610291576001905061034d565b8161029f576000905061034d565b81600181146102b557600281146102bf576102ee565b600191505061034d565b60ff8411156102d1576102d06101f2565b5b8360020a9150848211156102e8576102e76101f2565b5b5061034d565b5060208310610133831016604e8410600b84101617156103235782820a90508381111561031e5761031d6101f2565b5b61034d565b610330848484600161022e565b92509050818404811115610347576103466101f2565b5b81810290505b9392505050565b600061035f826101be565b915061036a836101be565b92506103977fffffffffffffffffffffffffffffffffffffffffffffffffffffffffffffffff8484610281565b90509291505056fea264697066735822122099e64ece5b1102f3a6d5271976e118137fa9b1ba6c2906af1e27240e1a7e061164736f6c634300080c0033",
					"opcodes": "PUSH2 0x3D5 PUSH2 0x53 PUSH1 0xB DUP3 DUP3 DUP3 CODECOPY DUP1 MLOAD PUSH1 0x0 BYTE PUSH1 0x73 EQ PUSH2 0x46 JUMPI PUSH32 0x4E487B7100000000000000000000000000000000000000000000000000000000 PUSH1 0x0 MSTORE PUSH1 0x0 PUSH1 0x4 MSTORE PUSH1 0x24 PUSH1 0x0 REVERT JUMPDEST ADDRESS PUSH1 0x0 MSTORE PUSH1 0x73 DUP2 MSTORE8 DUP3 DUP2 RETURN INVALID PUSH20 0x0 ADDRESS EQ PUSH1 0x80 PUSH1 0x40 MSTORE PUSH1 0x4 CALLDATASIZE LT PUSH2 0x6C JUMPI PUSH1 0x0 CALLDATALOAD PUSH1 0xE0 SHR DUP1 PUSH4 0x313CE567 EQ PUSH2 0x71 JUMPI DUP1 PUSH4 0x864029E7 EQ PUSH2 0x8F JUMPI DUP1 PUSH4 0x907AF6C0 EQ PUSH2 0xAD JUMPI DUP1 PUSH4 0x9D8E2177 EQ PUSH2 0xCB JUMPI DUP1 PUSH4 0xD5E5E6E6 EQ PUSH2 0xE9 JUMPI DUP1 PUSH4 0xDEF4419D EQ PUSH2 0x107 JUMPI JUMPDEST PUSH1 0x0 DUP1 REVERT JUMPDEST PUSH2 0x79 PUSH2 0x125 JUMP JUMPDEST PUSH1 0x40 MLOAD PUSH2 0x86 SWAP2 SWAP1 PUSH2 0x1A3 JUMP JUMPDEST PUSH1 0x40 MLOAD DUP1 SWAP2 SUB SWAP1 RETURN JUMPDEST PUSH2 0x97 PUSH2 0x12A JUMP JUMPDEST PUSH1 0x40 MLOAD PUSH2 0xA4 SWAP2 SWAP1 PUSH2 0x1D7 JUMP JUMPDEST PUSH1 0x40 MLOAD DUP1 SWAP2 SUB SWAP1 RETURN JUMPDEST PUSH2 0xB5 PUSH2 0x13E JUMP JUMPDEST PUSH1 0x40 MLOAD PUSH2 0xC2 SWAP2 SWAP1 PUSH2 0x1D7 JUMP JUMPDEST PUSH1 0x40 MLOAD DUP1 SWAP2 SUB SWAP1 RETURN JUMPDEST PUSH2 0xD3 PUSH2 0x156 JUMP JUMPDEST PUSH1 0x40 MLOAD PUSH2 0xE0 SWAP2 SWAP1 PUSH2 0x1D7 JUMP JUMPDEST PUSH1 0x40 MLOAD DUP1 SWAP2 SUB SWAP1 RETURN JUMPDEST PUSH2 0xF1 PUSH2 0x16A JUMP JUMPDEST PUSH1 0x40 MLOAD PUSH2 0xFE SWAP2 SWAP1 PUSH2 0x1D7 JUMP JUMPDEST PUSH1 0x40 MLOAD DUP1 SWAP2 SUB SWAP1 RETURN JUMPDEST PUSH2 0x10F PUSH2 0x182 JUMP JUMPDEST PUSH1 0x40 MLOAD PUSH2 0x11C SWAP2 SWAP1 PUSH2 0x1A3 JUMP JUMPDEST PUSH1 0x40 MLOAD DUP1 SWAP2 SUB SWAP1 RETURN JUMPDEST PUSH1 0x12 DUP2 JUMP JUMPDEST PUSH1 0x1B PUSH1 0xFF AND PUSH1 0xA PUSH2 0x13B SWAP2 SWAP1 PUSH2 0x354 JUMP JUMPDEST DUP2 JUMP JUMPDEST PUSH1 0x0 PUSH1 0x12 PUSH1 0xFF AND PUSH1 0xA PUSH2 0x151 SWAP2 SWAP1 PUSH2 0x354 JUMP JUMPDEST SWAP1 POP SWAP1 JUMP JUMPDEST PUSH1 0x12 PUSH1 0xFF AND PUSH1 0xA PUSH2 0x167 SWAP2 SWAP1 PUSH2 0x354 JUMP JUMPDEST DUP2 JUMP JUMPDEST PUSH1 0x0 PUSH1 0x1B PUSH1 0xFF AND PUSH1 0xA PUSH2 0x17D SWAP2 SWAP1 PUSH2 0x354 JUMP JUMPDEST SWAP1 POP SWAP1 JUMP JUMPDEST PUSH1 0x1B DUP2 JUMP JUMPDEST PUSH1 0x0 PUSH1 0xFF DUP3 AND SWAP1 POP SWAP2 SWAP1 POP JUMP JUMPDEST PUSH2 0x19D DUP2 PUSH2 0x187 JUMP JUMPDEST DUP3 MSTORE POP POP JUMP JUMPDEST PUSH1 0x0 PUSH1 0x20 DUP3 ADD SWAP1 POP PUSH2 0x1B8 PUSH1 0x0 DUP4 ADD DUP5 PUSH2 0x194 JUMP JUMPDEST SWAP3 SWAP2 POP POP JUMP JUMPDEST PUSH1 0x0 DUP2 SWAP1 POP SWAP2 SWAP1 POP JUMP JUMPDEST PUSH2 0x1D1 DUP2 PUSH2 0x1BE JUMP JUMPDEST DUP3 MSTORE POP POP JUMP JUMPDEST PUSH1 0x0 PUSH1 0x20 DUP3 ADD SWAP1 POP PUSH2 0x1EC PUSH1 0x0 DUP4 ADD DUP5 PUSH2 0x1C8 JUMP JUMPDEST SWAP3 SWAP2 POP POP JUMP JUMPDEST PUSH32 0x4E487B7100000000000000000000000000000000000000000000000000000000 PUSH1 0x0 MSTORE PUSH1 0x11 PUSH1 0x4 MSTORE PUSH1 0x24 PUSH1 0x0 REVERT JUMPDEST PUSH1 0x0 DUP2 PUSH1 0x1 SHR SWAP1 POP SWAP2 SWAP1 POP JUMP JUMPDEST PUSH1 0x0 DUP1 DUP3 SWAP2 POP DUP4 SWAP1 POP JUMPDEST PUSH1 0x1 DUP6 GT ISZERO PUSH2 0x278 JUMPI DUP1 DUP7 DIV DUP2 GT ISZERO PUSH2 0x254 JUMPI PUSH2 0x253 PUSH2 0x1F2 JUMP JUMPDEST JUMPDEST PUSH1 0x1 DUP6 AND ISZERO PUSH2 0x263 JUMPI DUP1 DUP3 MUL SWAP2 POP JUMPDEST DUP1 DUP2 MUL SWAP1 POP PUSH2 0x271 DUP6 PUSH2 0x221 JUMP JUMPDEST SWAP5 POP PUSH2 0x238 JUMP JUMPDEST SWAP5 POP SWAP5 SWAP3 POP POP POP JUMP JUMPDEST PUSH1 0x0 DUP3 PUSH2 0x291 JUMPI PUSH1 0x1 SWAP1 POP PUSH2 0x34D JUMP JUMPDEST DUP2 PUSH2 0x29F JUMPI PUSH1 0x0 SWAP1 POP PUSH2 0x34D JUMP JUMPDEST DUP2 PUSH1 0x1 DUP2 EQ PUSH2 0x2B5 JUMPI PUSH1 0x2 DUP2 EQ PUSH2 0x2BF JUMPI PUSH2 0x2EE JUMP JUMPDEST PUSH1 0x1 SWAP2 POP POP PUSH2 0x34D JUMP JUMPDEST PUSH1 0xFF DUP5 GT ISZERO PUSH2 0x2D1 JUMPI PUSH2 0x2D0 PUSH2 0x1F2 JUMP JUMPDEST JUMPDEST DUP4 PUSH1 0x2 EXP SWAP2 POP DUP5 DUP3 GT ISZERO PUSH2 0x2E8 JUMPI PUSH2 0x2E7 PUSH2 0x1F2 JUMP JUMPDEST JUMPDEST POP PUSH2 0x34D JUMP JUMPDEST POP PUSH1 0x20 DUP4 LT PUSH2 0x133 DUP4 LT AND PUSH1 0x4E DUP5 LT PUSH1 0xB DUP5 LT AND OR ISZERO PUSH2 0x323 JUMPI DUP3 DUP3 EXP SWAP1 POP DUP4 DUP2 GT ISZERO PUSH2 0x31E JUMPI PUSH2 0x31D PUSH2 0x1F2 JUMP JUMPDEST JUMPDEST PUSH2 0x34D JUMP JUMPDEST PUSH2 0x330 DUP5 DUP5 DUP5 PUSH1 0x1 PUSH2 0x22E JUMP JUMPDEST SWAP3 POP SWAP1 POP DUP2 DUP5 DIV DUP2 GT ISZERO PUSH2 0x347 JUMPI PUSH2 0x346 PUSH2 0x1F2 JUMP JUMPDEST JUMPDEST DUP2 DUP2 MUL SWAP1 POP JUMPDEST SWAP4 SWAP3 POP POP POP JUMP JUMPDEST PUSH1 0x0 PUSH2 0x35F DUP3 PUSH2 0x1BE JUMP JUMPDEST SWAP2 POP PUSH2 0x36A DUP4 PUSH2 0x1BE JUMP JUMPDEST SWAP3 POP PUSH2 0x397 PUSH32 0xFFFFFFFFFFFFFFFFFFFFFFFFFFFFFFFFFFFFFFFFFFFFFFFFFFFFFFFFFFFFFFFF DUP5 DUP5 PUSH2 0x281 JUMP JUMPDEST SWAP1 POP SWAP3 SWAP2 POP POP JUMP INVALID LOG2 PUSH5 0x6970667358 0x22 SLT KECCAK256 SWAP10 0xE6 0x4E 0xCE JUMPDEST GT MUL RETURN 0xA6 0xD5 0x27 NOT PUSH23 0xE118137FA9B1BA6C2906AF1E27240E1A7E061164736F6C PUSH4 0x4300080C STOP CALLER "
				},
				"gasEstimates": {
					"creation": {
						"codeDepositCost": "196200",
						"executionCost": "263",
						"totalCost": "196463"
					},
					"external": {
						"PRECISE_UNIT()": "infinite",
						"UNIT()": "infinite",
						"decimals()": "297",
						"highPrecisionDecimals()": "407",
						"preciseUnit()": "infinite",
						"unit()": "infinite"
					},
					"internal": {
						"_divideDecimalRound(uint256,uint256,uint256)": "infinite",
						"_multiplyDecimalRound(uint256,uint256,uint256)": "infinite",
						"abs(int256)": "infinite",
						"decimalToPreciseDecimal(uint256)": "infinite",
						"divideDecimal(uint256,uint256)": "infinite",
						"divideDecimalRound(uint256,uint256)": "infinite",
						"divideDecimalRoundPrecise(uint256,uint256)": "infinite",
						"floorsub(uint256,uint256)": "infinite",
						"multiplyDecimal(uint256,uint256)": "infinite",
						"multiplyDecimalRound(uint256,uint256)": "infinite",
						"multiplyDecimalRoundPrecise(uint256,uint256)": "infinite",
						"preciseDecimalToDecimal(uint256)": "infinite",
						"signedAbs(int256)": "infinite"
					}
				},
				"methodIdentifiers": {
					"PRECISE_UNIT()": "864029e7",
					"UNIT()": "9d8e2177",
					"decimals()": "313ce567",
					"highPrecisionDecimals()": "def4419d",
					"preciseUnit()": "d5e5e6e6",
					"unit()": "907af6c0"
				}
			},
			"storageLayout": {
				"storage": [],
				"types": null
			},
			"userdoc": {
				"kind": "user",
				"methods": {},
				"version": 1
			}
		}
	}
}