{
	"contracts/libraries/Utils.sol": {
		"Utils": {
			"abi": [
				{
					"inputs": [
						{
							"internalType": "uint256",
							"name": "timestamp",
							"type": "uint256"
						}
					],
					"name": "getDay",
					"outputs": [
						{
							"internalType": "uint8",
							"name": "",
							"type": "uint8"
						}
					],
					"stateMutability": "pure",
					"type": "function"
				},
				{
					"inputs": [
						{
							"internalType": "uint8",
							"name": "month",
							"type": "uint8"
						},
						{
							"internalType": "uint16",
							"name": "year",
							"type": "uint16"
						}
					],
					"name": "getDaysInMonth",
					"outputs": [
						{
							"internalType": "uint8",
							"name": "",
							"type": "uint8"
						}
					],
					"stateMutability": "pure",
					"type": "function"
				},
				{
					"inputs": [
						{
							"internalType": "uint256",
							"name": "start",
							"type": "uint256"
						},
						{
							"internalType": "uint256",
							"name": "end",
							"type": "uint256"
						}
					],
					"name": "getDiff",
					"outputs": [
						{
							"internalType": "uint256",
							"name": "",
							"type": "uint256"
						}
					],
					"stateMutability": "pure",
					"type": "function"
				},
				{
					"inputs": [
						{
							"internalType": "uint256",
							"name": "timestamp",
							"type": "uint256"
						}
					],
					"name": "getHour",
					"outputs": [
						{
							"internalType": "uint8",
							"name": "",
							"type": "uint8"
						}
					],
					"stateMutability": "pure",
					"type": "function"
				},
				{
					"inputs": [
						{
							"internalType": "uint256",
							"name": "timestamp",
							"type": "uint256"
						}
					],
					"name": "getMinute",
					"outputs": [
						{
							"internalType": "uint8",
							"name": "",
							"type": "uint8"
						}
					],
					"stateMutability": "pure",
					"type": "function"
				},
				{
					"inputs": [
						{
							"internalType": "uint256",
							"name": "timestamp",
							"type": "uint256"
						}
					],
					"name": "getMonth",
					"outputs": [
						{
							"internalType": "uint8",
							"name": "",
							"type": "uint8"
						}
					],
					"stateMutability": "pure",
					"type": "function"
				},
				{
					"inputs": [
						{
							"internalType": "uint256",
							"name": "timestamp",
							"type": "uint256"
						}
					],
					"name": "getSecond",
					"outputs": [
						{
							"internalType": "uint8",
							"name": "",
							"type": "uint8"
						}
					],
					"stateMutability": "pure",
					"type": "function"
				},
				{
					"inputs": [
						{
							"internalType": "uint256",
							"name": "timestamp",
							"type": "uint256"
						}
					],
					"name": "getWeekday",
					"outputs": [
						{
							"internalType": "uint8",
							"name": "",
							"type": "uint8"
						}
					],
					"stateMutability": "pure",
					"type": "function"
				},
				{
					"inputs": [
						{
							"internalType": "uint256",
							"name": "timestamp",
							"type": "uint256"
						}
					],
					"name": "getYear",
					"outputs": [
						{
							"internalType": "uint16",
							"name": "",
							"type": "uint16"
						}
					],
					"stateMutability": "pure",
					"type": "function"
				},
				{
					"inputs": [
						{
							"internalType": "uint16",
							"name": "year",
							"type": "uint16"
						}
					],
					"name": "isLeapYear",
					"outputs": [
						{
							"internalType": "bool",
							"name": "",
							"type": "bool"
						}
					],
					"stateMutability": "pure",
					"type": "function"
				},
				{
					"inputs": [
						{
							"internalType": "uint256",
							"name": "year",
							"type": "uint256"
						}
					],
					"name": "leapYearsBefore",
					"outputs": [
						{
							"internalType": "uint256",
							"name": "",
							"type": "uint256"
						}
					],
					"stateMutability": "pure",
					"type": "function"
				},
				{
					"inputs": [
						{
							"internalType": "uint16",
							"name": "year",
							"type": "uint16"
						},
						{
							"internalType": "uint8",
							"name": "month",
							"type": "uint8"
						},
						{
							"internalType": "uint8",
							"name": "day",
							"type": "uint8"
						},
						{
							"internalType": "uint8",
							"name": "hour",
							"type": "uint8"
						},
						{
							"internalType": "uint8",
							"name": "minute",
							"type": "uint8"
						}
					],
					"name": "toTimestamp",
					"outputs": [
						{
							"internalType": "uint256",
							"name": "timestamp",
							"type": "uint256"
						}
					],
					"stateMutability": "pure",
					"type": "function"
				},
				{
					"inputs": [
						{
							"internalType": "uint16",
							"name": "year",
							"type": "uint16"
						},
						{
							"internalType": "uint8",
							"name": "month",
							"type": "uint8"
						},
						{
							"internalType": "uint8",
							"name": "day",
							"type": "uint8"
						},
						{
							"internalType": "uint8",
							"name": "hour",
							"type": "uint8"
						}
					],
					"name": "toTimestamp",
					"outputs": [
						{
							"internalType": "uint256",
							"name": "timestamp",
							"type": "uint256"
						}
					],
					"stateMutability": "pure",
					"type": "function"
				},
				{
					"inputs": [
						{
							"internalType": "uint16",
							"name": "year",
							"type": "uint16"
						},
						{
							"internalType": "uint8",
							"name": "month",
							"type": "uint8"
						},
						{
							"internalType": "uint8",
							"name": "day",
							"type": "uint8"
						}
					],
					"name": "toTimestamp",
					"outputs": [
						{
							"internalType": "uint256",
							"name": "timestamp",
							"type": "uint256"
						}
					],
					"stateMutability": "pure",
					"type": "function"
				},
				{
					"inputs": [
						{
							"internalType": "uint16",
							"name": "year",
							"type": "uint16"
						},
						{
							"internalType": "uint8",
							"name": "month",
							"type": "uint8"
						},
						{
							"internalType": "uint8",
							"name": "day",
							"type": "uint8"
						},
						{
							"internalType": "uint8",
							"name": "hour",
							"type": "uint8"
						},
						{
							"internalType": "uint8",
							"name": "minute",
							"type": "uint8"
						},
						{
							"internalType": "uint8",
							"name": "second",
							"type": "uint8"
						}
					],
					"name": "toTimestamp",
					"outputs": [
						{
							"internalType": "uint256",
							"name": "timestamp",
							"type": "uint256"
						}
					],
					"stateMutability": "pure",
					"type": "function"
				}
			],
			"devdoc": {
				"kind": "dev",
				"methods": {},
				"version": 1
			},
			"evm": {
				"assembly": "    /* \"contracts/libraries/Utils.sol\":126:7909  library Utils {... */\n  dataSize(sub_0)\n  dataOffset(sub_0)\n  0x0b\n  dup3\n  dup3\n  dup3\n  codecopy\n  dup1\n  mload\n  0x00\n  byte\n  0x73\n  eq\n  tag_1\n  jumpi\n  mstore(0x00, 0x4e487b7100000000000000000000000000000000000000000000000000000000)\n  mstore(0x04, 0x00)\n  revert(0x00, 0x24)\ntag_1:\n  mstore(0x00, address)\n  0x73\n  dup2\n  mstore8\n  dup3\n  dup2\n  return\nstop\n\nsub_0: assembly {\n        /* \"contracts/libraries/Utils.sol\":126:7909  library Utils {... */\n      eq(address, deployTimeAddress())\n      mstore(0x40, 0x80)\n      jumpi(tag_1, lt(calldatasize, 0x04))\n      shr(0xe0, calldataload(0x00))\n      dup1\n      0x9054bdec\n      gt\n      tag_17\n      jumpi\n      dup1\n      0xb1999937\n      gt\n      tag_18\n      jumpi\n      dup1\n      0xb1999937\n      eq\n      tag_13\n      jumpi\n      dup1\n      0xb238ad0e\n      eq\n      tag_14\n      jumpi\n      dup1\n      0xd7734855\n      eq\n      tag_15\n      jumpi\n      dup1\n      0xfa93f883\n      eq\n      tag_16\n      jumpi\n      jump(tag_1)\n    tag_18:\n      dup1\n      0x9054bdec\n      eq\n      tag_9\n      jumpi\n      dup1\n      0x92d66313\n      eq\n      tag_10\n      jumpi\n      dup1\n      0xa324ad24\n      eq\n      tag_11\n      jumpi\n      dup1\n      0xa6f0e577\n      eq\n      tag_12\n      jumpi\n      jump(tag_1)\n    tag_17:\n      dup1\n      0x65c72840\n      gt\n      tag_19\n      jumpi\n      dup1\n      0x65c72840\n      eq\n      tag_5\n      jumpi\n      dup1\n      0x7f791833\n      eq\n      tag_6\n      jumpi\n      dup1\n      0x8aa001fc\n      eq\n      tag_7\n      jumpi\n      dup1\n      0x8c8d98a0\n      eq\n      tag_8\n      jumpi\n      jump(tag_1)\n    tag_19:\n      dup1\n      0x3e239e1a\n      eq\n      tag_2\n      jumpi\n      dup1\n      0x4ac1ad78\n      eq\n      tag_3\n      jumpi\n      dup1\n      0x62ba9687\n      eq\n      tag_4\n      jumpi\n    tag_1:\n      0x00\n      dup1\n      revert\n        /* \"contracts/libraries/Utils.sol\":5350:5471  function getHour(uint256 timestamp) public pure returns (uint8) {... */\n    tag_2:\n      tag_20\n      0x04\n      dup1\n      calldatasize\n      sub\n      dup2\n      add\n      swap1\n      tag_21\n      swap2\n      swap1\n      tag_22\n      jump\t// in\n    tag_21:\n      tag_23\n      jump\t// in\n    tag_20:\n      mload(0x40)\n      tag_24\n      swap2\n      swap1\n      tag_25\n      jump\t// in\n    tag_24:\n      mload(0x40)\n      dup1\n      swap2\n      sub\n      swap1\n      return\n        /* \"contracts/libraries/Utils.sol\":5718:5852  function getWeekday(uint256 timestamp) public pure returns (uint8) {... */\n    tag_3:\n      tag_26\n      0x04\n      dup1\n      calldatasize\n      sub\n      dup2\n      add\n      swap1\n      tag_27\n      swap2\n      swap1\n      tag_22\n      jump\t// in\n    tag_27:\n      tag_28\n      jump\t// in\n    tag_26:\n      mload(0x40)\n      tag_29\n      swap2\n      swap1\n      tag_25\n      jump\t// in\n    tag_29:\n      mload(0x40)\n      dup1\n      swap2\n      sub\n      swap1\n      return\n        /* \"contracts/libraries/Utils.sol\":6273:6513  function toTimestamp(... */\n    tag_4:\n      tag_30\n      0x04\n      dup1\n      calldatasize\n      sub\n      dup2\n      add\n      swap1\n      tag_31\n      swap2\n      swap1\n      tag_32\n      jump\t// in\n    tag_31:\n      tag_33\n      jump\t// in\n    tag_30:\n      mload(0x40)\n      tag_34\n      swap2\n      swap1\n      tag_35\n      jump\t// in\n    tag_34:\n      mload(0x40)\n      dup1\n      swap2\n      sub\n      swap1\n      return\n        /* \"contracts/libraries/Utils.sol\":5228:5344  function getDay(uint256 timestamp) public pure returns (uint8) {... */\n    tag_5:\n      tag_36\n      0x04\n      dup1\n      calldatasize\n      sub\n      dup2\n      add\n      swap1\n      tag_37\n      swap2\n      swap1\n      tag_22\n      jump\t// in\n    tag_37:\n      tag_38\n      jump\t// in\n    tag_36:\n      mload(0x40)\n      tag_39\n      swap2\n      swap1\n      tag_25\n      jump\t// in\n    tag_39:\n      mload(0x40)\n      dup1\n      swap2\n      sub\n      swap1\n      return\n        /* \"contracts/libraries/Utils.sol\":6054:6267  function toTimestamp(... */\n    tag_6:\n      tag_40\n      0x04\n      dup1\n      calldatasize\n      sub\n      dup2\n      add\n      swap1\n      tag_41\n      swap2\n      swap1\n      tag_42\n      jump\t// in\n    tag_41:\n      tag_43\n      jump\t// in\n    tag_40:\n      mload(0x40)\n      tag_44\n      swap2\n      swap1\n      tag_35\n      jump\t// in\n    tag_44:\n      mload(0x40)\n      dup1\n      swap2\n      sub\n      swap1\n      return\n        /* \"contracts/libraries/Utils.sol\":5601:5712  function getSecond(uint256 timestamp) public pure returns (uint8) {... */\n    tag_7:\n      tag_45\n      0x04\n      dup1\n      calldatasize\n      sub\n      dup2\n      add\n      swap1\n      tag_46\n      swap2\n      swap1\n      tag_22\n      jump\t// in\n    tag_46:\n      tag_47\n      jump\t// in\n    tag_45:\n      mload(0x40)\n      tag_48\n      swap2\n      swap1\n      tag_25\n      jump\t// in\n    tag_48:\n      mload(0x40)\n      dup1\n      swap2\n      sub\n      swap1\n      return\n        /* \"contracts/libraries/Utils.sol\":5858:6048  function toTimestamp(... */\n    tag_8:\n      tag_49\n      0x04\n      dup1\n      calldatasize\n      sub\n      dup2\n      add\n      swap1\n      tag_50\n      swap2\n      swap1\n      tag_51\n      jump\t// in\n    tag_50:\n      tag_52\n      jump\t// in\n    tag_49:\n      mload(0x40)\n      tag_53\n      swap2\n      swap1\n      tag_35\n      jump\t// in\n    tag_53:\n      mload(0x40)\n      dup1\n      swap2\n      sub\n      swap1\n      return\n        /* \"contracts/libraries/Utils.sol\":6519:7907  function toTimestamp(... */\n    tag_9:\n      tag_54\n      0x04\n      dup1\n      calldatasize\n      sub\n      dup2\n      add\n      swap1\n      tag_55\n      swap2\n      swap1\n      tag_56\n      jump\t// in\n    tag_55:\n      tag_57\n      jump\t// in\n    tag_54:\n      mload(0x40)\n      tag_58\n      swap2\n      swap1\n      tag_35\n      jump\t// in\n    tag_58:\n      mload(0x40)\n      dup1\n      swap2\n      sub\n      swap1\n      return\n        /* \"contracts/libraries/Utils.sol\":4288:5096  function getYear(uint256 timestamp) public pure returns (uint16) {... */\n    tag_10:\n      tag_59\n      0x04\n      dup1\n      calldatasize\n      sub\n      dup2\n      add\n      swap1\n      tag_60\n      swap2\n      swap1\n      tag_22\n      jump\t// in\n    tag_60:\n      tag_61\n      jump\t// in\n    tag_59:\n      mload(0x40)\n      tag_62\n      swap2\n      swap1\n      tag_63\n      jump\t// in\n    tag_62:\n      mload(0x40)\n      dup1\n      swap2\n      sub\n      swap1\n      return\n        /* \"contracts/libraries/Utils.sol\":5102:5222  function getMonth(uint256 timestamp) public pure returns (uint8) {... */\n    tag_11:\n      tag_64\n      0x04\n      dup1\n      calldatasize\n      sub\n      dup2\n      add\n      swap1\n      tag_65\n      swap2\n      swap1\n      tag_22\n      jump\t// in\n    tag_65:\n      tag_66\n      jump\t// in\n    tag_64:\n      mload(0x40)\n      tag_67\n      swap2\n      swap1\n      tag_25\n      jump\t// in\n    tag_67:\n      mload(0x40)\n      dup1\n      swap2\n      sub\n      swap1\n      return\n        /* \"contracts/libraries/Utils.sol\":1956:2242  function isLeapYear(uint16 year) public pure returns (bool) {... */\n    tag_12:\n      tag_68\n      0x04\n      dup1\n      calldatasize\n      sub\n      dup2\n      add\n      swap1\n      tag_69\n      swap2\n      swap1\n      tag_70\n      jump\t// in\n    tag_69:\n      tag_71\n      jump\t// in\n    tag_68:\n      mload(0x40)\n      tag_72\n      swap2\n      swap1\n      tag_73\n      jump\t// in\n    tag_72:\n      mload(0x40)\n      dup1\n      swap2\n      sub\n      swap1\n      return\n        /* \"contracts/libraries/Utils.sol\":2248:2394  function leapYearsBefore(uint256 year) public pure returns (uint256) {... */\n    tag_13:\n      tag_74\n      0x04\n      dup1\n      calldatasize\n      sub\n      dup2\n      add\n      swap1\n      tag_75\n      swap2\n      swap1\n      tag_22\n      jump\t// in\n    tag_75:\n      tag_76\n      jump\t// in\n    tag_74:\n      mload(0x40)\n      tag_77\n      swap2\n      swap1\n      tag_35\n      jump\t// in\n    tag_77:\n      mload(0x40)\n      dup1\n      swap2\n      sub\n      swap1\n      return\n        /* \"contracts/libraries/Utils.sol\":2400:2947  function getDaysInMonth(... */\n    tag_14:\n      tag_78\n      0x04\n      dup1\n      calldatasize\n      sub\n      dup2\n      add\n      swap1\n      tag_79\n      swap2\n      swap1\n      tag_80\n      jump\t// in\n    tag_79:\n      tag_81\n      jump\t// in\n    tag_78:\n      mload(0x40)\n      tag_82\n      swap2\n      swap1\n      tag_25\n      jump\t// in\n    tag_82:\n      mload(0x40)\n      dup1\n      swap2\n      sub\n      swap1\n      return\n        /* \"contracts/libraries/Utils.sol\":1710:1950  function getDiff(uint256 start, uint256 end) public pure returns (uint256) {... */\n    tag_15:\n      tag_83\n      0x04\n      dup1\n      calldatasize\n      sub\n      dup2\n      add\n      swap1\n      tag_84\n      swap2\n      swap1\n      tag_85\n      jump\t// in\n    tag_84:\n      tag_86\n      jump\t// in\n    tag_83:\n      mload(0x40)\n      tag_87\n      swap2\n      swap1\n      tag_35\n      jump\t// in\n    tag_87:\n      mload(0x40)\n      dup1\n      swap2\n      sub\n      swap1\n      return\n        /* \"contracts/libraries/Utils.sol\":5477:5595  function getMinute(uint256 timestamp) public pure returns (uint8) {... */\n    tag_16:\n      tag_88\n      0x04\n      dup1\n      calldatasize\n      sub\n      dup2\n      add\n      swap1\n      tag_89\n      swap2\n      swap1\n      tag_22\n      jump\t// in\n    tag_89:\n      tag_90\n      jump\t// in\n    tag_88:\n      mload(0x40)\n      tag_91\n      swap2\n      swap1\n      tag_25\n      jump\t// in\n    tag_91:\n      mload(0x40)\n      dup1\n      swap2\n      sub\n      swap1\n      return\n        /* \"contracts/libraries/Utils.sol\":5350:5471  function getHour(uint256 timestamp) public pure returns (uint8) {... */\n    tag_23:\n        /* \"contracts/libraries/Utils.sol\":5407:5412  uint8 */\n      0x00\n        /* \"contracts/libraries/Utils.sol\":5461:5463  24 */\n      0x18\n        /* \"contracts/libraries/Utils.sol\":5455:5457  60 */\n      0x3c\n        /* \"contracts/libraries/Utils.sol\":5450:5452  60 */\n      dup1\n        /* \"contracts/libraries/Utils.sol\":5438:5447  timestamp */\n      dup5\n        /* \"contracts/libraries/Utils.sol\":5438:5452  timestamp / 60 */\n      tag_93\n      swap2\n      swap1\n      tag_94\n      jump\t// in\n    tag_93:\n        /* \"contracts/libraries/Utils.sol\":5438:5457  timestamp / 60 / 60 */\n      tag_95\n      swap2\n      swap1\n      tag_94\n      jump\t// in\n    tag_95:\n        /* \"contracts/libraries/Utils.sol\":5437:5463  (timestamp / 60 / 60) % 24 */\n      tag_96\n      swap2\n      swap1\n      tag_97\n      jump\t// in\n    tag_96:\n        /* \"contracts/libraries/Utils.sol\":5424:5464  return uint8((timestamp / 60 / 60) % 24) */\n      swap1\n      pop\n        /* \"contracts/libraries/Utils.sol\":5350:5471  function getHour(uint256 timestamp) public pure returns (uint8) {... */\n      swap2\n      swap1\n      pop\n      jump\t// out\n        /* \"contracts/libraries/Utils.sol\":5718:5852  function getWeekday(uint256 timestamp) public pure returns (uint8) {... */\n    tag_28:\n        /* \"contracts/libraries/Utils.sol\":5778:5783  uint8 */\n      0x00\n        /* \"contracts/libraries/Utils.sol\":5843:5844  7 */\n      0x07\n        /* \"contracts/libraries/Utils.sol\":5838:5839  4 */\n      0x04\n        /* \"contracts/libraries/Utils.sol\":432:437  86400 */\n      0x015180\n        /* \"contracts/libraries/Utils.sol\":5809:5818  timestamp */\n      dup5\n        /* \"contracts/libraries/Utils.sol\":5809:5835  timestamp / DAY_IN_SECONDS */\n      tag_99\n      swap2\n      swap1\n      tag_94\n      jump\t// in\n    tag_99:\n        /* \"contracts/libraries/Utils.sol\":5809:5839  timestamp / DAY_IN_SECONDS + 4 */\n      tag_100\n      swap2\n      swap1\n      tag_101\n      jump\t// in\n    tag_100:\n        /* \"contracts/libraries/Utils.sol\":5808:5844  (timestamp / DAY_IN_SECONDS + 4) % 7 */\n      tag_102\n      swap2\n      swap1\n      tag_97\n      jump\t// in\n    tag_102:\n        /* \"contracts/libraries/Utils.sol\":5795:5845  return uint8((timestamp / DAY_IN_SECONDS + 4) % 7) */\n      swap1\n      pop\n        /* \"contracts/libraries/Utils.sol\":5718:5852  function getWeekday(uint256 timestamp) public pure returns (uint8) {... */\n      swap2\n      swap1\n      pop\n      jump\t// out\n        /* \"contracts/libraries/Utils.sol\":6273:6513  function toTimestamp(... */\n    tag_33:\n        /* \"contracts/libraries/Utils.sol\":6424:6441  uint256 timestamp */\n      0x00\n        /* \"contracts/libraries/Utils.sol\":6460:6506  toTimestamp(year, month, day, hour, minute, 0) */\n      tag_104\n        /* \"contracts/libraries/Utils.sol\":6472:6476  year */\n      dup7\n        /* \"contracts/libraries/Utils.sol\":6478:6483  month */\n      dup7\n        /* \"contracts/libraries/Utils.sol\":6485:6488  day */\n      dup7\n        /* \"contracts/libraries/Utils.sol\":6490:6494  hour */\n      dup7\n        /* \"contracts/libraries/Utils.sol\":6496:6502  minute */\n      dup7\n        /* \"contracts/libraries/Utils.sol\":6504:6505  0 */\n      0x00\n        /* \"contracts/libraries/Utils.sol\":6460:6471  toTimestamp */\n      tag_57\n        /* \"contracts/libraries/Utils.sol\":6460:6506  toTimestamp(year, month, day, hour, minute, 0) */\n      jump\t// in\n    tag_104:\n        /* \"contracts/libraries/Utils.sol\":6453:6506  return toTimestamp(year, month, day, hour, minute, 0) */\n      swap1\n      pop\n        /* \"contracts/libraries/Utils.sol\":6273:6513  function toTimestamp(... */\n      swap6\n      swap5\n      pop\n      pop\n      pop\n      pop\n      pop\n      jump\t// out\n        /* \"contracts/libraries/Utils.sol\":5228:5344  function getDay(uint256 timestamp) public pure returns (uint8) {... */\n    tag_38:\n        /* \"contracts/libraries/Utils.sol\":5284:5289  uint8 */\n      0x00\n        /* \"contracts/libraries/Utils.sol\":5308:5333  parseTimestamp(timestamp) */\n      tag_106\n        /* \"contracts/libraries/Utils.sol\":5323:5332  timestamp */\n      dup3\n        /* \"contracts/libraries/Utils.sol\":5308:5322  parseTimestamp */\n      tag_107\n        /* \"contracts/libraries/Utils.sol\":5308:5333  parseTimestamp(timestamp) */\n      jump\t// in\n    tag_106:\n        /* \"contracts/libraries/Utils.sol\":5308:5337  parseTimestamp(timestamp).day */\n      0x40\n      add\n      mload\n        /* \"contracts/libraries/Utils.sol\":5301:5337  return parseTimestamp(timestamp).day */\n      swap1\n      pop\n        /* \"contracts/libraries/Utils.sol\":5228:5344  function getDay(uint256 timestamp) public pure returns (uint8) {... */\n      swap2\n      swap1\n      pop\n      jump\t// out\n        /* \"contracts/libraries/Utils.sol\":6054:6267  function toTimestamp(... */\n    tag_43:\n        /* \"contracts/libraries/Utils.sol\":6183:6200  uint256 timestamp */\n      0x00\n        /* \"contracts/libraries/Utils.sol\":6219:6260  toTimestamp(year, month, day, hour, 0, 0) */\n      tag_109\n        /* \"contracts/libraries/Utils.sol\":6231:6235  year */\n      dup6\n        /* \"contracts/libraries/Utils.sol\":6237:6242  month */\n      dup6\n        /* \"contracts/libraries/Utils.sol\":6244:6247  day */\n      dup6\n        /* \"contracts/libraries/Utils.sol\":6249:6253  hour */\n      dup6\n        /* \"contracts/libraries/Utils.sol\":6255:6256  0 */\n      0x00\n        /* \"contracts/libraries/Utils.sol\":6258:6259  0 */\n      dup1\n        /* \"contracts/libraries/Utils.sol\":6219:6230  toTimestamp */\n      tag_57\n        /* \"contracts/libraries/Utils.sol\":6219:6260  toTimestamp(year, month, day, hour, 0, 0) */\n      jump\t// in\n    tag_109:\n        /* \"contracts/libraries/Utils.sol\":6212:6260  return toTimestamp(year, month, day, hour, 0, 0) */\n      swap1\n      pop\n        /* \"contracts/libraries/Utils.sol\":6054:6267  function toTimestamp(... */\n      swap5\n      swap4\n      pop\n      pop\n      pop\n      pop\n      jump\t// out\n        /* \"contracts/libraries/Utils.sol\":5601:5712  function getSecond(uint256 timestamp) public pure returns (uint8) {... */\n    tag_47:\n        /* \"contracts/libraries/Utils.sol\":5660:5665  uint8 */\n      0x00\n        /* \"contracts/libraries/Utils.sol\":5702:5704  60 */\n      0x3c\n        /* \"contracts/libraries/Utils.sol\":5690:5699  timestamp */\n      dup3\n        /* \"contracts/libraries/Utils.sol\":5690:5704  timestamp % 60 */\n      tag_111\n      swap2\n      swap1\n      tag_97\n      jump\t// in\n    tag_111:\n        /* \"contracts/libraries/Utils.sol\":5677:5705  return uint8(timestamp % 60) */\n      swap1\n      pop\n        /* \"contracts/libraries/Utils.sol\":5601:5712  function getSecond(uint256 timestamp) public pure returns (uint8) {... */\n      swap2\n      swap1\n      pop\n      jump\t// out\n        /* \"contracts/libraries/Utils.sol\":5858:6048  function toTimestamp(... */\n    tag_52:\n        /* \"contracts/libraries/Utils.sol\":5967:5984  uint256 timestamp */\n      0x00\n        /* \"contracts/libraries/Utils.sol\":6003:6041  toTimestamp(year, month, day, 0, 0, 0) */\n      tag_113\n        /* \"contracts/libraries/Utils.sol\":6015:6019  year */\n      dup5\n        /* \"contracts/libraries/Utils.sol\":6021:6026  month */\n      dup5\n        /* \"contracts/libraries/Utils.sol\":6028:6031  day */\n      dup5\n        /* \"contracts/libraries/Utils.sol\":6033:6034  0 */\n      0x00\n        /* \"contracts/libraries/Utils.sol\":6036:6037  0 */\n      dup1\n        /* \"contracts/libraries/Utils.sol\":6039:6040  0 */\n      0x00\n        /* \"contracts/libraries/Utils.sol\":6003:6014  toTimestamp */\n      tag_57\n        /* \"contracts/libraries/Utils.sol\":6003:6041  toTimestamp(year, month, day, 0, 0, 0) */\n      jump\t// in\n    tag_113:\n        /* \"contracts/libraries/Utils.sol\":5996:6041  return toTimestamp(year, month, day, 0, 0, 0) */\n      swap1\n      pop\n        /* \"contracts/libraries/Utils.sol\":5858:6048  function toTimestamp(... */\n      swap4\n      swap3\n      pop\n      pop\n      pop\n      jump\t// out\n        /* \"contracts/libraries/Utils.sol\":6519:7907  function toTimestamp(... */\n    tag_57:\n        /* \"contracts/libraries/Utils.sol\":6692:6709  uint256 timestamp */\n      0x00\n        /* \"contracts/libraries/Utils.sol\":6721:6729  uint16 i */\n      dup1\n        /* \"contracts/libraries/Utils.sol\":707:711  1970 */\n      0x07b2\n        /* \"contracts/libraries/Utils.sol\":6761:6776  i = ORIGIN_YEAR */\n      swap1\n      pop\n        /* \"contracts/libraries/Utils.sol\":6756:6969  for (i = ORIGIN_YEAR; i < year; i++) {... */\n    tag_115:\n        /* \"contracts/libraries/Utils.sol\":6782:6786  year */\n      dup8\n        /* \"contracts/libraries/Utils.sol\":6778:6786  i < year */\n      0xffff\n      and\n        /* \"contracts/libraries/Utils.sol\":6778:6779  i */\n      dup2\n        /* \"contracts/libraries/Utils.sol\":6778:6786  i < year */\n      0xffff\n      and\n      lt\n        /* \"contracts/libraries/Utils.sol\":6756:6969  for (i = ORIGIN_YEAR; i < year; i++) {... */\n      iszero\n      tag_116\n      jumpi\n        /* \"contracts/libraries/Utils.sol\":6811:6824  isLeapYear(i) */\n      tag_118\n        /* \"contracts/libraries/Utils.sol\":6822:6823  i */\n      dup2\n        /* \"contracts/libraries/Utils.sol\":6811:6821  isLeapYear */\n      tag_71\n        /* \"contracts/libraries/Utils.sol\":6811:6824  isLeapYear(i) */\n      jump\t// in\n    tag_118:\n        /* \"contracts/libraries/Utils.sol\":6807:6959  if (isLeapYear(i)) {... */\n      iszero\n      tag_119\n      jumpi\n        /* \"contracts/libraries/Utils.sol\":532:540  31622400 */\n      0x01e28500\n        /* \"contracts/libraries/Utils.sol\":6844:6877  timestamp += LEAP_YEAR_IN_SECONDS */\n      dup3\n      tag_120\n      swap2\n      swap1\n      tag_101\n      jump\t// in\n    tag_120:\n      swap2\n      pop\n        /* \"contracts/libraries/Utils.sol\":6807:6959  if (isLeapYear(i)) {... */\n      jump(tag_121)\n    tag_119:\n        /* \"contracts/libraries/Utils.sol\":478:486  31536000 */\n      0x01e13380\n        /* \"contracts/libraries/Utils.sol\":6916:6944  timestamp += YEAR_IN_SECONDS */\n      dup3\n      tag_122\n      swap2\n      swap1\n      tag_101\n      jump\t// in\n    tag_122:\n      swap2\n      pop\n        /* \"contracts/libraries/Utils.sol\":6807:6959  if (isLeapYear(i)) {... */\n    tag_121:\n        /* \"contracts/libraries/Utils.sol\":6788:6791  i++ */\n      dup1\n      dup1\n      tag_123\n      swap1\n      tag_124\n      jump\t// in\n    tag_123:\n      swap2\n      pop\n      pop\n        /* \"contracts/libraries/Utils.sol\":6756:6969  for (i = ORIGIN_YEAR; i < year; i++) {... */\n      jump(tag_115)\n    tag_116:\n        /* \"contracts/libraries/Utils.sol\":6996:7027  uint8[12] memory monthDayCounts */\n      tag_125\n      tag_126\n      jump\t// in\n    tag_125:\n        /* \"contracts/libraries/Utils.sol\":7057:7059  31 */\n      0x1f\n        /* \"contracts/libraries/Utils.sol\":7037:7051  monthDayCounts */\n      dup2\n        /* \"contracts/libraries/Utils.sol\":7052:7053  0 */\n      0x00\n        /* \"contracts/libraries/Utils.sol\":7037:7054  monthDayCounts[0] */\n      0x0c\n      dup2\n      lt\n      tag_127\n      jumpi\n      tag_128\n      tag_129\n      jump\t// in\n    tag_128:\n    tag_127:\n      0x20\n      mul\n      add\n        /* \"contracts/libraries/Utils.sol\":7037:7059  monthDayCounts[0] = 31 */\n      swap1\n      0xff\n      and\n      swap1\n      dup2\n      0xff\n      and\n      dup2\n      mstore\n      pop\n      pop\n        /* \"contracts/libraries/Utils.sol\":7073:7089  isLeapYear(year) */\n      tag_130\n        /* \"contracts/libraries/Utils.sol\":7084:7088  year */\n      dup10\n        /* \"contracts/libraries/Utils.sol\":7073:7083  isLeapYear */\n      tag_71\n        /* \"contracts/libraries/Utils.sol\":7073:7089  isLeapYear(year) */\n      jump\t// in\n    tag_130:\n        /* \"contracts/libraries/Utils.sol\":7069:7191  if (isLeapYear(year)) {... */\n      iszero\n      tag_131\n      jumpi\n        /* \"contracts/libraries/Utils.sol\":7125:7127  29 */\n      0x1d\n        /* \"contracts/libraries/Utils.sol\":7105:7119  monthDayCounts */\n      dup2\n        /* \"contracts/libraries/Utils.sol\":7120:7121  1 */\n      0x01\n        /* \"contracts/libraries/Utils.sol\":7105:7122  monthDayCounts[1] */\n      0x0c\n      dup2\n      lt\n      tag_132\n      jumpi\n      tag_133\n      tag_129\n      jump\t// in\n    tag_133:\n    tag_132:\n      0x20\n      mul\n      add\n        /* \"contracts/libraries/Utils.sol\":7105:7127  monthDayCounts[1] = 29 */\n      swap1\n      0xff\n      and\n      swap1\n      dup2\n      0xff\n      and\n      dup2\n      mstore\n      pop\n      pop\n        /* \"contracts/libraries/Utils.sol\":7069:7191  if (isLeapYear(year)) {... */\n      jump(tag_134)\n    tag_131:\n        /* \"contracts/libraries/Utils.sol\":7178:7180  28 */\n      0x1c\n        /* \"contracts/libraries/Utils.sol\":7158:7172  monthDayCounts */\n      dup2\n        /* \"contracts/libraries/Utils.sol\":7173:7174  1 */\n      0x01\n        /* \"contracts/libraries/Utils.sol\":7158:7175  monthDayCounts[1] */\n      0x0c\n      dup2\n      lt\n      tag_135\n      jumpi\n      tag_136\n      tag_129\n      jump\t// in\n    tag_136:\n    tag_135:\n      0x20\n      mul\n      add\n        /* \"contracts/libraries/Utils.sol\":7158:7180  monthDayCounts[1] = 28 */\n      swap1\n      0xff\n      and\n      swap1\n      dup2\n      0xff\n      and\n      dup2\n      mstore\n      pop\n      pop\n        /* \"contracts/libraries/Utils.sol\":7069:7191  if (isLeapYear(year)) {... */\n    tag_134:\n        /* \"contracts/libraries/Utils.sol\":7220:7222  31 */\n      0x1f\n        /* \"contracts/libraries/Utils.sol\":7200:7214  monthDayCounts */\n      dup2\n        /* \"contracts/libraries/Utils.sol\":7215:7216  2 */\n      0x02\n        /* \"contracts/libraries/Utils.sol\":7200:7217  monthDayCounts[2] */\n      0x0c\n      dup2\n      lt\n      tag_137\n      jumpi\n      tag_138\n      tag_129\n      jump\t// in\n    tag_138:\n    tag_137:\n      0x20\n      mul\n      add\n        /* \"contracts/libraries/Utils.sol\":7200:7222  monthDayCounts[2] = 31 */\n      swap1\n      0xff\n      and\n      swap1\n      dup2\n      0xff\n      and\n      dup2\n      mstore\n      pop\n      pop\n        /* \"contracts/libraries/Utils.sol\":7252:7254  30 */\n      0x1e\n        /* \"contracts/libraries/Utils.sol\":7232:7246  monthDayCounts */\n      dup2\n        /* \"contracts/libraries/Utils.sol\":7247:7248  3 */\n      0x03\n        /* \"contracts/libraries/Utils.sol\":7232:7249  monthDayCounts[3] */\n      0x0c\n      dup2\n      lt\n      tag_139\n      jumpi\n      tag_140\n      tag_129\n      jump\t// in\n    tag_140:\n    tag_139:\n      0x20\n      mul\n      add\n        /* \"contracts/libraries/Utils.sol\":7232:7254  monthDayCounts[3] = 30 */\n      swap1\n      0xff\n      and\n      swap1\n      dup2\n      0xff\n      and\n      dup2\n      mstore\n      pop\n      pop\n        /* \"contracts/libraries/Utils.sol\":7284:7286  31 */\n      0x1f\n        /* \"contracts/libraries/Utils.sol\":7264:7278  monthDayCounts */\n      dup2\n        /* \"contracts/libraries/Utils.sol\":7279:7280  4 */\n      0x04\n        /* \"contracts/libraries/Utils.sol\":7264:7281  monthDayCounts[4] */\n      0x0c\n      dup2\n      lt\n      tag_141\n      jumpi\n      tag_142\n      tag_129\n      jump\t// in\n    tag_142:\n    tag_141:\n      0x20\n      mul\n      add\n        /* \"contracts/libraries/Utils.sol\":7264:7286  monthDayCounts[4] = 31 */\n      swap1\n      0xff\n      and\n      swap1\n      dup2\n      0xff\n      and\n      dup2\n      mstore\n      pop\n      pop\n        /* \"contracts/libraries/Utils.sol\":7316:7318  30 */\n      0x1e\n        /* \"contracts/libraries/Utils.sol\":7296:7310  monthDayCounts */\n      dup2\n        /* \"contracts/libraries/Utils.sol\":7311:7312  5 */\n      0x05\n        /* \"contracts/libraries/Utils.sol\":7296:7313  monthDayCounts[5] */\n      0x0c\n      dup2\n      lt\n      tag_143\n      jumpi\n      tag_144\n      tag_129\n      jump\t// in\n    tag_144:\n    tag_143:\n      0x20\n      mul\n      add\n        /* \"contracts/libraries/Utils.sol\":7296:7318  monthDayCounts[5] = 30 */\n      swap1\n      0xff\n      and\n      swap1\n      dup2\n      0xff\n      and\n      dup2\n      mstore\n      pop\n      pop\n        /* \"contracts/libraries/Utils.sol\":7348:7350  31 */\n      0x1f\n        /* \"contracts/libraries/Utils.sol\":7328:7342  monthDayCounts */\n      dup2\n        /* \"contracts/libraries/Utils.sol\":7343:7344  6 */\n      0x06\n        /* \"contracts/libraries/Utils.sol\":7328:7345  monthDayCounts[6] */\n      0x0c\n      dup2\n      lt\n      tag_145\n      jumpi\n      tag_146\n      tag_129\n      jump\t// in\n    tag_146:\n    tag_145:\n      0x20\n      mul\n      add\n        /* \"contracts/libraries/Utils.sol\":7328:7350  monthDayCounts[6] = 31 */\n      swap1\n      0xff\n      and\n      swap1\n      dup2\n      0xff\n      and\n      dup2\n      mstore\n      pop\n      pop\n        /* \"contracts/libraries/Utils.sol\":7380:7382  31 */\n      0x1f\n        /* \"contracts/libraries/Utils.sol\":7360:7374  monthDayCounts */\n      dup2\n        /* \"contracts/libraries/Utils.sol\":7375:7376  7 */\n      0x07\n        /* \"contracts/libraries/Utils.sol\":7360:7377  monthDayCounts[7] */\n      0x0c\n      dup2\n      lt\n      tag_147\n      jumpi\n      tag_148\n      tag_129\n      jump\t// in\n    tag_148:\n    tag_147:\n      0x20\n      mul\n      add\n        /* \"contracts/libraries/Utils.sol\":7360:7382  monthDayCounts[7] = 31 */\n      swap1\n      0xff\n      and\n      swap1\n      dup2\n      0xff\n      and\n      dup2\n      mstore\n      pop\n      pop\n        /* \"contracts/libraries/Utils.sol\":7412:7414  30 */\n      0x1e\n        /* \"contracts/libraries/Utils.sol\":7392:7406  monthDayCounts */\n      dup2\n        /* \"contracts/libraries/Utils.sol\":7407:7408  8 */\n      0x08\n        /* \"contracts/libraries/Utils.sol\":7392:7409  monthDayCounts[8] */\n      0x0c\n      dup2\n      lt\n      tag_149\n      jumpi\n      tag_150\n      tag_129\n      jump\t// in\n    tag_150:\n    tag_149:\n      0x20\n      mul\n      add\n        /* \"contracts/libraries/Utils.sol\":7392:7414  monthDayCounts[8] = 30 */\n      swap1\n      0xff\n      and\n      swap1\n      dup2\n      0xff\n      and\n      dup2\n      mstore\n      pop\n      pop\n        /* \"contracts/libraries/Utils.sol\":7444:7446  31 */\n      0x1f\n        /* \"contracts/libraries/Utils.sol\":7424:7438  monthDayCounts */\n      dup2\n        /* \"contracts/libraries/Utils.sol\":7439:7440  9 */\n      0x09\n        /* \"contracts/libraries/Utils.sol\":7424:7441  monthDayCounts[9] */\n      0x0c\n      dup2\n      lt\n      tag_151\n      jumpi\n      tag_152\n      tag_129\n      jump\t// in\n    tag_152:\n    tag_151:\n      0x20\n      mul\n      add\n        /* \"contracts/libraries/Utils.sol\":7424:7446  monthDayCounts[9] = 31 */\n      swap1\n      0xff\n      and\n      swap1\n      dup2\n      0xff\n      and\n      dup2\n      mstore\n      pop\n      pop\n        /* \"contracts/libraries/Utils.sol\":7477:7479  30 */\n      0x1e\n        /* \"contracts/libraries/Utils.sol\":7456:7470  monthDayCounts */\n      dup2\n        /* \"contracts/libraries/Utils.sol\":7471:7473  10 */\n      0x0a\n        /* \"contracts/libraries/Utils.sol\":7456:7474  monthDayCounts[10] */\n      0x0c\n      dup2\n      lt\n      tag_153\n      jumpi\n      tag_154\n      tag_129\n      jump\t// in\n    tag_154:\n    tag_153:\n      0x20\n      mul\n      add\n        /* \"contracts/libraries/Utils.sol\":7456:7479  monthDayCounts[10] = 30 */\n      swap1\n      0xff\n      and\n      swap1\n      dup2\n      0xff\n      and\n      dup2\n      mstore\n      pop\n      pop\n        /* \"contracts/libraries/Utils.sol\":7510:7512  31 */\n      0x1f\n        /* \"contracts/libraries/Utils.sol\":7489:7503  monthDayCounts */\n      dup2\n        /* \"contracts/libraries/Utils.sol\":7504:7506  11 */\n      0x0b\n        /* \"contracts/libraries/Utils.sol\":7489:7507  monthDayCounts[11] */\n      0x0c\n      dup2\n      lt\n      tag_155\n      jumpi\n      tag_156\n      tag_129\n      jump\t// in\n    tag_156:\n    tag_155:\n      0x20\n      mul\n      add\n        /* \"contracts/libraries/Utils.sol\":7489:7512  monthDayCounts[11] = 31 */\n      swap1\n      0xff\n      and\n      swap1\n      dup2\n      0xff\n      and\n      dup2\n      mstore\n      pop\n      pop\n        /* \"contracts/libraries/Utils.sol\":7532:7533  1 */\n      0x01\n        /* \"contracts/libraries/Utils.sol\":7528:7533  i = 1 */\n      swap2\n      pop\n        /* \"contracts/libraries/Utils.sol\":7523:7627  for (i = 1; i < month; i++) {... */\n    tag_157:\n        /* \"contracts/libraries/Utils.sol\":7539:7544  month */\n      dup8\n        /* \"contracts/libraries/Utils.sol\":7535:7544  i < month */\n      0xff\n      and\n        /* \"contracts/libraries/Utils.sol\":7535:7536  i */\n      dup3\n        /* \"contracts/libraries/Utils.sol\":7535:7544  i < month */\n      0xffff\n      and\n      lt\n        /* \"contracts/libraries/Utils.sol\":7523:7627  for (i = 1; i < month; i++) {... */\n      iszero\n      tag_158\n      jumpi\n        /* \"contracts/libraries/Utils.sol\":7595:7609  monthDayCounts */\n      dup1\n        /* \"contracts/libraries/Utils.sol\":7614:7615  1 */\n      0x01\n        /* \"contracts/libraries/Utils.sol\":7610:7611  i */\n      dup4\n        /* \"contracts/libraries/Utils.sol\":7610:7615  i - 1 */\n      tag_160\n      swap2\n      swap1\n      tag_161\n      jump\t// in\n    tag_160:\n        /* \"contracts/libraries/Utils.sol\":7595:7616  monthDayCounts[i - 1] */\n      0xffff\n      and\n      0x0c\n      dup2\n      lt\n      tag_162\n      jumpi\n      tag_163\n      tag_129\n      jump\t// in\n    tag_163:\n    tag_162:\n      0x20\n      mul\n      add\n      mload\n        /* \"contracts/libraries/Utils.sol\":7578:7616  DAY_IN_SECONDS * monthDayCounts[i - 1] */\n      0xff\n      and\n        /* \"contracts/libraries/Utils.sol\":432:437  86400 */\n      0x015180\n        /* \"contracts/libraries/Utils.sol\":7578:7616  DAY_IN_SECONDS * monthDayCounts[i - 1] */\n      tag_164\n      swap2\n      swap1\n      tag_165\n      jump\t// in\n    tag_164:\n        /* \"contracts/libraries/Utils.sol\":7565:7616  timestamp += DAY_IN_SECONDS * monthDayCounts[i - 1] */\n      dup4\n      tag_166\n      swap2\n      swap1\n      tag_101\n      jump\t// in\n    tag_166:\n      swap3\n      pop\n        /* \"contracts/libraries/Utils.sol\":7546:7549  i++ */\n      dup2\n      dup1\n      tag_167\n      swap1\n      tag_124\n      jump\t// in\n    tag_167:\n      swap3\n      pop\n      pop\n        /* \"contracts/libraries/Utils.sol\":7523:7627  for (i = 1; i < month; i++) {... */\n      jump(tag_157)\n    tag_158:\n        /* \"contracts/libraries/Utils.sol\":7689:7690  1 */\n      0x01\n        /* \"contracts/libraries/Utils.sol\":7683:7686  day */\n      dup8\n        /* \"contracts/libraries/Utils.sol\":7683:7690  day - 1 */\n      tag_168\n      swap2\n      swap1\n      tag_169\n      jump\t// in\n    tag_168:\n        /* \"contracts/libraries/Utils.sol\":7665:7691  DAY_IN_SECONDS * (day - 1) */\n      0xff\n      and\n        /* \"contracts/libraries/Utils.sol\":432:437  86400 */\n      0x015180\n        /* \"contracts/libraries/Utils.sol\":7665:7691  DAY_IN_SECONDS * (day - 1) */\n      tag_170\n      swap2\n      swap1\n      tag_165\n      jump\t// in\n    tag_170:\n        /* \"contracts/libraries/Utils.sol\":7652:7691  timestamp += DAY_IN_SECONDS * (day - 1) */\n      dup4\n      tag_171\n      swap2\n      swap1\n      tag_101\n      jump\t// in\n    tag_171:\n      swap3\n      pop\n        /* \"contracts/libraries/Utils.sol\":7750:7754  hour */\n      dup6\n        /* \"contracts/libraries/Utils.sol\":7731:7755  HOUR_IN_SECONDS * (hour) */\n      0xff\n      and\n        /* \"contracts/libraries/Utils.sol\":582:586  3600 */\n      0x0e10\n        /* \"contracts/libraries/Utils.sol\":7731:7755  HOUR_IN_SECONDS * (hour) */\n      tag_172\n      swap2\n      swap1\n      tag_165\n      jump\t// in\n    tag_172:\n        /* \"contracts/libraries/Utils.sol\":7718:7755  timestamp += HOUR_IN_SECONDS * (hour) */\n      dup4\n      tag_173\n      swap2\n      swap1\n      tag_101\n      jump\t// in\n    tag_173:\n      swap3\n      pop\n        /* \"contracts/libraries/Utils.sol\":7818:7824  minute */\n      dup5\n        /* \"contracts/libraries/Utils.sol\":7797:7825  MINUTE_IN_SECONDS * (minute) */\n      0xff\n      and\n        /* \"contracts/libraries/Utils.sol\":629:631  60 */\n      0x3c\n        /* \"contracts/libraries/Utils.sol\":7797:7825  MINUTE_IN_SECONDS * (minute) */\n      tag_174\n      swap2\n      swap1\n      tag_165\n      jump\t// in\n    tag_174:\n        /* \"contracts/libraries/Utils.sol\":7784:7825  timestamp += MINUTE_IN_SECONDS * (minute) */\n      dup4\n      tag_175\n      swap2\n      swap1\n      tag_101\n      jump\t// in\n    tag_175:\n      swap3\n      pop\n        /* \"contracts/libraries/Utils.sol\":7867:7873  second */\n      dup4\n        /* \"contracts/libraries/Utils.sol\":7854:7873  timestamp += second */\n      0xff\n      and\n      dup4\n      tag_176\n      swap2\n      swap1\n      tag_101\n      jump\t// in\n    tag_176:\n      swap3\n      pop\n        /* \"contracts/libraries/Utils.sol\":7884:7900  return timestamp */\n      pop\n      pop\n        /* \"contracts/libraries/Utils.sol\":6519:7907  function toTimestamp(... */\n      swap7\n      swap6\n      pop\n      pop\n      pop\n      pop\n      pop\n      pop\n      jump\t// out\n        /* \"contracts/libraries/Utils.sol\":4288:5096  function getYear(uint256 timestamp) public pure returns (uint16) {... */\n    tag_61:\n        /* \"contracts/libraries/Utils.sol\":4345:4351  uint16 */\n      0x00\n        /* \"contracts/libraries/Utils.sol\":4363:4390  uint256 secondsAccountedFor */\n      dup1\n        /* \"contracts/libraries/Utils.sol\":4393:4394  0 */\n      0x00\n        /* \"contracts/libraries/Utils.sol\":4363:4394  uint256 secondsAccountedFor = 0 */\n      swap1\n      pop\n        /* \"contracts/libraries/Utils.sol\":4404:4415  uint16 year */\n      0x00\n        /* \"contracts/libraries/Utils.sol\":4425:4445  uint256 numLeapYears */\n      dup1\n        /* \"contracts/libraries/Utils.sol\":478:486  31536000 */\n      0x01e13380\n        /* \"contracts/libraries/Utils.sol\":4500:4509  timestamp */\n      dup6\n        /* \"contracts/libraries/Utils.sol\":4500:4527  timestamp / YEAR_IN_SECONDS */\n      tag_178\n      swap2\n      swap1\n      tag_94\n      jump\t// in\n    tag_178:\n        /* \"contracts/libraries/Utils.sol\":707:711  1970 */\n      0x07b2\n        /* \"contracts/libraries/Utils.sol\":4486:4527  ORIGIN_YEAR + timestamp / YEAR_IN_SECONDS */\n      0xffff\n      and\n      tag_179\n      swap2\n      swap1\n      tag_101\n      jump\t// in\n    tag_179:\n        /* \"contracts/libraries/Utils.sol\":4472:4528  year = uint16(ORIGIN_YEAR + timestamp / YEAR_IN_SECONDS) */\n      swap2\n      pop\n        /* \"contracts/libraries/Utils.sol\":4577:4605  leapYearsBefore(ORIGIN_YEAR) */\n      tag_180\n        /* \"contracts/libraries/Utils.sol\":707:711  1970 */\n      0x07b2\n        /* \"contracts/libraries/Utils.sol\":4577:4605  leapYearsBefore(ORIGIN_YEAR) */\n      0xffff\n      and\n        /* \"contracts/libraries/Utils.sol\":4577:4592  leapYearsBefore */\n      tag_76\n        /* \"contracts/libraries/Utils.sol\":4577:4605  leapYearsBefore(ORIGIN_YEAR) */\n      jump\t// in\n    tag_180:\n        /* \"contracts/libraries/Utils.sol\":4553:4574  leapYearsBefore(year) */\n      tag_181\n        /* \"contracts/libraries/Utils.sol\":4569:4573  year */\n      dup4\n        /* \"contracts/libraries/Utils.sol\":4553:4574  leapYearsBefore(year) */\n      0xffff\n      and\n        /* \"contracts/libraries/Utils.sol\":4553:4568  leapYearsBefore */\n      tag_76\n        /* \"contracts/libraries/Utils.sol\":4553:4574  leapYearsBefore(year) */\n      jump\t// in\n    tag_181:\n        /* \"contracts/libraries/Utils.sol\":4553:4605  leapYearsBefore(year) - leapYearsBefore(ORIGIN_YEAR) */\n      tag_182\n      swap2\n      swap1\n      tag_183\n      jump\t// in\n    tag_182:\n        /* \"contracts/libraries/Utils.sol\":4538:4605  numLeapYears = leapYearsBefore(year) - leapYearsBefore(ORIGIN_YEAR) */\n      swap1\n      pop\n        /* \"contracts/libraries/Utils.sol\":4662:4674  numLeapYears */\n      dup1\n        /* \"contracts/libraries/Utils.sol\":532:540  31622400 */\n      0x01e28500\n        /* \"contracts/libraries/Utils.sol\":4639:4674  LEAP_YEAR_IN_SECONDS * numLeapYears */\n      tag_184\n      swap2\n      swap1\n      tag_165\n      jump\t// in\n    tag_184:\n        /* \"contracts/libraries/Utils.sol\":4616:4674  secondsAccountedFor += LEAP_YEAR_IN_SECONDS * numLeapYears */\n      dup4\n      tag_185\n      swap2\n      swap1\n      tag_101\n      jump\t// in\n    tag_185:\n      swap3\n      pop\n        /* \"contracts/libraries/Utils.sol\":4771:4783  numLeapYears */\n      dup1\n        /* \"contracts/libraries/Utils.sol\":707:711  1970 */\n      0x07b2\n        /* \"contracts/libraries/Utils.sol\":4750:4754  year */\n      dup4\n        /* \"contracts/libraries/Utils.sol\":4750:4768  year - ORIGIN_YEAR */\n      tag_186\n      swap2\n      swap1\n      tag_161\n      jump\t// in\n    tag_186:\n        /* \"contracts/libraries/Utils.sol\":4750:4783  year - ORIGIN_YEAR - numLeapYears */\n      0xffff\n      and\n      tag_187\n      swap2\n      swap1\n      tag_183\n      jump\t// in\n    tag_187:\n        /* \"contracts/libraries/Utils.sol\":478:486  31536000 */\n      0x01e13380\n        /* \"contracts/libraries/Utils.sol\":4719:4784  YEAR_IN_SECONDS *... */\n      tag_188\n      swap2\n      swap1\n      tag_165\n      jump\t// in\n    tag_188:\n        /* \"contracts/libraries/Utils.sol\":4684:4784  secondsAccountedFor +=... */\n      dup4\n      tag_189\n      swap2\n      swap1\n      tag_101\n      jump\t// in\n    tag_189:\n      swap3\n      pop\n        /* \"contracts/libraries/Utils.sol\":4795:5069  while (secondsAccountedFor > timestamp) {... */\n    tag_190:\n        /* \"contracts/libraries/Utils.sol\":4824:4833  timestamp */\n      dup5\n        /* \"contracts/libraries/Utils.sol\":4802:4821  secondsAccountedFor */\n      dup4\n        /* \"contracts/libraries/Utils.sol\":4802:4833  secondsAccountedFor > timestamp */\n      gt\n        /* \"contracts/libraries/Utils.sol\":4795:5069  while (secondsAccountedFor > timestamp) {... */\n      iszero\n      tag_191\n      jumpi\n        /* \"contracts/libraries/Utils.sol\":4853:4881  isLeapYear(uint16(year - 1)) */\n      tag_192\n        /* \"contracts/libraries/Utils.sol\":4878:4879  1 */\n      0x01\n        /* \"contracts/libraries/Utils.sol\":4871:4875  year */\n      dup4\n        /* \"contracts/libraries/Utils.sol\":4871:4879  year - 1 */\n      tag_193\n      swap2\n      swap1\n      tag_161\n      jump\t// in\n    tag_193:\n        /* \"contracts/libraries/Utils.sol\":4853:4863  isLeapYear */\n      tag_71\n        /* \"contracts/libraries/Utils.sol\":4853:4881  isLeapYear(uint16(year - 1)) */\n      jump\t// in\n    tag_192:\n        /* \"contracts/libraries/Utils.sol\":4849:5036  if (isLeapYear(uint16(year - 1))) {... */\n      iszero\n      tag_194\n      jumpi\n        /* \"contracts/libraries/Utils.sol\":532:540  31622400 */\n      0x01e28500\n        /* \"contracts/libraries/Utils.sol\":4901:4944  secondsAccountedFor -= LEAP_YEAR_IN_SECONDS */\n      dup4\n      tag_195\n      swap2\n      swap1\n      tag_183\n      jump\t// in\n    tag_195:\n      swap3\n      pop\n        /* \"contracts/libraries/Utils.sol\":4849:5036  if (isLeapYear(uint16(year - 1))) {... */\n      jump(tag_196)\n    tag_194:\n        /* \"contracts/libraries/Utils.sol\":478:486  31536000 */\n      0x01e13380\n        /* \"contracts/libraries/Utils.sol\":4983:5021  secondsAccountedFor -= YEAR_IN_SECONDS */\n      dup4\n      tag_197\n      swap2\n      swap1\n      tag_183\n      jump\t// in\n    tag_197:\n      swap3\n      pop\n        /* \"contracts/libraries/Utils.sol\":4849:5036  if (isLeapYear(uint16(year - 1))) {... */\n    tag_196:\n        /* \"contracts/libraries/Utils.sol\":5057:5058  1 */\n      0x01\n        /* \"contracts/libraries/Utils.sol\":5049:5058  year -= 1 */\n      dup3\n      tag_198\n      swap2\n      swap1\n      tag_161\n      jump\t// in\n    tag_198:\n      swap2\n      pop\n        /* \"contracts/libraries/Utils.sol\":4795:5069  while (secondsAccountedFor > timestamp) {... */\n      jump(tag_190)\n    tag_191:\n        /* \"contracts/libraries/Utils.sol\":5085:5089  year */\n      dup2\n        /* \"contracts/libraries/Utils.sol\":5078:5089  return year */\n      swap4\n      pop\n      pop\n      pop\n      pop\n        /* \"contracts/libraries/Utils.sol\":4288:5096  function getYear(uint256 timestamp) public pure returns (uint16) {... */\n      swap2\n      swap1\n      pop\n      jump\t// out\n        /* \"contracts/libraries/Utils.sol\":5102:5222  function getMonth(uint256 timestamp) public pure returns (uint8) {... */\n    tag_66:\n        /* \"contracts/libraries/Utils.sol\":5160:5165  uint8 */\n      0x00\n        /* \"contracts/libraries/Utils.sol\":5184:5209  parseTimestamp(timestamp) */\n      tag_200\n        /* \"contracts/libraries/Utils.sol\":5199:5208  timestamp */\n      dup3\n        /* \"contracts/libraries/Utils.sol\":5184:5198  parseTimestamp */\n      tag_107\n        /* \"contracts/libraries/Utils.sol\":5184:5209  parseTimestamp(timestamp) */\n      jump\t// in\n    tag_200:\n        /* \"contracts/libraries/Utils.sol\":5184:5215  parseTimestamp(timestamp).month */\n      0x20\n      add\n      mload\n        /* \"contracts/libraries/Utils.sol\":5177:5215  return parseTimestamp(timestamp).month */\n      swap1\n      pop\n        /* \"contracts/libraries/Utils.sol\":5102:5222  function getMonth(uint256 timestamp) public pure returns (uint8) {... */\n      swap2\n      swap1\n      pop\n      jump\t// out\n        /* \"contracts/libraries/Utils.sol\":1956:2242  function isLeapYear(uint16 year) public pure returns (bool) {... */\n    tag_71:\n        /* \"contracts/libraries/Utils.sol\":2010:2014  bool */\n      0x00\n        /* \"contracts/libraries/Utils.sol\":2042:2043  0 */\n      dup1\n        /* \"contracts/libraries/Utils.sol\":2037:2038  4 */\n      0x04\n        /* \"contracts/libraries/Utils.sol\":2030:2034  year */\n      dup4\n        /* \"contracts/libraries/Utils.sol\":2030:2038  year % 4 */\n      tag_202\n      swap2\n      swap1\n      tag_203\n      jump\t// in\n    tag_202:\n        /* \"contracts/libraries/Utils.sol\":2030:2043  year % 4 != 0 */\n      0xffff\n      and\n      eq\n        /* \"contracts/libraries/Utils.sol\":2026:2082  if (year % 4 != 0) {... */\n      tag_204\n      jumpi\n        /* \"contracts/libraries/Utils.sol\":2066:2071  false */\n      0x00\n        /* \"contracts/libraries/Utils.sol\":2059:2071  return false */\n      swap1\n      pop\n      jump(tag_201)\n        /* \"contracts/libraries/Utils.sol\":2026:2082  if (year % 4 != 0) {... */\n    tag_204:\n        /* \"contracts/libraries/Utils.sol\":2109:2110  0 */\n      0x00\n        /* \"contracts/libraries/Utils.sol\":2102:2105  100 */\n      0x64\n        /* \"contracts/libraries/Utils.sol\":2095:2099  year */\n      dup4\n        /* \"contracts/libraries/Utils.sol\":2095:2105  year % 100 */\n      tag_205\n      swap2\n      swap1\n      tag_203\n      jump\t// in\n    tag_205:\n        /* \"contracts/libraries/Utils.sol\":2095:2110  year % 100 != 0 */\n      0xffff\n      and\n      eq\n        /* \"contracts/libraries/Utils.sol\":2091:2148  if (year % 100 != 0) {... */\n      tag_206\n      jumpi\n        /* \"contracts/libraries/Utils.sol\":2133:2137  true */\n      0x01\n        /* \"contracts/libraries/Utils.sol\":2126:2137  return true */\n      swap1\n      pop\n      jump(tag_201)\n        /* \"contracts/libraries/Utils.sol\":2091:2148  if (year % 100 != 0) {... */\n    tag_206:\n        /* \"contracts/libraries/Utils.sol\":2175:2176  0 */\n      0x00\n        /* \"contracts/libraries/Utils.sol\":2168:2171  400 */\n      0x0190\n        /* \"contracts/libraries/Utils.sol\":2161:2165  year */\n      dup4\n        /* \"contracts/libraries/Utils.sol\":2161:2171  year % 400 */\n      tag_207\n      swap2\n      swap1\n      tag_203\n      jump\t// in\n    tag_207:\n        /* \"contracts/libraries/Utils.sol\":2161:2176  year % 400 != 0 */\n      0xffff\n      and\n      eq\n        /* \"contracts/libraries/Utils.sol\":2157:2215  if (year % 400 != 0) {... */\n      tag_208\n      jumpi\n        /* \"contracts/libraries/Utils.sol\":2199:2204  false */\n      0x00\n        /* \"contracts/libraries/Utils.sol\":2192:2204  return false */\n      swap1\n      pop\n      jump(tag_201)\n        /* \"contracts/libraries/Utils.sol\":2157:2215  if (year % 400 != 0) {... */\n    tag_208:\n        /* \"contracts/libraries/Utils.sol\":2231:2235  true */\n      0x01\n        /* \"contracts/libraries/Utils.sol\":2224:2235  return true */\n      swap1\n      pop\n        /* \"contracts/libraries/Utils.sol\":1956:2242  function isLeapYear(uint16 year) public pure returns (bool) {... */\n    tag_201:\n      swap2\n      swap1\n      pop\n      jump\t// out\n        /* \"contracts/libraries/Utils.sol\":2248:2394  function leapYearsBefore(uint256 year) public pure returns (uint256) {... */\n    tag_76:\n        /* \"contracts/libraries/Utils.sol\":2308:2315  uint256 */\n      0x00\n        /* \"contracts/libraries/Utils.sol\":2335:2336  1 */\n      0x01\n        /* \"contracts/libraries/Utils.sol\":2327:2336  year -= 1 */\n      dup3\n      tag_210\n      swap2\n      swap1\n      tag_183\n      jump\t// in\n    tag_210:\n      swap2\n      pop\n        /* \"contracts/libraries/Utils.sol\":2384:2387  400 */\n      0x0190\n        /* \"contracts/libraries/Utils.sol\":2377:2381  year */\n      dup3\n        /* \"contracts/libraries/Utils.sol\":2377:2387  year / 400 */\n      tag_211\n      swap2\n      swap1\n      tag_94\n      jump\t// in\n    tag_211:\n        /* \"contracts/libraries/Utils.sol\":2371:2374  100 */\n      0x64\n        /* \"contracts/libraries/Utils.sol\":2364:2368  year */\n      dup4\n        /* \"contracts/libraries/Utils.sol\":2364:2374  year / 100 */\n      tag_212\n      swap2\n      swap1\n      tag_94\n      jump\t// in\n    tag_212:\n        /* \"contracts/libraries/Utils.sol\":2360:2361  4 */\n      0x04\n        /* \"contracts/libraries/Utils.sol\":2353:2357  year */\n      dup5\n        /* \"contracts/libraries/Utils.sol\":2353:2361  year / 4 */\n      tag_213\n      swap2\n      swap1\n      tag_94\n      jump\t// in\n    tag_213:\n        /* \"contracts/libraries/Utils.sol\":2353:2374  year / 4 - year / 100 */\n      tag_214\n      swap2\n      swap1\n      tag_183\n      jump\t// in\n    tag_214:\n        /* \"contracts/libraries/Utils.sol\":2353:2387  year / 4 - year / 100 + year / 400 */\n      tag_215\n      swap2\n      swap1\n      tag_101\n      jump\t// in\n    tag_215:\n        /* \"contracts/libraries/Utils.sol\":2346:2387  return year / 4 - year / 100 + year / 400 */\n      swap1\n      pop\n        /* \"contracts/libraries/Utils.sol\":2248:2394  function leapYearsBefore(uint256 year) public pure returns (uint256) {... */\n      swap2\n      swap1\n      pop\n      jump\t// out\n        /* \"contracts/libraries/Utils.sol\":2400:2947  function getDaysInMonth(... */\n    tag_81:\n        /* \"contracts/libraries/Utils.sol\":2493:2498  uint8 */\n      0x00\n        /* \"contracts/libraries/Utils.sol\":2536:2537  1 */\n      0x01\n        /* \"contracts/libraries/Utils.sol\":2527:2532  month */\n      dup4\n        /* \"contracts/libraries/Utils.sol\":2527:2537  month == 1 */\n      0xff\n      and\n      eq\n        /* \"contracts/libraries/Utils.sol\":2527:2563  month == 1 ||... */\n      dup1\n      tag_217\n      jumpi\n      pop\n        /* \"contracts/libraries/Utils.sol\":2562:2563  3 */\n      0x03\n        /* \"contracts/libraries/Utils.sol\":2553:2558  month */\n      dup4\n        /* \"contracts/libraries/Utils.sol\":2553:2563  month == 3 */\n      0xff\n      and\n      eq\n        /* \"contracts/libraries/Utils.sol\":2527:2563  month == 1 ||... */\n    tag_217:\n        /* \"contracts/libraries/Utils.sol\":2527:2589  month == 1 ||... */\n      dup1\n      tag_218\n      jumpi\n      pop\n        /* \"contracts/libraries/Utils.sol\":2588:2589  5 */\n      0x05\n        /* \"contracts/libraries/Utils.sol\":2579:2584  month */\n      dup4\n        /* \"contracts/libraries/Utils.sol\":2579:2589  month == 5 */\n      0xff\n      and\n      eq\n        /* \"contracts/libraries/Utils.sol\":2527:2589  month == 1 ||... */\n    tag_218:\n        /* \"contracts/libraries/Utils.sol\":2527:2615  month == 1 ||... */\n      dup1\n      tag_219\n      jumpi\n      pop\n        /* \"contracts/libraries/Utils.sol\":2614:2615  7 */\n      0x07\n        /* \"contracts/libraries/Utils.sol\":2605:2610  month */\n      dup4\n        /* \"contracts/libraries/Utils.sol\":2605:2615  month == 7 */\n      0xff\n      and\n      eq\n        /* \"contracts/libraries/Utils.sol\":2527:2615  month == 1 ||... */\n    tag_219:\n        /* \"contracts/libraries/Utils.sol\":2527:2641  month == 1 ||... */\n      dup1\n      tag_220\n      jumpi\n      pop\n        /* \"contracts/libraries/Utils.sol\":2640:2641  8 */\n      0x08\n        /* \"contracts/libraries/Utils.sol\":2631:2636  month */\n      dup4\n        /* \"contracts/libraries/Utils.sol\":2631:2641  month == 8 */\n      0xff\n      and\n      eq\n        /* \"contracts/libraries/Utils.sol\":2527:2641  month == 1 ||... */\n    tag_220:\n        /* \"contracts/libraries/Utils.sol\":2527:2668  month == 1 ||... */\n      dup1\n      tag_221\n      jumpi\n      pop\n        /* \"contracts/libraries/Utils.sol\":2666:2668  10 */\n      0x0a\n        /* \"contracts/libraries/Utils.sol\":2657:2662  month */\n      dup4\n        /* \"contracts/libraries/Utils.sol\":2657:2668  month == 10 */\n      0xff\n      and\n      eq\n        /* \"contracts/libraries/Utils.sol\":2527:2668  month == 1 ||... */\n    tag_221:\n        /* \"contracts/libraries/Utils.sol\":2527:2695  month == 1 ||... */\n      dup1\n      tag_222\n      jumpi\n      pop\n        /* \"contracts/libraries/Utils.sol\":2693:2695  12 */\n      0x0c\n        /* \"contracts/libraries/Utils.sol\":2684:2689  month */\n      dup4\n        /* \"contracts/libraries/Utils.sol\":2684:2695  month == 12 */\n      0xff\n      and\n      eq\n        /* \"contracts/libraries/Utils.sol\":2527:2695  month == 1 ||... */\n    tag_222:\n        /* \"contracts/libraries/Utils.sol\":2510:2941  if (... */\n      iszero\n      tag_223\n      jumpi\n        /* \"contracts/libraries/Utils.sol\":2727:2729  31 */\n      0x1f\n        /* \"contracts/libraries/Utils.sol\":2720:2729  return 31 */\n      swap1\n      pop\n      jump(tag_216)\n        /* \"contracts/libraries/Utils.sol\":2510:2941  if (... */\n    tag_223:\n        /* \"contracts/libraries/Utils.sol\":2759:2760  4 */\n      0x04\n        /* \"contracts/libraries/Utils.sol\":2750:2755  month */\n      dup4\n        /* \"contracts/libraries/Utils.sol\":2750:2760  month == 4 */\n      0xff\n      and\n      eq\n        /* \"contracts/libraries/Utils.sol\":2750:2774  month == 4 || month == 6 */\n      dup1\n      tag_225\n      jumpi\n      pop\n        /* \"contracts/libraries/Utils.sol\":2773:2774  6 */\n      0x06\n        /* \"contracts/libraries/Utils.sol\":2764:2769  month */\n      dup4\n        /* \"contracts/libraries/Utils.sol\":2764:2774  month == 6 */\n      0xff\n      and\n      eq\n        /* \"contracts/libraries/Utils.sol\":2750:2774  month == 4 || month == 6 */\n    tag_225:\n        /* \"contracts/libraries/Utils.sol\":2750:2788  month == 4 || month == 6 || month == 9 */\n      dup1\n      tag_226\n      jumpi\n      pop\n        /* \"contracts/libraries/Utils.sol\":2787:2788  9 */\n      0x09\n        /* \"contracts/libraries/Utils.sol\":2778:2783  month */\n      dup4\n        /* \"contracts/libraries/Utils.sol\":2778:2788  month == 9 */\n      0xff\n      and\n      eq\n        /* \"contracts/libraries/Utils.sol\":2750:2788  month == 4 || month == 6 || month == 9 */\n    tag_226:\n        /* \"contracts/libraries/Utils.sol\":2750:2803  month == 4 || month == 6 || month == 9 || month == 11 */\n      dup1\n      tag_227\n      jumpi\n      pop\n        /* \"contracts/libraries/Utils.sol\":2801:2803  11 */\n      0x0b\n        /* \"contracts/libraries/Utils.sol\":2792:2797  month */\n      dup4\n        /* \"contracts/libraries/Utils.sol\":2792:2803  month == 11 */\n      0xff\n      and\n      eq\n        /* \"contracts/libraries/Utils.sol\":2750:2803  month == 4 || month == 6 || month == 9 || month == 11 */\n    tag_227:\n        /* \"contracts/libraries/Utils.sol\":2746:2941  if (month == 4 || month == 6 || month == 9 || month == 11) {... */\n      iszero\n      tag_228\n      jumpi\n        /* \"contracts/libraries/Utils.sol\":2826:2828  30 */\n      0x1e\n        /* \"contracts/libraries/Utils.sol\":2819:2828  return 30 */\n      swap1\n      pop\n      jump(tag_216)\n        /* \"contracts/libraries/Utils.sol\":2746:2941  if (month == 4 || month == 6 || month == 9 || month == 11) {... */\n    tag_228:\n        /* \"contracts/libraries/Utils.sol\":2849:2865  isLeapYear(year) */\n      tag_230\n        /* \"contracts/libraries/Utils.sol\":2860:2864  year */\n      dup3\n        /* \"contracts/libraries/Utils.sol\":2849:2859  isLeapYear */\n      tag_71\n        /* \"contracts/libraries/Utils.sol\":2849:2865  isLeapYear(year) */\n      jump\t// in\n    tag_230:\n        /* \"contracts/libraries/Utils.sol\":2845:2941  if (isLeapYear(year)) {... */\n      iszero\n      tag_231\n      jumpi\n        /* \"contracts/libraries/Utils.sol\":2888:2890  29 */\n      0x1d\n        /* \"contracts/libraries/Utils.sol\":2881:2890  return 29 */\n      swap1\n      pop\n      jump(tag_216)\n        /* \"contracts/libraries/Utils.sol\":2845:2941  if (isLeapYear(year)) {... */\n    tag_231:\n        /* \"contracts/libraries/Utils.sol\":2928:2930  28 */\n      0x1c\n        /* \"contracts/libraries/Utils.sol\":2921:2930  return 28 */\n      swap1\n      pop\n        /* \"contracts/libraries/Utils.sol\":2400:2947  function getDaysInMonth(... */\n    tag_216:\n      swap3\n      swap2\n      pop\n      pop\n      jump\t// out\n        /* \"contracts/libraries/Utils.sol\":1710:1950  function getDiff(uint256 start, uint256 end) public pure returns (uint256) {... */\n    tag_86:\n        /* \"contracts/libraries/Utils.sol\":1776:1783  uint256 */\n      0x00\n        /* \"contracts/libraries/Utils.sol\":1795:1811  uint256 daysDiff */\n      dup1\n        /* \"contracts/libraries/Utils.sol\":669:671  24 */\n      0x18\n        /* \"contracts/libraries/Utils.sol\":629:631  60 */\n      0x3c\n      dup1\n        /* \"contracts/libraries/Utils.sol\":1821:1826  start */\n      dup7\n        /* \"contracts/libraries/Utils.sol\":1815:1818  end */\n      dup7\n        /* \"contracts/libraries/Utils.sol\":1815:1826  end - start */\n      tag_234\n      swap2\n      swap1\n      tag_183\n      jump\t// in\n    tag_234:\n        /* \"contracts/libraries/Utils.sol\":1814:1859  (end - start) /... */\n      tag_235\n      swap2\n      swap1\n      tag_94\n      jump\t// in\n    tag_235:\n        /* \"contracts/libraries/Utils.sol\":1814:1891  (end - start) /... */\n      tag_236\n      swap2\n      swap1\n      tag_94\n      jump\t// in\n    tag_236:\n        /* \"contracts/libraries/Utils.sol\":1814:1918  (end - start) /... */\n      tag_237\n      swap2\n      swap1\n      tag_94\n      jump\t// in\n    tag_237:\n        /* \"contracts/libraries/Utils.sol\":1795:1918  uint256 daysDiff = (end - start) /... */\n      swap1\n      pop\n        /* \"contracts/libraries/Utils.sol\":1935:1943  daysDiff */\n      dup1\n        /* \"contracts/libraries/Utils.sol\":1928:1943  return daysDiff */\n      swap2\n      pop\n      pop\n        /* \"contracts/libraries/Utils.sol\":1710:1950  function getDiff(uint256 start, uint256 end) public pure returns (uint256) {... */\n      swap3\n      swap2\n      pop\n      pop\n      jump\t// out\n        /* \"contracts/libraries/Utils.sol\":5477:5595  function getMinute(uint256 timestamp) public pure returns (uint8) {... */\n    tag_90:\n        /* \"contracts/libraries/Utils.sol\":5536:5541  uint8 */\n      0x00\n        /* \"contracts/libraries/Utils.sol\":5585:5587  60 */\n      0x3c\n        /* \"contracts/libraries/Utils.sol\":5579:5581  60 */\n      dup1\n        /* \"contracts/libraries/Utils.sol\":5567:5576  timestamp */\n      dup4\n        /* \"contracts/libraries/Utils.sol\":5567:5581  timestamp / 60 */\n      tag_239\n      swap2\n      swap1\n      tag_94\n      jump\t// in\n    tag_239:\n        /* \"contracts/libraries/Utils.sol\":5566:5587  (timestamp / 60) % 60 */\n      tag_240\n      swap2\n      swap1\n      tag_97\n      jump\t// in\n    tag_240:\n        /* \"contracts/libraries/Utils.sol\":5553:5588  return uint8((timestamp / 60) % 60) */\n      swap1\n      pop\n        /* \"contracts/libraries/Utils.sol\":5477:5595  function getMinute(uint256 timestamp) public pure returns (uint8) {... */\n      swap2\n      swap1\n      pop\n      jump\t// out\n        /* \"contracts/libraries/Utils.sol\":2953:4282  function parseTimestamp(... */\n    tag_107:\n        /* \"contracts/libraries/Utils.sol\":3033:3049  _Utils memory dt */\n      tag_241\n      tag_242\n      jump\t// in\n    tag_241:\n        /* \"contracts/libraries/Utils.sol\":3061:3088  uint256 secondsAccountedFor */\n      0x00\n        /* \"contracts/libraries/Utils.sol\":3102:3113  uint256 buf */\n      dup1\n        /* \"contracts/libraries/Utils.sol\":3123:3130  uint8 i */\n      dup1\n        /* \"contracts/libraries/Utils.sol\":3167:3185  getYear(timestamp) */\n      tag_244\n        /* \"contracts/libraries/Utils.sol\":3175:3184  timestamp */\n      dup6\n        /* \"contracts/libraries/Utils.sol\":3167:3174  getYear */\n      tag_61\n        /* \"contracts/libraries/Utils.sol\":3167:3185  getYear(timestamp) */\n      jump\t// in\n    tag_244:\n        /* \"contracts/libraries/Utils.sol\":3157:3159  dt */\n      dup5\n        /* \"contracts/libraries/Utils.sol\":3157:3164  dt.year */\n      0x00\n      add\n        /* \"contracts/libraries/Utils.sol\":3157:3185  dt.year = getYear(timestamp) */\n      swap1\n      0xffff\n      and\n      swap1\n      dup2\n      0xffff\n      and\n      dup2\n      mstore\n      pop\n      pop\n        /* \"contracts/libraries/Utils.sol\":3228:3256  leapYearsBefore(ORIGIN_YEAR) */\n      tag_245\n        /* \"contracts/libraries/Utils.sol\":707:711  1970 */\n      0x07b2\n        /* \"contracts/libraries/Utils.sol\":3228:3256  leapYearsBefore(ORIGIN_YEAR) */\n      0xffff\n      and\n        /* \"contracts/libraries/Utils.sol\":3228:3243  leapYearsBefore */\n      tag_76\n        /* \"contracts/libraries/Utils.sol\":3228:3256  leapYearsBefore(ORIGIN_YEAR) */\n      jump\t// in\n    tag_245:\n        /* \"contracts/libraries/Utils.sol\":3201:3225  leapYearsBefore(dt.year) */\n      tag_246\n        /* \"contracts/libraries/Utils.sol\":3217:3219  dt */\n      dup6\n        /* \"contracts/libraries/Utils.sol\":3217:3224  dt.year */\n      0x00\n      add\n      mload\n        /* \"contracts/libraries/Utils.sol\":3201:3225  leapYearsBefore(dt.year) */\n      0xffff\n      and\n        /* \"contracts/libraries/Utils.sol\":3201:3216  leapYearsBefore */\n      tag_76\n        /* \"contracts/libraries/Utils.sol\":3201:3225  leapYearsBefore(dt.year) */\n      jump\t// in\n    tag_246:\n        /* \"contracts/libraries/Utils.sol\":3201:3256  leapYearsBefore(dt.year) - leapYearsBefore(ORIGIN_YEAR) */\n      tag_247\n      swap2\n      swap1\n      tag_183\n      jump\t// in\n    tag_247:\n        /* \"contracts/libraries/Utils.sol\":3195:3256  buf = leapYearsBefore(dt.year) - leapYearsBefore(ORIGIN_YEAR) */\n      swap2\n      pop\n        /* \"contracts/libraries/Utils.sol\":3313:3316  buf */\n      dup2\n        /* \"contracts/libraries/Utils.sol\":532:540  31622400 */\n      0x01e28500\n        /* \"contracts/libraries/Utils.sol\":3290:3316  LEAP_YEAR_IN_SECONDS * buf */\n      tag_248\n      swap2\n      swap1\n      tag_165\n      jump\t// in\n    tag_248:\n        /* \"contracts/libraries/Utils.sol\":3267:3316  secondsAccountedFor += LEAP_YEAR_IN_SECONDS * buf */\n      dup4\n      tag_249\n      swap2\n      swap1\n      tag_101\n      jump\t// in\n    tag_249:\n      swap3\n      pop\n        /* \"contracts/libraries/Utils.sol\":3392:3395  buf */\n      dup2\n        /* \"contracts/libraries/Utils.sol\":707:711  1970 */\n      0x07b2\n        /* \"contracts/libraries/Utils.sol\":3368:3370  dt */\n      dup6\n        /* \"contracts/libraries/Utils.sol\":3368:3375  dt.year */\n      0x00\n      add\n      mload\n        /* \"contracts/libraries/Utils.sol\":3368:3389  dt.year - ORIGIN_YEAR */\n      tag_250\n      swap2\n      swap1\n      tag_161\n      jump\t// in\n    tag_250:\n        /* \"contracts/libraries/Utils.sol\":3368:3395  dt.year - ORIGIN_YEAR - buf */\n      0xffff\n      and\n      tag_251\n      swap2\n      swap1\n      tag_183\n      jump\t// in\n    tag_251:\n        /* \"contracts/libraries/Utils.sol\":478:486  31536000 */\n      0x01e13380\n        /* \"contracts/libraries/Utils.sol\":3349:3396  YEAR_IN_SECONDS * (dt.year - ORIGIN_YEAR - buf) */\n      tag_252\n      swap2\n      swap1\n      tag_165\n      jump\t// in\n    tag_252:\n        /* \"contracts/libraries/Utils.sol\":3326:3396  secondsAccountedFor += YEAR_IN_SECONDS * (dt.year - ORIGIN_YEAR - buf) */\n      dup4\n      tag_253\n      swap2\n      swap1\n      tag_101\n      jump\t// in\n    tag_253:\n      swap3\n      pop\n        /* \"contracts/libraries/Utils.sol\":3424:3446  uint256 secondsInMonth */\n      0x00\n        /* \"contracts/libraries/Utils.sol\":3465:3466  1 */\n      0x01\n        /* \"contracts/libraries/Utils.sol\":3461:3466  i = 1 */\n      swap2\n      pop\n        /* \"contracts/libraries/Utils.sol\":3456:3753  for (i = 1; i <= 12; i++) {... */\n    tag_254:\n        /* \"contracts/libraries/Utils.sol\":3473:3475  12 */\n      0x0c\n        /* \"contracts/libraries/Utils.sol\":3468:3469  i */\n      dup3\n        /* \"contracts/libraries/Utils.sol\":3468:3475  i <= 12 */\n      0xff\n      and\n      gt\n        /* \"contracts/libraries/Utils.sol\":3456:3753  for (i = 1; i <= 12; i++) {... */\n      tag_255\n      jumpi\n        /* \"contracts/libraries/Utils.sol\":3530:3556  getDaysInMonth(i, dt.year) */\n      tag_257\n        /* \"contracts/libraries/Utils.sol\":3545:3546  i */\n      dup3\n        /* \"contracts/libraries/Utils.sol\":3548:3550  dt */\n      dup7\n        /* \"contracts/libraries/Utils.sol\":3548:3555  dt.year */\n      0x00\n      add\n      mload\n        /* \"contracts/libraries/Utils.sol\":3530:3544  getDaysInMonth */\n      tag_81\n        /* \"contracts/libraries/Utils.sol\":3530:3556  getDaysInMonth(i, dt.year) */\n      jump\t// in\n    tag_257:\n        /* \"contracts/libraries/Utils.sol\":3513:3556  DAY_IN_SECONDS * getDaysInMonth(i, dt.year) */\n      0xff\n      and\n        /* \"contracts/libraries/Utils.sol\":432:437  86400 */\n      0x015180\n        /* \"contracts/libraries/Utils.sol\":3513:3556  DAY_IN_SECONDS * getDaysInMonth(i, dt.year) */\n      tag_258\n      swap2\n      swap1\n      tag_165\n      jump\t// in\n    tag_258:\n        /* \"contracts/libraries/Utils.sol\":3496:3556  secondsInMonth = DAY_IN_SECONDS * getDaysInMonth(i, dt.year) */\n      swap1\n      pop\n        /* \"contracts/libraries/Utils.sol\":3613:3622  timestamp */\n      dup6\n        /* \"contracts/libraries/Utils.sol\":3591:3610  secondsAccountedFor */\n      dup5\n        /* \"contracts/libraries/Utils.sol\":3574:3588  secondsInMonth */\n      dup3\n        /* \"contracts/libraries/Utils.sol\":3574:3610  secondsInMonth + secondsAccountedFor */\n      tag_259\n      swap2\n      swap1\n      tag_101\n      jump\t// in\n    tag_259:\n        /* \"contracts/libraries/Utils.sol\":3574:3622  secondsInMonth + secondsAccountedFor > timestamp */\n      gt\n        /* \"contracts/libraries/Utils.sol\":3570:3692  if (secondsInMonth + secondsAccountedFor > timestamp) {... */\n      iszero\n      tag_260\n      jumpi\n        /* \"contracts/libraries/Utils.sol\":3653:3654  i */\n      dup2\n        /* \"contracts/libraries/Utils.sol\":3642:3644  dt */\n      dup6\n        /* \"contracts/libraries/Utils.sol\":3642:3650  dt.month */\n      0x20\n      add\n        /* \"contracts/libraries/Utils.sol\":3642:3654  dt.month = i */\n      swap1\n      0xff\n      and\n      swap1\n      dup2\n      0xff\n      and\n      dup2\n      mstore\n      pop\n      pop\n        /* \"contracts/libraries/Utils.sol\":3672:3677  break */\n      jump(tag_255)\n        /* \"contracts/libraries/Utils.sol\":3570:3692  if (secondsInMonth + secondsAccountedFor > timestamp) {... */\n    tag_260:\n        /* \"contracts/libraries/Utils.sol\":3728:3742  secondsInMonth */\n      dup1\n        /* \"contracts/libraries/Utils.sol\":3705:3742  secondsAccountedFor += secondsInMonth */\n      dup5\n      tag_261\n      swap2\n      swap1\n      tag_101\n      jump\t// in\n    tag_261:\n      swap4\n      pop\n        /* \"contracts/libraries/Utils.sol\":3477:3480  i++ */\n      dup2\n      dup1\n      tag_262\n      swap1\n      tag_263\n      jump\t// in\n    tag_262:\n      swap3\n      pop\n      pop\n        /* \"contracts/libraries/Utils.sol\":3456:3753  for (i = 1; i <= 12; i++) {... */\n      jump(tag_254)\n    tag_255:\n        /* \"contracts/libraries/Utils.sol\":3787:3788  1 */\n      0x01\n        /* \"contracts/libraries/Utils.sol\":3783:3788  i = 1 */\n      swap2\n      pop\n        /* \"contracts/libraries/Utils.sol\":3778:4030  for (i = 1; i <= getDaysInMonth(dt.month, dt.year); i++) {... */\n    tag_264:\n        /* \"contracts/libraries/Utils.sol\":3795:3828  getDaysInMonth(dt.month, dt.year) */\n      tag_267\n        /* \"contracts/libraries/Utils.sol\":3810:3812  dt */\n      dup6\n        /* \"contracts/libraries/Utils.sol\":3810:3818  dt.month */\n      0x20\n      add\n      mload\n        /* \"contracts/libraries/Utils.sol\":3820:3822  dt */\n      dup7\n        /* \"contracts/libraries/Utils.sol\":3820:3827  dt.year */\n      0x00\n      add\n      mload\n        /* \"contracts/libraries/Utils.sol\":3795:3809  getDaysInMonth */\n      tag_81\n        /* \"contracts/libraries/Utils.sol\":3795:3828  getDaysInMonth(dt.month, dt.year) */\n      jump\t// in\n    tag_267:\n        /* \"contracts/libraries/Utils.sol\":3790:3828  i <= getDaysInMonth(dt.month, dt.year) */\n      0xff\n      and\n        /* \"contracts/libraries/Utils.sol\":3790:3791  i */\n      dup3\n        /* \"contracts/libraries/Utils.sol\":3790:3828  i <= getDaysInMonth(dt.month, dt.year) */\n      0xff\n      and\n      gt\n        /* \"contracts/libraries/Utils.sol\":3778:4030  for (i = 1; i <= getDaysInMonth(dt.month, dt.year); i++) {... */\n      tag_265\n      jumpi\n        /* \"contracts/libraries/Utils.sol\":3892:3901  timestamp */\n      dup6\n        /* \"contracts/libraries/Utils.sol\":3870:3889  secondsAccountedFor */\n      dup5\n        /* \"contracts/libraries/Utils.sol\":432:437  86400 */\n      0x015180\n        /* \"contracts/libraries/Utils.sol\":3853:3889  DAY_IN_SECONDS + secondsAccountedFor */\n      tag_268\n      swap2\n      swap1\n      tag_101\n      jump\t// in\n    tag_268:\n        /* \"contracts/libraries/Utils.sol\":3853:3901  DAY_IN_SECONDS + secondsAccountedFor > timestamp */\n      gt\n        /* \"contracts/libraries/Utils.sol\":3849:3969  if (DAY_IN_SECONDS + secondsAccountedFor > timestamp) {... */\n      iszero\n      tag_269\n      jumpi\n        /* \"contracts/libraries/Utils.sol\":3930:3931  i */\n      dup2\n        /* \"contracts/libraries/Utils.sol\":3921:3923  dt */\n      dup6\n        /* \"contracts/libraries/Utils.sol\":3921:3927  dt.day */\n      0x40\n      add\n        /* \"contracts/libraries/Utils.sol\":3921:3931  dt.day = i */\n      swap1\n      0xff\n      and\n      swap1\n      dup2\n      0xff\n      and\n      dup2\n      mstore\n      pop\n      pop\n        /* \"contracts/libraries/Utils.sol\":3949:3954  break */\n      jump(tag_265)\n        /* \"contracts/libraries/Utils.sol\":3849:3969  if (DAY_IN_SECONDS + secondsAccountedFor > timestamp) {... */\n    tag_269:\n        /* \"contracts/libraries/Utils.sol\":432:437  86400 */\n      0x015180\n        /* \"contracts/libraries/Utils.sol\":3982:4019  secondsAccountedFor += DAY_IN_SECONDS */\n      dup5\n      tag_270\n      swap2\n      swap1\n      tag_101\n      jump\t// in\n    tag_270:\n      swap4\n      pop\n        /* \"contracts/libraries/Utils.sol\":3830:3833  i++ */\n      dup2\n      dup1\n      tag_271\n      swap1\n      tag_263\n      jump\t// in\n    tag_271:\n      swap3\n      pop\n      pop\n        /* \"contracts/libraries/Utils.sol\":3778:4030  for (i = 1; i <= getDaysInMonth(dt.month, dt.year); i++) {... */\n      jump(tag_264)\n    tag_265:\n        /* \"contracts/libraries/Utils.sol\":4066:4084  getHour(timestamp) */\n      tag_272\n        /* \"contracts/libraries/Utils.sol\":4074:4083  timestamp */\n      dup7\n        /* \"contracts/libraries/Utils.sol\":4066:4073  getHour */\n      tag_23\n        /* \"contracts/libraries/Utils.sol\":4066:4084  getHour(timestamp) */\n      jump\t// in\n    tag_272:\n        /* \"contracts/libraries/Utils.sol\":4056:4058  dt */\n      dup6\n        /* \"contracts/libraries/Utils.sol\":4056:4063  dt.hour */\n      0x60\n      add\n        /* \"contracts/libraries/Utils.sol\":4056:4084  dt.hour = getHour(timestamp) */\n      swap1\n      0xff\n      and\n      swap1\n      dup2\n      0xff\n      and\n      dup2\n      mstore\n      pop\n      pop\n        /* \"contracts/libraries/Utils.sol\":4125:4145  getMinute(timestamp) */\n      tag_273\n        /* \"contracts/libraries/Utils.sol\":4135:4144  timestamp */\n      dup7\n        /* \"contracts/libraries/Utils.sol\":4125:4134  getMinute */\n      tag_90\n        /* \"contracts/libraries/Utils.sol\":4125:4145  getMinute(timestamp) */\n      jump\t// in\n    tag_273:\n        /* \"contracts/libraries/Utils.sol\":4113:4115  dt */\n      dup6\n        /* \"contracts/libraries/Utils.sol\":4113:4122  dt.minute */\n      0x80\n      add\n        /* \"contracts/libraries/Utils.sol\":4113:4145  dt.minute = getMinute(timestamp) */\n      swap1\n      0xff\n      and\n      swap1\n      dup2\n      0xff\n      and\n      dup2\n      mstore\n      pop\n      pop\n        /* \"contracts/libraries/Utils.sol\":4186:4206  getSecond(timestamp) */\n      tag_274\n        /* \"contracts/libraries/Utils.sol\":4196:4205  timestamp */\n      dup7\n        /* \"contracts/libraries/Utils.sol\":4186:4195  getSecond */\n      tag_47\n        /* \"contracts/libraries/Utils.sol\":4186:4206  getSecond(timestamp) */\n      jump\t// in\n    tag_274:\n        /* \"contracts/libraries/Utils.sol\":4174:4176  dt */\n      dup6\n        /* \"contracts/libraries/Utils.sol\":4174:4183  dt.second */\n      0xa0\n      add\n        /* \"contracts/libraries/Utils.sol\":4174:4206  dt.second = getSecond(timestamp) */\n      swap1\n      0xff\n      and\n      swap1\n      dup2\n      0xff\n      and\n      dup2\n      mstore\n      pop\n      pop\n        /* \"contracts/libraries/Utils.sol\":4254:4275  getWeekday(timestamp) */\n      tag_275\n        /* \"contracts/libraries/Utils.sol\":4265:4274  timestamp */\n      dup7\n        /* \"contracts/libraries/Utils.sol\":4254:4264  getWeekday */\n      tag_28\n        /* \"contracts/libraries/Utils.sol\":4254:4275  getWeekday(timestamp) */\n      jump\t// in\n    tag_275:\n        /* \"contracts/libraries/Utils.sol\":4241:4243  dt */\n      dup6\n        /* \"contracts/libraries/Utils.sol\":4241:4251  dt.weekday */\n      0xc0\n      add\n        /* \"contracts/libraries/Utils.sol\":4241:4275  dt.weekday = getWeekday(timestamp) */\n      swap1\n      0xff\n      and\n      swap1\n      dup2\n      0xff\n      and\n      dup2\n      mstore\n      pop\n      pop\n        /* \"contracts/libraries/Utils.sol\":3051:4282  {... */\n      pop\n      pop\n      pop\n      pop\n        /* \"contracts/libraries/Utils.sol\":2953:4282  function parseTimestamp(... */\n      swap2\n      swap1\n      pop\n      jump\t// out\n    tag_126:\n      mload(0x40)\n      dup1\n      0x0180\n      add\n      0x40\n      mstore\n      dup1\n      0x0c\n      swap1\n      0x20\n      dup3\n      mul\n      dup1\n      calldatasize\n      dup4\n      calldatacopy\n      dup1\n      dup3\n      add\n      swap2\n      pop\n      pop\n      swap1\n      pop\n      pop\n      swap1\n      jump\t// out\n    tag_242:\n      mload(0x40)\n      dup1\n      0xe0\n      add\n      0x40\n      mstore\n      dup1\n      and(0xffff, 0x00)\n      dup2\n      mstore\n      0x20\n      add\n      and(0xff, 0x00)\n      dup2\n      mstore\n      0x20\n      add\n      and(0xff, 0x00)\n      dup2\n      mstore\n      0x20\n      add\n      and(0xff, 0x00)\n      dup2\n      mstore\n      0x20\n      add\n      and(0xff, 0x00)\n      dup2\n      mstore\n      0x20\n      add\n      and(0xff, 0x00)\n      dup2\n      mstore\n      0x20\n      add\n      and(0xff, 0x00)\n      dup2\n      mstore\n      pop\n      swap1\n      jump\t// out\n        /* \"#utility.yul\":88:205   */\n    tag_277:\n        /* \"#utility.yul\":197:198   */\n      0x00\n        /* \"#utility.yul\":194:195   */\n      dup1\n        /* \"#utility.yul\":187:199   */\n      revert\n        /* \"#utility.yul\":334:411   */\n    tag_279:\n        /* \"#utility.yul\":371:378   */\n      0x00\n        /* \"#utility.yul\":400:405   */\n      dup2\n        /* \"#utility.yul\":389:405   */\n      swap1\n      pop\n        /* \"#utility.yul\":334:411   */\n      swap2\n      swap1\n      pop\n      jump\t// out\n        /* \"#utility.yul\":417:539   */\n    tag_280:\n        /* \"#utility.yul\":490:514   */\n      tag_301\n        /* \"#utility.yul\":508:513   */\n      dup2\n        /* \"#utility.yul\":490:514   */\n      tag_279\n      jump\t// in\n    tag_301:\n        /* \"#utility.yul\":483:488   */\n      dup2\n        /* \"#utility.yul\":480:515   */\n      eq\n        /* \"#utility.yul\":470:533   */\n      tag_302\n      jumpi\n        /* \"#utility.yul\":529:530   */\n      0x00\n        /* \"#utility.yul\":526:527   */\n      dup1\n        /* \"#utility.yul\":519:531   */\n      revert\n        /* \"#utility.yul\":470:533   */\n    tag_302:\n        /* \"#utility.yul\":417:539   */\n      pop\n      jump\t// out\n        /* \"#utility.yul\":545:684   */\n    tag_281:\n        /* \"#utility.yul\":591:596   */\n      0x00\n        /* \"#utility.yul\":629:635   */\n      dup2\n        /* \"#utility.yul\":616:636   */\n      calldataload\n        /* \"#utility.yul\":607:636   */\n      swap1\n      pop\n        /* \"#utility.yul\":645:678   */\n      tag_304\n        /* \"#utility.yul\":672:677   */\n      dup2\n        /* \"#utility.yul\":645:678   */\n      tag_280\n      jump\t// in\n    tag_304:\n        /* \"#utility.yul\":545:684   */\n      swap3\n      swap2\n      pop\n      pop\n      jump\t// out\n        /* \"#utility.yul\":690:1019   */\n    tag_22:\n        /* \"#utility.yul\":749:755   */\n      0x00\n        /* \"#utility.yul\":798:800   */\n      0x20\n        /* \"#utility.yul\":786:795   */\n      dup3\n        /* \"#utility.yul\":777:784   */\n      dup5\n        /* \"#utility.yul\":773:796   */\n      sub\n        /* \"#utility.yul\":769:801   */\n      slt\n        /* \"#utility.yul\":766:885   */\n      iszero\n      tag_306\n      jumpi\n        /* \"#utility.yul\":804:883   */\n      tag_307\n      tag_277\n      jump\t// in\n    tag_307:\n        /* \"#utility.yul\":766:885   */\n    tag_306:\n        /* \"#utility.yul\":924:925   */\n      0x00\n        /* \"#utility.yul\":949:1002   */\n      tag_308\n        /* \"#utility.yul\":994:1001   */\n      dup5\n        /* \"#utility.yul\":985:991   */\n      dup3\n        /* \"#utility.yul\":974:983   */\n      dup6\n        /* \"#utility.yul\":970:992   */\n      add\n        /* \"#utility.yul\":949:1002   */\n      tag_281\n      jump\t// in\n    tag_308:\n        /* \"#utility.yul\":939:1002   */\n      swap2\n      pop\n        /* \"#utility.yul\":895:1012   */\n      pop\n        /* \"#utility.yul\":690:1019   */\n      swap3\n      swap2\n      pop\n      pop\n      jump\t// out\n        /* \"#utility.yul\":1025:1111   */\n    tag_282:\n        /* \"#utility.yul\":1060:1067   */\n      0x00\n        /* \"#utility.yul\":1100:1104   */\n      0xff\n        /* \"#utility.yul\":1093:1098   */\n      dup3\n        /* \"#utility.yul\":1089:1105   */\n      and\n        /* \"#utility.yul\":1078:1105   */\n      swap1\n      pop\n        /* \"#utility.yul\":1025:1111   */\n      swap2\n      swap1\n      pop\n      jump\t// out\n        /* \"#utility.yul\":1117:1237   */\n    tag_283:\n        /* \"#utility.yul\":1208:1230   */\n      tag_311\n        /* \"#utility.yul\":1224:1229   */\n      dup2\n        /* \"#utility.yul\":1208:1230   */\n      tag_282\n      jump\t// in\n    tag_311:\n        /* \"#utility.yul\":1203:1206   */\n      dup3\n        /* \"#utility.yul\":1196:1231   */\n      mstore\n        /* \"#utility.yul\":1117:1237   */\n      pop\n      pop\n      jump\t// out\n        /* \"#utility.yul\":1243:1473   */\n    tag_25:\n        /* \"#utility.yul\":1340:1344   */\n      0x00\n        /* \"#utility.yul\":1378:1380   */\n      0x20\n        /* \"#utility.yul\":1367:1376   */\n      dup3\n        /* \"#utility.yul\":1363:1381   */\n      add\n        /* \"#utility.yul\":1355:1381   */\n      swap1\n      pop\n        /* \"#utility.yul\":1391:1466   */\n      tag_313\n        /* \"#utility.yul\":1463:1464   */\n      0x00\n        /* \"#utility.yul\":1452:1461   */\n      dup4\n        /* \"#utility.yul\":1448:1465   */\n      add\n        /* \"#utility.yul\":1439:1445   */\n      dup5\n        /* \"#utility.yul\":1391:1466   */\n      tag_283\n      jump\t// in\n    tag_313:\n        /* \"#utility.yul\":1243:1473   */\n      swap3\n      swap2\n      pop\n      pop\n      jump\t// out\n        /* \"#utility.yul\":1479:1568   */\n    tag_284:\n        /* \"#utility.yul\":1515:1522   */\n      0x00\n        /* \"#utility.yul\":1555:1561   */\n      0xffff\n        /* \"#utility.yul\":1548:1553   */\n      dup3\n        /* \"#utility.yul\":1544:1562   */\n      and\n        /* \"#utility.yul\":1533:1562   */\n      swap1\n      pop\n        /* \"#utility.yul\":1479:1568   */\n      swap2\n      swap1\n      pop\n      jump\t// out\n        /* \"#utility.yul\":1574:1694   */\n    tag_285:\n        /* \"#utility.yul\":1646:1669   */\n      tag_316\n        /* \"#utility.yul\":1663:1668   */\n      dup2\n        /* \"#utility.yul\":1646:1669   */\n      tag_284\n      jump\t// in\n    tag_316:\n        /* \"#utility.yul\":1639:1644   */\n      dup2\n        /* \"#utility.yul\":1636:1670   */\n      eq\n        /* \"#utility.yul\":1626:1688   */\n      tag_317\n      jumpi\n        /* \"#utility.yul\":1684:1685   */\n      0x00\n        /* \"#utility.yul\":1681:1682   */\n      dup1\n        /* \"#utility.yul\":1674:1686   */\n      revert\n        /* \"#utility.yul\":1626:1688   */\n    tag_317:\n        /* \"#utility.yul\":1574:1694   */\n      pop\n      jump\t// out\n        /* \"#utility.yul\":1700:1837   */\n    tag_286:\n        /* \"#utility.yul\":1745:1750   */\n      0x00\n        /* \"#utility.yul\":1783:1789   */\n      dup2\n        /* \"#utility.yul\":1770:1790   */\n      calldataload\n        /* \"#utility.yul\":1761:1790   */\n      swap1\n      pop\n        /* \"#utility.yul\":1799:1831   */\n      tag_319\n        /* \"#utility.yul\":1825:1830   */\n      dup2\n        /* \"#utility.yul\":1799:1831   */\n      tag_285\n      jump\t// in\n    tag_319:\n        /* \"#utility.yul\":1700:1837   */\n      swap3\n      swap2\n      pop\n      pop\n      jump\t// out\n        /* \"#utility.yul\":1843:1961   */\n    tag_287:\n        /* \"#utility.yul\":1914:1936   */\n      tag_321\n        /* \"#utility.yul\":1930:1935   */\n      dup2\n        /* \"#utility.yul\":1914:1936   */\n      tag_282\n      jump\t// in\n    tag_321:\n        /* \"#utility.yul\":1907:1912   */\n      dup2\n        /* \"#utility.yul\":1904:1937   */\n      eq\n        /* \"#utility.yul\":1894:1955   */\n      tag_322\n      jumpi\n        /* \"#utility.yul\":1951:1952   */\n      0x00\n        /* \"#utility.yul\":1948:1949   */\n      dup1\n        /* \"#utility.yul\":1941:1953   */\n      revert\n        /* \"#utility.yul\":1894:1955   */\n    tag_322:\n        /* \"#utility.yul\":1843:1961   */\n      pop\n      jump\t// out\n        /* \"#utility.yul\":1967:2102   */\n    tag_288:\n        /* \"#utility.yul\":2011:2016   */\n      0x00\n        /* \"#utility.yul\":2049:2055   */\n      dup2\n        /* \"#utility.yul\":2036:2056   */\n      calldataload\n        /* \"#utility.yul\":2027:2056   */\n      swap1\n      pop\n        /* \"#utility.yul\":2065:2096   */\n      tag_324\n        /* \"#utility.yul\":2090:2095   */\n      dup2\n        /* \"#utility.yul\":2065:2096   */\n      tag_287\n      jump\t// in\n    tag_324:\n        /* \"#utility.yul\":1967:2102   */\n      swap3\n      swap2\n      pop\n      pop\n      jump\t// out\n        /* \"#utility.yul\":2108:3001   */\n    tag_32:\n        /* \"#utility.yul\":2194:2200   */\n      0x00\n        /* \"#utility.yul\":2202:2208   */\n      dup1\n        /* \"#utility.yul\":2210:2216   */\n      0x00\n        /* \"#utility.yul\":2218:2224   */\n      dup1\n        /* \"#utility.yul\":2226:2232   */\n      0x00\n        /* \"#utility.yul\":2275:2278   */\n      0xa0\n        /* \"#utility.yul\":2263:2272   */\n      dup7\n        /* \"#utility.yul\":2254:2261   */\n      dup9\n        /* \"#utility.yul\":2250:2273   */\n      sub\n        /* \"#utility.yul\":2246:2279   */\n      slt\n        /* \"#utility.yul\":2243:2363   */\n      iszero\n      tag_326\n      jumpi\n        /* \"#utility.yul\":2282:2361   */\n      tag_327\n      tag_277\n      jump\t// in\n    tag_327:\n        /* \"#utility.yul\":2243:2363   */\n    tag_326:\n        /* \"#utility.yul\":2402:2403   */\n      0x00\n        /* \"#utility.yul\":2427:2479   */\n      tag_328\n        /* \"#utility.yul\":2471:2478   */\n      dup9\n        /* \"#utility.yul\":2462:2468   */\n      dup3\n        /* \"#utility.yul\":2451:2460   */\n      dup10\n        /* \"#utility.yul\":2447:2469   */\n      add\n        /* \"#utility.yul\":2427:2479   */\n      tag_286\n      jump\t// in\n    tag_328:\n        /* \"#utility.yul\":2417:2479   */\n      swap6\n      pop\n        /* \"#utility.yul\":2373:2489   */\n      pop\n        /* \"#utility.yul\":2528:2530   */\n      0x20\n        /* \"#utility.yul\":2554:2605   */\n      tag_329\n        /* \"#utility.yul\":2597:2604   */\n      dup9\n        /* \"#utility.yul\":2588:2594   */\n      dup3\n        /* \"#utility.yul\":2577:2586   */\n      dup10\n        /* \"#utility.yul\":2573:2595   */\n      add\n        /* \"#utility.yul\":2554:2605   */\n      tag_288\n      jump\t// in\n    tag_329:\n        /* \"#utility.yul\":2544:2605   */\n      swap5\n      pop\n        /* \"#utility.yul\":2499:2615   */\n      pop\n        /* \"#utility.yul\":2654:2656   */\n      0x40\n        /* \"#utility.yul\":2680:2731   */\n      tag_330\n        /* \"#utility.yul\":2723:2730   */\n      dup9\n        /* \"#utility.yul\":2714:2720   */\n      dup3\n        /* \"#utility.yul\":2703:2712   */\n      dup10\n        /* \"#utility.yul\":2699:2721   */\n      add\n        /* \"#utility.yul\":2680:2731   */\n      tag_288\n      jump\t// in\n    tag_330:\n        /* \"#utility.yul\":2670:2731   */\n      swap4\n      pop\n        /* \"#utility.yul\":2625:2741   */\n      pop\n        /* \"#utility.yul\":2780:2782   */\n      0x60\n        /* \"#utility.yul\":2806:2857   */\n      tag_331\n        /* \"#utility.yul\":2849:2856   */\n      dup9\n        /* \"#utility.yul\":2840:2846   */\n      dup3\n        /* \"#utility.yul\":2829:2838   */\n      dup10\n        /* \"#utility.yul\":2825:2847   */\n      add\n        /* \"#utility.yul\":2806:2857   */\n      tag_288\n      jump\t// in\n    tag_331:\n        /* \"#utility.yul\":2796:2857   */\n      swap3\n      pop\n        /* \"#utility.yul\":2751:2867   */\n      pop\n        /* \"#utility.yul\":2906:2909   */\n      0x80\n        /* \"#utility.yul\":2933:2984   */\n      tag_332\n        /* \"#utility.yul\":2976:2983   */\n      dup9\n        /* \"#utility.yul\":2967:2973   */\n      dup3\n        /* \"#utility.yul\":2956:2965   */\n      dup10\n        /* \"#utility.yul\":2952:2974   */\n      add\n        /* \"#utility.yul\":2933:2984   */\n      tag_288\n      jump\t// in\n    tag_332:\n        /* \"#utility.yul\":2923:2984   */\n      swap2\n      pop\n        /* \"#utility.yul\":2877:2994   */\n      pop\n        /* \"#utility.yul\":2108:3001   */\n      swap3\n      swap6\n      pop\n      swap3\n      swap6\n      swap1\n      swap4\n      pop\n      jump\t// out\n        /* \"#utility.yul\":3007:3133   */\n    tag_289:\n        /* \"#utility.yul\":3102:3126   */\n      tag_334\n        /* \"#utility.yul\":3120:3125   */\n      dup2\n        /* \"#utility.yul\":3102:3126   */\n      tag_279\n      jump\t// in\n    tag_334:\n        /* \"#utility.yul\":3097:3100   */\n      dup3\n        /* \"#utility.yul\":3090:3127   */\n      mstore\n        /* \"#utility.yul\":3007:3133   */\n      pop\n      pop\n      jump\t// out\n        /* \"#utility.yul\":3139:3377   */\n    tag_35:\n        /* \"#utility.yul\":3240:3244   */\n      0x00\n        /* \"#utility.yul\":3278:3280   */\n      0x20\n        /* \"#utility.yul\":3267:3276   */\n      dup3\n        /* \"#utility.yul\":3263:3281   */\n      add\n        /* \"#utility.yul\":3255:3281   */\n      swap1\n      pop\n        /* \"#utility.yul\":3291:3370   */\n      tag_336\n        /* \"#utility.yul\":3367:3368   */\n      0x00\n        /* \"#utility.yul\":3356:3365   */\n      dup4\n        /* \"#utility.yul\":3352:3369   */\n      add\n        /* \"#utility.yul\":3343:3349   */\n      dup5\n        /* \"#utility.yul\":3291:3370   */\n      tag_289\n      jump\t// in\n    tag_336:\n        /* \"#utility.yul\":3139:3377   */\n      swap3\n      swap2\n      pop\n      pop\n      jump\t// out\n        /* \"#utility.yul\":3383:4134   */\n    tag_42:\n        /* \"#utility.yul\":3462:3468   */\n      0x00\n        /* \"#utility.yul\":3470:3476   */\n      dup1\n        /* \"#utility.yul\":3478:3484   */\n      0x00\n        /* \"#utility.yul\":3486:3492   */\n      dup1\n        /* \"#utility.yul\":3535:3538   */\n      0x80\n        /* \"#utility.yul\":3523:3532   */\n      dup6\n        /* \"#utility.yul\":3514:3521   */\n      dup8\n        /* \"#utility.yul\":3510:3533   */\n      sub\n        /* \"#utility.yul\":3506:3539   */\n      slt\n        /* \"#utility.yul\":3503:3623   */\n      iszero\n      tag_338\n      jumpi\n        /* \"#utility.yul\":3542:3621   */\n      tag_339\n      tag_277\n      jump\t// in\n    tag_339:\n        /* \"#utility.yul\":3503:3623   */\n    tag_338:\n        /* \"#utility.yul\":3662:3663   */\n      0x00\n        /* \"#utility.yul\":3687:3739   */\n      tag_340\n        /* \"#utility.yul\":3731:3738   */\n      dup8\n        /* \"#utility.yul\":3722:3728   */\n      dup3\n        /* \"#utility.yul\":3711:3720   */\n      dup9\n        /* \"#utility.yul\":3707:3729   */\n      add\n        /* \"#utility.yul\":3687:3739   */\n      tag_286\n      jump\t// in\n    tag_340:\n        /* \"#utility.yul\":3677:3739   */\n      swap5\n      pop\n        /* \"#utility.yul\":3633:3749   */\n      pop\n        /* \"#utility.yul\":3788:3790   */\n      0x20\n        /* \"#utility.yul\":3814:3865   */\n      tag_341\n        /* \"#utility.yul\":3857:3864   */\n      dup8\n        /* \"#utility.yul\":3848:3854   */\n      dup3\n        /* \"#utility.yul\":3837:3846   */\n      dup9\n        /* \"#utility.yul\":3833:3855   */\n      add\n        /* \"#utility.yul\":3814:3865   */\n      tag_288\n      jump\t// in\n    tag_341:\n        /* \"#utility.yul\":3804:3865   */\n      swap4\n      pop\n        /* \"#utility.yul\":3759:3875   */\n      pop\n        /* \"#utility.yul\":3914:3916   */\n      0x40\n        /* \"#utility.yul\":3940:3991   */\n      tag_342\n        /* \"#utility.yul\":3983:3990   */\n      dup8\n        /* \"#utility.yul\":3974:3980   */\n      dup3\n        /* \"#utility.yul\":3963:3972   */\n      dup9\n        /* \"#utility.yul\":3959:3981   */\n      add\n        /* \"#utility.yul\":3940:3991   */\n      tag_288\n      jump\t// in\n    tag_342:\n        /* \"#utility.yul\":3930:3991   */\n      swap3\n      pop\n        /* \"#utility.yul\":3885:4001   */\n      pop\n        /* \"#utility.yul\":4040:4042   */\n      0x60\n        /* \"#utility.yul\":4066:4117   */\n      tag_343\n        /* \"#utility.yul\":4109:4116   */\n      dup8\n        /* \"#utility.yul\":4100:4106   */\n      dup3\n        /* \"#utility.yul\":4089:4098   */\n      dup9\n        /* \"#utility.yul\":4085:4107   */\n      add\n        /* \"#utility.yul\":4066:4117   */\n      tag_288\n      jump\t// in\n    tag_343:\n        /* \"#utility.yul\":4056:4117   */\n      swap2\n      pop\n        /* \"#utility.yul\":4011:4127   */\n      pop\n        /* \"#utility.yul\":3383:4134   */\n      swap3\n      swap6\n      swap2\n      swap5\n      pop\n      swap3\n      pop\n      jump\t// out\n        /* \"#utility.yul\":4140:4749   */\n    tag_51:\n        /* \"#utility.yul\":4212:4218   */\n      0x00\n        /* \"#utility.yul\":4220:4226   */\n      dup1\n        /* \"#utility.yul\":4228:4234   */\n      0x00\n        /* \"#utility.yul\":4277:4279   */\n      0x60\n        /* \"#utility.yul\":4265:4274   */\n      dup5\n        /* \"#utility.yul\":4256:4263   */\n      dup7\n        /* \"#utility.yul\":4252:4275   */\n      sub\n        /* \"#utility.yul\":4248:4280   */\n      slt\n        /* \"#utility.yul\":4245:4364   */\n      iszero\n      tag_345\n      jumpi\n        /* \"#utility.yul\":4283:4362   */\n      tag_346\n      tag_277\n      jump\t// in\n    tag_346:\n        /* \"#utility.yul\":4245:4364   */\n    tag_345:\n        /* \"#utility.yul\":4403:4404   */\n      0x00\n        /* \"#utility.yul\":4428:4480   */\n      tag_347\n        /* \"#utility.yul\":4472:4479   */\n      dup7\n        /* \"#utility.yul\":4463:4469   */\n      dup3\n        /* \"#utility.yul\":4452:4461   */\n      dup8\n        /* \"#utility.yul\":4448:4470   */\n      add\n        /* \"#utility.yul\":4428:4480   */\n      tag_286\n      jump\t// in\n    tag_347:\n        /* \"#utility.yul\":4418:4480   */\n      swap4\n      pop\n        /* \"#utility.yul\":4374:4490   */\n      pop\n        /* \"#utility.yul\":4529:4531   */\n      0x20\n        /* \"#utility.yul\":4555:4606   */\n      tag_348\n        /* \"#utility.yul\":4598:4605   */\n      dup7\n        /* \"#utility.yul\":4589:4595   */\n      dup3\n        /* \"#utility.yul\":4578:4587   */\n      dup8\n        /* \"#utility.yul\":4574:4596   */\n      add\n        /* \"#utility.yul\":4555:4606   */\n      tag_288\n      jump\t// in\n    tag_348:\n        /* \"#utility.yul\":4545:4606   */\n      swap3\n      pop\n        /* \"#utility.yul\":4500:4616   */\n      pop\n        /* \"#utility.yul\":4655:4657   */\n      0x40\n        /* \"#utility.yul\":4681:4732   */\n      tag_349\n        /* \"#utility.yul\":4724:4731   */\n      dup7\n        /* \"#utility.yul\":4715:4721   */\n      dup3\n        /* \"#utility.yul\":4704:4713   */\n      dup8\n        /* \"#utility.yul\":4700:4722   */\n      add\n        /* \"#utility.yul\":4681:4732   */\n      tag_288\n      jump\t// in\n    tag_349:\n        /* \"#utility.yul\":4671:4732   */\n      swap2\n      pop\n        /* \"#utility.yul\":4626:4742   */\n      pop\n        /* \"#utility.yul\":4140:4749   */\n      swap3\n      pop\n      swap3\n      pop\n      swap3\n      jump\t// out\n        /* \"#utility.yul\":4755:5790   */\n    tag_56:\n        /* \"#utility.yul\":4848:4854   */\n      0x00\n        /* \"#utility.yul\":4856:4862   */\n      dup1\n        /* \"#utility.yul\":4864:4870   */\n      0x00\n        /* \"#utility.yul\":4872:4878   */\n      dup1\n        /* \"#utility.yul\":4880:4886   */\n      0x00\n        /* \"#utility.yul\":4888:4894   */\n      dup1\n        /* \"#utility.yul\":4937:4940   */\n      0xc0\n        /* \"#utility.yul\":4925:4934   */\n      dup8\n        /* \"#utility.yul\":4916:4923   */\n      dup10\n        /* \"#utility.yul\":4912:4935   */\n      sub\n        /* \"#utility.yul\":4908:4941   */\n      slt\n        /* \"#utility.yul\":4905:5025   */\n      iszero\n      tag_351\n      jumpi\n        /* \"#utility.yul\":4944:5023   */\n      tag_352\n      tag_277\n      jump\t// in\n    tag_352:\n        /* \"#utility.yul\":4905:5025   */\n    tag_351:\n        /* \"#utility.yul\":5064:5065   */\n      0x00\n        /* \"#utility.yul\":5089:5141   */\n      tag_353\n        /* \"#utility.yul\":5133:5140   */\n      dup10\n        /* \"#utility.yul\":5124:5130   */\n      dup3\n        /* \"#utility.yul\":5113:5122   */\n      dup11\n        /* \"#utility.yul\":5109:5131   */\n      add\n        /* \"#utility.yul\":5089:5141   */\n      tag_286\n      jump\t// in\n    tag_353:\n        /* \"#utility.yul\":5079:5141   */\n      swap7\n      pop\n        /* \"#utility.yul\":5035:5151   */\n      pop\n        /* \"#utility.yul\":5190:5192   */\n      0x20\n        /* \"#utility.yul\":5216:5267   */\n      tag_354\n        /* \"#utility.yul\":5259:5266   */\n      dup10\n        /* \"#utility.yul\":5250:5256   */\n      dup3\n        /* \"#utility.yul\":5239:5248   */\n      dup11\n        /* \"#utility.yul\":5235:5257   */\n      add\n        /* \"#utility.yul\":5216:5267   */\n      tag_288\n      jump\t// in\n    tag_354:\n        /* \"#utility.yul\":5206:5267   */\n      swap6\n      pop\n        /* \"#utility.yul\":5161:5277   */\n      pop\n        /* \"#utility.yul\":5316:5318   */\n      0x40\n        /* \"#utility.yul\":5342:5393   */\n      tag_355\n        /* \"#utility.yul\":5385:5392   */\n      dup10\n        /* \"#utility.yul\":5376:5382   */\n      dup3\n        /* \"#utility.yul\":5365:5374   */\n      dup11\n        /* \"#utility.yul\":5361:5383   */\n      add\n        /* \"#utility.yul\":5342:5393   */\n      tag_288\n      jump\t// in\n    tag_355:\n        /* \"#utility.yul\":5332:5393   */\n      swap5\n      pop\n        /* \"#utility.yul\":5287:5403   */\n      pop\n        /* \"#utility.yul\":5442:5444   */\n      0x60\n        /* \"#utility.yul\":5468:5519   */\n      tag_356\n        /* \"#utility.yul\":5511:5518   */\n      dup10\n        /* \"#utility.yul\":5502:5508   */\n      dup3\n        /* \"#utility.yul\":5491:5500   */\n      dup11\n        /* \"#utility.yul\":5487:5509   */\n      add\n        /* \"#utility.yul\":5468:5519   */\n      tag_288\n      jump\t// in\n    tag_356:\n        /* \"#utility.yul\":5458:5519   */\n      swap4\n      pop\n        /* \"#utility.yul\":5413:5529   */\n      pop\n        /* \"#utility.yul\":5568:5571   */\n      0x80\n        /* \"#utility.yul\":5595:5646   */\n      tag_357\n        /* \"#utility.yul\":5638:5645   */\n      dup10\n        /* \"#utility.yul\":5629:5635   */\n      dup3\n        /* \"#utility.yul\":5618:5627   */\n      dup11\n        /* \"#utility.yul\":5614:5636   */\n      add\n        /* \"#utility.yul\":5595:5646   */\n      tag_288\n      jump\t// in\n    tag_357:\n        /* \"#utility.yul\":5585:5646   */\n      swap3\n      pop\n        /* \"#utility.yul\":5539:5656   */\n      pop\n        /* \"#utility.yul\":5695:5698   */\n      0xa0\n        /* \"#utility.yul\":5722:5773   */\n      tag_358\n        /* \"#utility.yul\":5765:5772   */\n      dup10\n        /* \"#utility.yul\":5756:5762   */\n      dup3\n        /* \"#utility.yul\":5745:5754   */\n      dup11\n        /* \"#utility.yul\":5741:5763   */\n      add\n        /* \"#utility.yul\":5722:5773   */\n      tag_288\n      jump\t// in\n    tag_358:\n        /* \"#utility.yul\":5712:5773   */\n      swap2\n      pop\n        /* \"#utility.yul\":5666:5783   */\n      pop\n        /* \"#utility.yul\":4755:5790   */\n      swap3\n      swap6\n      pop\n      swap3\n      swap6\n      pop\n      swap3\n      swap6\n      jump\t// out\n        /* \"#utility.yul\":5796:5919   */\n    tag_290:\n        /* \"#utility.yul\":5889:5912   */\n      tag_360\n        /* \"#utility.yul\":5906:5911   */\n      dup2\n        /* \"#utility.yul\":5889:5912   */\n      tag_284\n      jump\t// in\n    tag_360:\n        /* \"#utility.yul\":5884:5887   */\n      dup3\n        /* \"#utility.yul\":5877:5913   */\n      mstore\n        /* \"#utility.yul\":5796:5919   */\n      pop\n      pop\n      jump\t// out\n        /* \"#utility.yul\":5925:6159   */\n    tag_63:\n        /* \"#utility.yul\":6024:6028   */\n      0x00\n        /* \"#utility.yul\":6062:6064   */\n      0x20\n        /* \"#utility.yul\":6051:6060   */\n      dup3\n        /* \"#utility.yul\":6047:6065   */\n      add\n        /* \"#utility.yul\":6039:6065   */\n      swap1\n      pop\n        /* \"#utility.yul\":6075:6152   */\n      tag_362\n        /* \"#utility.yul\":6149:6150   */\n      0x00\n        /* \"#utility.yul\":6138:6147   */\n      dup4\n        /* \"#utility.yul\":6134:6151   */\n      add\n        /* \"#utility.yul\":6125:6131   */\n      dup5\n        /* \"#utility.yul\":6075:6152   */\n      tag_290\n      jump\t// in\n    tag_362:\n        /* \"#utility.yul\":5925:6159   */\n      swap3\n      swap2\n      pop\n      pop\n      jump\t// out\n        /* \"#utility.yul\":6165:6492   */\n    tag_70:\n        /* \"#utility.yul\":6223:6229   */\n      0x00\n        /* \"#utility.yul\":6272:6274   */\n      0x20\n        /* \"#utility.yul\":6260:6269   */\n      dup3\n        /* \"#utility.yul\":6251:6258   */\n      dup5\n        /* \"#utility.yul\":6247:6270   */\n      sub\n        /* \"#utility.yul\":6243:6275   */\n      slt\n        /* \"#utility.yul\":6240:6359   */\n      iszero\n      tag_364\n      jumpi\n        /* \"#utility.yul\":6278:6357   */\n      tag_365\n      tag_277\n      jump\t// in\n    tag_365:\n        /* \"#utility.yul\":6240:6359   */\n    tag_364:\n        /* \"#utility.yul\":6398:6399   */\n      0x00\n        /* \"#utility.yul\":6423:6475   */\n      tag_366\n        /* \"#utility.yul\":6467:6474   */\n      dup5\n        /* \"#utility.yul\":6458:6464   */\n      dup3\n        /* \"#utility.yul\":6447:6456   */\n      dup6\n        /* \"#utility.yul\":6443:6465   */\n      add\n        /* \"#utility.yul\":6423:6475   */\n      tag_286\n      jump\t// in\n    tag_366:\n        /* \"#utility.yul\":6413:6475   */\n      swap2\n      pop\n        /* \"#utility.yul\":6369:6485   */\n      pop\n        /* \"#utility.yul\":6165:6492   */\n      swap3\n      swap2\n      pop\n      pop\n      jump\t// out\n        /* \"#utility.yul\":6498:6588   */\n    tag_291:\n        /* \"#utility.yul\":6532:6539   */\n      0x00\n        /* \"#utility.yul\":6575:6580   */\n      dup2\n        /* \"#utility.yul\":6568:6581   */\n      iszero\n        /* \"#utility.yul\":6561:6582   */\n      iszero\n        /* \"#utility.yul\":6550:6582   */\n      swap1\n      pop\n        /* \"#utility.yul\":6498:6588   */\n      swap2\n      swap1\n      pop\n      jump\t// out\n        /* \"#utility.yul\":6594:6711   */\n    tag_292:\n        /* \"#utility.yul\":6683:6704   */\n      tag_369\n        /* \"#utility.yul\":6698:6703   */\n      dup2\n        /* \"#utility.yul\":6683:6704   */\n      tag_291\n      jump\t// in\n    tag_369:\n        /* \"#utility.yul\":6678:6681   */\n      dup3\n        /* \"#utility.yul\":6671:6705   */\n      mstore\n        /* \"#utility.yul\":6594:6711   */\n      pop\n      pop\n      jump\t// out\n        /* \"#utility.yul\":6717:6943   */\n    tag_73:\n        /* \"#utility.yul\":6812:6816   */\n      0x00\n        /* \"#utility.yul\":6850:6852   */\n      0x20\n        /* \"#utility.yul\":6839:6848   */\n      dup3\n        /* \"#utility.yul\":6835:6853   */\n      add\n        /* \"#utility.yul\":6827:6853   */\n      swap1\n      pop\n        /* \"#utility.yul\":6863:6936   */\n      tag_371\n        /* \"#utility.yul\":6933:6934   */\n      0x00\n        /* \"#utility.yul\":6922:6931   */\n      dup4\n        /* \"#utility.yul\":6918:6935   */\n      add\n        /* \"#utility.yul\":6909:6915   */\n      dup5\n        /* \"#utility.yul\":6863:6936   */\n      tag_292\n      jump\t// in\n    tag_371:\n        /* \"#utility.yul\":6717:6943   */\n      swap3\n      swap2\n      pop\n      pop\n      jump\t// out\n        /* \"#utility.yul\":6949:7417   */\n    tag_80:\n        /* \"#utility.yul\":7014:7020   */\n      0x00\n        /* \"#utility.yul\":7022:7028   */\n      dup1\n        /* \"#utility.yul\":7071:7073   */\n      0x40\n        /* \"#utility.yul\":7059:7068   */\n      dup4\n        /* \"#utility.yul\":7050:7057   */\n      dup6\n        /* \"#utility.yul\":7046:7069   */\n      sub\n        /* \"#utility.yul\":7042:7074   */\n      slt\n        /* \"#utility.yul\":7039:7158   */\n      iszero\n      tag_373\n      jumpi\n        /* \"#utility.yul\":7077:7156   */\n      tag_374\n      tag_277\n      jump\t// in\n    tag_374:\n        /* \"#utility.yul\":7039:7158   */\n    tag_373:\n        /* \"#utility.yul\":7197:7198   */\n      0x00\n        /* \"#utility.yul\":7222:7273   */\n      tag_375\n        /* \"#utility.yul\":7265:7272   */\n      dup6\n        /* \"#utility.yul\":7256:7262   */\n      dup3\n        /* \"#utility.yul\":7245:7254   */\n      dup7\n        /* \"#utility.yul\":7241:7263   */\n      add\n        /* \"#utility.yul\":7222:7273   */\n      tag_288\n      jump\t// in\n    tag_375:\n        /* \"#utility.yul\":7212:7273   */\n      swap3\n      pop\n        /* \"#utility.yul\":7168:7283   */\n      pop\n        /* \"#utility.yul\":7322:7324   */\n      0x20\n        /* \"#utility.yul\":7348:7400   */\n      tag_376\n        /* \"#utility.yul\":7392:7399   */\n      dup6\n        /* \"#utility.yul\":7383:7389   */\n      dup3\n        /* \"#utility.yul\":7372:7381   */\n      dup7\n        /* \"#utility.yul\":7368:7390   */\n      add\n        /* \"#utility.yul\":7348:7400   */\n      tag_286\n      jump\t// in\n    tag_376:\n        /* \"#utility.yul\":7338:7400   */\n      swap2\n      pop\n        /* \"#utility.yul\":7293:7410   */\n      pop\n        /* \"#utility.yul\":6949:7417   */\n      swap3\n      pop\n      swap3\n      swap1\n      pop\n      jump\t// out\n        /* \"#utility.yul\":7423:7897   */\n    tag_85:\n        /* \"#utility.yul\":7491:7497   */\n      0x00\n        /* \"#utility.yul\":7499:7505   */\n      dup1\n        /* \"#utility.yul\":7548:7550   */\n      0x40\n        /* \"#utility.yul\":7536:7545   */\n      dup4\n        /* \"#utility.yul\":7527:7534   */\n      dup6\n        /* \"#utility.yul\":7523:7546   */\n      sub\n        /* \"#utility.yul\":7519:7551   */\n      slt\n        /* \"#utility.yul\":7516:7635   */\n      iszero\n      tag_378\n      jumpi\n        /* \"#utility.yul\":7554:7633   */\n      tag_379\n      tag_277\n      jump\t// in\n    tag_379:\n        /* \"#utility.yul\":7516:7635   */\n    tag_378:\n        /* \"#utility.yul\":7674:7675   */\n      0x00\n        /* \"#utility.yul\":7699:7752   */\n      tag_380\n        /* \"#utility.yul\":7744:7751   */\n      dup6\n        /* \"#utility.yul\":7735:7741   */\n      dup3\n        /* \"#utility.yul\":7724:7733   */\n      dup7\n        /* \"#utility.yul\":7720:7742   */\n      add\n        /* \"#utility.yul\":7699:7752   */\n      tag_281\n      jump\t// in\n    tag_380:\n        /* \"#utility.yul\":7689:7752   */\n      swap3\n      pop\n        /* \"#utility.yul\":7645:7762   */\n      pop\n        /* \"#utility.yul\":7801:7803   */\n      0x20\n        /* \"#utility.yul\":7827:7880   */\n      tag_381\n        /* \"#utility.yul\":7872:7879   */\n      dup6\n        /* \"#utility.yul\":7863:7869   */\n      dup3\n        /* \"#utility.yul\":7852:7861   */\n      dup7\n        /* \"#utility.yul\":7848:7870   */\n      add\n        /* \"#utility.yul\":7827:7880   */\n      tag_281\n      jump\t// in\n    tag_381:\n        /* \"#utility.yul\":7817:7880   */\n      swap2\n      pop\n        /* \"#utility.yul\":7772:7890   */\n      pop\n        /* \"#utility.yul\":7423:7897   */\n      swap3\n      pop\n      swap3\n      swap1\n      pop\n      jump\t// out\n        /* \"#utility.yul\":7903:8083   */\n    tag_293:\n        /* \"#utility.yul\":7951:8028   */\n      0x4e487b7100000000000000000000000000000000000000000000000000000000\n        /* \"#utility.yul\":7948:7949   */\n      0x00\n        /* \"#utility.yul\":7941:8029   */\n      mstore\n        /* \"#utility.yul\":8048:8052   */\n      0x12\n        /* \"#utility.yul\":8045:8046   */\n      0x04\n        /* \"#utility.yul\":8038:8053   */\n      mstore\n        /* \"#utility.yul\":8072:8076   */\n      0x24\n        /* \"#utility.yul\":8069:8070   */\n      0x00\n        /* \"#utility.yul\":8062:8077   */\n      revert\n        /* \"#utility.yul\":8089:8269   */\n    tag_294:\n        /* \"#utility.yul\":8137:8214   */\n      0x4e487b7100000000000000000000000000000000000000000000000000000000\n        /* \"#utility.yul\":8134:8135   */\n      0x00\n        /* \"#utility.yul\":8127:8215   */\n      mstore\n        /* \"#utility.yul\":8234:8238   */\n      0x11\n        /* \"#utility.yul\":8231:8232   */\n      0x04\n        /* \"#utility.yul\":8224:8239   */\n      mstore\n        /* \"#utility.yul\":8258:8262   */\n      0x24\n        /* \"#utility.yul\":8255:8256   */\n      0x00\n        /* \"#utility.yul\":8248:8263   */\n      revert\n        /* \"#utility.yul\":8275:8460   */\n    tag_94:\n        /* \"#utility.yul\":8315:8316   */\n      0x00\n        /* \"#utility.yul\":8332:8352   */\n      tag_385\n        /* \"#utility.yul\":8350:8351   */\n      dup3\n        /* \"#utility.yul\":8332:8352   */\n      tag_279\n      jump\t// in\n    tag_385:\n        /* \"#utility.yul\":8327:8352   */\n      swap2\n      pop\n        /* \"#utility.yul\":8366:8386   */\n      tag_386\n        /* \"#utility.yul\":8384:8385   */\n      dup4\n        /* \"#utility.yul\":8366:8386   */\n      tag_279\n      jump\t// in\n    tag_386:\n        /* \"#utility.yul\":8361:8386   */\n      swap3\n      pop\n        /* \"#utility.yul\":8405:8406   */\n      dup3\n        /* \"#utility.yul\":8395:8430   */\n      tag_387\n      jumpi\n        /* \"#utility.yul\":8410:8428   */\n      tag_388\n      tag_293\n      jump\t// in\n    tag_388:\n        /* \"#utility.yul\":8395:8430   */\n    tag_387:\n        /* \"#utility.yul\":8452:8453   */\n      dup3\n        /* \"#utility.yul\":8449:8450   */\n      dup3\n        /* \"#utility.yul\":8445:8454   */\n      div\n        /* \"#utility.yul\":8440:8454   */\n      swap1\n      pop\n        /* \"#utility.yul\":8275:8460   */\n      swap3\n      swap2\n      pop\n      pop\n      jump\t// out\n        /* \"#utility.yul\":8466:8642   */\n    tag_97:\n        /* \"#utility.yul\":8498:8499   */\n      0x00\n        /* \"#utility.yul\":8515:8535   */\n      tag_390\n        /* \"#utility.yul\":8533:8534   */\n      dup3\n        /* \"#utility.yul\":8515:8535   */\n      tag_279\n      jump\t// in\n    tag_390:\n        /* \"#utility.yul\":8510:8535   */\n      swap2\n      pop\n        /* \"#utility.yul\":8549:8569   */\n      tag_391\n        /* \"#utility.yul\":8567:8568   */\n      dup4\n        /* \"#utility.yul\":8549:8569   */\n      tag_279\n      jump\t// in\n    tag_391:\n        /* \"#utility.yul\":8544:8569   */\n      swap3\n      pop\n        /* \"#utility.yul\":8588:8589   */\n      dup3\n        /* \"#utility.yul\":8578:8613   */\n      tag_392\n      jumpi\n        /* \"#utility.yul\":8593:8611   */\n      tag_393\n      tag_293\n      jump\t// in\n    tag_393:\n        /* \"#utility.yul\":8578:8613   */\n    tag_392:\n        /* \"#utility.yul\":8634:8635   */\n      dup3\n        /* \"#utility.yul\":8631:8632   */\n      dup3\n        /* \"#utility.yul\":8627:8636   */\n      mod\n        /* \"#utility.yul\":8622:8636   */\n      swap1\n      pop\n        /* \"#utility.yul\":8466:8642   */\n      swap3\n      swap2\n      pop\n      pop\n      jump\t// out\n        /* \"#utility.yul\":8648:8953   */\n    tag_101:\n        /* \"#utility.yul\":8688:8691   */\n      0x00\n        /* \"#utility.yul\":8707:8727   */\n      tag_395\n        /* \"#utility.yul\":8725:8726   */\n      dup3\n        /* \"#utility.yul\":8707:8727   */\n      tag_279\n      jump\t// in\n    tag_395:\n        /* \"#utility.yul\":8702:8727   */\n      swap2\n      pop\n        /* \"#utility.yul\":8741:8761   */\n      tag_396\n        /* \"#utility.yul\":8759:8760   */\n      dup4\n        /* \"#utility.yul\":8741:8761   */\n      tag_279\n      jump\t// in\n    tag_396:\n        /* \"#utility.yul\":8736:8761   */\n      swap3\n      pop\n        /* \"#utility.yul\":8895:8896   */\n      dup3\n        /* \"#utility.yul\":8827:8893   */\n      0xffffffffffffffffffffffffffffffffffffffffffffffffffffffffffffffff\n        /* \"#utility.yul\":8823:8897   */\n      sub\n        /* \"#utility.yul\":8820:8821   */\n      dup3\n        /* \"#utility.yul\":8817:8898   */\n      gt\n        /* \"#utility.yul\":8814:8921   */\n      iszero\n      tag_397\n      jumpi\n        /* \"#utility.yul\":8901:8919   */\n      tag_398\n      tag_294\n      jump\t// in\n    tag_398:\n        /* \"#utility.yul\":8814:8921   */\n    tag_397:\n        /* \"#utility.yul\":8945:8946   */\n      dup3\n        /* \"#utility.yul\":8942:8943   */\n      dup3\n        /* \"#utility.yul\":8938:8947   */\n      add\n        /* \"#utility.yul\":8931:8947   */\n      swap1\n      pop\n        /* \"#utility.yul\":8648:8953   */\n      swap3\n      swap2\n      pop\n      pop\n      jump\t// out\n        /* \"#utility.yul\":8959:9130   */\n    tag_124:\n        /* \"#utility.yul\":8997:9000   */\n      0x00\n        /* \"#utility.yul\":9020:9043   */\n      tag_400\n        /* \"#utility.yul\":9037:9042   */\n      dup3\n        /* \"#utility.yul\":9020:9043   */\n      tag_284\n      jump\t// in\n    tag_400:\n        /* \"#utility.yul\":9011:9043   */\n      swap2\n      pop\n        /* \"#utility.yul\":9065:9071   */\n      0xffff\n        /* \"#utility.yul\":9058:9063   */\n      dup3\n        /* \"#utility.yul\":9055:9072   */\n      eq\n        /* \"#utility.yul\":9052:9095   */\n      iszero\n      tag_401\n      jumpi\n        /* \"#utility.yul\":9075:9093   */\n      tag_402\n      tag_294\n      jump\t// in\n    tag_402:\n        /* \"#utility.yul\":9052:9095   */\n    tag_401:\n        /* \"#utility.yul\":9122:9123   */\n      0x01\n        /* \"#utility.yul\":9115:9120   */\n      dup3\n        /* \"#utility.yul\":9111:9124   */\n      add\n        /* \"#utility.yul\":9104:9124   */\n      swap1\n      pop\n        /* \"#utility.yul\":8959:9130   */\n      swap2\n      swap1\n      pop\n      jump\t// out\n        /* \"#utility.yul\":9136:9316   */\n    tag_129:\n        /* \"#utility.yul\":9184:9261   */\n      0x4e487b7100000000000000000000000000000000000000000000000000000000\n        /* \"#utility.yul\":9181:9182   */\n      0x00\n        /* \"#utility.yul\":9174:9262   */\n      mstore\n        /* \"#utility.yul\":9281:9285   */\n      0x32\n        /* \"#utility.yul\":9278:9279   */\n      0x04\n        /* \"#utility.yul\":9271:9286   */\n      mstore\n        /* \"#utility.yul\":9305:9309   */\n      0x24\n        /* \"#utility.yul\":9302:9303   */\n      0x00\n        /* \"#utility.yul\":9295:9310   */\n      revert\n        /* \"#utility.yul\":9322:9510   */\n    tag_161:\n        /* \"#utility.yul\":9361:9365   */\n      0x00\n        /* \"#utility.yul\":9381:9400   */\n      tag_405\n        /* \"#utility.yul\":9398:9399   */\n      dup3\n        /* \"#utility.yul\":9381:9400   */\n      tag_284\n      jump\t// in\n    tag_405:\n        /* \"#utility.yul\":9376:9400   */\n      swap2\n      pop\n        /* \"#utility.yul\":9414:9433   */\n      tag_406\n        /* \"#utility.yul\":9431:9432   */\n      dup4\n        /* \"#utility.yul\":9414:9433   */\n      tag_284\n      jump\t// in\n    tag_406:\n        /* \"#utility.yul\":9409:9433   */\n      swap3\n      pop\n        /* \"#utility.yul\":9452:9453   */\n      dup3\n        /* \"#utility.yul\":9449:9450   */\n      dup3\n        /* \"#utility.yul\":9446:9454   */\n      lt\n        /* \"#utility.yul\":9443:9477   */\n      iszero\n      tag_407\n      jumpi\n        /* \"#utility.yul\":9457:9475   */\n      tag_408\n      tag_294\n      jump\t// in\n    tag_408:\n        /* \"#utility.yul\":9443:9477   */\n    tag_407:\n        /* \"#utility.yul\":9502:9503   */\n      dup3\n        /* \"#utility.yul\":9499:9500   */\n      dup3\n        /* \"#utility.yul\":9495:9504   */\n      sub\n        /* \"#utility.yul\":9487:9504   */\n      swap1\n      pop\n        /* \"#utility.yul\":9322:9510   */\n      swap3\n      swap2\n      pop\n      pop\n      jump\t// out\n        /* \"#utility.yul\":9516:9864   */\n    tag_165:\n        /* \"#utility.yul\":9556:9563   */\n      0x00\n        /* \"#utility.yul\":9579:9599   */\n      tag_410\n        /* \"#utility.yul\":9597:9598   */\n      dup3\n        /* \"#utility.yul\":9579:9599   */\n      tag_279\n      jump\t// in\n    tag_410:\n        /* \"#utility.yul\":9574:9599   */\n      swap2\n      pop\n        /* \"#utility.yul\":9613:9633   */\n      tag_411\n        /* \"#utility.yul\":9631:9632   */\n      dup4\n        /* \"#utility.yul\":9613:9633   */\n      tag_279\n      jump\t// in\n    tag_411:\n        /* \"#utility.yul\":9608:9633   */\n      swap3\n      pop\n        /* \"#utility.yul\":9801:9802   */\n      dup2\n        /* \"#utility.yul\":9733:9799   */\n      0xffffffffffffffffffffffffffffffffffffffffffffffffffffffffffffffff\n        /* \"#utility.yul\":9729:9803   */\n      div\n        /* \"#utility.yul\":9726:9727   */\n      dup4\n        /* \"#utility.yul\":9723:9804   */\n      gt\n        /* \"#utility.yul\":9718:9719   */\n      dup3\n        /* \"#utility.yul\":9711:9720   */\n      iszero\n        /* \"#utility.yul\":9704:9721   */\n      iszero\n        /* \"#utility.yul\":9700:9805   */\n      and\n        /* \"#utility.yul\":9697:9828   */\n      iszero\n      tag_412\n      jumpi\n        /* \"#utility.yul\":9808:9826   */\n      tag_413\n      tag_294\n      jump\t// in\n    tag_413:\n        /* \"#utility.yul\":9697:9828   */\n    tag_412:\n        /* \"#utility.yul\":9856:9857   */\n      dup3\n        /* \"#utility.yul\":9853:9854   */\n      dup3\n        /* \"#utility.yul\":9849:9858   */\n      mul\n        /* \"#utility.yul\":9838:9858   */\n      swap1\n      pop\n        /* \"#utility.yul\":9516:9864   */\n      swap3\n      swap2\n      pop\n      pop\n      jump\t// out\n        /* \"#utility.yul\":9870:10055   */\n    tag_169:\n        /* \"#utility.yul\":9908:9912   */\n      0x00\n        /* \"#utility.yul\":9928:9946   */\n      tag_415\n        /* \"#utility.yul\":9944:9945   */\n      dup3\n        /* \"#utility.yul\":9928:9946   */\n      tag_282\n      jump\t// in\n    tag_415:\n        /* \"#utility.yul\":9923:9946   */\n      swap2\n      pop\n        /* \"#utility.yul\":9960:9978   */\n      tag_416\n        /* \"#utility.yul\":9976:9977   */\n      dup4\n        /* \"#utility.yul\":9960:9978   */\n      tag_282\n      jump\t// in\n    tag_416:\n        /* \"#utility.yul\":9955:9978   */\n      swap3\n      pop\n        /* \"#utility.yul\":9997:9998   */\n      dup3\n        /* \"#utility.yul\":9994:9995   */\n      dup3\n        /* \"#utility.yul\":9991:9999   */\n      lt\n        /* \"#utility.yul\":9988:10022   */\n      iszero\n      tag_417\n      jumpi\n        /* \"#utility.yul\":10002:10020   */\n      tag_418\n      tag_294\n      jump\t// in\n    tag_418:\n        /* \"#utility.yul\":9988:10022   */\n    tag_417:\n        /* \"#utility.yul\":10047:10048   */\n      dup3\n        /* \"#utility.yul\":10044:10045   */\n      dup3\n        /* \"#utility.yul\":10040:10049   */\n      sub\n        /* \"#utility.yul\":10032:10049   */\n      swap1\n      pop\n        /* \"#utility.yul\":9870:10055   */\n      swap3\n      swap2\n      pop\n      pop\n      jump\t// out\n        /* \"#utility.yul\":10061:10252   */\n    tag_183:\n        /* \"#utility.yul\":10101:10105   */\n      0x00\n        /* \"#utility.yul\":10121:10141   */\n      tag_420\n        /* \"#utility.yul\":10139:10140   */\n      dup3\n        /* \"#utility.yul\":10121:10141   */\n      tag_279\n      jump\t// in\n    tag_420:\n        /* \"#utility.yul\":10116:10141   */\n      swap2\n      pop\n        /* \"#utility.yul\":10155:10175   */\n      tag_421\n        /* \"#utility.yul\":10173:10174   */\n      dup4\n        /* \"#utility.yul\":10155:10175   */\n      tag_279\n      jump\t// in\n    tag_421:\n        /* \"#utility.yul\":10150:10175   */\n      swap3\n      pop\n        /* \"#utility.yul\":10194:10195   */\n      dup3\n        /* \"#utility.yul\":10191:10192   */\n      dup3\n        /* \"#utility.yul\":10188:10196   */\n      lt\n        /* \"#utility.yul\":10185:10219   */\n      iszero\n      tag_422\n      jumpi\n        /* \"#utility.yul\":10199:10217   */\n      tag_423\n      tag_294\n      jump\t// in\n    tag_423:\n        /* \"#utility.yul\":10185:10219   */\n    tag_422:\n        /* \"#utility.yul\":10244:10245   */\n      dup3\n        /* \"#utility.yul\":10241:10242   */\n      dup3\n        /* \"#utility.yul\":10237:10246   */\n      sub\n        /* \"#utility.yul\":10229:10246   */\n      swap1\n      pop\n        /* \"#utility.yul\":10061:10252   */\n      swap3\n      swap2\n      pop\n      pop\n      jump\t// out\n        /* \"#utility.yul\":10258:10431   */\n    tag_203:\n        /* \"#utility.yul\":10289:10290   */\n      0x00\n        /* \"#utility.yul\":10306:10325   */\n      tag_425\n        /* \"#utility.yul\":10323:10324   */\n      dup3\n        /* \"#utility.yul\":10306:10325   */\n      tag_284\n      jump\t// in\n    tag_425:\n        /* \"#utility.yul\":10301:10325   */\n      swap2\n      pop\n        /* \"#utility.yul\":10339:10358   */\n      tag_426\n        /* \"#utility.yul\":10356:10357   */\n      dup4\n        /* \"#utility.yul\":10339:10358   */\n      tag_284\n      jump\t// in\n    tag_426:\n        /* \"#utility.yul\":10334:10358   */\n      swap3\n      pop\n        /* \"#utility.yul\":10377:10378   */\n      dup3\n        /* \"#utility.yul\":10367:10402   */\n      tag_427\n      jumpi\n        /* \"#utility.yul\":10382:10400   */\n      tag_428\n      tag_293\n      jump\t// in\n    tag_428:\n        /* \"#utility.yul\":10367:10402   */\n    tag_427:\n        /* \"#utility.yul\":10423:10424   */\n      dup3\n        /* \"#utility.yul\":10420:10421   */\n      dup3\n        /* \"#utility.yul\":10416:10425   */\n      mod\n        /* \"#utility.yul\":10411:10425   */\n      swap1\n      pop\n        /* \"#utility.yul\":10258:10431   */\n      swap3\n      swap2\n      pop\n      pop\n      jump\t// out\n        /* \"#utility.yul\":10437:10604   */\n    tag_263:\n        /* \"#utility.yul\":10474:10477   */\n      0x00\n        /* \"#utility.yul\":10497:10519   */\n      tag_430\n        /* \"#utility.yul\":10513:10518   */\n      dup3\n        /* \"#utility.yul\":10497:10519   */\n      tag_282\n      jump\t// in\n    tag_430:\n        /* \"#utility.yul\":10488:10519   */\n      swap2\n      pop\n        /* \"#utility.yul\":10541:10545   */\n      0xff\n        /* \"#utility.yul\":10534:10539   */\n      dup3\n        /* \"#utility.yul\":10531:10546   */\n      eq\n        /* \"#utility.yul\":10528:10569   */\n      iszero\n      tag_431\n      jumpi\n        /* \"#utility.yul\":10549:10567   */\n      tag_432\n      tag_294\n      jump\t// in\n    tag_432:\n        /* \"#utility.yul\":10528:10569   */\n    tag_431:\n        /* \"#utility.yul\":10596:10597   */\n      0x01\n        /* \"#utility.yul\":10589:10594   */\n      dup3\n        /* \"#utility.yul\":10585:10598   */\n      add\n        /* \"#utility.yul\":10578:10598   */\n      swap1\n      pop\n        /* \"#utility.yul\":10437:10604   */\n      swap2\n      swap1\n      pop\n      jump\t// out\n\n    auxdata: 0xa264697066735822122093be5f1b93c59c58c30d08112143e7d3322c63bdfac9c1d9e985de19aa024ae564736f6c634300080c0033\n}\n",
				"bytecode": {
					"linkReferences": {},
					"object": "6114b1610053600b82828239805160001a607314610046577f4e487b7100000000000000000000000000000000000000000000000000000000600052600060045260246000fd5b30600052607381538281f3fe73000000000000000000000000000000000000000030146080604052600436106100ff5760003560e01c80639054bdec116100a1578063b199993711610070578063b199993714610314578063b238ad0e14610344578063d773485514610374578063fa93f883146103a4576100ff565b80639054bdec1461025457806392d6631314610284578063a324ad24146102b4578063a6f0e577146102e4576100ff565b806365c72840116100dd57806365c72840146101945780637f791833146101c45780638aa001fc146101f45780638c8d98a014610224576100ff565b80633e239e1a146101045780634ac1ad781461013457806362ba968714610164575b600080fd5b61011e60048036038101906101199190610df7565b6103d4565b60405161012b9190610e40565b60405180910390f35b61014e60048036038101906101499190610df7565b610401565b60405161015b9190610e40565b60405180910390f35b61017e60048036038101906101799190610ec1565b610431565b60405161018b9190610f4b565b60405180910390f35b6101ae60048036038101906101a99190610df7565b61044d565b6040516101bb9190610e40565b60405180910390f35b6101de60048036038101906101d99190610f66565b610463565b6040516101eb9190610f4b565b60405180910390f35b61020e60048036038101906102099190610df7565b61047e565b60405161021b9190610e40565b60405180910390f35b61023e60048036038101906102399190610fcd565b610494565b60405161024b9190610f4b565b60405180910390f35b61026e60048036038101906102699190611020565b6104af565b60405161027b9190610f4b565b60405180910390f35b61029e60048036038101906102999190610df7565b61081a565b6040516102ab91906110bc565b60405180910390f35b6102ce60048036038101906102c99190610df7565b610931565b6040516102db9190610e40565b60405180910390f35b6102fe60048036038101906102f991906110d7565b610947565b60405161030b919061111f565b60405180910390f35b61032e60048036038101906103299190610df7565b6109b6565b60405161033b9190610f4b565b60405180910390f35b61035e6004803603810190610359919061113a565b610a0a565b60405161036b9190610e40565b60405180910390f35b61038e6004803603810190610389919061117a565b610ad6565b60405161039b9190610f4b565b60405180910390f35b6103be60048036038101906103b99190610df7565b610b14565b6040516103cb9190610e40565b60405180910390f35b60006018603c80846103e69190611218565b6103f09190611218565b6103fa9190611249565b9050919050565b60006007600462015180846104169190611218565b610420919061127a565b61042a9190611249565b9050919050565b6000610442868686868660006104af565b905095945050505050565b600061045882610b35565b604001519050919050565b6000610474858585856000806104af565b9050949350505050565b6000603c8261048d9190611249565b9050919050565b60006104a684848460008060006104af565b90509392505050565b6000806107b290505b8761ffff168161ffff161015610513576104d181610947565b156104ed576301e28500826104e6919061127a565b9150610500565b6301e13380826104fd919061127a565b91505b808061050b906112d0565b9150506104b8565b61051b610d46565b601f816000600c8110610531576105306112fb565b5b602002019060ff16908160ff168152505061054b89610947565b1561057c57601d816001600c8110610566576105656112fb565b5b602002019060ff16908160ff16815250506105a4565b601c816001600c8110610592576105916112fb565b5b602002019060ff16908160ff16815250505b601f816002600c81106105ba576105b96112fb565b5b602002019060ff16908160ff1681525050601e816003600c81106105e1576105e06112fb565b5b602002019060ff16908160ff1681525050601f816004600c8110610608576106076112fb565b5b602002019060ff16908160ff1681525050601e816005600c811061062f5761062e6112fb565b5b602002019060ff16908160ff1681525050601f816006600c8110610656576106556112fb565b5b602002019060ff16908160ff1681525050601f816007600c811061067d5761067c6112fb565b5b602002019060ff16908160ff1681525050601e816008600c81106106a4576106a36112fb565b5b602002019060ff16908160ff1681525050601f816009600c81106106cb576106ca6112fb565b5b602002019060ff16908160ff1681525050601e81600a600c81106106f2576106f16112fb565b5b602002019060ff16908160ff1681525050601f81600b600c8110610719576107186112fb565b5b602002019060ff16908160ff1681525050600191505b8760ff168261ffff161015610797578060018361074c919061132a565b61ffff16600c8110610761576107606112fb565b5b602002015160ff1662015180610777919061135e565b83610782919061127a565b9250818061078f906112d0565b92505061072f565b6001876107a491906113b8565b60ff16620151806107b5919061135e565b836107c0919061127a565b92508560ff16610e106107d3919061135e565b836107de919061127a565b92508460ff16603c6107f0919061135e565b836107fb919061127a565b92508360ff168361080c919061127a565b925050509695505050505050565b600080600090506000806301e13380856108349190611218565b6107b261ffff16610845919061127a565b91506108566107b261ffff166109b6565b6108638361ffff166109b6565b61086d91906113ec565b9050806301e2850061087f919061135e565b8361088a919061127a565b9250806107b28361089b919061132a565b61ffff166108a991906113ec565b6301e133806108b8919061135e565b836108c3919061127a565b92505b84831115610926576108e36001836108de919061132a565b610947565b156108ff576301e28500836108f891906113ec565b9250610912565b6301e133808361090f91906113ec565b92505b60018261091f919061132a565b91506108c6565b819350505050919050565b600061093c82610b35565b602001519050919050565b6000806004836109579190611420565b61ffff161461096957600090506109b1565b60006064836109789190611420565b61ffff161461098a57600190506109b1565b60006101908361099a9190611420565b61ffff16146109ac57600090506109b1565b600190505b919050565b60006001826109c591906113ec565b9150610190826109d59190611218565b6064836109e29190611218565b6004846109ef9190611218565b6109f991906113ec565b610a03919061127a565b9050919050565b600060018360ff161480610a21575060038360ff16145b80610a2f575060058360ff16145b80610a3d575060078360ff16145b80610a4b575060088360ff16145b80610a595750600a8360ff16145b80610a675750600c8360ff16145b15610a7557601f9050610ad0565b60048360ff161480610a8a575060068360ff16145b80610a98575060098360ff16145b80610aa65750600b8360ff16145b15610ab457601e9050610ad0565b610abd82610947565b15610acb57601d9050610ad0565b601c90505b92915050565b6000806018603c808686610aea91906113ec565b610af49190611218565b610afe9190611218565b610b089190611218565b90508091505092915050565b6000603c8083610b249190611218565b610b2e9190611249565b9050919050565b610b3d610d69565b60008080610b4a8561081a565b846000019061ffff16908161ffff1681525050610b6c6107b261ffff166109b6565b610b7d856000015161ffff166109b6565b610b8791906113ec565b9150816301e28500610b99919061135e565b83610ba4919061127a565b9250816107b28560000151610bb9919061132a565b61ffff16610bc791906113ec565b6301e13380610bd6919061135e565b83610be1919061127a565b92506000600191505b600c8260ff1611610c6157610c03828660000151610a0a565b60ff1662015180610c14919061135e565b9050858482610c23919061127a565b1115610c405781856020019060ff16908160ff1681525050610c61565b8084610c4c919061127a565b93508180610c5990611451565b925050610bea565b600191505b610c7885602001518660000151610a0a565b60ff168260ff1611610cd557858462015180610c94919061127a565b1115610cb15781856040019060ff16908160ff1681525050610cd5565b6201518084610cc0919061127a565b93508180610ccd90611451565b925050610c66565b610cde866103d4565b856060019060ff16908160ff1681525050610cf886610b14565b856080019060ff16908160ff1681525050610d128661047e565b8560a0019060ff16908160ff1681525050610d2c86610401565b8560c0019060ff16908160ff168152505050505050919050565b604051806101800160405280600c90602082028036833780820191505090505090565b6040518060e00160405280600061ffff168152602001600060ff168152602001600060ff168152602001600060ff168152602001600060ff168152602001600060ff168152602001600060ff1681525090565b600080fd5b6000819050919050565b610dd481610dc1565b8114610ddf57600080fd5b50565b600081359050610df181610dcb565b92915050565b600060208284031215610e0d57610e0c610dbc565b5b6000610e1b84828501610de2565b91505092915050565b600060ff82169050919050565b610e3a81610e24565b82525050565b6000602082019050610e556000830184610e31565b92915050565b600061ffff82169050919050565b610e7281610e5b565b8114610e7d57600080fd5b50565b600081359050610e8f81610e69565b92915050565b610e9e81610e24565b8114610ea957600080fd5b50565b600081359050610ebb81610e95565b92915050565b600080600080600060a08688031215610edd57610edc610dbc565b5b6000610eeb88828901610e80565b9550506020610efc88828901610eac565b9450506040610f0d88828901610eac565b9350506060610f1e88828901610eac565b9250506080610f2f88828901610eac565b9150509295509295909350565b610f4581610dc1565b82525050565b6000602082019050610f606000830184610f3c565b92915050565b60008060008060808587031215610f8057610f7f610dbc565b5b6000610f8e87828801610e80565b9450506020610f9f87828801610eac565b9350506040610fb087828801610eac565b9250506060610fc187828801610eac565b91505092959194509250565b600080600060608486031215610fe657610fe5610dbc565b5b6000610ff486828701610e80565b935050602061100586828701610eac565b925050604061101686828701610eac565b9150509250925092565b60008060008060008060c0878903121561103d5761103c610dbc565b5b600061104b89828a01610e80565b965050602061105c89828a01610eac565b955050604061106d89828a01610eac565b945050606061107e89828a01610eac565b935050608061108f89828a01610eac565b92505060a06110a089828a01610eac565b9150509295509295509295565b6110b681610e5b565b82525050565b60006020820190506110d160008301846110ad565b92915050565b6000602082840312156110ed576110ec610dbc565b5b60006110fb84828501610e80565b91505092915050565b60008115159050919050565b61111981611104565b82525050565b60006020820190506111346000830184611110565b92915050565b6000806040838503121561115157611150610dbc565b5b600061115f85828601610eac565b925050602061117085828601610e80565b9150509250929050565b6000806040838503121561119157611190610dbc565b5b600061119f85828601610de2565b92505060206111b085828601610de2565b9150509250929050565b7f4e487b7100000000000000000000000000000000000000000000000000000000600052601260045260246000fd5b7f4e487b7100000000000000000000000000000000000000000000000000000000600052601160045260246000fd5b600061122382610dc1565b915061122e83610dc1565b92508261123e5761123d6111ba565b5b828204905092915050565b600061125482610dc1565b915061125f83610dc1565b92508261126f5761126e6111ba565b5b828206905092915050565b600061128582610dc1565b915061129083610dc1565b9250827fffffffffffffffffffffffffffffffffffffffffffffffffffffffffffffffff038211156112c5576112c46111e9565b5b828201905092915050565b60006112db82610e5b565b915061ffff8214156112f0576112ef6111e9565b5b600182019050919050565b7f4e487b7100000000000000000000000000000000000000000000000000000000600052603260045260246000fd5b600061133582610e5b565b915061134083610e5b565b925082821015611353576113526111e9565b5b828203905092915050565b600061136982610dc1565b915061137483610dc1565b9250817fffffffffffffffffffffffffffffffffffffffffffffffffffffffffffffffff04831182151516156113ad576113ac6111e9565b5b828202905092915050565b60006113c382610e24565b91506113ce83610e24565b9250828210156113e1576113e06111e9565b5b828203905092915050565b60006113f782610dc1565b915061140283610dc1565b925082821015611415576114146111e9565b5b828203905092915050565b600061142b82610e5b565b915061143683610e5b565b925082611446576114456111ba565b5b828206905092915050565b600061145c82610e24565b915060ff8214156114705761146f6111e9565b5b60018201905091905056fea264697066735822122093be5f1b93c59c58c30d08112143e7d3322c63bdfac9c1d9e985de19aa024ae564736f6c634300080c0033",
					"opcodes": "PUSH2 0x14B1 PUSH2 0x53 PUSH1 0xB DUP3 DUP3 DUP3 CODECOPY DUP1 MLOAD PUSH1 0x0 BYTE PUSH1 0x73 EQ PUSH2 0x46 JUMPI PUSH32 0x4E487B7100000000000000000000000000000000000000000000000000000000 PUSH1 0x0 MSTORE PUSH1 0x0 PUSH1 0x4 MSTORE PUSH1 0x24 PUSH1 0x0 REVERT JUMPDEST ADDRESS PUSH1 0x0 MSTORE PUSH1 0x73 DUP2 MSTORE8 DUP3 DUP2 RETURN INVALID PUSH20 0x0 ADDRESS EQ PUSH1 0x80 PUSH1 0x40 MSTORE PUSH1 0x4 CALLDATASIZE LT PUSH2 0xFF JUMPI PUSH1 0x0 CALLDATALOAD PUSH1 0xE0 SHR DUP1 PUSH4 0x9054BDEC GT PUSH2 0xA1 JUMPI DUP1 PUSH4 0xB1999937 GT PUSH2 0x70 JUMPI DUP1 PUSH4 0xB1999937 EQ PUSH2 0x314 JUMPI DUP1 PUSH4 0xB238AD0E EQ PUSH2 0x344 JUMPI DUP1 PUSH4 0xD7734855 EQ PUSH2 0x374 JUMPI DUP1 PUSH4 0xFA93F883 EQ PUSH2 0x3A4 JUMPI PUSH2 0xFF JUMP JUMPDEST DUP1 PUSH4 0x9054BDEC EQ PUSH2 0x254 JUMPI DUP1 PUSH4 0x92D66313 EQ PUSH2 0x284 JUMPI DUP1 PUSH4 0xA324AD24 EQ PUSH2 0x2B4 JUMPI DUP1 PUSH4 0xA6F0E577 EQ PUSH2 0x2E4 JUMPI PUSH2 0xFF JUMP JUMPDEST DUP1 PUSH4 0x65C72840 GT PUSH2 0xDD JUMPI DUP1 PUSH4 0x65C72840 EQ PUSH2 0x194 JUMPI DUP1 PUSH4 0x7F791833 EQ PUSH2 0x1C4 JUMPI DUP1 PUSH4 0x8AA001FC EQ PUSH2 0x1F4 JUMPI DUP1 PUSH4 0x8C8D98A0 EQ PUSH2 0x224 JUMPI PUSH2 0xFF JUMP JUMPDEST DUP1 PUSH4 0x3E239E1A EQ PUSH2 0x104 JUMPI DUP1 PUSH4 0x4AC1AD78 EQ PUSH2 0x134 JUMPI DUP1 PUSH4 0x62BA9687 EQ PUSH2 0x164 JUMPI JUMPDEST PUSH1 0x0 DUP1 REVERT JUMPDEST PUSH2 0x11E PUSH1 0x4 DUP1 CALLDATASIZE SUB DUP2 ADD SWAP1 PUSH2 0x119 SWAP2 SWAP1 PUSH2 0xDF7 JUMP JUMPDEST PUSH2 0x3D4 JUMP JUMPDEST PUSH1 0x40 MLOAD PUSH2 0x12B SWAP2 SWAP1 PUSH2 0xE40 JUMP JUMPDEST PUSH1 0x40 MLOAD DUP1 SWAP2 SUB SWAP1 RETURN JUMPDEST PUSH2 0x14E PUSH1 0x4 DUP1 CALLDATASIZE SUB DUP2 ADD SWAP1 PUSH2 0x149 SWAP2 SWAP1 PUSH2 0xDF7 JUMP JUMPDEST PUSH2 0x401 JUMP JUMPDEST PUSH1 0x40 MLOAD PUSH2 0x15B SWAP2 SWAP1 PUSH2 0xE40 JUMP JUMPDEST PUSH1 0x40 MLOAD DUP1 SWAP2 SUB SWAP1 RETURN JUMPDEST PUSH2 0x17E PUSH1 0x4 DUP1 CALLDATASIZE SUB DUP2 ADD SWAP1 PUSH2 0x179 SWAP2 SWAP1 PUSH2 0xEC1 JUMP JUMPDEST PUSH2 0x431 JUMP JUMPDEST PUSH1 0x40 MLOAD PUSH2 0x18B SWAP2 SWAP1 PUSH2 0xF4B JUMP JUMPDEST PUSH1 0x40 MLOAD DUP1 SWAP2 SUB SWAP1 RETURN JUMPDEST PUSH2 0x1AE PUSH1 0x4 DUP1 CALLDATASIZE SUB DUP2 ADD SWAP1 PUSH2 0x1A9 SWAP2 SWAP1 PUSH2 0xDF7 JUMP JUMPDEST PUSH2 0x44D JUMP JUMPDEST PUSH1 0x40 MLOAD PUSH2 0x1BB SWAP2 SWAP1 PUSH2 0xE40 JUMP JUMPDEST PUSH1 0x40 MLOAD DUP1 SWAP2 SUB SWAP1 RETURN JUMPDEST PUSH2 0x1DE PUSH1 0x4 DUP1 CALLDATASIZE SUB DUP2 ADD SWAP1 PUSH2 0x1D9 SWAP2 SWAP1 PUSH2 0xF66 JUMP JUMPDEST PUSH2 0x463 JUMP JUMPDEST PUSH1 0x40 MLOAD PUSH2 0x1EB SWAP2 SWAP1 PUSH2 0xF4B JUMP JUMPDEST PUSH1 0x40 MLOAD DUP1 SWAP2 SUB SWAP1 RETURN JUMPDEST PUSH2 0x20E PUSH1 0x4 DUP1 CALLDATASIZE SUB DUP2 ADD SWAP1 PUSH2 0x209 SWAP2 SWAP1 PUSH2 0xDF7 JUMP JUMPDEST PUSH2 0x47E JUMP JUMPDEST PUSH1 0x40 MLOAD PUSH2 0x21B SWAP2 SWAP1 PUSH2 0xE40 JUMP JUMPDEST PUSH1 0x40 MLOAD DUP1 SWAP2 SUB SWAP1 RETURN JUMPDEST PUSH2 0x23E PUSH1 0x4 DUP1 CALLDATASIZE SUB DUP2 ADD SWAP1 PUSH2 0x239 SWAP2 SWAP1 PUSH2 0xFCD JUMP JUMPDEST PUSH2 0x494 JUMP JUMPDEST PUSH1 0x40 MLOAD PUSH2 0x24B SWAP2 SWAP1 PUSH2 0xF4B JUMP JUMPDEST PUSH1 0x40 MLOAD DUP1 SWAP2 SUB SWAP1 RETURN JUMPDEST PUSH2 0x26E PUSH1 0x4 DUP1 CALLDATASIZE SUB DUP2 ADD SWAP1 PUSH2 0x269 SWAP2 SWAP1 PUSH2 0x1020 JUMP JUMPDEST PUSH2 0x4AF JUMP JUMPDEST PUSH1 0x40 MLOAD PUSH2 0x27B SWAP2 SWAP1 PUSH2 0xF4B JUMP JUMPDEST PUSH1 0x40 MLOAD DUP1 SWAP2 SUB SWAP1 RETURN JUMPDEST PUSH2 0x29E PUSH1 0x4 DUP1 CALLDATASIZE SUB DUP2 ADD SWAP1 PUSH2 0x299 SWAP2 SWAP1 PUSH2 0xDF7 JUMP JUMPDEST PUSH2 0x81A JUMP JUMPDEST PUSH1 0x40 MLOAD PUSH2 0x2AB SWAP2 SWAP1 PUSH2 0x10BC JUMP JUMPDEST PUSH1 0x40 MLOAD DUP1 SWAP2 SUB SWAP1 RETURN JUMPDEST PUSH2 0x2CE PUSH1 0x4 DUP1 CALLDATASIZE SUB DUP2 ADD SWAP1 PUSH2 0x2C9 SWAP2 SWAP1 PUSH2 0xDF7 JUMP JUMPDEST PUSH2 0x931 JUMP JUMPDEST PUSH1 0x40 MLOAD PUSH2 0x2DB SWAP2 SWAP1 PUSH2 0xE40 JUMP JUMPDEST PUSH1 0x40 MLOAD DUP1 SWAP2 SUB SWAP1 RETURN JUMPDEST PUSH2 0x2FE PUSH1 0x4 DUP1 CALLDATASIZE SUB DUP2 ADD SWAP1 PUSH2 0x2F9 SWAP2 SWAP1 PUSH2 0x10D7 JUMP JUMPDEST PUSH2 0x947 JUMP JUMPDEST PUSH1 0x40 MLOAD PUSH2 0x30B SWAP2 SWAP1 PUSH2 0x111F JUMP JUMPDEST PUSH1 0x40 MLOAD DUP1 SWAP2 SUB SWAP1 RETURN JUMPDEST PUSH2 0x32E PUSH1 0x4 DUP1 CALLDATASIZE SUB DUP2 ADD SWAP1 PUSH2 0x329 SWAP2 SWAP1 PUSH2 0xDF7 JUMP JUMPDEST PUSH2 0x9B6 JUMP JUMPDEST PUSH1 0x40 MLOAD PUSH2 0x33B SWAP2 SWAP1 PUSH2 0xF4B JUMP JUMPDEST PUSH1 0x40 MLOAD DUP1 SWAP2 SUB SWAP1 RETURN JUMPDEST PUSH2 0x35E PUSH1 0x4 DUP1 CALLDATASIZE SUB DUP2 ADD SWAP1 PUSH2 0x359 SWAP2 SWAP1 PUSH2 0x113A JUMP JUMPDEST PUSH2 0xA0A JUMP JUMPDEST PUSH1 0x40 MLOAD PUSH2 0x36B SWAP2 SWAP1 PUSH2 0xE40 JUMP JUMPDEST PUSH1 0x40 MLOAD DUP1 SWAP2 SUB SWAP1 RETURN JUMPDEST PUSH2 0x38E PUSH1 0x4 DUP1 CALLDATASIZE SUB DUP2 ADD SWAP1 PUSH2 0x389 SWAP2 SWAP1 PUSH2 0x117A JUMP JUMPDEST PUSH2 0xAD6 JUMP JUMPDEST PUSH1 0x40 MLOAD PUSH2 0x39B SWAP2 SWAP1 PUSH2 0xF4B JUMP JUMPDEST PUSH1 0x40 MLOAD DUP1 SWAP2 SUB SWAP1 RETURN JUMPDEST PUSH2 0x3BE PUSH1 0x4 DUP1 CALLDATASIZE SUB DUP2 ADD SWAP1 PUSH2 0x3B9 SWAP2 SWAP1 PUSH2 0xDF7 JUMP JUMPDEST PUSH2 0xB14 JUMP JUMPDEST PUSH1 0x40 MLOAD PUSH2 0x3CB SWAP2 SWAP1 PUSH2 0xE40 JUMP JUMPDEST PUSH1 0x40 MLOAD DUP1 SWAP2 SUB SWAP1 RETURN JUMPDEST PUSH1 0x0 PUSH1 0x18 PUSH1 0x3C DUP1 DUP5 PUSH2 0x3E6 SWAP2 SWAP1 PUSH2 0x1218 JUMP JUMPDEST PUSH2 0x3F0 SWAP2 SWAP1 PUSH2 0x1218 JUMP JUMPDEST PUSH2 0x3FA SWAP2 SWAP1 PUSH2 0x1249 JUMP JUMPDEST SWAP1 POP SWAP2 SWAP1 POP JUMP JUMPDEST PUSH1 0x0 PUSH1 0x7 PUSH1 0x4 PUSH3 0x15180 DUP5 PUSH2 0x416 SWAP2 SWAP1 PUSH2 0x1218 JUMP JUMPDEST PUSH2 0x420 SWAP2 SWAP1 PUSH2 0x127A JUMP JUMPDEST PUSH2 0x42A SWAP2 SWAP1 PUSH2 0x1249 JUMP JUMPDEST SWAP1 POP SWAP2 SWAP1 POP JUMP JUMPDEST PUSH1 0x0 PUSH2 0x442 DUP7 DUP7 DUP7 DUP7 DUP7 PUSH1 0x0 PUSH2 0x4AF JUMP JUMPDEST SWAP1 POP SWAP6 SWAP5 POP POP POP POP POP JUMP JUMPDEST PUSH1 0x0 PUSH2 0x458 DUP3 PUSH2 0xB35 JUMP JUMPDEST PUSH1 0x40 ADD MLOAD SWAP1 POP SWAP2 SWAP1 POP JUMP JUMPDEST PUSH1 0x0 PUSH2 0x474 DUP6 DUP6 DUP6 DUP6 PUSH1 0x0 DUP1 PUSH2 0x4AF JUMP JUMPDEST SWAP1 POP SWAP5 SWAP4 POP POP POP POP JUMP JUMPDEST PUSH1 0x0 PUSH1 0x3C DUP3 PUSH2 0x48D SWAP2 SWAP1 PUSH2 0x1249 JUMP JUMPDEST SWAP1 POP SWAP2 SWAP1 POP JUMP JUMPDEST PUSH1 0x0 PUSH2 0x4A6 DUP5 DUP5 DUP5 PUSH1 0x0 DUP1 PUSH1 0x0 PUSH2 0x4AF JUMP JUMPDEST SWAP1 POP SWAP4 SWAP3 POP POP POP JUMP JUMPDEST PUSH1 0x0 DUP1 PUSH2 0x7B2 SWAP1 POP JUMPDEST DUP8 PUSH2 0xFFFF AND DUP2 PUSH2 0xFFFF AND LT ISZERO PUSH2 0x513 JUMPI PUSH2 0x4D1 DUP2 PUSH2 0x947 JUMP JUMPDEST ISZERO PUSH2 0x4ED JUMPI PUSH4 0x1E28500 DUP3 PUSH2 0x4E6 SWAP2 SWAP1 PUSH2 0x127A JUMP JUMPDEST SWAP2 POP PUSH2 0x500 JUMP JUMPDEST PUSH4 0x1E13380 DUP3 PUSH2 0x4FD SWAP2 SWAP1 PUSH2 0x127A JUMP JUMPDEST SWAP2 POP JUMPDEST DUP1 DUP1 PUSH2 0x50B SWAP1 PUSH2 0x12D0 JUMP JUMPDEST SWAP2 POP POP PUSH2 0x4B8 JUMP JUMPDEST PUSH2 0x51B PUSH2 0xD46 JUMP JUMPDEST PUSH1 0x1F DUP2 PUSH1 0x0 PUSH1 0xC DUP2 LT PUSH2 0x531 JUMPI PUSH2 0x530 PUSH2 0x12FB JUMP JUMPDEST JUMPDEST PUSH1 0x20 MUL ADD SWAP1 PUSH1 0xFF AND SWAP1 DUP2 PUSH1 0xFF AND DUP2 MSTORE POP POP PUSH2 0x54B DUP10 PUSH2 0x947 JUMP JUMPDEST ISZERO PUSH2 0x57C JUMPI PUSH1 0x1D DUP2 PUSH1 0x1 PUSH1 0xC DUP2 LT PUSH2 0x566 JUMPI PUSH2 0x565 PUSH2 0x12FB JUMP JUMPDEST JUMPDEST PUSH1 0x20 MUL ADD SWAP1 PUSH1 0xFF AND SWAP1 DUP2 PUSH1 0xFF AND DUP2 MSTORE POP POP PUSH2 0x5A4 JUMP JUMPDEST PUSH1 0x1C DUP2 PUSH1 0x1 PUSH1 0xC DUP2 LT PUSH2 0x592 JUMPI PUSH2 0x591 PUSH2 0x12FB JUMP JUMPDEST JUMPDEST PUSH1 0x20 MUL ADD SWAP1 PUSH1 0xFF AND SWAP1 DUP2 PUSH1 0xFF AND DUP2 MSTORE POP POP JUMPDEST PUSH1 0x1F DUP2 PUSH1 0x2 PUSH1 0xC DUP2 LT PUSH2 0x5BA JUMPI PUSH2 0x5B9 PUSH2 0x12FB JUMP JUMPDEST JUMPDEST PUSH1 0x20 MUL ADD SWAP1 PUSH1 0xFF AND SWAP1 DUP2 PUSH1 0xFF AND DUP2 MSTORE POP POP PUSH1 0x1E DUP2 PUSH1 0x3 PUSH1 0xC DUP2 LT PUSH2 0x5E1 JUMPI PUSH2 0x5E0 PUSH2 0x12FB JUMP JUMPDEST JUMPDEST PUSH1 0x20 MUL ADD SWAP1 PUSH1 0xFF AND SWAP1 DUP2 PUSH1 0xFF AND DUP2 MSTORE POP POP PUSH1 0x1F DUP2 PUSH1 0x4 PUSH1 0xC DUP2 LT PUSH2 0x608 JUMPI PUSH2 0x607 PUSH2 0x12FB JUMP JUMPDEST JUMPDEST PUSH1 0x20 MUL ADD SWAP1 PUSH1 0xFF AND SWAP1 DUP2 PUSH1 0xFF AND DUP2 MSTORE POP POP PUSH1 0x1E DUP2 PUSH1 0x5 PUSH1 0xC DUP2 LT PUSH2 0x62F JUMPI PUSH2 0x62E PUSH2 0x12FB JUMP JUMPDEST JUMPDEST PUSH1 0x20 MUL ADD SWAP1 PUSH1 0xFF AND SWAP1 DUP2 PUSH1 0xFF AND DUP2 MSTORE POP POP PUSH1 0x1F DUP2 PUSH1 0x6 PUSH1 0xC DUP2 LT PUSH2 0x656 JUMPI PUSH2 0x655 PUSH2 0x12FB JUMP JUMPDEST JUMPDEST PUSH1 0x20 MUL ADD SWAP1 PUSH1 0xFF AND SWAP1 DUP2 PUSH1 0xFF AND DUP2 MSTORE POP POP PUSH1 0x1F DUP2 PUSH1 0x7 PUSH1 0xC DUP2 LT PUSH2 0x67D JUMPI PUSH2 0x67C PUSH2 0x12FB JUMP JUMPDEST JUMPDEST PUSH1 0x20 MUL ADD SWAP1 PUSH1 0xFF AND SWAP1 DUP2 PUSH1 0xFF AND DUP2 MSTORE POP POP PUSH1 0x1E DUP2 PUSH1 0x8 PUSH1 0xC DUP2 LT PUSH2 0x6A4 JUMPI PUSH2 0x6A3 PUSH2 0x12FB JUMP JUMPDEST JUMPDEST PUSH1 0x20 MUL ADD SWAP1 PUSH1 0xFF AND SWAP1 DUP2 PUSH1 0xFF AND DUP2 MSTORE POP POP PUSH1 0x1F DUP2 PUSH1 0x9 PUSH1 0xC DUP2 LT PUSH2 0x6CB JUMPI PUSH2 0x6CA PUSH2 0x12FB JUMP JUMPDEST JUMPDEST PUSH1 0x20 MUL ADD SWAP1 PUSH1 0xFF AND SWAP1 DUP2 PUSH1 0xFF AND DUP2 MSTORE POP POP PUSH1 0x1E DUP2 PUSH1 0xA PUSH1 0xC DUP2 LT PUSH2 0x6F2 JUMPI PUSH2 0x6F1 PUSH2 0x12FB JUMP JUMPDEST JUMPDEST PUSH1 0x20 MUL ADD SWAP1 PUSH1 0xFF AND SWAP1 DUP2 PUSH1 0xFF AND DUP2 MSTORE POP POP PUSH1 0x1F DUP2 PUSH1 0xB PUSH1 0xC DUP2 LT PUSH2 0x719 JUMPI PUSH2 0x718 PUSH2 0x12FB JUMP JUMPDEST JUMPDEST PUSH1 0x20 MUL ADD SWAP1 PUSH1 0xFF AND SWAP1 DUP2 PUSH1 0xFF AND DUP2 MSTORE POP POP PUSH1 0x1 SWAP2 POP JUMPDEST DUP8 PUSH1 0xFF AND DUP3 PUSH2 0xFFFF AND LT ISZERO PUSH2 0x797 JUMPI DUP1 PUSH1 0x1 DUP4 PUSH2 0x74C SWAP2 SWAP1 PUSH2 0x132A JUMP JUMPDEST PUSH2 0xFFFF AND PUSH1 0xC DUP2 LT PUSH2 0x761 JUMPI PUSH2 0x760 PUSH2 0x12FB JUMP JUMPDEST JUMPDEST PUSH1 0x20 MUL ADD MLOAD PUSH1 0xFF AND PUSH3 0x15180 PUSH2 0x777 SWAP2 SWAP1 PUSH2 0x135E JUMP JUMPDEST DUP4 PUSH2 0x782 SWAP2 SWAP1 PUSH2 0x127A JUMP JUMPDEST SWAP3 POP DUP2 DUP1 PUSH2 0x78F SWAP1 PUSH2 0x12D0 JUMP JUMPDEST SWAP3 POP POP PUSH2 0x72F JUMP JUMPDEST PUSH1 0x1 DUP8 PUSH2 0x7A4 SWAP2 SWAP1 PUSH2 0x13B8 JUMP JUMPDEST PUSH1 0xFF AND PUSH3 0x15180 PUSH2 0x7B5 SWAP2 SWAP1 PUSH2 0x135E JUMP JUMPDEST DUP4 PUSH2 0x7C0 SWAP2 SWAP1 PUSH2 0x127A JUMP JUMPDEST SWAP3 POP DUP6 PUSH1 0xFF AND PUSH2 0xE10 PUSH2 0x7D3 SWAP2 SWAP1 PUSH2 0x135E JUMP JUMPDEST DUP4 PUSH2 0x7DE SWAP2 SWAP1 PUSH2 0x127A JUMP JUMPDEST SWAP3 POP DUP5 PUSH1 0xFF AND PUSH1 0x3C PUSH2 0x7F0 SWAP2 SWAP1 PUSH2 0x135E JUMP JUMPDEST DUP4 PUSH2 0x7FB SWAP2 SWAP1 PUSH2 0x127A JUMP JUMPDEST SWAP3 POP DUP4 PUSH1 0xFF AND DUP4 PUSH2 0x80C SWAP2 SWAP1 PUSH2 0x127A JUMP JUMPDEST SWAP3 POP POP POP SWAP7 SWAP6 POP POP POP POP POP POP JUMP JUMPDEST PUSH1 0x0 DUP1 PUSH1 0x0 SWAP1 POP PUSH1 0x0 DUP1 PUSH4 0x1E13380 DUP6 PUSH2 0x834 SWAP2 SWAP1 PUSH2 0x1218 JUMP JUMPDEST PUSH2 0x7B2 PUSH2 0xFFFF AND PUSH2 0x845 SWAP2 SWAP1 PUSH2 0x127A JUMP JUMPDEST SWAP2 POP PUSH2 0x856 PUSH2 0x7B2 PUSH2 0xFFFF AND PUSH2 0x9B6 JUMP JUMPDEST PUSH2 0x863 DUP4 PUSH2 0xFFFF AND PUSH2 0x9B6 JUMP JUMPDEST PUSH2 0x86D SWAP2 SWAP1 PUSH2 0x13EC JUMP JUMPDEST SWAP1 POP DUP1 PUSH4 0x1E28500 PUSH2 0x87F SWAP2 SWAP1 PUSH2 0x135E JUMP JUMPDEST DUP4 PUSH2 0x88A SWAP2 SWAP1 PUSH2 0x127A JUMP JUMPDEST SWAP3 POP DUP1 PUSH2 0x7B2 DUP4 PUSH2 0x89B SWAP2 SWAP1 PUSH2 0x132A JUMP JUMPDEST PUSH2 0xFFFF AND PUSH2 0x8A9 SWAP2 SWAP1 PUSH2 0x13EC JUMP JUMPDEST PUSH4 0x1E13380 PUSH2 0x8B8 SWAP2 SWAP1 PUSH2 0x135E JUMP JUMPDEST DUP4 PUSH2 0x8C3 SWAP2 SWAP1 PUSH2 0x127A JUMP JUMPDEST SWAP3 POP JUMPDEST DUP5 DUP4 GT ISZERO PUSH2 0x926 JUMPI PUSH2 0x8E3 PUSH1 0x1 DUP4 PUSH2 0x8DE SWAP2 SWAP1 PUSH2 0x132A JUMP JUMPDEST PUSH2 0x947 JUMP JUMPDEST ISZERO PUSH2 0x8FF JUMPI PUSH4 0x1E28500 DUP4 PUSH2 0x8F8 SWAP2 SWAP1 PUSH2 0x13EC JUMP JUMPDEST SWAP3 POP PUSH2 0x912 JUMP JUMPDEST PUSH4 0x1E13380 DUP4 PUSH2 0x90F SWAP2 SWAP1 PUSH2 0x13EC JUMP JUMPDEST SWAP3 POP JUMPDEST PUSH1 0x1 DUP3 PUSH2 0x91F SWAP2 SWAP1 PUSH2 0x132A JUMP JUMPDEST SWAP2 POP PUSH2 0x8C6 JUMP JUMPDEST DUP2 SWAP4 POP POP POP POP SWAP2 SWAP1 POP JUMP JUMPDEST PUSH1 0x0 PUSH2 0x93C DUP3 PUSH2 0xB35 JUMP JUMPDEST PUSH1 0x20 ADD MLOAD SWAP1 POP SWAP2 SWAP1 POP JUMP JUMPDEST PUSH1 0x0 DUP1 PUSH1 0x4 DUP4 PUSH2 0x957 SWAP2 SWAP1 PUSH2 0x1420 JUMP JUMPDEST PUSH2 0xFFFF AND EQ PUSH2 0x969 JUMPI PUSH1 0x0 SWAP1 POP PUSH2 0x9B1 JUMP JUMPDEST PUSH1 0x0 PUSH1 0x64 DUP4 PUSH2 0x978 SWAP2 SWAP1 PUSH2 0x1420 JUMP JUMPDEST PUSH2 0xFFFF AND EQ PUSH2 0x98A JUMPI PUSH1 0x1 SWAP1 POP PUSH2 0x9B1 JUMP JUMPDEST PUSH1 0x0 PUSH2 0x190 DUP4 PUSH2 0x99A SWAP2 SWAP1 PUSH2 0x1420 JUMP JUMPDEST PUSH2 0xFFFF AND EQ PUSH2 0x9AC JUMPI PUSH1 0x0 SWAP1 POP PUSH2 0x9B1 JUMP JUMPDEST PUSH1 0x1 SWAP1 POP JUMPDEST SWAP2 SWAP1 POP JUMP JUMPDEST PUSH1 0x0 PUSH1 0x1 DUP3 PUSH2 0x9C5 SWAP2 SWAP1 PUSH2 0x13EC JUMP JUMPDEST SWAP2 POP PUSH2 0x190 DUP3 PUSH2 0x9D5 SWAP2 SWAP1 PUSH2 0x1218 JUMP JUMPDEST PUSH1 0x64 DUP4 PUSH2 0x9E2 SWAP2 SWAP1 PUSH2 0x1218 JUMP JUMPDEST PUSH1 0x4 DUP5 PUSH2 0x9EF SWAP2 SWAP1 PUSH2 0x1218 JUMP JUMPDEST PUSH2 0x9F9 SWAP2 SWAP1 PUSH2 0x13EC JUMP JUMPDEST PUSH2 0xA03 SWAP2 SWAP1 PUSH2 0x127A JUMP JUMPDEST SWAP1 POP SWAP2 SWAP1 POP JUMP JUMPDEST PUSH1 0x0 PUSH1 0x1 DUP4 PUSH1 0xFF AND EQ DUP1 PUSH2 0xA21 JUMPI POP PUSH1 0x3 DUP4 PUSH1 0xFF AND EQ JUMPDEST DUP1 PUSH2 0xA2F JUMPI POP PUSH1 0x5 DUP4 PUSH1 0xFF AND EQ JUMPDEST DUP1 PUSH2 0xA3D JUMPI POP PUSH1 0x7 DUP4 PUSH1 0xFF AND EQ JUMPDEST DUP1 PUSH2 0xA4B JUMPI POP PUSH1 0x8 DUP4 PUSH1 0xFF AND EQ JUMPDEST DUP1 PUSH2 0xA59 JUMPI POP PUSH1 0xA DUP4 PUSH1 0xFF AND EQ JUMPDEST DUP1 PUSH2 0xA67 JUMPI POP PUSH1 0xC DUP4 PUSH1 0xFF AND EQ JUMPDEST ISZERO PUSH2 0xA75 JUMPI PUSH1 0x1F SWAP1 POP PUSH2 0xAD0 JUMP JUMPDEST PUSH1 0x4 DUP4 PUSH1 0xFF AND EQ DUP1 PUSH2 0xA8A JUMPI POP PUSH1 0x6 DUP4 PUSH1 0xFF AND EQ JUMPDEST DUP1 PUSH2 0xA98 JUMPI POP PUSH1 0x9 DUP4 PUSH1 0xFF AND EQ JUMPDEST DUP1 PUSH2 0xAA6 JUMPI POP PUSH1 0xB DUP4 PUSH1 0xFF AND EQ JUMPDEST ISZERO PUSH2 0xAB4 JUMPI PUSH1 0x1E SWAP1 POP PUSH2 0xAD0 JUMP JUMPDEST PUSH2 0xABD DUP3 PUSH2 0x947 JUMP JUMPDEST ISZERO PUSH2 0xACB JUMPI PUSH1 0x1D SWAP1 POP PUSH2 0xAD0 JUMP JUMPDEST PUSH1 0x1C SWAP1 POP JUMPDEST SWAP3 SWAP2 POP POP JUMP JUMPDEST PUSH1 0x0 DUP1 PUSH1 0x18 PUSH1 0x3C DUP1 DUP7 DUP7 PUSH2 0xAEA SWAP2 SWAP1 PUSH2 0x13EC JUMP JUMPDEST PUSH2 0xAF4 SWAP2 SWAP1 PUSH2 0x1218 JUMP JUMPDEST PUSH2 0xAFE SWAP2 SWAP1 PUSH2 0x1218 JUMP JUMPDEST PUSH2 0xB08 SWAP2 SWAP1 PUSH2 0x1218 JUMP JUMPDEST SWAP1 POP DUP1 SWAP2 POP POP SWAP3 SWAP2 POP POP JUMP JUMPDEST PUSH1 0x0 PUSH1 0x3C DUP1 DUP4 PUSH2 0xB24 SWAP2 SWAP1 PUSH2 0x1218 JUMP JUMPDEST PUSH2 0xB2E SWAP2 SWAP1 PUSH2 0x1249 JUMP JUMPDEST SWAP1 POP SWAP2 SWAP1 POP JUMP JUMPDEST PUSH2 0xB3D PUSH2 0xD69 JUMP JUMPDEST PUSH1 0x0 DUP1 DUP1 PUSH2 0xB4A DUP6 PUSH2 0x81A JUMP JUMPDEST DUP5 PUSH1 0x0 ADD SWAP1 PUSH2 0xFFFF AND SWAP1 DUP2 PUSH2 0xFFFF AND DUP2 MSTORE POP POP PUSH2 0xB6C PUSH2 0x7B2 PUSH2 0xFFFF AND PUSH2 0x9B6 JUMP JUMPDEST PUSH2 0xB7D DUP6 PUSH1 0x0 ADD MLOAD PUSH2 0xFFFF AND PUSH2 0x9B6 JUMP JUMPDEST PUSH2 0xB87 SWAP2 SWAP1 PUSH2 0x13EC JUMP JUMPDEST SWAP2 POP DUP2 PUSH4 0x1E28500 PUSH2 0xB99 SWAP2 SWAP1 PUSH2 0x135E JUMP JUMPDEST DUP4 PUSH2 0xBA4 SWAP2 SWAP1 PUSH2 0x127A JUMP JUMPDEST SWAP3 POP DUP2 PUSH2 0x7B2 DUP6 PUSH1 0x0 ADD MLOAD PUSH2 0xBB9 SWAP2 SWAP1 PUSH2 0x132A JUMP JUMPDEST PUSH2 0xFFFF AND PUSH2 0xBC7 SWAP2 SWAP1 PUSH2 0x13EC JUMP JUMPDEST PUSH4 0x1E13380 PUSH2 0xBD6 SWAP2 SWAP1 PUSH2 0x135E JUMP JUMPDEST DUP4 PUSH2 0xBE1 SWAP2 SWAP1 PUSH2 0x127A JUMP JUMPDEST SWAP3 POP PUSH1 0x0 PUSH1 0x1 SWAP2 POP JUMPDEST PUSH1 0xC DUP3 PUSH1 0xFF AND GT PUSH2 0xC61 JUMPI PUSH2 0xC03 DUP3 DUP7 PUSH1 0x0 ADD MLOAD PUSH2 0xA0A JUMP JUMPDEST PUSH1 0xFF AND PUSH3 0x15180 PUSH2 0xC14 SWAP2 SWAP1 PUSH2 0x135E JUMP JUMPDEST SWAP1 POP DUP6 DUP5 DUP3 PUSH2 0xC23 SWAP2 SWAP1 PUSH2 0x127A JUMP JUMPDEST GT ISZERO PUSH2 0xC40 JUMPI DUP2 DUP6 PUSH1 0x20 ADD SWAP1 PUSH1 0xFF AND SWAP1 DUP2 PUSH1 0xFF AND DUP2 MSTORE POP POP PUSH2 0xC61 JUMP JUMPDEST DUP1 DUP5 PUSH2 0xC4C SWAP2 SWAP1 PUSH2 0x127A JUMP JUMPDEST SWAP4 POP DUP2 DUP1 PUSH2 0xC59 SWAP1 PUSH2 0x1451 JUMP JUMPDEST SWAP3 POP POP PUSH2 0xBEA JUMP JUMPDEST PUSH1 0x1 SWAP2 POP JUMPDEST PUSH2 0xC78 DUP6 PUSH1 0x20 ADD MLOAD DUP7 PUSH1 0x0 ADD MLOAD PUSH2 0xA0A JUMP JUMPDEST PUSH1 0xFF AND DUP3 PUSH1 0xFF AND GT PUSH2 0xCD5 JUMPI DUP6 DUP5 PUSH3 0x15180 PUSH2 0xC94 SWAP2 SWAP1 PUSH2 0x127A JUMP JUMPDEST GT ISZERO PUSH2 0xCB1 JUMPI DUP2 DUP6 PUSH1 0x40 ADD SWAP1 PUSH1 0xFF AND SWAP1 DUP2 PUSH1 0xFF AND DUP2 MSTORE POP POP PUSH2 0xCD5 JUMP JUMPDEST PUSH3 0x15180 DUP5 PUSH2 0xCC0 SWAP2 SWAP1 PUSH2 0x127A JUMP JUMPDEST SWAP4 POP DUP2 DUP1 PUSH2 0xCCD SWAP1 PUSH2 0x1451 JUMP JUMPDEST SWAP3 POP POP PUSH2 0xC66 JUMP JUMPDEST PUSH2 0xCDE DUP7 PUSH2 0x3D4 JUMP JUMPDEST DUP6 PUSH1 0x60 ADD SWAP1 PUSH1 0xFF AND SWAP1 DUP2 PUSH1 0xFF AND DUP2 MSTORE POP POP PUSH2 0xCF8 DUP7 PUSH2 0xB14 JUMP JUMPDEST DUP6 PUSH1 0x80 ADD SWAP1 PUSH1 0xFF AND SWAP1 DUP2 PUSH1 0xFF AND DUP2 MSTORE POP POP PUSH2 0xD12 DUP7 PUSH2 0x47E JUMP JUMPDEST DUP6 PUSH1 0xA0 ADD SWAP1 PUSH1 0xFF AND SWAP1 DUP2 PUSH1 0xFF AND DUP2 MSTORE POP POP PUSH2 0xD2C DUP7 PUSH2 0x401 JUMP JUMPDEST DUP6 PUSH1 0xC0 ADD SWAP1 PUSH1 0xFF AND SWAP1 DUP2 PUSH1 0xFF AND DUP2 MSTORE POP POP POP POP POP POP SWAP2 SWAP1 POP JUMP JUMPDEST PUSH1 0x40 MLOAD DUP1 PUSH2 0x180 ADD PUSH1 0x40 MSTORE DUP1 PUSH1 0xC SWAP1 PUSH1 0x20 DUP3 MUL DUP1 CALLDATASIZE DUP4 CALLDATACOPY DUP1 DUP3 ADD SWAP2 POP POP SWAP1 POP POP SWAP1 JUMP JUMPDEST PUSH1 0x40 MLOAD DUP1 PUSH1 0xE0 ADD PUSH1 0x40 MSTORE DUP1 PUSH1 0x0 PUSH2 0xFFFF AND DUP2 MSTORE PUSH1 0x20 ADD PUSH1 0x0 PUSH1 0xFF AND DUP2 MSTORE PUSH1 0x20 ADD PUSH1 0x0 PUSH1 0xFF AND DUP2 MSTORE PUSH1 0x20 ADD PUSH1 0x0 PUSH1 0xFF AND DUP2 MSTORE PUSH1 0x20 ADD PUSH1 0x0 PUSH1 0xFF AND DUP2 MSTORE PUSH1 0x20 ADD PUSH1 0x0 PUSH1 0xFF AND DUP2 MSTORE PUSH1 0x20 ADD PUSH1 0x0 PUSH1 0xFF AND DUP2 MSTORE POP SWAP1 JUMP JUMPDEST PUSH1 0x0 DUP1 REVERT JUMPDEST PUSH1 0x0 DUP2 SWAP1 POP SWAP2 SWAP1 POP JUMP JUMPDEST PUSH2 0xDD4 DUP2 PUSH2 0xDC1 JUMP JUMPDEST DUP2 EQ PUSH2 0xDDF JUMPI PUSH1 0x0 DUP1 REVERT JUMPDEST POP JUMP JUMPDEST PUSH1 0x0 DUP2 CALLDATALOAD SWAP1 POP PUSH2 0xDF1 DUP2 PUSH2 0xDCB JUMP JUMPDEST SWAP3 SWAP2 POP POP JUMP JUMPDEST PUSH1 0x0 PUSH1 0x20 DUP3 DUP5 SUB SLT ISZERO PUSH2 0xE0D JUMPI PUSH2 0xE0C PUSH2 0xDBC JUMP JUMPDEST JUMPDEST PUSH1 0x0 PUSH2 0xE1B DUP5 DUP3 DUP6 ADD PUSH2 0xDE2 JUMP JUMPDEST SWAP2 POP POP SWAP3 SWAP2 POP POP JUMP JUMPDEST PUSH1 0x0 PUSH1 0xFF DUP3 AND SWAP1 POP SWAP2 SWAP1 POP JUMP JUMPDEST PUSH2 0xE3A DUP2 PUSH2 0xE24 JUMP JUMPDEST DUP3 MSTORE POP POP JUMP JUMPDEST PUSH1 0x0 PUSH1 0x20 DUP3 ADD SWAP1 POP PUSH2 0xE55 PUSH1 0x0 DUP4 ADD DUP5 PUSH2 0xE31 JUMP JUMPDEST SWAP3 SWAP2 POP POP JUMP JUMPDEST PUSH1 0x0 PUSH2 0xFFFF DUP3 AND SWAP1 POP SWAP2 SWAP1 POP JUMP JUMPDEST PUSH2 0xE72 DUP2 PUSH2 0xE5B JUMP JUMPDEST DUP2 EQ PUSH2 0xE7D JUMPI PUSH1 0x0 DUP1 REVERT JUMPDEST POP JUMP JUMPDEST PUSH1 0x0 DUP2 CALLDATALOAD SWAP1 POP PUSH2 0xE8F DUP2 PUSH2 0xE69 JUMP JUMPDEST SWAP3 SWAP2 POP POP JUMP JUMPDEST PUSH2 0xE9E DUP2 PUSH2 0xE24 JUMP JUMPDEST DUP2 EQ PUSH2 0xEA9 JUMPI PUSH1 0x0 DUP1 REVERT JUMPDEST POP JUMP JUMPDEST PUSH1 0x0 DUP2 CALLDATALOAD SWAP1 POP PUSH2 0xEBB DUP2 PUSH2 0xE95 JUMP JUMPDEST SWAP3 SWAP2 POP POP JUMP JUMPDEST PUSH1 0x0 DUP1 PUSH1 0x0 DUP1 PUSH1 0x0 PUSH1 0xA0 DUP7 DUP9 SUB SLT ISZERO PUSH2 0xEDD JUMPI PUSH2 0xEDC PUSH2 0xDBC JUMP JUMPDEST JUMPDEST PUSH1 0x0 PUSH2 0xEEB DUP9 DUP3 DUP10 ADD PUSH2 0xE80 JUMP JUMPDEST SWAP6 POP POP PUSH1 0x20 PUSH2 0xEFC DUP9 DUP3 DUP10 ADD PUSH2 0xEAC JUMP JUMPDEST SWAP5 POP POP PUSH1 0x40 PUSH2 0xF0D DUP9 DUP3 DUP10 ADD PUSH2 0xEAC JUMP JUMPDEST SWAP4 POP POP PUSH1 0x60 PUSH2 0xF1E DUP9 DUP3 DUP10 ADD PUSH2 0xEAC JUMP JUMPDEST SWAP3 POP POP PUSH1 0x80 PUSH2 0xF2F DUP9 DUP3 DUP10 ADD PUSH2 0xEAC JUMP JUMPDEST SWAP2 POP POP SWAP3 SWAP6 POP SWAP3 SWAP6 SWAP1 SWAP4 POP JUMP JUMPDEST PUSH2 0xF45 DUP2 PUSH2 0xDC1 JUMP JUMPDEST DUP3 MSTORE POP POP JUMP JUMPDEST PUSH1 0x0 PUSH1 0x20 DUP3 ADD SWAP1 POP PUSH2 0xF60 PUSH1 0x0 DUP4 ADD DUP5 PUSH2 0xF3C JUMP JUMPDEST SWAP3 SWAP2 POP POP JUMP JUMPDEST PUSH1 0x0 DUP1 PUSH1 0x0 DUP1 PUSH1 0x80 DUP6 DUP8 SUB SLT ISZERO PUSH2 0xF80 JUMPI PUSH2 0xF7F PUSH2 0xDBC JUMP JUMPDEST JUMPDEST PUSH1 0x0 PUSH2 0xF8E DUP8 DUP3 DUP9 ADD PUSH2 0xE80 JUMP JUMPDEST SWAP5 POP POP PUSH1 0x20 PUSH2 0xF9F DUP8 DUP3 DUP9 ADD PUSH2 0xEAC JUMP JUMPDEST SWAP4 POP POP PUSH1 0x40 PUSH2 0xFB0 DUP8 DUP3 DUP9 ADD PUSH2 0xEAC JUMP JUMPDEST SWAP3 POP POP PUSH1 0x60 PUSH2 0xFC1 DUP8 DUP3 DUP9 ADD PUSH2 0xEAC JUMP JUMPDEST SWAP2 POP POP SWAP3 SWAP6 SWAP2 SWAP5 POP SWAP3 POP JUMP JUMPDEST PUSH1 0x0 DUP1 PUSH1 0x0 PUSH1 0x60 DUP5 DUP7 SUB SLT ISZERO PUSH2 0xFE6 JUMPI PUSH2 0xFE5 PUSH2 0xDBC JUMP JUMPDEST JUMPDEST PUSH1 0x0 PUSH2 0xFF4 DUP7 DUP3 DUP8 ADD PUSH2 0xE80 JUMP JUMPDEST SWAP4 POP POP PUSH1 0x20 PUSH2 0x1005 DUP7 DUP3 DUP8 ADD PUSH2 0xEAC JUMP JUMPDEST SWAP3 POP POP PUSH1 0x40 PUSH2 0x1016 DUP7 DUP3 DUP8 ADD PUSH2 0xEAC JUMP JUMPDEST SWAP2 POP POP SWAP3 POP SWAP3 POP SWAP3 JUMP JUMPDEST PUSH1 0x0 DUP1 PUSH1 0x0 DUP1 PUSH1 0x0 DUP1 PUSH1 0xC0 DUP8 DUP10 SUB SLT ISZERO PUSH2 0x103D JUMPI PUSH2 0x103C PUSH2 0xDBC JUMP JUMPDEST JUMPDEST PUSH1 0x0 PUSH2 0x104B DUP10 DUP3 DUP11 ADD PUSH2 0xE80 JUMP JUMPDEST SWAP7 POP POP PUSH1 0x20 PUSH2 0x105C DUP10 DUP3 DUP11 ADD PUSH2 0xEAC JUMP JUMPDEST SWAP6 POP POP PUSH1 0x40 PUSH2 0x106D DUP10 DUP3 DUP11 ADD PUSH2 0xEAC JUMP JUMPDEST SWAP5 POP POP PUSH1 0x60 PUSH2 0x107E DUP10 DUP3 DUP11 ADD PUSH2 0xEAC JUMP JUMPDEST SWAP4 POP POP PUSH1 0x80 PUSH2 0x108F DUP10 DUP3 DUP11 ADD PUSH2 0xEAC JUMP JUMPDEST SWAP3 POP POP PUSH1 0xA0 PUSH2 0x10A0 DUP10 DUP3 DUP11 ADD PUSH2 0xEAC JUMP JUMPDEST SWAP2 POP POP SWAP3 SWAP6 POP SWAP3 SWAP6 POP SWAP3 SWAP6 JUMP JUMPDEST PUSH2 0x10B6 DUP2 PUSH2 0xE5B JUMP JUMPDEST DUP3 MSTORE POP POP JUMP JUMPDEST PUSH1 0x0 PUSH1 0x20 DUP3 ADD SWAP1 POP PUSH2 0x10D1 PUSH1 0x0 DUP4 ADD DUP5 PUSH2 0x10AD JUMP JUMPDEST SWAP3 SWAP2 POP POP JUMP JUMPDEST PUSH1 0x0 PUSH1 0x20 DUP3 DUP5 SUB SLT ISZERO PUSH2 0x10ED JUMPI PUSH2 0x10EC PUSH2 0xDBC JUMP JUMPDEST JUMPDEST PUSH1 0x0 PUSH2 0x10FB DUP5 DUP3 DUP6 ADD PUSH2 0xE80 JUMP JUMPDEST SWAP2 POP POP SWAP3 SWAP2 POP POP JUMP JUMPDEST PUSH1 0x0 DUP2 ISZERO ISZERO SWAP1 POP SWAP2 SWAP1 POP JUMP JUMPDEST PUSH2 0x1119 DUP2 PUSH2 0x1104 JUMP JUMPDEST DUP3 MSTORE POP POP JUMP JUMPDEST PUSH1 0x0 PUSH1 0x20 DUP3 ADD SWAP1 POP PUSH2 0x1134 PUSH1 0x0 DUP4 ADD DUP5 PUSH2 0x1110 JUMP JUMPDEST SWAP3 SWAP2 POP POP JUMP JUMPDEST PUSH1 0x0 DUP1 PUSH1 0x40 DUP4 DUP6 SUB SLT ISZERO PUSH2 0x1151 JUMPI PUSH2 0x1150 PUSH2 0xDBC JUMP JUMPDEST JUMPDEST PUSH1 0x0 PUSH2 0x115F DUP6 DUP3 DUP7 ADD PUSH2 0xEAC JUMP JUMPDEST SWAP3 POP POP PUSH1 0x20 PUSH2 0x1170 DUP6 DUP3 DUP7 ADD PUSH2 0xE80 JUMP JUMPDEST SWAP2 POP POP SWAP3 POP SWAP3 SWAP1 POP JUMP JUMPDEST PUSH1 0x0 DUP1 PUSH1 0x40 DUP4 DUP6 SUB SLT ISZERO PUSH2 0x1191 JUMPI PUSH2 0x1190 PUSH2 0xDBC JUMP JUMPDEST JUMPDEST PUSH1 0x0 PUSH2 0x119F DUP6 DUP3 DUP7 ADD PUSH2 0xDE2 JUMP JUMPDEST SWAP3 POP POP PUSH1 0x20 PUSH2 0x11B0 DUP6 DUP3 DUP7 ADD PUSH2 0xDE2 JUMP JUMPDEST SWAP2 POP POP SWAP3 POP SWAP3 SWAP1 POP JUMP JUMPDEST PUSH32 0x4E487B7100000000000000000000000000000000000000000000000000000000 PUSH1 0x0 MSTORE PUSH1 0x12 PUSH1 0x4 MSTORE PUSH1 0x24 PUSH1 0x0 REVERT JUMPDEST PUSH32 0x4E487B7100000000000000000000000000000000000000000000000000000000 PUSH1 0x0 MSTORE PUSH1 0x11 PUSH1 0x4 MSTORE PUSH1 0x24 PUSH1 0x0 REVERT JUMPDEST PUSH1 0x0 PUSH2 0x1223 DUP3 PUSH2 0xDC1 JUMP JUMPDEST SWAP2 POP PUSH2 0x122E DUP4 PUSH2 0xDC1 JUMP JUMPDEST SWAP3 POP DUP3 PUSH2 0x123E JUMPI PUSH2 0x123D PUSH2 0x11BA JUMP JUMPDEST JUMPDEST DUP3 DUP3 DIV SWAP1 POP SWAP3 SWAP2 POP POP JUMP JUMPDEST PUSH1 0x0 PUSH2 0x1254 DUP3 PUSH2 0xDC1 JUMP JUMPDEST SWAP2 POP PUSH2 0x125F DUP4 PUSH2 0xDC1 JUMP JUMPDEST SWAP3 POP DUP3 PUSH2 0x126F JUMPI PUSH2 0x126E PUSH2 0x11BA JUMP JUMPDEST JUMPDEST DUP3 DUP3 MOD SWAP1 POP SWAP3 SWAP2 POP POP JUMP JUMPDEST PUSH1 0x0 PUSH2 0x1285 DUP3 PUSH2 0xDC1 JUMP JUMPDEST SWAP2 POP PUSH2 0x1290 DUP4 PUSH2 0xDC1 JUMP JUMPDEST SWAP3 POP DUP3 PUSH32 0xFFFFFFFFFFFFFFFFFFFFFFFFFFFFFFFFFFFFFFFFFFFFFFFFFFFFFFFFFFFFFFFF SUB DUP3 GT ISZERO PUSH2 0x12C5 JUMPI PUSH2 0x12C4 PUSH2 0x11E9 JUMP JUMPDEST JUMPDEST DUP3 DUP3 ADD SWAP1 POP SWAP3 SWAP2 POP POP JUMP JUMPDEST PUSH1 0x0 PUSH2 0x12DB DUP3 PUSH2 0xE5B JUMP JUMPDEST SWAP2 POP PUSH2 0xFFFF DUP3 EQ ISZERO PUSH2 0x12F0 JUMPI PUSH2 0x12EF PUSH2 0x11E9 JUMP JUMPDEST JUMPDEST PUSH1 0x1 DUP3 ADD SWAP1 POP SWAP2 SWAP1 POP JUMP JUMPDEST PUSH32 0x4E487B7100000000000000000000000000000000000000000000000000000000 PUSH1 0x0 MSTORE PUSH1 0x32 PUSH1 0x4 MSTORE PUSH1 0x24 PUSH1 0x0 REVERT JUMPDEST PUSH1 0x0 PUSH2 0x1335 DUP3 PUSH2 0xE5B JUMP JUMPDEST SWAP2 POP PUSH2 0x1340 DUP4 PUSH2 0xE5B JUMP JUMPDEST SWAP3 POP DUP3 DUP3 LT ISZERO PUSH2 0x1353 JUMPI PUSH2 0x1352 PUSH2 0x11E9 JUMP JUMPDEST JUMPDEST DUP3 DUP3 SUB SWAP1 POP SWAP3 SWAP2 POP POP JUMP JUMPDEST PUSH1 0x0 PUSH2 0x1369 DUP3 PUSH2 0xDC1 JUMP JUMPDEST SWAP2 POP PUSH2 0x1374 DUP4 PUSH2 0xDC1 JUMP JUMPDEST SWAP3 POP DUP2 PUSH32 0xFFFFFFFFFFFFFFFFFFFFFFFFFFFFFFFFFFFFFFFFFFFFFFFFFFFFFFFFFFFFFFFF DIV DUP4 GT DUP3 ISZERO ISZERO AND ISZERO PUSH2 0x13AD JUMPI PUSH2 0x13AC PUSH2 0x11E9 JUMP JUMPDEST JUMPDEST DUP3 DUP3 MUL SWAP1 POP SWAP3 SWAP2 POP POP JUMP JUMPDEST PUSH1 0x0 PUSH2 0x13C3 DUP3 PUSH2 0xE24 JUMP JUMPDEST SWAP2 POP PUSH2 0x13CE DUP4 PUSH2 0xE24 JUMP JUMPDEST SWAP3 POP DUP3 DUP3 LT ISZERO PUSH2 0x13E1 JUMPI PUSH2 0x13E0 PUSH2 0x11E9 JUMP JUMPDEST JUMPDEST DUP3 DUP3 SUB SWAP1 POP SWAP3 SWAP2 POP POP JUMP JUMPDEST PUSH1 0x0 PUSH2 0x13F7 DUP3 PUSH2 0xDC1 JUMP JUMPDEST SWAP2 POP PUSH2 0x1402 DUP4 PUSH2 0xDC1 JUMP JUMPDEST SWAP3 POP DUP3 DUP3 LT ISZERO PUSH2 0x1415 JUMPI PUSH2 0x1414 PUSH2 0x11E9 JUMP JUMPDEST JUMPDEST DUP3 DUP3 SUB SWAP1 POP SWAP3 SWAP2 POP POP JUMP JUMPDEST PUSH1 0x0 PUSH2 0x142B DUP3 PUSH2 0xE5B JUMP JUMPDEST SWAP2 POP PUSH2 0x1436 DUP4 PUSH2 0xE5B JUMP JUMPDEST SWAP3 POP DUP3 PUSH2 0x1446 JUMPI PUSH2 0x1445 PUSH2 0x11BA JUMP JUMPDEST JUMPDEST DUP3 DUP3 MOD SWAP1 POP SWAP3 SWAP2 POP POP JUMP JUMPDEST PUSH1 0x0 PUSH2 0x145C DUP3 PUSH2 0xE24 JUMP JUMPDEST SWAP2 POP PUSH1 0xFF DUP3 EQ ISZERO PUSH2 0x1470 JUMPI PUSH2 0x146F PUSH2 0x11E9 JUMP JUMPDEST JUMPDEST PUSH1 0x1 DUP3 ADD SWAP1 POP SWAP2 SWAP1 POP JUMP INVALID LOG2 PUSH5 0x6970667358 0x22 SLT KECCAK256 SWAP4 0xBE 0x5F SHL SWAP4 0xC5 SWAP13 PC 0xC3 0xD ADDMOD GT 0x21 NUMBER 0xE7 0xD3 ORIGIN 0x2C PUSH4 0xBDFAC9C1 0xD9 0xE9 DUP6 0xDE NOT 0xAA MUL 0x4A 0xE5 PUSH5 0x736F6C6343 STOP ADDMOD 0xC STOP CALLER "
				},
				"gasEstimates": {
					"creation": {
						"codeDepositCost": "1059400",
						"executionCost": "1125",
						"totalCost": "1060525"
					},
					"external": {
						"getDay(uint256)": "infinite",
						"getDaysInMonth(uint8,uint16)": "infinite",
						"getDiff(uint256,uint256)": "infinite",
						"getHour(uint256)": "infinite",
						"getMinute(uint256)": "infinite",
						"getMonth(uint256)": "infinite",
						"getSecond(uint256)": "infinite",
						"getWeekday(uint256)": "infinite",
						"getYear(uint256)": "infinite",
						"isLeapYear(uint16)": "infinite",
						"leapYearsBefore(uint256)": "infinite",
						"toTimestamp(uint16,uint8,uint8)": "infinite",
						"toTimestamp(uint16,uint8,uint8,uint8)": "infinite",
						"toTimestamp(uint16,uint8,uint8,uint8,uint8)": "infinite",
						"toTimestamp(uint16,uint8,uint8,uint8,uint8,uint8)": "infinite"
					},
					"internal": {
						"parseTimestamp(uint256)": "infinite"
					}
				},
				"methodIdentifiers": {
					"getDay(uint256)": "65c72840",
					"getDaysInMonth(uint8,uint16)": "b238ad0e",
					"getDiff(uint256,uint256)": "d7734855",
					"getHour(uint256)": "3e239e1a",
					"getMinute(uint256)": "fa93f883",
					"getMonth(uint256)": "a324ad24",
					"getSecond(uint256)": "8aa001fc",
					"getWeekday(uint256)": "4ac1ad78",
					"getYear(uint256)": "92d66313",
					"isLeapYear(uint16)": "a6f0e577",
					"leapYearsBefore(uint256)": "b1999937",
					"toTimestamp(uint16,uint8,uint8)": "8c8d98a0",
					"toTimestamp(uint16,uint8,uint8,uint8)": "7f791833",
					"toTimestamp(uint16,uint8,uint8,uint8,uint8)": "62ba9687",
					"toTimestamp(uint16,uint8,uint8,uint8,uint8,uint8)": "9054bdec"
				}
			},
			"storageLayout": {
				"storage": [],
				"types": null
			},
			"userdoc": {
				"kind": "user",
				"methods": {},
				"version": 1
			}
		}
	}
}