{
	"contracts/facets/DealersFacet.sol": {
		"DealersFacet": {
			"abi": [
				{
					"anonymous": false,
					"inputs": [
						{
							"indexed": false,
							"internalType": "address",
							"name": "user",
							"type": "address"
						},
						{
							"indexed": false,
							"internalType": "uint256",
							"name": "amount",
							"type": "uint256"
						},
						{
							"indexed": false,
							"internalType": "uint256",
							"name": "time",
							"type": "uint256"
						}
					],
					"name": "DealerCollectorRewarded",
					"type": "event"
				},
				{
					"anonymous": false,
					"inputs": [
						{
							"indexed": false,
							"internalType": "uint256",
							"name": "_plan_a",
							"type": "uint256"
						},
						{
							"indexed": false,
							"internalType": "uint256",
							"name": "_plan_b",
							"type": "uint256"
						},
						{
							"indexed": false,
							"internalType": "uint256",
							"name": "_plan_c",
							"type": "uint256"
						},
						{
							"indexed": false,
							"internalType": "address",
							"name": "_dealerSubcriptionCollector",
							"type": "address"
						},
						{
							"indexed": false,
							"internalType": "uint256",
							"name": "_time",
							"type": "uint256"
						},
						{
							"indexed": false,
							"internalType": "address",
							"name": "_msgSender",
							"type": "address"
						}
					],
					"name": "DealerPlansEdited",
					"type": "event"
				},
				{
					"anonymous": false,
					"inputs": [
						{
							"indexed": false,
							"internalType": "address",
							"name": "user",
							"type": "address"
						},
						{
							"indexed": false,
							"internalType": "address",
							"name": "referredBy",
							"type": "address"
						},
						{
							"indexed": false,
							"internalType": "uint256",
							"name": "time",
							"type": "uint256"
						}
					],
					"name": "DealerReferral",
					"type": "event"
				},
				{
					"anonymous": false,
					"inputs": [
						{
							"indexed": false,
							"internalType": "address",
							"name": "user",
							"type": "address"
						},
						{
							"indexed": false,
							"internalType": "uint256",
							"name": "amount",
							"type": "uint256"
						},
						{
							"indexed": false,
							"internalType": "uint256",
							"name": "time",
							"type": "uint256"
						}
					],
					"name": "DealerRewarded",
					"type": "event"
				},
				{
					"anonymous": false,
					"inputs": [
						{
							"indexed": false,
							"internalType": "address",
							"name": "user",
							"type": "address"
						},
						{
							"indexed": false,
							"internalType": "uint256",
							"name": "amount",
							"type": "uint256"
						},
						{
							"indexed": false,
							"internalType": "uint256",
							"name": "expiryDate",
							"type": "uint256"
						},
						{
							"indexed": false,
							"internalType": "uint256",
							"name": "plan",
							"type": "uint256"
						},
						{
							"indexed": false,
							"internalType": "uint256",
							"name": "time",
							"type": "uint256"
						}
					],
					"name": "DealerSubscribed",
					"type": "event"
				},
				{
					"inputs": [
						{
							"internalType": "address",
							"name": "_dealer",
							"type": "address"
						},
						{
							"internalType": "uint256",
							"name": "_dealerPlan",
							"type": "uint256"
						}
					],
					"name": "becomeADealer",
					"outputs": [],
					"stateMutability": "nonpayable",
					"type": "function"
				},
				{
					"inputs": [
						{
							"internalType": "address",
							"name": "_dealer",
							"type": "address"
						},
						{
							"internalType": "uint256",
							"name": "_dealerPlan",
							"type": "uint256"
						},
						{
							"internalType": "address",
							"name": "_referral",
							"type": "address"
						}
					],
					"name": "becomeADealerWithReferral",
					"outputs": [],
					"stateMutability": "nonpayable",
					"type": "function"
				},
				{
					"inputs": [],
					"name": "collectorReward",
					"outputs": [],
					"stateMutability": "nonpayable",
					"type": "function"
				},
				{
					"inputs": [
						{
							"internalType": "uint256",
							"name": "_plan_a",
							"type": "uint256"
						},
						{
							"internalType": "uint256",
							"name": "_plan_b",
							"type": "uint256"
						},
						{
							"internalType": "uint256",
							"name": "_plan_c",
							"type": "uint256"
						},
						{
							"internalType": "address",
							"name": "_token_addres",
							"type": "address"
						},
						{
							"internalType": "address",
							"name": "_dealerSubcriptionCollector",
							"type": "address"
						}
					],
					"name": "configureDealersPlan",
					"outputs": [],
					"stateMutability": "nonpayable",
					"type": "function"
				},
				{
					"inputs": [],
					"name": "dealerCollectorStats",
					"outputs": [
						{
							"internalType": "uint256",
							"name": "_amount",
							"type": "uint256"
						},
						{
							"internalType": "uint256",
							"name": "_totalTaken",
							"type": "uint256"
						}
					],
					"stateMutability": "view",
					"type": "function"
				},
				{
					"inputs": [
						{
							"internalType": "address",
							"name": "user",
							"type": "address"
						}
					],
					"name": "dealerReferralStats",
					"outputs": [
						{
							"internalType": "uint256",
							"name": "_count",
							"type": "uint256"
						},
						{
							"internalType": "uint256",
							"name": "_amount",
							"type": "uint256"
						},
						{
							"internalType": "uint256",
							"name": "_totalTaken",
							"type": "uint256"
						}
					],
					"stateMutability": "view",
					"type": "function"
				},
				{
					"inputs": [
						{
							"internalType": "address",
							"name": "_dealer",
							"type": "address"
						}
					],
					"name": "getPlanPercentage",
					"outputs": [
						{
							"internalType": "uint256",
							"name": "",
							"type": "uint256"
						}
					],
					"stateMutability": "view",
					"type": "function"
				},
				{
					"inputs": [],
					"name": "getRewardNextSpill",
					"outputs": [
						{
							"internalType": "address",
							"name": "",
							"type": "address"
						}
					],
					"stateMutability": "nonpayable",
					"type": "function"
				},
				{
					"inputs": [
						{
							"internalType": "address",
							"name": "user",
							"type": "address"
						}
					],
					"name": "takeDealerReferralReward",
					"outputs": [],
					"stateMutability": "nonpayable",
					"type": "function"
				}
			],
			"devdoc": {
				"kind": "dev",
				"methods": {},
				"version": 1
			},
			"evm": {
				"assembly": "    /* \"contracts/facets/DealersFacet.sol\":1050:9878  contract DealersFacet {... */\n  mstore(0x40, 0x80)\n  callvalue\n  dup1\n  iszero\n  tag_1\n  jumpi\n  0x00\n  dup1\n  revert\ntag_1:\n  pop\n  dataSize(sub_0)\n  dup1\n  dataOffset(sub_0)\n  0x00\n  codecopy\n  0x00\n  return\nstop\n\nsub_0: assembly {\n        /* \"contracts/facets/DealersFacet.sol\":1050:9878  contract DealersFacet {... */\n      mstore(0x40, 0x80)\n      callvalue\n      dup1\n      iszero\n      tag_1\n      jumpi\n      0x00\n      dup1\n      revert\n    tag_1:\n      pop\n      jumpi(tag_2, lt(calldatasize, 0x04))\n      shr(0xe0, calldataload(0x00))\n      dup1\n      0x89499f8d\n      gt\n      tag_12\n      jumpi\n      dup1\n      0x89499f8d\n      eq\n      tag_7\n      jumpi\n      dup1\n      0x901afb30\n      eq\n      tag_8\n      jumpi\n      dup1\n      0xa61d6257\n      eq\n      tag_9\n      jumpi\n      dup1\n      0xad830443\n      eq\n      tag_10\n      jumpi\n      dup1\n      0xf9f11391\n      eq\n      tag_11\n      jumpi\n      jump(tag_2)\n    tag_12:\n      dup1\n      0x1355a306\n      eq\n      tag_3\n      jumpi\n      dup1\n      0x235eb9f5\n      eq\n      tag_4\n      jumpi\n      dup1\n      0x468c25a8\n      eq\n      tag_5\n      jumpi\n      dup1\n      0x6b667b9b\n      eq\n      tag_6\n      jumpi\n    tag_2:\n      0x00\n      dup1\n      revert\n        /* \"contracts/facets/DealersFacet.sol\":5846:6451  function getRewardNextSpill() external returns (address) {... */\n    tag_3:\n      tag_13\n      tag_14\n      jump\t// in\n    tag_13:\n      mload(0x40)\n      tag_15\n      swap2\n      swap1\n      tag_16\n      jump\t// in\n    tag_15:\n      mload(0x40)\n      dup1\n      swap2\n      sub\n      swap1\n      return\n        /* \"contracts/facets/DealersFacet.sol\":7127:7663  function collectorReward() external {... */\n    tag_4:\n      tag_17\n      tag_18\n      jump\t// in\n    tag_17:\n      stop\n        /* \"contracts/facets/DealersFacet.sol\":9333:9669  function dealerReferralStats(... */\n    tag_5:\n      tag_19\n      0x04\n      dup1\n      calldatasize\n      sub\n      dup2\n      add\n      swap1\n      tag_20\n      swap2\n      swap1\n      tag_21\n      jump\t// in\n    tag_20:\n      tag_22\n      jump\t// in\n    tag_19:\n      mload(0x40)\n      tag_23\n      swap4\n      swap3\n      swap2\n      swap1\n      tag_24\n      jump\t// in\n    tag_23:\n      mload(0x40)\n      dup1\n      swap2\n      sub\n      swap1\n      return\n        /* \"contracts/facets/DealersFacet.sol\":3083:4160  function becomeADealer(address _dealer, uint256 _dealerPlan) external {... */\n    tag_6:\n      tag_25\n      0x04\n      dup1\n      calldatasize\n      sub\n      dup2\n      add\n      swap1\n      tag_26\n      swap2\n      swap1\n      tag_27\n      jump\t// in\n    tag_26:\n      tag_28\n      jump\t// in\n    tag_25:\n      stop\n        /* \"contracts/facets/DealersFacet.sol\":6457:7121  function takeDealerReferralReward(address user) external {... */\n    tag_7:\n      tag_29\n      0x04\n      dup1\n      calldatasize\n      sub\n      dup2\n      add\n      swap1\n      tag_30\n      swap2\n      swap1\n      tag_21\n      jump\t// in\n    tag_30:\n      tag_31\n      jump\t// in\n    tag_29:\n      stop\n        /* \"contracts/facets/DealersFacet.sol\":5370:5840  function getPlanPercentage(... */\n    tag_8:\n      tag_32\n      0x04\n      dup1\n      calldatasize\n      sub\n      dup2\n      add\n      swap1\n      tag_33\n      swap2\n      swap1\n      tag_21\n      jump\t// in\n    tag_33:\n      tag_34\n      jump\t// in\n    tag_32:\n      mload(0x40)\n      tag_35\n      swap2\n      swap1\n      tag_36\n      jump\t// in\n    tag_35:\n      mload(0x40)\n      dup1\n      swap2\n      sub\n      swap1\n      return\n        /* \"contracts/facets/DealersFacet.sol\":2367:3077  function configureDealersPlan(... */\n    tag_9:\n      tag_37\n      0x04\n      dup1\n      calldatasize\n      sub\n      dup2\n      add\n      swap1\n      tag_38\n      swap2\n      swap1\n      tag_39\n      jump\t// in\n    tag_38:\n      tag_40\n      jump\t// in\n    tag_37:\n      stop\n        /* \"contracts/facets/DealersFacet.sol\":9675:9876  function dealerCollectorStats()... */\n    tag_10:\n      tag_41\n      tag_42\n      jump\t// in\n    tag_41:\n      mload(0x40)\n      tag_43\n      swap3\n      swap2\n      swap1\n      tag_44\n      jump\t// in\n    tag_43:\n      mload(0x40)\n      dup1\n      swap2\n      sub\n      swap1\n      return\n        /* \"contracts/facets/DealersFacet.sol\":4166:5364  function becomeADealerWithReferral(... */\n    tag_11:\n      tag_45\n      0x04\n      dup1\n      calldatasize\n      sub\n      dup2\n      add\n      swap1\n      tag_46\n      swap2\n      swap1\n      tag_47\n      jump\t// in\n    tag_46:\n      tag_48\n      jump\t// in\n    tag_45:\n      stop\n        /* \"contracts/facets/DealersFacet.sol\":5846:6451  function getRewardNextSpill() external returns (address) {... */\n    tag_14:\n        /* \"contracts/facets/DealersFacet.sol\":5894:5901  address */\n      0x00\n        /* \"contracts/facets/DealersFacet.sol\":5934:5935  0 */\n      dup1\n        /* \"contracts/facets/DealersFacet.sol\":5917:5924  dealers */\n      0x45\n        /* \"contracts/facets/DealersFacet.sol\":5917:5931  dealers.length */\n      dup1\n      sload\n      swap1\n      pop\n        /* \"contracts/facets/DealersFacet.sol\":5917:5935  dealers.length > 0 */\n      gt\n        /* \"contracts/facets/DealersFacet.sol\":5913:6399  if (dealers.length > 0) {... */\n      iszero\n      tag_50\n      jumpi\n        /* \"contracts/facets/DealersFacet.sol\":5973:5989  nextSpill.add(1) */\n      tag_51\n        /* \"contracts/facets/DealersFacet.sol\":5987:5988  1 */\n      0x01\n        /* \"contracts/facets/DealersFacet.sol\":5973:5982  nextSpill */\n      sload(0x44)\n        /* \"contracts/facets/DealersFacet.sol\":5973:5986  nextSpill.add */\n      tag_52\n      swap1\n        /* \"contracts/facets/DealersFacet.sol\":5973:5989  nextSpill.add(1) */\n      swap2\n      swap1\n      0xffffffff\n      and\n      jump\t// in\n    tag_51:\n        /* \"contracts/facets/DealersFacet.sol\":5955:5962  dealers */\n      0x45\n        /* \"contracts/facets/DealersFacet.sol\":5955:5969  dealers.length */\n      dup1\n      sload\n      swap1\n      pop\n        /* \"contracts/facets/DealersFacet.sol\":5955:5989  dealers.length == nextSpill.add(1) */\n      eq\n        /* \"contracts/facets/DealersFacet.sol\":5951:6323  if (dealers.length == nextSpill.add(1)) {... */\n      iszero\n      tag_53\n      jumpi\n        /* \"contracts/facets/DealersFacet.sol\":6009:6026  Dealers memory _d */\n      0x00\n        /* \"contracts/facets/DealersFacet.sol\":6029:6036  dealers */\n      0x45\n        /* \"contracts/facets/DealersFacet.sol\":6037:6046  nextSpill */\n      sload(0x44)\n        /* \"contracts/facets/DealersFacet.sol\":6029:6047  dealers[nextSpill] */\n      dup2\n      sload\n      dup2\n      lt\n      tag_54\n      jumpi\n      tag_55\n      tag_56\n      jump\t// in\n    tag_55:\n    tag_54:\n      swap1\n      0x00\n      mstore\n      keccak256(0x00, 0x20)\n      add\n        /* \"contracts/facets/DealersFacet.sol\":6009:6047  Dealers memory _d = dealers[nextSpill] */\n      mload(0x40)\n      dup1\n      0x20\n      add\n      0x40\n      mstore\n      swap1\n      dup2\n      0x00\n      dup3\n      add\n      0x00\n      swap1\n      sload\n      swap1\n      0x0100\n      exp\n      swap1\n      div\n      0xffffffffffffffffffffffffffffffffffffffff\n      and\n      0xffffffffffffffffffffffffffffffffffffffff\n      and\n      0xffffffffffffffffffffffffffffffffffffffff\n      and\n      dup2\n      mstore\n      pop\n      pop\n      swap1\n      pop\n        /* \"contracts/facets/DealersFacet.sol\":6077:6078  0 */\n      0x00\n        /* \"contracts/facets/DealersFacet.sol\":6065:6074  nextSpill */\n      0x44\n        /* \"contracts/facets/DealersFacet.sol\":6065:6078  nextSpill = 0 */\n      dup2\n      swap1\n      sstore\n      pop\n        /* \"contracts/facets/DealersFacet.sol\":6103:6105  _d */\n      dup1\n        /* \"contracts/facets/DealersFacet.sol\":6103:6112  _d.dealer */\n      0x00\n      add\n      mload\n        /* \"contracts/facets/DealersFacet.sol\":6096:6112  return _d.dealer */\n      swap2\n      pop\n      pop\n      jump(tag_49)\n        /* \"contracts/facets/DealersFacet.sol\":5951:6323  if (dealers.length == nextSpill.add(1)) {... */\n    tag_53:\n        /* \"contracts/facets/DealersFacet.sol\":6154:6170  nextSpill.add(1) */\n      tag_59\n        /* \"contracts/facets/DealersFacet.sol\":6168:6169  1 */\n      0x01\n        /* \"contracts/facets/DealersFacet.sol\":6154:6163  nextSpill */\n      sload(0x44)\n        /* \"contracts/facets/DealersFacet.sol\":6154:6167  nextSpill.add */\n      tag_52\n      swap1\n        /* \"contracts/facets/DealersFacet.sol\":6154:6170  nextSpill.add(1) */\n      swap2\n      swap1\n      0xffffffff\n      and\n      jump\t// in\n    tag_59:\n        /* \"contracts/facets/DealersFacet.sol\":6137:6144  dealers */\n      0x45\n        /* \"contracts/facets/DealersFacet.sol\":6137:6151  dealers.length */\n      dup1\n      sload\n      swap1\n      pop\n        /* \"contracts/facets/DealersFacet.sol\":6137:6170  dealers.length > nextSpill.add(1) */\n      gt\n        /* \"contracts/facets/DealersFacet.sol\":6133:6323  if (dealers.length > nextSpill.add(1)) {... */\n      iszero\n      tag_60\n      jumpi\n        /* \"contracts/facets/DealersFacet.sol\":6190:6207  Dealers memory _d */\n      0x00\n        /* \"contracts/facets/DealersFacet.sol\":6210:6217  dealers */\n      0x45\n        /* \"contracts/facets/DealersFacet.sol\":6218:6227  nextSpill */\n      sload(0x44)\n        /* \"contracts/facets/DealersFacet.sol\":6210:6228  dealers[nextSpill] */\n      dup2\n      sload\n      dup2\n      lt\n      tag_61\n      jumpi\n      tag_62\n      tag_56\n      jump\t// in\n    tag_62:\n    tag_61:\n      swap1\n      0x00\n      mstore\n      keccak256(0x00, 0x20)\n      add\n        /* \"contracts/facets/DealersFacet.sol\":6190:6228  Dealers memory _d = dealers[nextSpill] */\n      mload(0x40)\n      dup1\n      0x20\n      add\n      0x40\n      mstore\n      swap1\n      dup2\n      0x00\n      dup3\n      add\n      0x00\n      swap1\n      sload\n      swap1\n      0x0100\n      exp\n      swap1\n      div\n      0xffffffffffffffffffffffffffffffffffffffff\n      and\n      0xffffffffffffffffffffffffffffffffffffffff\n      and\n      0xffffffffffffffffffffffffffffffffffffffff\n      and\n      dup2\n      mstore\n      pop\n      pop\n      swap1\n      pop\n        /* \"contracts/facets/DealersFacet.sol\":6258:6274  nextSpill.add(1) */\n      tag_64\n        /* \"contracts/facets/DealersFacet.sol\":6272:6273  1 */\n      0x01\n        /* \"contracts/facets/DealersFacet.sol\":6258:6267  nextSpill */\n      sload(0x44)\n        /* \"contracts/facets/DealersFacet.sol\":6258:6271  nextSpill.add */\n      tag_52\n      swap1\n        /* \"contracts/facets/DealersFacet.sol\":6258:6274  nextSpill.add(1) */\n      swap2\n      swap1\n      0xffffffff\n      and\n      jump\t// in\n    tag_64:\n        /* \"contracts/facets/DealersFacet.sol\":6246:6255  nextSpill */\n      0x44\n        /* \"contracts/facets/DealersFacet.sol\":6246:6274  nextSpill = nextSpill.add(1) */\n      dup2\n      swap1\n      sstore\n      pop\n        /* \"contracts/facets/DealersFacet.sol\":6299:6301  _d */\n      dup1\n        /* \"contracts/facets/DealersFacet.sol\":6299:6308  _d.dealer */\n      0x00\n      add\n      mload\n        /* \"contracts/facets/DealersFacet.sol\":6292:6308  return _d.dealer */\n      swap2\n      pop\n      pop\n      jump(tag_49)\n        /* \"contracts/facets/DealersFacet.sol\":6133:6323  if (dealers.length > nextSpill.add(1)) {... */\n    tag_60:\n        /* \"contracts/facets/DealersFacet.sol\":5913:6399  if (dealers.length > 0) {... */\n      jump(tag_65)\n    tag_50:\n        /* \"contracts/facets/DealersFacet.sol\":6360:6361  s */\n      0x00\n        /* \"contracts/facets/DealersFacet.sol\":6360:6388  s.dealerSubcriptionCollector */\n      0x38\n      add\n      0x00\n      swap1\n      sload\n      swap1\n      0x0100\n      exp\n      swap1\n      div\n      0xffffffffffffffffffffffffffffffffffffffff\n      and\n        /* \"contracts/facets/DealersFacet.sol\":6353:6388  return s.dealerSubcriptionCollector */\n      swap1\n      pop\n      jump(tag_49)\n        /* \"contracts/facets/DealersFacet.sol\":5913:6399  if (dealers.length > 0) {... */\n    tag_65:\n        /* \"contracts/facets/DealersFacet.sol\":6416:6417  s */\n      0x00\n        /* \"contracts/facets/DealersFacet.sol\":6416:6444  s.dealerSubcriptionCollector */\n      0x38\n      add\n      0x00\n      swap1\n      sload\n      swap1\n      0x0100\n      exp\n      swap1\n      div\n      0xffffffffffffffffffffffffffffffffffffffff\n      and\n        /* \"contracts/facets/DealersFacet.sol\":6409:6444  return s.dealerSubcriptionCollector */\n      swap1\n      pop\n        /* \"contracts/facets/DealersFacet.sol\":5846:6451  function getRewardNextSpill() external returns (address) {... */\n    tag_49:\n      swap1\n      jump\t// out\n        /* \"contracts/facets/DealersFacet.sol\":7127:7663  function collectorReward() external {... */\n    tag_18:\n        /* \"contracts/facets/DealersFacet.sol\":7173:7187  uint256 amount */\n      0x00\n        /* \"contracts/facets/DealersFacet.sol\":7190:7191  s */\n      dup1\n        /* \"contracts/facets/DealersFacet.sol\":7190:7225  s.dealerSubcriptionCollectorBalance */\n      0x3a\n      add\n      sload\n        /* \"contracts/facets/DealersFacet.sol\":7173:7225  uint256 amount = s.dealerSubcriptionCollectorBalance */\n      swap1\n      pop\n        /* \"contracts/facets/DealersFacet.sol\":7273:7274  0 */\n      0x00\n        /* \"contracts/facets/DealersFacet.sol\":7235:7236  s */\n      dup1\n        /* \"contracts/facets/DealersFacet.sol\":7235:7270  s.dealerSubcriptionCollectorBalance */\n      0x3a\n      add\n        /* \"contracts/facets/DealersFacet.sol\":7235:7274  s.dealerSubcriptionCollectorBalance = 0 */\n      dup2\n      swap1\n      sstore\n      pop\n        /* \"contracts/facets/DealersFacet.sol\":7285:7298  IERC20 iERC20 */\n      0x00\n        /* \"contracts/facets/DealersFacet.sol\":7308:7309  s */\n      dup1\n        /* \"contracts/facets/DealersFacet.sol\":7308:7323  s._token_addres */\n      0x34\n      add\n      0x00\n      swap1\n      sload\n      swap1\n      0x0100\n      exp\n      swap1\n      div\n      0xffffffffffffffffffffffffffffffffffffffff\n      and\n        /* \"contracts/facets/DealersFacet.sol\":7285:7324  IERC20 iERC20 = IERC20(s._token_addres) */\n      swap1\n      pop\n        /* \"contracts/facets/DealersFacet.sol\":7356:7362  iERC20 */\n      dup1\n        /* \"contracts/facets/DealersFacet.sol\":7356:7371  iERC20.transfer */\n      0xffffffffffffffffffffffffffffffffffffffff\n      and\n      0xa9059cbb\n        /* \"contracts/facets/DealersFacet.sol\":7372:7373  s */\n      0x00\n        /* \"contracts/facets/DealersFacet.sol\":7372:7400  s.dealerSubcriptionCollector */\n      0x38\n      add\n      0x00\n      swap1\n      sload\n      swap1\n      0x0100\n      exp\n      swap1\n      div\n      0xffffffffffffffffffffffffffffffffffffffff\n      and\n        /* \"contracts/facets/DealersFacet.sol\":7402:7408  amount */\n      dup5\n        /* \"contracts/facets/DealersFacet.sol\":7356:7409  iERC20.transfer(s.dealerSubcriptionCollector, amount) */\n      mload(0x40)\n      dup4\n      0xffffffff\n      and\n      0xe0\n      shl\n      dup2\n      mstore\n      0x04\n      add\n      tag_67\n      swap3\n      swap2\n      swap1\n      tag_68\n      jump\t// in\n    tag_67:\n      0x20\n      mload(0x40)\n      dup1\n      dup4\n      sub\n      dup2\n      0x00\n      dup8\n      gas\n      call\n      iszero\n      dup1\n      iszero\n      tag_70\n      jumpi\n      returndatasize\n      0x00\n      dup1\n      returndatacopy\n      revert(0x00, returndatasize)\n    tag_70:\n      pop\n      pop\n      pop\n      pop\n      mload(0x40)\n      returndatasize\n      not(0x1f)\n      0x1f\n      dup3\n      add\n      and\n      dup3\n      add\n      dup1\n      0x40\n      mstore\n      pop\n      dup2\n      add\n      swap1\n      tag_71\n      swap2\n      swap1\n      tag_72\n      jump\t// in\n    tag_71:\n        /* \"contracts/facets/DealersFacet.sol\":7335:7451  require(... */\n      tag_73\n      jumpi\n      mload(0x40)\n      0x08c379a000000000000000000000000000000000000000000000000000000000\n      dup2\n      mstore\n      0x04\n      add\n      tag_74\n      swap1\n      tag_75\n      jump\t// in\n    tag_74:\n      mload(0x40)\n      dup1\n      swap2\n      sub\n      swap1\n      revert\n    tag_73:\n        /* \"contracts/facets/DealersFacet.sol\":7484:7516  totalRewardCollected.add(amount) */\n      tag_76\n        /* \"contracts/facets/DealersFacet.sol\":7509:7515  amount */\n      dup3\n        /* \"contracts/facets/DealersFacet.sol\":7484:7504  totalRewardCollected */\n      sload(0x47)\n        /* \"contracts/facets/DealersFacet.sol\":7484:7508  totalRewardCollected.add */\n      tag_52\n      swap1\n        /* \"contracts/facets/DealersFacet.sol\":7484:7516  totalRewardCollected.add(amount) */\n      swap2\n      swap1\n      0xffffffff\n      and\n      jump\t// in\n    tag_76:\n        /* \"contracts/facets/DealersFacet.sol\":7461:7481  totalRewardCollected */\n      0x47\n        /* \"contracts/facets/DealersFacet.sol\":7461:7516  totalRewardCollected = totalRewardCollected.add(amount) */\n      dup2\n      swap1\n      sstore\n      pop\n        /* \"contracts/facets/DealersFacet.sol\":7532:7656  DealerCollectorRewarded(... */\n      0xc7b074008d0eb21fa6ba78babb2da91414daf366ac56cdc4328e4e34b5c2e738\n        /* \"contracts/facets/DealersFacet.sol\":7569:7570  s */\n      0x00\n        /* \"contracts/facets/DealersFacet.sol\":7569:7597  s.dealerSubcriptionCollector */\n      0x38\n      add\n      0x00\n      swap1\n      sload\n      swap1\n      0x0100\n      exp\n      swap1\n      div\n      0xffffffffffffffffffffffffffffffffffffffff\n      and\n        /* \"contracts/facets/DealersFacet.sol\":7611:7617  amount */\n      dup4\n        /* \"contracts/facets/DealersFacet.sol\":7631:7646  block.timestamp */\n      timestamp\n        /* \"contracts/facets/DealersFacet.sol\":7532:7656  DealerCollectorRewarded(... */\n      mload(0x40)\n      tag_77\n      swap4\n      swap3\n      swap2\n      swap1\n      tag_78\n      jump\t// in\n    tag_77:\n      mload(0x40)\n      dup1\n      swap2\n      sub\n      swap1\n      log1\n        /* \"contracts/facets/DealersFacet.sol\":7163:7663  {... */\n      pop\n      pop\n        /* \"contracts/facets/DealersFacet.sol\":7127:7663  function collectorReward() external {... */\n      jump\t// out\n        /* \"contracts/facets/DealersFacet.sol\":9333:9669  function dealerReferralStats(... */\n    tag_22:\n        /* \"contracts/facets/DealersFacet.sol\":9437:9451  uint256 _count */\n      0x00\n        /* \"contracts/facets/DealersFacet.sol\":9453:9468  uint256 _amount */\n      dup1\n        /* \"contracts/facets/DealersFacet.sol\":9470:9486  uint _totalTaken */\n      0x00\n        /* \"contracts/facets/DealersFacet.sol\":9523:9524  s */\n      dup1\n        /* \"contracts/facets/DealersFacet.sol\":9523:9552  s.referralDealerRewardBalance */\n      0x39\n      add\n        /* \"contracts/facets/DealersFacet.sol\":9523:9558  s.referralDealerRewardBalance[user] */\n      0x00\n        /* \"contracts/facets/DealersFacet.sol\":9553:9557  user */\n      dup6\n        /* \"contracts/facets/DealersFacet.sol\":9523:9558  s.referralDealerRewardBalance[user] */\n      0xffffffffffffffffffffffffffffffffffffffff\n      and\n      0xffffffffffffffffffffffffffffffffffffffff\n      and\n      dup2\n      mstore\n      0x20\n      add\n      swap1\n      dup2\n      mstore\n      0x20\n      add\n      0x00\n      keccak256\n      sload\n        /* \"contracts/facets/DealersFacet.sol\":9572:9573  s */\n      0x00\n        /* \"contracts/facets/DealersFacet.sol\":9572:9594  s.deallerReferralCount */\n      0x3c\n      add\n        /* \"contracts/facets/DealersFacet.sol\":9572:9600  s.deallerReferralCount[user] */\n      0x00\n        /* \"contracts/facets/DealersFacet.sol\":9595:9599  user */\n      dup7\n        /* \"contracts/facets/DealersFacet.sol\":9572:9600  s.deallerReferralCount[user] */\n      0xffffffffffffffffffffffffffffffffffffffff\n      and\n      0xffffffffffffffffffffffffffffffffffffffff\n      and\n      dup2\n      mstore\n      0x20\n      add\n      swap1\n      dup2\n      mstore\n      0x20\n      add\n      0x00\n      keccak256\n      sload\n        /* \"contracts/facets/DealersFacet.sol\":9614:9646  totalDealerReferralRewardBalance */\n      0x48\n        /* \"contracts/facets/DealersFacet.sol\":9614:9652  totalDealerReferralRewardBalance[user] */\n      0x00\n        /* \"contracts/facets/DealersFacet.sol\":9647:9651  user */\n      dup8\n        /* \"contracts/facets/DealersFacet.sol\":9614:9652  totalDealerReferralRewardBalance[user] */\n      0xffffffffffffffffffffffffffffffffffffffff\n      and\n      0xffffffffffffffffffffffffffffffffffffffff\n      and\n      dup2\n      mstore\n      0x20\n      add\n      swap1\n      dup2\n      mstore\n      0x20\n      add\n      0x00\n      keccak256\n      sload\n        /* \"contracts/facets/DealersFacet.sol\":9502:9662  return (... */\n      swap3\n      pop\n      swap3\n      pop\n      swap3\n      pop\n        /* \"contracts/facets/DealersFacet.sol\":9333:9669  function dealerReferralStats(... */\n      swap2\n      swap4\n      swap1\n      swap3\n      pop\n      jump\t// out\n        /* \"contracts/facets/DealersFacet.sol\":3083:4160  function becomeADealer(address _dealer, uint256 _dealerPlan) external {... */\n    tag_28:\n        /* \"contracts/facets/DealersFacet.sol\":3203:3204  s */\n      0x00\n        /* \"contracts/facets/DealersFacet.sol\":3203:3221  s.dealerExpiryDate */\n      0x35\n      add\n        /* \"contracts/facets/DealersFacet.sol\":3203:3230  s.dealerExpiryDate[_dealer] */\n      0x00\n        /* \"contracts/facets/DealersFacet.sol\":3222:3229  _dealer */\n      dup4\n        /* \"contracts/facets/DealersFacet.sol\":3203:3230  s.dealerExpiryDate[_dealer] */\n      0xffffffffffffffffffffffffffffffffffffffff\n      and\n      0xffffffffffffffffffffffffffffffffffffffff\n      and\n      dup2\n      mstore\n      0x20\n      add\n      swap1\n      dup2\n      mstore\n      0x20\n      add\n      0x00\n      keccak256\n      sload\n        /* \"contracts/facets/DealersFacet.sol\":3184:3199  block.timestamp */\n      timestamp\n        /* \"contracts/facets/DealersFacet.sol\":3184:3230  block.timestamp >= s.dealerExpiryDate[_dealer] */\n      lt\n      iszero\n        /* \"contracts/facets/DealersFacet.sol\":3163:3293  require(... */\n      tag_81\n      jumpi\n      mload(0x40)\n      0x08c379a000000000000000000000000000000000000000000000000000000000\n      dup2\n      mstore\n      0x04\n      add\n      tag_82\n      swap1\n      tag_83\n      jump\t// in\n    tag_82:\n      mload(0x40)\n      dup1\n      swap2\n      sub\n      swap1\n      revert\n    tag_81:\n        /* \"contracts/facets/DealersFacet.sol\":3303:3317  uint256 amount */\n      0x00\n        /* \"contracts/facets/DealersFacet.sol\":3320:3321  s */\n      dup1\n        /* \"contracts/facets/DealersFacet.sol\":3320:3333  s.dealersPlan */\n      0x33\n      add\n        /* \"contracts/facets/DealersFacet.sol\":3320:3346  s.dealersPlan[_dealerPlan] */\n      0x00\n        /* \"contracts/facets/DealersFacet.sol\":3334:3345  _dealerPlan */\n      dup4\n        /* \"contracts/facets/DealersFacet.sol\":3320:3346  s.dealersPlan[_dealerPlan] */\n      dup2\n      mstore\n      0x20\n      add\n      swap1\n      dup2\n      mstore\n      0x20\n      add\n      0x00\n      keccak256\n      sload\n        /* \"contracts/facets/DealersFacet.sol\":3303:3346  uint256 amount = s.dealersPlan[_dealerPlan] */\n      swap1\n      pop\n        /* \"contracts/facets/DealersFacet.sol\":3380:3391  _dealerPlan */\n      dup2\n        /* \"contracts/facets/DealersFacet.sol\":3356:3357  s */\n      0x00\n        /* \"contracts/facets/DealersFacet.sol\":3356:3368  s.dealerPlan */\n      0x37\n      add\n        /* \"contracts/facets/DealersFacet.sol\":3356:3377  s.dealerPlan[_dealer] */\n      0x00\n        /* \"contracts/facets/DealersFacet.sol\":3369:3376  _dealer */\n      dup6\n        /* \"contracts/facets/DealersFacet.sol\":3356:3377  s.dealerPlan[_dealer] */\n      0xffffffffffffffffffffffffffffffffffffffff\n      and\n      0xffffffffffffffffffffffffffffffffffffffff\n      and\n      dup2\n      mstore\n      0x20\n      add\n      swap1\n      dup2\n      mstore\n      0x20\n      add\n      0x00\n      keccak256\n        /* \"contracts/facets/DealersFacet.sol\":3356:3391  s.dealerPlan[_dealer] = _dealerPlan */\n      dup2\n      swap1\n      sstore\n      pop\n        /* \"contracts/facets/DealersFacet.sol\":3418:3419  0 */\n      0x00\n        /* \"contracts/facets/DealersFacet.sol\":3409:3415  amount */\n      dup2\n        /* \"contracts/facets/DealersFacet.sol\":3409:3419  amount > 0 */\n      gt\n        /* \"contracts/facets/DealersFacet.sol\":3401:3436  require(amount > 0, \"Invalid plan\") */\n      tag_84\n      jumpi\n      mload(0x40)\n      0x08c379a000000000000000000000000000000000000000000000000000000000\n      dup2\n      mstore\n      0x04\n      add\n      tag_85\n      swap1\n      tag_86\n      jump\t// in\n    tag_85:\n      mload(0x40)\n      dup1\n      swap2\n      sub\n      swap1\n      revert\n    tag_84:\n        /* \"contracts/facets/DealersFacet.sol\":3446:3464  uint256 expiryDate */\n      0x00\n        /* \"contracts/facets/DealersFacet.sol\":3467:3496  block.timestamp.add(365 days) */\n      tag_87\n        /* \"contracts/facets/DealersFacet.sol\":3487:3495  365 days */\n      0x01e13380\n        /* \"contracts/facets/DealersFacet.sol\":3467:3482  block.timestamp */\n      timestamp\n        /* \"contracts/facets/DealersFacet.sol\":3467:3486  block.timestamp.add */\n      tag_52\n      swap1\n        /* \"contracts/facets/DealersFacet.sol\":3467:3496  block.timestamp.add(365 days) */\n      swap2\n      swap1\n      0xffffffff\n      and\n      jump\t// in\n    tag_87:\n        /* \"contracts/facets/DealersFacet.sol\":3446:3496  uint256 expiryDate = block.timestamp.add(365 days) */\n      swap1\n      pop\n        /* \"contracts/facets/DealersFacet.sol\":3536:3546  expiryDate */\n      dup1\n        /* \"contracts/facets/DealersFacet.sol\":3506:3507  s */\n      0x00\n        /* \"contracts/facets/DealersFacet.sol\":3506:3524  s.dealerExpiryDate */\n      0x35\n      add\n        /* \"contracts/facets/DealersFacet.sol\":3506:3533  s.dealerExpiryDate[_dealer] */\n      0x00\n        /* \"contracts/facets/DealersFacet.sol\":3525:3532  _dealer */\n      dup7\n        /* \"contracts/facets/DealersFacet.sol\":3506:3533  s.dealerExpiryDate[_dealer] */\n      0xffffffffffffffffffffffffffffffffffffffff\n      and\n      0xffffffffffffffffffffffffffffffffffffffff\n      and\n      dup2\n      mstore\n      0x20\n      add\n      swap1\n      dup2\n      mstore\n      0x20\n      add\n      0x00\n      keccak256\n        /* \"contracts/facets/DealersFacet.sol\":3506:3546  s.dealerExpiryDate[_dealer] = expiryDate */\n      dup2\n      swap1\n      sstore\n      pop\n        /* \"contracts/facets/DealersFacet.sol\":3579:3583  true */\n      0x01\n        /* \"contracts/facets/DealersFacet.sol\":3556:3557  s */\n      0x00\n        /* \"contracts/facets/DealersFacet.sol\":3556:3567  s.isADealer */\n      0x36\n      add\n        /* \"contracts/facets/DealersFacet.sol\":3556:3576  s.isADealer[_dealer] */\n      0x00\n        /* \"contracts/facets/DealersFacet.sol\":3568:3575  _dealer */\n      dup7\n        /* \"contracts/facets/DealersFacet.sol\":3556:3576  s.isADealer[_dealer] */\n      0xffffffffffffffffffffffffffffffffffffffff\n      and\n      0xffffffffffffffffffffffffffffffffffffffff\n      and\n      dup2\n      mstore\n      0x20\n      add\n      swap1\n      dup2\n      mstore\n      0x20\n      add\n      0x00\n      keccak256\n      0x00\n        /* \"contracts/facets/DealersFacet.sol\":3556:3583  s.isADealer[_dealer] = true */\n      0x0100\n      exp\n      dup2\n      sload\n      dup2\n      0xff\n      mul\n      not\n      and\n      swap1\n      dup4\n      iszero\n      iszero\n      mul\n      or\n      swap1\n      sstore\n      pop\n        /* \"contracts/facets/DealersFacet.sol\":3593:3606  IERC20 iERC20 */\n      0x00\n        /* \"contracts/facets/DealersFacet.sol\":3616:3617  s */\n      dup1\n        /* \"contracts/facets/DealersFacet.sol\":3616:3631  s._token_addres */\n      0x34\n      add\n      0x00\n      swap1\n      sload\n      swap1\n      0x0100\n      exp\n      swap1\n      div\n      0xffffffffffffffffffffffffffffffffffffffff\n      and\n        /* \"contracts/facets/DealersFacet.sol\":3593:3632  IERC20 iERC20 = IERC20(s._token_addres) */\n      swap1\n      pop\n        /* \"contracts/facets/DealersFacet.sol\":3712:3718  amount */\n      dup3\n        /* \"contracts/facets/DealersFacet.sol\":3663:3669  iERC20 */\n      dup2\n        /* \"contracts/facets/DealersFacet.sol\":3663:3679  iERC20.allowance */\n      0xffffffffffffffffffffffffffffffffffffffff\n      and\n      0xdd62ed3e\n        /* \"contracts/facets/DealersFacet.sol\":3680:3692  _msgSender() */\n      tag_88\n        /* \"contracts/facets/DealersFacet.sol\":3680:3690  _msgSender */\n      tag_89\n        /* \"contracts/facets/DealersFacet.sol\":3680:3692  _msgSender() */\n      jump\t// in\n    tag_88:\n        /* \"contracts/facets/DealersFacet.sol\":3702:3706  this */\n      address\n        /* \"contracts/facets/DealersFacet.sol\":3663:3708  iERC20.allowance(_msgSender(), address(this)) */\n      mload(0x40)\n      dup4\n      0xffffffff\n      and\n      0xe0\n      shl\n      dup2\n      mstore\n      0x04\n      add\n      tag_90\n      swap3\n      swap2\n      swap1\n      tag_91\n      jump\t// in\n    tag_90:\n      0x20\n      mload(0x40)\n      dup1\n      dup4\n      sub\n      dup2\n      dup7\n      gas\n      staticcall\n      iszero\n      dup1\n      iszero\n      tag_93\n      jumpi\n      returndatasize\n      0x00\n      dup1\n      returndatacopy\n      revert(0x00, returndatasize)\n    tag_93:\n      pop\n      pop\n      pop\n      pop\n      mload(0x40)\n      returndatasize\n      not(0x1f)\n      0x1f\n      dup3\n      add\n      and\n      dup3\n      add\n      dup1\n      0x40\n      mstore\n      pop\n      dup2\n      add\n      swap1\n      tag_94\n      swap2\n      swap1\n      tag_95\n      jump\t// in\n    tag_94:\n        /* \"contracts/facets/DealersFacet.sol\":3663:3718  iERC20.allowance(_msgSender(), address(this)) >= amount */\n      lt\n      iszero\n        /* \"contracts/facets/DealersFacet.sol\":3642:3790  require(... */\n      tag_96\n      jumpi\n      mload(0x40)\n      0x08c379a000000000000000000000000000000000000000000000000000000000\n      dup2\n      mstore\n      0x04\n      add\n      tag_97\n      swap1\n      tag_98\n      jump\t// in\n    tag_97:\n      mload(0x40)\n      dup1\n      swap2\n      sub\n      swap1\n      revert\n    tag_96:\n        /* \"contracts/facets/DealersFacet.sol\":3808:3845  dealerReferralHelper(_dealer, amount) */\n      tag_99\n        /* \"contracts/facets/DealersFacet.sol\":3829:3836  _dealer */\n      dup6\n        /* \"contracts/facets/DealersFacet.sol\":3838:3844  amount */\n      dup5\n        /* \"contracts/facets/DealersFacet.sol\":3808:3828  dealerReferralHelper */\n      tag_100\n        /* \"contracts/facets/DealersFacet.sol\":3808:3845  dealerReferralHelper(_dealer, amount) */\n      jump\t// in\n    tag_99:\n        /* \"contracts/facets/DealersFacet.sol\":3800:3864  require(dealerReferralHelper(_dealer, amount), \"Referral error\") */\n      tag_101\n      jumpi\n      mload(0x40)\n      0x08c379a000000000000000000000000000000000000000000000000000000000\n      dup2\n      mstore\n      0x04\n      add\n      tag_102\n      swap1\n      tag_103\n      jump\t// in\n    tag_102:\n      mload(0x40)\n      dup1\n      swap2\n      sub\n      swap1\n      revert\n    tag_101:\n        /* \"contracts/facets/DealersFacet.sol\":3895:3901  iERC20 */\n      dup1\n        /* \"contracts/facets/DealersFacet.sol\":3895:3914  iERC20.transferFrom */\n      0xffffffffffffffffffffffffffffffffffffffff\n      and\n      0x23b872dd\n        /* \"contracts/facets/DealersFacet.sol\":3915:3927  _msgSender() */\n      tag_104\n        /* \"contracts/facets/DealersFacet.sol\":3915:3925  _msgSender */\n      tag_89\n        /* \"contracts/facets/DealersFacet.sol\":3915:3927  _msgSender() */\n      jump\t// in\n    tag_104:\n        /* \"contracts/facets/DealersFacet.sol\":3937:3941  this */\n      address\n        /* \"contracts/facets/DealersFacet.sol\":3944:3950  amount */\n      dup7\n        /* \"contracts/facets/DealersFacet.sol\":3895:3951  iERC20.transferFrom(_msgSender(), address(this), amount) */\n      mload(0x40)\n      dup5\n      0xffffffff\n      and\n      0xe0\n      shl\n      dup2\n      mstore\n      0x04\n      add\n      tag_105\n      swap4\n      swap3\n      swap2\n      swap1\n      tag_106\n      jump\t// in\n    tag_105:\n      0x20\n      mload(0x40)\n      dup1\n      dup4\n      sub\n      dup2\n      0x00\n      dup8\n      gas\n      call\n      iszero\n      dup1\n      iszero\n      tag_108\n      jumpi\n      returndatasize\n      0x00\n      dup1\n      returndatacopy\n      revert(0x00, returndatasize)\n    tag_108:\n      pop\n      pop\n      pop\n      pop\n      mload(0x40)\n      returndatasize\n      not(0x1f)\n      0x1f\n      dup3\n      add\n      and\n      dup3\n      add\n      dup1\n      0x40\n      mstore\n      pop\n      dup2\n      add\n      swap1\n      tag_109\n      swap2\n      swap1\n      tag_72\n      jump\t// in\n    tag_109:\n        /* \"contracts/facets/DealersFacet.sol\":3874:3993  require(... */\n      tag_110\n      jumpi\n      mload(0x40)\n      0x08c379a000000000000000000000000000000000000000000000000000000000\n      dup2\n      mstore\n      0x04\n      add\n      tag_111\n      swap1\n      tag_75\n      jump\t// in\n    tag_111:\n      mload(0x40)\n      dup1\n      swap2\n      sub\n      swap1\n      revert\n    tag_110:\n        /* \"contracts/facets/DealersFacet.sol\":4008:4153  DealerSubscribed(... */\n      0xcb780c1b203d42c77c54c594aaa57f696b57039cf9eefce5266255e154ea1e0b\n        /* \"contracts/facets/DealersFacet.sol\":4038:4045  _dealer */\n      dup6\n        /* \"contracts/facets/DealersFacet.sol\":4059:4065  amount */\n      dup5\n        /* \"contracts/facets/DealersFacet.sol\":4079:4089  expiryDate */\n      dup5\n        /* \"contracts/facets/DealersFacet.sol\":4103:4114  _dealerPlan */\n      dup8\n        /* \"contracts/facets/DealersFacet.sol\":4128:4143  block.timestamp */\n      timestamp\n        /* \"contracts/facets/DealersFacet.sol\":4008:4153  DealerSubscribed(... */\n      mload(0x40)\n      tag_112\n      swap6\n      swap5\n      swap4\n      swap3\n      swap2\n      swap1\n      tag_113\n      jump\t// in\n    tag_112:\n      mload(0x40)\n      dup1\n      swap2\n      sub\n      swap1\n      log1\n        /* \"contracts/facets/DealersFacet.sol\":3153:4160  {... */\n      pop\n      pop\n      pop\n        /* \"contracts/facets/DealersFacet.sol\":3083:4160  function becomeADealer(address _dealer, uint256 _dealerPlan) external {... */\n      pop\n      pop\n      jump\t// out\n        /* \"contracts/facets/DealersFacet.sol\":6457:7121  function takeDealerReferralReward(address user) external {... */\n    tag_31:\n        /* \"contracts/facets/DealersFacet.sol\":6573:6588  block.timestamp */\n      timestamp\n        /* \"contracts/facets/DealersFacet.sol\":6545:6546  s */\n      0x00\n        /* \"contracts/facets/DealersFacet.sol\":6545:6563  s.dealerExpiryDate */\n      0x35\n      add\n        /* \"contracts/facets/DealersFacet.sol\":6545:6569  s.dealerExpiryDate[user] */\n      0x00\n        /* \"contracts/facets/DealersFacet.sol\":6564:6568  user */\n      dup4\n        /* \"contracts/facets/DealersFacet.sol\":6545:6569  s.dealerExpiryDate[user] */\n      0xffffffffffffffffffffffffffffffffffffffff\n      and\n      0xffffffffffffffffffffffffffffffffffffffff\n      and\n      dup2\n      mstore\n      0x20\n      add\n      swap1\n      dup2\n      mstore\n      0x20\n      add\n      0x00\n      keccak256\n      sload\n        /* \"contracts/facets/DealersFacet.sol\":6545:6588  s.dealerExpiryDate[user] >= block.timestamp */\n      lt\n      iszero\n        /* \"contracts/facets/DealersFacet.sol\":6524:6636  require(... */\n      tag_115\n      jumpi\n      mload(0x40)\n      0x08c379a000000000000000000000000000000000000000000000000000000000\n      dup2\n      mstore\n      0x04\n      add\n      tag_116\n      swap1\n      tag_117\n      jump\t// in\n    tag_116:\n      mload(0x40)\n      dup1\n      swap2\n      sub\n      swap1\n      revert\n    tag_115:\n        /* \"contracts/facets/DealersFacet.sol\":6646:6660  uint256 amount */\n      0x00\n        /* \"contracts/facets/DealersFacet.sol\":6663:6664  s */\n      dup1\n        /* \"contracts/facets/DealersFacet.sol\":6663:6692  s.referralDealerRewardBalance */\n      0x39\n      add\n        /* \"contracts/facets/DealersFacet.sol\":6663:6698  s.referralDealerRewardBalance[user] */\n      0x00\n        /* \"contracts/facets/DealersFacet.sol\":6693:6697  user */\n      dup4\n        /* \"contracts/facets/DealersFacet.sol\":6663:6698  s.referralDealerRewardBalance[user] */\n      0xffffffffffffffffffffffffffffffffffffffff\n      and\n      0xffffffffffffffffffffffffffffffffffffffff\n      and\n      dup2\n      mstore\n      0x20\n      add\n      swap1\n      dup2\n      mstore\n      0x20\n      add\n      0x00\n      keccak256\n      sload\n        /* \"contracts/facets/DealersFacet.sol\":6646:6698  uint256 amount = s.referralDealerRewardBalance[user] */\n      swap1\n      pop\n        /* \"contracts/facets/DealersFacet.sol\":6746:6747  0 */\n      0x00\n        /* \"contracts/facets/DealersFacet.sol\":6708:6709  s */\n      dup1\n        /* \"contracts/facets/DealersFacet.sol\":6708:6737  s.referralDealerRewardBalance */\n      0x39\n      add\n        /* \"contracts/facets/DealersFacet.sol\":6708:6743  s.referralDealerRewardBalance[user] */\n      0x00\n        /* \"contracts/facets/DealersFacet.sol\":6738:6742  user */\n      dup5\n        /* \"contracts/facets/DealersFacet.sol\":6708:6743  s.referralDealerRewardBalance[user] */\n      0xffffffffffffffffffffffffffffffffffffffff\n      and\n      0xffffffffffffffffffffffffffffffffffffffff\n      and\n      dup2\n      mstore\n      0x20\n      add\n      swap1\n      dup2\n      mstore\n      0x20\n      add\n      0x00\n      keccak256\n        /* \"contracts/facets/DealersFacet.sol\":6708:6747  s.referralDealerRewardBalance[user] = 0 */\n      dup2\n      swap1\n      sstore\n      pop\n        /* \"contracts/facets/DealersFacet.sol\":6758:6771  IERC20 iERC20 */\n      0x00\n        /* \"contracts/facets/DealersFacet.sol\":6781:6782  s */\n      dup1\n        /* \"contracts/facets/DealersFacet.sol\":6781:6796  s._token_addres */\n      0x34\n      add\n      0x00\n      swap1\n      sload\n      swap1\n      0x0100\n      exp\n      swap1\n      div\n      0xffffffffffffffffffffffffffffffffffffffff\n      and\n        /* \"contracts/facets/DealersFacet.sol\":6758:6797  IERC20 iERC20 = IERC20(s._token_addres) */\n      swap1\n      pop\n        /* \"contracts/facets/DealersFacet.sol\":6816:6822  iERC20 */\n      dup1\n        /* \"contracts/facets/DealersFacet.sol\":6816:6831  iERC20.transfer */\n      0xffffffffffffffffffffffffffffffffffffffff\n      and\n      0xa9059cbb\n        /* \"contracts/facets/DealersFacet.sol\":6832:6836  user */\n      dup5\n        /* \"contracts/facets/DealersFacet.sol\":6838:6844  amount */\n      dup5\n        /* \"contracts/facets/DealersFacet.sol\":6816:6845  iERC20.transfer(user, amount) */\n      mload(0x40)\n      dup4\n      0xffffffff\n      and\n      0xe0\n      shl\n      dup2\n      mstore\n      0x04\n      add\n      tag_118\n      swap3\n      swap2\n      swap1\n      tag_68\n      jump\t// in\n    tag_118:\n      0x20\n      mload(0x40)\n      dup1\n      dup4\n      sub\n      dup2\n      0x00\n      dup8\n      gas\n      call\n      iszero\n      dup1\n      iszero\n      tag_120\n      jumpi\n      returndatasize\n      0x00\n      dup1\n      returndatacopy\n      revert(0x00, returndatasize)\n    tag_120:\n      pop\n      pop\n      pop\n      pop\n      mload(0x40)\n      returndatasize\n      not(0x1f)\n      0x1f\n      dup3\n      add\n      and\n      dup3\n      add\n      dup1\n      0x40\n      mstore\n      pop\n      dup2\n      add\n      swap1\n      tag_121\n      swap2\n      swap1\n      tag_72\n      jump\t// in\n    tag_121:\n        /* \"contracts/facets/DealersFacet.sol\":6808:6866  require(iERC20.transfer(user, amount), \"Fail to transfer\") */\n      tag_122\n      jumpi\n      mload(0x40)\n      0x08c379a000000000000000000000000000000000000000000000000000000000\n      dup2\n      mstore\n      0x04\n      add\n      tag_123\n      swap1\n      tag_75\n      jump\t// in\n    tag_123:\n      mload(0x40)\n      dup1\n      swap2\n      sub\n      swap1\n      revert\n    tag_122:\n        /* \"contracts/facets/DealersFacet.sol\":6939:6989  totalDealerReferralRewardBalance[user].add(amount) */\n      tag_124\n        /* \"contracts/facets/DealersFacet.sol\":6982:6988  amount */\n      dup3\n        /* \"contracts/facets/DealersFacet.sol\":6939:6971  totalDealerReferralRewardBalance */\n      0x48\n        /* \"contracts/facets/DealersFacet.sol\":6939:6977  totalDealerReferralRewardBalance[user] */\n      0x00\n        /* \"contracts/facets/DealersFacet.sol\":6972:6976  user */\n      dup7\n        /* \"contracts/facets/DealersFacet.sol\":6939:6977  totalDealerReferralRewardBalance[user] */\n      0xffffffffffffffffffffffffffffffffffffffff\n      and\n      0xffffffffffffffffffffffffffffffffffffffff\n      and\n      dup2\n      mstore\n      0x20\n      add\n      swap1\n      dup2\n      mstore\n      0x20\n      add\n      0x00\n      keccak256\n      sload\n        /* \"contracts/facets/DealersFacet.sol\":6939:6981  totalDealerReferralRewardBalance[user].add */\n      tag_52\n      swap1\n        /* \"contracts/facets/DealersFacet.sol\":6939:6989  totalDealerReferralRewardBalance[user].add(amount) */\n      swap2\n      swap1\n      0xffffffff\n      and\n      jump\t// in\n    tag_124:\n        /* \"contracts/facets/DealersFacet.sol\":6876:6908  totalDealerReferralRewardBalance */\n      0x48\n        /* \"contracts/facets/DealersFacet.sol\":6876:6936  totalDealerReferralRewardBalance[... */\n      0x00\n        /* \"contracts/facets/DealersFacet.sol\":6922:6926  user */\n      dup6\n        /* \"contracts/facets/DealersFacet.sol\":6876:6936  totalDealerReferralRewardBalance[... */\n      0xffffffffffffffffffffffffffffffffffffffff\n      and\n      0xffffffffffffffffffffffffffffffffffffffff\n      and\n      dup2\n      mstore\n      0x20\n      add\n      swap1\n      dup2\n      mstore\n      0x20\n      add\n      0x00\n      keccak256\n        /* \"contracts/facets/DealersFacet.sol\":6876:6989  totalDealerReferralRewardBalance[... */\n      dup2\n      swap1\n      sstore\n      pop\n        /* \"contracts/facets/DealersFacet.sol\":7022:7054  totalDealerRefferral.add(amount) */\n      tag_125\n        /* \"contracts/facets/DealersFacet.sol\":7047:7053  amount */\n      dup3\n        /* \"contracts/facets/DealersFacet.sol\":7022:7042  totalDealerRefferral */\n      sload(0x46)\n        /* \"contracts/facets/DealersFacet.sol\":7022:7046  totalDealerRefferral.add */\n      tag_52\n      swap1\n        /* \"contracts/facets/DealersFacet.sol\":7022:7054  totalDealerRefferral.add(amount) */\n      swap2\n      swap1\n      0xffffffff\n      and\n      jump\t// in\n    tag_125:\n        /* \"contracts/facets/DealersFacet.sol\":6999:7019  totalDealerRefferral */\n      0x46\n        /* \"contracts/facets/DealersFacet.sol\":6999:7054  totalDealerRefferral = totalDealerRefferral.add(amount) */\n      dup2\n      swap1\n      sstore\n      pop\n        /* \"contracts/facets/DealersFacet.sol\":7069:7114  DealerRewarded(user, amount, block.timestamp) */\n      0x4a76c364c7e53db1950771cab0e222edb75373273376b0165f03fe30ae8c2ec4\n        /* \"contracts/facets/DealersFacet.sol\":7084:7088  user */\n      dup4\n        /* \"contracts/facets/DealersFacet.sol\":7090:7096  amount */\n      dup4\n        /* \"contracts/facets/DealersFacet.sol\":7098:7113  block.timestamp */\n      timestamp\n        /* \"contracts/facets/DealersFacet.sol\":7069:7114  DealerRewarded(user, amount, block.timestamp) */\n      mload(0x40)\n      tag_126\n      swap4\n      swap3\n      swap2\n      swap1\n      tag_78\n      jump\t// in\n    tag_126:\n      mload(0x40)\n      dup1\n      swap2\n      sub\n      swap1\n      log1\n        /* \"contracts/facets/DealersFacet.sol\":6514:7121  {... */\n      pop\n      pop\n        /* \"contracts/facets/DealersFacet.sol\":6457:7121  function takeDealerReferralReward(address user) external {... */\n      pop\n      jump\t// out\n        /* \"contracts/facets/DealersFacet.sol\":5370:5840  function getPlanPercentage(... */\n    tag_34:\n        /* \"contracts/facets/DealersFacet.sol\":5451:5458  uint256 */\n      0x00\n        /* \"contracts/facets/DealersFacet.sol\":5507:5525  DealersPlan.PLAN_A */\n      dup1\n        /* \"contracts/facets/DealersFacet.sol\":5499:5526  uint256(DealersPlan.PLAN_A) */\n      0x02\n      dup2\n      gt\n      iszero\n      tag_128\n      jumpi\n      tag_129\n      tag_130\n      jump\t// in\n    tag_129:\n    tag_128:\n        /* \"contracts/facets/DealersFacet.sol\":5474:5475  s */\n      0x00\n        /* \"contracts/facets/DealersFacet.sol\":5474:5486  s.dealerPlan */\n      0x37\n      add\n        /* \"contracts/facets/DealersFacet.sol\":5474:5495  s.dealerPlan[_dealer] */\n      0x00\n        /* \"contracts/facets/DealersFacet.sol\":5487:5494  _dealer */\n      dup5\n        /* \"contracts/facets/DealersFacet.sol\":5474:5495  s.dealerPlan[_dealer] */\n      0xffffffffffffffffffffffffffffffffffffffff\n      and\n      0xffffffffffffffffffffffffffffffffffffffff\n      and\n      dup2\n      mstore\n      0x20\n      add\n      swap1\n      dup2\n      mstore\n      0x20\n      add\n      0x00\n      keccak256\n      sload\n        /* \"contracts/facets/DealersFacet.sol\":5474:5526  s.dealerPlan[_dealer] == uint256(DealersPlan.PLAN_A) */\n      eq\n        /* \"contracts/facets/DealersFacet.sol\":5470:5815  if (s.dealerPlan[_dealer] == uint256(DealersPlan.PLAN_A)) {... */\n      iszero\n      tag_131\n      jumpi\n        /* \"contracts/libraries/Utils.sol\":1289:1307  220000000000000000 */\n      0x030d98d59a960000\n        /* \"contracts/facets/DealersFacet.sol\":5542:5570  return Utils.PLAN_A_DISCOUNT */\n      swap1\n      pop\n      jump(tag_127)\n        /* \"contracts/facets/DealersFacet.sol\":5470:5815  if (s.dealerPlan[_dealer] == uint256(DealersPlan.PLAN_A)) {... */\n    tag_131:\n        /* \"contracts/facets/DealersFacet.sol\":5624:5642  DealersPlan.PLAN_B */\n      0x01\n        /* \"contracts/facets/DealersFacet.sol\":5616:5643  uint256(DealersPlan.PLAN_B) */\n      0x02\n      dup2\n      gt\n      iszero\n      tag_133\n      jumpi\n      tag_134\n      tag_130\n      jump\t// in\n    tag_134:\n    tag_133:\n        /* \"contracts/facets/DealersFacet.sol\":5591:5592  s */\n      0x00\n        /* \"contracts/facets/DealersFacet.sol\":5591:5603  s.dealerPlan */\n      0x37\n      add\n        /* \"contracts/facets/DealersFacet.sol\":5591:5612  s.dealerPlan[_dealer] */\n      0x00\n        /* \"contracts/facets/DealersFacet.sol\":5604:5611  _dealer */\n      dup5\n        /* \"contracts/facets/DealersFacet.sol\":5591:5612  s.dealerPlan[_dealer] */\n      0xffffffffffffffffffffffffffffffffffffffff\n      and\n      0xffffffffffffffffffffffffffffffffffffffff\n      and\n      dup2\n      mstore\n      0x20\n      add\n      swap1\n      dup2\n      mstore\n      0x20\n      add\n      0x00\n      keccak256\n      sload\n        /* \"contracts/facets/DealersFacet.sol\":5591:5643  s.dealerPlan[_dealer] == uint256(DealersPlan.PLAN_B) */\n      eq\n        /* \"contracts/facets/DealersFacet.sol\":5587:5815  if (s.dealerPlan[_dealer] == uint256(DealersPlan.PLAN_B)) {... */\n      iszero\n      tag_135\n      jumpi\n        /* \"contracts/libraries/Utils.sol\":1348:1366  120000000000000000 */\n      0x01aa535d3d0c0000\n        /* \"contracts/facets/DealersFacet.sol\":5659:5687  return Utils.PLAN_B_DISCOUNT */\n      swap1\n      pop\n      jump(tag_127)\n        /* \"contracts/facets/DealersFacet.sol\":5587:5815  if (s.dealerPlan[_dealer] == uint256(DealersPlan.PLAN_B)) {... */\n    tag_135:\n        /* \"contracts/facets/DealersFacet.sol\":5741:5759  DealersPlan.PLAN_C */\n      0x02\n        /* \"contracts/facets/DealersFacet.sol\":5733:5760  uint256(DealersPlan.PLAN_C) */\n      dup1\n      dup2\n      gt\n      iszero\n      tag_137\n      jumpi\n      tag_138\n      tag_130\n      jump\t// in\n    tag_138:\n    tag_137:\n        /* \"contracts/facets/DealersFacet.sol\":5708:5709  s */\n      0x00\n        /* \"contracts/facets/DealersFacet.sol\":5708:5720  s.dealerPlan */\n      0x37\n      add\n        /* \"contracts/facets/DealersFacet.sol\":5708:5729  s.dealerPlan[_dealer] */\n      0x00\n        /* \"contracts/facets/DealersFacet.sol\":5721:5728  _dealer */\n      dup5\n        /* \"contracts/facets/DealersFacet.sol\":5708:5729  s.dealerPlan[_dealer] */\n      0xffffffffffffffffffffffffffffffffffffffff\n      and\n      0xffffffffffffffffffffffffffffffffffffffff\n      and\n      dup2\n      mstore\n      0x20\n      add\n      swap1\n      dup2\n      mstore\n      0x20\n      add\n      0x00\n      keccak256\n      sload\n        /* \"contracts/facets/DealersFacet.sol\":5708:5760  s.dealerPlan[_dealer] == uint256(DealersPlan.PLAN_C) */\n      eq\n        /* \"contracts/facets/DealersFacet.sol\":5704:5815  if (s.dealerPlan[_dealer] == uint256(DealersPlan.PLAN_C)) {... */\n      iszero\n      tag_139\n      jumpi\n        /* \"contracts/libraries/Utils.sol\":1407:1424  50000000000000000 */\n      0xb1a2bc2ec50000\n        /* \"contracts/facets/DealersFacet.sol\":5776:5804  return Utils.PLAN_C_DISCOUNT */\n      swap1\n      pop\n      jump(tag_127)\n        /* \"contracts/facets/DealersFacet.sol\":5704:5815  if (s.dealerPlan[_dealer] == uint256(DealersPlan.PLAN_C)) {... */\n    tag_139:\n        /* \"contracts/facets/DealersFacet.sol\":5832:5833  0 */\n      0x00\n        /* \"contracts/facets/DealersFacet.sol\":5825:5833  return 0 */\n      swap1\n      pop\n        /* \"contracts/facets/DealersFacet.sol\":5370:5840  function getPlanPercentage(... */\n    tag_127:\n      swap2\n      swap1\n      pop\n      jump\t// out\n        /* \"contracts/facets/DealersFacet.sol\":2367:3077  function configureDealersPlan(... */\n    tag_40:\n        /* \"contracts/facets/DealersFacet.sol\":2254:2280  LibDiamond.contractOwner() */\n      tag_141\n        /* \"contracts/facets/DealersFacet.sol\":2254:2278  LibDiamond.contractOwner */\n      tag_142\n        /* \"contracts/facets/DealersFacet.sol\":2254:2280  LibDiamond.contractOwner() */\n      jump\t// in\n    tag_141:\n        /* \"contracts/facets/DealersFacet.sol\":2238:2280  _msgSender() == LibDiamond.contractOwner() */\n      0xffffffffffffffffffffffffffffffffffffffff\n      and\n        /* \"contracts/facets/DealersFacet.sol\":2238:2250  _msgSender() */\n      tag_143\n        /* \"contracts/facets/DealersFacet.sol\":2238:2248  _msgSender */\n      tag_89\n        /* \"contracts/facets/DealersFacet.sol\":2238:2250  _msgSender() */\n      jump\t// in\n    tag_143:\n        /* \"contracts/facets/DealersFacet.sol\":2238:2280  _msgSender() == LibDiamond.contractOwner() */\n      0xffffffffffffffffffffffffffffffffffffffff\n      and\n      eq\n        /* \"contracts/facets/DealersFacet.sol\":2217:2343  require(... */\n      tag_144\n      jumpi\n      mload(0x40)\n      0x08c379a000000000000000000000000000000000000000000000000000000000\n      dup2\n      mstore\n      0x04\n      add\n      tag_145\n      swap1\n      tag_146\n      jump\t// in\n    tag_145:\n      mload(0x40)\n      dup1\n      swap2\n      sub\n      swap1\n      revert\n    tag_144:\n        /* \"contracts/facets/DealersFacet.sol\":2628:2635  _plan_a */\n      dup5\n        /* \"contracts/facets/DealersFacet.sol\":2583:2584  s */\n      0x00\n        /* \"contracts/facets/DealersFacet.sol\":2583:2596  s.dealersPlan */\n      0x33\n      add\n        /* \"contracts/facets/DealersFacet.sol\":2583:2625  s.dealersPlan[uint256(DealersPlan.PLAN_A)] */\n      0x00\n        /* \"contracts/facets/DealersFacet.sol\":2605:2623  DealersPlan.PLAN_A */\n      dup1\n        /* \"contracts/facets/DealersFacet.sol\":2597:2624  uint256(DealersPlan.PLAN_A) */\n      0x02\n      dup2\n      gt\n      iszero\n      tag_148\n      jumpi\n      tag_149\n      tag_130\n      jump\t// in\n    tag_149:\n    tag_148:\n        /* \"contracts/facets/DealersFacet.sol\":2583:2625  s.dealersPlan[uint256(DealersPlan.PLAN_A)] */\n      dup2\n      mstore\n      0x20\n      add\n      swap1\n      dup2\n      mstore\n      0x20\n      add\n      0x00\n      keccak256\n        /* \"contracts/facets/DealersFacet.sol\":2583:2635  s.dealersPlan[uint256(DealersPlan.PLAN_A)] = _plan_a */\n      dup2\n      swap1\n      sstore\n      pop\n        /* \"contracts/facets/DealersFacet.sol\":2690:2697  _plan_b */\n      dup4\n        /* \"contracts/facets/DealersFacet.sol\":2645:2646  s */\n      0x00\n        /* \"contracts/facets/DealersFacet.sol\":2645:2658  s.dealersPlan */\n      0x33\n      add\n        /* \"contracts/facets/DealersFacet.sol\":2645:2687  s.dealersPlan[uint256(DealersPlan.PLAN_B)] */\n      0x00\n        /* \"contracts/facets/DealersFacet.sol\":2667:2685  DealersPlan.PLAN_B */\n      0x01\n        /* \"contracts/facets/DealersFacet.sol\":2659:2686  uint256(DealersPlan.PLAN_B) */\n      0x02\n      dup2\n      gt\n      iszero\n      tag_150\n      jumpi\n      tag_151\n      tag_130\n      jump\t// in\n    tag_151:\n    tag_150:\n        /* \"contracts/facets/DealersFacet.sol\":2645:2687  s.dealersPlan[uint256(DealersPlan.PLAN_B)] */\n      dup2\n      mstore\n      0x20\n      add\n      swap1\n      dup2\n      mstore\n      0x20\n      add\n      0x00\n      keccak256\n        /* \"contracts/facets/DealersFacet.sol\":2645:2697  s.dealersPlan[uint256(DealersPlan.PLAN_B)] = _plan_b */\n      dup2\n      swap1\n      sstore\n      pop\n        /* \"contracts/facets/DealersFacet.sol\":2752:2759  _plan_c */\n      dup3\n        /* \"contracts/facets/DealersFacet.sol\":2707:2708  s */\n      0x00\n        /* \"contracts/facets/DealersFacet.sol\":2707:2720  s.dealersPlan */\n      0x33\n      add\n        /* \"contracts/facets/DealersFacet.sol\":2707:2749  s.dealersPlan[uint256(DealersPlan.PLAN_C)] */\n      0x00\n        /* \"contracts/facets/DealersFacet.sol\":2729:2747  DealersPlan.PLAN_C */\n      0x02\n        /* \"contracts/facets/DealersFacet.sol\":2721:2748  uint256(DealersPlan.PLAN_C) */\n      dup1\n      dup2\n      gt\n      iszero\n      tag_152\n      jumpi\n      tag_153\n      tag_130\n      jump\t// in\n    tag_153:\n    tag_152:\n        /* \"contracts/facets/DealersFacet.sol\":2707:2749  s.dealersPlan[uint256(DealersPlan.PLAN_C)] */\n      dup2\n      mstore\n      0x20\n      add\n      swap1\n      dup2\n      mstore\n      0x20\n      add\n      0x00\n      keccak256\n        /* \"contracts/facets/DealersFacet.sol\":2707:2759  s.dealersPlan[uint256(DealersPlan.PLAN_C)] = _plan_c */\n      dup2\n      swap1\n      sstore\n      pop\n        /* \"contracts/facets/DealersFacet.sol\":2787:2800  _token_addres */\n      dup2\n        /* \"contracts/facets/DealersFacet.sol\":2769:2770  s */\n      0x00\n        /* \"contracts/facets/DealersFacet.sol\":2769:2784  s._token_addres */\n      0x34\n      add\n      0x00\n        /* \"contracts/facets/DealersFacet.sol\":2769:2800  s._token_addres = _token_addres */\n      0x0100\n      exp\n      dup2\n      sload\n      dup2\n      0xffffffffffffffffffffffffffffffffffffffff\n      mul\n      not\n      and\n      swap1\n      dup4\n      0xffffffffffffffffffffffffffffffffffffffff\n      and\n      mul\n      or\n      swap1\n      sstore\n      pop\n        /* \"contracts/facets/DealersFacet.sol\":2841:2868  _dealerSubcriptionCollector */\n      dup1\n        /* \"contracts/facets/DealersFacet.sol\":2810:2811  s */\n      0x00\n        /* \"contracts/facets/DealersFacet.sol\":2810:2838  s.dealerSubcriptionCollector */\n      0x38\n      add\n      0x00\n        /* \"contracts/facets/DealersFacet.sol\":2810:2868  s.dealerSubcriptionCollector = _dealerSubcriptionCollector */\n      0x0100\n      exp\n      dup2\n      sload\n      dup2\n      0xffffffffffffffffffffffffffffffffffffffff\n      mul\n      not\n      and\n      swap1\n      dup4\n      0xffffffffffffffffffffffffffffffffffffffff\n      and\n      mul\n      or\n      swap1\n      sstore\n      pop\n        /* \"contracts/facets/DealersFacet.sol\":2884:3070  DealerPlansEdited(... */\n      0x74ef99e9f61d2fb45df1c75adff49a40d916acf825590dcec368ed4a012ddd89\n        /* \"contracts/facets/DealersFacet.sol\":2915:2922  _plan_a */\n      dup6\n        /* \"contracts/facets/DealersFacet.sol\":2936:2943  _plan_b */\n      dup6\n        /* \"contracts/facets/DealersFacet.sol\":2957:2964  _plan_c */\n      dup6\n        /* \"contracts/facets/DealersFacet.sol\":2978:3005  _dealerSubcriptionCollector */\n      dup5\n        /* \"contracts/facets/DealersFacet.sol\":3019:3034  block.timestamp */\n      timestamp\n        /* \"contracts/facets/DealersFacet.sol\":3048:3060  _msgSender() */\n      tag_154\n        /* \"contracts/facets/DealersFacet.sol\":3048:3058  _msgSender */\n      tag_89\n        /* \"contracts/facets/DealersFacet.sol\":3048:3060  _msgSender() */\n      jump\t// in\n    tag_154:\n        /* \"contracts/facets/DealersFacet.sol\":2884:3070  DealerPlansEdited(... */\n      mload(0x40)\n      tag_155\n      swap7\n      swap6\n      swap5\n      swap4\n      swap3\n      swap2\n      swap1\n      tag_156\n      jump\t// in\n    tag_155:\n      mload(0x40)\n      dup1\n      swap2\n      sub\n      swap1\n      log1\n        /* \"contracts/facets/DealersFacet.sol\":2367:3077  function configureDealersPlan(... */\n      pop\n      pop\n      pop\n      pop\n      pop\n      jump\t// out\n        /* \"contracts/facets/DealersFacet.sol\":9675:9876  function dealerCollectorStats()... */\n    tag_42:\n        /* \"contracts/facets/DealersFacet.sol\":9754:9769  uint256 _amount */\n      0x00\n        /* \"contracts/facets/DealersFacet.sol\":9771:9787  uint _totalTaken */\n      dup1\n        /* \"contracts/facets/DealersFacet.sol\":9811:9812  s */\n      0x00\n        /* \"contracts/facets/DealersFacet.sol\":9811:9846  s.dealerSubcriptionCollectorBalance */\n      0x3a\n      add\n      sload\n        /* \"contracts/facets/DealersFacet.sol\":9848:9868  totalRewardCollected */\n      sload(0x47)\n        /* \"contracts/facets/DealersFacet.sol\":9803:9869  return (s.dealerSubcriptionCollectorBalance, totalRewardCollected) */\n      swap2\n      pop\n      swap2\n      pop\n        /* \"contracts/facets/DealersFacet.sol\":9675:9876  function dealerCollectorStats()... */\n      swap1\n      swap2\n      jump\t// out\n        /* \"contracts/facets/DealersFacet.sol\":4166:5364  function becomeADealerWithReferral(... */\n    tag_48:\n        /* \"contracts/facets/DealersFacet.sol\":4347:4348  s */\n      0x00\n        /* \"contracts/facets/DealersFacet.sol\":4347:4365  s.dealerExpiryDate */\n      0x35\n      add\n        /* \"contracts/facets/DealersFacet.sol\":4347:4374  s.dealerExpiryDate[_dealer] */\n      0x00\n        /* \"contracts/facets/DealersFacet.sol\":4366:4373  _dealer */\n      dup5\n        /* \"contracts/facets/DealersFacet.sol\":4347:4374  s.dealerExpiryDate[_dealer] */\n      0xffffffffffffffffffffffffffffffffffffffff\n      and\n      0xffffffffffffffffffffffffffffffffffffffff\n      and\n      dup2\n      mstore\n      0x20\n      add\n      swap1\n      dup2\n      mstore\n      0x20\n      add\n      0x00\n      keccak256\n      sload\n        /* \"contracts/facets/DealersFacet.sol\":4328:4343  block.timestamp */\n      timestamp\n        /* \"contracts/facets/DealersFacet.sol\":4328:4374  block.timestamp >= s.dealerExpiryDate[_dealer] */\n      lt\n      iszero\n        /* \"contracts/facets/DealersFacet.sol\":4307:4437  require(... */\n      tag_159\n      jumpi\n      mload(0x40)\n      0x08c379a000000000000000000000000000000000000000000000000000000000\n      dup2\n      mstore\n      0x04\n      add\n      tag_160\n      swap1\n      tag_83\n      jump\t// in\n    tag_160:\n      mload(0x40)\n      dup1\n      swap2\n      sub\n      swap1\n      revert\n    tag_159:\n        /* \"contracts/facets/DealersFacet.sol\":4447:4461  uint256 amount */\n      0x00\n        /* \"contracts/facets/DealersFacet.sol\":4464:4465  s */\n      dup1\n        /* \"contracts/facets/DealersFacet.sol\":4464:4477  s.dealersPlan */\n      0x33\n      add\n        /* \"contracts/facets/DealersFacet.sol\":4464:4490  s.dealersPlan[_dealerPlan] */\n      0x00\n        /* \"contracts/facets/DealersFacet.sol\":4478:4489  _dealerPlan */\n      dup5\n        /* \"contracts/facets/DealersFacet.sol\":4464:4490  s.dealersPlan[_dealerPlan] */\n      dup2\n      mstore\n      0x20\n      add\n      swap1\n      dup2\n      mstore\n      0x20\n      add\n      0x00\n      keccak256\n      sload\n        /* \"contracts/facets/DealersFacet.sol\":4447:4490  uint256 amount = s.dealersPlan[_dealerPlan] */\n      swap1\n      pop\n        /* \"contracts/facets/DealersFacet.sol\":4524:4535  _dealerPlan */\n      dup3\n        /* \"contracts/facets/DealersFacet.sol\":4500:4501  s */\n      0x00\n        /* \"contracts/facets/DealersFacet.sol\":4500:4512  s.dealerPlan */\n      0x37\n      add\n        /* \"contracts/facets/DealersFacet.sol\":4500:4521  s.dealerPlan[_dealer] */\n      0x00\n        /* \"contracts/facets/DealersFacet.sol\":4513:4520  _dealer */\n      dup7\n        /* \"contracts/facets/DealersFacet.sol\":4500:4521  s.dealerPlan[_dealer] */\n      0xffffffffffffffffffffffffffffffffffffffff\n      and\n      0xffffffffffffffffffffffffffffffffffffffff\n      and\n      dup2\n      mstore\n      0x20\n      add\n      swap1\n      dup2\n      mstore\n      0x20\n      add\n      0x00\n      keccak256\n        /* \"contracts/facets/DealersFacet.sol\":4500:4535  s.dealerPlan[_dealer] = _dealerPlan */\n      dup2\n      swap1\n      sstore\n      pop\n        /* \"contracts/facets/DealersFacet.sol\":4562:4563  0 */\n      0x00\n        /* \"contracts/facets/DealersFacet.sol\":4553:4559  amount */\n      dup2\n        /* \"contracts/facets/DealersFacet.sol\":4553:4563  amount > 0 */\n      gt\n        /* \"contracts/facets/DealersFacet.sol\":4545:4580  require(amount > 0, \"Invalid plan\") */\n      tag_161\n      jumpi\n      mload(0x40)\n      0x08c379a000000000000000000000000000000000000000000000000000000000\n      dup2\n      mstore\n      0x04\n      add\n      tag_162\n      swap1\n      tag_86\n      jump\t// in\n    tag_162:\n      mload(0x40)\n      dup1\n      swap2\n      sub\n      swap1\n      revert\n    tag_161:\n        /* \"contracts/facets/DealersFacet.sol\":4590:4608  uint256 expiryDate */\n      0x00\n        /* \"contracts/facets/DealersFacet.sol\":4611:4640  block.timestamp.add(365 days) */\n      tag_163\n        /* \"contracts/facets/DealersFacet.sol\":4631:4639  365 days */\n      0x01e13380\n        /* \"contracts/facets/DealersFacet.sol\":4611:4626  block.timestamp */\n      timestamp\n        /* \"contracts/facets/DealersFacet.sol\":4611:4630  block.timestamp.add */\n      tag_52\n      swap1\n        /* \"contracts/facets/DealersFacet.sol\":4611:4640  block.timestamp.add(365 days) */\n      swap2\n      swap1\n      0xffffffff\n      and\n      jump\t// in\n    tag_163:\n        /* \"contracts/facets/DealersFacet.sol\":4590:4640  uint256 expiryDate = block.timestamp.add(365 days) */\n      swap1\n      pop\n        /* \"contracts/facets/DealersFacet.sol\":4680:4690  expiryDate */\n      dup1\n        /* \"contracts/facets/DealersFacet.sol\":4650:4651  s */\n      0x00\n        /* \"contracts/facets/DealersFacet.sol\":4650:4668  s.dealerExpiryDate */\n      0x35\n      add\n        /* \"contracts/facets/DealersFacet.sol\":4650:4677  s.dealerExpiryDate[_dealer] */\n      0x00\n        /* \"contracts/facets/DealersFacet.sol\":4669:4676  _dealer */\n      dup8\n        /* \"contracts/facets/DealersFacet.sol\":4650:4677  s.dealerExpiryDate[_dealer] */\n      0xffffffffffffffffffffffffffffffffffffffff\n      and\n      0xffffffffffffffffffffffffffffffffffffffff\n      and\n      dup2\n      mstore\n      0x20\n      add\n      swap1\n      dup2\n      mstore\n      0x20\n      add\n      0x00\n      keccak256\n        /* \"contracts/facets/DealersFacet.sol\":4650:4690  s.dealerExpiryDate[_dealer] = expiryDate */\n      dup2\n      swap1\n      sstore\n      pop\n        /* \"contracts/facets/DealersFacet.sol\":4723:4727  true */\n      0x01\n        /* \"contracts/facets/DealersFacet.sol\":4700:4701  s */\n      0x00\n        /* \"contracts/facets/DealersFacet.sol\":4700:4711  s.isADealer */\n      0x36\n      add\n        /* \"contracts/facets/DealersFacet.sol\":4700:4720  s.isADealer[_dealer] */\n      0x00\n        /* \"contracts/facets/DealersFacet.sol\":4712:4719  _dealer */\n      dup8\n        /* \"contracts/facets/DealersFacet.sol\":4700:4720  s.isADealer[_dealer] */\n      0xffffffffffffffffffffffffffffffffffffffff\n      and\n      0xffffffffffffffffffffffffffffffffffffffff\n      and\n      dup2\n      mstore\n      0x20\n      add\n      swap1\n      dup2\n      mstore\n      0x20\n      add\n      0x00\n      keccak256\n      0x00\n        /* \"contracts/facets/DealersFacet.sol\":4700:4727  s.isADealer[_dealer] = true */\n      0x0100\n      exp\n      dup2\n      sload\n      dup2\n      0xff\n      mul\n      not\n      and\n      swap1\n      dup4\n      iszero\n      iszero\n      mul\n      or\n      swap1\n      sstore\n      pop\n        /* \"contracts/facets/DealersFacet.sol\":4737:4750  IERC20 iERC20 */\n      0x00\n        /* \"contracts/facets/DealersFacet.sol\":4760:4761  s */\n      dup1\n        /* \"contracts/facets/DealersFacet.sol\":4760:4775  s._token_addres */\n      0x34\n      add\n      0x00\n      swap1\n      sload\n      swap1\n      0x0100\n      exp\n      swap1\n      div\n      0xffffffffffffffffffffffffffffffffffffffff\n      and\n        /* \"contracts/facets/DealersFacet.sol\":4737:4776  IERC20 iERC20 = IERC20(s._token_addres) */\n      swap1\n      pop\n        /* \"contracts/facets/DealersFacet.sol\":4856:4862  amount */\n      dup3\n        /* \"contracts/facets/DealersFacet.sol\":4807:4813  iERC20 */\n      dup2\n        /* \"contracts/facets/DealersFacet.sol\":4807:4823  iERC20.allowance */\n      0xffffffffffffffffffffffffffffffffffffffff\n      and\n      0xdd62ed3e\n        /* \"contracts/facets/DealersFacet.sol\":4824:4836  _msgSender() */\n      tag_164\n        /* \"contracts/facets/DealersFacet.sol\":4824:4834  _msgSender */\n      tag_89\n        /* \"contracts/facets/DealersFacet.sol\":4824:4836  _msgSender() */\n      jump\t// in\n    tag_164:\n        /* \"contracts/facets/DealersFacet.sol\":4846:4850  this */\n      address\n        /* \"contracts/facets/DealersFacet.sol\":4807:4852  iERC20.allowance(_msgSender(), address(this)) */\n      mload(0x40)\n      dup4\n      0xffffffff\n      and\n      0xe0\n      shl\n      dup2\n      mstore\n      0x04\n      add\n      tag_165\n      swap3\n      swap2\n      swap1\n      tag_91\n      jump\t// in\n    tag_165:\n      0x20\n      mload(0x40)\n      dup1\n      dup4\n      sub\n      dup2\n      dup7\n      gas\n      staticcall\n      iszero\n      dup1\n      iszero\n      tag_167\n      jumpi\n      returndatasize\n      0x00\n      dup1\n      returndatacopy\n      revert(0x00, returndatasize)\n    tag_167:\n      pop\n      pop\n      pop\n      pop\n      mload(0x40)\n      returndatasize\n      not(0x1f)\n      0x1f\n      dup3\n      add\n      and\n      dup3\n      add\n      dup1\n      0x40\n      mstore\n      pop\n      dup2\n      add\n      swap1\n      tag_168\n      swap2\n      swap1\n      tag_95\n      jump\t// in\n    tag_168:\n        /* \"contracts/facets/DealersFacet.sol\":4807:4862  iERC20.allowance(_msgSender(), address(this)) >= amount */\n      lt\n      iszero\n        /* \"contracts/facets/DealersFacet.sol\":4786:4934  require(... */\n      tag_169\n      jumpi\n      mload(0x40)\n      0x08c379a000000000000000000000000000000000000000000000000000000000\n      dup2\n      mstore\n      0x04\n      add\n      tag_170\n      swap1\n      tag_98\n      jump\t// in\n    tag_170:\n      mload(0x40)\n      dup1\n      swap2\n      sub\n      swap1\n      revert\n    tag_169:\n        /* \"contracts/facets/DealersFacet.sol\":4965:5026  dealerReferralHelperWithAReferral(_dealer, _referral, amount) */\n      tag_171\n        /* \"contracts/facets/DealersFacet.sol\":4999:5006  _dealer */\n      dup7\n        /* \"contracts/facets/DealersFacet.sol\":5008:5017  _referral */\n      dup6\n        /* \"contracts/facets/DealersFacet.sol\":5019:5025  amount */\n      dup6\n        /* \"contracts/facets/DealersFacet.sol\":4965:4998  dealerReferralHelperWithAReferral */\n      tag_172\n        /* \"contracts/facets/DealersFacet.sol\":4965:5026  dealerReferralHelperWithAReferral(_dealer, _referral, amount) */\n      jump\t// in\n    tag_171:\n        /* \"contracts/facets/DealersFacet.sol\":4944:5067  require(... */\n      tag_173\n      jumpi\n      mload(0x40)\n      0x08c379a000000000000000000000000000000000000000000000000000000000\n      dup2\n      mstore\n      0x04\n      add\n      tag_174\n      swap1\n      tag_175\n      jump\t// in\n    tag_174:\n      mload(0x40)\n      dup1\n      swap2\n      sub\n      swap1\n      revert\n    tag_173:\n        /* \"contracts/facets/DealersFacet.sol\":5099:5105  iERC20 */\n      dup1\n        /* \"contracts/facets/DealersFacet.sol\":5099:5118  iERC20.transferFrom */\n      0xffffffffffffffffffffffffffffffffffffffff\n      and\n      0x23b872dd\n        /* \"contracts/facets/DealersFacet.sol\":5119:5131  _msgSender() */\n      tag_176\n        /* \"contracts/facets/DealersFacet.sol\":5119:5129  _msgSender */\n      tag_89\n        /* \"contracts/facets/DealersFacet.sol\":5119:5131  _msgSender() */\n      jump\t// in\n    tag_176:\n        /* \"contracts/facets/DealersFacet.sol\":5141:5145  this */\n      address\n        /* \"contracts/facets/DealersFacet.sol\":5148:5154  amount */\n      dup7\n        /* \"contracts/facets/DealersFacet.sol\":5099:5155  iERC20.transferFrom(_msgSender(), address(this), amount) */\n      mload(0x40)\n      dup5\n      0xffffffff\n      and\n      0xe0\n      shl\n      dup2\n      mstore\n      0x04\n      add\n      tag_177\n      swap4\n      swap3\n      swap2\n      swap1\n      tag_106\n      jump\t// in\n    tag_177:\n      0x20\n      mload(0x40)\n      dup1\n      dup4\n      sub\n      dup2\n      0x00\n      dup8\n      gas\n      call\n      iszero\n      dup1\n      iszero\n      tag_179\n      jumpi\n      returndatasize\n      0x00\n      dup1\n      returndatacopy\n      revert(0x00, returndatasize)\n    tag_179:\n      pop\n      pop\n      pop\n      pop\n      mload(0x40)\n      returndatasize\n      not(0x1f)\n      0x1f\n      dup3\n      add\n      and\n      dup3\n      add\n      dup1\n      0x40\n      mstore\n      pop\n      dup2\n      add\n      swap1\n      tag_180\n      swap2\n      swap1\n      tag_72\n      jump\t// in\n    tag_180:\n        /* \"contracts/facets/DealersFacet.sol\":5078:5197  require(... */\n      tag_181\n      jumpi\n      mload(0x40)\n      0x08c379a000000000000000000000000000000000000000000000000000000000\n      dup2\n      mstore\n      0x04\n      add\n      tag_182\n      swap1\n      tag_75\n      jump\t// in\n    tag_182:\n      mload(0x40)\n      dup1\n      swap2\n      sub\n      swap1\n      revert\n    tag_181:\n        /* \"contracts/facets/DealersFacet.sol\":5212:5357  DealerSubscribed(... */\n      0xcb780c1b203d42c77c54c594aaa57f696b57039cf9eefce5266255e154ea1e0b\n        /* \"contracts/facets/DealersFacet.sol\":5242:5249  _dealer */\n      dup7\n        /* \"contracts/facets/DealersFacet.sol\":5263:5269  amount */\n      dup5\n        /* \"contracts/facets/DealersFacet.sol\":5283:5293  expiryDate */\n      dup5\n        /* \"contracts/facets/DealersFacet.sol\":5307:5318  _dealerPlan */\n      dup9\n        /* \"contracts/facets/DealersFacet.sol\":5332:5347  block.timestamp */\n      timestamp\n        /* \"contracts/facets/DealersFacet.sol\":5212:5357  DealerSubscribed(... */\n      mload(0x40)\n      tag_183\n      swap6\n      swap5\n      swap4\n      swap3\n      swap2\n      swap1\n      tag_113\n      jump\t// in\n    tag_183:\n      mload(0x40)\n      dup1\n      swap2\n      sub\n      swap1\n      log1\n        /* \"contracts/facets/DealersFacet.sol\":4297:5364  {... */\n      pop\n      pop\n      pop\n        /* \"contracts/facets/DealersFacet.sol\":4166:5364  function becomeADealerWithReferral(... */\n      pop\n      pop\n      pop\n      jump\t// out\n        /* \"contracts/libraries/SafeMath.sol\":2749:2845  function add(uint256 a, uint256 b) internal pure returns (uint256) {... */\n    tag_52:\n        /* \"contracts/libraries/SafeMath.sol\":2807:2814  uint256 */\n      0x00\n        /* \"contracts/libraries/SafeMath.sol\":2837:2838  b */\n      dup2\n        /* \"contracts/libraries/SafeMath.sol\":2833:2834  a */\n      dup4\n        /* \"contracts/libraries/SafeMath.sol\":2833:2838  a + b */\n      tag_185\n      swap2\n      swap1\n      tag_186\n      jump\t// in\n    tag_185:\n        /* \"contracts/libraries/SafeMath.sol\":2826:2838  return a + b */\n      swap1\n      pop\n        /* \"contracts/libraries/SafeMath.sol\":2749:2845  function add(uint256 a, uint256 b) internal pure returns (uint256) {... */\n      swap3\n      swap2\n      pop\n      pop\n      jump\t// out\n        /* \"contracts/facets/DealersFacet.sol\":2084:2180  function _msgSender() internal view virtual returns (address) {... */\n    tag_89:\n        /* \"contracts/facets/DealersFacet.sol\":2137:2144  address */\n      0x00\n        /* \"contracts/facets/DealersFacet.sol\":2163:2173  msg.sender */\n      caller\n        /* \"contracts/facets/DealersFacet.sol\":2156:2173  return msg.sender */\n      swap1\n      pop\n        /* \"contracts/facets/DealersFacet.sol\":2084:2180  function _msgSender() internal view virtual returns (address) {... */\n      swap1\n      jump\t// out\n        /* \"contracts/facets/DealersFacet.sol\":7669:8507  function dealerReferralHelper(... */\n    tag_100:\n        /* \"contracts/facets/DealersFacet.sol\":7771:7775  bool */\n      0x00\n        /* \"contracts/facets/DealersFacet.sol\":7787:7804  address _referral */\n      dup1\n        /* \"contracts/facets/DealersFacet.sol\":7807:7811  this */\n      address\n        /* \"contracts/facets/DealersFacet.sol\":7807:7830  this.getRewardNextSpill */\n      0xffffffffffffffffffffffffffffffffffffffff\n      and\n      0x1355a306\n        /* \"contracts/facets/DealersFacet.sol\":7807:7832  this.getRewardNextSpill() */\n      mload(0x40)\n      dup2\n      0xffffffff\n      and\n      0xe0\n      shl\n      dup2\n      mstore\n      0x04\n      add\n      0x20\n      mload(0x40)\n      dup1\n      dup4\n      sub\n      dup2\n      0x00\n      dup8\n      gas\n      call\n      iszero\n      dup1\n      iszero\n      tag_190\n      jumpi\n      returndatasize\n      0x00\n      dup1\n      returndatacopy\n      revert(0x00, returndatasize)\n    tag_190:\n      pop\n      pop\n      pop\n      pop\n      mload(0x40)\n      returndatasize\n      not(0x1f)\n      0x1f\n      dup3\n      add\n      and\n      dup3\n      add\n      dup1\n      0x40\n      mstore\n      pop\n      dup2\n      add\n      swap1\n      tag_191\n      swap2\n      swap1\n      tag_192\n      jump\t// in\n    tag_191:\n        /* \"contracts/facets/DealersFacet.sol\":7787:7832  address _referral = this.getRewardNextSpill() */\n      swap1\n      pop\n        /* \"contracts/facets/DealersFacet.sol\":7842:7855  uint256 bonus */\n      0x00\n        /* \"contracts/facets/DealersFacet.sol\":7858:7910  _amount.multiplyDecimal(Utils.DEALER_REFERRAL_BONUS) */\n      tag_193\n        /* \"contracts/libraries/Utils.sol\":1471:1489  200000000000000000 */\n      0x02c68af0bb140000\n        /* \"contracts/facets/DealersFacet.sol\":7858:7865  _amount */\n      dup6\n        /* \"contracts/facets/DealersFacet.sol\":7858:7881  _amount.multiplyDecimal */\n      tag_194\n      swap1\n        /* \"contracts/facets/DealersFacet.sol\":7858:7910  _amount.multiplyDecimal(Utils.DEALER_REFERRAL_BONUS) */\n      swap2\n      swap1\n      0xffffffff\n      and\n      jump\t// in\n    tag_193:\n        /* \"contracts/facets/DealersFacet.sol\":7842:7910  uint256 bonus = _amount.multiplyDecimal(Utils.DEALER_REFERRAL_BONUS) */\n      swap1\n      pop\n        /* \"contracts/facets/DealersFacet.sol\":7950:7959  _referral */\n      dup2\n        /* \"contracts/facets/DealersFacet.sol\":7921:7922  s */\n      0x00\n        /* \"contracts/facets/DealersFacet.sol\":7921:7940  s.deallerReferredBy */\n      0x3b\n      add\n        /* \"contracts/facets/DealersFacet.sol\":7921:7947  s.deallerReferredBy[_user] */\n      0x00\n        /* \"contracts/facets/DealersFacet.sol\":7941:7946  _user */\n      dup8\n        /* \"contracts/facets/DealersFacet.sol\":7921:7947  s.deallerReferredBy[_user] */\n      0xffffffffffffffffffffffffffffffffffffffff\n      and\n      0xffffffffffffffffffffffffffffffffffffffff\n      and\n      dup2\n      mstore\n      0x20\n      add\n      swap1\n      dup2\n      mstore\n      0x20\n      add\n      0x00\n      keccak256\n      0x00\n        /* \"contracts/facets/DealersFacet.sol\":7921:7959  s.deallerReferredBy[_user] = _referral */\n      0x0100\n      exp\n      dup2\n      sload\n      dup2\n      0xffffffffffffffffffffffffffffffffffffffff\n      mul\n      not\n      and\n      swap1\n      dup4\n      0xffffffffffffffffffffffffffffffffffffffff\n      and\n      mul\n      or\n      swap1\n      sstore\n      pop\n        /* \"contracts/facets/DealersFacet.sol\":8005:8071  s... */\n      tag_195\n        /* \"contracts/facets/DealersFacet.sol\":8069:8070  1 */\n      0x01\n        /* \"contracts/facets/DealersFacet.sol\":8005:8006  s */\n      0x00\n        /* \"contracts/facets/DealersFacet.sol\":8005:8040  s... */\n      0x3c\n      add\n        /* \"contracts/facets/DealersFacet.sol\":8005:8051  s... */\n      0x00\n        /* \"contracts/facets/DealersFacet.sol\":8041:8050  _referral */\n      dup6\n        /* \"contracts/facets/DealersFacet.sol\":8005:8051  s... */\n      0xffffffffffffffffffffffffffffffffffffffff\n      and\n      0xffffffffffffffffffffffffffffffffffffffff\n      and\n      dup2\n      mstore\n      0x20\n      add\n      swap1\n      dup2\n      mstore\n      0x20\n      add\n      0x00\n      keccak256\n      sload\n        /* \"contracts/facets/DealersFacet.sol\":8005:8068  s... */\n      tag_52\n      swap1\n        /* \"contracts/facets/DealersFacet.sol\":8005:8071  s... */\n      swap2\n      swap1\n      0xffffffff\n      and\n      jump\t// in\n    tag_195:\n        /* \"contracts/facets/DealersFacet.sol\":7969:7970  s */\n      0x00\n        /* \"contracts/facets/DealersFacet.sol\":7969:7991  s.deallerReferralCount */\n      0x3c\n      add\n        /* \"contracts/facets/DealersFacet.sol\":7969:8002  s.deallerReferralCount[_referral] */\n      0x00\n        /* \"contracts/facets/DealersFacet.sol\":7992:8001  _referral */\n      dup5\n        /* \"contracts/facets/DealersFacet.sol\":7969:8002  s.deallerReferralCount[_referral] */\n      0xffffffffffffffffffffffffffffffffffffffff\n      and\n      0xffffffffffffffffffffffffffffffffffffffff\n      and\n      dup2\n      mstore\n      0x20\n      add\n      swap1\n      dup2\n      mstore\n      0x20\n      add\n      0x00\n      keccak256\n        /* \"contracts/facets/DealersFacet.sol\":7969:8071  s.deallerReferralCount[_referral] = s... */\n      dup2\n      swap1\n      sstore\n      pop\n        /* \"contracts/facets/DealersFacet.sol\":8124:8201  s... */\n      tag_196\n        /* \"contracts/facets/DealersFacet.sol\":8195:8200  bonus */\n      dup2\n        /* \"contracts/facets/DealersFacet.sol\":8124:8125  s */\n      0x00\n        /* \"contracts/facets/DealersFacet.sol\":8124:8166  s... */\n      0x39\n      add\n        /* \"contracts/facets/DealersFacet.sol\":8124:8177  s... */\n      0x00\n        /* \"contracts/facets/DealersFacet.sol\":8167:8176  _referral */\n      dup6\n        /* \"contracts/facets/DealersFacet.sol\":8124:8177  s... */\n      0xffffffffffffffffffffffffffffffffffffffff\n      and\n      0xffffffffffffffffffffffffffffffffffffffff\n      and\n      dup2\n      mstore\n      0x20\n      add\n      swap1\n      dup2\n      mstore\n      0x20\n      add\n      0x00\n      keccak256\n      sload\n        /* \"contracts/facets/DealersFacet.sol\":8124:8194  s... */\n      tag_52\n      swap1\n        /* \"contracts/facets/DealersFacet.sol\":8124:8201  s... */\n      swap2\n      swap1\n      0xffffffff\n      and\n      jump\t// in\n    tag_196:\n        /* \"contracts/facets/DealersFacet.sol\":8081:8082  s */\n      0x00\n        /* \"contracts/facets/DealersFacet.sol\":8081:8110  s.referralDealerRewardBalance */\n      0x39\n      add\n        /* \"contracts/facets/DealersFacet.sol\":8081:8121  s.referralDealerRewardBalance[_referral] */\n      0x00\n        /* \"contracts/facets/DealersFacet.sol\":8111:8120  _referral */\n      dup5\n        /* \"contracts/facets/DealersFacet.sol\":8081:8121  s.referralDealerRewardBalance[_referral] */\n      0xffffffffffffffffffffffffffffffffffffffff\n      and\n      0xffffffffffffffffffffffffffffffffffffffff\n      and\n      dup2\n      mstore\n      0x20\n      add\n      swap1\n      dup2\n      mstore\n      0x20\n      add\n      0x00\n      keccak256\n        /* \"contracts/facets/DealersFacet.sol\":8081:8201  s.referralDealerRewardBalance[_referral] = s... */\n      dup2\n      swap1\n      sstore\n      pop\n        /* \"contracts/facets/DealersFacet.sol\":8249:8334  s... */\n      tag_197\n        /* \"contracts/facets/DealersFacet.sol\":8315:8333  _amount.sub(bonus) */\n      tag_198\n        /* \"contracts/facets/DealersFacet.sol\":8327:8332  bonus */\n      dup3\n        /* \"contracts/facets/DealersFacet.sol\":8315:8322  _amount */\n      dup7\n        /* \"contracts/facets/DealersFacet.sol\":8315:8326  _amount.sub */\n      tag_199\n      swap1\n        /* \"contracts/facets/DealersFacet.sol\":8315:8333  _amount.sub(bonus) */\n      swap2\n      swap1\n      0xffffffff\n      and\n      jump\t// in\n    tag_198:\n        /* \"contracts/facets/DealersFacet.sol\":8249:8250  s */\n      0x00\n        /* \"contracts/facets/DealersFacet.sol\":8249:8297  s... */\n      0x3a\n      add\n      sload\n        /* \"contracts/facets/DealersFacet.sol\":8249:8314  s... */\n      tag_52\n      swap1\n        /* \"contracts/facets/DealersFacet.sol\":8249:8334  s... */\n      swap2\n      swap1\n      0xffffffff\n      and\n      jump\t// in\n    tag_197:\n        /* \"contracts/facets/DealersFacet.sol\":8211:8212  s */\n      0x00\n        /* \"contracts/facets/DealersFacet.sol\":8211:8246  s.dealerSubcriptionCollectorBalance */\n      0x3a\n      add\n        /* \"contracts/facets/DealersFacet.sol\":8211:8334  s.dealerSubcriptionCollectorBalance = s... */\n      dup2\n      swap1\n      sstore\n      pop\n        /* \"contracts/facets/DealersFacet.sol\":8344:8361  Dealers memory _d */\n      0x00\n        /* \"contracts/facets/DealersFacet.sol\":8364:8388  Dealers({dealer: _user}) */\n      mload(0x40)\n      dup1\n      0x20\n      add\n      0x40\n      mstore\n      dup1\n        /* \"contracts/facets/DealersFacet.sol\":8381:8386  _user */\n      dup8\n        /* \"contracts/facets/DealersFacet.sol\":8364:8388  Dealers({dealer: _user}) */\n      0xffffffffffffffffffffffffffffffffffffffff\n      and\n      dup2\n      mstore\n      pop\n        /* \"contracts/facets/DealersFacet.sol\":8344:8388  Dealers memory _d = Dealers({dealer: _user}) */\n      swap1\n      pop\n        /* \"contracts/facets/DealersFacet.sol\":8398:8405  dealers */\n      0x45\n        /* \"contracts/facets/DealersFacet.sol\":8411:8413  _d */\n      dup2\n        /* \"contracts/facets/DealersFacet.sol\":8398:8414  dealers.push(_d) */\n      swap1\n      dup1\n      0x01\n      dup2\n      sload\n      add\n      dup1\n      dup3\n      sstore\n      dup1\n      swap2\n      pop\n      pop\n      0x01\n      swap1\n      sub\n      swap1\n      0x00\n      mstore\n      keccak256(0x00, 0x20)\n      add\n      0x00\n      swap1\n      swap2\n      swap1\n      swap2\n      swap1\n      swap2\n      pop\n      0x00\n      dup3\n      add\n      mload\n      dup2\n      0x00\n      add\n      exp(0x0100, 0x00)\n      dup2\n      sload\n      dup2\n      0xffffffffffffffffffffffffffffffffffffffff\n      mul\n      not\n      and\n      swap1\n      dup4\n      0xffffffffffffffffffffffffffffffffffffffff\n      and\n      mul\n      or\n      swap1\n      sstore\n      pop\n      pop\n      pop\n        /* \"contracts/facets/DealersFacet.sol\":8430:8479  DealerReferral(_user, _referral, block.timestamp) */\n      0x8b6d6a18f019af6e4d9a15cd5af8c9d590e5ce49183de541941fdf6e6d407a5f\n        /* \"contracts/facets/DealersFacet.sol\":8445:8450  _user */\n      dup7\n        /* \"contracts/facets/DealersFacet.sol\":8452:8461  _referral */\n      dup5\n        /* \"contracts/facets/DealersFacet.sol\":8463:8478  block.timestamp */\n      timestamp\n        /* \"contracts/facets/DealersFacet.sol\":8430:8479  DealerReferral(_user, _referral, block.timestamp) */\n      mload(0x40)\n      tag_201\n      swap4\n      swap3\n      swap2\n      swap1\n      tag_106\n      jump\t// in\n    tag_201:\n      mload(0x40)\n      dup1\n      swap2\n      sub\n      swap1\n      log1\n        /* \"contracts/facets/DealersFacet.sol\":8496:8500  true */\n      0x01\n        /* \"contracts/facets/DealersFacet.sol\":8489:8500  return true */\n      swap4\n      pop\n      pop\n      pop\n      pop\n        /* \"contracts/facets/DealersFacet.sol\":7669:8507  function dealerReferralHelper(... */\n      swap3\n      swap2\n      pop\n      pop\n      jump\t// out\n        /* \"contracts/libraries/LibDiamond.sol\":1669:1805  function contractOwner() internal view returns (address contractOwner_) {... */\n    tag_142:\n        /* \"contracts/libraries/LibDiamond.sol\":1717:1739  address contractOwner_ */\n      0x00\n        /* \"contracts/libraries/LibDiamond.sol\":1768:1784  diamondStorage() */\n      tag_203\n        /* \"contracts/libraries/LibDiamond.sol\":1768:1782  diamondStorage */\n      tag_204\n        /* \"contracts/libraries/LibDiamond.sol\":1768:1784  diamondStorage() */\n      jump\t// in\n    tag_203:\n        /* \"contracts/libraries/LibDiamond.sol\":1768:1798  diamondStorage().contractOwner */\n      0x03\n      add\n      0x00\n      swap1\n      sload\n      swap1\n      0x0100\n      exp\n      swap1\n      div\n      0xffffffffffffffffffffffffffffffffffffffff\n      and\n        /* \"contracts/libraries/LibDiamond.sol\":1751:1798  contractOwner_ = diamondStorage().contractOwner */\n      swap1\n      pop\n        /* \"contracts/libraries/LibDiamond.sol\":1669:1805  function contractOwner() internal view returns (address contractOwner_) {... */\n      swap1\n      jump\t// out\n        /* \"contracts/facets/DealersFacet.sol\":8513:9327  function dealerReferralHelperWithAReferral(... */\n    tag_172:\n        /* \"contracts/facets/DealersFacet.sol\":8655:8659  bool */\n      0x00\n        /* \"contracts/facets/DealersFacet.sol\":8671:8684  uint256 bonus */\n      dup1\n        /* \"contracts/facets/DealersFacet.sol\":8687:8732  _amount.multiplyDecimal(Utils.REFERRAL_BONUS) */\n      tag_206\n        /* \"contracts/libraries/Utils.sol\":971:989  400000000000000000 */\n      0x058d15e176280000\n        /* \"contracts/facets/DealersFacet.sol\":8687:8694  _amount */\n      dup5\n        /* \"contracts/facets/DealersFacet.sol\":8687:8710  _amount.multiplyDecimal */\n      tag_194\n      swap1\n        /* \"contracts/facets/DealersFacet.sol\":8687:8732  _amount.multiplyDecimal(Utils.REFERRAL_BONUS) */\n      swap2\n      swap1\n      0xffffffff\n      and\n      jump\t// in\n    tag_206:\n        /* \"contracts/facets/DealersFacet.sol\":8671:8732  uint256 bonus = _amount.multiplyDecimal(Utils.REFERRAL_BONUS) */\n      swap1\n      pop\n        /* \"contracts/facets/DealersFacet.sol\":8771:8780  _referral */\n      dup4\n        /* \"contracts/facets/DealersFacet.sol\":8742:8743  s */\n      0x00\n        /* \"contracts/facets/DealersFacet.sol\":8742:8761  s.deallerReferredBy */\n      0x3b\n      add\n        /* \"contracts/facets/DealersFacet.sol\":8742:8768  s.deallerReferredBy[_user] */\n      0x00\n        /* \"contracts/facets/DealersFacet.sol\":8762:8767  _user */\n      dup8\n        /* \"contracts/facets/DealersFacet.sol\":8742:8768  s.deallerReferredBy[_user] */\n      0xffffffffffffffffffffffffffffffffffffffff\n      and\n      0xffffffffffffffffffffffffffffffffffffffff\n      and\n      dup2\n      mstore\n      0x20\n      add\n      swap1\n      dup2\n      mstore\n      0x20\n      add\n      0x00\n      keccak256\n      0x00\n        /* \"contracts/facets/DealersFacet.sol\":8742:8780  s.deallerReferredBy[_user] = _referral */\n      0x0100\n      exp\n      dup2\n      sload\n      dup2\n      0xffffffffffffffffffffffffffffffffffffffff\n      mul\n      not\n      and\n      swap1\n      dup4\n      0xffffffffffffffffffffffffffffffffffffffff\n      and\n      mul\n      or\n      swap1\n      sstore\n      pop\n        /* \"contracts/facets/DealersFacet.sol\":8826:8892  s... */\n      tag_207\n        /* \"contracts/facets/DealersFacet.sol\":8890:8891  1 */\n      0x01\n        /* \"contracts/facets/DealersFacet.sol\":8826:8827  s */\n      0x00\n        /* \"contracts/facets/DealersFacet.sol\":8826:8861  s... */\n      0x3c\n      add\n        /* \"contracts/facets/DealersFacet.sol\":8826:8872  s... */\n      0x00\n        /* \"contracts/facets/DealersFacet.sol\":8862:8871  _referral */\n      dup8\n        /* \"contracts/facets/DealersFacet.sol\":8826:8872  s... */\n      0xffffffffffffffffffffffffffffffffffffffff\n      and\n      0xffffffffffffffffffffffffffffffffffffffff\n      and\n      dup2\n      mstore\n      0x20\n      add\n      swap1\n      dup2\n      mstore\n      0x20\n      add\n      0x00\n      keccak256\n      sload\n        /* \"contracts/facets/DealersFacet.sol\":8826:8889  s... */\n      tag_52\n      swap1\n        /* \"contracts/facets/DealersFacet.sol\":8826:8892  s... */\n      swap2\n      swap1\n      0xffffffff\n      and\n      jump\t// in\n    tag_207:\n        /* \"contracts/facets/DealersFacet.sol\":8790:8791  s */\n      0x00\n        /* \"contracts/facets/DealersFacet.sol\":8790:8812  s.deallerReferralCount */\n      0x3c\n      add\n        /* \"contracts/facets/DealersFacet.sol\":8790:8823  s.deallerReferralCount[_referral] */\n      0x00\n        /* \"contracts/facets/DealersFacet.sol\":8813:8822  _referral */\n      dup7\n        /* \"contracts/facets/DealersFacet.sol\":8790:8823  s.deallerReferralCount[_referral] */\n      0xffffffffffffffffffffffffffffffffffffffff\n      and\n      0xffffffffffffffffffffffffffffffffffffffff\n      and\n      dup2\n      mstore\n      0x20\n      add\n      swap1\n      dup2\n      mstore\n      0x20\n      add\n      0x00\n      keccak256\n        /* \"contracts/facets/DealersFacet.sol\":8790:8892  s.deallerReferralCount[_referral] = s... */\n      dup2\n      swap1\n      sstore\n      pop\n        /* \"contracts/facets/DealersFacet.sol\":8945:9022  s... */\n      tag_208\n        /* \"contracts/facets/DealersFacet.sol\":9016:9021  bonus */\n      dup2\n        /* \"contracts/facets/DealersFacet.sol\":8945:8946  s */\n      0x00\n        /* \"contracts/facets/DealersFacet.sol\":8945:8987  s... */\n      0x39\n      add\n        /* \"contracts/facets/DealersFacet.sol\":8945:8998  s... */\n      0x00\n        /* \"contracts/facets/DealersFacet.sol\":8988:8997  _referral */\n      dup8\n        /* \"contracts/facets/DealersFacet.sol\":8945:8998  s... */\n      0xffffffffffffffffffffffffffffffffffffffff\n      and\n      0xffffffffffffffffffffffffffffffffffffffff\n      and\n      dup2\n      mstore\n      0x20\n      add\n      swap1\n      dup2\n      mstore\n      0x20\n      add\n      0x00\n      keccak256\n      sload\n        /* \"contracts/facets/DealersFacet.sol\":8945:9015  s... */\n      tag_52\n      swap1\n        /* \"contracts/facets/DealersFacet.sol\":8945:9022  s... */\n      swap2\n      swap1\n      0xffffffff\n      and\n      jump\t// in\n    tag_208:\n        /* \"contracts/facets/DealersFacet.sol\":8902:8903  s */\n      0x00\n        /* \"contracts/facets/DealersFacet.sol\":8902:8931  s.referralDealerRewardBalance */\n      0x39\n      add\n        /* \"contracts/facets/DealersFacet.sol\":8902:8942  s.referralDealerRewardBalance[_referral] */\n      0x00\n        /* \"contracts/facets/DealersFacet.sol\":8932:8941  _referral */\n      dup7\n        /* \"contracts/facets/DealersFacet.sol\":8902:8942  s.referralDealerRewardBalance[_referral] */\n      0xffffffffffffffffffffffffffffffffffffffff\n      and\n      0xffffffffffffffffffffffffffffffffffffffff\n      and\n      dup2\n      mstore\n      0x20\n      add\n      swap1\n      dup2\n      mstore\n      0x20\n      add\n      0x00\n      keccak256\n        /* \"contracts/facets/DealersFacet.sol\":8902:9022  s.referralDealerRewardBalance[_referral] = s... */\n      dup2\n      swap1\n      sstore\n      pop\n        /* \"contracts/facets/DealersFacet.sol\":9070:9155  s... */\n      tag_209\n        /* \"contracts/facets/DealersFacet.sol\":9136:9154  _amount.sub(bonus) */\n      tag_210\n        /* \"contracts/facets/DealersFacet.sol\":9148:9153  bonus */\n      dup3\n        /* \"contracts/facets/DealersFacet.sol\":9136:9143  _amount */\n      dup6\n        /* \"contracts/facets/DealersFacet.sol\":9136:9147  _amount.sub */\n      tag_199\n      swap1\n        /* \"contracts/facets/DealersFacet.sol\":9136:9154  _amount.sub(bonus) */\n      swap2\n      swap1\n      0xffffffff\n      and\n      jump\t// in\n    tag_210:\n        /* \"contracts/facets/DealersFacet.sol\":9070:9071  s */\n      0x00\n        /* \"contracts/facets/DealersFacet.sol\":9070:9118  s... */\n      0x3a\n      add\n      sload\n        /* \"contracts/facets/DealersFacet.sol\":9070:9135  s... */\n      tag_52\n      swap1\n        /* \"contracts/facets/DealersFacet.sol\":9070:9155  s... */\n      swap2\n      swap1\n      0xffffffff\n      and\n      jump\t// in\n    tag_209:\n        /* \"contracts/facets/DealersFacet.sol\":9032:9033  s */\n      0x00\n        /* \"contracts/facets/DealersFacet.sol\":9032:9067  s.dealerSubcriptionCollectorBalance */\n      0x3a\n      add\n        /* \"contracts/facets/DealersFacet.sol\":9032:9155  s.dealerSubcriptionCollectorBalance = s... */\n      dup2\n      swap1\n      sstore\n      pop\n        /* \"contracts/facets/DealersFacet.sol\":9165:9182  Dealers memory _d */\n      0x00\n        /* \"contracts/facets/DealersFacet.sol\":9185:9209  Dealers({dealer: _user}) */\n      mload(0x40)\n      dup1\n      0x20\n      add\n      0x40\n      mstore\n      dup1\n        /* \"contracts/facets/DealersFacet.sol\":9202:9207  _user */\n      dup8\n        /* \"contracts/facets/DealersFacet.sol\":9185:9209  Dealers({dealer: _user}) */\n      0xffffffffffffffffffffffffffffffffffffffff\n      and\n      dup2\n      mstore\n      pop\n        /* \"contracts/facets/DealersFacet.sol\":9165:9209  Dealers memory _d = Dealers({dealer: _user}) */\n      swap1\n      pop\n        /* \"contracts/facets/DealersFacet.sol\":9219:9226  dealers */\n      0x45\n        /* \"contracts/facets/DealersFacet.sol\":9232:9234  _d */\n      dup2\n        /* \"contracts/facets/DealersFacet.sol\":9219:9235  dealers.push(_d) */\n      swap1\n      dup1\n      0x01\n      dup2\n      sload\n      add\n      dup1\n      dup3\n      sstore\n      dup1\n      swap2\n      pop\n      pop\n      0x01\n      swap1\n      sub\n      swap1\n      0x00\n      mstore\n      keccak256(0x00, 0x20)\n      add\n      0x00\n      swap1\n      swap2\n      swap1\n      swap2\n      swap1\n      swap2\n      pop\n      0x00\n      dup3\n      add\n      mload\n      dup2\n      0x00\n      add\n      exp(0x0100, 0x00)\n      dup2\n      sload\n      dup2\n      0xffffffffffffffffffffffffffffffffffffffff\n      mul\n      not\n      and\n      swap1\n      dup4\n      0xffffffffffffffffffffffffffffffffffffffff\n      and\n      mul\n      or\n      swap1\n      sstore\n      pop\n      pop\n      pop\n        /* \"contracts/facets/DealersFacet.sol\":9250:9299  DealerReferral(_user, _referral, block.timestamp) */\n      0x8b6d6a18f019af6e4d9a15cd5af8c9d590e5ce49183de541941fdf6e6d407a5f\n        /* \"contracts/facets/DealersFacet.sol\":9265:9270  _user */\n      dup7\n        /* \"contracts/facets/DealersFacet.sol\":9272:9281  _referral */\n      dup7\n        /* \"contracts/facets/DealersFacet.sol\":9283:9298  block.timestamp */\n      timestamp\n        /* \"contracts/facets/DealersFacet.sol\":9250:9299  DealerReferral(_user, _referral, block.timestamp) */\n      mload(0x40)\n      tag_212\n      swap4\n      swap3\n      swap2\n      swap1\n      tag_106\n      jump\t// in\n    tag_212:\n      mload(0x40)\n      dup1\n      swap2\n      sub\n      swap1\n      log1\n        /* \"contracts/facets/DealersFacet.sol\":9316:9320  true */\n      0x01\n        /* \"contracts/facets/DealersFacet.sol\":9309:9320  return true */\n      swap3\n      pop\n      pop\n      pop\n        /* \"contracts/facets/DealersFacet.sol\":8513:9327  function dealerReferralHelperWithAReferral(... */\n      swap4\n      swap3\n      pop\n      pop\n      pop\n      jump\t// out\n        /* \"contracts/libraries/SafeDecimalMath.sol\":1454:1646  function multiplyDecimal(uint x, uint y) internal pure returns (uint) {... */\n    tag_194:\n        /* \"contracts/libraries/SafeDecimalMath.sol\":1518:1522  uint */\n      0x00\n        /* \"contracts/libraries/SafeDecimalMath.sol\":329:331  18 */\n      0x12\n        /* \"contracts/libraries/SafeDecimalMath.sol\":463:477  uint(decimals) */\n      0xff\n      and\n        /* \"contracts/libraries/SafeDecimalMath.sol\":459:461  10 */\n      0x0a\n        /* \"contracts/libraries/SafeDecimalMath.sol\":459:477  10**uint(decimals) */\n      tag_214\n      swap2\n      swap1\n      tag_215\n      jump\t// in\n    tag_214:\n        /* \"contracts/libraries/SafeDecimalMath.sol\":1624:1632  x.mul(y) */\n      tag_216\n        /* \"contracts/libraries/SafeDecimalMath.sol\":1630:1631  y */\n      dup4\n        /* \"contracts/libraries/SafeDecimalMath.sol\":1624:1625  x */\n      dup6\n        /* \"contracts/libraries/SafeDecimalMath.sol\":1624:1629  x.mul */\n      tag_217\n      swap1\n        /* \"contracts/libraries/SafeDecimalMath.sol\":1624:1632  x.mul(y) */\n      swap2\n      swap1\n      0xffffffff\n      and\n      jump\t// in\n    tag_216:\n        /* \"contracts/libraries/SafeDecimalMath.sol\":1624:1639  x.mul(y) / UNIT */\n      tag_218\n      swap2\n      swap1\n      tag_219\n      jump\t// in\n    tag_218:\n        /* \"contracts/libraries/SafeDecimalMath.sol\":1617:1639  return x.mul(y) / UNIT */\n      swap1\n      pop\n        /* \"contracts/libraries/SafeDecimalMath.sol\":1454:1646  function multiplyDecimal(uint x, uint y) internal pure returns (uint) {... */\n      swap3\n      swap2\n      pop\n      pop\n      jump\t// out\n        /* \"contracts/libraries/SafeMath.sol\":3116:3212  function sub(uint256 a, uint256 b) internal pure returns (uint256) {... */\n    tag_199:\n        /* \"contracts/libraries/SafeMath.sol\":3174:3181  uint256 */\n      0x00\n        /* \"contracts/libraries/SafeMath.sol\":3204:3205  b */\n      dup2\n        /* \"contracts/libraries/SafeMath.sol\":3200:3201  a */\n      dup4\n        /* \"contracts/libraries/SafeMath.sol\":3200:3205  a - b */\n      tag_221\n      swap2\n      swap1\n      tag_222\n      jump\t// in\n    tag_221:\n        /* \"contracts/libraries/SafeMath.sol\":3193:3205  return a - b */\n      swap1\n      pop\n        /* \"contracts/libraries/SafeMath.sol\":3116:3212  function sub(uint256 a, uint256 b) internal pure returns (uint256) {... */\n      swap3\n      swap2\n      pop\n      pop\n      jump\t// out\n        /* \"contracts/libraries/LibDiamond.sol\":1056:1281  function diamondStorage()... */\n    tag_204:\n        /* \"contracts/libraries/LibDiamond.sol\":1129:1154  DiamondStorage storage ds */\n      0x00\n        /* \"contracts/libraries/LibDiamond.sol\":1170:1186  bytes32 position */\n      dup1\n        /* \"contracts/libraries/LibDiamond.sol\":530:575  keccak256(\"diamond.standard.diamond.storage\") */\n      0xc8fcad8db84d3cc18b4c41d551ea0ee66dd599cde068d998e57d5e09332c131c\n        /* \"contracts/libraries/LibDiamond.sol\":1170:1213  bytes32 position = DIAMOND_STORAGE_POSITION */\n      swap1\n      pop\n        /* \"contracts/libraries/LibDiamond.sol\":1257:1265  position */\n      dup1\n        /* \"contracts/libraries/LibDiamond.sol\":1246:1265  ds.slot := position */\n      swap2\n      pop\n        /* \"contracts/libraries/LibDiamond.sol\":1232:1275  {... */\n      pop\n        /* \"contracts/libraries/LibDiamond.sol\":1056:1281  function diamondStorage()... */\n      swap1\n      jump\t// out\n        /* \"contracts/libraries/SafeMath.sol\":3459:3555  function mul(uint256 a, uint256 b) internal pure returns (uint256) {... */\n    tag_217:\n        /* \"contracts/libraries/SafeMath.sol\":3517:3524  uint256 */\n      0x00\n        /* \"contracts/libraries/SafeMath.sol\":3547:3548  b */\n      dup2\n        /* \"contracts/libraries/SafeMath.sol\":3543:3544  a */\n      dup4\n        /* \"contracts/libraries/SafeMath.sol\":3543:3548  a * b */\n      tag_225\n      swap2\n      swap1\n      tag_226\n      jump\t// in\n    tag_225:\n        /* \"contracts/libraries/SafeMath.sol\":3536:3548  return a * b */\n      swap1\n      pop\n        /* \"contracts/libraries/SafeMath.sol\":3459:3555  function mul(uint256 a, uint256 b) internal pure returns (uint256) {... */\n      swap3\n      swap2\n      pop\n      pop\n      jump\t// out\n        /* \"#utility.yul\":7:133   */\n    tag_227:\n        /* \"#utility.yul\":44:51   */\n      0x00\n        /* \"#utility.yul\":84:126   */\n      0xffffffffffffffffffffffffffffffffffffffff\n        /* \"#utility.yul\":77:82   */\n      dup3\n        /* \"#utility.yul\":73:127   */\n      and\n        /* \"#utility.yul\":62:127   */\n      swap1\n      pop\n        /* \"#utility.yul\":7:133   */\n      swap2\n      swap1\n      pop\n      jump\t// out\n        /* \"#utility.yul\":139:235   */\n    tag_228:\n        /* \"#utility.yul\":176:183   */\n      0x00\n        /* \"#utility.yul\":205:229   */\n      tag_269\n        /* \"#utility.yul\":223:228   */\n      dup3\n        /* \"#utility.yul\":205:229   */\n      tag_227\n      jump\t// in\n    tag_269:\n        /* \"#utility.yul\":194:229   */\n      swap1\n      pop\n        /* \"#utility.yul\":139:235   */\n      swap2\n      swap1\n      pop\n      jump\t// out\n        /* \"#utility.yul\":241:359   */\n    tag_229:\n        /* \"#utility.yul\":328:352   */\n      tag_271\n        /* \"#utility.yul\":346:351   */\n      dup2\n        /* \"#utility.yul\":328:352   */\n      tag_228\n      jump\t// in\n    tag_271:\n        /* \"#utility.yul\":323:326   */\n      dup3\n        /* \"#utility.yul\":316:353   */\n      mstore\n        /* \"#utility.yul\":241:359   */\n      pop\n      pop\n      jump\t// out\n        /* \"#utility.yul\":365:587   */\n    tag_16:\n        /* \"#utility.yul\":458:462   */\n      0x00\n        /* \"#utility.yul\":496:498   */\n      0x20\n        /* \"#utility.yul\":485:494   */\n      dup3\n        /* \"#utility.yul\":481:499   */\n      add\n        /* \"#utility.yul\":473:499   */\n      swap1\n      pop\n        /* \"#utility.yul\":509:580   */\n      tag_273\n        /* \"#utility.yul\":577:578   */\n      0x00\n        /* \"#utility.yul\":566:575   */\n      dup4\n        /* \"#utility.yul\":562:579   */\n      add\n        /* \"#utility.yul\":553:559   */\n      dup5\n        /* \"#utility.yul\":509:580   */\n      tag_229\n      jump\t// in\n    tag_273:\n        /* \"#utility.yul\":365:587   */\n      swap3\n      swap2\n      pop\n      pop\n      jump\t// out\n        /* \"#utility.yul\":674:791   */\n    tag_231:\n        /* \"#utility.yul\":783:784   */\n      0x00\n        /* \"#utility.yul\":780:781   */\n      dup1\n        /* \"#utility.yul\":773:785   */\n      revert\n        /* \"#utility.yul\":920:1042   */\n    tag_233:\n        /* \"#utility.yul\":993:1017   */\n      tag_278\n        /* \"#utility.yul\":1011:1016   */\n      dup2\n        /* \"#utility.yul\":993:1017   */\n      tag_228\n      jump\t// in\n    tag_278:\n        /* \"#utility.yul\":986:991   */\n      dup2\n        /* \"#utility.yul\":983:1018   */\n      eq\n        /* \"#utility.yul\":973:1036   */\n      tag_279\n      jumpi\n        /* \"#utility.yul\":1032:1033   */\n      0x00\n        /* \"#utility.yul\":1029:1030   */\n      dup1\n        /* \"#utility.yul\":1022:1034   */\n      revert\n        /* \"#utility.yul\":973:1036   */\n    tag_279:\n        /* \"#utility.yul\":920:1042   */\n      pop\n      jump\t// out\n        /* \"#utility.yul\":1048:1187   */\n    tag_234:\n        /* \"#utility.yul\":1094:1099   */\n      0x00\n        /* \"#utility.yul\":1132:1138   */\n      dup2\n        /* \"#utility.yul\":1119:1139   */\n      calldataload\n        /* \"#utility.yul\":1110:1139   */\n      swap1\n      pop\n        /* \"#utility.yul\":1148:1181   */\n      tag_281\n        /* \"#utility.yul\":1175:1180   */\n      dup2\n        /* \"#utility.yul\":1148:1181   */\n      tag_233\n      jump\t// in\n    tag_281:\n        /* \"#utility.yul\":1048:1187   */\n      swap3\n      swap2\n      pop\n      pop\n      jump\t// out\n        /* \"#utility.yul\":1193:1522   */\n    tag_21:\n        /* \"#utility.yul\":1252:1258   */\n      0x00\n        /* \"#utility.yul\":1301:1303   */\n      0x20\n        /* \"#utility.yul\":1289:1298   */\n      dup3\n        /* \"#utility.yul\":1280:1287   */\n      dup5\n        /* \"#utility.yul\":1276:1299   */\n      sub\n        /* \"#utility.yul\":1272:1304   */\n      slt\n        /* \"#utility.yul\":1269:1388   */\n      iszero\n      tag_283\n      jumpi\n        /* \"#utility.yul\":1307:1386   */\n      tag_284\n      tag_231\n      jump\t// in\n    tag_284:\n        /* \"#utility.yul\":1269:1388   */\n    tag_283:\n        /* \"#utility.yul\":1427:1428   */\n      0x00\n        /* \"#utility.yul\":1452:1505   */\n      tag_285\n        /* \"#utility.yul\":1497:1504   */\n      dup5\n        /* \"#utility.yul\":1488:1494   */\n      dup3\n        /* \"#utility.yul\":1477:1486   */\n      dup6\n        /* \"#utility.yul\":1473:1495   */\n      add\n        /* \"#utility.yul\":1452:1505   */\n      tag_234\n      jump\t// in\n    tag_285:\n        /* \"#utility.yul\":1442:1505   */\n      swap2\n      pop\n        /* \"#utility.yul\":1398:1515   */\n      pop\n        /* \"#utility.yul\":1193:1522   */\n      swap3\n      swap2\n      pop\n      pop\n      jump\t// out\n        /* \"#utility.yul\":1528:1605   */\n    tag_235:\n        /* \"#utility.yul\":1565:1572   */\n      0x00\n        /* \"#utility.yul\":1594:1599   */\n      dup2\n        /* \"#utility.yul\":1583:1599   */\n      swap1\n      pop\n        /* \"#utility.yul\":1528:1605   */\n      swap2\n      swap1\n      pop\n      jump\t// out\n        /* \"#utility.yul\":1611:1729   */\n    tag_236:\n        /* \"#utility.yul\":1698:1722   */\n      tag_288\n        /* \"#utility.yul\":1716:1721   */\n      dup2\n        /* \"#utility.yul\":1698:1722   */\n      tag_235\n      jump\t// in\n    tag_288:\n        /* \"#utility.yul\":1693:1696   */\n      dup3\n        /* \"#utility.yul\":1686:1723   */\n      mstore\n        /* \"#utility.yul\":1611:1729   */\n      pop\n      pop\n      jump\t// out\n        /* \"#utility.yul\":1735:2177   */\n    tag_24:\n        /* \"#utility.yul\":1884:1888   */\n      0x00\n        /* \"#utility.yul\":1922:1924   */\n      0x60\n        /* \"#utility.yul\":1911:1920   */\n      dup3\n        /* \"#utility.yul\":1907:1925   */\n      add\n        /* \"#utility.yul\":1899:1925   */\n      swap1\n      pop\n        /* \"#utility.yul\":1935:2006   */\n      tag_290\n        /* \"#utility.yul\":2003:2004   */\n      0x00\n        /* \"#utility.yul\":1992:2001   */\n      dup4\n        /* \"#utility.yul\":1988:2005   */\n      add\n        /* \"#utility.yul\":1979:1985   */\n      dup7\n        /* \"#utility.yul\":1935:2006   */\n      tag_236\n      jump\t// in\n    tag_290:\n        /* \"#utility.yul\":2016:2088   */\n      tag_291\n        /* \"#utility.yul\":2084:2086   */\n      0x20\n        /* \"#utility.yul\":2073:2082   */\n      dup4\n        /* \"#utility.yul\":2069:2087   */\n      add\n        /* \"#utility.yul\":2060:2066   */\n      dup6\n        /* \"#utility.yul\":2016:2088   */\n      tag_236\n      jump\t// in\n    tag_291:\n        /* \"#utility.yul\":2098:2170   */\n      tag_292\n        /* \"#utility.yul\":2166:2168   */\n      0x40\n        /* \"#utility.yul\":2155:2164   */\n      dup4\n        /* \"#utility.yul\":2151:2169   */\n      add\n        /* \"#utility.yul\":2142:2148   */\n      dup5\n        /* \"#utility.yul\":2098:2170   */\n      tag_236\n      jump\t// in\n    tag_292:\n        /* \"#utility.yul\":1735:2177   */\n      swap5\n      swap4\n      pop\n      pop\n      pop\n      pop\n      jump\t// out\n        /* \"#utility.yul\":2183:2305   */\n    tag_237:\n        /* \"#utility.yul\":2256:2280   */\n      tag_294\n        /* \"#utility.yul\":2274:2279   */\n      dup2\n        /* \"#utility.yul\":2256:2280   */\n      tag_235\n      jump\t// in\n    tag_294:\n        /* \"#utility.yul\":2249:2254   */\n      dup2\n        /* \"#utility.yul\":2246:2281   */\n      eq\n        /* \"#utility.yul\":2236:2299   */\n      tag_295\n      jumpi\n        /* \"#utility.yul\":2295:2296   */\n      0x00\n        /* \"#utility.yul\":2292:2293   */\n      dup1\n        /* \"#utility.yul\":2285:2297   */\n      revert\n        /* \"#utility.yul\":2236:2299   */\n    tag_295:\n        /* \"#utility.yul\":2183:2305   */\n      pop\n      jump\t// out\n        /* \"#utility.yul\":2311:2450   */\n    tag_238:\n        /* \"#utility.yul\":2357:2362   */\n      0x00\n        /* \"#utility.yul\":2395:2401   */\n      dup2\n        /* \"#utility.yul\":2382:2402   */\n      calldataload\n        /* \"#utility.yul\":2373:2402   */\n      swap1\n      pop\n        /* \"#utility.yul\":2411:2444   */\n      tag_297\n        /* \"#utility.yul\":2438:2443   */\n      dup2\n        /* \"#utility.yul\":2411:2444   */\n      tag_237\n      jump\t// in\n    tag_297:\n        /* \"#utility.yul\":2311:2450   */\n      swap3\n      swap2\n      pop\n      pop\n      jump\t// out\n        /* \"#utility.yul\":2456:2930   */\n    tag_27:\n        /* \"#utility.yul\":2524:2530   */\n      0x00\n        /* \"#utility.yul\":2532:2538   */\n      dup1\n        /* \"#utility.yul\":2581:2583   */\n      0x40\n        /* \"#utility.yul\":2569:2578   */\n      dup4\n        /* \"#utility.yul\":2560:2567   */\n      dup6\n        /* \"#utility.yul\":2556:2579   */\n      sub\n        /* \"#utility.yul\":2552:2584   */\n      slt\n        /* \"#utility.yul\":2549:2668   */\n      iszero\n      tag_299\n      jumpi\n        /* \"#utility.yul\":2587:2666   */\n      tag_300\n      tag_231\n      jump\t// in\n    tag_300:\n        /* \"#utility.yul\":2549:2668   */\n    tag_299:\n        /* \"#utility.yul\":2707:2708   */\n      0x00\n        /* \"#utility.yul\":2732:2785   */\n      tag_301\n        /* \"#utility.yul\":2777:2784   */\n      dup6\n        /* \"#utility.yul\":2768:2774   */\n      dup3\n        /* \"#utility.yul\":2757:2766   */\n      dup7\n        /* \"#utility.yul\":2753:2775   */\n      add\n        /* \"#utility.yul\":2732:2785   */\n      tag_234\n      jump\t// in\n    tag_301:\n        /* \"#utility.yul\":2722:2785   */\n      swap3\n      pop\n        /* \"#utility.yul\":2678:2795   */\n      pop\n        /* \"#utility.yul\":2834:2836   */\n      0x20\n        /* \"#utility.yul\":2860:2913   */\n      tag_302\n        /* \"#utility.yul\":2905:2912   */\n      dup6\n        /* \"#utility.yul\":2896:2902   */\n      dup3\n        /* \"#utility.yul\":2885:2894   */\n      dup7\n        /* \"#utility.yul\":2881:2903   */\n      add\n        /* \"#utility.yul\":2860:2913   */\n      tag_238\n      jump\t// in\n    tag_302:\n        /* \"#utility.yul\":2850:2913   */\n      swap2\n      pop\n        /* \"#utility.yul\":2805:2923   */\n      pop\n        /* \"#utility.yul\":2456:2930   */\n      swap3\n      pop\n      swap3\n      swap1\n      pop\n      jump\t// out\n        /* \"#utility.yul\":2936:3158   */\n    tag_36:\n        /* \"#utility.yul\":3029:3033   */\n      0x00\n        /* \"#utility.yul\":3067:3069   */\n      0x20\n        /* \"#utility.yul\":3056:3065   */\n      dup3\n        /* \"#utility.yul\":3052:3070   */\n      add\n        /* \"#utility.yul\":3044:3070   */\n      swap1\n      pop\n        /* \"#utility.yul\":3080:3151   */\n      tag_304\n        /* \"#utility.yul\":3148:3149   */\n      0x00\n        /* \"#utility.yul\":3137:3146   */\n      dup4\n        /* \"#utility.yul\":3133:3150   */\n      add\n        /* \"#utility.yul\":3124:3130   */\n      dup5\n        /* \"#utility.yul\":3080:3151   */\n      tag_236\n      jump\t// in\n    tag_304:\n        /* \"#utility.yul\":2936:3158   */\n      swap3\n      swap2\n      pop\n      pop\n      jump\t// out\n        /* \"#utility.yul\":3164:4075   */\n    tag_39:\n        /* \"#utility.yul\":3259:3265   */\n      0x00\n        /* \"#utility.yul\":3267:3273   */\n      dup1\n        /* \"#utility.yul\":3275:3281   */\n      0x00\n        /* \"#utility.yul\":3283:3289   */\n      dup1\n        /* \"#utility.yul\":3291:3297   */\n      0x00\n        /* \"#utility.yul\":3340:3343   */\n      0xa0\n        /* \"#utility.yul\":3328:3337   */\n      dup7\n        /* \"#utility.yul\":3319:3326   */\n      dup9\n        /* \"#utility.yul\":3315:3338   */\n      sub\n        /* \"#utility.yul\":3311:3344   */\n      slt\n        /* \"#utility.yul\":3308:3428   */\n      iszero\n      tag_306\n      jumpi\n        /* \"#utility.yul\":3347:3426   */\n      tag_307\n      tag_231\n      jump\t// in\n    tag_307:\n        /* \"#utility.yul\":3308:3428   */\n    tag_306:\n        /* \"#utility.yul\":3467:3468   */\n      0x00\n        /* \"#utility.yul\":3492:3545   */\n      tag_308\n        /* \"#utility.yul\":3537:3544   */\n      dup9\n        /* \"#utility.yul\":3528:3534   */\n      dup3\n        /* \"#utility.yul\":3517:3526   */\n      dup10\n        /* \"#utility.yul\":3513:3535   */\n      add\n        /* \"#utility.yul\":3492:3545   */\n      tag_238\n      jump\t// in\n    tag_308:\n        /* \"#utility.yul\":3482:3545   */\n      swap6\n      pop\n        /* \"#utility.yul\":3438:3555   */\n      pop\n        /* \"#utility.yul\":3594:3596   */\n      0x20\n        /* \"#utility.yul\":3620:3673   */\n      tag_309\n        /* \"#utility.yul\":3665:3672   */\n      dup9\n        /* \"#utility.yul\":3656:3662   */\n      dup3\n        /* \"#utility.yul\":3645:3654   */\n      dup10\n        /* \"#utility.yul\":3641:3663   */\n      add\n        /* \"#utility.yul\":3620:3673   */\n      tag_238\n      jump\t// in\n    tag_309:\n        /* \"#utility.yul\":3610:3673   */\n      swap5\n      pop\n        /* \"#utility.yul\":3565:3683   */\n      pop\n        /* \"#utility.yul\":3722:3724   */\n      0x40\n        /* \"#utility.yul\":3748:3801   */\n      tag_310\n        /* \"#utility.yul\":3793:3800   */\n      dup9\n        /* \"#utility.yul\":3784:3790   */\n      dup3\n        /* \"#utility.yul\":3773:3782   */\n      dup10\n        /* \"#utility.yul\":3769:3791   */\n      add\n        /* \"#utility.yul\":3748:3801   */\n      tag_238\n      jump\t// in\n    tag_310:\n        /* \"#utility.yul\":3738:3801   */\n      swap4\n      pop\n        /* \"#utility.yul\":3693:3811   */\n      pop\n        /* \"#utility.yul\":3850:3852   */\n      0x60\n        /* \"#utility.yul\":3876:3929   */\n      tag_311\n        /* \"#utility.yul\":3921:3928   */\n      dup9\n        /* \"#utility.yul\":3912:3918   */\n      dup3\n        /* \"#utility.yul\":3901:3910   */\n      dup10\n        /* \"#utility.yul\":3897:3919   */\n      add\n        /* \"#utility.yul\":3876:3929   */\n      tag_234\n      jump\t// in\n    tag_311:\n        /* \"#utility.yul\":3866:3929   */\n      swap3\n      pop\n        /* \"#utility.yul\":3821:3939   */\n      pop\n        /* \"#utility.yul\":3978:3981   */\n      0x80\n        /* \"#utility.yul\":4005:4058   */\n      tag_312\n        /* \"#utility.yul\":4050:4057   */\n      dup9\n        /* \"#utility.yul\":4041:4047   */\n      dup3\n        /* \"#utility.yul\":4030:4039   */\n      dup10\n        /* \"#utility.yul\":4026:4048   */\n      add\n        /* \"#utility.yul\":4005:4058   */\n      tag_234\n      jump\t// in\n    tag_312:\n        /* \"#utility.yul\":3995:4058   */\n      swap2\n      pop\n        /* \"#utility.yul\":3949:4068   */\n      pop\n        /* \"#utility.yul\":3164:4075   */\n      swap3\n      swap6\n      pop\n      swap3\n      swap6\n      swap1\n      swap4\n      pop\n      jump\t// out\n        /* \"#utility.yul\":4081:4413   */\n    tag_44:\n        /* \"#utility.yul\":4202:4206   */\n      0x00\n        /* \"#utility.yul\":4240:4242   */\n      0x40\n        /* \"#utility.yul\":4229:4238   */\n      dup3\n        /* \"#utility.yul\":4225:4243   */\n      add\n        /* \"#utility.yul\":4217:4243   */\n      swap1\n      pop\n        /* \"#utility.yul\":4253:4324   */\n      tag_314\n        /* \"#utility.yul\":4321:4322   */\n      0x00\n        /* \"#utility.yul\":4310:4319   */\n      dup4\n        /* \"#utility.yul\":4306:4323   */\n      add\n        /* \"#utility.yul\":4297:4303   */\n      dup6\n        /* \"#utility.yul\":4253:4324   */\n      tag_236\n      jump\t// in\n    tag_314:\n        /* \"#utility.yul\":4334:4406   */\n      tag_315\n        /* \"#utility.yul\":4402:4404   */\n      0x20\n        /* \"#utility.yul\":4391:4400   */\n      dup4\n        /* \"#utility.yul\":4387:4405   */\n      add\n        /* \"#utility.yul\":4378:4384   */\n      dup5\n        /* \"#utility.yul\":4334:4406   */\n      tag_236\n      jump\t// in\n    tag_315:\n        /* \"#utility.yul\":4081:4413   */\n      swap4\n      swap3\n      pop\n      pop\n      pop\n      jump\t// out\n        /* \"#utility.yul\":4419:5038   */\n    tag_47:\n        /* \"#utility.yul\":4496:4502   */\n      0x00\n        /* \"#utility.yul\":4504:4510   */\n      dup1\n        /* \"#utility.yul\":4512:4518   */\n      0x00\n        /* \"#utility.yul\":4561:4563   */\n      0x60\n        /* \"#utility.yul\":4549:4558   */\n      dup5\n        /* \"#utility.yul\":4540:4547   */\n      dup7\n        /* \"#utility.yul\":4536:4559   */\n      sub\n        /* \"#utility.yul\":4532:4564   */\n      slt\n        /* \"#utility.yul\":4529:4648   */\n      iszero\n      tag_317\n      jumpi\n        /* \"#utility.yul\":4567:4646   */\n      tag_318\n      tag_231\n      jump\t// in\n    tag_318:\n        /* \"#utility.yul\":4529:4648   */\n    tag_317:\n        /* \"#utility.yul\":4687:4688   */\n      0x00\n        /* \"#utility.yul\":4712:4765   */\n      tag_319\n        /* \"#utility.yul\":4757:4764   */\n      dup7\n        /* \"#utility.yul\":4748:4754   */\n      dup3\n        /* \"#utility.yul\":4737:4746   */\n      dup8\n        /* \"#utility.yul\":4733:4755   */\n      add\n        /* \"#utility.yul\":4712:4765   */\n      tag_234\n      jump\t// in\n    tag_319:\n        /* \"#utility.yul\":4702:4765   */\n      swap4\n      pop\n        /* \"#utility.yul\":4658:4775   */\n      pop\n        /* \"#utility.yul\":4814:4816   */\n      0x20\n        /* \"#utility.yul\":4840:4893   */\n      tag_320\n        /* \"#utility.yul\":4885:4892   */\n      dup7\n        /* \"#utility.yul\":4876:4882   */\n      dup3\n        /* \"#utility.yul\":4865:4874   */\n      dup8\n        /* \"#utility.yul\":4861:4883   */\n      add\n        /* \"#utility.yul\":4840:4893   */\n      tag_238\n      jump\t// in\n    tag_320:\n        /* \"#utility.yul\":4830:4893   */\n      swap3\n      pop\n        /* \"#utility.yul\":4785:4903   */\n      pop\n        /* \"#utility.yul\":4942:4944   */\n      0x40\n        /* \"#utility.yul\":4968:5021   */\n      tag_321\n        /* \"#utility.yul\":5013:5020   */\n      dup7\n        /* \"#utility.yul\":5004:5010   */\n      dup3\n        /* \"#utility.yul\":4993:5002   */\n      dup8\n        /* \"#utility.yul\":4989:5011   */\n      add\n        /* \"#utility.yul\":4968:5021   */\n      tag_234\n      jump\t// in\n    tag_321:\n        /* \"#utility.yul\":4958:5021   */\n      swap2\n      pop\n        /* \"#utility.yul\":4913:5031   */\n      pop\n        /* \"#utility.yul\":4419:5038   */\n      swap3\n      pop\n      swap3\n      pop\n      swap3\n      jump\t// out\n        /* \"#utility.yul\":5044:5224   */\n    tag_56:\n        /* \"#utility.yul\":5092:5169   */\n      0x4e487b7100000000000000000000000000000000000000000000000000000000\n        /* \"#utility.yul\":5089:5090   */\n      0x00\n        /* \"#utility.yul\":5082:5170   */\n      mstore\n        /* \"#utility.yul\":5189:5193   */\n      0x32\n        /* \"#utility.yul\":5186:5187   */\n      0x04\n        /* \"#utility.yul\":5179:5194   */\n      mstore\n        /* \"#utility.yul\":5213:5217   */\n      0x24\n        /* \"#utility.yul\":5210:5211   */\n      0x00\n        /* \"#utility.yul\":5203:5218   */\n      revert\n        /* \"#utility.yul\":5230:5562   */\n    tag_68:\n        /* \"#utility.yul\":5351:5355   */\n      0x00\n        /* \"#utility.yul\":5389:5391   */\n      0x40\n        /* \"#utility.yul\":5378:5387   */\n      dup3\n        /* \"#utility.yul\":5374:5392   */\n      add\n        /* \"#utility.yul\":5366:5392   */\n      swap1\n      pop\n        /* \"#utility.yul\":5402:5473   */\n      tag_324\n        /* \"#utility.yul\":5470:5471   */\n      0x00\n        /* \"#utility.yul\":5459:5468   */\n      dup4\n        /* \"#utility.yul\":5455:5472   */\n      add\n        /* \"#utility.yul\":5446:5452   */\n      dup6\n        /* \"#utility.yul\":5402:5473   */\n      tag_229\n      jump\t// in\n    tag_324:\n        /* \"#utility.yul\":5483:5555   */\n      tag_325\n        /* \"#utility.yul\":5551:5553   */\n      0x20\n        /* \"#utility.yul\":5540:5549   */\n      dup4\n        /* \"#utility.yul\":5536:5554   */\n      add\n        /* \"#utility.yul\":5527:5533   */\n      dup5\n        /* \"#utility.yul\":5483:5555   */\n      tag_236\n      jump\t// in\n    tag_325:\n        /* \"#utility.yul\":5230:5562   */\n      swap4\n      swap3\n      pop\n      pop\n      pop\n      jump\t// out\n        /* \"#utility.yul\":5568:5658   */\n    tag_239:\n        /* \"#utility.yul\":5602:5609   */\n      0x00\n        /* \"#utility.yul\":5645:5650   */\n      dup2\n        /* \"#utility.yul\":5638:5651   */\n      iszero\n        /* \"#utility.yul\":5631:5652   */\n      iszero\n        /* \"#utility.yul\":5620:5652   */\n      swap1\n      pop\n        /* \"#utility.yul\":5568:5658   */\n      swap2\n      swap1\n      pop\n      jump\t// out\n        /* \"#utility.yul\":5664:5780   */\n    tag_240:\n        /* \"#utility.yul\":5734:5755   */\n      tag_328\n        /* \"#utility.yul\":5749:5754   */\n      dup2\n        /* \"#utility.yul\":5734:5755   */\n      tag_239\n      jump\t// in\n    tag_328:\n        /* \"#utility.yul\":5727:5732   */\n      dup2\n        /* \"#utility.yul\":5724:5756   */\n      eq\n        /* \"#utility.yul\":5714:5774   */\n      tag_329\n      jumpi\n        /* \"#utility.yul\":5770:5771   */\n      0x00\n        /* \"#utility.yul\":5767:5768   */\n      dup1\n        /* \"#utility.yul\":5760:5772   */\n      revert\n        /* \"#utility.yul\":5714:5774   */\n    tag_329:\n        /* \"#utility.yul\":5664:5780   */\n      pop\n      jump\t// out\n        /* \"#utility.yul\":5786:5923   */\n    tag_241:\n        /* \"#utility.yul\":5840:5845   */\n      0x00\n        /* \"#utility.yul\":5871:5877   */\n      dup2\n        /* \"#utility.yul\":5865:5878   */\n      mload\n        /* \"#utility.yul\":5856:5878   */\n      swap1\n      pop\n        /* \"#utility.yul\":5887:5917   */\n      tag_331\n        /* \"#utility.yul\":5911:5916   */\n      dup2\n        /* \"#utility.yul\":5887:5917   */\n      tag_240\n      jump\t// in\n    tag_331:\n        /* \"#utility.yul\":5786:5923   */\n      swap3\n      swap2\n      pop\n      pop\n      jump\t// out\n        /* \"#utility.yul\":5929:6274   */\n    tag_72:\n        /* \"#utility.yul\":5996:6002   */\n      0x00\n        /* \"#utility.yul\":6045:6047   */\n      0x20\n        /* \"#utility.yul\":6033:6042   */\n      dup3\n        /* \"#utility.yul\":6024:6031   */\n      dup5\n        /* \"#utility.yul\":6020:6043   */\n      sub\n        /* \"#utility.yul\":6016:6048   */\n      slt\n        /* \"#utility.yul\":6013:6132   */\n      iszero\n      tag_333\n      jumpi\n        /* \"#utility.yul\":6051:6130   */\n      tag_334\n      tag_231\n      jump\t// in\n    tag_334:\n        /* \"#utility.yul\":6013:6132   */\n    tag_333:\n        /* \"#utility.yul\":6171:6172   */\n      0x00\n        /* \"#utility.yul\":6196:6257   */\n      tag_335\n        /* \"#utility.yul\":6249:6256   */\n      dup5\n        /* \"#utility.yul\":6240:6246   */\n      dup3\n        /* \"#utility.yul\":6229:6238   */\n      dup6\n        /* \"#utility.yul\":6225:6247   */\n      add\n        /* \"#utility.yul\":6196:6257   */\n      tag_241\n      jump\t// in\n    tag_335:\n        /* \"#utility.yul\":6186:6257   */\n      swap2\n      pop\n        /* \"#utility.yul\":6142:6267   */\n      pop\n        /* \"#utility.yul\":5929:6274   */\n      swap3\n      swap2\n      pop\n      pop\n      jump\t// out\n        /* \"#utility.yul\":6280:6449   */\n    tag_242:\n        /* \"#utility.yul\":6364:6375   */\n      0x00\n        /* \"#utility.yul\":6398:6404   */\n      dup3\n        /* \"#utility.yul\":6393:6396   */\n      dup3\n        /* \"#utility.yul\":6386:6405   */\n      mstore\n        /* \"#utility.yul\":6438:6442   */\n      0x20\n        /* \"#utility.yul\":6433:6436   */\n      dup3\n        /* \"#utility.yul\":6429:6443   */\n      add\n        /* \"#utility.yul\":6414:6443   */\n      swap1\n      pop\n        /* \"#utility.yul\":6280:6449   */\n      swap3\n      swap2\n      pop\n      pop\n      jump\t// out\n        /* \"#utility.yul\":6455:6621   */\n    tag_243:\n        /* \"#utility.yul\":6595:6613   */\n      0x4661696c20746f207472616e7366657200000000000000000000000000000000\n        /* \"#utility.yul\":6591:6592   */\n      0x00\n        /* \"#utility.yul\":6583:6589   */\n      dup3\n        /* \"#utility.yul\":6579:6593   */\n      add\n        /* \"#utility.yul\":6572:6614   */\n      mstore\n        /* \"#utility.yul\":6455:6621   */\n      pop\n      jump\t// out\n        /* \"#utility.yul\":6627:6993   */\n    tag_244:\n        /* \"#utility.yul\":6769:6772   */\n      0x00\n        /* \"#utility.yul\":6790:6857   */\n      tag_339\n        /* \"#utility.yul\":6854:6856   */\n      0x10\n        /* \"#utility.yul\":6849:6852   */\n      dup4\n        /* \"#utility.yul\":6790:6857   */\n      tag_242\n      jump\t// in\n    tag_339:\n        /* \"#utility.yul\":6783:6857   */\n      swap2\n      pop\n        /* \"#utility.yul\":6866:6959   */\n      tag_340\n        /* \"#utility.yul\":6955:6958   */\n      dup3\n        /* \"#utility.yul\":6866:6959   */\n      tag_243\n      jump\t// in\n    tag_340:\n        /* \"#utility.yul\":6984:6986   */\n      0x20\n        /* \"#utility.yul\":6979:6982   */\n      dup3\n        /* \"#utility.yul\":6975:6987   */\n      add\n        /* \"#utility.yul\":6968:6987   */\n      swap1\n      pop\n        /* \"#utility.yul\":6627:6993   */\n      swap2\n      swap1\n      pop\n      jump\t// out\n        /* \"#utility.yul\":6999:7418   */\n    tag_75:\n        /* \"#utility.yul\":7165:7169   */\n      0x00\n        /* \"#utility.yul\":7203:7205   */\n      0x20\n        /* \"#utility.yul\":7192:7201   */\n      dup3\n        /* \"#utility.yul\":7188:7206   */\n      add\n        /* \"#utility.yul\":7180:7206   */\n      swap1\n      pop\n        /* \"#utility.yul\":7252:7261   */\n      dup2\n        /* \"#utility.yul\":7246:7250   */\n      dup2\n        /* \"#utility.yul\":7242:7262   */\n      sub\n        /* \"#utility.yul\":7238:7239   */\n      0x00\n        /* \"#utility.yul\":7227:7236   */\n      dup4\n        /* \"#utility.yul\":7223:7240   */\n      add\n        /* \"#utility.yul\":7216:7263   */\n      mstore\n        /* \"#utility.yul\":7280:7411   */\n      tag_342\n        /* \"#utility.yul\":7406:7410   */\n      dup2\n        /* \"#utility.yul\":7280:7411   */\n      tag_244\n      jump\t// in\n    tag_342:\n        /* \"#utility.yul\":7272:7411   */\n      swap1\n      pop\n        /* \"#utility.yul\":6999:7418   */\n      swap2\n      swap1\n      pop\n      jump\t// out\n        /* \"#utility.yul\":7424:7866   */\n    tag_78:\n        /* \"#utility.yul\":7573:7577   */\n      0x00\n        /* \"#utility.yul\":7611:7613   */\n      0x60\n        /* \"#utility.yul\":7600:7609   */\n      dup3\n        /* \"#utility.yul\":7596:7614   */\n      add\n        /* \"#utility.yul\":7588:7614   */\n      swap1\n      pop\n        /* \"#utility.yul\":7624:7695   */\n      tag_344\n        /* \"#utility.yul\":7692:7693   */\n      0x00\n        /* \"#utility.yul\":7681:7690   */\n      dup4\n        /* \"#utility.yul\":7677:7694   */\n      add\n        /* \"#utility.yul\":7668:7674   */\n      dup7\n        /* \"#utility.yul\":7624:7695   */\n      tag_229\n      jump\t// in\n    tag_344:\n        /* \"#utility.yul\":7705:7777   */\n      tag_345\n        /* \"#utility.yul\":7773:7775   */\n      0x20\n        /* \"#utility.yul\":7762:7771   */\n      dup4\n        /* \"#utility.yul\":7758:7776   */\n      add\n        /* \"#utility.yul\":7749:7755   */\n      dup6\n        /* \"#utility.yul\":7705:7777   */\n      tag_236\n      jump\t// in\n    tag_345:\n        /* \"#utility.yul\":7787:7859   */\n      tag_346\n        /* \"#utility.yul\":7855:7857   */\n      0x40\n        /* \"#utility.yul\":7844:7853   */\n      dup4\n        /* \"#utility.yul\":7840:7858   */\n      add\n        /* \"#utility.yul\":7831:7837   */\n      dup5\n        /* \"#utility.yul\":7787:7859   */\n      tag_236\n      jump\t// in\n    tag_346:\n        /* \"#utility.yul\":7424:7866   */\n      swap5\n      swap4\n      pop\n      pop\n      pop\n      pop\n      jump\t// out\n        /* \"#utility.yul\":7872:8096   */\n    tag_245:\n        /* \"#utility.yul\":8012:8046   */\n      0x5761697420756e74696c20796f75722063757272656e7420706c616e20656c61\n        /* \"#utility.yul\":8008:8009   */\n      0x00\n        /* \"#utility.yul\":8000:8006   */\n      dup3\n        /* \"#utility.yul\":7996:8010   */\n      add\n        /* \"#utility.yul\":7989:8047   */\n      mstore\n        /* \"#utility.yul\":8081:8088   */\n      0x707365732e000000000000000000000000000000000000000000000000000000\n        /* \"#utility.yul\":8076:8078   */\n      0x20\n        /* \"#utility.yul\":8068:8074   */\n      dup3\n        /* \"#utility.yul\":8064:8079   */\n      add\n        /* \"#utility.yul\":8057:8089   */\n      mstore\n        /* \"#utility.yul\":7872:8096   */\n      pop\n      jump\t// out\n        /* \"#utility.yul\":8102:8468   */\n    tag_246:\n        /* \"#utility.yul\":8244:8247   */\n      0x00\n        /* \"#utility.yul\":8265:8332   */\n      tag_349\n        /* \"#utility.yul\":8329:8331   */\n      0x25\n        /* \"#utility.yul\":8324:8327   */\n      dup4\n        /* \"#utility.yul\":8265:8332   */\n      tag_242\n      jump\t// in\n    tag_349:\n        /* \"#utility.yul\":8258:8332   */\n      swap2\n      pop\n        /* \"#utility.yul\":8341:8434   */\n      tag_350\n        /* \"#utility.yul\":8430:8433   */\n      dup3\n        /* \"#utility.yul\":8341:8434   */\n      tag_245\n      jump\t// in\n    tag_350:\n        /* \"#utility.yul\":8459:8461   */\n      0x40\n        /* \"#utility.yul\":8454:8457   */\n      dup3\n        /* \"#utility.yul\":8450:8462   */\n      add\n        /* \"#utility.yul\":8443:8462   */\n      swap1\n      pop\n        /* \"#utility.yul\":8102:8468   */\n      swap2\n      swap1\n      pop\n      jump\t// out\n        /* \"#utility.yul\":8474:8893   */\n    tag_83:\n        /* \"#utility.yul\":8640:8644   */\n      0x00\n        /* \"#utility.yul\":8678:8680   */\n      0x20\n        /* \"#utility.yul\":8667:8676   */\n      dup3\n        /* \"#utility.yul\":8663:8681   */\n      add\n        /* \"#utility.yul\":8655:8681   */\n      swap1\n      pop\n        /* \"#utility.yul\":8727:8736   */\n      dup2\n        /* \"#utility.yul\":8721:8725   */\n      dup2\n        /* \"#utility.yul\":8717:8737   */\n      sub\n        /* \"#utility.yul\":8713:8714   */\n      0x00\n        /* \"#utility.yul\":8702:8711   */\n      dup4\n        /* \"#utility.yul\":8698:8715   */\n      add\n        /* \"#utility.yul\":8691:8738   */\n      mstore\n        /* \"#utility.yul\":8755:8886   */\n      tag_352\n        /* \"#utility.yul\":8881:8885   */\n      dup2\n        /* \"#utility.yul\":8755:8886   */\n      tag_246\n      jump\t// in\n    tag_352:\n        /* \"#utility.yul\":8747:8886   */\n      swap1\n      pop\n        /* \"#utility.yul\":8474:8893   */\n      swap2\n      swap1\n      pop\n      jump\t// out\n        /* \"#utility.yul\":8899:9061   */\n    tag_247:\n        /* \"#utility.yul\":9039:9053   */\n      0x496e76616c696420706c616e0000000000000000000000000000000000000000\n        /* \"#utility.yul\":9035:9036   */\n      0x00\n        /* \"#utility.yul\":9027:9033   */\n      dup3\n        /* \"#utility.yul\":9023:9037   */\n      add\n        /* \"#utility.yul\":9016:9054   */\n      mstore\n        /* \"#utility.yul\":8899:9061   */\n      pop\n      jump\t// out\n        /* \"#utility.yul\":9067:9433   */\n    tag_248:\n        /* \"#utility.yul\":9209:9212   */\n      0x00\n        /* \"#utility.yul\":9230:9297   */\n      tag_355\n        /* \"#utility.yul\":9294:9296   */\n      0x0c\n        /* \"#utility.yul\":9289:9292   */\n      dup4\n        /* \"#utility.yul\":9230:9297   */\n      tag_242\n      jump\t// in\n    tag_355:\n        /* \"#utility.yul\":9223:9297   */\n      swap2\n      pop\n        /* \"#utility.yul\":9306:9399   */\n      tag_356\n        /* \"#utility.yul\":9395:9398   */\n      dup3\n        /* \"#utility.yul\":9306:9399   */\n      tag_247\n      jump\t// in\n    tag_356:\n        /* \"#utility.yul\":9424:9426   */\n      0x20\n        /* \"#utility.yul\":9419:9422   */\n      dup3\n        /* \"#utility.yul\":9415:9427   */\n      add\n        /* \"#utility.yul\":9408:9427   */\n      swap1\n      pop\n        /* \"#utility.yul\":9067:9433   */\n      swap2\n      swap1\n      pop\n      jump\t// out\n        /* \"#utility.yul\":9439:9858   */\n    tag_86:\n        /* \"#utility.yul\":9605:9609   */\n      0x00\n        /* \"#utility.yul\":9643:9645   */\n      0x20\n        /* \"#utility.yul\":9632:9641   */\n      dup3\n        /* \"#utility.yul\":9628:9646   */\n      add\n        /* \"#utility.yul\":9620:9646   */\n      swap1\n      pop\n        /* \"#utility.yul\":9692:9701   */\n      dup2\n        /* \"#utility.yul\":9686:9690   */\n      dup2\n        /* \"#utility.yul\":9682:9702   */\n      sub\n        /* \"#utility.yul\":9678:9679   */\n      0x00\n        /* \"#utility.yul\":9667:9676   */\n      dup4\n        /* \"#utility.yul\":9663:9680   */\n      add\n        /* \"#utility.yul\":9656:9703   */\n      mstore\n        /* \"#utility.yul\":9720:9851   */\n      tag_358\n        /* \"#utility.yul\":9846:9850   */\n      dup2\n        /* \"#utility.yul\":9720:9851   */\n      tag_248\n      jump\t// in\n    tag_358:\n        /* \"#utility.yul\":9712:9851   */\n      swap1\n      pop\n        /* \"#utility.yul\":9439:9858   */\n      swap2\n      swap1\n      pop\n      jump\t// out\n        /* \"#utility.yul\":9864:10196   */\n    tag_91:\n        /* \"#utility.yul\":9985:9989   */\n      0x00\n        /* \"#utility.yul\":10023:10025   */\n      0x40\n        /* \"#utility.yul\":10012:10021   */\n      dup3\n        /* \"#utility.yul\":10008:10026   */\n      add\n        /* \"#utility.yul\":10000:10026   */\n      swap1\n      pop\n        /* \"#utility.yul\":10036:10107   */\n      tag_360\n        /* \"#utility.yul\":10104:10105   */\n      0x00\n        /* \"#utility.yul\":10093:10102   */\n      dup4\n        /* \"#utility.yul\":10089:10106   */\n      add\n        /* \"#utility.yul\":10080:10086   */\n      dup6\n        /* \"#utility.yul\":10036:10107   */\n      tag_229\n      jump\t// in\n    tag_360:\n        /* \"#utility.yul\":10117:10189   */\n      tag_361\n        /* \"#utility.yul\":10185:10187   */\n      0x20\n        /* \"#utility.yul\":10174:10183   */\n      dup4\n        /* \"#utility.yul\":10170:10188   */\n      add\n        /* \"#utility.yul\":10161:10167   */\n      dup5\n        /* \"#utility.yul\":10117:10189   */\n      tag_229\n      jump\t// in\n    tag_361:\n        /* \"#utility.yul\":9864:10196   */\n      swap4\n      swap3\n      pop\n      pop\n      pop\n      jump\t// out\n        /* \"#utility.yul\":10202:10345   */\n    tag_249:\n        /* \"#utility.yul\":10259:10264   */\n      0x00\n        /* \"#utility.yul\":10290:10296   */\n      dup2\n        /* \"#utility.yul\":10284:10297   */\n      mload\n        /* \"#utility.yul\":10275:10297   */\n      swap1\n      pop\n        /* \"#utility.yul\":10306:10339   */\n      tag_363\n        /* \"#utility.yul\":10333:10338   */\n      dup2\n        /* \"#utility.yul\":10306:10339   */\n      tag_237\n      jump\t// in\n    tag_363:\n        /* \"#utility.yul\":10202:10345   */\n      swap3\n      swap2\n      pop\n      pop\n      jump\t// out\n        /* \"#utility.yul\":10351:10702   */\n    tag_95:\n        /* \"#utility.yul\":10421:10427   */\n      0x00\n        /* \"#utility.yul\":10470:10472   */\n      0x20\n        /* \"#utility.yul\":10458:10467   */\n      dup3\n        /* \"#utility.yul\":10449:10456   */\n      dup5\n        /* \"#utility.yul\":10445:10468   */\n      sub\n        /* \"#utility.yul\":10441:10473   */\n      slt\n        /* \"#utility.yul\":10438:10557   */\n      iszero\n      tag_365\n      jumpi\n        /* \"#utility.yul\":10476:10555   */\n      tag_366\n      tag_231\n      jump\t// in\n    tag_366:\n        /* \"#utility.yul\":10438:10557   */\n    tag_365:\n        /* \"#utility.yul\":10596:10597   */\n      0x00\n        /* \"#utility.yul\":10621:10685   */\n      tag_367\n        /* \"#utility.yul\":10677:10684   */\n      dup5\n        /* \"#utility.yul\":10668:10674   */\n      dup3\n        /* \"#utility.yul\":10657:10666   */\n      dup6\n        /* \"#utility.yul\":10653:10675   */\n      add\n        /* \"#utility.yul\":10621:10685   */\n      tag_249\n      jump\t// in\n    tag_367:\n        /* \"#utility.yul\":10611:10685   */\n      swap2\n      pop\n        /* \"#utility.yul\":10567:10695   */\n      pop\n        /* \"#utility.yul\":10351:10702   */\n      swap3\n      swap2\n      pop\n      pop\n      jump\t// out\n        /* \"#utility.yul\":10708:10941   */\n    tag_250:\n        /* \"#utility.yul\":10848:10882   */\n      0x496e73756666696369656e7420746f6b656e20616c6c6f77616e636520666f72\n        /* \"#utility.yul\":10844:10845   */\n      0x00\n        /* \"#utility.yul\":10836:10842   */\n      dup3\n        /* \"#utility.yul\":10832:10846   */\n      add\n        /* \"#utility.yul\":10825:10883   */\n      mstore\n        /* \"#utility.yul\":10917:10933   */\n      0x20737562736372697074696f6e21000000000000000000000000000000000000\n        /* \"#utility.yul\":10912:10914   */\n      0x20\n        /* \"#utility.yul\":10904:10910   */\n      dup3\n        /* \"#utility.yul\":10900:10915   */\n      add\n        /* \"#utility.yul\":10893:10934   */\n      mstore\n        /* \"#utility.yul\":10708:10941   */\n      pop\n      jump\t// out\n        /* \"#utility.yul\":10947:11313   */\n    tag_251:\n        /* \"#utility.yul\":11089:11092   */\n      0x00\n        /* \"#utility.yul\":11110:11177   */\n      tag_370\n        /* \"#utility.yul\":11174:11176   */\n      0x2e\n        /* \"#utility.yul\":11169:11172   */\n      dup4\n        /* \"#utility.yul\":11110:11177   */\n      tag_242\n      jump\t// in\n    tag_370:\n        /* \"#utility.yul\":11103:11177   */\n      swap2\n      pop\n        /* \"#utility.yul\":11186:11279   */\n      tag_371\n        /* \"#utility.yul\":11275:11278   */\n      dup3\n        /* \"#utility.yul\":11186:11279   */\n      tag_250\n      jump\t// in\n    tag_371:\n        /* \"#utility.yul\":11304:11306   */\n      0x40\n        /* \"#utility.yul\":11299:11302   */\n      dup3\n        /* \"#utility.yul\":11295:11307   */\n      add\n        /* \"#utility.yul\":11288:11307   */\n      swap1\n      pop\n        /* \"#utility.yul\":10947:11313   */\n      swap2\n      swap1\n      pop\n      jump\t// out\n        /* \"#utility.yul\":11319:11738   */\n    tag_98:\n        /* \"#utility.yul\":11485:11489   */\n      0x00\n        /* \"#utility.yul\":11523:11525   */\n      0x20\n        /* \"#utility.yul\":11512:11521   */\n      dup3\n        /* \"#utility.yul\":11508:11526   */\n      add\n        /* \"#utility.yul\":11500:11526   */\n      swap1\n      pop\n        /* \"#utility.yul\":11572:11581   */\n      dup2\n        /* \"#utility.yul\":11566:11570   */\n      dup2\n        /* \"#utility.yul\":11562:11582   */\n      sub\n        /* \"#utility.yul\":11558:11559   */\n      0x00\n        /* \"#utility.yul\":11547:11556   */\n      dup4\n        /* \"#utility.yul\":11543:11560   */\n      add\n        /* \"#utility.yul\":11536:11583   */\n      mstore\n        /* \"#utility.yul\":11600:11731   */\n      tag_373\n        /* \"#utility.yul\":11726:11730   */\n      dup2\n        /* \"#utility.yul\":11600:11731   */\n      tag_251\n      jump\t// in\n    tag_373:\n        /* \"#utility.yul\":11592:11731   */\n      swap1\n      pop\n        /* \"#utility.yul\":11319:11738   */\n      swap2\n      swap1\n      pop\n      jump\t// out\n        /* \"#utility.yul\":11744:11908   */\n    tag_252:\n        /* \"#utility.yul\":11884:11900   */\n      0x526566657272616c206572726f72000000000000000000000000000000000000\n        /* \"#utility.yul\":11880:11881   */\n      0x00\n        /* \"#utility.yul\":11872:11878   */\n      dup3\n        /* \"#utility.yul\":11868:11882   */\n      add\n        /* \"#utility.yul\":11861:11901   */\n      mstore\n        /* \"#utility.yul\":11744:11908   */\n      pop\n      jump\t// out\n        /* \"#utility.yul\":11914:12280   */\n    tag_253:\n        /* \"#utility.yul\":12056:12059   */\n      0x00\n        /* \"#utility.yul\":12077:12144   */\n      tag_376\n        /* \"#utility.yul\":12141:12143   */\n      0x0e\n        /* \"#utility.yul\":12136:12139   */\n      dup4\n        /* \"#utility.yul\":12077:12144   */\n      tag_242\n      jump\t// in\n    tag_376:\n        /* \"#utility.yul\":12070:12144   */\n      swap2\n      pop\n        /* \"#utility.yul\":12153:12246   */\n      tag_377\n        /* \"#utility.yul\":12242:12245   */\n      dup3\n        /* \"#utility.yul\":12153:12246   */\n      tag_252\n      jump\t// in\n    tag_377:\n        /* \"#utility.yul\":12271:12273   */\n      0x20\n        /* \"#utility.yul\":12266:12269   */\n      dup3\n        /* \"#utility.yul\":12262:12274   */\n      add\n        /* \"#utility.yul\":12255:12274   */\n      swap1\n      pop\n        /* \"#utility.yul\":11914:12280   */\n      swap2\n      swap1\n      pop\n      jump\t// out\n        /* \"#utility.yul\":12286:12705   */\n    tag_103:\n        /* \"#utility.yul\":12452:12456   */\n      0x00\n        /* \"#utility.yul\":12490:12492   */\n      0x20\n        /* \"#utility.yul\":12479:12488   */\n      dup3\n        /* \"#utility.yul\":12475:12493   */\n      add\n        /* \"#utility.yul\":12467:12493   */\n      swap1\n      pop\n        /* \"#utility.yul\":12539:12548   */\n      dup2\n        /* \"#utility.yul\":12533:12537   */\n      dup2\n        /* \"#utility.yul\":12529:12549   */\n      sub\n        /* \"#utility.yul\":12525:12526   */\n      0x00\n        /* \"#utility.yul\":12514:12523   */\n      dup4\n        /* \"#utility.yul\":12510:12527   */\n      add\n        /* \"#utility.yul\":12503:12550   */\n      mstore\n        /* \"#utility.yul\":12567:12698   */\n      tag_379\n        /* \"#utility.yul\":12693:12697   */\n      dup2\n        /* \"#utility.yul\":12567:12698   */\n      tag_253\n      jump\t// in\n    tag_379:\n        /* \"#utility.yul\":12559:12698   */\n      swap1\n      pop\n        /* \"#utility.yul\":12286:12705   */\n      swap2\n      swap1\n      pop\n      jump\t// out\n        /* \"#utility.yul\":12711:13153   */\n    tag_106:\n        /* \"#utility.yul\":12860:12864   */\n      0x00\n        /* \"#utility.yul\":12898:12900   */\n      0x60\n        /* \"#utility.yul\":12887:12896   */\n      dup3\n        /* \"#utility.yul\":12883:12901   */\n      add\n        /* \"#utility.yul\":12875:12901   */\n      swap1\n      pop\n        /* \"#utility.yul\":12911:12982   */\n      tag_381\n        /* \"#utility.yul\":12979:12980   */\n      0x00\n        /* \"#utility.yul\":12968:12977   */\n      dup4\n        /* \"#utility.yul\":12964:12981   */\n      add\n        /* \"#utility.yul\":12955:12961   */\n      dup7\n        /* \"#utility.yul\":12911:12982   */\n      tag_229\n      jump\t// in\n    tag_381:\n        /* \"#utility.yul\":12992:13064   */\n      tag_382\n        /* \"#utility.yul\":13060:13062   */\n      0x20\n        /* \"#utility.yul\":13049:13058   */\n      dup4\n        /* \"#utility.yul\":13045:13063   */\n      add\n        /* \"#utility.yul\":13036:13042   */\n      dup6\n        /* \"#utility.yul\":12992:13064   */\n      tag_229\n      jump\t// in\n    tag_382:\n        /* \"#utility.yul\":13074:13146   */\n      tag_383\n        /* \"#utility.yul\":13142:13144   */\n      0x40\n        /* \"#utility.yul\":13131:13140   */\n      dup4\n        /* \"#utility.yul\":13127:13145   */\n      add\n        /* \"#utility.yul\":13118:13124   */\n      dup5\n        /* \"#utility.yul\":13074:13146   */\n      tag_236\n      jump\t// in\n    tag_383:\n        /* \"#utility.yul\":12711:13153   */\n      swap5\n      swap4\n      pop\n      pop\n      pop\n      pop\n      jump\t// out\n        /* \"#utility.yul\":13159:13823   */\n    tag_113:\n        /* \"#utility.yul\":13364:13368   */\n      0x00\n        /* \"#utility.yul\":13402:13405   */\n      0xa0\n        /* \"#utility.yul\":13391:13400   */\n      dup3\n        /* \"#utility.yul\":13387:13406   */\n      add\n        /* \"#utility.yul\":13379:13406   */\n      swap1\n      pop\n        /* \"#utility.yul\":13416:13487   */\n      tag_385\n        /* \"#utility.yul\":13484:13485   */\n      0x00\n        /* \"#utility.yul\":13473:13482   */\n      dup4\n        /* \"#utility.yul\":13469:13486   */\n      add\n        /* \"#utility.yul\":13460:13466   */\n      dup9\n        /* \"#utility.yul\":13416:13487   */\n      tag_229\n      jump\t// in\n    tag_385:\n        /* \"#utility.yul\":13497:13569   */\n      tag_386\n        /* \"#utility.yul\":13565:13567   */\n      0x20\n        /* \"#utility.yul\":13554:13563   */\n      dup4\n        /* \"#utility.yul\":13550:13568   */\n      add\n        /* \"#utility.yul\":13541:13547   */\n      dup8\n        /* \"#utility.yul\":13497:13569   */\n      tag_236\n      jump\t// in\n    tag_386:\n        /* \"#utility.yul\":13579:13651   */\n      tag_387\n        /* \"#utility.yul\":13647:13649   */\n      0x40\n        /* \"#utility.yul\":13636:13645   */\n      dup4\n        /* \"#utility.yul\":13632:13650   */\n      add\n        /* \"#utility.yul\":13623:13629   */\n      dup7\n        /* \"#utility.yul\":13579:13651   */\n      tag_236\n      jump\t// in\n    tag_387:\n        /* \"#utility.yul\":13661:13733   */\n      tag_388\n        /* \"#utility.yul\":13729:13731   */\n      0x60\n        /* \"#utility.yul\":13718:13727   */\n      dup4\n        /* \"#utility.yul\":13714:13732   */\n      add\n        /* \"#utility.yul\":13705:13711   */\n      dup6\n        /* \"#utility.yul\":13661:13733   */\n      tag_236\n      jump\t// in\n    tag_388:\n        /* \"#utility.yul\":13743:13816   */\n      tag_389\n        /* \"#utility.yul\":13811:13814   */\n      0x80\n        /* \"#utility.yul\":13800:13809   */\n      dup4\n        /* \"#utility.yul\":13796:13815   */\n      add\n        /* \"#utility.yul\":13787:13793   */\n      dup5\n        /* \"#utility.yul\":13743:13816   */\n      tag_236\n      jump\t// in\n    tag_389:\n        /* \"#utility.yul\":13159:13823   */\n      swap7\n      swap6\n      pop\n      pop\n      pop\n      pop\n      pop\n      pop\n      jump\t// out\n        /* \"#utility.yul\":13829:14001   */\n    tag_254:\n        /* \"#utility.yul\":13969:13993   */\n      0x52656e657720796f7572206465616c657220706c616e00000000000000000000\n        /* \"#utility.yul\":13965:13966   */\n      0x00\n        /* \"#utility.yul\":13957:13963   */\n      dup3\n        /* \"#utility.yul\":13953:13967   */\n      add\n        /* \"#utility.yul\":13946:13994   */\n      mstore\n        /* \"#utility.yul\":13829:14001   */\n      pop\n      jump\t// out\n        /* \"#utility.yul\":14007:14373   */\n    tag_255:\n        /* \"#utility.yul\":14149:14152   */\n      0x00\n        /* \"#utility.yul\":14170:14237   */\n      tag_392\n        /* \"#utility.yul\":14234:14236   */\n      0x16\n        /* \"#utility.yul\":14229:14232   */\n      dup4\n        /* \"#utility.yul\":14170:14237   */\n      tag_242\n      jump\t// in\n    tag_392:\n        /* \"#utility.yul\":14163:14237   */\n      swap2\n      pop\n        /* \"#utility.yul\":14246:14339   */\n      tag_393\n        /* \"#utility.yul\":14335:14338   */\n      dup3\n        /* \"#utility.yul\":14246:14339   */\n      tag_254\n      jump\t// in\n    tag_393:\n        /* \"#utility.yul\":14364:14366   */\n      0x20\n        /* \"#utility.yul\":14359:14362   */\n      dup3\n        /* \"#utility.yul\":14355:14367   */\n      add\n        /* \"#utility.yul\":14348:14367   */\n      swap1\n      pop\n        /* \"#utility.yul\":14007:14373   */\n      swap2\n      swap1\n      pop\n      jump\t// out\n        /* \"#utility.yul\":14379:14798   */\n    tag_117:\n        /* \"#utility.yul\":14545:14549   */\n      0x00\n        /* \"#utility.yul\":14583:14585   */\n      0x20\n        /* \"#utility.yul\":14572:14581   */\n      dup3\n        /* \"#utility.yul\":14568:14586   */\n      add\n        /* \"#utility.yul\":14560:14586   */\n      swap1\n      pop\n        /* \"#utility.yul\":14632:14641   */\n      dup2\n        /* \"#utility.yul\":14626:14630   */\n      dup2\n        /* \"#utility.yul\":14622:14642   */\n      sub\n        /* \"#utility.yul\":14618:14619   */\n      0x00\n        /* \"#utility.yul\":14607:14616   */\n      dup4\n        /* \"#utility.yul\":14603:14620   */\n      add\n        /* \"#utility.yul\":14596:14643   */\n      mstore\n        /* \"#utility.yul\":14660:14791   */\n      tag_395\n        /* \"#utility.yul\":14786:14790   */\n      dup2\n        /* \"#utility.yul\":14660:14791   */\n      tag_255\n      jump\t// in\n    tag_395:\n        /* \"#utility.yul\":14652:14791   */\n      swap1\n      pop\n        /* \"#utility.yul\":14379:14798   */\n      swap2\n      swap1\n      pop\n      jump\t// out\n        /* \"#utility.yul\":14804:14984   */\n    tag_130:\n        /* \"#utility.yul\":14852:14929   */\n      0x4e487b7100000000000000000000000000000000000000000000000000000000\n        /* \"#utility.yul\":14849:14850   */\n      0x00\n        /* \"#utility.yul\":14842:14930   */\n      mstore\n        /* \"#utility.yul\":14949:14953   */\n      0x21\n        /* \"#utility.yul\":14946:14947   */\n      0x04\n        /* \"#utility.yul\":14939:14954   */\n      mstore\n        /* \"#utility.yul\":14973:14977   */\n      0x24\n        /* \"#utility.yul\":14970:14971   */\n      0x00\n        /* \"#utility.yul\":14963:14978   */\n      revert\n        /* \"#utility.yul\":14990:15214   */\n    tag_256:\n        /* \"#utility.yul\":15130:15164   */\n      0x4163636573732064656e6965642c204f6e6c79206f776e657220697320616c6c\n        /* \"#utility.yul\":15126:15127   */\n      0x00\n        /* \"#utility.yul\":15118:15124   */\n      dup3\n        /* \"#utility.yul\":15114:15128   */\n      add\n        /* \"#utility.yul\":15107:15165   */\n      mstore\n        /* \"#utility.yul\":15199:15206   */\n      0x6f77656421000000000000000000000000000000000000000000000000000000\n        /* \"#utility.yul\":15194:15196   */\n      0x20\n        /* \"#utility.yul\":15186:15192   */\n      dup3\n        /* \"#utility.yul\":15182:15197   */\n      add\n        /* \"#utility.yul\":15175:15207   */\n      mstore\n        /* \"#utility.yul\":14990:15214   */\n      pop\n      jump\t// out\n        /* \"#utility.yul\":15220:15586   */\n    tag_257:\n        /* \"#utility.yul\":15362:15365   */\n      0x00\n        /* \"#utility.yul\":15383:15450   */\n      tag_399\n        /* \"#utility.yul\":15447:15449   */\n      0x25\n        /* \"#utility.yul\":15442:15445   */\n      dup4\n        /* \"#utility.yul\":15383:15450   */\n      tag_242\n      jump\t// in\n    tag_399:\n        /* \"#utility.yul\":15376:15450   */\n      swap2\n      pop\n        /* \"#utility.yul\":15459:15552   */\n      tag_400\n        /* \"#utility.yul\":15548:15551   */\n      dup3\n        /* \"#utility.yul\":15459:15552   */\n      tag_256\n      jump\t// in\n    tag_400:\n        /* \"#utility.yul\":15577:15579   */\n      0x40\n        /* \"#utility.yul\":15572:15575   */\n      dup3\n        /* \"#utility.yul\":15568:15580   */\n      add\n        /* \"#utility.yul\":15561:15580   */\n      swap1\n      pop\n        /* \"#utility.yul\":15220:15586   */\n      swap2\n      swap1\n      pop\n      jump\t// out\n        /* \"#utility.yul\":15592:16011   */\n    tag_146:\n        /* \"#utility.yul\":15758:15762   */\n      0x00\n        /* \"#utility.yul\":15796:15798   */\n      0x20\n        /* \"#utility.yul\":15785:15794   */\n      dup3\n        /* \"#utility.yul\":15781:15799   */\n      add\n        /* \"#utility.yul\":15773:15799   */\n      swap1\n      pop\n        /* \"#utility.yul\":15845:15854   */\n      dup2\n        /* \"#utility.yul\":15839:15843   */\n      dup2\n        /* \"#utility.yul\":15835:15855   */\n      sub\n        /* \"#utility.yul\":15831:15832   */\n      0x00\n        /* \"#utility.yul\":15820:15829   */\n      dup4\n        /* \"#utility.yul\":15816:15833   */\n      add\n        /* \"#utility.yul\":15809:15856   */\n      mstore\n        /* \"#utility.yul\":15873:16004   */\n      tag_402\n        /* \"#utility.yul\":15999:16003   */\n      dup2\n        /* \"#utility.yul\":15873:16004   */\n      tag_257\n      jump\t// in\n    tag_402:\n        /* \"#utility.yul\":15865:16004   */\n      swap1\n      pop\n        /* \"#utility.yul\":15592:16011   */\n      swap2\n      swap1\n      pop\n      jump\t// out\n        /* \"#utility.yul\":16017:16792   */\n    tag_156:\n        /* \"#utility.yul\":16250:16254   */\n      0x00\n        /* \"#utility.yul\":16288:16291   */\n      0xc0\n        /* \"#utility.yul\":16277:16286   */\n      dup3\n        /* \"#utility.yul\":16273:16292   */\n      add\n        /* \"#utility.yul\":16265:16292   */\n      swap1\n      pop\n        /* \"#utility.yul\":16302:16373   */\n      tag_404\n        /* \"#utility.yul\":16370:16371   */\n      0x00\n        /* \"#utility.yul\":16359:16368   */\n      dup4\n        /* \"#utility.yul\":16355:16372   */\n      add\n        /* \"#utility.yul\":16346:16352   */\n      dup10\n        /* \"#utility.yul\":16302:16373   */\n      tag_236\n      jump\t// in\n    tag_404:\n        /* \"#utility.yul\":16383:16455   */\n      tag_405\n        /* \"#utility.yul\":16451:16453   */\n      0x20\n        /* \"#utility.yul\":16440:16449   */\n      dup4\n        /* \"#utility.yul\":16436:16454   */\n      add\n        /* \"#utility.yul\":16427:16433   */\n      dup9\n        /* \"#utility.yul\":16383:16455   */\n      tag_236\n      jump\t// in\n    tag_405:\n        /* \"#utility.yul\":16465:16537   */\n      tag_406\n        /* \"#utility.yul\":16533:16535   */\n      0x40\n        /* \"#utility.yul\":16522:16531   */\n      dup4\n        /* \"#utility.yul\":16518:16536   */\n      add\n        /* \"#utility.yul\":16509:16515   */\n      dup8\n        /* \"#utility.yul\":16465:16537   */\n      tag_236\n      jump\t// in\n    tag_406:\n        /* \"#utility.yul\":16547:16619   */\n      tag_407\n        /* \"#utility.yul\":16615:16617   */\n      0x60\n        /* \"#utility.yul\":16604:16613   */\n      dup4\n        /* \"#utility.yul\":16600:16618   */\n      add\n        /* \"#utility.yul\":16591:16597   */\n      dup7\n        /* \"#utility.yul\":16547:16619   */\n      tag_229\n      jump\t// in\n    tag_407:\n        /* \"#utility.yul\":16629:16702   */\n      tag_408\n        /* \"#utility.yul\":16697:16700   */\n      0x80\n        /* \"#utility.yul\":16686:16695   */\n      dup4\n        /* \"#utility.yul\":16682:16701   */\n      add\n        /* \"#utility.yul\":16673:16679   */\n      dup6\n        /* \"#utility.yul\":16629:16702   */\n      tag_236\n      jump\t// in\n    tag_408:\n        /* \"#utility.yul\":16712:16785   */\n      tag_409\n        /* \"#utility.yul\":16780:16783   */\n      0xa0\n        /* \"#utility.yul\":16769:16778   */\n      dup4\n        /* \"#utility.yul\":16765:16784   */\n      add\n        /* \"#utility.yul\":16756:16762   */\n      dup5\n        /* \"#utility.yul\":16712:16785   */\n      tag_229\n      jump\t// in\n    tag_409:\n        /* \"#utility.yul\":16017:16792   */\n      swap8\n      swap7\n      pop\n      pop\n      pop\n      pop\n      pop\n      pop\n      pop\n      jump\t// out\n        /* \"#utility.yul\":16798:16963   */\n    tag_258:\n        /* \"#utility.yul\":16938:16955   */\n      0x526566657272616c206572726f722e0000000000000000000000000000000000\n        /* \"#utility.yul\":16934:16935   */\n      0x00\n        /* \"#utility.yul\":16926:16932   */\n      dup3\n        /* \"#utility.yul\":16922:16936   */\n      add\n        /* \"#utility.yul\":16915:16956   */\n      mstore\n        /* \"#utility.yul\":16798:16963   */\n      pop\n      jump\t// out\n        /* \"#utility.yul\":16969:17335   */\n    tag_259:\n        /* \"#utility.yul\":17111:17114   */\n      0x00\n        /* \"#utility.yul\":17132:17199   */\n      tag_412\n        /* \"#utility.yul\":17196:17198   */\n      0x0f\n        /* \"#utility.yul\":17191:17194   */\n      dup4\n        /* \"#utility.yul\":17132:17199   */\n      tag_242\n      jump\t// in\n    tag_412:\n        /* \"#utility.yul\":17125:17199   */\n      swap2\n      pop\n        /* \"#utility.yul\":17208:17301   */\n      tag_413\n        /* \"#utility.yul\":17297:17300   */\n      dup3\n        /* \"#utility.yul\":17208:17301   */\n      tag_258\n      jump\t// in\n    tag_413:\n        /* \"#utility.yul\":17326:17328   */\n      0x20\n        /* \"#utility.yul\":17321:17324   */\n      dup3\n        /* \"#utility.yul\":17317:17329   */\n      add\n        /* \"#utility.yul\":17310:17329   */\n      swap1\n      pop\n        /* \"#utility.yul\":16969:17335   */\n      swap2\n      swap1\n      pop\n      jump\t// out\n        /* \"#utility.yul\":17341:17760   */\n    tag_175:\n        /* \"#utility.yul\":17507:17511   */\n      0x00\n        /* \"#utility.yul\":17545:17547   */\n      0x20\n        /* \"#utility.yul\":17534:17543   */\n      dup3\n        /* \"#utility.yul\":17530:17548   */\n      add\n        /* \"#utility.yul\":17522:17548   */\n      swap1\n      pop\n        /* \"#utility.yul\":17594:17603   */\n      dup2\n        /* \"#utility.yul\":17588:17592   */\n      dup2\n        /* \"#utility.yul\":17584:17604   */\n      sub\n        /* \"#utility.yul\":17580:17581   */\n      0x00\n        /* \"#utility.yul\":17569:17578   */\n      dup4\n        /* \"#utility.yul\":17565:17582   */\n      add\n        /* \"#utility.yul\":17558:17605   */\n      mstore\n        /* \"#utility.yul\":17622:17753   */\n      tag_415\n        /* \"#utility.yul\":17748:17752   */\n      dup2\n        /* \"#utility.yul\":17622:17753   */\n      tag_259\n      jump\t// in\n    tag_415:\n        /* \"#utility.yul\":17614:17753   */\n      swap1\n      pop\n        /* \"#utility.yul\":17341:17760   */\n      swap2\n      swap1\n      pop\n      jump\t// out\n        /* \"#utility.yul\":17766:17946   */\n    tag_260:\n        /* \"#utility.yul\":17814:17891   */\n      0x4e487b7100000000000000000000000000000000000000000000000000000000\n        /* \"#utility.yul\":17811:17812   */\n      0x00\n        /* \"#utility.yul\":17804:17892   */\n      mstore\n        /* \"#utility.yul\":17911:17915   */\n      0x11\n        /* \"#utility.yul\":17908:17909   */\n      0x04\n        /* \"#utility.yul\":17901:17916   */\n      mstore\n        /* \"#utility.yul\":17935:17939   */\n      0x24\n        /* \"#utility.yul\":17932:17933   */\n      0x00\n        /* \"#utility.yul\":17925:17940   */\n      revert\n        /* \"#utility.yul\":17952:18257   */\n    tag_186:\n        /* \"#utility.yul\":17992:17995   */\n      0x00\n        /* \"#utility.yul\":18011:18031   */\n      tag_418\n        /* \"#utility.yul\":18029:18030   */\n      dup3\n        /* \"#utility.yul\":18011:18031   */\n      tag_235\n      jump\t// in\n    tag_418:\n        /* \"#utility.yul\":18006:18031   */\n      swap2\n      pop\n        /* \"#utility.yul\":18045:18065   */\n      tag_419\n        /* \"#utility.yul\":18063:18064   */\n      dup4\n        /* \"#utility.yul\":18045:18065   */\n      tag_235\n      jump\t// in\n    tag_419:\n        /* \"#utility.yul\":18040:18065   */\n      swap3\n      pop\n        /* \"#utility.yul\":18199:18200   */\n      dup3\n        /* \"#utility.yul\":18131:18197   */\n      0xffffffffffffffffffffffffffffffffffffffffffffffffffffffffffffffff\n        /* \"#utility.yul\":18127:18201   */\n      sub\n        /* \"#utility.yul\":18124:18125   */\n      dup3\n        /* \"#utility.yul\":18121:18202   */\n      gt\n        /* \"#utility.yul\":18118:18225   */\n      iszero\n      tag_420\n      jumpi\n        /* \"#utility.yul\":18205:18223   */\n      tag_421\n      tag_260\n      jump\t// in\n    tag_421:\n        /* \"#utility.yul\":18118:18225   */\n    tag_420:\n        /* \"#utility.yul\":18249:18250   */\n      dup3\n        /* \"#utility.yul\":18246:18247   */\n      dup3\n        /* \"#utility.yul\":18242:18251   */\n      add\n        /* \"#utility.yul\":18235:18251   */\n      swap1\n      pop\n        /* \"#utility.yul\":17952:18257   */\n      swap3\n      swap2\n      pop\n      pop\n      jump\t// out\n        /* \"#utility.yul\":18263:18406   */\n    tag_261:\n        /* \"#utility.yul\":18320:18325   */\n      0x00\n        /* \"#utility.yul\":18351:18357   */\n      dup2\n        /* \"#utility.yul\":18345:18358   */\n      mload\n        /* \"#utility.yul\":18336:18358   */\n      swap1\n      pop\n        /* \"#utility.yul\":18367:18400   */\n      tag_423\n        /* \"#utility.yul\":18394:18399   */\n      dup2\n        /* \"#utility.yul\":18367:18400   */\n      tag_233\n      jump\t// in\n    tag_423:\n        /* \"#utility.yul\":18263:18406   */\n      swap3\n      swap2\n      pop\n      pop\n      jump\t// out\n        /* \"#utility.yul\":18412:18763   */\n    tag_192:\n        /* \"#utility.yul\":18482:18488   */\n      0x00\n        /* \"#utility.yul\":18531:18533   */\n      0x20\n        /* \"#utility.yul\":18519:18528   */\n      dup3\n        /* \"#utility.yul\":18510:18517   */\n      dup5\n        /* \"#utility.yul\":18506:18529   */\n      sub\n        /* \"#utility.yul\":18502:18534   */\n      slt\n        /* \"#utility.yul\":18499:18618   */\n      iszero\n      tag_425\n      jumpi\n        /* \"#utility.yul\":18537:18616   */\n      tag_426\n      tag_231\n      jump\t// in\n    tag_426:\n        /* \"#utility.yul\":18499:18618   */\n    tag_425:\n        /* \"#utility.yul\":18657:18658   */\n      0x00\n        /* \"#utility.yul\":18682:18746   */\n      tag_427\n        /* \"#utility.yul\":18738:18745   */\n      dup5\n        /* \"#utility.yul\":18729:18735   */\n      dup3\n        /* \"#utility.yul\":18718:18727   */\n      dup6\n        /* \"#utility.yul\":18714:18736   */\n      add\n        /* \"#utility.yul\":18682:18746   */\n      tag_261\n      jump\t// in\n    tag_427:\n        /* \"#utility.yul\":18672:18746   */\n      swap2\n      pop\n        /* \"#utility.yul\":18628:18756   */\n      pop\n        /* \"#utility.yul\":18412:18763   */\n      swap3\n      swap2\n      pop\n      pop\n      jump\t// out\n        /* \"#utility.yul\":18769:18871   */\n    tag_262:\n        /* \"#utility.yul\":18811:18819   */\n      0x00\n        /* \"#utility.yul\":18858:18863   */\n      dup2\n        /* \"#utility.yul\":18855:18856   */\n      0x01\n        /* \"#utility.yul\":18851:18864   */\n      shr\n        /* \"#utility.yul\":18830:18864   */\n      swap1\n      pop\n        /* \"#utility.yul\":18769:18871   */\n      swap2\n      swap1\n      pop\n      jump\t// out\n        /* \"#utility.yul\":18877:19725   */\n    tag_263:\n        /* \"#utility.yul\":18938:18943   */\n      0x00\n        /* \"#utility.yul\":18945:18949   */\n      dup1\n        /* \"#utility.yul\":18969:18975   */\n      dup3\n        /* \"#utility.yul\":18960:18975   */\n      swap2\n      pop\n        /* \"#utility.yul\":18993:18998   */\n      dup4\n        /* \"#utility.yul\":18984:18998   */\n      swap1\n      pop\n        /* \"#utility.yul\":19007:19719   */\n    tag_430:\n        /* \"#utility.yul\":19028:19029   */\n      0x01\n        /* \"#utility.yul\":19018:19026   */\n      dup6\n        /* \"#utility.yul\":19015:19030   */\n      gt\n        /* \"#utility.yul\":19007:19719   */\n      iszero\n      tag_432\n      jumpi\n        /* \"#utility.yul\":19123:19127   */\n      dup1\n        /* \"#utility.yul\":19118:19121   */\n      dup7\n        /* \"#utility.yul\":19114:19128   */\n      div\n        /* \"#utility.yul\":19108:19112   */\n      dup2\n        /* \"#utility.yul\":19105:19129   */\n      gt\n        /* \"#utility.yul\":19102:19152   */\n      iszero\n      tag_433\n      jumpi\n        /* \"#utility.yul\":19132:19150   */\n      tag_434\n      tag_260\n      jump\t// in\n    tag_434:\n        /* \"#utility.yul\":19102:19152   */\n    tag_433:\n        /* \"#utility.yul\":19182:19183   */\n      0x01\n        /* \"#utility.yul\":19172:19180   */\n      dup6\n        /* \"#utility.yul\":19168:19184   */\n      and\n        /* \"#utility.yul\":19165:19616   */\n      iszero\n      tag_435\n      jumpi\n        /* \"#utility.yul\":19597:19601   */\n      dup1\n        /* \"#utility.yul\":19590:19595   */\n      dup3\n        /* \"#utility.yul\":19586:19602   */\n      mul\n        /* \"#utility.yul\":19577:19602   */\n      swap2\n      pop\n        /* \"#utility.yul\":19165:19616   */\n    tag_435:\n        /* \"#utility.yul\":19647:19651   */\n      dup1\n        /* \"#utility.yul\":19641:19645   */\n      dup2\n        /* \"#utility.yul\":19637:19652   */\n      mul\n        /* \"#utility.yul\":19629:19652   */\n      swap1\n      pop\n        /* \"#utility.yul\":19677:19709   */\n      tag_436\n        /* \"#utility.yul\":19700:19708   */\n      dup6\n        /* \"#utility.yul\":19677:19709   */\n      tag_262\n      jump\t// in\n    tag_436:\n        /* \"#utility.yul\":19665:19709   */\n      swap5\n      pop\n        /* \"#utility.yul\":19007:19719   */\n      jump(tag_430)\n    tag_432:\n        /* \"#utility.yul\":18877:19725   */\n      swap5\n      pop\n      swap5\n      swap3\n      pop\n      pop\n      pop\n      jump\t// out\n        /* \"#utility.yul\":19731:20804   */\n    tag_264:\n        /* \"#utility.yul\":19785:19790   */\n      0x00\n        /* \"#utility.yul\":19976:19984   */\n      dup3\n        /* \"#utility.yul\":19966:20006   */\n      tag_438\n      jumpi\n        /* \"#utility.yul\":19997:19998   */\n      0x01\n        /* \"#utility.yul\":19988:19998   */\n      swap1\n      pop\n        /* \"#utility.yul\":19999:20004   */\n      jump(tag_437)\n        /* \"#utility.yul\":19966:20006   */\n    tag_438:\n        /* \"#utility.yul\":20025:20029   */\n      dup2\n        /* \"#utility.yul\":20015:20051   */\n      tag_439\n      jumpi\n        /* \"#utility.yul\":20042:20043   */\n      0x00\n        /* \"#utility.yul\":20033:20043   */\n      swap1\n      pop\n        /* \"#utility.yul\":20044:20049   */\n      jump(tag_437)\n        /* \"#utility.yul\":20015:20051   */\n    tag_439:\n        /* \"#utility.yul\":20111:20115   */\n      dup2\n        /* \"#utility.yul\":20159:20160   */\n      0x01\n        /* \"#utility.yul\":20154:20181   */\n      dup2\n      eq\n      tag_441\n      jumpi\n        /* \"#utility.yul\":20195:20196   */\n      0x02\n        /* \"#utility.yul\":20190:20381   */\n      dup2\n      eq\n      tag_442\n      jumpi\n        /* \"#utility.yul\":20104:20381   */\n      jump(tag_440)\n        /* \"#utility.yul\":20154:20181   */\n    tag_441:\n        /* \"#utility.yul\":20172:20173   */\n      0x01\n        /* \"#utility.yul\":20163:20173   */\n      swap2\n      pop\n        /* \"#utility.yul\":20174:20179   */\n      pop\n      jump(tag_437)\n        /* \"#utility.yul\":20190:20381   */\n    tag_442:\n        /* \"#utility.yul\":20235:20238   */\n      0xff\n        /* \"#utility.yul\":20225:20233   */\n      dup5\n        /* \"#utility.yul\":20222:20239   */\n      gt\n        /* \"#utility.yul\":20219:20262   */\n      iszero\n      tag_443\n      jumpi\n        /* \"#utility.yul\":20242:20260   */\n      tag_444\n      tag_260\n      jump\t// in\n    tag_444:\n        /* \"#utility.yul\":20219:20262   */\n    tag_443:\n        /* \"#utility.yul\":20291:20299   */\n      dup4\n        /* \"#utility.yul\":20288:20289   */\n      0x02\n        /* \"#utility.yul\":20284:20300   */\n      exp\n        /* \"#utility.yul\":20275:20300   */\n      swap2\n      pop\n        /* \"#utility.yul\":20326:20329   */\n      dup5\n        /* \"#utility.yul\":20319:20324   */\n      dup3\n        /* \"#utility.yul\":20316:20330   */\n      gt\n        /* \"#utility.yul\":20313:20353   */\n      iszero\n      tag_445\n      jumpi\n        /* \"#utility.yul\":20333:20351   */\n      tag_446\n      tag_260\n      jump\t// in\n    tag_446:\n        /* \"#utility.yul\":20313:20353   */\n    tag_445:\n        /* \"#utility.yul\":20366:20371   */\n      pop\n      jump(tag_437)\n        /* \"#utility.yul\":20104:20381   */\n    tag_440:\n      pop\n        /* \"#utility.yul\":20490:20492   */\n      0x20\n        /* \"#utility.yul\":20480:20488   */\n      dup4\n        /* \"#utility.yul\":20477:20493   */\n      lt\n        /* \"#utility.yul\":20471:20474   */\n      0x0133\n        /* \"#utility.yul\":20465:20469   */\n      dup4\n        /* \"#utility.yul\":20462:20475   */\n      lt\n        /* \"#utility.yul\":20458:20494   */\n      and\n        /* \"#utility.yul\":20440:20442   */\n      0x4e\n        /* \"#utility.yul\":20430:20438   */\n      dup5\n        /* \"#utility.yul\":20427:20443   */\n      lt\n        /* \"#utility.yul\":20422:20424   */\n      0x0b\n        /* \"#utility.yul\":20416:20420   */\n      dup5\n        /* \"#utility.yul\":20413:20425   */\n      lt\n        /* \"#utility.yul\":20409:20444   */\n      and\n        /* \"#utility.yul\":20393:20504   */\n      or\n        /* \"#utility.yul\":20390:20636   */\n      iszero\n      tag_447\n      jumpi\n        /* \"#utility.yul\":20546:20554   */\n      dup3\n        /* \"#utility.yul\":20540:20544   */\n      dup3\n        /* \"#utility.yul\":20536:20555   */\n      exp\n        /* \"#utility.yul\":20527:20555   */\n      swap1\n      pop\n        /* \"#utility.yul\":20581:20584   */\n      dup4\n        /* \"#utility.yul\":20574:20579   */\n      dup2\n        /* \"#utility.yul\":20571:20585   */\n      gt\n        /* \"#utility.yul\":20568:20608   */\n      iszero\n      tag_448\n      jumpi\n        /* \"#utility.yul\":20588:20606   */\n      tag_449\n      tag_260\n      jump\t// in\n    tag_449:\n        /* \"#utility.yul\":20568:20608   */\n    tag_448:\n        /* \"#utility.yul\":20621:20626   */\n      jump(tag_437)\n        /* \"#utility.yul\":20390:20636   */\n    tag_447:\n        /* \"#utility.yul\":20661:20703   */\n      tag_450\n        /* \"#utility.yul\":20699:20702   */\n      dup5\n        /* \"#utility.yul\":20689:20697   */\n      dup5\n        /* \"#utility.yul\":20683:20687   */\n      dup5\n        /* \"#utility.yul\":20680:20681   */\n      0x01\n        /* \"#utility.yul\":20661:20703   */\n      tag_263\n      jump\t// in\n    tag_450:\n        /* \"#utility.yul\":20646:20703   */\n      swap3\n      pop\n      swap1\n      pop\n        /* \"#utility.yul\":20735:20739   */\n      dup2\n        /* \"#utility.yul\":20730:20733   */\n      dup5\n        /* \"#utility.yul\":20726:20740   */\n      div\n        /* \"#utility.yul\":20719:20724   */\n      dup2\n        /* \"#utility.yul\":20716:20741   */\n      gt\n        /* \"#utility.yul\":20713:20764   */\n      iszero\n      tag_451\n      jumpi\n        /* \"#utility.yul\":20744:20762   */\n      tag_452\n      tag_260\n      jump\t// in\n    tag_452:\n        /* \"#utility.yul\":20713:20764   */\n    tag_451:\n        /* \"#utility.yul\":20793:20797   */\n      dup2\n        /* \"#utility.yul\":20786:20791   */\n      dup2\n        /* \"#utility.yul\":20782:20798   */\n      mul\n        /* \"#utility.yul\":20773:20798   */\n      swap1\n      pop\n        /* \"#utility.yul\":19731:20804   */\n    tag_437:\n      swap4\n      swap3\n      pop\n      pop\n      pop\n      jump\t// out\n        /* \"#utility.yul\":20810:21095   */\n    tag_215:\n        /* \"#utility.yul\":20870:20875   */\n      0x00\n        /* \"#utility.yul\":20894:20917   */\n      tag_454\n        /* \"#utility.yul\":20912:20916   */\n      dup3\n        /* \"#utility.yul\":20894:20917   */\n      tag_235\n      jump\t// in\n    tag_454:\n        /* \"#utility.yul\":20886:20917   */\n      swap2\n      pop\n        /* \"#utility.yul\":20938:20965   */\n      tag_455\n        /* \"#utility.yul\":20956:20964   */\n      dup4\n        /* \"#utility.yul\":20938:20965   */\n      tag_235\n      jump\t// in\n    tag_455:\n        /* \"#utility.yul\":20926:20965   */\n      swap3\n      pop\n        /* \"#utility.yul\":20984:21088   */\n      tag_456\n        /* \"#utility.yul\":21021:21087   */\n      0xffffffffffffffffffffffffffffffffffffffffffffffffffffffffffffffff\n        /* \"#utility.yul\":21011:21019   */\n      dup5\n        /* \"#utility.yul\":21005:21009   */\n      dup5\n        /* \"#utility.yul\":20984:21088   */\n      tag_264\n      jump\t// in\n    tag_456:\n        /* \"#utility.yul\":20975:21088   */\n      swap1\n      pop\n        /* \"#utility.yul\":20810:21095   */\n      swap3\n      swap2\n      pop\n      pop\n      jump\t// out\n        /* \"#utility.yul\":21101:21281   */\n    tag_265:\n        /* \"#utility.yul\":21149:21226   */\n      0x4e487b7100000000000000000000000000000000000000000000000000000000\n        /* \"#utility.yul\":21146:21147   */\n      0x00\n        /* \"#utility.yul\":21139:21227   */\n      mstore\n        /* \"#utility.yul\":21246:21250   */\n      0x12\n        /* \"#utility.yul\":21243:21244   */\n      0x04\n        /* \"#utility.yul\":21236:21251   */\n      mstore\n        /* \"#utility.yul\":21270:21274   */\n      0x24\n        /* \"#utility.yul\":21267:21268   */\n      0x00\n        /* \"#utility.yul\":21260:21275   */\n      revert\n        /* \"#utility.yul\":21287:21472   */\n    tag_219:\n        /* \"#utility.yul\":21327:21328   */\n      0x00\n        /* \"#utility.yul\":21344:21364   */\n      tag_459\n        /* \"#utility.yul\":21362:21363   */\n      dup3\n        /* \"#utility.yul\":21344:21364   */\n      tag_235\n      jump\t// in\n    tag_459:\n        /* \"#utility.yul\":21339:21364   */\n      swap2\n      pop\n        /* \"#utility.yul\":21378:21398   */\n      tag_460\n        /* \"#utility.yul\":21396:21397   */\n      dup4\n        /* \"#utility.yul\":21378:21398   */\n      tag_235\n      jump\t// in\n    tag_460:\n        /* \"#utility.yul\":21373:21398   */\n      swap3\n      pop\n        /* \"#utility.yul\":21417:21418   */\n      dup3\n        /* \"#utility.yul\":21407:21442   */\n      tag_461\n      jumpi\n        /* \"#utility.yul\":21422:21440   */\n      tag_462\n      tag_265\n      jump\t// in\n    tag_462:\n        /* \"#utility.yul\":21407:21442   */\n    tag_461:\n        /* \"#utility.yul\":21464:21465   */\n      dup3\n        /* \"#utility.yul\":21461:21462   */\n      dup3\n        /* \"#utility.yul\":21457:21466   */\n      div\n        /* \"#utility.yul\":21452:21466   */\n      swap1\n      pop\n        /* \"#utility.yul\":21287:21472   */\n      swap3\n      swap2\n      pop\n      pop\n      jump\t// out\n        /* \"#utility.yul\":21478:21669   */\n    tag_222:\n        /* \"#utility.yul\":21518:21522   */\n      0x00\n        /* \"#utility.yul\":21538:21558   */\n      tag_464\n        /* \"#utility.yul\":21556:21557   */\n      dup3\n        /* \"#utility.yul\":21538:21558   */\n      tag_235\n      jump\t// in\n    tag_464:\n        /* \"#utility.yul\":21533:21558   */\n      swap2\n      pop\n        /* \"#utility.yul\":21572:21592   */\n      tag_465\n        /* \"#utility.yul\":21590:21591   */\n      dup4\n        /* \"#utility.yul\":21572:21592   */\n      tag_235\n      jump\t// in\n    tag_465:\n        /* \"#utility.yul\":21567:21592   */\n      swap3\n      pop\n        /* \"#utility.yul\":21611:21612   */\n      dup3\n        /* \"#utility.yul\":21608:21609   */\n      dup3\n        /* \"#utility.yul\":21605:21613   */\n      lt\n        /* \"#utility.yul\":21602:21636   */\n      iszero\n      tag_466\n      jumpi\n        /* \"#utility.yul\":21616:21634   */\n      tag_467\n      tag_260\n      jump\t// in\n    tag_467:\n        /* \"#utility.yul\":21602:21636   */\n    tag_466:\n        /* \"#utility.yul\":21661:21662   */\n      dup3\n        /* \"#utility.yul\":21658:21659   */\n      dup3\n        /* \"#utility.yul\":21654:21663   */\n      sub\n        /* \"#utility.yul\":21646:21663   */\n      swap1\n      pop\n        /* \"#utility.yul\":21478:21669   */\n      swap3\n      swap2\n      pop\n      pop\n      jump\t// out\n        /* \"#utility.yul\":21675:22023   */\n    tag_226:\n        /* \"#utility.yul\":21715:21722   */\n      0x00\n        /* \"#utility.yul\":21738:21758   */\n      tag_469\n        /* \"#utility.yul\":21756:21757   */\n      dup3\n        /* \"#utility.yul\":21738:21758   */\n      tag_235\n      jump\t// in\n    tag_469:\n        /* \"#utility.yul\":21733:21758   */\n      swap2\n      pop\n        /* \"#utility.yul\":21772:21792   */\n      tag_470\n        /* \"#utility.yul\":21790:21791   */\n      dup4\n        /* \"#utility.yul\":21772:21792   */\n      tag_235\n      jump\t// in\n    tag_470:\n        /* \"#utility.yul\":21767:21792   */\n      swap3\n      pop\n        /* \"#utility.yul\":21960:21961   */\n      dup2\n        /* \"#utility.yul\":21892:21958   */\n      0xffffffffffffffffffffffffffffffffffffffffffffffffffffffffffffffff\n        /* \"#utility.yul\":21888:21962   */\n      div\n        /* \"#utility.yul\":21885:21886   */\n      dup4\n        /* \"#utility.yul\":21882:21963   */\n      gt\n        /* \"#utility.yul\":21877:21878   */\n      dup3\n        /* \"#utility.yul\":21870:21879   */\n      iszero\n        /* \"#utility.yul\":21863:21880   */\n      iszero\n        /* \"#utility.yul\":21859:21964   */\n      and\n        /* \"#utility.yul\":21856:21987   */\n      iszero\n      tag_471\n      jumpi\n        /* \"#utility.yul\":21967:21985   */\n      tag_472\n      tag_260\n      jump\t// in\n    tag_472:\n        /* \"#utility.yul\":21856:21987   */\n    tag_471:\n        /* \"#utility.yul\":22015:22016   */\n      dup3\n        /* \"#utility.yul\":22012:22013   */\n      dup3\n        /* \"#utility.yul\":22008:22017   */\n      mul\n        /* \"#utility.yul\":21997:22017   */\n      swap1\n      pop\n        /* \"#utility.yul\":21675:22023   */\n      swap3\n      swap2\n      pop\n      pop\n      jump\t// out\n\n    auxdata: 0xa2646970667358221220fa3f748a03c5693b718827fc04461b1453072a371ae34461665e935b16cfc77d64736f6c634300080c0033\n}\n",
				"bytecode": {
					"linkReferences": {},
					"object": "608060405234801561001057600080fd5b50612817806100206000396000f3fe608060405234801561001057600080fd5b50600436106100935760003560e01c806389499f8d1161006657806389499f8d1461010e578063901afb301461012a578063a61d62571461015a578063ad83044314610176578063f9f113911461019557610093565b80631355a30614610098578063235eb9f5146100b6578063468c25a8146100c05780636b667b9b146100f2575b600080fd5b6100a06101b1565b6040516100ad9190611c0b565b60405180910390f35b6100be6103aa565b005b6100da60048036038101906100d59190611c57565b610547565b6040516100e993929190611c9d565b60405180910390f35b61010c60048036038101906101079190611d00565b61061e565b005b61012860048036038101906101239190611c57565b610a47565b005b610144600480360381019061013f9190611c57565b610d2f565b6040516101519190611d40565b60405180910390f35b610174600480360381019061016f9190611d5b565b610e7f565b005b61017e61105a565b60405161018c929190611dd6565b60405180910390f35b6101af60048036038101906101aa9190611dff565b61106e565b005b6000806045805490501115610351576101d6600160445461149990919063ffffffff16565b604580549050141561027c5760006045604454815481106101fa576101f9611e52565b5b906000526020600020016040518060200160405290816000820160009054906101000a900473ffffffffffffffffffffffffffffffffffffffff1673ffffffffffffffffffffffffffffffffffffffff1673ffffffffffffffffffffffffffffffffffffffff16815250509050600060448190555080600001519150506103a7565b610292600160445461149990919063ffffffff16565b604580549050111561034c5760006045604454815481106102b6576102b5611e52565b5b906000526020600020016040518060200160405290816000820160009054906101000a900473ffffffffffffffffffffffffffffffffffffffff1673ffffffffffffffffffffffffffffffffffffffff1673ffffffffffffffffffffffffffffffffffffffff16815250509050610339600160445461149990919063ffffffff16565b60448190555080600001519150506103a7565b61037e565b600060380160009054906101000a900473ffffffffffffffffffffffffffffffffffffffff1690506103a7565b600060380160009054906101000a900473ffffffffffffffffffffffffffffffffffffffff1690505b90565b600080603a01549050600080603a018190555060008060340160009054906101000a900473ffffffffffffffffffffffffffffffffffffffff1690508073ffffffffffffffffffffffffffffffffffffffff1663a9059cbb600060380160009054906101000a900473ffffffffffffffffffffffffffffffffffffffff16846040518363ffffffff1660e01b8152600401610446929190611e81565b6020604051808303816000875af1158015610465573d6000803e3d6000fd5b505050506040513d601f19601f820116820180604052508101906104899190611ee2565b6104c8576040517f08c379a00000000000000000000000000000000000000000000000000000000081526004016104bf90611f6c565b60405180910390fd5b6104dd8260475461149990919063ffffffff16565b6047819055507fc7b074008d0eb21fa6ba78babb2da91414daf366ac56cdc4328e4e34b5c2e738600060380160009054906101000a900473ffffffffffffffffffffffffffffffffffffffff16834260405161053b93929190611f8c565b60405180910390a15050565b60008060008060390160008573ffffffffffffffffffffffffffffffffffffffff1673ffffffffffffffffffffffffffffffffffffffff168152602001908152602001600020546000603c0160008673ffffffffffffffffffffffffffffffffffffffff1673ffffffffffffffffffffffffffffffffffffffff16815260200190815260200160002054604860008773ffffffffffffffffffffffffffffffffffffffff1673ffffffffffffffffffffffffffffffffffffffff168152602001908152602001600020549250925092509193909250565b600060350160008373ffffffffffffffffffffffffffffffffffffffff1673ffffffffffffffffffffffffffffffffffffffff168152602001908152602001600020544210156106a3576040517f08c379a000000000000000000000000000000000000000000000000000000000815260040161069a90612035565b60405180910390fd5b600080603301600083815260200190815260200160002054905081600060370160008573ffffffffffffffffffffffffffffffffffffffff1673ffffffffffffffffffffffffffffffffffffffff1681526020019081526020016000208190555060008111610747576040517f08c379a000000000000000000000000000000000000000000000000000000000815260040161073e906120a1565b60405180910390fd5b60006107606301e133804261149990919063ffffffff16565b905080600060350160008673ffffffffffffffffffffffffffffffffffffffff1673ffffffffffffffffffffffffffffffffffffffff168152602001908152602001600020819055506001600060360160008673ffffffffffffffffffffffffffffffffffffffff1673ffffffffffffffffffffffffffffffffffffffff16815260200190815260200160002060006101000a81548160ff02191690831515021790555060008060340160009054906101000a900473ffffffffffffffffffffffffffffffffffffffff169050828173ffffffffffffffffffffffffffffffffffffffff1663dd62ed3e6108526114af565b306040518363ffffffff1660e01b81526004016108709291906120c1565b602060405180830381865afa15801561088d573d6000803e3d6000fd5b505050506040513d601f19601f820116820180604052508101906108b191906120ff565b10156108f2576040517f08c379a00000000000000000000000000000000000000000000000000000000081526004016108e99061219e565b60405180910390fd5b6108fc85846114b7565b61093b576040517f08c379a00000000000000000000000000000000000000000000000000000000081526004016109329061220a565b60405180910390fd5b8073ffffffffffffffffffffffffffffffffffffffff166323b872dd61095f6114af565b30866040518463ffffffff1660e01b815260040161097f9392919061222a565b6020604051808303816000875af115801561099e573d6000803e3d6000fd5b505050506040513d601f19601f820116820180604052508101906109c29190611ee2565b610a01576040517f08c379a00000000000000000000000000000000000000000000000000000000081526004016109f890611f6c565b60405180910390fd5b7fcb780c1b203d42c77c54c594aaa57f696b57039cf9eefce5266255e154ea1e0b8584848742604051610a38959493929190612261565b60405180910390a15050505050565b42600060350160008373ffffffffffffffffffffffffffffffffffffffff1673ffffffffffffffffffffffffffffffffffffffff168152602001908152602001600020541015610acc576040517f08c379a0000000000000000000000000000000000000000000000000000000008152600401610ac390612300565b60405180910390fd5b60008060390160008373ffffffffffffffffffffffffffffffffffffffff1673ffffffffffffffffffffffffffffffffffffffff16815260200190815260200160002054905060008060390160008473ffffffffffffffffffffffffffffffffffffffff1673ffffffffffffffffffffffffffffffffffffffff1681526020019081526020016000208190555060008060340160009054906101000a900473ffffffffffffffffffffffffffffffffffffffff1690508073ffffffffffffffffffffffffffffffffffffffff1663a9059cbb84846040518363ffffffff1660e01b8152600401610bbd929190611e81565b6020604051808303816000875af1158015610bdc573d6000803e3d6000fd5b505050506040513d601f19601f82011682018060405250810190610c009190611ee2565b610c3f576040517f08c379a0000000000000000000000000000000000000000000000000000000008152600401610c3690611f6c565b60405180910390fd5b610c9182604860008673ffffffffffffffffffffffffffffffffffffffff1673ffffffffffffffffffffffffffffffffffffffff1681526020019081526020016000205461149990919063ffffffff16565b604860008573ffffffffffffffffffffffffffffffffffffffff1673ffffffffffffffffffffffffffffffffffffffff16815260200190815260200160002081905550610ce98260465461149990919063ffffffff16565b6046819055507f4a76c364c7e53db1950771cab0e222edb75373273376b0165f03fe30ae8c2ec4838342604051610d2293929190611f8c565b60405180910390a1505050565b6000806002811115610d4457610d43612320565b5b600060370160008473ffffffffffffffffffffffffffffffffffffffff1673ffffffffffffffffffffffffffffffffffffffff168152602001908152602001600020541415610d9d5767030d98d59a9600009050610e7a565b60016002811115610db157610db0612320565b5b600060370160008473ffffffffffffffffffffffffffffffffffffffff1673ffffffffffffffffffffffffffffffffffffffff168152602001908152602001600020541415610e0a576701aa535d3d0c00009050610e7a565b600280811115610e1d57610e1c612320565b5b600060370160008473ffffffffffffffffffffffffffffffffffffffff1673ffffffffffffffffffffffffffffffffffffffff168152602001908152602001600020541415610e755766b1a2bc2ec500009050610e7a565b600090505b919050565b610e87611819565b73ffffffffffffffffffffffffffffffffffffffff16610ea56114af565b73ffffffffffffffffffffffffffffffffffffffff1614610efb576040517f08c379a0000000000000000000000000000000000000000000000000000000008152600401610ef2906123c1565b60405180910390fd5b8460006033016000806002811115610f1657610f15612320565b5b815260200190815260200160002081905550836000603301600060016002811115610f4457610f43612320565b5b8152602001908152602001600020819055508260006033016000600280811115610f7157610f70612320565b5b81526020019081526020016000208190555081600060340160006101000a81548173ffffffffffffffffffffffffffffffffffffffff021916908373ffffffffffffffffffffffffffffffffffffffff16021790555080600060380160006101000a81548173ffffffffffffffffffffffffffffffffffffffff021916908373ffffffffffffffffffffffffffffffffffffffff1602179055507f74ef99e9f61d2fb45df1c75adff49a40d916acf825590dcec368ed4a012ddd8985858584426110396114af565b60405161104b969594939291906123e1565b60405180910390a15050505050565b6000806000603a0154604754915091509091565b600060350160008473ffffffffffffffffffffffffffffffffffffffff1673ffffffffffffffffffffffffffffffffffffffff168152602001908152602001600020544210156110f3576040517f08c379a00000000000000000000000000000000000000000000000000000000081526004016110ea90612035565b60405180910390fd5b600080603301600084815260200190815260200160002054905082600060370160008673ffffffffffffffffffffffffffffffffffffffff1673ffffffffffffffffffffffffffffffffffffffff1681526020019081526020016000208190555060008111611197576040517f08c379a000000000000000000000000000000000000000000000000000000000815260040161118e906120a1565b60405180910390fd5b60006111b06301e133804261149990919063ffffffff16565b905080600060350160008773ffffffffffffffffffffffffffffffffffffffff1673ffffffffffffffffffffffffffffffffffffffff168152602001908152602001600020819055506001600060360160008773ffffffffffffffffffffffffffffffffffffffff1673ffffffffffffffffffffffffffffffffffffffff16815260200190815260200160002060006101000a81548160ff02191690831515021790555060008060340160009054906101000a900473ffffffffffffffffffffffffffffffffffffffff169050828173ffffffffffffffffffffffffffffffffffffffff1663dd62ed3e6112a26114af565b306040518363ffffffff1660e01b81526004016112c09291906120c1565b602060405180830381865afa1580156112dd573d6000803e3d6000fd5b505050506040513d601f19601f8201168201806040525081019061130191906120ff565b1015611342576040517f08c379a00000000000000000000000000000000000000000000000000000000081526004016113399061219e565b60405180910390fd5b61134d86858561184c565b61138c576040517f08c379a00000000000000000000000000000000000000000000000000000000081526004016113839061248e565b60405180910390fd5b8073ffffffffffffffffffffffffffffffffffffffff166323b872dd6113b06114af565b30866040518463ffffffff1660e01b81526004016113d09392919061222a565b6020604051808303816000875af11580156113ef573d6000803e3d6000fd5b505050506040513d601f19601f820116820180604052508101906114139190611ee2565b611452576040517f08c379a000000000000000000000000000000000000000000000000000000000815260040161144990611f6c565b60405180910390fd5b7fcb780c1b203d42c77c54c594aaa57f696b57039cf9eefce5266255e154ea1e0b8684848842604051611489959493929190612261565b60405180910390a1505050505050565b600081836114a791906124dd565b905092915050565b600033905090565b6000803073ffffffffffffffffffffffffffffffffffffffff16631355a3066040518163ffffffff1660e01b81526004016020604051808303816000875af1158015611507573d6000803e3d6000fd5b505050506040513d601f19601f8201168201806040525081019061152b9190612548565b9050600061154a6702c68af0bb14000085611b3990919063ffffffff16565b9050816000603b0160008773ffffffffffffffffffffffffffffffffffffffff1673ffffffffffffffffffffffffffffffffffffffff16815260200190815260200160002060006101000a81548173ffffffffffffffffffffffffffffffffffffffff021916908373ffffffffffffffffffffffffffffffffffffffff16021790555061162360016000603c0160008573ffffffffffffffffffffffffffffffffffffffff1673ffffffffffffffffffffffffffffffffffffffff1681526020019081526020016000205461149990919063ffffffff16565b6000603c0160008473ffffffffffffffffffffffffffffffffffffffff1673ffffffffffffffffffffffffffffffffffffffff168152602001908152602001600020819055506116be81600060390160008573ffffffffffffffffffffffffffffffffffffffff1673ffffffffffffffffffffffffffffffffffffffff1681526020019081526020016000205461149990919063ffffffff16565b600060390160008473ffffffffffffffffffffffffffffffffffffffff1673ffffffffffffffffffffffffffffffffffffffff1681526020019081526020016000208190555061172e61171a8286611b7190919063ffffffff16565b6000603a015461149990919063ffffffff16565b6000603a0181905550600060405180602001604052808773ffffffffffffffffffffffffffffffffffffffff1681525090506045819080600181540180825580915050600190039060005260206000200160009091909190915060008201518160000160006101000a81548173ffffffffffffffffffffffffffffffffffffffff021916908373ffffffffffffffffffffffffffffffffffffffff16021790555050507f8b6d6a18f019af6e4d9a15cd5af8c9d590e5ce49183de541941fdf6e6d407a5f8684426040516118049392919061222a565b60405180910390a16001935050505092915050565b6000611823611b87565b60030160009054906101000a900473ffffffffffffffffffffffffffffffffffffffff16905090565b60008061186a67058d15e17628000084611b3990919063ffffffff16565b9050836000603b0160008773ffffffffffffffffffffffffffffffffffffffff1673ffffffffffffffffffffffffffffffffffffffff16815260200190815260200160002060006101000a81548173ffffffffffffffffffffffffffffffffffffffff021916908373ffffffffffffffffffffffffffffffffffffffff16021790555061194360016000603c0160008773ffffffffffffffffffffffffffffffffffffffff1673ffffffffffffffffffffffffffffffffffffffff1681526020019081526020016000205461149990919063ffffffff16565b6000603c0160008673ffffffffffffffffffffffffffffffffffffffff1673ffffffffffffffffffffffffffffffffffffffff168152602001908152602001600020819055506119de81600060390160008773ffffffffffffffffffffffffffffffffffffffff1673ffffffffffffffffffffffffffffffffffffffff1681526020019081526020016000205461149990919063ffffffff16565b600060390160008673ffffffffffffffffffffffffffffffffffffffff1673ffffffffffffffffffffffffffffffffffffffff16815260200190815260200160002081905550611a4e611a3a8285611b7190919063ffffffff16565b6000603a015461149990919063ffffffff16565b6000603a0181905550600060405180602001604052808773ffffffffffffffffffffffffffffffffffffffff1681525090506045819080600181540180825580915050600190039060005260206000200160009091909190915060008201518160000160006101000a81548173ffffffffffffffffffffffffffffffffffffffff021916908373ffffffffffffffffffffffffffffffffffffffff16021790555050507f8b6d6a18f019af6e4d9a15cd5af8c9d590e5ce49183de541941fdf6e6d407a5f868642604051611b249392919061222a565b60405180910390a16001925050509392505050565b6000601260ff16600a611b4c91906126a8565b611b5f8385611bb490919063ffffffff16565b611b699190612722565b905092915050565b60008183611b7f9190612753565b905092915050565b6000807fc8fcad8db84d3cc18b4c41d551ea0ee66dd599cde068d998e57d5e09332c131c90508091505090565b60008183611bc29190612787565b905092915050565b600073ffffffffffffffffffffffffffffffffffffffff82169050919050565b6000611bf582611bca565b9050919050565b611c0581611bea565b82525050565b6000602082019050611c206000830184611bfc565b92915050565b600080fd5b611c3481611bea565b8114611c3f57600080fd5b50565b600081359050611c5181611c2b565b92915050565b600060208284031215611c6d57611c6c611c26565b5b6000611c7b84828501611c42565b91505092915050565b6000819050919050565b611c9781611c84565b82525050565b6000606082019050611cb26000830186611c8e565b611cbf6020830185611c8e565b611ccc6040830184611c8e565b949350505050565b611cdd81611c84565b8114611ce857600080fd5b50565b600081359050611cfa81611cd4565b92915050565b60008060408385031215611d1757611d16611c26565b5b6000611d2585828601611c42565b9250506020611d3685828601611ceb565b9150509250929050565b6000602082019050611d556000830184611c8e565b92915050565b600080600080600060a08688031215611d7757611d76611c26565b5b6000611d8588828901611ceb565b9550506020611d9688828901611ceb565b9450506040611da788828901611ceb565b9350506060611db888828901611c42565b9250506080611dc988828901611c42565b9150509295509295909350565b6000604082019050611deb6000830185611c8e565b611df86020830184611c8e565b9392505050565b600080600060608486031215611e1857611e17611c26565b5b6000611e2686828701611c42565b9350506020611e3786828701611ceb565b9250506040611e4886828701611c42565b9150509250925092565b7f4e487b7100000000000000000000000000000000000000000000000000000000600052603260045260246000fd5b6000604082019050611e966000830185611bfc565b611ea36020830184611c8e565b9392505050565b60008115159050919050565b611ebf81611eaa565b8114611eca57600080fd5b50565b600081519050611edc81611eb6565b92915050565b600060208284031215611ef857611ef7611c26565b5b6000611f0684828501611ecd565b91505092915050565b600082825260208201905092915050565b7f4661696c20746f207472616e7366657200000000000000000000000000000000600082015250565b6000611f56601083611f0f565b9150611f6182611f20565b602082019050919050565b60006020820190508181036000830152611f8581611f49565b9050919050565b6000606082019050611fa16000830186611bfc565b611fae6020830185611c8e565b611fbb6040830184611c8e565b949350505050565b7f5761697420756e74696c20796f75722063757272656e7420706c616e20656c6160008201527f707365732e000000000000000000000000000000000000000000000000000000602082015250565b600061201f602583611f0f565b915061202a82611fc3565b604082019050919050565b6000602082019050818103600083015261204e81612012565b9050919050565b7f496e76616c696420706c616e0000000000000000000000000000000000000000600082015250565b600061208b600c83611f0f565b915061209682612055565b602082019050919050565b600060208201905081810360008301526120ba8161207e565b9050919050565b60006040820190506120d66000830185611bfc565b6120e36020830184611bfc565b9392505050565b6000815190506120f981611cd4565b92915050565b60006020828403121561211557612114611c26565b5b6000612123848285016120ea565b91505092915050565b7f496e73756666696369656e7420746f6b656e20616c6c6f77616e636520666f7260008201527f20737562736372697074696f6e21000000000000000000000000000000000000602082015250565b6000612188602e83611f0f565b91506121938261212c565b604082019050919050565b600060208201905081810360008301526121b78161217b565b9050919050565b7f526566657272616c206572726f72000000000000000000000000000000000000600082015250565b60006121f4600e83611f0f565b91506121ff826121be565b602082019050919050565b60006020820190508181036000830152612223816121e7565b9050919050565b600060608201905061223f6000830186611bfc565b61224c6020830185611bfc565b6122596040830184611c8e565b949350505050565b600060a0820190506122766000830188611bfc565b6122836020830187611c8e565b6122906040830186611c8e565b61229d6060830185611c8e565b6122aa6080830184611c8e565b9695505050505050565b7f52656e657720796f7572206465616c657220706c616e00000000000000000000600082015250565b60006122ea601683611f0f565b91506122f5826122b4565b602082019050919050565b60006020820190508181036000830152612319816122dd565b9050919050565b7f4e487b7100000000000000000000000000000000000000000000000000000000600052602160045260246000fd5b7f4163636573732064656e6965642c204f6e6c79206f776e657220697320616c6c60008201527f6f77656421000000000000000000000000000000000000000000000000000000602082015250565b60006123ab602583611f0f565b91506123b68261234f565b604082019050919050565b600060208201905081810360008301526123da8161239e565b9050919050565b600060c0820190506123f66000830189611c8e565b6124036020830188611c8e565b6124106040830187611c8e565b61241d6060830186611bfc565b61242a6080830185611c8e565b61243760a0830184611bfc565b979650505050505050565b7f526566657272616c206572726f722e0000000000000000000000000000000000600082015250565b6000612478600f83611f0f565b915061248382612442565b602082019050919050565b600060208201905081810360008301526124a78161246b565b9050919050565b7f4e487b7100000000000000000000000000000000000000000000000000000000600052601160045260246000fd5b60006124e882611c84565b91506124f383611c84565b9250827fffffffffffffffffffffffffffffffffffffffffffffffffffffffffffffffff03821115612528576125276124ae565b5b828201905092915050565b60008151905061254281611c2b565b92915050565b60006020828403121561255e5761255d611c26565b5b600061256c84828501612533565b91505092915050565b60008160011c9050919050565b6000808291508390505b60018511156125cc578086048111156125a8576125a76124ae565b5b60018516156125b75780820291505b80810290506125c585612575565b945061258c565b94509492505050565b6000826125e557600190506126a1565b816125f357600090506126a1565b8160018114612609576002811461261357612642565b60019150506126a1565b60ff841115612625576126246124ae565b5b8360020a91508482111561263c5761263b6124ae565b5b506126a1565b5060208310610133831016604e8410600b84101617156126775782820a905083811115612672576126716124ae565b5b6126a1565b6126848484846001612582565b9250905081840481111561269b5761269a6124ae565b5b81810290505b9392505050565b60006126b382611c84565b91506126be83611c84565b92506126eb7fffffffffffffffffffffffffffffffffffffffffffffffffffffffffffffffff84846125d5565b905092915050565b7f4e487b7100000000000000000000000000000000000000000000000000000000600052601260045260246000fd5b600061272d82611c84565b915061273883611c84565b925082612748576127476126f3565b5b828204905092915050565b600061275e82611c84565b915061276983611c84565b92508282101561277c5761277b6124ae565b5b828203905092915050565b600061279282611c84565b915061279d83611c84565b9250817fffffffffffffffffffffffffffffffffffffffffffffffffffffffffffffffff04831182151516156127d6576127d56124ae565b5b82820290509291505056fea2646970667358221220fa3f748a03c5693b718827fc04461b1453072a371ae34461665e935b16cfc77d64736f6c634300080c0033",
					"opcodes": "PUSH1 0x80 PUSH1 0x40 MSTORE CALLVALUE DUP1 ISZERO PUSH2 0x10 JUMPI PUSH1 0x0 DUP1 REVERT JUMPDEST POP PUSH2 0x2817 DUP1 PUSH2 0x20 PUSH1 0x0 CODECOPY PUSH1 0x0 RETURN INVALID PUSH1 0x80 PUSH1 0x40 MSTORE CALLVALUE DUP1 ISZERO PUSH2 0x10 JUMPI PUSH1 0x0 DUP1 REVERT JUMPDEST POP PUSH1 0x4 CALLDATASIZE LT PUSH2 0x93 JUMPI PUSH1 0x0 CALLDATALOAD PUSH1 0xE0 SHR DUP1 PUSH4 0x89499F8D GT PUSH2 0x66 JUMPI DUP1 PUSH4 0x89499F8D EQ PUSH2 0x10E JUMPI DUP1 PUSH4 0x901AFB30 EQ PUSH2 0x12A JUMPI DUP1 PUSH4 0xA61D6257 EQ PUSH2 0x15A JUMPI DUP1 PUSH4 0xAD830443 EQ PUSH2 0x176 JUMPI DUP1 PUSH4 0xF9F11391 EQ PUSH2 0x195 JUMPI PUSH2 0x93 JUMP JUMPDEST DUP1 PUSH4 0x1355A306 EQ PUSH2 0x98 JUMPI DUP1 PUSH4 0x235EB9F5 EQ PUSH2 0xB6 JUMPI DUP1 PUSH4 0x468C25A8 EQ PUSH2 0xC0 JUMPI DUP1 PUSH4 0x6B667B9B EQ PUSH2 0xF2 JUMPI JUMPDEST PUSH1 0x0 DUP1 REVERT JUMPDEST PUSH2 0xA0 PUSH2 0x1B1 JUMP JUMPDEST PUSH1 0x40 MLOAD PUSH2 0xAD SWAP2 SWAP1 PUSH2 0x1C0B JUMP JUMPDEST PUSH1 0x40 MLOAD DUP1 SWAP2 SUB SWAP1 RETURN JUMPDEST PUSH2 0xBE PUSH2 0x3AA JUMP JUMPDEST STOP JUMPDEST PUSH2 0xDA PUSH1 0x4 DUP1 CALLDATASIZE SUB DUP2 ADD SWAP1 PUSH2 0xD5 SWAP2 SWAP1 PUSH2 0x1C57 JUMP JUMPDEST PUSH2 0x547 JUMP JUMPDEST PUSH1 0x40 MLOAD PUSH2 0xE9 SWAP4 SWAP3 SWAP2 SWAP1 PUSH2 0x1C9D JUMP JUMPDEST PUSH1 0x40 MLOAD DUP1 SWAP2 SUB SWAP1 RETURN JUMPDEST PUSH2 0x10C PUSH1 0x4 DUP1 CALLDATASIZE SUB DUP2 ADD SWAP1 PUSH2 0x107 SWAP2 SWAP1 PUSH2 0x1D00 JUMP JUMPDEST PUSH2 0x61E JUMP JUMPDEST STOP JUMPDEST PUSH2 0x128 PUSH1 0x4 DUP1 CALLDATASIZE SUB DUP2 ADD SWAP1 PUSH2 0x123 SWAP2 SWAP1 PUSH2 0x1C57 JUMP JUMPDEST PUSH2 0xA47 JUMP JUMPDEST STOP JUMPDEST PUSH2 0x144 PUSH1 0x4 DUP1 CALLDATASIZE SUB DUP2 ADD SWAP1 PUSH2 0x13F SWAP2 SWAP1 PUSH2 0x1C57 JUMP JUMPDEST PUSH2 0xD2F JUMP JUMPDEST PUSH1 0x40 MLOAD PUSH2 0x151 SWAP2 SWAP1 PUSH2 0x1D40 JUMP JUMPDEST PUSH1 0x40 MLOAD DUP1 SWAP2 SUB SWAP1 RETURN JUMPDEST PUSH2 0x174 PUSH1 0x4 DUP1 CALLDATASIZE SUB DUP2 ADD SWAP1 PUSH2 0x16F SWAP2 SWAP1 PUSH2 0x1D5B JUMP JUMPDEST PUSH2 0xE7F JUMP JUMPDEST STOP JUMPDEST PUSH2 0x17E PUSH2 0x105A JUMP JUMPDEST PUSH1 0x40 MLOAD PUSH2 0x18C SWAP3 SWAP2 SWAP1 PUSH2 0x1DD6 JUMP JUMPDEST PUSH1 0x40 MLOAD DUP1 SWAP2 SUB SWAP1 RETURN JUMPDEST PUSH2 0x1AF PUSH1 0x4 DUP1 CALLDATASIZE SUB DUP2 ADD SWAP1 PUSH2 0x1AA SWAP2 SWAP1 PUSH2 0x1DFF JUMP JUMPDEST PUSH2 0x106E JUMP JUMPDEST STOP JUMPDEST PUSH1 0x0 DUP1 PUSH1 0x45 DUP1 SLOAD SWAP1 POP GT ISZERO PUSH2 0x351 JUMPI PUSH2 0x1D6 PUSH1 0x1 PUSH1 0x44 SLOAD PUSH2 0x1499 SWAP1 SWAP2 SWAP1 PUSH4 0xFFFFFFFF AND JUMP JUMPDEST PUSH1 0x45 DUP1 SLOAD SWAP1 POP EQ ISZERO PUSH2 0x27C JUMPI PUSH1 0x0 PUSH1 0x45 PUSH1 0x44 SLOAD DUP2 SLOAD DUP2 LT PUSH2 0x1FA JUMPI PUSH2 0x1F9 PUSH2 0x1E52 JUMP JUMPDEST JUMPDEST SWAP1 PUSH1 0x0 MSTORE PUSH1 0x20 PUSH1 0x0 KECCAK256 ADD PUSH1 0x40 MLOAD DUP1 PUSH1 0x20 ADD PUSH1 0x40 MSTORE SWAP1 DUP2 PUSH1 0x0 DUP3 ADD PUSH1 0x0 SWAP1 SLOAD SWAP1 PUSH2 0x100 EXP SWAP1 DIV PUSH20 0xFFFFFFFFFFFFFFFFFFFFFFFFFFFFFFFFFFFFFFFF AND PUSH20 0xFFFFFFFFFFFFFFFFFFFFFFFFFFFFFFFFFFFFFFFF AND PUSH20 0xFFFFFFFFFFFFFFFFFFFFFFFFFFFFFFFFFFFFFFFF AND DUP2 MSTORE POP POP SWAP1 POP PUSH1 0x0 PUSH1 0x44 DUP2 SWAP1 SSTORE POP DUP1 PUSH1 0x0 ADD MLOAD SWAP2 POP POP PUSH2 0x3A7 JUMP JUMPDEST PUSH2 0x292 PUSH1 0x1 PUSH1 0x44 SLOAD PUSH2 0x1499 SWAP1 SWAP2 SWAP1 PUSH4 0xFFFFFFFF AND JUMP JUMPDEST PUSH1 0x45 DUP1 SLOAD SWAP1 POP GT ISZERO PUSH2 0x34C JUMPI PUSH1 0x0 PUSH1 0x45 PUSH1 0x44 SLOAD DUP2 SLOAD DUP2 LT PUSH2 0x2B6 JUMPI PUSH2 0x2B5 PUSH2 0x1E52 JUMP JUMPDEST JUMPDEST SWAP1 PUSH1 0x0 MSTORE PUSH1 0x20 PUSH1 0x0 KECCAK256 ADD PUSH1 0x40 MLOAD DUP1 PUSH1 0x20 ADD PUSH1 0x40 MSTORE SWAP1 DUP2 PUSH1 0x0 DUP3 ADD PUSH1 0x0 SWAP1 SLOAD SWAP1 PUSH2 0x100 EXP SWAP1 DIV PUSH20 0xFFFFFFFFFFFFFFFFFFFFFFFFFFFFFFFFFFFFFFFF AND PUSH20 0xFFFFFFFFFFFFFFFFFFFFFFFFFFFFFFFFFFFFFFFF AND PUSH20 0xFFFFFFFFFFFFFFFFFFFFFFFFFFFFFFFFFFFFFFFF AND DUP2 MSTORE POP POP SWAP1 POP PUSH2 0x339 PUSH1 0x1 PUSH1 0x44 SLOAD PUSH2 0x1499 SWAP1 SWAP2 SWAP1 PUSH4 0xFFFFFFFF AND JUMP JUMPDEST PUSH1 0x44 DUP2 SWAP1 SSTORE POP DUP1 PUSH1 0x0 ADD MLOAD SWAP2 POP POP PUSH2 0x3A7 JUMP JUMPDEST PUSH2 0x37E JUMP JUMPDEST PUSH1 0x0 PUSH1 0x38 ADD PUSH1 0x0 SWAP1 SLOAD SWAP1 PUSH2 0x100 EXP SWAP1 DIV PUSH20 0xFFFFFFFFFFFFFFFFFFFFFFFFFFFFFFFFFFFFFFFF AND SWAP1 POP PUSH2 0x3A7 JUMP JUMPDEST PUSH1 0x0 PUSH1 0x38 ADD PUSH1 0x0 SWAP1 SLOAD SWAP1 PUSH2 0x100 EXP SWAP1 DIV PUSH20 0xFFFFFFFFFFFFFFFFFFFFFFFFFFFFFFFFFFFFFFFF AND SWAP1 POP JUMPDEST SWAP1 JUMP JUMPDEST PUSH1 0x0 DUP1 PUSH1 0x3A ADD SLOAD SWAP1 POP PUSH1 0x0 DUP1 PUSH1 0x3A ADD DUP2 SWAP1 SSTORE POP PUSH1 0x0 DUP1 PUSH1 0x34 ADD PUSH1 0x0 SWAP1 SLOAD SWAP1 PUSH2 0x100 EXP SWAP1 DIV PUSH20 0xFFFFFFFFFFFFFFFFFFFFFFFFFFFFFFFFFFFFFFFF AND SWAP1 POP DUP1 PUSH20 0xFFFFFFFFFFFFFFFFFFFFFFFFFFFFFFFFFFFFFFFF AND PUSH4 0xA9059CBB PUSH1 0x0 PUSH1 0x38 ADD PUSH1 0x0 SWAP1 SLOAD SWAP1 PUSH2 0x100 EXP SWAP1 DIV PUSH20 0xFFFFFFFFFFFFFFFFFFFFFFFFFFFFFFFFFFFFFFFF AND DUP5 PUSH1 0x40 MLOAD DUP4 PUSH4 0xFFFFFFFF AND PUSH1 0xE0 SHL DUP2 MSTORE PUSH1 0x4 ADD PUSH2 0x446 SWAP3 SWAP2 SWAP1 PUSH2 0x1E81 JUMP JUMPDEST PUSH1 0x20 PUSH1 0x40 MLOAD DUP1 DUP4 SUB DUP2 PUSH1 0x0 DUP8 GAS CALL ISZERO DUP1 ISZERO PUSH2 0x465 JUMPI RETURNDATASIZE PUSH1 0x0 DUP1 RETURNDATACOPY RETURNDATASIZE PUSH1 0x0 REVERT JUMPDEST POP POP POP POP PUSH1 0x40 MLOAD RETURNDATASIZE PUSH1 0x1F NOT PUSH1 0x1F DUP3 ADD AND DUP3 ADD DUP1 PUSH1 0x40 MSTORE POP DUP2 ADD SWAP1 PUSH2 0x489 SWAP2 SWAP1 PUSH2 0x1EE2 JUMP JUMPDEST PUSH2 0x4C8 JUMPI PUSH1 0x40 MLOAD PUSH32 0x8C379A000000000000000000000000000000000000000000000000000000000 DUP2 MSTORE PUSH1 0x4 ADD PUSH2 0x4BF SWAP1 PUSH2 0x1F6C JUMP JUMPDEST PUSH1 0x40 MLOAD DUP1 SWAP2 SUB SWAP1 REVERT JUMPDEST PUSH2 0x4DD DUP3 PUSH1 0x47 SLOAD PUSH2 0x1499 SWAP1 SWAP2 SWAP1 PUSH4 0xFFFFFFFF AND JUMP JUMPDEST PUSH1 0x47 DUP2 SWAP1 SSTORE POP PUSH32 0xC7B074008D0EB21FA6BA78BABB2DA91414DAF366AC56CDC4328E4E34B5C2E738 PUSH1 0x0 PUSH1 0x38 ADD PUSH1 0x0 SWAP1 SLOAD SWAP1 PUSH2 0x100 EXP SWAP1 DIV PUSH20 0xFFFFFFFFFFFFFFFFFFFFFFFFFFFFFFFFFFFFFFFF AND DUP4 TIMESTAMP PUSH1 0x40 MLOAD PUSH2 0x53B SWAP4 SWAP3 SWAP2 SWAP1 PUSH2 0x1F8C JUMP JUMPDEST PUSH1 0x40 MLOAD DUP1 SWAP2 SUB SWAP1 LOG1 POP POP JUMP JUMPDEST PUSH1 0x0 DUP1 PUSH1 0x0 DUP1 PUSH1 0x39 ADD PUSH1 0x0 DUP6 PUSH20 0xFFFFFFFFFFFFFFFFFFFFFFFFFFFFFFFFFFFFFFFF AND PUSH20 0xFFFFFFFFFFFFFFFFFFFFFFFFFFFFFFFFFFFFFFFF AND DUP2 MSTORE PUSH1 0x20 ADD SWAP1 DUP2 MSTORE PUSH1 0x20 ADD PUSH1 0x0 KECCAK256 SLOAD PUSH1 0x0 PUSH1 0x3C ADD PUSH1 0x0 DUP7 PUSH20 0xFFFFFFFFFFFFFFFFFFFFFFFFFFFFFFFFFFFFFFFF AND PUSH20 0xFFFFFFFFFFFFFFFFFFFFFFFFFFFFFFFFFFFFFFFF AND DUP2 MSTORE PUSH1 0x20 ADD SWAP1 DUP2 MSTORE PUSH1 0x20 ADD PUSH1 0x0 KECCAK256 SLOAD PUSH1 0x48 PUSH1 0x0 DUP8 PUSH20 0xFFFFFFFFFFFFFFFFFFFFFFFFFFFFFFFFFFFFFFFF AND PUSH20 0xFFFFFFFFFFFFFFFFFFFFFFFFFFFFFFFFFFFFFFFF AND DUP2 MSTORE PUSH1 0x20 ADD SWAP1 DUP2 MSTORE PUSH1 0x20 ADD PUSH1 0x0 KECCAK256 SLOAD SWAP3 POP SWAP3 POP SWAP3 POP SWAP2 SWAP4 SWAP1 SWAP3 POP JUMP JUMPDEST PUSH1 0x0 PUSH1 0x35 ADD PUSH1 0x0 DUP4 PUSH20 0xFFFFFFFFFFFFFFFFFFFFFFFFFFFFFFFFFFFFFFFF AND PUSH20 0xFFFFFFFFFFFFFFFFFFFFFFFFFFFFFFFFFFFFFFFF AND DUP2 MSTORE PUSH1 0x20 ADD SWAP1 DUP2 MSTORE PUSH1 0x20 ADD PUSH1 0x0 KECCAK256 SLOAD TIMESTAMP LT ISZERO PUSH2 0x6A3 JUMPI PUSH1 0x40 MLOAD PUSH32 0x8C379A000000000000000000000000000000000000000000000000000000000 DUP2 MSTORE PUSH1 0x4 ADD PUSH2 0x69A SWAP1 PUSH2 0x2035 JUMP JUMPDEST PUSH1 0x40 MLOAD DUP1 SWAP2 SUB SWAP1 REVERT JUMPDEST PUSH1 0x0 DUP1 PUSH1 0x33 ADD PUSH1 0x0 DUP4 DUP2 MSTORE PUSH1 0x20 ADD SWAP1 DUP2 MSTORE PUSH1 0x20 ADD PUSH1 0x0 KECCAK256 SLOAD SWAP1 POP DUP2 PUSH1 0x0 PUSH1 0x37 ADD PUSH1 0x0 DUP6 PUSH20 0xFFFFFFFFFFFFFFFFFFFFFFFFFFFFFFFFFFFFFFFF AND PUSH20 0xFFFFFFFFFFFFFFFFFFFFFFFFFFFFFFFFFFFFFFFF AND DUP2 MSTORE PUSH1 0x20 ADD SWAP1 DUP2 MSTORE PUSH1 0x20 ADD PUSH1 0x0 KECCAK256 DUP2 SWAP1 SSTORE POP PUSH1 0x0 DUP2 GT PUSH2 0x747 JUMPI PUSH1 0x40 MLOAD PUSH32 0x8C379A000000000000000000000000000000000000000000000000000000000 DUP2 MSTORE PUSH1 0x4 ADD PUSH2 0x73E SWAP1 PUSH2 0x20A1 JUMP JUMPDEST PUSH1 0x40 MLOAD DUP1 SWAP2 SUB SWAP1 REVERT JUMPDEST PUSH1 0x0 PUSH2 0x760 PUSH4 0x1E13380 TIMESTAMP PUSH2 0x1499 SWAP1 SWAP2 SWAP1 PUSH4 0xFFFFFFFF AND JUMP JUMPDEST SWAP1 POP DUP1 PUSH1 0x0 PUSH1 0x35 ADD PUSH1 0x0 DUP7 PUSH20 0xFFFFFFFFFFFFFFFFFFFFFFFFFFFFFFFFFFFFFFFF AND PUSH20 0xFFFFFFFFFFFFFFFFFFFFFFFFFFFFFFFFFFFFFFFF AND DUP2 MSTORE PUSH1 0x20 ADD SWAP1 DUP2 MSTORE PUSH1 0x20 ADD PUSH1 0x0 KECCAK256 DUP2 SWAP1 SSTORE POP PUSH1 0x1 PUSH1 0x0 PUSH1 0x36 ADD PUSH1 0x0 DUP7 PUSH20 0xFFFFFFFFFFFFFFFFFFFFFFFFFFFFFFFFFFFFFFFF AND PUSH20 0xFFFFFFFFFFFFFFFFFFFFFFFFFFFFFFFFFFFFFFFF AND DUP2 MSTORE PUSH1 0x20 ADD SWAP1 DUP2 MSTORE PUSH1 0x20 ADD PUSH1 0x0 KECCAK256 PUSH1 0x0 PUSH2 0x100 EXP DUP2 SLOAD DUP2 PUSH1 0xFF MUL NOT AND SWAP1 DUP4 ISZERO ISZERO MUL OR SWAP1 SSTORE POP PUSH1 0x0 DUP1 PUSH1 0x34 ADD PUSH1 0x0 SWAP1 SLOAD SWAP1 PUSH2 0x100 EXP SWAP1 DIV PUSH20 0xFFFFFFFFFFFFFFFFFFFFFFFFFFFFFFFFFFFFFFFF AND SWAP1 POP DUP3 DUP2 PUSH20 0xFFFFFFFFFFFFFFFFFFFFFFFFFFFFFFFFFFFFFFFF AND PUSH4 0xDD62ED3E PUSH2 0x852 PUSH2 0x14AF JUMP JUMPDEST ADDRESS PUSH1 0x40 MLOAD DUP4 PUSH4 0xFFFFFFFF AND PUSH1 0xE0 SHL DUP2 MSTORE PUSH1 0x4 ADD PUSH2 0x870 SWAP3 SWAP2 SWAP1 PUSH2 0x20C1 JUMP JUMPDEST PUSH1 0x20 PUSH1 0x40 MLOAD DUP1 DUP4 SUB DUP2 DUP7 GAS STATICCALL ISZERO DUP1 ISZERO PUSH2 0x88D JUMPI RETURNDATASIZE PUSH1 0x0 DUP1 RETURNDATACOPY RETURNDATASIZE PUSH1 0x0 REVERT JUMPDEST POP POP POP POP PUSH1 0x40 MLOAD RETURNDATASIZE PUSH1 0x1F NOT PUSH1 0x1F DUP3 ADD AND DUP3 ADD DUP1 PUSH1 0x40 MSTORE POP DUP2 ADD SWAP1 PUSH2 0x8B1 SWAP2 SWAP1 PUSH2 0x20FF JUMP JUMPDEST LT ISZERO PUSH2 0x8F2 JUMPI PUSH1 0x40 MLOAD PUSH32 0x8C379A000000000000000000000000000000000000000000000000000000000 DUP2 MSTORE PUSH1 0x4 ADD PUSH2 0x8E9 SWAP1 PUSH2 0x219E JUMP JUMPDEST PUSH1 0x40 MLOAD DUP1 SWAP2 SUB SWAP1 REVERT JUMPDEST PUSH2 0x8FC DUP6 DUP5 PUSH2 0x14B7 JUMP JUMPDEST PUSH2 0x93B JUMPI PUSH1 0x40 MLOAD PUSH32 0x8C379A000000000000000000000000000000000000000000000000000000000 DUP2 MSTORE PUSH1 0x4 ADD PUSH2 0x932 SWAP1 PUSH2 0x220A JUMP JUMPDEST PUSH1 0x40 MLOAD DUP1 SWAP2 SUB SWAP1 REVERT JUMPDEST DUP1 PUSH20 0xFFFFFFFFFFFFFFFFFFFFFFFFFFFFFFFFFFFFFFFF AND PUSH4 0x23B872DD PUSH2 0x95F PUSH2 0x14AF JUMP JUMPDEST ADDRESS DUP7 PUSH1 0x40 MLOAD DUP5 PUSH4 0xFFFFFFFF AND PUSH1 0xE0 SHL DUP2 MSTORE PUSH1 0x4 ADD PUSH2 0x97F SWAP4 SWAP3 SWAP2 SWAP1 PUSH2 0x222A JUMP JUMPDEST PUSH1 0x20 PUSH1 0x40 MLOAD DUP1 DUP4 SUB DUP2 PUSH1 0x0 DUP8 GAS CALL ISZERO DUP1 ISZERO PUSH2 0x99E JUMPI RETURNDATASIZE PUSH1 0x0 DUP1 RETURNDATACOPY RETURNDATASIZE PUSH1 0x0 REVERT JUMPDEST POP POP POP POP PUSH1 0x40 MLOAD RETURNDATASIZE PUSH1 0x1F NOT PUSH1 0x1F DUP3 ADD AND DUP3 ADD DUP1 PUSH1 0x40 MSTORE POP DUP2 ADD SWAP1 PUSH2 0x9C2 SWAP2 SWAP1 PUSH2 0x1EE2 JUMP JUMPDEST PUSH2 0xA01 JUMPI PUSH1 0x40 MLOAD PUSH32 0x8C379A000000000000000000000000000000000000000000000000000000000 DUP2 MSTORE PUSH1 0x4 ADD PUSH2 0x9F8 SWAP1 PUSH2 0x1F6C JUMP JUMPDEST PUSH1 0x40 MLOAD DUP1 SWAP2 SUB SWAP1 REVERT JUMPDEST PUSH32 0xCB780C1B203D42C77C54C594AAA57F696B57039CF9EEFCE5266255E154EA1E0B DUP6 DUP5 DUP5 DUP8 TIMESTAMP PUSH1 0x40 MLOAD PUSH2 0xA38 SWAP6 SWAP5 SWAP4 SWAP3 SWAP2 SWAP1 PUSH2 0x2261 JUMP JUMPDEST PUSH1 0x40 MLOAD DUP1 SWAP2 SUB SWAP1 LOG1 POP POP POP POP POP JUMP JUMPDEST TIMESTAMP PUSH1 0x0 PUSH1 0x35 ADD PUSH1 0x0 DUP4 PUSH20 0xFFFFFFFFFFFFFFFFFFFFFFFFFFFFFFFFFFFFFFFF AND PUSH20 0xFFFFFFFFFFFFFFFFFFFFFFFFFFFFFFFFFFFFFFFF AND DUP2 MSTORE PUSH1 0x20 ADD SWAP1 DUP2 MSTORE PUSH1 0x20 ADD PUSH1 0x0 KECCAK256 SLOAD LT ISZERO PUSH2 0xACC JUMPI PUSH1 0x40 MLOAD PUSH32 0x8C379A000000000000000000000000000000000000000000000000000000000 DUP2 MSTORE PUSH1 0x4 ADD PUSH2 0xAC3 SWAP1 PUSH2 0x2300 JUMP JUMPDEST PUSH1 0x40 MLOAD DUP1 SWAP2 SUB SWAP1 REVERT JUMPDEST PUSH1 0x0 DUP1 PUSH1 0x39 ADD PUSH1 0x0 DUP4 PUSH20 0xFFFFFFFFFFFFFFFFFFFFFFFFFFFFFFFFFFFFFFFF AND PUSH20 0xFFFFFFFFFFFFFFFFFFFFFFFFFFFFFFFFFFFFFFFF AND DUP2 MSTORE PUSH1 0x20 ADD SWAP1 DUP2 MSTORE PUSH1 0x20 ADD PUSH1 0x0 KECCAK256 SLOAD SWAP1 POP PUSH1 0x0 DUP1 PUSH1 0x39 ADD PUSH1 0x0 DUP5 PUSH20 0xFFFFFFFFFFFFFFFFFFFFFFFFFFFFFFFFFFFFFFFF AND PUSH20 0xFFFFFFFFFFFFFFFFFFFFFFFFFFFFFFFFFFFFFFFF AND DUP2 MSTORE PUSH1 0x20 ADD SWAP1 DUP2 MSTORE PUSH1 0x20 ADD PUSH1 0x0 KECCAK256 DUP2 SWAP1 SSTORE POP PUSH1 0x0 DUP1 PUSH1 0x34 ADD PUSH1 0x0 SWAP1 SLOAD SWAP1 PUSH2 0x100 EXP SWAP1 DIV PUSH20 0xFFFFFFFFFFFFFFFFFFFFFFFFFFFFFFFFFFFFFFFF AND SWAP1 POP DUP1 PUSH20 0xFFFFFFFFFFFFFFFFFFFFFFFFFFFFFFFFFFFFFFFF AND PUSH4 0xA9059CBB DUP5 DUP5 PUSH1 0x40 MLOAD DUP4 PUSH4 0xFFFFFFFF AND PUSH1 0xE0 SHL DUP2 MSTORE PUSH1 0x4 ADD PUSH2 0xBBD SWAP3 SWAP2 SWAP1 PUSH2 0x1E81 JUMP JUMPDEST PUSH1 0x20 PUSH1 0x40 MLOAD DUP1 DUP4 SUB DUP2 PUSH1 0x0 DUP8 GAS CALL ISZERO DUP1 ISZERO PUSH2 0xBDC JUMPI RETURNDATASIZE PUSH1 0x0 DUP1 RETURNDATACOPY RETURNDATASIZE PUSH1 0x0 REVERT JUMPDEST POP POP POP POP PUSH1 0x40 MLOAD RETURNDATASIZE PUSH1 0x1F NOT PUSH1 0x1F DUP3 ADD AND DUP3 ADD DUP1 PUSH1 0x40 MSTORE POP DUP2 ADD SWAP1 PUSH2 0xC00 SWAP2 SWAP1 PUSH2 0x1EE2 JUMP JUMPDEST PUSH2 0xC3F JUMPI PUSH1 0x40 MLOAD PUSH32 0x8C379A000000000000000000000000000000000000000000000000000000000 DUP2 MSTORE PUSH1 0x4 ADD PUSH2 0xC36 SWAP1 PUSH2 0x1F6C JUMP JUMPDEST PUSH1 0x40 MLOAD DUP1 SWAP2 SUB SWAP1 REVERT JUMPDEST PUSH2 0xC91 DUP3 PUSH1 0x48 PUSH1 0x0 DUP7 PUSH20 0xFFFFFFFFFFFFFFFFFFFFFFFFFFFFFFFFFFFFFFFF AND PUSH20 0xFFFFFFFFFFFFFFFFFFFFFFFFFFFFFFFFFFFFFFFF AND DUP2 MSTORE PUSH1 0x20 ADD SWAP1 DUP2 MSTORE PUSH1 0x20 ADD PUSH1 0x0 KECCAK256 SLOAD PUSH2 0x1499 SWAP1 SWAP2 SWAP1 PUSH4 0xFFFFFFFF AND JUMP JUMPDEST PUSH1 0x48 PUSH1 0x0 DUP6 PUSH20 0xFFFFFFFFFFFFFFFFFFFFFFFFFFFFFFFFFFFFFFFF AND PUSH20 0xFFFFFFFFFFFFFFFFFFFFFFFFFFFFFFFFFFFFFFFF AND DUP2 MSTORE PUSH1 0x20 ADD SWAP1 DUP2 MSTORE PUSH1 0x20 ADD PUSH1 0x0 KECCAK256 DUP2 SWAP1 SSTORE POP PUSH2 0xCE9 DUP3 PUSH1 0x46 SLOAD PUSH2 0x1499 SWAP1 SWAP2 SWAP1 PUSH4 0xFFFFFFFF AND JUMP JUMPDEST PUSH1 0x46 DUP2 SWAP1 SSTORE POP PUSH32 0x4A76C364C7E53DB1950771CAB0E222EDB75373273376B0165F03FE30AE8C2EC4 DUP4 DUP4 TIMESTAMP PUSH1 0x40 MLOAD PUSH2 0xD22 SWAP4 SWAP3 SWAP2 SWAP1 PUSH2 0x1F8C JUMP JUMPDEST PUSH1 0x40 MLOAD DUP1 SWAP2 SUB SWAP1 LOG1 POP POP POP JUMP JUMPDEST PUSH1 0x0 DUP1 PUSH1 0x2 DUP2 GT ISZERO PUSH2 0xD44 JUMPI PUSH2 0xD43 PUSH2 0x2320 JUMP JUMPDEST JUMPDEST PUSH1 0x0 PUSH1 0x37 ADD PUSH1 0x0 DUP5 PUSH20 0xFFFFFFFFFFFFFFFFFFFFFFFFFFFFFFFFFFFFFFFF AND PUSH20 0xFFFFFFFFFFFFFFFFFFFFFFFFFFFFFFFFFFFFFFFF AND DUP2 MSTORE PUSH1 0x20 ADD SWAP1 DUP2 MSTORE PUSH1 0x20 ADD PUSH1 0x0 KECCAK256 SLOAD EQ ISZERO PUSH2 0xD9D JUMPI PUSH8 0x30D98D59A960000 SWAP1 POP PUSH2 0xE7A JUMP JUMPDEST PUSH1 0x1 PUSH1 0x2 DUP2 GT ISZERO PUSH2 0xDB1 JUMPI PUSH2 0xDB0 PUSH2 0x2320 JUMP JUMPDEST JUMPDEST PUSH1 0x0 PUSH1 0x37 ADD PUSH1 0x0 DUP5 PUSH20 0xFFFFFFFFFFFFFFFFFFFFFFFFFFFFFFFFFFFFFFFF AND PUSH20 0xFFFFFFFFFFFFFFFFFFFFFFFFFFFFFFFFFFFFFFFF AND DUP2 MSTORE PUSH1 0x20 ADD SWAP1 DUP2 MSTORE PUSH1 0x20 ADD PUSH1 0x0 KECCAK256 SLOAD EQ ISZERO PUSH2 0xE0A JUMPI PUSH8 0x1AA535D3D0C0000 SWAP1 POP PUSH2 0xE7A JUMP JUMPDEST PUSH1 0x2 DUP1 DUP2 GT ISZERO PUSH2 0xE1D JUMPI PUSH2 0xE1C PUSH2 0x2320 JUMP JUMPDEST JUMPDEST PUSH1 0x0 PUSH1 0x37 ADD PUSH1 0x0 DUP5 PUSH20 0xFFFFFFFFFFFFFFFFFFFFFFFFFFFFFFFFFFFFFFFF AND PUSH20 0xFFFFFFFFFFFFFFFFFFFFFFFFFFFFFFFFFFFFFFFF AND DUP2 MSTORE PUSH1 0x20 ADD SWAP1 DUP2 MSTORE PUSH1 0x20 ADD PUSH1 0x0 KECCAK256 SLOAD EQ ISZERO PUSH2 0xE75 JUMPI PUSH7 0xB1A2BC2EC50000 SWAP1 POP PUSH2 0xE7A JUMP JUMPDEST PUSH1 0x0 SWAP1 POP JUMPDEST SWAP2 SWAP1 POP JUMP JUMPDEST PUSH2 0xE87 PUSH2 0x1819 JUMP JUMPDEST PUSH20 0xFFFFFFFFFFFFFFFFFFFFFFFFFFFFFFFFFFFFFFFF AND PUSH2 0xEA5 PUSH2 0x14AF JUMP JUMPDEST PUSH20 0xFFFFFFFFFFFFFFFFFFFFFFFFFFFFFFFFFFFFFFFF AND EQ PUSH2 0xEFB JUMPI PUSH1 0x40 MLOAD PUSH32 0x8C379A000000000000000000000000000000000000000000000000000000000 DUP2 MSTORE PUSH1 0x4 ADD PUSH2 0xEF2 SWAP1 PUSH2 0x23C1 JUMP JUMPDEST PUSH1 0x40 MLOAD DUP1 SWAP2 SUB SWAP1 REVERT JUMPDEST DUP5 PUSH1 0x0 PUSH1 0x33 ADD PUSH1 0x0 DUP1 PUSH1 0x2 DUP2 GT ISZERO PUSH2 0xF16 JUMPI PUSH2 0xF15 PUSH2 0x2320 JUMP JUMPDEST JUMPDEST DUP2 MSTORE PUSH1 0x20 ADD SWAP1 DUP2 MSTORE PUSH1 0x20 ADD PUSH1 0x0 KECCAK256 DUP2 SWAP1 SSTORE POP DUP4 PUSH1 0x0 PUSH1 0x33 ADD PUSH1 0x0 PUSH1 0x1 PUSH1 0x2 DUP2 GT ISZERO PUSH2 0xF44 JUMPI PUSH2 0xF43 PUSH2 0x2320 JUMP JUMPDEST JUMPDEST DUP2 MSTORE PUSH1 0x20 ADD SWAP1 DUP2 MSTORE PUSH1 0x20 ADD PUSH1 0x0 KECCAK256 DUP2 SWAP1 SSTORE POP DUP3 PUSH1 0x0 PUSH1 0x33 ADD PUSH1 0x0 PUSH1 0x2 DUP1 DUP2 GT ISZERO PUSH2 0xF71 JUMPI PUSH2 0xF70 PUSH2 0x2320 JUMP JUMPDEST JUMPDEST DUP2 MSTORE PUSH1 0x20 ADD SWAP1 DUP2 MSTORE PUSH1 0x20 ADD PUSH1 0x0 KECCAK256 DUP2 SWAP1 SSTORE POP DUP2 PUSH1 0x0 PUSH1 0x34 ADD PUSH1 0x0 PUSH2 0x100 EXP DUP2 SLOAD DUP2 PUSH20 0xFFFFFFFFFFFFFFFFFFFFFFFFFFFFFFFFFFFFFFFF MUL NOT AND SWAP1 DUP4 PUSH20 0xFFFFFFFFFFFFFFFFFFFFFFFFFFFFFFFFFFFFFFFF AND MUL OR SWAP1 SSTORE POP DUP1 PUSH1 0x0 PUSH1 0x38 ADD PUSH1 0x0 PUSH2 0x100 EXP DUP2 SLOAD DUP2 PUSH20 0xFFFFFFFFFFFFFFFFFFFFFFFFFFFFFFFFFFFFFFFF MUL NOT AND SWAP1 DUP4 PUSH20 0xFFFFFFFFFFFFFFFFFFFFFFFFFFFFFFFFFFFFFFFF AND MUL OR SWAP1 SSTORE POP PUSH32 0x74EF99E9F61D2FB45DF1C75ADFF49A40D916ACF825590DCEC368ED4A012DDD89 DUP6 DUP6 DUP6 DUP5 TIMESTAMP PUSH2 0x1039 PUSH2 0x14AF JUMP JUMPDEST PUSH1 0x40 MLOAD PUSH2 0x104B SWAP7 SWAP6 SWAP5 SWAP4 SWAP3 SWAP2 SWAP1 PUSH2 0x23E1 JUMP JUMPDEST PUSH1 0x40 MLOAD DUP1 SWAP2 SUB SWAP1 LOG1 POP POP POP POP POP JUMP JUMPDEST PUSH1 0x0 DUP1 PUSH1 0x0 PUSH1 0x3A ADD SLOAD PUSH1 0x47 SLOAD SWAP2 POP SWAP2 POP SWAP1 SWAP2 JUMP JUMPDEST PUSH1 0x0 PUSH1 0x35 ADD PUSH1 0x0 DUP5 PUSH20 0xFFFFFFFFFFFFFFFFFFFFFFFFFFFFFFFFFFFFFFFF AND PUSH20 0xFFFFFFFFFFFFFFFFFFFFFFFFFFFFFFFFFFFFFFFF AND DUP2 MSTORE PUSH1 0x20 ADD SWAP1 DUP2 MSTORE PUSH1 0x20 ADD PUSH1 0x0 KECCAK256 SLOAD TIMESTAMP LT ISZERO PUSH2 0x10F3 JUMPI PUSH1 0x40 MLOAD PUSH32 0x8C379A000000000000000000000000000000000000000000000000000000000 DUP2 MSTORE PUSH1 0x4 ADD PUSH2 0x10EA SWAP1 PUSH2 0x2035 JUMP JUMPDEST PUSH1 0x40 MLOAD DUP1 SWAP2 SUB SWAP1 REVERT JUMPDEST PUSH1 0x0 DUP1 PUSH1 0x33 ADD PUSH1 0x0 DUP5 DUP2 MSTORE PUSH1 0x20 ADD SWAP1 DUP2 MSTORE PUSH1 0x20 ADD PUSH1 0x0 KECCAK256 SLOAD SWAP1 POP DUP3 PUSH1 0x0 PUSH1 0x37 ADD PUSH1 0x0 DUP7 PUSH20 0xFFFFFFFFFFFFFFFFFFFFFFFFFFFFFFFFFFFFFFFF AND PUSH20 0xFFFFFFFFFFFFFFFFFFFFFFFFFFFFFFFFFFFFFFFF AND DUP2 MSTORE PUSH1 0x20 ADD SWAP1 DUP2 MSTORE PUSH1 0x20 ADD PUSH1 0x0 KECCAK256 DUP2 SWAP1 SSTORE POP PUSH1 0x0 DUP2 GT PUSH2 0x1197 JUMPI PUSH1 0x40 MLOAD PUSH32 0x8C379A000000000000000000000000000000000000000000000000000000000 DUP2 MSTORE PUSH1 0x4 ADD PUSH2 0x118E SWAP1 PUSH2 0x20A1 JUMP JUMPDEST PUSH1 0x40 MLOAD DUP1 SWAP2 SUB SWAP1 REVERT JUMPDEST PUSH1 0x0 PUSH2 0x11B0 PUSH4 0x1E13380 TIMESTAMP PUSH2 0x1499 SWAP1 SWAP2 SWAP1 PUSH4 0xFFFFFFFF AND JUMP JUMPDEST SWAP1 POP DUP1 PUSH1 0x0 PUSH1 0x35 ADD PUSH1 0x0 DUP8 PUSH20 0xFFFFFFFFFFFFFFFFFFFFFFFFFFFFFFFFFFFFFFFF AND PUSH20 0xFFFFFFFFFFFFFFFFFFFFFFFFFFFFFFFFFFFFFFFF AND DUP2 MSTORE PUSH1 0x20 ADD SWAP1 DUP2 MSTORE PUSH1 0x20 ADD PUSH1 0x0 KECCAK256 DUP2 SWAP1 SSTORE POP PUSH1 0x1 PUSH1 0x0 PUSH1 0x36 ADD PUSH1 0x0 DUP8 PUSH20 0xFFFFFFFFFFFFFFFFFFFFFFFFFFFFFFFFFFFFFFFF AND PUSH20 0xFFFFFFFFFFFFFFFFFFFFFFFFFFFFFFFFFFFFFFFF AND DUP2 MSTORE PUSH1 0x20 ADD SWAP1 DUP2 MSTORE PUSH1 0x20 ADD PUSH1 0x0 KECCAK256 PUSH1 0x0 PUSH2 0x100 EXP DUP2 SLOAD DUP2 PUSH1 0xFF MUL NOT AND SWAP1 DUP4 ISZERO ISZERO MUL OR SWAP1 SSTORE POP PUSH1 0x0 DUP1 PUSH1 0x34 ADD PUSH1 0x0 SWAP1 SLOAD SWAP1 PUSH2 0x100 EXP SWAP1 DIV PUSH20 0xFFFFFFFFFFFFFFFFFFFFFFFFFFFFFFFFFFFFFFFF AND SWAP1 POP DUP3 DUP2 PUSH20 0xFFFFFFFFFFFFFFFFFFFFFFFFFFFFFFFFFFFFFFFF AND PUSH4 0xDD62ED3E PUSH2 0x12A2 PUSH2 0x14AF JUMP JUMPDEST ADDRESS PUSH1 0x40 MLOAD DUP4 PUSH4 0xFFFFFFFF AND PUSH1 0xE0 SHL DUP2 MSTORE PUSH1 0x4 ADD PUSH2 0x12C0 SWAP3 SWAP2 SWAP1 PUSH2 0x20C1 JUMP JUMPDEST PUSH1 0x20 PUSH1 0x40 MLOAD DUP1 DUP4 SUB DUP2 DUP7 GAS STATICCALL ISZERO DUP1 ISZERO PUSH2 0x12DD JUMPI RETURNDATASIZE PUSH1 0x0 DUP1 RETURNDATACOPY RETURNDATASIZE PUSH1 0x0 REVERT JUMPDEST POP POP POP POP PUSH1 0x40 MLOAD RETURNDATASIZE PUSH1 0x1F NOT PUSH1 0x1F DUP3 ADD AND DUP3 ADD DUP1 PUSH1 0x40 MSTORE POP DUP2 ADD SWAP1 PUSH2 0x1301 SWAP2 SWAP1 PUSH2 0x20FF JUMP JUMPDEST LT ISZERO PUSH2 0x1342 JUMPI PUSH1 0x40 MLOAD PUSH32 0x8C379A000000000000000000000000000000000000000000000000000000000 DUP2 MSTORE PUSH1 0x4 ADD PUSH2 0x1339 SWAP1 PUSH2 0x219E JUMP JUMPDEST PUSH1 0x40 MLOAD DUP1 SWAP2 SUB SWAP1 REVERT JUMPDEST PUSH2 0x134D DUP7 DUP6 DUP6 PUSH2 0x184C JUMP JUMPDEST PUSH2 0x138C JUMPI PUSH1 0x40 MLOAD PUSH32 0x8C379A000000000000000000000000000000000000000000000000000000000 DUP2 MSTORE PUSH1 0x4 ADD PUSH2 0x1383 SWAP1 PUSH2 0x248E JUMP JUMPDEST PUSH1 0x40 MLOAD DUP1 SWAP2 SUB SWAP1 REVERT JUMPDEST DUP1 PUSH20 0xFFFFFFFFFFFFFFFFFFFFFFFFFFFFFFFFFFFFFFFF AND PUSH4 0x23B872DD PUSH2 0x13B0 PUSH2 0x14AF JUMP JUMPDEST ADDRESS DUP7 PUSH1 0x40 MLOAD DUP5 PUSH4 0xFFFFFFFF AND PUSH1 0xE0 SHL DUP2 MSTORE PUSH1 0x4 ADD PUSH2 0x13D0 SWAP4 SWAP3 SWAP2 SWAP1 PUSH2 0x222A JUMP JUMPDEST PUSH1 0x20 PUSH1 0x40 MLOAD DUP1 DUP4 SUB DUP2 PUSH1 0x0 DUP8 GAS CALL ISZERO DUP1 ISZERO PUSH2 0x13EF JUMPI RETURNDATASIZE PUSH1 0x0 DUP1 RETURNDATACOPY RETURNDATASIZE PUSH1 0x0 REVERT JUMPDEST POP POP POP POP PUSH1 0x40 MLOAD RETURNDATASIZE PUSH1 0x1F NOT PUSH1 0x1F DUP3 ADD AND DUP3 ADD DUP1 PUSH1 0x40 MSTORE POP DUP2 ADD SWAP1 PUSH2 0x1413 SWAP2 SWAP1 PUSH2 0x1EE2 JUMP JUMPDEST PUSH2 0x1452 JUMPI PUSH1 0x40 MLOAD PUSH32 0x8C379A000000000000000000000000000000000000000000000000000000000 DUP2 MSTORE PUSH1 0x4 ADD PUSH2 0x1449 SWAP1 PUSH2 0x1F6C JUMP JUMPDEST PUSH1 0x40 MLOAD DUP1 SWAP2 SUB SWAP1 REVERT JUMPDEST PUSH32 0xCB780C1B203D42C77C54C594AAA57F696B57039CF9EEFCE5266255E154EA1E0B DUP7 DUP5 DUP5 DUP9 TIMESTAMP PUSH1 0x40 MLOAD PUSH2 0x1489 SWAP6 SWAP5 SWAP4 SWAP3 SWAP2 SWAP1 PUSH2 0x2261 JUMP JUMPDEST PUSH1 0x40 MLOAD DUP1 SWAP2 SUB SWAP1 LOG1 POP POP POP POP POP POP JUMP JUMPDEST PUSH1 0x0 DUP2 DUP4 PUSH2 0x14A7 SWAP2 SWAP1 PUSH2 0x24DD JUMP JUMPDEST SWAP1 POP SWAP3 SWAP2 POP POP JUMP JUMPDEST PUSH1 0x0 CALLER SWAP1 POP SWAP1 JUMP JUMPDEST PUSH1 0x0 DUP1 ADDRESS PUSH20 0xFFFFFFFFFFFFFFFFFFFFFFFFFFFFFFFFFFFFFFFF AND PUSH4 0x1355A306 PUSH1 0x40 MLOAD DUP2 PUSH4 0xFFFFFFFF AND PUSH1 0xE0 SHL DUP2 MSTORE PUSH1 0x4 ADD PUSH1 0x20 PUSH1 0x40 MLOAD DUP1 DUP4 SUB DUP2 PUSH1 0x0 DUP8 GAS CALL ISZERO DUP1 ISZERO PUSH2 0x1507 JUMPI RETURNDATASIZE PUSH1 0x0 DUP1 RETURNDATACOPY RETURNDATASIZE PUSH1 0x0 REVERT JUMPDEST POP POP POP POP PUSH1 0x40 MLOAD RETURNDATASIZE PUSH1 0x1F NOT PUSH1 0x1F DUP3 ADD AND DUP3 ADD DUP1 PUSH1 0x40 MSTORE POP DUP2 ADD SWAP1 PUSH2 0x152B SWAP2 SWAP1 PUSH2 0x2548 JUMP JUMPDEST SWAP1 POP PUSH1 0x0 PUSH2 0x154A PUSH8 0x2C68AF0BB140000 DUP6 PUSH2 0x1B39 SWAP1 SWAP2 SWAP1 PUSH4 0xFFFFFFFF AND JUMP JUMPDEST SWAP1 POP DUP2 PUSH1 0x0 PUSH1 0x3B ADD PUSH1 0x0 DUP8 PUSH20 0xFFFFFFFFFFFFFFFFFFFFFFFFFFFFFFFFFFFFFFFF AND PUSH20 0xFFFFFFFFFFFFFFFFFFFFFFFFFFFFFFFFFFFFFFFF AND DUP2 MSTORE PUSH1 0x20 ADD SWAP1 DUP2 MSTORE PUSH1 0x20 ADD PUSH1 0x0 KECCAK256 PUSH1 0x0 PUSH2 0x100 EXP DUP2 SLOAD DUP2 PUSH20 0xFFFFFFFFFFFFFFFFFFFFFFFFFFFFFFFFFFFFFFFF MUL NOT AND SWAP1 DUP4 PUSH20 0xFFFFFFFFFFFFFFFFFFFFFFFFFFFFFFFFFFFFFFFF AND MUL OR SWAP1 SSTORE POP PUSH2 0x1623 PUSH1 0x1 PUSH1 0x0 PUSH1 0x3C ADD PUSH1 0x0 DUP6 PUSH20 0xFFFFFFFFFFFFFFFFFFFFFFFFFFFFFFFFFFFFFFFF AND PUSH20 0xFFFFFFFFFFFFFFFFFFFFFFFFFFFFFFFFFFFFFFFF AND DUP2 MSTORE PUSH1 0x20 ADD SWAP1 DUP2 MSTORE PUSH1 0x20 ADD PUSH1 0x0 KECCAK256 SLOAD PUSH2 0x1499 SWAP1 SWAP2 SWAP1 PUSH4 0xFFFFFFFF AND JUMP JUMPDEST PUSH1 0x0 PUSH1 0x3C ADD PUSH1 0x0 DUP5 PUSH20 0xFFFFFFFFFFFFFFFFFFFFFFFFFFFFFFFFFFFFFFFF AND PUSH20 0xFFFFFFFFFFFFFFFFFFFFFFFFFFFFFFFFFFFFFFFF AND DUP2 MSTORE PUSH1 0x20 ADD SWAP1 DUP2 MSTORE PUSH1 0x20 ADD PUSH1 0x0 KECCAK256 DUP2 SWAP1 SSTORE POP PUSH2 0x16BE DUP2 PUSH1 0x0 PUSH1 0x39 ADD PUSH1 0x0 DUP6 PUSH20 0xFFFFFFFFFFFFFFFFFFFFFFFFFFFFFFFFFFFFFFFF AND PUSH20 0xFFFFFFFFFFFFFFFFFFFFFFFFFFFFFFFFFFFFFFFF AND DUP2 MSTORE PUSH1 0x20 ADD SWAP1 DUP2 MSTORE PUSH1 0x20 ADD PUSH1 0x0 KECCAK256 SLOAD PUSH2 0x1499 SWAP1 SWAP2 SWAP1 PUSH4 0xFFFFFFFF AND JUMP JUMPDEST PUSH1 0x0 PUSH1 0x39 ADD PUSH1 0x0 DUP5 PUSH20 0xFFFFFFFFFFFFFFFFFFFFFFFFFFFFFFFFFFFFFFFF AND PUSH20 0xFFFFFFFFFFFFFFFFFFFFFFFFFFFFFFFFFFFFFFFF AND DUP2 MSTORE PUSH1 0x20 ADD SWAP1 DUP2 MSTORE PUSH1 0x20 ADD PUSH1 0x0 KECCAK256 DUP2 SWAP1 SSTORE POP PUSH2 0x172E PUSH2 0x171A DUP3 DUP7 PUSH2 0x1B71 SWAP1 SWAP2 SWAP1 PUSH4 0xFFFFFFFF AND JUMP JUMPDEST PUSH1 0x0 PUSH1 0x3A ADD SLOAD PUSH2 0x1499 SWAP1 SWAP2 SWAP1 PUSH4 0xFFFFFFFF AND JUMP JUMPDEST PUSH1 0x0 PUSH1 0x3A ADD DUP2 SWAP1 SSTORE POP PUSH1 0x0 PUSH1 0x40 MLOAD DUP1 PUSH1 0x20 ADD PUSH1 0x40 MSTORE DUP1 DUP8 PUSH20 0xFFFFFFFFFFFFFFFFFFFFFFFFFFFFFFFFFFFFFFFF AND DUP2 MSTORE POP SWAP1 POP PUSH1 0x45 DUP2 SWAP1 DUP1 PUSH1 0x1 DUP2 SLOAD ADD DUP1 DUP3 SSTORE DUP1 SWAP2 POP POP PUSH1 0x1 SWAP1 SUB SWAP1 PUSH1 0x0 MSTORE PUSH1 0x20 PUSH1 0x0 KECCAK256 ADD PUSH1 0x0 SWAP1 SWAP2 SWAP1 SWAP2 SWAP1 SWAP2 POP PUSH1 0x0 DUP3 ADD MLOAD DUP2 PUSH1 0x0 ADD PUSH1 0x0 PUSH2 0x100 EXP DUP2 SLOAD DUP2 PUSH20 0xFFFFFFFFFFFFFFFFFFFFFFFFFFFFFFFFFFFFFFFF MUL NOT AND SWAP1 DUP4 PUSH20 0xFFFFFFFFFFFFFFFFFFFFFFFFFFFFFFFFFFFFFFFF AND MUL OR SWAP1 SSTORE POP POP POP PUSH32 0x8B6D6A18F019AF6E4D9A15CD5AF8C9D590E5CE49183DE541941FDF6E6D407A5F DUP7 DUP5 TIMESTAMP PUSH1 0x40 MLOAD PUSH2 0x1804 SWAP4 SWAP3 SWAP2 SWAP1 PUSH2 0x222A JUMP JUMPDEST PUSH1 0x40 MLOAD DUP1 SWAP2 SUB SWAP1 LOG1 PUSH1 0x1 SWAP4 POP POP POP POP SWAP3 SWAP2 POP POP JUMP JUMPDEST PUSH1 0x0 PUSH2 0x1823 PUSH2 0x1B87 JUMP JUMPDEST PUSH1 0x3 ADD PUSH1 0x0 SWAP1 SLOAD SWAP1 PUSH2 0x100 EXP SWAP1 DIV PUSH20 0xFFFFFFFFFFFFFFFFFFFFFFFFFFFFFFFFFFFFFFFF AND SWAP1 POP SWAP1 JUMP JUMPDEST PUSH1 0x0 DUP1 PUSH2 0x186A PUSH8 0x58D15E176280000 DUP5 PUSH2 0x1B39 SWAP1 SWAP2 SWAP1 PUSH4 0xFFFFFFFF AND JUMP JUMPDEST SWAP1 POP DUP4 PUSH1 0x0 PUSH1 0x3B ADD PUSH1 0x0 DUP8 PUSH20 0xFFFFFFFFFFFFFFFFFFFFFFFFFFFFFFFFFFFFFFFF AND PUSH20 0xFFFFFFFFFFFFFFFFFFFFFFFFFFFFFFFFFFFFFFFF AND DUP2 MSTORE PUSH1 0x20 ADD SWAP1 DUP2 MSTORE PUSH1 0x20 ADD PUSH1 0x0 KECCAK256 PUSH1 0x0 PUSH2 0x100 EXP DUP2 SLOAD DUP2 PUSH20 0xFFFFFFFFFFFFFFFFFFFFFFFFFFFFFFFFFFFFFFFF MUL NOT AND SWAP1 DUP4 PUSH20 0xFFFFFFFFFFFFFFFFFFFFFFFFFFFFFFFFFFFFFFFF AND MUL OR SWAP1 SSTORE POP PUSH2 0x1943 PUSH1 0x1 PUSH1 0x0 PUSH1 0x3C ADD PUSH1 0x0 DUP8 PUSH20 0xFFFFFFFFFFFFFFFFFFFFFFFFFFFFFFFFFFFFFFFF AND PUSH20 0xFFFFFFFFFFFFFFFFFFFFFFFFFFFFFFFFFFFFFFFF AND DUP2 MSTORE PUSH1 0x20 ADD SWAP1 DUP2 MSTORE PUSH1 0x20 ADD PUSH1 0x0 KECCAK256 SLOAD PUSH2 0x1499 SWAP1 SWAP2 SWAP1 PUSH4 0xFFFFFFFF AND JUMP JUMPDEST PUSH1 0x0 PUSH1 0x3C ADD PUSH1 0x0 DUP7 PUSH20 0xFFFFFFFFFFFFFFFFFFFFFFFFFFFFFFFFFFFFFFFF AND PUSH20 0xFFFFFFFFFFFFFFFFFFFFFFFFFFFFFFFFFFFFFFFF AND DUP2 MSTORE PUSH1 0x20 ADD SWAP1 DUP2 MSTORE PUSH1 0x20 ADD PUSH1 0x0 KECCAK256 DUP2 SWAP1 SSTORE POP PUSH2 0x19DE DUP2 PUSH1 0x0 PUSH1 0x39 ADD PUSH1 0x0 DUP8 PUSH20 0xFFFFFFFFFFFFFFFFFFFFFFFFFFFFFFFFFFFFFFFF AND PUSH20 0xFFFFFFFFFFFFFFFFFFFFFFFFFFFFFFFFFFFFFFFF AND DUP2 MSTORE PUSH1 0x20 ADD SWAP1 DUP2 MSTORE PUSH1 0x20 ADD PUSH1 0x0 KECCAK256 SLOAD PUSH2 0x1499 SWAP1 SWAP2 SWAP1 PUSH4 0xFFFFFFFF AND JUMP JUMPDEST PUSH1 0x0 PUSH1 0x39 ADD PUSH1 0x0 DUP7 PUSH20 0xFFFFFFFFFFFFFFFFFFFFFFFFFFFFFFFFFFFFFFFF AND PUSH20 0xFFFFFFFFFFFFFFFFFFFFFFFFFFFFFFFFFFFFFFFF AND DUP2 MSTORE PUSH1 0x20 ADD SWAP1 DUP2 MSTORE PUSH1 0x20 ADD PUSH1 0x0 KECCAK256 DUP2 SWAP1 SSTORE POP PUSH2 0x1A4E PUSH2 0x1A3A DUP3 DUP6 PUSH2 0x1B71 SWAP1 SWAP2 SWAP1 PUSH4 0xFFFFFFFF AND JUMP JUMPDEST PUSH1 0x0 PUSH1 0x3A ADD SLOAD PUSH2 0x1499 SWAP1 SWAP2 SWAP1 PUSH4 0xFFFFFFFF AND JUMP JUMPDEST PUSH1 0x0 PUSH1 0x3A ADD DUP2 SWAP1 SSTORE POP PUSH1 0x0 PUSH1 0x40 MLOAD DUP1 PUSH1 0x20 ADD PUSH1 0x40 MSTORE DUP1 DUP8 PUSH20 0xFFFFFFFFFFFFFFFFFFFFFFFFFFFFFFFFFFFFFFFF AND DUP2 MSTORE POP SWAP1 POP PUSH1 0x45 DUP2 SWAP1 DUP1 PUSH1 0x1 DUP2 SLOAD ADD DUP1 DUP3 SSTORE DUP1 SWAP2 POP POP PUSH1 0x1 SWAP1 SUB SWAP1 PUSH1 0x0 MSTORE PUSH1 0x20 PUSH1 0x0 KECCAK256 ADD PUSH1 0x0 SWAP1 SWAP2 SWAP1 SWAP2 SWAP1 SWAP2 POP PUSH1 0x0 DUP3 ADD MLOAD DUP2 PUSH1 0x0 ADD PUSH1 0x0 PUSH2 0x100 EXP DUP2 SLOAD DUP2 PUSH20 0xFFFFFFFFFFFFFFFFFFFFFFFFFFFFFFFFFFFFFFFF MUL NOT AND SWAP1 DUP4 PUSH20 0xFFFFFFFFFFFFFFFFFFFFFFFFFFFFFFFFFFFFFFFF AND MUL OR SWAP1 SSTORE POP POP POP PUSH32 0x8B6D6A18F019AF6E4D9A15CD5AF8C9D590E5CE49183DE541941FDF6E6D407A5F DUP7 DUP7 TIMESTAMP PUSH1 0x40 MLOAD PUSH2 0x1B24 SWAP4 SWAP3 SWAP2 SWAP1 PUSH2 0x222A JUMP JUMPDEST PUSH1 0x40 MLOAD DUP1 SWAP2 SUB SWAP1 LOG1 PUSH1 0x1 SWAP3 POP POP POP SWAP4 SWAP3 POP POP POP JUMP JUMPDEST PUSH1 0x0 PUSH1 0x12 PUSH1 0xFF AND PUSH1 0xA PUSH2 0x1B4C SWAP2 SWAP1 PUSH2 0x26A8 JUMP JUMPDEST PUSH2 0x1B5F DUP4 DUP6 PUSH2 0x1BB4 SWAP1 SWAP2 SWAP1 PUSH4 0xFFFFFFFF AND JUMP JUMPDEST PUSH2 0x1B69 SWAP2 SWAP1 PUSH2 0x2722 JUMP JUMPDEST SWAP1 POP SWAP3 SWAP2 POP POP JUMP JUMPDEST PUSH1 0x0 DUP2 DUP4 PUSH2 0x1B7F SWAP2 SWAP1 PUSH2 0x2753 JUMP JUMPDEST SWAP1 POP SWAP3 SWAP2 POP POP JUMP JUMPDEST PUSH1 0x0 DUP1 PUSH32 0xC8FCAD8DB84D3CC18B4C41D551EA0EE66DD599CDE068D998E57D5E09332C131C SWAP1 POP DUP1 SWAP2 POP POP SWAP1 JUMP JUMPDEST PUSH1 0x0 DUP2 DUP4 PUSH2 0x1BC2 SWAP2 SWAP1 PUSH2 0x2787 JUMP JUMPDEST SWAP1 POP SWAP3 SWAP2 POP POP JUMP JUMPDEST PUSH1 0x0 PUSH20 0xFFFFFFFFFFFFFFFFFFFFFFFFFFFFFFFFFFFFFFFF DUP3 AND SWAP1 POP SWAP2 SWAP1 POP JUMP JUMPDEST PUSH1 0x0 PUSH2 0x1BF5 DUP3 PUSH2 0x1BCA JUMP JUMPDEST SWAP1 POP SWAP2 SWAP1 POP JUMP JUMPDEST PUSH2 0x1C05 DUP2 PUSH2 0x1BEA JUMP JUMPDEST DUP3 MSTORE POP POP JUMP JUMPDEST PUSH1 0x0 PUSH1 0x20 DUP3 ADD SWAP1 POP PUSH2 0x1C20 PUSH1 0x0 DUP4 ADD DUP5 PUSH2 0x1BFC JUMP JUMPDEST SWAP3 SWAP2 POP POP JUMP JUMPDEST PUSH1 0x0 DUP1 REVERT JUMPDEST PUSH2 0x1C34 DUP2 PUSH2 0x1BEA JUMP JUMPDEST DUP2 EQ PUSH2 0x1C3F JUMPI PUSH1 0x0 DUP1 REVERT JUMPDEST POP JUMP JUMPDEST PUSH1 0x0 DUP2 CALLDATALOAD SWAP1 POP PUSH2 0x1C51 DUP2 PUSH2 0x1C2B JUMP JUMPDEST SWAP3 SWAP2 POP POP JUMP JUMPDEST PUSH1 0x0 PUSH1 0x20 DUP3 DUP5 SUB SLT ISZERO PUSH2 0x1C6D JUMPI PUSH2 0x1C6C PUSH2 0x1C26 JUMP JUMPDEST JUMPDEST PUSH1 0x0 PUSH2 0x1C7B DUP5 DUP3 DUP6 ADD PUSH2 0x1C42 JUMP JUMPDEST SWAP2 POP POP SWAP3 SWAP2 POP POP JUMP JUMPDEST PUSH1 0x0 DUP2 SWAP1 POP SWAP2 SWAP1 POP JUMP JUMPDEST PUSH2 0x1C97 DUP2 PUSH2 0x1C84 JUMP JUMPDEST DUP3 MSTORE POP POP JUMP JUMPDEST PUSH1 0x0 PUSH1 0x60 DUP3 ADD SWAP1 POP PUSH2 0x1CB2 PUSH1 0x0 DUP4 ADD DUP7 PUSH2 0x1C8E JUMP JUMPDEST PUSH2 0x1CBF PUSH1 0x20 DUP4 ADD DUP6 PUSH2 0x1C8E JUMP JUMPDEST PUSH2 0x1CCC PUSH1 0x40 DUP4 ADD DUP5 PUSH2 0x1C8E JUMP JUMPDEST SWAP5 SWAP4 POP POP POP POP JUMP JUMPDEST PUSH2 0x1CDD DUP2 PUSH2 0x1C84 JUMP JUMPDEST DUP2 EQ PUSH2 0x1CE8 JUMPI PUSH1 0x0 DUP1 REVERT JUMPDEST POP JUMP JUMPDEST PUSH1 0x0 DUP2 CALLDATALOAD SWAP1 POP PUSH2 0x1CFA DUP2 PUSH2 0x1CD4 JUMP JUMPDEST SWAP3 SWAP2 POP POP JUMP JUMPDEST PUSH1 0x0 DUP1 PUSH1 0x40 DUP4 DUP6 SUB SLT ISZERO PUSH2 0x1D17 JUMPI PUSH2 0x1D16 PUSH2 0x1C26 JUMP JUMPDEST JUMPDEST PUSH1 0x0 PUSH2 0x1D25 DUP6 DUP3 DUP7 ADD PUSH2 0x1C42 JUMP JUMPDEST SWAP3 POP POP PUSH1 0x20 PUSH2 0x1D36 DUP6 DUP3 DUP7 ADD PUSH2 0x1CEB JUMP JUMPDEST SWAP2 POP POP SWAP3 POP SWAP3 SWAP1 POP JUMP JUMPDEST PUSH1 0x0 PUSH1 0x20 DUP3 ADD SWAP1 POP PUSH2 0x1D55 PUSH1 0x0 DUP4 ADD DUP5 PUSH2 0x1C8E JUMP JUMPDEST SWAP3 SWAP2 POP POP JUMP JUMPDEST PUSH1 0x0 DUP1 PUSH1 0x0 DUP1 PUSH1 0x0 PUSH1 0xA0 DUP7 DUP9 SUB SLT ISZERO PUSH2 0x1D77 JUMPI PUSH2 0x1D76 PUSH2 0x1C26 JUMP JUMPDEST JUMPDEST PUSH1 0x0 PUSH2 0x1D85 DUP9 DUP3 DUP10 ADD PUSH2 0x1CEB JUMP JUMPDEST SWAP6 POP POP PUSH1 0x20 PUSH2 0x1D96 DUP9 DUP3 DUP10 ADD PUSH2 0x1CEB JUMP JUMPDEST SWAP5 POP POP PUSH1 0x40 PUSH2 0x1DA7 DUP9 DUP3 DUP10 ADD PUSH2 0x1CEB JUMP JUMPDEST SWAP4 POP POP PUSH1 0x60 PUSH2 0x1DB8 DUP9 DUP3 DUP10 ADD PUSH2 0x1C42 JUMP JUMPDEST SWAP3 POP POP PUSH1 0x80 PUSH2 0x1DC9 DUP9 DUP3 DUP10 ADD PUSH2 0x1C42 JUMP JUMPDEST SWAP2 POP POP SWAP3 SWAP6 POP SWAP3 SWAP6 SWAP1 SWAP4 POP JUMP JUMPDEST PUSH1 0x0 PUSH1 0x40 DUP3 ADD SWAP1 POP PUSH2 0x1DEB PUSH1 0x0 DUP4 ADD DUP6 PUSH2 0x1C8E JUMP JUMPDEST PUSH2 0x1DF8 PUSH1 0x20 DUP4 ADD DUP5 PUSH2 0x1C8E JUMP JUMPDEST SWAP4 SWAP3 POP POP POP JUMP JUMPDEST PUSH1 0x0 DUP1 PUSH1 0x0 PUSH1 0x60 DUP5 DUP7 SUB SLT ISZERO PUSH2 0x1E18 JUMPI PUSH2 0x1E17 PUSH2 0x1C26 JUMP JUMPDEST JUMPDEST PUSH1 0x0 PUSH2 0x1E26 DUP7 DUP3 DUP8 ADD PUSH2 0x1C42 JUMP JUMPDEST SWAP4 POP POP PUSH1 0x20 PUSH2 0x1E37 DUP7 DUP3 DUP8 ADD PUSH2 0x1CEB JUMP JUMPDEST SWAP3 POP POP PUSH1 0x40 PUSH2 0x1E48 DUP7 DUP3 DUP8 ADD PUSH2 0x1C42 JUMP JUMPDEST SWAP2 POP POP SWAP3 POP SWAP3 POP SWAP3 JUMP JUMPDEST PUSH32 0x4E487B7100000000000000000000000000000000000000000000000000000000 PUSH1 0x0 MSTORE PUSH1 0x32 PUSH1 0x4 MSTORE PUSH1 0x24 PUSH1 0x0 REVERT JUMPDEST PUSH1 0x0 PUSH1 0x40 DUP3 ADD SWAP1 POP PUSH2 0x1E96 PUSH1 0x0 DUP4 ADD DUP6 PUSH2 0x1BFC JUMP JUMPDEST PUSH2 0x1EA3 PUSH1 0x20 DUP4 ADD DUP5 PUSH2 0x1C8E JUMP JUMPDEST SWAP4 SWAP3 POP POP POP JUMP JUMPDEST PUSH1 0x0 DUP2 ISZERO ISZERO SWAP1 POP SWAP2 SWAP1 POP JUMP JUMPDEST PUSH2 0x1EBF DUP2 PUSH2 0x1EAA JUMP JUMPDEST DUP2 EQ PUSH2 0x1ECA JUMPI PUSH1 0x0 DUP1 REVERT JUMPDEST POP JUMP JUMPDEST PUSH1 0x0 DUP2 MLOAD SWAP1 POP PUSH2 0x1EDC DUP2 PUSH2 0x1EB6 JUMP JUMPDEST SWAP3 SWAP2 POP POP JUMP JUMPDEST PUSH1 0x0 PUSH1 0x20 DUP3 DUP5 SUB SLT ISZERO PUSH2 0x1EF8 JUMPI PUSH2 0x1EF7 PUSH2 0x1C26 JUMP JUMPDEST JUMPDEST PUSH1 0x0 PUSH2 0x1F06 DUP5 DUP3 DUP6 ADD PUSH2 0x1ECD JUMP JUMPDEST SWAP2 POP POP SWAP3 SWAP2 POP POP JUMP JUMPDEST PUSH1 0x0 DUP3 DUP3 MSTORE PUSH1 0x20 DUP3 ADD SWAP1 POP SWAP3 SWAP2 POP POP JUMP JUMPDEST PUSH32 0x4661696C20746F207472616E7366657200000000000000000000000000000000 PUSH1 0x0 DUP3 ADD MSTORE POP JUMP JUMPDEST PUSH1 0x0 PUSH2 0x1F56 PUSH1 0x10 DUP4 PUSH2 0x1F0F JUMP JUMPDEST SWAP2 POP PUSH2 0x1F61 DUP3 PUSH2 0x1F20 JUMP JUMPDEST PUSH1 0x20 DUP3 ADD SWAP1 POP SWAP2 SWAP1 POP JUMP JUMPDEST PUSH1 0x0 PUSH1 0x20 DUP3 ADD SWAP1 POP DUP2 DUP2 SUB PUSH1 0x0 DUP4 ADD MSTORE PUSH2 0x1F85 DUP2 PUSH2 0x1F49 JUMP JUMPDEST SWAP1 POP SWAP2 SWAP1 POP JUMP JUMPDEST PUSH1 0x0 PUSH1 0x60 DUP3 ADD SWAP1 POP PUSH2 0x1FA1 PUSH1 0x0 DUP4 ADD DUP7 PUSH2 0x1BFC JUMP JUMPDEST PUSH2 0x1FAE PUSH1 0x20 DUP4 ADD DUP6 PUSH2 0x1C8E JUMP JUMPDEST PUSH2 0x1FBB PUSH1 0x40 DUP4 ADD DUP5 PUSH2 0x1C8E JUMP JUMPDEST SWAP5 SWAP4 POP POP POP POP JUMP JUMPDEST PUSH32 0x5761697420756E74696C20796F75722063757272656E7420706C616E20656C61 PUSH1 0x0 DUP3 ADD MSTORE PUSH32 0x707365732E000000000000000000000000000000000000000000000000000000 PUSH1 0x20 DUP3 ADD MSTORE POP JUMP JUMPDEST PUSH1 0x0 PUSH2 0x201F PUSH1 0x25 DUP4 PUSH2 0x1F0F JUMP JUMPDEST SWAP2 POP PUSH2 0x202A DUP3 PUSH2 0x1FC3 JUMP JUMPDEST PUSH1 0x40 DUP3 ADD SWAP1 POP SWAP2 SWAP1 POP JUMP JUMPDEST PUSH1 0x0 PUSH1 0x20 DUP3 ADD SWAP1 POP DUP2 DUP2 SUB PUSH1 0x0 DUP4 ADD MSTORE PUSH2 0x204E DUP2 PUSH2 0x2012 JUMP JUMPDEST SWAP1 POP SWAP2 SWAP1 POP JUMP JUMPDEST PUSH32 0x496E76616C696420706C616E0000000000000000000000000000000000000000 PUSH1 0x0 DUP3 ADD MSTORE POP JUMP JUMPDEST PUSH1 0x0 PUSH2 0x208B PUSH1 0xC DUP4 PUSH2 0x1F0F JUMP JUMPDEST SWAP2 POP PUSH2 0x2096 DUP3 PUSH2 0x2055 JUMP JUMPDEST PUSH1 0x20 DUP3 ADD SWAP1 POP SWAP2 SWAP1 POP JUMP JUMPDEST PUSH1 0x0 PUSH1 0x20 DUP3 ADD SWAP1 POP DUP2 DUP2 SUB PUSH1 0x0 DUP4 ADD MSTORE PUSH2 0x20BA DUP2 PUSH2 0x207E JUMP JUMPDEST SWAP1 POP SWAP2 SWAP1 POP JUMP JUMPDEST PUSH1 0x0 PUSH1 0x40 DUP3 ADD SWAP1 POP PUSH2 0x20D6 PUSH1 0x0 DUP4 ADD DUP6 PUSH2 0x1BFC JUMP JUMPDEST PUSH2 0x20E3 PUSH1 0x20 DUP4 ADD DUP5 PUSH2 0x1BFC JUMP JUMPDEST SWAP4 SWAP3 POP POP POP JUMP JUMPDEST PUSH1 0x0 DUP2 MLOAD SWAP1 POP PUSH2 0x20F9 DUP2 PUSH2 0x1CD4 JUMP JUMPDEST SWAP3 SWAP2 POP POP JUMP JUMPDEST PUSH1 0x0 PUSH1 0x20 DUP3 DUP5 SUB SLT ISZERO PUSH2 0x2115 JUMPI PUSH2 0x2114 PUSH2 0x1C26 JUMP JUMPDEST JUMPDEST PUSH1 0x0 PUSH2 0x2123 DUP5 DUP3 DUP6 ADD PUSH2 0x20EA JUMP JUMPDEST SWAP2 POP POP SWAP3 SWAP2 POP POP JUMP JUMPDEST PUSH32 0x496E73756666696369656E7420746F6B656E20616C6C6F77616E636520666F72 PUSH1 0x0 DUP3 ADD MSTORE PUSH32 0x20737562736372697074696F6E21000000000000000000000000000000000000 PUSH1 0x20 DUP3 ADD MSTORE POP JUMP JUMPDEST PUSH1 0x0 PUSH2 0x2188 PUSH1 0x2E DUP4 PUSH2 0x1F0F JUMP JUMPDEST SWAP2 POP PUSH2 0x2193 DUP3 PUSH2 0x212C JUMP JUMPDEST PUSH1 0x40 DUP3 ADD SWAP1 POP SWAP2 SWAP1 POP JUMP JUMPDEST PUSH1 0x0 PUSH1 0x20 DUP3 ADD SWAP1 POP DUP2 DUP2 SUB PUSH1 0x0 DUP4 ADD MSTORE PUSH2 0x21B7 DUP2 PUSH2 0x217B JUMP JUMPDEST SWAP1 POP SWAP2 SWAP1 POP JUMP JUMPDEST PUSH32 0x526566657272616C206572726F72000000000000000000000000000000000000 PUSH1 0x0 DUP3 ADD MSTORE POP JUMP JUMPDEST PUSH1 0x0 PUSH2 0x21F4 PUSH1 0xE DUP4 PUSH2 0x1F0F JUMP JUMPDEST SWAP2 POP PUSH2 0x21FF DUP3 PUSH2 0x21BE JUMP JUMPDEST PUSH1 0x20 DUP3 ADD SWAP1 POP SWAP2 SWAP1 POP JUMP JUMPDEST PUSH1 0x0 PUSH1 0x20 DUP3 ADD SWAP1 POP DUP2 DUP2 SUB PUSH1 0x0 DUP4 ADD MSTORE PUSH2 0x2223 DUP2 PUSH2 0x21E7 JUMP JUMPDEST SWAP1 POP SWAP2 SWAP1 POP JUMP JUMPDEST PUSH1 0x0 PUSH1 0x60 DUP3 ADD SWAP1 POP PUSH2 0x223F PUSH1 0x0 DUP4 ADD DUP7 PUSH2 0x1BFC JUMP JUMPDEST PUSH2 0x224C PUSH1 0x20 DUP4 ADD DUP6 PUSH2 0x1BFC JUMP JUMPDEST PUSH2 0x2259 PUSH1 0x40 DUP4 ADD DUP5 PUSH2 0x1C8E JUMP JUMPDEST SWAP5 SWAP4 POP POP POP POP JUMP JUMPDEST PUSH1 0x0 PUSH1 0xA0 DUP3 ADD SWAP1 POP PUSH2 0x2276 PUSH1 0x0 DUP4 ADD DUP9 PUSH2 0x1BFC JUMP JUMPDEST PUSH2 0x2283 PUSH1 0x20 DUP4 ADD DUP8 PUSH2 0x1C8E JUMP JUMPDEST PUSH2 0x2290 PUSH1 0x40 DUP4 ADD DUP7 PUSH2 0x1C8E JUMP JUMPDEST PUSH2 0x229D PUSH1 0x60 DUP4 ADD DUP6 PUSH2 0x1C8E JUMP JUMPDEST PUSH2 0x22AA PUSH1 0x80 DUP4 ADD DUP5 PUSH2 0x1C8E JUMP JUMPDEST SWAP7 SWAP6 POP POP POP POP POP POP JUMP JUMPDEST PUSH32 0x52656E657720796F7572206465616C657220706C616E00000000000000000000 PUSH1 0x0 DUP3 ADD MSTORE POP JUMP JUMPDEST PUSH1 0x0 PUSH2 0x22EA PUSH1 0x16 DUP4 PUSH2 0x1F0F JUMP JUMPDEST SWAP2 POP PUSH2 0x22F5 DUP3 PUSH2 0x22B4 JUMP JUMPDEST PUSH1 0x20 DUP3 ADD SWAP1 POP SWAP2 SWAP1 POP JUMP JUMPDEST PUSH1 0x0 PUSH1 0x20 DUP3 ADD SWAP1 POP DUP2 DUP2 SUB PUSH1 0x0 DUP4 ADD MSTORE PUSH2 0x2319 DUP2 PUSH2 0x22DD JUMP JUMPDEST SWAP1 POP SWAP2 SWAP1 POP JUMP JUMPDEST PUSH32 0x4E487B7100000000000000000000000000000000000000000000000000000000 PUSH1 0x0 MSTORE PUSH1 0x21 PUSH1 0x4 MSTORE PUSH1 0x24 PUSH1 0x0 REVERT JUMPDEST PUSH32 0x4163636573732064656E6965642C204F6E6C79206F776E657220697320616C6C PUSH1 0x0 DUP3 ADD MSTORE PUSH32 0x6F77656421000000000000000000000000000000000000000000000000000000 PUSH1 0x20 DUP3 ADD MSTORE POP JUMP JUMPDEST PUSH1 0x0 PUSH2 0x23AB PUSH1 0x25 DUP4 PUSH2 0x1F0F JUMP JUMPDEST SWAP2 POP PUSH2 0x23B6 DUP3 PUSH2 0x234F JUMP JUMPDEST PUSH1 0x40 DUP3 ADD SWAP1 POP SWAP2 SWAP1 POP JUMP JUMPDEST PUSH1 0x0 PUSH1 0x20 DUP3 ADD SWAP1 POP DUP2 DUP2 SUB PUSH1 0x0 DUP4 ADD MSTORE PUSH2 0x23DA DUP2 PUSH2 0x239E JUMP JUMPDEST SWAP1 POP SWAP2 SWAP1 POP JUMP JUMPDEST PUSH1 0x0 PUSH1 0xC0 DUP3 ADD SWAP1 POP PUSH2 0x23F6 PUSH1 0x0 DUP4 ADD DUP10 PUSH2 0x1C8E JUMP JUMPDEST PUSH2 0x2403 PUSH1 0x20 DUP4 ADD DUP9 PUSH2 0x1C8E JUMP JUMPDEST PUSH2 0x2410 PUSH1 0x40 DUP4 ADD DUP8 PUSH2 0x1C8E JUMP JUMPDEST PUSH2 0x241D PUSH1 0x60 DUP4 ADD DUP7 PUSH2 0x1BFC JUMP JUMPDEST PUSH2 0x242A PUSH1 0x80 DUP4 ADD DUP6 PUSH2 0x1C8E JUMP JUMPDEST PUSH2 0x2437 PUSH1 0xA0 DUP4 ADD DUP5 PUSH2 0x1BFC JUMP JUMPDEST SWAP8 SWAP7 POP POP POP POP POP POP POP JUMP JUMPDEST PUSH32 0x526566657272616C206572726F722E0000000000000000000000000000000000 PUSH1 0x0 DUP3 ADD MSTORE POP JUMP JUMPDEST PUSH1 0x0 PUSH2 0x2478 PUSH1 0xF DUP4 PUSH2 0x1F0F JUMP JUMPDEST SWAP2 POP PUSH2 0x2483 DUP3 PUSH2 0x2442 JUMP JUMPDEST PUSH1 0x20 DUP3 ADD SWAP1 POP SWAP2 SWAP1 POP JUMP JUMPDEST PUSH1 0x0 PUSH1 0x20 DUP3 ADD SWAP1 POP DUP2 DUP2 SUB PUSH1 0x0 DUP4 ADD MSTORE PUSH2 0x24A7 DUP2 PUSH2 0x246B JUMP JUMPDEST SWAP1 POP SWAP2 SWAP1 POP JUMP JUMPDEST PUSH32 0x4E487B7100000000000000000000000000000000000000000000000000000000 PUSH1 0x0 MSTORE PUSH1 0x11 PUSH1 0x4 MSTORE PUSH1 0x24 PUSH1 0x0 REVERT JUMPDEST PUSH1 0x0 PUSH2 0x24E8 DUP3 PUSH2 0x1C84 JUMP JUMPDEST SWAP2 POP PUSH2 0x24F3 DUP4 PUSH2 0x1C84 JUMP JUMPDEST SWAP3 POP DUP3 PUSH32 0xFFFFFFFFFFFFFFFFFFFFFFFFFFFFFFFFFFFFFFFFFFFFFFFFFFFFFFFFFFFFFFFF SUB DUP3 GT ISZERO PUSH2 0x2528 JUMPI PUSH2 0x2527 PUSH2 0x24AE JUMP JUMPDEST JUMPDEST DUP3 DUP3 ADD SWAP1 POP SWAP3 SWAP2 POP POP JUMP JUMPDEST PUSH1 0x0 DUP2 MLOAD SWAP1 POP PUSH2 0x2542 DUP2 PUSH2 0x1C2B JUMP JUMPDEST SWAP3 SWAP2 POP POP JUMP JUMPDEST PUSH1 0x0 PUSH1 0x20 DUP3 DUP5 SUB SLT ISZERO PUSH2 0x255E JUMPI PUSH2 0x255D PUSH2 0x1C26 JUMP JUMPDEST JUMPDEST PUSH1 0x0 PUSH2 0x256C DUP5 DUP3 DUP6 ADD PUSH2 0x2533 JUMP JUMPDEST SWAP2 POP POP SWAP3 SWAP2 POP POP JUMP JUMPDEST PUSH1 0x0 DUP2 PUSH1 0x1 SHR SWAP1 POP SWAP2 SWAP1 POP JUMP JUMPDEST PUSH1 0x0 DUP1 DUP3 SWAP2 POP DUP4 SWAP1 POP JUMPDEST PUSH1 0x1 DUP6 GT ISZERO PUSH2 0x25CC JUMPI DUP1 DUP7 DIV DUP2 GT ISZERO PUSH2 0x25A8 JUMPI PUSH2 0x25A7 PUSH2 0x24AE JUMP JUMPDEST JUMPDEST PUSH1 0x1 DUP6 AND ISZERO PUSH2 0x25B7 JUMPI DUP1 DUP3 MUL SWAP2 POP JUMPDEST DUP1 DUP2 MUL SWAP1 POP PUSH2 0x25C5 DUP6 PUSH2 0x2575 JUMP JUMPDEST SWAP5 POP PUSH2 0x258C JUMP JUMPDEST SWAP5 POP SWAP5 SWAP3 POP POP POP JUMP JUMPDEST PUSH1 0x0 DUP3 PUSH2 0x25E5 JUMPI PUSH1 0x1 SWAP1 POP PUSH2 0x26A1 JUMP JUMPDEST DUP2 PUSH2 0x25F3 JUMPI PUSH1 0x0 SWAP1 POP PUSH2 0x26A1 JUMP JUMPDEST DUP2 PUSH1 0x1 DUP2 EQ PUSH2 0x2609 JUMPI PUSH1 0x2 DUP2 EQ PUSH2 0x2613 JUMPI PUSH2 0x2642 JUMP JUMPDEST PUSH1 0x1 SWAP2 POP POP PUSH2 0x26A1 JUMP JUMPDEST PUSH1 0xFF DUP5 GT ISZERO PUSH2 0x2625 JUMPI PUSH2 0x2624 PUSH2 0x24AE JUMP JUMPDEST JUMPDEST DUP4 PUSH1 0x2 EXP SWAP2 POP DUP5 DUP3 GT ISZERO PUSH2 0x263C JUMPI PUSH2 0x263B PUSH2 0x24AE JUMP JUMPDEST JUMPDEST POP PUSH2 0x26A1 JUMP JUMPDEST POP PUSH1 0x20 DUP4 LT PUSH2 0x133 DUP4 LT AND PUSH1 0x4E DUP5 LT PUSH1 0xB DUP5 LT AND OR ISZERO PUSH2 0x2677 JUMPI DUP3 DUP3 EXP SWAP1 POP DUP4 DUP2 GT ISZERO PUSH2 0x2672 JUMPI PUSH2 0x2671 PUSH2 0x24AE JUMP JUMPDEST JUMPDEST PUSH2 0x26A1 JUMP JUMPDEST PUSH2 0x2684 DUP5 DUP5 DUP5 PUSH1 0x1 PUSH2 0x2582 JUMP JUMPDEST SWAP3 POP SWAP1 POP DUP2 DUP5 DIV DUP2 GT ISZERO PUSH2 0x269B JUMPI PUSH2 0x269A PUSH2 0x24AE JUMP JUMPDEST JUMPDEST DUP2 DUP2 MUL SWAP1 POP JUMPDEST SWAP4 SWAP3 POP POP POP JUMP JUMPDEST PUSH1 0x0 PUSH2 0x26B3 DUP3 PUSH2 0x1C84 JUMP JUMPDEST SWAP2 POP PUSH2 0x26BE DUP4 PUSH2 0x1C84 JUMP JUMPDEST SWAP3 POP PUSH2 0x26EB PUSH32 0xFFFFFFFFFFFFFFFFFFFFFFFFFFFFFFFFFFFFFFFFFFFFFFFFFFFFFFFFFFFFFFFF DUP5 DUP5 PUSH2 0x25D5 JUMP JUMPDEST SWAP1 POP SWAP3 SWAP2 POP POP JUMP JUMPDEST PUSH32 0x4E487B7100000000000000000000000000000000000000000000000000000000 PUSH1 0x0 MSTORE PUSH1 0x12 PUSH1 0x4 MSTORE PUSH1 0x24 PUSH1 0x0 REVERT JUMPDEST PUSH1 0x0 PUSH2 0x272D DUP3 PUSH2 0x1C84 JUMP JUMPDEST SWAP2 POP PUSH2 0x2738 DUP4 PUSH2 0x1C84 JUMP JUMPDEST SWAP3 POP DUP3 PUSH2 0x2748 JUMPI PUSH2 0x2747 PUSH2 0x26F3 JUMP JUMPDEST JUMPDEST DUP3 DUP3 DIV SWAP1 POP SWAP3 SWAP2 POP POP JUMP JUMPDEST PUSH1 0x0 PUSH2 0x275E DUP3 PUSH2 0x1C84 JUMP JUMPDEST SWAP2 POP PUSH2 0x2769 DUP4 PUSH2 0x1C84 JUMP JUMPDEST SWAP3 POP DUP3 DUP3 LT ISZERO PUSH2 0x277C JUMPI PUSH2 0x277B PUSH2 0x24AE JUMP JUMPDEST JUMPDEST DUP3 DUP3 SUB SWAP1 POP SWAP3 SWAP2 POP POP JUMP JUMPDEST PUSH1 0x0 PUSH2 0x2792 DUP3 PUSH2 0x1C84 JUMP JUMPDEST SWAP2 POP PUSH2 0x279D DUP4 PUSH2 0x1C84 JUMP JUMPDEST SWAP3 POP DUP2 PUSH32 0xFFFFFFFFFFFFFFFFFFFFFFFFFFFFFFFFFFFFFFFFFFFFFFFFFFFFFFFFFFFFFFFF DIV DUP4 GT DUP3 ISZERO ISZERO AND ISZERO PUSH2 0x27D6 JUMPI PUSH2 0x27D5 PUSH2 0x24AE JUMP JUMPDEST JUMPDEST DUP3 DUP3 MUL SWAP1 POP SWAP3 SWAP2 POP POP JUMP INVALID LOG2 PUSH5 0x6970667358 0x22 SLT KECCAK256 STATICCALL EXTCODEHASH PUSH21 0x8A03C5693B718827FC04461B1453072A371AE34461 PUSH7 0x5E935B16CFC77D PUSH5 0x736F6C6343 STOP ADDMOD 0xC STOP CALLER "
				},
				"gasEstimates": {
					"creation": {
						"codeDepositCost": "2052600",
						"executionCost": "2178",
						"totalCost": "2054778"
					},
					"external": {
						"becomeADealer(address,uint256)": "infinite",
						"becomeADealerWithReferral(address,uint256,address)": "infinite",
						"collectorReward()": "infinite",
						"configureDealersPlan(uint256,uint256,uint256,address,address)": "infinite",
						"dealerCollectorStats()": "infinite",
						"dealerReferralStats(address)": "infinite",
						"getPlanPercentage(address)": "7428",
						"getRewardNextSpill()": "infinite",
						"takeDealerReferralReward(address)": "infinite"
					},
					"internal": {
						"_msgSender()": "22",
						"dealerReferralHelper(address,uint256)": "infinite",
						"dealerReferralHelperWithAReferral(address,address,uint256)": "infinite"
					}
				},
				"methodIdentifiers": {
					"becomeADealer(address,uint256)": "6b667b9b",
					"becomeADealerWithReferral(address,uint256,address)": "f9f11391",
					"collectorReward()": "235eb9f5",
					"configureDealersPlan(uint256,uint256,uint256,address,address)": "a61d6257",
					"dealerCollectorStats()": "ad830443",
					"dealerReferralStats(address)": "468c25a8",
					"getPlanPercentage(address)": "901afb30",
					"getRewardNextSpill()": "1355a306",
					"takeDealerReferralReward(address)": "89499f8d"
				}
			},
			"storageLayout": {
				"storage": [
					{
						"astId": 326,
						"contract": "contracts/facets/DealersFacet.sol:DealersFacet",
						"label": "s",
						"offset": 0,
						"slot": "0",
						"type": "t_struct(AppStorage)243_storage"
					},
					{
						"astId": 383,
						"contract": "contracts/facets/DealersFacet.sol:DealersFacet",
						"label": "nextSpill",
						"offset": 0,
						"slot": "68",
						"type": "t_uint256"
					},
					{
						"astId": 387,
						"contract": "contracts/facets/DealersFacet.sol:DealersFacet",
						"label": "dealers",
						"offset": 0,
						"slot": "69",
						"type": "t_array(t_struct(Dealers)381_storage)dyn_storage"
					},
					{
						"astId": 389,
						"contract": "contracts/facets/DealersFacet.sol:DealersFacet",
						"label": "totalDealerRefferral",
						"offset": 0,
						"slot": "70",
						"type": "t_uint256"
					},
					{
						"astId": 391,
						"contract": "contracts/facets/DealersFacet.sol:DealersFacet",
						"label": "totalRewardCollected",
						"offset": 0,
						"slot": "71",
						"type": "t_uint256"
					},
					{
						"astId": 403,
						"contract": "contracts/facets/DealersFacet.sol:DealersFacet",
						"label": "totalDealerReferralRewardBalance",
						"offset": 0,
						"slot": "72",
						"type": "t_mapping(t_address,t_uint256)"
					}
				],
				"types": {
					"t_address": {
						"encoding": "inplace",
						"label": "address",
						"numberOfBytes": "20"
					},
					"t_array(t_address)dyn_storage": {
						"base": "t_address",
						"encoding": "dynamic_array",
						"label": "address[]",
						"numberOfBytes": "32"
					},
					"t_array(t_struct(Dealers)381_storage)dyn_storage": {
						"base": "t_struct(Dealers)381_storage",
						"encoding": "dynamic_array",
						"label": "struct DealersFacet.Dealers[]",
						"numberOfBytes": "32"
					},
					"t_bool": {
						"encoding": "inplace",
						"label": "bool",
						"numberOfBytes": "1"
					},
					"t_bytes_memory_ptr": {
						"encoding": "bytes",
						"label": "bytes",
						"numberOfBytes": "32"
					},
					"t_bytes_storage": {
						"encoding": "bytes",
						"label": "bytes",
						"numberOfBytes": "32"
					},
					"t_mapping(t_address,t_address)": {
						"encoding": "mapping",
						"key": "t_address",
						"label": "mapping(address => address)",
						"numberOfBytes": "32",
						"value": "t_address"
					},
					"t_mapping(t_address,t_array(t_address)dyn_storage)": {
						"encoding": "mapping",
						"key": "t_address",
						"label": "mapping(address => address[])",
						"numberOfBytes": "32",
						"value": "t_array(t_address)dyn_storage"
					},
					"t_mapping(t_address,t_bool)": {
						"encoding": "mapping",
						"key": "t_address",
						"label": "mapping(address => bool)",
						"numberOfBytes": "32",
						"value": "t_bool"
					},
					"t_mapping(t_address,t_bytes_storage)": {
						"encoding": "mapping",
						"key": "t_address",
						"label": "mapping(address => bytes)",
						"numberOfBytes": "32",
						"value": "t_bytes_storage"
					},
					"t_mapping(t_address,t_mapping(t_bool,t_uint256))": {
						"encoding": "mapping",
						"key": "t_address",
						"label": "mapping(address => mapping(bool => uint256))",
						"numberOfBytes": "32",
						"value": "t_mapping(t_bool,t_uint256)"
					},
					"t_mapping(t_address,t_mapping(t_uint256,t_bool))": {
						"encoding": "mapping",
						"key": "t_address",
						"label": "mapping(address => mapping(uint256 => bool))",
						"numberOfBytes": "32",
						"value": "t_mapping(t_uint256,t_bool)"
					},
					"t_mapping(t_address,t_uint256)": {
						"encoding": "mapping",
						"key": "t_address",
						"label": "mapping(address => uint256)",
						"numberOfBytes": "32",
						"value": "t_uint256"
					},
					"t_mapping(t_bool,t_uint256)": {
						"encoding": "mapping",
						"key": "t_bool",
						"label": "mapping(bool => uint256)",
						"numberOfBytes": "32",
						"value": "t_uint256"
					},
					"t_mapping(t_bytes_memory_ptr,t_address)": {
						"encoding": "mapping",
						"key": "t_bytes_memory_ptr",
						"label": "mapping(bytes => address)",
						"numberOfBytes": "32",
						"value": "t_address"
					},
					"t_mapping(t_bytes_memory_ptr,t_bool)": {
						"encoding": "mapping",
						"key": "t_bytes_memory_ptr",
						"label": "mapping(bytes => bool)",
						"numberOfBytes": "32",
						"value": "t_bool"
					},
					"t_mapping(t_bytes_memory_ptr,t_mapping(t_address,t_uint256))": {
						"encoding": "mapping",
						"key": "t_bytes_memory_ptr",
						"label": "mapping(bytes => mapping(address => uint256))",
						"numberOfBytes": "32",
						"value": "t_mapping(t_address,t_uint256)"
					},
					"t_mapping(t_bytes_memory_ptr,t_uint256)": {
						"encoding": "mapping",
						"key": "t_bytes_memory_ptr",
						"label": "mapping(bytes => uint256)",
						"numberOfBytes": "32",
						"value": "t_uint256"
					},
					"t_mapping(t_uint256,t_address)": {
						"encoding": "mapping",
						"key": "t_uint256",
						"label": "mapping(uint256 => address)",
						"numberOfBytes": "32",
						"value": "t_address"
					},
					"t_mapping(t_uint256,t_bool)": {
						"encoding": "mapping",
						"key": "t_uint256",
						"label": "mapping(uint256 => bool)",
						"numberOfBytes": "32",
						"value": "t_bool"
					},
					"t_mapping(t_uint256,t_mapping(t_address,t_bool))": {
						"encoding": "mapping",
						"key": "t_uint256",
						"label": "mapping(uint256 => mapping(address => bool))",
						"numberOfBytes": "32",
						"value": "t_mapping(t_address,t_bool)"
					},
					"t_mapping(t_uint256,t_mapping(t_address,t_uint256))": {
						"encoding": "mapping",
						"key": "t_uint256",
						"label": "mapping(uint256 => mapping(address => uint256))",
						"numberOfBytes": "32",
						"value": "t_mapping(t_address,t_uint256)"
					},
					"t_mapping(t_uint256,t_mapping(t_uint256,t_address))": {
						"encoding": "mapping",
						"key": "t_uint256",
						"label": "mapping(uint256 => mapping(uint256 => address))",
						"numberOfBytes": "32",
						"value": "t_mapping(t_uint256,t_address)"
					},
					"t_mapping(t_uint256,t_mapping(t_uint256,t_uint256))": {
						"encoding": "mapping",
						"key": "t_uint256",
						"label": "mapping(uint256 => mapping(uint256 => uint256))",
						"numberOfBytes": "32",
						"value": "t_mapping(t_uint256,t_uint256)"
					},
					"t_mapping(t_uint256,t_uint256)": {
						"encoding": "mapping",
						"key": "t_uint256",
						"label": "mapping(uint256 => uint256)",
						"numberOfBytes": "32",
						"value": "t_uint256"
					},
					"t_struct(AppStorage)243_storage": {
						"encoding": "inplace",
						"label": "struct AppStorage",
						"members": [
							{
								"astId": 5,
								"contract": "contracts/facets/DealersFacet.sol:DealersFacet",
								"label": "ticker",
								"offset": 0,
								"slot": "0",
								"type": "t_mapping(t_bytes_memory_ptr,t_uint256)"
							},
							{
								"astId": 9,
								"contract": "contracts/facets/DealersFacet.sol:DealersFacet",
								"label": "pythia",
								"offset": 0,
								"slot": "1",
								"type": "t_mapping(t_address,t_bool)"
							},
							{
								"astId": 14,
								"contract": "contracts/facets/DealersFacet.sol:DealersFacet",
								"label": "myReferrals",
								"offset": 0,
								"slot": "2",
								"type": "t_mapping(t_address,t_array(t_address)dyn_storage)"
							},
							{
								"astId": 18,
								"contract": "contracts/facets/DealersFacet.sol:DealersFacet",
								"label": "staffId",
								"offset": 0,
								"slot": "3",
								"type": "t_mapping(t_address,t_uint256)"
							},
							{
								"astId": 20,
								"contract": "contracts/facets/DealersFacet.sol:DealersFacet",
								"label": "eusdAddr",
								"offset": 0,
								"slot": "4",
								"type": "t_address"
							},
							{
								"astId": 22,
								"contract": "contracts/facets/DealersFacet.sol:DealersFacet",
								"label": "egcAddr",
								"offset": 0,
								"slot": "5",
								"type": "t_address"
							},
							{
								"astId": 24,
								"contract": "contracts/facets/DealersFacet.sol:DealersFacet",
								"label": "egcusd",
								"offset": 0,
								"slot": "6",
								"type": "t_bytes_storage"
							},
							{
								"astId": 28,
								"contract": "contracts/facets/DealersFacet.sol:DealersFacet",
								"label": "member",
								"offset": 0,
								"slot": "7",
								"type": "t_mapping(t_address,t_bool)"
							},
							{
								"astId": 32,
								"contract": "contracts/facets/DealersFacet.sol:DealersFacet",
								"label": "plan",
								"offset": 0,
								"slot": "8",
								"type": "t_mapping(t_uint256,t_uint256)"
							},
							{
								"astId": 36,
								"contract": "contracts/facets/DealersFacet.sol:DealersFacet",
								"label": "stakingPlan",
								"offset": 0,
								"slot": "9",
								"type": "t_mapping(t_uint256,t_uint256)"
							},
							{
								"astId": 40,
								"contract": "contracts/facets/DealersFacet.sol:DealersFacet",
								"label": "expiryDate",
								"offset": 0,
								"slot": "10",
								"type": "t_mapping(t_address,t_uint256)"
							},
							{
								"astId": 44,
								"contract": "contracts/facets/DealersFacet.sol:DealersFacet",
								"label": "userTotalStake",
								"offset": 0,
								"slot": "11",
								"type": "t_mapping(t_address,t_uint256)"
							},
							{
								"astId": 48,
								"contract": "contracts/facets/DealersFacet.sol:DealersFacet",
								"label": "userTotalStakeUsd",
								"offset": 0,
								"slot": "12",
								"type": "t_mapping(t_address,t_uint256)"
							},
							{
								"astId": 52,
								"contract": "contracts/facets/DealersFacet.sol:DealersFacet",
								"label": "dailyRoyalty",
								"offset": 0,
								"slot": "13",
								"type": "t_mapping(t_address,t_uint256)"
							},
							{
								"astId": 56,
								"contract": "contracts/facets/DealersFacet.sol:DealersFacet",
								"label": "lockPeriod",
								"offset": 0,
								"slot": "14",
								"type": "t_mapping(t_address,t_uint256)"
							},
							{
								"astId": 60,
								"contract": "contracts/facets/DealersFacet.sol:DealersFacet",
								"label": "nextRoyaltyTakePeriod",
								"offset": 0,
								"slot": "15",
								"type": "t_mapping(t_address,t_uint256)"
							},
							{
								"astId": 64,
								"contract": "contracts/facets/DealersFacet.sol:DealersFacet",
								"label": "totalRoyaltyTaken",
								"offset": 0,
								"slot": "16",
								"type": "t_mapping(t_address,t_uint256)"
							},
							{
								"astId": 70,
								"contract": "contracts/facets/DealersFacet.sol:DealersFacet",
								"label": "userTotalSwap",
								"offset": 0,
								"slot": "17",
								"type": "t_mapping(t_address,t_mapping(t_bool,t_uint256))"
							},
							{
								"astId": 74,
								"contract": "contracts/facets/DealersFacet.sol:DealersFacet",
								"label": "totalSwap",
								"offset": 0,
								"slot": "18",
								"type": "t_mapping(t_bool,t_uint256)"
							},
							{
								"astId": 76,
								"contract": "contracts/facets/DealersFacet.sol:DealersFacet",
								"label": "_priceOracle",
								"offset": 0,
								"slot": "19",
								"type": "t_address"
							},
							{
								"astId": 78,
								"contract": "contracts/facets/DealersFacet.sol:DealersFacet",
								"label": "_price",
								"offset": 0,
								"slot": "20",
								"type": "t_bytes_storage"
							},
							{
								"astId": 80,
								"contract": "contracts/facets/DealersFacet.sol:DealersFacet",
								"label": "nextSpillIndex",
								"offset": 0,
								"slot": "21",
								"type": "t_uint256"
							},
							{
								"astId": 84,
								"contract": "contracts/facets/DealersFacet.sol:DealersFacet",
								"label": "referredBy",
								"offset": 0,
								"slot": "22",
								"type": "t_mapping(t_address,t_address)"
							},
							{
								"astId": 88,
								"contract": "contracts/facets/DealersFacet.sol:DealersFacet",
								"label": "referralRewardBalance",
								"offset": 0,
								"slot": "23",
								"type": "t_mapping(t_address,t_uint256)"
							},
							{
								"astId": 92,
								"contract": "contracts/facets/DealersFacet.sol:DealersFacet",
								"label": "referralCount",
								"offset": 0,
								"slot": "24",
								"type": "t_mapping(t_address,t_uint256)"
							},
							{
								"astId": 96,
								"contract": "contracts/facets/DealersFacet.sol:DealersFacet",
								"label": "alreadyMember",
								"offset": 0,
								"slot": "25",
								"type": "t_mapping(t_address,t_bool)"
							},
							{
								"astId": 98,
								"contract": "contracts/facets/DealersFacet.sol:DealersFacet",
								"label": "referralBurnBalance",
								"offset": 0,
								"slot": "26",
								"type": "t_uint256"
							},
							{
								"astId": 102,
								"contract": "contracts/facets/DealersFacet.sol:DealersFacet",
								"label": "referralLink",
								"offset": 0,
								"slot": "27",
								"type": "t_mapping(t_address,t_bytes_storage)"
							},
							{
								"astId": 106,
								"contract": "contracts/facets/DealersFacet.sol:DealersFacet",
								"label": "referralAddress",
								"offset": 0,
								"slot": "28",
								"type": "t_mapping(t_bytes_memory_ptr,t_address)"
							},
							{
								"astId": 110,
								"contract": "contracts/facets/DealersFacet.sol:DealersFacet",
								"label": "token_address",
								"offset": 0,
								"slot": "29",
								"type": "t_mapping(t_bytes_memory_ptr,t_address)"
							},
							{
								"astId": 114,
								"contract": "contracts/facets/DealersFacet.sol:DealersFacet",
								"label": "fee",
								"offset": 0,
								"slot": "30",
								"type": "t_mapping(t_bytes_memory_ptr,t_uint256)"
							},
							{
								"astId": 118,
								"contract": "contracts/facets/DealersFacet.sol:DealersFacet",
								"label": "isListed",
								"offset": 0,
								"slot": "31",
								"type": "t_mapping(t_bytes_memory_ptr,t_bool)"
							},
							{
								"astId": 124,
								"contract": "contracts/facets/DealersFacet.sol:DealersFacet",
								"label": "liquidity",
								"offset": 0,
								"slot": "32",
								"type": "t_mapping(t_bytes_memory_ptr,t_mapping(t_address,t_uint256))"
							},
							{
								"astId": 130,
								"contract": "contracts/facets/DealersFacet.sol:DealersFacet",
								"label": "soldProductAmount",
								"offset": 0,
								"slot": "33",
								"type": "t_mapping(t_uint256,t_mapping(t_uint256,t_uint256))"
							},
							{
								"astId": 136,
								"contract": "contracts/facets/DealersFacet.sol:DealersFacet",
								"label": "soldProductBuyer",
								"offset": 0,
								"slot": "34",
								"type": "t_mapping(t_uint256,t_mapping(t_uint256,t_address))"
							},
							{
								"astId": 138,
								"contract": "contracts/facets/DealersFacet.sol:DealersFacet",
								"label": "totalStake",
								"offset": 0,
								"slot": "35",
								"type": "t_uint256"
							},
							{
								"astId": 140,
								"contract": "contracts/facets/DealersFacet.sol:DealersFacet",
								"label": "totalPenaltyStake",
								"offset": 0,
								"slot": "36",
								"type": "t_uint256"
							},
							{
								"astId": 142,
								"contract": "contracts/facets/DealersFacet.sol:DealersFacet",
								"label": "totalUnStake",
								"offset": 0,
								"slot": "37",
								"type": "t_uint256"
							},
							{
								"astId": 144,
								"contract": "contracts/facets/DealersFacet.sol:DealersFacet",
								"label": "initProductCount",
								"offset": 0,
								"slot": "38",
								"type": "t_uint256"
							},
							{
								"astId": 150,
								"contract": "contracts/facets/DealersFacet.sol:DealersFacet",
								"label": "userActivity",
								"offset": 0,
								"slot": "39",
								"type": "t_mapping(t_uint256,t_mapping(t_address,t_uint256))"
							},
							{
								"astId": 154,
								"contract": "contracts/facets/DealersFacet.sol:DealersFacet",
								"label": "allUserActivity",
								"offset": 0,
								"slot": "40",
								"type": "t_mapping(t_address,t_uint256)"
							},
							{
								"astId": 158,
								"contract": "contracts/facets/DealersFacet.sol:DealersFacet",
								"label": "currentAllActivity",
								"offset": 0,
								"slot": "41",
								"type": "t_mapping(t_uint256,t_uint256)"
							},
							{
								"astId": 160,
								"contract": "contracts/facets/DealersFacet.sol:DealersFacet",
								"label": "allActivity",
								"offset": 0,
								"slot": "42",
								"type": "t_uint256"
							},
							{
								"astId": 162,
								"contract": "contracts/facets/DealersFacet.sol:DealersFacet",
								"label": "rewardPeriod",
								"offset": 0,
								"slot": "43",
								"type": "t_uint256"
							},
							{
								"astId": 164,
								"contract": "contracts/facets/DealersFacet.sol:DealersFacet",
								"label": "nextRewardPeriod",
								"offset": 0,
								"slot": "44",
								"type": "t_uint256"
							},
							{
								"astId": 170,
								"contract": "contracts/facets/DealersFacet.sol:DealersFacet",
								"label": "currentPerfomers",
								"offset": 0,
								"slot": "45",
								"type": "t_mapping(t_uint256,t_mapping(t_address,t_bool))"
							},
							{
								"astId": 172,
								"contract": "contracts/facets/DealersFacet.sol:DealersFacet",
								"label": "totalRewardTokenRemaining",
								"offset": 0,
								"slot": "46",
								"type": "t_uint256"
							},
							{
								"astId": 174,
								"contract": "contracts/facets/DealersFacet.sol:DealersFacet",
								"label": "totalRewardDistributed",
								"offset": 0,
								"slot": "47",
								"type": "t_uint256"
							},
							{
								"astId": 178,
								"contract": "contracts/facets/DealersFacet.sol:DealersFacet",
								"label": "userTotalRewardRecieved",
								"offset": 0,
								"slot": "48",
								"type": "t_mapping(t_address,t_uint256)"
							},
							{
								"astId": 182,
								"contract": "contracts/facets/DealersFacet.sol:DealersFacet",
								"label": "lockedRewardForStaking",
								"offset": 0,
								"slot": "49",
								"type": "t_mapping(t_address,t_uint256)"
							},
							{
								"astId": 184,
								"contract": "contracts/facets/DealersFacet.sol:DealersFacet",
								"label": "stakingPlanForSixMonths",
								"offset": 0,
								"slot": "50",
								"type": "t_uint256"
							},
							{
								"astId": 188,
								"contract": "contracts/facets/DealersFacet.sol:DealersFacet",
								"label": "dealersPlan",
								"offset": 0,
								"slot": "51",
								"type": "t_mapping(t_uint256,t_uint256)"
							},
							{
								"astId": 190,
								"contract": "contracts/facets/DealersFacet.sol:DealersFacet",
								"label": "_token_addres",
								"offset": 0,
								"slot": "52",
								"type": "t_address"
							},
							{
								"astId": 194,
								"contract": "contracts/facets/DealersFacet.sol:DealersFacet",
								"label": "dealerExpiryDate",
								"offset": 0,
								"slot": "53",
								"type": "t_mapping(t_address,t_uint256)"
							},
							{
								"astId": 198,
								"contract": "contracts/facets/DealersFacet.sol:DealersFacet",
								"label": "isADealer",
								"offset": 0,
								"slot": "54",
								"type": "t_mapping(t_address,t_bool)"
							},
							{
								"astId": 202,
								"contract": "contracts/facets/DealersFacet.sol:DealersFacet",
								"label": "dealerPlan",
								"offset": 0,
								"slot": "55",
								"type": "t_mapping(t_address,t_uint256)"
							},
							{
								"astId": 204,
								"contract": "contracts/facets/DealersFacet.sol:DealersFacet",
								"label": "dealerSubcriptionCollector",
								"offset": 0,
								"slot": "56",
								"type": "t_address"
							},
							{
								"astId": 208,
								"contract": "contracts/facets/DealersFacet.sol:DealersFacet",
								"label": "referralDealerRewardBalance",
								"offset": 0,
								"slot": "57",
								"type": "t_mapping(t_address,t_uint256)"
							},
							{
								"astId": 210,
								"contract": "contracts/facets/DealersFacet.sol:DealersFacet",
								"label": "dealerSubcriptionCollectorBalance",
								"offset": 0,
								"slot": "58",
								"type": "t_uint256"
							},
							{
								"astId": 214,
								"contract": "contracts/facets/DealersFacet.sol:DealersFacet",
								"label": "deallerReferredBy",
								"offset": 0,
								"slot": "59",
								"type": "t_mapping(t_address,t_address)"
							},
							{
								"astId": 218,
								"contract": "contracts/facets/DealersFacet.sol:DealersFacet",
								"label": "deallerReferralCount",
								"offset": 0,
								"slot": "60",
								"type": "t_mapping(t_address,t_uint256)"
							},
							{
								"astId": 220,
								"contract": "contracts/facets/DealersFacet.sol:DealersFacet",
								"label": "naira",
								"offset": 0,
								"slot": "61",
								"type": "t_bytes_storage"
							},
							{
								"astId": 222,
								"contract": "contracts/facets/DealersFacet.sol:DealersFacet",
								"label": "totalProcurementAmount",
								"offset": 0,
								"slot": "62",
								"type": "t_uint256"
							},
							{
								"astId": 226,
								"contract": "contracts/facets/DealersFacet.sol:DealersFacet",
								"label": "yesVotes",
								"offset": 0,
								"slot": "63",
								"type": "t_mapping(t_uint256,t_uint256)"
							},
							{
								"astId": 230,
								"contract": "contracts/facets/DealersFacet.sol:DealersFacet",
								"label": "noVotes",
								"offset": 0,
								"slot": "64",
								"type": "t_mapping(t_uint256,t_uint256)"
							},
							{
								"astId": 234,
								"contract": "contracts/facets/DealersFacet.sol:DealersFacet",
								"label": "vottingPeriod",
								"offset": 0,
								"slot": "65",
								"type": "t_mapping(t_uint256,t_uint256)"
							},
							{
								"astId": 240,
								"contract": "contracts/facets/DealersFacet.sol:DealersFacet",
								"label": "hasVoted",
								"offset": 0,
								"slot": "66",
								"type": "t_mapping(t_address,t_mapping(t_uint256,t_bool))"
							},
							{
								"astId": 242,
								"contract": "contracts/facets/DealersFacet.sol:DealersFacet",
								"label": "yearlyInterest",
								"offset": 0,
								"slot": "67",
								"type": "t_uint256"
							}
						],
						"numberOfBytes": "2176"
					},
					"t_struct(Dealers)381_storage": {
						"encoding": "inplace",
						"label": "struct DealersFacet.Dealers",
						"members": [
							{
								"astId": 380,
								"contract": "contracts/facets/DealersFacet.sol:DealersFacet",
								"label": "dealer",
								"offset": 0,
								"slot": "0",
								"type": "t_address"
							}
						],
						"numberOfBytes": "32"
					},
					"t_uint256": {
						"encoding": "inplace",
						"label": "uint256",
						"numberOfBytes": "32"
					}
				}
			},
			"userdoc": {
				"kind": "user",
				"methods": {},
				"version": 1
			}
		}
	}
}