{
	"smart contract/SwapCryptoLoanUpdate/contracts/facets/PriceOracleFacet.sol": {
		"PriceOracleFacet": {
			"abi": [
				{
					"anonymous": false,
					"inputs": [
						{
							"indexed": false,
							"internalType": "string",
							"name": "_ticker",
							"type": "string"
						},
						{
							"indexed": false,
							"internalType": "uint256",
							"name": "_price",
							"type": "uint256"
						},
						{
							"indexed": false,
							"internalType": "address",
							"name": "_pythia",
							"type": "address"
						},
						{
							"indexed": false,
							"internalType": "uint256",
							"name": "_time",
							"type": "uint256"
						}
					],
					"name": "PriceUpdated",
					"type": "event"
				},
				{
					"anonymous": false,
					"inputs": [
						{
							"indexed": false,
							"internalType": "uint256",
							"name": "_time",
							"type": "uint256"
						}
					],
					"name": "PrinceChanged",
					"type": "event"
				},
				{
					"anonymous": false,
					"inputs": [
						{
							"indexed": false,
							"internalType": "address",
							"name": "_pythia",
							"type": "address"
						},
						{
							"indexed": false,
							"internalType": "address",
							"name": "_addBy",
							"type": "address"
						},
						{
							"indexed": false,
							"internalType": "uint256",
							"name": "_time",
							"type": "uint256"
						}
					],
					"name": "PythiaAdded",
					"type": "event"
				},
				{
					"anonymous": false,
					"inputs": [
						{
							"indexed": false,
							"internalType": "address",
							"name": "_pythia",
							"type": "address"
						},
						{
							"indexed": false,
							"internalType": "address",
							"name": "_addBy",
							"type": "address"
						},
						{
							"indexed": false,
							"internalType": "uint256",
							"name": "_time",
							"type": "uint256"
						}
					],
					"name": "PythiaSuspended",
					"type": "event"
				},
				{
					"inputs": [
						{
							"internalType": "string",
							"name": "_source",
							"type": "string"
						}
					],
					"name": "converter",
					"outputs": [
						{
							"internalType": "bytes",
							"name": "",
							"type": "bytes"
						}
					],
					"stateMutability": "pure",
					"type": "function"
				},
				{
					"inputs": [],
					"name": "getStakingAndBuyingTokenPrices",
					"outputs": [
						{
							"internalType": "uint256",
							"name": "",
							"type": "uint256"
						},
						{
							"internalType": "uint256",
							"name": "",
							"type": "uint256"
						}
					],
					"stateMutability": "view",
					"type": "function"
				},
				{
					"inputs": [
						{
							"internalType": "string",
							"name": "_ticker",
							"type": "string"
						}
					],
					"name": "setNairaUSDTicker",
					"outputs": [],
					"stateMutability": "nonpayable",
					"type": "function"
				}
			],
			"devdoc": {
				"kind": "dev",
				"methods": {},
				"version": 1
			},
			"evm": {
				"assembly": "    /* \"smart contract/SwapCryptoLoanUpdate/contracts/facets/PriceOracleFacet.sol\":165:3165  contract PriceOracleFacet {... */\n  mstore(0x40, 0x80)\n  callvalue\n  dup1\n  iszero\n  tag_1\n  jumpi\n  0x00\n  dup1\n  revert\ntag_1:\n  pop\n  dataSize(sub_0)\n  dup1\n  dataOffset(sub_0)\n  0x00\n  codecopy\n  0x00\n  return\nstop\n\nsub_0: assembly {\n        /* \"smart contract/SwapCryptoLoanUpdate/contracts/facets/PriceOracleFacet.sol\":165:3165  contract PriceOracleFacet {... */\n      mstore(0x40, 0x80)\n      callvalue\n      dup1\n      iszero\n      tag_1\n      jumpi\n      0x00\n      dup1\n      revert\n    tag_1:\n      pop\n      jumpi(tag_2, lt(calldatasize, 0x04))\n      shr(0xe0, calldataload(0x00))\n      dup1\n      0x267561c8\n      eq\n      tag_3\n      jumpi\n      dup1\n      0x94a72f1c\n      eq\n      tag_4\n      jumpi\n      dup1\n      0xfc3a49e0\n      eq\n      tag_5\n      jumpi\n    tag_2:\n      0x00\n      dup1\n      revert\n        /* \"smart contract/SwapCryptoLoanUpdate/contracts/facets/PriceOracleFacet.sol\":1881:2000  function setNairaUSDTicker(string memory _ticker) external onlyOwner {... */\n    tag_3:\n      tag_6\n      0x04\n      dup1\n      calldatasize\n      sub\n      dup2\n      add\n      swap1\n      tag_7\n      swap2\n      swap1\n      tag_8\n      jump\t// in\n    tag_7:\n      tag_9\n      jump\t// in\n    tag_6:\n      stop\n        /* \"smart contract/SwapCryptoLoanUpdate/contracts/facets/PriceOracleFacet.sol\":2551:2689  function converter(... */\n    tag_4:\n      tag_10\n      0x04\n      dup1\n      calldatasize\n      sub\n      dup2\n      add\n      swap1\n      tag_11\n      swap2\n      swap1\n      tag_8\n      jump\t// in\n    tag_11:\n      tag_12\n      jump\t// in\n    tag_10:\n      mload(0x40)\n      tag_13\n      swap2\n      swap1\n      tag_14\n      jump\t// in\n    tag_13:\n      mload(0x40)\n      dup1\n      swap2\n      sub\n      swap1\n      return\n        /* \"smart contract/SwapCryptoLoanUpdate/contracts/facets/PriceOracleFacet.sol\":2006:2180  function getStakingAndBuyingTokenPrices()... */\n    tag_5:\n      tag_15\n      tag_16\n      jump\t// in\n    tag_15:\n      mload(0x40)\n      tag_17\n      swap3\n      swap2\n      swap1\n      tag_18\n      jump\t// in\n    tag_17:\n      mload(0x40)\n      dup1\n      swap2\n      sub\n      swap1\n      return\n        /* \"smart contract/SwapCryptoLoanUpdate/contracts/facets/PriceOracleFacet.sol\":1881:2000  function setNairaUSDTicker(string memory _ticker) external onlyOwner {... */\n    tag_9:\n        /* \"smart contract/SwapCryptoLoanUpdate/contracts/facets/PriceOracleFacet.sol\":588:614  LibDiamond.contractOwner() */\n      tag_20\n        /* \"smart contract/SwapCryptoLoanUpdate/contracts/facets/PriceOracleFacet.sol\":588:612  LibDiamond.contractOwner */\n      tag_21\n        /* \"smart contract/SwapCryptoLoanUpdate/contracts/facets/PriceOracleFacet.sol\":588:614  LibDiamond.contractOwner() */\n      jump\t// in\n    tag_20:\n        /* \"smart contract/SwapCryptoLoanUpdate/contracts/facets/PriceOracleFacet.sol\":574:614  msg.sender == LibDiamond.contractOwner() */\n      0xffffffffffffffffffffffffffffffffffffffff\n      and\n        /* \"smart contract/SwapCryptoLoanUpdate/contracts/facets/PriceOracleFacet.sol\":574:584  msg.sender */\n      caller\n        /* \"smart contract/SwapCryptoLoanUpdate/contracts/facets/PriceOracleFacet.sol\":574:614  msg.sender == LibDiamond.contractOwner() */\n      0xffffffffffffffffffffffffffffffffffffffff\n      and\n      eq\n        /* \"smart contract/SwapCryptoLoanUpdate/contracts/facets/PriceOracleFacet.sol\":553:677  require(... */\n      tag_22\n      jumpi\n      mload(0x40)\n      0x08c379a000000000000000000000000000000000000000000000000000000000\n      dup2\n      mstore\n      0x04\n      add\n      tag_23\n      swap1\n      tag_24\n      jump\t// in\n    tag_23:\n      mload(0x40)\n      dup1\n      swap2\n      sub\n      swap1\n      revert\n    tag_22:\n        /* \"smart contract/SwapCryptoLoanUpdate/contracts/facets/PriceOracleFacet.sol\":1970:1974  this */\n      address\n        /* \"smart contract/SwapCryptoLoanUpdate/contracts/facets/PriceOracleFacet.sol\":1970:1984  this.converter */\n      0xffffffffffffffffffffffffffffffffffffffff\n      and\n      0x94a72f1c\n        /* \"smart contract/SwapCryptoLoanUpdate/contracts/facets/PriceOracleFacet.sol\":1985:1992  _ticker */\n      dup3\n        /* \"smart contract/SwapCryptoLoanUpdate/contracts/facets/PriceOracleFacet.sol\":1970:1993  this.converter(_ticker) */\n      mload(0x40)\n      dup3\n      0xffffffff\n      and\n      0xe0\n      shl\n      dup2\n      mstore\n      0x04\n      add\n      tag_26\n      swap2\n      swap1\n      tag_27\n      jump\t// in\n    tag_26:\n      0x00\n      mload(0x40)\n      dup1\n      dup4\n      sub\n      dup2\n      dup7\n      gas\n      staticcall\n      iszero\n      dup1\n      iszero\n      tag_29\n      jumpi\n      returndatasize\n      0x00\n      dup1\n      returndatacopy\n      revert(0x00, returndatasize)\n    tag_29:\n      pop\n      pop\n      pop\n      pop\n      mload(0x40)\n      returndatasize\n      0x00\n      dup3\n      returndatacopy\n      returndatasize\n      not(0x1f)\n      0x1f\n      dup3\n      add\n      and\n      dup3\n      add\n      dup1\n      0x40\n      mstore\n      pop\n      dup2\n      add\n      swap1\n      tag_30\n      swap2\n      swap1\n      tag_31\n      jump\t// in\n    tag_30:\n        /* \"smart contract/SwapCryptoLoanUpdate/contracts/facets/PriceOracleFacet.sol\":1960:1961  s */\n      0x00\n        /* \"smart contract/SwapCryptoLoanUpdate/contracts/facets/PriceOracleFacet.sol\":1960:1967  s.naira */\n      0x3d\n      add\n        /* \"smart contract/SwapCryptoLoanUpdate/contracts/facets/PriceOracleFacet.sol\":1960:1993  s.naira = this.converter(_ticker) */\n      swap1\n      dup2\n      tag_32\n      swap2\n      swap1\n      tag_33\n      jump\t// in\n    tag_32:\n      pop\n        /* \"smart contract/SwapCryptoLoanUpdate/contracts/facets/PriceOracleFacet.sol\":1881:2000  function setNairaUSDTicker(string memory _ticker) external onlyOwner {... */\n      pop\n      jump\t// out\n        /* \"smart contract/SwapCryptoLoanUpdate/contracts/facets/PriceOracleFacet.sol\":2551:2689  function converter(... */\n    tag_12:\n        /* \"smart contract/SwapCryptoLoanUpdate/contracts/facets/PriceOracleFacet.sol\":2630:2642  bytes memory */\n      0x60\n        /* \"smart contract/SwapCryptoLoanUpdate/contracts/facets/PriceOracleFacet.sol\":2667:2681  upper(_source) */\n      tag_35\n        /* \"smart contract/SwapCryptoLoanUpdate/contracts/facets/PriceOracleFacet.sol\":2673:2680  _source */\n      dup3\n        /* \"smart contract/SwapCryptoLoanUpdate/contracts/facets/PriceOracleFacet.sol\":2667:2672  upper */\n      tag_36\n        /* \"smart contract/SwapCryptoLoanUpdate/contracts/facets/PriceOracleFacet.sol\":2667:2681  upper(_source) */\n      jump\t// in\n    tag_35:\n        /* \"smart contract/SwapCryptoLoanUpdate/contracts/facets/PriceOracleFacet.sol\":2654:2682  return bytes(upper(_source)) */\n      swap1\n      pop\n        /* \"smart contract/SwapCryptoLoanUpdate/contracts/facets/PriceOracleFacet.sol\":2551:2689  function converter(... */\n      swap2\n      swap1\n      pop\n      jump\t// out\n        /* \"smart contract/SwapCryptoLoanUpdate/contracts/facets/PriceOracleFacet.sol\":2006:2180  function getStakingAndBuyingTokenPrices()... */\n    tag_16:\n        /* \"smart contract/SwapCryptoLoanUpdate/contracts/facets/PriceOracleFacet.sol\":2095:2102  uint256 */\n      0x00\n        /* \"smart contract/SwapCryptoLoanUpdate/contracts/facets/PriceOracleFacet.sol\":2104:2111  uint256 */\n      dup1\n        /* \"smart contract/SwapCryptoLoanUpdate/contracts/facets/PriceOracleFacet.sol\":2135:2136  s */\n      0x00\n        /* \"smart contract/SwapCryptoLoanUpdate/contracts/facets/PriceOracleFacet.sol\":2135:2143  s.ticker */\n      dup1\n      add\n        /* \"smart contract/SwapCryptoLoanUpdate/contracts/facets/PriceOracleFacet.sol\":2144:2145  s */\n      0x00\n        /* \"smart contract/SwapCryptoLoanUpdate/contracts/facets/PriceOracleFacet.sol\":2144:2151  s.naira */\n      0x3d\n      add\n        /* \"smart contract/SwapCryptoLoanUpdate/contracts/facets/PriceOracleFacet.sol\":2135:2152  s.ticker[s.naira] */\n      mload(0x40)\n      tag_38\n      swap2\n      swap1\n      tag_39\n      jump\t// in\n    tag_38:\n      swap1\n      dup2\n      mstore\n      0x20\n      add\n      mload(0x40)\n      dup1\n      swap2\n      sub\n      swap1\n      keccak256\n      sload\n        /* \"smart contract/SwapCryptoLoanUpdate/contracts/facets/PriceOracleFacet.sol\":2154:2155  s */\n      0x00\n        /* \"smart contract/SwapCryptoLoanUpdate/contracts/facets/PriceOracleFacet.sol\":2154:2162  s.ticker */\n      dup1\n      add\n        /* \"smart contract/SwapCryptoLoanUpdate/contracts/facets/PriceOracleFacet.sol\":2163:2164  s */\n      0x00\n        /* \"smart contract/SwapCryptoLoanUpdate/contracts/facets/PriceOracleFacet.sol\":2163:2171  s.egcusd */\n      0x06\n      add\n        /* \"smart contract/SwapCryptoLoanUpdate/contracts/facets/PriceOracleFacet.sol\":2154:2172  s.ticker[s.egcusd] */\n      mload(0x40)\n      tag_40\n      swap2\n      swap1\n      tag_39\n      jump\t// in\n    tag_40:\n      swap1\n      dup2\n      mstore\n      0x20\n      add\n      mload(0x40)\n      dup1\n      swap2\n      sub\n      swap1\n      keccak256\n      sload\n        /* \"smart contract/SwapCryptoLoanUpdate/contracts/facets/PriceOracleFacet.sol\":2127:2173  return (s.ticker[s.naira], s.ticker[s.egcusd]) */\n      swap2\n      pop\n      swap2\n      pop\n        /* \"smart contract/SwapCryptoLoanUpdate/contracts/facets/PriceOracleFacet.sol\":2006:2180  function getStakingAndBuyingTokenPrices()... */\n      swap1\n      swap2\n      jump\t// out\n        /* \"smart contract/SwapCryptoLoanUpdate/contracts/libraries/LibDiamond.sol\":1669:1805  function contractOwner() internal view returns (address contractOwner_) {... */\n    tag_21:\n        /* \"smart contract/SwapCryptoLoanUpdate/contracts/libraries/LibDiamond.sol\":1717:1739  address contractOwner_ */\n      0x00\n        /* \"smart contract/SwapCryptoLoanUpdate/contracts/libraries/LibDiamond.sol\":1768:1784  diamondStorage() */\n      tag_42\n        /* \"smart contract/SwapCryptoLoanUpdate/contracts/libraries/LibDiamond.sol\":1768:1782  diamondStorage */\n      tag_43\n        /* \"smart contract/SwapCryptoLoanUpdate/contracts/libraries/LibDiamond.sol\":1768:1784  diamondStorage() */\n      jump\t// in\n    tag_42:\n        /* \"smart contract/SwapCryptoLoanUpdate/contracts/libraries/LibDiamond.sol\":1768:1798  diamondStorage().contractOwner */\n      0x03\n      add\n      0x00\n      swap1\n      sload\n      swap1\n      0x0100\n      exp\n      swap1\n      div\n      0xffffffffffffffffffffffffffffffffffffffff\n      and\n        /* \"smart contract/SwapCryptoLoanUpdate/contracts/libraries/LibDiamond.sol\":1751:1798  contractOwner_ = diamondStorage().contractOwner */\n      swap1\n      pop\n        /* \"smart contract/SwapCryptoLoanUpdate/contracts/libraries/LibDiamond.sol\":1669:1805  function contractOwner() internal view returns (address contractOwner_) {... */\n      swap1\n      jump\t// out\n        /* \"smart contract/SwapCryptoLoanUpdate/contracts/facets/PriceOracleFacet.sol\":2695:2975  function upper(string memory _base) internal pure returns (string memory) {... */\n    tag_36:\n        /* \"smart contract/SwapCryptoLoanUpdate/contracts/facets/PriceOracleFacet.sol\":2754:2767  string memory */\n      0x60\n        /* \"smart contract/SwapCryptoLoanUpdate/contracts/facets/PriceOracleFacet.sol\":2779:2802  bytes memory _baseBytes */\n      0x00\n        /* \"smart contract/SwapCryptoLoanUpdate/contracts/facets/PriceOracleFacet.sol\":2811:2816  _base */\n      dup3\n        /* \"smart contract/SwapCryptoLoanUpdate/contracts/facets/PriceOracleFacet.sol\":2779:2817  bytes memory _baseBytes = bytes(_base) */\n      swap1\n      pop\n        /* \"smart contract/SwapCryptoLoanUpdate/contracts/facets/PriceOracleFacet.sol\":2832:2838  uint i */\n      0x00\n        /* \"smart contract/SwapCryptoLoanUpdate/contracts/facets/PriceOracleFacet.sol\":2827:2934  for (uint i = 0; i < _baseBytes.length; i++) {... */\n    tag_45:\n        /* \"smart contract/SwapCryptoLoanUpdate/contracts/facets/PriceOracleFacet.sol\":2848:2858  _baseBytes */\n      dup2\n        /* \"smart contract/SwapCryptoLoanUpdate/contracts/facets/PriceOracleFacet.sol\":2848:2865  _baseBytes.length */\n      mload\n        /* \"smart contract/SwapCryptoLoanUpdate/contracts/facets/PriceOracleFacet.sol\":2844:2845  i */\n      dup2\n        /* \"smart contract/SwapCryptoLoanUpdate/contracts/facets/PriceOracleFacet.sol\":2844:2865  i < _baseBytes.length */\n      lt\n        /* \"smart contract/SwapCryptoLoanUpdate/contracts/facets/PriceOracleFacet.sol\":2827:2934  for (uint i = 0; i < _baseBytes.length; i++) {... */\n      iszero\n      tag_46\n      jumpi\n        /* \"smart contract/SwapCryptoLoanUpdate/contracts/facets/PriceOracleFacet.sol\":2902:2923  _upper(_baseBytes[i]) */\n      tag_48\n        /* \"smart contract/SwapCryptoLoanUpdate/contracts/facets/PriceOracleFacet.sol\":2909:2919  _baseBytes */\n      dup3\n        /* \"smart contract/SwapCryptoLoanUpdate/contracts/facets/PriceOracleFacet.sol\":2920:2921  i */\n      dup3\n        /* \"smart contract/SwapCryptoLoanUpdate/contracts/facets/PriceOracleFacet.sol\":2909:2922  _baseBytes[i] */\n      dup2\n      mload\n      dup2\n      lt\n      tag_49\n      jumpi\n      tag_50\n      tag_51\n      jump\t// in\n    tag_50:\n    tag_49:\n      0x20\n      add\n      add\n      mload\n      0xf8\n      shr\n      0xf8\n      shl\n        /* \"smart contract/SwapCryptoLoanUpdate/contracts/facets/PriceOracleFacet.sol\":2902:2908  _upper */\n      tag_52\n        /* \"smart contract/SwapCryptoLoanUpdate/contracts/facets/PriceOracleFacet.sol\":2902:2923  _upper(_baseBytes[i]) */\n      jump\t// in\n    tag_48:\n        /* \"smart contract/SwapCryptoLoanUpdate/contracts/facets/PriceOracleFacet.sol\":2886:2896  _baseBytes */\n      dup3\n        /* \"smart contract/SwapCryptoLoanUpdate/contracts/facets/PriceOracleFacet.sol\":2897:2898  i */\n      dup3\n        /* \"smart contract/SwapCryptoLoanUpdate/contracts/facets/PriceOracleFacet.sol\":2886:2899  _baseBytes[i] */\n      dup2\n      mload\n      dup2\n      lt\n      tag_53\n      jumpi\n      tag_54\n      tag_51\n      jump\t// in\n    tag_54:\n    tag_53:\n      0x20\n      add\n      add\n        /* \"smart contract/SwapCryptoLoanUpdate/contracts/facets/PriceOracleFacet.sol\":2886:2923  _baseBytes[i] = _upper(_baseBytes[i]) */\n      swap1\n      not(0xffffffffffffffffffffffffffffffffffffffffffffffffffffffffffffff)\n      and\n      swap1\n      dup2\n      0x00\n      byte\n      swap1\n      mstore8\n      pop\n        /* \"smart contract/SwapCryptoLoanUpdate/contracts/facets/PriceOracleFacet.sol\":2867:2870  i++ */\n      dup1\n      dup1\n      tag_55\n      swap1\n      tag_56\n      jump\t// in\n    tag_55:\n      swap2\n      pop\n      pop\n        /* \"smart contract/SwapCryptoLoanUpdate/contracts/facets/PriceOracleFacet.sol\":2827:2934  for (uint i = 0; i < _baseBytes.length; i++) {... */\n      jump(tag_45)\n    tag_46:\n      pop\n        /* \"smart contract/SwapCryptoLoanUpdate/contracts/facets/PriceOracleFacet.sol\":2957:2967  _baseBytes */\n      dup1\n        /* \"smart contract/SwapCryptoLoanUpdate/contracts/facets/PriceOracleFacet.sol\":2943:2968  return string(_baseBytes) */\n      swap2\n      pop\n      pop\n        /* \"smart contract/SwapCryptoLoanUpdate/contracts/facets/PriceOracleFacet.sol\":2695:2975  function upper(string memory _base) internal pure returns (string memory) {... */\n      swap2\n      swap1\n      pop\n      jump\t// out\n        /* \"smart contract/SwapCryptoLoanUpdate/contracts/libraries/LibDiamond.sol\":1056:1281  function diamondStorage()... */\n    tag_43:\n        /* \"smart contract/SwapCryptoLoanUpdate/contracts/libraries/LibDiamond.sol\":1129:1154  DiamondStorage storage ds */\n      0x00\n        /* \"smart contract/SwapCryptoLoanUpdate/contracts/libraries/LibDiamond.sol\":1170:1186  bytes32 position */\n      dup1\n        /* \"smart contract/SwapCryptoLoanUpdate/contracts/libraries/LibDiamond.sol\":530:575  keccak256(\"diamond.standard.diamond.storage\") */\n      0xc8fcad8db84d3cc18b4c41d551ea0ee66dd599cde068d998e57d5e09332c131c\n        /* \"smart contract/SwapCryptoLoanUpdate/contracts/libraries/LibDiamond.sol\":1170:1213  bytes32 position = DIAMOND_STORAGE_POSITION */\n      swap1\n      pop\n        /* \"smart contract/SwapCryptoLoanUpdate/contracts/libraries/LibDiamond.sol\":1257:1265  position */\n      dup1\n        /* \"smart contract/SwapCryptoLoanUpdate/contracts/libraries/LibDiamond.sol\":1246:1265  ds.slot := position */\n      swap2\n      pop\n        /* \"smart contract/SwapCryptoLoanUpdate/contracts/libraries/LibDiamond.sol\":1232:1275  {... */\n      pop\n        /* \"smart contract/SwapCryptoLoanUpdate/contracts/libraries/LibDiamond.sol\":1056:1281  function diamondStorage()... */\n      swap1\n      jump\t// out\n        /* \"smart contract/SwapCryptoLoanUpdate/contracts/facets/PriceOracleFacet.sol\":2981:3163  function _upper(bytes1 _b1) private pure returns (bytes1) {... */\n    tag_52:\n        /* \"smart contract/SwapCryptoLoanUpdate/contracts/facets/PriceOracleFacet.sol\":3031:3037  bytes1 */\n      0x00\n        /* \"smart contract/SwapCryptoLoanUpdate/contracts/facets/PriceOracleFacet.sol\":3060:3064  0x61 */\n      0x61\n        /* \"smart contract/SwapCryptoLoanUpdate/contracts/facets/PriceOracleFacet.sol\":3053:3064  _b1 >= 0x61 */\n      0xf8\n      shl\n        /* \"smart contract/SwapCryptoLoanUpdate/contracts/facets/PriceOracleFacet.sol\":3053:3056  _b1 */\n      dup3\n        /* \"smart contract/SwapCryptoLoanUpdate/contracts/facets/PriceOracleFacet.sol\":3053:3064  _b1 >= 0x61 */\n      not(0xffffffffffffffffffffffffffffffffffffffffffffffffffffffffffffff)\n      and\n      lt\n      iszero\n        /* \"smart contract/SwapCryptoLoanUpdate/contracts/facets/PriceOracleFacet.sol\":3053:3079  _b1 >= 0x61 && _b1 <= 0x7A */\n      dup1\n      iszero\n      tag_59\n      jumpi\n      pop\n        /* \"smart contract/SwapCryptoLoanUpdate/contracts/facets/PriceOracleFacet.sol\":3075:3079  0x7A */\n      0x7a\n        /* \"smart contract/SwapCryptoLoanUpdate/contracts/facets/PriceOracleFacet.sol\":3068:3079  _b1 <= 0x7A */\n      0xf8\n      shl\n        /* \"smart contract/SwapCryptoLoanUpdate/contracts/facets/PriceOracleFacet.sol\":3068:3071  _b1 */\n      dup3\n        /* \"smart contract/SwapCryptoLoanUpdate/contracts/facets/PriceOracleFacet.sol\":3068:3079  _b1 <= 0x7A */\n      not(0xffffffffffffffffffffffffffffffffffffffffffffffffffffffffffffff)\n      and\n      gt\n      iszero\n        /* \"smart contract/SwapCryptoLoanUpdate/contracts/facets/PriceOracleFacet.sol\":3053:3079  _b1 >= 0x61 && _b1 <= 0x7A */\n    tag_59:\n        /* \"smart contract/SwapCryptoLoanUpdate/contracts/facets/PriceOracleFacet.sol\":3049:3136  if (_b1 >= 0x61 && _b1 <= 0x7A) {... */\n      iszero\n      tag_60\n      jumpi\n        /* \"smart contract/SwapCryptoLoanUpdate/contracts/facets/PriceOracleFacet.sol\":3122:3124  32 */\n      0x20\n        /* \"smart contract/SwapCryptoLoanUpdate/contracts/facets/PriceOracleFacet.sol\":3115:3118  _b1 */\n      dup3\n        /* \"smart contract/SwapCryptoLoanUpdate/contracts/facets/PriceOracleFacet.sol\":3109:3119  uint8(_b1) */\n      0xf8\n      shr\n        /* \"smart contract/SwapCryptoLoanUpdate/contracts/facets/PriceOracleFacet.sol\":3109:3124  uint8(_b1) - 32 */\n      tag_61\n      swap2\n      swap1\n      tag_62\n      jump\t// in\n    tag_61:\n        /* \"smart contract/SwapCryptoLoanUpdate/contracts/facets/PriceOracleFacet.sol\":3102:3125  bytes1(uint8(_b1) - 32) */\n      0xf8\n      shl\n        /* \"smart contract/SwapCryptoLoanUpdate/contracts/facets/PriceOracleFacet.sol\":3095:3125  return bytes1(uint8(_b1) - 32) */\n      swap1\n      pop\n      jump(tag_58)\n        /* \"smart contract/SwapCryptoLoanUpdate/contracts/facets/PriceOracleFacet.sol\":3049:3136  if (_b1 >= 0x61 && _b1 <= 0x7A) {... */\n    tag_60:\n        /* \"smart contract/SwapCryptoLoanUpdate/contracts/facets/PriceOracleFacet.sol\":3153:3156  _b1 */\n      dup2\n        /* \"smart contract/SwapCryptoLoanUpdate/contracts/facets/PriceOracleFacet.sol\":3146:3156  return _b1 */\n      swap1\n      pop\n        /* \"smart contract/SwapCryptoLoanUpdate/contracts/facets/PriceOracleFacet.sol\":2981:3163  function _upper(bytes1 _b1) private pure returns (bytes1) {... */\n    tag_58:\n      swap2\n      swap1\n      pop\n      jump\t// out\n        /* \"#utility.yul\":7:82   */\n    tag_63:\n        /* \"#utility.yul\":40:46   */\n      0x00\n        /* \"#utility.yul\":73:75   */\n      0x40\n        /* \"#utility.yul\":67:76   */\n      mload\n        /* \"#utility.yul\":57:76   */\n      swap1\n      pop\n        /* \"#utility.yul\":7:82   */\n      swap1\n      jump\t// out\n        /* \"#utility.yul\":88:205   */\n    tag_64:\n        /* \"#utility.yul\":197:198   */\n      0x00\n        /* \"#utility.yul\":194:195   */\n      dup1\n        /* \"#utility.yul\":187:199   */\n      revert\n        /* \"#utility.yul\":211:328   */\n    tag_65:\n        /* \"#utility.yul\":320:321   */\n      0x00\n        /* \"#utility.yul\":317:318   */\n      dup1\n        /* \"#utility.yul\":310:322   */\n      revert\n        /* \"#utility.yul\":334:451   */\n    tag_66:\n        /* \"#utility.yul\":443:444   */\n      0x00\n        /* \"#utility.yul\":440:441   */\n      dup1\n        /* \"#utility.yul\":433:445   */\n      revert\n        /* \"#utility.yul\":457:574   */\n    tag_67:\n        /* \"#utility.yul\":566:567   */\n      0x00\n        /* \"#utility.yul\":563:564   */\n      dup1\n        /* \"#utility.yul\":556:568   */\n      revert\n        /* \"#utility.yul\":580:682   */\n    tag_68:\n        /* \"#utility.yul\":621:627   */\n      0x00\n        /* \"#utility.yul\":672:674   */\n      0x1f\n        /* \"#utility.yul\":668:675   */\n      not\n        /* \"#utility.yul\":663:665   */\n      0x1f\n        /* \"#utility.yul\":656:661   */\n      dup4\n        /* \"#utility.yul\":652:666   */\n      add\n        /* \"#utility.yul\":648:676   */\n      and\n        /* \"#utility.yul\":638:676   */\n      swap1\n      pop\n        /* \"#utility.yul\":580:682   */\n      swap2\n      swap1\n      pop\n      jump\t// out\n        /* \"#utility.yul\":688:868   */\n    tag_69:\n        /* \"#utility.yul\":736:813   */\n      0x4e487b7100000000000000000000000000000000000000000000000000000000\n        /* \"#utility.yul\":733:734   */\n      0x00\n        /* \"#utility.yul\":726:814   */\n      mstore\n        /* \"#utility.yul\":833:837   */\n      0x41\n        /* \"#utility.yul\":830:831   */\n      0x04\n        /* \"#utility.yul\":823:838   */\n      mstore\n        /* \"#utility.yul\":857:861   */\n      0x24\n        /* \"#utility.yul\":854:855   */\n      0x00\n        /* \"#utility.yul\":847:862   */\n      revert\n        /* \"#utility.yul\":874:1155   */\n    tag_70:\n        /* \"#utility.yul\":957:984   */\n      tag_120\n        /* \"#utility.yul\":979:983   */\n      dup3\n        /* \"#utility.yul\":957:984   */\n      tag_68\n      jump\t// in\n    tag_120:\n        /* \"#utility.yul\":949:955   */\n      dup2\n        /* \"#utility.yul\":945:985   */\n      add\n        /* \"#utility.yul\":1087:1093   */\n      dup2\n        /* \"#utility.yul\":1075:1085   */\n      dup2\n        /* \"#utility.yul\":1072:1094   */\n      lt\n        /* \"#utility.yul\":1051:1069   */\n      0xffffffffffffffff\n        /* \"#utility.yul\":1039:1049   */\n      dup3\n        /* \"#utility.yul\":1036:1070   */\n      gt\n        /* \"#utility.yul\":1033:1095   */\n      or\n        /* \"#utility.yul\":1030:1118   */\n      iszero\n      tag_121\n      jumpi\n        /* \"#utility.yul\":1098:1116   */\n      tag_122\n      tag_69\n      jump\t// in\n    tag_122:\n        /* \"#utility.yul\":1030:1118   */\n    tag_121:\n        /* \"#utility.yul\":1138:1148   */\n      dup1\n        /* \"#utility.yul\":1134:1136   */\n      0x40\n        /* \"#utility.yul\":1127:1149   */\n      mstore\n        /* \"#utility.yul\":917:1155   */\n      pop\n        /* \"#utility.yul\":874:1155   */\n      pop\n      pop\n      jump\t// out\n        /* \"#utility.yul\":1161:1290   */\n    tag_71:\n        /* \"#utility.yul\":1195:1201   */\n      0x00\n        /* \"#utility.yul\":1222:1242   */\n      tag_124\n      tag_63\n      jump\t// in\n    tag_124:\n        /* \"#utility.yul\":1212:1242   */\n      swap1\n      pop\n        /* \"#utility.yul\":1251:1284   */\n      tag_125\n        /* \"#utility.yul\":1279:1283   */\n      dup3\n        /* \"#utility.yul\":1271:1277   */\n      dup3\n        /* \"#utility.yul\":1251:1284   */\n      tag_70\n      jump\t// in\n    tag_125:\n        /* \"#utility.yul\":1161:1290   */\n      swap2\n      swap1\n      pop\n      jump\t// out\n        /* \"#utility.yul\":1296:1604   */\n    tag_72:\n        /* \"#utility.yul\":1358:1362   */\n      0x00\n        /* \"#utility.yul\":1448:1466   */\n      0xffffffffffffffff\n        /* \"#utility.yul\":1440:1446   */\n      dup3\n        /* \"#utility.yul\":1437:1467   */\n      gt\n        /* \"#utility.yul\":1434:1490   */\n      iszero\n      tag_127\n      jumpi\n        /* \"#utility.yul\":1470:1488   */\n      tag_128\n      tag_69\n      jump\t// in\n    tag_128:\n        /* \"#utility.yul\":1434:1490   */\n    tag_127:\n        /* \"#utility.yul\":1508:1537   */\n      tag_129\n        /* \"#utility.yul\":1530:1536   */\n      dup3\n        /* \"#utility.yul\":1508:1537   */\n      tag_68\n      jump\t// in\n    tag_129:\n        /* \"#utility.yul\":1500:1537   */\n      swap1\n      pop\n        /* \"#utility.yul\":1592:1596   */\n      0x20\n        /* \"#utility.yul\":1586:1590   */\n      dup2\n        /* \"#utility.yul\":1582:1597   */\n      add\n        /* \"#utility.yul\":1574:1597   */\n      swap1\n      pop\n        /* \"#utility.yul\":1296:1604   */\n      swap2\n      swap1\n      pop\n      jump\t// out\n        /* \"#utility.yul\":1610:1756   */\n    tag_73:\n        /* \"#utility.yul\":1707:1713   */\n      dup3\n        /* \"#utility.yul\":1702:1705   */\n      dup2\n        /* \"#utility.yul\":1697:1700   */\n      dup4\n        /* \"#utility.yul\":1684:1714   */\n      calldatacopy\n        /* \"#utility.yul\":1748:1749   */\n      0x00\n        /* \"#utility.yul\":1739:1745   */\n      dup4\n        /* \"#utility.yul\":1734:1737   */\n      dup4\n        /* \"#utility.yul\":1730:1746   */\n      add\n        /* \"#utility.yul\":1723:1750   */\n      mstore\n        /* \"#utility.yul\":1610:1756   */\n      pop\n      pop\n      pop\n      jump\t// out\n        /* \"#utility.yul\":1762:2187   */\n    tag_74:\n        /* \"#utility.yul\":1840:1845   */\n      0x00\n        /* \"#utility.yul\":1865:1931   */\n      tag_132\n        /* \"#utility.yul\":1881:1930   */\n      tag_133\n        /* \"#utility.yul\":1923:1929   */\n      dup5\n        /* \"#utility.yul\":1881:1930   */\n      tag_72\n      jump\t// in\n    tag_133:\n        /* \"#utility.yul\":1865:1931   */\n      tag_71\n      jump\t// in\n    tag_132:\n        /* \"#utility.yul\":1856:1931   */\n      swap1\n      pop\n        /* \"#utility.yul\":1954:1960   */\n      dup3\n        /* \"#utility.yul\":1947:1952   */\n      dup2\n        /* \"#utility.yul\":1940:1961   */\n      mstore\n        /* \"#utility.yul\":1992:1996   */\n      0x20\n        /* \"#utility.yul\":1985:1990   */\n      dup2\n        /* \"#utility.yul\":1981:1997   */\n      add\n        /* \"#utility.yul\":2030:2033   */\n      dup5\n        /* \"#utility.yul\":2021:2027   */\n      dup5\n        /* \"#utility.yul\":2016:2019   */\n      dup5\n        /* \"#utility.yul\":2012:2028   */\n      add\n        /* \"#utility.yul\":2009:2034   */\n      gt\n        /* \"#utility.yul\":2006:2118   */\n      iszero\n      tag_134\n      jumpi\n        /* \"#utility.yul\":2037:2116   */\n      tag_135\n      tag_67\n      jump\t// in\n    tag_135:\n        /* \"#utility.yul\":2006:2118   */\n    tag_134:\n        /* \"#utility.yul\":2127:2181   */\n      tag_136\n        /* \"#utility.yul\":2174:2180   */\n      dup5\n        /* \"#utility.yul\":2169:2172   */\n      dup3\n        /* \"#utility.yul\":2164:2167   */\n      dup6\n        /* \"#utility.yul\":2127:2181   */\n      tag_73\n      jump\t// in\n    tag_136:\n        /* \"#utility.yul\":1846:2187   */\n      pop\n        /* \"#utility.yul\":1762:2187   */\n      swap4\n      swap3\n      pop\n      pop\n      pop\n      jump\t// out\n        /* \"#utility.yul\":2207:2547   */\n    tag_75:\n        /* \"#utility.yul\":2263:2268   */\n      0x00\n        /* \"#utility.yul\":2312:2315   */\n      dup3\n        /* \"#utility.yul\":2305:2309   */\n      0x1f\n        /* \"#utility.yul\":2297:2303   */\n      dup4\n        /* \"#utility.yul\":2293:2310   */\n      add\n        /* \"#utility.yul\":2289:2316   */\n      slt\n        /* \"#utility.yul\":2279:2401   */\n      tag_138\n      jumpi\n        /* \"#utility.yul\":2320:2399   */\n      tag_139\n      tag_66\n      jump\t// in\n    tag_139:\n        /* \"#utility.yul\":2279:2401   */\n    tag_138:\n        /* \"#utility.yul\":2437:2443   */\n      dup2\n        /* \"#utility.yul\":2424:2444   */\n      calldataload\n        /* \"#utility.yul\":2462:2541   */\n      tag_140\n        /* \"#utility.yul\":2537:2540   */\n      dup5\n        /* \"#utility.yul\":2529:2535   */\n      dup3\n        /* \"#utility.yul\":2522:2526   */\n      0x20\n        /* \"#utility.yul\":2514:2520   */\n      dup7\n        /* \"#utility.yul\":2510:2527   */\n      add\n        /* \"#utility.yul\":2462:2541   */\n      tag_74\n      jump\t// in\n    tag_140:\n        /* \"#utility.yul\":2453:2541   */\n      swap2\n      pop\n        /* \"#utility.yul\":2269:2547   */\n      pop\n        /* \"#utility.yul\":2207:2547   */\n      swap3\n      swap2\n      pop\n      pop\n      jump\t// out\n        /* \"#utility.yul\":2553:3062   */\n    tag_8:\n        /* \"#utility.yul\":2622:2628   */\n      0x00\n        /* \"#utility.yul\":2671:2673   */\n      0x20\n        /* \"#utility.yul\":2659:2668   */\n      dup3\n        /* \"#utility.yul\":2650:2657   */\n      dup5\n        /* \"#utility.yul\":2646:2669   */\n      sub\n        /* \"#utility.yul\":2642:2674   */\n      slt\n        /* \"#utility.yul\":2639:2758   */\n      iszero\n      tag_142\n      jumpi\n        /* \"#utility.yul\":2677:2756   */\n      tag_143\n      tag_64\n      jump\t// in\n    tag_143:\n        /* \"#utility.yul\":2639:2758   */\n    tag_142:\n        /* \"#utility.yul\":2825:2826   */\n      0x00\n        /* \"#utility.yul\":2814:2823   */\n      dup3\n        /* \"#utility.yul\":2810:2827   */\n      add\n        /* \"#utility.yul\":2797:2828   */\n      calldataload\n        /* \"#utility.yul\":2855:2873   */\n      0xffffffffffffffff\n        /* \"#utility.yul\":2847:2853   */\n      dup2\n        /* \"#utility.yul\":2844:2874   */\n      gt\n        /* \"#utility.yul\":2841:2958   */\n      iszero\n      tag_144\n      jumpi\n        /* \"#utility.yul\":2877:2956   */\n      tag_145\n      tag_65\n      jump\t// in\n    tag_145:\n        /* \"#utility.yul\":2841:2958   */\n    tag_144:\n        /* \"#utility.yul\":2982:3045   */\n      tag_146\n        /* \"#utility.yul\":3037:3044   */\n      dup5\n        /* \"#utility.yul\":3028:3034   */\n      dup3\n        /* \"#utility.yul\":3017:3026   */\n      dup6\n        /* \"#utility.yul\":3013:3035   */\n      add\n        /* \"#utility.yul\":2982:3045   */\n      tag_75\n      jump\t// in\n    tag_146:\n        /* \"#utility.yul\":2972:3045   */\n      swap2\n      pop\n        /* \"#utility.yul\":2768:3055   */\n      pop\n        /* \"#utility.yul\":2553:3062   */\n      swap3\n      swap2\n      pop\n      pop\n      jump\t// out\n        /* \"#utility.yul\":3068:3166   */\n    tag_76:\n        /* \"#utility.yul\":3119:3125   */\n      0x00\n        /* \"#utility.yul\":3153:3158   */\n      dup2\n        /* \"#utility.yul\":3147:3159   */\n      mload\n        /* \"#utility.yul\":3137:3159   */\n      swap1\n      pop\n        /* \"#utility.yul\":3068:3166   */\n      swap2\n      swap1\n      pop\n      jump\t// out\n        /* \"#utility.yul\":3172:3340   */\n    tag_77:\n        /* \"#utility.yul\":3255:3266   */\n      0x00\n        /* \"#utility.yul\":3289:3295   */\n      dup3\n        /* \"#utility.yul\":3284:3287   */\n      dup3\n        /* \"#utility.yul\":3277:3296   */\n      mstore\n        /* \"#utility.yul\":3329:3333   */\n      0x20\n        /* \"#utility.yul\":3324:3327   */\n      dup3\n        /* \"#utility.yul\":3320:3334   */\n      add\n        /* \"#utility.yul\":3305:3334   */\n      swap1\n      pop\n        /* \"#utility.yul\":3172:3340   */\n      swap3\n      swap2\n      pop\n      pop\n      jump\t// out\n        /* \"#utility.yul\":3346:3592   */\n    tag_78:\n        /* \"#utility.yul\":3427:3428   */\n      0x00\n        /* \"#utility.yul\":3437:3550   */\n    tag_150:\n        /* \"#utility.yul\":3451:3457   */\n      dup4\n        /* \"#utility.yul\":3448:3449   */\n      dup2\n        /* \"#utility.yul\":3445:3458   */\n      lt\n        /* \"#utility.yul\":3437:3550   */\n      iszero\n      tag_152\n      jumpi\n        /* \"#utility.yul\":3536:3537   */\n      dup1\n        /* \"#utility.yul\":3531:3534   */\n      dup3\n        /* \"#utility.yul\":3527:3538   */\n      add\n        /* \"#utility.yul\":3521:3539   */\n      mload\n        /* \"#utility.yul\":3517:3518   */\n      dup2\n        /* \"#utility.yul\":3512:3515   */\n      dup5\n        /* \"#utility.yul\":3508:3519   */\n      add\n        /* \"#utility.yul\":3501:3540   */\n      mstore\n        /* \"#utility.yul\":3473:3475   */\n      0x20\n        /* \"#utility.yul\":3470:3471   */\n      dup2\n        /* \"#utility.yul\":3466:3476   */\n      add\n        /* \"#utility.yul\":3461:3476   */\n      swap1\n      pop\n        /* \"#utility.yul\":3437:3550   */\n      jump(tag_150)\n    tag_152:\n        /* \"#utility.yul\":3584:3585   */\n      0x00\n        /* \"#utility.yul\":3575:3581   */\n      dup5\n        /* \"#utility.yul\":3570:3573   */\n      dup5\n        /* \"#utility.yul\":3566:3582   */\n      add\n        /* \"#utility.yul\":3559:3586   */\n      mstore\n        /* \"#utility.yul\":3408:3592   */\n      pop\n        /* \"#utility.yul\":3346:3592   */\n      pop\n      pop\n      pop\n      jump\t// out\n        /* \"#utility.yul\":3598:3971   */\n    tag_79:\n        /* \"#utility.yul\":3684:3687   */\n      0x00\n        /* \"#utility.yul\":3712:3750   */\n      tag_154\n        /* \"#utility.yul\":3744:3749   */\n      dup3\n        /* \"#utility.yul\":3712:3750   */\n      tag_76\n      jump\t// in\n    tag_154:\n        /* \"#utility.yul\":3766:3836   */\n      tag_155\n        /* \"#utility.yul\":3829:3835   */\n      dup2\n        /* \"#utility.yul\":3824:3827   */\n      dup6\n        /* \"#utility.yul\":3766:3836   */\n      tag_77\n      jump\t// in\n    tag_155:\n        /* \"#utility.yul\":3759:3836   */\n      swap4\n      pop\n        /* \"#utility.yul\":3845:3910   */\n      tag_156\n        /* \"#utility.yul\":3903:3909   */\n      dup2\n        /* \"#utility.yul\":3898:3901   */\n      dup6\n        /* \"#utility.yul\":3891:3895   */\n      0x20\n        /* \"#utility.yul\":3884:3889   */\n      dup7\n        /* \"#utility.yul\":3880:3896   */\n      add\n        /* \"#utility.yul\":3845:3910   */\n      tag_78\n      jump\t// in\n    tag_156:\n        /* \"#utility.yul\":3935:3964   */\n      tag_157\n        /* \"#utility.yul\":3957:3963   */\n      dup2\n        /* \"#utility.yul\":3935:3964   */\n      tag_68\n      jump\t// in\n    tag_157:\n        /* \"#utility.yul\":3930:3933   */\n      dup5\n        /* \"#utility.yul\":3926:3965   */\n      add\n        /* \"#utility.yul\":3919:3965   */\n      swap2\n      pop\n        /* \"#utility.yul\":3688:3971   */\n      pop\n        /* \"#utility.yul\":3598:3971   */\n      swap3\n      swap2\n      pop\n      pop\n      jump\t// out\n        /* \"#utility.yul\":3977:4286   */\n    tag_14:\n        /* \"#utility.yul\":4088:4092   */\n      0x00\n        /* \"#utility.yul\":4126:4128   */\n      0x20\n        /* \"#utility.yul\":4115:4124   */\n      dup3\n        /* \"#utility.yul\":4111:4129   */\n      add\n        /* \"#utility.yul\":4103:4129   */\n      swap1\n      pop\n        /* \"#utility.yul\":4175:4184   */\n      dup2\n        /* \"#utility.yul\":4169:4173   */\n      dup2\n        /* \"#utility.yul\":4165:4185   */\n      sub\n        /* \"#utility.yul\":4161:4162   */\n      0x00\n        /* \"#utility.yul\":4150:4159   */\n      dup4\n        /* \"#utility.yul\":4146:4163   */\n      add\n        /* \"#utility.yul\":4139:4186   */\n      mstore\n        /* \"#utility.yul\":4203:4279   */\n      tag_159\n        /* \"#utility.yul\":4274:4278   */\n      dup2\n        /* \"#utility.yul\":4265:4271   */\n      dup5\n        /* \"#utility.yul\":4203:4279   */\n      tag_79\n      jump\t// in\n    tag_159:\n        /* \"#utility.yul\":4195:4279   */\n      swap1\n      pop\n        /* \"#utility.yul\":3977:4286   */\n      swap3\n      swap2\n      pop\n      pop\n      jump\t// out\n        /* \"#utility.yul\":4292:4369   */\n    tag_80:\n        /* \"#utility.yul\":4329:4336   */\n      0x00\n        /* \"#utility.yul\":4358:4363   */\n      dup2\n        /* \"#utility.yul\":4347:4363   */\n      swap1\n      pop\n        /* \"#utility.yul\":4292:4369   */\n      swap2\n      swap1\n      pop\n      jump\t// out\n        /* \"#utility.yul\":4375:4493   */\n    tag_81:\n        /* \"#utility.yul\":4462:4486   */\n      tag_162\n        /* \"#utility.yul\":4480:4485   */\n      dup2\n        /* \"#utility.yul\":4462:4486   */\n      tag_80\n      jump\t// in\n    tag_162:\n        /* \"#utility.yul\":4457:4460   */\n      dup3\n        /* \"#utility.yul\":4450:4487   */\n      mstore\n        /* \"#utility.yul\":4375:4493   */\n      pop\n      pop\n      jump\t// out\n        /* \"#utility.yul\":4499:4831   */\n    tag_18:\n        /* \"#utility.yul\":4620:4624   */\n      0x00\n        /* \"#utility.yul\":4658:4660   */\n      0x40\n        /* \"#utility.yul\":4647:4656   */\n      dup3\n        /* \"#utility.yul\":4643:4661   */\n      add\n        /* \"#utility.yul\":4635:4661   */\n      swap1\n      pop\n        /* \"#utility.yul\":4671:4742   */\n      tag_164\n        /* \"#utility.yul\":4739:4740   */\n      0x00\n        /* \"#utility.yul\":4728:4737   */\n      dup4\n        /* \"#utility.yul\":4724:4741   */\n      add\n        /* \"#utility.yul\":4715:4721   */\n      dup6\n        /* \"#utility.yul\":4671:4742   */\n      tag_81\n      jump\t// in\n    tag_164:\n        /* \"#utility.yul\":4752:4824   */\n      tag_165\n        /* \"#utility.yul\":4820:4822   */\n      0x20\n        /* \"#utility.yul\":4809:4818   */\n      dup4\n        /* \"#utility.yul\":4805:4823   */\n      add\n        /* \"#utility.yul\":4796:4802   */\n      dup5\n        /* \"#utility.yul\":4752:4824   */\n      tag_81\n      jump\t// in\n    tag_165:\n        /* \"#utility.yul\":4499:4831   */\n      swap4\n      swap3\n      pop\n      pop\n      pop\n      jump\t// out\n        /* \"#utility.yul\":4837:5006   */\n    tag_82:\n        /* \"#utility.yul\":4921:4932   */\n      0x00\n        /* \"#utility.yul\":4955:4961   */\n      dup3\n        /* \"#utility.yul\":4950:4953   */\n      dup3\n        /* \"#utility.yul\":4943:4962   */\n      mstore\n        /* \"#utility.yul\":4995:4999   */\n      0x20\n        /* \"#utility.yul\":4990:4993   */\n      dup3\n        /* \"#utility.yul\":4986:5000   */\n      add\n        /* \"#utility.yul\":4971:5000   */\n      swap1\n      pop\n        /* \"#utility.yul\":4837:5006   */\n      swap3\n      swap2\n      pop\n      pop\n      jump\t// out\n        /* \"#utility.yul\":5012:5236   */\n    tag_83:\n        /* \"#utility.yul\":5152:5186   */\n      0x4163636573732064656e6965642c204f6e6c79206f776e657220697320616c6c\n        /* \"#utility.yul\":5148:5149   */\n      0x00\n        /* \"#utility.yul\":5140:5146   */\n      dup3\n        /* \"#utility.yul\":5136:5150   */\n      add\n        /* \"#utility.yul\":5129:5187   */\n      mstore\n        /* \"#utility.yul\":5221:5228   */\n      0x6f77656421000000000000000000000000000000000000000000000000000000\n        /* \"#utility.yul\":5216:5218   */\n      0x20\n        /* \"#utility.yul\":5208:5214   */\n      dup3\n        /* \"#utility.yul\":5204:5219   */\n      add\n        /* \"#utility.yul\":5197:5229   */\n      mstore\n        /* \"#utility.yul\":5012:5236   */\n      pop\n      jump\t// out\n        /* \"#utility.yul\":5242:5608   */\n    tag_84:\n        /* \"#utility.yul\":5384:5387   */\n      0x00\n        /* \"#utility.yul\":5405:5472   */\n      tag_169\n        /* \"#utility.yul\":5469:5471   */\n      0x25\n        /* \"#utility.yul\":5464:5467   */\n      dup4\n        /* \"#utility.yul\":5405:5472   */\n      tag_82\n      jump\t// in\n    tag_169:\n        /* \"#utility.yul\":5398:5472   */\n      swap2\n      pop\n        /* \"#utility.yul\":5481:5574   */\n      tag_170\n        /* \"#utility.yul\":5570:5573   */\n      dup3\n        /* \"#utility.yul\":5481:5574   */\n      tag_83\n      jump\t// in\n    tag_170:\n        /* \"#utility.yul\":5599:5601   */\n      0x40\n        /* \"#utility.yul\":5594:5597   */\n      dup3\n        /* \"#utility.yul\":5590:5602   */\n      add\n        /* \"#utility.yul\":5583:5602   */\n      swap1\n      pop\n        /* \"#utility.yul\":5242:5608   */\n      swap2\n      swap1\n      pop\n      jump\t// out\n        /* \"#utility.yul\":5614:6033   */\n    tag_24:\n        /* \"#utility.yul\":5780:5784   */\n      0x00\n        /* \"#utility.yul\":5818:5820   */\n      0x20\n        /* \"#utility.yul\":5807:5816   */\n      dup3\n        /* \"#utility.yul\":5803:5821   */\n      add\n        /* \"#utility.yul\":5795:5821   */\n      swap1\n      pop\n        /* \"#utility.yul\":5867:5876   */\n      dup2\n        /* \"#utility.yul\":5861:5865   */\n      dup2\n        /* \"#utility.yul\":5857:5877   */\n      sub\n        /* \"#utility.yul\":5853:5854   */\n      0x00\n        /* \"#utility.yul\":5842:5851   */\n      dup4\n        /* \"#utility.yul\":5838:5855   */\n      add\n        /* \"#utility.yul\":5831:5878   */\n      mstore\n        /* \"#utility.yul\":5895:6026   */\n      tag_172\n        /* \"#utility.yul\":6021:6025   */\n      dup2\n        /* \"#utility.yul\":5895:6026   */\n      tag_84\n      jump\t// in\n    tag_172:\n        /* \"#utility.yul\":5887:6026   */\n      swap1\n      pop\n        /* \"#utility.yul\":5614:6033   */\n      swap2\n      swap1\n      pop\n      jump\t// out\n        /* \"#utility.yul\":6039:6138   */\n    tag_85:\n        /* \"#utility.yul\":6091:6097   */\n      0x00\n        /* \"#utility.yul\":6125:6130   */\n      dup2\n        /* \"#utility.yul\":6119:6131   */\n      mload\n        /* \"#utility.yul\":6109:6131   */\n      swap1\n      pop\n        /* \"#utility.yul\":6039:6138   */\n      swap2\n      swap1\n      pop\n      jump\t// out\n        /* \"#utility.yul\":6144:6521   */\n    tag_86:\n        /* \"#utility.yul\":6232:6235   */\n      0x00\n        /* \"#utility.yul\":6260:6299   */\n      tag_175\n        /* \"#utility.yul\":6293:6298   */\n      dup3\n        /* \"#utility.yul\":6260:6299   */\n      tag_85\n      jump\t// in\n    tag_175:\n        /* \"#utility.yul\":6315:6386   */\n      tag_176\n        /* \"#utility.yul\":6379:6385   */\n      dup2\n        /* \"#utility.yul\":6374:6377   */\n      dup6\n        /* \"#utility.yul\":6315:6386   */\n      tag_82\n      jump\t// in\n    tag_176:\n        /* \"#utility.yul\":6308:6386   */\n      swap4\n      pop\n        /* \"#utility.yul\":6395:6460   */\n      tag_177\n        /* \"#utility.yul\":6453:6459   */\n      dup2\n        /* \"#utility.yul\":6448:6451   */\n      dup6\n        /* \"#utility.yul\":6441:6445   */\n      0x20\n        /* \"#utility.yul\":6434:6439   */\n      dup7\n        /* \"#utility.yul\":6430:6446   */\n      add\n        /* \"#utility.yul\":6395:6460   */\n      tag_78\n      jump\t// in\n    tag_177:\n        /* \"#utility.yul\":6485:6514   */\n      tag_178\n        /* \"#utility.yul\":6507:6513   */\n      dup2\n        /* \"#utility.yul\":6485:6514   */\n      tag_68\n      jump\t// in\n    tag_178:\n        /* \"#utility.yul\":6480:6483   */\n      dup5\n        /* \"#utility.yul\":6476:6515   */\n      add\n        /* \"#utility.yul\":6469:6515   */\n      swap2\n      pop\n        /* \"#utility.yul\":6236:6521   */\n      pop\n        /* \"#utility.yul\":6144:6521   */\n      swap3\n      swap2\n      pop\n      pop\n      jump\t// out\n        /* \"#utility.yul\":6527:6840   */\n    tag_27:\n        /* \"#utility.yul\":6640:6644   */\n      0x00\n        /* \"#utility.yul\":6678:6680   */\n      0x20\n        /* \"#utility.yul\":6667:6676   */\n      dup3\n        /* \"#utility.yul\":6663:6681   */\n      add\n        /* \"#utility.yul\":6655:6681   */\n      swap1\n      pop\n        /* \"#utility.yul\":6727:6736   */\n      dup2\n        /* \"#utility.yul\":6721:6725   */\n      dup2\n        /* \"#utility.yul\":6717:6737   */\n      sub\n        /* \"#utility.yul\":6713:6714   */\n      0x00\n        /* \"#utility.yul\":6702:6711   */\n      dup4\n        /* \"#utility.yul\":6698:6715   */\n      add\n        /* \"#utility.yul\":6691:6738   */\n      mstore\n        /* \"#utility.yul\":6755:6833   */\n      tag_180\n        /* \"#utility.yul\":6828:6832   */\n      dup2\n        /* \"#utility.yul\":6819:6825   */\n      dup5\n        /* \"#utility.yul\":6755:6833   */\n      tag_86\n      jump\t// in\n    tag_180:\n        /* \"#utility.yul\":6747:6833   */\n      swap1\n      pop\n        /* \"#utility.yul\":6527:6840   */\n      swap3\n      swap2\n      pop\n      pop\n      jump\t// out\n        /* \"#utility.yul\":6846:7153   */\n    tag_87:\n        /* \"#utility.yul\":6907:6911   */\n      0x00\n        /* \"#utility.yul\":6997:7015   */\n      0xffffffffffffffff\n        /* \"#utility.yul\":6989:6995   */\n      dup3\n        /* \"#utility.yul\":6986:7016   */\n      gt\n        /* \"#utility.yul\":6983:7039   */\n      iszero\n      tag_182\n      jumpi\n        /* \"#utility.yul\":7019:7037   */\n      tag_183\n      tag_69\n      jump\t// in\n    tag_183:\n        /* \"#utility.yul\":6983:7039   */\n    tag_182:\n        /* \"#utility.yul\":7057:7086   */\n      tag_184\n        /* \"#utility.yul\":7079:7085   */\n      dup3\n        /* \"#utility.yul\":7057:7086   */\n      tag_68\n      jump\t// in\n    tag_184:\n        /* \"#utility.yul\":7049:7086   */\n      swap1\n      pop\n        /* \"#utility.yul\":7141:7145   */\n      0x20\n        /* \"#utility.yul\":7135:7139   */\n      dup2\n        /* \"#utility.yul\":7131:7146   */\n      add\n        /* \"#utility.yul\":7123:7146   */\n      swap1\n      pop\n        /* \"#utility.yul\":6846:7153   */\n      swap2\n      swap1\n      pop\n      jump\t// out\n        /* \"#utility.yul\":7159:7591   */\n    tag_88:\n        /* \"#utility.yul\":7247:7252   */\n      0x00\n        /* \"#utility.yul\":7272:7337   */\n      tag_186\n        /* \"#utility.yul\":7288:7336   */\n      tag_187\n        /* \"#utility.yul\":7329:7335   */\n      dup5\n        /* \"#utility.yul\":7288:7336   */\n      tag_87\n      jump\t// in\n    tag_187:\n        /* \"#utility.yul\":7272:7337   */\n      tag_71\n      jump\t// in\n    tag_186:\n        /* \"#utility.yul\":7263:7337   */\n      swap1\n      pop\n        /* \"#utility.yul\":7360:7366   */\n      dup3\n        /* \"#utility.yul\":7353:7358   */\n      dup2\n        /* \"#utility.yul\":7346:7367   */\n      mstore\n        /* \"#utility.yul\":7398:7402   */\n      0x20\n        /* \"#utility.yul\":7391:7396   */\n      dup2\n        /* \"#utility.yul\":7387:7403   */\n      add\n        /* \"#utility.yul\":7436:7439   */\n      dup5\n        /* \"#utility.yul\":7427:7433   */\n      dup5\n        /* \"#utility.yul\":7422:7425   */\n      dup5\n        /* \"#utility.yul\":7418:7434   */\n      add\n        /* \"#utility.yul\":7415:7440   */\n      gt\n        /* \"#utility.yul\":7412:7524   */\n      iszero\n      tag_188\n      jumpi\n        /* \"#utility.yul\":7443:7522   */\n      tag_189\n      tag_67\n      jump\t// in\n    tag_189:\n        /* \"#utility.yul\":7412:7524   */\n    tag_188:\n        /* \"#utility.yul\":7533:7585   */\n      tag_190\n        /* \"#utility.yul\":7578:7584   */\n      dup5\n        /* \"#utility.yul\":7573:7576   */\n      dup3\n        /* \"#utility.yul\":7568:7571   */\n      dup6\n        /* \"#utility.yul\":7533:7585   */\n      tag_78\n      jump\t// in\n    tag_190:\n        /* \"#utility.yul\":7253:7591   */\n      pop\n        /* \"#utility.yul\":7159:7591   */\n      swap4\n      swap3\n      pop\n      pop\n      pop\n      jump\t// out\n        /* \"#utility.yul\":7610:7963   */\n    tag_89:\n        /* \"#utility.yul\":7676:7681   */\n      0x00\n        /* \"#utility.yul\":7725:7728   */\n      dup3\n        /* \"#utility.yul\":7718:7722   */\n      0x1f\n        /* \"#utility.yul\":7710:7716   */\n      dup4\n        /* \"#utility.yul\":7706:7723   */\n      add\n        /* \"#utility.yul\":7702:7729   */\n      slt\n        /* \"#utility.yul\":7692:7814   */\n      tag_192\n      jumpi\n        /* \"#utility.yul\":7733:7812   */\n      tag_193\n      tag_66\n      jump\t// in\n    tag_193:\n        /* \"#utility.yul\":7692:7814   */\n    tag_192:\n        /* \"#utility.yul\":7843:7849   */\n      dup2\n        /* \"#utility.yul\":7837:7850   */\n      mload\n        /* \"#utility.yul\":7868:7957   */\n      tag_194\n        /* \"#utility.yul\":7953:7956   */\n      dup5\n        /* \"#utility.yul\":7945:7951   */\n      dup3\n        /* \"#utility.yul\":7938:7942   */\n      0x20\n        /* \"#utility.yul\":7930:7936   */\n      dup7\n        /* \"#utility.yul\":7926:7943   */\n      add\n        /* \"#utility.yul\":7868:7957   */\n      tag_88\n      jump\t// in\n    tag_194:\n        /* \"#utility.yul\":7859:7957   */\n      swap2\n      pop\n        /* \"#utility.yul\":7682:7963   */\n      pop\n        /* \"#utility.yul\":7610:7963   */\n      swap3\n      swap2\n      pop\n      pop\n      jump\t// out\n        /* \"#utility.yul\":7969:8491   */\n    tag_31:\n        /* \"#utility.yul\":8048:8054   */\n      0x00\n        /* \"#utility.yul\":8097:8099   */\n      0x20\n        /* \"#utility.yul\":8085:8094   */\n      dup3\n        /* \"#utility.yul\":8076:8083   */\n      dup5\n        /* \"#utility.yul\":8072:8095   */\n      sub\n        /* \"#utility.yul\":8068:8100   */\n      slt\n        /* \"#utility.yul\":8065:8184   */\n      iszero\n      tag_196\n      jumpi\n        /* \"#utility.yul\":8103:8182   */\n      tag_197\n      tag_64\n      jump\t// in\n    tag_197:\n        /* \"#utility.yul\":8065:8184   */\n    tag_196:\n        /* \"#utility.yul\":8244:8245   */\n      0x00\n        /* \"#utility.yul\":8233:8242   */\n      dup3\n        /* \"#utility.yul\":8229:8246   */\n      add\n        /* \"#utility.yul\":8223:8247   */\n      mload\n        /* \"#utility.yul\":8274:8292   */\n      0xffffffffffffffff\n        /* \"#utility.yul\":8266:8272   */\n      dup2\n        /* \"#utility.yul\":8263:8293   */\n      gt\n        /* \"#utility.yul\":8260:8377   */\n      iszero\n      tag_198\n      jumpi\n        /* \"#utility.yul\":8296:8375   */\n      tag_199\n      tag_65\n      jump\t// in\n    tag_199:\n        /* \"#utility.yul\":8260:8377   */\n    tag_198:\n        /* \"#utility.yul\":8401:8474   */\n      tag_200\n        /* \"#utility.yul\":8466:8473   */\n      dup5\n        /* \"#utility.yul\":8457:8463   */\n      dup3\n        /* \"#utility.yul\":8446:8455   */\n      dup6\n        /* \"#utility.yul\":8442:8464   */\n      add\n        /* \"#utility.yul\":8401:8474   */\n      tag_89\n      jump\t// in\n    tag_200:\n        /* \"#utility.yul\":8391:8474   */\n      swap2\n      pop\n        /* \"#utility.yul\":8194:8484   */\n      pop\n        /* \"#utility.yul\":7969:8491   */\n      swap3\n      swap2\n      pop\n      pop\n      jump\t// out\n        /* \"#utility.yul\":8497:8677   */\n    tag_90:\n        /* \"#utility.yul\":8545:8622   */\n      0x4e487b7100000000000000000000000000000000000000000000000000000000\n        /* \"#utility.yul\":8542:8543   */\n      0x00\n        /* \"#utility.yul\":8535:8623   */\n      mstore\n        /* \"#utility.yul\":8642:8646   */\n      0x22\n        /* \"#utility.yul\":8639:8640   */\n      0x04\n        /* \"#utility.yul\":8632:8647   */\n      mstore\n        /* \"#utility.yul\":8666:8670   */\n      0x24\n        /* \"#utility.yul\":8663:8664   */\n      0x00\n        /* \"#utility.yul\":8656:8671   */\n      revert\n        /* \"#utility.yul\":8683:9003   */\n    tag_91:\n        /* \"#utility.yul\":8727:8733   */\n      0x00\n        /* \"#utility.yul\":8764:8765   */\n      0x02\n        /* \"#utility.yul\":8758:8762   */\n      dup3\n        /* \"#utility.yul\":8754:8766   */\n      div\n        /* \"#utility.yul\":8744:8766   */\n      swap1\n      pop\n        /* \"#utility.yul\":8811:8812   */\n      0x01\n        /* \"#utility.yul\":8805:8809   */\n      dup3\n        /* \"#utility.yul\":8801:8813   */\n      and\n        /* \"#utility.yul\":8832:8850   */\n      dup1\n        /* \"#utility.yul\":8822:8903   */\n      tag_203\n      jumpi\n        /* \"#utility.yul\":8888:8892   */\n      0x7f\n        /* \"#utility.yul\":8880:8886   */\n      dup3\n        /* \"#utility.yul\":8876:8893   */\n      and\n        /* \"#utility.yul\":8866:8893   */\n      swap2\n      pop\n        /* \"#utility.yul\":8822:8903   */\n    tag_203:\n        /* \"#utility.yul\":8950:8952   */\n      0x20\n        /* \"#utility.yul\":8942:8948   */\n      dup3\n        /* \"#utility.yul\":8939:8953   */\n      lt\n        /* \"#utility.yul\":8919:8937   */\n      dup2\n        /* \"#utility.yul\":8916:8954   */\n      sub\n        /* \"#utility.yul\":8913:8997   */\n      tag_204\n      jumpi\n        /* \"#utility.yul\":8969:8987   */\n      tag_205\n      tag_90\n      jump\t// in\n    tag_205:\n        /* \"#utility.yul\":8913:8997   */\n    tag_204:\n        /* \"#utility.yul\":8734:9003   */\n      pop\n        /* \"#utility.yul\":8683:9003   */\n      swap2\n      swap1\n      pop\n      jump\t// out\n        /* \"#utility.yul\":9009:9149   */\n    tag_92:\n        /* \"#utility.yul\":9057:9061   */\n      0x00\n        /* \"#utility.yul\":9080:9083   */\n      dup2\n        /* \"#utility.yul\":9072:9083   */\n      swap1\n      pop\n        /* \"#utility.yul\":9103:9106   */\n      dup2\n        /* \"#utility.yul\":9100:9101   */\n      0x00\n        /* \"#utility.yul\":9093:9107   */\n      mstore\n        /* \"#utility.yul\":9137:9141   */\n      0x20\n        /* \"#utility.yul\":9134:9135   */\n      0x00\n        /* \"#utility.yul\":9124:9142   */\n      keccak256\n        /* \"#utility.yul\":9116:9142   */\n      swap1\n      pop\n        /* \"#utility.yul\":9009:9149   */\n      swap2\n      swap1\n      pop\n      jump\t// out\n        /* \"#utility.yul\":9155:9248   */\n    tag_93:\n        /* \"#utility.yul\":9192:9198   */\n      0x00\n        /* \"#utility.yul\":9239:9241   */\n      0x20\n        /* \"#utility.yul\":9234:9236   */\n      0x1f\n        /* \"#utility.yul\":9227:9232   */\n      dup4\n        /* \"#utility.yul\":9223:9237   */\n      add\n        /* \"#utility.yul\":9219:9242   */\n      div\n        /* \"#utility.yul\":9209:9242   */\n      swap1\n      pop\n        /* \"#utility.yul\":9155:9248   */\n      swap2\n      swap1\n      pop\n      jump\t// out\n        /* \"#utility.yul\":9254:9361   */\n    tag_94:\n        /* \"#utility.yul\":9298:9306   */\n      0x00\n        /* \"#utility.yul\":9348:9353   */\n      dup3\n        /* \"#utility.yul\":9342:9346   */\n      dup3\n        /* \"#utility.yul\":9338:9354   */\n      shl\n        /* \"#utility.yul\":9317:9354   */\n      swap1\n      pop\n        /* \"#utility.yul\":9254:9361   */\n      swap3\n      swap2\n      pop\n      pop\n      jump\t// out\n        /* \"#utility.yul\":9367:9760   */\n    tag_95:\n        /* \"#utility.yul\":9436:9442   */\n      0x00\n        /* \"#utility.yul\":9486:9487   */\n      0x08\n        /* \"#utility.yul\":9474:9484   */\n      dup4\n        /* \"#utility.yul\":9470:9488   */\n      mul\n        /* \"#utility.yul\":9509:9606   */\n      tag_210\n        /* \"#utility.yul\":9539:9605   */\n      0xffffffffffffffffffffffffffffffffffffffffffffffffffffffffffffffff\n        /* \"#utility.yul\":9528:9537   */\n      dup3\n        /* \"#utility.yul\":9509:9606   */\n      tag_94\n      jump\t// in\n    tag_210:\n        /* \"#utility.yul\":9627:9666   */\n      tag_211\n        /* \"#utility.yul\":9657:9665   */\n      dup7\n        /* \"#utility.yul\":9646:9655   */\n      dup4\n        /* \"#utility.yul\":9627:9666   */\n      tag_94\n      jump\t// in\n    tag_211:\n        /* \"#utility.yul\":9615:9666   */\n      swap6\n      pop\n        /* \"#utility.yul\":9699:9703   */\n      dup1\n        /* \"#utility.yul\":9695:9704   */\n      not\n        /* \"#utility.yul\":9688:9693   */\n      dup5\n        /* \"#utility.yul\":9684:9705   */\n      and\n        /* \"#utility.yul\":9675:9705   */\n      swap4\n      pop\n        /* \"#utility.yul\":9748:9752   */\n      dup1\n        /* \"#utility.yul\":9738:9746   */\n      dup7\n        /* \"#utility.yul\":9734:9753   */\n      and\n        /* \"#utility.yul\":9727:9732   */\n      dup5\n        /* \"#utility.yul\":9724:9754   */\n      or\n        /* \"#utility.yul\":9714:9754   */\n      swap3\n      pop\n        /* \"#utility.yul\":9443:9760   */\n      pop\n      pop\n        /* \"#utility.yul\":9367:9760   */\n      swap4\n      swap3\n      pop\n      pop\n      pop\n      jump\t// out\n        /* \"#utility.yul\":9766:9826   */\n    tag_96:\n        /* \"#utility.yul\":9794:9797   */\n      0x00\n        /* \"#utility.yul\":9815:9820   */\n      dup2\n        /* \"#utility.yul\":9808:9820   */\n      swap1\n      pop\n        /* \"#utility.yul\":9766:9826   */\n      swap2\n      swap1\n      pop\n      jump\t// out\n        /* \"#utility.yul\":9832:9974   */\n    tag_97:\n        /* \"#utility.yul\":9882:9891   */\n      0x00\n        /* \"#utility.yul\":9915:9968   */\n      tag_214\n        /* \"#utility.yul\":9933:9967   */\n      tag_215\n        /* \"#utility.yul\":9942:9966   */\n      tag_216\n        /* \"#utility.yul\":9960:9965   */\n      dup5\n        /* \"#utility.yul\":9942:9966   */\n      tag_80\n      jump\t// in\n    tag_216:\n        /* \"#utility.yul\":9933:9967   */\n      tag_96\n      jump\t// in\n    tag_215:\n        /* \"#utility.yul\":9915:9968   */\n      tag_80\n      jump\t// in\n    tag_214:\n        /* \"#utility.yul\":9902:9968   */\n      swap1\n      pop\n        /* \"#utility.yul\":9832:9974   */\n      swap2\n      swap1\n      pop\n      jump\t// out\n        /* \"#utility.yul\":9980:10055   */\n    tag_98:\n        /* \"#utility.yul\":10023:10026   */\n      0x00\n        /* \"#utility.yul\":10044:10049   */\n      dup2\n        /* \"#utility.yul\":10037:10049   */\n      swap1\n      pop\n        /* \"#utility.yul\":9980:10055   */\n      swap2\n      swap1\n      pop\n      jump\t// out\n        /* \"#utility.yul\":10061:10330   */\n    tag_99:\n        /* \"#utility.yul\":10171:10210   */\n      tag_219\n        /* \"#utility.yul\":10202:10209   */\n      dup4\n        /* \"#utility.yul\":10171:10210   */\n      tag_97\n      jump\t// in\n    tag_219:\n        /* \"#utility.yul\":10232:10323   */\n      tag_220\n        /* \"#utility.yul\":10281:10322   */\n      tag_221\n        /* \"#utility.yul\":10305:10321   */\n      dup3\n        /* \"#utility.yul\":10281:10322   */\n      tag_98\n      jump\t// in\n    tag_221:\n        /* \"#utility.yul\":10273:10279   */\n      dup5\n        /* \"#utility.yul\":10266:10270   */\n      dup5\n        /* \"#utility.yul\":10260:10271   */\n      sload\n        /* \"#utility.yul\":10232:10323   */\n      tag_95\n      jump\t// in\n    tag_220:\n        /* \"#utility.yul\":10226:10230   */\n      dup3\n        /* \"#utility.yul\":10219:10324   */\n      sstore\n        /* \"#utility.yul\":10137:10330   */\n      pop\n        /* \"#utility.yul\":10061:10330   */\n      pop\n      pop\n      pop\n      jump\t// out\n        /* \"#utility.yul\":10336:10409   */\n    tag_100:\n        /* \"#utility.yul\":10381:10384   */\n      0x00\n        /* \"#utility.yul\":10336:10409   */\n      swap1\n      jump\t// out\n        /* \"#utility.yul\":10415:10604   */\n    tag_101:\n        /* \"#utility.yul\":10492:10524   */\n      tag_224\n      tag_100\n      jump\t// in\n    tag_224:\n        /* \"#utility.yul\":10533:10598   */\n      tag_225\n        /* \"#utility.yul\":10591:10597   */\n      dup2\n        /* \"#utility.yul\":10583:10589   */\n      dup5\n        /* \"#utility.yul\":10577:10581   */\n      dup5\n        /* \"#utility.yul\":10533:10598   */\n      tag_99\n      jump\t// in\n    tag_225:\n        /* \"#utility.yul\":10468:10604   */\n      pop\n        /* \"#utility.yul\":10415:10604   */\n      pop\n      pop\n      jump\t// out\n        /* \"#utility.yul\":10610:10796   */\n    tag_102:\n        /* \"#utility.yul\":10670:10790   */\n    tag_227:\n        /* \"#utility.yul\":10687:10690   */\n      dup2\n        /* \"#utility.yul\":10680:10685   */\n      dup2\n        /* \"#utility.yul\":10677:10691   */\n      lt\n        /* \"#utility.yul\":10670:10790   */\n      iszero\n      tag_229\n      jumpi\n        /* \"#utility.yul\":10741:10780   */\n      tag_230\n        /* \"#utility.yul\":10778:10779   */\n      0x00\n        /* \"#utility.yul\":10771:10776   */\n      dup3\n        /* \"#utility.yul\":10741:10780   */\n      tag_101\n      jump\t// in\n    tag_230:\n        /* \"#utility.yul\":10714:10715   */\n      0x01\n        /* \"#utility.yul\":10707:10712   */\n      dup2\n        /* \"#utility.yul\":10703:10716   */\n      add\n        /* \"#utility.yul\":10694:10716   */\n      swap1\n      pop\n        /* \"#utility.yul\":10670:10790   */\n      jump(tag_227)\n    tag_229:\n        /* \"#utility.yul\":10610:10796   */\n      pop\n      pop\n      jump\t// out\n        /* \"#utility.yul\":10802:11343   */\n    tag_103:\n        /* \"#utility.yul\":10902:10904   */\n      0x1f\n        /* \"#utility.yul\":10897:10900   */\n      dup3\n        /* \"#utility.yul\":10894:10905   */\n      gt\n        /* \"#utility.yul\":10891:11336   */\n      iszero\n      tag_232\n      jumpi\n        /* \"#utility.yul\":10936:10973   */\n      tag_233\n        /* \"#utility.yul\":10967:10972   */\n      dup2\n        /* \"#utility.yul\":10936:10973   */\n      tag_92\n      jump\t// in\n    tag_233:\n        /* \"#utility.yul\":11019:11048   */\n      tag_234\n        /* \"#utility.yul\":11037:11047   */\n      dup5\n        /* \"#utility.yul\":11019:11048   */\n      tag_93\n      jump\t// in\n    tag_234:\n        /* \"#utility.yul\":11009:11017   */\n      dup2\n        /* \"#utility.yul\":11005:11049   */\n      add\n        /* \"#utility.yul\":11202:11204   */\n      0x20\n        /* \"#utility.yul\":11190:11200   */\n      dup6\n        /* \"#utility.yul\":11187:11205   */\n      lt\n        /* \"#utility.yul\":11184:11233   */\n      iszero\n      tag_235\n      jumpi\n        /* \"#utility.yul\":11223:11231   */\n      dup2\n        /* \"#utility.yul\":11208:11231   */\n      swap1\n      pop\n        /* \"#utility.yul\":11184:11233   */\n    tag_235:\n        /* \"#utility.yul\":11246:11326   */\n      tag_236\n        /* \"#utility.yul\":11302:11324   */\n      tag_237\n        /* \"#utility.yul\":11320:11323   */\n      dup6\n        /* \"#utility.yul\":11302:11324   */\n      tag_93\n      jump\t// in\n    tag_237:\n        /* \"#utility.yul\":11292:11300   */\n      dup4\n        /* \"#utility.yul\":11288:11325   */\n      add\n        /* \"#utility.yul\":11275:11286   */\n      dup3\n        /* \"#utility.yul\":11246:11326   */\n      tag_102\n      jump\t// in\n    tag_236:\n        /* \"#utility.yul\":10906:11336   */\n      pop\n      pop\n        /* \"#utility.yul\":10891:11336   */\n    tag_232:\n        /* \"#utility.yul\":10802:11343   */\n      pop\n      pop\n      pop\n      jump\t// out\n        /* \"#utility.yul\":11349:11466   */\n    tag_104:\n        /* \"#utility.yul\":11403:11411   */\n      0x00\n        /* \"#utility.yul\":11453:11458   */\n      dup3\n        /* \"#utility.yul\":11447:11451   */\n      dup3\n        /* \"#utility.yul\":11443:11459   */\n      shr\n        /* \"#utility.yul\":11422:11459   */\n      swap1\n      pop\n        /* \"#utility.yul\":11349:11466   */\n      swap3\n      swap2\n      pop\n      pop\n      jump\t// out\n        /* \"#utility.yul\":11472:11641   */\n    tag_105:\n        /* \"#utility.yul\":11516:11522   */\n      0x00\n        /* \"#utility.yul\":11549:11600   */\n      tag_240\n        /* \"#utility.yul\":11597:11598   */\n      0x00\n        /* \"#utility.yul\":11593:11599   */\n      not\n        /* \"#utility.yul\":11585:11590   */\n      dup5\n        /* \"#utility.yul\":11582:11583   */\n      0x08\n        /* \"#utility.yul\":11578:11591   */\n      mul\n        /* \"#utility.yul\":11549:11600   */\n      tag_104\n      jump\t// in\n    tag_240:\n        /* \"#utility.yul\":11545:11601   */\n      not\n        /* \"#utility.yul\":11630:11634   */\n      dup1\n        /* \"#utility.yul\":11624:11628   */\n      dup4\n        /* \"#utility.yul\":11620:11635   */\n      and\n        /* \"#utility.yul\":11610:11635   */\n      swap2\n      pop\n        /* \"#utility.yul\":11523:11641   */\n      pop\n        /* \"#utility.yul\":11472:11641   */\n      swap3\n      swap2\n      pop\n      pop\n      jump\t// out\n        /* \"#utility.yul\":11646:11941   */\n    tag_106:\n        /* \"#utility.yul\":11722:11726   */\n      0x00\n        /* \"#utility.yul\":11868:11897   */\n      tag_242\n        /* \"#utility.yul\":11893:11896   */\n      dup4\n        /* \"#utility.yul\":11887:11891   */\n      dup4\n        /* \"#utility.yul\":11868:11897   */\n      tag_105\n      jump\t// in\n    tag_242:\n        /* \"#utility.yul\":11860:11897   */\n      swap2\n      pop\n        /* \"#utility.yul\":11930:11933   */\n      dup3\n        /* \"#utility.yul\":11927:11928   */\n      0x02\n        /* \"#utility.yul\":11923:11934   */\n      mul\n        /* \"#utility.yul\":11917:11921   */\n      dup3\n        /* \"#utility.yul\":11914:11935   */\n      or\n        /* \"#utility.yul\":11906:11935   */\n      swap1\n      pop\n        /* \"#utility.yul\":11646:11941   */\n      swap3\n      swap2\n      pop\n      pop\n      jump\t// out\n        /* \"#utility.yul\":11946:13336   */\n    tag_33:\n        /* \"#utility.yul\":12061:12097   */\n      tag_244\n        /* \"#utility.yul\":12093:12096   */\n      dup3\n        /* \"#utility.yul\":12061:12097   */\n      tag_76\n      jump\t// in\n    tag_244:\n        /* \"#utility.yul\":12162:12180   */\n      0xffffffffffffffff\n        /* \"#utility.yul\":12154:12160   */\n      dup2\n        /* \"#utility.yul\":12151:12181   */\n      gt\n        /* \"#utility.yul\":12148:12204   */\n      iszero\n      tag_245\n      jumpi\n        /* \"#utility.yul\":12184:12202   */\n      tag_246\n      tag_69\n      jump\t// in\n    tag_246:\n        /* \"#utility.yul\":12148:12204   */\n    tag_245:\n        /* \"#utility.yul\":12228:12266   */\n      tag_247\n        /* \"#utility.yul\":12260:12264   */\n      dup3\n        /* \"#utility.yul\":12254:12265   */\n      sload\n        /* \"#utility.yul\":12228:12266   */\n      tag_91\n      jump\t// in\n    tag_247:\n        /* \"#utility.yul\":12313:12379   */\n      tag_248\n        /* \"#utility.yul\":12372:12378   */\n      dup3\n        /* \"#utility.yul\":12364:12370   */\n      dup3\n        /* \"#utility.yul\":12358:12362   */\n      dup6\n        /* \"#utility.yul\":12313:12379   */\n      tag_103\n      jump\t// in\n    tag_248:\n        /* \"#utility.yul\":12406:12407   */\n      0x00\n        /* \"#utility.yul\":12430:12434   */\n      0x20\n        /* \"#utility.yul\":12417:12434   */\n      swap1\n      pop\n        /* \"#utility.yul\":12462:12464   */\n      0x1f\n        /* \"#utility.yul\":12454:12460   */\n      dup4\n        /* \"#utility.yul\":12451:12465   */\n      gt\n        /* \"#utility.yul\":12479:12480   */\n      0x01\n        /* \"#utility.yul\":12474:13091   */\n      dup2\n      eq\n      tag_250\n      jumpi\n        /* \"#utility.yul\":13135:13136   */\n      0x00\n        /* \"#utility.yul\":13152:13158   */\n      dup5\n        /* \"#utility.yul\":13149:13226   */\n      iszero\n      tag_251\n      jumpi\n        /* \"#utility.yul\":13201:13210   */\n      dup3\n        /* \"#utility.yul\":13196:13199   */\n      dup8\n        /* \"#utility.yul\":13192:13211   */\n      add\n        /* \"#utility.yul\":13186:13212   */\n      mload\n        /* \"#utility.yul\":13177:13212   */\n      swap1\n      pop\n        /* \"#utility.yul\":13149:13226   */\n    tag_251:\n        /* \"#utility.yul\":13252:13319   */\n      tag_252\n        /* \"#utility.yul\":13312:13318   */\n      dup6\n        /* \"#utility.yul\":13305:13310   */\n      dup3\n        /* \"#utility.yul\":13252:13319   */\n      tag_106\n      jump\t// in\n    tag_252:\n        /* \"#utility.yul\":13246:13250   */\n      dup7\n        /* \"#utility.yul\":13239:13320   */\n      sstore\n        /* \"#utility.yul\":13108:13330   */\n      pop\n        /* \"#utility.yul\":12444:13330   */\n      jump(tag_249)\n        /* \"#utility.yul\":12474:13091   */\n    tag_250:\n        /* \"#utility.yul\":12526:12530   */\n      0x1f\n        /* \"#utility.yul\":12522:12531   */\n      not\n        /* \"#utility.yul\":12514:12520   */\n      dup5\n        /* \"#utility.yul\":12510:12532   */\n      and\n        /* \"#utility.yul\":12560:12596   */\n      tag_253\n        /* \"#utility.yul\":12591:12595   */\n      dup7\n        /* \"#utility.yul\":12560:12596   */\n      tag_92\n      jump\t// in\n    tag_253:\n        /* \"#utility.yul\":12618:12619   */\n      0x00\n        /* \"#utility.yul\":12632:12840   */\n    tag_254:\n        /* \"#utility.yul\":12646:12653   */\n      dup3\n        /* \"#utility.yul\":12643:12644   */\n      dup2\n        /* \"#utility.yul\":12640:12654   */\n      lt\n        /* \"#utility.yul\":12632:12840   */\n      iszero\n      tag_256\n      jumpi\n        /* \"#utility.yul\":12725:12734   */\n      dup5\n        /* \"#utility.yul\":12720:12723   */\n      dup10\n        /* \"#utility.yul\":12716:12735   */\n      add\n        /* \"#utility.yul\":12710:12736   */\n      mload\n        /* \"#utility.yul\":12702:12708   */\n      dup3\n        /* \"#utility.yul\":12695:12737   */\n      sstore\n        /* \"#utility.yul\":12776:12777   */\n      0x01\n        /* \"#utility.yul\":12768:12774   */\n      dup3\n        /* \"#utility.yul\":12764:12778   */\n      add\n        /* \"#utility.yul\":12754:12778   */\n      swap2\n      pop\n        /* \"#utility.yul\":12823:12825   */\n      0x20\n        /* \"#utility.yul\":12812:12821   */\n      dup6\n        /* \"#utility.yul\":12808:12826   */\n      add\n        /* \"#utility.yul\":12795:12826   */\n      swap5\n      pop\n        /* \"#utility.yul\":12669:12673   */\n      0x20\n        /* \"#utility.yul\":12666:12667   */\n      dup2\n        /* \"#utility.yul\":12662:12674   */\n      add\n        /* \"#utility.yul\":12657:12674   */\n      swap1\n      pop\n        /* \"#utility.yul\":12632:12840   */\n      jump(tag_254)\n    tag_256:\n        /* \"#utility.yul\":12868:12874   */\n      dup7\n        /* \"#utility.yul\":12859:12866   */\n      dup4\n        /* \"#utility.yul\":12856:12875   */\n      lt\n        /* \"#utility.yul\":12853:13032   */\n      iszero\n      tag_257\n      jumpi\n        /* \"#utility.yul\":12926:12935   */\n      dup5\n        /* \"#utility.yul\":12921:12924   */\n      dup10\n        /* \"#utility.yul\":12917:12936   */\n      add\n        /* \"#utility.yul\":12911:12937   */\n      mload\n        /* \"#utility.yul\":12969:13017   */\n      tag_258\n        /* \"#utility.yul\":13011:13015   */\n      0x1f\n        /* \"#utility.yul\":13003:13009   */\n      dup10\n        /* \"#utility.yul\":12999:13016   */\n      and\n        /* \"#utility.yul\":12988:12997   */\n      dup3\n        /* \"#utility.yul\":12969:13017   */\n      tag_105\n      jump\t// in\n    tag_258:\n        /* \"#utility.yul\":12961:12967   */\n      dup4\n        /* \"#utility.yul\":12954:13018   */\n      sstore\n        /* \"#utility.yul\":12876:13032   */\n      pop\n        /* \"#utility.yul\":12853:13032   */\n    tag_257:\n        /* \"#utility.yul\":13078:13079   */\n      0x01\n        /* \"#utility.yul\":13074:13075   */\n      0x02\n        /* \"#utility.yul\":13066:13072   */\n      dup9\n        /* \"#utility.yul\":13062:13076   */\n      mul\n        /* \"#utility.yul\":13058:13080   */\n      add\n        /* \"#utility.yul\":13052:13056   */\n      dup9\n        /* \"#utility.yul\":13045:13081   */\n      sstore\n        /* \"#utility.yul\":12481:13091   */\n      pop\n      pop\n      pop\n        /* \"#utility.yul\":12444:13330   */\n    tag_249:\n      pop\n        /* \"#utility.yul\":12036:13336   */\n      pop\n      pop\n      pop\n        /* \"#utility.yul\":11946:13336   */\n      pop\n      pop\n      jump\t// out\n        /* \"#utility.yul\":13342:13489   */\n    tag_107:\n        /* \"#utility.yul\":13443:13454   */\n      0x00\n        /* \"#utility.yul\":13480:13483   */\n      dup2\n        /* \"#utility.yul\":13465:13483   */\n      swap1\n      pop\n        /* \"#utility.yul\":13342:13489   */\n      swap3\n      swap2\n      pop\n      pop\n      jump\t// out\n        /* \"#utility.yul\":13517:14387   */\n    tag_108:\n        /* \"#utility.yul\":13618:13621   */\n      0x00\n        /* \"#utility.yul\":13655:13660   */\n      dup2\n        /* \"#utility.yul\":13649:13661   */\n      sload\n        /* \"#utility.yul\":13684:13720   */\n      tag_261\n        /* \"#utility.yul\":13710:13719   */\n      dup2\n        /* \"#utility.yul\":13684:13720   */\n      tag_91\n      jump\t// in\n    tag_261:\n        /* \"#utility.yul\":13736:13824   */\n      tag_262\n        /* \"#utility.yul\":13817:13823   */\n      dup2\n        /* \"#utility.yul\":13812:13815   */\n      dup7\n        /* \"#utility.yul\":13736:13824   */\n      tag_107\n      jump\t// in\n    tag_262:\n        /* \"#utility.yul\":13729:13824   */\n      swap5\n      pop\n        /* \"#utility.yul\":13855:13856   */\n      0x01\n        /* \"#utility.yul\":13844:13853   */\n      dup3\n        /* \"#utility.yul\":13840:13857   */\n      and\n        /* \"#utility.yul\":13871:13872   */\n      0x00\n        /* \"#utility.yul\":13866:14032   */\n      dup2\n      eq\n      tag_264\n      jumpi\n        /* \"#utility.yul\":14046:14047   */\n      0x01\n        /* \"#utility.yul\":14041:14381   */\n      dup2\n      eq\n      tag_265\n      jumpi\n        /* \"#utility.yul\":13833:14381   */\n      jump(tag_263)\n        /* \"#utility.yul\":13866:14032   */\n    tag_264:\n        /* \"#utility.yul\":13950:13954   */\n      0xff\n        /* \"#utility.yul\":13946:13955   */\n      not\n        /* \"#utility.yul\":13935:13944   */\n      dup4\n        /* \"#utility.yul\":13931:13956   */\n      and\n        /* \"#utility.yul\":13926:13929   */\n      dup7\n        /* \"#utility.yul\":13919:13957   */\n      mstore\n        /* \"#utility.yul\":14012:14018   */\n      dup2\n        /* \"#utility.yul\":14005:14019   */\n      iszero\n        /* \"#utility.yul\":13998:14020   */\n      iszero\n        /* \"#utility.yul\":13990:13996   */\n      dup3\n        /* \"#utility.yul\":13986:14021   */\n      mul\n        /* \"#utility.yul\":13981:13984   */\n      dup7\n        /* \"#utility.yul\":13977:14022   */\n      add\n        /* \"#utility.yul\":13970:14022   */\n      swap4\n      pop\n        /* \"#utility.yul\":13866:14032   */\n      jump(tag_263)\n        /* \"#utility.yul\":14041:14381   */\n    tag_265:\n        /* \"#utility.yul\":14108:14145   */\n      tag_266\n        /* \"#utility.yul\":14139:14144   */\n      dup6\n        /* \"#utility.yul\":14108:14145   */\n      tag_92\n      jump\t// in\n    tag_266:\n        /* \"#utility.yul\":14167:14168   */\n      0x00\n        /* \"#utility.yul\":14181:14335   */\n    tag_267:\n        /* \"#utility.yul\":14195:14201   */\n      dup4\n        /* \"#utility.yul\":14192:14193   */\n      dup2\n        /* \"#utility.yul\":14189:14202   */\n      lt\n        /* \"#utility.yul\":14181:14335   */\n      iszero\n      tag_269\n      jumpi\n        /* \"#utility.yul\":14269:14276   */\n      dup2\n        /* \"#utility.yul\":14263:14277   */\n      sload\n        /* \"#utility.yul\":14259:14260   */\n      dup2\n        /* \"#utility.yul\":14254:14257   */\n      dup10\n        /* \"#utility.yul\":14250:14261   */\n      add\n        /* \"#utility.yul\":14243:14278   */\n      mstore\n        /* \"#utility.yul\":14319:14320   */\n      0x01\n        /* \"#utility.yul\":14310:14317   */\n      dup3\n        /* \"#utility.yul\":14306:14321   */\n      add\n        /* \"#utility.yul\":14295:14321   */\n      swap2\n      pop\n        /* \"#utility.yul\":14217:14221   */\n      0x20\n        /* \"#utility.yul\":14214:14215   */\n      dup2\n        /* \"#utility.yul\":14210:14222   */\n      add\n        /* \"#utility.yul\":14205:14222   */\n      swap1\n      pop\n        /* \"#utility.yul\":14181:14335   */\n      jump(tag_267)\n    tag_269:\n        /* \"#utility.yul\":14364:14370   */\n      dup4\n        /* \"#utility.yul\":14359:14362   */\n      dup9\n        /* \"#utility.yul\":14355:14371   */\n      add\n        /* \"#utility.yul\":14348:14371   */\n      swap6\n      pop\n        /* \"#utility.yul\":14048:14381   */\n      pop\n      pop\n        /* \"#utility.yul\":13833:14381   */\n    tag_263:\n      pop\n        /* \"#utility.yul\":13622:14387   */\n      pop\n      pop\n        /* \"#utility.yul\":13517:14387   */\n      swap3\n      swap2\n      pop\n      pop\n      jump\t// out\n        /* \"#utility.yul\":14393:14658   */\n    tag_39:\n        /* \"#utility.yul\":14520:14523   */\n      0x00\n        /* \"#utility.yul\":14542:14632   */\n      tag_271\n        /* \"#utility.yul\":14628:14631   */\n      dup3\n        /* \"#utility.yul\":14619:14625   */\n      dup5\n        /* \"#utility.yul\":14542:14632   */\n      tag_108\n      jump\t// in\n    tag_271:\n        /* \"#utility.yul\":14535:14632   */\n      swap2\n      pop\n        /* \"#utility.yul\":14649:14652   */\n      dup2\n        /* \"#utility.yul\":14642:14652   */\n      swap1\n      pop\n        /* \"#utility.yul\":14393:14658   */\n      swap3\n      swap2\n      pop\n      pop\n      jump\t// out\n        /* \"#utility.yul\":14664:14844   */\n    tag_51:\n        /* \"#utility.yul\":14712:14789   */\n      0x4e487b7100000000000000000000000000000000000000000000000000000000\n        /* \"#utility.yul\":14709:14710   */\n      0x00\n        /* \"#utility.yul\":14702:14790   */\n      mstore\n        /* \"#utility.yul\":14809:14813   */\n      0x32\n        /* \"#utility.yul\":14806:14807   */\n      0x04\n        /* \"#utility.yul\":14799:14814   */\n      mstore\n        /* \"#utility.yul\":14833:14837   */\n      0x24\n        /* \"#utility.yul\":14830:14831   */\n      0x00\n        /* \"#utility.yul\":14823:14838   */\n      revert\n        /* \"#utility.yul\":14850:15030   */\n    tag_109:\n        /* \"#utility.yul\":14898:14975   */\n      0x4e487b7100000000000000000000000000000000000000000000000000000000\n        /* \"#utility.yul\":14895:14896   */\n      0x00\n        /* \"#utility.yul\":14888:14976   */\n      mstore\n        /* \"#utility.yul\":14995:14999   */\n      0x11\n        /* \"#utility.yul\":14992:14993   */\n      0x04\n        /* \"#utility.yul\":14985:15000   */\n      mstore\n        /* \"#utility.yul\":15019:15023   */\n      0x24\n        /* \"#utility.yul\":15016:15017   */\n      0x00\n        /* \"#utility.yul\":15009:15024   */\n      revert\n        /* \"#utility.yul\":15036:15269   */\n    tag_56:\n        /* \"#utility.yul\":15075:15078   */\n      0x00\n        /* \"#utility.yul\":15098:15122   */\n      tag_275\n        /* \"#utility.yul\":15116:15121   */\n      dup3\n        /* \"#utility.yul\":15098:15122   */\n      tag_80\n      jump\t// in\n    tag_275:\n        /* \"#utility.yul\":15089:15122   */\n      swap2\n      pop\n        /* \"#utility.yul\":15144:15210   */\n      0xffffffffffffffffffffffffffffffffffffffffffffffffffffffffffffffff\n        /* \"#utility.yul\":15137:15142   */\n      dup3\n        /* \"#utility.yul\":15134:15211   */\n      sub\n        /* \"#utility.yul\":15131:15234   */\n      tag_276\n      jumpi\n        /* \"#utility.yul\":15214:15232   */\n      tag_277\n      tag_109\n      jump\t// in\n    tag_277:\n        /* \"#utility.yul\":15131:15234   */\n    tag_276:\n        /* \"#utility.yul\":15261:15262   */\n      0x01\n        /* \"#utility.yul\":15254:15259   */\n      dup3\n        /* \"#utility.yul\":15250:15263   */\n      add\n        /* \"#utility.yul\":15243:15263   */\n      swap1\n      pop\n        /* \"#utility.yul\":15036:15269   */\n      swap2\n      swap1\n      pop\n      jump\t// out\n        /* \"#utility.yul\":15275:15361   */\n    tag_110:\n        /* \"#utility.yul\":15310:15317   */\n      0x00\n        /* \"#utility.yul\":15350:15354   */\n      0xff\n        /* \"#utility.yul\":15343:15348   */\n      dup3\n        /* \"#utility.yul\":15339:15355   */\n      and\n        /* \"#utility.yul\":15328:15355   */\n      swap1\n      pop\n        /* \"#utility.yul\":15275:15361   */\n      swap2\n      swap1\n      pop\n      jump\t// out\n        /* \"#utility.yul\":15367:15558   */\n    tag_62:\n        /* \"#utility.yul\":15405:15409   */\n      0x00\n        /* \"#utility.yul\":15425:15443   */\n      tag_280\n        /* \"#utility.yul\":15441:15442   */\n      dup3\n        /* \"#utility.yul\":15425:15443   */\n      tag_110\n      jump\t// in\n    tag_280:\n        /* \"#utility.yul\":15420:15443   */\n      swap2\n      pop\n        /* \"#utility.yul\":15457:15475   */\n      tag_281\n        /* \"#utility.yul\":15473:15474   */\n      dup4\n        /* \"#utility.yul\":15457:15475   */\n      tag_110\n      jump\t// in\n    tag_281:\n        /* \"#utility.yul\":15452:15475   */\n      swap3\n      pop\n        /* \"#utility.yul\":15499:15500   */\n      dup3\n        /* \"#utility.yul\":15496:15497   */\n      dup3\n        /* \"#utility.yul\":15492:15501   */\n      sub\n        /* \"#utility.yul\":15484:15501   */\n      swap1\n      pop\n        /* \"#utility.yul\":15523:15527   */\n      0xff\n        /* \"#utility.yul\":15517:15521   */\n      dup2\n        /* \"#utility.yul\":15514:15528   */\n      gt\n        /* \"#utility.yul\":15511:15551   */\n      iszero\n      tag_282\n      jumpi\n        /* \"#utility.yul\":15531:15549   */\n      tag_283\n      tag_109\n      jump\t// in\n    tag_283:\n        /* \"#utility.yul\":15511:15551   */\n    tag_282:\n        /* \"#utility.yul\":15367:15558   */\n      swap3\n      swap2\n      pop\n      pop\n      jump\t// out\n\n    auxdata: 0xa2646970667358221220bbbc32a1ef125c950ba9d667e358ea35fcb7df58006f89653a7bb1a18727669a64736f6c63430008120033\n}\n",
				"bytecode": {
					"linkReferences": {},
					"object": "608060405234801561001057600080fd5b50610cb9806100206000396000f3fe608060405234801561001057600080fd5b50600436106100415760003560e01c8063267561c81461004657806394a72f1c14610062578063fc3a49e014610092575b600080fd5b610060600480360381019061005b91906104f9565b6100b1565b005b61007c600480360381019061007791906104f9565b6101ba565b60405161008991906105c1565b60405180910390f35b61009a6101cc565b6040516100a89291906105fc565b60405180910390f35b6100b9610221565b73ffffffffffffffffffffffffffffffffffffffff163373ffffffffffffffffffffffffffffffffffffffff1614610126576040517f08c379a000000000000000000000000000000000000000000000000000000000815260040161011d906106a8565b60405180910390fd5b3073ffffffffffffffffffffffffffffffffffffffff166394a72f1c826040518263ffffffff1660e01b815260040161015f919061070c565b600060405180830381865afa15801561017c573d6000803e3d6000fd5b505050506040513d6000823e3d601f19601f820116820180604052508101906101a591906107cf565b6000603d0190816101b69190610a24565b5050565b60606101c582610254565b9050919050565b600080600080016000603d016040516101e59190610b84565b90815260200160405180910390205460008001600060060160405161020a9190610b84565b908152602001604051809103902054915091509091565b600061022b6102ec565b60030160009054906101000a900473ffffffffffffffffffffffffffffffffffffffff16905090565b6060600082905060005b81518110156102e25761028d82828151811061027d5761027c610b9b565b5b602001015160f81c60f81b610319565b8282815181106102a05761029f610b9b565b5b60200101907effffffffffffffffffffffffffffffffffffffffffffffffffffffffffffff1916908160001a90535080806102da90610bf9565b91505061025e565b5080915050919050565b6000807fc8fcad8db84d3cc18b4c41d551ea0ee66dd599cde068d998e57d5e09332c131c90508091505090565b6000606160f81b827effffffffffffffffffffffffffffffffffffffffffffffffffffffffffffff1916101580156103775750607a60f81b827effffffffffffffffffffffffffffffffffffffffffffffffffffffffffffff191611155b156103965760208260f81c61038c9190610c4e565b60f81b905061039a565b8190505b919050565b6000604051905090565b600080fd5b600080fd5b600080fd5b600080fd5b6000601f19601f8301169050919050565b7f4e487b7100000000000000000000000000000000000000000000000000000000600052604160045260246000fd5b610406826103bd565b810181811067ffffffffffffffff82111715610425576104246103ce565b5b80604052505050565b600061043861039f565b905061044482826103fd565b919050565b600067ffffffffffffffff821115610464576104636103ce565b5b61046d826103bd565b9050602081019050919050565b82818337600083830152505050565b600061049c61049784610449565b61042e565b9050828152602081018484840111156104b8576104b76103b8565b5b6104c384828561047a565b509392505050565b600082601f8301126104e0576104df6103b3565b5b81356104f0848260208601610489565b91505092915050565b60006020828403121561050f5761050e6103a9565b5b600082013567ffffffffffffffff81111561052d5761052c6103ae565b5b610539848285016104cb565b91505092915050565b600081519050919050565b600082825260208201905092915050565b60005b8381101561057c578082015181840152602081019050610561565b60008484015250505050565b600061059382610542565b61059d818561054d565b93506105ad81856020860161055e565b6105b6816103bd565b840191505092915050565b600060208201905081810360008301526105db8184610588565b905092915050565b6000819050919050565b6105f6816105e3565b82525050565b600060408201905061061160008301856105ed565b61061e60208301846105ed565b9392505050565b600082825260208201905092915050565b7f4163636573732064656e6965642c204f6e6c79206f776e657220697320616c6c60008201527f6f77656421000000000000000000000000000000000000000000000000000000602082015250565b6000610692602583610625565b915061069d82610636565b604082019050919050565b600060208201905081810360008301526106c181610685565b9050919050565b600081519050919050565b60006106de826106c8565b6106e88185610625565b93506106f881856020860161055e565b610701816103bd565b840191505092915050565b6000602082019050818103600083015261072681846106d3565b905092915050565b600067ffffffffffffffff821115610749576107486103ce565b5b610752826103bd565b9050602081019050919050565b600061077261076d8461072e565b61042e565b90508281526020810184848401111561078e5761078d6103b8565b5b61079984828561055e565b509392505050565b600082601f8301126107b6576107b56103b3565b5b81516107c684826020860161075f565b91505092915050565b6000602082840312156107e5576107e46103a9565b5b600082015167ffffffffffffffff811115610803576108026103ae565b5b61080f848285016107a1565b91505092915050565b7f4e487b7100000000000000000000000000000000000000000000000000000000600052602260045260246000fd5b6000600282049050600182168061085f57607f821691505b60208210810361087257610871610818565b5b50919050565b60008190508160005260206000209050919050565b60006020601f8301049050919050565b600082821b905092915050565b6000600883026108da7fffffffffffffffffffffffffffffffffffffffffffffffffffffffffffffffff8261089d565b6108e4868361089d565b95508019841693508086168417925050509392505050565b6000819050919050565b600061092161091c610917846105e3565b6108fc565b6105e3565b9050919050565b6000819050919050565b61093b83610906565b61094f61094782610928565b8484546108aa565b825550505050565b600090565b610964610957565b61096f818484610932565b505050565b5b818110156109935761098860008261095c565b600181019050610975565b5050565b601f8211156109d8576109a981610878565b6109b28461088d565b810160208510156109c1578190505b6109d56109cd8561088d565b830182610974565b50505b505050565b600082821c905092915050565b60006109fb600019846008026109dd565b1980831691505092915050565b6000610a1483836109ea565b9150826002028217905092915050565b610a2d82610542565b67ffffffffffffffff811115610a4657610a456103ce565b5b610a508254610847565b610a5b828285610997565b600060209050601f831160018114610a8e5760008415610a7c578287015190505b610a868582610a08565b865550610aee565b601f198416610a9c86610878565b60005b82811015610ac457848901518255600182019150602085019450602081019050610a9f565b86831015610ae15784890151610add601f8916826109ea565b8355505b6001600288020188555050505b505050505050565b600081905092915050565b60008154610b0e81610847565b610b188186610af6565b94506001821660008114610b335760018114610b4857610b7b565b60ff1983168652811515820286019350610b7b565b610b5185610878565b60005b83811015610b7357815481890152600182019150602081019050610b54565b838801955050505b50505092915050565b6000610b908284610b01565b915081905092915050565b7f4e487b7100000000000000000000000000000000000000000000000000000000600052603260045260246000fd5b7f4e487b7100000000000000000000000000000000000000000000000000000000600052601160045260246000fd5b6000610c04826105e3565b91507fffffffffffffffffffffffffffffffffffffffffffffffffffffffffffffffff8203610c3657610c35610bca565b5b600182019050919050565b600060ff82169050919050565b6000610c5982610c41565b9150610c6483610c41565b9250828203905060ff811115610c7d57610c7c610bca565b5b9291505056fea2646970667358221220bbbc32a1ef125c950ba9d667e358ea35fcb7df58006f89653a7bb1a18727669a64736f6c63430008120033",
					"opcodes": "PUSH1 0x80 PUSH1 0x40 MSTORE CALLVALUE DUP1 ISZERO PUSH2 0x10 JUMPI PUSH1 0x0 DUP1 REVERT JUMPDEST POP PUSH2 0xCB9 DUP1 PUSH2 0x20 PUSH1 0x0 CODECOPY PUSH1 0x0 RETURN INVALID PUSH1 0x80 PUSH1 0x40 MSTORE CALLVALUE DUP1 ISZERO PUSH2 0x10 JUMPI PUSH1 0x0 DUP1 REVERT JUMPDEST POP PUSH1 0x4 CALLDATASIZE LT PUSH2 0x41 JUMPI PUSH1 0x0 CALLDATALOAD PUSH1 0xE0 SHR DUP1 PUSH4 0x267561C8 EQ PUSH2 0x46 JUMPI DUP1 PUSH4 0x94A72F1C EQ PUSH2 0x62 JUMPI DUP1 PUSH4 0xFC3A49E0 EQ PUSH2 0x92 JUMPI JUMPDEST PUSH1 0x0 DUP1 REVERT JUMPDEST PUSH2 0x60 PUSH1 0x4 DUP1 CALLDATASIZE SUB DUP2 ADD SWAP1 PUSH2 0x5B SWAP2 SWAP1 PUSH2 0x4F9 JUMP JUMPDEST PUSH2 0xB1 JUMP JUMPDEST STOP JUMPDEST PUSH2 0x7C PUSH1 0x4 DUP1 CALLDATASIZE SUB DUP2 ADD SWAP1 PUSH2 0x77 SWAP2 SWAP1 PUSH2 0x4F9 JUMP JUMPDEST PUSH2 0x1BA JUMP JUMPDEST PUSH1 0x40 MLOAD PUSH2 0x89 SWAP2 SWAP1 PUSH2 0x5C1 JUMP JUMPDEST PUSH1 0x40 MLOAD DUP1 SWAP2 SUB SWAP1 RETURN JUMPDEST PUSH2 0x9A PUSH2 0x1CC JUMP JUMPDEST PUSH1 0x40 MLOAD PUSH2 0xA8 SWAP3 SWAP2 SWAP1 PUSH2 0x5FC JUMP JUMPDEST PUSH1 0x40 MLOAD DUP1 SWAP2 SUB SWAP1 RETURN JUMPDEST PUSH2 0xB9 PUSH2 0x221 JUMP JUMPDEST PUSH20 0xFFFFFFFFFFFFFFFFFFFFFFFFFFFFFFFFFFFFFFFF AND CALLER PUSH20 0xFFFFFFFFFFFFFFFFFFFFFFFFFFFFFFFFFFFFFFFF AND EQ PUSH2 0x126 JUMPI PUSH1 0x40 MLOAD PUSH32 0x8C379A000000000000000000000000000000000000000000000000000000000 DUP2 MSTORE PUSH1 0x4 ADD PUSH2 0x11D SWAP1 PUSH2 0x6A8 JUMP JUMPDEST PUSH1 0x40 MLOAD DUP1 SWAP2 SUB SWAP1 REVERT JUMPDEST ADDRESS PUSH20 0xFFFFFFFFFFFFFFFFFFFFFFFFFFFFFFFFFFFFFFFF AND PUSH4 0x94A72F1C DUP3 PUSH1 0x40 MLOAD DUP3 PUSH4 0xFFFFFFFF AND PUSH1 0xE0 SHL DUP2 MSTORE PUSH1 0x4 ADD PUSH2 0x15F SWAP2 SWAP1 PUSH2 0x70C JUMP JUMPDEST PUSH1 0x0 PUSH1 0x40 MLOAD DUP1 DUP4 SUB DUP2 DUP7 GAS STATICCALL ISZERO DUP1 ISZERO PUSH2 0x17C JUMPI RETURNDATASIZE PUSH1 0x0 DUP1 RETURNDATACOPY RETURNDATASIZE PUSH1 0x0 REVERT JUMPDEST POP POP POP POP PUSH1 0x40 MLOAD RETURNDATASIZE PUSH1 0x0 DUP3 RETURNDATACOPY RETURNDATASIZE PUSH1 0x1F NOT PUSH1 0x1F DUP3 ADD AND DUP3 ADD DUP1 PUSH1 0x40 MSTORE POP DUP2 ADD SWAP1 PUSH2 0x1A5 SWAP2 SWAP1 PUSH2 0x7CF JUMP JUMPDEST PUSH1 0x0 PUSH1 0x3D ADD SWAP1 DUP2 PUSH2 0x1B6 SWAP2 SWAP1 PUSH2 0xA24 JUMP JUMPDEST POP POP JUMP JUMPDEST PUSH1 0x60 PUSH2 0x1C5 DUP3 PUSH2 0x254 JUMP JUMPDEST SWAP1 POP SWAP2 SWAP1 POP JUMP JUMPDEST PUSH1 0x0 DUP1 PUSH1 0x0 DUP1 ADD PUSH1 0x0 PUSH1 0x3D ADD PUSH1 0x40 MLOAD PUSH2 0x1E5 SWAP2 SWAP1 PUSH2 0xB84 JUMP JUMPDEST SWAP1 DUP2 MSTORE PUSH1 0x20 ADD PUSH1 0x40 MLOAD DUP1 SWAP2 SUB SWAP1 KECCAK256 SLOAD PUSH1 0x0 DUP1 ADD PUSH1 0x0 PUSH1 0x6 ADD PUSH1 0x40 MLOAD PUSH2 0x20A SWAP2 SWAP1 PUSH2 0xB84 JUMP JUMPDEST SWAP1 DUP2 MSTORE PUSH1 0x20 ADD PUSH1 0x40 MLOAD DUP1 SWAP2 SUB SWAP1 KECCAK256 SLOAD SWAP2 POP SWAP2 POP SWAP1 SWAP2 JUMP JUMPDEST PUSH1 0x0 PUSH2 0x22B PUSH2 0x2EC JUMP JUMPDEST PUSH1 0x3 ADD PUSH1 0x0 SWAP1 SLOAD SWAP1 PUSH2 0x100 EXP SWAP1 DIV PUSH20 0xFFFFFFFFFFFFFFFFFFFFFFFFFFFFFFFFFFFFFFFF AND SWAP1 POP SWAP1 JUMP JUMPDEST PUSH1 0x60 PUSH1 0x0 DUP3 SWAP1 POP PUSH1 0x0 JUMPDEST DUP2 MLOAD DUP2 LT ISZERO PUSH2 0x2E2 JUMPI PUSH2 0x28D DUP3 DUP3 DUP2 MLOAD DUP2 LT PUSH2 0x27D JUMPI PUSH2 0x27C PUSH2 0xB9B JUMP JUMPDEST JUMPDEST PUSH1 0x20 ADD ADD MLOAD PUSH1 0xF8 SHR PUSH1 0xF8 SHL PUSH2 0x319 JUMP JUMPDEST DUP3 DUP3 DUP2 MLOAD DUP2 LT PUSH2 0x2A0 JUMPI PUSH2 0x29F PUSH2 0xB9B JUMP JUMPDEST JUMPDEST PUSH1 0x20 ADD ADD SWAP1 PUSH31 0xFFFFFFFFFFFFFFFFFFFFFFFFFFFFFFFFFFFFFFFFFFFFFFFFFFFFFFFFFFFFFF NOT AND SWAP1 DUP2 PUSH1 0x0 BYTE SWAP1 MSTORE8 POP DUP1 DUP1 PUSH2 0x2DA SWAP1 PUSH2 0xBF9 JUMP JUMPDEST SWAP2 POP POP PUSH2 0x25E JUMP JUMPDEST POP DUP1 SWAP2 POP POP SWAP2 SWAP1 POP JUMP JUMPDEST PUSH1 0x0 DUP1 PUSH32 0xC8FCAD8DB84D3CC18B4C41D551EA0EE66DD599CDE068D998E57D5E09332C131C SWAP1 POP DUP1 SWAP2 POP POP SWAP1 JUMP JUMPDEST PUSH1 0x0 PUSH1 0x61 PUSH1 0xF8 SHL DUP3 PUSH31 0xFFFFFFFFFFFFFFFFFFFFFFFFFFFFFFFFFFFFFFFFFFFFFFFFFFFFFFFFFFFFFF NOT AND LT ISZERO DUP1 ISZERO PUSH2 0x377 JUMPI POP PUSH1 0x7A PUSH1 0xF8 SHL DUP3 PUSH31 0xFFFFFFFFFFFFFFFFFFFFFFFFFFFFFFFFFFFFFFFFFFFFFFFFFFFFFFFFFFFFFF NOT AND GT ISZERO JUMPDEST ISZERO PUSH2 0x396 JUMPI PUSH1 0x20 DUP3 PUSH1 0xF8 SHR PUSH2 0x38C SWAP2 SWAP1 PUSH2 0xC4E JUMP JUMPDEST PUSH1 0xF8 SHL SWAP1 POP PUSH2 0x39A JUMP JUMPDEST DUP2 SWAP1 POP JUMPDEST SWAP2 SWAP1 POP JUMP JUMPDEST PUSH1 0x0 PUSH1 0x40 MLOAD SWAP1 POP SWAP1 JUMP JUMPDEST PUSH1 0x0 DUP1 REVERT JUMPDEST PUSH1 0x0 DUP1 REVERT JUMPDEST PUSH1 0x0 DUP1 REVERT JUMPDEST PUSH1 0x0 DUP1 REVERT JUMPDEST PUSH1 0x0 PUSH1 0x1F NOT PUSH1 0x1F DUP4 ADD AND SWAP1 POP SWAP2 SWAP1 POP JUMP JUMPDEST PUSH32 0x4E487B7100000000000000000000000000000000000000000000000000000000 PUSH1 0x0 MSTORE PUSH1 0x41 PUSH1 0x4 MSTORE PUSH1 0x24 PUSH1 0x0 REVERT JUMPDEST PUSH2 0x406 DUP3 PUSH2 0x3BD JUMP JUMPDEST DUP2 ADD DUP2 DUP2 LT PUSH8 0xFFFFFFFFFFFFFFFF DUP3 GT OR ISZERO PUSH2 0x425 JUMPI PUSH2 0x424 PUSH2 0x3CE JUMP JUMPDEST JUMPDEST DUP1 PUSH1 0x40 MSTORE POP POP POP JUMP JUMPDEST PUSH1 0x0 PUSH2 0x438 PUSH2 0x39F JUMP JUMPDEST SWAP1 POP PUSH2 0x444 DUP3 DUP3 PUSH2 0x3FD JUMP JUMPDEST SWAP2 SWAP1 POP JUMP JUMPDEST PUSH1 0x0 PUSH8 0xFFFFFFFFFFFFFFFF DUP3 GT ISZERO PUSH2 0x464 JUMPI PUSH2 0x463 PUSH2 0x3CE JUMP JUMPDEST JUMPDEST PUSH2 0x46D DUP3 PUSH2 0x3BD JUMP JUMPDEST SWAP1 POP PUSH1 0x20 DUP2 ADD SWAP1 POP SWAP2 SWAP1 POP JUMP JUMPDEST DUP3 DUP2 DUP4 CALLDATACOPY PUSH1 0x0 DUP4 DUP4 ADD MSTORE POP POP POP JUMP JUMPDEST PUSH1 0x0 PUSH2 0x49C PUSH2 0x497 DUP5 PUSH2 0x449 JUMP JUMPDEST PUSH2 0x42E JUMP JUMPDEST SWAP1 POP DUP3 DUP2 MSTORE PUSH1 0x20 DUP2 ADD DUP5 DUP5 DUP5 ADD GT ISZERO PUSH2 0x4B8 JUMPI PUSH2 0x4B7 PUSH2 0x3B8 JUMP JUMPDEST JUMPDEST PUSH2 0x4C3 DUP5 DUP3 DUP6 PUSH2 0x47A JUMP JUMPDEST POP SWAP4 SWAP3 POP POP POP JUMP JUMPDEST PUSH1 0x0 DUP3 PUSH1 0x1F DUP4 ADD SLT PUSH2 0x4E0 JUMPI PUSH2 0x4DF PUSH2 0x3B3 JUMP JUMPDEST JUMPDEST DUP2 CALLDATALOAD PUSH2 0x4F0 DUP5 DUP3 PUSH1 0x20 DUP7 ADD PUSH2 0x489 JUMP JUMPDEST SWAP2 POP POP SWAP3 SWAP2 POP POP JUMP JUMPDEST PUSH1 0x0 PUSH1 0x20 DUP3 DUP5 SUB SLT ISZERO PUSH2 0x50F JUMPI PUSH2 0x50E PUSH2 0x3A9 JUMP JUMPDEST JUMPDEST PUSH1 0x0 DUP3 ADD CALLDATALOAD PUSH8 0xFFFFFFFFFFFFFFFF DUP2 GT ISZERO PUSH2 0x52D JUMPI PUSH2 0x52C PUSH2 0x3AE JUMP JUMPDEST JUMPDEST PUSH2 0x539 DUP5 DUP3 DUP6 ADD PUSH2 0x4CB JUMP JUMPDEST SWAP2 POP POP SWAP3 SWAP2 POP POP JUMP JUMPDEST PUSH1 0x0 DUP2 MLOAD SWAP1 POP SWAP2 SWAP1 POP JUMP JUMPDEST PUSH1 0x0 DUP3 DUP3 MSTORE PUSH1 0x20 DUP3 ADD SWAP1 POP SWAP3 SWAP2 POP POP JUMP JUMPDEST PUSH1 0x0 JUMPDEST DUP4 DUP2 LT ISZERO PUSH2 0x57C JUMPI DUP1 DUP3 ADD MLOAD DUP2 DUP5 ADD MSTORE PUSH1 0x20 DUP2 ADD SWAP1 POP PUSH2 0x561 JUMP JUMPDEST PUSH1 0x0 DUP5 DUP5 ADD MSTORE POP POP POP POP JUMP JUMPDEST PUSH1 0x0 PUSH2 0x593 DUP3 PUSH2 0x542 JUMP JUMPDEST PUSH2 0x59D DUP2 DUP6 PUSH2 0x54D JUMP JUMPDEST SWAP4 POP PUSH2 0x5AD DUP2 DUP6 PUSH1 0x20 DUP7 ADD PUSH2 0x55E JUMP JUMPDEST PUSH2 0x5B6 DUP2 PUSH2 0x3BD JUMP JUMPDEST DUP5 ADD SWAP2 POP POP SWAP3 SWAP2 POP POP JUMP JUMPDEST PUSH1 0x0 PUSH1 0x20 DUP3 ADD SWAP1 POP DUP2 DUP2 SUB PUSH1 0x0 DUP4 ADD MSTORE PUSH2 0x5DB DUP2 DUP5 PUSH2 0x588 JUMP JUMPDEST SWAP1 POP SWAP3 SWAP2 POP POP JUMP JUMPDEST PUSH1 0x0 DUP2 SWAP1 POP SWAP2 SWAP1 POP JUMP JUMPDEST PUSH2 0x5F6 DUP2 PUSH2 0x5E3 JUMP JUMPDEST DUP3 MSTORE POP POP JUMP JUMPDEST PUSH1 0x0 PUSH1 0x40 DUP3 ADD SWAP1 POP PUSH2 0x611 PUSH1 0x0 DUP4 ADD DUP6 PUSH2 0x5ED JUMP JUMPDEST PUSH2 0x61E PUSH1 0x20 DUP4 ADD DUP5 PUSH2 0x5ED JUMP JUMPDEST SWAP4 SWAP3 POP POP POP JUMP JUMPDEST PUSH1 0x0 DUP3 DUP3 MSTORE PUSH1 0x20 DUP3 ADD SWAP1 POP SWAP3 SWAP2 POP POP JUMP JUMPDEST PUSH32 0x4163636573732064656E6965642C204F6E6C79206F776E657220697320616C6C PUSH1 0x0 DUP3 ADD MSTORE PUSH32 0x6F77656421000000000000000000000000000000000000000000000000000000 PUSH1 0x20 DUP3 ADD MSTORE POP JUMP JUMPDEST PUSH1 0x0 PUSH2 0x692 PUSH1 0x25 DUP4 PUSH2 0x625 JUMP JUMPDEST SWAP2 POP PUSH2 0x69D DUP3 PUSH2 0x636 JUMP JUMPDEST PUSH1 0x40 DUP3 ADD SWAP1 POP SWAP2 SWAP1 POP JUMP JUMPDEST PUSH1 0x0 PUSH1 0x20 DUP3 ADD SWAP1 POP DUP2 DUP2 SUB PUSH1 0x0 DUP4 ADD MSTORE PUSH2 0x6C1 DUP2 PUSH2 0x685 JUMP JUMPDEST SWAP1 POP SWAP2 SWAP1 POP JUMP JUMPDEST PUSH1 0x0 DUP2 MLOAD SWAP1 POP SWAP2 SWAP1 POP JUMP JUMPDEST PUSH1 0x0 PUSH2 0x6DE DUP3 PUSH2 0x6C8 JUMP JUMPDEST PUSH2 0x6E8 DUP2 DUP6 PUSH2 0x625 JUMP JUMPDEST SWAP4 POP PUSH2 0x6F8 DUP2 DUP6 PUSH1 0x20 DUP7 ADD PUSH2 0x55E JUMP JUMPDEST PUSH2 0x701 DUP2 PUSH2 0x3BD JUMP JUMPDEST DUP5 ADD SWAP2 POP POP SWAP3 SWAP2 POP POP JUMP JUMPDEST PUSH1 0x0 PUSH1 0x20 DUP3 ADD SWAP1 POP DUP2 DUP2 SUB PUSH1 0x0 DUP4 ADD MSTORE PUSH2 0x726 DUP2 DUP5 PUSH2 0x6D3 JUMP JUMPDEST SWAP1 POP SWAP3 SWAP2 POP POP JUMP JUMPDEST PUSH1 0x0 PUSH8 0xFFFFFFFFFFFFFFFF DUP3 GT ISZERO PUSH2 0x749 JUMPI PUSH2 0x748 PUSH2 0x3CE JUMP JUMPDEST JUMPDEST PUSH2 0x752 DUP3 PUSH2 0x3BD JUMP JUMPDEST SWAP1 POP PUSH1 0x20 DUP2 ADD SWAP1 POP SWAP2 SWAP1 POP JUMP JUMPDEST PUSH1 0x0 PUSH2 0x772 PUSH2 0x76D DUP5 PUSH2 0x72E JUMP JUMPDEST PUSH2 0x42E JUMP JUMPDEST SWAP1 POP DUP3 DUP2 MSTORE PUSH1 0x20 DUP2 ADD DUP5 DUP5 DUP5 ADD GT ISZERO PUSH2 0x78E JUMPI PUSH2 0x78D PUSH2 0x3B8 JUMP JUMPDEST JUMPDEST PUSH2 0x799 DUP5 DUP3 DUP6 PUSH2 0x55E JUMP JUMPDEST POP SWAP4 SWAP3 POP POP POP JUMP JUMPDEST PUSH1 0x0 DUP3 PUSH1 0x1F DUP4 ADD SLT PUSH2 0x7B6 JUMPI PUSH2 0x7B5 PUSH2 0x3B3 JUMP JUMPDEST JUMPDEST DUP2 MLOAD PUSH2 0x7C6 DUP5 DUP3 PUSH1 0x20 DUP7 ADD PUSH2 0x75F JUMP JUMPDEST SWAP2 POP POP SWAP3 SWAP2 POP POP JUMP JUMPDEST PUSH1 0x0 PUSH1 0x20 DUP3 DUP5 SUB SLT ISZERO PUSH2 0x7E5 JUMPI PUSH2 0x7E4 PUSH2 0x3A9 JUMP JUMPDEST JUMPDEST PUSH1 0x0 DUP3 ADD MLOAD PUSH8 0xFFFFFFFFFFFFFFFF DUP2 GT ISZERO PUSH2 0x803 JUMPI PUSH2 0x802 PUSH2 0x3AE JUMP JUMPDEST JUMPDEST PUSH2 0x80F DUP5 DUP3 DUP6 ADD PUSH2 0x7A1 JUMP JUMPDEST SWAP2 POP POP SWAP3 SWAP2 POP POP JUMP JUMPDEST PUSH32 0x4E487B7100000000000000000000000000000000000000000000000000000000 PUSH1 0x0 MSTORE PUSH1 0x22 PUSH1 0x4 MSTORE PUSH1 0x24 PUSH1 0x0 REVERT JUMPDEST PUSH1 0x0 PUSH1 0x2 DUP3 DIV SWAP1 POP PUSH1 0x1 DUP3 AND DUP1 PUSH2 0x85F JUMPI PUSH1 0x7F DUP3 AND SWAP2 POP JUMPDEST PUSH1 0x20 DUP3 LT DUP2 SUB PUSH2 0x872 JUMPI PUSH2 0x871 PUSH2 0x818 JUMP JUMPDEST JUMPDEST POP SWAP2 SWAP1 POP JUMP JUMPDEST PUSH1 0x0 DUP2 SWAP1 POP DUP2 PUSH1 0x0 MSTORE PUSH1 0x20 PUSH1 0x0 KECCAK256 SWAP1 POP SWAP2 SWAP1 POP JUMP JUMPDEST PUSH1 0x0 PUSH1 0x20 PUSH1 0x1F DUP4 ADD DIV SWAP1 POP SWAP2 SWAP1 POP JUMP JUMPDEST PUSH1 0x0 DUP3 DUP3 SHL SWAP1 POP SWAP3 SWAP2 POP POP JUMP JUMPDEST PUSH1 0x0 PUSH1 0x8 DUP4 MUL PUSH2 0x8DA PUSH32 0xFFFFFFFFFFFFFFFFFFFFFFFFFFFFFFFFFFFFFFFFFFFFFFFFFFFFFFFFFFFFFFFF DUP3 PUSH2 0x89D JUMP JUMPDEST PUSH2 0x8E4 DUP7 DUP4 PUSH2 0x89D JUMP JUMPDEST SWAP6 POP DUP1 NOT DUP5 AND SWAP4 POP DUP1 DUP7 AND DUP5 OR SWAP3 POP POP POP SWAP4 SWAP3 POP POP POP JUMP JUMPDEST PUSH1 0x0 DUP2 SWAP1 POP SWAP2 SWAP1 POP JUMP JUMPDEST PUSH1 0x0 PUSH2 0x921 PUSH2 0x91C PUSH2 0x917 DUP5 PUSH2 0x5E3 JUMP JUMPDEST PUSH2 0x8FC JUMP JUMPDEST PUSH2 0x5E3 JUMP JUMPDEST SWAP1 POP SWAP2 SWAP1 POP JUMP JUMPDEST PUSH1 0x0 DUP2 SWAP1 POP SWAP2 SWAP1 POP JUMP JUMPDEST PUSH2 0x93B DUP4 PUSH2 0x906 JUMP JUMPDEST PUSH2 0x94F PUSH2 0x947 DUP3 PUSH2 0x928 JUMP JUMPDEST DUP5 DUP5 SLOAD PUSH2 0x8AA JUMP JUMPDEST DUP3 SSTORE POP POP POP POP JUMP JUMPDEST PUSH1 0x0 SWAP1 JUMP JUMPDEST PUSH2 0x964 PUSH2 0x957 JUMP JUMPDEST PUSH2 0x96F DUP2 DUP5 DUP5 PUSH2 0x932 JUMP JUMPDEST POP POP POP JUMP JUMPDEST JUMPDEST DUP2 DUP2 LT ISZERO PUSH2 0x993 JUMPI PUSH2 0x988 PUSH1 0x0 DUP3 PUSH2 0x95C JUMP JUMPDEST PUSH1 0x1 DUP2 ADD SWAP1 POP PUSH2 0x975 JUMP JUMPDEST POP POP JUMP JUMPDEST PUSH1 0x1F DUP3 GT ISZERO PUSH2 0x9D8 JUMPI PUSH2 0x9A9 DUP2 PUSH2 0x878 JUMP JUMPDEST PUSH2 0x9B2 DUP5 PUSH2 0x88D JUMP JUMPDEST DUP2 ADD PUSH1 0x20 DUP6 LT ISZERO PUSH2 0x9C1 JUMPI DUP2 SWAP1 POP JUMPDEST PUSH2 0x9D5 PUSH2 0x9CD DUP6 PUSH2 0x88D JUMP JUMPDEST DUP4 ADD DUP3 PUSH2 0x974 JUMP JUMPDEST POP POP JUMPDEST POP POP POP JUMP JUMPDEST PUSH1 0x0 DUP3 DUP3 SHR SWAP1 POP SWAP3 SWAP2 POP POP JUMP JUMPDEST PUSH1 0x0 PUSH2 0x9FB PUSH1 0x0 NOT DUP5 PUSH1 0x8 MUL PUSH2 0x9DD JUMP JUMPDEST NOT DUP1 DUP4 AND SWAP2 POP POP SWAP3 SWAP2 POP POP JUMP JUMPDEST PUSH1 0x0 PUSH2 0xA14 DUP4 DUP4 PUSH2 0x9EA JUMP JUMPDEST SWAP2 POP DUP3 PUSH1 0x2 MUL DUP3 OR SWAP1 POP SWAP3 SWAP2 POP POP JUMP JUMPDEST PUSH2 0xA2D DUP3 PUSH2 0x542 JUMP JUMPDEST PUSH8 0xFFFFFFFFFFFFFFFF DUP2 GT ISZERO PUSH2 0xA46 JUMPI PUSH2 0xA45 PUSH2 0x3CE JUMP JUMPDEST JUMPDEST PUSH2 0xA50 DUP3 SLOAD PUSH2 0x847 JUMP JUMPDEST PUSH2 0xA5B DUP3 DUP3 DUP6 PUSH2 0x997 JUMP JUMPDEST PUSH1 0x0 PUSH1 0x20 SWAP1 POP PUSH1 0x1F DUP4 GT PUSH1 0x1 DUP2 EQ PUSH2 0xA8E JUMPI PUSH1 0x0 DUP5 ISZERO PUSH2 0xA7C JUMPI DUP3 DUP8 ADD MLOAD SWAP1 POP JUMPDEST PUSH2 0xA86 DUP6 DUP3 PUSH2 0xA08 JUMP JUMPDEST DUP7 SSTORE POP PUSH2 0xAEE JUMP JUMPDEST PUSH1 0x1F NOT DUP5 AND PUSH2 0xA9C DUP7 PUSH2 0x878 JUMP JUMPDEST PUSH1 0x0 JUMPDEST DUP3 DUP2 LT ISZERO PUSH2 0xAC4 JUMPI DUP5 DUP10 ADD MLOAD DUP3 SSTORE PUSH1 0x1 DUP3 ADD SWAP2 POP PUSH1 0x20 DUP6 ADD SWAP5 POP PUSH1 0x20 DUP2 ADD SWAP1 POP PUSH2 0xA9F JUMP JUMPDEST DUP7 DUP4 LT ISZERO PUSH2 0xAE1 JUMPI DUP5 DUP10 ADD MLOAD PUSH2 0xADD PUSH1 0x1F DUP10 AND DUP3 PUSH2 0x9EA JUMP JUMPDEST DUP4 SSTORE POP JUMPDEST PUSH1 0x1 PUSH1 0x2 DUP9 MUL ADD DUP9 SSTORE POP POP POP JUMPDEST POP POP POP POP POP POP JUMP JUMPDEST PUSH1 0x0 DUP2 SWAP1 POP SWAP3 SWAP2 POP POP JUMP JUMPDEST PUSH1 0x0 DUP2 SLOAD PUSH2 0xB0E DUP2 PUSH2 0x847 JUMP JUMPDEST PUSH2 0xB18 DUP2 DUP7 PUSH2 0xAF6 JUMP JUMPDEST SWAP5 POP PUSH1 0x1 DUP3 AND PUSH1 0x0 DUP2 EQ PUSH2 0xB33 JUMPI PUSH1 0x1 DUP2 EQ PUSH2 0xB48 JUMPI PUSH2 0xB7B JUMP JUMPDEST PUSH1 0xFF NOT DUP4 AND DUP7 MSTORE DUP2 ISZERO ISZERO DUP3 MUL DUP7 ADD SWAP4 POP PUSH2 0xB7B JUMP JUMPDEST PUSH2 0xB51 DUP6 PUSH2 0x878 JUMP JUMPDEST PUSH1 0x0 JUMPDEST DUP4 DUP2 LT ISZERO PUSH2 0xB73 JUMPI DUP2 SLOAD DUP2 DUP10 ADD MSTORE PUSH1 0x1 DUP3 ADD SWAP2 POP PUSH1 0x20 DUP2 ADD SWAP1 POP PUSH2 0xB54 JUMP JUMPDEST DUP4 DUP9 ADD SWAP6 POP POP POP JUMPDEST POP POP POP SWAP3 SWAP2 POP POP JUMP JUMPDEST PUSH1 0x0 PUSH2 0xB90 DUP3 DUP5 PUSH2 0xB01 JUMP JUMPDEST SWAP2 POP DUP2 SWAP1 POP SWAP3 SWAP2 POP POP JUMP JUMPDEST PUSH32 0x4E487B7100000000000000000000000000000000000000000000000000000000 PUSH1 0x0 MSTORE PUSH1 0x32 PUSH1 0x4 MSTORE PUSH1 0x24 PUSH1 0x0 REVERT JUMPDEST PUSH32 0x4E487B7100000000000000000000000000000000000000000000000000000000 PUSH1 0x0 MSTORE PUSH1 0x11 PUSH1 0x4 MSTORE PUSH1 0x24 PUSH1 0x0 REVERT JUMPDEST PUSH1 0x0 PUSH2 0xC04 DUP3 PUSH2 0x5E3 JUMP JUMPDEST SWAP2 POP PUSH32 0xFFFFFFFFFFFFFFFFFFFFFFFFFFFFFFFFFFFFFFFFFFFFFFFFFFFFFFFFFFFFFFFF DUP3 SUB PUSH2 0xC36 JUMPI PUSH2 0xC35 PUSH2 0xBCA JUMP JUMPDEST JUMPDEST PUSH1 0x1 DUP3 ADD SWAP1 POP SWAP2 SWAP1 POP JUMP JUMPDEST PUSH1 0x0 PUSH1 0xFF DUP3 AND SWAP1 POP SWAP2 SWAP1 POP JUMP JUMPDEST PUSH1 0x0 PUSH2 0xC59 DUP3 PUSH2 0xC41 JUMP JUMPDEST SWAP2 POP PUSH2 0xC64 DUP4 PUSH2 0xC41 JUMP JUMPDEST SWAP3 POP DUP3 DUP3 SUB SWAP1 POP PUSH1 0xFF DUP2 GT ISZERO PUSH2 0xC7D JUMPI PUSH2 0xC7C PUSH2 0xBCA JUMP JUMPDEST JUMPDEST SWAP3 SWAP2 POP POP JUMP INVALID LOG2 PUSH5 0x6970667358 0x22 SLT KECCAK256 0xBB 0xBC ORIGIN LOG1 0xEF SLT 0x5C SWAP6 SIGNEXTEND 0xA9 0xD6 PUSH8 0xE358EA35FCB7DF58 STOP PUSH16 0x89653A7BB1A18727669A64736F6C6343 STOP ADDMOD SLT STOP CALLER "
				},
				"gasEstimates": {
					"creation": {
						"codeDepositCost": "651400",
						"executionCost": "683",
						"totalCost": "652083"
					},
					"external": {
						"converter(string)": "infinite",
						"getStakingAndBuyingTokenPrices()": "infinite",
						"setNairaUSDTicker(string)": "infinite"
					},
					"internal": {
						"_upper(bytes1)": "infinite",
						"upper(string memory)": "infinite"
					}
				},
				"methodIdentifiers": {
					"converter(string)": "94a72f1c",
					"getStakingAndBuyingTokenPrices()": "fc3a49e0",
					"setNairaUSDTicker(string)": "267561c8"
				}
			},
			"storageLayout": {
				"storage": [
					{
						"astId": 231,
						"contract": "smart contract/SwapCryptoLoanUpdate/contracts/facets/PriceOracleFacet.sol:PriceOracleFacet",
						"label": "s",
						"offset": 0,
						"slot": "0",
						"type": "t_struct(AppStorage)223_storage"
					}
				],
				"types": {
					"t_address": {
						"encoding": "inplace",
						"label": "address",
						"numberOfBytes": "20"
					},
					"t_array(t_address)dyn_storage": {
						"base": "t_address",
						"encoding": "dynamic_array",
						"label": "address[]",
						"numberOfBytes": "32"
					},
					"t_bool": {
						"encoding": "inplace",
						"label": "bool",
						"numberOfBytes": "1"
					},
					"t_bytes_memory_ptr": {
						"encoding": "bytes",
						"label": "bytes",
						"numberOfBytes": "32"
					},
					"t_bytes_storage": {
						"encoding": "bytes",
						"label": "bytes",
						"numberOfBytes": "32"
					},
					"t_mapping(t_address,t_address)": {
						"encoding": "mapping",
						"key": "t_address",
						"label": "mapping(address => address)",
						"numberOfBytes": "32",
						"value": "t_address"
					},
					"t_mapping(t_address,t_array(t_address)dyn_storage)": {
						"encoding": "mapping",
						"key": "t_address",
						"label": "mapping(address => address[])",
						"numberOfBytes": "32",
						"value": "t_array(t_address)dyn_storage"
					},
					"t_mapping(t_address,t_bool)": {
						"encoding": "mapping",
						"key": "t_address",
						"label": "mapping(address => bool)",
						"numberOfBytes": "32",
						"value": "t_bool"
					},
					"t_mapping(t_address,t_bytes_storage)": {
						"encoding": "mapping",
						"key": "t_address",
						"label": "mapping(address => bytes)",
						"numberOfBytes": "32",
						"value": "t_bytes_storage"
					},
					"t_mapping(t_address,t_mapping(t_bool,t_uint256))": {
						"encoding": "mapping",
						"key": "t_address",
						"label": "mapping(address => mapping(bool => uint256))",
						"numberOfBytes": "32",
						"value": "t_mapping(t_bool,t_uint256)"
					},
					"t_mapping(t_address,t_uint256)": {
						"encoding": "mapping",
						"key": "t_address",
						"label": "mapping(address => uint256)",
						"numberOfBytes": "32",
						"value": "t_uint256"
					},
					"t_mapping(t_bool,t_uint256)": {
						"encoding": "mapping",
						"key": "t_bool",
						"label": "mapping(bool => uint256)",
						"numberOfBytes": "32",
						"value": "t_uint256"
					},
					"t_mapping(t_bytes_memory_ptr,t_address)": {
						"encoding": "mapping",
						"key": "t_bytes_memory_ptr",
						"label": "mapping(bytes => address)",
						"numberOfBytes": "32",
						"value": "t_address"
					},
					"t_mapping(t_bytes_memory_ptr,t_bool)": {
						"encoding": "mapping",
						"key": "t_bytes_memory_ptr",
						"label": "mapping(bytes => bool)",
						"numberOfBytes": "32",
						"value": "t_bool"
					},
					"t_mapping(t_bytes_memory_ptr,t_mapping(t_address,t_uint256))": {
						"encoding": "mapping",
						"key": "t_bytes_memory_ptr",
						"label": "mapping(bytes => mapping(address => uint256))",
						"numberOfBytes": "32",
						"value": "t_mapping(t_address,t_uint256)"
					},
					"t_mapping(t_bytes_memory_ptr,t_uint256)": {
						"encoding": "mapping",
						"key": "t_bytes_memory_ptr",
						"label": "mapping(bytes => uint256)",
						"numberOfBytes": "32",
						"value": "t_uint256"
					},
					"t_mapping(t_uint256,t_address)": {
						"encoding": "mapping",
						"key": "t_uint256",
						"label": "mapping(uint256 => address)",
						"numberOfBytes": "32",
						"value": "t_address"
					},
					"t_mapping(t_uint256,t_mapping(t_address,t_bool))": {
						"encoding": "mapping",
						"key": "t_uint256",
						"label": "mapping(uint256 => mapping(address => bool))",
						"numberOfBytes": "32",
						"value": "t_mapping(t_address,t_bool)"
					},
					"t_mapping(t_uint256,t_mapping(t_address,t_uint256))": {
						"encoding": "mapping",
						"key": "t_uint256",
						"label": "mapping(uint256 => mapping(address => uint256))",
						"numberOfBytes": "32",
						"value": "t_mapping(t_address,t_uint256)"
					},
					"t_mapping(t_uint256,t_mapping(t_uint256,t_address))": {
						"encoding": "mapping",
						"key": "t_uint256",
						"label": "mapping(uint256 => mapping(uint256 => address))",
						"numberOfBytes": "32",
						"value": "t_mapping(t_uint256,t_address)"
					},
					"t_mapping(t_uint256,t_mapping(t_uint256,t_uint256))": {
						"encoding": "mapping",
						"key": "t_uint256",
						"label": "mapping(uint256 => mapping(uint256 => uint256))",
						"numberOfBytes": "32",
						"value": "t_mapping(t_uint256,t_uint256)"
					},
					"t_mapping(t_uint256,t_uint256)": {
						"encoding": "mapping",
						"key": "t_uint256",
						"label": "mapping(uint256 => uint256)",
						"numberOfBytes": "32",
						"value": "t_uint256"
					},
					"t_struct(AppStorage)223_storage": {
						"encoding": "inplace",
						"label": "struct AppStorage",
						"members": [
							{
								"astId": 5,
								"contract": "smart contract/SwapCryptoLoanUpdate/contracts/facets/PriceOracleFacet.sol:PriceOracleFacet",
								"label": "ticker",
								"offset": 0,
								"slot": "0",
								"type": "t_mapping(t_bytes_memory_ptr,t_uint256)"
							},
							{
								"astId": 9,
								"contract": "smart contract/SwapCryptoLoanUpdate/contracts/facets/PriceOracleFacet.sol:PriceOracleFacet",
								"label": "pythia",
								"offset": 0,
								"slot": "1",
								"type": "t_mapping(t_address,t_bool)"
							},
							{
								"astId": 14,
								"contract": "smart contract/SwapCryptoLoanUpdate/contracts/facets/PriceOracleFacet.sol:PriceOracleFacet",
								"label": "myReferrals",
								"offset": 0,
								"slot": "2",
								"type": "t_mapping(t_address,t_array(t_address)dyn_storage)"
							},
							{
								"astId": 18,
								"contract": "smart contract/SwapCryptoLoanUpdate/contracts/facets/PriceOracleFacet.sol:PriceOracleFacet",
								"label": "staffId",
								"offset": 0,
								"slot": "3",
								"type": "t_mapping(t_address,t_uint256)"
							},
							{
								"astId": 20,
								"contract": "smart contract/SwapCryptoLoanUpdate/contracts/facets/PriceOracleFacet.sol:PriceOracleFacet",
								"label": "eusdAddr",
								"offset": 0,
								"slot": "4",
								"type": "t_address"
							},
							{
								"astId": 22,
								"contract": "smart contract/SwapCryptoLoanUpdate/contracts/facets/PriceOracleFacet.sol:PriceOracleFacet",
								"label": "egcAddr",
								"offset": 0,
								"slot": "5",
								"type": "t_address"
							},
							{
								"astId": 24,
								"contract": "smart contract/SwapCryptoLoanUpdate/contracts/facets/PriceOracleFacet.sol:PriceOracleFacet",
								"label": "egcusd",
								"offset": 0,
								"slot": "6",
								"type": "t_bytes_storage"
							},
							{
								"astId": 28,
								"contract": "smart contract/SwapCryptoLoanUpdate/contracts/facets/PriceOracleFacet.sol:PriceOracleFacet",
								"label": "member",
								"offset": 0,
								"slot": "7",
								"type": "t_mapping(t_address,t_bool)"
							},
							{
								"astId": 32,
								"contract": "smart contract/SwapCryptoLoanUpdate/contracts/facets/PriceOracleFacet.sol:PriceOracleFacet",
								"label": "plan",
								"offset": 0,
								"slot": "8",
								"type": "t_mapping(t_uint256,t_uint256)"
							},
							{
								"astId": 36,
								"contract": "smart contract/SwapCryptoLoanUpdate/contracts/facets/PriceOracleFacet.sol:PriceOracleFacet",
								"label": "stakingPlan",
								"offset": 0,
								"slot": "9",
								"type": "t_mapping(t_uint256,t_uint256)"
							},
							{
								"astId": 40,
								"contract": "smart contract/SwapCryptoLoanUpdate/contracts/facets/PriceOracleFacet.sol:PriceOracleFacet",
								"label": "expiryDate",
								"offset": 0,
								"slot": "10",
								"type": "t_mapping(t_address,t_uint256)"
							},
							{
								"astId": 44,
								"contract": "smart contract/SwapCryptoLoanUpdate/contracts/facets/PriceOracleFacet.sol:PriceOracleFacet",
								"label": "userTotalStake",
								"offset": 0,
								"slot": "11",
								"type": "t_mapping(t_address,t_uint256)"
							},
							{
								"astId": 48,
								"contract": "smart contract/SwapCryptoLoanUpdate/contracts/facets/PriceOracleFacet.sol:PriceOracleFacet",
								"label": "userTotalStakeUsd",
								"offset": 0,
								"slot": "12",
								"type": "t_mapping(t_address,t_uint256)"
							},
							{
								"astId": 52,
								"contract": "smart contract/SwapCryptoLoanUpdate/contracts/facets/PriceOracleFacet.sol:PriceOracleFacet",
								"label": "dailyRoyalty",
								"offset": 0,
								"slot": "13",
								"type": "t_mapping(t_address,t_uint256)"
							},
							{
								"astId": 56,
								"contract": "smart contract/SwapCryptoLoanUpdate/contracts/facets/PriceOracleFacet.sol:PriceOracleFacet",
								"label": "lockPeriod",
								"offset": 0,
								"slot": "14",
								"type": "t_mapping(t_address,t_uint256)"
							},
							{
								"astId": 60,
								"contract": "smart contract/SwapCryptoLoanUpdate/contracts/facets/PriceOracleFacet.sol:PriceOracleFacet",
								"label": "nextRoyaltyTakePeriod",
								"offset": 0,
								"slot": "15",
								"type": "t_mapping(t_address,t_uint256)"
							},
							{
								"astId": 64,
								"contract": "smart contract/SwapCryptoLoanUpdate/contracts/facets/PriceOracleFacet.sol:PriceOracleFacet",
								"label": "totalRoyaltyTaken",
								"offset": 0,
								"slot": "16",
								"type": "t_mapping(t_address,t_uint256)"
							},
							{
								"astId": 70,
								"contract": "smart contract/SwapCryptoLoanUpdate/contracts/facets/PriceOracleFacet.sol:PriceOracleFacet",
								"label": "userTotalSwap",
								"offset": 0,
								"slot": "17",
								"type": "t_mapping(t_address,t_mapping(t_bool,t_uint256))"
							},
							{
								"astId": 74,
								"contract": "smart contract/SwapCryptoLoanUpdate/contracts/facets/PriceOracleFacet.sol:PriceOracleFacet",
								"label": "totalSwap",
								"offset": 0,
								"slot": "18",
								"type": "t_mapping(t_bool,t_uint256)"
							},
							{
								"astId": 76,
								"contract": "smart contract/SwapCryptoLoanUpdate/contracts/facets/PriceOracleFacet.sol:PriceOracleFacet",
								"label": "_priceOracle",
								"offset": 0,
								"slot": "19",
								"type": "t_address"
							},
							{
								"astId": 78,
								"contract": "smart contract/SwapCryptoLoanUpdate/contracts/facets/PriceOracleFacet.sol:PriceOracleFacet",
								"label": "_price",
								"offset": 0,
								"slot": "20",
								"type": "t_bytes_storage"
							},
							{
								"astId": 80,
								"contract": "smart contract/SwapCryptoLoanUpdate/contracts/facets/PriceOracleFacet.sol:PriceOracleFacet",
								"label": "nextSpillIndex",
								"offset": 0,
								"slot": "21",
								"type": "t_uint256"
							},
							{
								"astId": 84,
								"contract": "smart contract/SwapCryptoLoanUpdate/contracts/facets/PriceOracleFacet.sol:PriceOracleFacet",
								"label": "referredBy",
								"offset": 0,
								"slot": "22",
								"type": "t_mapping(t_address,t_address)"
							},
							{
								"astId": 88,
								"contract": "smart contract/SwapCryptoLoanUpdate/contracts/facets/PriceOracleFacet.sol:PriceOracleFacet",
								"label": "referralRewardBalance",
								"offset": 0,
								"slot": "23",
								"type": "t_mapping(t_address,t_uint256)"
							},
							{
								"astId": 92,
								"contract": "smart contract/SwapCryptoLoanUpdate/contracts/facets/PriceOracleFacet.sol:PriceOracleFacet",
								"label": "referralCount",
								"offset": 0,
								"slot": "24",
								"type": "t_mapping(t_address,t_uint256)"
							},
							{
								"astId": 96,
								"contract": "smart contract/SwapCryptoLoanUpdate/contracts/facets/PriceOracleFacet.sol:PriceOracleFacet",
								"label": "alreadyMember",
								"offset": 0,
								"slot": "25",
								"type": "t_mapping(t_address,t_bool)"
							},
							{
								"astId": 98,
								"contract": "smart contract/SwapCryptoLoanUpdate/contracts/facets/PriceOracleFacet.sol:PriceOracleFacet",
								"label": "referralBurnBalance",
								"offset": 0,
								"slot": "26",
								"type": "t_uint256"
							},
							{
								"astId": 102,
								"contract": "smart contract/SwapCryptoLoanUpdate/contracts/facets/PriceOracleFacet.sol:PriceOracleFacet",
								"label": "referralLink",
								"offset": 0,
								"slot": "27",
								"type": "t_mapping(t_address,t_bytes_storage)"
							},
							{
								"astId": 106,
								"contract": "smart contract/SwapCryptoLoanUpdate/contracts/facets/PriceOracleFacet.sol:PriceOracleFacet",
								"label": "referralAddress",
								"offset": 0,
								"slot": "28",
								"type": "t_mapping(t_bytes_memory_ptr,t_address)"
							},
							{
								"astId": 110,
								"contract": "smart contract/SwapCryptoLoanUpdate/contracts/facets/PriceOracleFacet.sol:PriceOracleFacet",
								"label": "token_address",
								"offset": 0,
								"slot": "29",
								"type": "t_mapping(t_bytes_memory_ptr,t_address)"
							},
							{
								"astId": 114,
								"contract": "smart contract/SwapCryptoLoanUpdate/contracts/facets/PriceOracleFacet.sol:PriceOracleFacet",
								"label": "fee",
								"offset": 0,
								"slot": "30",
								"type": "t_mapping(t_bytes_memory_ptr,t_uint256)"
							},
							{
								"astId": 118,
								"contract": "smart contract/SwapCryptoLoanUpdate/contracts/facets/PriceOracleFacet.sol:PriceOracleFacet",
								"label": "isListed",
								"offset": 0,
								"slot": "31",
								"type": "t_mapping(t_bytes_memory_ptr,t_bool)"
							},
							{
								"astId": 124,
								"contract": "smart contract/SwapCryptoLoanUpdate/contracts/facets/PriceOracleFacet.sol:PriceOracleFacet",
								"label": "liquidity",
								"offset": 0,
								"slot": "32",
								"type": "t_mapping(t_bytes_memory_ptr,t_mapping(t_address,t_uint256))"
							},
							{
								"astId": 130,
								"contract": "smart contract/SwapCryptoLoanUpdate/contracts/facets/PriceOracleFacet.sol:PriceOracleFacet",
								"label": "soldProductAmount",
								"offset": 0,
								"slot": "33",
								"type": "t_mapping(t_uint256,t_mapping(t_uint256,t_uint256))"
							},
							{
								"astId": 136,
								"contract": "smart contract/SwapCryptoLoanUpdate/contracts/facets/PriceOracleFacet.sol:PriceOracleFacet",
								"label": "soldProductBuyer",
								"offset": 0,
								"slot": "34",
								"type": "t_mapping(t_uint256,t_mapping(t_uint256,t_address))"
							},
							{
								"astId": 138,
								"contract": "smart contract/SwapCryptoLoanUpdate/contracts/facets/PriceOracleFacet.sol:PriceOracleFacet",
								"label": "totalStake",
								"offset": 0,
								"slot": "35",
								"type": "t_uint256"
							},
							{
								"astId": 140,
								"contract": "smart contract/SwapCryptoLoanUpdate/contracts/facets/PriceOracleFacet.sol:PriceOracleFacet",
								"label": "totalPenaltyStake",
								"offset": 0,
								"slot": "36",
								"type": "t_uint256"
							},
							{
								"astId": 142,
								"contract": "smart contract/SwapCryptoLoanUpdate/contracts/facets/PriceOracleFacet.sol:PriceOracleFacet",
								"label": "totalUnStake",
								"offset": 0,
								"slot": "37",
								"type": "t_uint256"
							},
							{
								"astId": 144,
								"contract": "smart contract/SwapCryptoLoanUpdate/contracts/facets/PriceOracleFacet.sol:PriceOracleFacet",
								"label": "initProductCount",
								"offset": 0,
								"slot": "38",
								"type": "t_uint256"
							},
							{
								"astId": 150,
								"contract": "smart contract/SwapCryptoLoanUpdate/contracts/facets/PriceOracleFacet.sol:PriceOracleFacet",
								"label": "userActivity",
								"offset": 0,
								"slot": "39",
								"type": "t_mapping(t_uint256,t_mapping(t_address,t_uint256))"
							},
							{
								"astId": 154,
								"contract": "smart contract/SwapCryptoLoanUpdate/contracts/facets/PriceOracleFacet.sol:PriceOracleFacet",
								"label": "allUserActivity",
								"offset": 0,
								"slot": "40",
								"type": "t_mapping(t_address,t_uint256)"
							},
							{
								"astId": 158,
								"contract": "smart contract/SwapCryptoLoanUpdate/contracts/facets/PriceOracleFacet.sol:PriceOracleFacet",
								"label": "currentAllActivity",
								"offset": 0,
								"slot": "41",
								"type": "t_mapping(t_uint256,t_uint256)"
							},
							{
								"astId": 160,
								"contract": "smart contract/SwapCryptoLoanUpdate/contracts/facets/PriceOracleFacet.sol:PriceOracleFacet",
								"label": "allActivity",
								"offset": 0,
								"slot": "42",
								"type": "t_uint256"
							},
							{
								"astId": 162,
								"contract": "smart contract/SwapCryptoLoanUpdate/contracts/facets/PriceOracleFacet.sol:PriceOracleFacet",
								"label": "rewardPeriod",
								"offset": 0,
								"slot": "43",
								"type": "t_uint256"
							},
							{
								"astId": 164,
								"contract": "smart contract/SwapCryptoLoanUpdate/contracts/facets/PriceOracleFacet.sol:PriceOracleFacet",
								"label": "nextRewardPeriod",
								"offset": 0,
								"slot": "44",
								"type": "t_uint256"
							},
							{
								"astId": 170,
								"contract": "smart contract/SwapCryptoLoanUpdate/contracts/facets/PriceOracleFacet.sol:PriceOracleFacet",
								"label": "currentPerfomers",
								"offset": 0,
								"slot": "45",
								"type": "t_mapping(t_uint256,t_mapping(t_address,t_bool))"
							},
							{
								"astId": 172,
								"contract": "smart contract/SwapCryptoLoanUpdate/contracts/facets/PriceOracleFacet.sol:PriceOracleFacet",
								"label": "totalRewardTokenRemaining",
								"offset": 0,
								"slot": "46",
								"type": "t_uint256"
							},
							{
								"astId": 174,
								"contract": "smart contract/SwapCryptoLoanUpdate/contracts/facets/PriceOracleFacet.sol:PriceOracleFacet",
								"label": "totalRewardDistributed",
								"offset": 0,
								"slot": "47",
								"type": "t_uint256"
							},
							{
								"astId": 178,
								"contract": "smart contract/SwapCryptoLoanUpdate/contracts/facets/PriceOracleFacet.sol:PriceOracleFacet",
								"label": "userTotalRewardRecieved",
								"offset": 0,
								"slot": "48",
								"type": "t_mapping(t_address,t_uint256)"
							},
							{
								"astId": 182,
								"contract": "smart contract/SwapCryptoLoanUpdate/contracts/facets/PriceOracleFacet.sol:PriceOracleFacet",
								"label": "lockedRewardForStaking",
								"offset": 0,
								"slot": "49",
								"type": "t_mapping(t_address,t_uint256)"
							},
							{
								"astId": 184,
								"contract": "smart contract/SwapCryptoLoanUpdate/contracts/facets/PriceOracleFacet.sol:PriceOracleFacet",
								"label": "stakingPlanForSixMonths",
								"offset": 0,
								"slot": "50",
								"type": "t_uint256"
							},
							{
								"astId": 188,
								"contract": "smart contract/SwapCryptoLoanUpdate/contracts/facets/PriceOracleFacet.sol:PriceOracleFacet",
								"label": "dealersPlan",
								"offset": 0,
								"slot": "51",
								"type": "t_mapping(t_uint256,t_uint256)"
							},
							{
								"astId": 190,
								"contract": "smart contract/SwapCryptoLoanUpdate/contracts/facets/PriceOracleFacet.sol:PriceOracleFacet",
								"label": "_token_addres",
								"offset": 0,
								"slot": "52",
								"type": "t_address"
							},
							{
								"astId": 194,
								"contract": "smart contract/SwapCryptoLoanUpdate/contracts/facets/PriceOracleFacet.sol:PriceOracleFacet",
								"label": "dealerExpiryDate",
								"offset": 0,
								"slot": "53",
								"type": "t_mapping(t_address,t_uint256)"
							},
							{
								"astId": 198,
								"contract": "smart contract/SwapCryptoLoanUpdate/contracts/facets/PriceOracleFacet.sol:PriceOracleFacet",
								"label": "isADealer",
								"offset": 0,
								"slot": "54",
								"type": "t_mapping(t_address,t_bool)"
							},
							{
								"astId": 202,
								"contract": "smart contract/SwapCryptoLoanUpdate/contracts/facets/PriceOracleFacet.sol:PriceOracleFacet",
								"label": "dealerPlan",
								"offset": 0,
								"slot": "55",
								"type": "t_mapping(t_address,t_uint256)"
							},
							{
								"astId": 204,
								"contract": "smart contract/SwapCryptoLoanUpdate/contracts/facets/PriceOracleFacet.sol:PriceOracleFacet",
								"label": "dealerSubcriptionCollector",
								"offset": 0,
								"slot": "56",
								"type": "t_address"
							},
							{
								"astId": 208,
								"contract": "smart contract/SwapCryptoLoanUpdate/contracts/facets/PriceOracleFacet.sol:PriceOracleFacet",
								"label": "referralDealerRewardBalance",
								"offset": 0,
								"slot": "57",
								"type": "t_mapping(t_address,t_uint256)"
							},
							{
								"astId": 210,
								"contract": "smart contract/SwapCryptoLoanUpdate/contracts/facets/PriceOracleFacet.sol:PriceOracleFacet",
								"label": "dealerSubcriptionCollectorBalance",
								"offset": 0,
								"slot": "58",
								"type": "t_uint256"
							},
							{
								"astId": 214,
								"contract": "smart contract/SwapCryptoLoanUpdate/contracts/facets/PriceOracleFacet.sol:PriceOracleFacet",
								"label": "deallerReferredBy",
								"offset": 0,
								"slot": "59",
								"type": "t_mapping(t_address,t_address)"
							},
							{
								"astId": 218,
								"contract": "smart contract/SwapCryptoLoanUpdate/contracts/facets/PriceOracleFacet.sol:PriceOracleFacet",
								"label": "deallerReferralCount",
								"offset": 0,
								"slot": "60",
								"type": "t_mapping(t_address,t_uint256)"
							},
							{
								"astId": 220,
								"contract": "smart contract/SwapCryptoLoanUpdate/contracts/facets/PriceOracleFacet.sol:PriceOracleFacet",
								"label": "naira",
								"offset": 0,
								"slot": "61",
								"type": "t_bytes_storage"
							},
							{
								"astId": 222,
								"contract": "smart contract/SwapCryptoLoanUpdate/contracts/facets/PriceOracleFacet.sol:PriceOracleFacet",
								"label": "totalProcurementAmount",
								"offset": 0,
								"slot": "62",
								"type": "t_uint256"
							}
						],
						"numberOfBytes": "2016"
					},
					"t_uint256": {
						"encoding": "inplace",
						"label": "uint256",
						"numberOfBytes": "32"
					}
				}
			},
			"userdoc": {
				"kind": "user",
				"methods": {},
				"version": 1
			}
		}
	}
}