{
	"smart contract/SwapCryptoLoanUpdate/contracts/libraries/Utils.sol": {
		"Utils": {
			"abi": [
				{
					"inputs": [
						{
							"internalType": "uint256",
							"name": "timestamp",
							"type": "uint256"
						}
					],
					"name": "getDay",
					"outputs": [
						{
							"internalType": "uint8",
							"name": "",
							"type": "uint8"
						}
					],
					"stateMutability": "pure",
					"type": "function"
				},
				{
					"inputs": [
						{
							"internalType": "uint8",
							"name": "month",
							"type": "uint8"
						},
						{
							"internalType": "uint16",
							"name": "year",
							"type": "uint16"
						}
					],
					"name": "getDaysInMonth",
					"outputs": [
						{
							"internalType": "uint8",
							"name": "",
							"type": "uint8"
						}
					],
					"stateMutability": "pure",
					"type": "function"
				},
				{
					"inputs": [
						{
							"internalType": "uint256",
							"name": "start",
							"type": "uint256"
						},
						{
							"internalType": "uint256",
							"name": "end",
							"type": "uint256"
						}
					],
					"name": "getDiff",
					"outputs": [
						{
							"internalType": "uint256",
							"name": "",
							"type": "uint256"
						}
					],
					"stateMutability": "pure",
					"type": "function"
				},
				{
					"inputs": [
						{
							"internalType": "uint256",
							"name": "timestamp",
							"type": "uint256"
						}
					],
					"name": "getHour",
					"outputs": [
						{
							"internalType": "uint8",
							"name": "",
							"type": "uint8"
						}
					],
					"stateMutability": "pure",
					"type": "function"
				},
				{
					"inputs": [
						{
							"internalType": "uint256",
							"name": "timestamp",
							"type": "uint256"
						}
					],
					"name": "getMinute",
					"outputs": [
						{
							"internalType": "uint8",
							"name": "",
							"type": "uint8"
						}
					],
					"stateMutability": "pure",
					"type": "function"
				},
				{
					"inputs": [
						{
							"internalType": "uint256",
							"name": "timestamp",
							"type": "uint256"
						}
					],
					"name": "getMonth",
					"outputs": [
						{
							"internalType": "uint8",
							"name": "",
							"type": "uint8"
						}
					],
					"stateMutability": "pure",
					"type": "function"
				},
				{
					"inputs": [
						{
							"internalType": "uint256",
							"name": "timestamp",
							"type": "uint256"
						}
					],
					"name": "getSecond",
					"outputs": [
						{
							"internalType": "uint8",
							"name": "",
							"type": "uint8"
						}
					],
					"stateMutability": "pure",
					"type": "function"
				},
				{
					"inputs": [
						{
							"internalType": "uint256",
							"name": "timestamp",
							"type": "uint256"
						}
					],
					"name": "getWeekday",
					"outputs": [
						{
							"internalType": "uint8",
							"name": "",
							"type": "uint8"
						}
					],
					"stateMutability": "pure",
					"type": "function"
				},
				{
					"inputs": [
						{
							"internalType": "uint256",
							"name": "timestamp",
							"type": "uint256"
						}
					],
					"name": "getYear",
					"outputs": [
						{
							"internalType": "uint16",
							"name": "",
							"type": "uint16"
						}
					],
					"stateMutability": "pure",
					"type": "function"
				},
				{
					"inputs": [
						{
							"internalType": "uint16",
							"name": "year",
							"type": "uint16"
						}
					],
					"name": "isLeapYear",
					"outputs": [
						{
							"internalType": "bool",
							"name": "",
							"type": "bool"
						}
					],
					"stateMutability": "pure",
					"type": "function"
				},
				{
					"inputs": [
						{
							"internalType": "uint256",
							"name": "year",
							"type": "uint256"
						}
					],
					"name": "leapYearsBefore",
					"outputs": [
						{
							"internalType": "uint256",
							"name": "",
							"type": "uint256"
						}
					],
					"stateMutability": "pure",
					"type": "function"
				},
				{
					"inputs": [
						{
							"internalType": "uint16",
							"name": "year",
							"type": "uint16"
						},
						{
							"internalType": "uint8",
							"name": "month",
							"type": "uint8"
						},
						{
							"internalType": "uint8",
							"name": "day",
							"type": "uint8"
						},
						{
							"internalType": "uint8",
							"name": "hour",
							"type": "uint8"
						},
						{
							"internalType": "uint8",
							"name": "minute",
							"type": "uint8"
						}
					],
					"name": "toTimestamp",
					"outputs": [
						{
							"internalType": "uint256",
							"name": "timestamp",
							"type": "uint256"
						}
					],
					"stateMutability": "pure",
					"type": "function"
				},
				{
					"inputs": [
						{
							"internalType": "uint16",
							"name": "year",
							"type": "uint16"
						},
						{
							"internalType": "uint8",
							"name": "month",
							"type": "uint8"
						},
						{
							"internalType": "uint8",
							"name": "day",
							"type": "uint8"
						},
						{
							"internalType": "uint8",
							"name": "hour",
							"type": "uint8"
						}
					],
					"name": "toTimestamp",
					"outputs": [
						{
							"internalType": "uint256",
							"name": "timestamp",
							"type": "uint256"
						}
					],
					"stateMutability": "pure",
					"type": "function"
				},
				{
					"inputs": [
						{
							"internalType": "uint16",
							"name": "year",
							"type": "uint16"
						},
						{
							"internalType": "uint8",
							"name": "month",
							"type": "uint8"
						},
						{
							"internalType": "uint8",
							"name": "day",
							"type": "uint8"
						}
					],
					"name": "toTimestamp",
					"outputs": [
						{
							"internalType": "uint256",
							"name": "timestamp",
							"type": "uint256"
						}
					],
					"stateMutability": "pure",
					"type": "function"
				},
				{
					"inputs": [
						{
							"internalType": "uint16",
							"name": "year",
							"type": "uint16"
						},
						{
							"internalType": "uint8",
							"name": "month",
							"type": "uint8"
						},
						{
							"internalType": "uint8",
							"name": "day",
							"type": "uint8"
						},
						{
							"internalType": "uint8",
							"name": "hour",
							"type": "uint8"
						},
						{
							"internalType": "uint8",
							"name": "minute",
							"type": "uint8"
						},
						{
							"internalType": "uint8",
							"name": "second",
							"type": "uint8"
						}
					],
					"name": "toTimestamp",
					"outputs": [
						{
							"internalType": "uint256",
							"name": "timestamp",
							"type": "uint256"
						}
					],
					"stateMutability": "pure",
					"type": "function"
				}
			],
			"devdoc": {
				"kind": "dev",
				"methods": {},
				"version": 1
			},
			"evm": {
				"assembly": "    /* \"smart contract/SwapCryptoLoanUpdate/contracts/libraries/Utils.sol\":126:7454  library Utils {... */\n  dataSize(sub_0)\n  dataOffset(sub_0)\n  0x0b\n  dup3\n  dup3\n  dup3\n  codecopy\n  dup1\n  mload\n  0x00\n  byte\n  0x73\n  eq\n  tag_1\n  jumpi\n  mstore(0x00, 0x4e487b7100000000000000000000000000000000000000000000000000000000)\n  mstore(0x04, 0x00)\n  revert(0x00, 0x24)\ntag_1:\n  mstore(0x00, address)\n  0x73\n  dup2\n  mstore8\n  dup3\n  dup2\n  return\nstop\n\nsub_0: assembly {\n        /* \"smart contract/SwapCryptoLoanUpdate/contracts/libraries/Utils.sol\":126:7454  library Utils {... */\n      eq(address, deployTimeAddress())\n      mstore(0x40, 0x80)\n      jumpi(tag_1, lt(calldatasize, 0x04))\n      shr(0xe0, calldataload(0x00))\n      dup1\n      0x9054bdec\n      gt\n      tag_17\n      jumpi\n      dup1\n      0xb1999937\n      gt\n      tag_18\n      jumpi\n      dup1\n      0xb1999937\n      eq\n      tag_13\n      jumpi\n      dup1\n      0xb238ad0e\n      eq\n      tag_14\n      jumpi\n      dup1\n      0xd7734855\n      eq\n      tag_15\n      jumpi\n      dup1\n      0xfa93f883\n      eq\n      tag_16\n      jumpi\n      jump(tag_1)\n    tag_18:\n      dup1\n      0x9054bdec\n      eq\n      tag_9\n      jumpi\n      dup1\n      0x92d66313\n      eq\n      tag_10\n      jumpi\n      dup1\n      0xa324ad24\n      eq\n      tag_11\n      jumpi\n      dup1\n      0xa6f0e577\n      eq\n      tag_12\n      jumpi\n      jump(tag_1)\n    tag_17:\n      dup1\n      0x65c72840\n      gt\n      tag_19\n      jumpi\n      dup1\n      0x65c72840\n      eq\n      tag_5\n      jumpi\n      dup1\n      0x7f791833\n      eq\n      tag_6\n      jumpi\n      dup1\n      0x8aa001fc\n      eq\n      tag_7\n      jumpi\n      dup1\n      0x8c8d98a0\n      eq\n      tag_8\n      jumpi\n      jump(tag_1)\n    tag_19:\n      dup1\n      0x3e239e1a\n      eq\n      tag_2\n      jumpi\n      dup1\n      0x4ac1ad78\n      eq\n      tag_3\n      jumpi\n      dup1\n      0x62ba9687\n      eq\n      tag_4\n      jumpi\n    tag_1:\n      0x00\n      dup1\n      revert\n        /* \"smart contract/SwapCryptoLoanUpdate/contracts/libraries/Utils.sol\":4895:5016  function getHour(uint256 timestamp) public pure returns (uint8) {... */\n    tag_2:\n      tag_20\n      0x04\n      dup1\n      calldatasize\n      sub\n      dup2\n      add\n      swap1\n      tag_21\n      swap2\n      swap1\n      tag_22\n      jump\t// in\n    tag_21:\n      tag_23\n      jump\t// in\n    tag_20:\n      mload(0x40)\n      tag_24\n      swap2\n      swap1\n      tag_25\n      jump\t// in\n    tag_24:\n      mload(0x40)\n      dup1\n      swap2\n      sub\n      swap1\n      return\n        /* \"smart contract/SwapCryptoLoanUpdate/contracts/libraries/Utils.sol\":5263:5397  function getWeekday(uint256 timestamp) public pure returns (uint8) {... */\n    tag_3:\n      tag_26\n      0x04\n      dup1\n      calldatasize\n      sub\n      dup2\n      add\n      swap1\n      tag_27\n      swap2\n      swap1\n      tag_22\n      jump\t// in\n    tag_27:\n      tag_28\n      jump\t// in\n    tag_26:\n      mload(0x40)\n      tag_29\n      swap2\n      swap1\n      tag_25\n      jump\t// in\n    tag_29:\n      mload(0x40)\n      dup1\n      swap2\n      sub\n      swap1\n      return\n        /* \"smart contract/SwapCryptoLoanUpdate/contracts/libraries/Utils.sol\":5818:6058  function toTimestamp(... */\n    tag_4:\n      tag_30\n      0x04\n      dup1\n      calldatasize\n      sub\n      dup2\n      add\n      swap1\n      tag_31\n      swap2\n      swap1\n      tag_32\n      jump\t// in\n    tag_31:\n      tag_33\n      jump\t// in\n    tag_30:\n      mload(0x40)\n      tag_34\n      swap2\n      swap1\n      tag_35\n      jump\t// in\n    tag_34:\n      mload(0x40)\n      dup1\n      swap2\n      sub\n      swap1\n      return\n        /* \"smart contract/SwapCryptoLoanUpdate/contracts/libraries/Utils.sol\":4773:4889  function getDay(uint256 timestamp) public pure returns (uint8) {... */\n    tag_5:\n      tag_36\n      0x04\n      dup1\n      calldatasize\n      sub\n      dup2\n      add\n      swap1\n      tag_37\n      swap2\n      swap1\n      tag_22\n      jump\t// in\n    tag_37:\n      tag_38\n      jump\t// in\n    tag_36:\n      mload(0x40)\n      tag_39\n      swap2\n      swap1\n      tag_25\n      jump\t// in\n    tag_39:\n      mload(0x40)\n      dup1\n      swap2\n      sub\n      swap1\n      return\n        /* \"smart contract/SwapCryptoLoanUpdate/contracts/libraries/Utils.sol\":5599:5812  function toTimestamp(... */\n    tag_6:\n      tag_40\n      0x04\n      dup1\n      calldatasize\n      sub\n      dup2\n      add\n      swap1\n      tag_41\n      swap2\n      swap1\n      tag_42\n      jump\t// in\n    tag_41:\n      tag_43\n      jump\t// in\n    tag_40:\n      mload(0x40)\n      tag_44\n      swap2\n      swap1\n      tag_35\n      jump\t// in\n    tag_44:\n      mload(0x40)\n      dup1\n      swap2\n      sub\n      swap1\n      return\n        /* \"smart contract/SwapCryptoLoanUpdate/contracts/libraries/Utils.sol\":5146:5257  function getSecond(uint256 timestamp) public pure returns (uint8) {... */\n    tag_7:\n      tag_45\n      0x04\n      dup1\n      calldatasize\n      sub\n      dup2\n      add\n      swap1\n      tag_46\n      swap2\n      swap1\n      tag_22\n      jump\t// in\n    tag_46:\n      tag_47\n      jump\t// in\n    tag_45:\n      mload(0x40)\n      tag_48\n      swap2\n      swap1\n      tag_25\n      jump\t// in\n    tag_48:\n      mload(0x40)\n      dup1\n      swap2\n      sub\n      swap1\n      return\n        /* \"smart contract/SwapCryptoLoanUpdate/contracts/libraries/Utils.sol\":5403:5593  function toTimestamp(... */\n    tag_8:\n      tag_49\n      0x04\n      dup1\n      calldatasize\n      sub\n      dup2\n      add\n      swap1\n      tag_50\n      swap2\n      swap1\n      tag_51\n      jump\t// in\n    tag_50:\n      tag_52\n      jump\t// in\n    tag_49:\n      mload(0x40)\n      tag_53\n      swap2\n      swap1\n      tag_35\n      jump\t// in\n    tag_53:\n      mload(0x40)\n      dup1\n      swap2\n      sub\n      swap1\n      return\n        /* \"smart contract/SwapCryptoLoanUpdate/contracts/libraries/Utils.sol\":6064:7452  function toTimestamp(... */\n    tag_9:\n      tag_54\n      0x04\n      dup1\n      calldatasize\n      sub\n      dup2\n      add\n      swap1\n      tag_55\n      swap2\n      swap1\n      tag_56\n      jump\t// in\n    tag_55:\n      tag_57\n      jump\t// in\n    tag_54:\n      mload(0x40)\n      tag_58\n      swap2\n      swap1\n      tag_35\n      jump\t// in\n    tag_58:\n      mload(0x40)\n      dup1\n      swap2\n      sub\n      swap1\n      return\n        /* \"smart contract/SwapCryptoLoanUpdate/contracts/libraries/Utils.sol\":3833:4641  function getYear(uint256 timestamp) public pure returns (uint16) {... */\n    tag_10:\n      tag_59\n      0x04\n      dup1\n      calldatasize\n      sub\n      dup2\n      add\n      swap1\n      tag_60\n      swap2\n      swap1\n      tag_22\n      jump\t// in\n    tag_60:\n      tag_61\n      jump\t// in\n    tag_59:\n      mload(0x40)\n      tag_62\n      swap2\n      swap1\n      tag_63\n      jump\t// in\n    tag_62:\n      mload(0x40)\n      dup1\n      swap2\n      sub\n      swap1\n      return\n        /* \"smart contract/SwapCryptoLoanUpdate/contracts/libraries/Utils.sol\":4647:4767  function getMonth(uint256 timestamp) public pure returns (uint8) {... */\n    tag_11:\n      tag_64\n      0x04\n      dup1\n      calldatasize\n      sub\n      dup2\n      add\n      swap1\n      tag_65\n      swap2\n      swap1\n      tag_22\n      jump\t// in\n    tag_65:\n      tag_66\n      jump\t// in\n    tag_64:\n      mload(0x40)\n      tag_67\n      swap2\n      swap1\n      tag_25\n      jump\t// in\n    tag_67:\n      mload(0x40)\n      dup1\n      swap2\n      sub\n      swap1\n      return\n        /* \"smart contract/SwapCryptoLoanUpdate/contracts/libraries/Utils.sol\":1501:1787  function isLeapYear(uint16 year) public pure returns (bool) {... */\n    tag_12:\n      tag_68\n      0x04\n      dup1\n      calldatasize\n      sub\n      dup2\n      add\n      swap1\n      tag_69\n      swap2\n      swap1\n      tag_70\n      jump\t// in\n    tag_69:\n      tag_71\n      jump\t// in\n    tag_68:\n      mload(0x40)\n      tag_72\n      swap2\n      swap1\n      tag_73\n      jump\t// in\n    tag_72:\n      mload(0x40)\n      dup1\n      swap2\n      sub\n      swap1\n      return\n        /* \"smart contract/SwapCryptoLoanUpdate/contracts/libraries/Utils.sol\":1793:1939  function leapYearsBefore(uint256 year) public pure returns (uint256) {... */\n    tag_13:\n      tag_74\n      0x04\n      dup1\n      calldatasize\n      sub\n      dup2\n      add\n      swap1\n      tag_75\n      swap2\n      swap1\n      tag_22\n      jump\t// in\n    tag_75:\n      tag_76\n      jump\t// in\n    tag_74:\n      mload(0x40)\n      tag_77\n      swap2\n      swap1\n      tag_35\n      jump\t// in\n    tag_77:\n      mload(0x40)\n      dup1\n      swap2\n      sub\n      swap1\n      return\n        /* \"smart contract/SwapCryptoLoanUpdate/contracts/libraries/Utils.sol\":1945:2492  function getDaysInMonth(... */\n    tag_14:\n      tag_78\n      0x04\n      dup1\n      calldatasize\n      sub\n      dup2\n      add\n      swap1\n      tag_79\n      swap2\n      swap1\n      tag_80\n      jump\t// in\n    tag_79:\n      tag_81\n      jump\t// in\n    tag_78:\n      mload(0x40)\n      tag_82\n      swap2\n      swap1\n      tag_25\n      jump\t// in\n    tag_82:\n      mload(0x40)\n      dup1\n      swap2\n      sub\n      swap1\n      return\n        /* \"smart contract/SwapCryptoLoanUpdate/contracts/libraries/Utils.sol\":1255:1495  function getDiff(uint256 start, uint256 end) public pure returns (uint256) {... */\n    tag_15:\n      tag_83\n      0x04\n      dup1\n      calldatasize\n      sub\n      dup2\n      add\n      swap1\n      tag_84\n      swap2\n      swap1\n      tag_85\n      jump\t// in\n    tag_84:\n      tag_86\n      jump\t// in\n    tag_83:\n      mload(0x40)\n      tag_87\n      swap2\n      swap1\n      tag_35\n      jump\t// in\n    tag_87:\n      mload(0x40)\n      dup1\n      swap2\n      sub\n      swap1\n      return\n        /* \"smart contract/SwapCryptoLoanUpdate/contracts/libraries/Utils.sol\":5022:5140  function getMinute(uint256 timestamp) public pure returns (uint8) {... */\n    tag_16:\n      tag_88\n      0x04\n      dup1\n      calldatasize\n      sub\n      dup2\n      add\n      swap1\n      tag_89\n      swap2\n      swap1\n      tag_22\n      jump\t// in\n    tag_89:\n      tag_90\n      jump\t// in\n    tag_88:\n      mload(0x40)\n      tag_91\n      swap2\n      swap1\n      tag_25\n      jump\t// in\n    tag_91:\n      mload(0x40)\n      dup1\n      swap2\n      sub\n      swap1\n      return\n        /* \"smart contract/SwapCryptoLoanUpdate/contracts/libraries/Utils.sol\":4895:5016  function getHour(uint256 timestamp) public pure returns (uint8) {... */\n    tag_23:\n        /* \"smart contract/SwapCryptoLoanUpdate/contracts/libraries/Utils.sol\":4952:4957  uint8 */\n      0x00\n        /* \"smart contract/SwapCryptoLoanUpdate/contracts/libraries/Utils.sol\":5006:5008  24 */\n      0x18\n        /* \"smart contract/SwapCryptoLoanUpdate/contracts/libraries/Utils.sol\":5000:5002  60 */\n      0x3c\n        /* \"smart contract/SwapCryptoLoanUpdate/contracts/libraries/Utils.sol\":4995:4997  60 */\n      dup1\n        /* \"smart contract/SwapCryptoLoanUpdate/contracts/libraries/Utils.sol\":4983:4992  timestamp */\n      dup5\n        /* \"smart contract/SwapCryptoLoanUpdate/contracts/libraries/Utils.sol\":4983:4997  timestamp / 60 */\n      tag_93\n      swap2\n      swap1\n      tag_94\n      jump\t// in\n    tag_93:\n        /* \"smart contract/SwapCryptoLoanUpdate/contracts/libraries/Utils.sol\":4983:5002  timestamp / 60 / 60 */\n      tag_95\n      swap2\n      swap1\n      tag_94\n      jump\t// in\n    tag_95:\n        /* \"smart contract/SwapCryptoLoanUpdate/contracts/libraries/Utils.sol\":4982:5008  (timestamp / 60 / 60) % 24 */\n      tag_96\n      swap2\n      swap1\n      tag_97\n      jump\t// in\n    tag_96:\n        /* \"smart contract/SwapCryptoLoanUpdate/contracts/libraries/Utils.sol\":4969:5009  return uint8((timestamp / 60 / 60) % 24) */\n      swap1\n      pop\n        /* \"smart contract/SwapCryptoLoanUpdate/contracts/libraries/Utils.sol\":4895:5016  function getHour(uint256 timestamp) public pure returns (uint8) {... */\n      swap2\n      swap1\n      pop\n      jump\t// out\n        /* \"smart contract/SwapCryptoLoanUpdate/contracts/libraries/Utils.sol\":5263:5397  function getWeekday(uint256 timestamp) public pure returns (uint8) {... */\n    tag_28:\n        /* \"smart contract/SwapCryptoLoanUpdate/contracts/libraries/Utils.sol\":5323:5328  uint8 */\n      0x00\n        /* \"smart contract/SwapCryptoLoanUpdate/contracts/libraries/Utils.sol\":5388:5389  7 */\n      0x07\n        /* \"smart contract/SwapCryptoLoanUpdate/contracts/libraries/Utils.sol\":5383:5384  4 */\n      0x04\n        /* \"smart contract/SwapCryptoLoanUpdate/contracts/libraries/Utils.sol\":432:437  86400 */\n      0x015180\n        /* \"smart contract/SwapCryptoLoanUpdate/contracts/libraries/Utils.sol\":5354:5363  timestamp */\n      dup5\n        /* \"smart contract/SwapCryptoLoanUpdate/contracts/libraries/Utils.sol\":5354:5380  timestamp / DAY_IN_SECONDS */\n      tag_99\n      swap2\n      swap1\n      tag_94\n      jump\t// in\n    tag_99:\n        /* \"smart contract/SwapCryptoLoanUpdate/contracts/libraries/Utils.sol\":5354:5384  timestamp / DAY_IN_SECONDS + 4 */\n      tag_100\n      swap2\n      swap1\n      tag_101\n      jump\t// in\n    tag_100:\n        /* \"smart contract/SwapCryptoLoanUpdate/contracts/libraries/Utils.sol\":5353:5389  (timestamp / DAY_IN_SECONDS + 4) % 7 */\n      tag_102\n      swap2\n      swap1\n      tag_97\n      jump\t// in\n    tag_102:\n        /* \"smart contract/SwapCryptoLoanUpdate/contracts/libraries/Utils.sol\":5340:5390  return uint8((timestamp / DAY_IN_SECONDS + 4) % 7) */\n      swap1\n      pop\n        /* \"smart contract/SwapCryptoLoanUpdate/contracts/libraries/Utils.sol\":5263:5397  function getWeekday(uint256 timestamp) public pure returns (uint8) {... */\n      swap2\n      swap1\n      pop\n      jump\t// out\n        /* \"smart contract/SwapCryptoLoanUpdate/contracts/libraries/Utils.sol\":5818:6058  function toTimestamp(... */\n    tag_33:\n        /* \"smart contract/SwapCryptoLoanUpdate/contracts/libraries/Utils.sol\":5969:5986  uint256 timestamp */\n      0x00\n        /* \"smart contract/SwapCryptoLoanUpdate/contracts/libraries/Utils.sol\":6005:6051  toTimestamp(year, month, day, hour, minute, 0) */\n      tag_104\n        /* \"smart contract/SwapCryptoLoanUpdate/contracts/libraries/Utils.sol\":6017:6021  year */\n      dup7\n        /* \"smart contract/SwapCryptoLoanUpdate/contracts/libraries/Utils.sol\":6023:6028  month */\n      dup7\n        /* \"smart contract/SwapCryptoLoanUpdate/contracts/libraries/Utils.sol\":6030:6033  day */\n      dup7\n        /* \"smart contract/SwapCryptoLoanUpdate/contracts/libraries/Utils.sol\":6035:6039  hour */\n      dup7\n        /* \"smart contract/SwapCryptoLoanUpdate/contracts/libraries/Utils.sol\":6041:6047  minute */\n      dup7\n        /* \"smart contract/SwapCryptoLoanUpdate/contracts/libraries/Utils.sol\":6049:6050  0 */\n      0x00\n        /* \"smart contract/SwapCryptoLoanUpdate/contracts/libraries/Utils.sol\":6005:6016  toTimestamp */\n      tag_57\n        /* \"smart contract/SwapCryptoLoanUpdate/contracts/libraries/Utils.sol\":6005:6051  toTimestamp(year, month, day, hour, minute, 0) */\n      jump\t// in\n    tag_104:\n        /* \"smart contract/SwapCryptoLoanUpdate/contracts/libraries/Utils.sol\":5998:6051  return toTimestamp(year, month, day, hour, minute, 0) */\n      swap1\n      pop\n        /* \"smart contract/SwapCryptoLoanUpdate/contracts/libraries/Utils.sol\":5818:6058  function toTimestamp(... */\n      swap6\n      swap5\n      pop\n      pop\n      pop\n      pop\n      pop\n      jump\t// out\n        /* \"smart contract/SwapCryptoLoanUpdate/contracts/libraries/Utils.sol\":4773:4889  function getDay(uint256 timestamp) public pure returns (uint8) {... */\n    tag_38:\n        /* \"smart contract/SwapCryptoLoanUpdate/contracts/libraries/Utils.sol\":4829:4834  uint8 */\n      0x00\n        /* \"smart contract/SwapCryptoLoanUpdate/contracts/libraries/Utils.sol\":4853:4878  parseTimestamp(timestamp) */\n      tag_106\n        /* \"smart contract/SwapCryptoLoanUpdate/contracts/libraries/Utils.sol\":4868:4877  timestamp */\n      dup3\n        /* \"smart contract/SwapCryptoLoanUpdate/contracts/libraries/Utils.sol\":4853:4867  parseTimestamp */\n      tag_107\n        /* \"smart contract/SwapCryptoLoanUpdate/contracts/libraries/Utils.sol\":4853:4878  parseTimestamp(timestamp) */\n      jump\t// in\n    tag_106:\n        /* \"smart contract/SwapCryptoLoanUpdate/contracts/libraries/Utils.sol\":4853:4882  parseTimestamp(timestamp).day */\n      0x40\n      add\n      mload\n        /* \"smart contract/SwapCryptoLoanUpdate/contracts/libraries/Utils.sol\":4846:4882  return parseTimestamp(timestamp).day */\n      swap1\n      pop\n        /* \"smart contract/SwapCryptoLoanUpdate/contracts/libraries/Utils.sol\":4773:4889  function getDay(uint256 timestamp) public pure returns (uint8) {... */\n      swap2\n      swap1\n      pop\n      jump\t// out\n        /* \"smart contract/SwapCryptoLoanUpdate/contracts/libraries/Utils.sol\":5599:5812  function toTimestamp(... */\n    tag_43:\n        /* \"smart contract/SwapCryptoLoanUpdate/contracts/libraries/Utils.sol\":5728:5745  uint256 timestamp */\n      0x00\n        /* \"smart contract/SwapCryptoLoanUpdate/contracts/libraries/Utils.sol\":5764:5805  toTimestamp(year, month, day, hour, 0, 0) */\n      tag_109\n        /* \"smart contract/SwapCryptoLoanUpdate/contracts/libraries/Utils.sol\":5776:5780  year */\n      dup6\n        /* \"smart contract/SwapCryptoLoanUpdate/contracts/libraries/Utils.sol\":5782:5787  month */\n      dup6\n        /* \"smart contract/SwapCryptoLoanUpdate/contracts/libraries/Utils.sol\":5789:5792  day */\n      dup6\n        /* \"smart contract/SwapCryptoLoanUpdate/contracts/libraries/Utils.sol\":5794:5798  hour */\n      dup6\n        /* \"smart contract/SwapCryptoLoanUpdate/contracts/libraries/Utils.sol\":5800:5801  0 */\n      0x00\n        /* \"smart contract/SwapCryptoLoanUpdate/contracts/libraries/Utils.sol\":5803:5804  0 */\n      dup1\n        /* \"smart contract/SwapCryptoLoanUpdate/contracts/libraries/Utils.sol\":5764:5775  toTimestamp */\n      tag_57\n        /* \"smart contract/SwapCryptoLoanUpdate/contracts/libraries/Utils.sol\":5764:5805  toTimestamp(year, month, day, hour, 0, 0) */\n      jump\t// in\n    tag_109:\n        /* \"smart contract/SwapCryptoLoanUpdate/contracts/libraries/Utils.sol\":5757:5805  return toTimestamp(year, month, day, hour, 0, 0) */\n      swap1\n      pop\n        /* \"smart contract/SwapCryptoLoanUpdate/contracts/libraries/Utils.sol\":5599:5812  function toTimestamp(... */\n      swap5\n      swap4\n      pop\n      pop\n      pop\n      pop\n      jump\t// out\n        /* \"smart contract/SwapCryptoLoanUpdate/contracts/libraries/Utils.sol\":5146:5257  function getSecond(uint256 timestamp) public pure returns (uint8) {... */\n    tag_47:\n        /* \"smart contract/SwapCryptoLoanUpdate/contracts/libraries/Utils.sol\":5205:5210  uint8 */\n      0x00\n        /* \"smart contract/SwapCryptoLoanUpdate/contracts/libraries/Utils.sol\":5247:5249  60 */\n      0x3c\n        /* \"smart contract/SwapCryptoLoanUpdate/contracts/libraries/Utils.sol\":5235:5244  timestamp */\n      dup3\n        /* \"smart contract/SwapCryptoLoanUpdate/contracts/libraries/Utils.sol\":5235:5249  timestamp % 60 */\n      tag_111\n      swap2\n      swap1\n      tag_97\n      jump\t// in\n    tag_111:\n        /* \"smart contract/SwapCryptoLoanUpdate/contracts/libraries/Utils.sol\":5222:5250  return uint8(timestamp % 60) */\n      swap1\n      pop\n        /* \"smart contract/SwapCryptoLoanUpdate/contracts/libraries/Utils.sol\":5146:5257  function getSecond(uint256 timestamp) public pure returns (uint8) {... */\n      swap2\n      swap1\n      pop\n      jump\t// out\n        /* \"smart contract/SwapCryptoLoanUpdate/contracts/libraries/Utils.sol\":5403:5593  function toTimestamp(... */\n    tag_52:\n        /* \"smart contract/SwapCryptoLoanUpdate/contracts/libraries/Utils.sol\":5512:5529  uint256 timestamp */\n      0x00\n        /* \"smart contract/SwapCryptoLoanUpdate/contracts/libraries/Utils.sol\":5548:5586  toTimestamp(year, month, day, 0, 0, 0) */\n      tag_113\n        /* \"smart contract/SwapCryptoLoanUpdate/contracts/libraries/Utils.sol\":5560:5564  year */\n      dup5\n        /* \"smart contract/SwapCryptoLoanUpdate/contracts/libraries/Utils.sol\":5566:5571  month */\n      dup5\n        /* \"smart contract/SwapCryptoLoanUpdate/contracts/libraries/Utils.sol\":5573:5576  day */\n      dup5\n        /* \"smart contract/SwapCryptoLoanUpdate/contracts/libraries/Utils.sol\":5578:5579  0 */\n      0x00\n        /* \"smart contract/SwapCryptoLoanUpdate/contracts/libraries/Utils.sol\":5581:5582  0 */\n      dup1\n        /* \"smart contract/SwapCryptoLoanUpdate/contracts/libraries/Utils.sol\":5584:5585  0 */\n      0x00\n        /* \"smart contract/SwapCryptoLoanUpdate/contracts/libraries/Utils.sol\":5548:5559  toTimestamp */\n      tag_57\n        /* \"smart contract/SwapCryptoLoanUpdate/contracts/libraries/Utils.sol\":5548:5586  toTimestamp(year, month, day, 0, 0, 0) */\n      jump\t// in\n    tag_113:\n        /* \"smart contract/SwapCryptoLoanUpdate/contracts/libraries/Utils.sol\":5541:5586  return toTimestamp(year, month, day, 0, 0, 0) */\n      swap1\n      pop\n        /* \"smart contract/SwapCryptoLoanUpdate/contracts/libraries/Utils.sol\":5403:5593  function toTimestamp(... */\n      swap4\n      swap3\n      pop\n      pop\n      pop\n      jump\t// out\n        /* \"smart contract/SwapCryptoLoanUpdate/contracts/libraries/Utils.sol\":6064:7452  function toTimestamp(... */\n    tag_57:\n        /* \"smart contract/SwapCryptoLoanUpdate/contracts/libraries/Utils.sol\":6237:6254  uint256 timestamp */\n      0x00\n        /* \"smart contract/SwapCryptoLoanUpdate/contracts/libraries/Utils.sol\":6266:6274  uint16 i */\n      dup1\n        /* \"smart contract/SwapCryptoLoanUpdate/contracts/libraries/Utils.sol\":707:711  1970 */\n      0x07b2\n        /* \"smart contract/SwapCryptoLoanUpdate/contracts/libraries/Utils.sol\":6306:6321  i = ORIGIN_YEAR */\n      swap1\n      pop\n        /* \"smart contract/SwapCryptoLoanUpdate/contracts/libraries/Utils.sol\":6301:6514  for (i = ORIGIN_YEAR; i < year; i++) {... */\n    tag_115:\n        /* \"smart contract/SwapCryptoLoanUpdate/contracts/libraries/Utils.sol\":6327:6331  year */\n      dup8\n        /* \"smart contract/SwapCryptoLoanUpdate/contracts/libraries/Utils.sol\":6323:6331  i < year */\n      0xffff\n      and\n        /* \"smart contract/SwapCryptoLoanUpdate/contracts/libraries/Utils.sol\":6323:6324  i */\n      dup2\n        /* \"smart contract/SwapCryptoLoanUpdate/contracts/libraries/Utils.sol\":6323:6331  i < year */\n      0xffff\n      and\n      lt\n        /* \"smart contract/SwapCryptoLoanUpdate/contracts/libraries/Utils.sol\":6301:6514  for (i = ORIGIN_YEAR; i < year; i++) {... */\n      iszero\n      tag_116\n      jumpi\n        /* \"smart contract/SwapCryptoLoanUpdate/contracts/libraries/Utils.sol\":6356:6369  isLeapYear(i) */\n      tag_118\n        /* \"smart contract/SwapCryptoLoanUpdate/contracts/libraries/Utils.sol\":6367:6368  i */\n      dup2\n        /* \"smart contract/SwapCryptoLoanUpdate/contracts/libraries/Utils.sol\":6356:6366  isLeapYear */\n      tag_71\n        /* \"smart contract/SwapCryptoLoanUpdate/contracts/libraries/Utils.sol\":6356:6369  isLeapYear(i) */\n      jump\t// in\n    tag_118:\n        /* \"smart contract/SwapCryptoLoanUpdate/contracts/libraries/Utils.sol\":6352:6504  if (isLeapYear(i)) {... */\n      iszero\n      tag_119\n      jumpi\n        /* \"smart contract/SwapCryptoLoanUpdate/contracts/libraries/Utils.sol\":532:540  31622400 */\n      0x01e28500\n        /* \"smart contract/SwapCryptoLoanUpdate/contracts/libraries/Utils.sol\":6389:6422  timestamp += LEAP_YEAR_IN_SECONDS */\n      dup3\n      tag_120\n      swap2\n      swap1\n      tag_101\n      jump\t// in\n    tag_120:\n      swap2\n      pop\n        /* \"smart contract/SwapCryptoLoanUpdate/contracts/libraries/Utils.sol\":6352:6504  if (isLeapYear(i)) {... */\n      jump(tag_121)\n    tag_119:\n        /* \"smart contract/SwapCryptoLoanUpdate/contracts/libraries/Utils.sol\":478:486  31536000 */\n      0x01e13380\n        /* \"smart contract/SwapCryptoLoanUpdate/contracts/libraries/Utils.sol\":6461:6489  timestamp += YEAR_IN_SECONDS */\n      dup3\n      tag_122\n      swap2\n      swap1\n      tag_101\n      jump\t// in\n    tag_122:\n      swap2\n      pop\n        /* \"smart contract/SwapCryptoLoanUpdate/contracts/libraries/Utils.sol\":6352:6504  if (isLeapYear(i)) {... */\n    tag_121:\n        /* \"smart contract/SwapCryptoLoanUpdate/contracts/libraries/Utils.sol\":6333:6336  i++ */\n      dup1\n      dup1\n      tag_123\n      swap1\n      tag_124\n      jump\t// in\n    tag_123:\n      swap2\n      pop\n      pop\n        /* \"smart contract/SwapCryptoLoanUpdate/contracts/libraries/Utils.sol\":6301:6514  for (i = ORIGIN_YEAR; i < year; i++) {... */\n      jump(tag_115)\n    tag_116:\n        /* \"smart contract/SwapCryptoLoanUpdate/contracts/libraries/Utils.sol\":6541:6572  uint8[12] memory monthDayCounts */\n      tag_125\n      tag_126\n      jump\t// in\n    tag_125:\n        /* \"smart contract/SwapCryptoLoanUpdate/contracts/libraries/Utils.sol\":6602:6604  31 */\n      0x1f\n        /* \"smart contract/SwapCryptoLoanUpdate/contracts/libraries/Utils.sol\":6582:6596  monthDayCounts */\n      dup2\n        /* \"smart contract/SwapCryptoLoanUpdate/contracts/libraries/Utils.sol\":6597:6598  0 */\n      0x00\n        /* \"smart contract/SwapCryptoLoanUpdate/contracts/libraries/Utils.sol\":6582:6599  monthDayCounts[0] */\n      0x0c\n      dup2\n      lt\n      tag_127\n      jumpi\n      tag_128\n      tag_129\n      jump\t// in\n    tag_128:\n    tag_127:\n      0x20\n      mul\n      add\n        /* \"smart contract/SwapCryptoLoanUpdate/contracts/libraries/Utils.sol\":6582:6604  monthDayCounts[0] = 31 */\n      swap1\n      0xff\n      and\n      swap1\n      dup2\n      0xff\n      and\n      dup2\n      mstore\n      pop\n      pop\n        /* \"smart contract/SwapCryptoLoanUpdate/contracts/libraries/Utils.sol\":6618:6634  isLeapYear(year) */\n      tag_130\n        /* \"smart contract/SwapCryptoLoanUpdate/contracts/libraries/Utils.sol\":6629:6633  year */\n      dup10\n        /* \"smart contract/SwapCryptoLoanUpdate/contracts/libraries/Utils.sol\":6618:6628  isLeapYear */\n      tag_71\n        /* \"smart contract/SwapCryptoLoanUpdate/contracts/libraries/Utils.sol\":6618:6634  isLeapYear(year) */\n      jump\t// in\n    tag_130:\n        /* \"smart contract/SwapCryptoLoanUpdate/contracts/libraries/Utils.sol\":6614:6736  if (isLeapYear(year)) {... */\n      iszero\n      tag_131\n      jumpi\n        /* \"smart contract/SwapCryptoLoanUpdate/contracts/libraries/Utils.sol\":6670:6672  29 */\n      0x1d\n        /* \"smart contract/SwapCryptoLoanUpdate/contracts/libraries/Utils.sol\":6650:6664  monthDayCounts */\n      dup2\n        /* \"smart contract/SwapCryptoLoanUpdate/contracts/libraries/Utils.sol\":6665:6666  1 */\n      0x01\n        /* \"smart contract/SwapCryptoLoanUpdate/contracts/libraries/Utils.sol\":6650:6667  monthDayCounts[1] */\n      0x0c\n      dup2\n      lt\n      tag_132\n      jumpi\n      tag_133\n      tag_129\n      jump\t// in\n    tag_133:\n    tag_132:\n      0x20\n      mul\n      add\n        /* \"smart contract/SwapCryptoLoanUpdate/contracts/libraries/Utils.sol\":6650:6672  monthDayCounts[1] = 29 */\n      swap1\n      0xff\n      and\n      swap1\n      dup2\n      0xff\n      and\n      dup2\n      mstore\n      pop\n      pop\n        /* \"smart contract/SwapCryptoLoanUpdate/contracts/libraries/Utils.sol\":6614:6736  if (isLeapYear(year)) {... */\n      jump(tag_134)\n    tag_131:\n        /* \"smart contract/SwapCryptoLoanUpdate/contracts/libraries/Utils.sol\":6723:6725  28 */\n      0x1c\n        /* \"smart contract/SwapCryptoLoanUpdate/contracts/libraries/Utils.sol\":6703:6717  monthDayCounts */\n      dup2\n        /* \"smart contract/SwapCryptoLoanUpdate/contracts/libraries/Utils.sol\":6718:6719  1 */\n      0x01\n        /* \"smart contract/SwapCryptoLoanUpdate/contracts/libraries/Utils.sol\":6703:6720  monthDayCounts[1] */\n      0x0c\n      dup2\n      lt\n      tag_135\n      jumpi\n      tag_136\n      tag_129\n      jump\t// in\n    tag_136:\n    tag_135:\n      0x20\n      mul\n      add\n        /* \"smart contract/SwapCryptoLoanUpdate/contracts/libraries/Utils.sol\":6703:6725  monthDayCounts[1] = 28 */\n      swap1\n      0xff\n      and\n      swap1\n      dup2\n      0xff\n      and\n      dup2\n      mstore\n      pop\n      pop\n        /* \"smart contract/SwapCryptoLoanUpdate/contracts/libraries/Utils.sol\":6614:6736  if (isLeapYear(year)) {... */\n    tag_134:\n        /* \"smart contract/SwapCryptoLoanUpdate/contracts/libraries/Utils.sol\":6765:6767  31 */\n      0x1f\n        /* \"smart contract/SwapCryptoLoanUpdate/contracts/libraries/Utils.sol\":6745:6759  monthDayCounts */\n      dup2\n        /* \"smart contract/SwapCryptoLoanUpdate/contracts/libraries/Utils.sol\":6760:6761  2 */\n      0x02\n        /* \"smart contract/SwapCryptoLoanUpdate/contracts/libraries/Utils.sol\":6745:6762  monthDayCounts[2] */\n      0x0c\n      dup2\n      lt\n      tag_137\n      jumpi\n      tag_138\n      tag_129\n      jump\t// in\n    tag_138:\n    tag_137:\n      0x20\n      mul\n      add\n        /* \"smart contract/SwapCryptoLoanUpdate/contracts/libraries/Utils.sol\":6745:6767  monthDayCounts[2] = 31 */\n      swap1\n      0xff\n      and\n      swap1\n      dup2\n      0xff\n      and\n      dup2\n      mstore\n      pop\n      pop\n        /* \"smart contract/SwapCryptoLoanUpdate/contracts/libraries/Utils.sol\":6797:6799  30 */\n      0x1e\n        /* \"smart contract/SwapCryptoLoanUpdate/contracts/libraries/Utils.sol\":6777:6791  monthDayCounts */\n      dup2\n        /* \"smart contract/SwapCryptoLoanUpdate/contracts/libraries/Utils.sol\":6792:6793  3 */\n      0x03\n        /* \"smart contract/SwapCryptoLoanUpdate/contracts/libraries/Utils.sol\":6777:6794  monthDayCounts[3] */\n      0x0c\n      dup2\n      lt\n      tag_139\n      jumpi\n      tag_140\n      tag_129\n      jump\t// in\n    tag_140:\n    tag_139:\n      0x20\n      mul\n      add\n        /* \"smart contract/SwapCryptoLoanUpdate/contracts/libraries/Utils.sol\":6777:6799  monthDayCounts[3] = 30 */\n      swap1\n      0xff\n      and\n      swap1\n      dup2\n      0xff\n      and\n      dup2\n      mstore\n      pop\n      pop\n        /* \"smart contract/SwapCryptoLoanUpdate/contracts/libraries/Utils.sol\":6829:6831  31 */\n      0x1f\n        /* \"smart contract/SwapCryptoLoanUpdate/contracts/libraries/Utils.sol\":6809:6823  monthDayCounts */\n      dup2\n        /* \"smart contract/SwapCryptoLoanUpdate/contracts/libraries/Utils.sol\":6824:6825  4 */\n      0x04\n        /* \"smart contract/SwapCryptoLoanUpdate/contracts/libraries/Utils.sol\":6809:6826  monthDayCounts[4] */\n      0x0c\n      dup2\n      lt\n      tag_141\n      jumpi\n      tag_142\n      tag_129\n      jump\t// in\n    tag_142:\n    tag_141:\n      0x20\n      mul\n      add\n        /* \"smart contract/SwapCryptoLoanUpdate/contracts/libraries/Utils.sol\":6809:6831  monthDayCounts[4] = 31 */\n      swap1\n      0xff\n      and\n      swap1\n      dup2\n      0xff\n      and\n      dup2\n      mstore\n      pop\n      pop\n        /* \"smart contract/SwapCryptoLoanUpdate/contracts/libraries/Utils.sol\":6861:6863  30 */\n      0x1e\n        /* \"smart contract/SwapCryptoLoanUpdate/contracts/libraries/Utils.sol\":6841:6855  monthDayCounts */\n      dup2\n        /* \"smart contract/SwapCryptoLoanUpdate/contracts/libraries/Utils.sol\":6856:6857  5 */\n      0x05\n        /* \"smart contract/SwapCryptoLoanUpdate/contracts/libraries/Utils.sol\":6841:6858  monthDayCounts[5] */\n      0x0c\n      dup2\n      lt\n      tag_143\n      jumpi\n      tag_144\n      tag_129\n      jump\t// in\n    tag_144:\n    tag_143:\n      0x20\n      mul\n      add\n        /* \"smart contract/SwapCryptoLoanUpdate/contracts/libraries/Utils.sol\":6841:6863  monthDayCounts[5] = 30 */\n      swap1\n      0xff\n      and\n      swap1\n      dup2\n      0xff\n      and\n      dup2\n      mstore\n      pop\n      pop\n        /* \"smart contract/SwapCryptoLoanUpdate/contracts/libraries/Utils.sol\":6893:6895  31 */\n      0x1f\n        /* \"smart contract/SwapCryptoLoanUpdate/contracts/libraries/Utils.sol\":6873:6887  monthDayCounts */\n      dup2\n        /* \"smart contract/SwapCryptoLoanUpdate/contracts/libraries/Utils.sol\":6888:6889  6 */\n      0x06\n        /* \"smart contract/SwapCryptoLoanUpdate/contracts/libraries/Utils.sol\":6873:6890  monthDayCounts[6] */\n      0x0c\n      dup2\n      lt\n      tag_145\n      jumpi\n      tag_146\n      tag_129\n      jump\t// in\n    tag_146:\n    tag_145:\n      0x20\n      mul\n      add\n        /* \"smart contract/SwapCryptoLoanUpdate/contracts/libraries/Utils.sol\":6873:6895  monthDayCounts[6] = 31 */\n      swap1\n      0xff\n      and\n      swap1\n      dup2\n      0xff\n      and\n      dup2\n      mstore\n      pop\n      pop\n        /* \"smart contract/SwapCryptoLoanUpdate/contracts/libraries/Utils.sol\":6925:6927  31 */\n      0x1f\n        /* \"smart contract/SwapCryptoLoanUpdate/contracts/libraries/Utils.sol\":6905:6919  monthDayCounts */\n      dup2\n        /* \"smart contract/SwapCryptoLoanUpdate/contracts/libraries/Utils.sol\":6920:6921  7 */\n      0x07\n        /* \"smart contract/SwapCryptoLoanUpdate/contracts/libraries/Utils.sol\":6905:6922  monthDayCounts[7] */\n      0x0c\n      dup2\n      lt\n      tag_147\n      jumpi\n      tag_148\n      tag_129\n      jump\t// in\n    tag_148:\n    tag_147:\n      0x20\n      mul\n      add\n        /* \"smart contract/SwapCryptoLoanUpdate/contracts/libraries/Utils.sol\":6905:6927  monthDayCounts[7] = 31 */\n      swap1\n      0xff\n      and\n      swap1\n      dup2\n      0xff\n      and\n      dup2\n      mstore\n      pop\n      pop\n        /* \"smart contract/SwapCryptoLoanUpdate/contracts/libraries/Utils.sol\":6957:6959  30 */\n      0x1e\n        /* \"smart contract/SwapCryptoLoanUpdate/contracts/libraries/Utils.sol\":6937:6951  monthDayCounts */\n      dup2\n        /* \"smart contract/SwapCryptoLoanUpdate/contracts/libraries/Utils.sol\":6952:6953  8 */\n      0x08\n        /* \"smart contract/SwapCryptoLoanUpdate/contracts/libraries/Utils.sol\":6937:6954  monthDayCounts[8] */\n      0x0c\n      dup2\n      lt\n      tag_149\n      jumpi\n      tag_150\n      tag_129\n      jump\t// in\n    tag_150:\n    tag_149:\n      0x20\n      mul\n      add\n        /* \"smart contract/SwapCryptoLoanUpdate/contracts/libraries/Utils.sol\":6937:6959  monthDayCounts[8] = 30 */\n      swap1\n      0xff\n      and\n      swap1\n      dup2\n      0xff\n      and\n      dup2\n      mstore\n      pop\n      pop\n        /* \"smart contract/SwapCryptoLoanUpdate/contracts/libraries/Utils.sol\":6989:6991  31 */\n      0x1f\n        /* \"smart contract/SwapCryptoLoanUpdate/contracts/libraries/Utils.sol\":6969:6983  monthDayCounts */\n      dup2\n        /* \"smart contract/SwapCryptoLoanUpdate/contracts/libraries/Utils.sol\":6984:6985  9 */\n      0x09\n        /* \"smart contract/SwapCryptoLoanUpdate/contracts/libraries/Utils.sol\":6969:6986  monthDayCounts[9] */\n      0x0c\n      dup2\n      lt\n      tag_151\n      jumpi\n      tag_152\n      tag_129\n      jump\t// in\n    tag_152:\n    tag_151:\n      0x20\n      mul\n      add\n        /* \"smart contract/SwapCryptoLoanUpdate/contracts/libraries/Utils.sol\":6969:6991  monthDayCounts[9] = 31 */\n      swap1\n      0xff\n      and\n      swap1\n      dup2\n      0xff\n      and\n      dup2\n      mstore\n      pop\n      pop\n        /* \"smart contract/SwapCryptoLoanUpdate/contracts/libraries/Utils.sol\":7022:7024  30 */\n      0x1e\n        /* \"smart contract/SwapCryptoLoanUpdate/contracts/libraries/Utils.sol\":7001:7015  monthDayCounts */\n      dup2\n        /* \"smart contract/SwapCryptoLoanUpdate/contracts/libraries/Utils.sol\":7016:7018  10 */\n      0x0a\n        /* \"smart contract/SwapCryptoLoanUpdate/contracts/libraries/Utils.sol\":7001:7019  monthDayCounts[10] */\n      0x0c\n      dup2\n      lt\n      tag_153\n      jumpi\n      tag_154\n      tag_129\n      jump\t// in\n    tag_154:\n    tag_153:\n      0x20\n      mul\n      add\n        /* \"smart contract/SwapCryptoLoanUpdate/contracts/libraries/Utils.sol\":7001:7024  monthDayCounts[10] = 30 */\n      swap1\n      0xff\n      and\n      swap1\n      dup2\n      0xff\n      and\n      dup2\n      mstore\n      pop\n      pop\n        /* \"smart contract/SwapCryptoLoanUpdate/contracts/libraries/Utils.sol\":7055:7057  31 */\n      0x1f\n        /* \"smart contract/SwapCryptoLoanUpdate/contracts/libraries/Utils.sol\":7034:7048  monthDayCounts */\n      dup2\n        /* \"smart contract/SwapCryptoLoanUpdate/contracts/libraries/Utils.sol\":7049:7051  11 */\n      0x0b\n        /* \"smart contract/SwapCryptoLoanUpdate/contracts/libraries/Utils.sol\":7034:7052  monthDayCounts[11] */\n      0x0c\n      dup2\n      lt\n      tag_155\n      jumpi\n      tag_156\n      tag_129\n      jump\t// in\n    tag_156:\n    tag_155:\n      0x20\n      mul\n      add\n        /* \"smart contract/SwapCryptoLoanUpdate/contracts/libraries/Utils.sol\":7034:7057  monthDayCounts[11] = 31 */\n      swap1\n      0xff\n      and\n      swap1\n      dup2\n      0xff\n      and\n      dup2\n      mstore\n      pop\n      pop\n        /* \"smart contract/SwapCryptoLoanUpdate/contracts/libraries/Utils.sol\":7077:7078  1 */\n      0x01\n        /* \"smart contract/SwapCryptoLoanUpdate/contracts/libraries/Utils.sol\":7073:7078  i = 1 */\n      swap2\n      pop\n        /* \"smart contract/SwapCryptoLoanUpdate/contracts/libraries/Utils.sol\":7068:7172  for (i = 1; i < month; i++) {... */\n    tag_157:\n        /* \"smart contract/SwapCryptoLoanUpdate/contracts/libraries/Utils.sol\":7084:7089  month */\n      dup8\n        /* \"smart contract/SwapCryptoLoanUpdate/contracts/libraries/Utils.sol\":7080:7089  i < month */\n      0xff\n      and\n        /* \"smart contract/SwapCryptoLoanUpdate/contracts/libraries/Utils.sol\":7080:7081  i */\n      dup3\n        /* \"smart contract/SwapCryptoLoanUpdate/contracts/libraries/Utils.sol\":7080:7089  i < month */\n      0xffff\n      and\n      lt\n        /* \"smart contract/SwapCryptoLoanUpdate/contracts/libraries/Utils.sol\":7068:7172  for (i = 1; i < month; i++) {... */\n      iszero\n      tag_158\n      jumpi\n        /* \"smart contract/SwapCryptoLoanUpdate/contracts/libraries/Utils.sol\":7140:7154  monthDayCounts */\n      dup1\n        /* \"smart contract/SwapCryptoLoanUpdate/contracts/libraries/Utils.sol\":7159:7160  1 */\n      0x01\n        /* \"smart contract/SwapCryptoLoanUpdate/contracts/libraries/Utils.sol\":7155:7156  i */\n      dup4\n        /* \"smart contract/SwapCryptoLoanUpdate/contracts/libraries/Utils.sol\":7155:7160  i - 1 */\n      tag_160\n      swap2\n      swap1\n      tag_161\n      jump\t// in\n    tag_160:\n        /* \"smart contract/SwapCryptoLoanUpdate/contracts/libraries/Utils.sol\":7140:7161  monthDayCounts[i - 1] */\n      0xffff\n      and\n      0x0c\n      dup2\n      lt\n      tag_162\n      jumpi\n      tag_163\n      tag_129\n      jump\t// in\n    tag_163:\n    tag_162:\n      0x20\n      mul\n      add\n      mload\n        /* \"smart contract/SwapCryptoLoanUpdate/contracts/libraries/Utils.sol\":7123:7161  DAY_IN_SECONDS * monthDayCounts[i - 1] */\n      0xff\n      and\n        /* \"smart contract/SwapCryptoLoanUpdate/contracts/libraries/Utils.sol\":432:437  86400 */\n      0x015180\n        /* \"smart contract/SwapCryptoLoanUpdate/contracts/libraries/Utils.sol\":7123:7161  DAY_IN_SECONDS * monthDayCounts[i - 1] */\n      tag_164\n      swap2\n      swap1\n      tag_165\n      jump\t// in\n    tag_164:\n        /* \"smart contract/SwapCryptoLoanUpdate/contracts/libraries/Utils.sol\":7110:7161  timestamp += DAY_IN_SECONDS * monthDayCounts[i - 1] */\n      dup4\n      tag_166\n      swap2\n      swap1\n      tag_101\n      jump\t// in\n    tag_166:\n      swap3\n      pop\n        /* \"smart contract/SwapCryptoLoanUpdate/contracts/libraries/Utils.sol\":7091:7094  i++ */\n      dup2\n      dup1\n      tag_167\n      swap1\n      tag_124\n      jump\t// in\n    tag_167:\n      swap3\n      pop\n      pop\n        /* \"smart contract/SwapCryptoLoanUpdate/contracts/libraries/Utils.sol\":7068:7172  for (i = 1; i < month; i++) {... */\n      jump(tag_157)\n    tag_158:\n        /* \"smart contract/SwapCryptoLoanUpdate/contracts/libraries/Utils.sol\":7234:7235  1 */\n      0x01\n        /* \"smart contract/SwapCryptoLoanUpdate/contracts/libraries/Utils.sol\":7228:7231  day */\n      dup8\n        /* \"smart contract/SwapCryptoLoanUpdate/contracts/libraries/Utils.sol\":7228:7235  day - 1 */\n      tag_168\n      swap2\n      swap1\n      tag_169\n      jump\t// in\n    tag_168:\n        /* \"smart contract/SwapCryptoLoanUpdate/contracts/libraries/Utils.sol\":7210:7236  DAY_IN_SECONDS * (day - 1) */\n      0xff\n      and\n        /* \"smart contract/SwapCryptoLoanUpdate/contracts/libraries/Utils.sol\":432:437  86400 */\n      0x015180\n        /* \"smart contract/SwapCryptoLoanUpdate/contracts/libraries/Utils.sol\":7210:7236  DAY_IN_SECONDS * (day - 1) */\n      tag_170\n      swap2\n      swap1\n      tag_165\n      jump\t// in\n    tag_170:\n        /* \"smart contract/SwapCryptoLoanUpdate/contracts/libraries/Utils.sol\":7197:7236  timestamp += DAY_IN_SECONDS * (day - 1) */\n      dup4\n      tag_171\n      swap2\n      swap1\n      tag_101\n      jump\t// in\n    tag_171:\n      swap3\n      pop\n        /* \"smart contract/SwapCryptoLoanUpdate/contracts/libraries/Utils.sol\":7295:7299  hour */\n      dup6\n        /* \"smart contract/SwapCryptoLoanUpdate/contracts/libraries/Utils.sol\":7276:7300  HOUR_IN_SECONDS * (hour) */\n      0xff\n      and\n        /* \"smart contract/SwapCryptoLoanUpdate/contracts/libraries/Utils.sol\":582:586  3600 */\n      0x0e10\n        /* \"smart contract/SwapCryptoLoanUpdate/contracts/libraries/Utils.sol\":7276:7300  HOUR_IN_SECONDS * (hour) */\n      tag_172\n      swap2\n      swap1\n      tag_165\n      jump\t// in\n    tag_172:\n        /* \"smart contract/SwapCryptoLoanUpdate/contracts/libraries/Utils.sol\":7263:7300  timestamp += HOUR_IN_SECONDS * (hour) */\n      dup4\n      tag_173\n      swap2\n      swap1\n      tag_101\n      jump\t// in\n    tag_173:\n      swap3\n      pop\n        /* \"smart contract/SwapCryptoLoanUpdate/contracts/libraries/Utils.sol\":7363:7369  minute */\n      dup5\n        /* \"smart contract/SwapCryptoLoanUpdate/contracts/libraries/Utils.sol\":7342:7370  MINUTE_IN_SECONDS * (minute) */\n      0xff\n      and\n        /* \"smart contract/SwapCryptoLoanUpdate/contracts/libraries/Utils.sol\":629:631  60 */\n      0x3c\n        /* \"smart contract/SwapCryptoLoanUpdate/contracts/libraries/Utils.sol\":7342:7370  MINUTE_IN_SECONDS * (minute) */\n      tag_174\n      swap2\n      swap1\n      tag_165\n      jump\t// in\n    tag_174:\n        /* \"smart contract/SwapCryptoLoanUpdate/contracts/libraries/Utils.sol\":7329:7370  timestamp += MINUTE_IN_SECONDS * (minute) */\n      dup4\n      tag_175\n      swap2\n      swap1\n      tag_101\n      jump\t// in\n    tag_175:\n      swap3\n      pop\n        /* \"smart contract/SwapCryptoLoanUpdate/contracts/libraries/Utils.sol\":7412:7418  second */\n      dup4\n        /* \"smart contract/SwapCryptoLoanUpdate/contracts/libraries/Utils.sol\":7399:7418  timestamp += second */\n      0xff\n      and\n      dup4\n      tag_176\n      swap2\n      swap1\n      tag_101\n      jump\t// in\n    tag_176:\n      swap3\n      pop\n        /* \"smart contract/SwapCryptoLoanUpdate/contracts/libraries/Utils.sol\":7429:7445  return timestamp */\n      pop\n      pop\n        /* \"smart contract/SwapCryptoLoanUpdate/contracts/libraries/Utils.sol\":6064:7452  function toTimestamp(... */\n      swap7\n      swap6\n      pop\n      pop\n      pop\n      pop\n      pop\n      pop\n      jump\t// out\n        /* \"smart contract/SwapCryptoLoanUpdate/contracts/libraries/Utils.sol\":3833:4641  function getYear(uint256 timestamp) public pure returns (uint16) {... */\n    tag_61:\n        /* \"smart contract/SwapCryptoLoanUpdate/contracts/libraries/Utils.sol\":3890:3896  uint16 */\n      0x00\n        /* \"smart contract/SwapCryptoLoanUpdate/contracts/libraries/Utils.sol\":3908:3935  uint256 secondsAccountedFor */\n      dup1\n        /* \"smart contract/SwapCryptoLoanUpdate/contracts/libraries/Utils.sol\":3938:3939  0 */\n      0x00\n        /* \"smart contract/SwapCryptoLoanUpdate/contracts/libraries/Utils.sol\":3908:3939  uint256 secondsAccountedFor = 0 */\n      swap1\n      pop\n        /* \"smart contract/SwapCryptoLoanUpdate/contracts/libraries/Utils.sol\":3949:3960  uint16 year */\n      0x00\n        /* \"smart contract/SwapCryptoLoanUpdate/contracts/libraries/Utils.sol\":3970:3990  uint256 numLeapYears */\n      dup1\n        /* \"smart contract/SwapCryptoLoanUpdate/contracts/libraries/Utils.sol\":478:486  31536000 */\n      0x01e13380\n        /* \"smart contract/SwapCryptoLoanUpdate/contracts/libraries/Utils.sol\":4045:4054  timestamp */\n      dup6\n        /* \"smart contract/SwapCryptoLoanUpdate/contracts/libraries/Utils.sol\":4045:4072  timestamp / YEAR_IN_SECONDS */\n      tag_178\n      swap2\n      swap1\n      tag_94\n      jump\t// in\n    tag_178:\n        /* \"smart contract/SwapCryptoLoanUpdate/contracts/libraries/Utils.sol\":707:711  1970 */\n      0x07b2\n        /* \"smart contract/SwapCryptoLoanUpdate/contracts/libraries/Utils.sol\":4031:4072  ORIGIN_YEAR + timestamp / YEAR_IN_SECONDS */\n      0xffff\n      and\n      tag_179\n      swap2\n      swap1\n      tag_101\n      jump\t// in\n    tag_179:\n        /* \"smart contract/SwapCryptoLoanUpdate/contracts/libraries/Utils.sol\":4017:4073  year = uint16(ORIGIN_YEAR + timestamp / YEAR_IN_SECONDS) */\n      swap2\n      pop\n        /* \"smart contract/SwapCryptoLoanUpdate/contracts/libraries/Utils.sol\":4122:4150  leapYearsBefore(ORIGIN_YEAR) */\n      tag_180\n        /* \"smart contract/SwapCryptoLoanUpdate/contracts/libraries/Utils.sol\":707:711  1970 */\n      0x07b2\n        /* \"smart contract/SwapCryptoLoanUpdate/contracts/libraries/Utils.sol\":4122:4150  leapYearsBefore(ORIGIN_YEAR) */\n      0xffff\n      and\n        /* \"smart contract/SwapCryptoLoanUpdate/contracts/libraries/Utils.sol\":4122:4137  leapYearsBefore */\n      tag_76\n        /* \"smart contract/SwapCryptoLoanUpdate/contracts/libraries/Utils.sol\":4122:4150  leapYearsBefore(ORIGIN_YEAR) */\n      jump\t// in\n    tag_180:\n        /* \"smart contract/SwapCryptoLoanUpdate/contracts/libraries/Utils.sol\":4098:4119  leapYearsBefore(year) */\n      tag_181\n        /* \"smart contract/SwapCryptoLoanUpdate/contracts/libraries/Utils.sol\":4114:4118  year */\n      dup4\n        /* \"smart contract/SwapCryptoLoanUpdate/contracts/libraries/Utils.sol\":4098:4119  leapYearsBefore(year) */\n      0xffff\n      and\n        /* \"smart contract/SwapCryptoLoanUpdate/contracts/libraries/Utils.sol\":4098:4113  leapYearsBefore */\n      tag_76\n        /* \"smart contract/SwapCryptoLoanUpdate/contracts/libraries/Utils.sol\":4098:4119  leapYearsBefore(year) */\n      jump\t// in\n    tag_181:\n        /* \"smart contract/SwapCryptoLoanUpdate/contracts/libraries/Utils.sol\":4098:4150  leapYearsBefore(year) - leapYearsBefore(ORIGIN_YEAR) */\n      tag_182\n      swap2\n      swap1\n      tag_183\n      jump\t// in\n    tag_182:\n        /* \"smart contract/SwapCryptoLoanUpdate/contracts/libraries/Utils.sol\":4083:4150  numLeapYears = leapYearsBefore(year) - leapYearsBefore(ORIGIN_YEAR) */\n      swap1\n      pop\n        /* \"smart contract/SwapCryptoLoanUpdate/contracts/libraries/Utils.sol\":4207:4219  numLeapYears */\n      dup1\n        /* \"smart contract/SwapCryptoLoanUpdate/contracts/libraries/Utils.sol\":532:540  31622400 */\n      0x01e28500\n        /* \"smart contract/SwapCryptoLoanUpdate/contracts/libraries/Utils.sol\":4184:4219  LEAP_YEAR_IN_SECONDS * numLeapYears */\n      tag_184\n      swap2\n      swap1\n      tag_165\n      jump\t// in\n    tag_184:\n        /* \"smart contract/SwapCryptoLoanUpdate/contracts/libraries/Utils.sol\":4161:4219  secondsAccountedFor += LEAP_YEAR_IN_SECONDS * numLeapYears */\n      dup4\n      tag_185\n      swap2\n      swap1\n      tag_101\n      jump\t// in\n    tag_185:\n      swap3\n      pop\n        /* \"smart contract/SwapCryptoLoanUpdate/contracts/libraries/Utils.sol\":4316:4328  numLeapYears */\n      dup1\n        /* \"smart contract/SwapCryptoLoanUpdate/contracts/libraries/Utils.sol\":707:711  1970 */\n      0x07b2\n        /* \"smart contract/SwapCryptoLoanUpdate/contracts/libraries/Utils.sol\":4295:4299  year */\n      dup4\n        /* \"smart contract/SwapCryptoLoanUpdate/contracts/libraries/Utils.sol\":4295:4313  year - ORIGIN_YEAR */\n      tag_186\n      swap2\n      swap1\n      tag_161\n      jump\t// in\n    tag_186:\n        /* \"smart contract/SwapCryptoLoanUpdate/contracts/libraries/Utils.sol\":4295:4328  year - ORIGIN_YEAR - numLeapYears */\n      0xffff\n      and\n      tag_187\n      swap2\n      swap1\n      tag_183\n      jump\t// in\n    tag_187:\n        /* \"smart contract/SwapCryptoLoanUpdate/contracts/libraries/Utils.sol\":478:486  31536000 */\n      0x01e13380\n        /* \"smart contract/SwapCryptoLoanUpdate/contracts/libraries/Utils.sol\":4264:4329  YEAR_IN_SECONDS *... */\n      tag_188\n      swap2\n      swap1\n      tag_165\n      jump\t// in\n    tag_188:\n        /* \"smart contract/SwapCryptoLoanUpdate/contracts/libraries/Utils.sol\":4229:4329  secondsAccountedFor +=... */\n      dup4\n      tag_189\n      swap2\n      swap1\n      tag_101\n      jump\t// in\n    tag_189:\n      swap3\n      pop\n        /* \"smart contract/SwapCryptoLoanUpdate/contracts/libraries/Utils.sol\":4340:4614  while (secondsAccountedFor > timestamp) {... */\n    tag_190:\n        /* \"smart contract/SwapCryptoLoanUpdate/contracts/libraries/Utils.sol\":4369:4378  timestamp */\n      dup5\n        /* \"smart contract/SwapCryptoLoanUpdate/contracts/libraries/Utils.sol\":4347:4366  secondsAccountedFor */\n      dup4\n        /* \"smart contract/SwapCryptoLoanUpdate/contracts/libraries/Utils.sol\":4347:4378  secondsAccountedFor > timestamp */\n      gt\n        /* \"smart contract/SwapCryptoLoanUpdate/contracts/libraries/Utils.sol\":4340:4614  while (secondsAccountedFor > timestamp) {... */\n      iszero\n      tag_191\n      jumpi\n        /* \"smart contract/SwapCryptoLoanUpdate/contracts/libraries/Utils.sol\":4398:4426  isLeapYear(uint16(year - 1)) */\n      tag_192\n        /* \"smart contract/SwapCryptoLoanUpdate/contracts/libraries/Utils.sol\":4423:4424  1 */\n      0x01\n        /* \"smart contract/SwapCryptoLoanUpdate/contracts/libraries/Utils.sol\":4416:4420  year */\n      dup4\n        /* \"smart contract/SwapCryptoLoanUpdate/contracts/libraries/Utils.sol\":4416:4424  year - 1 */\n      tag_193\n      swap2\n      swap1\n      tag_161\n      jump\t// in\n    tag_193:\n        /* \"smart contract/SwapCryptoLoanUpdate/contracts/libraries/Utils.sol\":4398:4408  isLeapYear */\n      tag_71\n        /* \"smart contract/SwapCryptoLoanUpdate/contracts/libraries/Utils.sol\":4398:4426  isLeapYear(uint16(year - 1)) */\n      jump\t// in\n    tag_192:\n        /* \"smart contract/SwapCryptoLoanUpdate/contracts/libraries/Utils.sol\":4394:4581  if (isLeapYear(uint16(year - 1))) {... */\n      iszero\n      tag_194\n      jumpi\n        /* \"smart contract/SwapCryptoLoanUpdate/contracts/libraries/Utils.sol\":532:540  31622400 */\n      0x01e28500\n        /* \"smart contract/SwapCryptoLoanUpdate/contracts/libraries/Utils.sol\":4446:4489  secondsAccountedFor -= LEAP_YEAR_IN_SECONDS */\n      dup4\n      tag_195\n      swap2\n      swap1\n      tag_183\n      jump\t// in\n    tag_195:\n      swap3\n      pop\n        /* \"smart contract/SwapCryptoLoanUpdate/contracts/libraries/Utils.sol\":4394:4581  if (isLeapYear(uint16(year - 1))) {... */\n      jump(tag_196)\n    tag_194:\n        /* \"smart contract/SwapCryptoLoanUpdate/contracts/libraries/Utils.sol\":478:486  31536000 */\n      0x01e13380\n        /* \"smart contract/SwapCryptoLoanUpdate/contracts/libraries/Utils.sol\":4528:4566  secondsAccountedFor -= YEAR_IN_SECONDS */\n      dup4\n      tag_197\n      swap2\n      swap1\n      tag_183\n      jump\t// in\n    tag_197:\n      swap3\n      pop\n        /* \"smart contract/SwapCryptoLoanUpdate/contracts/libraries/Utils.sol\":4394:4581  if (isLeapYear(uint16(year - 1))) {... */\n    tag_196:\n        /* \"smart contract/SwapCryptoLoanUpdate/contracts/libraries/Utils.sol\":4602:4603  1 */\n      0x01\n        /* \"smart contract/SwapCryptoLoanUpdate/contracts/libraries/Utils.sol\":4594:4603  year -= 1 */\n      dup3\n      tag_198\n      swap2\n      swap1\n      tag_161\n      jump\t// in\n    tag_198:\n      swap2\n      pop\n        /* \"smart contract/SwapCryptoLoanUpdate/contracts/libraries/Utils.sol\":4340:4614  while (secondsAccountedFor > timestamp) {... */\n      jump(tag_190)\n    tag_191:\n        /* \"smart contract/SwapCryptoLoanUpdate/contracts/libraries/Utils.sol\":4630:4634  year */\n      dup2\n        /* \"smart contract/SwapCryptoLoanUpdate/contracts/libraries/Utils.sol\":4623:4634  return year */\n      swap4\n      pop\n      pop\n      pop\n      pop\n        /* \"smart contract/SwapCryptoLoanUpdate/contracts/libraries/Utils.sol\":3833:4641  function getYear(uint256 timestamp) public pure returns (uint16) {... */\n      swap2\n      swap1\n      pop\n      jump\t// out\n        /* \"smart contract/SwapCryptoLoanUpdate/contracts/libraries/Utils.sol\":4647:4767  function getMonth(uint256 timestamp) public pure returns (uint8) {... */\n    tag_66:\n        /* \"smart contract/SwapCryptoLoanUpdate/contracts/libraries/Utils.sol\":4705:4710  uint8 */\n      0x00\n        /* \"smart contract/SwapCryptoLoanUpdate/contracts/libraries/Utils.sol\":4729:4754  parseTimestamp(timestamp) */\n      tag_200\n        /* \"smart contract/SwapCryptoLoanUpdate/contracts/libraries/Utils.sol\":4744:4753  timestamp */\n      dup3\n        /* \"smart contract/SwapCryptoLoanUpdate/contracts/libraries/Utils.sol\":4729:4743  parseTimestamp */\n      tag_107\n        /* \"smart contract/SwapCryptoLoanUpdate/contracts/libraries/Utils.sol\":4729:4754  parseTimestamp(timestamp) */\n      jump\t// in\n    tag_200:\n        /* \"smart contract/SwapCryptoLoanUpdate/contracts/libraries/Utils.sol\":4729:4760  parseTimestamp(timestamp).month */\n      0x20\n      add\n      mload\n        /* \"smart contract/SwapCryptoLoanUpdate/contracts/libraries/Utils.sol\":4722:4760  return parseTimestamp(timestamp).month */\n      swap1\n      pop\n        /* \"smart contract/SwapCryptoLoanUpdate/contracts/libraries/Utils.sol\":4647:4767  function getMonth(uint256 timestamp) public pure returns (uint8) {... */\n      swap2\n      swap1\n      pop\n      jump\t// out\n        /* \"smart contract/SwapCryptoLoanUpdate/contracts/libraries/Utils.sol\":1501:1787  function isLeapYear(uint16 year) public pure returns (bool) {... */\n    tag_71:\n        /* \"smart contract/SwapCryptoLoanUpdate/contracts/libraries/Utils.sol\":1555:1559  bool */\n      0x00\n        /* \"smart contract/SwapCryptoLoanUpdate/contracts/libraries/Utils.sol\":1587:1588  0 */\n      dup1\n        /* \"smart contract/SwapCryptoLoanUpdate/contracts/libraries/Utils.sol\":1582:1583  4 */\n      0x04\n        /* \"smart contract/SwapCryptoLoanUpdate/contracts/libraries/Utils.sol\":1575:1579  year */\n      dup4\n        /* \"smart contract/SwapCryptoLoanUpdate/contracts/libraries/Utils.sol\":1575:1583  year % 4 */\n      tag_202\n      swap2\n      swap1\n      tag_203\n      jump\t// in\n    tag_202:\n        /* \"smart contract/SwapCryptoLoanUpdate/contracts/libraries/Utils.sol\":1575:1588  year % 4 != 0 */\n      0xffff\n      and\n      eq\n        /* \"smart contract/SwapCryptoLoanUpdate/contracts/libraries/Utils.sol\":1571:1627  if (year % 4 != 0) {... */\n      tag_204\n      jumpi\n        /* \"smart contract/SwapCryptoLoanUpdate/contracts/libraries/Utils.sol\":1611:1616  false */\n      0x00\n        /* \"smart contract/SwapCryptoLoanUpdate/contracts/libraries/Utils.sol\":1604:1616  return false */\n      swap1\n      pop\n      jump(tag_201)\n        /* \"smart contract/SwapCryptoLoanUpdate/contracts/libraries/Utils.sol\":1571:1627  if (year % 4 != 0) {... */\n    tag_204:\n        /* \"smart contract/SwapCryptoLoanUpdate/contracts/libraries/Utils.sol\":1654:1655  0 */\n      0x00\n        /* \"smart contract/SwapCryptoLoanUpdate/contracts/libraries/Utils.sol\":1647:1650  100 */\n      0x64\n        /* \"smart contract/SwapCryptoLoanUpdate/contracts/libraries/Utils.sol\":1640:1644  year */\n      dup4\n        /* \"smart contract/SwapCryptoLoanUpdate/contracts/libraries/Utils.sol\":1640:1650  year % 100 */\n      tag_205\n      swap2\n      swap1\n      tag_203\n      jump\t// in\n    tag_205:\n        /* \"smart contract/SwapCryptoLoanUpdate/contracts/libraries/Utils.sol\":1640:1655  year % 100 != 0 */\n      0xffff\n      and\n      eq\n        /* \"smart contract/SwapCryptoLoanUpdate/contracts/libraries/Utils.sol\":1636:1693  if (year % 100 != 0) {... */\n      tag_206\n      jumpi\n        /* \"smart contract/SwapCryptoLoanUpdate/contracts/libraries/Utils.sol\":1678:1682  true */\n      0x01\n        /* \"smart contract/SwapCryptoLoanUpdate/contracts/libraries/Utils.sol\":1671:1682  return true */\n      swap1\n      pop\n      jump(tag_201)\n        /* \"smart contract/SwapCryptoLoanUpdate/contracts/libraries/Utils.sol\":1636:1693  if (year % 100 != 0) {... */\n    tag_206:\n        /* \"smart contract/SwapCryptoLoanUpdate/contracts/libraries/Utils.sol\":1720:1721  0 */\n      0x00\n        /* \"smart contract/SwapCryptoLoanUpdate/contracts/libraries/Utils.sol\":1713:1716  400 */\n      0x0190\n        /* \"smart contract/SwapCryptoLoanUpdate/contracts/libraries/Utils.sol\":1706:1710  year */\n      dup4\n        /* \"smart contract/SwapCryptoLoanUpdate/contracts/libraries/Utils.sol\":1706:1716  year % 400 */\n      tag_207\n      swap2\n      swap1\n      tag_203\n      jump\t// in\n    tag_207:\n        /* \"smart contract/SwapCryptoLoanUpdate/contracts/libraries/Utils.sol\":1706:1721  year % 400 != 0 */\n      0xffff\n      and\n      eq\n        /* \"smart contract/SwapCryptoLoanUpdate/contracts/libraries/Utils.sol\":1702:1760  if (year % 400 != 0) {... */\n      tag_208\n      jumpi\n        /* \"smart contract/SwapCryptoLoanUpdate/contracts/libraries/Utils.sol\":1744:1749  false */\n      0x00\n        /* \"smart contract/SwapCryptoLoanUpdate/contracts/libraries/Utils.sol\":1737:1749  return false */\n      swap1\n      pop\n      jump(tag_201)\n        /* \"smart contract/SwapCryptoLoanUpdate/contracts/libraries/Utils.sol\":1702:1760  if (year % 400 != 0) {... */\n    tag_208:\n        /* \"smart contract/SwapCryptoLoanUpdate/contracts/libraries/Utils.sol\":1776:1780  true */\n      0x01\n        /* \"smart contract/SwapCryptoLoanUpdate/contracts/libraries/Utils.sol\":1769:1780  return true */\n      swap1\n      pop\n        /* \"smart contract/SwapCryptoLoanUpdate/contracts/libraries/Utils.sol\":1501:1787  function isLeapYear(uint16 year) public pure returns (bool) {... */\n    tag_201:\n      swap2\n      swap1\n      pop\n      jump\t// out\n        /* \"smart contract/SwapCryptoLoanUpdate/contracts/libraries/Utils.sol\":1793:1939  function leapYearsBefore(uint256 year) public pure returns (uint256) {... */\n    tag_76:\n        /* \"smart contract/SwapCryptoLoanUpdate/contracts/libraries/Utils.sol\":1853:1860  uint256 */\n      0x00\n        /* \"smart contract/SwapCryptoLoanUpdate/contracts/libraries/Utils.sol\":1880:1881  1 */\n      0x01\n        /* \"smart contract/SwapCryptoLoanUpdate/contracts/libraries/Utils.sol\":1872:1881  year -= 1 */\n      dup3\n      tag_210\n      swap2\n      swap1\n      tag_183\n      jump\t// in\n    tag_210:\n      swap2\n      pop\n        /* \"smart contract/SwapCryptoLoanUpdate/contracts/libraries/Utils.sol\":1929:1932  400 */\n      0x0190\n        /* \"smart contract/SwapCryptoLoanUpdate/contracts/libraries/Utils.sol\":1922:1926  year */\n      dup3\n        /* \"smart contract/SwapCryptoLoanUpdate/contracts/libraries/Utils.sol\":1922:1932  year / 400 */\n      tag_211\n      swap2\n      swap1\n      tag_94\n      jump\t// in\n    tag_211:\n        /* \"smart contract/SwapCryptoLoanUpdate/contracts/libraries/Utils.sol\":1916:1919  100 */\n      0x64\n        /* \"smart contract/SwapCryptoLoanUpdate/contracts/libraries/Utils.sol\":1909:1913  year */\n      dup4\n        /* \"smart contract/SwapCryptoLoanUpdate/contracts/libraries/Utils.sol\":1909:1919  year / 100 */\n      tag_212\n      swap2\n      swap1\n      tag_94\n      jump\t// in\n    tag_212:\n        /* \"smart contract/SwapCryptoLoanUpdate/contracts/libraries/Utils.sol\":1905:1906  4 */\n      0x04\n        /* \"smart contract/SwapCryptoLoanUpdate/contracts/libraries/Utils.sol\":1898:1902  year */\n      dup5\n        /* \"smart contract/SwapCryptoLoanUpdate/contracts/libraries/Utils.sol\":1898:1906  year / 4 */\n      tag_213\n      swap2\n      swap1\n      tag_94\n      jump\t// in\n    tag_213:\n        /* \"smart contract/SwapCryptoLoanUpdate/contracts/libraries/Utils.sol\":1898:1919  year / 4 - year / 100 */\n      tag_214\n      swap2\n      swap1\n      tag_183\n      jump\t// in\n    tag_214:\n        /* \"smart contract/SwapCryptoLoanUpdate/contracts/libraries/Utils.sol\":1898:1932  year / 4 - year / 100 + year / 400 */\n      tag_215\n      swap2\n      swap1\n      tag_101\n      jump\t// in\n    tag_215:\n        /* \"smart contract/SwapCryptoLoanUpdate/contracts/libraries/Utils.sol\":1891:1932  return year / 4 - year / 100 + year / 400 */\n      swap1\n      pop\n        /* \"smart contract/SwapCryptoLoanUpdate/contracts/libraries/Utils.sol\":1793:1939  function leapYearsBefore(uint256 year) public pure returns (uint256) {... */\n      swap2\n      swap1\n      pop\n      jump\t// out\n        /* \"smart contract/SwapCryptoLoanUpdate/contracts/libraries/Utils.sol\":1945:2492  function getDaysInMonth(... */\n    tag_81:\n        /* \"smart contract/SwapCryptoLoanUpdate/contracts/libraries/Utils.sol\":2038:2043  uint8 */\n      0x00\n        /* \"smart contract/SwapCryptoLoanUpdate/contracts/libraries/Utils.sol\":2081:2082  1 */\n      0x01\n        /* \"smart contract/SwapCryptoLoanUpdate/contracts/libraries/Utils.sol\":2072:2077  month */\n      dup4\n        /* \"smart contract/SwapCryptoLoanUpdate/contracts/libraries/Utils.sol\":2072:2082  month == 1 */\n      0xff\n      and\n      eq\n        /* \"smart contract/SwapCryptoLoanUpdate/contracts/libraries/Utils.sol\":2072:2108  month == 1 ||... */\n      dup1\n      tag_217\n      jumpi\n      pop\n        /* \"smart contract/SwapCryptoLoanUpdate/contracts/libraries/Utils.sol\":2107:2108  3 */\n      0x03\n        /* \"smart contract/SwapCryptoLoanUpdate/contracts/libraries/Utils.sol\":2098:2103  month */\n      dup4\n        /* \"smart contract/SwapCryptoLoanUpdate/contracts/libraries/Utils.sol\":2098:2108  month == 3 */\n      0xff\n      and\n      eq\n        /* \"smart contract/SwapCryptoLoanUpdate/contracts/libraries/Utils.sol\":2072:2108  month == 1 ||... */\n    tag_217:\n        /* \"smart contract/SwapCryptoLoanUpdate/contracts/libraries/Utils.sol\":2072:2134  month == 1 ||... */\n      dup1\n      tag_218\n      jumpi\n      pop\n        /* \"smart contract/SwapCryptoLoanUpdate/contracts/libraries/Utils.sol\":2133:2134  5 */\n      0x05\n        /* \"smart contract/SwapCryptoLoanUpdate/contracts/libraries/Utils.sol\":2124:2129  month */\n      dup4\n        /* \"smart contract/SwapCryptoLoanUpdate/contracts/libraries/Utils.sol\":2124:2134  month == 5 */\n      0xff\n      and\n      eq\n        /* \"smart contract/SwapCryptoLoanUpdate/contracts/libraries/Utils.sol\":2072:2134  month == 1 ||... */\n    tag_218:\n        /* \"smart contract/SwapCryptoLoanUpdate/contracts/libraries/Utils.sol\":2072:2160  month == 1 ||... */\n      dup1\n      tag_219\n      jumpi\n      pop\n        /* \"smart contract/SwapCryptoLoanUpdate/contracts/libraries/Utils.sol\":2159:2160  7 */\n      0x07\n        /* \"smart contract/SwapCryptoLoanUpdate/contracts/libraries/Utils.sol\":2150:2155  month */\n      dup4\n        /* \"smart contract/SwapCryptoLoanUpdate/contracts/libraries/Utils.sol\":2150:2160  month == 7 */\n      0xff\n      and\n      eq\n        /* \"smart contract/SwapCryptoLoanUpdate/contracts/libraries/Utils.sol\":2072:2160  month == 1 ||... */\n    tag_219:\n        /* \"smart contract/SwapCryptoLoanUpdate/contracts/libraries/Utils.sol\":2072:2186  month == 1 ||... */\n      dup1\n      tag_220\n      jumpi\n      pop\n        /* \"smart contract/SwapCryptoLoanUpdate/contracts/libraries/Utils.sol\":2185:2186  8 */\n      0x08\n        /* \"smart contract/SwapCryptoLoanUpdate/contracts/libraries/Utils.sol\":2176:2181  month */\n      dup4\n        /* \"smart contract/SwapCryptoLoanUpdate/contracts/libraries/Utils.sol\":2176:2186  month == 8 */\n      0xff\n      and\n      eq\n        /* \"smart contract/SwapCryptoLoanUpdate/contracts/libraries/Utils.sol\":2072:2186  month == 1 ||... */\n    tag_220:\n        /* \"smart contract/SwapCryptoLoanUpdate/contracts/libraries/Utils.sol\":2072:2213  month == 1 ||... */\n      dup1\n      tag_221\n      jumpi\n      pop\n        /* \"smart contract/SwapCryptoLoanUpdate/contracts/libraries/Utils.sol\":2211:2213  10 */\n      0x0a\n        /* \"smart contract/SwapCryptoLoanUpdate/contracts/libraries/Utils.sol\":2202:2207  month */\n      dup4\n        /* \"smart contract/SwapCryptoLoanUpdate/contracts/libraries/Utils.sol\":2202:2213  month == 10 */\n      0xff\n      and\n      eq\n        /* \"smart contract/SwapCryptoLoanUpdate/contracts/libraries/Utils.sol\":2072:2213  month == 1 ||... */\n    tag_221:\n        /* \"smart contract/SwapCryptoLoanUpdate/contracts/libraries/Utils.sol\":2072:2240  month == 1 ||... */\n      dup1\n      tag_222\n      jumpi\n      pop\n        /* \"smart contract/SwapCryptoLoanUpdate/contracts/libraries/Utils.sol\":2238:2240  12 */\n      0x0c\n        /* \"smart contract/SwapCryptoLoanUpdate/contracts/libraries/Utils.sol\":2229:2234  month */\n      dup4\n        /* \"smart contract/SwapCryptoLoanUpdate/contracts/libraries/Utils.sol\":2229:2240  month == 12 */\n      0xff\n      and\n      eq\n        /* \"smart contract/SwapCryptoLoanUpdate/contracts/libraries/Utils.sol\":2072:2240  month == 1 ||... */\n    tag_222:\n        /* \"smart contract/SwapCryptoLoanUpdate/contracts/libraries/Utils.sol\":2055:2486  if (... */\n      iszero\n      tag_223\n      jumpi\n        /* \"smart contract/SwapCryptoLoanUpdate/contracts/libraries/Utils.sol\":2272:2274  31 */\n      0x1f\n        /* \"smart contract/SwapCryptoLoanUpdate/contracts/libraries/Utils.sol\":2265:2274  return 31 */\n      swap1\n      pop\n      jump(tag_216)\n        /* \"smart contract/SwapCryptoLoanUpdate/contracts/libraries/Utils.sol\":2055:2486  if (... */\n    tag_223:\n        /* \"smart contract/SwapCryptoLoanUpdate/contracts/libraries/Utils.sol\":2304:2305  4 */\n      0x04\n        /* \"smart contract/SwapCryptoLoanUpdate/contracts/libraries/Utils.sol\":2295:2300  month */\n      dup4\n        /* \"smart contract/SwapCryptoLoanUpdate/contracts/libraries/Utils.sol\":2295:2305  month == 4 */\n      0xff\n      and\n      eq\n        /* \"smart contract/SwapCryptoLoanUpdate/contracts/libraries/Utils.sol\":2295:2319  month == 4 || month == 6 */\n      dup1\n      tag_225\n      jumpi\n      pop\n        /* \"smart contract/SwapCryptoLoanUpdate/contracts/libraries/Utils.sol\":2318:2319  6 */\n      0x06\n        /* \"smart contract/SwapCryptoLoanUpdate/contracts/libraries/Utils.sol\":2309:2314  month */\n      dup4\n        /* \"smart contract/SwapCryptoLoanUpdate/contracts/libraries/Utils.sol\":2309:2319  month == 6 */\n      0xff\n      and\n      eq\n        /* \"smart contract/SwapCryptoLoanUpdate/contracts/libraries/Utils.sol\":2295:2319  month == 4 || month == 6 */\n    tag_225:\n        /* \"smart contract/SwapCryptoLoanUpdate/contracts/libraries/Utils.sol\":2295:2333  month == 4 || month == 6 || month == 9 */\n      dup1\n      tag_226\n      jumpi\n      pop\n        /* \"smart contract/SwapCryptoLoanUpdate/contracts/libraries/Utils.sol\":2332:2333  9 */\n      0x09\n        /* \"smart contract/SwapCryptoLoanUpdate/contracts/libraries/Utils.sol\":2323:2328  month */\n      dup4\n        /* \"smart contract/SwapCryptoLoanUpdate/contracts/libraries/Utils.sol\":2323:2333  month == 9 */\n      0xff\n      and\n      eq\n        /* \"smart contract/SwapCryptoLoanUpdate/contracts/libraries/Utils.sol\":2295:2333  month == 4 || month == 6 || month == 9 */\n    tag_226:\n        /* \"smart contract/SwapCryptoLoanUpdate/contracts/libraries/Utils.sol\":2295:2348  month == 4 || month == 6 || month == 9 || month == 11 */\n      dup1\n      tag_227\n      jumpi\n      pop\n        /* \"smart contract/SwapCryptoLoanUpdate/contracts/libraries/Utils.sol\":2346:2348  11 */\n      0x0b\n        /* \"smart contract/SwapCryptoLoanUpdate/contracts/libraries/Utils.sol\":2337:2342  month */\n      dup4\n        /* \"smart contract/SwapCryptoLoanUpdate/contracts/libraries/Utils.sol\":2337:2348  month == 11 */\n      0xff\n      and\n      eq\n        /* \"smart contract/SwapCryptoLoanUpdate/contracts/libraries/Utils.sol\":2295:2348  month == 4 || month == 6 || month == 9 || month == 11 */\n    tag_227:\n        /* \"smart contract/SwapCryptoLoanUpdate/contracts/libraries/Utils.sol\":2291:2486  if (month == 4 || month == 6 || month == 9 || month == 11) {... */\n      iszero\n      tag_228\n      jumpi\n        /* \"smart contract/SwapCryptoLoanUpdate/contracts/libraries/Utils.sol\":2371:2373  30 */\n      0x1e\n        /* \"smart contract/SwapCryptoLoanUpdate/contracts/libraries/Utils.sol\":2364:2373  return 30 */\n      swap1\n      pop\n      jump(tag_216)\n        /* \"smart contract/SwapCryptoLoanUpdate/contracts/libraries/Utils.sol\":2291:2486  if (month == 4 || month == 6 || month == 9 || month == 11) {... */\n    tag_228:\n        /* \"smart contract/SwapCryptoLoanUpdate/contracts/libraries/Utils.sol\":2394:2410  isLeapYear(year) */\n      tag_230\n        /* \"smart contract/SwapCryptoLoanUpdate/contracts/libraries/Utils.sol\":2405:2409  year */\n      dup3\n        /* \"smart contract/SwapCryptoLoanUpdate/contracts/libraries/Utils.sol\":2394:2404  isLeapYear */\n      tag_71\n        /* \"smart contract/SwapCryptoLoanUpdate/contracts/libraries/Utils.sol\":2394:2410  isLeapYear(year) */\n      jump\t// in\n    tag_230:\n        /* \"smart contract/SwapCryptoLoanUpdate/contracts/libraries/Utils.sol\":2390:2486  if (isLeapYear(year)) {... */\n      iszero\n      tag_231\n      jumpi\n        /* \"smart contract/SwapCryptoLoanUpdate/contracts/libraries/Utils.sol\":2433:2435  29 */\n      0x1d\n        /* \"smart contract/SwapCryptoLoanUpdate/contracts/libraries/Utils.sol\":2426:2435  return 29 */\n      swap1\n      pop\n      jump(tag_216)\n        /* \"smart contract/SwapCryptoLoanUpdate/contracts/libraries/Utils.sol\":2390:2486  if (isLeapYear(year)) {... */\n    tag_231:\n        /* \"smart contract/SwapCryptoLoanUpdate/contracts/libraries/Utils.sol\":2473:2475  28 */\n      0x1c\n        /* \"smart contract/SwapCryptoLoanUpdate/contracts/libraries/Utils.sol\":2466:2475  return 28 */\n      swap1\n      pop\n        /* \"smart contract/SwapCryptoLoanUpdate/contracts/libraries/Utils.sol\":1945:2492  function getDaysInMonth(... */\n    tag_216:\n      swap3\n      swap2\n      pop\n      pop\n      jump\t// out\n        /* \"smart contract/SwapCryptoLoanUpdate/contracts/libraries/Utils.sol\":1255:1495  function getDiff(uint256 start, uint256 end) public pure returns (uint256) {... */\n    tag_86:\n        /* \"smart contract/SwapCryptoLoanUpdate/contracts/libraries/Utils.sol\":1321:1328  uint256 */\n      0x00\n        /* \"smart contract/SwapCryptoLoanUpdate/contracts/libraries/Utils.sol\":1340:1356  uint256 daysDiff */\n      dup1\n        /* \"smart contract/SwapCryptoLoanUpdate/contracts/libraries/Utils.sol\":669:671  24 */\n      0x18\n        /* \"smart contract/SwapCryptoLoanUpdate/contracts/libraries/Utils.sol\":629:631  60 */\n      0x3c\n      dup1\n        /* \"smart contract/SwapCryptoLoanUpdate/contracts/libraries/Utils.sol\":1366:1371  start */\n      dup7\n        /* \"smart contract/SwapCryptoLoanUpdate/contracts/libraries/Utils.sol\":1360:1363  end */\n      dup7\n        /* \"smart contract/SwapCryptoLoanUpdate/contracts/libraries/Utils.sol\":1360:1371  end - start */\n      tag_234\n      swap2\n      swap1\n      tag_183\n      jump\t// in\n    tag_234:\n        /* \"smart contract/SwapCryptoLoanUpdate/contracts/libraries/Utils.sol\":1359:1404  (end - start) /... */\n      tag_235\n      swap2\n      swap1\n      tag_94\n      jump\t// in\n    tag_235:\n        /* \"smart contract/SwapCryptoLoanUpdate/contracts/libraries/Utils.sol\":1359:1436  (end - start) /... */\n      tag_236\n      swap2\n      swap1\n      tag_94\n      jump\t// in\n    tag_236:\n        /* \"smart contract/SwapCryptoLoanUpdate/contracts/libraries/Utils.sol\":1359:1463  (end - start) /... */\n      tag_237\n      swap2\n      swap1\n      tag_94\n      jump\t// in\n    tag_237:\n        /* \"smart contract/SwapCryptoLoanUpdate/contracts/libraries/Utils.sol\":1340:1463  uint256 daysDiff = (end - start) /... */\n      swap1\n      pop\n        /* \"smart contract/SwapCryptoLoanUpdate/contracts/libraries/Utils.sol\":1480:1488  daysDiff */\n      dup1\n        /* \"smart contract/SwapCryptoLoanUpdate/contracts/libraries/Utils.sol\":1473:1488  return daysDiff */\n      swap2\n      pop\n      pop\n        /* \"smart contract/SwapCryptoLoanUpdate/contracts/libraries/Utils.sol\":1255:1495  function getDiff(uint256 start, uint256 end) public pure returns (uint256) {... */\n      swap3\n      swap2\n      pop\n      pop\n      jump\t// out\n        /* \"smart contract/SwapCryptoLoanUpdate/contracts/libraries/Utils.sol\":5022:5140  function getMinute(uint256 timestamp) public pure returns (uint8) {... */\n    tag_90:\n        /* \"smart contract/SwapCryptoLoanUpdate/contracts/libraries/Utils.sol\":5081:5086  uint8 */\n      0x00\n        /* \"smart contract/SwapCryptoLoanUpdate/contracts/libraries/Utils.sol\":5130:5132  60 */\n      0x3c\n        /* \"smart contract/SwapCryptoLoanUpdate/contracts/libraries/Utils.sol\":5124:5126  60 */\n      dup1\n        /* \"smart contract/SwapCryptoLoanUpdate/contracts/libraries/Utils.sol\":5112:5121  timestamp */\n      dup4\n        /* \"smart contract/SwapCryptoLoanUpdate/contracts/libraries/Utils.sol\":5112:5126  timestamp / 60 */\n      tag_239\n      swap2\n      swap1\n      tag_94\n      jump\t// in\n    tag_239:\n        /* \"smart contract/SwapCryptoLoanUpdate/contracts/libraries/Utils.sol\":5111:5132  (timestamp / 60) % 60 */\n      tag_240\n      swap2\n      swap1\n      tag_97\n      jump\t// in\n    tag_240:\n        /* \"smart contract/SwapCryptoLoanUpdate/contracts/libraries/Utils.sol\":5098:5133  return uint8((timestamp / 60) % 60) */\n      swap1\n      pop\n        /* \"smart contract/SwapCryptoLoanUpdate/contracts/libraries/Utils.sol\":5022:5140  function getMinute(uint256 timestamp) public pure returns (uint8) {... */\n      swap2\n      swap1\n      pop\n      jump\t// out\n        /* \"smart contract/SwapCryptoLoanUpdate/contracts/libraries/Utils.sol\":2498:3827  function parseTimestamp(... */\n    tag_107:\n        /* \"smart contract/SwapCryptoLoanUpdate/contracts/libraries/Utils.sol\":2578:2594  _Utils memory dt */\n      tag_241\n      tag_242\n      jump\t// in\n    tag_241:\n        /* \"smart contract/SwapCryptoLoanUpdate/contracts/libraries/Utils.sol\":2606:2633  uint256 secondsAccountedFor */\n      0x00\n        /* \"smart contract/SwapCryptoLoanUpdate/contracts/libraries/Utils.sol\":2647:2658  uint256 buf */\n      dup1\n        /* \"smart contract/SwapCryptoLoanUpdate/contracts/libraries/Utils.sol\":2668:2675  uint8 i */\n      dup1\n        /* \"smart contract/SwapCryptoLoanUpdate/contracts/libraries/Utils.sol\":2712:2730  getYear(timestamp) */\n      tag_244\n        /* \"smart contract/SwapCryptoLoanUpdate/contracts/libraries/Utils.sol\":2720:2729  timestamp */\n      dup6\n        /* \"smart contract/SwapCryptoLoanUpdate/contracts/libraries/Utils.sol\":2712:2719  getYear */\n      tag_61\n        /* \"smart contract/SwapCryptoLoanUpdate/contracts/libraries/Utils.sol\":2712:2730  getYear(timestamp) */\n      jump\t// in\n    tag_244:\n        /* \"smart contract/SwapCryptoLoanUpdate/contracts/libraries/Utils.sol\":2702:2704  dt */\n      dup5\n        /* \"smart contract/SwapCryptoLoanUpdate/contracts/libraries/Utils.sol\":2702:2709  dt.year */\n      0x00\n      add\n        /* \"smart contract/SwapCryptoLoanUpdate/contracts/libraries/Utils.sol\":2702:2730  dt.year = getYear(timestamp) */\n      swap1\n      0xffff\n      and\n      swap1\n      dup2\n      0xffff\n      and\n      dup2\n      mstore\n      pop\n      pop\n        /* \"smart contract/SwapCryptoLoanUpdate/contracts/libraries/Utils.sol\":2773:2801  leapYearsBefore(ORIGIN_YEAR) */\n      tag_245\n        /* \"smart contract/SwapCryptoLoanUpdate/contracts/libraries/Utils.sol\":707:711  1970 */\n      0x07b2\n        /* \"smart contract/SwapCryptoLoanUpdate/contracts/libraries/Utils.sol\":2773:2801  leapYearsBefore(ORIGIN_YEAR) */\n      0xffff\n      and\n        /* \"smart contract/SwapCryptoLoanUpdate/contracts/libraries/Utils.sol\":2773:2788  leapYearsBefore */\n      tag_76\n        /* \"smart contract/SwapCryptoLoanUpdate/contracts/libraries/Utils.sol\":2773:2801  leapYearsBefore(ORIGIN_YEAR) */\n      jump\t// in\n    tag_245:\n        /* \"smart contract/SwapCryptoLoanUpdate/contracts/libraries/Utils.sol\":2746:2770  leapYearsBefore(dt.year) */\n      tag_246\n        /* \"smart contract/SwapCryptoLoanUpdate/contracts/libraries/Utils.sol\":2762:2764  dt */\n      dup6\n        /* \"smart contract/SwapCryptoLoanUpdate/contracts/libraries/Utils.sol\":2762:2769  dt.year */\n      0x00\n      add\n      mload\n        /* \"smart contract/SwapCryptoLoanUpdate/contracts/libraries/Utils.sol\":2746:2770  leapYearsBefore(dt.year) */\n      0xffff\n      and\n        /* \"smart contract/SwapCryptoLoanUpdate/contracts/libraries/Utils.sol\":2746:2761  leapYearsBefore */\n      tag_76\n        /* \"smart contract/SwapCryptoLoanUpdate/contracts/libraries/Utils.sol\":2746:2770  leapYearsBefore(dt.year) */\n      jump\t// in\n    tag_246:\n        /* \"smart contract/SwapCryptoLoanUpdate/contracts/libraries/Utils.sol\":2746:2801  leapYearsBefore(dt.year) - leapYearsBefore(ORIGIN_YEAR) */\n      tag_247\n      swap2\n      swap1\n      tag_183\n      jump\t// in\n    tag_247:\n        /* \"smart contract/SwapCryptoLoanUpdate/contracts/libraries/Utils.sol\":2740:2801  buf = leapYearsBefore(dt.year) - leapYearsBefore(ORIGIN_YEAR) */\n      swap2\n      pop\n        /* \"smart contract/SwapCryptoLoanUpdate/contracts/libraries/Utils.sol\":2858:2861  buf */\n      dup2\n        /* \"smart contract/SwapCryptoLoanUpdate/contracts/libraries/Utils.sol\":532:540  31622400 */\n      0x01e28500\n        /* \"smart contract/SwapCryptoLoanUpdate/contracts/libraries/Utils.sol\":2835:2861  LEAP_YEAR_IN_SECONDS * buf */\n      tag_248\n      swap2\n      swap1\n      tag_165\n      jump\t// in\n    tag_248:\n        /* \"smart contract/SwapCryptoLoanUpdate/contracts/libraries/Utils.sol\":2812:2861  secondsAccountedFor += LEAP_YEAR_IN_SECONDS * buf */\n      dup4\n      tag_249\n      swap2\n      swap1\n      tag_101\n      jump\t// in\n    tag_249:\n      swap3\n      pop\n        /* \"smart contract/SwapCryptoLoanUpdate/contracts/libraries/Utils.sol\":2937:2940  buf */\n      dup2\n        /* \"smart contract/SwapCryptoLoanUpdate/contracts/libraries/Utils.sol\":707:711  1970 */\n      0x07b2\n        /* \"smart contract/SwapCryptoLoanUpdate/contracts/libraries/Utils.sol\":2913:2915  dt */\n      dup6\n        /* \"smart contract/SwapCryptoLoanUpdate/contracts/libraries/Utils.sol\":2913:2920  dt.year */\n      0x00\n      add\n      mload\n        /* \"smart contract/SwapCryptoLoanUpdate/contracts/libraries/Utils.sol\":2913:2934  dt.year - ORIGIN_YEAR */\n      tag_250\n      swap2\n      swap1\n      tag_161\n      jump\t// in\n    tag_250:\n        /* \"smart contract/SwapCryptoLoanUpdate/contracts/libraries/Utils.sol\":2913:2940  dt.year - ORIGIN_YEAR - buf */\n      0xffff\n      and\n      tag_251\n      swap2\n      swap1\n      tag_183\n      jump\t// in\n    tag_251:\n        /* \"smart contract/SwapCryptoLoanUpdate/contracts/libraries/Utils.sol\":478:486  31536000 */\n      0x01e13380\n        /* \"smart contract/SwapCryptoLoanUpdate/contracts/libraries/Utils.sol\":2894:2941  YEAR_IN_SECONDS * (dt.year - ORIGIN_YEAR - buf) */\n      tag_252\n      swap2\n      swap1\n      tag_165\n      jump\t// in\n    tag_252:\n        /* \"smart contract/SwapCryptoLoanUpdate/contracts/libraries/Utils.sol\":2871:2941  secondsAccountedFor += YEAR_IN_SECONDS * (dt.year - ORIGIN_YEAR - buf) */\n      dup4\n      tag_253\n      swap2\n      swap1\n      tag_101\n      jump\t// in\n    tag_253:\n      swap3\n      pop\n        /* \"smart contract/SwapCryptoLoanUpdate/contracts/libraries/Utils.sol\":2969:2991  uint256 secondsInMonth */\n      0x00\n        /* \"smart contract/SwapCryptoLoanUpdate/contracts/libraries/Utils.sol\":3010:3011  1 */\n      0x01\n        /* \"smart contract/SwapCryptoLoanUpdate/contracts/libraries/Utils.sol\":3006:3011  i = 1 */\n      swap2\n      pop\n        /* \"smart contract/SwapCryptoLoanUpdate/contracts/libraries/Utils.sol\":3001:3298  for (i = 1; i <= 12; i++) {... */\n    tag_254:\n        /* \"smart contract/SwapCryptoLoanUpdate/contracts/libraries/Utils.sol\":3018:3020  12 */\n      0x0c\n        /* \"smart contract/SwapCryptoLoanUpdate/contracts/libraries/Utils.sol\":3013:3014  i */\n      dup3\n        /* \"smart contract/SwapCryptoLoanUpdate/contracts/libraries/Utils.sol\":3013:3020  i <= 12 */\n      0xff\n      and\n      gt\n        /* \"smart contract/SwapCryptoLoanUpdate/contracts/libraries/Utils.sol\":3001:3298  for (i = 1; i <= 12; i++) {... */\n      tag_255\n      jumpi\n        /* \"smart contract/SwapCryptoLoanUpdate/contracts/libraries/Utils.sol\":3075:3101  getDaysInMonth(i, dt.year) */\n      tag_257\n        /* \"smart contract/SwapCryptoLoanUpdate/contracts/libraries/Utils.sol\":3090:3091  i */\n      dup3\n        /* \"smart contract/SwapCryptoLoanUpdate/contracts/libraries/Utils.sol\":3093:3095  dt */\n      dup7\n        /* \"smart contract/SwapCryptoLoanUpdate/contracts/libraries/Utils.sol\":3093:3100  dt.year */\n      0x00\n      add\n      mload\n        /* \"smart contract/SwapCryptoLoanUpdate/contracts/libraries/Utils.sol\":3075:3089  getDaysInMonth */\n      tag_81\n        /* \"smart contract/SwapCryptoLoanUpdate/contracts/libraries/Utils.sol\":3075:3101  getDaysInMonth(i, dt.year) */\n      jump\t// in\n    tag_257:\n        /* \"smart contract/SwapCryptoLoanUpdate/contracts/libraries/Utils.sol\":3058:3101  DAY_IN_SECONDS * getDaysInMonth(i, dt.year) */\n      0xff\n      and\n        /* \"smart contract/SwapCryptoLoanUpdate/contracts/libraries/Utils.sol\":432:437  86400 */\n      0x015180\n        /* \"smart contract/SwapCryptoLoanUpdate/contracts/libraries/Utils.sol\":3058:3101  DAY_IN_SECONDS * getDaysInMonth(i, dt.year) */\n      tag_258\n      swap2\n      swap1\n      tag_165\n      jump\t// in\n    tag_258:\n        /* \"smart contract/SwapCryptoLoanUpdate/contracts/libraries/Utils.sol\":3041:3101  secondsInMonth = DAY_IN_SECONDS * getDaysInMonth(i, dt.year) */\n      swap1\n      pop\n        /* \"smart contract/SwapCryptoLoanUpdate/contracts/libraries/Utils.sol\":3158:3167  timestamp */\n      dup6\n        /* \"smart contract/SwapCryptoLoanUpdate/contracts/libraries/Utils.sol\":3136:3155  secondsAccountedFor */\n      dup5\n        /* \"smart contract/SwapCryptoLoanUpdate/contracts/libraries/Utils.sol\":3119:3133  secondsInMonth */\n      dup3\n        /* \"smart contract/SwapCryptoLoanUpdate/contracts/libraries/Utils.sol\":3119:3155  secondsInMonth + secondsAccountedFor */\n      tag_259\n      swap2\n      swap1\n      tag_101\n      jump\t// in\n    tag_259:\n        /* \"smart contract/SwapCryptoLoanUpdate/contracts/libraries/Utils.sol\":3119:3167  secondsInMonth + secondsAccountedFor > timestamp */\n      gt\n        /* \"smart contract/SwapCryptoLoanUpdate/contracts/libraries/Utils.sol\":3115:3237  if (secondsInMonth + secondsAccountedFor > timestamp) {... */\n      iszero\n      tag_260\n      jumpi\n        /* \"smart contract/SwapCryptoLoanUpdate/contracts/libraries/Utils.sol\":3198:3199  i */\n      dup2\n        /* \"smart contract/SwapCryptoLoanUpdate/contracts/libraries/Utils.sol\":3187:3189  dt */\n      dup6\n        /* \"smart contract/SwapCryptoLoanUpdate/contracts/libraries/Utils.sol\":3187:3195  dt.month */\n      0x20\n      add\n        /* \"smart contract/SwapCryptoLoanUpdate/contracts/libraries/Utils.sol\":3187:3199  dt.month = i */\n      swap1\n      0xff\n      and\n      swap1\n      dup2\n      0xff\n      and\n      dup2\n      mstore\n      pop\n      pop\n        /* \"smart contract/SwapCryptoLoanUpdate/contracts/libraries/Utils.sol\":3217:3222  break */\n      jump(tag_255)\n        /* \"smart contract/SwapCryptoLoanUpdate/contracts/libraries/Utils.sol\":3115:3237  if (secondsInMonth + secondsAccountedFor > timestamp) {... */\n    tag_260:\n        /* \"smart contract/SwapCryptoLoanUpdate/contracts/libraries/Utils.sol\":3273:3287  secondsInMonth */\n      dup1\n        /* \"smart contract/SwapCryptoLoanUpdate/contracts/libraries/Utils.sol\":3250:3287  secondsAccountedFor += secondsInMonth */\n      dup5\n      tag_261\n      swap2\n      swap1\n      tag_101\n      jump\t// in\n    tag_261:\n      swap4\n      pop\n        /* \"smart contract/SwapCryptoLoanUpdate/contracts/libraries/Utils.sol\":3022:3025  i++ */\n      dup2\n      dup1\n      tag_262\n      swap1\n      tag_263\n      jump\t// in\n    tag_262:\n      swap3\n      pop\n      pop\n        /* \"smart contract/SwapCryptoLoanUpdate/contracts/libraries/Utils.sol\":3001:3298  for (i = 1; i <= 12; i++) {... */\n      jump(tag_254)\n    tag_255:\n        /* \"smart contract/SwapCryptoLoanUpdate/contracts/libraries/Utils.sol\":3332:3333  1 */\n      0x01\n        /* \"smart contract/SwapCryptoLoanUpdate/contracts/libraries/Utils.sol\":3328:3333  i = 1 */\n      swap2\n      pop\n        /* \"smart contract/SwapCryptoLoanUpdate/contracts/libraries/Utils.sol\":3323:3575  for (i = 1; i <= getDaysInMonth(dt.month, dt.year); i++) {... */\n    tag_264:\n        /* \"smart contract/SwapCryptoLoanUpdate/contracts/libraries/Utils.sol\":3340:3373  getDaysInMonth(dt.month, dt.year) */\n      tag_267\n        /* \"smart contract/SwapCryptoLoanUpdate/contracts/libraries/Utils.sol\":3355:3357  dt */\n      dup6\n        /* \"smart contract/SwapCryptoLoanUpdate/contracts/libraries/Utils.sol\":3355:3363  dt.month */\n      0x20\n      add\n      mload\n        /* \"smart contract/SwapCryptoLoanUpdate/contracts/libraries/Utils.sol\":3365:3367  dt */\n      dup7\n        /* \"smart contract/SwapCryptoLoanUpdate/contracts/libraries/Utils.sol\":3365:3372  dt.year */\n      0x00\n      add\n      mload\n        /* \"smart contract/SwapCryptoLoanUpdate/contracts/libraries/Utils.sol\":3340:3354  getDaysInMonth */\n      tag_81\n        /* \"smart contract/SwapCryptoLoanUpdate/contracts/libraries/Utils.sol\":3340:3373  getDaysInMonth(dt.month, dt.year) */\n      jump\t// in\n    tag_267:\n        /* \"smart contract/SwapCryptoLoanUpdate/contracts/libraries/Utils.sol\":3335:3373  i <= getDaysInMonth(dt.month, dt.year) */\n      0xff\n      and\n        /* \"smart contract/SwapCryptoLoanUpdate/contracts/libraries/Utils.sol\":3335:3336  i */\n      dup3\n        /* \"smart contract/SwapCryptoLoanUpdate/contracts/libraries/Utils.sol\":3335:3373  i <= getDaysInMonth(dt.month, dt.year) */\n      0xff\n      and\n      gt\n        /* \"smart contract/SwapCryptoLoanUpdate/contracts/libraries/Utils.sol\":3323:3575  for (i = 1; i <= getDaysInMonth(dt.month, dt.year); i++) {... */\n      tag_265\n      jumpi\n        /* \"smart contract/SwapCryptoLoanUpdate/contracts/libraries/Utils.sol\":3437:3446  timestamp */\n      dup6\n        /* \"smart contract/SwapCryptoLoanUpdate/contracts/libraries/Utils.sol\":3415:3434  secondsAccountedFor */\n      dup5\n        /* \"smart contract/SwapCryptoLoanUpdate/contracts/libraries/Utils.sol\":432:437  86400 */\n      0x015180\n        /* \"smart contract/SwapCryptoLoanUpdate/contracts/libraries/Utils.sol\":3398:3434  DAY_IN_SECONDS + secondsAccountedFor */\n      tag_268\n      swap2\n      swap1\n      tag_101\n      jump\t// in\n    tag_268:\n        /* \"smart contract/SwapCryptoLoanUpdate/contracts/libraries/Utils.sol\":3398:3446  DAY_IN_SECONDS + secondsAccountedFor > timestamp */\n      gt\n        /* \"smart contract/SwapCryptoLoanUpdate/contracts/libraries/Utils.sol\":3394:3514  if (DAY_IN_SECONDS + secondsAccountedFor > timestamp) {... */\n      iszero\n      tag_269\n      jumpi\n        /* \"smart contract/SwapCryptoLoanUpdate/contracts/libraries/Utils.sol\":3475:3476  i */\n      dup2\n        /* \"smart contract/SwapCryptoLoanUpdate/contracts/libraries/Utils.sol\":3466:3468  dt */\n      dup6\n        /* \"smart contract/SwapCryptoLoanUpdate/contracts/libraries/Utils.sol\":3466:3472  dt.day */\n      0x40\n      add\n        /* \"smart contract/SwapCryptoLoanUpdate/contracts/libraries/Utils.sol\":3466:3476  dt.day = i */\n      swap1\n      0xff\n      and\n      swap1\n      dup2\n      0xff\n      and\n      dup2\n      mstore\n      pop\n      pop\n        /* \"smart contract/SwapCryptoLoanUpdate/contracts/libraries/Utils.sol\":3494:3499  break */\n      jump(tag_265)\n        /* \"smart contract/SwapCryptoLoanUpdate/contracts/libraries/Utils.sol\":3394:3514  if (DAY_IN_SECONDS + secondsAccountedFor > timestamp) {... */\n    tag_269:\n        /* \"smart contract/SwapCryptoLoanUpdate/contracts/libraries/Utils.sol\":432:437  86400 */\n      0x015180\n        /* \"smart contract/SwapCryptoLoanUpdate/contracts/libraries/Utils.sol\":3527:3564  secondsAccountedFor += DAY_IN_SECONDS */\n      dup5\n      tag_270\n      swap2\n      swap1\n      tag_101\n      jump\t// in\n    tag_270:\n      swap4\n      pop\n        /* \"smart contract/SwapCryptoLoanUpdate/contracts/libraries/Utils.sol\":3375:3378  i++ */\n      dup2\n      dup1\n      tag_271\n      swap1\n      tag_263\n      jump\t// in\n    tag_271:\n      swap3\n      pop\n      pop\n        /* \"smart contract/SwapCryptoLoanUpdate/contracts/libraries/Utils.sol\":3323:3575  for (i = 1; i <= getDaysInMonth(dt.month, dt.year); i++) {... */\n      jump(tag_264)\n    tag_265:\n        /* \"smart contract/SwapCryptoLoanUpdate/contracts/libraries/Utils.sol\":3611:3629  getHour(timestamp) */\n      tag_272\n        /* \"smart contract/SwapCryptoLoanUpdate/contracts/libraries/Utils.sol\":3619:3628  timestamp */\n      dup7\n        /* \"smart contract/SwapCryptoLoanUpdate/contracts/libraries/Utils.sol\":3611:3618  getHour */\n      tag_23\n        /* \"smart contract/SwapCryptoLoanUpdate/contracts/libraries/Utils.sol\":3611:3629  getHour(timestamp) */\n      jump\t// in\n    tag_272:\n        /* \"smart contract/SwapCryptoLoanUpdate/contracts/libraries/Utils.sol\":3601:3603  dt */\n      dup6\n        /* \"smart contract/SwapCryptoLoanUpdate/contracts/libraries/Utils.sol\":3601:3608  dt.hour */\n      0x60\n      add\n        /* \"smart contract/SwapCryptoLoanUpdate/contracts/libraries/Utils.sol\":3601:3629  dt.hour = getHour(timestamp) */\n      swap1\n      0xff\n      and\n      swap1\n      dup2\n      0xff\n      and\n      dup2\n      mstore\n      pop\n      pop\n        /* \"smart contract/SwapCryptoLoanUpdate/contracts/libraries/Utils.sol\":3670:3690  getMinute(timestamp) */\n      tag_273\n        /* \"smart contract/SwapCryptoLoanUpdate/contracts/libraries/Utils.sol\":3680:3689  timestamp */\n      dup7\n        /* \"smart contract/SwapCryptoLoanUpdate/contracts/libraries/Utils.sol\":3670:3679  getMinute */\n      tag_90\n        /* \"smart contract/SwapCryptoLoanUpdate/contracts/libraries/Utils.sol\":3670:3690  getMinute(timestamp) */\n      jump\t// in\n    tag_273:\n        /* \"smart contract/SwapCryptoLoanUpdate/contracts/libraries/Utils.sol\":3658:3660  dt */\n      dup6\n        /* \"smart contract/SwapCryptoLoanUpdate/contracts/libraries/Utils.sol\":3658:3667  dt.minute */\n      0x80\n      add\n        /* \"smart contract/SwapCryptoLoanUpdate/contracts/libraries/Utils.sol\":3658:3690  dt.minute = getMinute(timestamp) */\n      swap1\n      0xff\n      and\n      swap1\n      dup2\n      0xff\n      and\n      dup2\n      mstore\n      pop\n      pop\n        /* \"smart contract/SwapCryptoLoanUpdate/contracts/libraries/Utils.sol\":3731:3751  getSecond(timestamp) */\n      tag_274\n        /* \"smart contract/SwapCryptoLoanUpdate/contracts/libraries/Utils.sol\":3741:3750  timestamp */\n      dup7\n        /* \"smart contract/SwapCryptoLoanUpdate/contracts/libraries/Utils.sol\":3731:3740  getSecond */\n      tag_47\n        /* \"smart contract/SwapCryptoLoanUpdate/contracts/libraries/Utils.sol\":3731:3751  getSecond(timestamp) */\n      jump\t// in\n    tag_274:\n        /* \"smart contract/SwapCryptoLoanUpdate/contracts/libraries/Utils.sol\":3719:3721  dt */\n      dup6\n        /* \"smart contract/SwapCryptoLoanUpdate/contracts/libraries/Utils.sol\":3719:3728  dt.second */\n      0xa0\n      add\n        /* \"smart contract/SwapCryptoLoanUpdate/contracts/libraries/Utils.sol\":3719:3751  dt.second = getSecond(timestamp) */\n      swap1\n      0xff\n      and\n      swap1\n      dup2\n      0xff\n      and\n      dup2\n      mstore\n      pop\n      pop\n        /* \"smart contract/SwapCryptoLoanUpdate/contracts/libraries/Utils.sol\":3799:3820  getWeekday(timestamp) */\n      tag_275\n        /* \"smart contract/SwapCryptoLoanUpdate/contracts/libraries/Utils.sol\":3810:3819  timestamp */\n      dup7\n        /* \"smart contract/SwapCryptoLoanUpdate/contracts/libraries/Utils.sol\":3799:3809  getWeekday */\n      tag_28\n        /* \"smart contract/SwapCryptoLoanUpdate/contracts/libraries/Utils.sol\":3799:3820  getWeekday(timestamp) */\n      jump\t// in\n    tag_275:\n        /* \"smart contract/SwapCryptoLoanUpdate/contracts/libraries/Utils.sol\":3786:3788  dt */\n      dup6\n        /* \"smart contract/SwapCryptoLoanUpdate/contracts/libraries/Utils.sol\":3786:3796  dt.weekday */\n      0xc0\n      add\n        /* \"smart contract/SwapCryptoLoanUpdate/contracts/libraries/Utils.sol\":3786:3820  dt.weekday = getWeekday(timestamp) */\n      swap1\n      0xff\n      and\n      swap1\n      dup2\n      0xff\n      and\n      dup2\n      mstore\n      pop\n      pop\n        /* \"smart contract/SwapCryptoLoanUpdate/contracts/libraries/Utils.sol\":2596:3827  {... */\n      pop\n      pop\n      pop\n      pop\n        /* \"smart contract/SwapCryptoLoanUpdate/contracts/libraries/Utils.sol\":2498:3827  function parseTimestamp(... */\n      swap2\n      swap1\n      pop\n      jump\t// out\n    tag_126:\n      mload(0x40)\n      dup1\n      0x0180\n      add\n      0x40\n      mstore\n      dup1\n      0x0c\n      swap1\n      0x20\n      dup3\n      mul\n      dup1\n      calldatasize\n      dup4\n      calldatacopy\n      dup1\n      dup3\n      add\n      swap2\n      pop\n      pop\n      swap1\n      pop\n      pop\n      swap1\n      jump\t// out\n    tag_242:\n      mload(0x40)\n      dup1\n      0xe0\n      add\n      0x40\n      mstore\n      dup1\n      and(0xffff, 0x00)\n      dup2\n      mstore\n      0x20\n      add\n      and(0xff, 0x00)\n      dup2\n      mstore\n      0x20\n      add\n      and(0xff, 0x00)\n      dup2\n      mstore\n      0x20\n      add\n      and(0xff, 0x00)\n      dup2\n      mstore\n      0x20\n      add\n      and(0xff, 0x00)\n      dup2\n      mstore\n      0x20\n      add\n      and(0xff, 0x00)\n      dup2\n      mstore\n      0x20\n      add\n      and(0xff, 0x00)\n      dup2\n      mstore\n      pop\n      swap1\n      jump\t// out\n        /* \"#utility.yul\":88:205   */\n    tag_277:\n        /* \"#utility.yul\":197:198   */\n      0x00\n        /* \"#utility.yul\":194:195   */\n      dup1\n        /* \"#utility.yul\":187:199   */\n      revert\n        /* \"#utility.yul\":334:411   */\n    tag_279:\n        /* \"#utility.yul\":371:378   */\n      0x00\n        /* \"#utility.yul\":400:405   */\n      dup2\n        /* \"#utility.yul\":389:405   */\n      swap1\n      pop\n        /* \"#utility.yul\":334:411   */\n      swap2\n      swap1\n      pop\n      jump\t// out\n        /* \"#utility.yul\":417:539   */\n    tag_280:\n        /* \"#utility.yul\":490:514   */\n      tag_301\n        /* \"#utility.yul\":508:513   */\n      dup2\n        /* \"#utility.yul\":490:514   */\n      tag_279\n      jump\t// in\n    tag_301:\n        /* \"#utility.yul\":483:488   */\n      dup2\n        /* \"#utility.yul\":480:515   */\n      eq\n        /* \"#utility.yul\":470:533   */\n      tag_302\n      jumpi\n        /* \"#utility.yul\":529:530   */\n      0x00\n        /* \"#utility.yul\":526:527   */\n      dup1\n        /* \"#utility.yul\":519:531   */\n      revert\n        /* \"#utility.yul\":470:533   */\n    tag_302:\n        /* \"#utility.yul\":417:539   */\n      pop\n      jump\t// out\n        /* \"#utility.yul\":545:684   */\n    tag_281:\n        /* \"#utility.yul\":591:596   */\n      0x00\n        /* \"#utility.yul\":629:635   */\n      dup2\n        /* \"#utility.yul\":616:636   */\n      calldataload\n        /* \"#utility.yul\":607:636   */\n      swap1\n      pop\n        /* \"#utility.yul\":645:678   */\n      tag_304\n        /* \"#utility.yul\":672:677   */\n      dup2\n        /* \"#utility.yul\":645:678   */\n      tag_280\n      jump\t// in\n    tag_304:\n        /* \"#utility.yul\":545:684   */\n      swap3\n      swap2\n      pop\n      pop\n      jump\t// out\n        /* \"#utility.yul\":690:1019   */\n    tag_22:\n        /* \"#utility.yul\":749:755   */\n      0x00\n        /* \"#utility.yul\":798:800   */\n      0x20\n        /* \"#utility.yul\":786:795   */\n      dup3\n        /* \"#utility.yul\":777:784   */\n      dup5\n        /* \"#utility.yul\":773:796   */\n      sub\n        /* \"#utility.yul\":769:801   */\n      slt\n        /* \"#utility.yul\":766:885   */\n      iszero\n      tag_306\n      jumpi\n        /* \"#utility.yul\":804:883   */\n      tag_307\n      tag_277\n      jump\t// in\n    tag_307:\n        /* \"#utility.yul\":766:885   */\n    tag_306:\n        /* \"#utility.yul\":924:925   */\n      0x00\n        /* \"#utility.yul\":949:1002   */\n      tag_308\n        /* \"#utility.yul\":994:1001   */\n      dup5\n        /* \"#utility.yul\":985:991   */\n      dup3\n        /* \"#utility.yul\":974:983   */\n      dup6\n        /* \"#utility.yul\":970:992   */\n      add\n        /* \"#utility.yul\":949:1002   */\n      tag_281\n      jump\t// in\n    tag_308:\n        /* \"#utility.yul\":939:1002   */\n      swap2\n      pop\n        /* \"#utility.yul\":895:1012   */\n      pop\n        /* \"#utility.yul\":690:1019   */\n      swap3\n      swap2\n      pop\n      pop\n      jump\t// out\n        /* \"#utility.yul\":1025:1111   */\n    tag_282:\n        /* \"#utility.yul\":1060:1067   */\n      0x00\n        /* \"#utility.yul\":1100:1104   */\n      0xff\n        /* \"#utility.yul\":1093:1098   */\n      dup3\n        /* \"#utility.yul\":1089:1105   */\n      and\n        /* \"#utility.yul\":1078:1105   */\n      swap1\n      pop\n        /* \"#utility.yul\":1025:1111   */\n      swap2\n      swap1\n      pop\n      jump\t// out\n        /* \"#utility.yul\":1117:1237   */\n    tag_283:\n        /* \"#utility.yul\":1208:1230   */\n      tag_311\n        /* \"#utility.yul\":1224:1229   */\n      dup2\n        /* \"#utility.yul\":1208:1230   */\n      tag_282\n      jump\t// in\n    tag_311:\n        /* \"#utility.yul\":1203:1206   */\n      dup3\n        /* \"#utility.yul\":1196:1231   */\n      mstore\n        /* \"#utility.yul\":1117:1237   */\n      pop\n      pop\n      jump\t// out\n        /* \"#utility.yul\":1243:1473   */\n    tag_25:\n        /* \"#utility.yul\":1340:1344   */\n      0x00\n        /* \"#utility.yul\":1378:1380   */\n      0x20\n        /* \"#utility.yul\":1367:1376   */\n      dup3\n        /* \"#utility.yul\":1363:1381   */\n      add\n        /* \"#utility.yul\":1355:1381   */\n      swap1\n      pop\n        /* \"#utility.yul\":1391:1466   */\n      tag_313\n        /* \"#utility.yul\":1463:1464   */\n      0x00\n        /* \"#utility.yul\":1452:1461   */\n      dup4\n        /* \"#utility.yul\":1448:1465   */\n      add\n        /* \"#utility.yul\":1439:1445   */\n      dup5\n        /* \"#utility.yul\":1391:1466   */\n      tag_283\n      jump\t// in\n    tag_313:\n        /* \"#utility.yul\":1243:1473   */\n      swap3\n      swap2\n      pop\n      pop\n      jump\t// out\n        /* \"#utility.yul\":1479:1568   */\n    tag_284:\n        /* \"#utility.yul\":1515:1522   */\n      0x00\n        /* \"#utility.yul\":1555:1561   */\n      0xffff\n        /* \"#utility.yul\":1548:1553   */\n      dup3\n        /* \"#utility.yul\":1544:1562   */\n      and\n        /* \"#utility.yul\":1533:1562   */\n      swap1\n      pop\n        /* \"#utility.yul\":1479:1568   */\n      swap2\n      swap1\n      pop\n      jump\t// out\n        /* \"#utility.yul\":1574:1694   */\n    tag_285:\n        /* \"#utility.yul\":1646:1669   */\n      tag_316\n        /* \"#utility.yul\":1663:1668   */\n      dup2\n        /* \"#utility.yul\":1646:1669   */\n      tag_284\n      jump\t// in\n    tag_316:\n        /* \"#utility.yul\":1639:1644   */\n      dup2\n        /* \"#utility.yul\":1636:1670   */\n      eq\n        /* \"#utility.yul\":1626:1688   */\n      tag_317\n      jumpi\n        /* \"#utility.yul\":1684:1685   */\n      0x00\n        /* \"#utility.yul\":1681:1682   */\n      dup1\n        /* \"#utility.yul\":1674:1686   */\n      revert\n        /* \"#utility.yul\":1626:1688   */\n    tag_317:\n        /* \"#utility.yul\":1574:1694   */\n      pop\n      jump\t// out\n        /* \"#utility.yul\":1700:1837   */\n    tag_286:\n        /* \"#utility.yul\":1745:1750   */\n      0x00\n        /* \"#utility.yul\":1783:1789   */\n      dup2\n        /* \"#utility.yul\":1770:1790   */\n      calldataload\n        /* \"#utility.yul\":1761:1790   */\n      swap1\n      pop\n        /* \"#utility.yul\":1799:1831   */\n      tag_319\n        /* \"#utility.yul\":1825:1830   */\n      dup2\n        /* \"#utility.yul\":1799:1831   */\n      tag_285\n      jump\t// in\n    tag_319:\n        /* \"#utility.yul\":1700:1837   */\n      swap3\n      swap2\n      pop\n      pop\n      jump\t// out\n        /* \"#utility.yul\":1843:1961   */\n    tag_287:\n        /* \"#utility.yul\":1914:1936   */\n      tag_321\n        /* \"#utility.yul\":1930:1935   */\n      dup2\n        /* \"#utility.yul\":1914:1936   */\n      tag_282\n      jump\t// in\n    tag_321:\n        /* \"#utility.yul\":1907:1912   */\n      dup2\n        /* \"#utility.yul\":1904:1937   */\n      eq\n        /* \"#utility.yul\":1894:1955   */\n      tag_322\n      jumpi\n        /* \"#utility.yul\":1951:1952   */\n      0x00\n        /* \"#utility.yul\":1948:1949   */\n      dup1\n        /* \"#utility.yul\":1941:1953   */\n      revert\n        /* \"#utility.yul\":1894:1955   */\n    tag_322:\n        /* \"#utility.yul\":1843:1961   */\n      pop\n      jump\t// out\n        /* \"#utility.yul\":1967:2102   */\n    tag_288:\n        /* \"#utility.yul\":2011:2016   */\n      0x00\n        /* \"#utility.yul\":2049:2055   */\n      dup2\n        /* \"#utility.yul\":2036:2056   */\n      calldataload\n        /* \"#utility.yul\":2027:2056   */\n      swap1\n      pop\n        /* \"#utility.yul\":2065:2096   */\n      tag_324\n        /* \"#utility.yul\":2090:2095   */\n      dup2\n        /* \"#utility.yul\":2065:2096   */\n      tag_287\n      jump\t// in\n    tag_324:\n        /* \"#utility.yul\":1967:2102   */\n      swap3\n      swap2\n      pop\n      pop\n      jump\t// out\n        /* \"#utility.yul\":2108:3001   */\n    tag_32:\n        /* \"#utility.yul\":2194:2200   */\n      0x00\n        /* \"#utility.yul\":2202:2208   */\n      dup1\n        /* \"#utility.yul\":2210:2216   */\n      0x00\n        /* \"#utility.yul\":2218:2224   */\n      dup1\n        /* \"#utility.yul\":2226:2232   */\n      0x00\n        /* \"#utility.yul\":2275:2278   */\n      0xa0\n        /* \"#utility.yul\":2263:2272   */\n      dup7\n        /* \"#utility.yul\":2254:2261   */\n      dup9\n        /* \"#utility.yul\":2250:2273   */\n      sub\n        /* \"#utility.yul\":2246:2279   */\n      slt\n        /* \"#utility.yul\":2243:2363   */\n      iszero\n      tag_326\n      jumpi\n        /* \"#utility.yul\":2282:2361   */\n      tag_327\n      tag_277\n      jump\t// in\n    tag_327:\n        /* \"#utility.yul\":2243:2363   */\n    tag_326:\n        /* \"#utility.yul\":2402:2403   */\n      0x00\n        /* \"#utility.yul\":2427:2479   */\n      tag_328\n        /* \"#utility.yul\":2471:2478   */\n      dup9\n        /* \"#utility.yul\":2462:2468   */\n      dup3\n        /* \"#utility.yul\":2451:2460   */\n      dup10\n        /* \"#utility.yul\":2447:2469   */\n      add\n        /* \"#utility.yul\":2427:2479   */\n      tag_286\n      jump\t// in\n    tag_328:\n        /* \"#utility.yul\":2417:2479   */\n      swap6\n      pop\n        /* \"#utility.yul\":2373:2489   */\n      pop\n        /* \"#utility.yul\":2528:2530   */\n      0x20\n        /* \"#utility.yul\":2554:2605   */\n      tag_329\n        /* \"#utility.yul\":2597:2604   */\n      dup9\n        /* \"#utility.yul\":2588:2594   */\n      dup3\n        /* \"#utility.yul\":2577:2586   */\n      dup10\n        /* \"#utility.yul\":2573:2595   */\n      add\n        /* \"#utility.yul\":2554:2605   */\n      tag_288\n      jump\t// in\n    tag_329:\n        /* \"#utility.yul\":2544:2605   */\n      swap5\n      pop\n        /* \"#utility.yul\":2499:2615   */\n      pop\n        /* \"#utility.yul\":2654:2656   */\n      0x40\n        /* \"#utility.yul\":2680:2731   */\n      tag_330\n        /* \"#utility.yul\":2723:2730   */\n      dup9\n        /* \"#utility.yul\":2714:2720   */\n      dup3\n        /* \"#utility.yul\":2703:2712   */\n      dup10\n        /* \"#utility.yul\":2699:2721   */\n      add\n        /* \"#utility.yul\":2680:2731   */\n      tag_288\n      jump\t// in\n    tag_330:\n        /* \"#utility.yul\":2670:2731   */\n      swap4\n      pop\n        /* \"#utility.yul\":2625:2741   */\n      pop\n        /* \"#utility.yul\":2780:2782   */\n      0x60\n        /* \"#utility.yul\":2806:2857   */\n      tag_331\n        /* \"#utility.yul\":2849:2856   */\n      dup9\n        /* \"#utility.yul\":2840:2846   */\n      dup3\n        /* \"#utility.yul\":2829:2838   */\n      dup10\n        /* \"#utility.yul\":2825:2847   */\n      add\n        /* \"#utility.yul\":2806:2857   */\n      tag_288\n      jump\t// in\n    tag_331:\n        /* \"#utility.yul\":2796:2857   */\n      swap3\n      pop\n        /* \"#utility.yul\":2751:2867   */\n      pop\n        /* \"#utility.yul\":2906:2909   */\n      0x80\n        /* \"#utility.yul\":2933:2984   */\n      tag_332\n        /* \"#utility.yul\":2976:2983   */\n      dup9\n        /* \"#utility.yul\":2967:2973   */\n      dup3\n        /* \"#utility.yul\":2956:2965   */\n      dup10\n        /* \"#utility.yul\":2952:2974   */\n      add\n        /* \"#utility.yul\":2933:2984   */\n      tag_288\n      jump\t// in\n    tag_332:\n        /* \"#utility.yul\":2923:2984   */\n      swap2\n      pop\n        /* \"#utility.yul\":2877:2994   */\n      pop\n        /* \"#utility.yul\":2108:3001   */\n      swap3\n      swap6\n      pop\n      swap3\n      swap6\n      swap1\n      swap4\n      pop\n      jump\t// out\n        /* \"#utility.yul\":3007:3133   */\n    tag_289:\n        /* \"#utility.yul\":3102:3126   */\n      tag_334\n        /* \"#utility.yul\":3120:3125   */\n      dup2\n        /* \"#utility.yul\":3102:3126   */\n      tag_279\n      jump\t// in\n    tag_334:\n        /* \"#utility.yul\":3097:3100   */\n      dup3\n        /* \"#utility.yul\":3090:3127   */\n      mstore\n        /* \"#utility.yul\":3007:3133   */\n      pop\n      pop\n      jump\t// out\n        /* \"#utility.yul\":3139:3377   */\n    tag_35:\n        /* \"#utility.yul\":3240:3244   */\n      0x00\n        /* \"#utility.yul\":3278:3280   */\n      0x20\n        /* \"#utility.yul\":3267:3276   */\n      dup3\n        /* \"#utility.yul\":3263:3281   */\n      add\n        /* \"#utility.yul\":3255:3281   */\n      swap1\n      pop\n        /* \"#utility.yul\":3291:3370   */\n      tag_336\n        /* \"#utility.yul\":3367:3368   */\n      0x00\n        /* \"#utility.yul\":3356:3365   */\n      dup4\n        /* \"#utility.yul\":3352:3369   */\n      add\n        /* \"#utility.yul\":3343:3349   */\n      dup5\n        /* \"#utility.yul\":3291:3370   */\n      tag_289\n      jump\t// in\n    tag_336:\n        /* \"#utility.yul\":3139:3377   */\n      swap3\n      swap2\n      pop\n      pop\n      jump\t// out\n        /* \"#utility.yul\":3383:4134   */\n    tag_42:\n        /* \"#utility.yul\":3462:3468   */\n      0x00\n        /* \"#utility.yul\":3470:3476   */\n      dup1\n        /* \"#utility.yul\":3478:3484   */\n      0x00\n        /* \"#utility.yul\":3486:3492   */\n      dup1\n        /* \"#utility.yul\":3535:3538   */\n      0x80\n        /* \"#utility.yul\":3523:3532   */\n      dup6\n        /* \"#utility.yul\":3514:3521   */\n      dup8\n        /* \"#utility.yul\":3510:3533   */\n      sub\n        /* \"#utility.yul\":3506:3539   */\n      slt\n        /* \"#utility.yul\":3503:3623   */\n      iszero\n      tag_338\n      jumpi\n        /* \"#utility.yul\":3542:3621   */\n      tag_339\n      tag_277\n      jump\t// in\n    tag_339:\n        /* \"#utility.yul\":3503:3623   */\n    tag_338:\n        /* \"#utility.yul\":3662:3663   */\n      0x00\n        /* \"#utility.yul\":3687:3739   */\n      tag_340\n        /* \"#utility.yul\":3731:3738   */\n      dup8\n        /* \"#utility.yul\":3722:3728   */\n      dup3\n        /* \"#utility.yul\":3711:3720   */\n      dup9\n        /* \"#utility.yul\":3707:3729   */\n      add\n        /* \"#utility.yul\":3687:3739   */\n      tag_286\n      jump\t// in\n    tag_340:\n        /* \"#utility.yul\":3677:3739   */\n      swap5\n      pop\n        /* \"#utility.yul\":3633:3749   */\n      pop\n        /* \"#utility.yul\":3788:3790   */\n      0x20\n        /* \"#utility.yul\":3814:3865   */\n      tag_341\n        /* \"#utility.yul\":3857:3864   */\n      dup8\n        /* \"#utility.yul\":3848:3854   */\n      dup3\n        /* \"#utility.yul\":3837:3846   */\n      dup9\n        /* \"#utility.yul\":3833:3855   */\n      add\n        /* \"#utility.yul\":3814:3865   */\n      tag_288\n      jump\t// in\n    tag_341:\n        /* \"#utility.yul\":3804:3865   */\n      swap4\n      pop\n        /* \"#utility.yul\":3759:3875   */\n      pop\n        /* \"#utility.yul\":3914:3916   */\n      0x40\n        /* \"#utility.yul\":3940:3991   */\n      tag_342\n        /* \"#utility.yul\":3983:3990   */\n      dup8\n        /* \"#utility.yul\":3974:3980   */\n      dup3\n        /* \"#utility.yul\":3963:3972   */\n      dup9\n        /* \"#utility.yul\":3959:3981   */\n      add\n        /* \"#utility.yul\":3940:3991   */\n      tag_288\n      jump\t// in\n    tag_342:\n        /* \"#utility.yul\":3930:3991   */\n      swap3\n      pop\n        /* \"#utility.yul\":3885:4001   */\n      pop\n        /* \"#utility.yul\":4040:4042   */\n      0x60\n        /* \"#utility.yul\":4066:4117   */\n      tag_343\n        /* \"#utility.yul\":4109:4116   */\n      dup8\n        /* \"#utility.yul\":4100:4106   */\n      dup3\n        /* \"#utility.yul\":4089:4098   */\n      dup9\n        /* \"#utility.yul\":4085:4107   */\n      add\n        /* \"#utility.yul\":4066:4117   */\n      tag_288\n      jump\t// in\n    tag_343:\n        /* \"#utility.yul\":4056:4117   */\n      swap2\n      pop\n        /* \"#utility.yul\":4011:4127   */\n      pop\n        /* \"#utility.yul\":3383:4134   */\n      swap3\n      swap6\n      swap2\n      swap5\n      pop\n      swap3\n      pop\n      jump\t// out\n        /* \"#utility.yul\":4140:4749   */\n    tag_51:\n        /* \"#utility.yul\":4212:4218   */\n      0x00\n        /* \"#utility.yul\":4220:4226   */\n      dup1\n        /* \"#utility.yul\":4228:4234   */\n      0x00\n        /* \"#utility.yul\":4277:4279   */\n      0x60\n        /* \"#utility.yul\":4265:4274   */\n      dup5\n        /* \"#utility.yul\":4256:4263   */\n      dup7\n        /* \"#utility.yul\":4252:4275   */\n      sub\n        /* \"#utility.yul\":4248:4280   */\n      slt\n        /* \"#utility.yul\":4245:4364   */\n      iszero\n      tag_345\n      jumpi\n        /* \"#utility.yul\":4283:4362   */\n      tag_346\n      tag_277\n      jump\t// in\n    tag_346:\n        /* \"#utility.yul\":4245:4364   */\n    tag_345:\n        /* \"#utility.yul\":4403:4404   */\n      0x00\n        /* \"#utility.yul\":4428:4480   */\n      tag_347\n        /* \"#utility.yul\":4472:4479   */\n      dup7\n        /* \"#utility.yul\":4463:4469   */\n      dup3\n        /* \"#utility.yul\":4452:4461   */\n      dup8\n        /* \"#utility.yul\":4448:4470   */\n      add\n        /* \"#utility.yul\":4428:4480   */\n      tag_286\n      jump\t// in\n    tag_347:\n        /* \"#utility.yul\":4418:4480   */\n      swap4\n      pop\n        /* \"#utility.yul\":4374:4490   */\n      pop\n        /* \"#utility.yul\":4529:4531   */\n      0x20\n        /* \"#utility.yul\":4555:4606   */\n      tag_348\n        /* \"#utility.yul\":4598:4605   */\n      dup7\n        /* \"#utility.yul\":4589:4595   */\n      dup3\n        /* \"#utility.yul\":4578:4587   */\n      dup8\n        /* \"#utility.yul\":4574:4596   */\n      add\n        /* \"#utility.yul\":4555:4606   */\n      tag_288\n      jump\t// in\n    tag_348:\n        /* \"#utility.yul\":4545:4606   */\n      swap3\n      pop\n        /* \"#utility.yul\":4500:4616   */\n      pop\n        /* \"#utility.yul\":4655:4657   */\n      0x40\n        /* \"#utility.yul\":4681:4732   */\n      tag_349\n        /* \"#utility.yul\":4724:4731   */\n      dup7\n        /* \"#utility.yul\":4715:4721   */\n      dup3\n        /* \"#utility.yul\":4704:4713   */\n      dup8\n        /* \"#utility.yul\":4700:4722   */\n      add\n        /* \"#utility.yul\":4681:4732   */\n      tag_288\n      jump\t// in\n    tag_349:\n        /* \"#utility.yul\":4671:4732   */\n      swap2\n      pop\n        /* \"#utility.yul\":4626:4742   */\n      pop\n        /* \"#utility.yul\":4140:4749   */\n      swap3\n      pop\n      swap3\n      pop\n      swap3\n      jump\t// out\n        /* \"#utility.yul\":4755:5790   */\n    tag_56:\n        /* \"#utility.yul\":4848:4854   */\n      0x00\n        /* \"#utility.yul\":4856:4862   */\n      dup1\n        /* \"#utility.yul\":4864:4870   */\n      0x00\n        /* \"#utility.yul\":4872:4878   */\n      dup1\n        /* \"#utility.yul\":4880:4886   */\n      0x00\n        /* \"#utility.yul\":4888:4894   */\n      dup1\n        /* \"#utility.yul\":4937:4940   */\n      0xc0\n        /* \"#utility.yul\":4925:4934   */\n      dup8\n        /* \"#utility.yul\":4916:4923   */\n      dup10\n        /* \"#utility.yul\":4912:4935   */\n      sub\n        /* \"#utility.yul\":4908:4941   */\n      slt\n        /* \"#utility.yul\":4905:5025   */\n      iszero\n      tag_351\n      jumpi\n        /* \"#utility.yul\":4944:5023   */\n      tag_352\n      tag_277\n      jump\t// in\n    tag_352:\n        /* \"#utility.yul\":4905:5025   */\n    tag_351:\n        /* \"#utility.yul\":5064:5065   */\n      0x00\n        /* \"#utility.yul\":5089:5141   */\n      tag_353\n        /* \"#utility.yul\":5133:5140   */\n      dup10\n        /* \"#utility.yul\":5124:5130   */\n      dup3\n        /* \"#utility.yul\":5113:5122   */\n      dup11\n        /* \"#utility.yul\":5109:5131   */\n      add\n        /* \"#utility.yul\":5089:5141   */\n      tag_286\n      jump\t// in\n    tag_353:\n        /* \"#utility.yul\":5079:5141   */\n      swap7\n      pop\n        /* \"#utility.yul\":5035:5151   */\n      pop\n        /* \"#utility.yul\":5190:5192   */\n      0x20\n        /* \"#utility.yul\":5216:5267   */\n      tag_354\n        /* \"#utility.yul\":5259:5266   */\n      dup10\n        /* \"#utility.yul\":5250:5256   */\n      dup3\n        /* \"#utility.yul\":5239:5248   */\n      dup11\n        /* \"#utility.yul\":5235:5257   */\n      add\n        /* \"#utility.yul\":5216:5267   */\n      tag_288\n      jump\t// in\n    tag_354:\n        /* \"#utility.yul\":5206:5267   */\n      swap6\n      pop\n        /* \"#utility.yul\":5161:5277   */\n      pop\n        /* \"#utility.yul\":5316:5318   */\n      0x40\n        /* \"#utility.yul\":5342:5393   */\n      tag_355\n        /* \"#utility.yul\":5385:5392   */\n      dup10\n        /* \"#utility.yul\":5376:5382   */\n      dup3\n        /* \"#utility.yul\":5365:5374   */\n      dup11\n        /* \"#utility.yul\":5361:5383   */\n      add\n        /* \"#utility.yul\":5342:5393   */\n      tag_288\n      jump\t// in\n    tag_355:\n        /* \"#utility.yul\":5332:5393   */\n      swap5\n      pop\n        /* \"#utility.yul\":5287:5403   */\n      pop\n        /* \"#utility.yul\":5442:5444   */\n      0x60\n        /* \"#utility.yul\":5468:5519   */\n      tag_356\n        /* \"#utility.yul\":5511:5518   */\n      dup10\n        /* \"#utility.yul\":5502:5508   */\n      dup3\n        /* \"#utility.yul\":5491:5500   */\n      dup11\n        /* \"#utility.yul\":5487:5509   */\n      add\n        /* \"#utility.yul\":5468:5519   */\n      tag_288\n      jump\t// in\n    tag_356:\n        /* \"#utility.yul\":5458:5519   */\n      swap4\n      pop\n        /* \"#utility.yul\":5413:5529   */\n      pop\n        /* \"#utility.yul\":5568:5571   */\n      0x80\n        /* \"#utility.yul\":5595:5646   */\n      tag_357\n        /* \"#utility.yul\":5638:5645   */\n      dup10\n        /* \"#utility.yul\":5629:5635   */\n      dup3\n        /* \"#utility.yul\":5618:5627   */\n      dup11\n        /* \"#utility.yul\":5614:5636   */\n      add\n        /* \"#utility.yul\":5595:5646   */\n      tag_288\n      jump\t// in\n    tag_357:\n        /* \"#utility.yul\":5585:5646   */\n      swap3\n      pop\n        /* \"#utility.yul\":5539:5656   */\n      pop\n        /* \"#utility.yul\":5695:5698   */\n      0xa0\n        /* \"#utility.yul\":5722:5773   */\n      tag_358\n        /* \"#utility.yul\":5765:5772   */\n      dup10\n        /* \"#utility.yul\":5756:5762   */\n      dup3\n        /* \"#utility.yul\":5745:5754   */\n      dup11\n        /* \"#utility.yul\":5741:5763   */\n      add\n        /* \"#utility.yul\":5722:5773   */\n      tag_288\n      jump\t// in\n    tag_358:\n        /* \"#utility.yul\":5712:5773   */\n      swap2\n      pop\n        /* \"#utility.yul\":5666:5783   */\n      pop\n        /* \"#utility.yul\":4755:5790   */\n      swap3\n      swap6\n      pop\n      swap3\n      swap6\n      pop\n      swap3\n      swap6\n      jump\t// out\n        /* \"#utility.yul\":5796:5919   */\n    tag_290:\n        /* \"#utility.yul\":5889:5912   */\n      tag_360\n        /* \"#utility.yul\":5906:5911   */\n      dup2\n        /* \"#utility.yul\":5889:5912   */\n      tag_284\n      jump\t// in\n    tag_360:\n        /* \"#utility.yul\":5884:5887   */\n      dup3\n        /* \"#utility.yul\":5877:5913   */\n      mstore\n        /* \"#utility.yul\":5796:5919   */\n      pop\n      pop\n      jump\t// out\n        /* \"#utility.yul\":5925:6159   */\n    tag_63:\n        /* \"#utility.yul\":6024:6028   */\n      0x00\n        /* \"#utility.yul\":6062:6064   */\n      0x20\n        /* \"#utility.yul\":6051:6060   */\n      dup3\n        /* \"#utility.yul\":6047:6065   */\n      add\n        /* \"#utility.yul\":6039:6065   */\n      swap1\n      pop\n        /* \"#utility.yul\":6075:6152   */\n      tag_362\n        /* \"#utility.yul\":6149:6150   */\n      0x00\n        /* \"#utility.yul\":6138:6147   */\n      dup4\n        /* \"#utility.yul\":6134:6151   */\n      add\n        /* \"#utility.yul\":6125:6131   */\n      dup5\n        /* \"#utility.yul\":6075:6152   */\n      tag_290\n      jump\t// in\n    tag_362:\n        /* \"#utility.yul\":5925:6159   */\n      swap3\n      swap2\n      pop\n      pop\n      jump\t// out\n        /* \"#utility.yul\":6165:6492   */\n    tag_70:\n        /* \"#utility.yul\":6223:6229   */\n      0x00\n        /* \"#utility.yul\":6272:6274   */\n      0x20\n        /* \"#utility.yul\":6260:6269   */\n      dup3\n        /* \"#utility.yul\":6251:6258   */\n      dup5\n        /* \"#utility.yul\":6247:6270   */\n      sub\n        /* \"#utility.yul\":6243:6275   */\n      slt\n        /* \"#utility.yul\":6240:6359   */\n      iszero\n      tag_364\n      jumpi\n        /* \"#utility.yul\":6278:6357   */\n      tag_365\n      tag_277\n      jump\t// in\n    tag_365:\n        /* \"#utility.yul\":6240:6359   */\n    tag_364:\n        /* \"#utility.yul\":6398:6399   */\n      0x00\n        /* \"#utility.yul\":6423:6475   */\n      tag_366\n        /* \"#utility.yul\":6467:6474   */\n      dup5\n        /* \"#utility.yul\":6458:6464   */\n      dup3\n        /* \"#utility.yul\":6447:6456   */\n      dup6\n        /* \"#utility.yul\":6443:6465   */\n      add\n        /* \"#utility.yul\":6423:6475   */\n      tag_286\n      jump\t// in\n    tag_366:\n        /* \"#utility.yul\":6413:6475   */\n      swap2\n      pop\n        /* \"#utility.yul\":6369:6485   */\n      pop\n        /* \"#utility.yul\":6165:6492   */\n      swap3\n      swap2\n      pop\n      pop\n      jump\t// out\n        /* \"#utility.yul\":6498:6588   */\n    tag_291:\n        /* \"#utility.yul\":6532:6539   */\n      0x00\n        /* \"#utility.yul\":6575:6580   */\n      dup2\n        /* \"#utility.yul\":6568:6581   */\n      iszero\n        /* \"#utility.yul\":6561:6582   */\n      iszero\n        /* \"#utility.yul\":6550:6582   */\n      swap1\n      pop\n        /* \"#utility.yul\":6498:6588   */\n      swap2\n      swap1\n      pop\n      jump\t// out\n        /* \"#utility.yul\":6594:6711   */\n    tag_292:\n        /* \"#utility.yul\":6683:6704   */\n      tag_369\n        /* \"#utility.yul\":6698:6703   */\n      dup2\n        /* \"#utility.yul\":6683:6704   */\n      tag_291\n      jump\t// in\n    tag_369:\n        /* \"#utility.yul\":6678:6681   */\n      dup3\n        /* \"#utility.yul\":6671:6705   */\n      mstore\n        /* \"#utility.yul\":6594:6711   */\n      pop\n      pop\n      jump\t// out\n        /* \"#utility.yul\":6717:6943   */\n    tag_73:\n        /* \"#utility.yul\":6812:6816   */\n      0x00\n        /* \"#utility.yul\":6850:6852   */\n      0x20\n        /* \"#utility.yul\":6839:6848   */\n      dup3\n        /* \"#utility.yul\":6835:6853   */\n      add\n        /* \"#utility.yul\":6827:6853   */\n      swap1\n      pop\n        /* \"#utility.yul\":6863:6936   */\n      tag_371\n        /* \"#utility.yul\":6933:6934   */\n      0x00\n        /* \"#utility.yul\":6922:6931   */\n      dup4\n        /* \"#utility.yul\":6918:6935   */\n      add\n        /* \"#utility.yul\":6909:6915   */\n      dup5\n        /* \"#utility.yul\":6863:6936   */\n      tag_292\n      jump\t// in\n    tag_371:\n        /* \"#utility.yul\":6717:6943   */\n      swap3\n      swap2\n      pop\n      pop\n      jump\t// out\n        /* \"#utility.yul\":6949:7417   */\n    tag_80:\n        /* \"#utility.yul\":7014:7020   */\n      0x00\n        /* \"#utility.yul\":7022:7028   */\n      dup1\n        /* \"#utility.yul\":7071:7073   */\n      0x40\n        /* \"#utility.yul\":7059:7068   */\n      dup4\n        /* \"#utility.yul\":7050:7057   */\n      dup6\n        /* \"#utility.yul\":7046:7069   */\n      sub\n        /* \"#utility.yul\":7042:7074   */\n      slt\n        /* \"#utility.yul\":7039:7158   */\n      iszero\n      tag_373\n      jumpi\n        /* \"#utility.yul\":7077:7156   */\n      tag_374\n      tag_277\n      jump\t// in\n    tag_374:\n        /* \"#utility.yul\":7039:7158   */\n    tag_373:\n        /* \"#utility.yul\":7197:7198   */\n      0x00\n        /* \"#utility.yul\":7222:7273   */\n      tag_375\n        /* \"#utility.yul\":7265:7272   */\n      dup6\n        /* \"#utility.yul\":7256:7262   */\n      dup3\n        /* \"#utility.yul\":7245:7254   */\n      dup7\n        /* \"#utility.yul\":7241:7263   */\n      add\n        /* \"#utility.yul\":7222:7273   */\n      tag_288\n      jump\t// in\n    tag_375:\n        /* \"#utility.yul\":7212:7273   */\n      swap3\n      pop\n        /* \"#utility.yul\":7168:7283   */\n      pop\n        /* \"#utility.yul\":7322:7324   */\n      0x20\n        /* \"#utility.yul\":7348:7400   */\n      tag_376\n        /* \"#utility.yul\":7392:7399   */\n      dup6\n        /* \"#utility.yul\":7383:7389   */\n      dup3\n        /* \"#utility.yul\":7372:7381   */\n      dup7\n        /* \"#utility.yul\":7368:7390   */\n      add\n        /* \"#utility.yul\":7348:7400   */\n      tag_286\n      jump\t// in\n    tag_376:\n        /* \"#utility.yul\":7338:7400   */\n      swap2\n      pop\n        /* \"#utility.yul\":7293:7410   */\n      pop\n        /* \"#utility.yul\":6949:7417   */\n      swap3\n      pop\n      swap3\n      swap1\n      pop\n      jump\t// out\n        /* \"#utility.yul\":7423:7897   */\n    tag_85:\n        /* \"#utility.yul\":7491:7497   */\n      0x00\n        /* \"#utility.yul\":7499:7505   */\n      dup1\n        /* \"#utility.yul\":7548:7550   */\n      0x40\n        /* \"#utility.yul\":7536:7545   */\n      dup4\n        /* \"#utility.yul\":7527:7534   */\n      dup6\n        /* \"#utility.yul\":7523:7546   */\n      sub\n        /* \"#utility.yul\":7519:7551   */\n      slt\n        /* \"#utility.yul\":7516:7635   */\n      iszero\n      tag_378\n      jumpi\n        /* \"#utility.yul\":7554:7633   */\n      tag_379\n      tag_277\n      jump\t// in\n    tag_379:\n        /* \"#utility.yul\":7516:7635   */\n    tag_378:\n        /* \"#utility.yul\":7674:7675   */\n      0x00\n        /* \"#utility.yul\":7699:7752   */\n      tag_380\n        /* \"#utility.yul\":7744:7751   */\n      dup6\n        /* \"#utility.yul\":7735:7741   */\n      dup3\n        /* \"#utility.yul\":7724:7733   */\n      dup7\n        /* \"#utility.yul\":7720:7742   */\n      add\n        /* \"#utility.yul\":7699:7752   */\n      tag_281\n      jump\t// in\n    tag_380:\n        /* \"#utility.yul\":7689:7752   */\n      swap3\n      pop\n        /* \"#utility.yul\":7645:7762   */\n      pop\n        /* \"#utility.yul\":7801:7803   */\n      0x20\n        /* \"#utility.yul\":7827:7880   */\n      tag_381\n        /* \"#utility.yul\":7872:7879   */\n      dup6\n        /* \"#utility.yul\":7863:7869   */\n      dup3\n        /* \"#utility.yul\":7852:7861   */\n      dup7\n        /* \"#utility.yul\":7848:7870   */\n      add\n        /* \"#utility.yul\":7827:7880   */\n      tag_281\n      jump\t// in\n    tag_381:\n        /* \"#utility.yul\":7817:7880   */\n      swap2\n      pop\n        /* \"#utility.yul\":7772:7890   */\n      pop\n        /* \"#utility.yul\":7423:7897   */\n      swap3\n      pop\n      swap3\n      swap1\n      pop\n      jump\t// out\n        /* \"#utility.yul\":7903:8083   */\n    tag_293:\n        /* \"#utility.yul\":7951:8028   */\n      0x4e487b7100000000000000000000000000000000000000000000000000000000\n        /* \"#utility.yul\":7948:7949   */\n      0x00\n        /* \"#utility.yul\":7941:8029   */\n      mstore\n        /* \"#utility.yul\":8048:8052   */\n      0x12\n        /* \"#utility.yul\":8045:8046   */\n      0x04\n        /* \"#utility.yul\":8038:8053   */\n      mstore\n        /* \"#utility.yul\":8072:8076   */\n      0x24\n        /* \"#utility.yul\":8069:8070   */\n      0x00\n        /* \"#utility.yul\":8062:8077   */\n      revert\n        /* \"#utility.yul\":8089:8269   */\n    tag_294:\n        /* \"#utility.yul\":8137:8214   */\n      0x4e487b7100000000000000000000000000000000000000000000000000000000\n        /* \"#utility.yul\":8134:8135   */\n      0x00\n        /* \"#utility.yul\":8127:8215   */\n      mstore\n        /* \"#utility.yul\":8234:8238   */\n      0x11\n        /* \"#utility.yul\":8231:8232   */\n      0x04\n        /* \"#utility.yul\":8224:8239   */\n      mstore\n        /* \"#utility.yul\":8258:8262   */\n      0x24\n        /* \"#utility.yul\":8255:8256   */\n      0x00\n        /* \"#utility.yul\":8248:8263   */\n      revert\n        /* \"#utility.yul\":8275:8460   */\n    tag_94:\n        /* \"#utility.yul\":8315:8316   */\n      0x00\n        /* \"#utility.yul\":8332:8352   */\n      tag_385\n        /* \"#utility.yul\":8350:8351   */\n      dup3\n        /* \"#utility.yul\":8332:8352   */\n      tag_279\n      jump\t// in\n    tag_385:\n        /* \"#utility.yul\":8327:8352   */\n      swap2\n      pop\n        /* \"#utility.yul\":8366:8386   */\n      tag_386\n        /* \"#utility.yul\":8384:8385   */\n      dup4\n        /* \"#utility.yul\":8366:8386   */\n      tag_279\n      jump\t// in\n    tag_386:\n        /* \"#utility.yul\":8361:8386   */\n      swap3\n      pop\n        /* \"#utility.yul\":8405:8406   */\n      dup3\n        /* \"#utility.yul\":8395:8430   */\n      tag_387\n      jumpi\n        /* \"#utility.yul\":8410:8428   */\n      tag_388\n      tag_293\n      jump\t// in\n    tag_388:\n        /* \"#utility.yul\":8395:8430   */\n    tag_387:\n        /* \"#utility.yul\":8452:8453   */\n      dup3\n        /* \"#utility.yul\":8449:8450   */\n      dup3\n        /* \"#utility.yul\":8445:8454   */\n      div\n        /* \"#utility.yul\":8440:8454   */\n      swap1\n      pop\n        /* \"#utility.yul\":8275:8460   */\n      swap3\n      swap2\n      pop\n      pop\n      jump\t// out\n        /* \"#utility.yul\":8466:8642   */\n    tag_97:\n        /* \"#utility.yul\":8498:8499   */\n      0x00\n        /* \"#utility.yul\":8515:8535   */\n      tag_390\n        /* \"#utility.yul\":8533:8534   */\n      dup3\n        /* \"#utility.yul\":8515:8535   */\n      tag_279\n      jump\t// in\n    tag_390:\n        /* \"#utility.yul\":8510:8535   */\n      swap2\n      pop\n        /* \"#utility.yul\":8549:8569   */\n      tag_391\n        /* \"#utility.yul\":8567:8568   */\n      dup4\n        /* \"#utility.yul\":8549:8569   */\n      tag_279\n      jump\t// in\n    tag_391:\n        /* \"#utility.yul\":8544:8569   */\n      swap3\n      pop\n        /* \"#utility.yul\":8588:8589   */\n      dup3\n        /* \"#utility.yul\":8578:8613   */\n      tag_392\n      jumpi\n        /* \"#utility.yul\":8593:8611   */\n      tag_393\n      tag_293\n      jump\t// in\n    tag_393:\n        /* \"#utility.yul\":8578:8613   */\n    tag_392:\n        /* \"#utility.yul\":8634:8635   */\n      dup3\n        /* \"#utility.yul\":8631:8632   */\n      dup3\n        /* \"#utility.yul\":8627:8636   */\n      mod\n        /* \"#utility.yul\":8622:8636   */\n      swap1\n      pop\n        /* \"#utility.yul\":8466:8642   */\n      swap3\n      swap2\n      pop\n      pop\n      jump\t// out\n        /* \"#utility.yul\":8648:8839   */\n    tag_101:\n        /* \"#utility.yul\":8688:8691   */\n      0x00\n        /* \"#utility.yul\":8707:8727   */\n      tag_395\n        /* \"#utility.yul\":8725:8726   */\n      dup3\n        /* \"#utility.yul\":8707:8727   */\n      tag_279\n      jump\t// in\n    tag_395:\n        /* \"#utility.yul\":8702:8727   */\n      swap2\n      pop\n        /* \"#utility.yul\":8741:8761   */\n      tag_396\n        /* \"#utility.yul\":8759:8760   */\n      dup4\n        /* \"#utility.yul\":8741:8761   */\n      tag_279\n      jump\t// in\n    tag_396:\n        /* \"#utility.yul\":8736:8761   */\n      swap3\n      pop\n        /* \"#utility.yul\":8784:8785   */\n      dup3\n        /* \"#utility.yul\":8781:8782   */\n      dup3\n        /* \"#utility.yul\":8777:8786   */\n      add\n        /* \"#utility.yul\":8770:8786   */\n      swap1\n      pop\n        /* \"#utility.yul\":8805:8808   */\n      dup1\n        /* \"#utility.yul\":8802:8803   */\n      dup3\n        /* \"#utility.yul\":8799:8809   */\n      gt\n        /* \"#utility.yul\":8796:8832   */\n      iszero\n      tag_397\n      jumpi\n        /* \"#utility.yul\":8812:8830   */\n      tag_398\n      tag_294\n      jump\t// in\n    tag_398:\n        /* \"#utility.yul\":8796:8832   */\n    tag_397:\n        /* \"#utility.yul\":8648:8839   */\n      swap3\n      swap2\n      pop\n      pop\n      jump\t// out\n        /* \"#utility.yul\":8845:9016   */\n    tag_124:\n        /* \"#utility.yul\":8883:8886   */\n      0x00\n        /* \"#utility.yul\":8906:8929   */\n      tag_400\n        /* \"#utility.yul\":8923:8928   */\n      dup3\n        /* \"#utility.yul\":8906:8929   */\n      tag_284\n      jump\t// in\n    tag_400:\n        /* \"#utility.yul\":8897:8929   */\n      swap2\n      pop\n        /* \"#utility.yul\":8951:8957   */\n      0xffff\n        /* \"#utility.yul\":8944:8949   */\n      dup3\n        /* \"#utility.yul\":8941:8958   */\n      sub\n        /* \"#utility.yul\":8938:8981   */\n      tag_401\n      jumpi\n        /* \"#utility.yul\":8961:8979   */\n      tag_402\n      tag_294\n      jump\t// in\n    tag_402:\n        /* \"#utility.yul\":8938:8981   */\n    tag_401:\n        /* \"#utility.yul\":9008:9009   */\n      0x01\n        /* \"#utility.yul\":9001:9006   */\n      dup3\n        /* \"#utility.yul\":8997:9010   */\n      add\n        /* \"#utility.yul\":8990:9010   */\n      swap1\n      pop\n        /* \"#utility.yul\":8845:9016   */\n      swap2\n      swap1\n      pop\n      jump\t// out\n        /* \"#utility.yul\":9022:9202   */\n    tag_129:\n        /* \"#utility.yul\":9070:9147   */\n      0x4e487b7100000000000000000000000000000000000000000000000000000000\n        /* \"#utility.yul\":9067:9068   */\n      0x00\n        /* \"#utility.yul\":9060:9148   */\n      mstore\n        /* \"#utility.yul\":9167:9171   */\n      0x32\n        /* \"#utility.yul\":9164:9165   */\n      0x04\n        /* \"#utility.yul\":9157:9172   */\n      mstore\n        /* \"#utility.yul\":9191:9195   */\n      0x24\n        /* \"#utility.yul\":9188:9189   */\n      0x00\n        /* \"#utility.yul\":9181:9196   */\n      revert\n        /* \"#utility.yul\":9208:9404   */\n    tag_161:\n        /* \"#utility.yul\":9247:9251   */\n      0x00\n        /* \"#utility.yul\":9267:9286   */\n      tag_405\n        /* \"#utility.yul\":9284:9285   */\n      dup3\n        /* \"#utility.yul\":9267:9286   */\n      tag_284\n      jump\t// in\n    tag_405:\n        /* \"#utility.yul\":9262:9286   */\n      swap2\n      pop\n        /* \"#utility.yul\":9300:9319   */\n      tag_406\n        /* \"#utility.yul\":9317:9318   */\n      dup4\n        /* \"#utility.yul\":9300:9319   */\n      tag_284\n      jump\t// in\n    tag_406:\n        /* \"#utility.yul\":9295:9319   */\n      swap3\n      pop\n        /* \"#utility.yul\":9343:9344   */\n      dup3\n        /* \"#utility.yul\":9340:9341   */\n      dup3\n        /* \"#utility.yul\":9336:9345   */\n      sub\n        /* \"#utility.yul\":9328:9345   */\n      swap1\n      pop\n        /* \"#utility.yul\":9367:9373   */\n      0xffff\n        /* \"#utility.yul\":9361:9365   */\n      dup2\n        /* \"#utility.yul\":9358:9374   */\n      gt\n        /* \"#utility.yul\":9355:9397   */\n      iszero\n      tag_407\n      jumpi\n        /* \"#utility.yul\":9377:9395   */\n      tag_408\n      tag_294\n      jump\t// in\n    tag_408:\n        /* \"#utility.yul\":9355:9397   */\n    tag_407:\n        /* \"#utility.yul\":9208:9404   */\n      swap3\n      swap2\n      pop\n      pop\n      jump\t// out\n        /* \"#utility.yul\":9410:9820   */\n    tag_165:\n        /* \"#utility.yul\":9450:9457   */\n      0x00\n        /* \"#utility.yul\":9473:9493   */\n      tag_410\n        /* \"#utility.yul\":9491:9492   */\n      dup3\n        /* \"#utility.yul\":9473:9493   */\n      tag_279\n      jump\t// in\n    tag_410:\n        /* \"#utility.yul\":9468:9493   */\n      swap2\n      pop\n        /* \"#utility.yul\":9507:9527   */\n      tag_411\n        /* \"#utility.yul\":9525:9526   */\n      dup4\n        /* \"#utility.yul\":9507:9527   */\n      tag_279\n      jump\t// in\n    tag_411:\n        /* \"#utility.yul\":9502:9527   */\n      swap3\n      pop\n        /* \"#utility.yul\":9562:9563   */\n      dup3\n        /* \"#utility.yul\":9559:9560   */\n      dup3\n        /* \"#utility.yul\":9555:9564   */\n      mul\n        /* \"#utility.yul\":9584:9614   */\n      tag_412\n        /* \"#utility.yul\":9602:9613   */\n      dup2\n        /* \"#utility.yul\":9584:9614   */\n      tag_279\n      jump\t// in\n    tag_412:\n        /* \"#utility.yul\":9573:9614   */\n      swap2\n      pop\n        /* \"#utility.yul\":9763:9764   */\n      dup3\n        /* \"#utility.yul\":9754:9761   */\n      dup3\n        /* \"#utility.yul\":9750:9765   */\n      div\n        /* \"#utility.yul\":9747:9748   */\n      dup5\n        /* \"#utility.yul\":9744:9766   */\n      eq\n        /* \"#utility.yul\":9724:9725   */\n      dup4\n        /* \"#utility.yul\":9717:9726   */\n      iszero\n        /* \"#utility.yul\":9697:9780   */\n      or\n        /* \"#utility.yul\":9674:9813   */\n      tag_413\n      jumpi\n        /* \"#utility.yul\":9793:9811   */\n      tag_414\n      tag_294\n      jump\t// in\n    tag_414:\n        /* \"#utility.yul\":9674:9813   */\n    tag_413:\n        /* \"#utility.yul\":9458:9820   */\n      pop\n        /* \"#utility.yul\":9410:9820   */\n      swap3\n      swap2\n      pop\n      pop\n      jump\t// out\n        /* \"#utility.yul\":9826:10017   */\n    tag_169:\n        /* \"#utility.yul\":9864:9868   */\n      0x00\n        /* \"#utility.yul\":9884:9902   */\n      tag_416\n        /* \"#utility.yul\":9900:9901   */\n      dup3\n        /* \"#utility.yul\":9884:9902   */\n      tag_282\n      jump\t// in\n    tag_416:\n        /* \"#utility.yul\":9879:9902   */\n      swap2\n      pop\n        /* \"#utility.yul\":9916:9934   */\n      tag_417\n        /* \"#utility.yul\":9932:9933   */\n      dup4\n        /* \"#utility.yul\":9916:9934   */\n      tag_282\n      jump\t// in\n    tag_417:\n        /* \"#utility.yul\":9911:9934   */\n      swap3\n      pop\n        /* \"#utility.yul\":9958:9959   */\n      dup3\n        /* \"#utility.yul\":9955:9956   */\n      dup3\n        /* \"#utility.yul\":9951:9960   */\n      sub\n        /* \"#utility.yul\":9943:9960   */\n      swap1\n      pop\n        /* \"#utility.yul\":9982:9986   */\n      0xff\n        /* \"#utility.yul\":9976:9980   */\n      dup2\n        /* \"#utility.yul\":9973:9987   */\n      gt\n        /* \"#utility.yul\":9970:10010   */\n      iszero\n      tag_418\n      jumpi\n        /* \"#utility.yul\":9990:10008   */\n      tag_419\n      tag_294\n      jump\t// in\n    tag_419:\n        /* \"#utility.yul\":9970:10010   */\n    tag_418:\n        /* \"#utility.yul\":9826:10017   */\n      swap3\n      swap2\n      pop\n      pop\n      jump\t// out\n        /* \"#utility.yul\":10023:10217   */\n    tag_183:\n        /* \"#utility.yul\":10063:10067   */\n      0x00\n        /* \"#utility.yul\":10083:10103   */\n      tag_421\n        /* \"#utility.yul\":10101:10102   */\n      dup3\n        /* \"#utility.yul\":10083:10103   */\n      tag_279\n      jump\t// in\n    tag_421:\n        /* \"#utility.yul\":10078:10103   */\n      swap2\n      pop\n        /* \"#utility.yul\":10117:10137   */\n      tag_422\n        /* \"#utility.yul\":10135:10136   */\n      dup4\n        /* \"#utility.yul\":10117:10137   */\n      tag_279\n      jump\t// in\n    tag_422:\n        /* \"#utility.yul\":10112:10137   */\n      swap3\n      pop\n        /* \"#utility.yul\":10161:10162   */\n      dup3\n        /* \"#utility.yul\":10158:10159   */\n      dup3\n        /* \"#utility.yul\":10154:10163   */\n      sub\n        /* \"#utility.yul\":10146:10163   */\n      swap1\n      pop\n        /* \"#utility.yul\":10185:10186   */\n      dup2\n        /* \"#utility.yul\":10179:10183   */\n      dup2\n        /* \"#utility.yul\":10176:10187   */\n      gt\n        /* \"#utility.yul\":10173:10210   */\n      iszero\n      tag_423\n      jumpi\n        /* \"#utility.yul\":10190:10208   */\n      tag_424\n      tag_294\n      jump\t// in\n    tag_424:\n        /* \"#utility.yul\":10173:10210   */\n    tag_423:\n        /* \"#utility.yul\":10023:10217   */\n      swap3\n      swap2\n      pop\n      pop\n      jump\t// out\n        /* \"#utility.yul\":10223:10396   */\n    tag_203:\n        /* \"#utility.yul\":10254:10255   */\n      0x00\n        /* \"#utility.yul\":10271:10290   */\n      tag_426\n        /* \"#utility.yul\":10288:10289   */\n      dup3\n        /* \"#utility.yul\":10271:10290   */\n      tag_284\n      jump\t// in\n    tag_426:\n        /* \"#utility.yul\":10266:10290   */\n      swap2\n      pop\n        /* \"#utility.yul\":10304:10323   */\n      tag_427\n        /* \"#utility.yul\":10321:10322   */\n      dup4\n        /* \"#utility.yul\":10304:10323   */\n      tag_284\n      jump\t// in\n    tag_427:\n        /* \"#utility.yul\":10299:10323   */\n      swap3\n      pop\n        /* \"#utility.yul\":10342:10343   */\n      dup3\n        /* \"#utility.yul\":10332:10367   */\n      tag_428\n      jumpi\n        /* \"#utility.yul\":10347:10365   */\n      tag_429\n      tag_293\n      jump\t// in\n    tag_429:\n        /* \"#utility.yul\":10332:10367   */\n    tag_428:\n        /* \"#utility.yul\":10388:10389   */\n      dup3\n        /* \"#utility.yul\":10385:10386   */\n      dup3\n        /* \"#utility.yul\":10381:10390   */\n      mod\n        /* \"#utility.yul\":10376:10390   */\n      swap1\n      pop\n        /* \"#utility.yul\":10223:10396   */\n      swap3\n      swap2\n      pop\n      pop\n      jump\t// out\n        /* \"#utility.yul\":10402:10569   */\n    tag_263:\n        /* \"#utility.yul\":10439:10442   */\n      0x00\n        /* \"#utility.yul\":10462:10484   */\n      tag_431\n        /* \"#utility.yul\":10478:10483   */\n      dup3\n        /* \"#utility.yul\":10462:10484   */\n      tag_282\n      jump\t// in\n    tag_431:\n        /* \"#utility.yul\":10453:10484   */\n      swap2\n      pop\n        /* \"#utility.yul\":10506:10510   */\n      0xff\n        /* \"#utility.yul\":10499:10504   */\n      dup3\n        /* \"#utility.yul\":10496:10511   */\n      sub\n        /* \"#utility.yul\":10493:10534   */\n      tag_432\n      jumpi\n        /* \"#utility.yul\":10514:10532   */\n      tag_433\n      tag_294\n      jump\t// in\n    tag_433:\n        /* \"#utility.yul\":10493:10534   */\n    tag_432:\n        /* \"#utility.yul\":10561:10562   */\n      0x01\n        /* \"#utility.yul\":10554:10559   */\n      dup3\n        /* \"#utility.yul\":10550:10563   */\n      add\n        /* \"#utility.yul\":10543:10563   */\n      swap1\n      pop\n        /* \"#utility.yul\":10402:10569   */\n      swap2\n      swap1\n      pop\n      jump\t// out\n\n    auxdata: 0xa2646970667358221220190a6dbf0e94790dc982ce252acc62432040d290fd6f6c2f170393f1aee58a0064736f6c63430008120033\n}\n",
				"bytecode": {
					"linkReferences": {},
					"object": "611478610053600b82828239805160001a607314610046577f4e487b7100000000000000000000000000000000000000000000000000000000600052600060045260246000fd5b30600052607381538281f3fe73000000000000000000000000000000000000000030146080604052600436106100ff5760003560e01c80639054bdec116100a1578063b199993711610070578063b199993714610314578063b238ad0e14610344578063d773485514610374578063fa93f883146103a4576100ff565b80639054bdec1461025457806392d6631314610284578063a324ad24146102b4578063a6f0e577146102e4576100ff565b806365c72840116100dd57806365c72840146101945780637f791833146101c45780638aa001fc146101f45780638c8d98a014610224576100ff565b80633e239e1a146101045780634ac1ad781461013457806362ba968714610164575b600080fd5b61011e60048036038101906101199190610df7565b6103d4565b60405161012b9190610e40565b60405180910390f35b61014e60048036038101906101499190610df7565b610401565b60405161015b9190610e40565b60405180910390f35b61017e60048036038101906101799190610ec1565b610431565b60405161018b9190610f4b565b60405180910390f35b6101ae60048036038101906101a99190610df7565b61044d565b6040516101bb9190610e40565b60405180910390f35b6101de60048036038101906101d99190610f66565b610463565b6040516101eb9190610f4b565b60405180910390f35b61020e60048036038101906102099190610df7565b61047e565b60405161021b9190610e40565b60405180910390f35b61023e60048036038101906102399190610fcd565b610494565b60405161024b9190610f4b565b60405180910390f35b61026e60048036038101906102699190611020565b6104af565b60405161027b9190610f4b565b60405180910390f35b61029e60048036038101906102999190610df7565b61081a565b6040516102ab91906110bc565b60405180910390f35b6102ce60048036038101906102c99190610df7565b610931565b6040516102db9190610e40565b60405180910390f35b6102fe60048036038101906102f991906110d7565b610947565b60405161030b919061111f565b60405180910390f35b61032e60048036038101906103299190610df7565b6109b6565b60405161033b9190610f4b565b60405180910390f35b61035e6004803603810190610359919061113a565b610a0a565b60405161036b9190610e40565b60405180910390f35b61038e6004803603810190610389919061117a565b610ad6565b60405161039b9190610f4b565b60405180910390f35b6103be60048036038101906103b99190610df7565b610b14565b6040516103cb9190610e40565b60405180910390f35b60006018603c80846103e69190611218565b6103f09190611218565b6103fa9190611249565b9050919050565b60006007600462015180846104169190611218565b610420919061127a565b61042a9190611249565b9050919050565b6000610442868686868660006104af565b905095945050505050565b600061045882610b35565b604001519050919050565b6000610474858585856000806104af565b9050949350505050565b6000603c8261048d9190611249565b9050919050565b60006104a684848460008060006104af565b90509392505050565b6000806107b290505b8761ffff168161ffff161015610513576104d181610947565b156104ed576301e28500826104e6919061127a565b9150610500565b6301e13380826104fd919061127a565b91505b808061050b906112ae565b9150506104b8565b61051b610d46565b601f816000600c8110610531576105306112d8565b5b602002019060ff16908160ff168152505061054b89610947565b1561057c57601d816001600c8110610566576105656112d8565b5b602002019060ff16908160ff16815250506105a4565b601c816001600c8110610592576105916112d8565b5b602002019060ff16908160ff16815250505b601f816002600c81106105ba576105b96112d8565b5b602002019060ff16908160ff1681525050601e816003600c81106105e1576105e06112d8565b5b602002019060ff16908160ff1681525050601f816004600c8110610608576106076112d8565b5b602002019060ff16908160ff1681525050601e816005600c811061062f5761062e6112d8565b5b602002019060ff16908160ff1681525050601f816006600c8110610656576106556112d8565b5b602002019060ff16908160ff1681525050601f816007600c811061067d5761067c6112d8565b5b602002019060ff16908160ff1681525050601e816008600c81106106a4576106a36112d8565b5b602002019060ff16908160ff1681525050601f816009600c81106106cb576106ca6112d8565b5b602002019060ff16908160ff1681525050601e81600a600c81106106f2576106f16112d8565b5b602002019060ff16908160ff1681525050601f81600b600c8110610719576107186112d8565b5b602002019060ff16908160ff1681525050600191505b8760ff168261ffff161015610797578060018361074c9190611307565b61ffff16600c8110610761576107606112d8565b5b602002015160ff1662015180610777919061133d565b83610782919061127a565b9250818061078f906112ae565b92505061072f565b6001876107a4919061137f565b60ff16620151806107b5919061133d565b836107c0919061127a565b92508560ff16610e106107d3919061133d565b836107de919061127a565b92508460ff16603c6107f0919061133d565b836107fb919061127a565b92508360ff168361080c919061127a565b925050509695505050505050565b600080600090506000806301e13380856108349190611218565b6107b261ffff16610845919061127a565b91506108566107b261ffff166109b6565b6108638361ffff166109b6565b61086d91906113b4565b9050806301e2850061087f919061133d565b8361088a919061127a565b9250806107b28361089b9190611307565b61ffff166108a991906113b4565b6301e133806108b8919061133d565b836108c3919061127a565b92505b84831115610926576108e36001836108de9190611307565b610947565b156108ff576301e28500836108f891906113b4565b9250610912565b6301e133808361090f91906113b4565b92505b60018261091f9190611307565b91506108c6565b819350505050919050565b600061093c82610b35565b602001519050919050565b60008060048361095791906113e8565b61ffff161461096957600090506109b1565b600060648361097891906113e8565b61ffff161461098a57600190506109b1565b60006101908361099a91906113e8565b61ffff16146109ac57600090506109b1565b600190505b919050565b60006001826109c591906113b4565b9150610190826109d59190611218565b6064836109e29190611218565b6004846109ef9190611218565b6109f991906113b4565b610a03919061127a565b9050919050565b600060018360ff161480610a21575060038360ff16145b80610a2f575060058360ff16145b80610a3d575060078360ff16145b80610a4b575060088360ff16145b80610a595750600a8360ff16145b80610a675750600c8360ff16145b15610a7557601f9050610ad0565b60048360ff161480610a8a575060068360ff16145b80610a98575060098360ff16145b80610aa65750600b8360ff16145b15610ab457601e9050610ad0565b610abd82610947565b15610acb57601d9050610ad0565b601c90505b92915050565b6000806018603c808686610aea91906113b4565b610af49190611218565b610afe9190611218565b610b089190611218565b90508091505092915050565b6000603c8083610b249190611218565b610b2e9190611249565b9050919050565b610b3d610d69565b60008080610b4a8561081a565b846000019061ffff16908161ffff1681525050610b6c6107b261ffff166109b6565b610b7d856000015161ffff166109b6565b610b8791906113b4565b9150816301e28500610b99919061133d565b83610ba4919061127a565b9250816107b28560000151610bb99190611307565b61ffff16610bc791906113b4565b6301e13380610bd6919061133d565b83610be1919061127a565b92506000600191505b600c8260ff1611610c6157610c03828660000151610a0a565b60ff1662015180610c14919061133d565b9050858482610c23919061127a565b1115610c405781856020019060ff16908160ff1681525050610c61565b8084610c4c919061127a565b93508180610c5990611419565b925050610bea565b600191505b610c7885602001518660000151610a0a565b60ff168260ff1611610cd557858462015180610c94919061127a565b1115610cb15781856040019060ff16908160ff1681525050610cd5565b6201518084610cc0919061127a565b93508180610ccd90611419565b925050610c66565b610cde866103d4565b856060019060ff16908160ff1681525050610cf886610b14565b856080019060ff16908160ff1681525050610d128661047e565b8560a0019060ff16908160ff1681525050610d2c86610401565b8560c0019060ff16908160ff168152505050505050919050565b604051806101800160405280600c90602082028036833780820191505090505090565b6040518060e00160405280600061ffff168152602001600060ff168152602001600060ff168152602001600060ff168152602001600060ff168152602001600060ff168152602001600060ff1681525090565b600080fd5b6000819050919050565b610dd481610dc1565b8114610ddf57600080fd5b50565b600081359050610df181610dcb565b92915050565b600060208284031215610e0d57610e0c610dbc565b5b6000610e1b84828501610de2565b91505092915050565b600060ff82169050919050565b610e3a81610e24565b82525050565b6000602082019050610e556000830184610e31565b92915050565b600061ffff82169050919050565b610e7281610e5b565b8114610e7d57600080fd5b50565b600081359050610e8f81610e69565b92915050565b610e9e81610e24565b8114610ea957600080fd5b50565b600081359050610ebb81610e95565b92915050565b600080600080600060a08688031215610edd57610edc610dbc565b5b6000610eeb88828901610e80565b9550506020610efc88828901610eac565b9450506040610f0d88828901610eac565b9350506060610f1e88828901610eac565b9250506080610f2f88828901610eac565b9150509295509295909350565b610f4581610dc1565b82525050565b6000602082019050610f606000830184610f3c565b92915050565b60008060008060808587031215610f8057610f7f610dbc565b5b6000610f8e87828801610e80565b9450506020610f9f87828801610eac565b9350506040610fb087828801610eac565b9250506060610fc187828801610eac565b91505092959194509250565b600080600060608486031215610fe657610fe5610dbc565b5b6000610ff486828701610e80565b935050602061100586828701610eac565b925050604061101686828701610eac565b9150509250925092565b60008060008060008060c0878903121561103d5761103c610dbc565b5b600061104b89828a01610e80565b965050602061105c89828a01610eac565b955050604061106d89828a01610eac565b945050606061107e89828a01610eac565b935050608061108f89828a01610eac565b92505060a06110a089828a01610eac565b9150509295509295509295565b6110b681610e5b565b82525050565b60006020820190506110d160008301846110ad565b92915050565b6000602082840312156110ed576110ec610dbc565b5b60006110fb84828501610e80565b91505092915050565b60008115159050919050565b61111981611104565b82525050565b60006020820190506111346000830184611110565b92915050565b6000806040838503121561115157611150610dbc565b5b600061115f85828601610eac565b925050602061117085828601610e80565b9150509250929050565b6000806040838503121561119157611190610dbc565b5b600061119f85828601610de2565b92505060206111b085828601610de2565b9150509250929050565b7f4e487b7100000000000000000000000000000000000000000000000000000000600052601260045260246000fd5b7f4e487b7100000000000000000000000000000000000000000000000000000000600052601160045260246000fd5b600061122382610dc1565b915061122e83610dc1565b92508261123e5761123d6111ba565b5b828204905092915050565b600061125482610dc1565b915061125f83610dc1565b92508261126f5761126e6111ba565b5b828206905092915050565b600061128582610dc1565b915061129083610dc1565b92508282019050808211156112a8576112a76111e9565b5b92915050565b60006112b982610e5b565b915061ffff82036112cd576112cc6111e9565b5b600182019050919050565b7f4e487b7100000000000000000000000000000000000000000000000000000000600052603260045260246000fd5b600061131282610e5b565b915061131d83610e5b565b9250828203905061ffff811115611337576113366111e9565b5b92915050565b600061134882610dc1565b915061135383610dc1565b925082820261136181610dc1565b91508282048414831517611378576113776111e9565b5b5092915050565b600061138a82610e24565b915061139583610e24565b9250828203905060ff8111156113ae576113ad6111e9565b5b92915050565b60006113bf82610dc1565b91506113ca83610dc1565b92508282039050818111156113e2576113e16111e9565b5b92915050565b60006113f382610e5b565b91506113fe83610e5b565b92508261140e5761140d6111ba565b5b828206905092915050565b600061142482610e24565b915060ff8203611437576114366111e9565b5b60018201905091905056fea2646970667358221220190a6dbf0e94790dc982ce252acc62432040d290fd6f6c2f170393f1aee58a0064736f6c63430008120033",
					"opcodes": "PUSH2 0x1478 PUSH2 0x53 PUSH1 0xB DUP3 DUP3 DUP3 CODECOPY DUP1 MLOAD PUSH1 0x0 BYTE PUSH1 0x73 EQ PUSH2 0x46 JUMPI PUSH32 0x4E487B7100000000000000000000000000000000000000000000000000000000 PUSH1 0x0 MSTORE PUSH1 0x0 PUSH1 0x4 MSTORE PUSH1 0x24 PUSH1 0x0 REVERT JUMPDEST ADDRESS PUSH1 0x0 MSTORE PUSH1 0x73 DUP2 MSTORE8 DUP3 DUP2 RETURN INVALID PUSH20 0x0 ADDRESS EQ PUSH1 0x80 PUSH1 0x40 MSTORE PUSH1 0x4 CALLDATASIZE LT PUSH2 0xFF JUMPI PUSH1 0x0 CALLDATALOAD PUSH1 0xE0 SHR DUP1 PUSH4 0x9054BDEC GT PUSH2 0xA1 JUMPI DUP1 PUSH4 0xB1999937 GT PUSH2 0x70 JUMPI DUP1 PUSH4 0xB1999937 EQ PUSH2 0x314 JUMPI DUP1 PUSH4 0xB238AD0E EQ PUSH2 0x344 JUMPI DUP1 PUSH4 0xD7734855 EQ PUSH2 0x374 JUMPI DUP1 PUSH4 0xFA93F883 EQ PUSH2 0x3A4 JUMPI PUSH2 0xFF JUMP JUMPDEST DUP1 PUSH4 0x9054BDEC EQ PUSH2 0x254 JUMPI DUP1 PUSH4 0x92D66313 EQ PUSH2 0x284 JUMPI DUP1 PUSH4 0xA324AD24 EQ PUSH2 0x2B4 JUMPI DUP1 PUSH4 0xA6F0E577 EQ PUSH2 0x2E4 JUMPI PUSH2 0xFF JUMP JUMPDEST DUP1 PUSH4 0x65C72840 GT PUSH2 0xDD JUMPI DUP1 PUSH4 0x65C72840 EQ PUSH2 0x194 JUMPI DUP1 PUSH4 0x7F791833 EQ PUSH2 0x1C4 JUMPI DUP1 PUSH4 0x8AA001FC EQ PUSH2 0x1F4 JUMPI DUP1 PUSH4 0x8C8D98A0 EQ PUSH2 0x224 JUMPI PUSH2 0xFF JUMP JUMPDEST DUP1 PUSH4 0x3E239E1A EQ PUSH2 0x104 JUMPI DUP1 PUSH4 0x4AC1AD78 EQ PUSH2 0x134 JUMPI DUP1 PUSH4 0x62BA9687 EQ PUSH2 0x164 JUMPI JUMPDEST PUSH1 0x0 DUP1 REVERT JUMPDEST PUSH2 0x11E PUSH1 0x4 DUP1 CALLDATASIZE SUB DUP2 ADD SWAP1 PUSH2 0x119 SWAP2 SWAP1 PUSH2 0xDF7 JUMP JUMPDEST PUSH2 0x3D4 JUMP JUMPDEST PUSH1 0x40 MLOAD PUSH2 0x12B SWAP2 SWAP1 PUSH2 0xE40 JUMP JUMPDEST PUSH1 0x40 MLOAD DUP1 SWAP2 SUB SWAP1 RETURN JUMPDEST PUSH2 0x14E PUSH1 0x4 DUP1 CALLDATASIZE SUB DUP2 ADD SWAP1 PUSH2 0x149 SWAP2 SWAP1 PUSH2 0xDF7 JUMP JUMPDEST PUSH2 0x401 JUMP JUMPDEST PUSH1 0x40 MLOAD PUSH2 0x15B SWAP2 SWAP1 PUSH2 0xE40 JUMP JUMPDEST PUSH1 0x40 MLOAD DUP1 SWAP2 SUB SWAP1 RETURN JUMPDEST PUSH2 0x17E PUSH1 0x4 DUP1 CALLDATASIZE SUB DUP2 ADD SWAP1 PUSH2 0x179 SWAP2 SWAP1 PUSH2 0xEC1 JUMP JUMPDEST PUSH2 0x431 JUMP JUMPDEST PUSH1 0x40 MLOAD PUSH2 0x18B SWAP2 SWAP1 PUSH2 0xF4B JUMP JUMPDEST PUSH1 0x40 MLOAD DUP1 SWAP2 SUB SWAP1 RETURN JUMPDEST PUSH2 0x1AE PUSH1 0x4 DUP1 CALLDATASIZE SUB DUP2 ADD SWAP1 PUSH2 0x1A9 SWAP2 SWAP1 PUSH2 0xDF7 JUMP JUMPDEST PUSH2 0x44D JUMP JUMPDEST PUSH1 0x40 MLOAD PUSH2 0x1BB SWAP2 SWAP1 PUSH2 0xE40 JUMP JUMPDEST PUSH1 0x40 MLOAD DUP1 SWAP2 SUB SWAP1 RETURN JUMPDEST PUSH2 0x1DE PUSH1 0x4 DUP1 CALLDATASIZE SUB DUP2 ADD SWAP1 PUSH2 0x1D9 SWAP2 SWAP1 PUSH2 0xF66 JUMP JUMPDEST PUSH2 0x463 JUMP JUMPDEST PUSH1 0x40 MLOAD PUSH2 0x1EB SWAP2 SWAP1 PUSH2 0xF4B JUMP JUMPDEST PUSH1 0x40 MLOAD DUP1 SWAP2 SUB SWAP1 RETURN JUMPDEST PUSH2 0x20E PUSH1 0x4 DUP1 CALLDATASIZE SUB DUP2 ADD SWAP1 PUSH2 0x209 SWAP2 SWAP1 PUSH2 0xDF7 JUMP JUMPDEST PUSH2 0x47E JUMP JUMPDEST PUSH1 0x40 MLOAD PUSH2 0x21B SWAP2 SWAP1 PUSH2 0xE40 JUMP JUMPDEST PUSH1 0x40 MLOAD DUP1 SWAP2 SUB SWAP1 RETURN JUMPDEST PUSH2 0x23E PUSH1 0x4 DUP1 CALLDATASIZE SUB DUP2 ADD SWAP1 PUSH2 0x239 SWAP2 SWAP1 PUSH2 0xFCD JUMP JUMPDEST PUSH2 0x494 JUMP JUMPDEST PUSH1 0x40 MLOAD PUSH2 0x24B SWAP2 SWAP1 PUSH2 0xF4B JUMP JUMPDEST PUSH1 0x40 MLOAD DUP1 SWAP2 SUB SWAP1 RETURN JUMPDEST PUSH2 0x26E PUSH1 0x4 DUP1 CALLDATASIZE SUB DUP2 ADD SWAP1 PUSH2 0x269 SWAP2 SWAP1 PUSH2 0x1020 JUMP JUMPDEST PUSH2 0x4AF JUMP JUMPDEST PUSH1 0x40 MLOAD PUSH2 0x27B SWAP2 SWAP1 PUSH2 0xF4B JUMP JUMPDEST PUSH1 0x40 MLOAD DUP1 SWAP2 SUB SWAP1 RETURN JUMPDEST PUSH2 0x29E PUSH1 0x4 DUP1 CALLDATASIZE SUB DUP2 ADD SWAP1 PUSH2 0x299 SWAP2 SWAP1 PUSH2 0xDF7 JUMP JUMPDEST PUSH2 0x81A JUMP JUMPDEST PUSH1 0x40 MLOAD PUSH2 0x2AB SWAP2 SWAP1 PUSH2 0x10BC JUMP JUMPDEST PUSH1 0x40 MLOAD DUP1 SWAP2 SUB SWAP1 RETURN JUMPDEST PUSH2 0x2CE PUSH1 0x4 DUP1 CALLDATASIZE SUB DUP2 ADD SWAP1 PUSH2 0x2C9 SWAP2 SWAP1 PUSH2 0xDF7 JUMP JUMPDEST PUSH2 0x931 JUMP JUMPDEST PUSH1 0x40 MLOAD PUSH2 0x2DB SWAP2 SWAP1 PUSH2 0xE40 JUMP JUMPDEST PUSH1 0x40 MLOAD DUP1 SWAP2 SUB SWAP1 RETURN JUMPDEST PUSH2 0x2FE PUSH1 0x4 DUP1 CALLDATASIZE SUB DUP2 ADD SWAP1 PUSH2 0x2F9 SWAP2 SWAP1 PUSH2 0x10D7 JUMP JUMPDEST PUSH2 0x947 JUMP JUMPDEST PUSH1 0x40 MLOAD PUSH2 0x30B SWAP2 SWAP1 PUSH2 0x111F JUMP JUMPDEST PUSH1 0x40 MLOAD DUP1 SWAP2 SUB SWAP1 RETURN JUMPDEST PUSH2 0x32E PUSH1 0x4 DUP1 CALLDATASIZE SUB DUP2 ADD SWAP1 PUSH2 0x329 SWAP2 SWAP1 PUSH2 0xDF7 JUMP JUMPDEST PUSH2 0x9B6 JUMP JUMPDEST PUSH1 0x40 MLOAD PUSH2 0x33B SWAP2 SWAP1 PUSH2 0xF4B JUMP JUMPDEST PUSH1 0x40 MLOAD DUP1 SWAP2 SUB SWAP1 RETURN JUMPDEST PUSH2 0x35E PUSH1 0x4 DUP1 CALLDATASIZE SUB DUP2 ADD SWAP1 PUSH2 0x359 SWAP2 SWAP1 PUSH2 0x113A JUMP JUMPDEST PUSH2 0xA0A JUMP JUMPDEST PUSH1 0x40 MLOAD PUSH2 0x36B SWAP2 SWAP1 PUSH2 0xE40 JUMP JUMPDEST PUSH1 0x40 MLOAD DUP1 SWAP2 SUB SWAP1 RETURN JUMPDEST PUSH2 0x38E PUSH1 0x4 DUP1 CALLDATASIZE SUB DUP2 ADD SWAP1 PUSH2 0x389 SWAP2 SWAP1 PUSH2 0x117A JUMP JUMPDEST PUSH2 0xAD6 JUMP JUMPDEST PUSH1 0x40 MLOAD PUSH2 0x39B SWAP2 SWAP1 PUSH2 0xF4B JUMP JUMPDEST PUSH1 0x40 MLOAD DUP1 SWAP2 SUB SWAP1 RETURN JUMPDEST PUSH2 0x3BE PUSH1 0x4 DUP1 CALLDATASIZE SUB DUP2 ADD SWAP1 PUSH2 0x3B9 SWAP2 SWAP1 PUSH2 0xDF7 JUMP JUMPDEST PUSH2 0xB14 JUMP JUMPDEST PUSH1 0x40 MLOAD PUSH2 0x3CB SWAP2 SWAP1 PUSH2 0xE40 JUMP JUMPDEST PUSH1 0x40 MLOAD DUP1 SWAP2 SUB SWAP1 RETURN JUMPDEST PUSH1 0x0 PUSH1 0x18 PUSH1 0x3C DUP1 DUP5 PUSH2 0x3E6 SWAP2 SWAP1 PUSH2 0x1218 JUMP JUMPDEST PUSH2 0x3F0 SWAP2 SWAP1 PUSH2 0x1218 JUMP JUMPDEST PUSH2 0x3FA SWAP2 SWAP1 PUSH2 0x1249 JUMP JUMPDEST SWAP1 POP SWAP2 SWAP1 POP JUMP JUMPDEST PUSH1 0x0 PUSH1 0x7 PUSH1 0x4 PUSH3 0x15180 DUP5 PUSH2 0x416 SWAP2 SWAP1 PUSH2 0x1218 JUMP JUMPDEST PUSH2 0x420 SWAP2 SWAP1 PUSH2 0x127A JUMP JUMPDEST PUSH2 0x42A SWAP2 SWAP1 PUSH2 0x1249 JUMP JUMPDEST SWAP1 POP SWAP2 SWAP1 POP JUMP JUMPDEST PUSH1 0x0 PUSH2 0x442 DUP7 DUP7 DUP7 DUP7 DUP7 PUSH1 0x0 PUSH2 0x4AF JUMP JUMPDEST SWAP1 POP SWAP6 SWAP5 POP POP POP POP POP JUMP JUMPDEST PUSH1 0x0 PUSH2 0x458 DUP3 PUSH2 0xB35 JUMP JUMPDEST PUSH1 0x40 ADD MLOAD SWAP1 POP SWAP2 SWAP1 POP JUMP JUMPDEST PUSH1 0x0 PUSH2 0x474 DUP6 DUP6 DUP6 DUP6 PUSH1 0x0 DUP1 PUSH2 0x4AF JUMP JUMPDEST SWAP1 POP SWAP5 SWAP4 POP POP POP POP JUMP JUMPDEST PUSH1 0x0 PUSH1 0x3C DUP3 PUSH2 0x48D SWAP2 SWAP1 PUSH2 0x1249 JUMP JUMPDEST SWAP1 POP SWAP2 SWAP1 POP JUMP JUMPDEST PUSH1 0x0 PUSH2 0x4A6 DUP5 DUP5 DUP5 PUSH1 0x0 DUP1 PUSH1 0x0 PUSH2 0x4AF JUMP JUMPDEST SWAP1 POP SWAP4 SWAP3 POP POP POP JUMP JUMPDEST PUSH1 0x0 DUP1 PUSH2 0x7B2 SWAP1 POP JUMPDEST DUP8 PUSH2 0xFFFF AND DUP2 PUSH2 0xFFFF AND LT ISZERO PUSH2 0x513 JUMPI PUSH2 0x4D1 DUP2 PUSH2 0x947 JUMP JUMPDEST ISZERO PUSH2 0x4ED JUMPI PUSH4 0x1E28500 DUP3 PUSH2 0x4E6 SWAP2 SWAP1 PUSH2 0x127A JUMP JUMPDEST SWAP2 POP PUSH2 0x500 JUMP JUMPDEST PUSH4 0x1E13380 DUP3 PUSH2 0x4FD SWAP2 SWAP1 PUSH2 0x127A JUMP JUMPDEST SWAP2 POP JUMPDEST DUP1 DUP1 PUSH2 0x50B SWAP1 PUSH2 0x12AE JUMP JUMPDEST SWAP2 POP POP PUSH2 0x4B8 JUMP JUMPDEST PUSH2 0x51B PUSH2 0xD46 JUMP JUMPDEST PUSH1 0x1F DUP2 PUSH1 0x0 PUSH1 0xC DUP2 LT PUSH2 0x531 JUMPI PUSH2 0x530 PUSH2 0x12D8 JUMP JUMPDEST JUMPDEST PUSH1 0x20 MUL ADD SWAP1 PUSH1 0xFF AND SWAP1 DUP2 PUSH1 0xFF AND DUP2 MSTORE POP POP PUSH2 0x54B DUP10 PUSH2 0x947 JUMP JUMPDEST ISZERO PUSH2 0x57C JUMPI PUSH1 0x1D DUP2 PUSH1 0x1 PUSH1 0xC DUP2 LT PUSH2 0x566 JUMPI PUSH2 0x565 PUSH2 0x12D8 JUMP JUMPDEST JUMPDEST PUSH1 0x20 MUL ADD SWAP1 PUSH1 0xFF AND SWAP1 DUP2 PUSH1 0xFF AND DUP2 MSTORE POP POP PUSH2 0x5A4 JUMP JUMPDEST PUSH1 0x1C DUP2 PUSH1 0x1 PUSH1 0xC DUP2 LT PUSH2 0x592 JUMPI PUSH2 0x591 PUSH2 0x12D8 JUMP JUMPDEST JUMPDEST PUSH1 0x20 MUL ADD SWAP1 PUSH1 0xFF AND SWAP1 DUP2 PUSH1 0xFF AND DUP2 MSTORE POP POP JUMPDEST PUSH1 0x1F DUP2 PUSH1 0x2 PUSH1 0xC DUP2 LT PUSH2 0x5BA JUMPI PUSH2 0x5B9 PUSH2 0x12D8 JUMP JUMPDEST JUMPDEST PUSH1 0x20 MUL ADD SWAP1 PUSH1 0xFF AND SWAP1 DUP2 PUSH1 0xFF AND DUP2 MSTORE POP POP PUSH1 0x1E DUP2 PUSH1 0x3 PUSH1 0xC DUP2 LT PUSH2 0x5E1 JUMPI PUSH2 0x5E0 PUSH2 0x12D8 JUMP JUMPDEST JUMPDEST PUSH1 0x20 MUL ADD SWAP1 PUSH1 0xFF AND SWAP1 DUP2 PUSH1 0xFF AND DUP2 MSTORE POP POP PUSH1 0x1F DUP2 PUSH1 0x4 PUSH1 0xC DUP2 LT PUSH2 0x608 JUMPI PUSH2 0x607 PUSH2 0x12D8 JUMP JUMPDEST JUMPDEST PUSH1 0x20 MUL ADD SWAP1 PUSH1 0xFF AND SWAP1 DUP2 PUSH1 0xFF AND DUP2 MSTORE POP POP PUSH1 0x1E DUP2 PUSH1 0x5 PUSH1 0xC DUP2 LT PUSH2 0x62F JUMPI PUSH2 0x62E PUSH2 0x12D8 JUMP JUMPDEST JUMPDEST PUSH1 0x20 MUL ADD SWAP1 PUSH1 0xFF AND SWAP1 DUP2 PUSH1 0xFF AND DUP2 MSTORE POP POP PUSH1 0x1F DUP2 PUSH1 0x6 PUSH1 0xC DUP2 LT PUSH2 0x656 JUMPI PUSH2 0x655 PUSH2 0x12D8 JUMP JUMPDEST JUMPDEST PUSH1 0x20 MUL ADD SWAP1 PUSH1 0xFF AND SWAP1 DUP2 PUSH1 0xFF AND DUP2 MSTORE POP POP PUSH1 0x1F DUP2 PUSH1 0x7 PUSH1 0xC DUP2 LT PUSH2 0x67D JUMPI PUSH2 0x67C PUSH2 0x12D8 JUMP JUMPDEST JUMPDEST PUSH1 0x20 MUL ADD SWAP1 PUSH1 0xFF AND SWAP1 DUP2 PUSH1 0xFF AND DUP2 MSTORE POP POP PUSH1 0x1E DUP2 PUSH1 0x8 PUSH1 0xC DUP2 LT PUSH2 0x6A4 JUMPI PUSH2 0x6A3 PUSH2 0x12D8 JUMP JUMPDEST JUMPDEST PUSH1 0x20 MUL ADD SWAP1 PUSH1 0xFF AND SWAP1 DUP2 PUSH1 0xFF AND DUP2 MSTORE POP POP PUSH1 0x1F DUP2 PUSH1 0x9 PUSH1 0xC DUP2 LT PUSH2 0x6CB JUMPI PUSH2 0x6CA PUSH2 0x12D8 JUMP JUMPDEST JUMPDEST PUSH1 0x20 MUL ADD SWAP1 PUSH1 0xFF AND SWAP1 DUP2 PUSH1 0xFF AND DUP2 MSTORE POP POP PUSH1 0x1E DUP2 PUSH1 0xA PUSH1 0xC DUP2 LT PUSH2 0x6F2 JUMPI PUSH2 0x6F1 PUSH2 0x12D8 JUMP JUMPDEST JUMPDEST PUSH1 0x20 MUL ADD SWAP1 PUSH1 0xFF AND SWAP1 DUP2 PUSH1 0xFF AND DUP2 MSTORE POP POP PUSH1 0x1F DUP2 PUSH1 0xB PUSH1 0xC DUP2 LT PUSH2 0x719 JUMPI PUSH2 0x718 PUSH2 0x12D8 JUMP JUMPDEST JUMPDEST PUSH1 0x20 MUL ADD SWAP1 PUSH1 0xFF AND SWAP1 DUP2 PUSH1 0xFF AND DUP2 MSTORE POP POP PUSH1 0x1 SWAP2 POP JUMPDEST DUP8 PUSH1 0xFF AND DUP3 PUSH2 0xFFFF AND LT ISZERO PUSH2 0x797 JUMPI DUP1 PUSH1 0x1 DUP4 PUSH2 0x74C SWAP2 SWAP1 PUSH2 0x1307 JUMP JUMPDEST PUSH2 0xFFFF AND PUSH1 0xC DUP2 LT PUSH2 0x761 JUMPI PUSH2 0x760 PUSH2 0x12D8 JUMP JUMPDEST JUMPDEST PUSH1 0x20 MUL ADD MLOAD PUSH1 0xFF AND PUSH3 0x15180 PUSH2 0x777 SWAP2 SWAP1 PUSH2 0x133D JUMP JUMPDEST DUP4 PUSH2 0x782 SWAP2 SWAP1 PUSH2 0x127A JUMP JUMPDEST SWAP3 POP DUP2 DUP1 PUSH2 0x78F SWAP1 PUSH2 0x12AE JUMP JUMPDEST SWAP3 POP POP PUSH2 0x72F JUMP JUMPDEST PUSH1 0x1 DUP8 PUSH2 0x7A4 SWAP2 SWAP1 PUSH2 0x137F JUMP JUMPDEST PUSH1 0xFF AND PUSH3 0x15180 PUSH2 0x7B5 SWAP2 SWAP1 PUSH2 0x133D JUMP JUMPDEST DUP4 PUSH2 0x7C0 SWAP2 SWAP1 PUSH2 0x127A JUMP JUMPDEST SWAP3 POP DUP6 PUSH1 0xFF AND PUSH2 0xE10 PUSH2 0x7D3 SWAP2 SWAP1 PUSH2 0x133D JUMP JUMPDEST DUP4 PUSH2 0x7DE SWAP2 SWAP1 PUSH2 0x127A JUMP JUMPDEST SWAP3 POP DUP5 PUSH1 0xFF AND PUSH1 0x3C PUSH2 0x7F0 SWAP2 SWAP1 PUSH2 0x133D JUMP JUMPDEST DUP4 PUSH2 0x7FB SWAP2 SWAP1 PUSH2 0x127A JUMP JUMPDEST SWAP3 POP DUP4 PUSH1 0xFF AND DUP4 PUSH2 0x80C SWAP2 SWAP1 PUSH2 0x127A JUMP JUMPDEST SWAP3 POP POP POP SWAP7 SWAP6 POP POP POP POP POP POP JUMP JUMPDEST PUSH1 0x0 DUP1 PUSH1 0x0 SWAP1 POP PUSH1 0x0 DUP1 PUSH4 0x1E13380 DUP6 PUSH2 0x834 SWAP2 SWAP1 PUSH2 0x1218 JUMP JUMPDEST PUSH2 0x7B2 PUSH2 0xFFFF AND PUSH2 0x845 SWAP2 SWAP1 PUSH2 0x127A JUMP JUMPDEST SWAP2 POP PUSH2 0x856 PUSH2 0x7B2 PUSH2 0xFFFF AND PUSH2 0x9B6 JUMP JUMPDEST PUSH2 0x863 DUP4 PUSH2 0xFFFF AND PUSH2 0x9B6 JUMP JUMPDEST PUSH2 0x86D SWAP2 SWAP1 PUSH2 0x13B4 JUMP JUMPDEST SWAP1 POP DUP1 PUSH4 0x1E28500 PUSH2 0x87F SWAP2 SWAP1 PUSH2 0x133D JUMP JUMPDEST DUP4 PUSH2 0x88A SWAP2 SWAP1 PUSH2 0x127A JUMP JUMPDEST SWAP3 POP DUP1 PUSH2 0x7B2 DUP4 PUSH2 0x89B SWAP2 SWAP1 PUSH2 0x1307 JUMP JUMPDEST PUSH2 0xFFFF AND PUSH2 0x8A9 SWAP2 SWAP1 PUSH2 0x13B4 JUMP JUMPDEST PUSH4 0x1E13380 PUSH2 0x8B8 SWAP2 SWAP1 PUSH2 0x133D JUMP JUMPDEST DUP4 PUSH2 0x8C3 SWAP2 SWAP1 PUSH2 0x127A JUMP JUMPDEST SWAP3 POP JUMPDEST DUP5 DUP4 GT ISZERO PUSH2 0x926 JUMPI PUSH2 0x8E3 PUSH1 0x1 DUP4 PUSH2 0x8DE SWAP2 SWAP1 PUSH2 0x1307 JUMP JUMPDEST PUSH2 0x947 JUMP JUMPDEST ISZERO PUSH2 0x8FF JUMPI PUSH4 0x1E28500 DUP4 PUSH2 0x8F8 SWAP2 SWAP1 PUSH2 0x13B4 JUMP JUMPDEST SWAP3 POP PUSH2 0x912 JUMP JUMPDEST PUSH4 0x1E13380 DUP4 PUSH2 0x90F SWAP2 SWAP1 PUSH2 0x13B4 JUMP JUMPDEST SWAP3 POP JUMPDEST PUSH1 0x1 DUP3 PUSH2 0x91F SWAP2 SWAP1 PUSH2 0x1307 JUMP JUMPDEST SWAP2 POP PUSH2 0x8C6 JUMP JUMPDEST DUP2 SWAP4 POP POP POP POP SWAP2 SWAP1 POP JUMP JUMPDEST PUSH1 0x0 PUSH2 0x93C DUP3 PUSH2 0xB35 JUMP JUMPDEST PUSH1 0x20 ADD MLOAD SWAP1 POP SWAP2 SWAP1 POP JUMP JUMPDEST PUSH1 0x0 DUP1 PUSH1 0x4 DUP4 PUSH2 0x957 SWAP2 SWAP1 PUSH2 0x13E8 JUMP JUMPDEST PUSH2 0xFFFF AND EQ PUSH2 0x969 JUMPI PUSH1 0x0 SWAP1 POP PUSH2 0x9B1 JUMP JUMPDEST PUSH1 0x0 PUSH1 0x64 DUP4 PUSH2 0x978 SWAP2 SWAP1 PUSH2 0x13E8 JUMP JUMPDEST PUSH2 0xFFFF AND EQ PUSH2 0x98A JUMPI PUSH1 0x1 SWAP1 POP PUSH2 0x9B1 JUMP JUMPDEST PUSH1 0x0 PUSH2 0x190 DUP4 PUSH2 0x99A SWAP2 SWAP1 PUSH2 0x13E8 JUMP JUMPDEST PUSH2 0xFFFF AND EQ PUSH2 0x9AC JUMPI PUSH1 0x0 SWAP1 POP PUSH2 0x9B1 JUMP JUMPDEST PUSH1 0x1 SWAP1 POP JUMPDEST SWAP2 SWAP1 POP JUMP JUMPDEST PUSH1 0x0 PUSH1 0x1 DUP3 PUSH2 0x9C5 SWAP2 SWAP1 PUSH2 0x13B4 JUMP JUMPDEST SWAP2 POP PUSH2 0x190 DUP3 PUSH2 0x9D5 SWAP2 SWAP1 PUSH2 0x1218 JUMP JUMPDEST PUSH1 0x64 DUP4 PUSH2 0x9E2 SWAP2 SWAP1 PUSH2 0x1218 JUMP JUMPDEST PUSH1 0x4 DUP5 PUSH2 0x9EF SWAP2 SWAP1 PUSH2 0x1218 JUMP JUMPDEST PUSH2 0x9F9 SWAP2 SWAP1 PUSH2 0x13B4 JUMP JUMPDEST PUSH2 0xA03 SWAP2 SWAP1 PUSH2 0x127A JUMP JUMPDEST SWAP1 POP SWAP2 SWAP1 POP JUMP JUMPDEST PUSH1 0x0 PUSH1 0x1 DUP4 PUSH1 0xFF AND EQ DUP1 PUSH2 0xA21 JUMPI POP PUSH1 0x3 DUP4 PUSH1 0xFF AND EQ JUMPDEST DUP1 PUSH2 0xA2F JUMPI POP PUSH1 0x5 DUP4 PUSH1 0xFF AND EQ JUMPDEST DUP1 PUSH2 0xA3D JUMPI POP PUSH1 0x7 DUP4 PUSH1 0xFF AND EQ JUMPDEST DUP1 PUSH2 0xA4B JUMPI POP PUSH1 0x8 DUP4 PUSH1 0xFF AND EQ JUMPDEST DUP1 PUSH2 0xA59 JUMPI POP PUSH1 0xA DUP4 PUSH1 0xFF AND EQ JUMPDEST DUP1 PUSH2 0xA67 JUMPI POP PUSH1 0xC DUP4 PUSH1 0xFF AND EQ JUMPDEST ISZERO PUSH2 0xA75 JUMPI PUSH1 0x1F SWAP1 POP PUSH2 0xAD0 JUMP JUMPDEST PUSH1 0x4 DUP4 PUSH1 0xFF AND EQ DUP1 PUSH2 0xA8A JUMPI POP PUSH1 0x6 DUP4 PUSH1 0xFF AND EQ JUMPDEST DUP1 PUSH2 0xA98 JUMPI POP PUSH1 0x9 DUP4 PUSH1 0xFF AND EQ JUMPDEST DUP1 PUSH2 0xAA6 JUMPI POP PUSH1 0xB DUP4 PUSH1 0xFF AND EQ JUMPDEST ISZERO PUSH2 0xAB4 JUMPI PUSH1 0x1E SWAP1 POP PUSH2 0xAD0 JUMP JUMPDEST PUSH2 0xABD DUP3 PUSH2 0x947 JUMP JUMPDEST ISZERO PUSH2 0xACB JUMPI PUSH1 0x1D SWAP1 POP PUSH2 0xAD0 JUMP JUMPDEST PUSH1 0x1C SWAP1 POP JUMPDEST SWAP3 SWAP2 POP POP JUMP JUMPDEST PUSH1 0x0 DUP1 PUSH1 0x18 PUSH1 0x3C DUP1 DUP7 DUP7 PUSH2 0xAEA SWAP2 SWAP1 PUSH2 0x13B4 JUMP JUMPDEST PUSH2 0xAF4 SWAP2 SWAP1 PUSH2 0x1218 JUMP JUMPDEST PUSH2 0xAFE SWAP2 SWAP1 PUSH2 0x1218 JUMP JUMPDEST PUSH2 0xB08 SWAP2 SWAP1 PUSH2 0x1218 JUMP JUMPDEST SWAP1 POP DUP1 SWAP2 POP POP SWAP3 SWAP2 POP POP JUMP JUMPDEST PUSH1 0x0 PUSH1 0x3C DUP1 DUP4 PUSH2 0xB24 SWAP2 SWAP1 PUSH2 0x1218 JUMP JUMPDEST PUSH2 0xB2E SWAP2 SWAP1 PUSH2 0x1249 JUMP JUMPDEST SWAP1 POP SWAP2 SWAP1 POP JUMP JUMPDEST PUSH2 0xB3D PUSH2 0xD69 JUMP JUMPDEST PUSH1 0x0 DUP1 DUP1 PUSH2 0xB4A DUP6 PUSH2 0x81A JUMP JUMPDEST DUP5 PUSH1 0x0 ADD SWAP1 PUSH2 0xFFFF AND SWAP1 DUP2 PUSH2 0xFFFF AND DUP2 MSTORE POP POP PUSH2 0xB6C PUSH2 0x7B2 PUSH2 0xFFFF AND PUSH2 0x9B6 JUMP JUMPDEST PUSH2 0xB7D DUP6 PUSH1 0x0 ADD MLOAD PUSH2 0xFFFF AND PUSH2 0x9B6 JUMP JUMPDEST PUSH2 0xB87 SWAP2 SWAP1 PUSH2 0x13B4 JUMP JUMPDEST SWAP2 POP DUP2 PUSH4 0x1E28500 PUSH2 0xB99 SWAP2 SWAP1 PUSH2 0x133D JUMP JUMPDEST DUP4 PUSH2 0xBA4 SWAP2 SWAP1 PUSH2 0x127A JUMP JUMPDEST SWAP3 POP DUP2 PUSH2 0x7B2 DUP6 PUSH1 0x0 ADD MLOAD PUSH2 0xBB9 SWAP2 SWAP1 PUSH2 0x1307 JUMP JUMPDEST PUSH2 0xFFFF AND PUSH2 0xBC7 SWAP2 SWAP1 PUSH2 0x13B4 JUMP JUMPDEST PUSH4 0x1E13380 PUSH2 0xBD6 SWAP2 SWAP1 PUSH2 0x133D JUMP JUMPDEST DUP4 PUSH2 0xBE1 SWAP2 SWAP1 PUSH2 0x127A JUMP JUMPDEST SWAP3 POP PUSH1 0x0 PUSH1 0x1 SWAP2 POP JUMPDEST PUSH1 0xC DUP3 PUSH1 0xFF AND GT PUSH2 0xC61 JUMPI PUSH2 0xC03 DUP3 DUP7 PUSH1 0x0 ADD MLOAD PUSH2 0xA0A JUMP JUMPDEST PUSH1 0xFF AND PUSH3 0x15180 PUSH2 0xC14 SWAP2 SWAP1 PUSH2 0x133D JUMP JUMPDEST SWAP1 POP DUP6 DUP5 DUP3 PUSH2 0xC23 SWAP2 SWAP1 PUSH2 0x127A JUMP JUMPDEST GT ISZERO PUSH2 0xC40 JUMPI DUP2 DUP6 PUSH1 0x20 ADD SWAP1 PUSH1 0xFF AND SWAP1 DUP2 PUSH1 0xFF AND DUP2 MSTORE POP POP PUSH2 0xC61 JUMP JUMPDEST DUP1 DUP5 PUSH2 0xC4C SWAP2 SWAP1 PUSH2 0x127A JUMP JUMPDEST SWAP4 POP DUP2 DUP1 PUSH2 0xC59 SWAP1 PUSH2 0x1419 JUMP JUMPDEST SWAP3 POP POP PUSH2 0xBEA JUMP JUMPDEST PUSH1 0x1 SWAP2 POP JUMPDEST PUSH2 0xC78 DUP6 PUSH1 0x20 ADD MLOAD DUP7 PUSH1 0x0 ADD MLOAD PUSH2 0xA0A JUMP JUMPDEST PUSH1 0xFF AND DUP3 PUSH1 0xFF AND GT PUSH2 0xCD5 JUMPI DUP6 DUP5 PUSH3 0x15180 PUSH2 0xC94 SWAP2 SWAP1 PUSH2 0x127A JUMP JUMPDEST GT ISZERO PUSH2 0xCB1 JUMPI DUP2 DUP6 PUSH1 0x40 ADD SWAP1 PUSH1 0xFF AND SWAP1 DUP2 PUSH1 0xFF AND DUP2 MSTORE POP POP PUSH2 0xCD5 JUMP JUMPDEST PUSH3 0x15180 DUP5 PUSH2 0xCC0 SWAP2 SWAP1 PUSH2 0x127A JUMP JUMPDEST SWAP4 POP DUP2 DUP1 PUSH2 0xCCD SWAP1 PUSH2 0x1419 JUMP JUMPDEST SWAP3 POP POP PUSH2 0xC66 JUMP JUMPDEST PUSH2 0xCDE DUP7 PUSH2 0x3D4 JUMP JUMPDEST DUP6 PUSH1 0x60 ADD SWAP1 PUSH1 0xFF AND SWAP1 DUP2 PUSH1 0xFF AND DUP2 MSTORE POP POP PUSH2 0xCF8 DUP7 PUSH2 0xB14 JUMP JUMPDEST DUP6 PUSH1 0x80 ADD SWAP1 PUSH1 0xFF AND SWAP1 DUP2 PUSH1 0xFF AND DUP2 MSTORE POP POP PUSH2 0xD12 DUP7 PUSH2 0x47E JUMP JUMPDEST DUP6 PUSH1 0xA0 ADD SWAP1 PUSH1 0xFF AND SWAP1 DUP2 PUSH1 0xFF AND DUP2 MSTORE POP POP PUSH2 0xD2C DUP7 PUSH2 0x401 JUMP JUMPDEST DUP6 PUSH1 0xC0 ADD SWAP1 PUSH1 0xFF AND SWAP1 DUP2 PUSH1 0xFF AND DUP2 MSTORE POP POP POP POP POP POP SWAP2 SWAP1 POP JUMP JUMPDEST PUSH1 0x40 MLOAD DUP1 PUSH2 0x180 ADD PUSH1 0x40 MSTORE DUP1 PUSH1 0xC SWAP1 PUSH1 0x20 DUP3 MUL DUP1 CALLDATASIZE DUP4 CALLDATACOPY DUP1 DUP3 ADD SWAP2 POP POP SWAP1 POP POP SWAP1 JUMP JUMPDEST PUSH1 0x40 MLOAD DUP1 PUSH1 0xE0 ADD PUSH1 0x40 MSTORE DUP1 PUSH1 0x0 PUSH2 0xFFFF AND DUP2 MSTORE PUSH1 0x20 ADD PUSH1 0x0 PUSH1 0xFF AND DUP2 MSTORE PUSH1 0x20 ADD PUSH1 0x0 PUSH1 0xFF AND DUP2 MSTORE PUSH1 0x20 ADD PUSH1 0x0 PUSH1 0xFF AND DUP2 MSTORE PUSH1 0x20 ADD PUSH1 0x0 PUSH1 0xFF AND DUP2 MSTORE PUSH1 0x20 ADD PUSH1 0x0 PUSH1 0xFF AND DUP2 MSTORE PUSH1 0x20 ADD PUSH1 0x0 PUSH1 0xFF AND DUP2 MSTORE POP SWAP1 JUMP JUMPDEST PUSH1 0x0 DUP1 REVERT JUMPDEST PUSH1 0x0 DUP2 SWAP1 POP SWAP2 SWAP1 POP JUMP JUMPDEST PUSH2 0xDD4 DUP2 PUSH2 0xDC1 JUMP JUMPDEST DUP2 EQ PUSH2 0xDDF JUMPI PUSH1 0x0 DUP1 REVERT JUMPDEST POP JUMP JUMPDEST PUSH1 0x0 DUP2 CALLDATALOAD SWAP1 POP PUSH2 0xDF1 DUP2 PUSH2 0xDCB JUMP JUMPDEST SWAP3 SWAP2 POP POP JUMP JUMPDEST PUSH1 0x0 PUSH1 0x20 DUP3 DUP5 SUB SLT ISZERO PUSH2 0xE0D JUMPI PUSH2 0xE0C PUSH2 0xDBC JUMP JUMPDEST JUMPDEST PUSH1 0x0 PUSH2 0xE1B DUP5 DUP3 DUP6 ADD PUSH2 0xDE2 JUMP JUMPDEST SWAP2 POP POP SWAP3 SWAP2 POP POP JUMP JUMPDEST PUSH1 0x0 PUSH1 0xFF DUP3 AND SWAP1 POP SWAP2 SWAP1 POP JUMP JUMPDEST PUSH2 0xE3A DUP2 PUSH2 0xE24 JUMP JUMPDEST DUP3 MSTORE POP POP JUMP JUMPDEST PUSH1 0x0 PUSH1 0x20 DUP3 ADD SWAP1 POP PUSH2 0xE55 PUSH1 0x0 DUP4 ADD DUP5 PUSH2 0xE31 JUMP JUMPDEST SWAP3 SWAP2 POP POP JUMP JUMPDEST PUSH1 0x0 PUSH2 0xFFFF DUP3 AND SWAP1 POP SWAP2 SWAP1 POP JUMP JUMPDEST PUSH2 0xE72 DUP2 PUSH2 0xE5B JUMP JUMPDEST DUP2 EQ PUSH2 0xE7D JUMPI PUSH1 0x0 DUP1 REVERT JUMPDEST POP JUMP JUMPDEST PUSH1 0x0 DUP2 CALLDATALOAD SWAP1 POP PUSH2 0xE8F DUP2 PUSH2 0xE69 JUMP JUMPDEST SWAP3 SWAP2 POP POP JUMP JUMPDEST PUSH2 0xE9E DUP2 PUSH2 0xE24 JUMP JUMPDEST DUP2 EQ PUSH2 0xEA9 JUMPI PUSH1 0x0 DUP1 REVERT JUMPDEST POP JUMP JUMPDEST PUSH1 0x0 DUP2 CALLDATALOAD SWAP1 POP PUSH2 0xEBB DUP2 PUSH2 0xE95 JUMP JUMPDEST SWAP3 SWAP2 POP POP JUMP JUMPDEST PUSH1 0x0 DUP1 PUSH1 0x0 DUP1 PUSH1 0x0 PUSH1 0xA0 DUP7 DUP9 SUB SLT ISZERO PUSH2 0xEDD JUMPI PUSH2 0xEDC PUSH2 0xDBC JUMP JUMPDEST JUMPDEST PUSH1 0x0 PUSH2 0xEEB DUP9 DUP3 DUP10 ADD PUSH2 0xE80 JUMP JUMPDEST SWAP6 POP POP PUSH1 0x20 PUSH2 0xEFC DUP9 DUP3 DUP10 ADD PUSH2 0xEAC JUMP JUMPDEST SWAP5 POP POP PUSH1 0x40 PUSH2 0xF0D DUP9 DUP3 DUP10 ADD PUSH2 0xEAC JUMP JUMPDEST SWAP4 POP POP PUSH1 0x60 PUSH2 0xF1E DUP9 DUP3 DUP10 ADD PUSH2 0xEAC JUMP JUMPDEST SWAP3 POP POP PUSH1 0x80 PUSH2 0xF2F DUP9 DUP3 DUP10 ADD PUSH2 0xEAC JUMP JUMPDEST SWAP2 POP POP SWAP3 SWAP6 POP SWAP3 SWAP6 SWAP1 SWAP4 POP JUMP JUMPDEST PUSH2 0xF45 DUP2 PUSH2 0xDC1 JUMP JUMPDEST DUP3 MSTORE POP POP JUMP JUMPDEST PUSH1 0x0 PUSH1 0x20 DUP3 ADD SWAP1 POP PUSH2 0xF60 PUSH1 0x0 DUP4 ADD DUP5 PUSH2 0xF3C JUMP JUMPDEST SWAP3 SWAP2 POP POP JUMP JUMPDEST PUSH1 0x0 DUP1 PUSH1 0x0 DUP1 PUSH1 0x80 DUP6 DUP8 SUB SLT ISZERO PUSH2 0xF80 JUMPI PUSH2 0xF7F PUSH2 0xDBC JUMP JUMPDEST JUMPDEST PUSH1 0x0 PUSH2 0xF8E DUP8 DUP3 DUP9 ADD PUSH2 0xE80 JUMP JUMPDEST SWAP5 POP POP PUSH1 0x20 PUSH2 0xF9F DUP8 DUP3 DUP9 ADD PUSH2 0xEAC JUMP JUMPDEST SWAP4 POP POP PUSH1 0x40 PUSH2 0xFB0 DUP8 DUP3 DUP9 ADD PUSH2 0xEAC JUMP JUMPDEST SWAP3 POP POP PUSH1 0x60 PUSH2 0xFC1 DUP8 DUP3 DUP9 ADD PUSH2 0xEAC JUMP JUMPDEST SWAP2 POP POP SWAP3 SWAP6 SWAP2 SWAP5 POP SWAP3 POP JUMP JUMPDEST PUSH1 0x0 DUP1 PUSH1 0x0 PUSH1 0x60 DUP5 DUP7 SUB SLT ISZERO PUSH2 0xFE6 JUMPI PUSH2 0xFE5 PUSH2 0xDBC JUMP JUMPDEST JUMPDEST PUSH1 0x0 PUSH2 0xFF4 DUP7 DUP3 DUP8 ADD PUSH2 0xE80 JUMP JUMPDEST SWAP4 POP POP PUSH1 0x20 PUSH2 0x1005 DUP7 DUP3 DUP8 ADD PUSH2 0xEAC JUMP JUMPDEST SWAP3 POP POP PUSH1 0x40 PUSH2 0x1016 DUP7 DUP3 DUP8 ADD PUSH2 0xEAC JUMP JUMPDEST SWAP2 POP POP SWAP3 POP SWAP3 POP SWAP3 JUMP JUMPDEST PUSH1 0x0 DUP1 PUSH1 0x0 DUP1 PUSH1 0x0 DUP1 PUSH1 0xC0 DUP8 DUP10 SUB SLT ISZERO PUSH2 0x103D JUMPI PUSH2 0x103C PUSH2 0xDBC JUMP JUMPDEST JUMPDEST PUSH1 0x0 PUSH2 0x104B DUP10 DUP3 DUP11 ADD PUSH2 0xE80 JUMP JUMPDEST SWAP7 POP POP PUSH1 0x20 PUSH2 0x105C DUP10 DUP3 DUP11 ADD PUSH2 0xEAC JUMP JUMPDEST SWAP6 POP POP PUSH1 0x40 PUSH2 0x106D DUP10 DUP3 DUP11 ADD PUSH2 0xEAC JUMP JUMPDEST SWAP5 POP POP PUSH1 0x60 PUSH2 0x107E DUP10 DUP3 DUP11 ADD PUSH2 0xEAC JUMP JUMPDEST SWAP4 POP POP PUSH1 0x80 PUSH2 0x108F DUP10 DUP3 DUP11 ADD PUSH2 0xEAC JUMP JUMPDEST SWAP3 POP POP PUSH1 0xA0 PUSH2 0x10A0 DUP10 DUP3 DUP11 ADD PUSH2 0xEAC JUMP JUMPDEST SWAP2 POP POP SWAP3 SWAP6 POP SWAP3 SWAP6 POP SWAP3 SWAP6 JUMP JUMPDEST PUSH2 0x10B6 DUP2 PUSH2 0xE5B JUMP JUMPDEST DUP3 MSTORE POP POP JUMP JUMPDEST PUSH1 0x0 PUSH1 0x20 DUP3 ADD SWAP1 POP PUSH2 0x10D1 PUSH1 0x0 DUP4 ADD DUP5 PUSH2 0x10AD JUMP JUMPDEST SWAP3 SWAP2 POP POP JUMP JUMPDEST PUSH1 0x0 PUSH1 0x20 DUP3 DUP5 SUB SLT ISZERO PUSH2 0x10ED JUMPI PUSH2 0x10EC PUSH2 0xDBC JUMP JUMPDEST JUMPDEST PUSH1 0x0 PUSH2 0x10FB DUP5 DUP3 DUP6 ADD PUSH2 0xE80 JUMP JUMPDEST SWAP2 POP POP SWAP3 SWAP2 POP POP JUMP JUMPDEST PUSH1 0x0 DUP2 ISZERO ISZERO SWAP1 POP SWAP2 SWAP1 POP JUMP JUMPDEST PUSH2 0x1119 DUP2 PUSH2 0x1104 JUMP JUMPDEST DUP3 MSTORE POP POP JUMP JUMPDEST PUSH1 0x0 PUSH1 0x20 DUP3 ADD SWAP1 POP PUSH2 0x1134 PUSH1 0x0 DUP4 ADD DUP5 PUSH2 0x1110 JUMP JUMPDEST SWAP3 SWAP2 POP POP JUMP JUMPDEST PUSH1 0x0 DUP1 PUSH1 0x40 DUP4 DUP6 SUB SLT ISZERO PUSH2 0x1151 JUMPI PUSH2 0x1150 PUSH2 0xDBC JUMP JUMPDEST JUMPDEST PUSH1 0x0 PUSH2 0x115F DUP6 DUP3 DUP7 ADD PUSH2 0xEAC JUMP JUMPDEST SWAP3 POP POP PUSH1 0x20 PUSH2 0x1170 DUP6 DUP3 DUP7 ADD PUSH2 0xE80 JUMP JUMPDEST SWAP2 POP POP SWAP3 POP SWAP3 SWAP1 POP JUMP JUMPDEST PUSH1 0x0 DUP1 PUSH1 0x40 DUP4 DUP6 SUB SLT ISZERO PUSH2 0x1191 JUMPI PUSH2 0x1190 PUSH2 0xDBC JUMP JUMPDEST JUMPDEST PUSH1 0x0 PUSH2 0x119F DUP6 DUP3 DUP7 ADD PUSH2 0xDE2 JUMP JUMPDEST SWAP3 POP POP PUSH1 0x20 PUSH2 0x11B0 DUP6 DUP3 DUP7 ADD PUSH2 0xDE2 JUMP JUMPDEST SWAP2 POP POP SWAP3 POP SWAP3 SWAP1 POP JUMP JUMPDEST PUSH32 0x4E487B7100000000000000000000000000000000000000000000000000000000 PUSH1 0x0 MSTORE PUSH1 0x12 PUSH1 0x4 MSTORE PUSH1 0x24 PUSH1 0x0 REVERT JUMPDEST PUSH32 0x4E487B7100000000000000000000000000000000000000000000000000000000 PUSH1 0x0 MSTORE PUSH1 0x11 PUSH1 0x4 MSTORE PUSH1 0x24 PUSH1 0x0 REVERT JUMPDEST PUSH1 0x0 PUSH2 0x1223 DUP3 PUSH2 0xDC1 JUMP JUMPDEST SWAP2 POP PUSH2 0x122E DUP4 PUSH2 0xDC1 JUMP JUMPDEST SWAP3 POP DUP3 PUSH2 0x123E JUMPI PUSH2 0x123D PUSH2 0x11BA JUMP JUMPDEST JUMPDEST DUP3 DUP3 DIV SWAP1 POP SWAP3 SWAP2 POP POP JUMP JUMPDEST PUSH1 0x0 PUSH2 0x1254 DUP3 PUSH2 0xDC1 JUMP JUMPDEST SWAP2 POP PUSH2 0x125F DUP4 PUSH2 0xDC1 JUMP JUMPDEST SWAP3 POP DUP3 PUSH2 0x126F JUMPI PUSH2 0x126E PUSH2 0x11BA JUMP JUMPDEST JUMPDEST DUP3 DUP3 MOD SWAP1 POP SWAP3 SWAP2 POP POP JUMP JUMPDEST PUSH1 0x0 PUSH2 0x1285 DUP3 PUSH2 0xDC1 JUMP JUMPDEST SWAP2 POP PUSH2 0x1290 DUP4 PUSH2 0xDC1 JUMP JUMPDEST SWAP3 POP DUP3 DUP3 ADD SWAP1 POP DUP1 DUP3 GT ISZERO PUSH2 0x12A8 JUMPI PUSH2 0x12A7 PUSH2 0x11E9 JUMP JUMPDEST JUMPDEST SWAP3 SWAP2 POP POP JUMP JUMPDEST PUSH1 0x0 PUSH2 0x12B9 DUP3 PUSH2 0xE5B JUMP JUMPDEST SWAP2 POP PUSH2 0xFFFF DUP3 SUB PUSH2 0x12CD JUMPI PUSH2 0x12CC PUSH2 0x11E9 JUMP JUMPDEST JUMPDEST PUSH1 0x1 DUP3 ADD SWAP1 POP SWAP2 SWAP1 POP JUMP JUMPDEST PUSH32 0x4E487B7100000000000000000000000000000000000000000000000000000000 PUSH1 0x0 MSTORE PUSH1 0x32 PUSH1 0x4 MSTORE PUSH1 0x24 PUSH1 0x0 REVERT JUMPDEST PUSH1 0x0 PUSH2 0x1312 DUP3 PUSH2 0xE5B JUMP JUMPDEST SWAP2 POP PUSH2 0x131D DUP4 PUSH2 0xE5B JUMP JUMPDEST SWAP3 POP DUP3 DUP3 SUB SWAP1 POP PUSH2 0xFFFF DUP2 GT ISZERO PUSH2 0x1337 JUMPI PUSH2 0x1336 PUSH2 0x11E9 JUMP JUMPDEST JUMPDEST SWAP3 SWAP2 POP POP JUMP JUMPDEST PUSH1 0x0 PUSH2 0x1348 DUP3 PUSH2 0xDC1 JUMP JUMPDEST SWAP2 POP PUSH2 0x1353 DUP4 PUSH2 0xDC1 JUMP JUMPDEST SWAP3 POP DUP3 DUP3 MUL PUSH2 0x1361 DUP2 PUSH2 0xDC1 JUMP JUMPDEST SWAP2 POP DUP3 DUP3 DIV DUP5 EQ DUP4 ISZERO OR PUSH2 0x1378 JUMPI PUSH2 0x1377 PUSH2 0x11E9 JUMP JUMPDEST JUMPDEST POP SWAP3 SWAP2 POP POP JUMP JUMPDEST PUSH1 0x0 PUSH2 0x138A DUP3 PUSH2 0xE24 JUMP JUMPDEST SWAP2 POP PUSH2 0x1395 DUP4 PUSH2 0xE24 JUMP JUMPDEST SWAP3 POP DUP3 DUP3 SUB SWAP1 POP PUSH1 0xFF DUP2 GT ISZERO PUSH2 0x13AE JUMPI PUSH2 0x13AD PUSH2 0x11E9 JUMP JUMPDEST JUMPDEST SWAP3 SWAP2 POP POP JUMP JUMPDEST PUSH1 0x0 PUSH2 0x13BF DUP3 PUSH2 0xDC1 JUMP JUMPDEST SWAP2 POP PUSH2 0x13CA DUP4 PUSH2 0xDC1 JUMP JUMPDEST SWAP3 POP DUP3 DUP3 SUB SWAP1 POP DUP2 DUP2 GT ISZERO PUSH2 0x13E2 JUMPI PUSH2 0x13E1 PUSH2 0x11E9 JUMP JUMPDEST JUMPDEST SWAP3 SWAP2 POP POP JUMP JUMPDEST PUSH1 0x0 PUSH2 0x13F3 DUP3 PUSH2 0xE5B JUMP JUMPDEST SWAP2 POP PUSH2 0x13FE DUP4 PUSH2 0xE5B JUMP JUMPDEST SWAP3 POP DUP3 PUSH2 0x140E JUMPI PUSH2 0x140D PUSH2 0x11BA JUMP JUMPDEST JUMPDEST DUP3 DUP3 MOD SWAP1 POP SWAP3 SWAP2 POP POP JUMP JUMPDEST PUSH1 0x0 PUSH2 0x1424 DUP3 PUSH2 0xE24 JUMP JUMPDEST SWAP2 POP PUSH1 0xFF DUP3 SUB PUSH2 0x1437 JUMPI PUSH2 0x1436 PUSH2 0x11E9 JUMP JUMPDEST JUMPDEST PUSH1 0x1 DUP3 ADD SWAP1 POP SWAP2 SWAP1 POP JUMP INVALID LOG2 PUSH5 0x6970667358 0x22 SLT KECCAK256 NOT EXP PUSH14 0xBF0E94790DC982CE252ACC624320 BLOCKHASH 0xD2 SWAP1 REVERT PUSH16 0x6C2F170393F1AEE58A0064736F6C6343 STOP ADDMOD SLT STOP CALLER "
				},
				"gasEstimates": {
					"creation": {
						"codeDepositCost": "1048000",
						"executionCost": "1116",
						"totalCost": "1049116"
					},
					"external": {
						"getDay(uint256)": "infinite",
						"getDaysInMonth(uint8,uint16)": "infinite",
						"getDiff(uint256,uint256)": "infinite",
						"getHour(uint256)": "infinite",
						"getMinute(uint256)": "infinite",
						"getMonth(uint256)": "infinite",
						"getSecond(uint256)": "infinite",
						"getWeekday(uint256)": "infinite",
						"getYear(uint256)": "infinite",
						"isLeapYear(uint16)": "infinite",
						"leapYearsBefore(uint256)": "infinite",
						"toTimestamp(uint16,uint8,uint8)": "infinite",
						"toTimestamp(uint16,uint8,uint8,uint8)": "infinite",
						"toTimestamp(uint16,uint8,uint8,uint8,uint8)": "infinite",
						"toTimestamp(uint16,uint8,uint8,uint8,uint8,uint8)": "infinite"
					},
					"internal": {
						"parseTimestamp(uint256)": "infinite"
					}
				},
				"methodIdentifiers": {
					"getDay(uint256)": "65c72840",
					"getDaysInMonth(uint8,uint16)": "b238ad0e",
					"getDiff(uint256,uint256)": "d7734855",
					"getHour(uint256)": "3e239e1a",
					"getMinute(uint256)": "fa93f883",
					"getMonth(uint256)": "a324ad24",
					"getSecond(uint256)": "8aa001fc",
					"getWeekday(uint256)": "4ac1ad78",
					"getYear(uint256)": "92d66313",
					"isLeapYear(uint16)": "a6f0e577",
					"leapYearsBefore(uint256)": "b1999937",
					"toTimestamp(uint16,uint8,uint8)": "8c8d98a0",
					"toTimestamp(uint16,uint8,uint8,uint8)": "7f791833",
					"toTimestamp(uint16,uint8,uint8,uint8,uint8)": "62ba9687",
					"toTimestamp(uint16,uint8,uint8,uint8,uint8,uint8)": "9054bdec"
				}
			},
			"storageLayout": {
				"storage": [],
				"types": null
			},
			"userdoc": {
				"kind": "user",
				"methods": {},
				"version": 1
			}
		}
	}
}