{
	"data": {
		"bytecode": {
			"linkReferences": {},
			"object": "608060405234801561001057600080fd5b506127d9806100206000396000f3fe608060405234801561001057600080fd5b50600436106100935760003560e01c806389499f8d1161006657806389499f8d1461010e578063901afb301461012a578063a61d62571461015a578063ad83044314610176578063f9f113911461019557610093565b80631355a30614610098578063235eb9f5146100b6578063468c25a8146100c05780636b667b9b146100f2575b600080fd5b6100a06101b1565b6040516100ad9190611c07565b60405180910390f35b6100be6103a9565b005b6100da60048036038101906100d59190611c53565b610546565b6040516100e993929190611c99565b60405180910390f35b61010c60048036038101906101079190611cfc565b61061d565b005b61012860048036038101906101239190611c53565b610a46565b005b610144600480360381019061013f9190611c53565b610d2e565b6040516101519190611d3c565b60405180910390f35b610174600480360381019061016f9190611d57565b610e7b565b005b61017e611056565b60405161018c929190611dd2565b60405180910390f35b6101af60048036038101906101aa9190611dfb565b61106a565b005b6000806040805490501115610350576101d66001603f5461149590919063ffffffff16565b6040805490500361027b5760006040603f54815481106101f9576101f8611e4e565b5b906000526020600020016040518060200160405290816000820160009054906101000a900473ffffffffffffffffffffffffffffffffffffffff1673ffffffffffffffffffffffffffffffffffffffff1673ffffffffffffffffffffffffffffffffffffffff168152505090506000603f8190555080600001519150506103a6565b6102916001603f5461149590919063ffffffff16565b604080549050111561034b5760006040603f54815481106102b5576102b4611e4e565b5b906000526020600020016040518060200160405290816000820160009054906101000a900473ffffffffffffffffffffffffffffffffffffffff1673ffffffffffffffffffffffffffffffffffffffff1673ffffffffffffffffffffffffffffffffffffffff168152505090506103386001603f5461149590919063ffffffff16565b603f8190555080600001519150506103a6565b61037d565b600060380160009054906101000a900473ffffffffffffffffffffffffffffffffffffffff1690506103a6565b600060380160009054906101000a900473ffffffffffffffffffffffffffffffffffffffff1690505b90565b600080603a01549050600080603a018190555060008060340160009054906101000a900473ffffffffffffffffffffffffffffffffffffffff1690508073ffffffffffffffffffffffffffffffffffffffff1663a9059cbb600060380160009054906101000a900473ffffffffffffffffffffffffffffffffffffffff16846040518363ffffffff1660e01b8152600401610445929190611e7d565b6020604051808303816000875af1158015610464573d6000803e3d6000fd5b505050506040513d601f19601f820116820180604052508101906104889190611ede565b6104c7576040517f08c379a00000000000000000000000000000000000000000000000000000000081526004016104be90611f68565b60405180910390fd5b6104dc8260425461149590919063ffffffff16565b6042819055507fc7b074008d0eb21fa6ba78babb2da91414daf366ac56cdc4328e4e34b5c2e738600060380160009054906101000a900473ffffffffffffffffffffffffffffffffffffffff16834260405161053a93929190611f88565b60405180910390a15050565b60008060008060390160008573ffffffffffffffffffffffffffffffffffffffff1673ffffffffffffffffffffffffffffffffffffffff168152602001908152602001600020546000603c0160008673ffffffffffffffffffffffffffffffffffffffff1673ffffffffffffffffffffffffffffffffffffffff16815260200190815260200160002054604360008773ffffffffffffffffffffffffffffffffffffffff1673ffffffffffffffffffffffffffffffffffffffff168152602001908152602001600020549250925092509193909250565b600060350160008373ffffffffffffffffffffffffffffffffffffffff1673ffffffffffffffffffffffffffffffffffffffff168152602001908152602001600020544210156106a2576040517f08c379a000000000000000000000000000000000000000000000000000000000815260040161069990612031565b60405180910390fd5b600080603301600083815260200190815260200160002054905081600060370160008573ffffffffffffffffffffffffffffffffffffffff1673ffffffffffffffffffffffffffffffffffffffff1681526020019081526020016000208190555060008111610746576040517f08c379a000000000000000000000000000000000000000000000000000000000815260040161073d9061209d565b60405180910390fd5b600061075f6301e133804261149590919063ffffffff16565b905080600060350160008673ffffffffffffffffffffffffffffffffffffffff1673ffffffffffffffffffffffffffffffffffffffff168152602001908152602001600020819055506001600060360160008673ffffffffffffffffffffffffffffffffffffffff1673ffffffffffffffffffffffffffffffffffffffff16815260200190815260200160002060006101000a81548160ff02191690831515021790555060008060340160009054906101000a900473ffffffffffffffffffffffffffffffffffffffff169050828173ffffffffffffffffffffffffffffffffffffffff1663dd62ed3e6108516114ab565b306040518363ffffffff1660e01b815260040161086f9291906120bd565b602060405180830381865afa15801561088c573d6000803e3d6000fd5b505050506040513d601f19601f820116820180604052508101906108b091906120fb565b10156108f1576040517f08c379a00000000000000000000000000000000000000000000000000000000081526004016108e89061219a565b60405180910390fd5b6108fb85846114b3565b61093a576040517f08c379a000000000000000000000000000000000000000000000000000000000815260040161093190612206565b60405180910390fd5b8073ffffffffffffffffffffffffffffffffffffffff166323b872dd61095e6114ab565b30866040518463ffffffff1660e01b815260040161097e93929190612226565b6020604051808303816000875af115801561099d573d6000803e3d6000fd5b505050506040513d601f19601f820116820180604052508101906109c19190611ede565b610a00576040517f08c379a00000000000000000000000000000000000000000000000000000000081526004016109f790611f68565b60405180910390fd5b7fcb780c1b203d42c77c54c594aaa57f696b57039cf9eefce5266255e154ea1e0b8584848742604051610a3795949392919061225d565b60405180910390a15050505050565b42600060350160008373ffffffffffffffffffffffffffffffffffffffff1673ffffffffffffffffffffffffffffffffffffffff168152602001908152602001600020541015610acb576040517f08c379a0000000000000000000000000000000000000000000000000000000008152600401610ac2906122fc565b60405180910390fd5b60008060390160008373ffffffffffffffffffffffffffffffffffffffff1673ffffffffffffffffffffffffffffffffffffffff16815260200190815260200160002054905060008060390160008473ffffffffffffffffffffffffffffffffffffffff1673ffffffffffffffffffffffffffffffffffffffff1681526020019081526020016000208190555060008060340160009054906101000a900473ffffffffffffffffffffffffffffffffffffffff1690508073ffffffffffffffffffffffffffffffffffffffff1663a9059cbb84846040518363ffffffff1660e01b8152600401610bbc929190611e7d565b6020604051808303816000875af1158015610bdb573d6000803e3d6000fd5b505050506040513d601f19601f82011682018060405250810190610bff9190611ede565b610c3e576040517f08c379a0000000000000000000000000000000000000000000000000000000008152600401610c3590611f68565b60405180910390fd5b610c9082604360008673ffffffffffffffffffffffffffffffffffffffff1673ffffffffffffffffffffffffffffffffffffffff1681526020019081526020016000205461149590919063ffffffff16565b604360008573ffffffffffffffffffffffffffffffffffffffff1673ffffffffffffffffffffffffffffffffffffffff16815260200190815260200160002081905550610ce88260415461149590919063ffffffff16565b6041819055507f4a76c364c7e53db1950771cab0e222edb75373273376b0165f03fe30ae8c2ec4838342604051610d2193929190611f88565b60405180910390a1505050565b6000806002811115610d4357610d4261231c565b5b600060370160008473ffffffffffffffffffffffffffffffffffffffff1673ffffffffffffffffffffffffffffffffffffffff1681526020019081526020016000205403610d9b5767030d98d59a9600009050610e76565b60016002811115610daf57610dae61231c565b5b600060370160008473ffffffffffffffffffffffffffffffffffffffff1673ffffffffffffffffffffffffffffffffffffffff1681526020019081526020016000205403610e07576701aa535d3d0c00009050610e76565b600280811115610e1a57610e1961231c565b5b600060370160008473ffffffffffffffffffffffffffffffffffffffff1673ffffffffffffffffffffffffffffffffffffffff1681526020019081526020016000205403610e715766b1a2bc2ec500009050610e76565b600090505b919050565b610e83611815565b73ffffffffffffffffffffffffffffffffffffffff16610ea16114ab565b73ffffffffffffffffffffffffffffffffffffffff1614610ef7576040517f08c379a0000000000000000000000000000000000000000000000000000000008152600401610eee906123bd565b60405180910390fd5b8460006033016000806002811115610f1257610f1161231c565b5b815260200190815260200160002081905550836000603301600060016002811115610f4057610f3f61231c565b5b8152602001908152602001600020819055508260006033016000600280811115610f6d57610f6c61231c565b5b81526020019081526020016000208190555081600060340160006101000a81548173ffffffffffffffffffffffffffffffffffffffff021916908373ffffffffffffffffffffffffffffffffffffffff16021790555080600060380160006101000a81548173ffffffffffffffffffffffffffffffffffffffff021916908373ffffffffffffffffffffffffffffffffffffffff1602179055507f74ef99e9f61d2fb45df1c75adff49a40d916acf825590dcec368ed4a012ddd8985858584426110356114ab565b604051611047969594939291906123dd565b60405180910390a15050505050565b6000806000603a0154604254915091509091565b600060350160008473ffffffffffffffffffffffffffffffffffffffff1673ffffffffffffffffffffffffffffffffffffffff168152602001908152602001600020544210156110ef576040517f08c379a00000000000000000000000000000000000000000000000000000000081526004016110e690612031565b60405180910390fd5b600080603301600084815260200190815260200160002054905082600060370160008673ffffffffffffffffffffffffffffffffffffffff1673ffffffffffffffffffffffffffffffffffffffff1681526020019081526020016000208190555060008111611193576040517f08c379a000000000000000000000000000000000000000000000000000000000815260040161118a9061209d565b60405180910390fd5b60006111ac6301e133804261149590919063ffffffff16565b905080600060350160008773ffffffffffffffffffffffffffffffffffffffff1673ffffffffffffffffffffffffffffffffffffffff168152602001908152602001600020819055506001600060360160008773ffffffffffffffffffffffffffffffffffffffff1673ffffffffffffffffffffffffffffffffffffffff16815260200190815260200160002060006101000a81548160ff02191690831515021790555060008060340160009054906101000a900473ffffffffffffffffffffffffffffffffffffffff169050828173ffffffffffffffffffffffffffffffffffffffff1663dd62ed3e61129e6114ab565b306040518363ffffffff1660e01b81526004016112bc9291906120bd565b602060405180830381865afa1580156112d9573d6000803e3d6000fd5b505050506040513d601f19601f820116820180604052508101906112fd91906120fb565b101561133e576040517f08c379a00000000000000000000000000000000000000000000000000000000081526004016113359061219a565b60405180910390fd5b611349868585611848565b611388576040517f08c379a000000000000000000000000000000000000000000000000000000000815260040161137f9061248a565b60405180910390fd5b8073ffffffffffffffffffffffffffffffffffffffff166323b872dd6113ac6114ab565b30866040518463ffffffff1660e01b81526004016113cc93929190612226565b6020604051808303816000875af11580156113eb573d6000803e3d6000fd5b505050506040513d601f19601f8201168201806040525081019061140f9190611ede565b61144e576040517f08c379a000000000000000000000000000000000000000000000000000000000815260040161144590611f68565b60405180910390fd5b7fcb780c1b203d42c77c54c594aaa57f696b57039cf9eefce5266255e154ea1e0b868484884260405161148595949392919061225d565b60405180910390a1505050505050565b600081836114a391906124d9565b905092915050565b600033905090565b6000803073ffffffffffffffffffffffffffffffffffffffff16631355a3066040518163ffffffff1660e01b81526004016020604051808303816000875af1158015611503573d6000803e3d6000fd5b505050506040513d601f19601f820116820180604052508101906115279190612522565b905060006115466702c68af0bb14000085611b3590919063ffffffff16565b9050816000603b0160008773ffffffffffffffffffffffffffffffffffffffff1673ffffffffffffffffffffffffffffffffffffffff16815260200190815260200160002060006101000a81548173ffffffffffffffffffffffffffffffffffffffff021916908373ffffffffffffffffffffffffffffffffffffffff16021790555061161f60016000603c0160008573ffffffffffffffffffffffffffffffffffffffff1673ffffffffffffffffffffffffffffffffffffffff1681526020019081526020016000205461149590919063ffffffff16565b6000603c0160008473ffffffffffffffffffffffffffffffffffffffff1673ffffffffffffffffffffffffffffffffffffffff168152602001908152602001600020819055506116ba81600060390160008573ffffffffffffffffffffffffffffffffffffffff1673ffffffffffffffffffffffffffffffffffffffff1681526020019081526020016000205461149590919063ffffffff16565b600060390160008473ffffffffffffffffffffffffffffffffffffffff1673ffffffffffffffffffffffffffffffffffffffff1681526020019081526020016000208190555061172a6117168286611b6d90919063ffffffff16565b6000603a015461149590919063ffffffff16565b6000603a0181905550600060405180602001604052808773ffffffffffffffffffffffffffffffffffffffff1681525090506040819080600181540180825580915050600190039060005260206000200160009091909190915060008201518160000160006101000a81548173ffffffffffffffffffffffffffffffffffffffff021916908373ffffffffffffffffffffffffffffffffffffffff16021790555050507f8b6d6a18f019af6e4d9a15cd5af8c9d590e5ce49183de541941fdf6e6d407a5f86844260405161180093929190612226565b60405180910390a16001935050505092915050565b600061181f611b83565b60030160009054906101000a900473ffffffffffffffffffffffffffffffffffffffff16905090565b60008061186667058d15e17628000084611b3590919063ffffffff16565b9050836000603b0160008773ffffffffffffffffffffffffffffffffffffffff1673ffffffffffffffffffffffffffffffffffffffff16815260200190815260200160002060006101000a81548173ffffffffffffffffffffffffffffffffffffffff021916908373ffffffffffffffffffffffffffffffffffffffff16021790555061193f60016000603c0160008773ffffffffffffffffffffffffffffffffffffffff1673ffffffffffffffffffffffffffffffffffffffff1681526020019081526020016000205461149590919063ffffffff16565b6000603c0160008673ffffffffffffffffffffffffffffffffffffffff1673ffffffffffffffffffffffffffffffffffffffff168152602001908152602001600020819055506119da81600060390160008773ffffffffffffffffffffffffffffffffffffffff1673ffffffffffffffffffffffffffffffffffffffff1681526020019081526020016000205461149590919063ffffffff16565b600060390160008673ffffffffffffffffffffffffffffffffffffffff1673ffffffffffffffffffffffffffffffffffffffff16815260200190815260200160002081905550611a4a611a368285611b6d90919063ffffffff16565b6000603a015461149590919063ffffffff16565b6000603a0181905550600060405180602001604052808773ffffffffffffffffffffffffffffffffffffffff1681525090506040819080600181540180825580915050600190039060005260206000200160009091909190915060008201518160000160006101000a81548173ffffffffffffffffffffffffffffffffffffffff021916908373ffffffffffffffffffffffffffffffffffffffff16021790555050507f8b6d6a18f019af6e4d9a15cd5af8c9d590e5ce49183de541941fdf6e6d407a5f868642604051611b2093929190612226565b60405180910390a16001925050509392505050565b6000601260ff16600a611b489190612682565b611b5b8385611bb090919063ffffffff16565b611b6591906126fc565b905092915050565b60008183611b7b919061272d565b905092915050565b6000807fc8fcad8db84d3cc18b4c41d551ea0ee66dd599cde068d998e57d5e09332c131c90508091505090565b60008183611bbe9190612761565b905092915050565b600073ffffffffffffffffffffffffffffffffffffffff82169050919050565b6000611bf182611bc6565b9050919050565b611c0181611be6565b82525050565b6000602082019050611c1c6000830184611bf8565b92915050565b600080fd5b611c3081611be6565b8114611c3b57600080fd5b50565b600081359050611c4d81611c27565b92915050565b600060208284031215611c6957611c68611c22565b5b6000611c7784828501611c3e565b91505092915050565b6000819050919050565b611c9381611c80565b82525050565b6000606082019050611cae6000830186611c8a565b611cbb6020830185611c8a565b611cc86040830184611c8a565b949350505050565b611cd981611c80565b8114611ce457600080fd5b50565b600081359050611cf681611cd0565b92915050565b60008060408385031215611d1357611d12611c22565b5b6000611d2185828601611c3e565b9250506020611d3285828601611ce7565b9150509250929050565b6000602082019050611d516000830184611c8a565b92915050565b600080600080600060a08688031215611d7357611d72611c22565b5b6000611d8188828901611ce7565b9550506020611d9288828901611ce7565b9450506040611da388828901611ce7565b9350506060611db488828901611c3e565b9250506080611dc588828901611c3e565b9150509295509295909350565b6000604082019050611de76000830185611c8a565b611df46020830184611c8a565b9392505050565b600080600060608486031215611e1457611e13611c22565b5b6000611e2286828701611c3e565b9350506020611e3386828701611ce7565b9250506040611e4486828701611c3e565b9150509250925092565b7f4e487b7100000000000000000000000000000000000000000000000000000000600052603260045260246000fd5b6000604082019050611e926000830185611bf8565b611e9f6020830184611c8a565b9392505050565b60008115159050919050565b611ebb81611ea6565b8114611ec657600080fd5b50565b600081519050611ed881611eb2565b92915050565b600060208284031215611ef457611ef3611c22565b5b6000611f0284828501611ec9565b91505092915050565b600082825260208201905092915050565b7f4661696c20746f207472616e7366657200000000000000000000000000000000600082015250565b6000611f52601083611f0b565b9150611f5d82611f1c565b602082019050919050565b60006020820190508181036000830152611f8181611f45565b9050919050565b6000606082019050611f9d6000830186611bf8565b611faa6020830185611c8a565b611fb76040830184611c8a565b949350505050565b7f5761697420756e74696c20796f75722063757272656e7420706c616e20656c6160008201527f707365732e000000000000000000000000000000000000000000000000000000602082015250565b600061201b602583611f0b565b915061202682611fbf565b604082019050919050565b6000602082019050818103600083015261204a8161200e565b9050919050565b7f496e76616c696420706c616e0000000000000000000000000000000000000000600082015250565b6000612087600c83611f0b565b915061209282612051565b602082019050919050565b600060208201905081810360008301526120b68161207a565b9050919050565b60006040820190506120d26000830185611bf8565b6120df6020830184611bf8565b9392505050565b6000815190506120f581611cd0565b92915050565b60006020828403121561211157612110611c22565b5b600061211f848285016120e6565b91505092915050565b7f496e73756666696369656e7420746f6b656e20616c6c6f77616e636520666f7260008201527f20737562736372697074696f6e21000000000000000000000000000000000000602082015250565b6000612184602e83611f0b565b915061218f82612128565b604082019050919050565b600060208201905081810360008301526121b381612177565b9050919050565b7f526566657272616c206572726f72000000000000000000000000000000000000600082015250565b60006121f0600e83611f0b565b91506121fb826121ba565b602082019050919050565b6000602082019050818103600083015261221f816121e3565b9050919050565b600060608201905061223b6000830186611bf8565b6122486020830185611bf8565b6122556040830184611c8a565b949350505050565b600060a0820190506122726000830188611bf8565b61227f6020830187611c8a565b61228c6040830186611c8a565b6122996060830185611c8a565b6122a66080830184611c8a565b9695505050505050565b7f52656e657720796f7572206465616c657220706c616e00000000000000000000600082015250565b60006122e6601683611f0b565b91506122f1826122b0565b602082019050919050565b60006020820190508181036000830152612315816122d9565b9050919050565b7f4e487b7100000000000000000000000000000000000000000000000000000000600052602160045260246000fd5b7f4163636573732064656e6965642c204f6e6c79206f776e657220697320616c6c60008201527f6f77656421000000000000000000000000000000000000000000000000000000602082015250565b60006123a7602583611f0b565b91506123b28261234b565b604082019050919050565b600060208201905081810360008301526123d68161239a565b9050919050565b600060c0820190506123f26000830189611c8a565b6123ff6020830188611c8a565b61240c6040830187611c8a565b6124196060830186611bf8565b6124266080830185611c8a565b61243360a0830184611bf8565b979650505050505050565b7f526566657272616c206572726f722e0000000000000000000000000000000000600082015250565b6000612474600f83611f0b565b915061247f8261243e565b602082019050919050565b600060208201905081810360008301526124a381612467565b9050919050565b7f4e487b7100000000000000000000000000000000000000000000000000000000600052601160045260246000fd5b60006124e482611c80565b91506124ef83611c80565b9250828201905080821115612507576125066124aa565b5b92915050565b60008151905061251c81611c27565b92915050565b60006020828403121561253857612537611c22565b5b60006125468482850161250d565b91505092915050565b60008160011c9050919050565b6000808291508390505b60018511156125a657808604811115612582576125816124aa565b5b60018516156125915780820291505b808102905061259f8561254f565b9450612566565b94509492505050565b6000826125bf576001905061267b565b816125cd576000905061267b565b81600181146125e357600281146125ed5761261c565b600191505061267b565b60ff8411156125ff576125fe6124aa565b5b8360020a915084821115612616576126156124aa565b5b5061267b565b5060208310610133831016604e8410600b84101617156126515782820a90508381111561264c5761264b6124aa565b5b61267b565b61265e848484600161255c565b92509050818404811115612675576126746124aa565b5b81810290505b9392505050565b600061268d82611c80565b915061269883611c80565b92506126c57fffffffffffffffffffffffffffffffffffffffffffffffffffffffffffffffff84846125af565b905092915050565b7f4e487b7100000000000000000000000000000000000000000000000000000000600052601260045260246000fd5b600061270782611c80565b915061271283611c80565b925082612722576127216126cd565b5b828204905092915050565b600061273882611c80565b915061274383611c80565b925082820390508181111561275b5761275a6124aa565b5b92915050565b600061276c82611c80565b915061277783611c80565b925082820261278581611c80565b9150828204841483151761279c5761279b6124aa565b5b509291505056fea2646970667358221220077bdf1d8dfdd7960536edad938d4468ee5ddb356162485cfd497a9c0ca4444f64736f6c63430008120033",
			"opcodes": "PUSH1 0x80 PUSH1 0x40 MSTORE CALLVALUE DUP1 ISZERO PUSH2 0x10 JUMPI PUSH1 0x0 DUP1 REVERT JUMPDEST POP PUSH2 0x27D9 DUP1 PUSH2 0x20 PUSH1 0x0 CODECOPY PUSH1 0x0 RETURN INVALID PUSH1 0x80 PUSH1 0x40 MSTORE CALLVALUE DUP1 ISZERO PUSH2 0x10 JUMPI PUSH1 0x0 DUP1 REVERT JUMPDEST POP PUSH1 0x4 CALLDATASIZE LT PUSH2 0x93 JUMPI PUSH1 0x0 CALLDATALOAD PUSH1 0xE0 SHR DUP1 PUSH4 0x89499F8D GT PUSH2 0x66 JUMPI DUP1 PUSH4 0x89499F8D EQ PUSH2 0x10E JUMPI DUP1 PUSH4 0x901AFB30 EQ PUSH2 0x12A JUMPI DUP1 PUSH4 0xA61D6257 EQ PUSH2 0x15A JUMPI DUP1 PUSH4 0xAD830443 EQ PUSH2 0x176 JUMPI DUP1 PUSH4 0xF9F11391 EQ PUSH2 0x195 JUMPI PUSH2 0x93 JUMP JUMPDEST DUP1 PUSH4 0x1355A306 EQ PUSH2 0x98 JUMPI DUP1 PUSH4 0x235EB9F5 EQ PUSH2 0xB6 JUMPI DUP1 PUSH4 0x468C25A8 EQ PUSH2 0xC0 JUMPI DUP1 PUSH4 0x6B667B9B EQ PUSH2 0xF2 JUMPI JUMPDEST PUSH1 0x0 DUP1 REVERT JUMPDEST PUSH2 0xA0 PUSH2 0x1B1 JUMP JUMPDEST PUSH1 0x40 MLOAD PUSH2 0xAD SWAP2 SWAP1 PUSH2 0x1C07 JUMP JUMPDEST PUSH1 0x40 MLOAD DUP1 SWAP2 SUB SWAP1 RETURN JUMPDEST PUSH2 0xBE PUSH2 0x3A9 JUMP JUMPDEST STOP JUMPDEST PUSH2 0xDA PUSH1 0x4 DUP1 CALLDATASIZE SUB DUP2 ADD SWAP1 PUSH2 0xD5 SWAP2 SWAP1 PUSH2 0x1C53 JUMP JUMPDEST PUSH2 0x546 JUMP JUMPDEST PUSH1 0x40 MLOAD PUSH2 0xE9 SWAP4 SWAP3 SWAP2 SWAP1 PUSH2 0x1C99 JUMP JUMPDEST PUSH1 0x40 MLOAD DUP1 SWAP2 SUB SWAP1 RETURN JUMPDEST PUSH2 0x10C PUSH1 0x4 DUP1 CALLDATASIZE SUB DUP2 ADD SWAP1 PUSH2 0x107 SWAP2 SWAP1 PUSH2 0x1CFC JUMP JUMPDEST PUSH2 0x61D JUMP JUMPDEST STOP JUMPDEST PUSH2 0x128 PUSH1 0x4 DUP1 CALLDATASIZE SUB DUP2 ADD SWAP1 PUSH2 0x123 SWAP2 SWAP1 PUSH2 0x1C53 JUMP JUMPDEST PUSH2 0xA46 JUMP JUMPDEST STOP JUMPDEST PUSH2 0x144 PUSH1 0x4 DUP1 CALLDATASIZE SUB DUP2 ADD SWAP1 PUSH2 0x13F SWAP2 SWAP1 PUSH2 0x1C53 JUMP JUMPDEST PUSH2 0xD2E JUMP JUMPDEST PUSH1 0x40 MLOAD PUSH2 0x151 SWAP2 SWAP1 PUSH2 0x1D3C JUMP JUMPDEST PUSH1 0x40 MLOAD DUP1 SWAP2 SUB SWAP1 RETURN JUMPDEST PUSH2 0x174 PUSH1 0x4 DUP1 CALLDATASIZE SUB DUP2 ADD SWAP1 PUSH2 0x16F SWAP2 SWAP1 PUSH2 0x1D57 JUMP JUMPDEST PUSH2 0xE7B JUMP JUMPDEST STOP JUMPDEST PUSH2 0x17E PUSH2 0x1056 JUMP JUMPDEST PUSH1 0x40 MLOAD PUSH2 0x18C SWAP3 SWAP2 SWAP1 PUSH2 0x1DD2 JUMP JUMPDEST PUSH1 0x40 MLOAD DUP1 SWAP2 SUB SWAP1 RETURN JUMPDEST PUSH2 0x1AF PUSH1 0x4 DUP1 CALLDATASIZE SUB DUP2 ADD SWAP1 PUSH2 0x1AA SWAP2 SWAP1 PUSH2 0x1DFB JUMP JUMPDEST PUSH2 0x106A JUMP JUMPDEST STOP JUMPDEST PUSH1 0x0 DUP1 PUSH1 0x40 DUP1 SLOAD SWAP1 POP GT ISZERO PUSH2 0x350 JUMPI PUSH2 0x1D6 PUSH1 0x1 PUSH1 0x3F SLOAD PUSH2 0x1495 SWAP1 SWAP2 SWAP1 PUSH4 0xFFFFFFFF AND JUMP JUMPDEST PUSH1 0x40 DUP1 SLOAD SWAP1 POP SUB PUSH2 0x27B JUMPI PUSH1 0x0 PUSH1 0x40 PUSH1 0x3F SLOAD DUP2 SLOAD DUP2 LT PUSH2 0x1F9 JUMPI PUSH2 0x1F8 PUSH2 0x1E4E JUMP JUMPDEST JUMPDEST SWAP1 PUSH1 0x0 MSTORE PUSH1 0x20 PUSH1 0x0 KECCAK256 ADD PUSH1 0x40 MLOAD DUP1 PUSH1 0x20 ADD PUSH1 0x40 MSTORE SWAP1 DUP2 PUSH1 0x0 DUP3 ADD PUSH1 0x0 SWAP1 SLOAD SWAP1 PUSH2 0x100 EXP SWAP1 DIV PUSH20 0xFFFFFFFFFFFFFFFFFFFFFFFFFFFFFFFFFFFFFFFF AND PUSH20 0xFFFFFFFFFFFFFFFFFFFFFFFFFFFFFFFFFFFFFFFF AND PUSH20 0xFFFFFFFFFFFFFFFFFFFFFFFFFFFFFFFFFFFFFFFF AND DUP2 MSTORE POP POP SWAP1 POP PUSH1 0x0 PUSH1 0x3F DUP2 SWAP1 SSTORE POP DUP1 PUSH1 0x0 ADD MLOAD SWAP2 POP POP PUSH2 0x3A6 JUMP JUMPDEST PUSH2 0x291 PUSH1 0x1 PUSH1 0x3F SLOAD PUSH2 0x1495 SWAP1 SWAP2 SWAP1 PUSH4 0xFFFFFFFF AND JUMP JUMPDEST PUSH1 0x40 DUP1 SLOAD SWAP1 POP GT ISZERO PUSH2 0x34B JUMPI PUSH1 0x0 PUSH1 0x40 PUSH1 0x3F SLOAD DUP2 SLOAD DUP2 LT PUSH2 0x2B5 JUMPI PUSH2 0x2B4 PUSH2 0x1E4E JUMP JUMPDEST JUMPDEST SWAP1 PUSH1 0x0 MSTORE PUSH1 0x20 PUSH1 0x0 KECCAK256 ADD PUSH1 0x40 MLOAD DUP1 PUSH1 0x20 ADD PUSH1 0x40 MSTORE SWAP1 DUP2 PUSH1 0x0 DUP3 ADD PUSH1 0x0 SWAP1 SLOAD SWAP1 PUSH2 0x100 EXP SWAP1 DIV PUSH20 0xFFFFFFFFFFFFFFFFFFFFFFFFFFFFFFFFFFFFFFFF AND PUSH20 0xFFFFFFFFFFFFFFFFFFFFFFFFFFFFFFFFFFFFFFFF AND PUSH20 0xFFFFFFFFFFFFFFFFFFFFFFFFFFFFFFFFFFFFFFFF AND DUP2 MSTORE POP POP SWAP1 POP PUSH2 0x338 PUSH1 0x1 PUSH1 0x3F SLOAD PUSH2 0x1495 SWAP1 SWAP2 SWAP1 PUSH4 0xFFFFFFFF AND JUMP JUMPDEST PUSH1 0x3F DUP2 SWAP1 SSTORE POP DUP1 PUSH1 0x0 ADD MLOAD SWAP2 POP POP PUSH2 0x3A6 JUMP JUMPDEST PUSH2 0x37D JUMP JUMPDEST PUSH1 0x0 PUSH1 0x38 ADD PUSH1 0x0 SWAP1 SLOAD SWAP1 PUSH2 0x100 EXP SWAP1 DIV PUSH20 0xFFFFFFFFFFFFFFFFFFFFFFFFFFFFFFFFFFFFFFFF AND SWAP1 POP PUSH2 0x3A6 JUMP JUMPDEST PUSH1 0x0 PUSH1 0x38 ADD PUSH1 0x0 SWAP1 SLOAD SWAP1 PUSH2 0x100 EXP SWAP1 DIV PUSH20 0xFFFFFFFFFFFFFFFFFFFFFFFFFFFFFFFFFFFFFFFF AND SWAP1 POP JUMPDEST SWAP1 JUMP JUMPDEST PUSH1 0x0 DUP1 PUSH1 0x3A ADD SLOAD SWAP1 POP PUSH1 0x0 DUP1 PUSH1 0x3A ADD DUP2 SWAP1 SSTORE POP PUSH1 0x0 DUP1 PUSH1 0x34 ADD PUSH1 0x0 SWAP1 SLOAD SWAP1 PUSH2 0x100 EXP SWAP1 DIV PUSH20 0xFFFFFFFFFFFFFFFFFFFFFFFFFFFFFFFFFFFFFFFF AND SWAP1 POP DUP1 PUSH20 0xFFFFFFFFFFFFFFFFFFFFFFFFFFFFFFFFFFFFFFFF AND PUSH4 0xA9059CBB PUSH1 0x0 PUSH1 0x38 ADD PUSH1 0x0 SWAP1 SLOAD SWAP1 PUSH2 0x100 EXP SWAP1 DIV PUSH20 0xFFFFFFFFFFFFFFFFFFFFFFFFFFFFFFFFFFFFFFFF AND DUP5 PUSH1 0x40 MLOAD DUP4 PUSH4 0xFFFFFFFF AND PUSH1 0xE0 SHL DUP2 MSTORE PUSH1 0x4 ADD PUSH2 0x445 SWAP3 SWAP2 SWAP1 PUSH2 0x1E7D JUMP JUMPDEST PUSH1 0x20 PUSH1 0x40 MLOAD DUP1 DUP4 SUB DUP2 PUSH1 0x0 DUP8 GAS CALL ISZERO DUP1 ISZERO PUSH2 0x464 JUMPI RETURNDATASIZE PUSH1 0x0 DUP1 RETURNDATACOPY RETURNDATASIZE PUSH1 0x0 REVERT JUMPDEST POP POP POP POP PUSH1 0x40 MLOAD RETURNDATASIZE PUSH1 0x1F NOT PUSH1 0x1F DUP3 ADD AND DUP3 ADD DUP1 PUSH1 0x40 MSTORE POP DUP2 ADD SWAP1 PUSH2 0x488 SWAP2 SWAP1 PUSH2 0x1EDE JUMP JUMPDEST PUSH2 0x4C7 JUMPI PUSH1 0x40 MLOAD PUSH32 0x8C379A000000000000000000000000000000000000000000000000000000000 DUP2 MSTORE PUSH1 0x4 ADD PUSH2 0x4BE SWAP1 PUSH2 0x1F68 JUMP JUMPDEST PUSH1 0x40 MLOAD DUP1 SWAP2 SUB SWAP1 REVERT JUMPDEST PUSH2 0x4DC DUP3 PUSH1 0x42 SLOAD PUSH2 0x1495 SWAP1 SWAP2 SWAP1 PUSH4 0xFFFFFFFF AND JUMP JUMPDEST PUSH1 0x42 DUP2 SWAP1 SSTORE POP PUSH32 0xC7B074008D0EB21FA6BA78BABB2DA91414DAF366AC56CDC4328E4E34B5C2E738 PUSH1 0x0 PUSH1 0x38 ADD PUSH1 0x0 SWAP1 SLOAD SWAP1 PUSH2 0x100 EXP SWAP1 DIV PUSH20 0xFFFFFFFFFFFFFFFFFFFFFFFFFFFFFFFFFFFFFFFF AND DUP4 TIMESTAMP PUSH1 0x40 MLOAD PUSH2 0x53A SWAP4 SWAP3 SWAP2 SWAP1 PUSH2 0x1F88 JUMP JUMPDEST PUSH1 0x40 MLOAD DUP1 SWAP2 SUB SWAP1 LOG1 POP POP JUMP JUMPDEST PUSH1 0x0 DUP1 PUSH1 0x0 DUP1 PUSH1 0x39 ADD PUSH1 0x0 DUP6 PUSH20 0xFFFFFFFFFFFFFFFFFFFFFFFFFFFFFFFFFFFFFFFF AND PUSH20 0xFFFFFFFFFFFFFFFFFFFFFFFFFFFFFFFFFFFFFFFF AND DUP2 MSTORE PUSH1 0x20 ADD SWAP1 DUP2 MSTORE PUSH1 0x20 ADD PUSH1 0x0 KECCAK256 SLOAD PUSH1 0x0 PUSH1 0x3C ADD PUSH1 0x0 DUP7 PUSH20 0xFFFFFFFFFFFFFFFFFFFFFFFFFFFFFFFFFFFFFFFF AND PUSH20 0xFFFFFFFFFFFFFFFFFFFFFFFFFFFFFFFFFFFFFFFF AND DUP2 MSTORE PUSH1 0x20 ADD SWAP1 DUP2 MSTORE PUSH1 0x20 ADD PUSH1 0x0 KECCAK256 SLOAD PUSH1 0x43 PUSH1 0x0 DUP8 PUSH20 0xFFFFFFFFFFFFFFFFFFFFFFFFFFFFFFFFFFFFFFFF AND PUSH20 0xFFFFFFFFFFFFFFFFFFFFFFFFFFFFFFFFFFFFFFFF AND DUP2 MSTORE PUSH1 0x20 ADD SWAP1 DUP2 MSTORE PUSH1 0x20 ADD PUSH1 0x0 KECCAK256 SLOAD SWAP3 POP SWAP3 POP SWAP3 POP SWAP2 SWAP4 SWAP1 SWAP3 POP JUMP JUMPDEST PUSH1 0x0 PUSH1 0x35 ADD PUSH1 0x0 DUP4 PUSH20 0xFFFFFFFFFFFFFFFFFFFFFFFFFFFFFFFFFFFFFFFF AND PUSH20 0xFFFFFFFFFFFFFFFFFFFFFFFFFFFFFFFFFFFFFFFF AND DUP2 MSTORE PUSH1 0x20 ADD SWAP1 DUP2 MSTORE PUSH1 0x20 ADD PUSH1 0x0 KECCAK256 SLOAD TIMESTAMP LT ISZERO PUSH2 0x6A2 JUMPI PUSH1 0x40 MLOAD PUSH32 0x8C379A000000000000000000000000000000000000000000000000000000000 DUP2 MSTORE PUSH1 0x4 ADD PUSH2 0x699 SWAP1 PUSH2 0x2031 JUMP JUMPDEST PUSH1 0x40 MLOAD DUP1 SWAP2 SUB SWAP1 REVERT JUMPDEST PUSH1 0x0 DUP1 PUSH1 0x33 ADD PUSH1 0x0 DUP4 DUP2 MSTORE PUSH1 0x20 ADD SWAP1 DUP2 MSTORE PUSH1 0x20 ADD PUSH1 0x0 KECCAK256 SLOAD SWAP1 POP DUP2 PUSH1 0x0 PUSH1 0x37 ADD PUSH1 0x0 DUP6 PUSH20 0xFFFFFFFFFFFFFFFFFFFFFFFFFFFFFFFFFFFFFFFF AND PUSH20 0xFFFFFFFFFFFFFFFFFFFFFFFFFFFFFFFFFFFFFFFF AND DUP2 MSTORE PUSH1 0x20 ADD SWAP1 DUP2 MSTORE PUSH1 0x20 ADD PUSH1 0x0 KECCAK256 DUP2 SWAP1 SSTORE POP PUSH1 0x0 DUP2 GT PUSH2 0x746 JUMPI PUSH1 0x40 MLOAD PUSH32 0x8C379A000000000000000000000000000000000000000000000000000000000 DUP2 MSTORE PUSH1 0x4 ADD PUSH2 0x73D SWAP1 PUSH2 0x209D JUMP JUMPDEST PUSH1 0x40 MLOAD DUP1 SWAP2 SUB SWAP1 REVERT JUMPDEST PUSH1 0x0 PUSH2 0x75F PUSH4 0x1E13380 TIMESTAMP PUSH2 0x1495 SWAP1 SWAP2 SWAP1 PUSH4 0xFFFFFFFF AND JUMP JUMPDEST SWAP1 POP DUP1 PUSH1 0x0 PUSH1 0x35 ADD PUSH1 0x0 DUP7 PUSH20 0xFFFFFFFFFFFFFFFFFFFFFFFFFFFFFFFFFFFFFFFF AND PUSH20 0xFFFFFFFFFFFFFFFFFFFFFFFFFFFFFFFFFFFFFFFF AND DUP2 MSTORE PUSH1 0x20 ADD SWAP1 DUP2 MSTORE PUSH1 0x20 ADD PUSH1 0x0 KECCAK256 DUP2 SWAP1 SSTORE POP PUSH1 0x1 PUSH1 0x0 PUSH1 0x36 ADD PUSH1 0x0 DUP7 PUSH20 0xFFFFFFFFFFFFFFFFFFFFFFFFFFFFFFFFFFFFFFFF AND PUSH20 0xFFFFFFFFFFFFFFFFFFFFFFFFFFFFFFFFFFFFFFFF AND DUP2 MSTORE PUSH1 0x20 ADD SWAP1 DUP2 MSTORE PUSH1 0x20 ADD PUSH1 0x0 KECCAK256 PUSH1 0x0 PUSH2 0x100 EXP DUP2 SLOAD DUP2 PUSH1 0xFF MUL NOT AND SWAP1 DUP4 ISZERO ISZERO MUL OR SWAP1 SSTORE POP PUSH1 0x0 DUP1 PUSH1 0x34 ADD PUSH1 0x0 SWAP1 SLOAD SWAP1 PUSH2 0x100 EXP SWAP1 DIV PUSH20 0xFFFFFFFFFFFFFFFFFFFFFFFFFFFFFFFFFFFFFFFF AND SWAP1 POP DUP3 DUP2 PUSH20 0xFFFFFFFFFFFFFFFFFFFFFFFFFFFFFFFFFFFFFFFF AND PUSH4 0xDD62ED3E PUSH2 0x851 PUSH2 0x14AB JUMP JUMPDEST ADDRESS PUSH1 0x40 MLOAD DUP4 PUSH4 0xFFFFFFFF AND PUSH1 0xE0 SHL DUP2 MSTORE PUSH1 0x4 ADD PUSH2 0x86F SWAP3 SWAP2 SWAP1 PUSH2 0x20BD JUMP JUMPDEST PUSH1 0x20 PUSH1 0x40 MLOAD DUP1 DUP4 SUB DUP2 DUP7 GAS STATICCALL ISZERO DUP1 ISZERO PUSH2 0x88C JUMPI RETURNDATASIZE PUSH1 0x0 DUP1 RETURNDATACOPY RETURNDATASIZE PUSH1 0x0 REVERT JUMPDEST POP POP POP POP PUSH1 0x40 MLOAD RETURNDATASIZE PUSH1 0x1F NOT PUSH1 0x1F DUP3 ADD AND DUP3 ADD DUP1 PUSH1 0x40 MSTORE POP DUP2 ADD SWAP1 PUSH2 0x8B0 SWAP2 SWAP1 PUSH2 0x20FB JUMP JUMPDEST LT ISZERO PUSH2 0x8F1 JUMPI PUSH1 0x40 MLOAD PUSH32 0x8C379A000000000000000000000000000000000000000000000000000000000 DUP2 MSTORE PUSH1 0x4 ADD PUSH2 0x8E8 SWAP1 PUSH2 0x219A JUMP JUMPDEST PUSH1 0x40 MLOAD DUP1 SWAP2 SUB SWAP1 REVERT JUMPDEST PUSH2 0x8FB DUP6 DUP5 PUSH2 0x14B3 JUMP JUMPDEST PUSH2 0x93A JUMPI PUSH1 0x40 MLOAD PUSH32 0x8C379A000000000000000000000000000000000000000000000000000000000 DUP2 MSTORE PUSH1 0x4 ADD PUSH2 0x931 SWAP1 PUSH2 0x2206 JUMP JUMPDEST PUSH1 0x40 MLOAD DUP1 SWAP2 SUB SWAP1 REVERT JUMPDEST DUP1 PUSH20 0xFFFFFFFFFFFFFFFFFFFFFFFFFFFFFFFFFFFFFFFF AND PUSH4 0x23B872DD PUSH2 0x95E PUSH2 0x14AB JUMP JUMPDEST ADDRESS DUP7 PUSH1 0x40 MLOAD DUP5 PUSH4 0xFFFFFFFF AND PUSH1 0xE0 SHL DUP2 MSTORE PUSH1 0x4 ADD PUSH2 0x97E SWAP4 SWAP3 SWAP2 SWAP1 PUSH2 0x2226 JUMP JUMPDEST PUSH1 0x20 PUSH1 0x40 MLOAD DUP1 DUP4 SUB DUP2 PUSH1 0x0 DUP8 GAS CALL ISZERO DUP1 ISZERO PUSH2 0x99D JUMPI RETURNDATASIZE PUSH1 0x0 DUP1 RETURNDATACOPY RETURNDATASIZE PUSH1 0x0 REVERT JUMPDEST POP POP POP POP PUSH1 0x40 MLOAD RETURNDATASIZE PUSH1 0x1F NOT PUSH1 0x1F DUP3 ADD AND DUP3 ADD DUP1 PUSH1 0x40 MSTORE POP DUP2 ADD SWAP1 PUSH2 0x9C1 SWAP2 SWAP1 PUSH2 0x1EDE JUMP JUMPDEST PUSH2 0xA00 JUMPI PUSH1 0x40 MLOAD PUSH32 0x8C379A000000000000000000000000000000000000000000000000000000000 DUP2 MSTORE PUSH1 0x4 ADD PUSH2 0x9F7 SWAP1 PUSH2 0x1F68 JUMP JUMPDEST PUSH1 0x40 MLOAD DUP1 SWAP2 SUB SWAP1 REVERT JUMPDEST PUSH32 0xCB780C1B203D42C77C54C594AAA57F696B57039CF9EEFCE5266255E154EA1E0B DUP6 DUP5 DUP5 DUP8 TIMESTAMP PUSH1 0x40 MLOAD PUSH2 0xA37 SWAP6 SWAP5 SWAP4 SWAP3 SWAP2 SWAP1 PUSH2 0x225D JUMP JUMPDEST PUSH1 0x40 MLOAD DUP1 SWAP2 SUB SWAP1 LOG1 POP POP POP POP POP JUMP JUMPDEST TIMESTAMP PUSH1 0x0 PUSH1 0x35 ADD PUSH1 0x0 DUP4 PUSH20 0xFFFFFFFFFFFFFFFFFFFFFFFFFFFFFFFFFFFFFFFF AND PUSH20 0xFFFFFFFFFFFFFFFFFFFFFFFFFFFFFFFFFFFFFFFF AND DUP2 MSTORE PUSH1 0x20 ADD SWAP1 DUP2 MSTORE PUSH1 0x20 ADD PUSH1 0x0 KECCAK256 SLOAD LT ISZERO PUSH2 0xACB JUMPI PUSH1 0x40 MLOAD PUSH32 0x8C379A000000000000000000000000000000000000000000000000000000000 DUP2 MSTORE PUSH1 0x4 ADD PUSH2 0xAC2 SWAP1 PUSH2 0x22FC JUMP JUMPDEST PUSH1 0x40 MLOAD DUP1 SWAP2 SUB SWAP1 REVERT JUMPDEST PUSH1 0x0 DUP1 PUSH1 0x39 ADD PUSH1 0x0 DUP4 PUSH20 0xFFFFFFFFFFFFFFFFFFFFFFFFFFFFFFFFFFFFFFFF AND PUSH20 0xFFFFFFFFFFFFFFFFFFFFFFFFFFFFFFFFFFFFFFFF AND DUP2 MSTORE PUSH1 0x20 ADD SWAP1 DUP2 MSTORE PUSH1 0x20 ADD PUSH1 0x0 KECCAK256 SLOAD SWAP1 POP PUSH1 0x0 DUP1 PUSH1 0x39 ADD PUSH1 0x0 DUP5 PUSH20 0xFFFFFFFFFFFFFFFFFFFFFFFFFFFFFFFFFFFFFFFF AND PUSH20 0xFFFFFFFFFFFFFFFFFFFFFFFFFFFFFFFFFFFFFFFF AND DUP2 MSTORE PUSH1 0x20 ADD SWAP1 DUP2 MSTORE PUSH1 0x20 ADD PUSH1 0x0 KECCAK256 DUP2 SWAP1 SSTORE POP PUSH1 0x0 DUP1 PUSH1 0x34 ADD PUSH1 0x0 SWAP1 SLOAD SWAP1 PUSH2 0x100 EXP SWAP1 DIV PUSH20 0xFFFFFFFFFFFFFFFFFFFFFFFFFFFFFFFFFFFFFFFF AND SWAP1 POP DUP1 PUSH20 0xFFFFFFFFFFFFFFFFFFFFFFFFFFFFFFFFFFFFFFFF AND PUSH4 0xA9059CBB DUP5 DUP5 PUSH1 0x40 MLOAD DUP4 PUSH4 0xFFFFFFFF AND PUSH1 0xE0 SHL DUP2 MSTORE PUSH1 0x4 ADD PUSH2 0xBBC SWAP3 SWAP2 SWAP1 PUSH2 0x1E7D JUMP JUMPDEST PUSH1 0x20 PUSH1 0x40 MLOAD DUP1 DUP4 SUB DUP2 PUSH1 0x0 DUP8 GAS CALL ISZERO DUP1 ISZERO PUSH2 0xBDB JUMPI RETURNDATASIZE PUSH1 0x0 DUP1 RETURNDATACOPY RETURNDATASIZE PUSH1 0x0 REVERT JUMPDEST POP POP POP POP PUSH1 0x40 MLOAD RETURNDATASIZE PUSH1 0x1F NOT PUSH1 0x1F DUP3 ADD AND DUP3 ADD DUP1 PUSH1 0x40 MSTORE POP DUP2 ADD SWAP1 PUSH2 0xBFF SWAP2 SWAP1 PUSH2 0x1EDE JUMP JUMPDEST PUSH2 0xC3E JUMPI PUSH1 0x40 MLOAD PUSH32 0x8C379A000000000000000000000000000000000000000000000000000000000 DUP2 MSTORE PUSH1 0x4 ADD PUSH2 0xC35 SWAP1 PUSH2 0x1F68 JUMP JUMPDEST PUSH1 0x40 MLOAD DUP1 SWAP2 SUB SWAP1 REVERT JUMPDEST PUSH2 0xC90 DUP3 PUSH1 0x43 PUSH1 0x0 DUP7 PUSH20 0xFFFFFFFFFFFFFFFFFFFFFFFFFFFFFFFFFFFFFFFF AND PUSH20 0xFFFFFFFFFFFFFFFFFFFFFFFFFFFFFFFFFFFFFFFF AND DUP2 MSTORE PUSH1 0x20 ADD SWAP1 DUP2 MSTORE PUSH1 0x20 ADD PUSH1 0x0 KECCAK256 SLOAD PUSH2 0x1495 SWAP1 SWAP2 SWAP1 PUSH4 0xFFFFFFFF AND JUMP JUMPDEST PUSH1 0x43 PUSH1 0x0 DUP6 PUSH20 0xFFFFFFFFFFFFFFFFFFFFFFFFFFFFFFFFFFFFFFFF AND PUSH20 0xFFFFFFFFFFFFFFFFFFFFFFFFFFFFFFFFFFFFFFFF AND DUP2 MSTORE PUSH1 0x20 ADD SWAP1 DUP2 MSTORE PUSH1 0x20 ADD PUSH1 0x0 KECCAK256 DUP2 SWAP1 SSTORE POP PUSH2 0xCE8 DUP3 PUSH1 0x41 SLOAD PUSH2 0x1495 SWAP1 SWAP2 SWAP1 PUSH4 0xFFFFFFFF AND JUMP JUMPDEST PUSH1 0x41 DUP2 SWAP1 SSTORE POP PUSH32 0x4A76C364C7E53DB1950771CAB0E222EDB75373273376B0165F03FE30AE8C2EC4 DUP4 DUP4 TIMESTAMP PUSH1 0x40 MLOAD PUSH2 0xD21 SWAP4 SWAP3 SWAP2 SWAP1 PUSH2 0x1F88 JUMP JUMPDEST PUSH1 0x40 MLOAD DUP1 SWAP2 SUB SWAP1 LOG1 POP POP POP JUMP JUMPDEST PUSH1 0x0 DUP1 PUSH1 0x2 DUP2 GT ISZERO PUSH2 0xD43 JUMPI PUSH2 0xD42 PUSH2 0x231C JUMP JUMPDEST JUMPDEST PUSH1 0x0 PUSH1 0x37 ADD PUSH1 0x0 DUP5 PUSH20 0xFFFFFFFFFFFFFFFFFFFFFFFFFFFFFFFFFFFFFFFF AND PUSH20 0xFFFFFFFFFFFFFFFFFFFFFFFFFFFFFFFFFFFFFFFF AND DUP2 MSTORE PUSH1 0x20 ADD SWAP1 DUP2 MSTORE PUSH1 0x20 ADD PUSH1 0x0 KECCAK256 SLOAD SUB PUSH2 0xD9B JUMPI PUSH8 0x30D98D59A960000 SWAP1 POP PUSH2 0xE76 JUMP JUMPDEST PUSH1 0x1 PUSH1 0x2 DUP2 GT ISZERO PUSH2 0xDAF JUMPI PUSH2 0xDAE PUSH2 0x231C JUMP JUMPDEST JUMPDEST PUSH1 0x0 PUSH1 0x37 ADD PUSH1 0x0 DUP5 PUSH20 0xFFFFFFFFFFFFFFFFFFFFFFFFFFFFFFFFFFFFFFFF AND PUSH20 0xFFFFFFFFFFFFFFFFFFFFFFFFFFFFFFFFFFFFFFFF AND DUP2 MSTORE PUSH1 0x20 ADD SWAP1 DUP2 MSTORE PUSH1 0x20 ADD PUSH1 0x0 KECCAK256 SLOAD SUB PUSH2 0xE07 JUMPI PUSH8 0x1AA535D3D0C0000 SWAP1 POP PUSH2 0xE76 JUMP JUMPDEST PUSH1 0x2 DUP1 DUP2 GT ISZERO PUSH2 0xE1A JUMPI PUSH2 0xE19 PUSH2 0x231C JUMP JUMPDEST JUMPDEST PUSH1 0x0 PUSH1 0x37 ADD PUSH1 0x0 DUP5 PUSH20 0xFFFFFFFFFFFFFFFFFFFFFFFFFFFFFFFFFFFFFFFF AND PUSH20 0xFFFFFFFFFFFFFFFFFFFFFFFFFFFFFFFFFFFFFFFF AND DUP2 MSTORE PUSH1 0x20 ADD SWAP1 DUP2 MSTORE PUSH1 0x20 ADD PUSH1 0x0 KECCAK256 SLOAD SUB PUSH2 0xE71 JUMPI PUSH7 0xB1A2BC2EC50000 SWAP1 POP PUSH2 0xE76 JUMP JUMPDEST PUSH1 0x0 SWAP1 POP JUMPDEST SWAP2 SWAP1 POP JUMP JUMPDEST PUSH2 0xE83 PUSH2 0x1815 JUMP JUMPDEST PUSH20 0xFFFFFFFFFFFFFFFFFFFFFFFFFFFFFFFFFFFFFFFF AND PUSH2 0xEA1 PUSH2 0x14AB JUMP JUMPDEST PUSH20 0xFFFFFFFFFFFFFFFFFFFFFFFFFFFFFFFFFFFFFFFF AND EQ PUSH2 0xEF7 JUMPI PUSH1 0x40 MLOAD PUSH32 0x8C379A000000000000000000000000000000000000000000000000000000000 DUP2 MSTORE PUSH1 0x4 ADD PUSH2 0xEEE SWAP1 PUSH2 0x23BD JUMP JUMPDEST PUSH1 0x40 MLOAD DUP1 SWAP2 SUB SWAP1 REVERT JUMPDEST DUP5 PUSH1 0x0 PUSH1 0x33 ADD PUSH1 0x0 DUP1 PUSH1 0x2 DUP2 GT ISZERO PUSH2 0xF12 JUMPI PUSH2 0xF11 PUSH2 0x231C JUMP JUMPDEST JUMPDEST DUP2 MSTORE PUSH1 0x20 ADD SWAP1 DUP2 MSTORE PUSH1 0x20 ADD PUSH1 0x0 KECCAK256 DUP2 SWAP1 SSTORE POP DUP4 PUSH1 0x0 PUSH1 0x33 ADD PUSH1 0x0 PUSH1 0x1 PUSH1 0x2 DUP2 GT ISZERO PUSH2 0xF40 JUMPI PUSH2 0xF3F PUSH2 0x231C JUMP JUMPDEST JUMPDEST DUP2 MSTORE PUSH1 0x20 ADD SWAP1 DUP2 MSTORE PUSH1 0x20 ADD PUSH1 0x0 KECCAK256 DUP2 SWAP1 SSTORE POP DUP3 PUSH1 0x0 PUSH1 0x33 ADD PUSH1 0x0 PUSH1 0x2 DUP1 DUP2 GT ISZERO PUSH2 0xF6D JUMPI PUSH2 0xF6C PUSH2 0x231C JUMP JUMPDEST JUMPDEST DUP2 MSTORE PUSH1 0x20 ADD SWAP1 DUP2 MSTORE PUSH1 0x20 ADD PUSH1 0x0 KECCAK256 DUP2 SWAP1 SSTORE POP DUP2 PUSH1 0x0 PUSH1 0x34 ADD PUSH1 0x0 PUSH2 0x100 EXP DUP2 SLOAD DUP2 PUSH20 0xFFFFFFFFFFFFFFFFFFFFFFFFFFFFFFFFFFFFFFFF MUL NOT AND SWAP1 DUP4 PUSH20 0xFFFFFFFFFFFFFFFFFFFFFFFFFFFFFFFFFFFFFFFF AND MUL OR SWAP1 SSTORE POP DUP1 PUSH1 0x0 PUSH1 0x38 ADD PUSH1 0x0 PUSH2 0x100 EXP DUP2 SLOAD DUP2 PUSH20 0xFFFFFFFFFFFFFFFFFFFFFFFFFFFFFFFFFFFFFFFF MUL NOT AND SWAP1 DUP4 PUSH20 0xFFFFFFFFFFFFFFFFFFFFFFFFFFFFFFFFFFFFFFFF AND MUL OR SWAP1 SSTORE POP PUSH32 0x74EF99E9F61D2FB45DF1C75ADFF49A40D916ACF825590DCEC368ED4A012DDD89 DUP6 DUP6 DUP6 DUP5 TIMESTAMP PUSH2 0x1035 PUSH2 0x14AB JUMP JUMPDEST PUSH1 0x40 MLOAD PUSH2 0x1047 SWAP7 SWAP6 SWAP5 SWAP4 SWAP3 SWAP2 SWAP1 PUSH2 0x23DD JUMP JUMPDEST PUSH1 0x40 MLOAD DUP1 SWAP2 SUB SWAP1 LOG1 POP POP POP POP POP JUMP JUMPDEST PUSH1 0x0 DUP1 PUSH1 0x0 PUSH1 0x3A ADD SLOAD PUSH1 0x42 SLOAD SWAP2 POP SWAP2 POP SWAP1 SWAP2 JUMP JUMPDEST PUSH1 0x0 PUSH1 0x35 ADD PUSH1 0x0 DUP5 PUSH20 0xFFFFFFFFFFFFFFFFFFFFFFFFFFFFFFFFFFFFFFFF AND PUSH20 0xFFFFFFFFFFFFFFFFFFFFFFFFFFFFFFFFFFFFFFFF AND DUP2 MSTORE PUSH1 0x20 ADD SWAP1 DUP2 MSTORE PUSH1 0x20 ADD PUSH1 0x0 KECCAK256 SLOAD TIMESTAMP LT ISZERO PUSH2 0x10EF JUMPI PUSH1 0x40 MLOAD PUSH32 0x8C379A000000000000000000000000000000000000000000000000000000000 DUP2 MSTORE PUSH1 0x4 ADD PUSH2 0x10E6 SWAP1 PUSH2 0x2031 JUMP JUMPDEST PUSH1 0x40 MLOAD DUP1 SWAP2 SUB SWAP1 REVERT JUMPDEST PUSH1 0x0 DUP1 PUSH1 0x33 ADD PUSH1 0x0 DUP5 DUP2 MSTORE PUSH1 0x20 ADD SWAP1 DUP2 MSTORE PUSH1 0x20 ADD PUSH1 0x0 KECCAK256 SLOAD SWAP1 POP DUP3 PUSH1 0x0 PUSH1 0x37 ADD PUSH1 0x0 DUP7 PUSH20 0xFFFFFFFFFFFFFFFFFFFFFFFFFFFFFFFFFFFFFFFF AND PUSH20 0xFFFFFFFFFFFFFFFFFFFFFFFFFFFFFFFFFFFFFFFF AND DUP2 MSTORE PUSH1 0x20 ADD SWAP1 DUP2 MSTORE PUSH1 0x20 ADD PUSH1 0x0 KECCAK256 DUP2 SWAP1 SSTORE POP PUSH1 0x0 DUP2 GT PUSH2 0x1193 JUMPI PUSH1 0x40 MLOAD PUSH32 0x8C379A000000000000000000000000000000000000000000000000000000000 DUP2 MSTORE PUSH1 0x4 ADD PUSH2 0x118A SWAP1 PUSH2 0x209D JUMP JUMPDEST PUSH1 0x40 MLOAD DUP1 SWAP2 SUB SWAP1 REVERT JUMPDEST PUSH1 0x0 PUSH2 0x11AC PUSH4 0x1E13380 TIMESTAMP PUSH2 0x1495 SWAP1 SWAP2 SWAP1 PUSH4 0xFFFFFFFF AND JUMP JUMPDEST SWAP1 POP DUP1 PUSH1 0x0 PUSH1 0x35 ADD PUSH1 0x0 DUP8 PUSH20 0xFFFFFFFFFFFFFFFFFFFFFFFFFFFFFFFFFFFFFFFF AND PUSH20 0xFFFFFFFFFFFFFFFFFFFFFFFFFFFFFFFFFFFFFFFF AND DUP2 MSTORE PUSH1 0x20 ADD SWAP1 DUP2 MSTORE PUSH1 0x20 ADD PUSH1 0x0 KECCAK256 DUP2 SWAP1 SSTORE POP PUSH1 0x1 PUSH1 0x0 PUSH1 0x36 ADD PUSH1 0x0 DUP8 PUSH20 0xFFFFFFFFFFFFFFFFFFFFFFFFFFFFFFFFFFFFFFFF AND PUSH20 0xFFFFFFFFFFFFFFFFFFFFFFFFFFFFFFFFFFFFFFFF AND DUP2 MSTORE PUSH1 0x20 ADD SWAP1 DUP2 MSTORE PUSH1 0x20 ADD PUSH1 0x0 KECCAK256 PUSH1 0x0 PUSH2 0x100 EXP DUP2 SLOAD DUP2 PUSH1 0xFF MUL NOT AND SWAP1 DUP4 ISZERO ISZERO MUL OR SWAP1 SSTORE POP PUSH1 0x0 DUP1 PUSH1 0x34 ADD PUSH1 0x0 SWAP1 SLOAD SWAP1 PUSH2 0x100 EXP SWAP1 DIV PUSH20 0xFFFFFFFFFFFFFFFFFFFFFFFFFFFFFFFFFFFFFFFF AND SWAP1 POP DUP3 DUP2 PUSH20 0xFFFFFFFFFFFFFFFFFFFFFFFFFFFFFFFFFFFFFFFF AND PUSH4 0xDD62ED3E PUSH2 0x129E PUSH2 0x14AB JUMP JUMPDEST ADDRESS PUSH1 0x40 MLOAD DUP4 PUSH4 0xFFFFFFFF AND PUSH1 0xE0 SHL DUP2 MSTORE PUSH1 0x4 ADD PUSH2 0x12BC SWAP3 SWAP2 SWAP1 PUSH2 0x20BD JUMP JUMPDEST PUSH1 0x20 PUSH1 0x40 MLOAD DUP1 DUP4 SUB DUP2 DUP7 GAS STATICCALL ISZERO DUP1 ISZERO PUSH2 0x12D9 JUMPI RETURNDATASIZE PUSH1 0x0 DUP1 RETURNDATACOPY RETURNDATASIZE PUSH1 0x0 REVERT JUMPDEST POP POP POP POP PUSH1 0x40 MLOAD RETURNDATASIZE PUSH1 0x1F NOT PUSH1 0x1F DUP3 ADD AND DUP3 ADD DUP1 PUSH1 0x40 MSTORE POP DUP2 ADD SWAP1 PUSH2 0x12FD SWAP2 SWAP1 PUSH2 0x20FB JUMP JUMPDEST LT ISZERO PUSH2 0x133E JUMPI PUSH1 0x40 MLOAD PUSH32 0x8C379A000000000000000000000000000000000000000000000000000000000 DUP2 MSTORE PUSH1 0x4 ADD PUSH2 0x1335 SWAP1 PUSH2 0x219A JUMP JUMPDEST PUSH1 0x40 MLOAD DUP1 SWAP2 SUB SWAP1 REVERT JUMPDEST PUSH2 0x1349 DUP7 DUP6 DUP6 PUSH2 0x1848 JUMP JUMPDEST PUSH2 0x1388 JUMPI PUSH1 0x40 MLOAD PUSH32 0x8C379A000000000000000000000000000000000000000000000000000000000 DUP2 MSTORE PUSH1 0x4 ADD PUSH2 0x137F SWAP1 PUSH2 0x248A JUMP JUMPDEST PUSH1 0x40 MLOAD DUP1 SWAP2 SUB SWAP1 REVERT JUMPDEST DUP1 PUSH20 0xFFFFFFFFFFFFFFFFFFFFFFFFFFFFFFFFFFFFFFFF AND PUSH4 0x23B872DD PUSH2 0x13AC PUSH2 0x14AB JUMP JUMPDEST ADDRESS DUP7 PUSH1 0x40 MLOAD DUP5 PUSH4 0xFFFFFFFF AND PUSH1 0xE0 SHL DUP2 MSTORE PUSH1 0x4 ADD PUSH2 0x13CC SWAP4 SWAP3 SWAP2 SWAP1 PUSH2 0x2226 JUMP JUMPDEST PUSH1 0x20 PUSH1 0x40 MLOAD DUP1 DUP4 SUB DUP2 PUSH1 0x0 DUP8 GAS CALL ISZERO DUP1 ISZERO PUSH2 0x13EB JUMPI RETURNDATASIZE PUSH1 0x0 DUP1 RETURNDATACOPY RETURNDATASIZE PUSH1 0x0 REVERT JUMPDEST POP POP POP POP PUSH1 0x40 MLOAD RETURNDATASIZE PUSH1 0x1F NOT PUSH1 0x1F DUP3 ADD AND DUP3 ADD DUP1 PUSH1 0x40 MSTORE POP DUP2 ADD SWAP1 PUSH2 0x140F SWAP2 SWAP1 PUSH2 0x1EDE JUMP JUMPDEST PUSH2 0x144E JUMPI PUSH1 0x40 MLOAD PUSH32 0x8C379A000000000000000000000000000000000000000000000000000000000 DUP2 MSTORE PUSH1 0x4 ADD PUSH2 0x1445 SWAP1 PUSH2 0x1F68 JUMP JUMPDEST PUSH1 0x40 MLOAD DUP1 SWAP2 SUB SWAP1 REVERT JUMPDEST PUSH32 0xCB780C1B203D42C77C54C594AAA57F696B57039CF9EEFCE5266255E154EA1E0B DUP7 DUP5 DUP5 DUP9 TIMESTAMP PUSH1 0x40 MLOAD PUSH2 0x1485 SWAP6 SWAP5 SWAP4 SWAP3 SWAP2 SWAP1 PUSH2 0x225D JUMP JUMPDEST PUSH1 0x40 MLOAD DUP1 SWAP2 SUB SWAP1 LOG1 POP POP POP POP POP POP JUMP JUMPDEST PUSH1 0x0 DUP2 DUP4 PUSH2 0x14A3 SWAP2 SWAP1 PUSH2 0x24D9 JUMP JUMPDEST SWAP1 POP SWAP3 SWAP2 POP POP JUMP JUMPDEST PUSH1 0x0 CALLER SWAP1 POP SWAP1 JUMP JUMPDEST PUSH1 0x0 DUP1 ADDRESS PUSH20 0xFFFFFFFFFFFFFFFFFFFFFFFFFFFFFFFFFFFFFFFF AND PUSH4 0x1355A306 PUSH1 0x40 MLOAD DUP2 PUSH4 0xFFFFFFFF AND PUSH1 0xE0 SHL DUP2 MSTORE PUSH1 0x4 ADD PUSH1 0x20 PUSH1 0x40 MLOAD DUP1 DUP4 SUB DUP2 PUSH1 0x0 DUP8 GAS CALL ISZERO DUP1 ISZERO PUSH2 0x1503 JUMPI RETURNDATASIZE PUSH1 0x0 DUP1 RETURNDATACOPY RETURNDATASIZE PUSH1 0x0 REVERT JUMPDEST POP POP POP POP PUSH1 0x40 MLOAD RETURNDATASIZE PUSH1 0x1F NOT PUSH1 0x1F DUP3 ADD AND DUP3 ADD DUP1 PUSH1 0x40 MSTORE POP DUP2 ADD SWAP1 PUSH2 0x1527 SWAP2 SWAP1 PUSH2 0x2522 JUMP JUMPDEST SWAP1 POP PUSH1 0x0 PUSH2 0x1546 PUSH8 0x2C68AF0BB140000 DUP6 PUSH2 0x1B35 SWAP1 SWAP2 SWAP1 PUSH4 0xFFFFFFFF AND JUMP JUMPDEST SWAP1 POP DUP2 PUSH1 0x0 PUSH1 0x3B ADD PUSH1 0x0 DUP8 PUSH20 0xFFFFFFFFFFFFFFFFFFFFFFFFFFFFFFFFFFFFFFFF AND PUSH20 0xFFFFFFFFFFFFFFFFFFFFFFFFFFFFFFFFFFFFFFFF AND DUP2 MSTORE PUSH1 0x20 ADD SWAP1 DUP2 MSTORE PUSH1 0x20 ADD PUSH1 0x0 KECCAK256 PUSH1 0x0 PUSH2 0x100 EXP DUP2 SLOAD DUP2 PUSH20 0xFFFFFFFFFFFFFFFFFFFFFFFFFFFFFFFFFFFFFFFF MUL NOT AND SWAP1 DUP4 PUSH20 0xFFFFFFFFFFFFFFFFFFFFFFFFFFFFFFFFFFFFFFFF AND MUL OR SWAP1 SSTORE POP PUSH2 0x161F PUSH1 0x1 PUSH1 0x0 PUSH1 0x3C ADD PUSH1 0x0 DUP6 PUSH20 0xFFFFFFFFFFFFFFFFFFFFFFFFFFFFFFFFFFFFFFFF AND PUSH20 0xFFFFFFFFFFFFFFFFFFFFFFFFFFFFFFFFFFFFFFFF AND DUP2 MSTORE PUSH1 0x20 ADD SWAP1 DUP2 MSTORE PUSH1 0x20 ADD PUSH1 0x0 KECCAK256 SLOAD PUSH2 0x1495 SWAP1 SWAP2 SWAP1 PUSH4 0xFFFFFFFF AND JUMP JUMPDEST PUSH1 0x0 PUSH1 0x3C ADD PUSH1 0x0 DUP5 PUSH20 0xFFFFFFFFFFFFFFFFFFFFFFFFFFFFFFFFFFFFFFFF AND PUSH20 0xFFFFFFFFFFFFFFFFFFFFFFFFFFFFFFFFFFFFFFFF AND DUP2 MSTORE PUSH1 0x20 ADD SWAP1 DUP2 MSTORE PUSH1 0x20 ADD PUSH1 0x0 KECCAK256 DUP2 SWAP1 SSTORE POP PUSH2 0x16BA DUP2 PUSH1 0x0 PUSH1 0x39 ADD PUSH1 0x0 DUP6 PUSH20 0xFFFFFFFFFFFFFFFFFFFFFFFFFFFFFFFFFFFFFFFF AND PUSH20 0xFFFFFFFFFFFFFFFFFFFFFFFFFFFFFFFFFFFFFFFF AND DUP2 MSTORE PUSH1 0x20 ADD SWAP1 DUP2 MSTORE PUSH1 0x20 ADD PUSH1 0x0 KECCAK256 SLOAD PUSH2 0x1495 SWAP1 SWAP2 SWAP1 PUSH4 0xFFFFFFFF AND JUMP JUMPDEST PUSH1 0x0 PUSH1 0x39 ADD PUSH1 0x0 DUP5 PUSH20 0xFFFFFFFFFFFFFFFFFFFFFFFFFFFFFFFFFFFFFFFF AND PUSH20 0xFFFFFFFFFFFFFFFFFFFFFFFFFFFFFFFFFFFFFFFF AND DUP2 MSTORE PUSH1 0x20 ADD SWAP1 DUP2 MSTORE PUSH1 0x20 ADD PUSH1 0x0 KECCAK256 DUP2 SWAP1 SSTORE POP PUSH2 0x172A PUSH2 0x1716 DUP3 DUP7 PUSH2 0x1B6D SWAP1 SWAP2 SWAP1 PUSH4 0xFFFFFFFF AND JUMP JUMPDEST PUSH1 0x0 PUSH1 0x3A ADD SLOAD PUSH2 0x1495 SWAP1 SWAP2 SWAP1 PUSH4 0xFFFFFFFF AND JUMP JUMPDEST PUSH1 0x0 PUSH1 0x3A ADD DUP2 SWAP1 SSTORE POP PUSH1 0x0 PUSH1 0x40 MLOAD DUP1 PUSH1 0x20 ADD PUSH1 0x40 MSTORE DUP1 DUP8 PUSH20 0xFFFFFFFFFFFFFFFFFFFFFFFFFFFFFFFFFFFFFFFF AND DUP2 MSTORE POP SWAP1 POP PUSH1 0x40 DUP2 SWAP1 DUP1 PUSH1 0x1 DUP2 SLOAD ADD DUP1 DUP3 SSTORE DUP1 SWAP2 POP POP PUSH1 0x1 SWAP1 SUB SWAP1 PUSH1 0x0 MSTORE PUSH1 0x20 PUSH1 0x0 KECCAK256 ADD PUSH1 0x0 SWAP1 SWAP2 SWAP1 SWAP2 SWAP1 SWAP2 POP PUSH1 0x0 DUP3 ADD MLOAD DUP2 PUSH1 0x0 ADD PUSH1 0x0 PUSH2 0x100 EXP DUP2 SLOAD DUP2 PUSH20 0xFFFFFFFFFFFFFFFFFFFFFFFFFFFFFFFFFFFFFFFF MUL NOT AND SWAP1 DUP4 PUSH20 0xFFFFFFFFFFFFFFFFFFFFFFFFFFFFFFFFFFFFFFFF AND MUL OR SWAP1 SSTORE POP POP POP PUSH32 0x8B6D6A18F019AF6E4D9A15CD5AF8C9D590E5CE49183DE541941FDF6E6D407A5F DUP7 DUP5 TIMESTAMP PUSH1 0x40 MLOAD PUSH2 0x1800 SWAP4 SWAP3 SWAP2 SWAP1 PUSH2 0x2226 JUMP JUMPDEST PUSH1 0x40 MLOAD DUP1 SWAP2 SUB SWAP1 LOG1 PUSH1 0x1 SWAP4 POP POP POP POP SWAP3 SWAP2 POP POP JUMP JUMPDEST PUSH1 0x0 PUSH2 0x181F PUSH2 0x1B83 JUMP JUMPDEST PUSH1 0x3 ADD PUSH1 0x0 SWAP1 SLOAD SWAP1 PUSH2 0x100 EXP SWAP1 DIV PUSH20 0xFFFFFFFFFFFFFFFFFFFFFFFFFFFFFFFFFFFFFFFF AND SWAP1 POP SWAP1 JUMP JUMPDEST PUSH1 0x0 DUP1 PUSH2 0x1866 PUSH8 0x58D15E176280000 DUP5 PUSH2 0x1B35 SWAP1 SWAP2 SWAP1 PUSH4 0xFFFFFFFF AND JUMP JUMPDEST SWAP1 POP DUP4 PUSH1 0x0 PUSH1 0x3B ADD PUSH1 0x0 DUP8 PUSH20 0xFFFFFFFFFFFFFFFFFFFFFFFFFFFFFFFFFFFFFFFF AND PUSH20 0xFFFFFFFFFFFFFFFFFFFFFFFFFFFFFFFFFFFFFFFF AND DUP2 MSTORE PUSH1 0x20 ADD SWAP1 DUP2 MSTORE PUSH1 0x20 ADD PUSH1 0x0 KECCAK256 PUSH1 0x0 PUSH2 0x100 EXP DUP2 SLOAD DUP2 PUSH20 0xFFFFFFFFFFFFFFFFFFFFFFFFFFFFFFFFFFFFFFFF MUL NOT AND SWAP1 DUP4 PUSH20 0xFFFFFFFFFFFFFFFFFFFFFFFFFFFFFFFFFFFFFFFF AND MUL OR SWAP1 SSTORE POP PUSH2 0x193F PUSH1 0x1 PUSH1 0x0 PUSH1 0x3C ADD PUSH1 0x0 DUP8 PUSH20 0xFFFFFFFFFFFFFFFFFFFFFFFFFFFFFFFFFFFFFFFF AND PUSH20 0xFFFFFFFFFFFFFFFFFFFFFFFFFFFFFFFFFFFFFFFF AND DUP2 MSTORE PUSH1 0x20 ADD SWAP1 DUP2 MSTORE PUSH1 0x20 ADD PUSH1 0x0 KECCAK256 SLOAD PUSH2 0x1495 SWAP1 SWAP2 SWAP1 PUSH4 0xFFFFFFFF AND JUMP JUMPDEST PUSH1 0x0 PUSH1 0x3C ADD PUSH1 0x0 DUP7 PUSH20 0xFFFFFFFFFFFFFFFFFFFFFFFFFFFFFFFFFFFFFFFF AND PUSH20 0xFFFFFFFFFFFFFFFFFFFFFFFFFFFFFFFFFFFFFFFF AND DUP2 MSTORE PUSH1 0x20 ADD SWAP1 DUP2 MSTORE PUSH1 0x20 ADD PUSH1 0x0 KECCAK256 DUP2 SWAP1 SSTORE POP PUSH2 0x19DA DUP2 PUSH1 0x0 PUSH1 0x39 ADD PUSH1 0x0 DUP8 PUSH20 0xFFFFFFFFFFFFFFFFFFFFFFFFFFFFFFFFFFFFFFFF AND PUSH20 0xFFFFFFFFFFFFFFFFFFFFFFFFFFFFFFFFFFFFFFFF AND DUP2 MSTORE PUSH1 0x20 ADD SWAP1 DUP2 MSTORE PUSH1 0x20 ADD PUSH1 0x0 KECCAK256 SLOAD PUSH2 0x1495 SWAP1 SWAP2 SWAP1 PUSH4 0xFFFFFFFF AND JUMP JUMPDEST PUSH1 0x0 PUSH1 0x39 ADD PUSH1 0x0 DUP7 PUSH20 0xFFFFFFFFFFFFFFFFFFFFFFFFFFFFFFFFFFFFFFFF AND PUSH20 0xFFFFFFFFFFFFFFFFFFFFFFFFFFFFFFFFFFFFFFFF AND DUP2 MSTORE PUSH1 0x20 ADD SWAP1 DUP2 MSTORE PUSH1 0x20 ADD PUSH1 0x0 KECCAK256 DUP2 SWAP1 SSTORE POP PUSH2 0x1A4A PUSH2 0x1A36 DUP3 DUP6 PUSH2 0x1B6D SWAP1 SWAP2 SWAP1 PUSH4 0xFFFFFFFF AND JUMP JUMPDEST PUSH1 0x0 PUSH1 0x3A ADD SLOAD PUSH2 0x1495 SWAP1 SWAP2 SWAP1 PUSH4 0xFFFFFFFF AND JUMP JUMPDEST PUSH1 0x0 PUSH1 0x3A ADD DUP2 SWAP1 SSTORE POP PUSH1 0x0 PUSH1 0x40 MLOAD DUP1 PUSH1 0x20 ADD PUSH1 0x40 MSTORE DUP1 DUP8 PUSH20 0xFFFFFFFFFFFFFFFFFFFFFFFFFFFFFFFFFFFFFFFF AND DUP2 MSTORE POP SWAP1 POP PUSH1 0x40 DUP2 SWAP1 DUP1 PUSH1 0x1 DUP2 SLOAD ADD DUP1 DUP3 SSTORE DUP1 SWAP2 POP POP PUSH1 0x1 SWAP1 SUB SWAP1 PUSH1 0x0 MSTORE PUSH1 0x20 PUSH1 0x0 KECCAK256 ADD PUSH1 0x0 SWAP1 SWAP2 SWAP1 SWAP2 SWAP1 SWAP2 POP PUSH1 0x0 DUP3 ADD MLOAD DUP2 PUSH1 0x0 ADD PUSH1 0x0 PUSH2 0x100 EXP DUP2 SLOAD DUP2 PUSH20 0xFFFFFFFFFFFFFFFFFFFFFFFFFFFFFFFFFFFFFFFF MUL NOT AND SWAP1 DUP4 PUSH20 0xFFFFFFFFFFFFFFFFFFFFFFFFFFFFFFFFFFFFFFFF AND MUL OR SWAP1 SSTORE POP POP POP PUSH32 0x8B6D6A18F019AF6E4D9A15CD5AF8C9D590E5CE49183DE541941FDF6E6D407A5F DUP7 DUP7 TIMESTAMP PUSH1 0x40 MLOAD PUSH2 0x1B20 SWAP4 SWAP3 SWAP2 SWAP1 PUSH2 0x2226 JUMP JUMPDEST PUSH1 0x40 MLOAD DUP1 SWAP2 SUB SWAP1 LOG1 PUSH1 0x1 SWAP3 POP POP POP SWAP4 SWAP3 POP POP POP JUMP JUMPDEST PUSH1 0x0 PUSH1 0x12 PUSH1 0xFF AND PUSH1 0xA PUSH2 0x1B48 SWAP2 SWAP1 PUSH2 0x2682 JUMP JUMPDEST PUSH2 0x1B5B DUP4 DUP6 PUSH2 0x1BB0 SWAP1 SWAP2 SWAP1 PUSH4 0xFFFFFFFF AND JUMP JUMPDEST PUSH2 0x1B65 SWAP2 SWAP1 PUSH2 0x26FC JUMP JUMPDEST SWAP1 POP SWAP3 SWAP2 POP POP JUMP JUMPDEST PUSH1 0x0 DUP2 DUP4 PUSH2 0x1B7B SWAP2 SWAP1 PUSH2 0x272D JUMP JUMPDEST SWAP1 POP SWAP3 SWAP2 POP POP JUMP JUMPDEST PUSH1 0x0 DUP1 PUSH32 0xC8FCAD8DB84D3CC18B4C41D551EA0EE66DD599CDE068D998E57D5E09332C131C SWAP1 POP DUP1 SWAP2 POP POP SWAP1 JUMP JUMPDEST PUSH1 0x0 DUP2 DUP4 PUSH2 0x1BBE SWAP2 SWAP1 PUSH2 0x2761 JUMP JUMPDEST SWAP1 POP SWAP3 SWAP2 POP POP JUMP JUMPDEST PUSH1 0x0 PUSH20 0xFFFFFFFFFFFFFFFFFFFFFFFFFFFFFFFFFFFFFFFF DUP3 AND SWAP1 POP SWAP2 SWAP1 POP JUMP JUMPDEST PUSH1 0x0 PUSH2 0x1BF1 DUP3 PUSH2 0x1BC6 JUMP JUMPDEST SWAP1 POP SWAP2 SWAP1 POP JUMP JUMPDEST PUSH2 0x1C01 DUP2 PUSH2 0x1BE6 JUMP JUMPDEST DUP3 MSTORE POP POP JUMP JUMPDEST PUSH1 0x0 PUSH1 0x20 DUP3 ADD SWAP1 POP PUSH2 0x1C1C PUSH1 0x0 DUP4 ADD DUP5 PUSH2 0x1BF8 JUMP JUMPDEST SWAP3 SWAP2 POP POP JUMP JUMPDEST PUSH1 0x0 DUP1 REVERT JUMPDEST PUSH2 0x1C30 DUP2 PUSH2 0x1BE6 JUMP JUMPDEST DUP2 EQ PUSH2 0x1C3B JUMPI PUSH1 0x0 DUP1 REVERT JUMPDEST POP JUMP JUMPDEST PUSH1 0x0 DUP2 CALLDATALOAD SWAP1 POP PUSH2 0x1C4D DUP2 PUSH2 0x1C27 JUMP JUMPDEST SWAP3 SWAP2 POP POP JUMP JUMPDEST PUSH1 0x0 PUSH1 0x20 DUP3 DUP5 SUB SLT ISZERO PUSH2 0x1C69 JUMPI PUSH2 0x1C68 PUSH2 0x1C22 JUMP JUMPDEST JUMPDEST PUSH1 0x0 PUSH2 0x1C77 DUP5 DUP3 DUP6 ADD PUSH2 0x1C3E JUMP JUMPDEST SWAP2 POP POP SWAP3 SWAP2 POP POP JUMP JUMPDEST PUSH1 0x0 DUP2 SWAP1 POP SWAP2 SWAP1 POP JUMP JUMPDEST PUSH2 0x1C93 DUP2 PUSH2 0x1C80 JUMP JUMPDEST DUP3 MSTORE POP POP JUMP JUMPDEST PUSH1 0x0 PUSH1 0x60 DUP3 ADD SWAP1 POP PUSH2 0x1CAE PUSH1 0x0 DUP4 ADD DUP7 PUSH2 0x1C8A JUMP JUMPDEST PUSH2 0x1CBB PUSH1 0x20 DUP4 ADD DUP6 PUSH2 0x1C8A JUMP JUMPDEST PUSH2 0x1CC8 PUSH1 0x40 DUP4 ADD DUP5 PUSH2 0x1C8A JUMP JUMPDEST SWAP5 SWAP4 POP POP POP POP JUMP JUMPDEST PUSH2 0x1CD9 DUP2 PUSH2 0x1C80 JUMP JUMPDEST DUP2 EQ PUSH2 0x1CE4 JUMPI PUSH1 0x0 DUP1 REVERT JUMPDEST POP JUMP JUMPDEST PUSH1 0x0 DUP2 CALLDATALOAD SWAP1 POP PUSH2 0x1CF6 DUP2 PUSH2 0x1CD0 JUMP JUMPDEST SWAP3 SWAP2 POP POP JUMP JUMPDEST PUSH1 0x0 DUP1 PUSH1 0x40 DUP4 DUP6 SUB SLT ISZERO PUSH2 0x1D13 JUMPI PUSH2 0x1D12 PUSH2 0x1C22 JUMP JUMPDEST JUMPDEST PUSH1 0x0 PUSH2 0x1D21 DUP6 DUP3 DUP7 ADD PUSH2 0x1C3E JUMP JUMPDEST SWAP3 POP POP PUSH1 0x20 PUSH2 0x1D32 DUP6 DUP3 DUP7 ADD PUSH2 0x1CE7 JUMP JUMPDEST SWAP2 POP POP SWAP3 POP SWAP3 SWAP1 POP JUMP JUMPDEST PUSH1 0x0 PUSH1 0x20 DUP3 ADD SWAP1 POP PUSH2 0x1D51 PUSH1 0x0 DUP4 ADD DUP5 PUSH2 0x1C8A JUMP JUMPDEST SWAP3 SWAP2 POP POP JUMP JUMPDEST PUSH1 0x0 DUP1 PUSH1 0x0 DUP1 PUSH1 0x0 PUSH1 0xA0 DUP7 DUP9 SUB SLT ISZERO PUSH2 0x1D73 JUMPI PUSH2 0x1D72 PUSH2 0x1C22 JUMP JUMPDEST JUMPDEST PUSH1 0x0 PUSH2 0x1D81 DUP9 DUP3 DUP10 ADD PUSH2 0x1CE7 JUMP JUMPDEST SWAP6 POP POP PUSH1 0x20 PUSH2 0x1D92 DUP9 DUP3 DUP10 ADD PUSH2 0x1CE7 JUMP JUMPDEST SWAP5 POP POP PUSH1 0x40 PUSH2 0x1DA3 DUP9 DUP3 DUP10 ADD PUSH2 0x1CE7 JUMP JUMPDEST SWAP4 POP POP PUSH1 0x60 PUSH2 0x1DB4 DUP9 DUP3 DUP10 ADD PUSH2 0x1C3E JUMP JUMPDEST SWAP3 POP POP PUSH1 0x80 PUSH2 0x1DC5 DUP9 DUP3 DUP10 ADD PUSH2 0x1C3E JUMP JUMPDEST SWAP2 POP POP SWAP3 SWAP6 POP SWAP3 SWAP6 SWAP1 SWAP4 POP JUMP JUMPDEST PUSH1 0x0 PUSH1 0x40 DUP3 ADD SWAP1 POP PUSH2 0x1DE7 PUSH1 0x0 DUP4 ADD DUP6 PUSH2 0x1C8A JUMP JUMPDEST PUSH2 0x1DF4 PUSH1 0x20 DUP4 ADD DUP5 PUSH2 0x1C8A JUMP JUMPDEST SWAP4 SWAP3 POP POP POP JUMP JUMPDEST PUSH1 0x0 DUP1 PUSH1 0x0 PUSH1 0x60 DUP5 DUP7 SUB SLT ISZERO PUSH2 0x1E14 JUMPI PUSH2 0x1E13 PUSH2 0x1C22 JUMP JUMPDEST JUMPDEST PUSH1 0x0 PUSH2 0x1E22 DUP7 DUP3 DUP8 ADD PUSH2 0x1C3E JUMP JUMPDEST SWAP4 POP POP PUSH1 0x20 PUSH2 0x1E33 DUP7 DUP3 DUP8 ADD PUSH2 0x1CE7 JUMP JUMPDEST SWAP3 POP POP PUSH1 0x40 PUSH2 0x1E44 DUP7 DUP3 DUP8 ADD PUSH2 0x1C3E JUMP JUMPDEST SWAP2 POP POP SWAP3 POP SWAP3 POP SWAP3 JUMP JUMPDEST PUSH32 0x4E487B7100000000000000000000000000000000000000000000000000000000 PUSH1 0x0 MSTORE PUSH1 0x32 PUSH1 0x4 MSTORE PUSH1 0x24 PUSH1 0x0 REVERT JUMPDEST PUSH1 0x0 PUSH1 0x40 DUP3 ADD SWAP1 POP PUSH2 0x1E92 PUSH1 0x0 DUP4 ADD DUP6 PUSH2 0x1BF8 JUMP JUMPDEST PUSH2 0x1E9F PUSH1 0x20 DUP4 ADD DUP5 PUSH2 0x1C8A JUMP JUMPDEST SWAP4 SWAP3 POP POP POP JUMP JUMPDEST PUSH1 0x0 DUP2 ISZERO ISZERO SWAP1 POP SWAP2 SWAP1 POP JUMP JUMPDEST PUSH2 0x1EBB DUP2 PUSH2 0x1EA6 JUMP JUMPDEST DUP2 EQ PUSH2 0x1EC6 JUMPI PUSH1 0x0 DUP1 REVERT JUMPDEST POP JUMP JUMPDEST PUSH1 0x0 DUP2 MLOAD SWAP1 POP PUSH2 0x1ED8 DUP2 PUSH2 0x1EB2 JUMP JUMPDEST SWAP3 SWAP2 POP POP JUMP JUMPDEST PUSH1 0x0 PUSH1 0x20 DUP3 DUP5 SUB SLT ISZERO PUSH2 0x1EF4 JUMPI PUSH2 0x1EF3 PUSH2 0x1C22 JUMP JUMPDEST JUMPDEST PUSH1 0x0 PUSH2 0x1F02 DUP5 DUP3 DUP6 ADD PUSH2 0x1EC9 JUMP JUMPDEST SWAP2 POP POP SWAP3 SWAP2 POP POP JUMP JUMPDEST PUSH1 0x0 DUP3 DUP3 MSTORE PUSH1 0x20 DUP3 ADD SWAP1 POP SWAP3 SWAP2 POP POP JUMP JUMPDEST PUSH32 0x4661696C20746F207472616E7366657200000000000000000000000000000000 PUSH1 0x0 DUP3 ADD MSTORE POP JUMP JUMPDEST PUSH1 0x0 PUSH2 0x1F52 PUSH1 0x10 DUP4 PUSH2 0x1F0B JUMP JUMPDEST SWAP2 POP PUSH2 0x1F5D DUP3 PUSH2 0x1F1C JUMP JUMPDEST PUSH1 0x20 DUP3 ADD SWAP1 POP SWAP2 SWAP1 POP JUMP JUMPDEST PUSH1 0x0 PUSH1 0x20 DUP3 ADD SWAP1 POP DUP2 DUP2 SUB PUSH1 0x0 DUP4 ADD MSTORE PUSH2 0x1F81 DUP2 PUSH2 0x1F45 JUMP JUMPDEST SWAP1 POP SWAP2 SWAP1 POP JUMP JUMPDEST PUSH1 0x0 PUSH1 0x60 DUP3 ADD SWAP1 POP PUSH2 0x1F9D PUSH1 0x0 DUP4 ADD DUP7 PUSH2 0x1BF8 JUMP JUMPDEST PUSH2 0x1FAA PUSH1 0x20 DUP4 ADD DUP6 PUSH2 0x1C8A JUMP JUMPDEST PUSH2 0x1FB7 PUSH1 0x40 DUP4 ADD DUP5 PUSH2 0x1C8A JUMP JUMPDEST SWAP5 SWAP4 POP POP POP POP JUMP JUMPDEST PUSH32 0x5761697420756E74696C20796F75722063757272656E7420706C616E20656C61 PUSH1 0x0 DUP3 ADD MSTORE PUSH32 0x707365732E000000000000000000000000000000000000000000000000000000 PUSH1 0x20 DUP3 ADD MSTORE POP JUMP JUMPDEST PUSH1 0x0 PUSH2 0x201B PUSH1 0x25 DUP4 PUSH2 0x1F0B JUMP JUMPDEST SWAP2 POP PUSH2 0x2026 DUP3 PUSH2 0x1FBF JUMP JUMPDEST PUSH1 0x40 DUP3 ADD SWAP1 POP SWAP2 SWAP1 POP JUMP JUMPDEST PUSH1 0x0 PUSH1 0x20 DUP3 ADD SWAP1 POP DUP2 DUP2 SUB PUSH1 0x0 DUP4 ADD MSTORE PUSH2 0x204A DUP2 PUSH2 0x200E JUMP JUMPDEST SWAP1 POP SWAP2 SWAP1 POP JUMP JUMPDEST PUSH32 0x496E76616C696420706C616E0000000000000000000000000000000000000000 PUSH1 0x0 DUP3 ADD MSTORE POP JUMP JUMPDEST PUSH1 0x0 PUSH2 0x2087 PUSH1 0xC DUP4 PUSH2 0x1F0B JUMP JUMPDEST SWAP2 POP PUSH2 0x2092 DUP3 PUSH2 0x2051 JUMP JUMPDEST PUSH1 0x20 DUP3 ADD SWAP1 POP SWAP2 SWAP1 POP JUMP JUMPDEST PUSH1 0x0 PUSH1 0x20 DUP3 ADD SWAP1 POP DUP2 DUP2 SUB PUSH1 0x0 DUP4 ADD MSTORE PUSH2 0x20B6 DUP2 PUSH2 0x207A JUMP JUMPDEST SWAP1 POP SWAP2 SWAP1 POP JUMP JUMPDEST PUSH1 0x0 PUSH1 0x40 DUP3 ADD SWAP1 POP PUSH2 0x20D2 PUSH1 0x0 DUP4 ADD DUP6 PUSH2 0x1BF8 JUMP JUMPDEST PUSH2 0x20DF PUSH1 0x20 DUP4 ADD DUP5 PUSH2 0x1BF8 JUMP JUMPDEST SWAP4 SWAP3 POP POP POP JUMP JUMPDEST PUSH1 0x0 DUP2 MLOAD SWAP1 POP PUSH2 0x20F5 DUP2 PUSH2 0x1CD0 JUMP JUMPDEST SWAP3 SWAP2 POP POP JUMP JUMPDEST PUSH1 0x0 PUSH1 0x20 DUP3 DUP5 SUB SLT ISZERO PUSH2 0x2111 JUMPI PUSH2 0x2110 PUSH2 0x1C22 JUMP JUMPDEST JUMPDEST PUSH1 0x0 PUSH2 0x211F DUP5 DUP3 DUP6 ADD PUSH2 0x20E6 JUMP JUMPDEST SWAP2 POP POP SWAP3 SWAP2 POP POP JUMP JUMPDEST PUSH32 0x496E73756666696369656E7420746F6B656E20616C6C6F77616E636520666F72 PUSH1 0x0 DUP3 ADD MSTORE PUSH32 0x20737562736372697074696F6E21000000000000000000000000000000000000 PUSH1 0x20 DUP3 ADD MSTORE POP JUMP JUMPDEST PUSH1 0x0 PUSH2 0x2184 PUSH1 0x2E DUP4 PUSH2 0x1F0B JUMP JUMPDEST SWAP2 POP PUSH2 0x218F DUP3 PUSH2 0x2128 JUMP JUMPDEST PUSH1 0x40 DUP3 ADD SWAP1 POP SWAP2 SWAP1 POP JUMP JUMPDEST PUSH1 0x0 PUSH1 0x20 DUP3 ADD SWAP1 POP DUP2 DUP2 SUB PUSH1 0x0 DUP4 ADD MSTORE PUSH2 0x21B3 DUP2 PUSH2 0x2177 JUMP JUMPDEST SWAP1 POP SWAP2 SWAP1 POP JUMP JUMPDEST PUSH32 0x526566657272616C206572726F72000000000000000000000000000000000000 PUSH1 0x0 DUP3 ADD MSTORE POP JUMP JUMPDEST PUSH1 0x0 PUSH2 0x21F0 PUSH1 0xE DUP4 PUSH2 0x1F0B JUMP JUMPDEST SWAP2 POP PUSH2 0x21FB DUP3 PUSH2 0x21BA JUMP JUMPDEST PUSH1 0x20 DUP3 ADD SWAP1 POP SWAP2 SWAP1 POP JUMP JUMPDEST PUSH1 0x0 PUSH1 0x20 DUP3 ADD SWAP1 POP DUP2 DUP2 SUB PUSH1 0x0 DUP4 ADD MSTORE PUSH2 0x221F DUP2 PUSH2 0x21E3 JUMP JUMPDEST SWAP1 POP SWAP2 SWAP1 POP JUMP JUMPDEST PUSH1 0x0 PUSH1 0x60 DUP3 ADD SWAP1 POP PUSH2 0x223B PUSH1 0x0 DUP4 ADD DUP7 PUSH2 0x1BF8 JUMP JUMPDEST PUSH2 0x2248 PUSH1 0x20 DUP4 ADD DUP6 PUSH2 0x1BF8 JUMP JUMPDEST PUSH2 0x2255 PUSH1 0x40 DUP4 ADD DUP5 PUSH2 0x1C8A JUMP JUMPDEST SWAP5 SWAP4 POP POP POP POP JUMP JUMPDEST PUSH1 0x0 PUSH1 0xA0 DUP3 ADD SWAP1 POP PUSH2 0x2272 PUSH1 0x0 DUP4 ADD DUP9 PUSH2 0x1BF8 JUMP JUMPDEST PUSH2 0x227F PUSH1 0x20 DUP4 ADD DUP8 PUSH2 0x1C8A JUMP JUMPDEST PUSH2 0x228C PUSH1 0x40 DUP4 ADD DUP7 PUSH2 0x1C8A JUMP JUMPDEST PUSH2 0x2299 PUSH1 0x60 DUP4 ADD DUP6 PUSH2 0x1C8A JUMP JUMPDEST PUSH2 0x22A6 PUSH1 0x80 DUP4 ADD DUP5 PUSH2 0x1C8A JUMP JUMPDEST SWAP7 SWAP6 POP POP POP POP POP POP JUMP JUMPDEST PUSH32 0x52656E657720796F7572206465616C657220706C616E00000000000000000000 PUSH1 0x0 DUP3 ADD MSTORE POP JUMP JUMPDEST PUSH1 0x0 PUSH2 0x22E6 PUSH1 0x16 DUP4 PUSH2 0x1F0B JUMP JUMPDEST SWAP2 POP PUSH2 0x22F1 DUP3 PUSH2 0x22B0 JUMP JUMPDEST PUSH1 0x20 DUP3 ADD SWAP1 POP SWAP2 SWAP1 POP JUMP JUMPDEST PUSH1 0x0 PUSH1 0x20 DUP3 ADD SWAP1 POP DUP2 DUP2 SUB PUSH1 0x0 DUP4 ADD MSTORE PUSH2 0x2315 DUP2 PUSH2 0x22D9 JUMP JUMPDEST SWAP1 POP SWAP2 SWAP1 POP JUMP JUMPDEST PUSH32 0x4E487B7100000000000000000000000000000000000000000000000000000000 PUSH1 0x0 MSTORE PUSH1 0x21 PUSH1 0x4 MSTORE PUSH1 0x24 PUSH1 0x0 REVERT JUMPDEST PUSH32 0x4163636573732064656E6965642C204F6E6C79206F776E657220697320616C6C PUSH1 0x0 DUP3 ADD MSTORE PUSH32 0x6F77656421000000000000000000000000000000000000000000000000000000 PUSH1 0x20 DUP3 ADD MSTORE POP JUMP JUMPDEST PUSH1 0x0 PUSH2 0x23A7 PUSH1 0x25 DUP4 PUSH2 0x1F0B JUMP JUMPDEST SWAP2 POP PUSH2 0x23B2 DUP3 PUSH2 0x234B JUMP JUMPDEST PUSH1 0x40 DUP3 ADD SWAP1 POP SWAP2 SWAP1 POP JUMP JUMPDEST PUSH1 0x0 PUSH1 0x20 DUP3 ADD SWAP1 POP DUP2 DUP2 SUB PUSH1 0x0 DUP4 ADD MSTORE PUSH2 0x23D6 DUP2 PUSH2 0x239A JUMP JUMPDEST SWAP1 POP SWAP2 SWAP1 POP JUMP JUMPDEST PUSH1 0x0 PUSH1 0xC0 DUP3 ADD SWAP1 POP PUSH2 0x23F2 PUSH1 0x0 DUP4 ADD DUP10 PUSH2 0x1C8A JUMP JUMPDEST PUSH2 0x23FF PUSH1 0x20 DUP4 ADD DUP9 PUSH2 0x1C8A JUMP JUMPDEST PUSH2 0x240C PUSH1 0x40 DUP4 ADD DUP8 PUSH2 0x1C8A JUMP JUMPDEST PUSH2 0x2419 PUSH1 0x60 DUP4 ADD DUP7 PUSH2 0x1BF8 JUMP JUMPDEST PUSH2 0x2426 PUSH1 0x80 DUP4 ADD DUP6 PUSH2 0x1C8A JUMP JUMPDEST PUSH2 0x2433 PUSH1 0xA0 DUP4 ADD DUP5 PUSH2 0x1BF8 JUMP JUMPDEST SWAP8 SWAP7 POP POP POP POP POP POP POP JUMP JUMPDEST PUSH32 0x526566657272616C206572726F722E0000000000000000000000000000000000 PUSH1 0x0 DUP3 ADD MSTORE POP JUMP JUMPDEST PUSH1 0x0 PUSH2 0x2474 PUSH1 0xF DUP4 PUSH2 0x1F0B JUMP JUMPDEST SWAP2 POP PUSH2 0x247F DUP3 PUSH2 0x243E JUMP JUMPDEST PUSH1 0x20 DUP3 ADD SWAP1 POP SWAP2 SWAP1 POP JUMP JUMPDEST PUSH1 0x0 PUSH1 0x20 DUP3 ADD SWAP1 POP DUP2 DUP2 SUB PUSH1 0x0 DUP4 ADD MSTORE PUSH2 0x24A3 DUP2 PUSH2 0x2467 JUMP JUMPDEST SWAP1 POP SWAP2 SWAP1 POP JUMP JUMPDEST PUSH32 0x4E487B7100000000000000000000000000000000000000000000000000000000 PUSH1 0x0 MSTORE PUSH1 0x11 PUSH1 0x4 MSTORE PUSH1 0x24 PUSH1 0x0 REVERT JUMPDEST PUSH1 0x0 PUSH2 0x24E4 DUP3 PUSH2 0x1C80 JUMP JUMPDEST SWAP2 POP PUSH2 0x24EF DUP4 PUSH2 0x1C80 JUMP JUMPDEST SWAP3 POP DUP3 DUP3 ADD SWAP1 POP DUP1 DUP3 GT ISZERO PUSH2 0x2507 JUMPI PUSH2 0x2506 PUSH2 0x24AA JUMP JUMPDEST JUMPDEST SWAP3 SWAP2 POP POP JUMP JUMPDEST PUSH1 0x0 DUP2 MLOAD SWAP1 POP PUSH2 0x251C DUP2 PUSH2 0x1C27 JUMP JUMPDEST SWAP3 SWAP2 POP POP JUMP JUMPDEST PUSH1 0x0 PUSH1 0x20 DUP3 DUP5 SUB SLT ISZERO PUSH2 0x2538 JUMPI PUSH2 0x2537 PUSH2 0x1C22 JUMP JUMPDEST JUMPDEST PUSH1 0x0 PUSH2 0x2546 DUP5 DUP3 DUP6 ADD PUSH2 0x250D JUMP JUMPDEST SWAP2 POP POP SWAP3 SWAP2 POP POP JUMP JUMPDEST PUSH1 0x0 DUP2 PUSH1 0x1 SHR SWAP1 POP SWAP2 SWAP1 POP JUMP JUMPDEST PUSH1 0x0 DUP1 DUP3 SWAP2 POP DUP4 SWAP1 POP JUMPDEST PUSH1 0x1 DUP6 GT ISZERO PUSH2 0x25A6 JUMPI DUP1 DUP7 DIV DUP2 GT ISZERO PUSH2 0x2582 JUMPI PUSH2 0x2581 PUSH2 0x24AA JUMP JUMPDEST JUMPDEST PUSH1 0x1 DUP6 AND ISZERO PUSH2 0x2591 JUMPI DUP1 DUP3 MUL SWAP2 POP JUMPDEST DUP1 DUP2 MUL SWAP1 POP PUSH2 0x259F DUP6 PUSH2 0x254F JUMP JUMPDEST SWAP5 POP PUSH2 0x2566 JUMP JUMPDEST SWAP5 POP SWAP5 SWAP3 POP POP POP JUMP JUMPDEST PUSH1 0x0 DUP3 PUSH2 0x25BF JUMPI PUSH1 0x1 SWAP1 POP PUSH2 0x267B JUMP JUMPDEST DUP2 PUSH2 0x25CD JUMPI PUSH1 0x0 SWAP1 POP PUSH2 0x267B JUMP JUMPDEST DUP2 PUSH1 0x1 DUP2 EQ PUSH2 0x25E3 JUMPI PUSH1 0x2 DUP2 EQ PUSH2 0x25ED JUMPI PUSH2 0x261C JUMP JUMPDEST PUSH1 0x1 SWAP2 POP POP PUSH2 0x267B JUMP JUMPDEST PUSH1 0xFF DUP5 GT ISZERO PUSH2 0x25FF JUMPI PUSH2 0x25FE PUSH2 0x24AA JUMP JUMPDEST JUMPDEST DUP4 PUSH1 0x2 EXP SWAP2 POP DUP5 DUP3 GT ISZERO PUSH2 0x2616 JUMPI PUSH2 0x2615 PUSH2 0x24AA JUMP JUMPDEST JUMPDEST POP PUSH2 0x267B JUMP JUMPDEST POP PUSH1 0x20 DUP4 LT PUSH2 0x133 DUP4 LT AND PUSH1 0x4E DUP5 LT PUSH1 0xB DUP5 LT AND OR ISZERO PUSH2 0x2651 JUMPI DUP3 DUP3 EXP SWAP1 POP DUP4 DUP2 GT ISZERO PUSH2 0x264C JUMPI PUSH2 0x264B PUSH2 0x24AA JUMP JUMPDEST JUMPDEST PUSH2 0x267B JUMP JUMPDEST PUSH2 0x265E DUP5 DUP5 DUP5 PUSH1 0x1 PUSH2 0x255C JUMP JUMPDEST SWAP3 POP SWAP1 POP DUP2 DUP5 DIV DUP2 GT ISZERO PUSH2 0x2675 JUMPI PUSH2 0x2674 PUSH2 0x24AA JUMP JUMPDEST JUMPDEST DUP2 DUP2 MUL SWAP1 POP JUMPDEST SWAP4 SWAP3 POP POP POP JUMP JUMPDEST PUSH1 0x0 PUSH2 0x268D DUP3 PUSH2 0x1C80 JUMP JUMPDEST SWAP2 POP PUSH2 0x2698 DUP4 PUSH2 0x1C80 JUMP JUMPDEST SWAP3 POP PUSH2 0x26C5 PUSH32 0xFFFFFFFFFFFFFFFFFFFFFFFFFFFFFFFFFFFFFFFFFFFFFFFFFFFFFFFFFFFFFFFF DUP5 DUP5 PUSH2 0x25AF JUMP JUMPDEST SWAP1 POP SWAP3 SWAP2 POP POP JUMP JUMPDEST PUSH32 0x4E487B7100000000000000000000000000000000000000000000000000000000 PUSH1 0x0 MSTORE PUSH1 0x12 PUSH1 0x4 MSTORE PUSH1 0x24 PUSH1 0x0 REVERT JUMPDEST PUSH1 0x0 PUSH2 0x2707 DUP3 PUSH2 0x1C80 JUMP JUMPDEST SWAP2 POP PUSH2 0x2712 DUP4 PUSH2 0x1C80 JUMP JUMPDEST SWAP3 POP DUP3 PUSH2 0x2722 JUMPI PUSH2 0x2721 PUSH2 0x26CD JUMP JUMPDEST JUMPDEST DUP3 DUP3 DIV SWAP1 POP SWAP3 SWAP2 POP POP JUMP JUMPDEST PUSH1 0x0 PUSH2 0x2738 DUP3 PUSH2 0x1C80 JUMP JUMPDEST SWAP2 POP PUSH2 0x2743 DUP4 PUSH2 0x1C80 JUMP JUMPDEST SWAP3 POP DUP3 DUP3 SUB SWAP1 POP DUP2 DUP2 GT ISZERO PUSH2 0x275B JUMPI PUSH2 0x275A PUSH2 0x24AA JUMP JUMPDEST JUMPDEST SWAP3 SWAP2 POP POP JUMP JUMPDEST PUSH1 0x0 PUSH2 0x276C DUP3 PUSH2 0x1C80 JUMP JUMPDEST SWAP2 POP PUSH2 0x2777 DUP4 PUSH2 0x1C80 JUMP JUMPDEST SWAP3 POP DUP3 DUP3 MUL PUSH2 0x2785 DUP2 PUSH2 0x1C80 JUMP JUMPDEST SWAP2 POP DUP3 DUP3 DIV DUP5 EQ DUP4 ISZERO OR PUSH2 0x279C JUMPI PUSH2 0x279B PUSH2 0x24AA JUMP JUMPDEST JUMPDEST POP SWAP3 SWAP2 POP POP JUMP INVALID LOG2 PUSH5 0x6970667358 0x22 SLT KECCAK256 SMOD PUSH28 0xDF1D8DFDD7960536EDAD938D4468EE5DDB356162485CFD497A9C0CA4 PREVRANDAO 0x4F PUSH5 0x736F6C6343 STOP ADDMOD SLT STOP CALLER "
		},
		"gasEstimates": {
			"creation": {
				"codeDepositCost": "2040200",
				"executionCost": "2163",
				"totalCost": "2042363"
			},
			"external": {
				"becomeADealer(address,uint256)": "infinite",
				"becomeADealerWithReferral(address,uint256,address)": "infinite",
				"collectorReward()": "infinite",
				"configureDealersPlan(uint256,uint256,uint256,address,address)": "infinite",
				"dealerCollectorStats()": "infinite",
				"dealerReferralStats(address)": "infinite",
				"getPlanPercentage(address)": "7419",
				"getRewardNextSpill()": "infinite",
				"takeDealerReferralReward(address)": "infinite"
			},
			"internal": {
				"_msgSender()": "22",
				"dealerReferralHelper(address,uint256)": "infinite",
				"dealerReferralHelperWithAReferral(address,address,uint256)": "infinite"
			}
		},
		"methodIdentifiers": {
			"becomeADealer(address,uint256)": "6b667b9b",
			"becomeADealerWithReferral(address,uint256,address)": "f9f11391",
			"collectorReward()": "235eb9f5",
			"configureDealersPlan(uint256,uint256,uint256,address,address)": "a61d6257",
			"dealerCollectorStats()": "ad830443",
			"dealerReferralStats(address)": "468c25a8",
			"getPlanPercentage(address)": "901afb30",
			"getRewardNextSpill()": "1355a306",
			"takeDealerReferralReward(address)": "89499f8d"
		}
	},
	"abi": [
		{
			"anonymous": false,
			"inputs": [
				{
					"indexed": false,
					"internalType": "address",
					"name": "user",
					"type": "address"
				},
				{
					"indexed": false,
					"internalType": "uint256",
					"name": "amount",
					"type": "uint256"
				},
				{
					"indexed": false,
					"internalType": "uint256",
					"name": "time",
					"type": "uint256"
				}
			],
			"name": "DealerCollectorRewarded",
			"type": "event"
		},
		{
			"anonymous": false,
			"inputs": [
				{
					"indexed": false,
					"internalType": "uint256",
					"name": "_plan_a",
					"type": "uint256"
				},
				{
					"indexed": false,
					"internalType": "uint256",
					"name": "_plan_b",
					"type": "uint256"
				},
				{
					"indexed": false,
					"internalType": "uint256",
					"name": "_plan_c",
					"type": "uint256"
				},
				{
					"indexed": false,
					"internalType": "address",
					"name": "_dealerSubcriptionCollector",
					"type": "address"
				},
				{
					"indexed": false,
					"internalType": "uint256",
					"name": "_time",
					"type": "uint256"
				},
				{
					"indexed": false,
					"internalType": "address",
					"name": "_msgSender",
					"type": "address"
				}
			],
			"name": "DealerPlansEdited",
			"type": "event"
		},
		{
			"anonymous": false,
			"inputs": [
				{
					"indexed": false,
					"internalType": "address",
					"name": "user",
					"type": "address"
				},
				{
					"indexed": false,
					"internalType": "address",
					"name": "referredBy",
					"type": "address"
				},
				{
					"indexed": false,
					"internalType": "uint256",
					"name": "time",
					"type": "uint256"
				}
			],
			"name": "DealerReferral",
			"type": "event"
		},
		{
			"anonymous": false,
			"inputs": [
				{
					"indexed": false,
					"internalType": "address",
					"name": "user",
					"type": "address"
				},
				{
					"indexed": false,
					"internalType": "uint256",
					"name": "amount",
					"type": "uint256"
				},
				{
					"indexed": false,
					"internalType": "uint256",
					"name": "time",
					"type": "uint256"
				}
			],
			"name": "DealerRewarded",
			"type": "event"
		},
		{
			"anonymous": false,
			"inputs": [
				{
					"indexed": false,
					"internalType": "address",
					"name": "user",
					"type": "address"
				},
				{
					"indexed": false,
					"internalType": "uint256",
					"name": "amount",
					"type": "uint256"
				},
				{
					"indexed": false,
					"internalType": "uint256",
					"name": "expiryDate",
					"type": "uint256"
				},
				{
					"indexed": false,
					"internalType": "uint256",
					"name": "plan",
					"type": "uint256"
				},
				{
					"indexed": false,
					"internalType": "uint256",
					"name": "time",
					"type": "uint256"
				}
			],
			"name": "DealerSubscribed",
			"type": "event"
		},
		{
			"inputs": [
				{
					"internalType": "address",
					"name": "_dealer",
					"type": "address"
				},
				{
					"internalType": "uint256",
					"name": "_dealerPlan",
					"type": "uint256"
				}
			],
			"name": "becomeADealer",
			"outputs": [],
			"stateMutability": "nonpayable",
			"type": "function"
		},
		{
			"inputs": [
				{
					"internalType": "address",
					"name": "_dealer",
					"type": "address"
				},
				{
					"internalType": "uint256",
					"name": "_dealerPlan",
					"type": "uint256"
				},
				{
					"internalType": "address",
					"name": "_referral",
					"type": "address"
				}
			],
			"name": "becomeADealerWithReferral",
			"outputs": [],
			"stateMutability": "nonpayable",
			"type": "function"
		},
		{
			"inputs": [],
			"name": "collectorReward",
			"outputs": [],
			"stateMutability": "nonpayable",
			"type": "function"
		},
		{
			"inputs": [
				{
					"internalType": "uint256",
					"name": "_plan_a",
					"type": "uint256"
				},
				{
					"internalType": "uint256",
					"name": "_plan_b",
					"type": "uint256"
				},
				{
					"internalType": "uint256",
					"name": "_plan_c",
					"type": "uint256"
				},
				{
					"internalType": "address",
					"name": "_token_addres",
					"type": "address"
				},
				{
					"internalType": "address",
					"name": "_dealerSubcriptionCollector",
					"type": "address"
				}
			],
			"name": "configureDealersPlan",
			"outputs": [],
			"stateMutability": "nonpayable",
			"type": "function"
		},
		{
			"inputs": [],
			"name": "dealerCollectorStats",
			"outputs": [
				{
					"internalType": "uint256",
					"name": "_amount",
					"type": "uint256"
				},
				{
					"internalType": "uint256",
					"name": "_totalTaken",
					"type": "uint256"
				}
			],
			"stateMutability": "view",
			"type": "function"
		},
		{
			"inputs": [
				{
					"internalType": "address",
					"name": "user",
					"type": "address"
				}
			],
			"name": "dealerReferralStats",
			"outputs": [
				{
					"internalType": "uint256",
					"name": "_count",
					"type": "uint256"
				},
				{
					"internalType": "uint256",
					"name": "_amount",
					"type": "uint256"
				},
				{
					"internalType": "uint256",
					"name": "_totalTaken",
					"type": "uint256"
				}
			],
			"stateMutability": "view",
			"type": "function"
		},
		{
			"inputs": [
				{
					"internalType": "address",
					"name": "_dealer",
					"type": "address"
				}
			],
			"name": "getPlanPercentage",
			"outputs": [
				{
					"internalType": "uint256",
					"name": "",
					"type": "uint256"
				}
			],
			"stateMutability": "view",
			"type": "function"
		},
		{
			"inputs": [],
			"name": "getRewardNextSpill",
			"outputs": [
				{
					"internalType": "address",
					"name": "",
					"type": "address"
				}
			],
			"stateMutability": "nonpayable",
			"type": "function"
		},
		{
			"inputs": [
				{
					"internalType": "address",
					"name": "user",
					"type": "address"
				}
			],
			"name": "takeDealerReferralReward",
			"outputs": [],
			"stateMutability": "nonpayable",
			"type": "function"
		}
	]
}