{
	"data": {
		"bytecode": {
			"linkReferences": {},
			"object": "608060405234801561000f575f80fd5b50614c148061001d5f395ff3fe6080604052600436106100e0575f3560e01c80636330112f1161007e578063b96ddd4211610058578063b96ddd4214610285578063c540a80c146102ad578063ce17ff3c146102ee578063f2dc71e714610316576100e7565b80636330112f146101f557806369fe0e2d1461021d578063b8355d9914610245576100e7565b806331a77a13116100ba57806331a77a1314610161578063342d2555146101895780633be15cf8146101b15780635aa58817146101cd576100e7565b80630565789b146100e95780630f56add4146101115780632c22551a14610139576100e7565b366100e757005b005b3480156100f4575f80fd5b5061010f600480360381019061010a9190613df9565b610332565b005b34801561011c575f80fd5b5061013760048036038101906101329190613e53565b6108d6565b005b348015610144575f80fd5b5061015f600480360381019061015a9190613e53565b610992565b005b34801561016c575f80fd5b5061018760048036038101906101829190613df9565b610f27565b005b348015610194575f80fd5b506101af60048036038101906101aa9190613ef4565b6114c5565b005b6101cb60048036038101906101c69190613e53565b611692565b005b3480156101d8575f80fd5b506101f360048036038101906101ee9190613f60565b611bea565b005b348015610200575f80fd5b5061021b60048036038101906102169190613fba565b611db6565b005b348015610228575f80fd5b50610243600480360381019061023e9190614026565b612301565b005b348015610250575f80fd5b5061026b60048036038101906102669190613e53565b612387565b60405161027c959493929190614060565b60405180910390f35b348015610290575f80fd5b506102ab60048036038101906102a69190613e53565b612465565b005b3480156102b8575f80fd5b506102d360048036038101906102ce91906140b1565b612a56565b6040516102e59695949392919061410b565b60405180910390f35b3480156102f9575f80fd5b50610314600480360381019061030f9190613df9565b612c7d565b005b610330600480360381019061032b9190613df9565b613277565b005b5f8211610374576040517f08c379a000000000000000000000000000000000000000000000000000000000815260040161036b906141c4565b60405180910390fd5b606561037f82613776565b60405161038c919061424e565b90815260200160405180910390205f9054906101000a900460ff166103e6576040517f08c379a00000000000000000000000000000000000000000000000000000000081526004016103dd906142ae565b60405180910390fd5b610436605a6103f483613776565b604051610401919061424e565b90815260200160405180910390205f9054906101000a900473ffffffffffffffffffffffffffffffffffffffff168330613805565b5f3090505f8173ffffffffffffffffffffffffffffffffffffffff1663fe2c6198846040518263ffffffff1660e01b8152600401610474919061430e565b602060405180830381865afa15801561048f573d5f803e3d5ffd5b505050506040513d601f19601f820116820180604052508101906104b39190614342565b90505f6104c282866001613990565b905061055385605c5f6104d36139cb565b73ffffffffffffffffffffffffffffffffffffffff1673ffffffffffffffffffffffffffffffffffffffff1681526020019081526020015f2061051587613776565b604051610522919061424e565b90815260200160405180910390205f60011515151581526020019081526020015f20546139d290919063ffffffff16565b605c5f61055e6139cb565b73ffffffffffffffffffffffffffffffffffffffff1673ffffffffffffffffffffffffffffffffffffffff1681526020019081526020015f206105a086613776565b6040516105ad919061424e565b90815260200160405180910390205f60011515151581526020019081526020015f208190555061062085605d6105e287613776565b6040516105ef919061424e565b90815260200160405180910390205f60011515151581526020019081526020015f20546139d290919063ffffffff16565b605d61062b86613776565b604051610638919061424e565b90815260200160405180910390205f60011515151581526020019081526020015f20819055505f610674605e54836139e790919063ffffffff16565b90506106af81606061068588613776565b604051610692919061424e565b9081526020016040518091039020546139d290919063ffffffff16565b60606106ba87613776565b6040516106c7919061424e565b9081526020016040518091039020819055508160626106e587613776565b6040516106f2919061424e565b9081526020016040518091039020541015610742576040517f08c379a0000000000000000000000000000000000000000000000000000000008152600401610739906143b7565b60405180910390fd5b61077b82606261075188613776565b60405161075e919061424e565b908152602001604051809103902054613a1e90919063ffffffff16565b606261078687613776565b604051610793919061424e565b9081526020016040518091039020819055506107de8660616107b488613776565b6040516107c1919061424e565b9081526020016040518091039020546139d290919063ffffffff16565b60616107e987613776565b6040516107f6919061424e565b90815260200160405180910390208190555061087161081e8284613a1e90919063ffffffff16565b6108266139cb565b605b61083189613776565b60405161083e919061424e565b90815260200160405180910390205f9054906101000a900473ffffffffffffffffffffffffffffffffffffffff16613a33565b7f757c5e4bdcf31b72f454b6592d3939c4919cbb2212e5dc5e84141ebf369d54c361089a6139cb565b876108ae8486613a1e90919063ffffffff16565b600142868b6040516108c697969594939291906143fe565b60405180910390a1505050505050565b6108de613af2565b73ffffffffffffffffffffffffffffffffffffffff166108fc6139cb565b73ffffffffffffffffffffffffffffffffffffffff1614610952576040517f08c379a0000000000000000000000000000000000000000000000000000000008152600401610949906144e2565b60405180910390fd5b5f606561095e83613776565b60405161096b919061424e565b90815260200160405180910390205f6101000a81548160ff02191690831515021790555050565b606561099d82613776565b6040516109aa919061424e565b90815260200160405180910390205f9054906101000a900460ff16610a04576040517f08c379a00000000000000000000000000000000000000000000000000000000081526004016109fb906142ae565b60405180910390fd5b5f6063610a1083613776565b604051610a1d919061424e565b90815260200160405180910390205f610a346139cb565b73ffffffffffffffffffffffffffffffffffffffff1673ffffffffffffffffffffffffffffffffffffffff1681526020019081526020015f205411610aae576040517f08c379a0000000000000000000000000000000000000000000000000000000008152600401610aa59061454a565b60405180910390fd5b5f6064610aba83613776565b604051610ac7919061424e565b90815260200160405180910390205f610ade6139cb565b73ffffffffffffffffffffffffffffffffffffffff1673ffffffffffffffffffffffffffffffffffffffff1681526020019081526020015f205411610b58576040517f08c379a0000000000000000000000000000000000000000000000000000000008152600401610b4f9061454a565b60405180910390fd5b5f610bf16061610b6784613776565b604051610b74919061424e565b9081526020016040518091039020546063610b8e85613776565b604051610b9b919061424e565b90815260200160405180910390205f610bb26139cb565b73ffffffffffffffffffffffffffffffffffffffff1673ffffffffffffffffffffffffffffffffffffffff1681526020019081526020015f2054613b23565b90505f610c8c6062610c0285613776565b604051610c0f919061424e565b9081526020016040518091039020546064610c2986613776565b604051610c36919061424e565b90815260200160405180910390205f610c4d6139cb565b73ffffffffffffffffffffffffffffffffffffffff1673ffffffffffffffffffffffffffffffffffffffff1681526020019081526020015f2054613b23565b9050610cc7826061610c9d86613776565b604051610caa919061424e565b908152602001604051809103902054613a1e90919063ffffffff16565b6061610cd285613776565b604051610cdf919061424e565b908152602001604051809103902081905550610d2a816062610d0086613776565b604051610d0d919061424e565b908152602001604051809103902054613a1e90919063ffffffff16565b6062610d3585613776565b604051610d42919061424e565b9081526020016040518091039020819055505f6064610d6085613776565b604051610d6d919061424e565b90815260200160405180910390205f610d846139cb565b73ffffffffffffffffffffffffffffffffffffffff1673ffffffffffffffffffffffffffffffffffffffff1681526020019081526020015f20819055505f6063610dcd85613776565b604051610dda919061424e565b90815260200160405180910390205f610df16139cb565b73ffffffffffffffffffffffffffffffffffffffff1673ffffffffffffffffffffffffffffffffffffffff1681526020019081526020015f2081905550610e8581610e3a6139cb565b605b610e4587613776565b604051610e52919061424e565b90815260200160405180910390205f9054906101000a900473ffffffffffffffffffffffffffffffffffffffff16613a33565b610edc82610e916139cb565b605a610e9c87613776565b604051610ea9919061424e565b90815260200160405180910390205f9054906101000a900473ffffffffffffffffffffffffffffffffffffffff16613a33565b7f0f8fd1f1d6808723922aff612e9551226a6382252bc96ca9fc5638186d7926f7610f056139cb565b83838642604051610f1a959493929190614568565b60405180910390a1505050565b5f3090506065610f3683613776565b604051610f43919061424e565b90815260200160405180910390205f9054906101000a900460ff16610f9d576040517f08c379a0000000000000000000000000000000000000000000000000000000008152600401610f94906142ae565b60405180910390fd5b5f8311610fdf576040517f08c379a0000000000000000000000000000000000000000000000000000000008152600401610fd6906141c4565b60405180910390fd5b61102f605b610fed84613776565b604051610ffa919061424e565b90815260200160405180910390205f9054906101000a900473ffffffffffffffffffffffffffffffffffffffff168430613805565b5f8173ffffffffffffffffffffffffffffffffffffffff1663fe2c6198846040518263ffffffff1660e01b8152600401611069919061430e565b602060405180830381865afa158015611084573d5f803e3d5ffd5b505050506040513d601f19601f820116820180604052508101906110a89190614342565b90505f6110b682865f613990565b905061114685605c5f6110c76139cb565b73ffffffffffffffffffffffffffffffffffffffff1673ffffffffffffffffffffffffffffffffffffffff1681526020019081526020015f2061110987613776565b604051611116919061424e565b90815260200160405180910390205f801515151581526020019081526020015f20546139d290919063ffffffff16565b605c5f6111516139cb565b73ffffffffffffffffffffffffffffffffffffffff1673ffffffffffffffffffffffffffffffffffffffff1681526020019081526020015f2061119386613776565b6040516111a0919061424e565b90815260200160405180910390205f801515151581526020019081526020015f208190555061121185605d6111d487613776565b6040516111e1919061424e565b90815260200160405180910390205f801515151581526020019081526020015f20546139d290919063ffffffff16565b605d61121c86613776565b604051611229919061424e565b90815260200160405180910390205f801515151581526020019081526020015f20819055505f611264605e54836139e790919063ffffffff16565b905061129f81605f61127588613776565b604051611282919061424e565b9081526020016040518091039020546139d290919063ffffffff16565b605f6112aa87613776565b6040516112b7919061424e565b9081526020016040518091039020819055508160616112d587613776565b6040516112e2919061424e565b9081526020016040518091039020541015611332576040517f08c379a0000000000000000000000000000000000000000000000000000000008152600401611329906143b7565b60405180910390fd5b61136b82606161134188613776565b60405161134e919061424e565b908152602001604051809103902054613a1e90919063ffffffff16565b606161137687613776565b604051611383919061424e565b9081526020016040518091039020819055506113ce8660626113a488613776565b6040516113b1919061424e565b9081526020016040518091039020546139d290919063ffffffff16565b60626113d987613776565b6040516113e6919061424e565b90815260200160405180910390208190555061146161140e8284613a1e90919063ffffffff16565b6114166139cb565b605a61142189613776565b60405161142e919061424e565b90815260200160405180910390205f9054906101000a900473ffffffffffffffffffffffffffffffffffffffff16613a33565b7f757c5e4bdcf31b72f454b6592d3939c4919cbb2212e5dc5e84141ebf369d54c361148a6139cb565b8761149e8486613a1e90919063ffffffff16565b5f42868b6040516114b597969594939291906143fe565b60405180910390a1505050505050565b6114cd613af2565b73ffffffffffffffffffffffffffffffffffffffff166114eb6139cb565b73ffffffffffffffffffffffffffffffffffffffff1614611541576040517f08c379a0000000000000000000000000000000000000000000000000000000008152600401611538906144e2565b60405180910390fd5b81605b61154d85613776565b60405161155a919061424e565b90815260200160405180910390205f6101000a81548173ffffffffffffffffffffffffffffffffffffffff021916908373ffffffffffffffffffffffffffffffffffffffff16021790555080605a6115b185613776565b6040516115be919061424e565b90815260200160405180910390205f6101000a81548173ffffffffffffffffffffffffffffffffffffffff021916908373ffffffffffffffffffffffffffffffffffffffff1602179055506001606561161685613776565b604051611623919061424e565b90815260200160405180910390205f6101000a81548160ff0219169083151502179055507fdcb3ddd91be08847be3b7c72e8882e56550debba4295ae4afe36c8d1b52e53bf8383836116736139cb565b426040516116859594939291906145c0565b60405180910390a1505050565b606561169d82613776565b6040516116aa919061424e565b90815260200160405180910390205f9054906101000a900460ff16611704576040517f08c379a00000000000000000000000000000000000000000000000000000000081526004016116fb906142ae565b60405180910390fd5b5f3490505f811161174a576040517f08c379a0000000000000000000000000000000000000000000000000000000008152600401611741906141c4565b60405180910390fd5b5f3090505f8173ffffffffffffffffffffffffffffffffffffffff1663fe2c6198856040518263ffffffff1660e01b8152600401611788919061430e565b602060405180830381865afa1580156117a3573d5f803e3d5ffd5b505050506040513d601f19601f820116820180604052508101906117c79190614342565b90505f6117d682856001613990565b905061186784605c5f6117e76139cb565b73ffffffffffffffffffffffffffffffffffffffff1673ffffffffffffffffffffffffffffffffffffffff1681526020019081526020015f2061182988613776565b604051611836919061424e565b90815260200160405180910390205f60011515151581526020019081526020015f20546139d290919063ffffffff16565b605c5f6118726139cb565b73ffffffffffffffffffffffffffffffffffffffff1673ffffffffffffffffffffffffffffffffffffffff1681526020019081526020015f206118b487613776565b6040516118c1919061424e565b90815260200160405180910390205f60011515151581526020019081526020015f208190555061193484605d6118f688613776565b604051611903919061424e565b90815260200160405180910390205f60011515151581526020019081526020015f20546139d290919063ffffffff16565b605d61193f87613776565b60405161194c919061424e565b90815260200160405180910390205f60011515151581526020019081526020015f20819055505f611988605e54836139e790919063ffffffff16565b90506119c381606061199989613776565b6040516119a6919061424e565b9081526020016040518091039020546139d290919063ffffffff16565b60606119ce88613776565b6040516119db919061424e565b9081526020016040518091039020819055508160626119f988613776565b604051611a06919061424e565b9081526020016040518091039020541015611a56576040517f08c379a0000000000000000000000000000000000000000000000000000000008152600401611a4d906143b7565b60405180910390fd5b611a8f826062611a6589613776565b604051611a72919061424e565b908152602001604051809103902054613a1e90919063ffffffff16565b6062611a9a88613776565b604051611aa7919061424e565b908152602001604051809103902081905550611af2856061611ac889613776565b604051611ad5919061424e565b9081526020016040518091039020546139d290919063ffffffff16565b6061611afd88613776565b604051611b0a919061424e565b908152602001604051809103902081905550611b85611b328284613a1e90919063ffffffff16565b611b3a6139cb565b605b611b458a613776565b604051611b52919061424e565b90815260200160405180910390205f9054906101000a900473ffffffffffffffffffffffffffffffffffffffff16613a33565b7f757c5e4bdcf31b72f454b6592d3939c4919cbb2212e5dc5e84141ebf369d54c3611bae6139cb565b86611bc28486613a1e90919063ffffffff16565b600142868c604051611bda97969594939291906143fe565b60405180910390a1505050505050565b611bf2613af2565b73ffffffffffffffffffffffffffffffffffffffff16611c106139cb565b73ffffffffffffffffffffffffffffffffffffffff1614611c66576040517f08c379a0000000000000000000000000000000000000000000000000000000008152600401611c5d906144e2565b60405180910390fd5b80605b611c7284613776565b604051611c7f919061424e565b90815260200160405180910390205f6101000a81548173ffffffffffffffffffffffffffffffffffffffff021916908373ffffffffffffffffffffffffffffffffffffffff1602179055505f605a611cd684613776565b604051611ce3919061424e565b90815260200160405180910390205f6101000a81548173ffffffffffffffffffffffffffffffffffffffff021916908373ffffffffffffffffffffffffffffffffffffffff16021790555060016065611d3b84613776565b604051611d48919061424e565b90815260200160405180910390205f6101000a81548160ff0219169083151502179055507fdcb3ddd91be08847be3b7c72e8882e56550debba4295ae4afe36c8d1b52e53bf82825f611d986139cb565b42604051611daa9594939291906145c0565b60405180910390a15050565b6065611dc182613776565b604051611dce919061424e565b90815260200160405180910390205f9054906101000a900460ff16611e28576040517f08c379a0000000000000000000000000000000000000000000000000000000008152600401611e1f906142ae565b60405180910390fd5b5f8311611e6a576040517f08c379a0000000000000000000000000000000000000000000000000000000008152600401611e61906141c4565b60405180910390fd5b5f8211611eac576040517f08c379a0000000000000000000000000000000000000000000000000000000008152600401611ea3906141c4565b60405180910390fd5b5f3090505f8173ffffffffffffffffffffffffffffffffffffffff1663fe2c6198846040518263ffffffff1660e01b8152600401611eea919061430e565b602060405180830381865afa158015611f05573d5f803e3d5ffd5b505050506040513d601f19601f82011682018060405250810190611f299190614342565b905083611f3f8287613b6090919063ffffffff16565b1015611f80576040517f08c379a0000000000000000000000000000000000000000000000000000000008152600401611f7790614662565b60405180910390fd5b611fd0605b611f8e85613776565b604051611f9b919061424e565b90815260200160405180910390205f9054906101000a900473ffffffffffffffffffffffffffffffffffffffff168530613805565b612020605a611fde85613776565b604051611feb919061424e565b90815260200160405180910390205f9054906101000a900473ffffffffffffffffffffffffffffffffffffffff168630613805565b61209b85606361202f86613776565b60405161203c919061424e565b90815260200160405180910390205f6120536139cb565b73ffffffffffffffffffffffffffffffffffffffff1673ffffffffffffffffffffffffffffffffffffffff1681526020019081526020015f20546139d290919063ffffffff16565b60636120a685613776565b6040516120b3919061424e565b90815260200160405180910390205f6120ca6139cb565b73ffffffffffffffffffffffffffffffffffffffff1673ffffffffffffffffffffffffffffffffffffffff1681526020019081526020015f208190555061218284606461211686613776565b604051612123919061424e565b90815260200160405180910390205f61213a6139cb565b73ffffffffffffffffffffffffffffffffffffffff1673ffffffffffffffffffffffffffffffffffffffff1681526020019081526020015f20546139d290919063ffffffff16565b606461218d85613776565b60405161219a919061424e565b90815260200160405180910390205f6121b16139cb565b73ffffffffffffffffffffffffffffffffffffffff1673ffffffffffffffffffffffffffffffffffffffff1681526020019081526020015f20819055506122278460626121fd86613776565b60405161220a919061424e565b9081526020016040518091039020546139d290919063ffffffff16565b606261223285613776565b60405161223f919061424e565b90815260200160405180910390208190555061228a85606161226086613776565b60405161226d919061424e565b9081526020016040518091039020546139d290919063ffffffff16565b606161229585613776565b6040516122a2919061424e565b9081526020016040518091039020819055507f2680fc9628b60dd57e64abbe75bf2e7abe12d8f2feed8dc8fb343cd3e46baaf66122dd6139cb565b868686426040516122f2959493929190614568565b60405180910390a15050505050565b612309613af2565b73ffffffffffffffffffffffffffffffffffffffff166123276139cb565b73ffffffffffffffffffffffffffffffffffffffff161461237d576040517f08c379a0000000000000000000000000000000000000000000000000000000008152600401612374906144e2565b60405180910390fd5b80605e8190555050565b5f805f805f605d61239787613776565b6040516123a4919061424e565b90815260200160405180910390205f60011515151581526020019081526020015f2054605d6123d288613776565b6040516123df919061424e565b90815260200160405180910390205f801515151581526020019081526020015f2054605f61240c89613776565b604051612419919061424e565b90815260200160405180910390205460606124338a613776565b604051612440919061424e565b908152602001604051809103902054605e549450945094509450945091939590929450565b606561247082613776565b60405161247d919061424e565b90815260200160405180910390205f9054906101000a900460ff166124d7576040517f08c379a00000000000000000000000000000000000000000000000000000000081526004016124ce906142ae565b60405180910390fd5b5f60636124e383613776565b6040516124f0919061424e565b90815260200160405180910390205f6125076139cb565b73ffffffffffffffffffffffffffffffffffffffff1673ffffffffffffffffffffffffffffffffffffffff1681526020019081526020015f205411612581576040517f08c379a00000000000000000000000000000000000000000000000000000000081526004016125789061454a565b60405180910390fd5b5f606461258d83613776565b60405161259a919061424e565b90815260200160405180910390205f6125b16139cb565b73ffffffffffffffffffffffffffffffffffffffff1673ffffffffffffffffffffffffffffffffffffffff1681526020019081526020015f20541161262b576040517f08c379a00000000000000000000000000000000000000000000000000000000081526004016126229061454a565b60405180910390fd5b5f6126c4606161263a84613776565b604051612647919061424e565b908152602001604051809103902054606361266185613776565b60405161266e919061424e565b90815260200160405180910390205f6126856139cb565b73ffffffffffffffffffffffffffffffffffffffff1673ffffffffffffffffffffffffffffffffffffffff1681526020019081526020015f2054613b23565b90505f61275f60626126d585613776565b6040516126e2919061424e565b90815260200160405180910390205460646126fc86613776565b604051612709919061424e565b90815260200160405180910390205f6127206139cb565b73ffffffffffffffffffffffffffffffffffffffff1673ffffffffffffffffffffffffffffffffffffffff1681526020019081526020015f2054613b23565b905061279a82606161277086613776565b60405161277d919061424e565b908152602001604051809103902054613a1e90919063ffffffff16565b60616127a585613776565b6040516127b2919061424e565b9081526020016040518091039020819055506127fd8160626127d386613776565b6040516127e0919061424e565b908152602001604051809103902054613a1e90919063ffffffff16565b606261280885613776565b604051612815919061424e565b9081526020016040518091039020819055505f606461283385613776565b604051612840919061424e565b90815260200160405180910390205f6128576139cb565b73ffffffffffffffffffffffffffffffffffffffff1673ffffffffffffffffffffffffffffffffffffffff1681526020019081526020015f20819055505f60636128a085613776565b6040516128ad919061424e565b90815260200160405180910390205f6128c46139cb565b73ffffffffffffffffffffffffffffffffffffffff1673ffffffffffffffffffffffffffffffffffffffff1681526020019081526020015f20819055506129588161290d6139cb565b605b61291887613776565b604051612925919061424e565b90815260200160405180910390205f9054906101000a900473ffffffffffffffffffffffffffffffffffffffff16613a33565b5f806129626139cb565b73ffffffffffffffffffffffffffffffffffffffff1684604051612985906146a3565b5f6040518083038185875af1925050503d805f81146129bf576040519150601f19603f3d011682016040523d82523d5f602084013e6129c4565b606091505b509150915081612a09576040517f08c379a0000000000000000000000000000000000000000000000000000000008152600401612a0090614701565b60405180910390fd5b7f0f8fd1f1d6808723922aff612e9551226a6382252bc96ca9fc5638186d7926f7612a326139cb565b85858842604051612a47959493929190614568565b60405180910390a15050505050565b5f805f805f80605c5f8973ffffffffffffffffffffffffffffffffffffffff1673ffffffffffffffffffffffffffffffffffffffff1681526020019081526020015f20612aa288613776565b604051612aaf919061424e565b90815260200160405180910390205f60011515151581526020019081526020015f2054605c5f8a73ffffffffffffffffffffffffffffffffffffffff1673ffffffffffffffffffffffffffffffffffffffff1681526020019081526020015f20612b1889613776565b604051612b25919061424e565b90815260200160405180910390205f801515151581526020019081526020015f20546061612b528a613776565b604051612b5f919061424e565b9081526020016040518091039020546062612b798b613776565b604051612b86919061424e565b9081526020016040518091039020546063612ba08c613776565b604051612bad919061424e565b90815260200160405180910390205f612bc46139cb565b73ffffffffffffffffffffffffffffffffffffffff1673ffffffffffffffffffffffffffffffffffffffff1681526020019081526020015f20546064612c098d613776565b604051612c16919061424e565b90815260200160405180910390205f612c2d6139cb565b73ffffffffffffffffffffffffffffffffffffffff1673ffffffffffffffffffffffffffffffffffffffff1681526020019081526020015f20549550955095509550955095509295509295509295565b5f3090506065612c8c83613776565b604051612c99919061424e565b90815260200160405180910390205f9054906101000a900460ff16612cf3576040517f08c379a0000000000000000000000000000000000000000000000000000000008152600401612cea906142ae565b60405180910390fd5b5f8311612d35576040517f08c379a0000000000000000000000000000000000000000000000000000000008152600401612d2c906141c4565b60405180910390fd5b612d85605b612d4384613776565b604051612d50919061424e565b90815260200160405180910390205f9054906101000a900473ffffffffffffffffffffffffffffffffffffffff168430613805565b5f8173ffffffffffffffffffffffffffffffffffffffff1663fe2c6198846040518263ffffffff1660e01b8152600401612dbf919061430e565b602060405180830381865afa158015612dda573d5f803e3d5ffd5b505050506040513d601f19601f82011682018060405250810190612dfe9190614342565b90505f612e0c82865f613990565b9050612e9c85605c5f612e1d6139cb565b73ffffffffffffffffffffffffffffffffffffffff1673ffffffffffffffffffffffffffffffffffffffff1681526020019081526020015f20612e5f87613776565b604051612e6c919061424e565b90815260200160405180910390205f801515151581526020019081526020015f20546139d290919063ffffffff16565b605c5f612ea76139cb565b73ffffffffffffffffffffffffffffffffffffffff1673ffffffffffffffffffffffffffffffffffffffff1681526020019081526020015f20612ee986613776565b604051612ef6919061424e565b90815260200160405180910390205f801515151581526020019081526020015f2081905550612f6785605d612f2a87613776565b604051612f37919061424e565b90815260200160405180910390205f801515151581526020019081526020015f20546139d290919063ffffffff16565b605d612f7286613776565b604051612f7f919061424e565b90815260200160405180910390205f801515151581526020019081526020015f20819055505f612fba605e54836139e790919063ffffffff16565b9050612ff581605f612fcb88613776565b604051612fd8919061424e565b9081526020016040518091039020546139d290919063ffffffff16565b605f61300087613776565b60405161300d919061424e565b90815260200160405180910390208190555081606161302b87613776565b604051613038919061424e565b9081526020016040518091039020541015613088576040517f08c379a000000000000000000000000000000000000000000000000000000000815260040161307f906143b7565b60405180910390fd5b6130c182606161309788613776565b6040516130a4919061424e565b908152602001604051809103902054613a1e90919063ffffffff16565b60616130cc87613776565b6040516130d9919061424e565b9081526020016040518091039020819055506131248660626130fa88613776565b604051613107919061424e565b9081526020016040518091039020546139d290919063ffffffff16565b606261312f87613776565b60405161313c919061424e565b9081526020016040518091039020819055505f806131586139cb565b73ffffffffffffffffffffffffffffffffffffffff166131818486613a1e90919063ffffffff16565b60405161318d906146a3565b5f6040518083038185875af1925050503d805f81146131c7576040519150601f19603f3d011682016040523d82523d5f602084013e6131cc565b606091505b509150915081613211576040517f08c379a000000000000000000000000000000000000000000000000000000000815260040161320890614701565b60405180910390fd5b7f757c5e4bdcf31b72f454b6592d3939c4919cbb2212e5dc5e84141ebf369d54c361323a6139cb565b8961324e8688613a1e90919063ffffffff16565b5f42888d60405161326597969594939291906143fe565b60405180910390a15050505050505050565b606561328282613776565b60405161328f919061424e565b90815260200160405180910390205f9054906101000a900460ff166132e9576040517f08c379a00000000000000000000000000000000000000000000000000000000081526004016132e0906142ae565b60405180910390fd5b5f3490505f811161332f576040517f08c379a0000000000000000000000000000000000000000000000000000000008152600401613326906141c4565b60405180910390fd5b5f8311613371576040517f08c379a0000000000000000000000000000000000000000000000000000000008152600401613368906141c4565b60405180910390fd5b5f3090505f8173ffffffffffffffffffffffffffffffffffffffff1663fe2c6198856040518263ffffffff1660e01b81526004016133af919061430e565b602060405180830381865afa1580156133ca573d5f803e3d5ffd5b505050506040513d601f19601f820116820180604052508101906133ee9190614342565b9050846134048285613b6090919063ffffffff16565b1015613445576040517f08c379a000000000000000000000000000000000000000000000000000000000815260040161343c90614662565b60405180910390fd5b613495605b61345386613776565b604051613460919061424e565b90815260200160405180910390205f9054906101000a900473ffffffffffffffffffffffffffffffffffffffff168630613805565b6135108360636134a487613776565b6040516134b1919061424e565b90815260200160405180910390205f6134c86139cb565b73ffffffffffffffffffffffffffffffffffffffff1673ffffffffffffffffffffffffffffffffffffffff1681526020019081526020015f20546139d290919063ffffffff16565b606361351b86613776565b604051613528919061424e565b90815260200160405180910390205f61353f6139cb565b73ffffffffffffffffffffffffffffffffffffffff1673ffffffffffffffffffffffffffffffffffffffff1681526020019081526020015f20819055506135f785606461358b87613776565b604051613598919061424e565b90815260200160405180910390205f6135af6139cb565b73ffffffffffffffffffffffffffffffffffffffff1673ffffffffffffffffffffffffffffffffffffffff1681526020019081526020015f20546139d290919063ffffffff16565b606461360286613776565b60405161360f919061424e565b90815260200160405180910390205f6136266139cb565b73ffffffffffffffffffffffffffffffffffffffff1673ffffffffffffffffffffffffffffffffffffffff1681526020019081526020015f208190555061369c85606261367287613776565b60405161367f919061424e565b9081526020016040518091039020546139d290919063ffffffff16565b60626136a786613776565b6040516136b4919061424e565b9081526020016040518091039020819055506136ff8360616136d587613776565b6040516136e2919061424e565b9081526020016040518091039020546139d290919063ffffffff16565b606161370a86613776565b604051613717919061424e565b9081526020016040518091039020819055507f2680fc9628b60dd57e64abbe75bf2e7abe12d8f2feed8dc8fb343cd3e46baaf66137526139cb565b84878742604051613767959493929190614568565b60405180910390a15050505050565b60605f8290505f5b81518110156137fb576137ad82828151811061379d5761379c61471f565b5b602001015160f81c60f81b613b9e565b8282815181106137c0576137bf61471f565b5b60200101907effffffffffffffffffffffffffffffffffffffffffffffffffffffffffffff191690815f1a905350808060010191505061377e565b5080915050919050565b818373ffffffffffffffffffffffffffffffffffffffff1663dd62ed3e61382a6139cb565b846040518363ffffffff1660e01b815260040161384892919061474c565b602060405180830381865afa158015613863573d5f803e3d5ffd5b505050506040513d601f19601f820116820180604052508101906138879190614342565b10156138c8576040517f08c379a00000000000000000000000000000000000000000000000000000000081526004016138bf906147bd565b60405180910390fd5b8273ffffffffffffffffffffffffffffffffffffffff166323b872dd6138ec6139cb565b83856040518463ffffffff1660e01b815260040161390c939291906147db565b6020604051808303815f875af1158015613928573d5f803e3d5ffd5b505050506040513d601f19601f8201168201806040525081019061394c919061483a565b61398b576040517f08c379a0000000000000000000000000000000000000000000000000000000008152600401613982906148af565b60405180910390fd5b505050565b5f816139ae576139a984846139e790919063ffffffff16565b6139c2565b6139c18484613b6090919063ffffffff16565b5b90509392505050565b5f33905090565b5f81836139df91906148fa565b905092915050565b5f601260ff16600a6139f99190614a5c565b613a0c8385613c2390919063ffffffff16565b613a169190614ad3565b905092915050565b5f8183613a2b9190614b03565b905092915050565b8073ffffffffffffffffffffffffffffffffffffffff1663a9059cbb83856040518363ffffffff1660e01b8152600401613a6e929190614b36565b6020604051808303815f875af1158015613a8a573d5f803e3d5ffd5b505050506040513d601f19601f82011682018060405250810190613aae919061483a565b613aed576040517f08c379a0000000000000000000000000000000000000000000000000000000008152600401613ae4906148af565b60405180910390fd5b505050565b5f613afb613c38565b6003015f9054906101000a900473ffffffffffffffffffffffffffffffffffffffff16905090565b5f808390505f8390505f613b408383613b6090919063ffffffff16565b9050613b5583826139e790919063ffffffff16565b935050505092915050565b5f613b9682613b88601260ff16600a613b799190614a5c565b86613c2390919063ffffffff16565b613c6490919063ffffffff16565b905092915050565b5f606160f81b827effffffffffffffffffffffffffffffffffffffffffffffffffffffffffffff191610158015613bfb5750607a60f81b827effffffffffffffffffffffffffffffffffffffffffffffffffffffffffffff191611155b15613c1a5760208260f81c613c109190614b69565b60f81b9050613c1e565b8190505b919050565b5f8183613c309190614b9d565b905092915050565b5f807fc8fcad8db84d3cc18b4c41d551ea0ee66dd599cde068d998e57d5e09332c131c90508091505090565b5f8183613c719190614ad3565b905092915050565b5f604051905090565b5f80fd5b5f80fd5b5f819050919050565b613c9c81613c8a565b8114613ca6575f80fd5b50565b5f81359050613cb781613c93565b92915050565b5f80fd5b5f80fd5b5f601f19601f8301169050919050565b7f4e487b71000000000000000000000000000000000000000000000000000000005f52604160045260245ffd5b613d0b82613cc5565b810181811067ffffffffffffffff82111715613d2a57613d29613cd5565b5b80604052505050565b5f613d3c613c79565b9050613d488282613d02565b919050565b5f67ffffffffffffffff821115613d6757613d66613cd5565b5b613d7082613cc5565b9050602081019050919050565b828183375f83830152505050565b5f613d9d613d9884613d4d565b613d33565b905082815260208101848484011115613db957613db8613cc1565b5b613dc4848285613d7d565b509392505050565b5f82601f830112613de057613ddf613cbd565b5b8135613df0848260208601613d8b565b91505092915050565b5f8060408385031215613e0f57613e0e613c82565b5b5f613e1c85828601613ca9565b925050602083013567ffffffffffffffff811115613e3d57613e3c613c86565b5b613e4985828601613dcc565b9150509250929050565b5f60208284031215613e6857613e67613c82565b5b5f82013567ffffffffffffffff811115613e8557613e84613c86565b5b613e9184828501613dcc565b91505092915050565b5f73ffffffffffffffffffffffffffffffffffffffff82169050919050565b5f613ec382613e9a565b9050919050565b613ed381613eb9565b8114613edd575f80fd5b50565b5f81359050613eee81613eca565b92915050565b5f805f60608486031215613f0b57613f0a613c82565b5b5f84013567ffffffffffffffff811115613f2857613f27613c86565b5b613f3486828701613dcc565b9350506020613f4586828701613ee0565b9250506040613f5686828701613ee0565b9150509250925092565b5f8060408385031215613f7657613f75613c82565b5b5f83013567ffffffffffffffff811115613f9357613f92613c86565b5b613f9f85828601613dcc565b9250506020613fb085828601613ee0565b9150509250929050565b5f805f60608486031215613fd157613fd0613c82565b5b5f613fde86828701613ca9565b9350506020613fef86828701613ca9565b925050604084013567ffffffffffffffff8111156140105761400f613c86565b5b61401c86828701613dcc565b9150509250925092565b5f6020828403121561403b5761403a613c82565b5b5f61404884828501613ca9565b91505092915050565b61405a81613c8a565b82525050565b5f60a0820190506140735f830188614051565b6140806020830187614051565b61408d6040830186614051565b61409a6060830185614051565b6140a76080830184614051565b9695505050505050565b5f80604083850312156140c7576140c6613c82565b5b5f6140d485828601613ee0565b925050602083013567ffffffffffffffff8111156140f5576140f4613c86565b5b61410185828601613dcc565b9150509250929050565b5f60c08201905061411e5f830189614051565b61412b6020830188614051565b6141386040830187614051565b6141456060830186614051565b6141526080830185614051565b61415f60a0830184614051565b979650505050505050565b5f82825260208201905092915050565b7f5a65726f2076616c75652070726f7669646564210000000000000000000000005f82015250565b5f6141ae60148361416a565b91506141b98261417a565b602082019050919050565b5f6020820190508181035f8301526141db816141a2565b9050919050565b5f81519050919050565b5f81905092915050565b5f5b838110156142135780820151818401526020810190506141f8565b5f8484015250505050565b5f614228826141e2565b61423281856141ec565b93506142428185602086016141f6565b80840191505092915050565b5f614259828461421e565b915081905092915050565b7f496e76616c6964205061697200000000000000000000000000000000000000005f82015250565b5f614298600c8361416a565b91506142a382614264565b602082019050919050565b5f6020820190508181035f8301526142c58161428c565b9050919050565b5f81519050919050565b5f6142e0826142cc565b6142ea818561416a565b93506142fa8185602086016141f6565b61430381613cc5565b840191505092915050565b5f6020820190508181035f83015261432681846142d6565b905092915050565b5f8151905061433c81613c93565b92915050565b5f6020828403121561435757614356613c82565b5b5f6143648482850161432e565b91505092915050565b7f4e6f206c697175696469747921000000000000000000000000000000000000005f82015250565b5f6143a1600d8361416a565b91506143ac8261436d565b602082019050919050565b5f6020820190508181035f8301526143ce81614395565b9050919050565b6143de81613eb9565b82525050565b5f8115159050919050565b6143f8816143e4565b82525050565b5f60e0820190506144115f83018a6143d5565b61441e6020830189614051565b61442b6040830188614051565b61443860608301876143ef565b6144456080830186614051565b61445260a0830185614051565b81810360c083015261446481846142d6565b905098975050505050505050565b7f4163636573732064656e6965642c204f6e6c79206f776e657220697320616c6c5f8201527f6f77656421000000000000000000000000000000000000000000000000000000602082015250565b5f6144cc60258361416a565b91506144d782614472565b604082019050919050565b5f6020820190508181035f8301526144f9816144c0565b9050919050565b7f416464206c697175696469747920746f20636f6e74696e7565210000000000005f82015250565b5f614534601a8361416a565b915061453f82614500565b602082019050919050565b5f6020820190508181035f83015261456181614528565b9050919050565b5f60a08201905061457b5f8301886143d5565b6145886020830187614051565b6145956040830186614051565b81810360608301526145a781856142d6565b90506145b66080830184614051565b9695505050505050565b5f60a0820190508181035f8301526145d881886142d6565b90506145e760208301876143d5565b6145f460408301866143d5565b61460160608301856143d5565b61460e6080830184614051565b9695505050505050565b7f496e76616c6964206c69717569646974790000000000000000000000000000005f82015250565b5f61464c60118361416a565b915061465782614618565b602082019050919050565b5f6020820190508181035f83015261467981614640565b9050919050565b50565b5f61468e5f836141ec565b915061469982614680565b5f82019050919050565b5f6146ad82614683565b9150819050919050565b7f4661696c656420746f2073656e642045746865720000000000000000000000005f82015250565b5f6146eb60148361416a565b91506146f6826146b7565b602082019050919050565b5f6020820190508181035f830152614718816146df565b9050919050565b7f4e487b71000000000000000000000000000000000000000000000000000000005f52603260045260245ffd5b5f60408201905061475f5f8301856143d5565b61476c60208301846143d5565b9392505050565b7f4e6f6e2d73756666696369656e742066756e64730000000000000000000000005f82015250565b5f6147a760148361416a565b91506147b282614773565b602082019050919050565b5f6020820190508181035f8301526147d48161479b565b9050919050565b5f6060820190506147ee5f8301866143d5565b6147fb60208301856143d5565b6148086040830184614051565b949350505050565b614819816143e4565b8114614823575f80fd5b50565b5f8151905061483481614810565b92915050565b5f6020828403121561484f5761484e613c82565b5b5f61485c84828501614826565b91505092915050565b7f4661696c20746f207472616e6665722066756e640000000000000000000000005f82015250565b5f61489960148361416a565b91506148a482614865565b602082019050919050565b5f6020820190508181035f8301526148c68161488d565b9050919050565b7f4e487b71000000000000000000000000000000000000000000000000000000005f52601160045260245ffd5b5f61490482613c8a565b915061490f83613c8a565b9250828201905080821115614927576149266148cd565b5b92915050565b5f8160011c9050919050565b5f808291508390505b60018511156149825780860481111561495e5761495d6148cd565b5b600185161561496d5780820291505b808102905061497b8561492d565b9450614942565b94509492505050565b5f8261499a5760019050614a55565b816149a7575f9050614a55565b81600181146149bd57600281146149c7576149f6565b6001915050614a55565b60ff8411156149d9576149d86148cd565b5b8360020a9150848211156149f0576149ef6148cd565b5b50614a55565b5060208310610133831016604e8410600b8410161715614a2b5782820a905083811115614a2657614a256148cd565b5b614a55565b614a388484846001614939565b92509050818404811115614a4f57614a4e6148cd565b5b81810290505b9392505050565b5f614a6682613c8a565b9150614a7183613c8a565b9250614a9e7fffffffffffffffffffffffffffffffffffffffffffffffffffffffffffffffff848461498b565b905092915050565b7f4e487b71000000000000000000000000000000000000000000000000000000005f52601260045260245ffd5b5f614add82613c8a565b9150614ae883613c8a565b925082614af857614af7614aa6565b5b828204905092915050565b5f614b0d82613c8a565b9150614b1883613c8a565b9250828203905081811115614b3057614b2f6148cd565b5b92915050565b5f604082019050614b495f8301856143d5565b614b566020830184614051565b9392505050565b5f60ff82169050919050565b5f614b7382614b5d565b9150614b7e83614b5d565b9250828203905060ff811115614b9757614b966148cd565b5b92915050565b5f614ba782613c8a565b9150614bb283613c8a565b9250828202614bc081613c8a565b91508282048414831517614bd757614bd66148cd565b5b509291505056fea2646970667358221220a6f8f98f7c3e36e3f939b45b8f5e181c1fd99fc12aca1b34cbb48295bff9f08464736f6c63430008180033",
			"opcodes": "PUSH1 0x80 PUSH1 0x40 MSTORE CALLVALUE DUP1 ISZERO PUSH2 0xF JUMPI PUSH0 DUP1 REVERT JUMPDEST POP PUSH2 0x4C14 DUP1 PUSH2 0x1D PUSH0 CODECOPY PUSH0 RETURN INVALID PUSH1 0x80 PUSH1 0x40 MSTORE PUSH1 0x4 CALLDATASIZE LT PUSH2 0xE0 JUMPI PUSH0 CALLDATALOAD PUSH1 0xE0 SHR DUP1 PUSH4 0x6330112F GT PUSH2 0x7E JUMPI DUP1 PUSH4 0xB96DDD42 GT PUSH2 0x58 JUMPI DUP1 PUSH4 0xB96DDD42 EQ PUSH2 0x285 JUMPI DUP1 PUSH4 0xC540A80C EQ PUSH2 0x2AD JUMPI DUP1 PUSH4 0xCE17FF3C EQ PUSH2 0x2EE JUMPI DUP1 PUSH4 0xF2DC71E7 EQ PUSH2 0x316 JUMPI PUSH2 0xE7 JUMP JUMPDEST DUP1 PUSH4 0x6330112F EQ PUSH2 0x1F5 JUMPI DUP1 PUSH4 0x69FE0E2D EQ PUSH2 0x21D JUMPI DUP1 PUSH4 0xB8355D99 EQ PUSH2 0x245 JUMPI PUSH2 0xE7 JUMP JUMPDEST DUP1 PUSH4 0x31A77A13 GT PUSH2 0xBA JUMPI DUP1 PUSH4 0x31A77A13 EQ PUSH2 0x161 JUMPI DUP1 PUSH4 0x342D2555 EQ PUSH2 0x189 JUMPI DUP1 PUSH4 0x3BE15CF8 EQ PUSH2 0x1B1 JUMPI DUP1 PUSH4 0x5AA58817 EQ PUSH2 0x1CD JUMPI PUSH2 0xE7 JUMP JUMPDEST DUP1 PUSH4 0x565789B EQ PUSH2 0xE9 JUMPI DUP1 PUSH4 0xF56ADD4 EQ PUSH2 0x111 JUMPI DUP1 PUSH4 0x2C22551A EQ PUSH2 0x139 JUMPI PUSH2 0xE7 JUMP JUMPDEST CALLDATASIZE PUSH2 0xE7 JUMPI STOP JUMPDEST STOP JUMPDEST CALLVALUE DUP1 ISZERO PUSH2 0xF4 JUMPI PUSH0 DUP1 REVERT JUMPDEST POP PUSH2 0x10F PUSH1 0x4 DUP1 CALLDATASIZE SUB DUP2 ADD SWAP1 PUSH2 0x10A SWAP2 SWAP1 PUSH2 0x3DF9 JUMP JUMPDEST PUSH2 0x332 JUMP JUMPDEST STOP JUMPDEST CALLVALUE DUP1 ISZERO PUSH2 0x11C JUMPI PUSH0 DUP1 REVERT JUMPDEST POP PUSH2 0x137 PUSH1 0x4 DUP1 CALLDATASIZE SUB DUP2 ADD SWAP1 PUSH2 0x132 SWAP2 SWAP1 PUSH2 0x3E53 JUMP JUMPDEST PUSH2 0x8D6 JUMP JUMPDEST STOP JUMPDEST CALLVALUE DUP1 ISZERO PUSH2 0x144 JUMPI PUSH0 DUP1 REVERT JUMPDEST POP PUSH2 0x15F PUSH1 0x4 DUP1 CALLDATASIZE SUB DUP2 ADD SWAP1 PUSH2 0x15A SWAP2 SWAP1 PUSH2 0x3E53 JUMP JUMPDEST PUSH2 0x992 JUMP JUMPDEST STOP JUMPDEST CALLVALUE DUP1 ISZERO PUSH2 0x16C JUMPI PUSH0 DUP1 REVERT JUMPDEST POP PUSH2 0x187 PUSH1 0x4 DUP1 CALLDATASIZE SUB DUP2 ADD SWAP1 PUSH2 0x182 SWAP2 SWAP1 PUSH2 0x3DF9 JUMP JUMPDEST PUSH2 0xF27 JUMP JUMPDEST STOP JUMPDEST CALLVALUE DUP1 ISZERO PUSH2 0x194 JUMPI PUSH0 DUP1 REVERT JUMPDEST POP PUSH2 0x1AF PUSH1 0x4 DUP1 CALLDATASIZE SUB DUP2 ADD SWAP1 PUSH2 0x1AA SWAP2 SWAP1 PUSH2 0x3EF4 JUMP JUMPDEST PUSH2 0x14C5 JUMP JUMPDEST STOP JUMPDEST PUSH2 0x1CB PUSH1 0x4 DUP1 CALLDATASIZE SUB DUP2 ADD SWAP1 PUSH2 0x1C6 SWAP2 SWAP1 PUSH2 0x3E53 JUMP JUMPDEST PUSH2 0x1692 JUMP JUMPDEST STOP JUMPDEST CALLVALUE DUP1 ISZERO PUSH2 0x1D8 JUMPI PUSH0 DUP1 REVERT JUMPDEST POP PUSH2 0x1F3 PUSH1 0x4 DUP1 CALLDATASIZE SUB DUP2 ADD SWAP1 PUSH2 0x1EE SWAP2 SWAP1 PUSH2 0x3F60 JUMP JUMPDEST PUSH2 0x1BEA JUMP JUMPDEST STOP JUMPDEST CALLVALUE DUP1 ISZERO PUSH2 0x200 JUMPI PUSH0 DUP1 REVERT JUMPDEST POP PUSH2 0x21B PUSH1 0x4 DUP1 CALLDATASIZE SUB DUP2 ADD SWAP1 PUSH2 0x216 SWAP2 SWAP1 PUSH2 0x3FBA JUMP JUMPDEST PUSH2 0x1DB6 JUMP JUMPDEST STOP JUMPDEST CALLVALUE DUP1 ISZERO PUSH2 0x228 JUMPI PUSH0 DUP1 REVERT JUMPDEST POP PUSH2 0x243 PUSH1 0x4 DUP1 CALLDATASIZE SUB DUP2 ADD SWAP1 PUSH2 0x23E SWAP2 SWAP1 PUSH2 0x4026 JUMP JUMPDEST PUSH2 0x2301 JUMP JUMPDEST STOP JUMPDEST CALLVALUE DUP1 ISZERO PUSH2 0x250 JUMPI PUSH0 DUP1 REVERT JUMPDEST POP PUSH2 0x26B PUSH1 0x4 DUP1 CALLDATASIZE SUB DUP2 ADD SWAP1 PUSH2 0x266 SWAP2 SWAP1 PUSH2 0x3E53 JUMP JUMPDEST PUSH2 0x2387 JUMP JUMPDEST PUSH1 0x40 MLOAD PUSH2 0x27C SWAP6 SWAP5 SWAP4 SWAP3 SWAP2 SWAP1 PUSH2 0x4060 JUMP JUMPDEST PUSH1 0x40 MLOAD DUP1 SWAP2 SUB SWAP1 RETURN JUMPDEST CALLVALUE DUP1 ISZERO PUSH2 0x290 JUMPI PUSH0 DUP1 REVERT JUMPDEST POP PUSH2 0x2AB PUSH1 0x4 DUP1 CALLDATASIZE SUB DUP2 ADD SWAP1 PUSH2 0x2A6 SWAP2 SWAP1 PUSH2 0x3E53 JUMP JUMPDEST PUSH2 0x2465 JUMP JUMPDEST STOP JUMPDEST CALLVALUE DUP1 ISZERO PUSH2 0x2B8 JUMPI PUSH0 DUP1 REVERT JUMPDEST POP PUSH2 0x2D3 PUSH1 0x4 DUP1 CALLDATASIZE SUB DUP2 ADD SWAP1 PUSH2 0x2CE SWAP2 SWAP1 PUSH2 0x40B1 JUMP JUMPDEST PUSH2 0x2A56 JUMP JUMPDEST PUSH1 0x40 MLOAD PUSH2 0x2E5 SWAP7 SWAP6 SWAP5 SWAP4 SWAP3 SWAP2 SWAP1 PUSH2 0x410B JUMP JUMPDEST PUSH1 0x40 MLOAD DUP1 SWAP2 SUB SWAP1 RETURN JUMPDEST CALLVALUE DUP1 ISZERO PUSH2 0x2F9 JUMPI PUSH0 DUP1 REVERT JUMPDEST POP PUSH2 0x314 PUSH1 0x4 DUP1 CALLDATASIZE SUB DUP2 ADD SWAP1 PUSH2 0x30F SWAP2 SWAP1 PUSH2 0x3DF9 JUMP JUMPDEST PUSH2 0x2C7D JUMP JUMPDEST STOP JUMPDEST PUSH2 0x330 PUSH1 0x4 DUP1 CALLDATASIZE SUB DUP2 ADD SWAP1 PUSH2 0x32B SWAP2 SWAP1 PUSH2 0x3DF9 JUMP JUMPDEST PUSH2 0x3277 JUMP JUMPDEST STOP JUMPDEST PUSH0 DUP3 GT PUSH2 0x374 JUMPI PUSH1 0x40 MLOAD PUSH32 0x8C379A000000000000000000000000000000000000000000000000000000000 DUP2 MSTORE PUSH1 0x4 ADD PUSH2 0x36B SWAP1 PUSH2 0x41C4 JUMP JUMPDEST PUSH1 0x40 MLOAD DUP1 SWAP2 SUB SWAP1 REVERT JUMPDEST PUSH1 0x65 PUSH2 0x37F DUP3 PUSH2 0x3776 JUMP JUMPDEST PUSH1 0x40 MLOAD PUSH2 0x38C SWAP2 SWAP1 PUSH2 0x424E JUMP JUMPDEST SWAP1 DUP2 MSTORE PUSH1 0x20 ADD PUSH1 0x40 MLOAD DUP1 SWAP2 SUB SWAP1 KECCAK256 PUSH0 SWAP1 SLOAD SWAP1 PUSH2 0x100 EXP SWAP1 DIV PUSH1 0xFF AND PUSH2 0x3E6 JUMPI PUSH1 0x40 MLOAD PUSH32 0x8C379A000000000000000000000000000000000000000000000000000000000 DUP2 MSTORE PUSH1 0x4 ADD PUSH2 0x3DD SWAP1 PUSH2 0x42AE JUMP JUMPDEST PUSH1 0x40 MLOAD DUP1 SWAP2 SUB SWAP1 REVERT JUMPDEST PUSH2 0x436 PUSH1 0x5A PUSH2 0x3F4 DUP4 PUSH2 0x3776 JUMP JUMPDEST PUSH1 0x40 MLOAD PUSH2 0x401 SWAP2 SWAP1 PUSH2 0x424E JUMP JUMPDEST SWAP1 DUP2 MSTORE PUSH1 0x20 ADD PUSH1 0x40 MLOAD DUP1 SWAP2 SUB SWAP1 KECCAK256 PUSH0 SWAP1 SLOAD SWAP1 PUSH2 0x100 EXP SWAP1 DIV PUSH20 0xFFFFFFFFFFFFFFFFFFFFFFFFFFFFFFFFFFFFFFFF AND DUP4 ADDRESS PUSH2 0x3805 JUMP JUMPDEST PUSH0 ADDRESS SWAP1 POP PUSH0 DUP2 PUSH20 0xFFFFFFFFFFFFFFFFFFFFFFFFFFFFFFFFFFFFFFFF AND PUSH4 0xFE2C6198 DUP5 PUSH1 0x40 MLOAD DUP3 PUSH4 0xFFFFFFFF AND PUSH1 0xE0 SHL DUP2 MSTORE PUSH1 0x4 ADD PUSH2 0x474 SWAP2 SWAP1 PUSH2 0x430E JUMP JUMPDEST PUSH1 0x20 PUSH1 0x40 MLOAD DUP1 DUP4 SUB DUP2 DUP7 GAS STATICCALL ISZERO DUP1 ISZERO PUSH2 0x48F JUMPI RETURNDATASIZE PUSH0 DUP1 RETURNDATACOPY RETURNDATASIZE PUSH0 REVERT JUMPDEST POP POP POP POP PUSH1 0x40 MLOAD RETURNDATASIZE PUSH1 0x1F NOT PUSH1 0x1F DUP3 ADD AND DUP3 ADD DUP1 PUSH1 0x40 MSTORE POP DUP2 ADD SWAP1 PUSH2 0x4B3 SWAP2 SWAP1 PUSH2 0x4342 JUMP JUMPDEST SWAP1 POP PUSH0 PUSH2 0x4C2 DUP3 DUP7 PUSH1 0x1 PUSH2 0x3990 JUMP JUMPDEST SWAP1 POP PUSH2 0x553 DUP6 PUSH1 0x5C PUSH0 PUSH2 0x4D3 PUSH2 0x39CB JUMP JUMPDEST PUSH20 0xFFFFFFFFFFFFFFFFFFFFFFFFFFFFFFFFFFFFFFFF AND PUSH20 0xFFFFFFFFFFFFFFFFFFFFFFFFFFFFFFFFFFFFFFFF AND DUP2 MSTORE PUSH1 0x20 ADD SWAP1 DUP2 MSTORE PUSH1 0x20 ADD PUSH0 KECCAK256 PUSH2 0x515 DUP8 PUSH2 0x3776 JUMP JUMPDEST PUSH1 0x40 MLOAD PUSH2 0x522 SWAP2 SWAP1 PUSH2 0x424E JUMP JUMPDEST SWAP1 DUP2 MSTORE PUSH1 0x20 ADD PUSH1 0x40 MLOAD DUP1 SWAP2 SUB SWAP1 KECCAK256 PUSH0 PUSH1 0x1 ISZERO ISZERO ISZERO ISZERO DUP2 MSTORE PUSH1 0x20 ADD SWAP1 DUP2 MSTORE PUSH1 0x20 ADD PUSH0 KECCAK256 SLOAD PUSH2 0x39D2 SWAP1 SWAP2 SWAP1 PUSH4 0xFFFFFFFF AND JUMP JUMPDEST PUSH1 0x5C PUSH0 PUSH2 0x55E PUSH2 0x39CB JUMP JUMPDEST PUSH20 0xFFFFFFFFFFFFFFFFFFFFFFFFFFFFFFFFFFFFFFFF AND PUSH20 0xFFFFFFFFFFFFFFFFFFFFFFFFFFFFFFFFFFFFFFFF AND DUP2 MSTORE PUSH1 0x20 ADD SWAP1 DUP2 MSTORE PUSH1 0x20 ADD PUSH0 KECCAK256 PUSH2 0x5A0 DUP7 PUSH2 0x3776 JUMP JUMPDEST PUSH1 0x40 MLOAD PUSH2 0x5AD SWAP2 SWAP1 PUSH2 0x424E JUMP JUMPDEST SWAP1 DUP2 MSTORE PUSH1 0x20 ADD PUSH1 0x40 MLOAD DUP1 SWAP2 SUB SWAP1 KECCAK256 PUSH0 PUSH1 0x1 ISZERO ISZERO ISZERO ISZERO DUP2 MSTORE PUSH1 0x20 ADD SWAP1 DUP2 MSTORE PUSH1 0x20 ADD PUSH0 KECCAK256 DUP2 SWAP1 SSTORE POP PUSH2 0x620 DUP6 PUSH1 0x5D PUSH2 0x5E2 DUP8 PUSH2 0x3776 JUMP JUMPDEST PUSH1 0x40 MLOAD PUSH2 0x5EF SWAP2 SWAP1 PUSH2 0x424E JUMP JUMPDEST SWAP1 DUP2 MSTORE PUSH1 0x20 ADD PUSH1 0x40 MLOAD DUP1 SWAP2 SUB SWAP1 KECCAK256 PUSH0 PUSH1 0x1 ISZERO ISZERO ISZERO ISZERO DUP2 MSTORE PUSH1 0x20 ADD SWAP1 DUP2 MSTORE PUSH1 0x20 ADD PUSH0 KECCAK256 SLOAD PUSH2 0x39D2 SWAP1 SWAP2 SWAP1 PUSH4 0xFFFFFFFF AND JUMP JUMPDEST PUSH1 0x5D PUSH2 0x62B DUP7 PUSH2 0x3776 JUMP JUMPDEST PUSH1 0x40 MLOAD PUSH2 0x638 SWAP2 SWAP1 PUSH2 0x424E JUMP JUMPDEST SWAP1 DUP2 MSTORE PUSH1 0x20 ADD PUSH1 0x40 MLOAD DUP1 SWAP2 SUB SWAP1 KECCAK256 PUSH0 PUSH1 0x1 ISZERO ISZERO ISZERO ISZERO DUP2 MSTORE PUSH1 0x20 ADD SWAP1 DUP2 MSTORE PUSH1 0x20 ADD PUSH0 KECCAK256 DUP2 SWAP1 SSTORE POP PUSH0 PUSH2 0x674 PUSH1 0x5E SLOAD DUP4 PUSH2 0x39E7 SWAP1 SWAP2 SWAP1 PUSH4 0xFFFFFFFF AND JUMP JUMPDEST SWAP1 POP PUSH2 0x6AF DUP2 PUSH1 0x60 PUSH2 0x685 DUP9 PUSH2 0x3776 JUMP JUMPDEST PUSH1 0x40 MLOAD PUSH2 0x692 SWAP2 SWAP1 PUSH2 0x424E JUMP JUMPDEST SWAP1 DUP2 MSTORE PUSH1 0x20 ADD PUSH1 0x40 MLOAD DUP1 SWAP2 SUB SWAP1 KECCAK256 SLOAD PUSH2 0x39D2 SWAP1 SWAP2 SWAP1 PUSH4 0xFFFFFFFF AND JUMP JUMPDEST PUSH1 0x60 PUSH2 0x6BA DUP8 PUSH2 0x3776 JUMP JUMPDEST PUSH1 0x40 MLOAD PUSH2 0x6C7 SWAP2 SWAP1 PUSH2 0x424E JUMP JUMPDEST SWAP1 DUP2 MSTORE PUSH1 0x20 ADD PUSH1 0x40 MLOAD DUP1 SWAP2 SUB SWAP1 KECCAK256 DUP2 SWAP1 SSTORE POP DUP2 PUSH1 0x62 PUSH2 0x6E5 DUP8 PUSH2 0x3776 JUMP JUMPDEST PUSH1 0x40 MLOAD PUSH2 0x6F2 SWAP2 SWAP1 PUSH2 0x424E JUMP JUMPDEST SWAP1 DUP2 MSTORE PUSH1 0x20 ADD PUSH1 0x40 MLOAD DUP1 SWAP2 SUB SWAP1 KECCAK256 SLOAD LT ISZERO PUSH2 0x742 JUMPI PUSH1 0x40 MLOAD PUSH32 0x8C379A000000000000000000000000000000000000000000000000000000000 DUP2 MSTORE PUSH1 0x4 ADD PUSH2 0x739 SWAP1 PUSH2 0x43B7 JUMP JUMPDEST PUSH1 0x40 MLOAD DUP1 SWAP2 SUB SWAP1 REVERT JUMPDEST PUSH2 0x77B DUP3 PUSH1 0x62 PUSH2 0x751 DUP9 PUSH2 0x3776 JUMP JUMPDEST PUSH1 0x40 MLOAD PUSH2 0x75E SWAP2 SWAP1 PUSH2 0x424E JUMP JUMPDEST SWAP1 DUP2 MSTORE PUSH1 0x20 ADD PUSH1 0x40 MLOAD DUP1 SWAP2 SUB SWAP1 KECCAK256 SLOAD PUSH2 0x3A1E SWAP1 SWAP2 SWAP1 PUSH4 0xFFFFFFFF AND JUMP JUMPDEST PUSH1 0x62 PUSH2 0x786 DUP8 PUSH2 0x3776 JUMP JUMPDEST PUSH1 0x40 MLOAD PUSH2 0x793 SWAP2 SWAP1 PUSH2 0x424E JUMP JUMPDEST SWAP1 DUP2 MSTORE PUSH1 0x20 ADD PUSH1 0x40 MLOAD DUP1 SWAP2 SUB SWAP1 KECCAK256 DUP2 SWAP1 SSTORE POP PUSH2 0x7DE DUP7 PUSH1 0x61 PUSH2 0x7B4 DUP9 PUSH2 0x3776 JUMP JUMPDEST PUSH1 0x40 MLOAD PUSH2 0x7C1 SWAP2 SWAP1 PUSH2 0x424E JUMP JUMPDEST SWAP1 DUP2 MSTORE PUSH1 0x20 ADD PUSH1 0x40 MLOAD DUP1 SWAP2 SUB SWAP1 KECCAK256 SLOAD PUSH2 0x39D2 SWAP1 SWAP2 SWAP1 PUSH4 0xFFFFFFFF AND JUMP JUMPDEST PUSH1 0x61 PUSH2 0x7E9 DUP8 PUSH2 0x3776 JUMP JUMPDEST PUSH1 0x40 MLOAD PUSH2 0x7F6 SWAP2 SWAP1 PUSH2 0x424E JUMP JUMPDEST SWAP1 DUP2 MSTORE PUSH1 0x20 ADD PUSH1 0x40 MLOAD DUP1 SWAP2 SUB SWAP1 KECCAK256 DUP2 SWAP1 SSTORE POP PUSH2 0x871 PUSH2 0x81E DUP3 DUP5 PUSH2 0x3A1E SWAP1 SWAP2 SWAP1 PUSH4 0xFFFFFFFF AND JUMP JUMPDEST PUSH2 0x826 PUSH2 0x39CB JUMP JUMPDEST PUSH1 0x5B PUSH2 0x831 DUP10 PUSH2 0x3776 JUMP JUMPDEST PUSH1 0x40 MLOAD PUSH2 0x83E SWAP2 SWAP1 PUSH2 0x424E JUMP JUMPDEST SWAP1 DUP2 MSTORE PUSH1 0x20 ADD PUSH1 0x40 MLOAD DUP1 SWAP2 SUB SWAP1 KECCAK256 PUSH0 SWAP1 SLOAD SWAP1 PUSH2 0x100 EXP SWAP1 DIV PUSH20 0xFFFFFFFFFFFFFFFFFFFFFFFFFFFFFFFFFFFFFFFF AND PUSH2 0x3A33 JUMP JUMPDEST PUSH32 0x757C5E4BDCF31B72F454B6592D3939C4919CBB2212E5DC5E84141EBF369D54C3 PUSH2 0x89A PUSH2 0x39CB JUMP JUMPDEST DUP8 PUSH2 0x8AE DUP5 DUP7 PUSH2 0x3A1E SWAP1 SWAP2 SWAP1 PUSH4 0xFFFFFFFF AND JUMP JUMPDEST PUSH1 0x1 TIMESTAMP DUP7 DUP12 PUSH1 0x40 MLOAD PUSH2 0x8C6 SWAP8 SWAP7 SWAP6 SWAP5 SWAP4 SWAP3 SWAP2 SWAP1 PUSH2 0x43FE JUMP JUMPDEST PUSH1 0x40 MLOAD DUP1 SWAP2 SUB SWAP1 LOG1 POP POP POP POP POP POP JUMP JUMPDEST PUSH2 0x8DE PUSH2 0x3AF2 JUMP JUMPDEST PUSH20 0xFFFFFFFFFFFFFFFFFFFFFFFFFFFFFFFFFFFFFFFF AND PUSH2 0x8FC PUSH2 0x39CB JUMP JUMPDEST PUSH20 0xFFFFFFFFFFFFFFFFFFFFFFFFFFFFFFFFFFFFFFFF AND EQ PUSH2 0x952 JUMPI PUSH1 0x40 MLOAD PUSH32 0x8C379A000000000000000000000000000000000000000000000000000000000 DUP2 MSTORE PUSH1 0x4 ADD PUSH2 0x949 SWAP1 PUSH2 0x44E2 JUMP JUMPDEST PUSH1 0x40 MLOAD DUP1 SWAP2 SUB SWAP1 REVERT JUMPDEST PUSH0 PUSH1 0x65 PUSH2 0x95E DUP4 PUSH2 0x3776 JUMP JUMPDEST PUSH1 0x40 MLOAD PUSH2 0x96B SWAP2 SWAP1 PUSH2 0x424E JUMP JUMPDEST SWAP1 DUP2 MSTORE PUSH1 0x20 ADD PUSH1 0x40 MLOAD DUP1 SWAP2 SUB SWAP1 KECCAK256 PUSH0 PUSH2 0x100 EXP DUP2 SLOAD DUP2 PUSH1 0xFF MUL NOT AND SWAP1 DUP4 ISZERO ISZERO MUL OR SWAP1 SSTORE POP POP JUMP JUMPDEST PUSH1 0x65 PUSH2 0x99D DUP3 PUSH2 0x3776 JUMP JUMPDEST PUSH1 0x40 MLOAD PUSH2 0x9AA SWAP2 SWAP1 PUSH2 0x424E JUMP JUMPDEST SWAP1 DUP2 MSTORE PUSH1 0x20 ADD PUSH1 0x40 MLOAD DUP1 SWAP2 SUB SWAP1 KECCAK256 PUSH0 SWAP1 SLOAD SWAP1 PUSH2 0x100 EXP SWAP1 DIV PUSH1 0xFF AND PUSH2 0xA04 JUMPI PUSH1 0x40 MLOAD PUSH32 0x8C379A000000000000000000000000000000000000000000000000000000000 DUP2 MSTORE PUSH1 0x4 ADD PUSH2 0x9FB SWAP1 PUSH2 0x42AE JUMP JUMPDEST PUSH1 0x40 MLOAD DUP1 SWAP2 SUB SWAP1 REVERT JUMPDEST PUSH0 PUSH1 0x63 PUSH2 0xA10 DUP4 PUSH2 0x3776 JUMP JUMPDEST PUSH1 0x40 MLOAD PUSH2 0xA1D SWAP2 SWAP1 PUSH2 0x424E JUMP JUMPDEST SWAP1 DUP2 MSTORE PUSH1 0x20 ADD PUSH1 0x40 MLOAD DUP1 SWAP2 SUB SWAP1 KECCAK256 PUSH0 PUSH2 0xA34 PUSH2 0x39CB JUMP JUMPDEST PUSH20 0xFFFFFFFFFFFFFFFFFFFFFFFFFFFFFFFFFFFFFFFF AND PUSH20 0xFFFFFFFFFFFFFFFFFFFFFFFFFFFFFFFFFFFFFFFF AND DUP2 MSTORE PUSH1 0x20 ADD SWAP1 DUP2 MSTORE PUSH1 0x20 ADD PUSH0 KECCAK256 SLOAD GT PUSH2 0xAAE JUMPI PUSH1 0x40 MLOAD PUSH32 0x8C379A000000000000000000000000000000000000000000000000000000000 DUP2 MSTORE PUSH1 0x4 ADD PUSH2 0xAA5 SWAP1 PUSH2 0x454A JUMP JUMPDEST PUSH1 0x40 MLOAD DUP1 SWAP2 SUB SWAP1 REVERT JUMPDEST PUSH0 PUSH1 0x64 PUSH2 0xABA DUP4 PUSH2 0x3776 JUMP JUMPDEST PUSH1 0x40 MLOAD PUSH2 0xAC7 SWAP2 SWAP1 PUSH2 0x424E JUMP JUMPDEST SWAP1 DUP2 MSTORE PUSH1 0x20 ADD PUSH1 0x40 MLOAD DUP1 SWAP2 SUB SWAP1 KECCAK256 PUSH0 PUSH2 0xADE PUSH2 0x39CB JUMP JUMPDEST PUSH20 0xFFFFFFFFFFFFFFFFFFFFFFFFFFFFFFFFFFFFFFFF AND PUSH20 0xFFFFFFFFFFFFFFFFFFFFFFFFFFFFFFFFFFFFFFFF AND DUP2 MSTORE PUSH1 0x20 ADD SWAP1 DUP2 MSTORE PUSH1 0x20 ADD PUSH0 KECCAK256 SLOAD GT PUSH2 0xB58 JUMPI PUSH1 0x40 MLOAD PUSH32 0x8C379A000000000000000000000000000000000000000000000000000000000 DUP2 MSTORE PUSH1 0x4 ADD PUSH2 0xB4F SWAP1 PUSH2 0x454A JUMP JUMPDEST PUSH1 0x40 MLOAD DUP1 SWAP2 SUB SWAP1 REVERT JUMPDEST PUSH0 PUSH2 0xBF1 PUSH1 0x61 PUSH2 0xB67 DUP5 PUSH2 0x3776 JUMP JUMPDEST PUSH1 0x40 MLOAD PUSH2 0xB74 SWAP2 SWAP1 PUSH2 0x424E JUMP JUMPDEST SWAP1 DUP2 MSTORE PUSH1 0x20 ADD PUSH1 0x40 MLOAD DUP1 SWAP2 SUB SWAP1 KECCAK256 SLOAD PUSH1 0x63 PUSH2 0xB8E DUP6 PUSH2 0x3776 JUMP JUMPDEST PUSH1 0x40 MLOAD PUSH2 0xB9B SWAP2 SWAP1 PUSH2 0x424E JUMP JUMPDEST SWAP1 DUP2 MSTORE PUSH1 0x20 ADD PUSH1 0x40 MLOAD DUP1 SWAP2 SUB SWAP1 KECCAK256 PUSH0 PUSH2 0xBB2 PUSH2 0x39CB JUMP JUMPDEST PUSH20 0xFFFFFFFFFFFFFFFFFFFFFFFFFFFFFFFFFFFFFFFF AND PUSH20 0xFFFFFFFFFFFFFFFFFFFFFFFFFFFFFFFFFFFFFFFF AND DUP2 MSTORE PUSH1 0x20 ADD SWAP1 DUP2 MSTORE PUSH1 0x20 ADD PUSH0 KECCAK256 SLOAD PUSH2 0x3B23 JUMP JUMPDEST SWAP1 POP PUSH0 PUSH2 0xC8C PUSH1 0x62 PUSH2 0xC02 DUP6 PUSH2 0x3776 JUMP JUMPDEST PUSH1 0x40 MLOAD PUSH2 0xC0F SWAP2 SWAP1 PUSH2 0x424E JUMP JUMPDEST SWAP1 DUP2 MSTORE PUSH1 0x20 ADD PUSH1 0x40 MLOAD DUP1 SWAP2 SUB SWAP1 KECCAK256 SLOAD PUSH1 0x64 PUSH2 0xC29 DUP7 PUSH2 0x3776 JUMP JUMPDEST PUSH1 0x40 MLOAD PUSH2 0xC36 SWAP2 SWAP1 PUSH2 0x424E JUMP JUMPDEST SWAP1 DUP2 MSTORE PUSH1 0x20 ADD PUSH1 0x40 MLOAD DUP1 SWAP2 SUB SWAP1 KECCAK256 PUSH0 PUSH2 0xC4D PUSH2 0x39CB JUMP JUMPDEST PUSH20 0xFFFFFFFFFFFFFFFFFFFFFFFFFFFFFFFFFFFFFFFF AND PUSH20 0xFFFFFFFFFFFFFFFFFFFFFFFFFFFFFFFFFFFFFFFF AND DUP2 MSTORE PUSH1 0x20 ADD SWAP1 DUP2 MSTORE PUSH1 0x20 ADD PUSH0 KECCAK256 SLOAD PUSH2 0x3B23 JUMP JUMPDEST SWAP1 POP PUSH2 0xCC7 DUP3 PUSH1 0x61 PUSH2 0xC9D DUP7 PUSH2 0x3776 JUMP JUMPDEST PUSH1 0x40 MLOAD PUSH2 0xCAA SWAP2 SWAP1 PUSH2 0x424E JUMP JUMPDEST SWAP1 DUP2 MSTORE PUSH1 0x20 ADD PUSH1 0x40 MLOAD DUP1 SWAP2 SUB SWAP1 KECCAK256 SLOAD PUSH2 0x3A1E SWAP1 SWAP2 SWAP1 PUSH4 0xFFFFFFFF AND JUMP JUMPDEST PUSH1 0x61 PUSH2 0xCD2 DUP6 PUSH2 0x3776 JUMP JUMPDEST PUSH1 0x40 MLOAD PUSH2 0xCDF SWAP2 SWAP1 PUSH2 0x424E JUMP JUMPDEST SWAP1 DUP2 MSTORE PUSH1 0x20 ADD PUSH1 0x40 MLOAD DUP1 SWAP2 SUB SWAP1 KECCAK256 DUP2 SWAP1 SSTORE POP PUSH2 0xD2A DUP2 PUSH1 0x62 PUSH2 0xD00 DUP7 PUSH2 0x3776 JUMP JUMPDEST PUSH1 0x40 MLOAD PUSH2 0xD0D SWAP2 SWAP1 PUSH2 0x424E JUMP JUMPDEST SWAP1 DUP2 MSTORE PUSH1 0x20 ADD PUSH1 0x40 MLOAD DUP1 SWAP2 SUB SWAP1 KECCAK256 SLOAD PUSH2 0x3A1E SWAP1 SWAP2 SWAP1 PUSH4 0xFFFFFFFF AND JUMP JUMPDEST PUSH1 0x62 PUSH2 0xD35 DUP6 PUSH2 0x3776 JUMP JUMPDEST PUSH1 0x40 MLOAD PUSH2 0xD42 SWAP2 SWAP1 PUSH2 0x424E JUMP JUMPDEST SWAP1 DUP2 MSTORE PUSH1 0x20 ADD PUSH1 0x40 MLOAD DUP1 SWAP2 SUB SWAP1 KECCAK256 DUP2 SWAP1 SSTORE POP PUSH0 PUSH1 0x64 PUSH2 0xD60 DUP6 PUSH2 0x3776 JUMP JUMPDEST PUSH1 0x40 MLOAD PUSH2 0xD6D SWAP2 SWAP1 PUSH2 0x424E JUMP JUMPDEST SWAP1 DUP2 MSTORE PUSH1 0x20 ADD PUSH1 0x40 MLOAD DUP1 SWAP2 SUB SWAP1 KECCAK256 PUSH0 PUSH2 0xD84 PUSH2 0x39CB JUMP JUMPDEST PUSH20 0xFFFFFFFFFFFFFFFFFFFFFFFFFFFFFFFFFFFFFFFF AND PUSH20 0xFFFFFFFFFFFFFFFFFFFFFFFFFFFFFFFFFFFFFFFF AND DUP2 MSTORE PUSH1 0x20 ADD SWAP1 DUP2 MSTORE PUSH1 0x20 ADD PUSH0 KECCAK256 DUP2 SWAP1 SSTORE POP PUSH0 PUSH1 0x63 PUSH2 0xDCD DUP6 PUSH2 0x3776 JUMP JUMPDEST PUSH1 0x40 MLOAD PUSH2 0xDDA SWAP2 SWAP1 PUSH2 0x424E JUMP JUMPDEST SWAP1 DUP2 MSTORE PUSH1 0x20 ADD PUSH1 0x40 MLOAD DUP1 SWAP2 SUB SWAP1 KECCAK256 PUSH0 PUSH2 0xDF1 PUSH2 0x39CB JUMP JUMPDEST PUSH20 0xFFFFFFFFFFFFFFFFFFFFFFFFFFFFFFFFFFFFFFFF AND PUSH20 0xFFFFFFFFFFFFFFFFFFFFFFFFFFFFFFFFFFFFFFFF AND DUP2 MSTORE PUSH1 0x20 ADD SWAP1 DUP2 MSTORE PUSH1 0x20 ADD PUSH0 KECCAK256 DUP2 SWAP1 SSTORE POP PUSH2 0xE85 DUP2 PUSH2 0xE3A PUSH2 0x39CB JUMP JUMPDEST PUSH1 0x5B PUSH2 0xE45 DUP8 PUSH2 0x3776 JUMP JUMPDEST PUSH1 0x40 MLOAD PUSH2 0xE52 SWAP2 SWAP1 PUSH2 0x424E JUMP JUMPDEST SWAP1 DUP2 MSTORE PUSH1 0x20 ADD PUSH1 0x40 MLOAD DUP1 SWAP2 SUB SWAP1 KECCAK256 PUSH0 SWAP1 SLOAD SWAP1 PUSH2 0x100 EXP SWAP1 DIV PUSH20 0xFFFFFFFFFFFFFFFFFFFFFFFFFFFFFFFFFFFFFFFF AND PUSH2 0x3A33 JUMP JUMPDEST PUSH2 0xEDC DUP3 PUSH2 0xE91 PUSH2 0x39CB JUMP JUMPDEST PUSH1 0x5A PUSH2 0xE9C DUP8 PUSH2 0x3776 JUMP JUMPDEST PUSH1 0x40 MLOAD PUSH2 0xEA9 SWAP2 SWAP1 PUSH2 0x424E JUMP JUMPDEST SWAP1 DUP2 MSTORE PUSH1 0x20 ADD PUSH1 0x40 MLOAD DUP1 SWAP2 SUB SWAP1 KECCAK256 PUSH0 SWAP1 SLOAD SWAP1 PUSH2 0x100 EXP SWAP1 DIV PUSH20 0xFFFFFFFFFFFFFFFFFFFFFFFFFFFFFFFFFFFFFFFF AND PUSH2 0x3A33 JUMP JUMPDEST PUSH32 0xF8FD1F1D6808723922AFF612E9551226A6382252BC96CA9FC5638186D7926F7 PUSH2 0xF05 PUSH2 0x39CB JUMP JUMPDEST DUP4 DUP4 DUP7 TIMESTAMP PUSH1 0x40 MLOAD PUSH2 0xF1A SWAP6 SWAP5 SWAP4 SWAP3 SWAP2 SWAP1 PUSH2 0x4568 JUMP JUMPDEST PUSH1 0x40 MLOAD DUP1 SWAP2 SUB SWAP1 LOG1 POP POP POP JUMP JUMPDEST PUSH0 ADDRESS SWAP1 POP PUSH1 0x65 PUSH2 0xF36 DUP4 PUSH2 0x3776 JUMP JUMPDEST PUSH1 0x40 MLOAD PUSH2 0xF43 SWAP2 SWAP1 PUSH2 0x424E JUMP JUMPDEST SWAP1 DUP2 MSTORE PUSH1 0x20 ADD PUSH1 0x40 MLOAD DUP1 SWAP2 SUB SWAP1 KECCAK256 PUSH0 SWAP1 SLOAD SWAP1 PUSH2 0x100 EXP SWAP1 DIV PUSH1 0xFF AND PUSH2 0xF9D JUMPI PUSH1 0x40 MLOAD PUSH32 0x8C379A000000000000000000000000000000000000000000000000000000000 DUP2 MSTORE PUSH1 0x4 ADD PUSH2 0xF94 SWAP1 PUSH2 0x42AE JUMP JUMPDEST PUSH1 0x40 MLOAD DUP1 SWAP2 SUB SWAP1 REVERT JUMPDEST PUSH0 DUP4 GT PUSH2 0xFDF JUMPI PUSH1 0x40 MLOAD PUSH32 0x8C379A000000000000000000000000000000000000000000000000000000000 DUP2 MSTORE PUSH1 0x4 ADD PUSH2 0xFD6 SWAP1 PUSH2 0x41C4 JUMP JUMPDEST PUSH1 0x40 MLOAD DUP1 SWAP2 SUB SWAP1 REVERT JUMPDEST PUSH2 0x102F PUSH1 0x5B PUSH2 0xFED DUP5 PUSH2 0x3776 JUMP JUMPDEST PUSH1 0x40 MLOAD PUSH2 0xFFA SWAP2 SWAP1 PUSH2 0x424E JUMP JUMPDEST SWAP1 DUP2 MSTORE PUSH1 0x20 ADD PUSH1 0x40 MLOAD DUP1 SWAP2 SUB SWAP1 KECCAK256 PUSH0 SWAP1 SLOAD SWAP1 PUSH2 0x100 EXP SWAP1 DIV PUSH20 0xFFFFFFFFFFFFFFFFFFFFFFFFFFFFFFFFFFFFFFFF AND DUP5 ADDRESS PUSH2 0x3805 JUMP JUMPDEST PUSH0 DUP2 PUSH20 0xFFFFFFFFFFFFFFFFFFFFFFFFFFFFFFFFFFFFFFFF AND PUSH4 0xFE2C6198 DUP5 PUSH1 0x40 MLOAD DUP3 PUSH4 0xFFFFFFFF AND PUSH1 0xE0 SHL DUP2 MSTORE PUSH1 0x4 ADD PUSH2 0x1069 SWAP2 SWAP1 PUSH2 0x430E JUMP JUMPDEST PUSH1 0x20 PUSH1 0x40 MLOAD DUP1 DUP4 SUB DUP2 DUP7 GAS STATICCALL ISZERO DUP1 ISZERO PUSH2 0x1084 JUMPI RETURNDATASIZE PUSH0 DUP1 RETURNDATACOPY RETURNDATASIZE PUSH0 REVERT JUMPDEST POP POP POP POP PUSH1 0x40 MLOAD RETURNDATASIZE PUSH1 0x1F NOT PUSH1 0x1F DUP3 ADD AND DUP3 ADD DUP1 PUSH1 0x40 MSTORE POP DUP2 ADD SWAP1 PUSH2 0x10A8 SWAP2 SWAP1 PUSH2 0x4342 JUMP JUMPDEST SWAP1 POP PUSH0 PUSH2 0x10B6 DUP3 DUP7 PUSH0 PUSH2 0x3990 JUMP JUMPDEST SWAP1 POP PUSH2 0x1146 DUP6 PUSH1 0x5C PUSH0 PUSH2 0x10C7 PUSH2 0x39CB JUMP JUMPDEST PUSH20 0xFFFFFFFFFFFFFFFFFFFFFFFFFFFFFFFFFFFFFFFF AND PUSH20 0xFFFFFFFFFFFFFFFFFFFFFFFFFFFFFFFFFFFFFFFF AND DUP2 MSTORE PUSH1 0x20 ADD SWAP1 DUP2 MSTORE PUSH1 0x20 ADD PUSH0 KECCAK256 PUSH2 0x1109 DUP8 PUSH2 0x3776 JUMP JUMPDEST PUSH1 0x40 MLOAD PUSH2 0x1116 SWAP2 SWAP1 PUSH2 0x424E JUMP JUMPDEST SWAP1 DUP2 MSTORE PUSH1 0x20 ADD PUSH1 0x40 MLOAD DUP1 SWAP2 SUB SWAP1 KECCAK256 PUSH0 DUP1 ISZERO ISZERO ISZERO ISZERO DUP2 MSTORE PUSH1 0x20 ADD SWAP1 DUP2 MSTORE PUSH1 0x20 ADD PUSH0 KECCAK256 SLOAD PUSH2 0x39D2 SWAP1 SWAP2 SWAP1 PUSH4 0xFFFFFFFF AND JUMP JUMPDEST PUSH1 0x5C PUSH0 PUSH2 0x1151 PUSH2 0x39CB JUMP JUMPDEST PUSH20 0xFFFFFFFFFFFFFFFFFFFFFFFFFFFFFFFFFFFFFFFF AND PUSH20 0xFFFFFFFFFFFFFFFFFFFFFFFFFFFFFFFFFFFFFFFF AND DUP2 MSTORE PUSH1 0x20 ADD SWAP1 DUP2 MSTORE PUSH1 0x20 ADD PUSH0 KECCAK256 PUSH2 0x1193 DUP7 PUSH2 0x3776 JUMP JUMPDEST PUSH1 0x40 MLOAD PUSH2 0x11A0 SWAP2 SWAP1 PUSH2 0x424E JUMP JUMPDEST SWAP1 DUP2 MSTORE PUSH1 0x20 ADD PUSH1 0x40 MLOAD DUP1 SWAP2 SUB SWAP1 KECCAK256 PUSH0 DUP1 ISZERO ISZERO ISZERO ISZERO DUP2 MSTORE PUSH1 0x20 ADD SWAP1 DUP2 MSTORE PUSH1 0x20 ADD PUSH0 KECCAK256 DUP2 SWAP1 SSTORE POP PUSH2 0x1211 DUP6 PUSH1 0x5D PUSH2 0x11D4 DUP8 PUSH2 0x3776 JUMP JUMPDEST PUSH1 0x40 MLOAD PUSH2 0x11E1 SWAP2 SWAP1 PUSH2 0x424E JUMP JUMPDEST SWAP1 DUP2 MSTORE PUSH1 0x20 ADD PUSH1 0x40 MLOAD DUP1 SWAP2 SUB SWAP1 KECCAK256 PUSH0 DUP1 ISZERO ISZERO ISZERO ISZERO DUP2 MSTORE PUSH1 0x20 ADD SWAP1 DUP2 MSTORE PUSH1 0x20 ADD PUSH0 KECCAK256 SLOAD PUSH2 0x39D2 SWAP1 SWAP2 SWAP1 PUSH4 0xFFFFFFFF AND JUMP JUMPDEST PUSH1 0x5D PUSH2 0x121C DUP7 PUSH2 0x3776 JUMP JUMPDEST PUSH1 0x40 MLOAD PUSH2 0x1229 SWAP2 SWAP1 PUSH2 0x424E JUMP JUMPDEST SWAP1 DUP2 MSTORE PUSH1 0x20 ADD PUSH1 0x40 MLOAD DUP1 SWAP2 SUB SWAP1 KECCAK256 PUSH0 DUP1 ISZERO ISZERO ISZERO ISZERO DUP2 MSTORE PUSH1 0x20 ADD SWAP1 DUP2 MSTORE PUSH1 0x20 ADD PUSH0 KECCAK256 DUP2 SWAP1 SSTORE POP PUSH0 PUSH2 0x1264 PUSH1 0x5E SLOAD DUP4 PUSH2 0x39E7 SWAP1 SWAP2 SWAP1 PUSH4 0xFFFFFFFF AND JUMP JUMPDEST SWAP1 POP PUSH2 0x129F DUP2 PUSH1 0x5F PUSH2 0x1275 DUP9 PUSH2 0x3776 JUMP JUMPDEST PUSH1 0x40 MLOAD PUSH2 0x1282 SWAP2 SWAP1 PUSH2 0x424E JUMP JUMPDEST SWAP1 DUP2 MSTORE PUSH1 0x20 ADD PUSH1 0x40 MLOAD DUP1 SWAP2 SUB SWAP1 KECCAK256 SLOAD PUSH2 0x39D2 SWAP1 SWAP2 SWAP1 PUSH4 0xFFFFFFFF AND JUMP JUMPDEST PUSH1 0x5F PUSH2 0x12AA DUP8 PUSH2 0x3776 JUMP JUMPDEST PUSH1 0x40 MLOAD PUSH2 0x12B7 SWAP2 SWAP1 PUSH2 0x424E JUMP JUMPDEST SWAP1 DUP2 MSTORE PUSH1 0x20 ADD PUSH1 0x40 MLOAD DUP1 SWAP2 SUB SWAP1 KECCAK256 DUP2 SWAP1 SSTORE POP DUP2 PUSH1 0x61 PUSH2 0x12D5 DUP8 PUSH2 0x3776 JUMP JUMPDEST PUSH1 0x40 MLOAD PUSH2 0x12E2 SWAP2 SWAP1 PUSH2 0x424E JUMP JUMPDEST SWAP1 DUP2 MSTORE PUSH1 0x20 ADD PUSH1 0x40 MLOAD DUP1 SWAP2 SUB SWAP1 KECCAK256 SLOAD LT ISZERO PUSH2 0x1332 JUMPI PUSH1 0x40 MLOAD PUSH32 0x8C379A000000000000000000000000000000000000000000000000000000000 DUP2 MSTORE PUSH1 0x4 ADD PUSH2 0x1329 SWAP1 PUSH2 0x43B7 JUMP JUMPDEST PUSH1 0x40 MLOAD DUP1 SWAP2 SUB SWAP1 REVERT JUMPDEST PUSH2 0x136B DUP3 PUSH1 0x61 PUSH2 0x1341 DUP9 PUSH2 0x3776 JUMP JUMPDEST PUSH1 0x40 MLOAD PUSH2 0x134E SWAP2 SWAP1 PUSH2 0x424E JUMP JUMPDEST SWAP1 DUP2 MSTORE PUSH1 0x20 ADD PUSH1 0x40 MLOAD DUP1 SWAP2 SUB SWAP1 KECCAK256 SLOAD PUSH2 0x3A1E SWAP1 SWAP2 SWAP1 PUSH4 0xFFFFFFFF AND JUMP JUMPDEST PUSH1 0x61 PUSH2 0x1376 DUP8 PUSH2 0x3776 JUMP JUMPDEST PUSH1 0x40 MLOAD PUSH2 0x1383 SWAP2 SWAP1 PUSH2 0x424E JUMP JUMPDEST SWAP1 DUP2 MSTORE PUSH1 0x20 ADD PUSH1 0x40 MLOAD DUP1 SWAP2 SUB SWAP1 KECCAK256 DUP2 SWAP1 SSTORE POP PUSH2 0x13CE DUP7 PUSH1 0x62 PUSH2 0x13A4 DUP9 PUSH2 0x3776 JUMP JUMPDEST PUSH1 0x40 MLOAD PUSH2 0x13B1 SWAP2 SWAP1 PUSH2 0x424E JUMP JUMPDEST SWAP1 DUP2 MSTORE PUSH1 0x20 ADD PUSH1 0x40 MLOAD DUP1 SWAP2 SUB SWAP1 KECCAK256 SLOAD PUSH2 0x39D2 SWAP1 SWAP2 SWAP1 PUSH4 0xFFFFFFFF AND JUMP JUMPDEST PUSH1 0x62 PUSH2 0x13D9 DUP8 PUSH2 0x3776 JUMP JUMPDEST PUSH1 0x40 MLOAD PUSH2 0x13E6 SWAP2 SWAP1 PUSH2 0x424E JUMP JUMPDEST SWAP1 DUP2 MSTORE PUSH1 0x20 ADD PUSH1 0x40 MLOAD DUP1 SWAP2 SUB SWAP1 KECCAK256 DUP2 SWAP1 SSTORE POP PUSH2 0x1461 PUSH2 0x140E DUP3 DUP5 PUSH2 0x3A1E SWAP1 SWAP2 SWAP1 PUSH4 0xFFFFFFFF AND JUMP JUMPDEST PUSH2 0x1416 PUSH2 0x39CB JUMP JUMPDEST PUSH1 0x5A PUSH2 0x1421 DUP10 PUSH2 0x3776 JUMP JUMPDEST PUSH1 0x40 MLOAD PUSH2 0x142E SWAP2 SWAP1 PUSH2 0x424E JUMP JUMPDEST SWAP1 DUP2 MSTORE PUSH1 0x20 ADD PUSH1 0x40 MLOAD DUP1 SWAP2 SUB SWAP1 KECCAK256 PUSH0 SWAP1 SLOAD SWAP1 PUSH2 0x100 EXP SWAP1 DIV PUSH20 0xFFFFFFFFFFFFFFFFFFFFFFFFFFFFFFFFFFFFFFFF AND PUSH2 0x3A33 JUMP JUMPDEST PUSH32 0x757C5E4BDCF31B72F454B6592D3939C4919CBB2212E5DC5E84141EBF369D54C3 PUSH2 0x148A PUSH2 0x39CB JUMP JUMPDEST DUP8 PUSH2 0x149E DUP5 DUP7 PUSH2 0x3A1E SWAP1 SWAP2 SWAP1 PUSH4 0xFFFFFFFF AND JUMP JUMPDEST PUSH0 TIMESTAMP DUP7 DUP12 PUSH1 0x40 MLOAD PUSH2 0x14B5 SWAP8 SWAP7 SWAP6 SWAP5 SWAP4 SWAP3 SWAP2 SWAP1 PUSH2 0x43FE JUMP JUMPDEST PUSH1 0x40 MLOAD DUP1 SWAP2 SUB SWAP1 LOG1 POP POP POP POP POP POP JUMP JUMPDEST PUSH2 0x14CD PUSH2 0x3AF2 JUMP JUMPDEST PUSH20 0xFFFFFFFFFFFFFFFFFFFFFFFFFFFFFFFFFFFFFFFF AND PUSH2 0x14EB PUSH2 0x39CB JUMP JUMPDEST PUSH20 0xFFFFFFFFFFFFFFFFFFFFFFFFFFFFFFFFFFFFFFFF AND EQ PUSH2 0x1541 JUMPI PUSH1 0x40 MLOAD PUSH32 0x8C379A000000000000000000000000000000000000000000000000000000000 DUP2 MSTORE PUSH1 0x4 ADD PUSH2 0x1538 SWAP1 PUSH2 0x44E2 JUMP JUMPDEST PUSH1 0x40 MLOAD DUP1 SWAP2 SUB SWAP1 REVERT JUMPDEST DUP2 PUSH1 0x5B PUSH2 0x154D DUP6 PUSH2 0x3776 JUMP JUMPDEST PUSH1 0x40 MLOAD PUSH2 0x155A SWAP2 SWAP1 PUSH2 0x424E JUMP JUMPDEST SWAP1 DUP2 MSTORE PUSH1 0x20 ADD PUSH1 0x40 MLOAD DUP1 SWAP2 SUB SWAP1 KECCAK256 PUSH0 PUSH2 0x100 EXP DUP2 SLOAD DUP2 PUSH20 0xFFFFFFFFFFFFFFFFFFFFFFFFFFFFFFFFFFFFFFFF MUL NOT AND SWAP1 DUP4 PUSH20 0xFFFFFFFFFFFFFFFFFFFFFFFFFFFFFFFFFFFFFFFF AND MUL OR SWAP1 SSTORE POP DUP1 PUSH1 0x5A PUSH2 0x15B1 DUP6 PUSH2 0x3776 JUMP JUMPDEST PUSH1 0x40 MLOAD PUSH2 0x15BE SWAP2 SWAP1 PUSH2 0x424E JUMP JUMPDEST SWAP1 DUP2 MSTORE PUSH1 0x20 ADD PUSH1 0x40 MLOAD DUP1 SWAP2 SUB SWAP1 KECCAK256 PUSH0 PUSH2 0x100 EXP DUP2 SLOAD DUP2 PUSH20 0xFFFFFFFFFFFFFFFFFFFFFFFFFFFFFFFFFFFFFFFF MUL NOT AND SWAP1 DUP4 PUSH20 0xFFFFFFFFFFFFFFFFFFFFFFFFFFFFFFFFFFFFFFFF AND MUL OR SWAP1 SSTORE POP PUSH1 0x1 PUSH1 0x65 PUSH2 0x1616 DUP6 PUSH2 0x3776 JUMP JUMPDEST PUSH1 0x40 MLOAD PUSH2 0x1623 SWAP2 SWAP1 PUSH2 0x424E JUMP JUMPDEST SWAP1 DUP2 MSTORE PUSH1 0x20 ADD PUSH1 0x40 MLOAD DUP1 SWAP2 SUB SWAP1 KECCAK256 PUSH0 PUSH2 0x100 EXP DUP2 SLOAD DUP2 PUSH1 0xFF MUL NOT AND SWAP1 DUP4 ISZERO ISZERO MUL OR SWAP1 SSTORE POP PUSH32 0xDCB3DDD91BE08847BE3B7C72E8882E56550DEBBA4295AE4AFE36C8D1B52E53BF DUP4 DUP4 DUP4 PUSH2 0x1673 PUSH2 0x39CB JUMP JUMPDEST TIMESTAMP PUSH1 0x40 MLOAD PUSH2 0x1685 SWAP6 SWAP5 SWAP4 SWAP3 SWAP2 SWAP1 PUSH2 0x45C0 JUMP JUMPDEST PUSH1 0x40 MLOAD DUP1 SWAP2 SUB SWAP1 LOG1 POP POP POP JUMP JUMPDEST PUSH1 0x65 PUSH2 0x169D DUP3 PUSH2 0x3776 JUMP JUMPDEST PUSH1 0x40 MLOAD PUSH2 0x16AA SWAP2 SWAP1 PUSH2 0x424E JUMP JUMPDEST SWAP1 DUP2 MSTORE PUSH1 0x20 ADD PUSH1 0x40 MLOAD DUP1 SWAP2 SUB SWAP1 KECCAK256 PUSH0 SWAP1 SLOAD SWAP1 PUSH2 0x100 EXP SWAP1 DIV PUSH1 0xFF AND PUSH2 0x1704 JUMPI PUSH1 0x40 MLOAD PUSH32 0x8C379A000000000000000000000000000000000000000000000000000000000 DUP2 MSTORE PUSH1 0x4 ADD PUSH2 0x16FB SWAP1 PUSH2 0x42AE JUMP JUMPDEST PUSH1 0x40 MLOAD DUP1 SWAP2 SUB SWAP1 REVERT JUMPDEST PUSH0 CALLVALUE SWAP1 POP PUSH0 DUP2 GT PUSH2 0x174A JUMPI PUSH1 0x40 MLOAD PUSH32 0x8C379A000000000000000000000000000000000000000000000000000000000 DUP2 MSTORE PUSH1 0x4 ADD PUSH2 0x1741 SWAP1 PUSH2 0x41C4 JUMP JUMPDEST PUSH1 0x40 MLOAD DUP1 SWAP2 SUB SWAP1 REVERT JUMPDEST PUSH0 ADDRESS SWAP1 POP PUSH0 DUP2 PUSH20 0xFFFFFFFFFFFFFFFFFFFFFFFFFFFFFFFFFFFFFFFF AND PUSH4 0xFE2C6198 DUP6 PUSH1 0x40 MLOAD DUP3 PUSH4 0xFFFFFFFF AND PUSH1 0xE0 SHL DUP2 MSTORE PUSH1 0x4 ADD PUSH2 0x1788 SWAP2 SWAP1 PUSH2 0x430E JUMP JUMPDEST PUSH1 0x20 PUSH1 0x40 MLOAD DUP1 DUP4 SUB DUP2 DUP7 GAS STATICCALL ISZERO DUP1 ISZERO PUSH2 0x17A3 JUMPI RETURNDATASIZE PUSH0 DUP1 RETURNDATACOPY RETURNDATASIZE PUSH0 REVERT JUMPDEST POP POP POP POP PUSH1 0x40 MLOAD RETURNDATASIZE PUSH1 0x1F NOT PUSH1 0x1F DUP3 ADD AND DUP3 ADD DUP1 PUSH1 0x40 MSTORE POP DUP2 ADD SWAP1 PUSH2 0x17C7 SWAP2 SWAP1 PUSH2 0x4342 JUMP JUMPDEST SWAP1 POP PUSH0 PUSH2 0x17D6 DUP3 DUP6 PUSH1 0x1 PUSH2 0x3990 JUMP JUMPDEST SWAP1 POP PUSH2 0x1867 DUP5 PUSH1 0x5C PUSH0 PUSH2 0x17E7 PUSH2 0x39CB JUMP JUMPDEST PUSH20 0xFFFFFFFFFFFFFFFFFFFFFFFFFFFFFFFFFFFFFFFF AND PUSH20 0xFFFFFFFFFFFFFFFFFFFFFFFFFFFFFFFFFFFFFFFF AND DUP2 MSTORE PUSH1 0x20 ADD SWAP1 DUP2 MSTORE PUSH1 0x20 ADD PUSH0 KECCAK256 PUSH2 0x1829 DUP9 PUSH2 0x3776 JUMP JUMPDEST PUSH1 0x40 MLOAD PUSH2 0x1836 SWAP2 SWAP1 PUSH2 0x424E JUMP JUMPDEST SWAP1 DUP2 MSTORE PUSH1 0x20 ADD PUSH1 0x40 MLOAD DUP1 SWAP2 SUB SWAP1 KECCAK256 PUSH0 PUSH1 0x1 ISZERO ISZERO ISZERO ISZERO DUP2 MSTORE PUSH1 0x20 ADD SWAP1 DUP2 MSTORE PUSH1 0x20 ADD PUSH0 KECCAK256 SLOAD PUSH2 0x39D2 SWAP1 SWAP2 SWAP1 PUSH4 0xFFFFFFFF AND JUMP JUMPDEST PUSH1 0x5C PUSH0 PUSH2 0x1872 PUSH2 0x39CB JUMP JUMPDEST PUSH20 0xFFFFFFFFFFFFFFFFFFFFFFFFFFFFFFFFFFFFFFFF AND PUSH20 0xFFFFFFFFFFFFFFFFFFFFFFFFFFFFFFFFFFFFFFFF AND DUP2 MSTORE PUSH1 0x20 ADD SWAP1 DUP2 MSTORE PUSH1 0x20 ADD PUSH0 KECCAK256 PUSH2 0x18B4 DUP8 PUSH2 0x3776 JUMP JUMPDEST PUSH1 0x40 MLOAD PUSH2 0x18C1 SWAP2 SWAP1 PUSH2 0x424E JUMP JUMPDEST SWAP1 DUP2 MSTORE PUSH1 0x20 ADD PUSH1 0x40 MLOAD DUP1 SWAP2 SUB SWAP1 KECCAK256 PUSH0 PUSH1 0x1 ISZERO ISZERO ISZERO ISZERO DUP2 MSTORE PUSH1 0x20 ADD SWAP1 DUP2 MSTORE PUSH1 0x20 ADD PUSH0 KECCAK256 DUP2 SWAP1 SSTORE POP PUSH2 0x1934 DUP5 PUSH1 0x5D PUSH2 0x18F6 DUP9 PUSH2 0x3776 JUMP JUMPDEST PUSH1 0x40 MLOAD PUSH2 0x1903 SWAP2 SWAP1 PUSH2 0x424E JUMP JUMPDEST SWAP1 DUP2 MSTORE PUSH1 0x20 ADD PUSH1 0x40 MLOAD DUP1 SWAP2 SUB SWAP1 KECCAK256 PUSH0 PUSH1 0x1 ISZERO ISZERO ISZERO ISZERO DUP2 MSTORE PUSH1 0x20 ADD SWAP1 DUP2 MSTORE PUSH1 0x20 ADD PUSH0 KECCAK256 SLOAD PUSH2 0x39D2 SWAP1 SWAP2 SWAP1 PUSH4 0xFFFFFFFF AND JUMP JUMPDEST PUSH1 0x5D PUSH2 0x193F DUP8 PUSH2 0x3776 JUMP JUMPDEST PUSH1 0x40 MLOAD PUSH2 0x194C SWAP2 SWAP1 PUSH2 0x424E JUMP JUMPDEST SWAP1 DUP2 MSTORE PUSH1 0x20 ADD PUSH1 0x40 MLOAD DUP1 SWAP2 SUB SWAP1 KECCAK256 PUSH0 PUSH1 0x1 ISZERO ISZERO ISZERO ISZERO DUP2 MSTORE PUSH1 0x20 ADD SWAP1 DUP2 MSTORE PUSH1 0x20 ADD PUSH0 KECCAK256 DUP2 SWAP1 SSTORE POP PUSH0 PUSH2 0x1988 PUSH1 0x5E SLOAD DUP4 PUSH2 0x39E7 SWAP1 SWAP2 SWAP1 PUSH4 0xFFFFFFFF AND JUMP JUMPDEST SWAP1 POP PUSH2 0x19C3 DUP2 PUSH1 0x60 PUSH2 0x1999 DUP10 PUSH2 0x3776 JUMP JUMPDEST PUSH1 0x40 MLOAD PUSH2 0x19A6 SWAP2 SWAP1 PUSH2 0x424E JUMP JUMPDEST SWAP1 DUP2 MSTORE PUSH1 0x20 ADD PUSH1 0x40 MLOAD DUP1 SWAP2 SUB SWAP1 KECCAK256 SLOAD PUSH2 0x39D2 SWAP1 SWAP2 SWAP1 PUSH4 0xFFFFFFFF AND JUMP JUMPDEST PUSH1 0x60 PUSH2 0x19CE DUP9 PUSH2 0x3776 JUMP JUMPDEST PUSH1 0x40 MLOAD PUSH2 0x19DB SWAP2 SWAP1 PUSH2 0x424E JUMP JUMPDEST SWAP1 DUP2 MSTORE PUSH1 0x20 ADD PUSH1 0x40 MLOAD DUP1 SWAP2 SUB SWAP1 KECCAK256 DUP2 SWAP1 SSTORE POP DUP2 PUSH1 0x62 PUSH2 0x19F9 DUP9 PUSH2 0x3776 JUMP JUMPDEST PUSH1 0x40 MLOAD PUSH2 0x1A06 SWAP2 SWAP1 PUSH2 0x424E JUMP JUMPDEST SWAP1 DUP2 MSTORE PUSH1 0x20 ADD PUSH1 0x40 MLOAD DUP1 SWAP2 SUB SWAP1 KECCAK256 SLOAD LT ISZERO PUSH2 0x1A56 JUMPI PUSH1 0x40 MLOAD PUSH32 0x8C379A000000000000000000000000000000000000000000000000000000000 DUP2 MSTORE PUSH1 0x4 ADD PUSH2 0x1A4D SWAP1 PUSH2 0x43B7 JUMP JUMPDEST PUSH1 0x40 MLOAD DUP1 SWAP2 SUB SWAP1 REVERT JUMPDEST PUSH2 0x1A8F DUP3 PUSH1 0x62 PUSH2 0x1A65 DUP10 PUSH2 0x3776 JUMP JUMPDEST PUSH1 0x40 MLOAD PUSH2 0x1A72 SWAP2 SWAP1 PUSH2 0x424E JUMP JUMPDEST SWAP1 DUP2 MSTORE PUSH1 0x20 ADD PUSH1 0x40 MLOAD DUP1 SWAP2 SUB SWAP1 KECCAK256 SLOAD PUSH2 0x3A1E SWAP1 SWAP2 SWAP1 PUSH4 0xFFFFFFFF AND JUMP JUMPDEST PUSH1 0x62 PUSH2 0x1A9A DUP9 PUSH2 0x3776 JUMP JUMPDEST PUSH1 0x40 MLOAD PUSH2 0x1AA7 SWAP2 SWAP1 PUSH2 0x424E JUMP JUMPDEST SWAP1 DUP2 MSTORE PUSH1 0x20 ADD PUSH1 0x40 MLOAD DUP1 SWAP2 SUB SWAP1 KECCAK256 DUP2 SWAP1 SSTORE POP PUSH2 0x1AF2 DUP6 PUSH1 0x61 PUSH2 0x1AC8 DUP10 PUSH2 0x3776 JUMP JUMPDEST PUSH1 0x40 MLOAD PUSH2 0x1AD5 SWAP2 SWAP1 PUSH2 0x424E JUMP JUMPDEST SWAP1 DUP2 MSTORE PUSH1 0x20 ADD PUSH1 0x40 MLOAD DUP1 SWAP2 SUB SWAP1 KECCAK256 SLOAD PUSH2 0x39D2 SWAP1 SWAP2 SWAP1 PUSH4 0xFFFFFFFF AND JUMP JUMPDEST PUSH1 0x61 PUSH2 0x1AFD DUP9 PUSH2 0x3776 JUMP JUMPDEST PUSH1 0x40 MLOAD PUSH2 0x1B0A SWAP2 SWAP1 PUSH2 0x424E JUMP JUMPDEST SWAP1 DUP2 MSTORE PUSH1 0x20 ADD PUSH1 0x40 MLOAD DUP1 SWAP2 SUB SWAP1 KECCAK256 DUP2 SWAP1 SSTORE POP PUSH2 0x1B85 PUSH2 0x1B32 DUP3 DUP5 PUSH2 0x3A1E SWAP1 SWAP2 SWAP1 PUSH4 0xFFFFFFFF AND JUMP JUMPDEST PUSH2 0x1B3A PUSH2 0x39CB JUMP JUMPDEST PUSH1 0x5B PUSH2 0x1B45 DUP11 PUSH2 0x3776 JUMP JUMPDEST PUSH1 0x40 MLOAD PUSH2 0x1B52 SWAP2 SWAP1 PUSH2 0x424E JUMP JUMPDEST SWAP1 DUP2 MSTORE PUSH1 0x20 ADD PUSH1 0x40 MLOAD DUP1 SWAP2 SUB SWAP1 KECCAK256 PUSH0 SWAP1 SLOAD SWAP1 PUSH2 0x100 EXP SWAP1 DIV PUSH20 0xFFFFFFFFFFFFFFFFFFFFFFFFFFFFFFFFFFFFFFFF AND PUSH2 0x3A33 JUMP JUMPDEST PUSH32 0x757C5E4BDCF31B72F454B6592D3939C4919CBB2212E5DC5E84141EBF369D54C3 PUSH2 0x1BAE PUSH2 0x39CB JUMP JUMPDEST DUP7 PUSH2 0x1BC2 DUP5 DUP7 PUSH2 0x3A1E SWAP1 SWAP2 SWAP1 PUSH4 0xFFFFFFFF AND JUMP JUMPDEST PUSH1 0x1 TIMESTAMP DUP7 DUP13 PUSH1 0x40 MLOAD PUSH2 0x1BDA SWAP8 SWAP7 SWAP6 SWAP5 SWAP4 SWAP3 SWAP2 SWAP1 PUSH2 0x43FE JUMP JUMPDEST PUSH1 0x40 MLOAD DUP1 SWAP2 SUB SWAP1 LOG1 POP POP POP POP POP POP JUMP JUMPDEST PUSH2 0x1BF2 PUSH2 0x3AF2 JUMP JUMPDEST PUSH20 0xFFFFFFFFFFFFFFFFFFFFFFFFFFFFFFFFFFFFFFFF AND PUSH2 0x1C10 PUSH2 0x39CB JUMP JUMPDEST PUSH20 0xFFFFFFFFFFFFFFFFFFFFFFFFFFFFFFFFFFFFFFFF AND EQ PUSH2 0x1C66 JUMPI PUSH1 0x40 MLOAD PUSH32 0x8C379A000000000000000000000000000000000000000000000000000000000 DUP2 MSTORE PUSH1 0x4 ADD PUSH2 0x1C5D SWAP1 PUSH2 0x44E2 JUMP JUMPDEST PUSH1 0x40 MLOAD DUP1 SWAP2 SUB SWAP1 REVERT JUMPDEST DUP1 PUSH1 0x5B PUSH2 0x1C72 DUP5 PUSH2 0x3776 JUMP JUMPDEST PUSH1 0x40 MLOAD PUSH2 0x1C7F SWAP2 SWAP1 PUSH2 0x424E JUMP JUMPDEST SWAP1 DUP2 MSTORE PUSH1 0x20 ADD PUSH1 0x40 MLOAD DUP1 SWAP2 SUB SWAP1 KECCAK256 PUSH0 PUSH2 0x100 EXP DUP2 SLOAD DUP2 PUSH20 0xFFFFFFFFFFFFFFFFFFFFFFFFFFFFFFFFFFFFFFFF MUL NOT AND SWAP1 DUP4 PUSH20 0xFFFFFFFFFFFFFFFFFFFFFFFFFFFFFFFFFFFFFFFF AND MUL OR SWAP1 SSTORE POP PUSH0 PUSH1 0x5A PUSH2 0x1CD6 DUP5 PUSH2 0x3776 JUMP JUMPDEST PUSH1 0x40 MLOAD PUSH2 0x1CE3 SWAP2 SWAP1 PUSH2 0x424E JUMP JUMPDEST SWAP1 DUP2 MSTORE PUSH1 0x20 ADD PUSH1 0x40 MLOAD DUP1 SWAP2 SUB SWAP1 KECCAK256 PUSH0 PUSH2 0x100 EXP DUP2 SLOAD DUP2 PUSH20 0xFFFFFFFFFFFFFFFFFFFFFFFFFFFFFFFFFFFFFFFF MUL NOT AND SWAP1 DUP4 PUSH20 0xFFFFFFFFFFFFFFFFFFFFFFFFFFFFFFFFFFFFFFFF AND MUL OR SWAP1 SSTORE POP PUSH1 0x1 PUSH1 0x65 PUSH2 0x1D3B DUP5 PUSH2 0x3776 JUMP JUMPDEST PUSH1 0x40 MLOAD PUSH2 0x1D48 SWAP2 SWAP1 PUSH2 0x424E JUMP JUMPDEST SWAP1 DUP2 MSTORE PUSH1 0x20 ADD PUSH1 0x40 MLOAD DUP1 SWAP2 SUB SWAP1 KECCAK256 PUSH0 PUSH2 0x100 EXP DUP2 SLOAD DUP2 PUSH1 0xFF MUL NOT AND SWAP1 DUP4 ISZERO ISZERO MUL OR SWAP1 SSTORE POP PUSH32 0xDCB3DDD91BE08847BE3B7C72E8882E56550DEBBA4295AE4AFE36C8D1B52E53BF DUP3 DUP3 PUSH0 PUSH2 0x1D98 PUSH2 0x39CB JUMP JUMPDEST TIMESTAMP PUSH1 0x40 MLOAD PUSH2 0x1DAA SWAP6 SWAP5 SWAP4 SWAP3 SWAP2 SWAP1 PUSH2 0x45C0 JUMP JUMPDEST PUSH1 0x40 MLOAD DUP1 SWAP2 SUB SWAP1 LOG1 POP POP JUMP JUMPDEST PUSH1 0x65 PUSH2 0x1DC1 DUP3 PUSH2 0x3776 JUMP JUMPDEST PUSH1 0x40 MLOAD PUSH2 0x1DCE SWAP2 SWAP1 PUSH2 0x424E JUMP JUMPDEST SWAP1 DUP2 MSTORE PUSH1 0x20 ADD PUSH1 0x40 MLOAD DUP1 SWAP2 SUB SWAP1 KECCAK256 PUSH0 SWAP1 SLOAD SWAP1 PUSH2 0x100 EXP SWAP1 DIV PUSH1 0xFF AND PUSH2 0x1E28 JUMPI PUSH1 0x40 MLOAD PUSH32 0x8C379A000000000000000000000000000000000000000000000000000000000 DUP2 MSTORE PUSH1 0x4 ADD PUSH2 0x1E1F SWAP1 PUSH2 0x42AE JUMP JUMPDEST PUSH1 0x40 MLOAD DUP1 SWAP2 SUB SWAP1 REVERT JUMPDEST PUSH0 DUP4 GT PUSH2 0x1E6A JUMPI PUSH1 0x40 MLOAD PUSH32 0x8C379A000000000000000000000000000000000000000000000000000000000 DUP2 MSTORE PUSH1 0x4 ADD PUSH2 0x1E61 SWAP1 PUSH2 0x41C4 JUMP JUMPDEST PUSH1 0x40 MLOAD DUP1 SWAP2 SUB SWAP1 REVERT JUMPDEST PUSH0 DUP3 GT PUSH2 0x1EAC JUMPI PUSH1 0x40 MLOAD PUSH32 0x8C379A000000000000000000000000000000000000000000000000000000000 DUP2 MSTORE PUSH1 0x4 ADD PUSH2 0x1EA3 SWAP1 PUSH2 0x41C4 JUMP JUMPDEST PUSH1 0x40 MLOAD DUP1 SWAP2 SUB SWAP1 REVERT JUMPDEST PUSH0 ADDRESS SWAP1 POP PUSH0 DUP2 PUSH20 0xFFFFFFFFFFFFFFFFFFFFFFFFFFFFFFFFFFFFFFFF AND PUSH4 0xFE2C6198 DUP5 PUSH1 0x40 MLOAD DUP3 PUSH4 0xFFFFFFFF AND PUSH1 0xE0 SHL DUP2 MSTORE PUSH1 0x4 ADD PUSH2 0x1EEA SWAP2 SWAP1 PUSH2 0x430E JUMP JUMPDEST PUSH1 0x20 PUSH1 0x40 MLOAD DUP1 DUP4 SUB DUP2 DUP7 GAS STATICCALL ISZERO DUP1 ISZERO PUSH2 0x1F05 JUMPI RETURNDATASIZE PUSH0 DUP1 RETURNDATACOPY RETURNDATASIZE PUSH0 REVERT JUMPDEST POP POP POP POP PUSH1 0x40 MLOAD RETURNDATASIZE PUSH1 0x1F NOT PUSH1 0x1F DUP3 ADD AND DUP3 ADD DUP1 PUSH1 0x40 MSTORE POP DUP2 ADD SWAP1 PUSH2 0x1F29 SWAP2 SWAP1 PUSH2 0x4342 JUMP JUMPDEST SWAP1 POP DUP4 PUSH2 0x1F3F DUP3 DUP8 PUSH2 0x3B60 SWAP1 SWAP2 SWAP1 PUSH4 0xFFFFFFFF AND JUMP JUMPDEST LT ISZERO PUSH2 0x1F80 JUMPI PUSH1 0x40 MLOAD PUSH32 0x8C379A000000000000000000000000000000000000000000000000000000000 DUP2 MSTORE PUSH1 0x4 ADD PUSH2 0x1F77 SWAP1 PUSH2 0x4662 JUMP JUMPDEST PUSH1 0x40 MLOAD DUP1 SWAP2 SUB SWAP1 REVERT JUMPDEST PUSH2 0x1FD0 PUSH1 0x5B PUSH2 0x1F8E DUP6 PUSH2 0x3776 JUMP JUMPDEST PUSH1 0x40 MLOAD PUSH2 0x1F9B SWAP2 SWAP1 PUSH2 0x424E JUMP JUMPDEST SWAP1 DUP2 MSTORE PUSH1 0x20 ADD PUSH1 0x40 MLOAD DUP1 SWAP2 SUB SWAP1 KECCAK256 PUSH0 SWAP1 SLOAD SWAP1 PUSH2 0x100 EXP SWAP1 DIV PUSH20 0xFFFFFFFFFFFFFFFFFFFFFFFFFFFFFFFFFFFFFFFF AND DUP6 ADDRESS PUSH2 0x3805 JUMP JUMPDEST PUSH2 0x2020 PUSH1 0x5A PUSH2 0x1FDE DUP6 PUSH2 0x3776 JUMP JUMPDEST PUSH1 0x40 MLOAD PUSH2 0x1FEB SWAP2 SWAP1 PUSH2 0x424E JUMP JUMPDEST SWAP1 DUP2 MSTORE PUSH1 0x20 ADD PUSH1 0x40 MLOAD DUP1 SWAP2 SUB SWAP1 KECCAK256 PUSH0 SWAP1 SLOAD SWAP1 PUSH2 0x100 EXP SWAP1 DIV PUSH20 0xFFFFFFFFFFFFFFFFFFFFFFFFFFFFFFFFFFFFFFFF AND DUP7 ADDRESS PUSH2 0x3805 JUMP JUMPDEST PUSH2 0x209B DUP6 PUSH1 0x63 PUSH2 0x202F DUP7 PUSH2 0x3776 JUMP JUMPDEST PUSH1 0x40 MLOAD PUSH2 0x203C SWAP2 SWAP1 PUSH2 0x424E JUMP JUMPDEST SWAP1 DUP2 MSTORE PUSH1 0x20 ADD PUSH1 0x40 MLOAD DUP1 SWAP2 SUB SWAP1 KECCAK256 PUSH0 PUSH2 0x2053 PUSH2 0x39CB JUMP JUMPDEST PUSH20 0xFFFFFFFFFFFFFFFFFFFFFFFFFFFFFFFFFFFFFFFF AND PUSH20 0xFFFFFFFFFFFFFFFFFFFFFFFFFFFFFFFFFFFFFFFF AND DUP2 MSTORE PUSH1 0x20 ADD SWAP1 DUP2 MSTORE PUSH1 0x20 ADD PUSH0 KECCAK256 SLOAD PUSH2 0x39D2 SWAP1 SWAP2 SWAP1 PUSH4 0xFFFFFFFF AND JUMP JUMPDEST PUSH1 0x63 PUSH2 0x20A6 DUP6 PUSH2 0x3776 JUMP JUMPDEST PUSH1 0x40 MLOAD PUSH2 0x20B3 SWAP2 SWAP1 PUSH2 0x424E JUMP JUMPDEST SWAP1 DUP2 MSTORE PUSH1 0x20 ADD PUSH1 0x40 MLOAD DUP1 SWAP2 SUB SWAP1 KECCAK256 PUSH0 PUSH2 0x20CA PUSH2 0x39CB JUMP JUMPDEST PUSH20 0xFFFFFFFFFFFFFFFFFFFFFFFFFFFFFFFFFFFFFFFF AND PUSH20 0xFFFFFFFFFFFFFFFFFFFFFFFFFFFFFFFFFFFFFFFF AND DUP2 MSTORE PUSH1 0x20 ADD SWAP1 DUP2 MSTORE PUSH1 0x20 ADD PUSH0 KECCAK256 DUP2 SWAP1 SSTORE POP PUSH2 0x2182 DUP5 PUSH1 0x64 PUSH2 0x2116 DUP7 PUSH2 0x3776 JUMP JUMPDEST PUSH1 0x40 MLOAD PUSH2 0x2123 SWAP2 SWAP1 PUSH2 0x424E JUMP JUMPDEST SWAP1 DUP2 MSTORE PUSH1 0x20 ADD PUSH1 0x40 MLOAD DUP1 SWAP2 SUB SWAP1 KECCAK256 PUSH0 PUSH2 0x213A PUSH2 0x39CB JUMP JUMPDEST PUSH20 0xFFFFFFFFFFFFFFFFFFFFFFFFFFFFFFFFFFFFFFFF AND PUSH20 0xFFFFFFFFFFFFFFFFFFFFFFFFFFFFFFFFFFFFFFFF AND DUP2 MSTORE PUSH1 0x20 ADD SWAP1 DUP2 MSTORE PUSH1 0x20 ADD PUSH0 KECCAK256 SLOAD PUSH2 0x39D2 SWAP1 SWAP2 SWAP1 PUSH4 0xFFFFFFFF AND JUMP JUMPDEST PUSH1 0x64 PUSH2 0x218D DUP6 PUSH2 0x3776 JUMP JUMPDEST PUSH1 0x40 MLOAD PUSH2 0x219A SWAP2 SWAP1 PUSH2 0x424E JUMP JUMPDEST SWAP1 DUP2 MSTORE PUSH1 0x20 ADD PUSH1 0x40 MLOAD DUP1 SWAP2 SUB SWAP1 KECCAK256 PUSH0 PUSH2 0x21B1 PUSH2 0x39CB JUMP JUMPDEST PUSH20 0xFFFFFFFFFFFFFFFFFFFFFFFFFFFFFFFFFFFFFFFF AND PUSH20 0xFFFFFFFFFFFFFFFFFFFFFFFFFFFFFFFFFFFFFFFF AND DUP2 MSTORE PUSH1 0x20 ADD SWAP1 DUP2 MSTORE PUSH1 0x20 ADD PUSH0 KECCAK256 DUP2 SWAP1 SSTORE POP PUSH2 0x2227 DUP5 PUSH1 0x62 PUSH2 0x21FD DUP7 PUSH2 0x3776 JUMP JUMPDEST PUSH1 0x40 MLOAD PUSH2 0x220A SWAP2 SWAP1 PUSH2 0x424E JUMP JUMPDEST SWAP1 DUP2 MSTORE PUSH1 0x20 ADD PUSH1 0x40 MLOAD DUP1 SWAP2 SUB SWAP1 KECCAK256 SLOAD PUSH2 0x39D2 SWAP1 SWAP2 SWAP1 PUSH4 0xFFFFFFFF AND JUMP JUMPDEST PUSH1 0x62 PUSH2 0x2232 DUP6 PUSH2 0x3776 JUMP JUMPDEST PUSH1 0x40 MLOAD PUSH2 0x223F SWAP2 SWAP1 PUSH2 0x424E JUMP JUMPDEST SWAP1 DUP2 MSTORE PUSH1 0x20 ADD PUSH1 0x40 MLOAD DUP1 SWAP2 SUB SWAP1 KECCAK256 DUP2 SWAP1 SSTORE POP PUSH2 0x228A DUP6 PUSH1 0x61 PUSH2 0x2260 DUP7 PUSH2 0x3776 JUMP JUMPDEST PUSH1 0x40 MLOAD PUSH2 0x226D SWAP2 SWAP1 PUSH2 0x424E JUMP JUMPDEST SWAP1 DUP2 MSTORE PUSH1 0x20 ADD PUSH1 0x40 MLOAD DUP1 SWAP2 SUB SWAP1 KECCAK256 SLOAD PUSH2 0x39D2 SWAP1 SWAP2 SWAP1 PUSH4 0xFFFFFFFF AND JUMP JUMPDEST PUSH1 0x61 PUSH2 0x2295 DUP6 PUSH2 0x3776 JUMP JUMPDEST PUSH1 0x40 MLOAD PUSH2 0x22A2 SWAP2 SWAP1 PUSH2 0x424E JUMP JUMPDEST SWAP1 DUP2 MSTORE PUSH1 0x20 ADD PUSH1 0x40 MLOAD DUP1 SWAP2 SUB SWAP1 KECCAK256 DUP2 SWAP1 SSTORE POP PUSH32 0x2680FC9628B60DD57E64ABBE75BF2E7ABE12D8F2FEED8DC8FB343CD3E46BAAF6 PUSH2 0x22DD PUSH2 0x39CB JUMP JUMPDEST DUP7 DUP7 DUP7 TIMESTAMP PUSH1 0x40 MLOAD PUSH2 0x22F2 SWAP6 SWAP5 SWAP4 SWAP3 SWAP2 SWAP1 PUSH2 0x4568 JUMP JUMPDEST PUSH1 0x40 MLOAD DUP1 SWAP2 SUB SWAP1 LOG1 POP POP POP POP POP JUMP JUMPDEST PUSH2 0x2309 PUSH2 0x3AF2 JUMP JUMPDEST PUSH20 0xFFFFFFFFFFFFFFFFFFFFFFFFFFFFFFFFFFFFFFFF AND PUSH2 0x2327 PUSH2 0x39CB JUMP JUMPDEST PUSH20 0xFFFFFFFFFFFFFFFFFFFFFFFFFFFFFFFFFFFFFFFF AND EQ PUSH2 0x237D JUMPI PUSH1 0x40 MLOAD PUSH32 0x8C379A000000000000000000000000000000000000000000000000000000000 DUP2 MSTORE PUSH1 0x4 ADD PUSH2 0x2374 SWAP1 PUSH2 0x44E2 JUMP JUMPDEST PUSH1 0x40 MLOAD DUP1 SWAP2 SUB SWAP1 REVERT JUMPDEST DUP1 PUSH1 0x5E DUP2 SWAP1 SSTORE POP POP JUMP JUMPDEST PUSH0 DUP1 PUSH0 DUP1 PUSH0 PUSH1 0x5D PUSH2 0x2397 DUP8 PUSH2 0x3776 JUMP JUMPDEST PUSH1 0x40 MLOAD PUSH2 0x23A4 SWAP2 SWAP1 PUSH2 0x424E JUMP JUMPDEST SWAP1 DUP2 MSTORE PUSH1 0x20 ADD PUSH1 0x40 MLOAD DUP1 SWAP2 SUB SWAP1 KECCAK256 PUSH0 PUSH1 0x1 ISZERO ISZERO ISZERO ISZERO DUP2 MSTORE PUSH1 0x20 ADD SWAP1 DUP2 MSTORE PUSH1 0x20 ADD PUSH0 KECCAK256 SLOAD PUSH1 0x5D PUSH2 0x23D2 DUP9 PUSH2 0x3776 JUMP JUMPDEST PUSH1 0x40 MLOAD PUSH2 0x23DF SWAP2 SWAP1 PUSH2 0x424E JUMP JUMPDEST SWAP1 DUP2 MSTORE PUSH1 0x20 ADD PUSH1 0x40 MLOAD DUP1 SWAP2 SUB SWAP1 KECCAK256 PUSH0 DUP1 ISZERO ISZERO ISZERO ISZERO DUP2 MSTORE PUSH1 0x20 ADD SWAP1 DUP2 MSTORE PUSH1 0x20 ADD PUSH0 KECCAK256 SLOAD PUSH1 0x5F PUSH2 0x240C DUP10 PUSH2 0x3776 JUMP JUMPDEST PUSH1 0x40 MLOAD PUSH2 0x2419 SWAP2 SWAP1 PUSH2 0x424E JUMP JUMPDEST SWAP1 DUP2 MSTORE PUSH1 0x20 ADD PUSH1 0x40 MLOAD DUP1 SWAP2 SUB SWAP1 KECCAK256 SLOAD PUSH1 0x60 PUSH2 0x2433 DUP11 PUSH2 0x3776 JUMP JUMPDEST PUSH1 0x40 MLOAD PUSH2 0x2440 SWAP2 SWAP1 PUSH2 0x424E JUMP JUMPDEST SWAP1 DUP2 MSTORE PUSH1 0x20 ADD PUSH1 0x40 MLOAD DUP1 SWAP2 SUB SWAP1 KECCAK256 SLOAD PUSH1 0x5E SLOAD SWAP5 POP SWAP5 POP SWAP5 POP SWAP5 POP SWAP5 POP SWAP2 SWAP4 SWAP6 SWAP1 SWAP3 SWAP5 POP JUMP JUMPDEST PUSH1 0x65 PUSH2 0x2470 DUP3 PUSH2 0x3776 JUMP JUMPDEST PUSH1 0x40 MLOAD PUSH2 0x247D SWAP2 SWAP1 PUSH2 0x424E JUMP JUMPDEST SWAP1 DUP2 MSTORE PUSH1 0x20 ADD PUSH1 0x40 MLOAD DUP1 SWAP2 SUB SWAP1 KECCAK256 PUSH0 SWAP1 SLOAD SWAP1 PUSH2 0x100 EXP SWAP1 DIV PUSH1 0xFF AND PUSH2 0x24D7 JUMPI PUSH1 0x40 MLOAD PUSH32 0x8C379A000000000000000000000000000000000000000000000000000000000 DUP2 MSTORE PUSH1 0x4 ADD PUSH2 0x24CE SWAP1 PUSH2 0x42AE JUMP JUMPDEST PUSH1 0x40 MLOAD DUP1 SWAP2 SUB SWAP1 REVERT JUMPDEST PUSH0 PUSH1 0x63 PUSH2 0x24E3 DUP4 PUSH2 0x3776 JUMP JUMPDEST PUSH1 0x40 MLOAD PUSH2 0x24F0 SWAP2 SWAP1 PUSH2 0x424E JUMP JUMPDEST SWAP1 DUP2 MSTORE PUSH1 0x20 ADD PUSH1 0x40 MLOAD DUP1 SWAP2 SUB SWAP1 KECCAK256 PUSH0 PUSH2 0x2507 PUSH2 0x39CB JUMP JUMPDEST PUSH20 0xFFFFFFFFFFFFFFFFFFFFFFFFFFFFFFFFFFFFFFFF AND PUSH20 0xFFFFFFFFFFFFFFFFFFFFFFFFFFFFFFFFFFFFFFFF AND DUP2 MSTORE PUSH1 0x20 ADD SWAP1 DUP2 MSTORE PUSH1 0x20 ADD PUSH0 KECCAK256 SLOAD GT PUSH2 0x2581 JUMPI PUSH1 0x40 MLOAD PUSH32 0x8C379A000000000000000000000000000000000000000000000000000000000 DUP2 MSTORE PUSH1 0x4 ADD PUSH2 0x2578 SWAP1 PUSH2 0x454A JUMP JUMPDEST PUSH1 0x40 MLOAD DUP1 SWAP2 SUB SWAP1 REVERT JUMPDEST PUSH0 PUSH1 0x64 PUSH2 0x258D DUP4 PUSH2 0x3776 JUMP JUMPDEST PUSH1 0x40 MLOAD PUSH2 0x259A SWAP2 SWAP1 PUSH2 0x424E JUMP JUMPDEST SWAP1 DUP2 MSTORE PUSH1 0x20 ADD PUSH1 0x40 MLOAD DUP1 SWAP2 SUB SWAP1 KECCAK256 PUSH0 PUSH2 0x25B1 PUSH2 0x39CB JUMP JUMPDEST PUSH20 0xFFFFFFFFFFFFFFFFFFFFFFFFFFFFFFFFFFFFFFFF AND PUSH20 0xFFFFFFFFFFFFFFFFFFFFFFFFFFFFFFFFFFFFFFFF AND DUP2 MSTORE PUSH1 0x20 ADD SWAP1 DUP2 MSTORE PUSH1 0x20 ADD PUSH0 KECCAK256 SLOAD GT PUSH2 0x262B JUMPI PUSH1 0x40 MLOAD PUSH32 0x8C379A000000000000000000000000000000000000000000000000000000000 DUP2 MSTORE PUSH1 0x4 ADD PUSH2 0x2622 SWAP1 PUSH2 0x454A JUMP JUMPDEST PUSH1 0x40 MLOAD DUP1 SWAP2 SUB SWAP1 REVERT JUMPDEST PUSH0 PUSH2 0x26C4 PUSH1 0x61 PUSH2 0x263A DUP5 PUSH2 0x3776 JUMP JUMPDEST PUSH1 0x40 MLOAD PUSH2 0x2647 SWAP2 SWAP1 PUSH2 0x424E JUMP JUMPDEST SWAP1 DUP2 MSTORE PUSH1 0x20 ADD PUSH1 0x40 MLOAD DUP1 SWAP2 SUB SWAP1 KECCAK256 SLOAD PUSH1 0x63 PUSH2 0x2661 DUP6 PUSH2 0x3776 JUMP JUMPDEST PUSH1 0x40 MLOAD PUSH2 0x266E SWAP2 SWAP1 PUSH2 0x424E JUMP JUMPDEST SWAP1 DUP2 MSTORE PUSH1 0x20 ADD PUSH1 0x40 MLOAD DUP1 SWAP2 SUB SWAP1 KECCAK256 PUSH0 PUSH2 0x2685 PUSH2 0x39CB JUMP JUMPDEST PUSH20 0xFFFFFFFFFFFFFFFFFFFFFFFFFFFFFFFFFFFFFFFF AND PUSH20 0xFFFFFFFFFFFFFFFFFFFFFFFFFFFFFFFFFFFFFFFF AND DUP2 MSTORE PUSH1 0x20 ADD SWAP1 DUP2 MSTORE PUSH1 0x20 ADD PUSH0 KECCAK256 SLOAD PUSH2 0x3B23 JUMP JUMPDEST SWAP1 POP PUSH0 PUSH2 0x275F PUSH1 0x62 PUSH2 0x26D5 DUP6 PUSH2 0x3776 JUMP JUMPDEST PUSH1 0x40 MLOAD PUSH2 0x26E2 SWAP2 SWAP1 PUSH2 0x424E JUMP JUMPDEST SWAP1 DUP2 MSTORE PUSH1 0x20 ADD PUSH1 0x40 MLOAD DUP1 SWAP2 SUB SWAP1 KECCAK256 SLOAD PUSH1 0x64 PUSH2 0x26FC DUP7 PUSH2 0x3776 JUMP JUMPDEST PUSH1 0x40 MLOAD PUSH2 0x2709 SWAP2 SWAP1 PUSH2 0x424E JUMP JUMPDEST SWAP1 DUP2 MSTORE PUSH1 0x20 ADD PUSH1 0x40 MLOAD DUP1 SWAP2 SUB SWAP1 KECCAK256 PUSH0 PUSH2 0x2720 PUSH2 0x39CB JUMP JUMPDEST PUSH20 0xFFFFFFFFFFFFFFFFFFFFFFFFFFFFFFFFFFFFFFFF AND PUSH20 0xFFFFFFFFFFFFFFFFFFFFFFFFFFFFFFFFFFFFFFFF AND DUP2 MSTORE PUSH1 0x20 ADD SWAP1 DUP2 MSTORE PUSH1 0x20 ADD PUSH0 KECCAK256 SLOAD PUSH2 0x3B23 JUMP JUMPDEST SWAP1 POP PUSH2 0x279A DUP3 PUSH1 0x61 PUSH2 0x2770 DUP7 PUSH2 0x3776 JUMP JUMPDEST PUSH1 0x40 MLOAD PUSH2 0x277D SWAP2 SWAP1 PUSH2 0x424E JUMP JUMPDEST SWAP1 DUP2 MSTORE PUSH1 0x20 ADD PUSH1 0x40 MLOAD DUP1 SWAP2 SUB SWAP1 KECCAK256 SLOAD PUSH2 0x3A1E SWAP1 SWAP2 SWAP1 PUSH4 0xFFFFFFFF AND JUMP JUMPDEST PUSH1 0x61 PUSH2 0x27A5 DUP6 PUSH2 0x3776 JUMP JUMPDEST PUSH1 0x40 MLOAD PUSH2 0x27B2 SWAP2 SWAP1 PUSH2 0x424E JUMP JUMPDEST SWAP1 DUP2 MSTORE PUSH1 0x20 ADD PUSH1 0x40 MLOAD DUP1 SWAP2 SUB SWAP1 KECCAK256 DUP2 SWAP1 SSTORE POP PUSH2 0x27FD DUP2 PUSH1 0x62 PUSH2 0x27D3 DUP7 PUSH2 0x3776 JUMP JUMPDEST PUSH1 0x40 MLOAD PUSH2 0x27E0 SWAP2 SWAP1 PUSH2 0x424E JUMP JUMPDEST SWAP1 DUP2 MSTORE PUSH1 0x20 ADD PUSH1 0x40 MLOAD DUP1 SWAP2 SUB SWAP1 KECCAK256 SLOAD PUSH2 0x3A1E SWAP1 SWAP2 SWAP1 PUSH4 0xFFFFFFFF AND JUMP JUMPDEST PUSH1 0x62 PUSH2 0x2808 DUP6 PUSH2 0x3776 JUMP JUMPDEST PUSH1 0x40 MLOAD PUSH2 0x2815 SWAP2 SWAP1 PUSH2 0x424E JUMP JUMPDEST SWAP1 DUP2 MSTORE PUSH1 0x20 ADD PUSH1 0x40 MLOAD DUP1 SWAP2 SUB SWAP1 KECCAK256 DUP2 SWAP1 SSTORE POP PUSH0 PUSH1 0x64 PUSH2 0x2833 DUP6 PUSH2 0x3776 JUMP JUMPDEST PUSH1 0x40 MLOAD PUSH2 0x2840 SWAP2 SWAP1 PUSH2 0x424E JUMP JUMPDEST SWAP1 DUP2 MSTORE PUSH1 0x20 ADD PUSH1 0x40 MLOAD DUP1 SWAP2 SUB SWAP1 KECCAK256 PUSH0 PUSH2 0x2857 PUSH2 0x39CB JUMP JUMPDEST PUSH20 0xFFFFFFFFFFFFFFFFFFFFFFFFFFFFFFFFFFFFFFFF AND PUSH20 0xFFFFFFFFFFFFFFFFFFFFFFFFFFFFFFFFFFFFFFFF AND DUP2 MSTORE PUSH1 0x20 ADD SWAP1 DUP2 MSTORE PUSH1 0x20 ADD PUSH0 KECCAK256 DUP2 SWAP1 SSTORE POP PUSH0 PUSH1 0x63 PUSH2 0x28A0 DUP6 PUSH2 0x3776 JUMP JUMPDEST PUSH1 0x40 MLOAD PUSH2 0x28AD SWAP2 SWAP1 PUSH2 0x424E JUMP JUMPDEST SWAP1 DUP2 MSTORE PUSH1 0x20 ADD PUSH1 0x40 MLOAD DUP1 SWAP2 SUB SWAP1 KECCAK256 PUSH0 PUSH2 0x28C4 PUSH2 0x39CB JUMP JUMPDEST PUSH20 0xFFFFFFFFFFFFFFFFFFFFFFFFFFFFFFFFFFFFFFFF AND PUSH20 0xFFFFFFFFFFFFFFFFFFFFFFFFFFFFFFFFFFFFFFFF AND DUP2 MSTORE PUSH1 0x20 ADD SWAP1 DUP2 MSTORE PUSH1 0x20 ADD PUSH0 KECCAK256 DUP2 SWAP1 SSTORE POP PUSH2 0x2958 DUP2 PUSH2 0x290D PUSH2 0x39CB JUMP JUMPDEST PUSH1 0x5B PUSH2 0x2918 DUP8 PUSH2 0x3776 JUMP JUMPDEST PUSH1 0x40 MLOAD PUSH2 0x2925 SWAP2 SWAP1 PUSH2 0x424E JUMP JUMPDEST SWAP1 DUP2 MSTORE PUSH1 0x20 ADD PUSH1 0x40 MLOAD DUP1 SWAP2 SUB SWAP1 KECCAK256 PUSH0 SWAP1 SLOAD SWAP1 PUSH2 0x100 EXP SWAP1 DIV PUSH20 0xFFFFFFFFFFFFFFFFFFFFFFFFFFFFFFFFFFFFFFFF AND PUSH2 0x3A33 JUMP JUMPDEST PUSH0 DUP1 PUSH2 0x2962 PUSH2 0x39CB JUMP JUMPDEST PUSH20 0xFFFFFFFFFFFFFFFFFFFFFFFFFFFFFFFFFFFFFFFF AND DUP5 PUSH1 0x40 MLOAD PUSH2 0x2985 SWAP1 PUSH2 0x46A3 JUMP JUMPDEST PUSH0 PUSH1 0x40 MLOAD DUP1 DUP4 SUB DUP2 DUP6 DUP8 GAS CALL SWAP3 POP POP POP RETURNDATASIZE DUP1 PUSH0 DUP2 EQ PUSH2 0x29BF JUMPI PUSH1 0x40 MLOAD SWAP2 POP PUSH1 0x1F NOT PUSH1 0x3F RETURNDATASIZE ADD AND DUP3 ADD PUSH1 0x40 MSTORE RETURNDATASIZE DUP3 MSTORE RETURNDATASIZE PUSH0 PUSH1 0x20 DUP5 ADD RETURNDATACOPY PUSH2 0x29C4 JUMP JUMPDEST PUSH1 0x60 SWAP2 POP JUMPDEST POP SWAP2 POP SWAP2 POP DUP2 PUSH2 0x2A09 JUMPI PUSH1 0x40 MLOAD PUSH32 0x8C379A000000000000000000000000000000000000000000000000000000000 DUP2 MSTORE PUSH1 0x4 ADD PUSH2 0x2A00 SWAP1 PUSH2 0x4701 JUMP JUMPDEST PUSH1 0x40 MLOAD DUP1 SWAP2 SUB SWAP1 REVERT JUMPDEST PUSH32 0xF8FD1F1D6808723922AFF612E9551226A6382252BC96CA9FC5638186D7926F7 PUSH2 0x2A32 PUSH2 0x39CB JUMP JUMPDEST DUP6 DUP6 DUP9 TIMESTAMP PUSH1 0x40 MLOAD PUSH2 0x2A47 SWAP6 SWAP5 SWAP4 SWAP3 SWAP2 SWAP1 PUSH2 0x4568 JUMP JUMPDEST PUSH1 0x40 MLOAD DUP1 SWAP2 SUB SWAP1 LOG1 POP POP POP POP POP JUMP JUMPDEST PUSH0 DUP1 PUSH0 DUP1 PUSH0 DUP1 PUSH1 0x5C PUSH0 DUP10 PUSH20 0xFFFFFFFFFFFFFFFFFFFFFFFFFFFFFFFFFFFFFFFF AND PUSH20 0xFFFFFFFFFFFFFFFFFFFFFFFFFFFFFFFFFFFFFFFF AND DUP2 MSTORE PUSH1 0x20 ADD SWAP1 DUP2 MSTORE PUSH1 0x20 ADD PUSH0 KECCAK256 PUSH2 0x2AA2 DUP9 PUSH2 0x3776 JUMP JUMPDEST PUSH1 0x40 MLOAD PUSH2 0x2AAF SWAP2 SWAP1 PUSH2 0x424E JUMP JUMPDEST SWAP1 DUP2 MSTORE PUSH1 0x20 ADD PUSH1 0x40 MLOAD DUP1 SWAP2 SUB SWAP1 KECCAK256 PUSH0 PUSH1 0x1 ISZERO ISZERO ISZERO ISZERO DUP2 MSTORE PUSH1 0x20 ADD SWAP1 DUP2 MSTORE PUSH1 0x20 ADD PUSH0 KECCAK256 SLOAD PUSH1 0x5C PUSH0 DUP11 PUSH20 0xFFFFFFFFFFFFFFFFFFFFFFFFFFFFFFFFFFFFFFFF AND PUSH20 0xFFFFFFFFFFFFFFFFFFFFFFFFFFFFFFFFFFFFFFFF AND DUP2 MSTORE PUSH1 0x20 ADD SWAP1 DUP2 MSTORE PUSH1 0x20 ADD PUSH0 KECCAK256 PUSH2 0x2B18 DUP10 PUSH2 0x3776 JUMP JUMPDEST PUSH1 0x40 MLOAD PUSH2 0x2B25 SWAP2 SWAP1 PUSH2 0x424E JUMP JUMPDEST SWAP1 DUP2 MSTORE PUSH1 0x20 ADD PUSH1 0x40 MLOAD DUP1 SWAP2 SUB SWAP1 KECCAK256 PUSH0 DUP1 ISZERO ISZERO ISZERO ISZERO DUP2 MSTORE PUSH1 0x20 ADD SWAP1 DUP2 MSTORE PUSH1 0x20 ADD PUSH0 KECCAK256 SLOAD PUSH1 0x61 PUSH2 0x2B52 DUP11 PUSH2 0x3776 JUMP JUMPDEST PUSH1 0x40 MLOAD PUSH2 0x2B5F SWAP2 SWAP1 PUSH2 0x424E JUMP JUMPDEST SWAP1 DUP2 MSTORE PUSH1 0x20 ADD PUSH1 0x40 MLOAD DUP1 SWAP2 SUB SWAP1 KECCAK256 SLOAD PUSH1 0x62 PUSH2 0x2B79 DUP12 PUSH2 0x3776 JUMP JUMPDEST PUSH1 0x40 MLOAD PUSH2 0x2B86 SWAP2 SWAP1 PUSH2 0x424E JUMP JUMPDEST SWAP1 DUP2 MSTORE PUSH1 0x20 ADD PUSH1 0x40 MLOAD DUP1 SWAP2 SUB SWAP1 KECCAK256 SLOAD PUSH1 0x63 PUSH2 0x2BA0 DUP13 PUSH2 0x3776 JUMP JUMPDEST PUSH1 0x40 MLOAD PUSH2 0x2BAD SWAP2 SWAP1 PUSH2 0x424E JUMP JUMPDEST SWAP1 DUP2 MSTORE PUSH1 0x20 ADD PUSH1 0x40 MLOAD DUP1 SWAP2 SUB SWAP1 KECCAK256 PUSH0 PUSH2 0x2BC4 PUSH2 0x39CB JUMP JUMPDEST PUSH20 0xFFFFFFFFFFFFFFFFFFFFFFFFFFFFFFFFFFFFFFFF AND PUSH20 0xFFFFFFFFFFFFFFFFFFFFFFFFFFFFFFFFFFFFFFFF AND DUP2 MSTORE PUSH1 0x20 ADD SWAP1 DUP2 MSTORE PUSH1 0x20 ADD PUSH0 KECCAK256 SLOAD PUSH1 0x64 PUSH2 0x2C09 DUP14 PUSH2 0x3776 JUMP JUMPDEST PUSH1 0x40 MLOAD PUSH2 0x2C16 SWAP2 SWAP1 PUSH2 0x424E JUMP JUMPDEST SWAP1 DUP2 MSTORE PUSH1 0x20 ADD PUSH1 0x40 MLOAD DUP1 SWAP2 SUB SWAP1 KECCAK256 PUSH0 PUSH2 0x2C2D PUSH2 0x39CB JUMP JUMPDEST PUSH20 0xFFFFFFFFFFFFFFFFFFFFFFFFFFFFFFFFFFFFFFFF AND PUSH20 0xFFFFFFFFFFFFFFFFFFFFFFFFFFFFFFFFFFFFFFFF AND DUP2 MSTORE PUSH1 0x20 ADD SWAP1 DUP2 MSTORE PUSH1 0x20 ADD PUSH0 KECCAK256 SLOAD SWAP6 POP SWAP6 POP SWAP6 POP SWAP6 POP SWAP6 POP SWAP6 POP SWAP3 SWAP6 POP SWAP3 SWAP6 POP SWAP3 SWAP6 JUMP JUMPDEST PUSH0 ADDRESS SWAP1 POP PUSH1 0x65 PUSH2 0x2C8C DUP4 PUSH2 0x3776 JUMP JUMPDEST PUSH1 0x40 MLOAD PUSH2 0x2C99 SWAP2 SWAP1 PUSH2 0x424E JUMP JUMPDEST SWAP1 DUP2 MSTORE PUSH1 0x20 ADD PUSH1 0x40 MLOAD DUP1 SWAP2 SUB SWAP1 KECCAK256 PUSH0 SWAP1 SLOAD SWAP1 PUSH2 0x100 EXP SWAP1 DIV PUSH1 0xFF AND PUSH2 0x2CF3 JUMPI PUSH1 0x40 MLOAD PUSH32 0x8C379A000000000000000000000000000000000000000000000000000000000 DUP2 MSTORE PUSH1 0x4 ADD PUSH2 0x2CEA SWAP1 PUSH2 0x42AE JUMP JUMPDEST PUSH1 0x40 MLOAD DUP1 SWAP2 SUB SWAP1 REVERT JUMPDEST PUSH0 DUP4 GT PUSH2 0x2D35 JUMPI PUSH1 0x40 MLOAD PUSH32 0x8C379A000000000000000000000000000000000000000000000000000000000 DUP2 MSTORE PUSH1 0x4 ADD PUSH2 0x2D2C SWAP1 PUSH2 0x41C4 JUMP JUMPDEST PUSH1 0x40 MLOAD DUP1 SWAP2 SUB SWAP1 REVERT JUMPDEST PUSH2 0x2D85 PUSH1 0x5B PUSH2 0x2D43 DUP5 PUSH2 0x3776 JUMP JUMPDEST PUSH1 0x40 MLOAD PUSH2 0x2D50 SWAP2 SWAP1 PUSH2 0x424E JUMP JUMPDEST SWAP1 DUP2 MSTORE PUSH1 0x20 ADD PUSH1 0x40 MLOAD DUP1 SWAP2 SUB SWAP1 KECCAK256 PUSH0 SWAP1 SLOAD SWAP1 PUSH2 0x100 EXP SWAP1 DIV PUSH20 0xFFFFFFFFFFFFFFFFFFFFFFFFFFFFFFFFFFFFFFFF AND DUP5 ADDRESS PUSH2 0x3805 JUMP JUMPDEST PUSH0 DUP2 PUSH20 0xFFFFFFFFFFFFFFFFFFFFFFFFFFFFFFFFFFFFFFFF AND PUSH4 0xFE2C6198 DUP5 PUSH1 0x40 MLOAD DUP3 PUSH4 0xFFFFFFFF AND PUSH1 0xE0 SHL DUP2 MSTORE PUSH1 0x4 ADD PUSH2 0x2DBF SWAP2 SWAP1 PUSH2 0x430E JUMP JUMPDEST PUSH1 0x20 PUSH1 0x40 MLOAD DUP1 DUP4 SUB DUP2 DUP7 GAS STATICCALL ISZERO DUP1 ISZERO PUSH2 0x2DDA JUMPI RETURNDATASIZE PUSH0 DUP1 RETURNDATACOPY RETURNDATASIZE PUSH0 REVERT JUMPDEST POP POP POP POP PUSH1 0x40 MLOAD RETURNDATASIZE PUSH1 0x1F NOT PUSH1 0x1F DUP3 ADD AND DUP3 ADD DUP1 PUSH1 0x40 MSTORE POP DUP2 ADD SWAP1 PUSH2 0x2DFE SWAP2 SWAP1 PUSH2 0x4342 JUMP JUMPDEST SWAP1 POP PUSH0 PUSH2 0x2E0C DUP3 DUP7 PUSH0 PUSH2 0x3990 JUMP JUMPDEST SWAP1 POP PUSH2 0x2E9C DUP6 PUSH1 0x5C PUSH0 PUSH2 0x2E1D PUSH2 0x39CB JUMP JUMPDEST PUSH20 0xFFFFFFFFFFFFFFFFFFFFFFFFFFFFFFFFFFFFFFFF AND PUSH20 0xFFFFFFFFFFFFFFFFFFFFFFFFFFFFFFFFFFFFFFFF AND DUP2 MSTORE PUSH1 0x20 ADD SWAP1 DUP2 MSTORE PUSH1 0x20 ADD PUSH0 KECCAK256 PUSH2 0x2E5F DUP8 PUSH2 0x3776 JUMP JUMPDEST PUSH1 0x40 MLOAD PUSH2 0x2E6C SWAP2 SWAP1 PUSH2 0x424E JUMP JUMPDEST SWAP1 DUP2 MSTORE PUSH1 0x20 ADD PUSH1 0x40 MLOAD DUP1 SWAP2 SUB SWAP1 KECCAK256 PUSH0 DUP1 ISZERO ISZERO ISZERO ISZERO DUP2 MSTORE PUSH1 0x20 ADD SWAP1 DUP2 MSTORE PUSH1 0x20 ADD PUSH0 KECCAK256 SLOAD PUSH2 0x39D2 SWAP1 SWAP2 SWAP1 PUSH4 0xFFFFFFFF AND JUMP JUMPDEST PUSH1 0x5C PUSH0 PUSH2 0x2EA7 PUSH2 0x39CB JUMP JUMPDEST PUSH20 0xFFFFFFFFFFFFFFFFFFFFFFFFFFFFFFFFFFFFFFFF AND PUSH20 0xFFFFFFFFFFFFFFFFFFFFFFFFFFFFFFFFFFFFFFFF AND DUP2 MSTORE PUSH1 0x20 ADD SWAP1 DUP2 MSTORE PUSH1 0x20 ADD PUSH0 KECCAK256 PUSH2 0x2EE9 DUP7 PUSH2 0x3776 JUMP JUMPDEST PUSH1 0x40 MLOAD PUSH2 0x2EF6 SWAP2 SWAP1 PUSH2 0x424E JUMP JUMPDEST SWAP1 DUP2 MSTORE PUSH1 0x20 ADD PUSH1 0x40 MLOAD DUP1 SWAP2 SUB SWAP1 KECCAK256 PUSH0 DUP1 ISZERO ISZERO ISZERO ISZERO DUP2 MSTORE PUSH1 0x20 ADD SWAP1 DUP2 MSTORE PUSH1 0x20 ADD PUSH0 KECCAK256 DUP2 SWAP1 SSTORE POP PUSH2 0x2F67 DUP6 PUSH1 0x5D PUSH2 0x2F2A DUP8 PUSH2 0x3776 JUMP JUMPDEST PUSH1 0x40 MLOAD PUSH2 0x2F37 SWAP2 SWAP1 PUSH2 0x424E JUMP JUMPDEST SWAP1 DUP2 MSTORE PUSH1 0x20 ADD PUSH1 0x40 MLOAD DUP1 SWAP2 SUB SWAP1 KECCAK256 PUSH0 DUP1 ISZERO ISZERO ISZERO ISZERO DUP2 MSTORE PUSH1 0x20 ADD SWAP1 DUP2 MSTORE PUSH1 0x20 ADD PUSH0 KECCAK256 SLOAD PUSH2 0x39D2 SWAP1 SWAP2 SWAP1 PUSH4 0xFFFFFFFF AND JUMP JUMPDEST PUSH1 0x5D PUSH2 0x2F72 DUP7 PUSH2 0x3776 JUMP JUMPDEST PUSH1 0x40 MLOAD PUSH2 0x2F7F SWAP2 SWAP1 PUSH2 0x424E JUMP JUMPDEST SWAP1 DUP2 MSTORE PUSH1 0x20 ADD PUSH1 0x40 MLOAD DUP1 SWAP2 SUB SWAP1 KECCAK256 PUSH0 DUP1 ISZERO ISZERO ISZERO ISZERO DUP2 MSTORE PUSH1 0x20 ADD SWAP1 DUP2 MSTORE PUSH1 0x20 ADD PUSH0 KECCAK256 DUP2 SWAP1 SSTORE POP PUSH0 PUSH2 0x2FBA PUSH1 0x5E SLOAD DUP4 PUSH2 0x39E7 SWAP1 SWAP2 SWAP1 PUSH4 0xFFFFFFFF AND JUMP JUMPDEST SWAP1 POP PUSH2 0x2FF5 DUP2 PUSH1 0x5F PUSH2 0x2FCB DUP9 PUSH2 0x3776 JUMP JUMPDEST PUSH1 0x40 MLOAD PUSH2 0x2FD8 SWAP2 SWAP1 PUSH2 0x424E JUMP JUMPDEST SWAP1 DUP2 MSTORE PUSH1 0x20 ADD PUSH1 0x40 MLOAD DUP1 SWAP2 SUB SWAP1 KECCAK256 SLOAD PUSH2 0x39D2 SWAP1 SWAP2 SWAP1 PUSH4 0xFFFFFFFF AND JUMP JUMPDEST PUSH1 0x5F PUSH2 0x3000 DUP8 PUSH2 0x3776 JUMP JUMPDEST PUSH1 0x40 MLOAD PUSH2 0x300D SWAP2 SWAP1 PUSH2 0x424E JUMP JUMPDEST SWAP1 DUP2 MSTORE PUSH1 0x20 ADD PUSH1 0x40 MLOAD DUP1 SWAP2 SUB SWAP1 KECCAK256 DUP2 SWAP1 SSTORE POP DUP2 PUSH1 0x61 PUSH2 0x302B DUP8 PUSH2 0x3776 JUMP JUMPDEST PUSH1 0x40 MLOAD PUSH2 0x3038 SWAP2 SWAP1 PUSH2 0x424E JUMP JUMPDEST SWAP1 DUP2 MSTORE PUSH1 0x20 ADD PUSH1 0x40 MLOAD DUP1 SWAP2 SUB SWAP1 KECCAK256 SLOAD LT ISZERO PUSH2 0x3088 JUMPI PUSH1 0x40 MLOAD PUSH32 0x8C379A000000000000000000000000000000000000000000000000000000000 DUP2 MSTORE PUSH1 0x4 ADD PUSH2 0x307F SWAP1 PUSH2 0x43B7 JUMP JUMPDEST PUSH1 0x40 MLOAD DUP1 SWAP2 SUB SWAP1 REVERT JUMPDEST PUSH2 0x30C1 DUP3 PUSH1 0x61 PUSH2 0x3097 DUP9 PUSH2 0x3776 JUMP JUMPDEST PUSH1 0x40 MLOAD PUSH2 0x30A4 SWAP2 SWAP1 PUSH2 0x424E JUMP JUMPDEST SWAP1 DUP2 MSTORE PUSH1 0x20 ADD PUSH1 0x40 MLOAD DUP1 SWAP2 SUB SWAP1 KECCAK256 SLOAD PUSH2 0x3A1E SWAP1 SWAP2 SWAP1 PUSH4 0xFFFFFFFF AND JUMP JUMPDEST PUSH1 0x61 PUSH2 0x30CC DUP8 PUSH2 0x3776 JUMP JUMPDEST PUSH1 0x40 MLOAD PUSH2 0x30D9 SWAP2 SWAP1 PUSH2 0x424E JUMP JUMPDEST SWAP1 DUP2 MSTORE PUSH1 0x20 ADD PUSH1 0x40 MLOAD DUP1 SWAP2 SUB SWAP1 KECCAK256 DUP2 SWAP1 SSTORE POP PUSH2 0x3124 DUP7 PUSH1 0x62 PUSH2 0x30FA DUP9 PUSH2 0x3776 JUMP JUMPDEST PUSH1 0x40 MLOAD PUSH2 0x3107 SWAP2 SWAP1 PUSH2 0x424E JUMP JUMPDEST SWAP1 DUP2 MSTORE PUSH1 0x20 ADD PUSH1 0x40 MLOAD DUP1 SWAP2 SUB SWAP1 KECCAK256 SLOAD PUSH2 0x39D2 SWAP1 SWAP2 SWAP1 PUSH4 0xFFFFFFFF AND JUMP JUMPDEST PUSH1 0x62 PUSH2 0x312F DUP8 PUSH2 0x3776 JUMP JUMPDEST PUSH1 0x40 MLOAD PUSH2 0x313C SWAP2 SWAP1 PUSH2 0x424E JUMP JUMPDEST SWAP1 DUP2 MSTORE PUSH1 0x20 ADD PUSH1 0x40 MLOAD DUP1 SWAP2 SUB SWAP1 KECCAK256 DUP2 SWAP1 SSTORE POP PUSH0 DUP1 PUSH2 0x3158 PUSH2 0x39CB JUMP JUMPDEST PUSH20 0xFFFFFFFFFFFFFFFFFFFFFFFFFFFFFFFFFFFFFFFF AND PUSH2 0x3181 DUP5 DUP7 PUSH2 0x3A1E SWAP1 SWAP2 SWAP1 PUSH4 0xFFFFFFFF AND JUMP JUMPDEST PUSH1 0x40 MLOAD PUSH2 0x318D SWAP1 PUSH2 0x46A3 JUMP JUMPDEST PUSH0 PUSH1 0x40 MLOAD DUP1 DUP4 SUB DUP2 DUP6 DUP8 GAS CALL SWAP3 POP POP POP RETURNDATASIZE DUP1 PUSH0 DUP2 EQ PUSH2 0x31C7 JUMPI PUSH1 0x40 MLOAD SWAP2 POP PUSH1 0x1F NOT PUSH1 0x3F RETURNDATASIZE ADD AND DUP3 ADD PUSH1 0x40 MSTORE RETURNDATASIZE DUP3 MSTORE RETURNDATASIZE PUSH0 PUSH1 0x20 DUP5 ADD RETURNDATACOPY PUSH2 0x31CC JUMP JUMPDEST PUSH1 0x60 SWAP2 POP JUMPDEST POP SWAP2 POP SWAP2 POP DUP2 PUSH2 0x3211 JUMPI PUSH1 0x40 MLOAD PUSH32 0x8C379A000000000000000000000000000000000000000000000000000000000 DUP2 MSTORE PUSH1 0x4 ADD PUSH2 0x3208 SWAP1 PUSH2 0x4701 JUMP JUMPDEST PUSH1 0x40 MLOAD DUP1 SWAP2 SUB SWAP1 REVERT JUMPDEST PUSH32 0x757C5E4BDCF31B72F454B6592D3939C4919CBB2212E5DC5E84141EBF369D54C3 PUSH2 0x323A PUSH2 0x39CB JUMP JUMPDEST DUP10 PUSH2 0x324E DUP7 DUP9 PUSH2 0x3A1E SWAP1 SWAP2 SWAP1 PUSH4 0xFFFFFFFF AND JUMP JUMPDEST PUSH0 TIMESTAMP DUP9 DUP14 PUSH1 0x40 MLOAD PUSH2 0x3265 SWAP8 SWAP7 SWAP6 SWAP5 SWAP4 SWAP3 SWAP2 SWAP1 PUSH2 0x43FE JUMP JUMPDEST PUSH1 0x40 MLOAD DUP1 SWAP2 SUB SWAP1 LOG1 POP POP POP POP POP POP POP POP JUMP JUMPDEST PUSH1 0x65 PUSH2 0x3282 DUP3 PUSH2 0x3776 JUMP JUMPDEST PUSH1 0x40 MLOAD PUSH2 0x328F SWAP2 SWAP1 PUSH2 0x424E JUMP JUMPDEST SWAP1 DUP2 MSTORE PUSH1 0x20 ADD PUSH1 0x40 MLOAD DUP1 SWAP2 SUB SWAP1 KECCAK256 PUSH0 SWAP1 SLOAD SWAP1 PUSH2 0x100 EXP SWAP1 DIV PUSH1 0xFF AND PUSH2 0x32E9 JUMPI PUSH1 0x40 MLOAD PUSH32 0x8C379A000000000000000000000000000000000000000000000000000000000 DUP2 MSTORE PUSH1 0x4 ADD PUSH2 0x32E0 SWAP1 PUSH2 0x42AE JUMP JUMPDEST PUSH1 0x40 MLOAD DUP1 SWAP2 SUB SWAP1 REVERT JUMPDEST PUSH0 CALLVALUE SWAP1 POP PUSH0 DUP2 GT PUSH2 0x332F JUMPI PUSH1 0x40 MLOAD PUSH32 0x8C379A000000000000000000000000000000000000000000000000000000000 DUP2 MSTORE PUSH1 0x4 ADD PUSH2 0x3326 SWAP1 PUSH2 0x41C4 JUMP JUMPDEST PUSH1 0x40 MLOAD DUP1 SWAP2 SUB SWAP1 REVERT JUMPDEST PUSH0 DUP4 GT PUSH2 0x3371 JUMPI PUSH1 0x40 MLOAD PUSH32 0x8C379A000000000000000000000000000000000000000000000000000000000 DUP2 MSTORE PUSH1 0x4 ADD PUSH2 0x3368 SWAP1 PUSH2 0x41C4 JUMP JUMPDEST PUSH1 0x40 MLOAD DUP1 SWAP2 SUB SWAP1 REVERT JUMPDEST PUSH0 ADDRESS SWAP1 POP PUSH0 DUP2 PUSH20 0xFFFFFFFFFFFFFFFFFFFFFFFFFFFFFFFFFFFFFFFF AND PUSH4 0xFE2C6198 DUP6 PUSH1 0x40 MLOAD DUP3 PUSH4 0xFFFFFFFF AND PUSH1 0xE0 SHL DUP2 MSTORE PUSH1 0x4 ADD PUSH2 0x33AF SWAP2 SWAP1 PUSH2 0x430E JUMP JUMPDEST PUSH1 0x20 PUSH1 0x40 MLOAD DUP1 DUP4 SUB DUP2 DUP7 GAS STATICCALL ISZERO DUP1 ISZERO PUSH2 0x33CA JUMPI RETURNDATASIZE PUSH0 DUP1 RETURNDATACOPY RETURNDATASIZE PUSH0 REVERT JUMPDEST POP POP POP POP PUSH1 0x40 MLOAD RETURNDATASIZE PUSH1 0x1F NOT PUSH1 0x1F DUP3 ADD AND DUP3 ADD DUP1 PUSH1 0x40 MSTORE POP DUP2 ADD SWAP1 PUSH2 0x33EE SWAP2 SWAP1 PUSH2 0x4342 JUMP JUMPDEST SWAP1 POP DUP5 PUSH2 0x3404 DUP3 DUP6 PUSH2 0x3B60 SWAP1 SWAP2 SWAP1 PUSH4 0xFFFFFFFF AND JUMP JUMPDEST LT ISZERO PUSH2 0x3445 JUMPI PUSH1 0x40 MLOAD PUSH32 0x8C379A000000000000000000000000000000000000000000000000000000000 DUP2 MSTORE PUSH1 0x4 ADD PUSH2 0x343C SWAP1 PUSH2 0x4662 JUMP JUMPDEST PUSH1 0x40 MLOAD DUP1 SWAP2 SUB SWAP1 REVERT JUMPDEST PUSH2 0x3495 PUSH1 0x5B PUSH2 0x3453 DUP7 PUSH2 0x3776 JUMP JUMPDEST PUSH1 0x40 MLOAD PUSH2 0x3460 SWAP2 SWAP1 PUSH2 0x424E JUMP JUMPDEST SWAP1 DUP2 MSTORE PUSH1 0x20 ADD PUSH1 0x40 MLOAD DUP1 SWAP2 SUB SWAP1 KECCAK256 PUSH0 SWAP1 SLOAD SWAP1 PUSH2 0x100 EXP SWAP1 DIV PUSH20 0xFFFFFFFFFFFFFFFFFFFFFFFFFFFFFFFFFFFFFFFF AND DUP7 ADDRESS PUSH2 0x3805 JUMP JUMPDEST PUSH2 0x3510 DUP4 PUSH1 0x63 PUSH2 0x34A4 DUP8 PUSH2 0x3776 JUMP JUMPDEST PUSH1 0x40 MLOAD PUSH2 0x34B1 SWAP2 SWAP1 PUSH2 0x424E JUMP JUMPDEST SWAP1 DUP2 MSTORE PUSH1 0x20 ADD PUSH1 0x40 MLOAD DUP1 SWAP2 SUB SWAP1 KECCAK256 PUSH0 PUSH2 0x34C8 PUSH2 0x39CB JUMP JUMPDEST PUSH20 0xFFFFFFFFFFFFFFFFFFFFFFFFFFFFFFFFFFFFFFFF AND PUSH20 0xFFFFFFFFFFFFFFFFFFFFFFFFFFFFFFFFFFFFFFFF AND DUP2 MSTORE PUSH1 0x20 ADD SWAP1 DUP2 MSTORE PUSH1 0x20 ADD PUSH0 KECCAK256 SLOAD PUSH2 0x39D2 SWAP1 SWAP2 SWAP1 PUSH4 0xFFFFFFFF AND JUMP JUMPDEST PUSH1 0x63 PUSH2 0x351B DUP7 PUSH2 0x3776 JUMP JUMPDEST PUSH1 0x40 MLOAD PUSH2 0x3528 SWAP2 SWAP1 PUSH2 0x424E JUMP JUMPDEST SWAP1 DUP2 MSTORE PUSH1 0x20 ADD PUSH1 0x40 MLOAD DUP1 SWAP2 SUB SWAP1 KECCAK256 PUSH0 PUSH2 0x353F PUSH2 0x39CB JUMP JUMPDEST PUSH20 0xFFFFFFFFFFFFFFFFFFFFFFFFFFFFFFFFFFFFFFFF AND PUSH20 0xFFFFFFFFFFFFFFFFFFFFFFFFFFFFFFFFFFFFFFFF AND DUP2 MSTORE PUSH1 0x20 ADD SWAP1 DUP2 MSTORE PUSH1 0x20 ADD PUSH0 KECCAK256 DUP2 SWAP1 SSTORE POP PUSH2 0x35F7 DUP6 PUSH1 0x64 PUSH2 0x358B DUP8 PUSH2 0x3776 JUMP JUMPDEST PUSH1 0x40 MLOAD PUSH2 0x3598 SWAP2 SWAP1 PUSH2 0x424E JUMP JUMPDEST SWAP1 DUP2 MSTORE PUSH1 0x20 ADD PUSH1 0x40 MLOAD DUP1 SWAP2 SUB SWAP1 KECCAK256 PUSH0 PUSH2 0x35AF PUSH2 0x39CB JUMP JUMPDEST PUSH20 0xFFFFFFFFFFFFFFFFFFFFFFFFFFFFFFFFFFFFFFFF AND PUSH20 0xFFFFFFFFFFFFFFFFFFFFFFFFFFFFFFFFFFFFFFFF AND DUP2 MSTORE PUSH1 0x20 ADD SWAP1 DUP2 MSTORE PUSH1 0x20 ADD PUSH0 KECCAK256 SLOAD PUSH2 0x39D2 SWAP1 SWAP2 SWAP1 PUSH4 0xFFFFFFFF AND JUMP JUMPDEST PUSH1 0x64 PUSH2 0x3602 DUP7 PUSH2 0x3776 JUMP JUMPDEST PUSH1 0x40 MLOAD PUSH2 0x360F SWAP2 SWAP1 PUSH2 0x424E JUMP JUMPDEST SWAP1 DUP2 MSTORE PUSH1 0x20 ADD PUSH1 0x40 MLOAD DUP1 SWAP2 SUB SWAP1 KECCAK256 PUSH0 PUSH2 0x3626 PUSH2 0x39CB JUMP JUMPDEST PUSH20 0xFFFFFFFFFFFFFFFFFFFFFFFFFFFFFFFFFFFFFFFF AND PUSH20 0xFFFFFFFFFFFFFFFFFFFFFFFFFFFFFFFFFFFFFFFF AND DUP2 MSTORE PUSH1 0x20 ADD SWAP1 DUP2 MSTORE PUSH1 0x20 ADD PUSH0 KECCAK256 DUP2 SWAP1 SSTORE POP PUSH2 0x369C DUP6 PUSH1 0x62 PUSH2 0x3672 DUP8 PUSH2 0x3776 JUMP JUMPDEST PUSH1 0x40 MLOAD PUSH2 0x367F SWAP2 SWAP1 PUSH2 0x424E JUMP JUMPDEST SWAP1 DUP2 MSTORE PUSH1 0x20 ADD PUSH1 0x40 MLOAD DUP1 SWAP2 SUB SWAP1 KECCAK256 SLOAD PUSH2 0x39D2 SWAP1 SWAP2 SWAP1 PUSH4 0xFFFFFFFF AND JUMP JUMPDEST PUSH1 0x62 PUSH2 0x36A7 DUP7 PUSH2 0x3776 JUMP JUMPDEST PUSH1 0x40 MLOAD PUSH2 0x36B4 SWAP2 SWAP1 PUSH2 0x424E JUMP JUMPDEST SWAP1 DUP2 MSTORE PUSH1 0x20 ADD PUSH1 0x40 MLOAD DUP1 SWAP2 SUB SWAP1 KECCAK256 DUP2 SWAP1 SSTORE POP PUSH2 0x36FF DUP4 PUSH1 0x61 PUSH2 0x36D5 DUP8 PUSH2 0x3776 JUMP JUMPDEST PUSH1 0x40 MLOAD PUSH2 0x36E2 SWAP2 SWAP1 PUSH2 0x424E JUMP JUMPDEST SWAP1 DUP2 MSTORE PUSH1 0x20 ADD PUSH1 0x40 MLOAD DUP1 SWAP2 SUB SWAP1 KECCAK256 SLOAD PUSH2 0x39D2 SWAP1 SWAP2 SWAP1 PUSH4 0xFFFFFFFF AND JUMP JUMPDEST PUSH1 0x61 PUSH2 0x370A DUP7 PUSH2 0x3776 JUMP JUMPDEST PUSH1 0x40 MLOAD PUSH2 0x3717 SWAP2 SWAP1 PUSH2 0x424E JUMP JUMPDEST SWAP1 DUP2 MSTORE PUSH1 0x20 ADD PUSH1 0x40 MLOAD DUP1 SWAP2 SUB SWAP1 KECCAK256 DUP2 SWAP1 SSTORE POP PUSH32 0x2680FC9628B60DD57E64ABBE75BF2E7ABE12D8F2FEED8DC8FB343CD3E46BAAF6 PUSH2 0x3752 PUSH2 0x39CB JUMP JUMPDEST DUP5 DUP8 DUP8 TIMESTAMP PUSH1 0x40 MLOAD PUSH2 0x3767 SWAP6 SWAP5 SWAP4 SWAP3 SWAP2 SWAP1 PUSH2 0x4568 JUMP JUMPDEST PUSH1 0x40 MLOAD DUP1 SWAP2 SUB SWAP1 LOG1 POP POP POP POP POP JUMP JUMPDEST PUSH1 0x60 PUSH0 DUP3 SWAP1 POP PUSH0 JUMPDEST DUP2 MLOAD DUP2 LT ISZERO PUSH2 0x37FB JUMPI PUSH2 0x37AD DUP3 DUP3 DUP2 MLOAD DUP2 LT PUSH2 0x379D JUMPI PUSH2 0x379C PUSH2 0x471F JUMP JUMPDEST JUMPDEST PUSH1 0x20 ADD ADD MLOAD PUSH1 0xF8 SHR PUSH1 0xF8 SHL PUSH2 0x3B9E JUMP JUMPDEST DUP3 DUP3 DUP2 MLOAD DUP2 LT PUSH2 0x37C0 JUMPI PUSH2 0x37BF PUSH2 0x471F JUMP JUMPDEST JUMPDEST PUSH1 0x20 ADD ADD SWAP1 PUSH31 0xFFFFFFFFFFFFFFFFFFFFFFFFFFFFFFFFFFFFFFFFFFFFFFFFFFFFFFFFFFFFFF NOT AND SWAP1 DUP2 PUSH0 BYTE SWAP1 MSTORE8 POP DUP1 DUP1 PUSH1 0x1 ADD SWAP2 POP POP PUSH2 0x377E JUMP JUMPDEST POP DUP1 SWAP2 POP POP SWAP2 SWAP1 POP JUMP JUMPDEST DUP2 DUP4 PUSH20 0xFFFFFFFFFFFFFFFFFFFFFFFFFFFFFFFFFFFFFFFF AND PUSH4 0xDD62ED3E PUSH2 0x382A PUSH2 0x39CB JUMP JUMPDEST DUP5 PUSH1 0x40 MLOAD DUP4 PUSH4 0xFFFFFFFF AND PUSH1 0xE0 SHL DUP2 MSTORE PUSH1 0x4 ADD PUSH2 0x3848 SWAP3 SWAP2 SWAP1 PUSH2 0x474C JUMP JUMPDEST PUSH1 0x20 PUSH1 0x40 MLOAD DUP1 DUP4 SUB DUP2 DUP7 GAS STATICCALL ISZERO DUP1 ISZERO PUSH2 0x3863 JUMPI RETURNDATASIZE PUSH0 DUP1 RETURNDATACOPY RETURNDATASIZE PUSH0 REVERT JUMPDEST POP POP POP POP PUSH1 0x40 MLOAD RETURNDATASIZE PUSH1 0x1F NOT PUSH1 0x1F DUP3 ADD AND DUP3 ADD DUP1 PUSH1 0x40 MSTORE POP DUP2 ADD SWAP1 PUSH2 0x3887 SWAP2 SWAP1 PUSH2 0x4342 JUMP JUMPDEST LT ISZERO PUSH2 0x38C8 JUMPI PUSH1 0x40 MLOAD PUSH32 0x8C379A000000000000000000000000000000000000000000000000000000000 DUP2 MSTORE PUSH1 0x4 ADD PUSH2 0x38BF SWAP1 PUSH2 0x47BD JUMP JUMPDEST PUSH1 0x40 MLOAD DUP1 SWAP2 SUB SWAP1 REVERT JUMPDEST DUP3 PUSH20 0xFFFFFFFFFFFFFFFFFFFFFFFFFFFFFFFFFFFFFFFF AND PUSH4 0x23B872DD PUSH2 0x38EC PUSH2 0x39CB JUMP JUMPDEST DUP4 DUP6 PUSH1 0x40 MLOAD DUP5 PUSH4 0xFFFFFFFF AND PUSH1 0xE0 SHL DUP2 MSTORE PUSH1 0x4 ADD PUSH2 0x390C SWAP4 SWAP3 SWAP2 SWAP1 PUSH2 0x47DB JUMP JUMPDEST PUSH1 0x20 PUSH1 0x40 MLOAD DUP1 DUP4 SUB DUP2 PUSH0 DUP8 GAS CALL ISZERO DUP1 ISZERO PUSH2 0x3928 JUMPI RETURNDATASIZE PUSH0 DUP1 RETURNDATACOPY RETURNDATASIZE PUSH0 REVERT JUMPDEST POP POP POP POP PUSH1 0x40 MLOAD RETURNDATASIZE PUSH1 0x1F NOT PUSH1 0x1F DUP3 ADD AND DUP3 ADD DUP1 PUSH1 0x40 MSTORE POP DUP2 ADD SWAP1 PUSH2 0x394C SWAP2 SWAP1 PUSH2 0x483A JUMP JUMPDEST PUSH2 0x398B JUMPI PUSH1 0x40 MLOAD PUSH32 0x8C379A000000000000000000000000000000000000000000000000000000000 DUP2 MSTORE PUSH1 0x4 ADD PUSH2 0x3982 SWAP1 PUSH2 0x48AF JUMP JUMPDEST PUSH1 0x40 MLOAD DUP1 SWAP2 SUB SWAP1 REVERT JUMPDEST POP POP POP JUMP JUMPDEST PUSH0 DUP2 PUSH2 0x39AE JUMPI PUSH2 0x39A9 DUP5 DUP5 PUSH2 0x39E7 SWAP1 SWAP2 SWAP1 PUSH4 0xFFFFFFFF AND JUMP JUMPDEST PUSH2 0x39C2 JUMP JUMPDEST PUSH2 0x39C1 DUP5 DUP5 PUSH2 0x3B60 SWAP1 SWAP2 SWAP1 PUSH4 0xFFFFFFFF AND JUMP JUMPDEST JUMPDEST SWAP1 POP SWAP4 SWAP3 POP POP POP JUMP JUMPDEST PUSH0 CALLER SWAP1 POP SWAP1 JUMP JUMPDEST PUSH0 DUP2 DUP4 PUSH2 0x39DF SWAP2 SWAP1 PUSH2 0x48FA JUMP JUMPDEST SWAP1 POP SWAP3 SWAP2 POP POP JUMP JUMPDEST PUSH0 PUSH1 0x12 PUSH1 0xFF AND PUSH1 0xA PUSH2 0x39F9 SWAP2 SWAP1 PUSH2 0x4A5C JUMP JUMPDEST PUSH2 0x3A0C DUP4 DUP6 PUSH2 0x3C23 SWAP1 SWAP2 SWAP1 PUSH4 0xFFFFFFFF AND JUMP JUMPDEST PUSH2 0x3A16 SWAP2 SWAP1 PUSH2 0x4AD3 JUMP JUMPDEST SWAP1 POP SWAP3 SWAP2 POP POP JUMP JUMPDEST PUSH0 DUP2 DUP4 PUSH2 0x3A2B SWAP2 SWAP1 PUSH2 0x4B03 JUMP JUMPDEST SWAP1 POP SWAP3 SWAP2 POP POP JUMP JUMPDEST DUP1 PUSH20 0xFFFFFFFFFFFFFFFFFFFFFFFFFFFFFFFFFFFFFFFF AND PUSH4 0xA9059CBB DUP4 DUP6 PUSH1 0x40 MLOAD DUP4 PUSH4 0xFFFFFFFF AND PUSH1 0xE0 SHL DUP2 MSTORE PUSH1 0x4 ADD PUSH2 0x3A6E SWAP3 SWAP2 SWAP1 PUSH2 0x4B36 JUMP JUMPDEST PUSH1 0x20 PUSH1 0x40 MLOAD DUP1 DUP4 SUB DUP2 PUSH0 DUP8 GAS CALL ISZERO DUP1 ISZERO PUSH2 0x3A8A JUMPI RETURNDATASIZE PUSH0 DUP1 RETURNDATACOPY RETURNDATASIZE PUSH0 REVERT JUMPDEST POP POP POP POP PUSH1 0x40 MLOAD RETURNDATASIZE PUSH1 0x1F NOT PUSH1 0x1F DUP3 ADD AND DUP3 ADD DUP1 PUSH1 0x40 MSTORE POP DUP2 ADD SWAP1 PUSH2 0x3AAE SWAP2 SWAP1 PUSH2 0x483A JUMP JUMPDEST PUSH2 0x3AED JUMPI PUSH1 0x40 MLOAD PUSH32 0x8C379A000000000000000000000000000000000000000000000000000000000 DUP2 MSTORE PUSH1 0x4 ADD PUSH2 0x3AE4 SWAP1 PUSH2 0x48AF JUMP JUMPDEST PUSH1 0x40 MLOAD DUP1 SWAP2 SUB SWAP1 REVERT JUMPDEST POP POP POP JUMP JUMPDEST PUSH0 PUSH2 0x3AFB PUSH2 0x3C38 JUMP JUMPDEST PUSH1 0x3 ADD PUSH0 SWAP1 SLOAD SWAP1 PUSH2 0x100 EXP SWAP1 DIV PUSH20 0xFFFFFFFFFFFFFFFFFFFFFFFFFFFFFFFFFFFFFFFF AND SWAP1 POP SWAP1 JUMP JUMPDEST PUSH0 DUP1 DUP4 SWAP1 POP PUSH0 DUP4 SWAP1 POP PUSH0 PUSH2 0x3B40 DUP4 DUP4 PUSH2 0x3B60 SWAP1 SWAP2 SWAP1 PUSH4 0xFFFFFFFF AND JUMP JUMPDEST SWAP1 POP PUSH2 0x3B55 DUP4 DUP3 PUSH2 0x39E7 SWAP1 SWAP2 SWAP1 PUSH4 0xFFFFFFFF AND JUMP JUMPDEST SWAP4 POP POP POP POP SWAP3 SWAP2 POP POP JUMP JUMPDEST PUSH0 PUSH2 0x3B96 DUP3 PUSH2 0x3B88 PUSH1 0x12 PUSH1 0xFF AND PUSH1 0xA PUSH2 0x3B79 SWAP2 SWAP1 PUSH2 0x4A5C JUMP JUMPDEST DUP7 PUSH2 0x3C23 SWAP1 SWAP2 SWAP1 PUSH4 0xFFFFFFFF AND JUMP JUMPDEST PUSH2 0x3C64 SWAP1 SWAP2 SWAP1 PUSH4 0xFFFFFFFF AND JUMP JUMPDEST SWAP1 POP SWAP3 SWAP2 POP POP JUMP JUMPDEST PUSH0 PUSH1 0x61 PUSH1 0xF8 SHL DUP3 PUSH31 0xFFFFFFFFFFFFFFFFFFFFFFFFFFFFFFFFFFFFFFFFFFFFFFFFFFFFFFFFFFFFFF NOT AND LT ISZERO DUP1 ISZERO PUSH2 0x3BFB JUMPI POP PUSH1 0x7A PUSH1 0xF8 SHL DUP3 PUSH31 0xFFFFFFFFFFFFFFFFFFFFFFFFFFFFFFFFFFFFFFFFFFFFFFFFFFFFFFFFFFFFFF NOT AND GT ISZERO JUMPDEST ISZERO PUSH2 0x3C1A JUMPI PUSH1 0x20 DUP3 PUSH1 0xF8 SHR PUSH2 0x3C10 SWAP2 SWAP1 PUSH2 0x4B69 JUMP JUMPDEST PUSH1 0xF8 SHL SWAP1 POP PUSH2 0x3C1E JUMP JUMPDEST DUP2 SWAP1 POP JUMPDEST SWAP2 SWAP1 POP JUMP JUMPDEST PUSH0 DUP2 DUP4 PUSH2 0x3C30 SWAP2 SWAP1 PUSH2 0x4B9D JUMP JUMPDEST SWAP1 POP SWAP3 SWAP2 POP POP JUMP JUMPDEST PUSH0 DUP1 PUSH32 0xC8FCAD8DB84D3CC18B4C41D551EA0EE66DD599CDE068D998E57D5E09332C131C SWAP1 POP DUP1 SWAP2 POP POP SWAP1 JUMP JUMPDEST PUSH0 DUP2 DUP4 PUSH2 0x3C71 SWAP2 SWAP1 PUSH2 0x4AD3 JUMP JUMPDEST SWAP1 POP SWAP3 SWAP2 POP POP JUMP JUMPDEST PUSH0 PUSH1 0x40 MLOAD SWAP1 POP SWAP1 JUMP JUMPDEST PUSH0 DUP1 REVERT JUMPDEST PUSH0 DUP1 REVERT JUMPDEST PUSH0 DUP2 SWAP1 POP SWAP2 SWAP1 POP JUMP JUMPDEST PUSH2 0x3C9C DUP2 PUSH2 0x3C8A JUMP JUMPDEST DUP2 EQ PUSH2 0x3CA6 JUMPI PUSH0 DUP1 REVERT JUMPDEST POP JUMP JUMPDEST PUSH0 DUP2 CALLDATALOAD SWAP1 POP PUSH2 0x3CB7 DUP2 PUSH2 0x3C93 JUMP JUMPDEST SWAP3 SWAP2 POP POP JUMP JUMPDEST PUSH0 DUP1 REVERT JUMPDEST PUSH0 DUP1 REVERT JUMPDEST PUSH0 PUSH1 0x1F NOT PUSH1 0x1F DUP4 ADD AND SWAP1 POP SWAP2 SWAP1 POP JUMP JUMPDEST PUSH32 0x4E487B7100000000000000000000000000000000000000000000000000000000 PUSH0 MSTORE PUSH1 0x41 PUSH1 0x4 MSTORE PUSH1 0x24 PUSH0 REVERT JUMPDEST PUSH2 0x3D0B DUP3 PUSH2 0x3CC5 JUMP JUMPDEST DUP2 ADD DUP2 DUP2 LT PUSH8 0xFFFFFFFFFFFFFFFF DUP3 GT OR ISZERO PUSH2 0x3D2A JUMPI PUSH2 0x3D29 PUSH2 0x3CD5 JUMP JUMPDEST JUMPDEST DUP1 PUSH1 0x40 MSTORE POP POP POP JUMP JUMPDEST PUSH0 PUSH2 0x3D3C PUSH2 0x3C79 JUMP JUMPDEST SWAP1 POP PUSH2 0x3D48 DUP3 DUP3 PUSH2 0x3D02 JUMP JUMPDEST SWAP2 SWAP1 POP JUMP JUMPDEST PUSH0 PUSH8 0xFFFFFFFFFFFFFFFF DUP3 GT ISZERO PUSH2 0x3D67 JUMPI PUSH2 0x3D66 PUSH2 0x3CD5 JUMP JUMPDEST JUMPDEST PUSH2 0x3D70 DUP3 PUSH2 0x3CC5 JUMP JUMPDEST SWAP1 POP PUSH1 0x20 DUP2 ADD SWAP1 POP SWAP2 SWAP1 POP JUMP JUMPDEST DUP3 DUP2 DUP4 CALLDATACOPY PUSH0 DUP4 DUP4 ADD MSTORE POP POP POP JUMP JUMPDEST PUSH0 PUSH2 0x3D9D PUSH2 0x3D98 DUP5 PUSH2 0x3D4D JUMP JUMPDEST PUSH2 0x3D33 JUMP JUMPDEST SWAP1 POP DUP3 DUP2 MSTORE PUSH1 0x20 DUP2 ADD DUP5 DUP5 DUP5 ADD GT ISZERO PUSH2 0x3DB9 JUMPI PUSH2 0x3DB8 PUSH2 0x3CC1 JUMP JUMPDEST JUMPDEST PUSH2 0x3DC4 DUP5 DUP3 DUP6 PUSH2 0x3D7D JUMP JUMPDEST POP SWAP4 SWAP3 POP POP POP JUMP JUMPDEST PUSH0 DUP3 PUSH1 0x1F DUP4 ADD SLT PUSH2 0x3DE0 JUMPI PUSH2 0x3DDF PUSH2 0x3CBD JUMP JUMPDEST JUMPDEST DUP2 CALLDATALOAD PUSH2 0x3DF0 DUP5 DUP3 PUSH1 0x20 DUP7 ADD PUSH2 0x3D8B JUMP JUMPDEST SWAP2 POP POP SWAP3 SWAP2 POP POP JUMP JUMPDEST PUSH0 DUP1 PUSH1 0x40 DUP4 DUP6 SUB SLT ISZERO PUSH2 0x3E0F JUMPI PUSH2 0x3E0E PUSH2 0x3C82 JUMP JUMPDEST JUMPDEST PUSH0 PUSH2 0x3E1C DUP6 DUP3 DUP7 ADD PUSH2 0x3CA9 JUMP JUMPDEST SWAP3 POP POP PUSH1 0x20 DUP4 ADD CALLDATALOAD PUSH8 0xFFFFFFFFFFFFFFFF DUP2 GT ISZERO PUSH2 0x3E3D JUMPI PUSH2 0x3E3C PUSH2 0x3C86 JUMP JUMPDEST JUMPDEST PUSH2 0x3E49 DUP6 DUP3 DUP7 ADD PUSH2 0x3DCC JUMP JUMPDEST SWAP2 POP POP SWAP3 POP SWAP3 SWAP1 POP JUMP JUMPDEST PUSH0 PUSH1 0x20 DUP3 DUP5 SUB SLT ISZERO PUSH2 0x3E68 JUMPI PUSH2 0x3E67 PUSH2 0x3C82 JUMP JUMPDEST JUMPDEST PUSH0 DUP3 ADD CALLDATALOAD PUSH8 0xFFFFFFFFFFFFFFFF DUP2 GT ISZERO PUSH2 0x3E85 JUMPI PUSH2 0x3E84 PUSH2 0x3C86 JUMP JUMPDEST JUMPDEST PUSH2 0x3E91 DUP5 DUP3 DUP6 ADD PUSH2 0x3DCC JUMP JUMPDEST SWAP2 POP POP SWAP3 SWAP2 POP POP JUMP JUMPDEST PUSH0 PUSH20 0xFFFFFFFFFFFFFFFFFFFFFFFFFFFFFFFFFFFFFFFF DUP3 AND SWAP1 POP SWAP2 SWAP1 POP JUMP JUMPDEST PUSH0 PUSH2 0x3EC3 DUP3 PUSH2 0x3E9A JUMP JUMPDEST SWAP1 POP SWAP2 SWAP1 POP JUMP JUMPDEST PUSH2 0x3ED3 DUP2 PUSH2 0x3EB9 JUMP JUMPDEST DUP2 EQ PUSH2 0x3EDD JUMPI PUSH0 DUP1 REVERT JUMPDEST POP JUMP JUMPDEST PUSH0 DUP2 CALLDATALOAD SWAP1 POP PUSH2 0x3EEE DUP2 PUSH2 0x3ECA JUMP JUMPDEST SWAP3 SWAP2 POP POP JUMP JUMPDEST PUSH0 DUP1 PUSH0 PUSH1 0x60 DUP5 DUP7 SUB SLT ISZERO PUSH2 0x3F0B JUMPI PUSH2 0x3F0A PUSH2 0x3C82 JUMP JUMPDEST JUMPDEST PUSH0 DUP5 ADD CALLDATALOAD PUSH8 0xFFFFFFFFFFFFFFFF DUP2 GT ISZERO PUSH2 0x3F28 JUMPI PUSH2 0x3F27 PUSH2 0x3C86 JUMP JUMPDEST JUMPDEST PUSH2 0x3F34 DUP7 DUP3 DUP8 ADD PUSH2 0x3DCC JUMP JUMPDEST SWAP4 POP POP PUSH1 0x20 PUSH2 0x3F45 DUP7 DUP3 DUP8 ADD PUSH2 0x3EE0 JUMP JUMPDEST SWAP3 POP POP PUSH1 0x40 PUSH2 0x3F56 DUP7 DUP3 DUP8 ADD PUSH2 0x3EE0 JUMP JUMPDEST SWAP2 POP POP SWAP3 POP SWAP3 POP SWAP3 JUMP JUMPDEST PUSH0 DUP1 PUSH1 0x40 DUP4 DUP6 SUB SLT ISZERO PUSH2 0x3F76 JUMPI PUSH2 0x3F75 PUSH2 0x3C82 JUMP JUMPDEST JUMPDEST PUSH0 DUP4 ADD CALLDATALOAD PUSH8 0xFFFFFFFFFFFFFFFF DUP2 GT ISZERO PUSH2 0x3F93 JUMPI PUSH2 0x3F92 PUSH2 0x3C86 JUMP JUMPDEST JUMPDEST PUSH2 0x3F9F DUP6 DUP3 DUP7 ADD PUSH2 0x3DCC JUMP JUMPDEST SWAP3 POP POP PUSH1 0x20 PUSH2 0x3FB0 DUP6 DUP3 DUP7 ADD PUSH2 0x3EE0 JUMP JUMPDEST SWAP2 POP POP SWAP3 POP SWAP3 SWAP1 POP JUMP JUMPDEST PUSH0 DUP1 PUSH0 PUSH1 0x60 DUP5 DUP7 SUB SLT ISZERO PUSH2 0x3FD1 JUMPI PUSH2 0x3FD0 PUSH2 0x3C82 JUMP JUMPDEST JUMPDEST PUSH0 PUSH2 0x3FDE DUP7 DUP3 DUP8 ADD PUSH2 0x3CA9 JUMP JUMPDEST SWAP4 POP POP PUSH1 0x20 PUSH2 0x3FEF DUP7 DUP3 DUP8 ADD PUSH2 0x3CA9 JUMP JUMPDEST SWAP3 POP POP PUSH1 0x40 DUP5 ADD CALLDATALOAD PUSH8 0xFFFFFFFFFFFFFFFF DUP2 GT ISZERO PUSH2 0x4010 JUMPI PUSH2 0x400F PUSH2 0x3C86 JUMP JUMPDEST JUMPDEST PUSH2 0x401C DUP7 DUP3 DUP8 ADD PUSH2 0x3DCC JUMP JUMPDEST SWAP2 POP POP SWAP3 POP SWAP3 POP SWAP3 JUMP JUMPDEST PUSH0 PUSH1 0x20 DUP3 DUP5 SUB SLT ISZERO PUSH2 0x403B JUMPI PUSH2 0x403A PUSH2 0x3C82 JUMP JUMPDEST JUMPDEST PUSH0 PUSH2 0x4048 DUP5 DUP3 DUP6 ADD PUSH2 0x3CA9 JUMP JUMPDEST SWAP2 POP POP SWAP3 SWAP2 POP POP JUMP JUMPDEST PUSH2 0x405A DUP2 PUSH2 0x3C8A JUMP JUMPDEST DUP3 MSTORE POP POP JUMP JUMPDEST PUSH0 PUSH1 0xA0 DUP3 ADD SWAP1 POP PUSH2 0x4073 PUSH0 DUP4 ADD DUP9 PUSH2 0x4051 JUMP JUMPDEST PUSH2 0x4080 PUSH1 0x20 DUP4 ADD DUP8 PUSH2 0x4051 JUMP JUMPDEST PUSH2 0x408D PUSH1 0x40 DUP4 ADD DUP7 PUSH2 0x4051 JUMP JUMPDEST PUSH2 0x409A PUSH1 0x60 DUP4 ADD DUP6 PUSH2 0x4051 JUMP JUMPDEST PUSH2 0x40A7 PUSH1 0x80 DUP4 ADD DUP5 PUSH2 0x4051 JUMP JUMPDEST SWAP7 SWAP6 POP POP POP POP POP POP JUMP JUMPDEST PUSH0 DUP1 PUSH1 0x40 DUP4 DUP6 SUB SLT ISZERO PUSH2 0x40C7 JUMPI PUSH2 0x40C6 PUSH2 0x3C82 JUMP JUMPDEST JUMPDEST PUSH0 PUSH2 0x40D4 DUP6 DUP3 DUP7 ADD PUSH2 0x3EE0 JUMP JUMPDEST SWAP3 POP POP PUSH1 0x20 DUP4 ADD CALLDATALOAD PUSH8 0xFFFFFFFFFFFFFFFF DUP2 GT ISZERO PUSH2 0x40F5 JUMPI PUSH2 0x40F4 PUSH2 0x3C86 JUMP JUMPDEST JUMPDEST PUSH2 0x4101 DUP6 DUP3 DUP7 ADD PUSH2 0x3DCC JUMP JUMPDEST SWAP2 POP POP SWAP3 POP SWAP3 SWAP1 POP JUMP JUMPDEST PUSH0 PUSH1 0xC0 DUP3 ADD SWAP1 POP PUSH2 0x411E PUSH0 DUP4 ADD DUP10 PUSH2 0x4051 JUMP JUMPDEST PUSH2 0x412B PUSH1 0x20 DUP4 ADD DUP9 PUSH2 0x4051 JUMP JUMPDEST PUSH2 0x4138 PUSH1 0x40 DUP4 ADD DUP8 PUSH2 0x4051 JUMP JUMPDEST PUSH2 0x4145 PUSH1 0x60 DUP4 ADD DUP7 PUSH2 0x4051 JUMP JUMPDEST PUSH2 0x4152 PUSH1 0x80 DUP4 ADD DUP6 PUSH2 0x4051 JUMP JUMPDEST PUSH2 0x415F PUSH1 0xA0 DUP4 ADD DUP5 PUSH2 0x4051 JUMP JUMPDEST SWAP8 SWAP7 POP POP POP POP POP POP POP JUMP JUMPDEST PUSH0 DUP3 DUP3 MSTORE PUSH1 0x20 DUP3 ADD SWAP1 POP SWAP3 SWAP2 POP POP JUMP JUMPDEST PUSH32 0x5A65726F2076616C75652070726F766964656421000000000000000000000000 PUSH0 DUP3 ADD MSTORE POP JUMP JUMPDEST PUSH0 PUSH2 0x41AE PUSH1 0x14 DUP4 PUSH2 0x416A JUMP JUMPDEST SWAP2 POP PUSH2 0x41B9 DUP3 PUSH2 0x417A JUMP JUMPDEST PUSH1 0x20 DUP3 ADD SWAP1 POP SWAP2 SWAP1 POP JUMP JUMPDEST PUSH0 PUSH1 0x20 DUP3 ADD SWAP1 POP DUP2 DUP2 SUB PUSH0 DUP4 ADD MSTORE PUSH2 0x41DB DUP2 PUSH2 0x41A2 JUMP JUMPDEST SWAP1 POP SWAP2 SWAP1 POP JUMP JUMPDEST PUSH0 DUP2 MLOAD SWAP1 POP SWAP2 SWAP1 POP JUMP JUMPDEST PUSH0 DUP2 SWAP1 POP SWAP3 SWAP2 POP POP JUMP JUMPDEST PUSH0 JUMPDEST DUP4 DUP2 LT ISZERO PUSH2 0x4213 JUMPI DUP1 DUP3 ADD MLOAD DUP2 DUP5 ADD MSTORE PUSH1 0x20 DUP2 ADD SWAP1 POP PUSH2 0x41F8 JUMP JUMPDEST PUSH0 DUP5 DUP5 ADD MSTORE POP POP POP POP JUMP JUMPDEST PUSH0 PUSH2 0x4228 DUP3 PUSH2 0x41E2 JUMP JUMPDEST PUSH2 0x4232 DUP2 DUP6 PUSH2 0x41EC JUMP JUMPDEST SWAP4 POP PUSH2 0x4242 DUP2 DUP6 PUSH1 0x20 DUP7 ADD PUSH2 0x41F6 JUMP JUMPDEST DUP1 DUP5 ADD SWAP2 POP POP SWAP3 SWAP2 POP POP JUMP JUMPDEST PUSH0 PUSH2 0x4259 DUP3 DUP5 PUSH2 0x421E JUMP JUMPDEST SWAP2 POP DUP2 SWAP1 POP SWAP3 SWAP2 POP POP JUMP JUMPDEST PUSH32 0x496E76616C696420506169720000000000000000000000000000000000000000 PUSH0 DUP3 ADD MSTORE POP JUMP JUMPDEST PUSH0 PUSH2 0x4298 PUSH1 0xC DUP4 PUSH2 0x416A JUMP JUMPDEST SWAP2 POP PUSH2 0x42A3 DUP3 PUSH2 0x4264 JUMP JUMPDEST PUSH1 0x20 DUP3 ADD SWAP1 POP SWAP2 SWAP1 POP JUMP JUMPDEST PUSH0 PUSH1 0x20 DUP3 ADD SWAP1 POP DUP2 DUP2 SUB PUSH0 DUP4 ADD MSTORE PUSH2 0x42C5 DUP2 PUSH2 0x428C JUMP JUMPDEST SWAP1 POP SWAP2 SWAP1 POP JUMP JUMPDEST PUSH0 DUP2 MLOAD SWAP1 POP SWAP2 SWAP1 POP JUMP JUMPDEST PUSH0 PUSH2 0x42E0 DUP3 PUSH2 0x42CC JUMP JUMPDEST PUSH2 0x42EA DUP2 DUP6 PUSH2 0x416A JUMP JUMPDEST SWAP4 POP PUSH2 0x42FA DUP2 DUP6 PUSH1 0x20 DUP7 ADD PUSH2 0x41F6 JUMP JUMPDEST PUSH2 0x4303 DUP2 PUSH2 0x3CC5 JUMP JUMPDEST DUP5 ADD SWAP2 POP POP SWAP3 SWAP2 POP POP JUMP JUMPDEST PUSH0 PUSH1 0x20 DUP3 ADD SWAP1 POP DUP2 DUP2 SUB PUSH0 DUP4 ADD MSTORE PUSH2 0x4326 DUP2 DUP5 PUSH2 0x42D6 JUMP JUMPDEST SWAP1 POP SWAP3 SWAP2 POP POP JUMP JUMPDEST PUSH0 DUP2 MLOAD SWAP1 POP PUSH2 0x433C DUP2 PUSH2 0x3C93 JUMP JUMPDEST SWAP3 SWAP2 POP POP JUMP JUMPDEST PUSH0 PUSH1 0x20 DUP3 DUP5 SUB SLT ISZERO PUSH2 0x4357 JUMPI PUSH2 0x4356 PUSH2 0x3C82 JUMP JUMPDEST JUMPDEST PUSH0 PUSH2 0x4364 DUP5 DUP3 DUP6 ADD PUSH2 0x432E JUMP JUMPDEST SWAP2 POP POP SWAP3 SWAP2 POP POP JUMP JUMPDEST PUSH32 0x4E6F206C69717569646974792100000000000000000000000000000000000000 PUSH0 DUP3 ADD MSTORE POP JUMP JUMPDEST PUSH0 PUSH2 0x43A1 PUSH1 0xD DUP4 PUSH2 0x416A JUMP JUMPDEST SWAP2 POP PUSH2 0x43AC DUP3 PUSH2 0x436D JUMP JUMPDEST PUSH1 0x20 DUP3 ADD SWAP1 POP SWAP2 SWAP1 POP JUMP JUMPDEST PUSH0 PUSH1 0x20 DUP3 ADD SWAP1 POP DUP2 DUP2 SUB PUSH0 DUP4 ADD MSTORE PUSH2 0x43CE DUP2 PUSH2 0x4395 JUMP JUMPDEST SWAP1 POP SWAP2 SWAP1 POP JUMP JUMPDEST PUSH2 0x43DE DUP2 PUSH2 0x3EB9 JUMP JUMPDEST DUP3 MSTORE POP POP JUMP JUMPDEST PUSH0 DUP2 ISZERO ISZERO SWAP1 POP SWAP2 SWAP1 POP JUMP JUMPDEST PUSH2 0x43F8 DUP2 PUSH2 0x43E4 JUMP JUMPDEST DUP3 MSTORE POP POP JUMP JUMPDEST PUSH0 PUSH1 0xE0 DUP3 ADD SWAP1 POP PUSH2 0x4411 PUSH0 DUP4 ADD DUP11 PUSH2 0x43D5 JUMP JUMPDEST PUSH2 0x441E PUSH1 0x20 DUP4 ADD DUP10 PUSH2 0x4051 JUMP JUMPDEST PUSH2 0x442B PUSH1 0x40 DUP4 ADD DUP9 PUSH2 0x4051 JUMP JUMPDEST PUSH2 0x4438 PUSH1 0x60 DUP4 ADD DUP8 PUSH2 0x43EF JUMP JUMPDEST PUSH2 0x4445 PUSH1 0x80 DUP4 ADD DUP7 PUSH2 0x4051 JUMP JUMPDEST PUSH2 0x4452 PUSH1 0xA0 DUP4 ADD DUP6 PUSH2 0x4051 JUMP JUMPDEST DUP2 DUP2 SUB PUSH1 0xC0 DUP4 ADD MSTORE PUSH2 0x4464 DUP2 DUP5 PUSH2 0x42D6 JUMP JUMPDEST SWAP1 POP SWAP9 SWAP8 POP POP POP POP POP POP POP POP JUMP JUMPDEST PUSH32 0x4163636573732064656E6965642C204F6E6C79206F776E657220697320616C6C PUSH0 DUP3 ADD MSTORE PUSH32 0x6F77656421000000000000000000000000000000000000000000000000000000 PUSH1 0x20 DUP3 ADD MSTORE POP JUMP JUMPDEST PUSH0 PUSH2 0x44CC PUSH1 0x25 DUP4 PUSH2 0x416A JUMP JUMPDEST SWAP2 POP PUSH2 0x44D7 DUP3 PUSH2 0x4472 JUMP JUMPDEST PUSH1 0x40 DUP3 ADD SWAP1 POP SWAP2 SWAP1 POP JUMP JUMPDEST PUSH0 PUSH1 0x20 DUP3 ADD SWAP1 POP DUP2 DUP2 SUB PUSH0 DUP4 ADD MSTORE PUSH2 0x44F9 DUP2 PUSH2 0x44C0 JUMP JUMPDEST SWAP1 POP SWAP2 SWAP1 POP JUMP JUMPDEST PUSH32 0x416464206C697175696469747920746F20636F6E74696E756521000000000000 PUSH0 DUP3 ADD MSTORE POP JUMP JUMPDEST PUSH0 PUSH2 0x4534 PUSH1 0x1A DUP4 PUSH2 0x416A JUMP JUMPDEST SWAP2 POP PUSH2 0x453F DUP3 PUSH2 0x4500 JUMP JUMPDEST PUSH1 0x20 DUP3 ADD SWAP1 POP SWAP2 SWAP1 POP JUMP JUMPDEST PUSH0 PUSH1 0x20 DUP3 ADD SWAP1 POP DUP2 DUP2 SUB PUSH0 DUP4 ADD MSTORE PUSH2 0x4561 DUP2 PUSH2 0x4528 JUMP JUMPDEST SWAP1 POP SWAP2 SWAP1 POP JUMP JUMPDEST PUSH0 PUSH1 0xA0 DUP3 ADD SWAP1 POP PUSH2 0x457B PUSH0 DUP4 ADD DUP9 PUSH2 0x43D5 JUMP JUMPDEST PUSH2 0x4588 PUSH1 0x20 DUP4 ADD DUP8 PUSH2 0x4051 JUMP JUMPDEST PUSH2 0x4595 PUSH1 0x40 DUP4 ADD DUP7 PUSH2 0x4051 JUMP JUMPDEST DUP2 DUP2 SUB PUSH1 0x60 DUP4 ADD MSTORE PUSH2 0x45A7 DUP2 DUP6 PUSH2 0x42D6 JUMP JUMPDEST SWAP1 POP PUSH2 0x45B6 PUSH1 0x80 DUP4 ADD DUP5 PUSH2 0x4051 JUMP JUMPDEST SWAP7 SWAP6 POP POP POP POP POP POP JUMP JUMPDEST PUSH0 PUSH1 0xA0 DUP3 ADD SWAP1 POP DUP2 DUP2 SUB PUSH0 DUP4 ADD MSTORE PUSH2 0x45D8 DUP2 DUP9 PUSH2 0x42D6 JUMP JUMPDEST SWAP1 POP PUSH2 0x45E7 PUSH1 0x20 DUP4 ADD DUP8 PUSH2 0x43D5 JUMP JUMPDEST PUSH2 0x45F4 PUSH1 0x40 DUP4 ADD DUP7 PUSH2 0x43D5 JUMP JUMPDEST PUSH2 0x4601 PUSH1 0x60 DUP4 ADD DUP6 PUSH2 0x43D5 JUMP JUMPDEST PUSH2 0x460E PUSH1 0x80 DUP4 ADD DUP5 PUSH2 0x4051 JUMP JUMPDEST SWAP7 SWAP6 POP POP POP POP POP POP JUMP JUMPDEST PUSH32 0x496E76616C6964206C6971756964697479000000000000000000000000000000 PUSH0 DUP3 ADD MSTORE POP JUMP JUMPDEST PUSH0 PUSH2 0x464C PUSH1 0x11 DUP4 PUSH2 0x416A JUMP JUMPDEST SWAP2 POP PUSH2 0x4657 DUP3 PUSH2 0x4618 JUMP JUMPDEST PUSH1 0x20 DUP3 ADD SWAP1 POP SWAP2 SWAP1 POP JUMP JUMPDEST PUSH0 PUSH1 0x20 DUP3 ADD SWAP1 POP DUP2 DUP2 SUB PUSH0 DUP4 ADD MSTORE PUSH2 0x4679 DUP2 PUSH2 0x4640 JUMP JUMPDEST SWAP1 POP SWAP2 SWAP1 POP JUMP JUMPDEST POP JUMP JUMPDEST PUSH0 PUSH2 0x468E PUSH0 DUP4 PUSH2 0x41EC JUMP JUMPDEST SWAP2 POP PUSH2 0x4699 DUP3 PUSH2 0x4680 JUMP JUMPDEST PUSH0 DUP3 ADD SWAP1 POP SWAP2 SWAP1 POP JUMP JUMPDEST PUSH0 PUSH2 0x46AD DUP3 PUSH2 0x4683 JUMP JUMPDEST SWAP2 POP DUP2 SWAP1 POP SWAP2 SWAP1 POP JUMP JUMPDEST PUSH32 0x4661696C656420746F2073656E64204574686572000000000000000000000000 PUSH0 DUP3 ADD MSTORE POP JUMP JUMPDEST PUSH0 PUSH2 0x46EB PUSH1 0x14 DUP4 PUSH2 0x416A JUMP JUMPDEST SWAP2 POP PUSH2 0x46F6 DUP3 PUSH2 0x46B7 JUMP JUMPDEST PUSH1 0x20 DUP3 ADD SWAP1 POP SWAP2 SWAP1 POP JUMP JUMPDEST PUSH0 PUSH1 0x20 DUP3 ADD SWAP1 POP DUP2 DUP2 SUB PUSH0 DUP4 ADD MSTORE PUSH2 0x4718 DUP2 PUSH2 0x46DF JUMP JUMPDEST SWAP1 POP SWAP2 SWAP1 POP JUMP JUMPDEST PUSH32 0x4E487B7100000000000000000000000000000000000000000000000000000000 PUSH0 MSTORE PUSH1 0x32 PUSH1 0x4 MSTORE PUSH1 0x24 PUSH0 REVERT JUMPDEST PUSH0 PUSH1 0x40 DUP3 ADD SWAP1 POP PUSH2 0x475F PUSH0 DUP4 ADD DUP6 PUSH2 0x43D5 JUMP JUMPDEST PUSH2 0x476C PUSH1 0x20 DUP4 ADD DUP5 PUSH2 0x43D5 JUMP JUMPDEST SWAP4 SWAP3 POP POP POP JUMP JUMPDEST PUSH32 0x4E6F6E2D73756666696369656E742066756E6473000000000000000000000000 PUSH0 DUP3 ADD MSTORE POP JUMP JUMPDEST PUSH0 PUSH2 0x47A7 PUSH1 0x14 DUP4 PUSH2 0x416A JUMP JUMPDEST SWAP2 POP PUSH2 0x47B2 DUP3 PUSH2 0x4773 JUMP JUMPDEST PUSH1 0x20 DUP3 ADD SWAP1 POP SWAP2 SWAP1 POP JUMP JUMPDEST PUSH0 PUSH1 0x20 DUP3 ADD SWAP1 POP DUP2 DUP2 SUB PUSH0 DUP4 ADD MSTORE PUSH2 0x47D4 DUP2 PUSH2 0x479B JUMP JUMPDEST SWAP1 POP SWAP2 SWAP1 POP JUMP JUMPDEST PUSH0 PUSH1 0x60 DUP3 ADD SWAP1 POP PUSH2 0x47EE PUSH0 DUP4 ADD DUP7 PUSH2 0x43D5 JUMP JUMPDEST PUSH2 0x47FB PUSH1 0x20 DUP4 ADD DUP6 PUSH2 0x43D5 JUMP JUMPDEST PUSH2 0x4808 PUSH1 0x40 DUP4 ADD DUP5 PUSH2 0x4051 JUMP JUMPDEST SWAP5 SWAP4 POP POP POP POP JUMP JUMPDEST PUSH2 0x4819 DUP2 PUSH2 0x43E4 JUMP JUMPDEST DUP2 EQ PUSH2 0x4823 JUMPI PUSH0 DUP1 REVERT JUMPDEST POP JUMP JUMPDEST PUSH0 DUP2 MLOAD SWAP1 POP PUSH2 0x4834 DUP2 PUSH2 0x4810 JUMP JUMPDEST SWAP3 SWAP2 POP POP JUMP JUMPDEST PUSH0 PUSH1 0x20 DUP3 DUP5 SUB SLT ISZERO PUSH2 0x484F JUMPI PUSH2 0x484E PUSH2 0x3C82 JUMP JUMPDEST JUMPDEST PUSH0 PUSH2 0x485C DUP5 DUP3 DUP6 ADD PUSH2 0x4826 JUMP JUMPDEST SWAP2 POP POP SWAP3 SWAP2 POP POP JUMP JUMPDEST PUSH32 0x4661696C20746F207472616E6665722066756E64000000000000000000000000 PUSH0 DUP3 ADD MSTORE POP JUMP JUMPDEST PUSH0 PUSH2 0x4899 PUSH1 0x14 DUP4 PUSH2 0x416A JUMP JUMPDEST SWAP2 POP PUSH2 0x48A4 DUP3 PUSH2 0x4865 JUMP JUMPDEST PUSH1 0x20 DUP3 ADD SWAP1 POP SWAP2 SWAP1 POP JUMP JUMPDEST PUSH0 PUSH1 0x20 DUP3 ADD SWAP1 POP DUP2 DUP2 SUB PUSH0 DUP4 ADD MSTORE PUSH2 0x48C6 DUP2 PUSH2 0x488D JUMP JUMPDEST SWAP1 POP SWAP2 SWAP1 POP JUMP JUMPDEST PUSH32 0x4E487B7100000000000000000000000000000000000000000000000000000000 PUSH0 MSTORE PUSH1 0x11 PUSH1 0x4 MSTORE PUSH1 0x24 PUSH0 REVERT JUMPDEST PUSH0 PUSH2 0x4904 DUP3 PUSH2 0x3C8A JUMP JUMPDEST SWAP2 POP PUSH2 0x490F DUP4 PUSH2 0x3C8A JUMP JUMPDEST SWAP3 POP DUP3 DUP3 ADD SWAP1 POP DUP1 DUP3 GT ISZERO PUSH2 0x4927 JUMPI PUSH2 0x4926 PUSH2 0x48CD JUMP JUMPDEST JUMPDEST SWAP3 SWAP2 POP POP JUMP JUMPDEST PUSH0 DUP2 PUSH1 0x1 SHR SWAP1 POP SWAP2 SWAP1 POP JUMP JUMPDEST PUSH0 DUP1 DUP3 SWAP2 POP DUP4 SWAP1 POP JUMPDEST PUSH1 0x1 DUP6 GT ISZERO PUSH2 0x4982 JUMPI DUP1 DUP7 DIV DUP2 GT ISZERO PUSH2 0x495E JUMPI PUSH2 0x495D PUSH2 0x48CD JUMP JUMPDEST JUMPDEST PUSH1 0x1 DUP6 AND ISZERO PUSH2 0x496D JUMPI DUP1 DUP3 MUL SWAP2 POP JUMPDEST DUP1 DUP2 MUL SWAP1 POP PUSH2 0x497B DUP6 PUSH2 0x492D JUMP JUMPDEST SWAP5 POP PUSH2 0x4942 JUMP JUMPDEST SWAP5 POP SWAP5 SWAP3 POP POP POP JUMP JUMPDEST PUSH0 DUP3 PUSH2 0x499A JUMPI PUSH1 0x1 SWAP1 POP PUSH2 0x4A55 JUMP JUMPDEST DUP2 PUSH2 0x49A7 JUMPI PUSH0 SWAP1 POP PUSH2 0x4A55 JUMP JUMPDEST DUP2 PUSH1 0x1 DUP2 EQ PUSH2 0x49BD JUMPI PUSH1 0x2 DUP2 EQ PUSH2 0x49C7 JUMPI PUSH2 0x49F6 JUMP JUMPDEST PUSH1 0x1 SWAP2 POP POP PUSH2 0x4A55 JUMP JUMPDEST PUSH1 0xFF DUP5 GT ISZERO PUSH2 0x49D9 JUMPI PUSH2 0x49D8 PUSH2 0x48CD JUMP JUMPDEST JUMPDEST DUP4 PUSH1 0x2 EXP SWAP2 POP DUP5 DUP3 GT ISZERO PUSH2 0x49F0 JUMPI PUSH2 0x49EF PUSH2 0x48CD JUMP JUMPDEST JUMPDEST POP PUSH2 0x4A55 JUMP JUMPDEST POP PUSH1 0x20 DUP4 LT PUSH2 0x133 DUP4 LT AND PUSH1 0x4E DUP5 LT PUSH1 0xB DUP5 LT AND OR ISZERO PUSH2 0x4A2B JUMPI DUP3 DUP3 EXP SWAP1 POP DUP4 DUP2 GT ISZERO PUSH2 0x4A26 JUMPI PUSH2 0x4A25 PUSH2 0x48CD JUMP JUMPDEST JUMPDEST PUSH2 0x4A55 JUMP JUMPDEST PUSH2 0x4A38 DUP5 DUP5 DUP5 PUSH1 0x1 PUSH2 0x4939 JUMP JUMPDEST SWAP3 POP SWAP1 POP DUP2 DUP5 DIV DUP2 GT ISZERO PUSH2 0x4A4F JUMPI PUSH2 0x4A4E PUSH2 0x48CD JUMP JUMPDEST JUMPDEST DUP2 DUP2 MUL SWAP1 POP JUMPDEST SWAP4 SWAP3 POP POP POP JUMP JUMPDEST PUSH0 PUSH2 0x4A66 DUP3 PUSH2 0x3C8A JUMP JUMPDEST SWAP2 POP PUSH2 0x4A71 DUP4 PUSH2 0x3C8A JUMP JUMPDEST SWAP3 POP PUSH2 0x4A9E PUSH32 0xFFFFFFFFFFFFFFFFFFFFFFFFFFFFFFFFFFFFFFFFFFFFFFFFFFFFFFFFFFFFFFFF DUP5 DUP5 PUSH2 0x498B JUMP JUMPDEST SWAP1 POP SWAP3 SWAP2 POP POP JUMP JUMPDEST PUSH32 0x4E487B7100000000000000000000000000000000000000000000000000000000 PUSH0 MSTORE PUSH1 0x12 PUSH1 0x4 MSTORE PUSH1 0x24 PUSH0 REVERT JUMPDEST PUSH0 PUSH2 0x4ADD DUP3 PUSH2 0x3C8A JUMP JUMPDEST SWAP2 POP PUSH2 0x4AE8 DUP4 PUSH2 0x3C8A JUMP JUMPDEST SWAP3 POP DUP3 PUSH2 0x4AF8 JUMPI PUSH2 0x4AF7 PUSH2 0x4AA6 JUMP JUMPDEST JUMPDEST DUP3 DUP3 DIV SWAP1 POP SWAP3 SWAP2 POP POP JUMP JUMPDEST PUSH0 PUSH2 0x4B0D DUP3 PUSH2 0x3C8A JUMP JUMPDEST SWAP2 POP PUSH2 0x4B18 DUP4 PUSH2 0x3C8A JUMP JUMPDEST SWAP3 POP DUP3 DUP3 SUB SWAP1 POP DUP2 DUP2 GT ISZERO PUSH2 0x4B30 JUMPI PUSH2 0x4B2F PUSH2 0x48CD JUMP JUMPDEST JUMPDEST SWAP3 SWAP2 POP POP JUMP JUMPDEST PUSH0 PUSH1 0x40 DUP3 ADD SWAP1 POP PUSH2 0x4B49 PUSH0 DUP4 ADD DUP6 PUSH2 0x43D5 JUMP JUMPDEST PUSH2 0x4B56 PUSH1 0x20 DUP4 ADD DUP5 PUSH2 0x4051 JUMP JUMPDEST SWAP4 SWAP3 POP POP POP JUMP JUMPDEST PUSH0 PUSH1 0xFF DUP3 AND SWAP1 POP SWAP2 SWAP1 POP JUMP JUMPDEST PUSH0 PUSH2 0x4B73 DUP3 PUSH2 0x4B5D JUMP JUMPDEST SWAP2 POP PUSH2 0x4B7E DUP4 PUSH2 0x4B5D JUMP JUMPDEST SWAP3 POP DUP3 DUP3 SUB SWAP1 POP PUSH1 0xFF DUP2 GT ISZERO PUSH2 0x4B97 JUMPI PUSH2 0x4B96 PUSH2 0x48CD JUMP JUMPDEST JUMPDEST SWAP3 SWAP2 POP POP JUMP JUMPDEST PUSH0 PUSH2 0x4BA7 DUP3 PUSH2 0x3C8A JUMP JUMPDEST SWAP2 POP PUSH2 0x4BB2 DUP4 PUSH2 0x3C8A JUMP JUMPDEST SWAP3 POP DUP3 DUP3 MUL PUSH2 0x4BC0 DUP2 PUSH2 0x3C8A JUMP JUMPDEST SWAP2 POP DUP3 DUP3 DIV DUP5 EQ DUP4 ISZERO OR PUSH2 0x4BD7 JUMPI PUSH2 0x4BD6 PUSH2 0x48CD JUMP JUMPDEST JUMPDEST POP SWAP3 SWAP2 POP POP JUMP INVALID LOG2 PUSH5 0x6970667358 0x22 SLT KECCAK256 0xA6 0xF8 0xF9 DUP16 PUSH29 0x3E36E3F939B45B8F5E181C1FD99FC12ACA1B34CBB48295BFF9F0846473 PUSH16 0x6C634300081800330000000000000000 "
		},
		"gasEstimates": {
			"creation": {
				"codeDepositCost": "3895200",
				"executionCost": "4427",
				"totalCost": "3899627"
			},
			"external": {
				"": "174",
				"addLiquidity(uint256,uint256,string)": "infinite",
				"addLiquidityForNativeCurrency(uint256,string)": "infinite",
				"delistAsset(string)": "infinite",
				"getBaseEx(uint256,string)": "infinite",
				"getNativeCurrencyWitthToken(uint256,string)": "infinite",
				"getSystemTotalSwap(string)": "infinite",
				"getTokenEx(uint256,string)": "infinite",
				"getTokenExWithNativeToken(string)": "infinite",
				"getUserTotalSwap(address,string)": "infinite",
				"listAssetEx(string,address,address)": "infinite",
				"listAssetExForNativeCurrency(string,address)": "infinite",
				"removeLiquidity(string)": "infinite",
				"removeLiquidityForNativeCurrency(string)": "infinite",
				"setFee(uint256)": "24850"
			},
			"internal": {
				"_bOf(address,address)": "infinite",
				"_getAmountEx(uint256,uint256,bool)": "infinite",
				"_msgSender()": "21",
				"_tFrom(address,uint256,address)": "infinite",
				"_tr(uint256,address,address)": "infinite",
				"_upper(bytes1)": "infinite",
				"getLP(uint256,uint256)": "infinite",
				"upper(string memory)": "infinite"
			}
		},
		"methodIdentifiers": {
			"addLiquidity(uint256,uint256,string)": "6330112f",
			"addLiquidityForNativeCurrency(uint256,string)": "f2dc71e7",
			"delistAsset(string)": "0f56add4",
			"getBaseEx(uint256,string)": "31a77a13",
			"getNativeCurrencyWitthToken(uint256,string)": "ce17ff3c",
			"getSystemTotalSwap(string)": "b8355d99",
			"getTokenEx(uint256,string)": "0565789b",
			"getTokenExWithNativeToken(string)": "3be15cf8",
			"getUserTotalSwap(address,string)": "c540a80c",
			"listAssetEx(string,address,address)": "342d2555",
			"listAssetExForNativeCurrency(string,address)": "5aa58817",
			"removeLiquidity(string)": "2c22551a",
			"removeLiquidityForNativeCurrency(string)": "b96ddd42",
			"setFee(uint256)": "69fe0e2d"
		}
	},
	"abi": [
		{
			"anonymous": false,
			"inputs": [
				{
					"indexed": false,
					"internalType": "string",
					"name": "_ticker",
					"type": "string"
				},
				{
					"indexed": false,
					"internalType": "address",
					"name": "_token_address",
					"type": "address"
				},
				{
					"indexed": false,
					"internalType": "address",
					"name": "_base_address",
					"type": "address"
				},
				{
					"indexed": false,
					"internalType": "address",
					"name": "_creator",
					"type": "address"
				},
				{
					"indexed": false,
					"internalType": "uint256",
					"name": "_time",
					"type": "uint256"
				}
			],
			"name": "NewAsset",
			"type": "event"
		},
		{
			"anonymous": false,
			"inputs": [
				{
					"indexed": false,
					"internalType": "address",
					"name": "user",
					"type": "address"
				},
				{
					"indexed": false,
					"internalType": "uint256",
					"name": "_amountGive",
					"type": "uint256"
				},
				{
					"indexed": false,
					"internalType": "uint256",
					"name": "_amountGet",
					"type": "uint256"
				},
				{
					"indexed": false,
					"internalType": "bool",
					"name": "isBase",
					"type": "bool"
				},
				{
					"indexed": false,
					"internalType": "uint256",
					"name": "time",
					"type": "uint256"
				},
				{
					"indexed": false,
					"internalType": "uint256",
					"name": "fee",
					"type": "uint256"
				},
				{
					"indexed": false,
					"internalType": "string",
					"name": "ticker",
					"type": "string"
				}
			],
			"name": "Swaped",
			"type": "event"
		},
		{
			"anonymous": false,
			"inputs": [
				{
					"indexed": false,
					"internalType": "address",
					"name": "user",
					"type": "address"
				},
				{
					"indexed": false,
					"internalType": "uint256",
					"name": "_baseAmount",
					"type": "uint256"
				},
				{
					"indexed": false,
					"internalType": "uint256",
					"name": "_tokenAmount",
					"type": "uint256"
				},
				{
					"indexed": false,
					"internalType": "string",
					"name": "_ticker",
					"type": "string"
				},
				{
					"indexed": false,
					"internalType": "uint256",
					"name": "time",
					"type": "uint256"
				}
			],
			"name": "liquidityAdded",
			"type": "event"
		},
		{
			"anonymous": false,
			"inputs": [
				{
					"indexed": false,
					"internalType": "address",
					"name": "user",
					"type": "address"
				},
				{
					"indexed": false,
					"internalType": "uint256",
					"name": "_baseAmount",
					"type": "uint256"
				},
				{
					"indexed": false,
					"internalType": "uint256",
					"name": "_tokenAmount",
					"type": "uint256"
				},
				{
					"indexed": false,
					"internalType": "string",
					"name": "_ticker",
					"type": "string"
				},
				{
					"indexed": false,
					"internalType": "uint256",
					"name": "time",
					"type": "uint256"
				}
			],
			"name": "liquidityRemoved",
			"type": "event"
		},
		{
			"stateMutability": "payable",
			"type": "fallback"
		},
		{
			"inputs": [
				{
					"internalType": "uint256",
					"name": "_baseInamount",
					"type": "uint256"
				},
				{
					"internalType": "uint256",
					"name": "_tokenInamount",
					"type": "uint256"
				},
				{
					"internalType": "string",
					"name": "_ticker",
					"type": "string"
				}
			],
			"name": "addLiquidity",
			"outputs": [],
			"stateMutability": "nonpayable",
			"type": "function"
		},
		{
			"inputs": [
				{
					"internalType": "uint256",
					"name": "_tokenInamount",
					"type": "uint256"
				},
				{
					"internalType": "string",
					"name": "_ticker",
					"type": "string"
				}
			],
			"name": "addLiquidityForNativeCurrency",
			"outputs": [],
			"stateMutability": "payable",
			"type": "function"
		},
		{
			"inputs": [
				{
					"internalType": "string",
					"name": "_ticker",
					"type": "string"
				}
			],
			"name": "delistAsset",
			"outputs": [],
			"stateMutability": "nonpayable",
			"type": "function"
		},
		{
			"inputs": [
				{
					"internalType": "uint256",
					"name": "_amount",
					"type": "uint256"
				},
				{
					"internalType": "string",
					"name": "_ticker",
					"type": "string"
				}
			],
			"name": "getBaseEx",
			"outputs": [],
			"stateMutability": "nonpayable",
			"type": "function"
		},
		{
			"inputs": [
				{
					"internalType": "uint256",
					"name": "_amount",
					"type": "uint256"
				},
				{
					"internalType": "string",
					"name": "_ticker",
					"type": "string"
				}
			],
			"name": "getNativeCurrencyWitthToken",
			"outputs": [],
			"stateMutability": "nonpayable",
			"type": "function"
		},
		{
			"inputs": [
				{
					"internalType": "string",
					"name": "_ticker",
					"type": "string"
				}
			],
			"name": "getSystemTotalSwap",
			"outputs": [
				{
					"internalType": "uint256",
					"name": "_base",
					"type": "uint256"
				},
				{
					"internalType": "uint256",
					"name": "_token",
					"type": "uint256"
				},
				{
					"internalType": "uint256",
					"name": "_base_fee",
					"type": "uint256"
				},
				{
					"internalType": "uint256",
					"name": "_token_fee",
					"type": "uint256"
				},
				{
					"internalType": "uint256",
					"name": "_currentFee",
					"type": "uint256"
				}
			],
			"stateMutability": "view",
			"type": "function"
		},
		{
			"inputs": [
				{
					"internalType": "uint256",
					"name": "_amount",
					"type": "uint256"
				},
				{
					"internalType": "string",
					"name": "_ticker",
					"type": "string"
				}
			],
			"name": "getTokenEx",
			"outputs": [],
			"stateMutability": "nonpayable",
			"type": "function"
		},
		{
			"inputs": [
				{
					"internalType": "string",
					"name": "_ticker",
					"type": "string"
				}
			],
			"name": "getTokenExWithNativeToken",
			"outputs": [],
			"stateMutability": "payable",
			"type": "function"
		},
		{
			"inputs": [
				{
					"internalType": "address",
					"name": "_user",
					"type": "address"
				},
				{
					"internalType": "string",
					"name": "_ticker",
					"type": "string"
				}
			],
			"name": "getUserTotalSwap",
			"outputs": [
				{
					"internalType": "uint256",
					"name": "_base",
					"type": "uint256"
				},
				{
					"internalType": "uint256",
					"name": "_token",
					"type": "uint256"
				},
				{
					"internalType": "uint256",
					"name": "_baseLp",
					"type": "uint256"
				},
				{
					"internalType": "uint256",
					"name": "_tokenLp",
					"type": "uint256"
				},
				{
					"internalType": "uint256",
					"name": "_userBaseLp",
					"type": "uint256"
				},
				{
					"internalType": "uint256",
					"name": "_userTokenLp",
					"type": "uint256"
				}
			],
			"stateMutability": "view",
			"type": "function"
		},
		{
			"inputs": [
				{
					"internalType": "string",
					"name": "_ticker",
					"type": "string"
				},
				{
					"internalType": "address",
					"name": "_token_address",
					"type": "address"
				},
				{
					"internalType": "address",
					"name": "_base_address",
					"type": "address"
				}
			],
			"name": "listAssetEx",
			"outputs": [],
			"stateMutability": "nonpayable",
			"type": "function"
		},
		{
			"inputs": [
				{
					"internalType": "string",
					"name": "_ticker",
					"type": "string"
				},
				{
					"internalType": "address",
					"name": "_token_address",
					"type": "address"
				}
			],
			"name": "listAssetExForNativeCurrency",
			"outputs": [],
			"stateMutability": "nonpayable",
			"type": "function"
		},
		{
			"inputs": [
				{
					"internalType": "string",
					"name": "_ticker",
					"type": "string"
				}
			],
			"name": "removeLiquidity",
			"outputs": [],
			"stateMutability": "nonpayable",
			"type": "function"
		},
		{
			"inputs": [
				{
					"internalType": "string",
					"name": "_ticker",
					"type": "string"
				}
			],
			"name": "removeLiquidityForNativeCurrency",
			"outputs": [],
			"stateMutability": "nonpayable",
			"type": "function"
		},
		{
			"inputs": [
				{
					"internalType": "uint256",
					"name": "_fee",
					"type": "uint256"
				}
			],
			"name": "setFee",
			"outputs": [],
			"stateMutability": "nonpayable",
			"type": "function"
		},
		{
			"stateMutability": "payable",
			"type": "receive"
		}
	]
}