{
	"data": {
		"bytecode": {
			"linkReferences": {},
			"object": "608060405234801561000f575f80fd5b5061199b8061001d5f395ff3fe608060405234801561000f575f80fd5b506004361061009c575f3560e01c806394a72f1c1161006457806394a72f1c14610140578063b2312c2f14610170578063b55bfc6f1461018c578063fc3a49e0146101a8578063fe2c6198146101c75761009c565b8063267561c8146100a05780635c60896d146100bc578063658bdb2e146100d8578063734bc65914610108578063832427da14610124575b5f80fd5b6100ba60048036038101906100b59190610dae565b6101f7565b005b6100d660048036038101906100d19190610e4f565b6102fb565b005b6100f260048036038101906100ed9190610e4f565b610404565b6040516100ff9190610e94565b60405180910390f35b610122600480360381019061011d9190610f5f565b610458565b005b61013e60048036038101906101399190610dae565b6106da565b005b61015a60048036038101906101559190610dae565b6107de565b6040516101679190611057565b60405180910390f35b61018a60048036038101906101859190610dae565b6107f0565b005b6101a660048036038101906101a19190610e4f565b6108f4565b005b6101b06109fe565b6040516101be92919061108f565b60405180910390f35b6101e160048036038101906101dc9190610dae565b610a4e565b6040516101ee91906110b6565b60405180910390f35b6101ff610af0565b73ffffffffffffffffffffffffffffffffffffffff163373ffffffffffffffffffffffffffffffffffffffff161461026c576040517f08c379a00000000000000000000000000000000000000000000000000000000081526004016102639061114f565b60405180910390fd5b3073ffffffffffffffffffffffffffffffffffffffff166394a72f1c826040518263ffffffff1660e01b81526004016102a591906111af565b5f60405180830381865afa1580156102bf573d5f803e3d5ffd5b505050506040513d5f823e3d601f19601f820116820180604052508101906102e7919061126d565b5f603d0190816102f791906114ae565b5050565b610303610af0565b73ffffffffffffffffffffffffffffffffffffffff163373ffffffffffffffffffffffffffffffffffffffff1614610370576040517f08c379a00000000000000000000000000000000000000000000000000000000081526004016103679061114f565b60405180910390fd5b5f806001015f8373ffffffffffffffffffffffffffffffffffffffff1673ffffffffffffffffffffffffffffffffffffffff1681526020019081526020015f205f6101000a81548160ff0219169083151502179055507fb3d5aa2917b85a4687df1a925388b77def36a6b799246cdd492b4fd402c6be7b8133426040516103f99392919061158c565b60405180910390a150565b5f806001015f8373ffffffffffffffffffffffffffffffffffffffff1673ffffffffffffffffffffffffffffffffffffffff1681526020019081526020015f205f9054906101000a900460ff169050919050565b5f6001015f3373ffffffffffffffffffffffffffffffffffffffff1673ffffffffffffffffffffffffffffffffffffffff1681526020019081526020015f205f9054906101000a900460ff166104e3576040517f08c379a00000000000000000000000000000000000000000000000000000000081526004016104da90611631565b60405180910390fd5b81819050848490501461052b576040517f08c379a0000000000000000000000000000000000000000000000000000000008152600401610522906116bf565b60405180910390fd5b5f5b8484905081101561069c5784848281811061054b5761054a6116dd565b5b905060200201355f80013073ffffffffffffffffffffffffffffffffffffffff166394a72f1c868686818110610584576105836116dd565b5b90506020028101906105969190611716565b6040518363ffffffff1660e01b81526004016105b39291906117a4565b5f60405180830381865afa1580156105cd573d5f803e3d5ffd5b505050506040513d5f823e3d601f19601f820116820180604052508101906105f5919061126d565b6040516106029190611800565b9081526020016040518091039020819055507f89186bbd353809bcc0aa77843d6ea72e488b7fd552bfe5afb4006dc6cd6fe6a3838383818110610648576106476116dd565b5b905060200281019061065a9190611716565b87878581811061066d5761066c6116dd565b5b905060200201353342604051610687959493929190611816565b60405180910390a1808060010191505061052d565b507fbad13593cf14db38c871d023e850302b404aef491d5e3f41ab7aebaafab6ecda426040516106cc91906110b6565b60405180910390a150505050565b6106e2610af0565b73ffffffffffffffffffffffffffffffffffffffff163373ffffffffffffffffffffffffffffffffffffffff161461074f576040517f08c379a00000000000000000000000000000000000000000000000000000000081526004016107469061114f565b60405180910390fd5b3073ffffffffffffffffffffffffffffffffffffffff166394a72f1c826040518263ffffffff1660e01b815260040161078891906111af565b5f60405180830381865afa1580156107a2573d5f803e3d5ffd5b505050506040513d5f823e3d601f19601f820116820180604052508101906107ca919061126d565b5f60060190816107da91906114ae565b5050565b60606107e982610b21565b9050919050565b6107f8610af0565b73ffffffffffffffffffffffffffffffffffffffff163373ffffffffffffffffffffffffffffffffffffffff1614610865576040517f08c379a000000000000000000000000000000000000000000000000000000000815260040161085c9061114f565b60405180910390fd5b3073ffffffffffffffffffffffffffffffffffffffff166394a72f1c826040518263ffffffff1660e01b815260040161089e91906111af565b5f60405180830381865afa1580156108b8573d5f803e3d5ffd5b505050506040513d5f823e3d601f19601f820116820180604052508101906108e0919061126d565b5f60590190816108f091906114ae565b5050565b6108fc610af0565b73ffffffffffffffffffffffffffffffffffffffff163373ffffffffffffffffffffffffffffffffffffffff1614610969576040517f08c379a00000000000000000000000000000000000000000000000000000000081526004016109609061114f565b60405180910390fd5b60015f6001015f8373ffffffffffffffffffffffffffffffffffffffff1673ffffffffffffffffffffffffffffffffffffffff1681526020019081526020015f205f6101000a81548160ff0219169083151502179055507f9f47004a8a67ae0ede102ae657402045a03474bf00cf7e14f62cdbdc5af9c5478133426040516109f39392919061158c565b60405180910390a150565b5f805f80015f603d01604051610a1491906118e2565b9081526020016040518091039020545f80015f600601604051610a3791906118e2565b908152602001604051809103902054915091509091565b5f805f013073ffffffffffffffffffffffffffffffffffffffff166394a72f1c846040518263ffffffff1660e01b8152600401610a8b91906111af565b5f60405180830381865afa158015610aa5573d5f803e3d5ffd5b505050506040513d5f823e3d601f19601f82011682018060405250810190610acd919061126d565b604051610ada9190611800565b9081526020016040518091039020549050919050565b5f610af9610bb0565b6003015f9054906101000a900473ffffffffffffffffffffffffffffffffffffffff16905090565b60605f8290505f5b8151811015610ba657610b58828281518110610b4857610b476116dd565b5b602001015160f81c60f81b610bdc565b828281518110610b6b57610b6a6116dd565b5b60200101907effffffffffffffffffffffffffffffffffffffffffffffffffffffffffffff191690815f1a9053508080600101915050610b29565b5080915050919050565b5f807fc8fcad8db84d3cc18b4c41d551ea0ee66dd599cde068d998e57d5e09332c131c90508091505090565b5f606160f81b827effffffffffffffffffffffffffffffffffffffffffffffffffffffffffffff191610158015610c395750607a60f81b827effffffffffffffffffffffffffffffffffffffffffffffffffffffffffffff191611155b15610c585760208260f81c610c4e9190611931565b60f81b9050610c5c565b8190505b919050565b5f604051905090565b5f80fd5b5f80fd5b5f80fd5b5f80fd5b5f601f19601f8301169050919050565b7f4e487b71000000000000000000000000000000000000000000000000000000005f52604160045260245ffd5b610cc082610c7a565b810181811067ffffffffffffffff82111715610cdf57610cde610c8a565b5b80604052505050565b5f610cf1610c61565b9050610cfd8282610cb7565b919050565b5f67ffffffffffffffff821115610d1c57610d1b610c8a565b5b610d2582610c7a565b9050602081019050919050565b828183375f83830152505050565b5f610d52610d4d84610d02565b610ce8565b905082815260208101848484011115610d6e57610d6d610c76565b5b610d79848285610d32565b509392505050565b5f82601f830112610d9557610d94610c72565b5b8135610da5848260208601610d40565b91505092915050565b5f60208284031215610dc357610dc2610c6a565b5b5f82013567ffffffffffffffff811115610de057610ddf610c6e565b5b610dec84828501610d81565b91505092915050565b5f73ffffffffffffffffffffffffffffffffffffffff82169050919050565b5f610e1e82610df5565b9050919050565b610e2e81610e14565b8114610e38575f80fd5b50565b5f81359050610e4981610e25565b92915050565b5f60208284031215610e6457610e63610c6a565b5b5f610e7184828501610e3b565b91505092915050565b5f8115159050919050565b610e8e81610e7a565b82525050565b5f602082019050610ea75f830184610e85565b92915050565b5f80fd5b5f80fd5b5f8083601f840112610eca57610ec9610c72565b5b8235905067ffffffffffffffff811115610ee757610ee6610ead565b5b602083019150836020820283011115610f0357610f02610eb1565b5b9250929050565b5f8083601f840112610f1f57610f1e610c72565b5b8235905067ffffffffffffffff811115610f3c57610f3b610ead565b5b602083019150836020820283011115610f5857610f57610eb1565b5b9250929050565b5f805f8060408587031215610f7757610f76610c6a565b5b5f85013567ffffffffffffffff811115610f9457610f93610c6e565b5b610fa087828801610eb5565b9450945050602085013567ffffffffffffffff811115610fc357610fc2610c6e565b5b610fcf87828801610f0a565b925092505092959194509250565b5f81519050919050565b5f82825260208201905092915050565b5f5b83811015611014578082015181840152602081019050610ff9565b5f8484015250505050565b5f61102982610fdd565b6110338185610fe7565b9350611043818560208601610ff7565b61104c81610c7a565b840191505092915050565b5f6020820190508181035f83015261106f818461101f565b905092915050565b5f819050919050565b61108981611077565b82525050565b5f6040820190506110a25f830185611080565b6110af6020830184611080565b9392505050565b5f6020820190506110c95f830184611080565b92915050565b5f82825260208201905092915050565b7f4163636573732064656e6965642c204f6e6c79206f776e657220697320616c6c5f8201527f6f77656421000000000000000000000000000000000000000000000000000000602082015250565b5f6111396025836110cf565b9150611144826110df565b604082019050919050565b5f6020820190508181035f8301526111668161112d565b9050919050565b5f81519050919050565b5f6111818261116d565b61118b81856110cf565b935061119b818560208601610ff7565b6111a481610c7a565b840191505092915050565b5f6020820190508181035f8301526111c78184611177565b905092915050565b5f67ffffffffffffffff8211156111e9576111e8610c8a565b5b6111f282610c7a565b9050602081019050919050565b5f61121161120c846111cf565b610ce8565b90508281526020810184848401111561122d5761122c610c76565b5b611238848285610ff7565b509392505050565b5f82601f83011261125457611253610c72565b5b81516112648482602086016111ff565b91505092915050565b5f6020828403121561128257611281610c6a565b5b5f82015167ffffffffffffffff81111561129f5761129e610c6e565b5b6112ab84828501611240565b91505092915050565b7f4e487b71000000000000000000000000000000000000000000000000000000005f52602260045260245ffd5b5f60028204905060018216806112f857607f821691505b60208210810361130b5761130a6112b4565b5b50919050565b5f819050815f5260205f209050919050565b5f6020601f8301049050919050565b5f82821b905092915050565b5f6008830261136d7fffffffffffffffffffffffffffffffffffffffffffffffffffffffffffffffff82611332565b6113778683611332565b95508019841693508086168417925050509392505050565b5f819050919050565b5f6113b26113ad6113a884611077565b61138f565b611077565b9050919050565b5f819050919050565b6113cb83611398565b6113df6113d7826113b9565b84845461133e565b825550505050565b5f90565b6113f36113e7565b6113fe8184846113c2565b505050565b5b81811015611421576114165f826113eb565b600181019050611404565b5050565b601f8211156114665761143781611311565b61144084611323565b8101602085101561144f578190505b61146361145b85611323565b830182611403565b50505b505050565b5f82821c905092915050565b5f6114865f198460080261146b565b1980831691505092915050565b5f61149e8383611477565b9150826002028217905092915050565b6114b782610fdd565b67ffffffffffffffff8111156114d0576114cf610c8a565b5b6114da82546112e1565b6114e5828285611425565b5f60209050601f831160018114611516575f8415611504578287015190505b61150e8582611493565b865550611575565b601f19841661152486611311565b5f5b8281101561154b57848901518255600182019150602085019450602081019050611526565b868310156115685784890151611564601f891682611477565b8355505b6001600288020188555050505b505050505050565b61158681610e14565b82525050565b5f60608201905061159f5f83018661157d565b6115ac602083018561157d565b6115b96040830184611080565b949350505050565b7f4163636573732064656e6965642e204f6e6c792050797468696120697320616c5f8201527f6c6f776564210000000000000000000000000000000000000000000000000000602082015250565b5f61161b6026836110cf565b9150611626826115c1565b604082019050919050565b5f6020820190508181035f8301526116488161160f565b9050919050565b7f50726963657320616e64207469636b657273206d757374206265206f662065715f8201527f75616c206c656e67746800000000000000000000000000000000000000000000602082015250565b5f6116a9602a836110cf565b91506116b48261164f565b604082019050919050565b5f6020820190508181035f8301526116d68161169d565b9050919050565b7f4e487b71000000000000000000000000000000000000000000000000000000005f52603260045260245ffd5b5f80fd5b5f80fd5b5f80fd5b5f80833560016020038436030381126117325761173161170a565b5b80840192508235915067ffffffffffffffff8211156117545761175361170e565b5b6020830192506001820236038313156117705761176f611712565b5b509250929050565b5f61178383856110cf565b9350611790838584610d32565b61179983610c7a565b840190509392505050565b5f6020820190508181035f8301526117bd818486611778565b90509392505050565b5f81905092915050565b5f6117da82610fdd565b6117e481856117c6565b93506117f4818560208601610ff7565b80840191505092915050565b5f61180b82846117d0565b915081905092915050565b5f6080820190508181035f83015261182f818789611778565b905061183e6020830186611080565b61184b604083018561157d565b6118586060830184611080565b9695505050505050565b5f815461186e816112e1565b61187881866117c6565b9450600182165f811461189257600181146118a7576118d9565b60ff19831686528115158202860193506118d9565b6118b085611311565b5f5b838110156118d1578154818901526001820191506020810190506118b2565b838801955050505b50505092915050565b5f6118ed8284611862565b915081905092915050565b5f60ff82169050919050565b7f4e487b71000000000000000000000000000000000000000000000000000000005f52601160045260245ffd5b5f61193b826118f8565b9150611946836118f8565b9250828203905060ff81111561195f5761195e611904565b5b9291505056fea2646970667358221220b984ab3b3fd2305b1d56e7e1af165ec8e43caad6dbd3eaacdba87481a91d181164736f6c63430008160033",
			"opcodes": "PUSH1 0x80 PUSH1 0x40 MSTORE CALLVALUE DUP1 ISZERO PUSH2 0xF JUMPI PUSH0 DUP1 REVERT JUMPDEST POP PUSH2 0x199B DUP1 PUSH2 0x1D PUSH0 CODECOPY PUSH0 RETURN INVALID PUSH1 0x80 PUSH1 0x40 MSTORE CALLVALUE DUP1 ISZERO PUSH2 0xF JUMPI PUSH0 DUP1 REVERT JUMPDEST POP PUSH1 0x4 CALLDATASIZE LT PUSH2 0x9C JUMPI PUSH0 CALLDATALOAD PUSH1 0xE0 SHR DUP1 PUSH4 0x94A72F1C GT PUSH2 0x64 JUMPI DUP1 PUSH4 0x94A72F1C EQ PUSH2 0x140 JUMPI DUP1 PUSH4 0xB2312C2F EQ PUSH2 0x170 JUMPI DUP1 PUSH4 0xB55BFC6F EQ PUSH2 0x18C JUMPI DUP1 PUSH4 0xFC3A49E0 EQ PUSH2 0x1A8 JUMPI DUP1 PUSH4 0xFE2C6198 EQ PUSH2 0x1C7 JUMPI PUSH2 0x9C JUMP JUMPDEST DUP1 PUSH4 0x267561C8 EQ PUSH2 0xA0 JUMPI DUP1 PUSH4 0x5C60896D EQ PUSH2 0xBC JUMPI DUP1 PUSH4 0x658BDB2E EQ PUSH2 0xD8 JUMPI DUP1 PUSH4 0x734BC659 EQ PUSH2 0x108 JUMPI DUP1 PUSH4 0x832427DA EQ PUSH2 0x124 JUMPI JUMPDEST PUSH0 DUP1 REVERT JUMPDEST PUSH2 0xBA PUSH1 0x4 DUP1 CALLDATASIZE SUB DUP2 ADD SWAP1 PUSH2 0xB5 SWAP2 SWAP1 PUSH2 0xDAE JUMP JUMPDEST PUSH2 0x1F7 JUMP JUMPDEST STOP JUMPDEST PUSH2 0xD6 PUSH1 0x4 DUP1 CALLDATASIZE SUB DUP2 ADD SWAP1 PUSH2 0xD1 SWAP2 SWAP1 PUSH2 0xE4F JUMP JUMPDEST PUSH2 0x2FB JUMP JUMPDEST STOP JUMPDEST PUSH2 0xF2 PUSH1 0x4 DUP1 CALLDATASIZE SUB DUP2 ADD SWAP1 PUSH2 0xED SWAP2 SWAP1 PUSH2 0xE4F JUMP JUMPDEST PUSH2 0x404 JUMP JUMPDEST PUSH1 0x40 MLOAD PUSH2 0xFF SWAP2 SWAP1 PUSH2 0xE94 JUMP JUMPDEST PUSH1 0x40 MLOAD DUP1 SWAP2 SUB SWAP1 RETURN JUMPDEST PUSH2 0x122 PUSH1 0x4 DUP1 CALLDATASIZE SUB DUP2 ADD SWAP1 PUSH2 0x11D SWAP2 SWAP1 PUSH2 0xF5F JUMP JUMPDEST PUSH2 0x458 JUMP JUMPDEST STOP JUMPDEST PUSH2 0x13E PUSH1 0x4 DUP1 CALLDATASIZE SUB DUP2 ADD SWAP1 PUSH2 0x139 SWAP2 SWAP1 PUSH2 0xDAE JUMP JUMPDEST PUSH2 0x6DA JUMP JUMPDEST STOP JUMPDEST PUSH2 0x15A PUSH1 0x4 DUP1 CALLDATASIZE SUB DUP2 ADD SWAP1 PUSH2 0x155 SWAP2 SWAP1 PUSH2 0xDAE JUMP JUMPDEST PUSH2 0x7DE JUMP JUMPDEST PUSH1 0x40 MLOAD PUSH2 0x167 SWAP2 SWAP1 PUSH2 0x1057 JUMP JUMPDEST PUSH1 0x40 MLOAD DUP1 SWAP2 SUB SWAP1 RETURN JUMPDEST PUSH2 0x18A PUSH1 0x4 DUP1 CALLDATASIZE SUB DUP2 ADD SWAP1 PUSH2 0x185 SWAP2 SWAP1 PUSH2 0xDAE JUMP JUMPDEST PUSH2 0x7F0 JUMP JUMPDEST STOP JUMPDEST PUSH2 0x1A6 PUSH1 0x4 DUP1 CALLDATASIZE SUB DUP2 ADD SWAP1 PUSH2 0x1A1 SWAP2 SWAP1 PUSH2 0xE4F JUMP JUMPDEST PUSH2 0x8F4 JUMP JUMPDEST STOP JUMPDEST PUSH2 0x1B0 PUSH2 0x9FE JUMP JUMPDEST PUSH1 0x40 MLOAD PUSH2 0x1BE SWAP3 SWAP2 SWAP1 PUSH2 0x108F JUMP JUMPDEST PUSH1 0x40 MLOAD DUP1 SWAP2 SUB SWAP1 RETURN JUMPDEST PUSH2 0x1E1 PUSH1 0x4 DUP1 CALLDATASIZE SUB DUP2 ADD SWAP1 PUSH2 0x1DC SWAP2 SWAP1 PUSH2 0xDAE JUMP JUMPDEST PUSH2 0xA4E JUMP JUMPDEST PUSH1 0x40 MLOAD PUSH2 0x1EE SWAP2 SWAP1 PUSH2 0x10B6 JUMP JUMPDEST PUSH1 0x40 MLOAD DUP1 SWAP2 SUB SWAP1 RETURN JUMPDEST PUSH2 0x1FF PUSH2 0xAF0 JUMP JUMPDEST PUSH20 0xFFFFFFFFFFFFFFFFFFFFFFFFFFFFFFFFFFFFFFFF AND CALLER PUSH20 0xFFFFFFFFFFFFFFFFFFFFFFFFFFFFFFFFFFFFFFFF AND EQ PUSH2 0x26C JUMPI PUSH1 0x40 MLOAD PUSH32 0x8C379A000000000000000000000000000000000000000000000000000000000 DUP2 MSTORE PUSH1 0x4 ADD PUSH2 0x263 SWAP1 PUSH2 0x114F JUMP JUMPDEST PUSH1 0x40 MLOAD DUP1 SWAP2 SUB SWAP1 REVERT JUMPDEST ADDRESS PUSH20 0xFFFFFFFFFFFFFFFFFFFFFFFFFFFFFFFFFFFFFFFF AND PUSH4 0x94A72F1C DUP3 PUSH1 0x40 MLOAD DUP3 PUSH4 0xFFFFFFFF AND PUSH1 0xE0 SHL DUP2 MSTORE PUSH1 0x4 ADD PUSH2 0x2A5 SWAP2 SWAP1 PUSH2 0x11AF JUMP JUMPDEST PUSH0 PUSH1 0x40 MLOAD DUP1 DUP4 SUB DUP2 DUP7 GAS STATICCALL ISZERO DUP1 ISZERO PUSH2 0x2BF JUMPI RETURNDATASIZE PUSH0 DUP1 RETURNDATACOPY RETURNDATASIZE PUSH0 REVERT JUMPDEST POP POP POP POP PUSH1 0x40 MLOAD RETURNDATASIZE PUSH0 DUP3 RETURNDATACOPY RETURNDATASIZE PUSH1 0x1F NOT PUSH1 0x1F DUP3 ADD AND DUP3 ADD DUP1 PUSH1 0x40 MSTORE POP DUP2 ADD SWAP1 PUSH2 0x2E7 SWAP2 SWAP1 PUSH2 0x126D JUMP JUMPDEST PUSH0 PUSH1 0x3D ADD SWAP1 DUP2 PUSH2 0x2F7 SWAP2 SWAP1 PUSH2 0x14AE JUMP JUMPDEST POP POP JUMP JUMPDEST PUSH2 0x303 PUSH2 0xAF0 JUMP JUMPDEST PUSH20 0xFFFFFFFFFFFFFFFFFFFFFFFFFFFFFFFFFFFFFFFF AND CALLER PUSH20 0xFFFFFFFFFFFFFFFFFFFFFFFFFFFFFFFFFFFFFFFF AND EQ PUSH2 0x370 JUMPI PUSH1 0x40 MLOAD PUSH32 0x8C379A000000000000000000000000000000000000000000000000000000000 DUP2 MSTORE PUSH1 0x4 ADD PUSH2 0x367 SWAP1 PUSH2 0x114F JUMP JUMPDEST PUSH1 0x40 MLOAD DUP1 SWAP2 SUB SWAP1 REVERT JUMPDEST PUSH0 DUP1 PUSH1 0x1 ADD PUSH0 DUP4 PUSH20 0xFFFFFFFFFFFFFFFFFFFFFFFFFFFFFFFFFFFFFFFF AND PUSH20 0xFFFFFFFFFFFFFFFFFFFFFFFFFFFFFFFFFFFFFFFF AND DUP2 MSTORE PUSH1 0x20 ADD SWAP1 DUP2 MSTORE PUSH1 0x20 ADD PUSH0 KECCAK256 PUSH0 PUSH2 0x100 EXP DUP2 SLOAD DUP2 PUSH1 0xFF MUL NOT AND SWAP1 DUP4 ISZERO ISZERO MUL OR SWAP1 SSTORE POP PUSH32 0xB3D5AA2917B85A4687DF1A925388B77DEF36A6B799246CDD492B4FD402C6BE7B DUP2 CALLER TIMESTAMP PUSH1 0x40 MLOAD PUSH2 0x3F9 SWAP4 SWAP3 SWAP2 SWAP1 PUSH2 0x158C JUMP JUMPDEST PUSH1 0x40 MLOAD DUP1 SWAP2 SUB SWAP1 LOG1 POP JUMP JUMPDEST PUSH0 DUP1 PUSH1 0x1 ADD PUSH0 DUP4 PUSH20 0xFFFFFFFFFFFFFFFFFFFFFFFFFFFFFFFFFFFFFFFF AND PUSH20 0xFFFFFFFFFFFFFFFFFFFFFFFFFFFFFFFFFFFFFFFF AND DUP2 MSTORE PUSH1 0x20 ADD SWAP1 DUP2 MSTORE PUSH1 0x20 ADD PUSH0 KECCAK256 PUSH0 SWAP1 SLOAD SWAP1 PUSH2 0x100 EXP SWAP1 DIV PUSH1 0xFF AND SWAP1 POP SWAP2 SWAP1 POP JUMP JUMPDEST PUSH0 PUSH1 0x1 ADD PUSH0 CALLER PUSH20 0xFFFFFFFFFFFFFFFFFFFFFFFFFFFFFFFFFFFFFFFF AND PUSH20 0xFFFFFFFFFFFFFFFFFFFFFFFFFFFFFFFFFFFFFFFF AND DUP2 MSTORE PUSH1 0x20 ADD SWAP1 DUP2 MSTORE PUSH1 0x20 ADD PUSH0 KECCAK256 PUSH0 SWAP1 SLOAD SWAP1 PUSH2 0x100 EXP SWAP1 DIV PUSH1 0xFF AND PUSH2 0x4E3 JUMPI PUSH1 0x40 MLOAD PUSH32 0x8C379A000000000000000000000000000000000000000000000000000000000 DUP2 MSTORE PUSH1 0x4 ADD PUSH2 0x4DA SWAP1 PUSH2 0x1631 JUMP JUMPDEST PUSH1 0x40 MLOAD DUP1 SWAP2 SUB SWAP1 REVERT JUMPDEST DUP2 DUP2 SWAP1 POP DUP5 DUP5 SWAP1 POP EQ PUSH2 0x52B JUMPI PUSH1 0x40 MLOAD PUSH32 0x8C379A000000000000000000000000000000000000000000000000000000000 DUP2 MSTORE PUSH1 0x4 ADD PUSH2 0x522 SWAP1 PUSH2 0x16BF JUMP JUMPDEST PUSH1 0x40 MLOAD DUP1 SWAP2 SUB SWAP1 REVERT JUMPDEST PUSH0 JUMPDEST DUP5 DUP5 SWAP1 POP DUP2 LT ISZERO PUSH2 0x69C JUMPI DUP5 DUP5 DUP3 DUP2 DUP2 LT PUSH2 0x54B JUMPI PUSH2 0x54A PUSH2 0x16DD JUMP JUMPDEST JUMPDEST SWAP1 POP PUSH1 0x20 MUL ADD CALLDATALOAD PUSH0 DUP1 ADD ADDRESS PUSH20 0xFFFFFFFFFFFFFFFFFFFFFFFFFFFFFFFFFFFFFFFF AND PUSH4 0x94A72F1C DUP7 DUP7 DUP7 DUP2 DUP2 LT PUSH2 0x584 JUMPI PUSH2 0x583 PUSH2 0x16DD JUMP JUMPDEST JUMPDEST SWAP1 POP PUSH1 0x20 MUL DUP2 ADD SWAP1 PUSH2 0x596 SWAP2 SWAP1 PUSH2 0x1716 JUMP JUMPDEST PUSH1 0x40 MLOAD DUP4 PUSH4 0xFFFFFFFF AND PUSH1 0xE0 SHL DUP2 MSTORE PUSH1 0x4 ADD PUSH2 0x5B3 SWAP3 SWAP2 SWAP1 PUSH2 0x17A4 JUMP JUMPDEST PUSH0 PUSH1 0x40 MLOAD DUP1 DUP4 SUB DUP2 DUP7 GAS STATICCALL ISZERO DUP1 ISZERO PUSH2 0x5CD JUMPI RETURNDATASIZE PUSH0 DUP1 RETURNDATACOPY RETURNDATASIZE PUSH0 REVERT JUMPDEST POP POP POP POP PUSH1 0x40 MLOAD RETURNDATASIZE PUSH0 DUP3 RETURNDATACOPY RETURNDATASIZE PUSH1 0x1F NOT PUSH1 0x1F DUP3 ADD AND DUP3 ADD DUP1 PUSH1 0x40 MSTORE POP DUP2 ADD SWAP1 PUSH2 0x5F5 SWAP2 SWAP1 PUSH2 0x126D JUMP JUMPDEST PUSH1 0x40 MLOAD PUSH2 0x602 SWAP2 SWAP1 PUSH2 0x1800 JUMP JUMPDEST SWAP1 DUP2 MSTORE PUSH1 0x20 ADD PUSH1 0x40 MLOAD DUP1 SWAP2 SUB SWAP1 KECCAK256 DUP2 SWAP1 SSTORE POP PUSH32 0x89186BBD353809BCC0AA77843D6EA72E488B7FD552BFE5AFB4006DC6CD6FE6A3 DUP4 DUP4 DUP4 DUP2 DUP2 LT PUSH2 0x648 JUMPI PUSH2 0x647 PUSH2 0x16DD JUMP JUMPDEST JUMPDEST SWAP1 POP PUSH1 0x20 MUL DUP2 ADD SWAP1 PUSH2 0x65A SWAP2 SWAP1 PUSH2 0x1716 JUMP JUMPDEST DUP8 DUP8 DUP6 DUP2 DUP2 LT PUSH2 0x66D JUMPI PUSH2 0x66C PUSH2 0x16DD JUMP JUMPDEST JUMPDEST SWAP1 POP PUSH1 0x20 MUL ADD CALLDATALOAD CALLER TIMESTAMP PUSH1 0x40 MLOAD PUSH2 0x687 SWAP6 SWAP5 SWAP4 SWAP3 SWAP2 SWAP1 PUSH2 0x1816 JUMP JUMPDEST PUSH1 0x40 MLOAD DUP1 SWAP2 SUB SWAP1 LOG1 DUP1 DUP1 PUSH1 0x1 ADD SWAP2 POP POP PUSH2 0x52D JUMP JUMPDEST POP PUSH32 0xBAD13593CF14DB38C871D023E850302B404AEF491D5E3F41AB7AEBAAFAB6ECDA TIMESTAMP PUSH1 0x40 MLOAD PUSH2 0x6CC SWAP2 SWAP1 PUSH2 0x10B6 JUMP JUMPDEST PUSH1 0x40 MLOAD DUP1 SWAP2 SUB SWAP1 LOG1 POP POP POP POP JUMP JUMPDEST PUSH2 0x6E2 PUSH2 0xAF0 JUMP JUMPDEST PUSH20 0xFFFFFFFFFFFFFFFFFFFFFFFFFFFFFFFFFFFFFFFF AND CALLER PUSH20 0xFFFFFFFFFFFFFFFFFFFFFFFFFFFFFFFFFFFFFFFF AND EQ PUSH2 0x74F JUMPI PUSH1 0x40 MLOAD PUSH32 0x8C379A000000000000000000000000000000000000000000000000000000000 DUP2 MSTORE PUSH1 0x4 ADD PUSH2 0x746 SWAP1 PUSH2 0x114F JUMP JUMPDEST PUSH1 0x40 MLOAD DUP1 SWAP2 SUB SWAP1 REVERT JUMPDEST ADDRESS PUSH20 0xFFFFFFFFFFFFFFFFFFFFFFFFFFFFFFFFFFFFFFFF AND PUSH4 0x94A72F1C DUP3 PUSH1 0x40 MLOAD DUP3 PUSH4 0xFFFFFFFF AND PUSH1 0xE0 SHL DUP2 MSTORE PUSH1 0x4 ADD PUSH2 0x788 SWAP2 SWAP1 PUSH2 0x11AF JUMP JUMPDEST PUSH0 PUSH1 0x40 MLOAD DUP1 DUP4 SUB DUP2 DUP7 GAS STATICCALL ISZERO DUP1 ISZERO PUSH2 0x7A2 JUMPI RETURNDATASIZE PUSH0 DUP1 RETURNDATACOPY RETURNDATASIZE PUSH0 REVERT JUMPDEST POP POP POP POP PUSH1 0x40 MLOAD RETURNDATASIZE PUSH0 DUP3 RETURNDATACOPY RETURNDATASIZE PUSH1 0x1F NOT PUSH1 0x1F DUP3 ADD AND DUP3 ADD DUP1 PUSH1 0x40 MSTORE POP DUP2 ADD SWAP1 PUSH2 0x7CA SWAP2 SWAP1 PUSH2 0x126D JUMP JUMPDEST PUSH0 PUSH1 0x6 ADD SWAP1 DUP2 PUSH2 0x7DA SWAP2 SWAP1 PUSH2 0x14AE JUMP JUMPDEST POP POP JUMP JUMPDEST PUSH1 0x60 PUSH2 0x7E9 DUP3 PUSH2 0xB21 JUMP JUMPDEST SWAP1 POP SWAP2 SWAP1 POP JUMP JUMPDEST PUSH2 0x7F8 PUSH2 0xAF0 JUMP JUMPDEST PUSH20 0xFFFFFFFFFFFFFFFFFFFFFFFFFFFFFFFFFFFFFFFF AND CALLER PUSH20 0xFFFFFFFFFFFFFFFFFFFFFFFFFFFFFFFFFFFFFFFF AND EQ PUSH2 0x865 JUMPI PUSH1 0x40 MLOAD PUSH32 0x8C379A000000000000000000000000000000000000000000000000000000000 DUP2 MSTORE PUSH1 0x4 ADD PUSH2 0x85C SWAP1 PUSH2 0x114F JUMP JUMPDEST PUSH1 0x40 MLOAD DUP1 SWAP2 SUB SWAP1 REVERT JUMPDEST ADDRESS PUSH20 0xFFFFFFFFFFFFFFFFFFFFFFFFFFFFFFFFFFFFFFFF AND PUSH4 0x94A72F1C DUP3 PUSH1 0x40 MLOAD DUP3 PUSH4 0xFFFFFFFF AND PUSH1 0xE0 SHL DUP2 MSTORE PUSH1 0x4 ADD PUSH2 0x89E SWAP2 SWAP1 PUSH2 0x11AF JUMP JUMPDEST PUSH0 PUSH1 0x40 MLOAD DUP1 DUP4 SUB DUP2 DUP7 GAS STATICCALL ISZERO DUP1 ISZERO PUSH2 0x8B8 JUMPI RETURNDATASIZE PUSH0 DUP1 RETURNDATACOPY RETURNDATASIZE PUSH0 REVERT JUMPDEST POP POP POP POP PUSH1 0x40 MLOAD RETURNDATASIZE PUSH0 DUP3 RETURNDATACOPY RETURNDATASIZE PUSH1 0x1F NOT PUSH1 0x1F DUP3 ADD AND DUP3 ADD DUP1 PUSH1 0x40 MSTORE POP DUP2 ADD SWAP1 PUSH2 0x8E0 SWAP2 SWAP1 PUSH2 0x126D JUMP JUMPDEST PUSH0 PUSH1 0x59 ADD SWAP1 DUP2 PUSH2 0x8F0 SWAP2 SWAP1 PUSH2 0x14AE JUMP JUMPDEST POP POP JUMP JUMPDEST PUSH2 0x8FC PUSH2 0xAF0 JUMP JUMPDEST PUSH20 0xFFFFFFFFFFFFFFFFFFFFFFFFFFFFFFFFFFFFFFFF AND CALLER PUSH20 0xFFFFFFFFFFFFFFFFFFFFFFFFFFFFFFFFFFFFFFFF AND EQ PUSH2 0x969 JUMPI PUSH1 0x40 MLOAD PUSH32 0x8C379A000000000000000000000000000000000000000000000000000000000 DUP2 MSTORE PUSH1 0x4 ADD PUSH2 0x960 SWAP1 PUSH2 0x114F JUMP JUMPDEST PUSH1 0x40 MLOAD DUP1 SWAP2 SUB SWAP1 REVERT JUMPDEST PUSH1 0x1 PUSH0 PUSH1 0x1 ADD PUSH0 DUP4 PUSH20 0xFFFFFFFFFFFFFFFFFFFFFFFFFFFFFFFFFFFFFFFF AND PUSH20 0xFFFFFFFFFFFFFFFFFFFFFFFFFFFFFFFFFFFFFFFF AND DUP2 MSTORE PUSH1 0x20 ADD SWAP1 DUP2 MSTORE PUSH1 0x20 ADD PUSH0 KECCAK256 PUSH0 PUSH2 0x100 EXP DUP2 SLOAD DUP2 PUSH1 0xFF MUL NOT AND SWAP1 DUP4 ISZERO ISZERO MUL OR SWAP1 SSTORE POP PUSH32 0x9F47004A8A67AE0EDE102AE657402045A03474BF00CF7E14F62CDBDC5AF9C547 DUP2 CALLER TIMESTAMP PUSH1 0x40 MLOAD PUSH2 0x9F3 SWAP4 SWAP3 SWAP2 SWAP1 PUSH2 0x158C JUMP JUMPDEST PUSH1 0x40 MLOAD DUP1 SWAP2 SUB SWAP1 LOG1 POP JUMP JUMPDEST PUSH0 DUP1 PUSH0 DUP1 ADD PUSH0 PUSH1 0x3D ADD PUSH1 0x40 MLOAD PUSH2 0xA14 SWAP2 SWAP1 PUSH2 0x18E2 JUMP JUMPDEST SWAP1 DUP2 MSTORE PUSH1 0x20 ADD PUSH1 0x40 MLOAD DUP1 SWAP2 SUB SWAP1 KECCAK256 SLOAD PUSH0 DUP1 ADD PUSH0 PUSH1 0x6 ADD PUSH1 0x40 MLOAD PUSH2 0xA37 SWAP2 SWAP1 PUSH2 0x18E2 JUMP JUMPDEST SWAP1 DUP2 MSTORE PUSH1 0x20 ADD PUSH1 0x40 MLOAD DUP1 SWAP2 SUB SWAP1 KECCAK256 SLOAD SWAP2 POP SWAP2 POP SWAP1 SWAP2 JUMP JUMPDEST PUSH0 DUP1 PUSH0 ADD ADDRESS PUSH20 0xFFFFFFFFFFFFFFFFFFFFFFFFFFFFFFFFFFFFFFFF AND PUSH4 0x94A72F1C DUP5 PUSH1 0x40 MLOAD DUP3 PUSH4 0xFFFFFFFF AND PUSH1 0xE0 SHL DUP2 MSTORE PUSH1 0x4 ADD PUSH2 0xA8B SWAP2 SWAP1 PUSH2 0x11AF JUMP JUMPDEST PUSH0 PUSH1 0x40 MLOAD DUP1 DUP4 SUB DUP2 DUP7 GAS STATICCALL ISZERO DUP1 ISZERO PUSH2 0xAA5 JUMPI RETURNDATASIZE PUSH0 DUP1 RETURNDATACOPY RETURNDATASIZE PUSH0 REVERT JUMPDEST POP POP POP POP PUSH1 0x40 MLOAD RETURNDATASIZE PUSH0 DUP3 RETURNDATACOPY RETURNDATASIZE PUSH1 0x1F NOT PUSH1 0x1F DUP3 ADD AND DUP3 ADD DUP1 PUSH1 0x40 MSTORE POP DUP2 ADD SWAP1 PUSH2 0xACD SWAP2 SWAP1 PUSH2 0x126D JUMP JUMPDEST PUSH1 0x40 MLOAD PUSH2 0xADA SWAP2 SWAP1 PUSH2 0x1800 JUMP JUMPDEST SWAP1 DUP2 MSTORE PUSH1 0x20 ADD PUSH1 0x40 MLOAD DUP1 SWAP2 SUB SWAP1 KECCAK256 SLOAD SWAP1 POP SWAP2 SWAP1 POP JUMP JUMPDEST PUSH0 PUSH2 0xAF9 PUSH2 0xBB0 JUMP JUMPDEST PUSH1 0x3 ADD PUSH0 SWAP1 SLOAD SWAP1 PUSH2 0x100 EXP SWAP1 DIV PUSH20 0xFFFFFFFFFFFFFFFFFFFFFFFFFFFFFFFFFFFFFFFF AND SWAP1 POP SWAP1 JUMP JUMPDEST PUSH1 0x60 PUSH0 DUP3 SWAP1 POP PUSH0 JUMPDEST DUP2 MLOAD DUP2 LT ISZERO PUSH2 0xBA6 JUMPI PUSH2 0xB58 DUP3 DUP3 DUP2 MLOAD DUP2 LT PUSH2 0xB48 JUMPI PUSH2 0xB47 PUSH2 0x16DD JUMP JUMPDEST JUMPDEST PUSH1 0x20 ADD ADD MLOAD PUSH1 0xF8 SHR PUSH1 0xF8 SHL PUSH2 0xBDC JUMP JUMPDEST DUP3 DUP3 DUP2 MLOAD DUP2 LT PUSH2 0xB6B JUMPI PUSH2 0xB6A PUSH2 0x16DD JUMP JUMPDEST JUMPDEST PUSH1 0x20 ADD ADD SWAP1 PUSH31 0xFFFFFFFFFFFFFFFFFFFFFFFFFFFFFFFFFFFFFFFFFFFFFFFFFFFFFFFFFFFFFF NOT AND SWAP1 DUP2 PUSH0 BYTE SWAP1 MSTORE8 POP DUP1 DUP1 PUSH1 0x1 ADD SWAP2 POP POP PUSH2 0xB29 JUMP JUMPDEST POP DUP1 SWAP2 POP POP SWAP2 SWAP1 POP JUMP JUMPDEST PUSH0 DUP1 PUSH32 0xC8FCAD8DB84D3CC18B4C41D551EA0EE66DD599CDE068D998E57D5E09332C131C SWAP1 POP DUP1 SWAP2 POP POP SWAP1 JUMP JUMPDEST PUSH0 PUSH1 0x61 PUSH1 0xF8 SHL DUP3 PUSH31 0xFFFFFFFFFFFFFFFFFFFFFFFFFFFFFFFFFFFFFFFFFFFFFFFFFFFFFFFFFFFFFF NOT AND LT ISZERO DUP1 ISZERO PUSH2 0xC39 JUMPI POP PUSH1 0x7A PUSH1 0xF8 SHL DUP3 PUSH31 0xFFFFFFFFFFFFFFFFFFFFFFFFFFFFFFFFFFFFFFFFFFFFFFFFFFFFFFFFFFFFFF NOT AND GT ISZERO JUMPDEST ISZERO PUSH2 0xC58 JUMPI PUSH1 0x20 DUP3 PUSH1 0xF8 SHR PUSH2 0xC4E SWAP2 SWAP1 PUSH2 0x1931 JUMP JUMPDEST PUSH1 0xF8 SHL SWAP1 POP PUSH2 0xC5C JUMP JUMPDEST DUP2 SWAP1 POP JUMPDEST SWAP2 SWAP1 POP JUMP JUMPDEST PUSH0 PUSH1 0x40 MLOAD SWAP1 POP SWAP1 JUMP JUMPDEST PUSH0 DUP1 REVERT JUMPDEST PUSH0 DUP1 REVERT JUMPDEST PUSH0 DUP1 REVERT JUMPDEST PUSH0 DUP1 REVERT JUMPDEST PUSH0 PUSH1 0x1F NOT PUSH1 0x1F DUP4 ADD AND SWAP1 POP SWAP2 SWAP1 POP JUMP JUMPDEST PUSH32 0x4E487B7100000000000000000000000000000000000000000000000000000000 PUSH0 MSTORE PUSH1 0x41 PUSH1 0x4 MSTORE PUSH1 0x24 PUSH0 REVERT JUMPDEST PUSH2 0xCC0 DUP3 PUSH2 0xC7A JUMP JUMPDEST DUP2 ADD DUP2 DUP2 LT PUSH8 0xFFFFFFFFFFFFFFFF DUP3 GT OR ISZERO PUSH2 0xCDF JUMPI PUSH2 0xCDE PUSH2 0xC8A JUMP JUMPDEST JUMPDEST DUP1 PUSH1 0x40 MSTORE POP POP POP JUMP JUMPDEST PUSH0 PUSH2 0xCF1 PUSH2 0xC61 JUMP JUMPDEST SWAP1 POP PUSH2 0xCFD DUP3 DUP3 PUSH2 0xCB7 JUMP JUMPDEST SWAP2 SWAP1 POP JUMP JUMPDEST PUSH0 PUSH8 0xFFFFFFFFFFFFFFFF DUP3 GT ISZERO PUSH2 0xD1C JUMPI PUSH2 0xD1B PUSH2 0xC8A JUMP JUMPDEST JUMPDEST PUSH2 0xD25 DUP3 PUSH2 0xC7A JUMP JUMPDEST SWAP1 POP PUSH1 0x20 DUP2 ADD SWAP1 POP SWAP2 SWAP1 POP JUMP JUMPDEST DUP3 DUP2 DUP4 CALLDATACOPY PUSH0 DUP4 DUP4 ADD MSTORE POP POP POP JUMP JUMPDEST PUSH0 PUSH2 0xD52 PUSH2 0xD4D DUP5 PUSH2 0xD02 JUMP JUMPDEST PUSH2 0xCE8 JUMP JUMPDEST SWAP1 POP DUP3 DUP2 MSTORE PUSH1 0x20 DUP2 ADD DUP5 DUP5 DUP5 ADD GT ISZERO PUSH2 0xD6E JUMPI PUSH2 0xD6D PUSH2 0xC76 JUMP JUMPDEST JUMPDEST PUSH2 0xD79 DUP5 DUP3 DUP6 PUSH2 0xD32 JUMP JUMPDEST POP SWAP4 SWAP3 POP POP POP JUMP JUMPDEST PUSH0 DUP3 PUSH1 0x1F DUP4 ADD SLT PUSH2 0xD95 JUMPI PUSH2 0xD94 PUSH2 0xC72 JUMP JUMPDEST JUMPDEST DUP2 CALLDATALOAD PUSH2 0xDA5 DUP5 DUP3 PUSH1 0x20 DUP7 ADD PUSH2 0xD40 JUMP JUMPDEST SWAP2 POP POP SWAP3 SWAP2 POP POP JUMP JUMPDEST PUSH0 PUSH1 0x20 DUP3 DUP5 SUB SLT ISZERO PUSH2 0xDC3 JUMPI PUSH2 0xDC2 PUSH2 0xC6A JUMP JUMPDEST JUMPDEST PUSH0 DUP3 ADD CALLDATALOAD PUSH8 0xFFFFFFFFFFFFFFFF DUP2 GT ISZERO PUSH2 0xDE0 JUMPI PUSH2 0xDDF PUSH2 0xC6E JUMP JUMPDEST JUMPDEST PUSH2 0xDEC DUP5 DUP3 DUP6 ADD PUSH2 0xD81 JUMP JUMPDEST SWAP2 POP POP SWAP3 SWAP2 POP POP JUMP JUMPDEST PUSH0 PUSH20 0xFFFFFFFFFFFFFFFFFFFFFFFFFFFFFFFFFFFFFFFF DUP3 AND SWAP1 POP SWAP2 SWAP1 POP JUMP JUMPDEST PUSH0 PUSH2 0xE1E DUP3 PUSH2 0xDF5 JUMP JUMPDEST SWAP1 POP SWAP2 SWAP1 POP JUMP JUMPDEST PUSH2 0xE2E DUP2 PUSH2 0xE14 JUMP JUMPDEST DUP2 EQ PUSH2 0xE38 JUMPI PUSH0 DUP1 REVERT JUMPDEST POP JUMP JUMPDEST PUSH0 DUP2 CALLDATALOAD SWAP1 POP PUSH2 0xE49 DUP2 PUSH2 0xE25 JUMP JUMPDEST SWAP3 SWAP2 POP POP JUMP JUMPDEST PUSH0 PUSH1 0x20 DUP3 DUP5 SUB SLT ISZERO PUSH2 0xE64 JUMPI PUSH2 0xE63 PUSH2 0xC6A JUMP JUMPDEST JUMPDEST PUSH0 PUSH2 0xE71 DUP5 DUP3 DUP6 ADD PUSH2 0xE3B JUMP JUMPDEST SWAP2 POP POP SWAP3 SWAP2 POP POP JUMP JUMPDEST PUSH0 DUP2 ISZERO ISZERO SWAP1 POP SWAP2 SWAP1 POP JUMP JUMPDEST PUSH2 0xE8E DUP2 PUSH2 0xE7A JUMP JUMPDEST DUP3 MSTORE POP POP JUMP JUMPDEST PUSH0 PUSH1 0x20 DUP3 ADD SWAP1 POP PUSH2 0xEA7 PUSH0 DUP4 ADD DUP5 PUSH2 0xE85 JUMP JUMPDEST SWAP3 SWAP2 POP POP JUMP JUMPDEST PUSH0 DUP1 REVERT JUMPDEST PUSH0 DUP1 REVERT JUMPDEST PUSH0 DUP1 DUP4 PUSH1 0x1F DUP5 ADD SLT PUSH2 0xECA JUMPI PUSH2 0xEC9 PUSH2 0xC72 JUMP JUMPDEST JUMPDEST DUP3 CALLDATALOAD SWAP1 POP PUSH8 0xFFFFFFFFFFFFFFFF DUP2 GT ISZERO PUSH2 0xEE7 JUMPI PUSH2 0xEE6 PUSH2 0xEAD JUMP JUMPDEST JUMPDEST PUSH1 0x20 DUP4 ADD SWAP2 POP DUP4 PUSH1 0x20 DUP3 MUL DUP4 ADD GT ISZERO PUSH2 0xF03 JUMPI PUSH2 0xF02 PUSH2 0xEB1 JUMP JUMPDEST JUMPDEST SWAP3 POP SWAP3 SWAP1 POP JUMP JUMPDEST PUSH0 DUP1 DUP4 PUSH1 0x1F DUP5 ADD SLT PUSH2 0xF1F JUMPI PUSH2 0xF1E PUSH2 0xC72 JUMP JUMPDEST JUMPDEST DUP3 CALLDATALOAD SWAP1 POP PUSH8 0xFFFFFFFFFFFFFFFF DUP2 GT ISZERO PUSH2 0xF3C JUMPI PUSH2 0xF3B PUSH2 0xEAD JUMP JUMPDEST JUMPDEST PUSH1 0x20 DUP4 ADD SWAP2 POP DUP4 PUSH1 0x20 DUP3 MUL DUP4 ADD GT ISZERO PUSH2 0xF58 JUMPI PUSH2 0xF57 PUSH2 0xEB1 JUMP JUMPDEST JUMPDEST SWAP3 POP SWAP3 SWAP1 POP JUMP JUMPDEST PUSH0 DUP1 PUSH0 DUP1 PUSH1 0x40 DUP6 DUP8 SUB SLT ISZERO PUSH2 0xF77 JUMPI PUSH2 0xF76 PUSH2 0xC6A JUMP JUMPDEST JUMPDEST PUSH0 DUP6 ADD CALLDATALOAD PUSH8 0xFFFFFFFFFFFFFFFF DUP2 GT ISZERO PUSH2 0xF94 JUMPI PUSH2 0xF93 PUSH2 0xC6E JUMP JUMPDEST JUMPDEST PUSH2 0xFA0 DUP8 DUP3 DUP9 ADD PUSH2 0xEB5 JUMP JUMPDEST SWAP5 POP SWAP5 POP POP PUSH1 0x20 DUP6 ADD CALLDATALOAD PUSH8 0xFFFFFFFFFFFFFFFF DUP2 GT ISZERO PUSH2 0xFC3 JUMPI PUSH2 0xFC2 PUSH2 0xC6E JUMP JUMPDEST JUMPDEST PUSH2 0xFCF DUP8 DUP3 DUP9 ADD PUSH2 0xF0A JUMP JUMPDEST SWAP3 POP SWAP3 POP POP SWAP3 SWAP6 SWAP2 SWAP5 POP SWAP3 POP JUMP JUMPDEST PUSH0 DUP2 MLOAD SWAP1 POP SWAP2 SWAP1 POP JUMP JUMPDEST PUSH0 DUP3 DUP3 MSTORE PUSH1 0x20 DUP3 ADD SWAP1 POP SWAP3 SWAP2 POP POP JUMP JUMPDEST PUSH0 JUMPDEST DUP4 DUP2 LT ISZERO PUSH2 0x1014 JUMPI DUP1 DUP3 ADD MLOAD DUP2 DUP5 ADD MSTORE PUSH1 0x20 DUP2 ADD SWAP1 POP PUSH2 0xFF9 JUMP JUMPDEST PUSH0 DUP5 DUP5 ADD MSTORE POP POP POP POP JUMP JUMPDEST PUSH0 PUSH2 0x1029 DUP3 PUSH2 0xFDD JUMP JUMPDEST PUSH2 0x1033 DUP2 DUP6 PUSH2 0xFE7 JUMP JUMPDEST SWAP4 POP PUSH2 0x1043 DUP2 DUP6 PUSH1 0x20 DUP7 ADD PUSH2 0xFF7 JUMP JUMPDEST PUSH2 0x104C DUP2 PUSH2 0xC7A JUMP JUMPDEST DUP5 ADD SWAP2 POP POP SWAP3 SWAP2 POP POP JUMP JUMPDEST PUSH0 PUSH1 0x20 DUP3 ADD SWAP1 POP DUP2 DUP2 SUB PUSH0 DUP4 ADD MSTORE PUSH2 0x106F DUP2 DUP5 PUSH2 0x101F JUMP JUMPDEST SWAP1 POP SWAP3 SWAP2 POP POP JUMP JUMPDEST PUSH0 DUP2 SWAP1 POP SWAP2 SWAP1 POP JUMP JUMPDEST PUSH2 0x1089 DUP2 PUSH2 0x1077 JUMP JUMPDEST DUP3 MSTORE POP POP JUMP JUMPDEST PUSH0 PUSH1 0x40 DUP3 ADD SWAP1 POP PUSH2 0x10A2 PUSH0 DUP4 ADD DUP6 PUSH2 0x1080 JUMP JUMPDEST PUSH2 0x10AF PUSH1 0x20 DUP4 ADD DUP5 PUSH2 0x1080 JUMP JUMPDEST SWAP4 SWAP3 POP POP POP JUMP JUMPDEST PUSH0 PUSH1 0x20 DUP3 ADD SWAP1 POP PUSH2 0x10C9 PUSH0 DUP4 ADD DUP5 PUSH2 0x1080 JUMP JUMPDEST SWAP3 SWAP2 POP POP JUMP JUMPDEST PUSH0 DUP3 DUP3 MSTORE PUSH1 0x20 DUP3 ADD SWAP1 POP SWAP3 SWAP2 POP POP JUMP JUMPDEST PUSH32 0x4163636573732064656E6965642C204F6E6C79206F776E657220697320616C6C PUSH0 DUP3 ADD MSTORE PUSH32 0x6F77656421000000000000000000000000000000000000000000000000000000 PUSH1 0x20 DUP3 ADD MSTORE POP JUMP JUMPDEST PUSH0 PUSH2 0x1139 PUSH1 0x25 DUP4 PUSH2 0x10CF JUMP JUMPDEST SWAP2 POP PUSH2 0x1144 DUP3 PUSH2 0x10DF JUMP JUMPDEST PUSH1 0x40 DUP3 ADD SWAP1 POP SWAP2 SWAP1 POP JUMP JUMPDEST PUSH0 PUSH1 0x20 DUP3 ADD SWAP1 POP DUP2 DUP2 SUB PUSH0 DUP4 ADD MSTORE PUSH2 0x1166 DUP2 PUSH2 0x112D JUMP JUMPDEST SWAP1 POP SWAP2 SWAP1 POP JUMP JUMPDEST PUSH0 DUP2 MLOAD SWAP1 POP SWAP2 SWAP1 POP JUMP JUMPDEST PUSH0 PUSH2 0x1181 DUP3 PUSH2 0x116D JUMP JUMPDEST PUSH2 0x118B DUP2 DUP6 PUSH2 0x10CF JUMP JUMPDEST SWAP4 POP PUSH2 0x119B DUP2 DUP6 PUSH1 0x20 DUP7 ADD PUSH2 0xFF7 JUMP JUMPDEST PUSH2 0x11A4 DUP2 PUSH2 0xC7A JUMP JUMPDEST DUP5 ADD SWAP2 POP POP SWAP3 SWAP2 POP POP JUMP JUMPDEST PUSH0 PUSH1 0x20 DUP3 ADD SWAP1 POP DUP2 DUP2 SUB PUSH0 DUP4 ADD MSTORE PUSH2 0x11C7 DUP2 DUP5 PUSH2 0x1177 JUMP JUMPDEST SWAP1 POP SWAP3 SWAP2 POP POP JUMP JUMPDEST PUSH0 PUSH8 0xFFFFFFFFFFFFFFFF DUP3 GT ISZERO PUSH2 0x11E9 JUMPI PUSH2 0x11E8 PUSH2 0xC8A JUMP JUMPDEST JUMPDEST PUSH2 0x11F2 DUP3 PUSH2 0xC7A JUMP JUMPDEST SWAP1 POP PUSH1 0x20 DUP2 ADD SWAP1 POP SWAP2 SWAP1 POP JUMP JUMPDEST PUSH0 PUSH2 0x1211 PUSH2 0x120C DUP5 PUSH2 0x11CF JUMP JUMPDEST PUSH2 0xCE8 JUMP JUMPDEST SWAP1 POP DUP3 DUP2 MSTORE PUSH1 0x20 DUP2 ADD DUP5 DUP5 DUP5 ADD GT ISZERO PUSH2 0x122D JUMPI PUSH2 0x122C PUSH2 0xC76 JUMP JUMPDEST JUMPDEST PUSH2 0x1238 DUP5 DUP3 DUP6 PUSH2 0xFF7 JUMP JUMPDEST POP SWAP4 SWAP3 POP POP POP JUMP JUMPDEST PUSH0 DUP3 PUSH1 0x1F DUP4 ADD SLT PUSH2 0x1254 JUMPI PUSH2 0x1253 PUSH2 0xC72 JUMP JUMPDEST JUMPDEST DUP2 MLOAD PUSH2 0x1264 DUP5 DUP3 PUSH1 0x20 DUP7 ADD PUSH2 0x11FF JUMP JUMPDEST SWAP2 POP POP SWAP3 SWAP2 POP POP JUMP JUMPDEST PUSH0 PUSH1 0x20 DUP3 DUP5 SUB SLT ISZERO PUSH2 0x1282 JUMPI PUSH2 0x1281 PUSH2 0xC6A JUMP JUMPDEST JUMPDEST PUSH0 DUP3 ADD MLOAD PUSH8 0xFFFFFFFFFFFFFFFF DUP2 GT ISZERO PUSH2 0x129F JUMPI PUSH2 0x129E PUSH2 0xC6E JUMP JUMPDEST JUMPDEST PUSH2 0x12AB DUP5 DUP3 DUP6 ADD PUSH2 0x1240 JUMP JUMPDEST SWAP2 POP POP SWAP3 SWAP2 POP POP JUMP JUMPDEST PUSH32 0x4E487B7100000000000000000000000000000000000000000000000000000000 PUSH0 MSTORE PUSH1 0x22 PUSH1 0x4 MSTORE PUSH1 0x24 PUSH0 REVERT JUMPDEST PUSH0 PUSH1 0x2 DUP3 DIV SWAP1 POP PUSH1 0x1 DUP3 AND DUP1 PUSH2 0x12F8 JUMPI PUSH1 0x7F DUP3 AND SWAP2 POP JUMPDEST PUSH1 0x20 DUP3 LT DUP2 SUB PUSH2 0x130B JUMPI PUSH2 0x130A PUSH2 0x12B4 JUMP JUMPDEST JUMPDEST POP SWAP2 SWAP1 POP JUMP JUMPDEST PUSH0 DUP2 SWAP1 POP DUP2 PUSH0 MSTORE PUSH1 0x20 PUSH0 KECCAK256 SWAP1 POP SWAP2 SWAP1 POP JUMP JUMPDEST PUSH0 PUSH1 0x20 PUSH1 0x1F DUP4 ADD DIV SWAP1 POP SWAP2 SWAP1 POP JUMP JUMPDEST PUSH0 DUP3 DUP3 SHL SWAP1 POP SWAP3 SWAP2 POP POP JUMP JUMPDEST PUSH0 PUSH1 0x8 DUP4 MUL PUSH2 0x136D PUSH32 0xFFFFFFFFFFFFFFFFFFFFFFFFFFFFFFFFFFFFFFFFFFFFFFFFFFFFFFFFFFFFFFFF DUP3 PUSH2 0x1332 JUMP JUMPDEST PUSH2 0x1377 DUP7 DUP4 PUSH2 0x1332 JUMP JUMPDEST SWAP6 POP DUP1 NOT DUP5 AND SWAP4 POP DUP1 DUP7 AND DUP5 OR SWAP3 POP POP POP SWAP4 SWAP3 POP POP POP JUMP JUMPDEST PUSH0 DUP2 SWAP1 POP SWAP2 SWAP1 POP JUMP JUMPDEST PUSH0 PUSH2 0x13B2 PUSH2 0x13AD PUSH2 0x13A8 DUP5 PUSH2 0x1077 JUMP JUMPDEST PUSH2 0x138F JUMP JUMPDEST PUSH2 0x1077 JUMP JUMPDEST SWAP1 POP SWAP2 SWAP1 POP JUMP JUMPDEST PUSH0 DUP2 SWAP1 POP SWAP2 SWAP1 POP JUMP JUMPDEST PUSH2 0x13CB DUP4 PUSH2 0x1398 JUMP JUMPDEST PUSH2 0x13DF PUSH2 0x13D7 DUP3 PUSH2 0x13B9 JUMP JUMPDEST DUP5 DUP5 SLOAD PUSH2 0x133E JUMP JUMPDEST DUP3 SSTORE POP POP POP POP JUMP JUMPDEST PUSH0 SWAP1 JUMP JUMPDEST PUSH2 0x13F3 PUSH2 0x13E7 JUMP JUMPDEST PUSH2 0x13FE DUP2 DUP5 DUP5 PUSH2 0x13C2 JUMP JUMPDEST POP POP POP JUMP JUMPDEST JUMPDEST DUP2 DUP2 LT ISZERO PUSH2 0x1421 JUMPI PUSH2 0x1416 PUSH0 DUP3 PUSH2 0x13EB JUMP JUMPDEST PUSH1 0x1 DUP2 ADD SWAP1 POP PUSH2 0x1404 JUMP JUMPDEST POP POP JUMP JUMPDEST PUSH1 0x1F DUP3 GT ISZERO PUSH2 0x1466 JUMPI PUSH2 0x1437 DUP2 PUSH2 0x1311 JUMP JUMPDEST PUSH2 0x1440 DUP5 PUSH2 0x1323 JUMP JUMPDEST DUP2 ADD PUSH1 0x20 DUP6 LT ISZERO PUSH2 0x144F JUMPI DUP2 SWAP1 POP JUMPDEST PUSH2 0x1463 PUSH2 0x145B DUP6 PUSH2 0x1323 JUMP JUMPDEST DUP4 ADD DUP3 PUSH2 0x1403 JUMP JUMPDEST POP POP JUMPDEST POP POP POP JUMP JUMPDEST PUSH0 DUP3 DUP3 SHR SWAP1 POP SWAP3 SWAP2 POP POP JUMP JUMPDEST PUSH0 PUSH2 0x1486 PUSH0 NOT DUP5 PUSH1 0x8 MUL PUSH2 0x146B JUMP JUMPDEST NOT DUP1 DUP4 AND SWAP2 POP POP SWAP3 SWAP2 POP POP JUMP JUMPDEST PUSH0 PUSH2 0x149E DUP4 DUP4 PUSH2 0x1477 JUMP JUMPDEST SWAP2 POP DUP3 PUSH1 0x2 MUL DUP3 OR SWAP1 POP SWAP3 SWAP2 POP POP JUMP JUMPDEST PUSH2 0x14B7 DUP3 PUSH2 0xFDD JUMP JUMPDEST PUSH8 0xFFFFFFFFFFFFFFFF DUP2 GT ISZERO PUSH2 0x14D0 JUMPI PUSH2 0x14CF PUSH2 0xC8A JUMP JUMPDEST JUMPDEST PUSH2 0x14DA DUP3 SLOAD PUSH2 0x12E1 JUMP JUMPDEST PUSH2 0x14E5 DUP3 DUP3 DUP6 PUSH2 0x1425 JUMP JUMPDEST PUSH0 PUSH1 0x20 SWAP1 POP PUSH1 0x1F DUP4 GT PUSH1 0x1 DUP2 EQ PUSH2 0x1516 JUMPI PUSH0 DUP5 ISZERO PUSH2 0x1504 JUMPI DUP3 DUP8 ADD MLOAD SWAP1 POP JUMPDEST PUSH2 0x150E DUP6 DUP3 PUSH2 0x1493 JUMP JUMPDEST DUP7 SSTORE POP PUSH2 0x1575 JUMP JUMPDEST PUSH1 0x1F NOT DUP5 AND PUSH2 0x1524 DUP7 PUSH2 0x1311 JUMP JUMPDEST PUSH0 JUMPDEST DUP3 DUP2 LT ISZERO PUSH2 0x154B JUMPI DUP5 DUP10 ADD MLOAD DUP3 SSTORE PUSH1 0x1 DUP3 ADD SWAP2 POP PUSH1 0x20 DUP6 ADD SWAP5 POP PUSH1 0x20 DUP2 ADD SWAP1 POP PUSH2 0x1526 JUMP JUMPDEST DUP7 DUP4 LT ISZERO PUSH2 0x1568 JUMPI DUP5 DUP10 ADD MLOAD PUSH2 0x1564 PUSH1 0x1F DUP10 AND DUP3 PUSH2 0x1477 JUMP JUMPDEST DUP4 SSTORE POP JUMPDEST PUSH1 0x1 PUSH1 0x2 DUP9 MUL ADD DUP9 SSTORE POP POP POP JUMPDEST POP POP POP POP POP POP JUMP JUMPDEST PUSH2 0x1586 DUP2 PUSH2 0xE14 JUMP JUMPDEST DUP3 MSTORE POP POP JUMP JUMPDEST PUSH0 PUSH1 0x60 DUP3 ADD SWAP1 POP PUSH2 0x159F PUSH0 DUP4 ADD DUP7 PUSH2 0x157D JUMP JUMPDEST PUSH2 0x15AC PUSH1 0x20 DUP4 ADD DUP6 PUSH2 0x157D JUMP JUMPDEST PUSH2 0x15B9 PUSH1 0x40 DUP4 ADD DUP5 PUSH2 0x1080 JUMP JUMPDEST SWAP5 SWAP4 POP POP POP POP JUMP JUMPDEST PUSH32 0x4163636573732064656E6965642E204F6E6C792050797468696120697320616C PUSH0 DUP3 ADD MSTORE PUSH32 0x6C6F776564210000000000000000000000000000000000000000000000000000 PUSH1 0x20 DUP3 ADD MSTORE POP JUMP JUMPDEST PUSH0 PUSH2 0x161B PUSH1 0x26 DUP4 PUSH2 0x10CF JUMP JUMPDEST SWAP2 POP PUSH2 0x1626 DUP3 PUSH2 0x15C1 JUMP JUMPDEST PUSH1 0x40 DUP3 ADD SWAP1 POP SWAP2 SWAP1 POP JUMP JUMPDEST PUSH0 PUSH1 0x20 DUP3 ADD SWAP1 POP DUP2 DUP2 SUB PUSH0 DUP4 ADD MSTORE PUSH2 0x1648 DUP2 PUSH2 0x160F JUMP JUMPDEST SWAP1 POP SWAP2 SWAP1 POP JUMP JUMPDEST PUSH32 0x50726963657320616E64207469636B657273206D757374206265206F66206571 PUSH0 DUP3 ADD MSTORE PUSH32 0x75616C206C656E67746800000000000000000000000000000000000000000000 PUSH1 0x20 DUP3 ADD MSTORE POP JUMP JUMPDEST PUSH0 PUSH2 0x16A9 PUSH1 0x2A DUP4 PUSH2 0x10CF JUMP JUMPDEST SWAP2 POP PUSH2 0x16B4 DUP3 PUSH2 0x164F JUMP JUMPDEST PUSH1 0x40 DUP3 ADD SWAP1 POP SWAP2 SWAP1 POP JUMP JUMPDEST PUSH0 PUSH1 0x20 DUP3 ADD SWAP1 POP DUP2 DUP2 SUB PUSH0 DUP4 ADD MSTORE PUSH2 0x16D6 DUP2 PUSH2 0x169D JUMP JUMPDEST SWAP1 POP SWAP2 SWAP1 POP JUMP JUMPDEST PUSH32 0x4E487B7100000000000000000000000000000000000000000000000000000000 PUSH0 MSTORE PUSH1 0x32 PUSH1 0x4 MSTORE PUSH1 0x24 PUSH0 REVERT JUMPDEST PUSH0 DUP1 REVERT JUMPDEST PUSH0 DUP1 REVERT JUMPDEST PUSH0 DUP1 REVERT JUMPDEST PUSH0 DUP1 DUP4 CALLDATALOAD PUSH1 0x1 PUSH1 0x20 SUB DUP5 CALLDATASIZE SUB SUB DUP2 SLT PUSH2 0x1732 JUMPI PUSH2 0x1731 PUSH2 0x170A JUMP JUMPDEST JUMPDEST DUP1 DUP5 ADD SWAP3 POP DUP3 CALLDATALOAD SWAP2 POP PUSH8 0xFFFFFFFFFFFFFFFF DUP3 GT ISZERO PUSH2 0x1754 JUMPI PUSH2 0x1753 PUSH2 0x170E JUMP JUMPDEST JUMPDEST PUSH1 0x20 DUP4 ADD SWAP3 POP PUSH1 0x1 DUP3 MUL CALLDATASIZE SUB DUP4 SGT ISZERO PUSH2 0x1770 JUMPI PUSH2 0x176F PUSH2 0x1712 JUMP JUMPDEST JUMPDEST POP SWAP3 POP SWAP3 SWAP1 POP JUMP JUMPDEST PUSH0 PUSH2 0x1783 DUP4 DUP6 PUSH2 0x10CF JUMP JUMPDEST SWAP4 POP PUSH2 0x1790 DUP4 DUP6 DUP5 PUSH2 0xD32 JUMP JUMPDEST PUSH2 0x1799 DUP4 PUSH2 0xC7A JUMP JUMPDEST DUP5 ADD SWAP1 POP SWAP4 SWAP3 POP POP POP JUMP JUMPDEST PUSH0 PUSH1 0x20 DUP3 ADD SWAP1 POP DUP2 DUP2 SUB PUSH0 DUP4 ADD MSTORE PUSH2 0x17BD DUP2 DUP5 DUP7 PUSH2 0x1778 JUMP JUMPDEST SWAP1 POP SWAP4 SWAP3 POP POP POP JUMP JUMPDEST PUSH0 DUP2 SWAP1 POP SWAP3 SWAP2 POP POP JUMP JUMPDEST PUSH0 PUSH2 0x17DA DUP3 PUSH2 0xFDD JUMP JUMPDEST PUSH2 0x17E4 DUP2 DUP6 PUSH2 0x17C6 JUMP JUMPDEST SWAP4 POP PUSH2 0x17F4 DUP2 DUP6 PUSH1 0x20 DUP7 ADD PUSH2 0xFF7 JUMP JUMPDEST DUP1 DUP5 ADD SWAP2 POP POP SWAP3 SWAP2 POP POP JUMP JUMPDEST PUSH0 PUSH2 0x180B DUP3 DUP5 PUSH2 0x17D0 JUMP JUMPDEST SWAP2 POP DUP2 SWAP1 POP SWAP3 SWAP2 POP POP JUMP JUMPDEST PUSH0 PUSH1 0x80 DUP3 ADD SWAP1 POP DUP2 DUP2 SUB PUSH0 DUP4 ADD MSTORE PUSH2 0x182F DUP2 DUP8 DUP10 PUSH2 0x1778 JUMP JUMPDEST SWAP1 POP PUSH2 0x183E PUSH1 0x20 DUP4 ADD DUP7 PUSH2 0x1080 JUMP JUMPDEST PUSH2 0x184B PUSH1 0x40 DUP4 ADD DUP6 PUSH2 0x157D JUMP JUMPDEST PUSH2 0x1858 PUSH1 0x60 DUP4 ADD DUP5 PUSH2 0x1080 JUMP JUMPDEST SWAP7 SWAP6 POP POP POP POP POP POP JUMP JUMPDEST PUSH0 DUP2 SLOAD PUSH2 0x186E DUP2 PUSH2 0x12E1 JUMP JUMPDEST PUSH2 0x1878 DUP2 DUP7 PUSH2 0x17C6 JUMP JUMPDEST SWAP5 POP PUSH1 0x1 DUP3 AND PUSH0 DUP2 EQ PUSH2 0x1892 JUMPI PUSH1 0x1 DUP2 EQ PUSH2 0x18A7 JUMPI PUSH2 0x18D9 JUMP JUMPDEST PUSH1 0xFF NOT DUP4 AND DUP7 MSTORE DUP2 ISZERO ISZERO DUP3 MUL DUP7 ADD SWAP4 POP PUSH2 0x18D9 JUMP JUMPDEST PUSH2 0x18B0 DUP6 PUSH2 0x1311 JUMP JUMPDEST PUSH0 JUMPDEST DUP4 DUP2 LT ISZERO PUSH2 0x18D1 JUMPI DUP2 SLOAD DUP2 DUP10 ADD MSTORE PUSH1 0x1 DUP3 ADD SWAP2 POP PUSH1 0x20 DUP2 ADD SWAP1 POP PUSH2 0x18B2 JUMP JUMPDEST DUP4 DUP9 ADD SWAP6 POP POP POP JUMPDEST POP POP POP SWAP3 SWAP2 POP POP JUMP JUMPDEST PUSH0 PUSH2 0x18ED DUP3 DUP5 PUSH2 0x1862 JUMP JUMPDEST SWAP2 POP DUP2 SWAP1 POP SWAP3 SWAP2 POP POP JUMP JUMPDEST PUSH0 PUSH1 0xFF DUP3 AND SWAP1 POP SWAP2 SWAP1 POP JUMP JUMPDEST PUSH32 0x4E487B7100000000000000000000000000000000000000000000000000000000 PUSH0 MSTORE PUSH1 0x11 PUSH1 0x4 MSTORE PUSH1 0x24 PUSH0 REVERT JUMPDEST PUSH0 PUSH2 0x193B DUP3 PUSH2 0x18F8 JUMP JUMPDEST SWAP2 POP PUSH2 0x1946 DUP4 PUSH2 0x18F8 JUMP JUMPDEST SWAP3 POP DUP3 DUP3 SUB SWAP1 POP PUSH1 0xFF DUP2 GT ISZERO PUSH2 0x195F JUMPI PUSH2 0x195E PUSH2 0x1904 JUMP JUMPDEST JUMPDEST SWAP3 SWAP2 POP POP JUMP INVALID LOG2 PUSH5 0x6970667358 0x22 SLT KECCAK256 0xB9 DUP5 0xAB EXTCODESIZE EXTCODEHASH 0xD2 ADDRESS JUMPDEST SAR JUMP 0xE7 0xE1 0xAF AND 0x5E 0xC8 0xE4 EXTCODECOPY 0xAA 0xD6 0xDB 0xD3 0xEA 0xAC 0xDB 0xA8 PUSH21 0x81A91D181164736F6C634300081600330000000000 "
		},
		"gasEstimates": {
			"creation": {
				"codeDepositCost": "1311000",
				"executionCost": "1361",
				"totalCost": "1312361"
			},
			"external": {
				"converter(string)": "infinite",
				"getStakingAndBuyingTokenPrices()": "infinite",
				"isPythia(address)": "2921",
				"price(string)": "infinite",
				"setEGCUSDTicker(string)": "infinite",
				"setNairaUSDTicker(string)": "infinite",
				"setPythia(address)": "infinite",
				"setStakingTokenTicker(string)": "infinite",
				"suspendPythia(address)": "infinite",
				"updateTickerPrices(uint256[],string[])": "infinite"
			},
			"internal": {
				"_upper(bytes1)": "infinite",
				"upper(string memory)": "infinite"
			}
		},
		"methodIdentifiers": {
			"converter(string)": "94a72f1c",
			"getStakingAndBuyingTokenPrices()": "fc3a49e0",
			"isPythia(address)": "658bdb2e",
			"price(string)": "fe2c6198",
			"setEGCUSDTicker(string)": "832427da",
			"setNairaUSDTicker(string)": "267561c8",
			"setPythia(address)": "b55bfc6f",
			"setStakingTokenTicker(string)": "b2312c2f",
			"suspendPythia(address)": "5c60896d",
			"updateTickerPrices(uint256[],string[])": "734bc659"
		}
	},
	"abi": [
		{
			"anonymous": false,
			"inputs": [
				{
					"indexed": false,
					"internalType": "string",
					"name": "_ticker",
					"type": "string"
				},
				{
					"indexed": false,
					"internalType": "uint256",
					"name": "_price",
					"type": "uint256"
				},
				{
					"indexed": false,
					"internalType": "address",
					"name": "_pythia",
					"type": "address"
				},
				{
					"indexed": false,
					"internalType": "uint256",
					"name": "_time",
					"type": "uint256"
				}
			],
			"name": "PriceUpdated",
			"type": "event"
		},
		{
			"anonymous": false,
			"inputs": [
				{
					"indexed": false,
					"internalType": "uint256",
					"name": "_time",
					"type": "uint256"
				}
			],
			"name": "PrinceChanged",
			"type": "event"
		},
		{
			"anonymous": false,
			"inputs": [
				{
					"indexed": false,
					"internalType": "address",
					"name": "_pythia",
					"type": "address"
				},
				{
					"indexed": false,
					"internalType": "address",
					"name": "_addBy",
					"type": "address"
				},
				{
					"indexed": false,
					"internalType": "uint256",
					"name": "_time",
					"type": "uint256"
				}
			],
			"name": "PythiaAdded",
			"type": "event"
		},
		{
			"anonymous": false,
			"inputs": [
				{
					"indexed": false,
					"internalType": "address",
					"name": "_pythia",
					"type": "address"
				},
				{
					"indexed": false,
					"internalType": "address",
					"name": "_addBy",
					"type": "address"
				},
				{
					"indexed": false,
					"internalType": "uint256",
					"name": "_time",
					"type": "uint256"
				}
			],
			"name": "PythiaSuspended",
			"type": "event"
		},
		{
			"inputs": [
				{
					"internalType": "string",
					"name": "_source",
					"type": "string"
				}
			],
			"name": "converter",
			"outputs": [
				{
					"internalType": "bytes",
					"name": "",
					"type": "bytes"
				}
			],
			"stateMutability": "pure",
			"type": "function"
		},
		{
			"inputs": [],
			"name": "getStakingAndBuyingTokenPrices",
			"outputs": [
				{
					"internalType": "uint256",
					"name": "",
					"type": "uint256"
				},
				{
					"internalType": "uint256",
					"name": "",
					"type": "uint256"
				}
			],
			"stateMutability": "view",
			"type": "function"
		},
		{
			"inputs": [
				{
					"internalType": "address",
					"name": "_pythia",
					"type": "address"
				}
			],
			"name": "isPythia",
			"outputs": [
				{
					"internalType": "bool",
					"name": "",
					"type": "bool"
				}
			],
			"stateMutability": "view",
			"type": "function"
		},
		{
			"inputs": [
				{
					"internalType": "string",
					"name": "_ticker",
					"type": "string"
				}
			],
			"name": "price",
			"outputs": [
				{
					"internalType": "uint256",
					"name": "",
					"type": "uint256"
				}
			],
			"stateMutability": "view",
			"type": "function"
		},
		{
			"inputs": [
				{
					"internalType": "string",
					"name": "_ticker",
					"type": "string"
				}
			],
			"name": "setEGCUSDTicker",
			"outputs": [],
			"stateMutability": "nonpayable",
			"type": "function"
		},
		{
			"inputs": [
				{
					"internalType": "string",
					"name": "_ticker",
					"type": "string"
				}
			],
			"name": "setNairaUSDTicker",
			"outputs": [],
			"stateMutability": "nonpayable",
			"type": "function"
		},
		{
			"inputs": [
				{
					"internalType": "address",
					"name": "_pythia",
					"type": "address"
				}
			],
			"name": "setPythia",
			"outputs": [],
			"stateMutability": "nonpayable",
			"type": "function"
		},
		{
			"inputs": [
				{
					"internalType": "string",
					"name": "_ticker",
					"type": "string"
				}
			],
			"name": "setStakingTokenTicker",
			"outputs": [],
			"stateMutability": "nonpayable",
			"type": "function"
		},
		{
			"inputs": [
				{
					"internalType": "address",
					"name": "_pythia",
					"type": "address"
				}
			],
			"name": "suspendPythia",
			"outputs": [],
			"stateMutability": "nonpayable",
			"type": "function"
		},
		{
			"inputs": [
				{
					"internalType": "uint256[]",
					"name": "_prices",
					"type": "uint256[]"
				},
				{
					"internalType": "string[]",
					"name": "_tickers",
					"type": "string[]"
				}
			],
			"name": "updateTickerPrices",
			"outputs": [],
			"stateMutability": "nonpayable",
			"type": "function"
		}
	]
}